{
	"TokenSwap.sol": {
		"TokenSwap": {
			"abi": [
				{
					"inputs": [
						{
							"internalType": "address",
							"name": "_token1",
							"type": "address"
						},
						{
							"internalType": "address",
							"name": "_owner1",
							"type": "address"
						},
						{
							"internalType": "address",
							"name": "_token2",
							"type": "address"
						},
						{
							"internalType": "address",
							"name": "_owner2",
							"type": "address"
						}
					],
					"stateMutability": "nonpayable",
					"type": "constructor"
				},
				{
					"inputs": [],
					"name": "owner1",
					"outputs": [
						{
							"internalType": "address",
							"name": "",
							"type": "address"
						}
					],
					"stateMutability": "view",
					"type": "function"
				},
				{
					"inputs": [],
					"name": "owner2",
					"outputs": [
						{
							"internalType": "address",
							"name": "",
							"type": "address"
						}
					],
					"stateMutability": "view",
					"type": "function"
				},
				{
					"inputs": [
						{
							"internalType": "uint256",
							"name": "_amount1",
							"type": "uint256"
						},
						{
							"internalType": "uint256",
							"name": "_amount2",
							"type": "uint256"
						}
					],
					"name": "swap",
					"outputs": [],
					"stateMutability": "nonpayable",
					"type": "function"
				},
				{
					"inputs": [],
					"name": "token1",
					"outputs": [
						{
							"internalType": "contract IERC20",
							"name": "",
							"type": "address"
						}
					],
					"stateMutability": "view",
					"type": "function"
				},
				{
					"inputs": [],
					"name": "token2",
					"outputs": [
						{
							"internalType": "contract IERC20",
							"name": "",
							"type": "address"
						}
					],
					"stateMutability": "view",
					"type": "function"
				}
			],
			"devdoc": {
				"kind": "dev",
				"methods": {},
				"version": 1
			},
			"evm": {
				"assembly": "    /* \"TokenSwap.sol\":116:1372  contract TokenSwap {... */\n  mstore(0x40, 0x80)\n    /* \"TokenSwap.sol\":250:505  constructor (... */\n  callvalue\n  dup1\n  iszero\n  tag_1\n  jumpi\n  0x00\n  dup1\n  revert\ntag_1:\n  pop\n  mload(0x40)\n  sub(codesize, bytecodeSize)\n  dup1\n  bytecodeSize\n  dup4\n  codecopy\n  dup2\n  dup2\n  add\n  0x40\n  mstore\n  dup2\n  add\n  swap1\n  tag_2\n  swap2\n  swap1\n  tag_3\n  jump\t// in\ntag_2:\n    /* \"TokenSwap.sol\":402:409  _token1 */\n  dup4\n    /* \"TokenSwap.sol\":386:392  token1 */\n  0x00\n  dup1\n    /* \"TokenSwap.sol\":386:410  token1 = IERC20(_token1) */\n  0x0100\n  exp\n  dup2\n  sload\n  dup2\n  0xffffffffffffffffffffffffffffffffffffffff\n  mul\n  not\n  and\n  swap1\n  dup4\n  0xffffffffffffffffffffffffffffffffffffffff\n  and\n  mul\n  or\n  swap1\n  sstore\n  pop\n    /* \"TokenSwap.sol\":429:436  _owner1 */\n  dup3\n    /* \"TokenSwap.sol\":420:426  owner1 */\n  0x01\n  0x00\n    /* \"TokenSwap.sol\":420:436  owner1 = _owner1 */\n  0x0100\n  exp\n  dup2\n  sload\n  dup2\n  0xffffffffffffffffffffffffffffffffffffffff\n  mul\n  not\n  and\n  swap1\n  dup4\n  0xffffffffffffffffffffffffffffffffffffffff\n  and\n  mul\n  or\n  swap1\n  sstore\n  pop\n    /* \"TokenSwap.sol\":463:470  _token2 */\n  dup2\n    /* \"TokenSwap.sol\":447:453  token2 */\n  0x02\n  0x00\n    /* \"TokenSwap.sol\":447:471  token2 = IERC20(_token2) */\n  0x0100\n  exp\n  dup2\n  sload\n  dup2\n  0xffffffffffffffffffffffffffffffffffffffff\n  mul\n  not\n  and\n  swap1\n  dup4\n  0xffffffffffffffffffffffffffffffffffffffff\n  and\n  mul\n  or\n  swap1\n  sstore\n  pop\n    /* \"TokenSwap.sol\":490:497  _owner2 */\n  dup1\n    /* \"TokenSwap.sol\":481:487  owner2 */\n  0x03\n  0x00\n    /* \"TokenSwap.sol\":481:497  owner2 = _owner2 */\n  0x0100\n  exp\n  dup2\n  sload\n  dup2\n  0xffffffffffffffffffffffffffffffffffffffff\n  mul\n  not\n  and\n  swap1\n  dup4\n  0xffffffffffffffffffffffffffffffffffffffff\n  and\n  mul\n  or\n  swap1\n  sstore\n  pop\n    /* \"TokenSwap.sol\":250:505  constructor (... */\n  pop\n  pop\n  pop\n  pop\n    /* \"TokenSwap.sol\":116:1372  contract TokenSwap {... */\n  jump(tag_6)\n    /* \"#utility.yul\":88:205   */\ntag_8:\n    /* \"#utility.yul\":197:198   */\n  0x00\n    /* \"#utility.yul\":194:195   */\n  dup1\n    /* \"#utility.yul\":187:199   */\n  revert\n    /* \"#utility.yul\":334:460   */\ntag_10:\n    /* \"#utility.yul\":371:378   */\n  0x00\n    /* \"#utility.yul\":411:453   */\n  0xffffffffffffffffffffffffffffffffffffffff\n    /* \"#utility.yul\":404:409   */\n  dup3\n    /* \"#utility.yul\":400:454   */\n  and\n    /* \"#utility.yul\":389:454   */\n  swap1\n  pop\n    /* \"#utility.yul\":334:460   */\n  swap2\n  swap1\n  pop\n  jump\t// out\n    /* \"#utility.yul\":466:562   */\ntag_11:\n    /* \"#utility.yul\":503:510   */\n  0x00\n    /* \"#utility.yul\":532:556   */\n  tag_20\n    /* \"#utility.yul\":550:555   */\n  dup3\n    /* \"#utility.yul\":532:556   */\n  tag_10\n  jump\t// in\ntag_20:\n    /* \"#utility.yul\":521:556   */\n  swap1\n  pop\n    /* \"#utility.yul\":466:562   */\n  swap2\n  swap1\n  pop\n  jump\t// out\n    /* \"#utility.yul\":568:690   */\ntag_12:\n    /* \"#utility.yul\":641:665   */\n  tag_22\n    /* \"#utility.yul\":659:664   */\n  dup2\n    /* \"#utility.yul\":641:665   */\n  tag_11\n  jump\t// in\ntag_22:\n    /* \"#utility.yul\":634:639   */\n  dup2\n    /* \"#utility.yul\":631:666   */\n  eq\n    /* \"#utility.yul\":621:684   */\n  tag_23\n  jumpi\n    /* \"#utility.yul\":680:681   */\n  0x00\n    /* \"#utility.yul\":677:678   */\n  dup1\n    /* \"#utility.yul\":670:682   */\n  revert\n    /* \"#utility.yul\":621:684   */\ntag_23:\n    /* \"#utility.yul\":568:690   */\n  pop\n  jump\t// out\n    /* \"#utility.yul\":696:839   */\ntag_13:\n    /* \"#utility.yul\":753:758   */\n  0x00\n    /* \"#utility.yul\":784:790   */\n  dup2\n    /* \"#utility.yul\":778:791   */\n  mload\n    /* \"#utility.yul\":769:791   */\n  swap1\n  pop\n    /* \"#utility.yul\":800:833   */\n  tag_25\n    /* \"#utility.yul\":827:832   */\n  dup2\n    /* \"#utility.yul\":800:833   */\n  tag_12\n  jump\t// in\ntag_25:\n    /* \"#utility.yul\":696:839   */\n  swap3\n  swap2\n  pop\n  pop\n  jump\t// out\n    /* \"#utility.yul\":845:1665   */\ntag_3:\n    /* \"#utility.yul\":942:948   */\n  0x00\n    /* \"#utility.yul\":950:956   */\n  dup1\n    /* \"#utility.yul\":958:964   */\n  0x00\n    /* \"#utility.yul\":966:972   */\n  dup1\n    /* \"#utility.yul\":1015:1018   */\n  0x80\n    /* \"#utility.yul\":1003:1012   */\n  dup6\n    /* \"#utility.yul\":994:1001   */\n  dup8\n    /* \"#utility.yul\":990:1013   */\n  sub\n    /* \"#utility.yul\":986:1019   */\n  slt\n    /* \"#utility.yul\":983:1103   */\n  iszero\n  tag_27\n  jumpi\n    /* \"#utility.yul\":1022:1101   */\n  tag_28\n  tag_8\n  jump\t// in\ntag_28:\n    /* \"#utility.yul\":983:1103   */\ntag_27:\n    /* \"#utility.yul\":1142:1143   */\n  0x00\n    /* \"#utility.yul\":1167:1231   */\n  tag_29\n    /* \"#utility.yul\":1223:1230   */\n  dup8\n    /* \"#utility.yul\":1214:1220   */\n  dup3\n    /* \"#utility.yul\":1203:1212   */\n  dup9\n    /* \"#utility.yul\":1199:1221   */\n  add\n    /* \"#utility.yul\":1167:1231   */\n  tag_13\n  jump\t// in\ntag_29:\n    /* \"#utility.yul\":1157:1231   */\n  swap5\n  pop\n    /* \"#utility.yul\":1113:1241   */\n  pop\n    /* \"#utility.yul\":1280:1282   */\n  0x20\n    /* \"#utility.yul\":1306:1370   */\n  tag_30\n    /* \"#utility.yul\":1362:1369   */\n  dup8\n    /* \"#utility.yul\":1353:1359   */\n  dup3\n    /* \"#utility.yul\":1342:1351   */\n  dup9\n    /* \"#utility.yul\":1338:1360   */\n  add\n    /* \"#utility.yul\":1306:1370   */\n  tag_13\n  jump\t// in\ntag_30:\n    /* \"#utility.yul\":1296:1370   */\n  swap4\n  pop\n    /* \"#utility.yul\":1251:1380   */\n  pop\n    /* \"#utility.yul\":1419:1421   */\n  0x40\n    /* \"#utility.yul\":1445:1509   */\n  tag_31\n    /* \"#utility.yul\":1501:1508   */\n  dup8\n    /* \"#utility.yul\":1492:1498   */\n  dup3\n    /* \"#utility.yul\":1481:1490   */\n  dup9\n    /* \"#utility.yul\":1477:1499   */\n  add\n    /* \"#utility.yul\":1445:1509   */\n  tag_13\n  jump\t// in\ntag_31:\n    /* \"#utility.yul\":1435:1509   */\n  swap3\n  pop\n    /* \"#utility.yul\":1390:1519   */\n  pop\n    /* \"#utility.yul\":1558:1560   */\n  0x60\n    /* \"#utility.yul\":1584:1648   */\n  tag_32\n    /* \"#utility.yul\":1640:1647   */\n  dup8\n    /* \"#utility.yul\":1631:1637   */\n  dup3\n    /* \"#utility.yul\":1620:1629   */\n  dup9\n    /* \"#utility.yul\":1616:1638   */\n  add\n    /* \"#utility.yul\":1584:1648   */\n  tag_13\n  jump\t// in\ntag_32:\n    /* \"#utility.yul\":1574:1648   */\n  swap2\n  pop\n    /* \"#utility.yul\":1529:1658   */\n  pop\n    /* \"#utility.yul\":845:1665   */\n  swap3\n  swap6\n  swap2\n  swap5\n  pop\n  swap3\n  pop\n  jump\t// out\n    /* \"TokenSwap.sol\":116:1372  contract TokenSwap {... */\ntag_6:\n  dataSize(sub_0)\n  dup1\n  dataOffset(sub_0)\n  0x00\n  codecopy\n  0x00\n  return\nstop\n\nsub_0: assembly {\n        /* \"TokenSwap.sol\":116:1372  contract TokenSwap {... */\n      mstore(0x40, 0x80)\n      callvalue\n      dup1\n      iszero\n      tag_1\n      jumpi\n      0x00\n      dup1\n      revert\n    tag_1:\n      pop\n      jumpi(tag_2, lt(calldatasize, 0x04))\n      shr(0xe0, calldataload(0x00))\n      dup1\n      0x25be124e\n      eq\n      tag_3\n      jumpi\n      dup1\n      0x52709725\n      eq\n      tag_4\n      jumpi\n      dup1\n      0x73688914\n      eq\n      tag_5\n      jumpi\n      dup1\n      0xd21220a7\n      eq\n      tag_6\n      jumpi\n      dup1\n      0xd96073cf\n      eq\n      tag_7\n      jumpi\n    tag_2:\n      0x00\n      dup1\n      revert\n        /* \"TokenSwap.sol\":194:214  IERC20 public token2 */\n    tag_3:\n      tag_8\n      tag_9\n      jump\t// in\n    tag_8:\n      mload(0x40)\n      tag_10\n      swap2\n      swap1\n      tag_11\n      jump\t// in\n    tag_10:\n      mload(0x40)\n      dup1\n      swap2\n      sub\n      swap1\n      return\n        /* \"TokenSwap.sol\":221:242  address public owner2 */\n    tag_4:\n      tag_12\n      tag_13\n      jump\t// in\n    tag_12:\n      mload(0x40)\n      tag_14\n      swap2\n      swap1\n      tag_15\n      jump\t// in\n    tag_14:\n      mload(0x40)\n      dup1\n      swap2\n      sub\n      swap1\n      return\n        /* \"TokenSwap.sol\":167:188  address public owner1 */\n    tag_5:\n      tag_16\n      tag_17\n      jump\t// in\n    tag_16:\n      mload(0x40)\n      tag_18\n      swap2\n      swap1\n      tag_15\n      jump\t// in\n    tag_18:\n      mload(0x40)\n      dup1\n      swap2\n      sub\n      swap1\n      return\n        /* \"TokenSwap.sol\":141:161  IERC20 public token1 */\n    tag_6:\n      tag_19\n      tag_20\n      jump\t// in\n    tag_19:\n      mload(0x40)\n      tag_21\n      swap2\n      swap1\n      tag_11\n      jump\t// in\n    tag_21:\n      mload(0x40)\n      dup1\n      swap2\n      sub\n      swap1\n      return\n        /* \"TokenSwap.sol\":510:1107  function swap(uint _amount1, uint _amount2) public{... */\n    tag_7:\n      tag_22\n      0x04\n      dup1\n      calldatasize\n      sub\n      dup2\n      add\n      swap1\n      tag_23\n      swap2\n      swap1\n      tag_24\n      jump\t// in\n    tag_23:\n      tag_25\n      jump\t// in\n    tag_22:\n      stop\n        /* \"TokenSwap.sol\":194:214  IERC20 public token2 */\n    tag_9:\n      0x02\n      0x00\n      swap1\n      sload\n      swap1\n      0x0100\n      exp\n      swap1\n      div\n      0xffffffffffffffffffffffffffffffffffffffff\n      and\n      dup2\n      jump\t// out\n        /* \"TokenSwap.sol\":221:242  address public owner2 */\n    tag_13:\n      0x03\n      0x00\n      swap1\n      sload\n      swap1\n      0x0100\n      exp\n      swap1\n      div\n      0xffffffffffffffffffffffffffffffffffffffff\n      and\n      dup2\n      jump\t// out\n        /* \"TokenSwap.sol\":167:188  address public owner1 */\n    tag_17:\n      0x01\n      0x00\n      swap1\n      sload\n      swap1\n      0x0100\n      exp\n      swap1\n      div\n      0xffffffffffffffffffffffffffffffffffffffff\n      and\n      dup2\n      jump\t// out\n        /* \"TokenSwap.sol\":141:161  IERC20 public token1 */\n    tag_20:\n      0x00\n      dup1\n      sload\n      swap1\n      0x0100\n      exp\n      swap1\n      div\n      0xffffffffffffffffffffffffffffffffffffffff\n      and\n      dup2\n      jump\t// out\n        /* \"TokenSwap.sol\":510:1107  function swap(uint _amount1, uint _amount2) public{... */\n    tag_25:\n        /* \"TokenSwap.sol\":593:599  owner1 */\n      0x01\n      0x00\n      swap1\n      sload\n      swap1\n      0x0100\n      exp\n      swap1\n      div\n      0xffffffffffffffffffffffffffffffffffffffff\n      and\n        /* \"TokenSwap.sol\":579:599  msg.sender == owner1 */\n      0xffffffffffffffffffffffffffffffffffffffff\n      and\n        /* \"TokenSwap.sol\":579:589  msg.sender */\n      caller\n        /* \"TokenSwap.sol\":579:599  msg.sender == owner1 */\n      0xffffffffffffffffffffffffffffffffffffffff\n      and\n      eq\n        /* \"TokenSwap.sol\":579:623  msg.sender == owner1 || msg.sender == owner2 */\n      dup1\n      tag_27\n      jumpi\n      pop\n        /* \"TokenSwap.sol\":617:623  owner2 */\n      0x03\n      0x00\n      swap1\n      sload\n      swap1\n      0x0100\n      exp\n      swap1\n      div\n      0xffffffffffffffffffffffffffffffffffffffff\n      and\n        /* \"TokenSwap.sol\":603:623  msg.sender == owner2 */\n      0xffffffffffffffffffffffffffffffffffffffff\n      and\n        /* \"TokenSwap.sol\":603:613  msg.sender */\n      caller\n        /* \"TokenSwap.sol\":603:623  msg.sender == owner2 */\n      0xffffffffffffffffffffffffffffffffffffffff\n      and\n      eq\n        /* \"TokenSwap.sol\":579:623  msg.sender == owner1 || msg.sender == owner2 */\n    tag_27:\n        /* \"TokenSwap.sol\":571:642  require(msg.sender == owner1 || msg.sender == owner2, \"not authorized\") */\n      tag_28\n      jumpi\n      mload(0x40)\n      0x08c379a000000000000000000000000000000000000000000000000000000000\n      dup2\n      mstore\n      0x04\n      add\n      tag_29\n      swap1\n      tag_30\n      jump\t// in\n    tag_29:\n      mload(0x40)\n      dup1\n      swap2\n      sub\n      swap1\n      revert\n    tag_28:\n        /* \"TokenSwap.sol\":703:711  _amount1 */\n      dup2\n        /* \"TokenSwap.sol\":660:666  token1 */\n      0x00\n      dup1\n      sload\n      swap1\n      0x0100\n      exp\n      swap1\n      div\n      0xffffffffffffffffffffffffffffffffffffffff\n      and\n        /* \"TokenSwap.sol\":660:676  token1.allowance */\n      0xffffffffffffffffffffffffffffffffffffffff\n      and\n      0xdd62ed3e\n        /* \"TokenSwap.sol\":677:683  owner1 */\n      0x01\n      0x00\n      swap1\n      sload\n      swap1\n      0x0100\n      exp\n      swap1\n      div\n      0xffffffffffffffffffffffffffffffffffffffff\n      and\n        /* \"TokenSwap.sol\":693:697  this */\n      address\n        /* \"TokenSwap.sol\":660:699  token1.allowance(owner1, address(this)) */\n      mload(0x40)\n      dup4\n      0xffffffff\n      and\n      0xe0\n      shl\n      dup2\n      mstore\n      0x04\n      add\n      tag_31\n      swap3\n      swap2\n      swap1\n      tag_32\n      jump\t// in\n    tag_31:\n      0x20\n      mload(0x40)\n      dup1\n      dup4\n      sub\n      dup2\n      dup7\n      gas\n      staticcall\n      iszero\n      dup1\n      iszero\n      tag_34\n      jumpi\n      returndatasize\n      0x00\n      dup1\n      returndatacopy\n      revert(0x00, returndatasize)\n    tag_34:\n      pop\n      pop\n      pop\n      pop\n      mload(0x40)\n      returndatasize\n      not(0x1f)\n      0x1f\n      dup3\n      add\n      and\n      dup3\n      add\n      dup1\n      0x40\n      mstore\n      pop\n      dup2\n      add\n      swap1\n      tag_35\n      swap2\n      swap1\n      tag_36\n      jump\t// in\n    tag_35:\n        /* \"TokenSwap.sol\":660:711  token1.allowance(owner1, address(this)) >= _amount1 */\n      lt\n      iszero\n        /* \"TokenSwap.sol\":652:750  require(token1.allowance(owner1, address(this)) >= _amount1, ... */\n      tag_37\n      jumpi\n      mload(0x40)\n      0x08c379a000000000000000000000000000000000000000000000000000000000\n      dup2\n      mstore\n      0x04\n      add\n      tag_38\n      swap1\n      tag_39\n      jump\t// in\n    tag_38:\n      mload(0x40)\n      dup1\n      swap2\n      sub\n      swap1\n      revert\n    tag_37:\n        /* \"TokenSwap.sol\":811:819  _amount2 */\n      dup1\n        /* \"TokenSwap.sol\":768:774  token2 */\n      0x02\n      0x00\n      swap1\n      sload\n      swap1\n      0x0100\n      exp\n      swap1\n      div\n      0xffffffffffffffffffffffffffffffffffffffff\n      and\n        /* \"TokenSwap.sol\":768:784  token2.allowance */\n      0xffffffffffffffffffffffffffffffffffffffff\n      and\n      0xdd62ed3e\n        /* \"TokenSwap.sol\":785:791  owner2 */\n      0x03\n      0x00\n      swap1\n      sload\n      swap1\n      0x0100\n      exp\n      swap1\n      div\n      0xffffffffffffffffffffffffffffffffffffffff\n      and\n        /* \"TokenSwap.sol\":801:805  this */\n      address\n        /* \"TokenSwap.sol\":768:807  token2.allowance(owner2, address(this)) */\n      mload(0x40)\n      dup4\n      0xffffffff\n      and\n      0xe0\n      shl\n      dup2\n      mstore\n      0x04\n      add\n      tag_40\n      swap3\n      swap2\n      swap1\n      tag_32\n      jump\t// in\n    tag_40:\n      0x20\n      mload(0x40)\n      dup1\n      dup4\n      sub\n      dup2\n      dup7\n      gas\n      staticcall\n      iszero\n      dup1\n      iszero\n      tag_42\n      jumpi\n      returndatasize\n      0x00\n      dup1\n      returndatacopy\n      revert(0x00, returndatasize)\n    tag_42:\n      pop\n      pop\n      pop\n      pop\n      mload(0x40)\n      returndatasize\n      not(0x1f)\n      0x1f\n      dup3\n      add\n      and\n      dup3\n      add\n      dup1\n      0x40\n      mstore\n      pop\n      dup2\n      add\n      swap1\n      tag_43\n      swap2\n      swap1\n      tag_36\n      jump\t// in\n    tag_43:\n        /* \"TokenSwap.sol\":768:819  token2.allowance(owner2, address(this)) >= _amount2 */\n      lt\n      iszero\n        /* \"TokenSwap.sol\":760:858  require(token2.allowance(owner2, address(this)) >= _amount2, ... */\n      tag_44\n      jumpi\n      mload(0x40)\n      0x08c379a000000000000000000000000000000000000000000000000000000000\n      dup2\n      mstore\n      0x04\n      add\n      tag_45\n      swap1\n      tag_46\n      jump\t// in\n    tag_45:\n      mload(0x40)\n      dup1\n      swap2\n      sub\n      swap1\n      revert\n    tag_44:\n        /* \"TokenSwap.sol\":943:994  _safeTransferFrom(token1, owner1, owner2, _amount1) */\n      tag_47\n        /* \"TokenSwap.sol\":961:967  token1 */\n      0x00\n      dup1\n      sload\n      swap1\n      0x0100\n      exp\n      swap1\n      div\n      0xffffffffffffffffffffffffffffffffffffffff\n      and\n        /* \"TokenSwap.sol\":969:975  owner1 */\n      0x01\n      0x00\n      swap1\n      sload\n      swap1\n      0x0100\n      exp\n      swap1\n      div\n      0xffffffffffffffffffffffffffffffffffffffff\n      and\n        /* \"TokenSwap.sol\":977:983  owner2 */\n      0x03\n      0x00\n      swap1\n      sload\n      swap1\n      0x0100\n      exp\n      swap1\n      div\n      0xffffffffffffffffffffffffffffffffffffffff\n      and\n        /* \"TokenSwap.sol\":985:993  _amount1 */\n      dup6\n        /* \"TokenSwap.sol\":943:960  _safeTransferFrom */\n      tag_48\n        /* \"TokenSwap.sol\":943:994  _safeTransferFrom(token1, owner1, owner2, _amount1) */\n      jump\t// in\n    tag_47:\n        /* \"TokenSwap.sol\":1049:1100  _safeTransferFrom(token2, owner2, owner1, _amount2) */\n      tag_49\n        /* \"TokenSwap.sol\":1067:1073  token2 */\n      0x02\n      0x00\n      swap1\n      sload\n      swap1\n      0x0100\n      exp\n      swap1\n      div\n      0xffffffffffffffffffffffffffffffffffffffff\n      and\n        /* \"TokenSwap.sol\":1075:1081  owner2 */\n      0x03\n      0x00\n      swap1\n      sload\n      swap1\n      0x0100\n      exp\n      swap1\n      div\n      0xffffffffffffffffffffffffffffffffffffffff\n      and\n        /* \"TokenSwap.sol\":1083:1089  owner1 */\n      0x01\n      0x00\n      swap1\n      sload\n      swap1\n      0x0100\n      exp\n      swap1\n      div\n      0xffffffffffffffffffffffffffffffffffffffff\n      and\n        /* \"TokenSwap.sol\":1091:1099  _amount2 */\n      dup5\n        /* \"TokenSwap.sol\":1049:1066  _safeTransferFrom */\n      tag_48\n        /* \"TokenSwap.sol\":1049:1100  _safeTransferFrom(token2, owner2, owner1, _amount2) */\n      jump\t// in\n    tag_49:\n        /* \"TokenSwap.sol\":510:1107  function swap(uint _amount1, uint _amount2) public{... */\n      pop\n      pop\n      jump\t// out\n        /* \"TokenSwap.sol\":1113:1370  function _safeTransferFrom(... */\n    tag_48:\n        /* \"TokenSwap.sol\":1258:1267  bool sent */\n      0x00\n        /* \"TokenSwap.sol\":1270:1275  token */\n      dup5\n        /* \"TokenSwap.sol\":1270:1288  token.transferFrom */\n      0xffffffffffffffffffffffffffffffffffffffff\n      and\n      0x23b872dd\n        /* \"TokenSwap.sol\":1289:1295  sender */\n      dup6\n        /* \"TokenSwap.sol\":1297:1306  recipient */\n      dup6\n        /* \"TokenSwap.sol\":1308:1314  amount */\n      dup6\n        /* \"TokenSwap.sol\":1270:1315  token.transferFrom(sender, recipient, amount) */\n      mload(0x40)\n      dup5\n      0xffffffff\n      and\n      0xe0\n      shl\n      dup2\n      mstore\n      0x04\n      add\n      tag_51\n      swap4\n      swap3\n      swap2\n      swap1\n      tag_52\n      jump\t// in\n    tag_51:\n      0x20\n      mload(0x40)\n      dup1\n      dup4\n      sub\n      dup2\n      0x00\n      dup8\n      gas\n      call\n      iszero\n      dup1\n      iszero\n      tag_54\n      jumpi\n      returndatasize\n      0x00\n      dup1\n      returndatacopy\n      revert(0x00, returndatasize)\n    tag_54:\n      pop\n      pop\n      pop\n      pop\n      mload(0x40)\n      returndatasize\n      not(0x1f)\n      0x1f\n      dup3\n      add\n      and\n      dup3\n      add\n      dup1\n      0x40\n      mstore\n      pop\n      dup2\n      add\n      swap1\n      tag_55\n      swap2\n      swap1\n      tag_56\n      jump\t// in\n    tag_55:\n        /* \"TokenSwap.sol\":1258:1315  bool sent = token.transferFrom(sender, recipient, amount) */\n      swap1\n      pop\n        /* \"TokenSwap.sol\":1333:1337  sent */\n      dup1\n        /* \"TokenSwap.sol\":1325:1363  require(sent, \"Token transfer failed\") */\n      tag_57\n      jumpi\n      mload(0x40)\n      0x08c379a000000000000000000000000000000000000000000000000000000000\n      dup2\n      mstore\n      0x04\n      add\n      tag_58\n      swap1\n      tag_59\n      jump\t// in\n    tag_58:\n      mload(0x40)\n      dup1\n      swap2\n      sub\n      swap1\n      revert\n    tag_57:\n        /* \"TokenSwap.sol\":1248:1370  {... */\n      pop\n        /* \"TokenSwap.sol\":1113:1370  function _safeTransferFrom(... */\n      pop\n      pop\n      pop\n      pop\n      jump\t// out\n        /* \"#utility.yul\":7:133   */\n    tag_60:\n        /* \"#utility.yul\":44:51   */\n      0x00\n        /* \"#utility.yul\":84:126   */\n      0xffffffffffffffffffffffffffffffffffffffff\n        /* \"#utility.yul\":77:82   */\n      dup3\n        /* \"#utility.yul\":73:127   */\n      and\n        /* \"#utility.yul\":62:127   */\n      swap1\n      pop\n        /* \"#utility.yul\":7:133   */\n      swap2\n      swap1\n      pop\n      jump\t// out\n        /* \"#utility.yul\":139:199   */\n    tag_61:\n        /* \"#utility.yul\":167:170   */\n      0x00\n        /* \"#utility.yul\":188:193   */\n      dup2\n        /* \"#utility.yul\":181:193   */\n      swap1\n      pop\n        /* \"#utility.yul\":139:199   */\n      swap2\n      swap1\n      pop\n      jump\t// out\n        /* \"#utility.yul\":205:347   */\n    tag_62:\n        /* \"#utility.yul\":255:264   */\n      0x00\n        /* \"#utility.yul\":288:341   */\n      tag_92\n        /* \"#utility.yul\":306:340   */\n      tag_93\n        /* \"#utility.yul\":315:339   */\n      tag_94\n        /* \"#utility.yul\":333:338   */\n      dup5\n        /* \"#utility.yul\":315:339   */\n      tag_60\n      jump\t// in\n    tag_94:\n        /* \"#utility.yul\":306:340   */\n      tag_61\n      jump\t// in\n    tag_93:\n        /* \"#utility.yul\":288:341   */\n      tag_60\n      jump\t// in\n    tag_92:\n        /* \"#utility.yul\":275:341   */\n      swap1\n      pop\n        /* \"#utility.yul\":205:347   */\n      swap2\n      swap1\n      pop\n      jump\t// out\n        /* \"#utility.yul\":353:479   */\n    tag_63:\n        /* \"#utility.yul\":403:412   */\n      0x00\n        /* \"#utility.yul\":436:473   */\n      tag_96\n        /* \"#utility.yul\":467:472   */\n      dup3\n        /* \"#utility.yul\":436:473   */\n      tag_62\n      jump\t// in\n    tag_96:\n        /* \"#utility.yul\":423:473   */\n      swap1\n      pop\n        /* \"#utility.yul\":353:479   */\n      swap2\n      swap1\n      pop\n      jump\t// out\n        /* \"#utility.yul\":485:624   */\n    tag_64:\n        /* \"#utility.yul\":548:557   */\n      0x00\n        /* \"#utility.yul\":581:618   */\n      tag_98\n        /* \"#utility.yul\":612:617   */\n      dup3\n        /* \"#utility.yul\":581:618   */\n      tag_63\n      jump\t// in\n    tag_98:\n        /* \"#utility.yul\":568:618   */\n      swap1\n      pop\n        /* \"#utility.yul\":485:624   */\n      swap2\n      swap1\n      pop\n      jump\t// out\n        /* \"#utility.yul\":630:787   */\n    tag_65:\n        /* \"#utility.yul\":730:780   */\n      tag_100\n        /* \"#utility.yul\":774:779   */\n      dup2\n        /* \"#utility.yul\":730:780   */\n      tag_64\n      jump\t// in\n    tag_100:\n        /* \"#utility.yul\":725:728   */\n      dup3\n        /* \"#utility.yul\":718:781   */\n      mstore\n        /* \"#utility.yul\":630:787   */\n      pop\n      pop\n      jump\t// out\n        /* \"#utility.yul\":793:1041   */\n    tag_11:\n        /* \"#utility.yul\":899:903   */\n      0x00\n        /* \"#utility.yul\":937:939   */\n      0x20\n        /* \"#utility.yul\":926:935   */\n      dup3\n        /* \"#utility.yul\":922:940   */\n      add\n        /* \"#utility.yul\":914:940   */\n      swap1\n      pop\n        /* \"#utility.yul\":950:1034   */\n      tag_102\n        /* \"#utility.yul\":1031:1032   */\n      0x00\n        /* \"#utility.yul\":1020:1029   */\n      dup4\n        /* \"#utility.yul\":1016:1033   */\n      add\n        /* \"#utility.yul\":1007:1013   */\n      dup5\n        /* \"#utility.yul\":950:1034   */\n      tag_65\n      jump\t// in\n    tag_102:\n        /* \"#utility.yul\":793:1041   */\n      swap3\n      swap2\n      pop\n      pop\n      jump\t// out\n        /* \"#utility.yul\":1047:1143   */\n    tag_66:\n        /* \"#utility.yul\":1084:1091   */\n      0x00\n        /* \"#utility.yul\":1113:1137   */\n      tag_104\n        /* \"#utility.yul\":1131:1136   */\n      dup3\n        /* \"#utility.yul\":1113:1137   */\n      tag_60\n      jump\t// in\n    tag_104:\n        /* \"#utility.yul\":1102:1137   */\n      swap1\n      pop\n        /* \"#utility.yul\":1047:1143   */\n      swap2\n      swap1\n      pop\n      jump\t// out\n        /* \"#utility.yul\":1149:1267   */\n    tag_67:\n        /* \"#utility.yul\":1236:1260   */\n      tag_106\n        /* \"#utility.yul\":1254:1259   */\n      dup2\n        /* \"#utility.yul\":1236:1260   */\n      tag_66\n      jump\t// in\n    tag_106:\n        /* \"#utility.yul\":1231:1234   */\n      dup3\n        /* \"#utility.yul\":1224:1261   */\n      mstore\n        /* \"#utility.yul\":1149:1267   */\n      pop\n      pop\n      jump\t// out\n        /* \"#utility.yul\":1273:1495   */\n    tag_15:\n        /* \"#utility.yul\":1366:1370   */\n      0x00\n        /* \"#utility.yul\":1404:1406   */\n      0x20\n        /* \"#utility.yul\":1393:1402   */\n      dup3\n        /* \"#utility.yul\":1389:1407   */\n      add\n        /* \"#utility.yul\":1381:1407   */\n      swap1\n      pop\n        /* \"#utility.yul\":1417:1488   */\n      tag_108\n        /* \"#utility.yul\":1485:1486   */\n      0x00\n        /* \"#utility.yul\":1474:1483   */\n      dup4\n        /* \"#utility.yul\":1470:1487   */\n      add\n        /* \"#utility.yul\":1461:1467   */\n      dup5\n        /* \"#utility.yul\":1417:1488   */\n      tag_67\n      jump\t// in\n    tag_108:\n        /* \"#utility.yul\":1273:1495   */\n      swap3\n      swap2\n      pop\n      pop\n      jump\t// out\n        /* \"#utility.yul\":1582:1699   */\n    tag_69:\n        /* \"#utility.yul\":1691:1692   */\n      0x00\n        /* \"#utility.yul\":1688:1689   */\n      dup1\n        /* \"#utility.yul\":1681:1693   */\n      revert\n        /* \"#utility.yul\":1828:1905   */\n    tag_71:\n        /* \"#utility.yul\":1865:1872   */\n      0x00\n        /* \"#utility.yul\":1894:1899   */\n      dup2\n        /* \"#utility.yul\":1883:1899   */\n      swap1\n      pop\n        /* \"#utility.yul\":1828:1905   */\n      swap2\n      swap1\n      pop\n      jump\t// out\n        /* \"#utility.yul\":1911:2033   */\n    tag_72:\n        /* \"#utility.yul\":1984:2008   */\n      tag_114\n        /* \"#utility.yul\":2002:2007   */\n      dup2\n        /* \"#utility.yul\":1984:2008   */\n      tag_71\n      jump\t// in\n    tag_114:\n        /* \"#utility.yul\":1977:1982   */\n      dup2\n        /* \"#utility.yul\":1974:2009   */\n      eq\n        /* \"#utility.yul\":1964:2027   */\n      tag_115\n      jumpi\n        /* \"#utility.yul\":2023:2024   */\n      0x00\n        /* \"#utility.yul\":2020:2021   */\n      dup1\n        /* \"#utility.yul\":2013:2025   */\n      revert\n        /* \"#utility.yul\":1964:2027   */\n    tag_115:\n        /* \"#utility.yul\":1911:2033   */\n      pop\n      jump\t// out\n        /* \"#utility.yul\":2039:2178   */\n    tag_73:\n        /* \"#utility.yul\":2085:2090   */\n      0x00\n        /* \"#utility.yul\":2123:2129   */\n      dup2\n        /* \"#utility.yul\":2110:2130   */\n      calldataload\n        /* \"#utility.yul\":2101:2130   */\n      swap1\n      pop\n        /* \"#utility.yul\":2139:2172   */\n      tag_117\n        /* \"#utility.yul\":2166:2171   */\n      dup2\n        /* \"#utility.yul\":2139:2172   */\n      tag_72\n      jump\t// in\n    tag_117:\n        /* \"#utility.yul\":2039:2178   */\n      swap3\n      swap2\n      pop\n      pop\n      jump\t// out\n        /* \"#utility.yul\":2184:2658   */\n    tag_24:\n        /* \"#utility.yul\":2252:2258   */\n      0x00\n        /* \"#utility.yul\":2260:2266   */\n      dup1\n        /* \"#utility.yul\":2309:2311   */\n      0x40\n        /* \"#utility.yul\":2297:2306   */\n      dup4\n        /* \"#utility.yul\":2288:2295   */\n      dup6\n        /* \"#utility.yul\":2284:2307   */\n      sub\n        /* \"#utility.yul\":2280:2312   */\n      slt\n        /* \"#utility.yul\":2277:2396   */\n      iszero\n      tag_119\n      jumpi\n        /* \"#utility.yul\":2315:2394   */\n      tag_120\n      tag_69\n      jump\t// in\n    tag_120:\n        /* \"#utility.yul\":2277:2396   */\n    tag_119:\n        /* \"#utility.yul\":2435:2436   */\n      0x00\n        /* \"#utility.yul\":2460:2513   */\n      tag_121\n        /* \"#utility.yul\":2505:2512   */\n      dup6\n        /* \"#utility.yul\":2496:2502   */\n      dup3\n        /* \"#utility.yul\":2485:2494   */\n      dup7\n        /* \"#utility.yul\":2481:2503   */\n      add\n        /* \"#utility.yul\":2460:2513   */\n      tag_73\n      jump\t// in\n    tag_121:\n        /* \"#utility.yul\":2450:2513   */\n      swap3\n      pop\n        /* \"#utility.yul\":2406:2523   */\n      pop\n        /* \"#utility.yul\":2562:2564   */\n      0x20\n        /* \"#utility.yul\":2588:2641   */\n      tag_122\n        /* \"#utility.yul\":2633:2640   */\n      dup6\n        /* \"#utility.yul\":2624:2630   */\n      dup3\n        /* \"#utility.yul\":2613:2622   */\n      dup7\n        /* \"#utility.yul\":2609:2631   */\n      add\n        /* \"#utility.yul\":2588:2641   */\n      tag_73\n      jump\t// in\n    tag_122:\n        /* \"#utility.yul\":2578:2641   */\n      swap2\n      pop\n        /* \"#utility.yul\":2533:2651   */\n      pop\n        /* \"#utility.yul\":2184:2658   */\n      swap3\n      pop\n      swap3\n      swap1\n      pop\n      jump\t// out\n        /* \"#utility.yul\":2664:2833   */\n    tag_74:\n        /* \"#utility.yul\":2748:2759   */\n      0x00\n        /* \"#utility.yul\":2782:2788   */\n      dup3\n        /* \"#utility.yul\":2777:2780   */\n      dup3\n        /* \"#utility.yul\":2770:2789   */\n      mstore\n        /* \"#utility.yul\":2822:2826   */\n      0x20\n        /* \"#utility.yul\":2817:2820   */\n      dup3\n        /* \"#utility.yul\":2813:2827   */\n      add\n        /* \"#utility.yul\":2798:2827   */\n      swap1\n      pop\n        /* \"#utility.yul\":2664:2833   */\n      swap3\n      swap2\n      pop\n      pop\n      jump\t// out\n        /* \"#utility.yul\":2839:3003   */\n    tag_75:\n        /* \"#utility.yul\":2979:2995   */\n      0x6e6f7420617574686f72697a6564000000000000000000000000000000000000\n        /* \"#utility.yul\":2975:2976   */\n      0x00\n        /* \"#utility.yul\":2967:2973   */\n      dup3\n        /* \"#utility.yul\":2963:2977   */\n      add\n        /* \"#utility.yul\":2956:2996   */\n      mstore\n        /* \"#utility.yul\":2839:3003   */\n      pop\n      jump\t// out\n        /* \"#utility.yul\":3009:3375   */\n    tag_76:\n        /* \"#utility.yul\":3151:3154   */\n      0x00\n        /* \"#utility.yul\":3172:3239   */\n      tag_126\n        /* \"#utility.yul\":3236:3238   */\n      0x0e\n        /* \"#utility.yul\":3231:3234   */\n      dup4\n        /* \"#utility.yul\":3172:3239   */\n      tag_74\n      jump\t// in\n    tag_126:\n        /* \"#utility.yul\":3165:3239   */\n      swap2\n      pop\n        /* \"#utility.yul\":3248:3341   */\n      tag_127\n        /* \"#utility.yul\":3337:3340   */\n      dup3\n        /* \"#utility.yul\":3248:3341   */\n      tag_75\n      jump\t// in\n    tag_127:\n        /* \"#utility.yul\":3366:3368   */\n      0x20\n        /* \"#utility.yul\":3361:3364   */\n      dup3\n        /* \"#utility.yul\":3357:3369   */\n      add\n        /* \"#utility.yul\":3350:3369   */\n      swap1\n      pop\n        /* \"#utility.yul\":3009:3375   */\n      swap2\n      swap1\n      pop\n      jump\t// out\n        /* \"#utility.yul\":3381:3800   */\n    tag_30:\n        /* \"#utility.yul\":3547:3551   */\n      0x00\n        /* \"#utility.yul\":3585:3587   */\n      0x20\n        /* \"#utility.yul\":3574:3583   */\n      dup3\n        /* \"#utility.yul\":3570:3588   */\n      add\n        /* \"#utility.yul\":3562:3588   */\n      swap1\n      pop\n        /* \"#utility.yul\":3634:3643   */\n      dup2\n        /* \"#utility.yul\":3628:3632   */\n      dup2\n        /* \"#utility.yul\":3624:3644   */\n      sub\n        /* \"#utility.yul\":3620:3621   */\n      0x00\n        /* \"#utility.yul\":3609:3618   */\n      dup4\n        /* \"#utility.yul\":3605:3622   */\n      add\n        /* \"#utility.yul\":3598:3645   */\n      mstore\n        /* \"#utility.yul\":3662:3793   */\n      tag_129\n        /* \"#utility.yul\":3788:3792   */\n      dup2\n        /* \"#utility.yul\":3662:3793   */\n      tag_76\n      jump\t// in\n    tag_129:\n        /* \"#utility.yul\":3654:3793   */\n      swap1\n      pop\n        /* \"#utility.yul\":3381:3800   */\n      swap2\n      swap1\n      pop\n      jump\t// out\n        /* \"#utility.yul\":3806:4138   */\n    tag_32:\n        /* \"#utility.yul\":3927:3931   */\n      0x00\n        /* \"#utility.yul\":3965:3967   */\n      0x40\n        /* \"#utility.yul\":3954:3963   */\n      dup3\n        /* \"#utility.yul\":3950:3968   */\n      add\n        /* \"#utility.yul\":3942:3968   */\n      swap1\n      pop\n        /* \"#utility.yul\":3978:4049   */\n      tag_131\n        /* \"#utility.yul\":4046:4047   */\n      0x00\n        /* \"#utility.yul\":4035:4044   */\n      dup4\n        /* \"#utility.yul\":4031:4048   */\n      add\n        /* \"#utility.yul\":4022:4028   */\n      dup6\n        /* \"#utility.yul\":3978:4049   */\n      tag_67\n      jump\t// in\n    tag_131:\n        /* \"#utility.yul\":4059:4131   */\n      tag_132\n        /* \"#utility.yul\":4127:4129   */\n      0x20\n        /* \"#utility.yul\":4116:4125   */\n      dup4\n        /* \"#utility.yul\":4112:4130   */\n      add\n        /* \"#utility.yul\":4103:4109   */\n      dup5\n        /* \"#utility.yul\":4059:4131   */\n      tag_67\n      jump\t// in\n    tag_132:\n        /* \"#utility.yul\":3806:4138   */\n      swap4\n      swap3\n      pop\n      pop\n      pop\n      jump\t// out\n        /* \"#utility.yul\":4144:4287   */\n    tag_77:\n        /* \"#utility.yul\":4201:4206   */\n      0x00\n        /* \"#utility.yul\":4232:4238   */\n      dup2\n        /* \"#utility.yul\":4226:4239   */\n      mload\n        /* \"#utility.yul\":4217:4239   */\n      swap1\n      pop\n        /* \"#utility.yul\":4248:4281   */\n      tag_134\n        /* \"#utility.yul\":4275:4280   */\n      dup2\n        /* \"#utility.yul\":4248:4281   */\n      tag_72\n      jump\t// in\n    tag_134:\n        /* \"#utility.yul\":4144:4287   */\n      swap3\n      swap2\n      pop\n      pop\n      jump\t// out\n        /* \"#utility.yul\":4293:4644   */\n    tag_36:\n        /* \"#utility.yul\":4363:4369   */\n      0x00\n        /* \"#utility.yul\":4412:4414   */\n      0x20\n        /* \"#utility.yul\":4400:4409   */\n      dup3\n        /* \"#utility.yul\":4391:4398   */\n      dup5\n        /* \"#utility.yul\":4387:4410   */\n      sub\n        /* \"#utility.yul\":4383:4415   */\n      slt\n        /* \"#utility.yul\":4380:4499   */\n      iszero\n      tag_136\n      jumpi\n        /* \"#utility.yul\":4418:4497   */\n      tag_137\n      tag_69\n      jump\t// in\n    tag_137:\n        /* \"#utility.yul\":4380:4499   */\n    tag_136:\n        /* \"#utility.yul\":4538:4539   */\n      0x00\n        /* \"#utility.yul\":4563:4627   */\n      tag_138\n        /* \"#utility.yul\":4619:4626   */\n      dup5\n        /* \"#utility.yul\":4610:4616   */\n      dup3\n        /* \"#utility.yul\":4599:4608   */\n      dup6\n        /* \"#utility.yul\":4595:4617   */\n      add\n        /* \"#utility.yul\":4563:4627   */\n      tag_77\n      jump\t// in\n    tag_138:\n        /* \"#utility.yul\":4553:4627   */\n      swap2\n      pop\n        /* \"#utility.yul\":4509:4637   */\n      pop\n        /* \"#utility.yul\":4293:4644   */\n      swap3\n      swap2\n      pop\n      pop\n      jump\t// out\n        /* \"#utility.yul\":4650:4825   */\n    tag_78:\n        /* \"#utility.yul\":4790:4817   */\n      0x546f6b656e203120616c6c6f77616e636520746f6f206c6f7700000000000000\n        /* \"#utility.yul\":4786:4787   */\n      0x00\n        /* \"#utility.yul\":4778:4784   */\n      dup3\n        /* \"#utility.yul\":4774:4788   */\n      add\n        /* \"#utility.yul\":4767:4818   */\n      mstore\n        /* \"#utility.yul\":4650:4825   */\n      pop\n      jump\t// out\n        /* \"#utility.yul\":4831:5197   */\n    tag_79:\n        /* \"#utility.yul\":4973:4976   */\n      0x00\n        /* \"#utility.yul\":4994:5061   */\n      tag_141\n        /* \"#utility.yul\":5058:5060   */\n      0x19\n        /* \"#utility.yul\":5053:5056   */\n      dup4\n        /* \"#utility.yul\":4994:5061   */\n      tag_74\n      jump\t// in\n    tag_141:\n        /* \"#utility.yul\":4987:5061   */\n      swap2\n      pop\n        /* \"#utility.yul\":5070:5163   */\n      tag_142\n        /* \"#utility.yul\":5159:5162   */\n      dup3\n        /* \"#utility.yul\":5070:5163   */\n      tag_78\n      jump\t// in\n    tag_142:\n        /* \"#utility.yul\":5188:5190   */\n      0x20\n        /* \"#utility.yul\":5183:5186   */\n      dup3\n        /* \"#utility.yul\":5179:5191   */\n      add\n        /* \"#utility.yul\":5172:5191   */\n      swap1\n      pop\n        /* \"#utility.yul\":4831:5197   */\n      swap2\n      swap1\n      pop\n      jump\t// out\n        /* \"#utility.yul\":5203:5622   */\n    tag_39:\n        /* \"#utility.yul\":5369:5373   */\n      0x00\n        /* \"#utility.yul\":5407:5409   */\n      0x20\n        /* \"#utility.yul\":5396:5405   */\n      dup3\n        /* \"#utility.yul\":5392:5410   */\n      add\n        /* \"#utility.yul\":5384:5410   */\n      swap1\n      pop\n        /* \"#utility.yul\":5456:5465   */\n      dup2\n        /* \"#utility.yul\":5450:5454   */\n      dup2\n        /* \"#utility.yul\":5446:5466   */\n      sub\n        /* \"#utility.yul\":5442:5443   */\n      0x00\n        /* \"#utility.yul\":5431:5440   */\n      dup4\n        /* \"#utility.yul\":5427:5444   */\n      add\n        /* \"#utility.yul\":5420:5467   */\n      mstore\n        /* \"#utility.yul\":5484:5615   */\n      tag_144\n        /* \"#utility.yul\":5610:5614   */\n      dup2\n        /* \"#utility.yul\":5484:5615   */\n      tag_79\n      jump\t// in\n    tag_144:\n        /* \"#utility.yul\":5476:5615   */\n      swap1\n      pop\n        /* \"#utility.yul\":5203:5622   */\n      swap2\n      swap1\n      pop\n      jump\t// out\n        /* \"#utility.yul\":5628:5803   */\n    tag_80:\n        /* \"#utility.yul\":5768:5795   */\n      0x546f6b656e203220616c6c6f77616e636520746f6f206c6f7700000000000000\n        /* \"#utility.yul\":5764:5765   */\n      0x00\n        /* \"#utility.yul\":5756:5762   */\n      dup3\n        /* \"#utility.yul\":5752:5766   */\n      add\n        /* \"#utility.yul\":5745:5796   */\n      mstore\n        /* \"#utility.yul\":5628:5803   */\n      pop\n      jump\t// out\n        /* \"#utility.yul\":5809:6175   */\n    tag_81:\n        /* \"#utility.yul\":5951:5954   */\n      0x00\n        /* \"#utility.yul\":5972:6039   */\n      tag_147\n        /* \"#utility.yul\":6036:6038   */\n      0x19\n        /* \"#utility.yul\":6031:6034   */\n      dup4\n        /* \"#utility.yul\":5972:6039   */\n      tag_74\n      jump\t// in\n    tag_147:\n        /* \"#utility.yul\":5965:6039   */\n      swap2\n      pop\n        /* \"#utility.yul\":6048:6141   */\n      tag_148\n        /* \"#utility.yul\":6137:6140   */\n      dup3\n        /* \"#utility.yul\":6048:6141   */\n      tag_80\n      jump\t// in\n    tag_148:\n        /* \"#utility.yul\":6166:6168   */\n      0x20\n        /* \"#utility.yul\":6161:6164   */\n      dup3\n        /* \"#utility.yul\":6157:6169   */\n      add\n        /* \"#utility.yul\":6150:6169   */\n      swap1\n      pop\n        /* \"#utility.yul\":5809:6175   */\n      swap2\n      swap1\n      pop\n      jump\t// out\n        /* \"#utility.yul\":6181:6600   */\n    tag_46:\n        /* \"#utility.yul\":6347:6351   */\n      0x00\n        /* \"#utility.yul\":6385:6387   */\n      0x20\n        /* \"#utility.yul\":6374:6383   */\n      dup3\n        /* \"#utility.yul\":6370:6388   */\n      add\n        /* \"#utility.yul\":6362:6388   */\n      swap1\n      pop\n        /* \"#utility.yul\":6434:6443   */\n      dup2\n        /* \"#utility.yul\":6428:6432   */\n      dup2\n        /* \"#utility.yul\":6424:6444   */\n      sub\n        /* \"#utility.yul\":6420:6421   */\n      0x00\n        /* \"#utility.yul\":6409:6418   */\n      dup4\n        /* \"#utility.yul\":6405:6422   */\n      add\n        /* \"#utility.yul\":6398:6445   */\n      mstore\n        /* \"#utility.yul\":6462:6593   */\n      tag_150\n        /* \"#utility.yul\":6588:6592   */\n      dup2\n        /* \"#utility.yul\":6462:6593   */\n      tag_81\n      jump\t// in\n    tag_150:\n        /* \"#utility.yul\":6454:6593   */\n      swap1\n      pop\n        /* \"#utility.yul\":6181:6600   */\n      swap2\n      swap1\n      pop\n      jump\t// out\n        /* \"#utility.yul\":6606:6724   */\n    tag_82:\n        /* \"#utility.yul\":6693:6717   */\n      tag_152\n        /* \"#utility.yul\":6711:6716   */\n      dup2\n        /* \"#utility.yul\":6693:6717   */\n      tag_71\n      jump\t// in\n    tag_152:\n        /* \"#utility.yul\":6688:6691   */\n      dup3\n        /* \"#utility.yul\":6681:6718   */\n      mstore\n        /* \"#utility.yul\":6606:6724   */\n      pop\n      pop\n      jump\t// out\n        /* \"#utility.yul\":6730:7172   */\n    tag_52:\n        /* \"#utility.yul\":6879:6883   */\n      0x00\n        /* \"#utility.yul\":6917:6919   */\n      0x60\n        /* \"#utility.yul\":6906:6915   */\n      dup3\n        /* \"#utility.yul\":6902:6920   */\n      add\n        /* \"#utility.yul\":6894:6920   */\n      swap1\n      pop\n        /* \"#utility.yul\":6930:7001   */\n      tag_154\n        /* \"#utility.yul\":6998:6999   */\n      0x00\n        /* \"#utility.yul\":6987:6996   */\n      dup4\n        /* \"#utility.yul\":6983:7000   */\n      add\n        /* \"#utility.yul\":6974:6980   */\n      dup7\n        /* \"#utility.yul\":6930:7001   */\n      tag_67\n      jump\t// in\n    tag_154:\n        /* \"#utility.yul\":7011:7083   */\n      tag_155\n        /* \"#utility.yul\":7079:7081   */\n      0x20\n        /* \"#utility.yul\":7068:7077   */\n      dup4\n        /* \"#utility.yul\":7064:7082   */\n      add\n        /* \"#utility.yul\":7055:7061   */\n      dup6\n        /* \"#utility.yul\":7011:7083   */\n      tag_67\n      jump\t// in\n    tag_155:\n        /* \"#utility.yul\":7093:7165   */\n      tag_156\n        /* \"#utility.yul\":7161:7163   */\n      0x40\n        /* \"#utility.yul\":7150:7159   */\n      dup4\n        /* \"#utility.yul\":7146:7164   */\n      add\n        /* \"#utility.yul\":7137:7143   */\n      dup5\n        /* \"#utility.yul\":7093:7165   */\n      tag_82\n      jump\t// in\n    tag_156:\n        /* \"#utility.yul\":6730:7172   */\n      swap5\n      swap4\n      pop\n      pop\n      pop\n      pop\n      jump\t// out\n        /* \"#utility.yul\":7178:7268   */\n    tag_83:\n        /* \"#utility.yul\":7212:7219   */\n      0x00\n        /* \"#utility.yul\":7255:7260   */\n      dup2\n        /* \"#utility.yul\":7248:7261   */\n      iszero\n        /* \"#utility.yul\":7241:7262   */\n      iszero\n        /* \"#utility.yul\":7230:7262   */\n      swap1\n      pop\n        /* \"#utility.yul\":7178:7268   */\n      swap2\n      swap1\n      pop\n      jump\t// out\n        /* \"#utility.yul\":7274:7390   */\n    tag_84:\n        /* \"#utility.yul\":7344:7365   */\n      tag_159\n        /* \"#utility.yul\":7359:7364   */\n      dup2\n        /* \"#utility.yul\":7344:7365   */\n      tag_83\n      jump\t// in\n    tag_159:\n        /* \"#utility.yul\":7337:7342   */\n      dup2\n        /* \"#utility.yul\":7334:7366   */\n      eq\n        /* \"#utility.yul\":7324:7384   */\n      tag_160\n      jumpi\n        /* \"#utility.yul\":7380:7381   */\n      0x00\n        /* \"#utility.yul\":7377:7378   */\n      dup1\n        /* \"#utility.yul\":7370:7382   */\n      revert\n        /* \"#utility.yul\":7324:7384   */\n    tag_160:\n        /* \"#utility.yul\":7274:7390   */\n      pop\n      jump\t// out\n        /* \"#utility.yul\":7396:7533   */\n    tag_85:\n        /* \"#utility.yul\":7450:7455   */\n      0x00\n        /* \"#utility.yul\":7481:7487   */\n      dup2\n        /* \"#utility.yul\":7475:7488   */\n      mload\n        /* \"#utility.yul\":7466:7488   */\n      swap1\n      pop\n        /* \"#utility.yul\":7497:7527   */\n      tag_162\n        /* \"#utility.yul\":7521:7526   */\n      dup2\n        /* \"#utility.yul\":7497:7527   */\n      tag_84\n      jump\t// in\n    tag_162:\n        /* \"#utility.yul\":7396:7533   */\n      swap3\n      swap2\n      pop\n      pop\n      jump\t// out\n        /* \"#utility.yul\":7539:7884   */\n    tag_56:\n        /* \"#utility.yul\":7606:7612   */\n      0x00\n        /* \"#utility.yul\":7655:7657   */\n      0x20\n        /* \"#utility.yul\":7643:7652   */\n      dup3\n        /* \"#utility.yul\":7634:7641   */\n      dup5\n        /* \"#utility.yul\":7630:7653   */\n      sub\n        /* \"#utility.yul\":7626:7658   */\n      slt\n        /* \"#utility.yul\":7623:7742   */\n      iszero\n      tag_164\n      jumpi\n        /* \"#utility.yul\":7661:7740   */\n      tag_165\n      tag_69\n      jump\t// in\n    tag_165:\n        /* \"#utility.yul\":7623:7742   */\n    tag_164:\n        /* \"#utility.yul\":7781:7782   */\n      0x00\n        /* \"#utility.yul\":7806:7867   */\n      tag_166\n        /* \"#utility.yul\":7859:7866   */\n      dup5\n        /* \"#utility.yul\":7850:7856   */\n      dup3\n        /* \"#utility.yul\":7839:7848   */\n      dup6\n        /* \"#utility.yul\":7835:7857   */\n      add\n        /* \"#utility.yul\":7806:7867   */\n      tag_85\n      jump\t// in\n    tag_166:\n        /* \"#utility.yul\":7796:7867   */\n      swap2\n      pop\n        /* \"#utility.yul\":7752:7877   */\n      pop\n        /* \"#utility.yul\":7539:7884   */\n      swap3\n      swap2\n      pop\n      pop\n      jump\t// out\n        /* \"#utility.yul\":7890:8061   */\n    tag_86:\n        /* \"#utility.yul\":8030:8053   */\n      0x546f6b656e207472616e73666572206661696c65640000000000000000000000\n        /* \"#utility.yul\":8026:8027   */\n      0x00\n        /* \"#utility.yul\":8018:8024   */\n      dup3\n        /* \"#utility.yul\":8014:8028   */\n      add\n        /* \"#utility.yul\":8007:8054   */\n      mstore\n        /* \"#utility.yul\":7890:8061   */\n      pop\n      jump\t// out\n        /* \"#utility.yul\":8067:8433   */\n    tag_87:\n        /* \"#utility.yul\":8209:8212   */\n      0x00\n        /* \"#utility.yul\":8230:8297   */\n      tag_169\n        /* \"#utility.yul\":8294:8296   */\n      0x15\n        /* \"#utility.yul\":8289:8292   */\n      dup4\n        /* \"#utility.yul\":8230:8297   */\n      tag_74\n      jump\t// in\n    tag_169:\n        /* \"#utility.yul\":8223:8297   */\n      swap2\n      pop\n        /* \"#utility.yul\":8306:8399   */\n      tag_170\n        /* \"#utility.yul\":8395:8398   */\n      dup3\n        /* \"#utility.yul\":8306:8399   */\n      tag_86\n      jump\t// in\n    tag_170:\n        /* \"#utility.yul\":8424:8426   */\n      0x20\n        /* \"#utility.yul\":8419:8422   */\n      dup3\n        /* \"#utility.yul\":8415:8427   */\n      add\n        /* \"#utility.yul\":8408:8427   */\n      swap1\n      pop\n        /* \"#utility.yul\":8067:8433   */\n      swap2\n      swap1\n      pop\n      jump\t// out\n        /* \"#utility.yul\":8439:8858   */\n    tag_59:\n        /* \"#utility.yul\":8605:8609   */\n      0x00\n        /* \"#utility.yul\":8643:8645   */\n      0x20\n        /* \"#utility.yul\":8632:8641   */\n      dup3\n        /* \"#utility.yul\":8628:8646   */\n      add\n        /* \"#utility.yul\":8620:8646   */\n      swap1\n      pop\n        /* \"#utility.yul\":8692:8701   */\n      dup2\n        /* \"#utility.yul\":8686:8690   */\n      dup2\n        /* \"#utility.yul\":8682:8702   */\n      sub\n        /* \"#utility.yul\":8678:8679   */\n      0x00\n        /* \"#utility.yul\":8667:8676   */\n      dup4\n        /* \"#utility.yul\":8663:8680   */\n      add\n        /* \"#utility.yul\":8656:8703   */\n      mstore\n        /* \"#utility.yul\":8720:8851   */\n      tag_172\n        /* \"#utility.yul\":8846:8850   */\n      dup2\n        /* \"#utility.yul\":8720:8851   */\n      tag_87\n      jump\t// in\n    tag_172:\n        /* \"#utility.yul\":8712:8851   */\n      swap1\n      pop\n        /* \"#utility.yul\":8439:8858   */\n      swap2\n      swap1\n      pop\n      jump\t// out\n\n    auxdata: 0xa2646970667358221220e7643d4df228b448bb4537a12bbe6b6d6aacace37b7e0509c326d718d0454ec864736f6c63430008110033\n}\n",
				"bytecode": {
					"linkReferences": {},
					"object": "608060405234801561001057600080fd5b50604051610c96380380610c96833981810160405281019061003291906101a1565b836000806101000a81548173ffffffffffffffffffffffffffffffffffffffff021916908373ffffffffffffffffffffffffffffffffffffffff16021790555082600160006101000a81548173ffffffffffffffffffffffffffffffffffffffff021916908373ffffffffffffffffffffffffffffffffffffffff16021790555081600260006101000a81548173ffffffffffffffffffffffffffffffffffffffff021916908373ffffffffffffffffffffffffffffffffffffffff16021790555080600360006101000a81548173ffffffffffffffffffffffffffffffffffffffff021916908373ffffffffffffffffffffffffffffffffffffffff16021790555050505050610208565b600080fd5b600073ffffffffffffffffffffffffffffffffffffffff82169050919050565b600061016e82610143565b9050919050565b61017e81610163565b811461018957600080fd5b50565b60008151905061019b81610175565b92915050565b600080600080608085870312156101bb576101ba61013e565b5b60006101c98782880161018c565b94505060206101da8782880161018c565b93505060406101eb8782880161018c565b92505060606101fc8782880161018c565b91505092959194509250565b610a7f806102176000396000f3fe608060405234801561001057600080fd5b50600436106100575760003560e01c806325be124e1461005c578063527097251461007a5780637368891414610098578063d21220a7146100b6578063d96073cf146100d4575b600080fd5b6100646100f0565b60405161007191906106a0565b60405180910390f35b610082610116565b60405161008f91906106dc565b60405180910390f35b6100a061013c565b6040516100ad91906106dc565b60405180910390f35b6100be610162565b6040516100cb91906106a0565b60405180910390f35b6100ee60048036038101906100e99190610732565b610186565b005b600260009054906101000a900473ffffffffffffffffffffffffffffffffffffffff1681565b600360009054906101000a900473ffffffffffffffffffffffffffffffffffffffff1681565b600160009054906101000a900473ffffffffffffffffffffffffffffffffffffffff1681565b60008054906101000a900473ffffffffffffffffffffffffffffffffffffffff1681565b600160009054906101000a900473ffffffffffffffffffffffffffffffffffffffff1673ffffffffffffffffffffffffffffffffffffffff163373ffffffffffffffffffffffffffffffffffffffff16148061022f5750600360009054906101000a900473ffffffffffffffffffffffffffffffffffffffff1673ffffffffffffffffffffffffffffffffffffffff163373ffffffffffffffffffffffffffffffffffffffff16145b61026e576040517f08c379a0000000000000000000000000000000000000000000000000000000008152600401610265906107cf565b60405180910390fd5b8160008054906101000a900473ffffffffffffffffffffffffffffffffffffffff1673ffffffffffffffffffffffffffffffffffffffff1663dd62ed3e600160009054906101000a900473ffffffffffffffffffffffffffffffffffffffff16306040518363ffffffff1660e01b81526004016102ec9291906107ef565b602060405180830381865afa158015610309573d6000803e3d6000fd5b505050506040513d601f19601f8201168201806040525081019061032d919061082d565b101561036e576040517f08c379a0000000000000000000000000000000000000000000000000000000008152600401610365906108a6565b60405180910390fd5b80600260009054906101000a900473ffffffffffffffffffffffffffffffffffffffff1673ffffffffffffffffffffffffffffffffffffffff1663dd62ed3e600360009054906101000a900473ffffffffffffffffffffffffffffffffffffffff16306040518363ffffffff1660e01b81526004016103ee9291906107ef565b602060405180830381865afa15801561040b573d6000803e3d6000fd5b505050506040513d601f19601f8201168201806040525081019061042f919061082d565b1015610470576040517f08c379a000000000000000000000000000000000000000000000000000000000815260040161046790610912565b60405180910390fd5b6104e060008054906101000a900473ffffffffffffffffffffffffffffffffffffffff16600160009054906101000a900473ffffffffffffffffffffffffffffffffffffffff16600360009054906101000a900473ffffffffffffffffffffffffffffffffffffffff1685610556565b610552600260009054906101000a900473ffffffffffffffffffffffffffffffffffffffff16600360009054906101000a900473ffffffffffffffffffffffffffffffffffffffff16600160009054906101000a900473ffffffffffffffffffffffffffffffffffffffff1684610556565b5050565b60008473ffffffffffffffffffffffffffffffffffffffff166323b872dd8585856040518463ffffffff1660e01b815260040161059593929190610941565b6020604051808303816000875af11580156105b4573d6000803e3d6000fd5b505050506040513d601f19601f820116820180604052508101906105d891906109b0565b90508061061a576040517f08c379a000000000000000000000000000000000000000000000000000000000815260040161061190610a29565b60405180910390fd5b5050505050565b600073ffffffffffffffffffffffffffffffffffffffff82169050919050565b6000819050919050565b600061066661066161065c84610621565b610641565b610621565b9050919050565b60006106788261064b565b9050919050565b600061068a8261066d565b9050919050565b61069a8161067f565b82525050565b60006020820190506106b56000830184610691565b92915050565b60006106c682610621565b9050919050565b6106d6816106bb565b82525050565b60006020820190506106f160008301846106cd565b92915050565b600080fd5b6000819050919050565b61070f816106fc565b811461071a57600080fd5b50565b60008135905061072c81610706565b92915050565b60008060408385031215610749576107486106f7565b5b60006107578582860161071d565b92505060206107688582860161071d565b9150509250929050565b600082825260208201905092915050565b7f6e6f7420617574686f72697a6564000000000000000000000000000000000000600082015250565b60006107b9600e83610772565b91506107c482610783565b602082019050919050565b600060208201905081810360008301526107e8816107ac565b9050919050565b600060408201905061080460008301856106cd565b61081160208301846106cd565b9392505050565b60008151905061082781610706565b92915050565b600060208284031215610843576108426106f7565b5b600061085184828501610818565b91505092915050565b7f546f6b656e203120616c6c6f77616e636520746f6f206c6f7700000000000000600082015250565b6000610890601983610772565b915061089b8261085a565b602082019050919050565b600060208201905081810360008301526108bf81610883565b9050919050565b7f546f6b656e203220616c6c6f77616e636520746f6f206c6f7700000000000000600082015250565b60006108fc601983610772565b9150610907826108c6565b602082019050919050565b6000602082019050818103600083015261092b816108ef565b9050919050565b61093b816106fc565b82525050565b600060608201905061095660008301866106cd565b61096360208301856106cd565b6109706040830184610932565b949350505050565b60008115159050919050565b61098d81610978565b811461099857600080fd5b50565b6000815190506109aa81610984565b92915050565b6000602082840312156109c6576109c56106f7565b5b60006109d48482850161099b565b91505092915050565b7f546f6b656e207472616e73666572206661696c65640000000000000000000000600082015250565b6000610a13601583610772565b9150610a1e826109dd565b602082019050919050565b60006020820190508181036000830152610a4281610a06565b905091905056fea2646970667358221220e7643d4df228b448bb4537a12bbe6b6d6aacace37b7e0509c326d718d0454ec864736f6c63430008110033",
					"opcodes": "PUSH1 0x80 PUSH1 0x40 MSTORE CALLVALUE DUP1 ISZERO PUSH2 0x10 JUMPI PUSH1 0x0 DUP1 REVERT JUMPDEST POP PUSH1 0x40 MLOAD PUSH2 0xC96 CODESIZE SUB DUP1 PUSH2 0xC96 DUP4 CODECOPY DUP2 DUP2 ADD PUSH1 0x40 MSTORE DUP2 ADD SWAP1 PUSH2 0x32 SWAP2 SWAP1 PUSH2 0x1A1 JUMP JUMPDEST DUP4 PUSH1 0x0 DUP1 PUSH2 0x100 EXP DUP2 SLOAD DUP2 PUSH20 0xFFFFFFFFFFFFFFFFFFFFFFFFFFFFFFFFFFFFFFFF MUL NOT AND SWAP1 DUP4 PUSH20 0xFFFFFFFFFFFFFFFFFFFFFFFFFFFFFFFFFFFFFFFF AND MUL OR SWAP1 SSTORE POP DUP3 PUSH1 0x1 PUSH1 0x0 PUSH2 0x100 EXP DUP2 SLOAD DUP2 PUSH20 0xFFFFFFFFFFFFFFFFFFFFFFFFFFFFFFFFFFFFFFFF MUL NOT AND SWAP1 DUP4 PUSH20 0xFFFFFFFFFFFFFFFFFFFFFFFFFFFFFFFFFFFFFFFF AND MUL OR SWAP1 SSTORE POP DUP2 PUSH1 0x2 PUSH1 0x0 PUSH2 0x100 EXP DUP2 SLOAD DUP2 PUSH20 0xFFFFFFFFFFFFFFFFFFFFFFFFFFFFFFFFFFFFFFFF MUL NOT AND SWAP1 DUP4 PUSH20 0xFFFFFFFFFFFFFFFFFFFFFFFFFFFFFFFFFFFFFFFF AND MUL OR SWAP1 SSTORE POP DUP1 PUSH1 0x3 PUSH1 0x0 PUSH2 0x100 EXP DUP2 SLOAD DUP2 PUSH20 0xFFFFFFFFFFFFFFFFFFFFFFFFFFFFFFFFFFFFFFFF MUL NOT AND SWAP1 DUP4 PUSH20 0xFFFFFFFFFFFFFFFFFFFFFFFFFFFFFFFFFFFFFFFF AND MUL OR SWAP1 SSTORE POP POP POP POP POP PUSH2 0x208 JUMP JUMPDEST PUSH1 0x0 DUP1 REVERT JUMPDEST PUSH1 0x0 PUSH20 0xFFFFFFFFFFFFFFFFFFFFFFFFFFFFFFFFFFFFFFFF DUP3 AND SWAP1 POP SWAP2 SWAP1 POP JUMP JUMPDEST PUSH1 0x0 PUSH2 0x16E DUP3 PUSH2 0x143 JUMP JUMPDEST SWAP1 POP SWAP2 SWAP1 POP JUMP JUMPDEST PUSH2 0x17E DUP2 PUSH2 0x163 JUMP JUMPDEST DUP2 EQ PUSH2 0x189 JUMPI PUSH1 0x0 DUP1 REVERT JUMPDEST POP JUMP JUMPDEST PUSH1 0x0 DUP2 MLOAD SWAP1 POP PUSH2 0x19B DUP2 PUSH2 0x175 JUMP JUMPDEST SWAP3 SWAP2 POP POP JUMP JUMPDEST PUSH1 0x0 DUP1 PUSH1 0x0 DUP1 PUSH1 0x80 DUP6 DUP8 SUB SLT ISZERO PUSH2 0x1BB JUMPI PUSH2 0x1BA PUSH2 0x13E JUMP JUMPDEST JUMPDEST PUSH1 0x0 PUSH2 0x1C9 DUP8 DUP3 DUP9 ADD PUSH2 0x18C JUMP JUMPDEST SWAP5 POP POP PUSH1 0x20 PUSH2 0x1DA DUP8 DUP3 DUP9 ADD PUSH2 0x18C JUMP JUMPDEST SWAP4 POP POP PUSH1 0x40 PUSH2 0x1EB DUP8 DUP3 DUP9 ADD PUSH2 0x18C JUMP JUMPDEST SWAP3 POP POP PUSH1 0x60 PUSH2 0x1FC DUP8 DUP3 DUP9 ADD PUSH2 0x18C JUMP JUMPDEST SWAP2 POP POP SWAP3 SWAP6 SWAP2 SWAP5 POP SWAP3 POP JUMP JUMPDEST PUSH2 0xA7F DUP1 PUSH2 0x217 PUSH1 0x0 CODECOPY PUSH1 0x0 RETURN INVALID PUSH1 0x80 PUSH1 0x40 MSTORE CALLVALUE DUP1 ISZERO PUSH2 0x10 JUMPI PUSH1 0x0 DUP1 REVERT JUMPDEST POP PUSH1 0x4 CALLDATASIZE LT PUSH2 0x57 JUMPI PUSH1 0x0 CALLDATALOAD PUSH1 0xE0 SHR DUP1 PUSH4 0x25BE124E EQ PUSH2 0x5C JUMPI DUP1 PUSH4 0x52709725 EQ PUSH2 0x7A JUMPI DUP1 PUSH4 0x73688914 EQ PUSH2 0x98 JUMPI DUP1 PUSH4 0xD21220A7 EQ PUSH2 0xB6 JUMPI DUP1 PUSH4 0xD96073CF EQ PUSH2 0xD4 JUMPI JUMPDEST PUSH1 0x0 DUP1 REVERT JUMPDEST PUSH2 0x64 PUSH2 0xF0 JUMP JUMPDEST PUSH1 0x40 MLOAD PUSH2 0x71 SWAP2 SWAP1 PUSH2 0x6A0 JUMP JUMPDEST PUSH1 0x40 MLOAD DUP1 SWAP2 SUB SWAP1 RETURN JUMPDEST PUSH2 0x82 PUSH2 0x116 JUMP JUMPDEST PUSH1 0x40 MLOAD PUSH2 0x8F SWAP2 SWAP1 PUSH2 0x6DC JUMP JUMPDEST PUSH1 0x40 MLOAD DUP1 SWAP2 SUB SWAP1 RETURN JUMPDEST PUSH2 0xA0 PUSH2 0x13C JUMP JUMPDEST PUSH1 0x40 MLOAD PUSH2 0xAD SWAP2 SWAP1 PUSH2 0x6DC JUMP JUMPDEST PUSH1 0x40 MLOAD DUP1 SWAP2 SUB SWAP1 RETURN JUMPDEST PUSH2 0xBE PUSH2 0x162 JUMP JUMPDEST PUSH1 0x40 MLOAD PUSH2 0xCB SWAP2 SWAP1 PUSH2 0x6A0 JUMP JUMPDEST PUSH1 0x40 MLOAD DUP1 SWAP2 SUB SWAP1 RETURN JUMPDEST PUSH2 0xEE PUSH1 0x4 DUP1 CALLDATASIZE SUB DUP2 ADD SWAP1 PUSH2 0xE9 SWAP2 SWAP1 PUSH2 0x732 JUMP JUMPDEST PUSH2 0x186 JUMP JUMPDEST STOP JUMPDEST PUSH1 0x2 PUSH1 0x0 SWAP1 SLOAD SWAP1 PUSH2 0x100 EXP SWAP1 DIV PUSH20 0xFFFFFFFFFFFFFFFFFFFFFFFFFFFFFFFFFFFFFFFF AND DUP2 JUMP JUMPDEST PUSH1 0x3 PUSH1 0x0 SWAP1 SLOAD SWAP1 PUSH2 0x100 EXP SWAP1 DIV PUSH20 0xFFFFFFFFFFFFFFFFFFFFFFFFFFFFFFFFFFFFFFFF AND DUP2 JUMP JUMPDEST PUSH1 0x1 PUSH1 0x0 SWAP1 SLOAD SWAP1 PUSH2 0x100 EXP SWAP1 DIV PUSH20 0xFFFFFFFFFFFFFFFFFFFFFFFFFFFFFFFFFFFFFFFF AND DUP2 JUMP JUMPDEST PUSH1 0x0 DUP1 SLOAD SWAP1 PUSH2 0x100 EXP SWAP1 DIV PUSH20 0xFFFFFFFFFFFFFFFFFFFFFFFFFFFFFFFFFFFFFFFF AND DUP2 JUMP JUMPDEST PUSH1 0x1 PUSH1 0x0 SWAP1 SLOAD SWAP1 PUSH2 0x100 EXP SWAP1 DIV PUSH20 0xFFFFFFFFFFFFFFFFFFFFFFFFFFFFFFFFFFFFFFFF AND PUSH20 0xFFFFFFFFFFFFFFFFFFFFFFFFFFFFFFFFFFFFFFFF AND CALLER PUSH20 0xFFFFFFFFFFFFFFFFFFFFFFFFFFFFFFFFFFFFFFFF AND EQ DUP1 PUSH2 0x22F JUMPI POP PUSH1 0x3 PUSH1 0x0 SWAP1 SLOAD SWAP1 PUSH2 0x100 EXP SWAP1 DIV PUSH20 0xFFFFFFFFFFFFFFFFFFFFFFFFFFFFFFFFFFFFFFFF AND PUSH20 0xFFFFFFFFFFFFFFFFFFFFFFFFFFFFFFFFFFFFFFFF AND CALLER PUSH20 0xFFFFFFFFFFFFFFFFFFFFFFFFFFFFFFFFFFFFFFFF AND EQ JUMPDEST PUSH2 0x26E JUMPI PUSH1 0x40 MLOAD PUSH32 0x8C379A000000000000000000000000000000000000000000000000000000000 DUP2 MSTORE PUSH1 0x4 ADD PUSH2 0x265 SWAP1 PUSH2 0x7CF JUMP JUMPDEST PUSH1 0x40 MLOAD DUP1 SWAP2 SUB SWAP1 REVERT JUMPDEST DUP2 PUSH1 0x0 DUP1 SLOAD SWAP1 PUSH2 0x100 EXP SWAP1 DIV PUSH20 0xFFFFFFFFFFFFFFFFFFFFFFFFFFFFFFFFFFFFFFFF AND PUSH20 0xFFFFFFFFFFFFFFFFFFFFFFFFFFFFFFFFFFFFFFFF AND PUSH4 0xDD62ED3E PUSH1 0x1 PUSH1 0x0 SWAP1 SLOAD SWAP1 PUSH2 0x100 EXP SWAP1 DIV PUSH20 0xFFFFFFFFFFFFFFFFFFFFFFFFFFFFFFFFFFFFFFFF AND ADDRESS PUSH1 0x40 MLOAD DUP4 PUSH4 0xFFFFFFFF AND PUSH1 0xE0 SHL DUP2 MSTORE PUSH1 0x4 ADD PUSH2 0x2EC SWAP3 SWAP2 SWAP1 PUSH2 0x7EF JUMP JUMPDEST PUSH1 0x20 PUSH1 0x40 MLOAD DUP1 DUP4 SUB DUP2 DUP7 GAS STATICCALL ISZERO DUP1 ISZERO PUSH2 0x309 JUMPI RETURNDATASIZE PUSH1 0x0 DUP1 RETURNDATACOPY RETURNDATASIZE PUSH1 0x0 REVERT JUMPDEST POP POP POP POP PUSH1 0x40 MLOAD RETURNDATASIZE PUSH1 0x1F NOT PUSH1 0x1F DUP3 ADD AND DUP3 ADD DUP1 PUSH1 0x40 MSTORE POP DUP2 ADD SWAP1 PUSH2 0x32D SWAP2 SWAP1 PUSH2 0x82D JUMP JUMPDEST LT ISZERO PUSH2 0x36E JUMPI PUSH1 0x40 MLOAD PUSH32 0x8C379A000000000000000000000000000000000000000000000000000000000 DUP2 MSTORE PUSH1 0x4 ADD PUSH2 0x365 SWAP1 PUSH2 0x8A6 JUMP JUMPDEST PUSH1 0x40 MLOAD DUP1 SWAP2 SUB SWAP1 REVERT JUMPDEST DUP1 PUSH1 0x2 PUSH1 0x0 SWAP1 SLOAD SWAP1 PUSH2 0x100 EXP SWAP1 DIV PUSH20 0xFFFFFFFFFFFFFFFFFFFFFFFFFFFFFFFFFFFFFFFF AND PUSH20 0xFFFFFFFFFFFFFFFFFFFFFFFFFFFFFFFFFFFFFFFF AND PUSH4 0xDD62ED3E PUSH1 0x3 PUSH1 0x0 SWAP1 SLOAD SWAP1 PUSH2 0x100 EXP SWAP1 DIV PUSH20 0xFFFFFFFFFFFFFFFFFFFFFFFFFFFFFFFFFFFFFFFF AND ADDRESS PUSH1 0x40 MLOAD DUP4 PUSH4 0xFFFFFFFF AND PUSH1 0xE0 SHL DUP2 MSTORE PUSH1 0x4 ADD PUSH2 0x3EE SWAP3 SWAP2 SWAP1 PUSH2 0x7EF JUMP JUMPDEST PUSH1 0x20 PUSH1 0x40 MLOAD DUP1 DUP4 SUB DUP2 DUP7 GAS STATICCALL ISZERO DUP1 ISZERO PUSH2 0x40B JUMPI RETURNDATASIZE PUSH1 0x0 DUP1 RETURNDATACOPY RETURNDATASIZE PUSH1 0x0 REVERT JUMPDEST POP POP POP POP PUSH1 0x40 MLOAD RETURNDATASIZE PUSH1 0x1F NOT PUSH1 0x1F DUP3 ADD AND DUP3 ADD DUP1 PUSH1 0x40 MSTORE POP DUP2 ADD SWAP1 PUSH2 0x42F SWAP2 SWAP1 PUSH2 0x82D JUMP JUMPDEST LT ISZERO PUSH2 0x470 JUMPI PUSH1 0x40 MLOAD PUSH32 0x8C379A000000000000000000000000000000000000000000000000000000000 DUP2 MSTORE PUSH1 0x4 ADD PUSH2 0x467 SWAP1 PUSH2 0x912 JUMP JUMPDEST PUSH1 0x40 MLOAD DUP1 SWAP2 SUB SWAP1 REVERT JUMPDEST PUSH2 0x4E0 PUSH1 0x0 DUP1 SLOAD SWAP1 PUSH2 0x100 EXP SWAP1 DIV PUSH20 0xFFFFFFFFFFFFFFFFFFFFFFFFFFFFFFFFFFFFFFFF AND PUSH1 0x1 PUSH1 0x0 SWAP1 SLOAD SWAP1 PUSH2 0x100 EXP SWAP1 DIV PUSH20 0xFFFFFFFFFFFFFFFFFFFFFFFFFFFFFFFFFFFFFFFF AND PUSH1 0x3 PUSH1 0x0 SWAP1 SLOAD SWAP1 PUSH2 0x100 EXP SWAP1 DIV PUSH20 0xFFFFFFFFFFFFFFFFFFFFFFFFFFFFFFFFFFFFFFFF AND DUP6 PUSH2 0x556 JUMP JUMPDEST PUSH2 0x552 PUSH1 0x2 PUSH1 0x0 SWAP1 SLOAD SWAP1 PUSH2 0x100 EXP SWAP1 DIV PUSH20 0xFFFFFFFFFFFFFFFFFFFFFFFFFFFFFFFFFFFFFFFF AND PUSH1 0x3 PUSH1 0x0 SWAP1 SLOAD SWAP1 PUSH2 0x100 EXP SWAP1 DIV PUSH20 0xFFFFFFFFFFFFFFFFFFFFFFFFFFFFFFFFFFFFFFFF AND PUSH1 0x1 PUSH1 0x0 SWAP1 SLOAD SWAP1 PUSH2 0x100 EXP SWAP1 DIV PUSH20 0xFFFFFFFFFFFFFFFFFFFFFFFFFFFFFFFFFFFFFFFF AND DUP5 PUSH2 0x556 JUMP JUMPDEST POP POP JUMP JUMPDEST PUSH1 0x0 DUP5 PUSH20 0xFFFFFFFFFFFFFFFFFFFFFFFFFFFFFFFFFFFFFFFF AND PUSH4 0x23B872DD DUP6 DUP6 DUP6 PUSH1 0x40 MLOAD DUP5 PUSH4 0xFFFFFFFF AND PUSH1 0xE0 SHL DUP2 MSTORE PUSH1 0x4 ADD PUSH2 0x595 SWAP4 SWAP3 SWAP2 SWAP1 PUSH2 0x941 JUMP JUMPDEST PUSH1 0x20 PUSH1 0x40 MLOAD DUP1 DUP4 SUB DUP2 PUSH1 0x0 DUP8 GAS CALL ISZERO DUP1 ISZERO PUSH2 0x5B4 JUMPI RETURNDATASIZE PUSH1 0x0 DUP1 RETURNDATACOPY RETURNDATASIZE PUSH1 0x0 REVERT JUMPDEST POP POP POP POP PUSH1 0x40 MLOAD RETURNDATASIZE PUSH1 0x1F NOT PUSH1 0x1F DUP3 ADD AND DUP3 ADD DUP1 PUSH1 0x40 MSTORE POP DUP2 ADD SWAP1 PUSH2 0x5D8 SWAP2 SWAP1 PUSH2 0x9B0 JUMP JUMPDEST SWAP1 POP DUP1 PUSH2 0x61A JUMPI PUSH1 0x40 MLOAD PUSH32 0x8C379A000000000000000000000000000000000000000000000000000000000 DUP2 MSTORE PUSH1 0x4 ADD PUSH2 0x611 SWAP1 PUSH2 0xA29 JUMP JUMPDEST PUSH1 0x40 MLOAD DUP1 SWAP2 SUB SWAP1 REVERT JUMPDEST POP POP POP POP POP JUMP JUMPDEST PUSH1 0x0 PUSH20 0xFFFFFFFFFFFFFFFFFFFFFFFFFFFFFFFFFFFFFFFF DUP3 AND SWAP1 POP SWAP2 SWAP1 POP JUMP JUMPDEST PUSH1 0x0 DUP2 SWAP1 POP SWAP2 SWAP1 POP JUMP JUMPDEST PUSH1 0x0 PUSH2 0x666 PUSH2 0x661 PUSH2 0x65C DUP5 PUSH2 0x621 JUMP JUMPDEST PUSH2 0x641 JUMP JUMPDEST PUSH2 0x621 JUMP JUMPDEST SWAP1 POP SWAP2 SWAP1 POP JUMP JUMPDEST PUSH1 0x0 PUSH2 0x678 DUP3 PUSH2 0x64B JUMP JUMPDEST SWAP1 POP SWAP2 SWAP1 POP JUMP JUMPDEST PUSH1 0x0 PUSH2 0x68A DUP3 PUSH2 0x66D JUMP JUMPDEST SWAP1 POP SWAP2 SWAP1 POP JUMP JUMPDEST PUSH2 0x69A DUP2 PUSH2 0x67F JUMP JUMPDEST DUP3 MSTORE POP POP JUMP JUMPDEST PUSH1 0x0 PUSH1 0x20 DUP3 ADD SWAP1 POP PUSH2 0x6B5 PUSH1 0x0 DUP4 ADD DUP5 PUSH2 0x691 JUMP JUMPDEST SWAP3 SWAP2 POP POP JUMP JUMPDEST PUSH1 0x0 PUSH2 0x6C6 DUP3 PUSH2 0x621 JUMP JUMPDEST SWAP1 POP SWAP2 SWAP1 POP JUMP JUMPDEST PUSH2 0x6D6 DUP2 PUSH2 0x6BB JUMP JUMPDEST DUP3 MSTORE POP POP JUMP JUMPDEST PUSH1 0x0 PUSH1 0x20 DUP3 ADD SWAP1 POP PUSH2 0x6F1 PUSH1 0x0 DUP4 ADD DUP5 PUSH2 0x6CD JUMP JUMPDEST SWAP3 SWAP2 POP POP JUMP JUMPDEST PUSH1 0x0 DUP1 REVERT JUMPDEST PUSH1 0x0 DUP2 SWAP1 POP SWAP2 SWAP1 POP JUMP JUMPDEST PUSH2 0x70F DUP2 PUSH2 0x6FC JUMP JUMPDEST DUP2 EQ PUSH2 0x71A JUMPI PUSH1 0x0 DUP1 REVERT JUMPDEST POP JUMP JUMPDEST PUSH1 0x0 DUP2 CALLDATALOAD SWAP1 POP PUSH2 0x72C DUP2 PUSH2 0x706 JUMP JUMPDEST SWAP3 SWAP2 POP POP JUMP JUMPDEST PUSH1 0x0 DUP1 PUSH1 0x40 DUP4 DUP6 SUB SLT ISZERO PUSH2 0x749 JUMPI PUSH2 0x748 PUSH2 0x6F7 JUMP JUMPDEST JUMPDEST PUSH1 0x0 PUSH2 0x757 DUP6 DUP3 DUP7 ADD PUSH2 0x71D JUMP JUMPDEST SWAP3 POP POP PUSH1 0x20 PUSH2 0x768 DUP6 DUP3 DUP7 ADD PUSH2 0x71D JUMP JUMPDEST SWAP2 POP POP SWAP3 POP SWAP3 SWAP1 POP JUMP JUMPDEST PUSH1 0x0 DUP3 DUP3 MSTORE PUSH1 0x20 DUP3 ADD SWAP1 POP SWAP3 SWAP2 POP POP JUMP JUMPDEST PUSH32 0x6E6F7420617574686F72697A6564000000000000000000000000000000000000 PUSH1 0x0 DUP3 ADD MSTORE POP JUMP JUMPDEST PUSH1 0x0 PUSH2 0x7B9 PUSH1 0xE DUP4 PUSH2 0x772 JUMP JUMPDEST SWAP2 POP PUSH2 0x7C4 DUP3 PUSH2 0x783 JUMP JUMPDEST PUSH1 0x20 DUP3 ADD SWAP1 POP SWAP2 SWAP1 POP JUMP JUMPDEST PUSH1 0x0 PUSH1 0x20 DUP3 ADD SWAP1 POP DUP2 DUP2 SUB PUSH1 0x0 DUP4 ADD MSTORE PUSH2 0x7E8 DUP2 PUSH2 0x7AC JUMP JUMPDEST SWAP1 POP SWAP2 SWAP1 POP JUMP JUMPDEST PUSH1 0x0 PUSH1 0x40 DUP3 ADD SWAP1 POP PUSH2 0x804 PUSH1 0x0 DUP4 ADD DUP6 PUSH2 0x6CD JUMP JUMPDEST PUSH2 0x811 PUSH1 0x20 DUP4 ADD DUP5 PUSH2 0x6CD JUMP JUMPDEST SWAP4 SWAP3 POP POP POP JUMP JUMPDEST PUSH1 0x0 DUP2 MLOAD SWAP1 POP PUSH2 0x827 DUP2 PUSH2 0x706 JUMP JUMPDEST SWAP3 SWAP2 POP POP JUMP JUMPDEST PUSH1 0x0 PUSH1 0x20 DUP3 DUP5 SUB SLT ISZERO PUSH2 0x843 JUMPI PUSH2 0x842 PUSH2 0x6F7 JUMP JUMPDEST JUMPDEST PUSH1 0x0 PUSH2 0x851 DUP5 DUP3 DUP6 ADD PUSH2 0x818 JUMP JUMPDEST SWAP2 POP POP SWAP3 SWAP2 POP POP JUMP JUMPDEST PUSH32 0x546F6B656E203120616C6C6F77616E636520746F6F206C6F7700000000000000 PUSH1 0x0 DUP3 ADD MSTORE POP JUMP JUMPDEST PUSH1 0x0 PUSH2 0x890 PUSH1 0x19 DUP4 PUSH2 0x772 JUMP JUMPDEST SWAP2 POP PUSH2 0x89B DUP3 PUSH2 0x85A JUMP JUMPDEST PUSH1 0x20 DUP3 ADD SWAP1 POP SWAP2 SWAP1 POP JUMP JUMPDEST PUSH1 0x0 PUSH1 0x20 DUP3 ADD SWAP1 POP DUP2 DUP2 SUB PUSH1 0x0 DUP4 ADD MSTORE PUSH2 0x8BF DUP2 PUSH2 0x883 JUMP JUMPDEST SWAP1 POP SWAP2 SWAP1 POP JUMP JUMPDEST PUSH32 0x546F6B656E203220616C6C6F77616E636520746F6F206C6F7700000000000000 PUSH1 0x0 DUP3 ADD MSTORE POP JUMP JUMPDEST PUSH1 0x0 PUSH2 0x8FC PUSH1 0x19 DUP4 PUSH2 0x772 JUMP JUMPDEST SWAP2 POP PUSH2 0x907 DUP3 PUSH2 0x8C6 JUMP JUMPDEST PUSH1 0x20 DUP3 ADD SWAP1 POP SWAP2 SWAP1 POP JUMP JUMPDEST PUSH1 0x0 PUSH1 0x20 DUP3 ADD SWAP1 POP DUP2 DUP2 SUB PUSH1 0x0 DUP4 ADD MSTORE PUSH2 0x92B DUP2 PUSH2 0x8EF JUMP JUMPDEST SWAP1 POP SWAP2 SWAP1 POP JUMP JUMPDEST PUSH2 0x93B DUP2 PUSH2 0x6FC JUMP JUMPDEST DUP3 MSTORE POP POP JUMP JUMPDEST PUSH1 0x0 PUSH1 0x60 DUP3 ADD SWAP1 POP PUSH2 0x956 PUSH1 0x0 DUP4 ADD DUP7 PUSH2 0x6CD JUMP JUMPDEST PUSH2 0x963 PUSH1 0x20 DUP4 ADD DUP6 PUSH2 0x6CD JUMP JUMPDEST PUSH2 0x970 PUSH1 0x40 DUP4 ADD DUP5 PUSH2 0x932 JUMP JUMPDEST SWAP5 SWAP4 POP POP POP POP JUMP JUMPDEST PUSH1 0x0 DUP2 ISZERO ISZERO SWAP1 POP SWAP2 SWAP1 POP JUMP JUMPDEST PUSH2 0x98D DUP2 PUSH2 0x978 JUMP JUMPDEST DUP2 EQ PUSH2 0x998 JUMPI PUSH1 0x0 DUP1 REVERT JUMPDEST POP JUMP JUMPDEST PUSH1 0x0 DUP2 MLOAD SWAP1 POP PUSH2 0x9AA DUP2 PUSH2 0x984 JUMP JUMPDEST SWAP3 SWAP2 POP POP JUMP JUMPDEST PUSH1 0x0 PUSH1 0x20 DUP3 DUP5 SUB SLT ISZERO PUSH2 0x9C6 JUMPI PUSH2 0x9C5 PUSH2 0x6F7 JUMP JUMPDEST JUMPDEST PUSH1 0x0 PUSH2 0x9D4 DUP5 DUP3 DUP6 ADD PUSH2 0x99B JUMP JUMPDEST SWAP2 POP POP SWAP3 SWAP2 POP POP JUMP JUMPDEST PUSH32 0x546F6B656E207472616E73666572206661696C65640000000000000000000000 PUSH1 0x0 DUP3 ADD MSTORE POP JUMP JUMPDEST PUSH1 0x0 PUSH2 0xA13 PUSH1 0x15 DUP4 PUSH2 0x772 JUMP JUMPDEST SWAP2 POP PUSH2 0xA1E DUP3 PUSH2 0x9DD JUMP JUMPDEST PUSH1 0x20 DUP3 ADD SWAP1 POP SWAP2 SWAP1 POP JUMP JUMPDEST PUSH1 0x0 PUSH1 0x20 DUP3 ADD SWAP1 POP DUP2 DUP2 SUB PUSH1 0x0 DUP4 ADD MSTORE PUSH2 0xA42 DUP2 PUSH2 0xA06 JUMP JUMPDEST SWAP1 POP SWAP2 SWAP1 POP JUMP INVALID LOG2 PUSH5 0x6970667358 0x22 SLT KECCAK256 0xE7 PUSH5 0x3D4DF228B4 BASEFEE 0xBB GASLIMIT CALLDATACOPY LOG1 0x2B 0xBE PUSH12 0x6D6AACACE37B7E0509C326D7 XOR 0xD0 GASLIMIT 0x4E 0xC8 PUSH5 0x736F6C6343 STOP ADDMOD GT STOP CALLER "
				},
				"gasEstimates": {
					"creation": {
						"codeDepositCost": "537400",
						"executionCost": "infinite",
						"totalCost": "infinite"
					},
					"external": {
						"owner1()": "2536",
						"owner2()": "2514",
						"swap(uint256,uint256)": "infinite",
						"token1()": "infinite",
						"token2()": "infinite"
					},
					"internal": {
						"_safeTransferFrom(contract IERC20,address,address,uint256)": "infinite"
					}
				},
				"methodIdentifiers": {
					"owner1()": "73688914",
					"owner2()": "52709725",
					"swap(uint256,uint256)": "d96073cf",
					"token1()": "d21220a7",
					"token2()": "25be124e"
				}
			},
			"storageLayout": {
				"storage": [
					{
						"astId": 83,
						"contract": "TokenSwap.sol:TokenSwap",
						"label": "token1",
						"offset": 0,
						"slot": "0",
						"type": "t_contract(IERC20)77"
					},
					{
						"astId": 85,
						"contract": "TokenSwap.sol:TokenSwap",
						"label": "owner1",
						"offset": 0,
						"slot": "1",
						"type": "t_address"
					},
					{
						"astId": 88,
						"contract": "TokenSwap.sol:TokenSwap",
						"label": "token2",
						"offset": 0,
						"slot": "2",
						"type": "t_contract(IERC20)77"
					},
					{
						"astId": 90,
						"contract": "TokenSwap.sol:TokenSwap",
						"label": "owner2",
						"offset": 0,
						"slot": "3",
						"type": "t_address"
					}
				],
				"types": {
					"t_address": {
						"encoding": "inplace",
						"label": "address",
						"numberOfBytes": "20"
					},
					"t_contract(IERC20)77": {
						"encoding": "inplace",
						"label": "contract IERC20",
						"numberOfBytes": "20"
					}
				}
			},
			"userdoc": {
				"kind": "user",
				"methods": {},
				"version": 1
			}
		}
	}
}