{
	"PancakeSwap_UZH/lottery_multipleOwners.sol": {
		"Lottery": {
			"abi": [
				{
					"inputs": [],
					"stateMutability": "nonpayable",
					"type": "constructor"
				},
				{
					"anonymous": false,
					"inputs": [
						{
							"indexed": false,
							"internalType": "address payable",
							"name": "winner",
							"type": "address"
						},
						{
							"indexed": false,
							"internalType": "uint256",
							"name": "winAmount",
							"type": "uint256"
						}
					],
					"name": "Winner",
					"type": "event"
				},
				{
					"inputs": [],
					"name": "enter",
					"outputs": [],
					"stateMutability": "payable",
					"type": "function"
				},
				{
					"inputs": [],
					"name": "numPlayers",
					"outputs": [
						{
							"internalType": "uint256",
							"name": "",
							"type": "uint256"
						}
					],
					"stateMutability": "view",
					"type": "function"
				},
				{
					"inputs": [
						{
							"internalType": "uint256",
							"name": "",
							"type": "uint256"
						}
					],
					"name": "owners",
					"outputs": [
						{
							"internalType": "address",
							"name": "",
							"type": "address"
						}
					],
					"stateMutability": "view",
					"type": "function"
				},
				{
					"inputs": [],
					"name": "pickWinner",
					"outputs": [],
					"stateMutability": "nonpayable",
					"type": "function"
				},
				{
					"inputs": [
						{
							"internalType": "uint256",
							"name": "",
							"type": "uint256"
						}
					],
					"name": "players",
					"outputs": [
						{
							"internalType": "address payable",
							"name": "",
							"type": "address"
						}
					],
					"stateMutability": "view",
					"type": "function"
				},
				{
					"inputs": [],
					"name": "pot",
					"outputs": [
						{
							"internalType": "uint256",
							"name": "",
							"type": "uint256"
						}
					],
					"stateMutability": "view",
					"type": "function"
				}
			],
			"devdoc": {
				"kind": "dev",
				"methods": {},
				"version": 1
			},
			"evm": {
				"assembly": "    /* \"PancakeSwap_UZH/lottery_multipleOwners.sol\":27:2826  contract Lottery {\r... */\n  mstore(0x40, 0x80)\n    /* \"PancakeSwap_UZH/lottery_multipleOwners.sol\":534:597  constructor() public {\r... */\n  callvalue\n  dup1\n  iszero\n  tag_1\n  jumpi\n  0x00\n  dup1\n  revert\ntag_1:\n  pop\n    /* \"PancakeSwap_UZH/lottery_multipleOwners.sol\":566:572  owners */\n  0x00\n    /* \"PancakeSwap_UZH/lottery_multipleOwners.sol\":578:588  msg.sender */\n  caller\n    /* \"PancakeSwap_UZH/lottery_multipleOwners.sol\":566:589  owners.push(msg.sender) */\n  swap1\n  dup1\n  0x01\n  dup2\n  sload\n  add\n  dup1\n  dup3\n  sstore\n  dup1\n  swap2\n  pop\n  pop\n  0x01\n  swap1\n  sub\n  swap1\n  0x00\n  mstore\n  keccak256(0x00, 0x20)\n  add\n  0x00\n  swap1\n  swap2\n  swap1\n  swap2\n  swap1\n  swap2\n  0x0100\n  exp\n  dup2\n  sload\n  dup2\n  0xffffffffffffffffffffffffffffffffffffffff\n  mul\n  not\n  and\n  swap1\n  dup4\n  0xffffffffffffffffffffffffffffffffffffffff\n  and\n  mul\n  or\n  swap1\n  sstore\n  pop\n    /* \"PancakeSwap_UZH/lottery_multipleOwners.sol\":27:2826  contract Lottery {\r... */\n  dataSize(sub_0)\n  dup1\n  dataOffset(sub_0)\n  0x00\n  codecopy\n  0x00\n  return\nstop\n\nsub_0: assembly {\n        /* \"PancakeSwap_UZH/lottery_multipleOwners.sol\":27:2826  contract Lottery {\r... */\n      mstore(0x40, 0x80)\n      jumpi(tag_1, lt(calldatasize, 0x04))\n      shr(0xe0, calldataload(0x00))\n      dup1\n      0x025e7c27\n      eq\n      tag_2\n      jumpi\n      dup1\n      0x4ba2363a\n      eq\n      tag_3\n      jumpi\n      dup1\n      0x5d495aea\n      eq\n      tag_4\n      jumpi\n      dup1\n      0x97b2f556\n      eq\n      tag_5\n      jumpi\n      dup1\n      0xe97dcb62\n      eq\n      tag_6\n      jumpi\n      dup1\n      0xf71d96cb\n      eq\n      tag_7\n      jumpi\n    tag_1:\n      0x00\n      dup1\n      revert\n        /* \"PancakeSwap_UZH/lottery_multipleOwners.sol\":51:74  address[] public owners */\n    tag_2:\n      callvalue\n      dup1\n      iszero\n      tag_8\n      jumpi\n      0x00\n      dup1\n      revert\n    tag_8:\n      pop\n      tag_9\n      0x04\n      dup1\n      calldatasize\n      sub\n      dup2\n      add\n      swap1\n      tag_10\n      swap2\n      swap1\n      tag_11\n      jump\t// in\n    tag_10:\n      tag_12\n      jump\t// in\n    tag_9:\n      mload(0x40)\n      tag_13\n      swap2\n      swap1\n      tag_14\n      jump\t// in\n    tag_13:\n      mload(0x40)\n      dup1\n      swap2\n      sub\n      swap1\n      return\n        /* \"PancakeSwap_UZH/lottery_multipleOwners.sol\":252:267  uint public pot */\n    tag_3:\n      callvalue\n      dup1\n      iszero\n      tag_15\n      jumpi\n      0x00\n      dup1\n      revert\n    tag_15:\n      pop\n      tag_16\n      tag_17\n      jump\t// in\n    tag_16:\n      mload(0x40)\n      tag_18\n      swap2\n      swap1\n      tag_19\n      jump\t// in\n    tag_18:\n      mload(0x40)\n      dup1\n      swap2\n      sub\n      swap1\n      return\n        /* \"PancakeSwap_UZH/lottery_multipleOwners.sol\":1549:2708  function pickWinner() public {\r... */\n    tag_4:\n      callvalue\n      dup1\n      iszero\n      tag_20\n      jumpi\n      0x00\n      dup1\n      revert\n    tag_20:\n      pop\n      tag_21\n      tag_22\n      jump\t// in\n    tag_21:\n      stop\n        /* \"PancakeSwap_UZH/lottery_multipleOwners.sol\":334:356  uint public numPlayers */\n    tag_5:\n      callvalue\n      dup1\n      iszero\n      tag_23\n      jumpi\n      0x00\n      dup1\n      revert\n    tag_23:\n      pop\n      tag_24\n      tag_25\n      jump\t// in\n    tag_24:\n      mload(0x40)\n      tag_26\n      swap2\n      swap1\n      tag_19\n      jump\t// in\n    tag_26:\n      mload(0x40)\n      dup1\n      swap2\n      sub\n      swap1\n      return\n        /* \"PancakeSwap_UZH/lottery_multipleOwners.sol\":658:1151  function enter() public payable {\r... */\n    tag_6:\n      tag_27\n      tag_28\n      jump\t// in\n    tag_27:\n      stop\n        /* \"PancakeSwap_UZH/lottery_multipleOwners.sol\":148:180  address payable[] public players */\n    tag_7:\n      callvalue\n      dup1\n      iszero\n      tag_29\n      jumpi\n      0x00\n      dup1\n      revert\n    tag_29:\n      pop\n      tag_30\n      0x04\n      dup1\n      calldatasize\n      sub\n      dup2\n      add\n      swap1\n      tag_31\n      swap2\n      swap1\n      tag_11\n      jump\t// in\n    tag_31:\n      tag_32\n      jump\t// in\n    tag_30:\n      mload(0x40)\n      tag_33\n      swap2\n      swap1\n      tag_34\n      jump\t// in\n    tag_33:\n      mload(0x40)\n      dup1\n      swap2\n      sub\n      swap1\n      return\n        /* \"PancakeSwap_UZH/lottery_multipleOwners.sol\":51:74  address[] public owners */\n    tag_12:\n      0x00\n      dup2\n      dup2\n      sload\n      dup2\n      lt\n      tag_35\n      jumpi\n      0x00\n      dup1\n      revert\n    tag_35:\n      swap1\n      0x00\n      mstore\n      keccak256(0x00, 0x20)\n      add\n      0x00\n      swap2\n      pop\n      sload\n      swap1\n      0x0100\n      exp\n      swap1\n      div\n      0xffffffffffffffffffffffffffffffffffffffff\n      and\n      dup2\n      jump\t// out\n        /* \"PancakeSwap_UZH/lottery_multipleOwners.sol\":252:267  uint public pot */\n    tag_17:\n      sload(0x02)\n      dup2\n      jump\t// out\n        /* \"PancakeSwap_UZH/lottery_multipleOwners.sol\":1549:2708  function pickWinner() public {\r... */\n    tag_22:\n        /* \"PancakeSwap_UZH/lottery_multipleOwners.sol\":1589:1599  uint count */\n      0x00\n        /* \"PancakeSwap_UZH/lottery_multipleOwners.sol\":1619:1625  uint i */\n      dup1\n        /* \"PancakeSwap_UZH/lottery_multipleOwners.sol\":1614:1752  for (uint i = 0; i < owners.length; i++) {\r... */\n    tag_38:\n        /* \"PancakeSwap_UZH/lottery_multipleOwners.sol\":1635:1641  owners */\n      0x00\n        /* \"PancakeSwap_UZH/lottery_multipleOwners.sol\":1635:1648  owners.length */\n      dup1\n      sload\n      swap1\n      pop\n        /* \"PancakeSwap_UZH/lottery_multipleOwners.sol\":1631:1632  i */\n      dup2\n        /* \"PancakeSwap_UZH/lottery_multipleOwners.sol\":1631:1648  i < owners.length */\n      lt\n        /* \"PancakeSwap_UZH/lottery_multipleOwners.sol\":1614:1752  for (uint i = 0; i < owners.length; i++) {\r... */\n      iszero\n      tag_39\n      jumpi\n        /* \"PancakeSwap_UZH/lottery_multipleOwners.sol\":1688:1694  owners */\n      0x00\n        /* \"PancakeSwap_UZH/lottery_multipleOwners.sol\":1695:1696  i */\n      dup2\n        /* \"PancakeSwap_UZH/lottery_multipleOwners.sol\":1688:1697  owners[i] */\n      dup2\n      sload\n      dup2\n      lt\n      tag_41\n      jumpi\n      mstore(0x00, 0x4e487b7100000000000000000000000000000000000000000000000000000000)\n      mstore(0x04, 0x32)\n      revert(0x00, 0x24)\n    tag_41:\n      swap1\n      0x00\n      mstore\n      keccak256(0x00, 0x20)\n      add\n      0x00\n      swap1\n      sload\n      swap1\n      0x0100\n      exp\n      swap1\n      div\n      0xffffffffffffffffffffffffffffffffffffffff\n      and\n        /* \"PancakeSwap_UZH/lottery_multipleOwners.sol\":1674:1697  msg.sender == owners[i] */\n      0xffffffffffffffffffffffffffffffffffffffff\n      and\n        /* \"PancakeSwap_UZH/lottery_multipleOwners.sol\":1674:1684  msg.sender */\n      caller\n        /* \"PancakeSwap_UZH/lottery_multipleOwners.sol\":1674:1697  msg.sender == owners[i] */\n      0xffffffffffffffffffffffffffffffffffffffff\n      and\n      eq\n        /* \"PancakeSwap_UZH/lottery_multipleOwners.sol\":1670:1741  if (msg.sender == owners[i]) {\r... */\n      iszero\n      tag_43\n      jumpi\n        /* \"PancakeSwap_UZH/lottery_multipleOwners.sol\":1718:1725  count++ */\n      dup2\n      dup1\n      tag_44\n      swap1\n      tag_45\n      jump\t// in\n    tag_44:\n      swap3\n      pop\n      pop\n        /* \"PancakeSwap_UZH/lottery_multipleOwners.sol\":1670:1741  if (msg.sender == owners[i]) {\r... */\n    tag_43:\n        /* \"PancakeSwap_UZH/lottery_multipleOwners.sol\":1650:1653  i++ */\n      dup1\n      dup1\n      tag_46\n      swap1\n      tag_45\n      jump\t// in\n    tag_46:\n      swap2\n      pop\n      pop\n        /* \"PancakeSwap_UZH/lottery_multipleOwners.sol\":1614:1752  for (uint i = 0; i < owners.length; i++) {\r... */\n      jump(tag_38)\n    tag_39:\n      pop\n        /* \"PancakeSwap_UZH/lottery_multipleOwners.sol\":1793:1794  2 */\n      0x02\n        /* \"PancakeSwap_UZH/lottery_multipleOwners.sol\":1779:1785  owners */\n      0x00\n        /* \"PancakeSwap_UZH/lottery_multipleOwners.sol\":1779:1792  owners.length */\n      dup1\n      sload\n      swap1\n      pop\n        /* \"PancakeSwap_UZH/lottery_multipleOwners.sol\":1779:1794  owners.length/2 */\n      tag_47\n      swap2\n      swap1\n      tag_48\n      jump\t// in\n    tag_47:\n        /* \"PancakeSwap_UZH/lottery_multipleOwners.sol\":1770:1775  count */\n      dup2\n        /* \"PancakeSwap_UZH/lottery_multipleOwners.sol\":1770:1795  count > (owners.length/2) */\n      gt\n        /* \"PancakeSwap_UZH/lottery_multipleOwners.sol\":1762:1855  require(count > (owners.length/2), \"More than 50% of the owners must agree to pick a winner\") */\n      tag_49\n      jumpi\n      mload(0x40)\n      0x08c379a000000000000000000000000000000000000000000000000000000000\n      dup2\n      mstore\n      0x04\n      add\n      tag_50\n      swap1\n      tag_51\n      jump\t// in\n    tag_50:\n      mload(0x40)\n      dup1\n      swap2\n      sub\n      swap1\n      revert\n    tag_49:\n        /* \"PancakeSwap_UZH/lottery_multipleOwners.sol\":1951:1952  0 */\n      0x00\n        /* \"PancakeSwap_UZH/lottery_multipleOwners.sol\":1938:1948  numPlayers */\n      sload(0x03)\n        /* \"PancakeSwap_UZH/lottery_multipleOwners.sol\":1938:1952  numPlayers > 0 */\n      gt\n        /* \"PancakeSwap_UZH/lottery_multipleOwners.sol\":1930:2007  require(numPlayers > 0, \"There must be at least one player to pick a winner\") */\n      tag_52\n      jumpi\n      mload(0x40)\n      0x08c379a000000000000000000000000000000000000000000000000000000000\n      dup2\n      mstore\n      0x04\n      add\n      tag_53\n      swap1\n      tag_54\n      jump\t// in\n    tag_53:\n      mload(0x40)\n      dup1\n      swap2\n      sub\n      swap1\n      revert\n    tag_52:\n        /* \"PancakeSwap_UZH/lottery_multipleOwners.sol\":2068:2078  uint index */\n      0x00\n        /* \"PancakeSwap_UZH/lottery_multipleOwners.sol\":2081:2089  random() */\n      tag_55\n        /* \"PancakeSwap_UZH/lottery_multipleOwners.sol\":2081:2087  random */\n      tag_56\n        /* \"PancakeSwap_UZH/lottery_multipleOwners.sol\":2081:2089  random() */\n      jump\t// in\n    tag_55:\n        /* \"PancakeSwap_UZH/lottery_multipleOwners.sol\":2068:2089  uint index = random() */\n      swap1\n      pop\n        /* \"PancakeSwap_UZH/lottery_multipleOwners.sol\":2167:2189  address payable winner */\n      0x00\n        /* \"PancakeSwap_UZH/lottery_multipleOwners.sol\":2192:2199  players */\n      0x01\n        /* \"PancakeSwap_UZH/lottery_multipleOwners.sol\":2200:2205  index */\n      dup3\n        /* \"PancakeSwap_UZH/lottery_multipleOwners.sol\":2192:2206  players[index] */\n      dup2\n      sload\n      dup2\n      lt\n      tag_57\n      jumpi\n      mstore(0x00, 0x4e487b7100000000000000000000000000000000000000000000000000000000)\n      mstore(0x04, 0x32)\n      revert(0x00, 0x24)\n    tag_57:\n      swap1\n      0x00\n      mstore\n      keccak256(0x00, 0x20)\n      add\n      0x00\n      swap1\n      sload\n      swap1\n      0x0100\n      exp\n      swap1\n      div\n      0xffffffffffffffffffffffffffffffffffffffff\n      and\n        /* \"PancakeSwap_UZH/lottery_multipleOwners.sol\":2167:2206  address payable winner = players[index] */\n      swap1\n      pop\n        /* \"PancakeSwap_UZH/lottery_multipleOwners.sol\":2274:2288  uint winAmount */\n      0x00\n        /* \"PancakeSwap_UZH/lottery_multipleOwners.sol\":2291:2294  pot */\n      sload(0x02)\n        /* \"PancakeSwap_UZH/lottery_multipleOwners.sol\":2274:2294  uint winAmount = pot */\n      swap1\n      pop\n        /* \"PancakeSwap_UZH/lottery_multipleOwners.sol\":2391:2392  0 */\n      0x00\n        /* \"PancakeSwap_UZH/lottery_multipleOwners.sol\":2369:2393  new address payable[](0) */\n      0xffffffffffffffff\n      dup2\n      gt\n      iszero\n      tag_59\n      jumpi\n      mstore(0x00, 0x4e487b7100000000000000000000000000000000000000000000000000000000)\n      mstore(0x04, 0x41)\n      revert(0x00, 0x24)\n    tag_59:\n      mload(0x40)\n      swap1\n      dup1\n      dup3\n      mstore\n      dup1\n      0x20\n      mul\n      0x20\n      add\n      dup3\n      add\n      0x40\n      mstore\n      dup1\n      iszero\n      tag_60\n      jumpi\n      dup2\n      0x20\n      add\n      0x20\n      dup3\n      mul\n      dup1\n      calldatasize\n      dup4\n      calldatacopy\n      dup1\n      dup3\n      add\n      swap2\n      pop\n      pop\n      swap1\n      pop\n    tag_60:\n      pop\n        /* \"PancakeSwap_UZH/lottery_multipleOwners.sol\":2359:2366  players */\n      0x01\n        /* \"PancakeSwap_UZH/lottery_multipleOwners.sol\":2359:2393  players = new address payable[](0) */\n      swap1\n      dup1\n      mload\n      swap1\n      0x20\n      add\n      swap1\n      tag_61\n      swap3\n      swap2\n      swap1\n      tag_62\n      jump\t// in\n    tag_61:\n      pop\n        /* \"PancakeSwap_UZH/lottery_multipleOwners.sol\":2437:2438  0 */\n      0x00\n        /* \"PancakeSwap_UZH/lottery_multipleOwners.sol\":2431:2434  pot */\n      0x02\n        /* \"PancakeSwap_UZH/lottery_multipleOwners.sol\":2431:2438  pot = 0 */\n      dup2\n      swap1\n      sstore\n      pop\n        /* \"PancakeSwap_UZH/lottery_multipleOwners.sol\":2484:2485  0 */\n      0x00\n        /* \"PancakeSwap_UZH/lottery_multipleOwners.sol\":2471:2481  numPlayers */\n      0x03\n        /* \"PancakeSwap_UZH/lottery_multipleOwners.sol\":2471:2485  numPlayers = 0 */\n      dup2\n      swap1\n      sstore\n      pop\n        /* \"PancakeSwap_UZH/lottery_multipleOwners.sol\":2530:2555  Winner(winner, winAmount) */\n      0x9c2270628a9b29d30ae96b6c4c14ed646ee134febdce38a5b77f2bde9cea2e20\n        /* \"PancakeSwap_UZH/lottery_multipleOwners.sol\":2537:2543  winner */\n      dup3\n        /* \"PancakeSwap_UZH/lottery_multipleOwners.sol\":2545:2554  winAmount */\n      dup3\n        /* \"PancakeSwap_UZH/lottery_multipleOwners.sol\":2530:2555  Winner(winner, winAmount) */\n      mload(0x40)\n      tag_63\n      swap3\n      swap2\n      swap1\n      tag_64\n      jump\t// in\n    tag_63:\n      mload(0x40)\n      dup1\n      swap2\n      sub\n      swap1\n      log1\n        /* \"PancakeSwap_UZH/lottery_multipleOwners.sol\":2623:2629  winner */\n      dup2\n        /* \"PancakeSwap_UZH/lottery_multipleOwners.sol\":2623:2638  winner.transfer */\n      0xffffffffffffffffffffffffffffffffffffffff\n      and\n        /* \"PancakeSwap_UZH/lottery_multipleOwners.sol\":2623:2649  winner.transfer(winAmount) */\n      0x08fc\n        /* \"PancakeSwap_UZH/lottery_multipleOwners.sol\":2639:2648  winAmount */\n      dup3\n        /* \"PancakeSwap_UZH/lottery_multipleOwners.sol\":2623:2649  winner.transfer(winAmount) */\n      swap1\n      dup2\n      iszero\n      mul\n      swap1\n      mload(0x40)\n      0x00\n      mload(0x40)\n      dup1\n      dup4\n      sub\n      dup2\n      dup6\n      dup9\n      dup9\n      call\n      swap4\n      pop\n      pop\n      pop\n      pop\n      iszero\n      dup1\n      iszero\n      tag_66\n      jumpi\n      returndatasize\n      0x00\n      dup1\n      returndatacopy\n      revert(0x00, returndatasize)\n    tag_66:\n      pop\n        /* \"PancakeSwap_UZH/lottery_multipleOwners.sol\":1549:2708  function pickWinner() public {\r... */\n      pop\n      pop\n      pop\n      pop\n      jump\t// out\n        /* \"PancakeSwap_UZH/lottery_multipleOwners.sol\":334:356  uint public numPlayers */\n    tag_25:\n      sload(0x03)\n      dup2\n      jump\t// out\n        /* \"PancakeSwap_UZH/lottery_multipleOwners.sol\":658:1151  function enter() public payable {\r... */\n    tag_28:\n        /* \"PancakeSwap_UZH/lottery_multipleOwners.sol\":721:731  0.01 ether */\n      0x2386f26fc10000\n        /* \"PancakeSwap_UZH/lottery_multipleOwners.sol\":709:718  msg.value */\n      callvalue\n        /* \"PancakeSwap_UZH/lottery_multipleOwners.sol\":709:731  msg.value > 0.01 ether */\n      gt\n        /* \"PancakeSwap_UZH/lottery_multipleOwners.sol\":701:775  require(msg.value > 0.01 ether, \"Your ticket must be at least 0.01 ether\") */\n      tag_68\n      jumpi\n      mload(0x40)\n      0x08c379a000000000000000000000000000000000000000000000000000000000\n      dup2\n      mstore\n      0x04\n      add\n      tag_69\n      swap1\n      tag_70\n      jump\t// in\n    tag_69:\n      mload(0x40)\n      dup1\n      swap2\n      sub\n      swap1\n      revert\n    tag_68:\n        /* \"PancakeSwap_UZH/lottery_multipleOwners.sol\":862:869  players */\n      0x01\n        /* \"PancakeSwap_UZH/lottery_multipleOwners.sol\":883:893  msg.sender */\n      caller\n        /* \"PancakeSwap_UZH/lottery_multipleOwners.sol\":862:895  players.push(payable(msg.sender)) */\n      swap1\n      dup1\n      0x01\n      dup2\n      sload\n      add\n      dup1\n      dup3\n      sstore\n      dup1\n      swap2\n      pop\n      pop\n      0x01\n      swap1\n      sub\n      swap1\n      0x00\n      mstore\n      keccak256(0x00, 0x20)\n      add\n      0x00\n      swap1\n      swap2\n      swap1\n      swap2\n      swap1\n      swap2\n      0x0100\n      exp\n      dup2\n      sload\n      dup2\n      0xffffffffffffffffffffffffffffffffffffffff\n      mul\n      not\n      and\n      swap1\n      dup4\n      0xffffffffffffffffffffffffffffffffffffffff\n      and\n      mul\n      or\n      swap1\n      sstore\n      pop\n        /* \"PancakeSwap_UZH/lottery_multipleOwners.sol\":956:962  owners */\n      0x00\n        /* \"PancakeSwap_UZH/lottery_multipleOwners.sol\":968:978  msg.sender */\n      caller\n        /* \"PancakeSwap_UZH/lottery_multipleOwners.sol\":956:979  owners.push(msg.sender) */\n      swap1\n      dup1\n      0x01\n      dup2\n      sload\n      add\n      dup1\n      dup3\n      sstore\n      dup1\n      swap2\n      pop\n      pop\n      0x01\n      swap1\n      sub\n      swap1\n      0x00\n      mstore\n      keccak256(0x00, 0x20)\n      add\n      0x00\n      swap1\n      swap2\n      swap1\n      swap2\n      swap1\n      swap2\n      0x0100\n      exp\n      dup2\n      sload\n      dup2\n      0xffffffffffffffffffffffffffffffffffffffff\n      mul\n      not\n      and\n      swap1\n      dup4\n      0xffffffffffffffffffffffffffffffffffffffff\n      and\n      mul\n      or\n      swap1\n      sstore\n      pop\n        /* \"PancakeSwap_UZH/lottery_multipleOwners.sol\":990:1000  numPlayers */\n      0x03\n      0x00\n        /* \"PancakeSwap_UZH/lottery_multipleOwners.sol\":990:1002  numPlayers++ */\n      dup2\n      sload\n      dup1\n      swap3\n      swap2\n      swap1\n      tag_73\n      swap1\n      tag_45\n      jump\t// in\n    tag_73:\n      swap2\n      swap1\n      pop\n      sstore\n      pop\n        /* \"PancakeSwap_UZH/lottery_multipleOwners.sol\":1064:1073  msg.value */\n      callvalue\n        /* \"PancakeSwap_UZH/lottery_multipleOwners.sol\":1057:1060  pot */\n      0x02\n      0x00\n        /* \"PancakeSwap_UZH/lottery_multipleOwners.sol\":1057:1073  pot += msg.value */\n      dup3\n      dup3\n      sload\n      tag_74\n      swap2\n      swap1\n      tag_75\n      jump\t// in\n    tag_74:\n      swap3\n      pop\n      pop\n      dup2\n      swap1\n      sstore\n      pop\n        /* \"PancakeSwap_UZH/lottery_multipleOwners.sol\":658:1151  function enter() public payable {\r... */\n      jump\t// out\n        /* \"PancakeSwap_UZH/lottery_multipleOwners.sol\":148:180  address payable[] public players */\n    tag_32:\n      0x01\n      dup2\n      dup2\n      sload\n      dup2\n      lt\n      tag_76\n      jumpi\n      0x00\n      dup1\n      revert\n    tag_76:\n      swap1\n      0x00\n      mstore\n      keccak256(0x00, 0x20)\n      add\n      0x00\n      swap2\n      pop\n      sload\n      swap1\n      0x0100\n      exp\n      swap1\n      div\n      0xffffffffffffffffffffffffffffffffffffffff\n      and\n      dup2\n      jump\t// out\n        /* \"PancakeSwap_UZH/lottery_multipleOwners.sol\":1242:1492  function random() private view returns (uint) {\r... */\n    tag_56:\n        /* \"PancakeSwap_UZH/lottery_multipleOwners.sol\":1282:1286  uint */\n      0x00\n        /* \"PancakeSwap_UZH/lottery_multipleOwners.sol\":1386:1393  players */\n      0x01\n        /* \"PancakeSwap_UZH/lottery_multipleOwners.sol\":1386:1400  players.length */\n      dup1\n      sload\n      swap1\n      pop\n        /* \"PancakeSwap_UZH/lottery_multipleOwners.sol\":1338:1354  block.difficulty */\n      difficulty\n        /* \"PancakeSwap_UZH/lottery_multipleOwners.sol\":1356:1371  block.timestamp */\n      timestamp\n        /* \"PancakeSwap_UZH/lottery_multipleOwners.sol\":1373:1380  players */\n      0x01\n        /* \"PancakeSwap_UZH/lottery_multipleOwners.sol\":1321:1381  abi.encodePacked(block.difficulty, block.timestamp, players) */\n      add(0x20, mload(0x40))\n      tag_79\n      swap4\n      swap3\n      swap2\n      swap1\n      tag_80\n      jump\t// in\n    tag_79:\n      mload(0x40)\n      0x20\n      dup2\n      dup4\n      sub\n      sub\n      dup2\n      mstore\n      swap1\n      0x40\n      mstore\n        /* \"PancakeSwap_UZH/lottery_multipleOwners.sol\":1311:1382  keccak256(abi.encodePacked(block.difficulty, block.timestamp, players)) */\n      dup1\n      mload\n      swap1\n      0x20\n      add\n      keccak256\n        /* \"PancakeSwap_UZH/lottery_multipleOwners.sol\":1306:1383  uint(keccak256(abi.encodePacked(block.difficulty, block.timestamp, players))) */\n      0x00\n      shr\n        /* \"PancakeSwap_UZH/lottery_multipleOwners.sol\":1306:1400  uint(keccak256(abi.encodePacked(block.difficulty, block.timestamp, players))) % players.length */\n      tag_81\n      swap2\n      swap1\n      tag_82\n      jump\t// in\n    tag_81:\n        /* \"PancakeSwap_UZH/lottery_multipleOwners.sol\":1299:1400  return uint(keccak256(abi.encodePacked(block.difficulty, block.timestamp, players))) % players.length */\n      swap1\n      pop\n        /* \"PancakeSwap_UZH/lottery_multipleOwners.sol\":1242:1492  function random() private view returns (uint) {\r... */\n      swap1\n      jump\t// out\n    tag_62:\n      dup3\n      dup1\n      sload\n      dup3\n      dup3\n      sstore\n      swap1\n      0x00\n      mstore\n      keccak256(0x00, 0x20)\n      swap1\n      dup2\n      add\n      swap3\n      dup3\n      iszero\n      tag_83\n      jumpi\n      swap2\n      0x20\n      mul\n      dup3\n      add\n    tag_84:\n      dup3\n      dup2\n      gt\n      iszero\n      tag_85\n      jumpi\n      dup3\n      mload\n      dup3\n      exp(0x0100, 0x00)\n      dup2\n      sload\n      dup2\n      0xffffffffffffffffffffffffffffffffffffffff\n      mul\n      not\n      and\n      swap1\n      dup4\n      0xffffffffffffffffffffffffffffffffffffffff\n      and\n      mul\n      or\n      swap1\n      sstore\n      pop\n      swap2\n      0x20\n      add\n      swap2\n      swap1\n      0x01\n      add\n      swap1\n      jump(tag_84)\n    tag_85:\n    tag_83:\n      pop\n      swap1\n      pop\n      tag_86\n      swap2\n      swap1\n      tag_87\n      jump\t// in\n    tag_86:\n      pop\n      swap1\n      jump\t// out\n    tag_87:\n    tag_88:\n      dup1\n      dup3\n      gt\n      iszero\n      tag_89\n      jumpi\n      0x00\n      dup2\n      0x00\n      swap1\n      sstore\n      pop\n      0x01\n      add\n      jump(tag_88)\n    tag_89:\n      pop\n      swap1\n      jump\t// out\n        /* \"#utility.yul\":7:146   */\n    tag_91:\n      0x00\n        /* \"#utility.yul\":91:97   */\n      dup2\n        /* \"#utility.yul\":78:98   */\n      calldataload\n        /* \"#utility.yul\":69:98   */\n      swap1\n      pop\n        /* \"#utility.yul\":107:140   */\n      tag_93\n        /* \"#utility.yul\":134:139   */\n      dup2\n        /* \"#utility.yul\":107:140   */\n      tag_94\n      jump\t// in\n    tag_93:\n        /* \"#utility.yul\":59:146   */\n      swap3\n      swap2\n      pop\n      pop\n      jump\t// out\n        /* \"#utility.yul\":152:414   */\n    tag_11:\n      0x00\n        /* \"#utility.yul\":260:262   */\n      0x20\n        /* \"#utility.yul\":248:257   */\n      dup3\n        /* \"#utility.yul\":239:246   */\n      dup5\n        /* \"#utility.yul\":235:258   */\n      sub\n        /* \"#utility.yul\":231:263   */\n      slt\n        /* \"#utility.yul\":228:230   */\n      iszero\n      tag_96\n      jumpi\n        /* \"#utility.yul\":276:277   */\n      0x00\n        /* \"#utility.yul\":273:274   */\n      dup1\n        /* \"#utility.yul\":266:278   */\n      revert\n        /* \"#utility.yul\":228:230   */\n    tag_96:\n        /* \"#utility.yul\":319:320   */\n      0x00\n        /* \"#utility.yul\":344:397   */\n      tag_97\n        /* \"#utility.yul\":389:396   */\n      dup5\n        /* \"#utility.yul\":380:386   */\n      dup3\n        /* \"#utility.yul\":369:378   */\n      dup6\n        /* \"#utility.yul\":365:387   */\n      add\n        /* \"#utility.yul\":344:397   */\n      tag_91\n      jump\t// in\n    tag_97:\n        /* \"#utility.yul\":334:397   */\n      swap2\n      pop\n        /* \"#utility.yul\":290:407   */\n      pop\n        /* \"#utility.yul\":218:414   */\n      swap3\n      swap2\n      pop\n      pop\n      jump\t// out\n        /* \"#utility.yul\":420:647   */\n    tag_98:\n      0x00\n        /* \"#utility.yul\":534:604   */\n      tag_100\n        /* \"#utility.yul\":600:603   */\n      dup4\n        /* \"#utility.yul\":592:598   */\n      dup4\n        /* \"#utility.yul\":534:604   */\n      tag_101\n      jump\t// in\n    tag_100:\n        /* \"#utility.yul\":636:640   */\n      0x20\n        /* \"#utility.yul\":631:634   */\n      dup4\n        /* \"#utility.yul\":627:641   */\n      add\n        /* \"#utility.yul\":613:641   */\n      swap1\n      pop\n        /* \"#utility.yul\":524:647   */\n      swap3\n      swap2\n      pop\n      pop\n      jump\t// out\n        /* \"#utility.yul\":653:795   */\n    tag_102:\n        /* \"#utility.yul\":756:788   */\n      tag_104\n        /* \"#utility.yul\":782:787   */\n      dup2\n        /* \"#utility.yul\":756:788   */\n      tag_105\n      jump\t// in\n    tag_104:\n        /* \"#utility.yul\":751:754   */\n      dup3\n        /* \"#utility.yul\":744:789   */\n      mstore\n        /* \"#utility.yul\":734:795   */\n      pop\n      pop\n      jump\t// out\n        /* \"#utility.yul\":801:941   */\n    tag_101:\n        /* \"#utility.yul\":902:934   */\n      tag_107\n        /* \"#utility.yul\":928:933   */\n      dup2\n        /* \"#utility.yul\":902:934   */\n      tag_105\n      jump\t// in\n    tag_107:\n        /* \"#utility.yul\":897:900   */\n      dup3\n        /* \"#utility.yul\":890:935   */\n      mstore\n        /* \"#utility.yul\":880:941   */\n      pop\n      pop\n      jump\t// out\n        /* \"#utility.yul\":947:1065   */\n    tag_108:\n        /* \"#utility.yul\":1034:1058   */\n      tag_110\n        /* \"#utility.yul\":1052:1057   */\n      dup2\n        /* \"#utility.yul\":1034:1058   */\n      tag_111\n      jump\t// in\n    tag_110:\n        /* \"#utility.yul\":1029:1032   */\n      dup3\n        /* \"#utility.yul\":1022:1059   */\n      mstore\n        /* \"#utility.yul\":1012:1065   */\n      pop\n      pop\n      jump\t// out\n        /* \"#utility.yul\":1117:1984   */\n    tag_112:\n      0x00\n        /* \"#utility.yul\":1296:1355   */\n      tag_114\n        /* \"#utility.yul\":1349:1354   */\n      dup3\n        /* \"#utility.yul\":1296:1355   */\n      tag_115\n      jump\t// in\n    tag_114:\n        /* \"#utility.yul\":1371:1483   */\n      tag_116\n        /* \"#utility.yul\":1476:1482   */\n      dup2\n        /* \"#utility.yul\":1471:1474   */\n      dup6\n        /* \"#utility.yul\":1371:1483   */\n      tag_117\n      jump\t// in\n    tag_116:\n        /* \"#utility.yul\":1364:1483   */\n      swap4\n      pop\n        /* \"#utility.yul\":1507:1568   */\n      tag_118\n        /* \"#utility.yul\":1562:1567   */\n      dup4\n        /* \"#utility.yul\":1507:1568   */\n      tag_119\n      jump\t// in\n    tag_118:\n        /* \"#utility.yul\":1591:1598   */\n      dup1\n        /* \"#utility.yul\":1622:1623   */\n      0x00\n        /* \"#utility.yul\":1607:1959   */\n    tag_120:\n        /* \"#utility.yul\":1632:1638   */\n      dup4\n        /* \"#utility.yul\":1629:1630   */\n      dup2\n        /* \"#utility.yul\":1626:1639   */\n      lt\n        /* \"#utility.yul\":1607:1959   */\n      iszero\n      tag_122\n      jumpi\n        /* \"#utility.yul\":1702:1754   */\n      tag_123\n        /* \"#utility.yul\":1747:1753   */\n      dup3\n        /* \"#utility.yul\":1702:1754   */\n      tag_124\n      jump\t// in\n    tag_123:\n        /* \"#utility.yul\":1774:1861   */\n      tag_125\n        /* \"#utility.yul\":1857:1860   */\n      dup9\n        /* \"#utility.yul\":1842:1855   */\n      dup3\n        /* \"#utility.yul\":1774:1861   */\n      tag_98\n      jump\t// in\n    tag_125:\n        /* \"#utility.yul\":1767:1861   */\n      swap8\n      pop\n        /* \"#utility.yul\":1884:1949   */\n      tag_126\n        /* \"#utility.yul\":1942:1948   */\n      dup4\n        /* \"#utility.yul\":1884:1949   */\n      tag_127\n      jump\t// in\n    tag_126:\n        /* \"#utility.yul\":1874:1949   */\n      swap3\n      pop\n        /* \"#utility.yul\":1667:1959   */\n      pop\n        /* \"#utility.yul\":1654:1655   */\n      0x01\n        /* \"#utility.yul\":1651:1652   */\n      dup2\n        /* \"#utility.yul\":1647:1656   */\n      add\n        /* \"#utility.yul\":1642:1656   */\n      swap1\n      pop\n        /* \"#utility.yul\":1607:1959   */\n      jump(tag_120)\n    tag_122:\n        /* \"#utility.yul\":1611:1625   */\n      pop\n        /* \"#utility.yul\":1975:1978   */\n      dup6\n        /* \"#utility.yul\":1968:1978   */\n      swap4\n      pop\n        /* \"#utility.yul\":1272:1984   */\n      pop\n      pop\n      pop\n      swap3\n      swap2\n      pop\n      pop\n      jump\t// out\n        /* \"#utility.yul\":1990:2377   */\n    tag_128:\n      0x00\n        /* \"#utility.yul\":2153:2220   */\n      tag_130\n        /* \"#utility.yul\":2217:2219   */\n      0x37\n        /* \"#utility.yul\":2212:2215   */\n      dup4\n        /* \"#utility.yul\":2153:2220   */\n      tag_131\n      jump\t// in\n    tag_130:\n        /* \"#utility.yul\":2146:2220   */\n      swap2\n      pop\n        /* \"#utility.yul\":2250:2284   */\n      0x4d6f7265207468616e20353025206f6620746865206f776e657273206d757374\n        /* \"#utility.yul\":2246:2247   */\n      0x00\n        /* \"#utility.yul\":2241:2244   */\n      dup4\n        /* \"#utility.yul\":2237:2248   */\n      add\n        /* \"#utility.yul\":2230:2285   */\n      mstore\n        /* \"#utility.yul\":2316:2341   */\n      0x20616772656520746f207069636b20612077696e6e6572000000000000000000\n        /* \"#utility.yul\":2311:2313   */\n      0x20\n        /* \"#utility.yul\":2306:2309   */\n      dup4\n        /* \"#utility.yul\":2302:2314   */\n      add\n        /* \"#utility.yul\":2295:2342   */\n      mstore\n        /* \"#utility.yul\":2368:2370   */\n      0x40\n        /* \"#utility.yul\":2363:2366   */\n      dup3\n        /* \"#utility.yul\":2359:2371   */\n      add\n        /* \"#utility.yul\":2352:2371   */\n      swap1\n      pop\n        /* \"#utility.yul\":2136:2377   */\n      swap2\n      swap1\n      pop\n      jump\t// out\n        /* \"#utility.yul\":2383:2765   */\n    tag_132:\n      0x00\n        /* \"#utility.yul\":2546:2613   */\n      tag_134\n        /* \"#utility.yul\":2610:2612   */\n      0x32\n        /* \"#utility.yul\":2605:2608   */\n      dup4\n        /* \"#utility.yul\":2546:2613   */\n      tag_131\n      jump\t// in\n    tag_134:\n        /* \"#utility.yul\":2539:2613   */\n      swap2\n      pop\n        /* \"#utility.yul\":2643:2677   */\n      0x5468657265206d757374206265206174206c65617374206f6e6520706c617965\n        /* \"#utility.yul\":2639:2640   */\n      0x00\n        /* \"#utility.yul\":2634:2637   */\n      dup4\n        /* \"#utility.yul\":2630:2641   */\n      add\n        /* \"#utility.yul\":2623:2678   */\n      mstore\n        /* \"#utility.yul\":2709:2729   */\n      0x7220746f207069636b20612077696e6e65720000000000000000000000000000\n        /* \"#utility.yul\":2704:2706   */\n      0x20\n        /* \"#utility.yul\":2699:2702   */\n      dup4\n        /* \"#utility.yul\":2695:2707   */\n      add\n        /* \"#utility.yul\":2688:2730   */\n      mstore\n        /* \"#utility.yul\":2756:2758   */\n      0x40\n        /* \"#utility.yul\":2751:2754   */\n      dup3\n        /* \"#utility.yul\":2747:2759   */\n      add\n        /* \"#utility.yul\":2740:2759   */\n      swap1\n      pop\n        /* \"#utility.yul\":2529:2765   */\n      swap2\n      swap1\n      pop\n      jump\t// out\n        /* \"#utility.yul\":2771:3142   */\n    tag_135:\n      0x00\n        /* \"#utility.yul\":2934:3001   */\n      tag_137\n        /* \"#utility.yul\":2998:3000   */\n      0x27\n        /* \"#utility.yul\":2993:2996   */\n      dup4\n        /* \"#utility.yul\":2934:3001   */\n      tag_131\n      jump\t// in\n    tag_137:\n        /* \"#utility.yul\":2927:3001   */\n      swap2\n      pop\n        /* \"#utility.yul\":3031:3065   */\n      0x596f7572207469636b6574206d757374206265206174206c6561737420302e30\n        /* \"#utility.yul\":3027:3028   */\n      0x00\n        /* \"#utility.yul\":3022:3025   */\n      dup4\n        /* \"#utility.yul\":3018:3029   */\n      add\n        /* \"#utility.yul\":3011:3066   */\n      mstore\n        /* \"#utility.yul\":3097:3106   */\n      0x3120657468657200000000000000000000000000000000000000000000000000\n        /* \"#utility.yul\":3092:3094   */\n      0x20\n        /* \"#utility.yul\":3087:3090   */\n      dup4\n        /* \"#utility.yul\":3083:3095   */\n      add\n        /* \"#utility.yul\":3076:3107   */\n      mstore\n        /* \"#utility.yul\":3133:3135   */\n      0x40\n        /* \"#utility.yul\":3128:3131   */\n      dup3\n        /* \"#utility.yul\":3124:3136   */\n      add\n        /* \"#utility.yul\":3117:3136   */\n      swap1\n      pop\n        /* \"#utility.yul\":2917:3142   */\n      swap2\n      swap1\n      pop\n      jump\t// out\n        /* \"#utility.yul\":3148:3266   */\n    tag_138:\n        /* \"#utility.yul\":3235:3259   */\n      tag_140\n        /* \"#utility.yul\":3253:3258   */\n      dup2\n        /* \"#utility.yul\":3235:3259   */\n      tag_141\n      jump\t// in\n    tag_140:\n        /* \"#utility.yul\":3230:3233   */\n      dup3\n        /* \"#utility.yul\":3223:3260   */\n      mstore\n        /* \"#utility.yul\":3213:3266   */\n      pop\n      pop\n      jump\t// out\n        /* \"#utility.yul\":3272:3429   */\n    tag_142:\n        /* \"#utility.yul\":3377:3422   */\n      tag_144\n        /* \"#utility.yul\":3397:3421   */\n      tag_145\n        /* \"#utility.yul\":3415:3420   */\n      dup3\n        /* \"#utility.yul\":3397:3421   */\n      tag_141\n      jump\t// in\n    tag_145:\n        /* \"#utility.yul\":3377:3422   */\n      tag_146\n      jump\t// in\n    tag_144:\n        /* \"#utility.yul\":3372:3375   */\n      dup3\n        /* \"#utility.yul\":3365:3423   */\n      mstore\n        /* \"#utility.yul\":3355:3429   */\n      pop\n      pop\n      jump\t// out\n        /* \"#utility.yul\":3435:4078   */\n    tag_80:\n      0x00\n        /* \"#utility.yul\":3681:3756   */\n      tag_148\n        /* \"#utility.yul\":3752:3755   */\n      dup3\n        /* \"#utility.yul\":3743:3749   */\n      dup7\n        /* \"#utility.yul\":3681:3756   */\n      tag_142\n      jump\t// in\n    tag_148:\n        /* \"#utility.yul\":3781:3783   */\n      0x20\n        /* \"#utility.yul\":3776:3779   */\n      dup3\n        /* \"#utility.yul\":3772:3784   */\n      add\n        /* \"#utility.yul\":3765:3784   */\n      swap2\n      pop\n        /* \"#utility.yul\":3794:3869   */\n      tag_149\n        /* \"#utility.yul\":3865:3868   */\n      dup3\n        /* \"#utility.yul\":3856:3862   */\n      dup6\n        /* \"#utility.yul\":3794:3869   */\n      tag_142\n      jump\t// in\n    tag_149:\n        /* \"#utility.yul\":3894:3896   */\n      0x20\n        /* \"#utility.yul\":3889:3892   */\n      dup3\n        /* \"#utility.yul\":3885:3897   */\n      add\n        /* \"#utility.yul\":3878:3897   */\n      swap2\n      pop\n        /* \"#utility.yul\":3914:4052   */\n      tag_150\n        /* \"#utility.yul\":4048:4051   */\n      dup3\n        /* \"#utility.yul\":4039:4045   */\n      dup5\n        /* \"#utility.yul\":3914:4052   */\n      tag_112\n      jump\t// in\n    tag_150:\n        /* \"#utility.yul\":3907:4052   */\n      swap2\n      pop\n        /* \"#utility.yul\":4069:4072   */\n      dup2\n        /* \"#utility.yul\":4062:4072   */\n      swap1\n      pop\n        /* \"#utility.yul\":3670:4078   */\n      swap5\n      swap4\n      pop\n      pop\n      pop\n      pop\n      jump\t// out\n        /* \"#utility.yul\":4084:4306   */\n    tag_14:\n      0x00\n        /* \"#utility.yul\":4215:4217   */\n      0x20\n        /* \"#utility.yul\":4204:4213   */\n      dup3\n        /* \"#utility.yul\":4200:4218   */\n      add\n        /* \"#utility.yul\":4192:4218   */\n      swap1\n      pop\n        /* \"#utility.yul\":4228:4299   */\n      tag_152\n        /* \"#utility.yul\":4296:4297   */\n      0x00\n        /* \"#utility.yul\":4285:4294   */\n      dup4\n        /* \"#utility.yul\":4281:4298   */\n      add\n        /* \"#utility.yul\":4272:4278   */\n      dup5\n        /* \"#utility.yul\":4228:4299   */\n      tag_108\n      jump\t// in\n    tag_152:\n        /* \"#utility.yul\":4182:4306   */\n      swap3\n      swap2\n      pop\n      pop\n      jump\t// out\n        /* \"#utility.yul\":4312:4566   */\n    tag_34:\n      0x00\n        /* \"#utility.yul\":4459:4461   */\n      0x20\n        /* \"#utility.yul\":4448:4457   */\n      dup3\n        /* \"#utility.yul\":4444:4462   */\n      add\n        /* \"#utility.yul\":4436:4462   */\n      swap1\n      pop\n        /* \"#utility.yul\":4472:4559   */\n      tag_154\n        /* \"#utility.yul\":4556:4557   */\n      0x00\n        /* \"#utility.yul\":4545:4554   */\n      dup4\n        /* \"#utility.yul\":4541:4558   */\n      add\n        /* \"#utility.yul\":4532:4538   */\n      dup5\n        /* \"#utility.yul\":4472:4559   */\n      tag_102\n      jump\t// in\n    tag_154:\n        /* \"#utility.yul\":4426:4566   */\n      swap3\n      swap2\n      pop\n      pop\n      jump\t// out\n        /* \"#utility.yul\":4572:4936   */\n    tag_64:\n      0x00\n        /* \"#utility.yul\":4747:4749   */\n      0x40\n        /* \"#utility.yul\":4736:4745   */\n      dup3\n        /* \"#utility.yul\":4732:4750   */\n      add\n        /* \"#utility.yul\":4724:4750   */\n      swap1\n      pop\n        /* \"#utility.yul\":4760:4847   */\n      tag_156\n        /* \"#utility.yul\":4844:4845   */\n      0x00\n        /* \"#utility.yul\":4833:4842   */\n      dup4\n        /* \"#utility.yul\":4829:4846   */\n      add\n        /* \"#utility.yul\":4820:4826   */\n      dup6\n        /* \"#utility.yul\":4760:4847   */\n      tag_102\n      jump\t// in\n    tag_156:\n        /* \"#utility.yul\":4857:4929   */\n      tag_157\n        /* \"#utility.yul\":4925:4927   */\n      0x20\n        /* \"#utility.yul\":4914:4923   */\n      dup4\n        /* \"#utility.yul\":4910:4928   */\n      add\n        /* \"#utility.yul\":4901:4907   */\n      dup5\n        /* \"#utility.yul\":4857:4929   */\n      tag_138\n      jump\t// in\n    tag_157:\n        /* \"#utility.yul\":4714:4936   */\n      swap4\n      swap3\n      pop\n      pop\n      pop\n      jump\t// out\n        /* \"#utility.yul\":4942:5361   */\n    tag_51:\n      0x00\n        /* \"#utility.yul\":5146:5148   */\n      0x20\n        /* \"#utility.yul\":5135:5144   */\n      dup3\n        /* \"#utility.yul\":5131:5149   */\n      add\n        /* \"#utility.yul\":5123:5149   */\n      swap1\n      pop\n        /* \"#utility.yul\":5195:5204   */\n      dup2\n        /* \"#utility.yul\":5189:5193   */\n      dup2\n        /* \"#utility.yul\":5185:5205   */\n      sub\n        /* \"#utility.yul\":5181:5182   */\n      0x00\n        /* \"#utility.yul\":5170:5179   */\n      dup4\n        /* \"#utility.yul\":5166:5183   */\n      add\n        /* \"#utility.yul\":5159:5206   */\n      mstore\n        /* \"#utility.yul\":5223:5354   */\n      tag_159\n        /* \"#utility.yul\":5349:5353   */\n      dup2\n        /* \"#utility.yul\":5223:5354   */\n      tag_128\n      jump\t// in\n    tag_159:\n        /* \"#utility.yul\":5215:5354   */\n      swap1\n      pop\n        /* \"#utility.yul\":5113:5361   */\n      swap2\n      swap1\n      pop\n      jump\t// out\n        /* \"#utility.yul\":5367:5786   */\n    tag_54:\n      0x00\n        /* \"#utility.yul\":5571:5573   */\n      0x20\n        /* \"#utility.yul\":5560:5569   */\n      dup3\n        /* \"#utility.yul\":5556:5574   */\n      add\n        /* \"#utility.yul\":5548:5574   */\n      swap1\n      pop\n        /* \"#utility.yul\":5620:5629   */\n      dup2\n        /* \"#utility.yul\":5614:5618   */\n      dup2\n        /* \"#utility.yul\":5610:5630   */\n      sub\n        /* \"#utility.yul\":5606:5607   */\n      0x00\n        /* \"#utility.yul\":5595:5604   */\n      dup4\n        /* \"#utility.yul\":5591:5608   */\n      add\n        /* \"#utility.yul\":5584:5631   */\n      mstore\n        /* \"#utility.yul\":5648:5779   */\n      tag_161\n        /* \"#utility.yul\":5774:5778   */\n      dup2\n        /* \"#utility.yul\":5648:5779   */\n      tag_132\n      jump\t// in\n    tag_161:\n        /* \"#utility.yul\":5640:5779   */\n      swap1\n      pop\n        /* \"#utility.yul\":5538:5786   */\n      swap2\n      swap1\n      pop\n      jump\t// out\n        /* \"#utility.yul\":5792:6211   */\n    tag_70:\n      0x00\n        /* \"#utility.yul\":5996:5998   */\n      0x20\n        /* \"#utility.yul\":5985:5994   */\n      dup3\n        /* \"#utility.yul\":5981:5999   */\n      add\n        /* \"#utility.yul\":5973:5999   */\n      swap1\n      pop\n        /* \"#utility.yul\":6045:6054   */\n      dup2\n        /* \"#utility.yul\":6039:6043   */\n      dup2\n        /* \"#utility.yul\":6035:6055   */\n      sub\n        /* \"#utility.yul\":6031:6032   */\n      0x00\n        /* \"#utility.yul\":6020:6029   */\n      dup4\n        /* \"#utility.yul\":6016:6033   */\n      add\n        /* \"#utility.yul\":6009:6056   */\n      mstore\n        /* \"#utility.yul\":6073:6204   */\n      tag_163\n        /* \"#utility.yul\":6199:6203   */\n      dup2\n        /* \"#utility.yul\":6073:6204   */\n      tag_135\n      jump\t// in\n    tag_163:\n        /* \"#utility.yul\":6065:6204   */\n      swap1\n      pop\n        /* \"#utility.yul\":5963:6211   */\n      swap2\n      swap1\n      pop\n      jump\t// out\n        /* \"#utility.yul\":6217:6439   */\n    tag_19:\n      0x00\n        /* \"#utility.yul\":6348:6350   */\n      0x20\n        /* \"#utility.yul\":6337:6346   */\n      dup3\n        /* \"#utility.yul\":6333:6351   */\n      add\n        /* \"#utility.yul\":6325:6351   */\n      swap1\n      pop\n        /* \"#utility.yul\":6361:6432   */\n      tag_165\n        /* \"#utility.yul\":6429:6430   */\n      0x00\n        /* \"#utility.yul\":6418:6427   */\n      dup4\n        /* \"#utility.yul\":6414:6431   */\n      add\n        /* \"#utility.yul\":6405:6411   */\n      dup5\n        /* \"#utility.yul\":6361:6432   */\n      tag_138\n      jump\t// in\n    tag_165:\n        /* \"#utility.yul\":6315:6439   */\n      swap3\n      swap2\n      pop\n      pop\n      jump\t// out\n        /* \"#utility.yul\":6445:6609   */\n    tag_119:\n      0x00\n        /* \"#utility.yul\":6540:6543   */\n      dup2\n        /* \"#utility.yul\":6532:6543   */\n      swap1\n      pop\n        /* \"#utility.yul\":6563:6566   */\n      dup2\n        /* \"#utility.yul\":6560:6561   */\n      0x00\n        /* \"#utility.yul\":6553:6567   */\n      mstore\n        /* \"#utility.yul\":6597:6601   */\n      0x20\n        /* \"#utility.yul\":6594:6595   */\n      0x00\n        /* \"#utility.yul\":6584:6602   */\n      keccak256\n        /* \"#utility.yul\":6576:6602   */\n      swap1\n      pop\n        /* \"#utility.yul\":6522:6609   */\n      swap2\n      swap1\n      pop\n      jump\t// out\n        /* \"#utility.yul\":6615:6734   */\n    tag_115:\n      0x00\n        /* \"#utility.yul\":6721:6726   */\n      dup2\n        /* \"#utility.yul\":6715:6727   */\n      sload\n        /* \"#utility.yul\":6705:6727   */\n      swap1\n      pop\n        /* \"#utility.yul\":6694:6734   */\n      swap2\n      swap1\n      pop\n      jump\t// out\n        /* \"#utility.yul\":6740:6858   */\n    tag_127:\n      0x00\n        /* \"#utility.yul\":6847:6851   */\n      0x01\n        /* \"#utility.yul\":6842:6845   */\n      dup3\n        /* \"#utility.yul\":6838:6852   */\n      add\n        /* \"#utility.yul\":6830:6852   */\n      swap1\n      pop\n        /* \"#utility.yul\":6820:6858   */\n      swap2\n      swap1\n      pop\n      jump\t// out\n        /* \"#utility.yul\":6864:7035   */\n    tag_117:\n      0x00\n        /* \"#utility.yul\":7026:7029   */\n      dup2\n        /* \"#utility.yul\":7011:7029   */\n      swap1\n      pop\n        /* \"#utility.yul\":7001:7035   */\n      swap3\n      swap2\n      pop\n      pop\n      jump\t// out\n        /* \"#utility.yul\":7041:7210   */\n    tag_131:\n      0x00\n        /* \"#utility.yul\":7159:7165   */\n      dup3\n        /* \"#utility.yul\":7154:7157   */\n      dup3\n        /* \"#utility.yul\":7147:7166   */\n      mstore\n        /* \"#utility.yul\":7199:7203   */\n      0x20\n        /* \"#utility.yul\":7194:7197   */\n      dup3\n        /* \"#utility.yul\":7190:7204   */\n      add\n        /* \"#utility.yul\":7175:7204   */\n      swap1\n      pop\n        /* \"#utility.yul\":7137:7210   */\n      swap3\n      swap2\n      pop\n      pop\n      jump\t// out\n        /* \"#utility.yul\":7216:7521   */\n    tag_75:\n      0x00\n        /* \"#utility.yul\":7275:7295   */\n      tag_172\n        /* \"#utility.yul\":7293:7294   */\n      dup3\n        /* \"#utility.yul\":7275:7295   */\n      tag_141\n      jump\t// in\n    tag_172:\n        /* \"#utility.yul\":7270:7295   */\n      swap2\n      pop\n        /* \"#utility.yul\":7309:7329   */\n      tag_173\n        /* \"#utility.yul\":7327:7328   */\n      dup4\n        /* \"#utility.yul\":7309:7329   */\n      tag_141\n      jump\t// in\n    tag_173:\n        /* \"#utility.yul\":7304:7329   */\n      swap3\n      pop\n        /* \"#utility.yul\":7463:7464   */\n      dup3\n        /* \"#utility.yul\":7395:7461   */\n      0xffffffffffffffffffffffffffffffffffffffffffffffffffffffffffffffff\n        /* \"#utility.yul\":7391:7465   */\n      sub\n        /* \"#utility.yul\":7388:7389   */\n      dup3\n        /* \"#utility.yul\":7385:7466   */\n      gt\n        /* \"#utility.yul\":7382:7384   */\n      iszero\n      tag_174\n      jumpi\n        /* \"#utility.yul\":7469:7487   */\n      tag_175\n      tag_176\n      jump\t// in\n    tag_175:\n        /* \"#utility.yul\":7382:7384   */\n    tag_174:\n        /* \"#utility.yul\":7513:7514   */\n      dup3\n        /* \"#utility.yul\":7510:7511   */\n      dup3\n        /* \"#utility.yul\":7506:7515   */\n      add\n        /* \"#utility.yul\":7499:7515   */\n      swap1\n      pop\n        /* \"#utility.yul\":7260:7521   */\n      swap3\n      swap2\n      pop\n      pop\n      jump\t// out\n        /* \"#utility.yul\":7527:7712   */\n    tag_48:\n      0x00\n        /* \"#utility.yul\":7584:7604   */\n      tag_178\n        /* \"#utility.yul\":7602:7603   */\n      dup3\n        /* \"#utility.yul\":7584:7604   */\n      tag_141\n      jump\t// in\n    tag_178:\n        /* \"#utility.yul\":7579:7604   */\n      swap2\n      pop\n        /* \"#utility.yul\":7618:7638   */\n      tag_179\n        /* \"#utility.yul\":7636:7637   */\n      dup4\n        /* \"#utility.yul\":7618:7638   */\n      tag_141\n      jump\t// in\n    tag_179:\n        /* \"#utility.yul\":7613:7638   */\n      swap3\n      pop\n        /* \"#utility.yul\":7657:7658   */\n      dup3\n        /* \"#utility.yul\":7647:7649   */\n      tag_180\n      jumpi\n        /* \"#utility.yul\":7662:7680   */\n      tag_181\n      tag_182\n      jump\t// in\n    tag_181:\n        /* \"#utility.yul\":7647:7649   */\n    tag_180:\n        /* \"#utility.yul\":7704:7705   */\n      dup3\n        /* \"#utility.yul\":7701:7702   */\n      dup3\n        /* \"#utility.yul\":7697:7706   */\n      div\n        /* \"#utility.yul\":7692:7706   */\n      swap1\n      pop\n        /* \"#utility.yul\":7569:7712   */\n      swap3\n      swap2\n      pop\n      pop\n      jump\t// out\n        /* \"#utility.yul\":7718:7865   */\n    tag_183:\n      0x00\n        /* \"#utility.yul\":7816:7858   */\n      0xffffffffffffffffffffffffffffffffffffffff\n        /* \"#utility.yul\":7809:7814   */\n      dup3\n        /* \"#utility.yul\":7805:7859   */\n      and\n        /* \"#utility.yul\":7794:7859   */\n      swap1\n      pop\n        /* \"#utility.yul\":7784:7865   */\n      swap2\n      swap1\n      pop\n      jump\t// out\n        /* \"#utility.yul\":7871:7967   */\n    tag_111:\n      0x00\n        /* \"#utility.yul\":7937:7961   */\n      tag_186\n        /* \"#utility.yul\":7955:7960   */\n      dup3\n        /* \"#utility.yul\":7937:7961   */\n      tag_187\n      jump\t// in\n    tag_186:\n        /* \"#utility.yul\":7926:7961   */\n      swap1\n      pop\n        /* \"#utility.yul\":7916:7967   */\n      swap2\n      swap1\n      pop\n      jump\t// out\n        /* \"#utility.yul\":7973:8077   */\n    tag_105:\n      0x00\n        /* \"#utility.yul\":8047:8071   */\n      tag_189\n        /* \"#utility.yul\":8065:8070   */\n      dup3\n        /* \"#utility.yul\":8047:8071   */\n      tag_187\n      jump\t// in\n    tag_189:\n        /* \"#utility.yul\":8036:8071   */\n      swap1\n      pop\n        /* \"#utility.yul\":8026:8077   */\n      swap2\n      swap1\n      pop\n      jump\t// out\n        /* \"#utility.yul\":8083:8209   */\n    tag_187:\n      0x00\n        /* \"#utility.yul\":8160:8202   */\n      0xffffffffffffffffffffffffffffffffffffffff\n        /* \"#utility.yul\":8153:8158   */\n      dup3\n        /* \"#utility.yul\":8149:8203   */\n      and\n        /* \"#utility.yul\":8138:8203   */\n      swap1\n      pop\n        /* \"#utility.yul\":8128:8209   */\n      swap2\n      swap1\n      pop\n      jump\t// out\n        /* \"#utility.yul\":8215:8292   */\n    tag_141:\n      0x00\n        /* \"#utility.yul\":8281:8286   */\n      dup2\n        /* \"#utility.yul\":8270:8286   */\n      swap1\n      pop\n        /* \"#utility.yul\":8260:8292   */\n      swap2\n      swap1\n      pop\n      jump\t// out\n        /* \"#utility.yul\":8298:8480   */\n    tag_192:\n      0x00\n        /* \"#utility.yul\":8400:8474   */\n      tag_194\n        /* \"#utility.yul\":8439:8473   */\n      tag_195\n        /* \"#utility.yul\":8462:8472   */\n      dup4\n        /* \"#utility.yul\":8439:8473   */\n      tag_196\n      jump\t// in\n    tag_195:\n        /* \"#utility.yul\":8400:8474   */\n      tag_183\n      jump\t// in\n    tag_194:\n        /* \"#utility.yul\":8391:8474   */\n      swap1\n      pop\n        /* \"#utility.yul\":8381:8480   */\n      swap2\n      swap1\n      pop\n      jump\t// out\n        /* \"#utility.yul\":8486:8719   */\n    tag_45:\n      0x00\n        /* \"#utility.yul\":8548:8572   */\n      tag_198\n        /* \"#utility.yul\":8566:8571   */\n      dup3\n        /* \"#utility.yul\":8548:8572   */\n      tag_141\n      jump\t// in\n    tag_198:\n        /* \"#utility.yul\":8539:8572   */\n      swap2\n      pop\n        /* \"#utility.yul\":8594:8660   */\n      0xffffffffffffffffffffffffffffffffffffffffffffffffffffffffffffffff\n        /* \"#utility.yul\":8587:8592   */\n      dup3\n        /* \"#utility.yul\":8584:8661   */\n      eq\n        /* \"#utility.yul\":8581:8583   */\n      iszero\n      tag_199\n      jumpi\n        /* \"#utility.yul\":8664:8682   */\n      tag_200\n      tag_176\n      jump\t// in\n    tag_200:\n        /* \"#utility.yul\":8581:8583   */\n    tag_199:\n        /* \"#utility.yul\":8711:8712   */\n      0x01\n        /* \"#utility.yul\":8704:8709   */\n      dup3\n        /* \"#utility.yul\":8700:8713   */\n      add\n        /* \"#utility.yul\":8693:8713   */\n      swap1\n      pop\n        /* \"#utility.yul\":8529:8719   */\n      swap2\n      swap1\n      pop\n      jump\t// out\n        /* \"#utility.yul\":8725:8804   */\n    tag_146:\n      0x00\n        /* \"#utility.yul\":8793:8798   */\n      dup2\n        /* \"#utility.yul\":8782:8798   */\n      swap1\n      pop\n        /* \"#utility.yul\":8772:8804   */\n      swap2\n      swap1\n      pop\n      jump\t// out\n        /* \"#utility.yul\":8810:8986   */\n    tag_82:\n      0x00\n        /* \"#utility.yul\":8859:8879   */\n      tag_203\n        /* \"#utility.yul\":8877:8878   */\n      dup3\n        /* \"#utility.yul\":8859:8879   */\n      tag_141\n      jump\t// in\n    tag_203:\n        /* \"#utility.yul\":8854:8879   */\n      swap2\n      pop\n        /* \"#utility.yul\":8893:8913   */\n      tag_204\n        /* \"#utility.yul\":8911:8912   */\n      dup4\n        /* \"#utility.yul\":8893:8913   */\n      tag_141\n      jump\t// in\n    tag_204:\n        /* \"#utility.yul\":8888:8913   */\n      swap3\n      pop\n        /* \"#utility.yul\":8932:8933   */\n      dup3\n        /* \"#utility.yul\":8922:8924   */\n      tag_205\n      jumpi\n        /* \"#utility.yul\":8937:8955   */\n      tag_206\n      tag_182\n      jump\t// in\n    tag_206:\n        /* \"#utility.yul\":8922:8924   */\n    tag_205:\n        /* \"#utility.yul\":8978:8979   */\n      dup3\n        /* \"#utility.yul\":8975:8976   */\n      dup3\n        /* \"#utility.yul\":8971:8980   */\n      mod\n        /* \"#utility.yul\":8966:8980   */\n      swap1\n      pop\n        /* \"#utility.yul\":8844:8986   */\n      swap3\n      swap2\n      pop\n      pop\n      jump\t// out\n        /* \"#utility.yul\":8992:9172   */\n    tag_176:\n        /* \"#utility.yul\":9040:9117   */\n      0x4e487b7100000000000000000000000000000000000000000000000000000000\n        /* \"#utility.yul\":9037:9038   */\n      0x00\n        /* \"#utility.yul\":9030:9118   */\n      mstore\n        /* \"#utility.yul\":9137:9141   */\n      0x11\n        /* \"#utility.yul\":9134:9135   */\n      0x04\n        /* \"#utility.yul\":9127:9142   */\n      mstore\n        /* \"#utility.yul\":9161:9165   */\n      0x24\n        /* \"#utility.yul\":9158:9159   */\n      0x00\n        /* \"#utility.yul\":9151:9166   */\n      revert\n        /* \"#utility.yul\":9178:9358   */\n    tag_182:\n        /* \"#utility.yul\":9226:9303   */\n      0x4e487b7100000000000000000000000000000000000000000000000000000000\n        /* \"#utility.yul\":9223:9224   */\n      0x00\n        /* \"#utility.yul\":9216:9304   */\n      mstore\n        /* \"#utility.yul\":9323:9327   */\n      0x12\n        /* \"#utility.yul\":9320:9321   */\n      0x04\n        /* \"#utility.yul\":9313:9328   */\n      mstore\n        /* \"#utility.yul\":9347:9351   */\n      0x24\n        /* \"#utility.yul\":9344:9345   */\n      0x00\n        /* \"#utility.yul\":9337:9352   */\n      revert\n        /* \"#utility.yul\":9364:9524   */\n    tag_124:\n      0x00\n        /* \"#utility.yul\":9452:9517   */\n      tag_210\n        /* \"#utility.yul\":9511:9515   */\n      dup3\n        /* \"#utility.yul\":9505:9516   */\n      sload\n        /* \"#utility.yul\":9452:9517   */\n      tag_192\n      jump\t// in\n    tag_210:\n        /* \"#utility.yul\":9443:9517   */\n      swap1\n      pop\n        /* \"#utility.yul\":9433:9524   */\n      swap2\n      swap1\n      pop\n      jump\t// out\n        /* \"#utility.yul\":9530:9632   */\n    tag_196:\n      0x00\n        /* \"#utility.yul\":9619:9624   */\n      dup2\n        /* \"#utility.yul\":9616:9617   */\n      0x00\n        /* \"#utility.yul\":9612:9625   */\n      shr\n        /* \"#utility.yul\":9591:9625   */\n      swap1\n      pop\n        /* \"#utility.yul\":9581:9632   */\n      swap2\n      swap1\n      pop\n      jump\t// out\n        /* \"#utility.yul\":9638:9760   */\n    tag_94:\n        /* \"#utility.yul\":9711:9735   */\n      tag_213\n        /* \"#utility.yul\":9729:9734   */\n      dup2\n        /* \"#utility.yul\":9711:9735   */\n      tag_141\n      jump\t// in\n    tag_213:\n        /* \"#utility.yul\":9704:9709   */\n      dup2\n        /* \"#utility.yul\":9701:9736   */\n      eq\n        /* \"#utility.yul\":9691:9693   */\n      tag_214\n      jumpi\n        /* \"#utility.yul\":9750:9751   */\n      0x00\n        /* \"#utility.yul\":9747:9748   */\n      dup1\n        /* \"#utility.yul\":9740:9752   */\n      revert\n        /* \"#utility.yul\":9691:9693   */\n    tag_214:\n        /* \"#utility.yul\":9681:9760   */\n      pop\n      jump\t// out\n\n    auxdata: 0xa2646970667358221220eee0135cfb5ff82dcbe46fa82d2d6eaf321eb3861dd332eec4a5660f0653cd8964736f6c63430008000033\n}\n",
				"bytecode": {
					"linkReferences": {},
					"object": "608060405234801561001057600080fd5b506000339080600181540180825580915050600190039060005260206000200160009091909190916101000a81548173ffffffffffffffffffffffffffffffffffffffff021916908373ffffffffffffffffffffffffffffffffffffffff160217905550610cfa806100836000396000f3fe6080604052600436106100555760003560e01c8063025e7c271461005a5780634ba2363a146100975780635d495aea146100c257806397b2f556146100d9578063e97dcb6214610104578063f71d96cb1461010e575b600080fd5b34801561006657600080fd5b50610081600480360381019061007c9190610715565b61014b565b60405161008e9190610979565b60405180910390f35b3480156100a357600080fd5b506100ac61018a565b6040516100b99190610a38565b60405180910390f35b3480156100ce57600080fd5b506100d7610190565b005b3480156100e557600080fd5b506100ee61048c565b6040516100fb9190610a38565b60405180910390f35b61010c610492565b005b34801561011a57600080fd5b5061013560048036038101906101309190610715565b6105d4565b6040516101429190610994565b60405180910390f35b6000818154811061015b57600080fd5b906000526020600020016000915054906101000a900473ffffffffffffffffffffffffffffffffffffffff1681565b60025481565b6000805b60008054905081101561025b57600081815481106101db577f4e487b7100000000000000000000000000000000000000000000000000000000600052603260045260246000fd5b9060005260206000200160009054906101000a900473ffffffffffffffffffffffffffffffffffffffff1673ffffffffffffffffffffffffffffffffffffffff163373ffffffffffffffffffffffffffffffffffffffff16141561024857818061024490610bab565b9250505b808061025390610bab565b915050610194565b50600260008054905061026e9190610af2565b81116102af576040517f08c379a00000000000000000000000000000000000000000000000000000000081526004016102a6906109d8565b60405180910390fd5b6000600354116102f4576040517f08c379a00000000000000000000000000000000000000000000000000000000081526004016102eb906109f8565b60405180910390fd5b60006102fe610613565b905060006001828154811061033c577f4e487b7100000000000000000000000000000000000000000000000000000000600052603260045260246000fd5b9060005260206000200160009054906101000a900473ffffffffffffffffffffffffffffffffffffffff16905060006002549050600067ffffffffffffffff8111156103b1577f4e487b7100000000000000000000000000000000000000000000000000000000600052604160045260246000fd5b6040519080825280602002602001820160405280156103df5781602001602082028036833780820191505090505b50600190805190602001906103f5929190610659565b50600060028190555060006003819055507f9c2270628a9b29d30ae96b6c4c14ed646ee134febdce38a5b77f2bde9cea2e2082826040516104379291906109af565b60405180910390a18173ffffffffffffffffffffffffffffffffffffffff166108fc829081150290604051600060405180830381858888f19350505050158015610485573d6000803e3d6000fd5b5050505050565b60035481565b662386f26fc1000034116104db576040517f08c379a00000000000000000000000000000000000000000000000000000000081526004016104d290610a18565b60405180910390fd5b6001339080600181540180825580915050600190039060005260206000200160009091909190916101000a81548173ffffffffffffffffffffffffffffffffffffffff021916908373ffffffffffffffffffffffffffffffffffffffff1602179055506000339080600181540180825580915050600190039060005260206000200160009091909190916101000a81548173ffffffffffffffffffffffffffffffffffffffff021916908373ffffffffffffffffffffffffffffffffffffffff160217905550600360008154809291906105b490610bab565b919050555034600260008282546105cb9190610a9c565b92505081905550565b600181815481106105e457600080fd5b906000526020600020016000915054906101000a900473ffffffffffffffffffffffffffffffffffffffff1681565b60006001805490504442600160405160200161063193929190610940565b6040516020818303038152906040528051906020012060001c6106549190610bfe565b905090565b8280548282559060005260206000209081019282156106d2579160200282015b828111156106d15782518260006101000a81548173ffffffffffffffffffffffffffffffffffffffff021916908373ffffffffffffffffffffffffffffffffffffffff16021790555091602001919060010190610679565b5b5090506106df91906106e3565b5090565b5b808211156106fc5760008160009055506001016106e4565b5090565b60008135905061070f81610cad565b92915050565b60006020828403121561072757600080fd5b600061073584828501610700565b91505092915050565b600061074a8383610765565b60208301905092915050565b61075f81610b55565b82525050565b61076e81610b55565b82525050565b61077d81610b43565b82525050565b600061078e82610a68565b6107988185610a80565b93506107a383610a53565b8060005b838110156107db576107b882610c8d565b6107c2888261073e565b97506107cd83610a73565b9250506001810190506107a7565b5085935050505092915050565b60006107f5603783610a8b565b91507f4d6f7265207468616e20353025206f6620746865206f776e657273206d75737460008301527f20616772656520746f207069636b20612077696e6e65720000000000000000006020830152604082019050919050565b600061085b603283610a8b565b91507f5468657265206d757374206265206174206c65617374206f6e6520706c61796560008301527f7220746f207069636b20612077696e6e657200000000000000000000000000006020830152604082019050919050565b60006108c1602783610a8b565b91507f596f7572207469636b6574206d757374206265206174206c6561737420302e3060008301527f31206574686572000000000000000000000000000000000000000000000000006020830152604082019050919050565b61092381610b87565b82525050565b61093a61093582610b87565b610bf4565b82525050565b600061094c8286610929565b60208201915061095c8285610929565b60208201915061096c8284610783565b9150819050949350505050565b600060208201905061098e6000830184610774565b92915050565b60006020820190506109a96000830184610756565b92915050565b60006040820190506109c46000830185610756565b6109d1602083018461091a565b9392505050565b600060208201905081810360008301526109f1816107e8565b9050919050565b60006020820190508181036000830152610a118161084e565b9050919050565b60006020820190508181036000830152610a31816108b4565b9050919050565b6000602082019050610a4d600083018461091a565b92915050565b60008190508160005260206000209050919050565b600081549050919050565b6000600182019050919050565b600081905092915050565b600082825260208201905092915050565b6000610aa782610b87565b9150610ab283610b87565b9250827fffffffffffffffffffffffffffffffffffffffffffffffffffffffffffffffff03821115610ae757610ae6610c2f565b5b828201905092915050565b6000610afd82610b87565b9150610b0883610b87565b925082610b1857610b17610c5e565b5b828204905092915050565b600073ffffffffffffffffffffffffffffffffffffffff82169050919050565b6000610b4e82610b67565b9050919050565b6000610b6082610b67565b9050919050565b600073ffffffffffffffffffffffffffffffffffffffff82169050919050565b6000819050919050565b6000610ba4610b9f83610ca0565b610b23565b9050919050565b6000610bb682610b87565b91507fffffffffffffffffffffffffffffffffffffffffffffffffffffffffffffffff821415610be957610be8610c2f565b5b600182019050919050565b6000819050919050565b6000610c0982610b87565b9150610c1483610b87565b925082610c2457610c23610c5e565b5b828206905092915050565b7f4e487b7100000000000000000000000000000000000000000000000000000000600052601160045260246000fd5b7f4e487b7100000000000000000000000000000000000000000000000000000000600052601260045260246000fd5b6000610c998254610b91565b9050919050565b60008160001c9050919050565b610cb681610b87565b8114610cc157600080fd5b5056fea2646970667358221220eee0135cfb5ff82dcbe46fa82d2d6eaf321eb3861dd332eec4a5660f0653cd8964736f6c63430008000033",
					"opcodes": "PUSH1 0x80 PUSH1 0x40 MSTORE CALLVALUE DUP1 ISZERO PUSH2 0x10 JUMPI PUSH1 0x0 DUP1 REVERT JUMPDEST POP PUSH1 0x0 CALLER SWAP1 DUP1 PUSH1 0x1 DUP2 SLOAD ADD DUP1 DUP3 SSTORE DUP1 SWAP2 POP POP PUSH1 0x1 SWAP1 SUB SWAP1 PUSH1 0x0 MSTORE PUSH1 0x20 PUSH1 0x0 KECCAK256 ADD PUSH1 0x0 SWAP1 SWAP2 SWAP1 SWAP2 SWAP1 SWAP2 PUSH2 0x100 EXP DUP2 SLOAD DUP2 PUSH20 0xFFFFFFFFFFFFFFFFFFFFFFFFFFFFFFFFFFFFFFFF MUL NOT AND SWAP1 DUP4 PUSH20 0xFFFFFFFFFFFFFFFFFFFFFFFFFFFFFFFFFFFFFFFF AND MUL OR SWAP1 SSTORE POP PUSH2 0xCFA DUP1 PUSH2 0x83 PUSH1 0x0 CODECOPY PUSH1 0x0 RETURN INVALID PUSH1 0x80 PUSH1 0x40 MSTORE PUSH1 0x4 CALLDATASIZE LT PUSH2 0x55 JUMPI PUSH1 0x0 CALLDATALOAD PUSH1 0xE0 SHR DUP1 PUSH4 0x25E7C27 EQ PUSH2 0x5A JUMPI DUP1 PUSH4 0x4BA2363A EQ PUSH2 0x97 JUMPI DUP1 PUSH4 0x5D495AEA EQ PUSH2 0xC2 JUMPI DUP1 PUSH4 0x97B2F556 EQ PUSH2 0xD9 JUMPI DUP1 PUSH4 0xE97DCB62 EQ PUSH2 0x104 JUMPI DUP1 PUSH4 0xF71D96CB EQ PUSH2 0x10E JUMPI JUMPDEST PUSH1 0x0 DUP1 REVERT JUMPDEST CALLVALUE DUP1 ISZERO PUSH2 0x66 JUMPI PUSH1 0x0 DUP1 REVERT JUMPDEST POP PUSH2 0x81 PUSH1 0x4 DUP1 CALLDATASIZE SUB DUP2 ADD SWAP1 PUSH2 0x7C SWAP2 SWAP1 PUSH2 0x715 JUMP JUMPDEST PUSH2 0x14B JUMP JUMPDEST PUSH1 0x40 MLOAD PUSH2 0x8E SWAP2 SWAP1 PUSH2 0x979 JUMP JUMPDEST PUSH1 0x40 MLOAD DUP1 SWAP2 SUB SWAP1 RETURN JUMPDEST CALLVALUE DUP1 ISZERO PUSH2 0xA3 JUMPI PUSH1 0x0 DUP1 REVERT JUMPDEST POP PUSH2 0xAC PUSH2 0x18A JUMP JUMPDEST PUSH1 0x40 MLOAD PUSH2 0xB9 SWAP2 SWAP1 PUSH2 0xA38 JUMP JUMPDEST PUSH1 0x40 MLOAD DUP1 SWAP2 SUB SWAP1 RETURN JUMPDEST CALLVALUE DUP1 ISZERO PUSH2 0xCE JUMPI PUSH1 0x0 DUP1 REVERT JUMPDEST POP PUSH2 0xD7 PUSH2 0x190 JUMP JUMPDEST STOP JUMPDEST CALLVALUE DUP1 ISZERO PUSH2 0xE5 JUMPI PUSH1 0x0 DUP1 REVERT JUMPDEST POP PUSH2 0xEE PUSH2 0x48C JUMP JUMPDEST PUSH1 0x40 MLOAD PUSH2 0xFB SWAP2 SWAP1 PUSH2 0xA38 JUMP JUMPDEST PUSH1 0x40 MLOAD DUP1 SWAP2 SUB SWAP1 RETURN JUMPDEST PUSH2 0x10C PUSH2 0x492 JUMP JUMPDEST STOP JUMPDEST CALLVALUE DUP1 ISZERO PUSH2 0x11A JUMPI PUSH1 0x0 DUP1 REVERT JUMPDEST POP PUSH2 0x135 PUSH1 0x4 DUP1 CALLDATASIZE SUB DUP2 ADD SWAP1 PUSH2 0x130 SWAP2 SWAP1 PUSH2 0x715 JUMP JUMPDEST PUSH2 0x5D4 JUMP JUMPDEST PUSH1 0x40 MLOAD PUSH2 0x142 SWAP2 SWAP1 PUSH2 0x994 JUMP JUMPDEST PUSH1 0x40 MLOAD DUP1 SWAP2 SUB SWAP1 RETURN JUMPDEST PUSH1 0x0 DUP2 DUP2 SLOAD DUP2 LT PUSH2 0x15B JUMPI PUSH1 0x0 DUP1 REVERT JUMPDEST SWAP1 PUSH1 0x0 MSTORE PUSH1 0x20 PUSH1 0x0 KECCAK256 ADD PUSH1 0x0 SWAP2 POP SLOAD SWAP1 PUSH2 0x100 EXP SWAP1 DIV PUSH20 0xFFFFFFFFFFFFFFFFFFFFFFFFFFFFFFFFFFFFFFFF AND DUP2 JUMP JUMPDEST PUSH1 0x2 SLOAD DUP2 JUMP JUMPDEST PUSH1 0x0 DUP1 JUMPDEST PUSH1 0x0 DUP1 SLOAD SWAP1 POP DUP2 LT ISZERO PUSH2 0x25B JUMPI PUSH1 0x0 DUP2 DUP2 SLOAD DUP2 LT PUSH2 0x1DB JUMPI PUSH32 0x4E487B7100000000000000000000000000000000000000000000000000000000 PUSH1 0x0 MSTORE PUSH1 0x32 PUSH1 0x4 MSTORE PUSH1 0x24 PUSH1 0x0 REVERT JUMPDEST SWAP1 PUSH1 0x0 MSTORE PUSH1 0x20 PUSH1 0x0 KECCAK256 ADD PUSH1 0x0 SWAP1 SLOAD SWAP1 PUSH2 0x100 EXP SWAP1 DIV PUSH20 0xFFFFFFFFFFFFFFFFFFFFFFFFFFFFFFFFFFFFFFFF AND PUSH20 0xFFFFFFFFFFFFFFFFFFFFFFFFFFFFFFFFFFFFFFFF AND CALLER PUSH20 0xFFFFFFFFFFFFFFFFFFFFFFFFFFFFFFFFFFFFFFFF AND EQ ISZERO PUSH2 0x248 JUMPI DUP2 DUP1 PUSH2 0x244 SWAP1 PUSH2 0xBAB JUMP JUMPDEST SWAP3 POP POP JUMPDEST DUP1 DUP1 PUSH2 0x253 SWAP1 PUSH2 0xBAB JUMP JUMPDEST SWAP2 POP POP PUSH2 0x194 JUMP JUMPDEST POP PUSH1 0x2 PUSH1 0x0 DUP1 SLOAD SWAP1 POP PUSH2 0x26E SWAP2 SWAP1 PUSH2 0xAF2 JUMP JUMPDEST DUP2 GT PUSH2 0x2AF JUMPI PUSH1 0x40 MLOAD PUSH32 0x8C379A000000000000000000000000000000000000000000000000000000000 DUP2 MSTORE PUSH1 0x4 ADD PUSH2 0x2A6 SWAP1 PUSH2 0x9D8 JUMP JUMPDEST PUSH1 0x40 MLOAD DUP1 SWAP2 SUB SWAP1 REVERT JUMPDEST PUSH1 0x0 PUSH1 0x3 SLOAD GT PUSH2 0x2F4 JUMPI PUSH1 0x40 MLOAD PUSH32 0x8C379A000000000000000000000000000000000000000000000000000000000 DUP2 MSTORE PUSH1 0x4 ADD PUSH2 0x2EB SWAP1 PUSH2 0x9F8 JUMP JUMPDEST PUSH1 0x40 MLOAD DUP1 SWAP2 SUB SWAP1 REVERT JUMPDEST PUSH1 0x0 PUSH2 0x2FE PUSH2 0x613 JUMP JUMPDEST SWAP1 POP PUSH1 0x0 PUSH1 0x1 DUP3 DUP2 SLOAD DUP2 LT PUSH2 0x33C JUMPI PUSH32 0x4E487B7100000000000000000000000000000000000000000000000000000000 PUSH1 0x0 MSTORE PUSH1 0x32 PUSH1 0x4 MSTORE PUSH1 0x24 PUSH1 0x0 REVERT JUMPDEST SWAP1 PUSH1 0x0 MSTORE PUSH1 0x20 PUSH1 0x0 KECCAK256 ADD PUSH1 0x0 SWAP1 SLOAD SWAP1 PUSH2 0x100 EXP SWAP1 DIV PUSH20 0xFFFFFFFFFFFFFFFFFFFFFFFFFFFFFFFFFFFFFFFF AND SWAP1 POP PUSH1 0x0 PUSH1 0x2 SLOAD SWAP1 POP PUSH1 0x0 PUSH8 0xFFFFFFFFFFFFFFFF DUP2 GT ISZERO PUSH2 0x3B1 JUMPI PUSH32 0x4E487B7100000000000000000000000000000000000000000000000000000000 PUSH1 0x0 MSTORE PUSH1 0x41 PUSH1 0x4 MSTORE PUSH1 0x24 PUSH1 0x0 REVERT JUMPDEST PUSH1 0x40 MLOAD SWAP1 DUP1 DUP3 MSTORE DUP1 PUSH1 0x20 MUL PUSH1 0x20 ADD DUP3 ADD PUSH1 0x40 MSTORE DUP1 ISZERO PUSH2 0x3DF JUMPI DUP2 PUSH1 0x20 ADD PUSH1 0x20 DUP3 MUL DUP1 CALLDATASIZE DUP4 CALLDATACOPY DUP1 DUP3 ADD SWAP2 POP POP SWAP1 POP JUMPDEST POP PUSH1 0x1 SWAP1 DUP1 MLOAD SWAP1 PUSH1 0x20 ADD SWAP1 PUSH2 0x3F5 SWAP3 SWAP2 SWAP1 PUSH2 0x659 JUMP JUMPDEST POP PUSH1 0x0 PUSH1 0x2 DUP2 SWAP1 SSTORE POP PUSH1 0x0 PUSH1 0x3 DUP2 SWAP1 SSTORE POP PUSH32 0x9C2270628A9B29D30AE96B6C4C14ED646EE134FEBDCE38A5B77F2BDE9CEA2E20 DUP3 DUP3 PUSH1 0x40 MLOAD PUSH2 0x437 SWAP3 SWAP2 SWAP1 PUSH2 0x9AF JUMP JUMPDEST PUSH1 0x40 MLOAD DUP1 SWAP2 SUB SWAP1 LOG1 DUP2 PUSH20 0xFFFFFFFFFFFFFFFFFFFFFFFFFFFFFFFFFFFFFFFF AND PUSH2 0x8FC DUP3 SWAP1 DUP2 ISZERO MUL SWAP1 PUSH1 0x40 MLOAD PUSH1 0x0 PUSH1 0x40 MLOAD DUP1 DUP4 SUB DUP2 DUP6 DUP9 DUP9 CALL SWAP4 POP POP POP POP ISZERO DUP1 ISZERO PUSH2 0x485 JUMPI RETURNDATASIZE PUSH1 0x0 DUP1 RETURNDATACOPY RETURNDATASIZE PUSH1 0x0 REVERT JUMPDEST POP POP POP POP POP JUMP JUMPDEST PUSH1 0x3 SLOAD DUP2 JUMP JUMPDEST PUSH7 0x2386F26FC10000 CALLVALUE GT PUSH2 0x4DB JUMPI PUSH1 0x40 MLOAD PUSH32 0x8C379A000000000000000000000000000000000000000000000000000000000 DUP2 MSTORE PUSH1 0x4 ADD PUSH2 0x4D2 SWAP1 PUSH2 0xA18 JUMP JUMPDEST PUSH1 0x40 MLOAD DUP1 SWAP2 SUB SWAP1 REVERT JUMPDEST PUSH1 0x1 CALLER SWAP1 DUP1 PUSH1 0x1 DUP2 SLOAD ADD DUP1 DUP3 SSTORE DUP1 SWAP2 POP POP PUSH1 0x1 SWAP1 SUB SWAP1 PUSH1 0x0 MSTORE PUSH1 0x20 PUSH1 0x0 KECCAK256 ADD PUSH1 0x0 SWAP1 SWAP2 SWAP1 SWAP2 SWAP1 SWAP2 PUSH2 0x100 EXP DUP2 SLOAD DUP2 PUSH20 0xFFFFFFFFFFFFFFFFFFFFFFFFFFFFFFFFFFFFFFFF MUL NOT AND SWAP1 DUP4 PUSH20 0xFFFFFFFFFFFFFFFFFFFFFFFFFFFFFFFFFFFFFFFF AND MUL OR SWAP1 SSTORE POP PUSH1 0x0 CALLER SWAP1 DUP1 PUSH1 0x1 DUP2 SLOAD ADD DUP1 DUP3 SSTORE DUP1 SWAP2 POP POP PUSH1 0x1 SWAP1 SUB SWAP1 PUSH1 0x0 MSTORE PUSH1 0x20 PUSH1 0x0 KECCAK256 ADD PUSH1 0x0 SWAP1 SWAP2 SWAP1 SWAP2 SWAP1 SWAP2 PUSH2 0x100 EXP DUP2 SLOAD DUP2 PUSH20 0xFFFFFFFFFFFFFFFFFFFFFFFFFFFFFFFFFFFFFFFF MUL NOT AND SWAP1 DUP4 PUSH20 0xFFFFFFFFFFFFFFFFFFFFFFFFFFFFFFFFFFFFFFFF AND MUL OR SWAP1 SSTORE POP PUSH1 0x3 PUSH1 0x0 DUP2 SLOAD DUP1 SWAP3 SWAP2 SWAP1 PUSH2 0x5B4 SWAP1 PUSH2 0xBAB JUMP JUMPDEST SWAP2 SWAP1 POP SSTORE POP CALLVALUE PUSH1 0x2 PUSH1 0x0 DUP3 DUP3 SLOAD PUSH2 0x5CB SWAP2 SWAP1 PUSH2 0xA9C JUMP JUMPDEST SWAP3 POP POP DUP2 SWAP1 SSTORE POP JUMP JUMPDEST PUSH1 0x1 DUP2 DUP2 SLOAD DUP2 LT PUSH2 0x5E4 JUMPI PUSH1 0x0 DUP1 REVERT JUMPDEST SWAP1 PUSH1 0x0 MSTORE PUSH1 0x20 PUSH1 0x0 KECCAK256 ADD PUSH1 0x0 SWAP2 POP SLOAD SWAP1 PUSH2 0x100 EXP SWAP1 DIV PUSH20 0xFFFFFFFFFFFFFFFFFFFFFFFFFFFFFFFFFFFFFFFF AND DUP2 JUMP JUMPDEST PUSH1 0x0 PUSH1 0x1 DUP1 SLOAD SWAP1 POP DIFFICULTY TIMESTAMP PUSH1 0x1 PUSH1 0x40 MLOAD PUSH1 0x20 ADD PUSH2 0x631 SWAP4 SWAP3 SWAP2 SWAP1 PUSH2 0x940 JUMP JUMPDEST PUSH1 0x40 MLOAD PUSH1 0x20 DUP2 DUP4 SUB SUB DUP2 MSTORE SWAP1 PUSH1 0x40 MSTORE DUP1 MLOAD SWAP1 PUSH1 0x20 ADD KECCAK256 PUSH1 0x0 SHR PUSH2 0x654 SWAP2 SWAP1 PUSH2 0xBFE JUMP JUMPDEST SWAP1 POP SWAP1 JUMP JUMPDEST DUP3 DUP1 SLOAD DUP3 DUP3 SSTORE SWAP1 PUSH1 0x0 MSTORE PUSH1 0x20 PUSH1 0x0 KECCAK256 SWAP1 DUP2 ADD SWAP3 DUP3 ISZERO PUSH2 0x6D2 JUMPI SWAP2 PUSH1 0x20 MUL DUP3 ADD JUMPDEST DUP3 DUP2 GT ISZERO PUSH2 0x6D1 JUMPI DUP3 MLOAD DUP3 PUSH1 0x0 PUSH2 0x100 EXP DUP2 SLOAD DUP2 PUSH20 0xFFFFFFFFFFFFFFFFFFFFFFFFFFFFFFFFFFFFFFFF MUL NOT AND SWAP1 DUP4 PUSH20 0xFFFFFFFFFFFFFFFFFFFFFFFFFFFFFFFFFFFFFFFF AND MUL OR SWAP1 SSTORE POP SWAP2 PUSH1 0x20 ADD SWAP2 SWAP1 PUSH1 0x1 ADD SWAP1 PUSH2 0x679 JUMP JUMPDEST JUMPDEST POP SWAP1 POP PUSH2 0x6DF SWAP2 SWAP1 PUSH2 0x6E3 JUMP JUMPDEST POP SWAP1 JUMP JUMPDEST JUMPDEST DUP1 DUP3 GT ISZERO PUSH2 0x6FC JUMPI PUSH1 0x0 DUP2 PUSH1 0x0 SWAP1 SSTORE POP PUSH1 0x1 ADD PUSH2 0x6E4 JUMP JUMPDEST POP SWAP1 JUMP JUMPDEST PUSH1 0x0 DUP2 CALLDATALOAD SWAP1 POP PUSH2 0x70F DUP2 PUSH2 0xCAD JUMP JUMPDEST SWAP3 SWAP2 POP POP JUMP JUMPDEST PUSH1 0x0 PUSH1 0x20 DUP3 DUP5 SUB SLT ISZERO PUSH2 0x727 JUMPI PUSH1 0x0 DUP1 REVERT JUMPDEST PUSH1 0x0 PUSH2 0x735 DUP5 DUP3 DUP6 ADD PUSH2 0x700 JUMP JUMPDEST SWAP2 POP POP SWAP3 SWAP2 POP POP JUMP JUMPDEST PUSH1 0x0 PUSH2 0x74A DUP4 DUP4 PUSH2 0x765 JUMP JUMPDEST PUSH1 0x20 DUP4 ADD SWAP1 POP SWAP3 SWAP2 POP POP JUMP JUMPDEST PUSH2 0x75F DUP2 PUSH2 0xB55 JUMP JUMPDEST DUP3 MSTORE POP POP JUMP JUMPDEST PUSH2 0x76E DUP2 PUSH2 0xB55 JUMP JUMPDEST DUP3 MSTORE POP POP JUMP JUMPDEST PUSH2 0x77D DUP2 PUSH2 0xB43 JUMP JUMPDEST DUP3 MSTORE POP POP JUMP JUMPDEST PUSH1 0x0 PUSH2 0x78E DUP3 PUSH2 0xA68 JUMP JUMPDEST PUSH2 0x798 DUP2 DUP6 PUSH2 0xA80 JUMP JUMPDEST SWAP4 POP PUSH2 0x7A3 DUP4 PUSH2 0xA53 JUMP JUMPDEST DUP1 PUSH1 0x0 JUMPDEST DUP4 DUP2 LT ISZERO PUSH2 0x7DB JUMPI PUSH2 0x7B8 DUP3 PUSH2 0xC8D JUMP JUMPDEST PUSH2 0x7C2 DUP9 DUP3 PUSH2 0x73E JUMP JUMPDEST SWAP8 POP PUSH2 0x7CD DUP4 PUSH2 0xA73 JUMP JUMPDEST SWAP3 POP POP PUSH1 0x1 DUP2 ADD SWAP1 POP PUSH2 0x7A7 JUMP JUMPDEST POP DUP6 SWAP4 POP POP POP POP SWAP3 SWAP2 POP POP JUMP JUMPDEST PUSH1 0x0 PUSH2 0x7F5 PUSH1 0x37 DUP4 PUSH2 0xA8B JUMP JUMPDEST SWAP2 POP PUSH32 0x4D6F7265207468616E20353025206F6620746865206F776E657273206D757374 PUSH1 0x0 DUP4 ADD MSTORE PUSH32 0x20616772656520746F207069636B20612077696E6E6572000000000000000000 PUSH1 0x20 DUP4 ADD MSTORE PUSH1 0x40 DUP3 ADD SWAP1 POP SWAP2 SWAP1 POP JUMP JUMPDEST PUSH1 0x0 PUSH2 0x85B PUSH1 0x32 DUP4 PUSH2 0xA8B JUMP JUMPDEST SWAP2 POP PUSH32 0x5468657265206D757374206265206174206C65617374206F6E6520706C617965 PUSH1 0x0 DUP4 ADD MSTORE PUSH32 0x7220746F207069636B20612077696E6E65720000000000000000000000000000 PUSH1 0x20 DUP4 ADD MSTORE PUSH1 0x40 DUP3 ADD SWAP1 POP SWAP2 SWAP1 POP JUMP JUMPDEST PUSH1 0x0 PUSH2 0x8C1 PUSH1 0x27 DUP4 PUSH2 0xA8B JUMP JUMPDEST SWAP2 POP PUSH32 0x596F7572207469636B6574206D757374206265206174206C6561737420302E30 PUSH1 0x0 DUP4 ADD MSTORE PUSH32 0x3120657468657200000000000000000000000000000000000000000000000000 PUSH1 0x20 DUP4 ADD MSTORE PUSH1 0x40 DUP3 ADD SWAP1 POP SWAP2 SWAP1 POP JUMP JUMPDEST PUSH2 0x923 DUP2 PUSH2 0xB87 JUMP JUMPDEST DUP3 MSTORE POP POP JUMP JUMPDEST PUSH2 0x93A PUSH2 0x935 DUP3 PUSH2 0xB87 JUMP JUMPDEST PUSH2 0xBF4 JUMP JUMPDEST DUP3 MSTORE POP POP JUMP JUMPDEST PUSH1 0x0 PUSH2 0x94C DUP3 DUP7 PUSH2 0x929 JUMP JUMPDEST PUSH1 0x20 DUP3 ADD SWAP2 POP PUSH2 0x95C DUP3 DUP6 PUSH2 0x929 JUMP JUMPDEST PUSH1 0x20 DUP3 ADD SWAP2 POP PUSH2 0x96C DUP3 DUP5 PUSH2 0x783 JUMP JUMPDEST SWAP2 POP DUP2 SWAP1 POP SWAP5 SWAP4 POP POP POP POP JUMP JUMPDEST PUSH1 0x0 PUSH1 0x20 DUP3 ADD SWAP1 POP PUSH2 0x98E PUSH1 0x0 DUP4 ADD DUP5 PUSH2 0x774 JUMP JUMPDEST SWAP3 SWAP2 POP POP JUMP JUMPDEST PUSH1 0x0 PUSH1 0x20 DUP3 ADD SWAP1 POP PUSH2 0x9A9 PUSH1 0x0 DUP4 ADD DUP5 PUSH2 0x756 JUMP JUMPDEST SWAP3 SWAP2 POP POP JUMP JUMPDEST PUSH1 0x0 PUSH1 0x40 DUP3 ADD SWAP1 POP PUSH2 0x9C4 PUSH1 0x0 DUP4 ADD DUP6 PUSH2 0x756 JUMP JUMPDEST PUSH2 0x9D1 PUSH1 0x20 DUP4 ADD DUP5 PUSH2 0x91A JUMP JUMPDEST SWAP4 SWAP3 POP POP POP JUMP JUMPDEST PUSH1 0x0 PUSH1 0x20 DUP3 ADD SWAP1 POP DUP2 DUP2 SUB PUSH1 0x0 DUP4 ADD MSTORE PUSH2 0x9F1 DUP2 PUSH2 0x7E8 JUMP JUMPDEST SWAP1 POP SWAP2 SWAP1 POP JUMP JUMPDEST PUSH1 0x0 PUSH1 0x20 DUP3 ADD SWAP1 POP DUP2 DUP2 SUB PUSH1 0x0 DUP4 ADD MSTORE PUSH2 0xA11 DUP2 PUSH2 0x84E JUMP JUMPDEST SWAP1 POP SWAP2 SWAP1 POP JUMP JUMPDEST PUSH1 0x0 PUSH1 0x20 DUP3 ADD SWAP1 POP DUP2 DUP2 SUB PUSH1 0x0 DUP4 ADD MSTORE PUSH2 0xA31 DUP2 PUSH2 0x8B4 JUMP JUMPDEST SWAP1 POP SWAP2 SWAP1 POP JUMP JUMPDEST PUSH1 0x0 PUSH1 0x20 DUP3 ADD SWAP1 POP PUSH2 0xA4D PUSH1 0x0 DUP4 ADD DUP5 PUSH2 0x91A JUMP JUMPDEST SWAP3 SWAP2 POP POP JUMP JUMPDEST PUSH1 0x0 DUP2 SWAP1 POP DUP2 PUSH1 0x0 MSTORE PUSH1 0x20 PUSH1 0x0 KECCAK256 SWAP1 POP SWAP2 SWAP1 POP JUMP JUMPDEST PUSH1 0x0 DUP2 SLOAD SWAP1 POP SWAP2 SWAP1 POP JUMP JUMPDEST PUSH1 0x0 PUSH1 0x1 DUP3 ADD SWAP1 POP SWAP2 SWAP1 POP JUMP JUMPDEST PUSH1 0x0 DUP2 SWAP1 POP SWAP3 SWAP2 POP POP JUMP JUMPDEST PUSH1 0x0 DUP3 DUP3 MSTORE PUSH1 0x20 DUP3 ADD SWAP1 POP SWAP3 SWAP2 POP POP JUMP JUMPDEST PUSH1 0x0 PUSH2 0xAA7 DUP3 PUSH2 0xB87 JUMP JUMPDEST SWAP2 POP PUSH2 0xAB2 DUP4 PUSH2 0xB87 JUMP JUMPDEST SWAP3 POP DUP3 PUSH32 0xFFFFFFFFFFFFFFFFFFFFFFFFFFFFFFFFFFFFFFFFFFFFFFFFFFFFFFFFFFFFFFFF SUB DUP3 GT ISZERO PUSH2 0xAE7 JUMPI PUSH2 0xAE6 PUSH2 0xC2F JUMP JUMPDEST JUMPDEST DUP3 DUP3 ADD SWAP1 POP SWAP3 SWAP2 POP POP JUMP JUMPDEST PUSH1 0x0 PUSH2 0xAFD DUP3 PUSH2 0xB87 JUMP JUMPDEST SWAP2 POP PUSH2 0xB08 DUP4 PUSH2 0xB87 JUMP JUMPDEST SWAP3 POP DUP3 PUSH2 0xB18 JUMPI PUSH2 0xB17 PUSH2 0xC5E JUMP JUMPDEST JUMPDEST DUP3 DUP3 DIV SWAP1 POP SWAP3 SWAP2 POP POP JUMP JUMPDEST PUSH1 0x0 PUSH20 0xFFFFFFFFFFFFFFFFFFFFFFFFFFFFFFFFFFFFFFFF DUP3 AND SWAP1 POP SWAP2 SWAP1 POP JUMP JUMPDEST PUSH1 0x0 PUSH2 0xB4E DUP3 PUSH2 0xB67 JUMP JUMPDEST SWAP1 POP SWAP2 SWAP1 POP JUMP JUMPDEST PUSH1 0x0 PUSH2 0xB60 DUP3 PUSH2 0xB67 JUMP JUMPDEST SWAP1 POP SWAP2 SWAP1 POP JUMP JUMPDEST PUSH1 0x0 PUSH20 0xFFFFFFFFFFFFFFFFFFFFFFFFFFFFFFFFFFFFFFFF DUP3 AND SWAP1 POP SWAP2 SWAP1 POP JUMP JUMPDEST PUSH1 0x0 DUP2 SWAP1 POP SWAP2 SWAP1 POP JUMP JUMPDEST PUSH1 0x0 PUSH2 0xBA4 PUSH2 0xB9F DUP4 PUSH2 0xCA0 JUMP JUMPDEST PUSH2 0xB23 JUMP JUMPDEST SWAP1 POP SWAP2 SWAP1 POP JUMP JUMPDEST PUSH1 0x0 PUSH2 0xBB6 DUP3 PUSH2 0xB87 JUMP JUMPDEST SWAP2 POP PUSH32 0xFFFFFFFFFFFFFFFFFFFFFFFFFFFFFFFFFFFFFFFFFFFFFFFFFFFFFFFFFFFFFFFF DUP3 EQ ISZERO PUSH2 0xBE9 JUMPI PUSH2 0xBE8 PUSH2 0xC2F JUMP JUMPDEST JUMPDEST PUSH1 0x1 DUP3 ADD SWAP1 POP SWAP2 SWAP1 POP JUMP JUMPDEST PUSH1 0x0 DUP2 SWAP1 POP SWAP2 SWAP1 POP JUMP JUMPDEST PUSH1 0x0 PUSH2 0xC09 DUP3 PUSH2 0xB87 JUMP JUMPDEST SWAP2 POP PUSH2 0xC14 DUP4 PUSH2 0xB87 JUMP JUMPDEST SWAP3 POP DUP3 PUSH2 0xC24 JUMPI PUSH2 0xC23 PUSH2 0xC5E JUMP JUMPDEST JUMPDEST DUP3 DUP3 MOD SWAP1 POP SWAP3 SWAP2 POP POP JUMP JUMPDEST PUSH32 0x4E487B7100000000000000000000000000000000000000000000000000000000 PUSH1 0x0 MSTORE PUSH1 0x11 PUSH1 0x4 MSTORE PUSH1 0x24 PUSH1 0x0 REVERT JUMPDEST PUSH32 0x4E487B7100000000000000000000000000000000000000000000000000000000 PUSH1 0x0 MSTORE PUSH1 0x12 PUSH1 0x4 MSTORE PUSH1 0x24 PUSH1 0x0 REVERT JUMPDEST PUSH1 0x0 PUSH2 0xC99 DUP3 SLOAD PUSH2 0xB91 JUMP JUMPDEST SWAP1 POP SWAP2 SWAP1 POP JUMP JUMPDEST PUSH1 0x0 DUP2 PUSH1 0x0 SHR SWAP1 POP SWAP2 SWAP1 POP JUMP JUMPDEST PUSH2 0xCB6 DUP2 PUSH2 0xB87 JUMP JUMPDEST DUP2 EQ PUSH2 0xCC1 JUMPI PUSH1 0x0 DUP1 REVERT JUMPDEST POP JUMP INVALID LOG2 PUSH5 0x6970667358 0x22 SLT KECCAK256 0xEE 0xE0 SGT 0x5C 0xFB 0x5F 0xF8 0x2D 0xCB 0xE4 PUSH16 0xA82D2D6EAF321EB3861DD332EEC4A566 0xF MOD MSTORE8 0xCD DUP10 PUSH5 0x736F6C6343 STOP ADDMOD STOP STOP CALLER "
				},
				"gasEstimates": {
					"creation": {
						"codeDepositCost": "664400",
						"executionCost": "42474",
						"totalCost": "706874"
					},
					"external": {
						"enter()": "infinite",
						"numPlayers()": "1173",
						"owners(uint256)": "2334",
						"pickWinner()": "infinite",
						"players(uint256)": "2444",
						"pot()": "1129"
					},
					"internal": {
						"random()": "infinite"
					}
				},
				"methodIdentifiers": {
					"enter()": "e97dcb62",
					"numPlayers()": "97b2f556",
					"owners(uint256)": "025e7c27",
					"pickWinner()": "5d495aea",
					"players(uint256)": "f71d96cb",
					"pot()": "4ba2363a"
				}
			},
			"storageLayout": {
				"storage": [
					{
						"astId": 4,
						"contract": "PancakeSwap_UZH/lottery_multipleOwners.sol:Lottery",
						"label": "owners",
						"offset": 0,
						"slot": "0",
						"type": "t_array(t_address)dyn_storage"
					},
					{
						"astId": 7,
						"contract": "PancakeSwap_UZH/lottery_multipleOwners.sol:Lottery",
						"label": "players",
						"offset": 0,
						"slot": "1",
						"type": "t_array(t_address_payable)dyn_storage"
					},
					{
						"astId": 9,
						"contract": "PancakeSwap_UZH/lottery_multipleOwners.sol:Lottery",
						"label": "pot",
						"offset": 0,
						"slot": "2",
						"type": "t_uint256"
					},
					{
						"astId": 11,
						"contract": "PancakeSwap_UZH/lottery_multipleOwners.sol:Lottery",
						"label": "numPlayers",
						"offset": 0,
						"slot": "3",
						"type": "t_uint256"
					}
				],
				"types": {
					"t_address": {
						"encoding": "inplace",
						"label": "address",
						"numberOfBytes": "20"
					},
					"t_address_payable": {
						"encoding": "inplace",
						"label": "address payable",
						"numberOfBytes": "20"
					},
					"t_array(t_address)dyn_storage": {
						"base": "t_address",
						"encoding": "dynamic_array",
						"label": "address[]",
						"numberOfBytes": "32"
					},
					"t_array(t_address_payable)dyn_storage": {
						"base": "t_address_payable",
						"encoding": "dynamic_array",
						"label": "address payable[]",
						"numberOfBytes": "32"
					},
					"t_uint256": {
						"encoding": "inplace",
						"label": "uint256",
						"numberOfBytes": "32"
					}
				}
			},
			"userdoc": {
				"kind": "user",
				"methods": {},
				"version": 1
			}
		}
	}
}