{
	"UZHPancakeLottery.sol": {
		"UZHPancakeLottery": {
			"abi": [
				{
					"inputs": [],
					"stateMutability": "nonpayable",
					"type": "constructor"
				},
				{
					"inputs": [],
					"name": "BeginLottery",
					"outputs": [],
					"stateMutability": "nonpayable",
					"type": "function"
				},
				{
					"inputs": [],
					"name": "EndLottery",
					"outputs": [],
					"stateMutability": "nonpayable",
					"type": "function"
				},
				{
					"inputs": [],
					"name": "NrticketsBought",
					"outputs": [
						{
							"internalType": "uint256",
							"name": "",
							"type": "uint256"
						}
					],
					"stateMutability": "view",
					"type": "function"
				},
				{
					"inputs": [],
					"name": "Pull",
					"outputs": [],
					"stateMutability": "nonpayable",
					"type": "function"
				},
				{
					"inputs": [
						{
							"internalType": "uint256[]",
							"name": "ticketNumbers",
							"type": "uint256[]"
						}
					],
					"name": "buyTicket",
					"outputs": [],
					"stateMutability": "payable",
					"type": "function"
				},
				{
					"inputs": [
						{
							"internalType": "uint256",
							"name": "_price",
							"type": "uint256"
						}
					],
					"name": "changeTicketPrice",
					"outputs": [],
					"stateMutability": "nonpayable",
					"type": "function"
				},
				{
					"inputs": [],
					"name": "getMyTicketNumbers",
					"outputs": [
						{
							"internalType": "uint256[]",
							"name": "",
							"type": "uint256[]"
						}
					],
					"stateMutability": "view",
					"type": "function"
				},
				{
					"inputs": [],
					"name": "getTicketPrice",
					"outputs": [
						{
							"internalType": "uint256",
							"name": "",
							"type": "uint256"
						}
					],
					"stateMutability": "view",
					"type": "function"
				},
				{
					"inputs": [],
					"name": "getTotalLotteryPot",
					"outputs": [
						{
							"internalType": "uint256",
							"name": "",
							"type": "uint256"
						}
					],
					"stateMutability": "view",
					"type": "function"
				},
				{
					"inputs": [],
					"name": "getWinningNumber",
					"outputs": [
						{
							"internalType": "uint256[]",
							"name": "",
							"type": "uint256[]"
						}
					],
					"stateMutability": "view",
					"type": "function"
				},
				{
					"inputs": [],
					"name": "lotteryStarted",
					"outputs": [
						{
							"internalType": "bool",
							"name": "",
							"type": "bool"
						}
					],
					"stateMutability": "view",
					"type": "function"
				},
				{
					"inputs": [],
					"name": "owner",
					"outputs": [
						{
							"internalType": "address",
							"name": "",
							"type": "address"
						}
					],
					"stateMutability": "view",
					"type": "function"
				},
				{
					"inputs": [
						{
							"internalType": "uint256",
							"name": "",
							"type": "uint256"
						}
					],
					"name": "playersAddresses",
					"outputs": [
						{
							"internalType": "address",
							"name": "",
							"type": "address"
						}
					],
					"stateMutability": "view",
					"type": "function"
				},
				{
					"inputs": [
						{
							"internalType": "uint256[]",
							"name": "_winningNumber",
							"type": "uint256[]"
						}
					],
					"name": "setWinningNumber",
					"outputs": [],
					"stateMutability": "nonpayable",
					"type": "function"
				}
			],
			"devdoc": {
				"kind": "dev",
				"methods": {},
				"version": 1
			},
			"evm": {
				"assembly": "    /* \"UZHPancakeLottery.sol\":256:8525  contract UZHPancakeLottery {\r... */\n  mstore(0x40, 0x80)\n    /* \"UZHPancakeLottery.sol\":619:626  5 ether */\n  0x4563918244f40000\n    /* \"UZHPancakeLottery.sol\":592:626  uint private ticketprice = 5 ether */\n  0x03\n  sstore\n    /* \"UZHPancakeLottery.sol\":784:785  0 */\n  0x00\n    /* \"UZHPancakeLottery.sol\":754:785  uint public NrticketsBought = 0 */\n  0x05\n  sstore\n    /* \"UZHPancakeLottery.sol\":973:978  false */\n  0x00\n    /* \"UZHPancakeLottery.sol\":944:978  bool public lotteryStarted = false */\n  0x07\n  exp(0x0100, 0x00)\n  dup2\n  sload\n  dup2\n  0xff\n  mul\n  not\n  and\n  swap1\n  dup4\n  iszero\n  iszero\n  mul\n  or\n  swap1\n  sstore\n  pop\n    /* \"UZHPancakeLottery.sol\":1064:1122  constructor() public {\r... */\n  callvalue\n  dup1\n  iszero\n  tag_1\n  jumpi\n  0x00\n  dup1\n  revert\ntag_1:\n  pop\n    /* \"UZHPancakeLottery.sol\":1104:1114  msg.sender */\n  caller\n    /* \"UZHPancakeLottery.sol\":1096:1101  owner */\n  0x00\n  dup1\n    /* \"UZHPancakeLottery.sol\":1096:1114  owner = msg.sender */\n  0x0100\n  exp\n  dup2\n  sload\n  dup2\n  0xffffffffffffffffffffffffffffffffffffffff\n  mul\n  not\n  and\n  swap1\n  dup4\n  0xffffffffffffffffffffffffffffffffffffffff\n  and\n  mul\n  or\n  swap1\n  sstore\n  pop\n    /* \"UZHPancakeLottery.sol\":256:8525  contract UZHPancakeLottery {\r... */\n  dataSize(sub_0)\n  dup1\n  dataOffset(sub_0)\n  0x00\n  codecopy\n  0x00\n  return\nstop\n\nsub_0: assembly {\n        /* \"UZHPancakeLottery.sol\":256:8525  contract UZHPancakeLottery {\r... */\n      mstore(0x40, 0x80)\n      jumpi(tag_1, lt(calldatasize, 0x04))\n      shr(0xe0, calldataload(0x00))\n      dup1\n      0x87bb7ae0\n      gt\n      tag_16\n      jumpi\n      dup1\n      0x8da5cb5b\n      gt\n      tag_17\n      jumpi\n      dup1\n      0x8da5cb5b\n      eq\n      tag_12\n      jumpi\n      dup1\n      0xa650fbab\n      eq\n      tag_13\n      jumpi\n      dup1\n      0xb04a3f1c\n      eq\n      tag_14\n      jumpi\n      dup1\n      0xd386ea73\n      eq\n      tag_15\n      jumpi\n      jump(tag_1)\n    tag_17:\n      dup1\n      0x87bb7ae0\n      eq\n      tag_9\n      jumpi\n      dup1\n      0x8a4a29c3\n      eq\n      tag_10\n      jumpi\n      dup1\n      0x8b0b9ed4\n      eq\n      tag_11\n      jumpi\n      jump(tag_1)\n    tag_16:\n      dup1\n      0x472016da\n      gt\n      tag_18\n      jumpi\n      dup1\n      0x472016da\n      eq\n      tag_5\n      jumpi\n      dup1\n      0x4efd7cca\n      eq\n      tag_6\n      jumpi\n      dup1\n      0x5a3811b9\n      eq\n      tag_7\n      jumpi\n      dup1\n      0x716cac96\n      eq\n      tag_8\n      jumpi\n      jump(tag_1)\n    tag_18:\n      dup1\n      0x30daec49\n      eq\n      tag_2\n      jumpi\n      dup1\n      0x36c1ec23\n      eq\n      tag_3\n      jumpi\n      dup1\n      0x4630a0ee\n      eq\n      tag_4\n      jumpi\n    tag_1:\n      0x00\n      dup1\n      revert\n        /* \"UZHPancakeLottery.sol\":7927:8520  function Pull() public onlyOwner {\r... */\n    tag_2:\n      callvalue\n      dup1\n      iszero\n      tag_19\n      jumpi\n      0x00\n      dup1\n      revert\n    tag_19:\n      pop\n      tag_20\n      tag_21\n      jump\t// in\n    tag_20:\n      stop\n        /* \"UZHPancakeLottery.sol\":2256:2783  function BeginLottery() public onlyOwner {\r... */\n    tag_3:\n      callvalue\n      dup1\n      iszero\n      tag_22\n      jumpi\n      0x00\n      dup1\n      revert\n    tag_22:\n      pop\n      tag_23\n      tag_24\n      jump\t// in\n    tag_23:\n      stop\n        /* \"UZHPancakeLottery.sol\":1380:1606  function changeTicketPrice(uint _price) public onlyOwner {\r... */\n    tag_4:\n      callvalue\n      dup1\n      iszero\n      tag_25\n      jumpi\n      0x00\n      dup1\n      revert\n    tag_25:\n      pop\n      tag_26\n      0x04\n      dup1\n      calldatasize\n      sub\n      dup2\n      add\n      swap1\n      tag_27\n      swap2\n      swap1\n      tag_28\n      jump\t// in\n    tag_27:\n      tag_29\n      jump\t// in\n    tag_26:\n      stop\n        /* \"UZHPancakeLottery.sol\":847:881  address [] public playersAddresses */\n    tag_5:\n      callvalue\n      dup1\n      iszero\n      tag_30\n      jumpi\n      0x00\n      dup1\n      revert\n    tag_30:\n      pop\n      tag_31\n      0x04\n      dup1\n      calldatasize\n      sub\n      dup2\n      add\n      swap1\n      tag_32\n      swap2\n      swap1\n      tag_28\n      jump\t// in\n    tag_32:\n      tag_33\n      jump\t// in\n    tag_31:\n      mload(0x40)\n      tag_34\n      swap2\n      swap1\n      tag_35\n      jump\t// in\n    tag_34:\n      mload(0x40)\n      dup1\n      swap2\n      sub\n      swap1\n      return\n        /* \"UZHPancakeLottery.sol\":2858:3142  function setWinningNumber(uint[] memory _winningNumber) public onlyOwner {\r... */\n    tag_6:\n      callvalue\n      dup1\n      iszero\n      tag_36\n      jumpi\n      0x00\n      dup1\n      revert\n    tag_36:\n      pop\n      tag_37\n      0x04\n      dup1\n      calldatasize\n      sub\n      dup2\n      add\n      swap1\n      tag_38\n      swap2\n      swap1\n      tag_39\n      jump\t// in\n    tag_38:\n      tag_40\n      jump\t// in\n    tag_37:\n      stop\n        /* \"UZHPancakeLottery.sol\":944:978  bool public lotteryStarted = false */\n    tag_7:\n      callvalue\n      dup1\n      iszero\n      tag_41\n      jumpi\n      0x00\n      dup1\n      revert\n    tag_41:\n      pop\n      tag_42\n      tag_43\n      jump\t// in\n    tag_42:\n      mload(0x40)\n      tag_44\n      swap2\n      swap1\n      tag_45\n      jump\t// in\n    tag_44:\n      mload(0x40)\n      dup1\n      swap2\n      sub\n      swap1\n      return\n        /* \"UZHPancakeLottery.sol\":3515:4779  function buyTicket(uint[] memory ticketNumbers) public payable {\r... */\n    tag_8:\n      tag_46\n      0x04\n      dup1\n      calldatasize\n      sub\n      dup2\n      add\n      swap1\n      tag_47\n      swap2\n      swap1\n      tag_39\n      jump\t// in\n    tag_47:\n      tag_48\n      jump\t// in\n    tag_46:\n      stop\n        /* \"UZHPancakeLottery.sol\":1667:1887  function getTicketPrice() public view returns (uint) {\r... */\n    tag_9:\n      callvalue\n      dup1\n      iszero\n      tag_49\n      jumpi\n      0x00\n      dup1\n      revert\n    tag_49:\n      pop\n      tag_50\n      tag_51\n      jump\t// in\n    tag_50:\n      mload(0x40)\n      tag_52\n      swap2\n      swap1\n      tag_53\n      jump\t// in\n    tag_52:\n      mload(0x40)\n      dup1\n      swap2\n      sub\n      swap1\n      return\n        /* \"UZHPancakeLottery.sol\":1967:2195  function getTotalLotteryPot() public view returns (uint) {\r... */\n    tag_10:\n      callvalue\n      dup1\n      iszero\n      tag_54\n      jumpi\n      0x00\n      dup1\n      revert\n    tag_54:\n      pop\n      tag_55\n      tag_56\n      jump\t// in\n    tag_55:\n      mload(0x40)\n      tag_57\n      swap2\n      swap1\n      tag_53\n      jump\t// in\n    tag_57:\n      mload(0x40)\n      dup1\n      swap2\n      sub\n      swap1\n      return\n        /* \"UZHPancakeLottery.sol\":3241:3474  function getWinningNumber() public view onlyOwner returns (uint[] memory) {\r... */\n    tag_11:\n      callvalue\n      dup1\n      iszero\n      tag_58\n      jumpi\n      0x00\n      dup1\n      revert\n    tag_58:\n      pop\n      tag_59\n      tag_60\n      jump\t// in\n    tag_59:\n      mload(0x40)\n      tag_61\n      swap2\n      swap1\n      tag_62\n      jump\t// in\n    tag_61:\n      mload(0x40)\n      dup1\n      swap2\n      sub\n      swap1\n      return\n        /* \"UZHPancakeLottery.sol\":335:355  address public owner */\n    tag_12:\n      callvalue\n      dup1\n      iszero\n      tag_63\n      jumpi\n      0x00\n      dup1\n      revert\n    tag_63:\n      pop\n      tag_64\n      tag_65\n      jump\t// in\n    tag_64:\n      mload(0x40)\n      tag_66\n      swap2\n      swap1\n      tag_35\n      jump\t// in\n    tag_66:\n      mload(0x40)\n      dup1\n      swap2\n      sub\n      swap1\n      return\n        /* \"UZHPancakeLottery.sol\":4847:4965  function getMyTicketNumbers() public view returns (uint[] memory) {\r... */\n    tag_13:\n      callvalue\n      dup1\n      iszero\n      tag_67\n      jumpi\n      0x00\n      dup1\n      revert\n    tag_67:\n      pop\n      tag_68\n      tag_69\n      jump\t// in\n    tag_68:\n      mload(0x40)\n      tag_70\n      swap2\n      swap1\n      tag_62\n      jump\t// in\n    tag_70:\n      mload(0x40)\n      dup1\n      swap2\n      sub\n      swap1\n      return\n        /* \"UZHPancakeLottery.sol\":5014:7852  function EndLottery() public onlyOwner{\r... */\n    tag_14:\n      callvalue\n      dup1\n      iszero\n      tag_71\n      jumpi\n      0x00\n      dup1\n      revert\n    tag_71:\n      pop\n      tag_72\n      tag_73\n      jump\t// in\n    tag_72:\n      stop\n        /* \"UZHPancakeLottery.sol\":754:785  uint public NrticketsBought = 0 */\n    tag_15:\n      callvalue\n      dup1\n      iszero\n      tag_74\n      jumpi\n      0x00\n      dup1\n      revert\n    tag_74:\n      pop\n      tag_75\n      tag_76\n      jump\t// in\n    tag_75:\n      mload(0x40)\n      tag_77\n      swap2\n      swap1\n      tag_53\n      jump\t// in\n    tag_77:\n      mload(0x40)\n      dup1\n      swap2\n      sub\n      swap1\n      return\n        /* \"UZHPancakeLottery.sol\":7927:8520  function Pull() public onlyOwner {\r... */\n    tag_21:\n        /* \"UZHPancakeLottery.sol\":1252:1257  owner */\n      0x00\n      dup1\n      sload\n      swap1\n      0x0100\n      exp\n      swap1\n      div\n      0xffffffffffffffffffffffffffffffffffffffff\n      and\n        /* \"UZHPancakeLottery.sol\":1238:1257  msg.sender == owner */\n      0xffffffffffffffffffffffffffffffffffffffff\n      and\n        /* \"UZHPancakeLottery.sol\":1238:1248  msg.sender */\n      caller\n        /* \"UZHPancakeLottery.sol\":1238:1257  msg.sender == owner */\n      0xffffffffffffffffffffffffffffffffffffffff\n      and\n      eq\n        /* \"UZHPancakeLottery.sol\":1230:1300  require(msg.sender == owner, \"Only the owner can perform this action\") */\n      tag_79\n      jumpi\n      mload(0x40)\n      0x08c379a000000000000000000000000000000000000000000000000000000000\n      dup2\n      mstore\n      0x04\n      add\n      tag_80\n      swap1\n      tag_81\n      jump\t// in\n    tag_80:\n      mload(0x40)\n      dup1\n      swap2\n      sub\n      swap1\n      revert\n    tag_79:\n        /* \"UZHPancakeLottery.sol\":8050:8054  true */\n      0x01\n        /* \"UZHPancakeLottery.sol\":8032:8054  lotteryStarted == true */\n      iszero\n      iszero\n        /* \"UZHPancakeLottery.sol\":8032:8046  lotteryStarted */\n      0x07\n      0x00\n      swap1\n      sload\n      swap1\n      0x0100\n      exp\n      swap1\n      div\n      0xff\n      and\n        /* \"UZHPancakeLottery.sol\":8032:8054  lotteryStarted == true */\n      iszero\n      iszero\n      eq\n        /* \"UZHPancakeLottery.sol\":8024:8080  require(lotteryStarted == true, \"No lottery is running\") */\n      tag_83\n      jumpi\n      mload(0x40)\n      0x08c379a000000000000000000000000000000000000000000000000000000000\n      dup2\n      mstore\n      0x04\n      add\n      tag_84\n      swap1\n      tag_85\n      jump\t// in\n    tag_84:\n      mload(0x40)\n      dup1\n      swap2\n      sub\n      swap1\n      revert\n    tag_83:\n        /* \"UZHPancakeLottery.sol\":8153:8181  address payable ownerpayable */\n      0x00\n        /* \"UZHPancakeLottery.sol\":8192:8197  owner */\n      dup1\n      0x00\n      swap1\n      sload\n      swap1\n      0x0100\n      exp\n      swap1\n      div\n      0xffffffffffffffffffffffffffffffffffffffff\n      and\n        /* \"UZHPancakeLottery.sol\":8153:8198  address payable ownerpayable = payable(owner) */\n      swap1\n      pop\n        /* \"UZHPancakeLottery.sol\":8302:8303  0 */\n      0x00\n        /* \"UZHPancakeLottery.sol\":8284:8299  TotalLotteryPot */\n      sload(0x04)\n        /* \"UZHPancakeLottery.sol\":8284:8303  TotalLotteryPot > 0 */\n      gt\n        /* \"UZHPancakeLottery.sol\":8276:8328  require(TotalLotteryPot > 0, \"No Ether to pull out\") */\n      tag_86\n      jumpi\n      mload(0x40)\n      0x08c379a000000000000000000000000000000000000000000000000000000000\n      dup2\n      mstore\n      0x04\n      add\n      tag_87\n      swap1\n      tag_88\n      jump\t// in\n    tag_87:\n      mload(0x40)\n      dup1\n      swap2\n      sub\n      swap1\n      revert\n    tag_86:\n        /* \"UZHPancakeLottery.sol\":8397:8409  ownerpayable */\n      dup1\n        /* \"UZHPancakeLottery.sol\":8397:8418  ownerpayable.transfer */\n      0xffffffffffffffffffffffffffffffffffffffff\n      and\n        /* \"UZHPancakeLottery.sol\":8397:8435  ownerpayable.transfer(TotalLotteryPot) */\n      0x08fc\n        /* \"UZHPancakeLottery.sol\":8419:8434  TotalLotteryPot */\n      sload(0x04)\n        /* \"UZHPancakeLottery.sol\":8397:8435  ownerpayable.transfer(TotalLotteryPot) */\n      swap1\n      dup2\n      iszero\n      mul\n      swap1\n      mload(0x40)\n      0x00\n      mload(0x40)\n      dup1\n      dup4\n      sub\n      dup2\n      dup6\n      dup9\n      dup9\n      call\n      swap4\n      pop\n      pop\n      pop\n      pop\n      iszero\n      dup1\n      iszero\n      tag_90\n      jumpi\n      returndatasize\n      0x00\n      dup1\n      returndatacopy\n      revert(0x00, returndatasize)\n    tag_90:\n      pop\n        /* \"UZHPancakeLottery.sol\":8511:8512  0 */\n      0x00\n        /* \"UZHPancakeLottery.sol\":8493:8508  TotalLotteryPot */\n      0x04\n        /* \"UZHPancakeLottery.sol\":8493:8512  TotalLotteryPot = 0 */\n      dup2\n      swap1\n      sstore\n      pop\n        /* \"UZHPancakeLottery.sol\":7960:8520  {\r... */\n      pop\n        /* \"UZHPancakeLottery.sol\":7927:8520  function Pull() public onlyOwner {\r... */\n      jump\t// out\n        /* \"UZHPancakeLottery.sol\":2256:2783  function BeginLottery() public onlyOwner {\r... */\n    tag_24:\n        /* \"UZHPancakeLottery.sol\":1252:1257  owner */\n      0x00\n      dup1\n      sload\n      swap1\n      0x0100\n      exp\n      swap1\n      div\n      0xffffffffffffffffffffffffffffffffffffffff\n      and\n        /* \"UZHPancakeLottery.sol\":1238:1257  msg.sender == owner */\n      0xffffffffffffffffffffffffffffffffffffffff\n      and\n        /* \"UZHPancakeLottery.sol\":1238:1248  msg.sender */\n      caller\n        /* \"UZHPancakeLottery.sol\":1238:1257  msg.sender == owner */\n      0xffffffffffffffffffffffffffffffffffffffff\n      and\n      eq\n        /* \"UZHPancakeLottery.sol\":1230:1300  require(msg.sender == owner, \"Only the owner can perform this action\") */\n      tag_92\n      jumpi\n      mload(0x40)\n      0x08c379a000000000000000000000000000000000000000000000000000000000\n      dup2\n      mstore\n      0x04\n      add\n      tag_93\n      swap1\n      tag_81\n      jump\t// in\n    tag_93:\n      mload(0x40)\n      dup1\n      swap2\n      sub\n      swap1\n      revert\n    tag_92:\n        /* \"UZHPancakeLottery.sol\":2325:2329  true */\n      0x01\n        /* \"UZHPancakeLottery.sol\":2308:2322  lotteryStarted */\n      0x07\n      0x00\n        /* \"UZHPancakeLottery.sol\":2308:2329  lotteryStarted = true */\n      0x0100\n      exp\n      dup2\n      sload\n      dup2\n      0xff\n      mul\n      not\n      and\n      swap1\n      dup4\n      iszero\n      iszero\n      mul\n      or\n      swap1\n      sstore\n      pop\n        /* \"UZHPancakeLottery.sol\":2367:2368  6 */\n      0x06\n        /* \"UZHPancakeLottery.sol\":2356:2369  new uint[](6) */\n      0xffffffffffffffff\n      dup2\n      gt\n      iszero\n      tag_95\n      jumpi\n      tag_96\n      tag_97\n      jump\t// in\n    tag_96:\n    tag_95:\n      mload(0x40)\n      swap1\n      dup1\n      dup3\n      mstore\n      dup1\n      0x20\n      mul\n      0x20\n      add\n      dup3\n      add\n      0x40\n      mstore\n      dup1\n      iszero\n      tag_98\n      jumpi\n      dup2\n      0x20\n      add\n      0x20\n      dup3\n      mul\n      dup1\n      calldatasize\n      dup4\n      calldatacopy\n      dup1\n      dup3\n      add\n      swap2\n      pop\n      pop\n      swap1\n      pop\n    tag_98:\n      pop\n        /* \"UZHPancakeLottery.sol\":2340:2353  winningNumber */\n      0x01\n        /* \"UZHPancakeLottery.sol\":2340:2369  winningNumber = new uint[](6) */\n      swap1\n      dup1\n      mload\n      swap1\n      0x20\n      add\n      swap1\n      tag_99\n      swap3\n      swap2\n      swap1\n      tag_100\n      jump\t// in\n    tag_99:\n      pop\n        /* \"UZHPancakeLottery.sol\":2380:2392  uint counter */\n      0x00\n        /* \"UZHPancakeLottery.sol\":2485:2491  uint i */\n      dup1\n        /* \"UZHPancakeLottery.sol\":2480:2776  for (uint i = 0; i < 6; i++) {\r... */\n    tag_101:\n        /* \"UZHPancakeLottery.sol\":2501:2502  6 */\n      0x06\n        /* \"UZHPancakeLottery.sol\":2497:2498  i */\n      dup2\n        /* \"UZHPancakeLottery.sol\":2497:2502  i < 6 */\n      lt\n        /* \"UZHPancakeLottery.sol\":2480:2776  for (uint i = 0; i < 6; i++) {\r... */\n      iszero\n      tag_102\n      jumpi\n        /* \"UZHPancakeLottery.sol\":2524:2544  uint256 randomNumber */\n      0x00\n        /* \"UZHPancakeLottery.sol\":2624:2626  10 */\n      0x0a\n        /* \"UZHPancakeLottery.sol\":2582:2598  block.difficulty */\n      difficulty\n        /* \"UZHPancakeLottery.sol\":2600:2615  block.timestamp */\n      timestamp\n        /* \"UZHPancakeLottery.sol\":2617:2618  i */\n      dup5\n        /* \"UZHPancakeLottery.sol\":2565:2619  abi.encodePacked(block.difficulty, block.timestamp, i) */\n      add(0x20, mload(0x40))\n      tag_104\n      swap4\n      swap3\n      swap2\n      swap1\n      tag_105\n      jump\t// in\n    tag_104:\n      mload(0x40)\n      0x20\n      dup2\n      dup4\n      sub\n      sub\n      dup2\n      mstore\n      swap1\n      0x40\n      mstore\n        /* \"UZHPancakeLottery.sol\":2555:2620  keccak256(abi.encodePacked(block.difficulty, block.timestamp, i)) */\n      dup1\n      mload\n      swap1\n      0x20\n      add\n      keccak256\n        /* \"UZHPancakeLottery.sol\":2547:2621  uint256(keccak256(abi.encodePacked(block.difficulty, block.timestamp, i))) */\n      0x00\n      shr\n        /* \"UZHPancakeLottery.sol\":2547:2626  uint256(keccak256(abi.encodePacked(block.difficulty, block.timestamp, i))) % 10 */\n      tag_106\n      swap2\n      swap1\n      tag_107\n      jump\t// in\n    tag_106:\n        /* \"UZHPancakeLottery.sol\":2524:2626  uint256 randomNumber = uint256(keccak256(abi.encodePacked(block.difficulty, block.timestamp, i))) % 10 */\n      swap1\n      pop\n        /* \"UZHPancakeLottery.sol\":2661:2662  0 */\n      0x00\n        /* \"UZHPancakeLottery.sol\":2645:2657  randomNumber */\n      dup2\n        /* \"UZHPancakeLottery.sol\":2645:2662  randomNumber != 0 */\n      eq\n        /* \"UZHPancakeLottery.sol\":2641:2765  if (randomNumber != 0) {\r... */\n      tag_108\n      jumpi\n        /* \"UZHPancakeLottery.sol\":2708:2720  randomNumber */\n      dup1\n        /* \"UZHPancakeLottery.sol\":2683:2696  winningNumber */\n      0x01\n        /* \"UZHPancakeLottery.sol\":2697:2704  counter */\n      dup5\n        /* \"UZHPancakeLottery.sol\":2683:2705  winningNumber[counter] */\n      dup2\n      sload\n      dup2\n      lt\n      tag_109\n      jumpi\n      tag_110\n      tag_111\n      jump\t// in\n    tag_110:\n    tag_109:\n      swap1\n      0x00\n      mstore\n      keccak256(0x00, 0x20)\n      add\n        /* \"UZHPancakeLottery.sol\":2683:2720  winningNumber[counter] = randomNumber */\n      dup2\n      swap1\n      sstore\n      pop\n        /* \"UZHPancakeLottery.sol\":2740:2749  counter++ */\n      dup3\n      dup1\n      tag_113\n      swap1\n      tag_114\n      jump\t// in\n    tag_113:\n      swap4\n      pop\n      pop\n        /* \"UZHPancakeLottery.sol\":2641:2765  if (randomNumber != 0) {\r... */\n    tag_108:\n        /* \"UZHPancakeLottery.sol\":2509:2776  {\r... */\n      pop\n        /* \"UZHPancakeLottery.sol\":2504:2507  i++ */\n      dup1\n      dup1\n      tag_115\n      swap1\n      tag_114\n      jump\t// in\n    tag_115:\n      swap2\n      pop\n      pop\n        /* \"UZHPancakeLottery.sol\":2480:2776  for (uint i = 0; i < 6; i++) {\r... */\n      jump(tag_101)\n    tag_102:\n      pop\n        /* \"UZHPancakeLottery.sol\":2297:2783  {\r... */\n      pop\n        /* \"UZHPancakeLottery.sol\":2256:2783  function BeginLottery() public onlyOwner {\r... */\n      jump\t// out\n        /* \"UZHPancakeLottery.sol\":1380:1606  function changeTicketPrice(uint _price) public onlyOwner {\r... */\n    tag_29:\n        /* \"UZHPancakeLottery.sol\":1252:1257  owner */\n      0x00\n      dup1\n      sload\n      swap1\n      0x0100\n      exp\n      swap1\n      div\n      0xffffffffffffffffffffffffffffffffffffffff\n      and\n        /* \"UZHPancakeLottery.sol\":1238:1257  msg.sender == owner */\n      0xffffffffffffffffffffffffffffffffffffffff\n      and\n        /* \"UZHPancakeLottery.sol\":1238:1248  msg.sender */\n      caller\n        /* \"UZHPancakeLottery.sol\":1238:1257  msg.sender == owner */\n      0xffffffffffffffffffffffffffffffffffffffff\n      and\n      eq\n        /* \"UZHPancakeLottery.sol\":1230:1300  require(msg.sender == owner, \"Only the owner can perform this action\") */\n      tag_117\n      jumpi\n      mload(0x40)\n      0x08c379a000000000000000000000000000000000000000000000000000000000\n      dup2\n      mstore\n      0x04\n      add\n      tag_118\n      swap1\n      tag_81\n      jump\t// in\n    tag_118:\n      mload(0x40)\n      dup1\n      swap2\n      sub\n      swap1\n      revert\n    tag_117:\n        /* \"UZHPancakeLottery.sol\":1527:1532  false */\n      0x00\n        /* \"UZHPancakeLottery.sol\":1509:1532  lotteryStarted == false */\n      iszero\n      iszero\n        /* \"UZHPancakeLottery.sol\":1509:1523  lotteryStarted */\n      0x07\n      0x00\n      swap1\n      sload\n      swap1\n      0x0100\n      exp\n      swap1\n      div\n      0xff\n      and\n        /* \"UZHPancakeLottery.sol\":1509:1532  lotteryStarted == false */\n      iszero\n      iszero\n      eq\n        /* \"UZHPancakeLottery.sol\":1501:1557  require(lotteryStarted == false, \"A lottery is running\") */\n      tag_120\n      jumpi\n      mload(0x40)\n      0x08c379a000000000000000000000000000000000000000000000000000000000\n      dup2\n      mstore\n      0x04\n      add\n      tag_121\n      swap1\n      tag_122\n      jump\t// in\n    tag_121:\n      mload(0x40)\n      dup1\n      swap2\n      sub\n      swap1\n      revert\n    tag_120:\n        /* \"UZHPancakeLottery.sol\":1591:1598  1 ether */\n      0x0de0b6b3a7640000\n        /* \"UZHPancakeLottery.sol\":1582:1588  _price */\n      dup2\n        /* \"UZHPancakeLottery.sol\":1582:1598  _price * 1 ether */\n      tag_123\n      swap2\n      swap1\n      tag_124\n      jump\t// in\n    tag_123:\n        /* \"UZHPancakeLottery.sol\":1568:1579  ticketprice */\n      0x03\n        /* \"UZHPancakeLottery.sol\":1568:1598  ticketprice = _price * 1 ether */\n      dup2\n      swap1\n      sstore\n      pop\n        /* \"UZHPancakeLottery.sol\":1380:1606  function changeTicketPrice(uint _price) public onlyOwner {\r... */\n      pop\n      jump\t// out\n        /* \"UZHPancakeLottery.sol\":847:881  address [] public playersAddresses */\n    tag_33:\n      0x06\n      dup2\n      dup2\n      sload\n      dup2\n      lt\n      tag_125\n      jumpi\n      0x00\n      dup1\n      revert\n    tag_125:\n      swap1\n      0x00\n      mstore\n      keccak256(0x00, 0x20)\n      add\n      0x00\n      swap2\n      pop\n      sload\n      swap1\n      0x0100\n      exp\n      swap1\n      div\n      0xffffffffffffffffffffffffffffffffffffffff\n      and\n      dup2\n      jump\t// out\n        /* \"UZHPancakeLottery.sol\":2858:3142  function setWinningNumber(uint[] memory _winningNumber) public onlyOwner {\r... */\n    tag_40:\n        /* \"UZHPancakeLottery.sol\":1252:1257  owner */\n      0x00\n      dup1\n      sload\n      swap1\n      0x0100\n      exp\n      swap1\n      div\n      0xffffffffffffffffffffffffffffffffffffffff\n      and\n        /* \"UZHPancakeLottery.sol\":1238:1257  msg.sender == owner */\n      0xffffffffffffffffffffffffffffffffffffffff\n      and\n        /* \"UZHPancakeLottery.sol\":1238:1248  msg.sender */\n      caller\n        /* \"UZHPancakeLottery.sol\":1238:1257  msg.sender == owner */\n      0xffffffffffffffffffffffffffffffffffffffff\n      and\n      eq\n        /* \"UZHPancakeLottery.sol\":1230:1300  require(msg.sender == owner, \"Only the owner can perform this action\") */\n      tag_128\n      jumpi\n      mload(0x40)\n      0x08c379a000000000000000000000000000000000000000000000000000000000\n      dup2\n      mstore\n      0x04\n      add\n      tag_129\n      swap1\n      tag_81\n      jump\t// in\n    tag_129:\n      mload(0x40)\n      dup1\n      swap2\n      sub\n      swap1\n      revert\n    tag_128:\n        /* \"UZHPancakeLottery.sol\":2975:2976  6 */\n      0x06\n        /* \"UZHPancakeLottery.sol\":2950:2964  _winningNumber */\n      dup2\n        /* \"UZHPancakeLottery.sol\":2950:2971  _winningNumber.length */\n      mload\n        /* \"UZHPancakeLottery.sol\":2950:2976  _winningNumber.length == 6 */\n      eq\n        /* \"UZHPancakeLottery.sol\":2942:2977  require(_winningNumber.length == 6) */\n      tag_131\n      jumpi\n      0x00\n      dup1\n      revert\n    tag_131:\n        /* \"UZHPancakeLottery.sol\":2992:2998  uint i */\n      0x00\n        /* \"UZHPancakeLottery.sol\":2988:3094  for(uint i = 0; i < _winningNumber.length; i++) {\r... */\n    tag_132:\n        /* \"UZHPancakeLottery.sol\":3008:3022  _winningNumber */\n      dup2\n        /* \"UZHPancakeLottery.sol\":3008:3029  _winningNumber.length */\n      mload\n        /* \"UZHPancakeLottery.sol\":3004:3005  i */\n      dup2\n        /* \"UZHPancakeLottery.sol\":3004:3029  i < _winningNumber.length */\n      lt\n        /* \"UZHPancakeLottery.sol\":2988:3094  for(uint i = 0; i < _winningNumber.length; i++) {\r... */\n      iszero\n      tag_133\n      jumpi\n        /* \"UZHPancakeLottery.sol\":3080:3081  9 */\n      0x09\n        /* \"UZHPancakeLottery.sol\":3059:3073  _winningNumber */\n      dup3\n        /* \"UZHPancakeLottery.sol\":3074:3075  i */\n      dup3\n        /* \"UZHPancakeLottery.sol\":3059:3076  _winningNumber[i] */\n      dup2\n      mload\n      dup2\n      lt\n      tag_135\n      jumpi\n      tag_136\n      tag_111\n      jump\t// in\n    tag_136:\n    tag_135:\n      0x20\n      mul\n      0x20\n      add\n      add\n      mload\n        /* \"UZHPancakeLottery.sol\":3059:3081  _winningNumber[i] <= 9 */\n      gt\n      iszero\n        /* \"UZHPancakeLottery.sol\":3051:3082  require(_winningNumber[i] <= 9) */\n      tag_137\n      jumpi\n      0x00\n      dup1\n      revert\n    tag_137:\n        /* \"UZHPancakeLottery.sol\":3031:3034  i++ */\n      dup1\n      dup1\n      tag_138\n      swap1\n      tag_114\n      jump\t// in\n    tag_138:\n      swap2\n      pop\n      pop\n        /* \"UZHPancakeLottery.sol\":2988:3094  for(uint i = 0; i < _winningNumber.length; i++) {\r... */\n      jump(tag_132)\n    tag_133:\n      pop\n        /* \"UZHPancakeLottery.sol\":3120:3134  _winningNumber */\n      dup1\n        /* \"UZHPancakeLottery.sol\":3104:3117  winningNumber */\n      0x01\n        /* \"UZHPancakeLottery.sol\":3104:3134  winningNumber = _winningNumber */\n      swap1\n      dup1\n      mload\n      swap1\n      0x20\n      add\n      swap1\n      tag_139\n      swap3\n      swap2\n      swap1\n      tag_100\n      jump\t// in\n    tag_139:\n      pop\n        /* \"UZHPancakeLottery.sol\":2858:3142  function setWinningNumber(uint[] memory _winningNumber) public onlyOwner {\r... */\n      pop\n      jump\t// out\n        /* \"UZHPancakeLottery.sol\":944:978  bool public lotteryStarted = false */\n    tag_43:\n      0x07\n      0x00\n      swap1\n      sload\n      swap1\n      0x0100\n      exp\n      swap1\n      div\n      0xff\n      and\n      dup2\n      jump\t// out\n        /* \"UZHPancakeLottery.sol\":3515:4779  function buyTicket(uint[] memory ticketNumbers) public payable {\r... */\n    tag_48:\n        /* \"UZHPancakeLottery.sol\":3668:3672  true */\n      0x01\n        /* \"UZHPancakeLottery.sol\":3650:3672  lotteryStarted == true */\n      iszero\n      iszero\n        /* \"UZHPancakeLottery.sol\":3650:3664  lotteryStarted */\n      0x07\n      0x00\n      swap1\n      sload\n      swap1\n      0x0100\n      exp\n      swap1\n      div\n      0xff\n      and\n        /* \"UZHPancakeLottery.sol\":3650:3672  lotteryStarted == true */\n      iszero\n      iszero\n      eq\n        /* \"UZHPancakeLottery.sol\":3642:3698  require(lotteryStarted == true, \"No lottery is running\") */\n      tag_141\n      jumpi\n      mload(0x40)\n      0x08c379a000000000000000000000000000000000000000000000000000000000\n      dup2\n      mstore\n      0x04\n      add\n      tag_142\n      swap1\n      tag_85\n      jump\t// in\n    tag_142:\n      mload(0x40)\n      dup1\n      swap2\n      sub\n      swap1\n      revert\n    tag_141:\n        /* \"UZHPancakeLottery.sol\":3817:3828  ticketprice */\n      sload(0x03)\n        /* \"UZHPancakeLottery.sol\":3804:3813  msg.value */\n      callvalue\n        /* \"UZHPancakeLottery.sol\":3804:3828  msg.value == ticketprice */\n      eq\n        /* \"UZHPancakeLottery.sol\":3796:3845  require(msg.value == ticketprice, \"Wrong amount\") */\n      tag_143\n      jumpi\n      mload(0x40)\n      0x08c379a000000000000000000000000000000000000000000000000000000000\n      dup2\n      mstore\n      0x04\n      add\n      tag_144\n      swap1\n      tag_145\n      jump\t// in\n    tag_144:\n      mload(0x40)\n      dup1\n      swap2\n      sub\n      swap1\n      revert\n    tag_143:\n        /* \"UZHPancakeLottery.sol\":3947:3948  6 */\n      0x06\n        /* \"UZHPancakeLottery.sol\":3923:3936  ticketNumbers */\n      dup2\n        /* \"UZHPancakeLottery.sol\":3923:3943  ticketNumbers.length */\n      mload\n        /* \"UZHPancakeLottery.sol\":3923:3948  ticketNumbers.length == 6 */\n      eq\n        /* \"UZHPancakeLottery.sol\":3915:3976  require(ticketNumbers.length == 6, \"Wrong number of numbers\") */\n      tag_146\n      jumpi\n      mload(0x40)\n      0x08c379a000000000000000000000000000000000000000000000000000000000\n      dup2\n      mstore\n      0x04\n      add\n      tag_147\n      swap1\n      tag_148\n      jump\t// in\n    tag_147:\n      mload(0x40)\n      dup1\n      swap2\n      sub\n      swap1\n      revert\n    tag_146:\n        /* \"UZHPancakeLottery.sol\":4060:4066  uint i */\n      0x00\n        /* \"UZHPancakeLottery.sol\":4055:4201  for (uint i = 0; i < ticketNumbers.length; i++) {\r... */\n    tag_149:\n        /* \"UZHPancakeLottery.sol\":4076:4089  ticketNumbers */\n      dup2\n        /* \"UZHPancakeLottery.sol\":4076:4096  ticketNumbers.length */\n      mload\n        /* \"UZHPancakeLottery.sol\":4072:4073  i */\n      dup2\n        /* \"UZHPancakeLottery.sol\":4072:4096  i < ticketNumbers.length */\n      lt\n        /* \"UZHPancakeLottery.sol\":4055:4201  for (uint i = 0; i < ticketNumbers.length; i++) {\r... */\n      iszero\n      tag_150\n      jumpi\n        /* \"UZHPancakeLottery.sol\":4145:4147  10 */\n      0x0a\n        /* \"UZHPancakeLottery.sol\":4126:4139  ticketNumbers */\n      dup3\n        /* \"UZHPancakeLottery.sol\":4140:4141  i */\n      dup3\n        /* \"UZHPancakeLottery.sol\":4126:4142  ticketNumbers[i] */\n      dup2\n      mload\n      dup2\n      lt\n      tag_152\n      jumpi\n      tag_153\n      tag_111\n      jump\t// in\n    tag_153:\n    tag_152:\n      0x20\n      mul\n      0x20\n      add\n      add\n      mload\n        /* \"UZHPancakeLottery.sol\":4126:4147  ticketNumbers[i] < 10 */\n      lt\n        /* \"UZHPancakeLottery.sol\":4126:4172  ticketNumbers[i] < 10 && ticketNumbers[i] >= 0 */\n      dup1\n      iszero\n      tag_154\n      jumpi\n      pop\n        /* \"UZHPancakeLottery.sol\":4171:4172  0 */\n      0x00\n        /* \"UZHPancakeLottery.sol\":4151:4164  ticketNumbers */\n      dup3\n        /* \"UZHPancakeLottery.sol\":4165:4166  i */\n      dup3\n        /* \"UZHPancakeLottery.sol\":4151:4167  ticketNumbers[i] */\n      dup2\n      mload\n      dup2\n      lt\n      tag_155\n      jumpi\n      tag_156\n      tag_111\n      jump\t// in\n    tag_156:\n    tag_155:\n      0x20\n      mul\n      0x20\n      add\n      add\n      mload\n        /* \"UZHPancakeLottery.sol\":4151:4172  ticketNumbers[i] >= 0 */\n      lt\n      iszero\n        /* \"UZHPancakeLottery.sol\":4126:4172  ticketNumbers[i] < 10 && ticketNumbers[i] >= 0 */\n    tag_154:\n        /* \"UZHPancakeLottery.sol\":4118:4189  require(ticketNumbers[i] < 10 && ticketNumbers[i] >= 0, \"Wrong number\") */\n      tag_157\n      jumpi\n      mload(0x40)\n      0x08c379a000000000000000000000000000000000000000000000000000000000\n      dup2\n      mstore\n      0x04\n      add\n      tag_158\n      swap1\n      tag_159\n      jump\t// in\n    tag_158:\n      mload(0x40)\n      dup1\n      swap2\n      sub\n      swap1\n      revert\n    tag_157:\n        /* \"UZHPancakeLottery.sol\":4098:4101  i++ */\n      dup1\n      dup1\n      tag_160\n      swap1\n      tag_114\n      jump\t// in\n    tag_160:\n      swap2\n      pop\n      pop\n        /* \"UZHPancakeLottery.sol\":4055:4201  for (uint i = 0; i < ticketNumbers.length; i++) {\r... */\n      jump(tag_149)\n    tag_150:\n      pop\n        /* \"UZHPancakeLottery.sol\":4328:4329  0 */\n      0x00\n        /* \"UZHPancakeLottery.sol\":4291:4305  playersTickets */\n      0x02\n        /* \"UZHPancakeLottery.sol\":4291:4317  playersTickets[msg.sender] */\n      0x00\n        /* \"UZHPancakeLottery.sol\":4306:4316  msg.sender */\n      caller\n        /* \"UZHPancakeLottery.sol\":4291:4317  playersTickets[msg.sender] */\n      0xffffffffffffffffffffffffffffffffffffffff\n      and\n      0xffffffffffffffffffffffffffffffffffffffff\n      and\n      dup2\n      mstore\n      0x20\n      add\n      swap1\n      dup2\n      mstore\n      0x20\n      add\n      0x00\n      keccak256\n        /* \"UZHPancakeLottery.sol\":4291:4324  playersTickets[msg.sender].length */\n      dup1\n      sload\n      swap1\n      pop\n        /* \"UZHPancakeLottery.sol\":4291:4329  playersTickets[msg.sender].length == 0 */\n      eq\n        /* \"UZHPancakeLottery.sol\":4283:4366  require(playersTickets[msg.sender].length == 0, \"You have already bought a ticket\") */\n      tag_161\n      jumpi\n      mload(0x40)\n      0x08c379a000000000000000000000000000000000000000000000000000000000\n      dup2\n      mstore\n      0x04\n      add\n      tag_162\n      swap1\n      tag_163\n      jump\t// in\n    tag_162:\n      mload(0x40)\n      dup1\n      swap2\n      sub\n      swap1\n      revert\n    tag_161:\n        /* \"UZHPancakeLottery.sol\":4471:4484  ticketNumbers */\n      dup1\n        /* \"UZHPancakeLottery.sol\":4442:4456  playersTickets */\n      0x02\n        /* \"UZHPancakeLottery.sol\":4442:4468  playersTickets[msg.sender] */\n      0x00\n        /* \"UZHPancakeLottery.sol\":4457:4467  msg.sender */\n      caller\n        /* \"UZHPancakeLottery.sol\":4442:4468  playersTickets[msg.sender] */\n      0xffffffffffffffffffffffffffffffffffffffff\n      and\n      0xffffffffffffffffffffffffffffffffffffffff\n      and\n      dup2\n      mstore\n      0x20\n      add\n      swap1\n      dup2\n      mstore\n      0x20\n      add\n      0x00\n      keccak256\n        /* \"UZHPancakeLottery.sol\":4442:4484  playersTickets[msg.sender] = ticketNumbers */\n      swap1\n      dup1\n      mload\n      swap1\n      0x20\n      add\n      swap1\n      tag_164\n      swap3\n      swap2\n      swap1\n      tag_100\n      jump\t// in\n    tag_164:\n      pop\n        /* \"UZHPancakeLottery.sol\":4565:4581  playersAddresses */\n      0x06\n        /* \"UZHPancakeLottery.sol\":4587:4597  msg.sender */\n      caller\n        /* \"UZHPancakeLottery.sol\":4565:4598  playersAddresses.push(msg.sender) */\n      swap1\n      dup1\n      0x01\n      dup2\n      sload\n      add\n      dup1\n      dup3\n      sstore\n      dup1\n      swap2\n      pop\n      pop\n      0x01\n      swap1\n      sub\n      swap1\n      0x00\n      mstore\n      keccak256(0x00, 0x20)\n      add\n      0x00\n      swap1\n      swap2\n      swap1\n      swap2\n      swap1\n      swap2\n      0x0100\n      exp\n      dup2\n      sload\n      dup2\n      0xffffffffffffffffffffffffffffffffffffffff\n      mul\n      not\n      and\n      swap1\n      dup4\n      0xffffffffffffffffffffffffffffffffffffffff\n      and\n      mul\n      or\n      swap1\n      sstore\n      pop\n        /* \"UZHPancakeLottery.sol\":4686:4695  msg.value */\n      callvalue\n        /* \"UZHPancakeLottery.sol\":4667:4682  TotalLotteryPot */\n      0x04\n      0x00\n        /* \"UZHPancakeLottery.sol\":4667:4695  TotalLotteryPot += msg.value */\n      dup3\n      dup3\n      sload\n      tag_166\n      swap2\n      swap1\n      tag_167\n      jump\t// in\n    tag_166:\n      swap3\n      pop\n      pop\n      dup2\n      swap1\n      sstore\n      pop\n        /* \"UZHPancakeLottery.sol\":4770:4771  1 */\n      0x01\n        /* \"UZHPancakeLottery.sol\":4751:4766  NrticketsBought */\n      0x05\n      0x00\n        /* \"UZHPancakeLottery.sol\":4751:4771  NrticketsBought += 1 */\n      dup3\n      dup3\n      sload\n      tag_168\n      swap2\n      swap1\n      tag_167\n      jump\t// in\n    tag_168:\n      swap3\n      pop\n      pop\n      dup2\n      swap1\n      sstore\n      pop\n        /* \"UZHPancakeLottery.sol\":3515:4779  function buyTicket(uint[] memory ticketNumbers) public payable {\r... */\n      pop\n      jump\t// out\n        /* \"UZHPancakeLottery.sol\":1667:1887  function getTicketPrice() public view returns (uint) {\r... */\n    tag_51:\n        /* \"UZHPancakeLottery.sol\":1714:1718  uint */\n      0x00\n        /* \"UZHPancakeLottery.sol\":1810:1814  true */\n      0x01\n        /* \"UZHPancakeLottery.sol\":1792:1814  lotteryStarted == true */\n      iszero\n      iszero\n        /* \"UZHPancakeLottery.sol\":1792:1806  lotteryStarted */\n      0x07\n      0x00\n      swap1\n      sload\n      swap1\n      0x0100\n      exp\n      swap1\n      div\n      0xff\n      and\n        /* \"UZHPancakeLottery.sol\":1792:1814  lotteryStarted == true */\n      iszero\n      iszero\n      eq\n        /* \"UZHPancakeLottery.sol\":1784:1840  require(lotteryStarted == true, \"No lottery is running\") */\n      tag_170\n      jumpi\n      mload(0x40)\n      0x08c379a000000000000000000000000000000000000000000000000000000000\n      dup2\n      mstore\n      0x04\n      add\n      tag_171\n      swap1\n      tag_85\n      jump\t// in\n    tag_171:\n      mload(0x40)\n      dup1\n      swap2\n      sub\n      swap1\n      revert\n    tag_170:\n        /* \"UZHPancakeLottery.sol\":1872:1879  1 ether */\n      0x0de0b6b3a7640000\n        /* \"UZHPancakeLottery.sol\":1858:1869  ticketprice */\n      sload(0x03)\n        /* \"UZHPancakeLottery.sol\":1858:1879  ticketprice / 1 ether */\n      tag_172\n      swap2\n      swap1\n      tag_173\n      jump\t// in\n    tag_172:\n        /* \"UZHPancakeLottery.sol\":1851:1879  return ticketprice / 1 ether */\n      swap1\n      pop\n        /* \"UZHPancakeLottery.sol\":1667:1887  function getTicketPrice() public view returns (uint) {\r... */\n      swap1\n      jump\t// out\n        /* \"UZHPancakeLottery.sol\":1967:2195  function getTotalLotteryPot() public view returns (uint) {\r... */\n    tag_56:\n        /* \"UZHPancakeLottery.sol\":2018:2022  uint */\n      0x00\n        /* \"UZHPancakeLottery.sol\":2114:2118  true */\n      0x01\n        /* \"UZHPancakeLottery.sol\":2096:2118  lotteryStarted == true */\n      iszero\n      iszero\n        /* \"UZHPancakeLottery.sol\":2096:2110  lotteryStarted */\n      0x07\n      0x00\n      swap1\n      sload\n      swap1\n      0x0100\n      exp\n      swap1\n      div\n      0xff\n      and\n        /* \"UZHPancakeLottery.sol\":2096:2118  lotteryStarted == true */\n      iszero\n      iszero\n      eq\n        /* \"UZHPancakeLottery.sol\":2088:2144  require(lotteryStarted == true, \"No lottery is running\") */\n      tag_175\n      jumpi\n      mload(0x40)\n      0x08c379a000000000000000000000000000000000000000000000000000000000\n      dup2\n      mstore\n      0x04\n      add\n      tag_176\n      swap1\n      tag_85\n      jump\t// in\n    tag_176:\n      mload(0x40)\n      dup1\n      swap2\n      sub\n      swap1\n      revert\n    tag_175:\n        /* \"UZHPancakeLottery.sol\":2180:2187  1 ether */\n      0x0de0b6b3a7640000\n        /* \"UZHPancakeLottery.sol\":2162:2177  TotalLotteryPot */\n      sload(0x04)\n        /* \"UZHPancakeLottery.sol\":2162:2187  TotalLotteryPot / 1 ether */\n      tag_177\n      swap2\n      swap1\n      tag_173\n      jump\t// in\n    tag_177:\n        /* \"UZHPancakeLottery.sol\":2155:2187  return TotalLotteryPot / 1 ether */\n      swap1\n      pop\n        /* \"UZHPancakeLottery.sol\":1967:2195  function getTotalLotteryPot() public view returns (uint) {\r... */\n      swap1\n      jump\t// out\n        /* \"UZHPancakeLottery.sol\":3241:3474  function getWinningNumber() public view onlyOwner returns (uint[] memory) {\r... */\n    tag_60:\n        /* \"UZHPancakeLottery.sol\":3300:3313  uint[] memory */\n      0x60\n        /* \"UZHPancakeLottery.sol\":1252:1257  owner */\n      0x00\n      dup1\n      sload\n      swap1\n      0x0100\n      exp\n      swap1\n      div\n      0xffffffffffffffffffffffffffffffffffffffff\n      and\n        /* \"UZHPancakeLottery.sol\":1238:1257  msg.sender == owner */\n      0xffffffffffffffffffffffffffffffffffffffff\n      and\n        /* \"UZHPancakeLottery.sol\":1238:1248  msg.sender */\n      caller\n        /* \"UZHPancakeLottery.sol\":1238:1257  msg.sender == owner */\n      0xffffffffffffffffffffffffffffffffffffffff\n      and\n      eq\n        /* \"UZHPancakeLottery.sol\":1230:1300  require(msg.sender == owner, \"Only the owner can perform this action\") */\n      tag_179\n      jumpi\n      mload(0x40)\n      0x08c379a000000000000000000000000000000000000000000000000000000000\n      dup2\n      mstore\n      0x04\n      add\n      tag_180\n      swap1\n      tag_81\n      jump\t// in\n    tag_180:\n      mload(0x40)\n      dup1\n      swap2\n      sub\n      swap1\n      revert\n    tag_179:\n        /* \"UZHPancakeLottery.sol\":3405:3409  true */\n      0x01\n        /* \"UZHPancakeLottery.sol\":3387:3409  lotteryStarted == true */\n      iszero\n      iszero\n        /* \"UZHPancakeLottery.sol\":3387:3401  lotteryStarted */\n      0x07\n      0x00\n      swap1\n      sload\n      swap1\n      0x0100\n      exp\n      swap1\n      div\n      0xff\n      and\n        /* \"UZHPancakeLottery.sol\":3387:3409  lotteryStarted == true */\n      iszero\n      iszero\n      eq\n        /* \"UZHPancakeLottery.sol\":3379:3435  require(lotteryStarted == true, \"No lottery is running\") */\n      tag_182\n      jumpi\n      mload(0x40)\n      0x08c379a000000000000000000000000000000000000000000000000000000000\n      dup2\n      mstore\n      0x04\n      add\n      tag_183\n      swap1\n      tag_85\n      jump\t// in\n    tag_183:\n      mload(0x40)\n      dup1\n      swap2\n      sub\n      swap1\n      revert\n    tag_182:\n        /* \"UZHPancakeLottery.sol\":3453:3466  winningNumber */\n      0x01\n        /* \"UZHPancakeLottery.sol\":3446:3466  return winningNumber */\n      dup1\n      sload\n      dup1\n      0x20\n      mul\n      0x20\n      add\n      mload(0x40)\n      swap1\n      dup2\n      add\n      0x40\n      mstore\n      dup1\n      swap3\n      swap2\n      swap1\n      dup2\n      dup2\n      mstore\n      0x20\n      add\n      dup3\n      dup1\n      sload\n      dup1\n      iszero\n      tag_184\n      jumpi\n      0x20\n      mul\n      dup3\n      add\n      swap2\n      swap1\n      0x00\n      mstore\n      keccak256(0x00, 0x20)\n      swap1\n    tag_185:\n      dup2\n      sload\n      dup2\n      mstore\n      0x20\n      add\n      swap1\n      0x01\n      add\n      swap1\n      dup1\n      dup4\n      gt\n      tag_185\n      jumpi\n    tag_184:\n      pop\n      pop\n      pop\n      pop\n      pop\n      swap1\n      pop\n        /* \"UZHPancakeLottery.sol\":3241:3474  function getWinningNumber() public view onlyOwner returns (uint[] memory) {\r... */\n      swap1\n      jump\t// out\n        /* \"UZHPancakeLottery.sol\":335:355  address public owner */\n    tag_65:\n      0x00\n      dup1\n      sload\n      swap1\n      0x0100\n      exp\n      swap1\n      div\n      0xffffffffffffffffffffffffffffffffffffffff\n      and\n      dup2\n      jump\t// out\n        /* \"UZHPancakeLottery.sol\":4847:4965  function getMyTicketNumbers() public view returns (uint[] memory) {\r... */\n    tag_69:\n        /* \"UZHPancakeLottery.sol\":4898:4911  uint[] memory */\n      0x60\n        /* \"UZHPancakeLottery.sol\":4931:4945  playersTickets */\n      0x02\n        /* \"UZHPancakeLottery.sol\":4931:4957  playersTickets[msg.sender] */\n      0x00\n        /* \"UZHPancakeLottery.sol\":4946:4956  msg.sender */\n      caller\n        /* \"UZHPancakeLottery.sol\":4931:4957  playersTickets[msg.sender] */\n      0xffffffffffffffffffffffffffffffffffffffff\n      and\n      0xffffffffffffffffffffffffffffffffffffffff\n      and\n      dup2\n      mstore\n      0x20\n      add\n      swap1\n      dup2\n      mstore\n      0x20\n      add\n      0x00\n      keccak256\n        /* \"UZHPancakeLottery.sol\":4924:4957  return playersTickets[msg.sender] */\n      dup1\n      sload\n      dup1\n      0x20\n      mul\n      0x20\n      add\n      mload(0x40)\n      swap1\n      dup2\n      add\n      0x40\n      mstore\n      dup1\n      swap3\n      swap2\n      swap1\n      dup2\n      dup2\n      mstore\n      0x20\n      add\n      dup3\n      dup1\n      sload\n      dup1\n      iszero\n      tag_187\n      jumpi\n      0x20\n      mul\n      dup3\n      add\n      swap2\n      swap1\n      0x00\n      mstore\n      keccak256(0x00, 0x20)\n      swap1\n    tag_188:\n      dup2\n      sload\n      dup2\n      mstore\n      0x20\n      add\n      swap1\n      0x01\n      add\n      swap1\n      dup1\n      dup4\n      gt\n      tag_188\n      jumpi\n    tag_187:\n      pop\n      pop\n      pop\n      pop\n      pop\n      swap1\n      pop\n        /* \"UZHPancakeLottery.sol\":4847:4965  function getMyTicketNumbers() public view returns (uint[] memory) {\r... */\n      swap1\n      jump\t// out\n        /* \"UZHPancakeLottery.sol\":5014:7852  function EndLottery() public onlyOwner{\r... */\n    tag_73:\n        /* \"UZHPancakeLottery.sol\":1252:1257  owner */\n      0x00\n      dup1\n      sload\n      swap1\n      0x0100\n      exp\n      swap1\n      div\n      0xffffffffffffffffffffffffffffffffffffffff\n      and\n        /* \"UZHPancakeLottery.sol\":1238:1257  msg.sender == owner */\n      0xffffffffffffffffffffffffffffffffffffffff\n      and\n        /* \"UZHPancakeLottery.sol\":1238:1248  msg.sender */\n      caller\n        /* \"UZHPancakeLottery.sol\":1238:1257  msg.sender == owner */\n      0xffffffffffffffffffffffffffffffffffffffff\n      and\n      eq\n        /* \"UZHPancakeLottery.sol\":1230:1300  require(msg.sender == owner, \"Only the owner can perform this action\") */\n      tag_190\n      jumpi\n      mload(0x40)\n      0x08c379a000000000000000000000000000000000000000000000000000000000\n      dup2\n      mstore\n      0x04\n      add\n      tag_191\n      swap1\n      tag_81\n      jump\t// in\n    tag_191:\n      mload(0x40)\n      dup1\n      swap2\n      sub\n      swap1\n      revert\n    tag_190:\n        /* \"UZHPancakeLottery.sol\":5142:5146  true */\n      0x01\n        /* \"UZHPancakeLottery.sol\":5124:5146  lotteryStarted == true */\n      iszero\n      iszero\n        /* \"UZHPancakeLottery.sol\":5124:5138  lotteryStarted */\n      0x07\n      0x00\n      swap1\n      sload\n      swap1\n      0x0100\n      exp\n      swap1\n      div\n      0xff\n      and\n        /* \"UZHPancakeLottery.sol\":5124:5146  lotteryStarted == true */\n      iszero\n      iszero\n      eq\n        /* \"UZHPancakeLottery.sol\":5116:5172  require(lotteryStarted == true, \"No lottery is running\") */\n      tag_193\n      jumpi\n      mload(0x40)\n      0x08c379a000000000000000000000000000000000000000000000000000000000\n      dup2\n      mstore\n      0x04\n      add\n      tag_194\n      swap1\n      tag_85\n      jump\t// in\n    tag_194:\n      mload(0x40)\n      dup1\n      swap2\n      sub\n      swap1\n      revert\n    tag_193:\n        /* \"UZHPancakeLottery.sol\":5274:5275  0 */\n      0x00\n        /* \"UZHPancakeLottery.sol\":5256:5271  NrticketsBought */\n      sload(0x05)\n        /* \"UZHPancakeLottery.sol\":5256:5275  NrticketsBought > 0 */\n      gt\n        /* \"UZHPancakeLottery.sol\":5248:5297  require(NrticketsBought > 0, \"No ticket was bou\") */\n      tag_195\n      jumpi\n      mload(0x40)\n      0x08c379a000000000000000000000000000000000000000000000000000000000\n      dup2\n      mstore\n      0x04\n      add\n      tag_196\n      swap1\n      tag_197\n      jump\t// in\n    tag_196:\n      mload(0x40)\n      dup1\n      swap2\n      sub\n      swap1\n      revert\n    tag_195:\n        /* \"UZHPancakeLottery.sol\":5371:5395  uint firstMatchedNumbers */\n      0x00\n        /* \"UZHPancakeLottery.sol\":5505:5520  uint percentage */\n      dup1\n        /* \"UZHPancakeLottery.sol\":5590:5601  uint reward */\n      0x00\n        /* \"UZHPancakeLottery.sol\":5665:5681  uint totalreward */\n      dup1\n        /* \"UZHPancakeLottery.sol\":5728:5757  address payable playeraddress */\n      0x00\n        /* \"UZHPancakeLottery.sol\":5827:5833  uint i */\n      dup1\n        /* \"UZHPancakeLottery.sol\":5836:5837  0 */\n      0x00\n        /* \"UZHPancakeLottery.sol\":5827:5837  uint i = 0 */\n      swap1\n      pop\n        /* \"UZHPancakeLottery.sol\":5822:7607  for (uint i = 0; i < playersAddresses.length; i++) {   \r... */\n    tag_198:\n        /* \"UZHPancakeLottery.sol\":5843:5859  playersAddresses */\n      0x06\n        /* \"UZHPancakeLottery.sol\":5843:5866  playersAddresses.length */\n      dup1\n      sload\n      swap1\n      pop\n        /* \"UZHPancakeLottery.sol\":5839:5840  i */\n      dup2\n        /* \"UZHPancakeLottery.sol\":5839:5866  i < playersAddresses.length */\n      lt\n        /* \"UZHPancakeLottery.sol\":5822:7607  for (uint i = 0; i < playersAddresses.length; i++) {   \r... */\n      iszero\n      tag_199\n      jumpi\n        /* \"UZHPancakeLottery.sol\":5965:5971  uint j */\n      0x00\n        /* \"UZHPancakeLottery.sol\":5960:6326  for (uint j = 0; j < winningNumber.length; j++) {\r... */\n    tag_201:\n        /* \"UZHPancakeLottery.sol\":5981:5994  winningNumber */\n      0x01\n        /* \"UZHPancakeLottery.sol\":5981:6001  winningNumber.length */\n      dup1\n      sload\n      swap1\n      pop\n        /* \"UZHPancakeLottery.sol\":5977:5978  j */\n      dup2\n        /* \"UZHPancakeLottery.sol\":5977:6001  j < winningNumber.length */\n      lt\n        /* \"UZHPancakeLottery.sol\":5960:6326  for (uint j = 0; j < winningNumber.length; j++) {\r... */\n      iszero\n      tag_202\n      jumpi\n        /* \"UZHPancakeLottery.sol\":6175:6188  winningNumber */\n      0x01\n        /* \"UZHPancakeLottery.sol\":6189:6190  j */\n      dup2\n        /* \"UZHPancakeLottery.sol\":6175:6191  winningNumber[j] */\n      dup2\n      sload\n      dup2\n      lt\n      tag_204\n      jumpi\n      tag_205\n      tag_111\n      jump\t// in\n    tag_205:\n    tag_204:\n      swap1\n      0x00\n      mstore\n      keccak256(0x00, 0x20)\n      add\n      sload\n        /* \"UZHPancakeLottery.sol\":6133:6147  playersTickets */\n      0x02\n        /* \"UZHPancakeLottery.sol\":6133:6168  playersTickets[playersAddresses[i]] */\n      0x00\n        /* \"UZHPancakeLottery.sol\":6148:6164  playersAddresses */\n      0x06\n        /* \"UZHPancakeLottery.sol\":6165:6166  i */\n      dup6\n        /* \"UZHPancakeLottery.sol\":6148:6167  playersAddresses[i] */\n      dup2\n      sload\n      dup2\n      lt\n      tag_207\n      jumpi\n      tag_208\n      tag_111\n      jump\t// in\n    tag_208:\n    tag_207:\n      swap1\n      0x00\n      mstore\n      keccak256(0x00, 0x20)\n      add\n      0x00\n      swap1\n      sload\n      swap1\n      0x0100\n      exp\n      swap1\n      div\n      0xffffffffffffffffffffffffffffffffffffffff\n      and\n        /* \"UZHPancakeLottery.sol\":6133:6168  playersTickets[playersAddresses[i]] */\n      0xffffffffffffffffffffffffffffffffffffffff\n      and\n      0xffffffffffffffffffffffffffffffffffffffff\n      and\n      dup2\n      mstore\n      0x20\n      add\n      swap1\n      dup2\n      mstore\n      0x20\n      add\n      0x00\n      keccak256\n        /* \"UZHPancakeLottery.sol\":6169:6170  j */\n      dup3\n        /* \"UZHPancakeLottery.sol\":6133:6171  playersTickets[playersAddresses[i]][j] */\n      dup2\n      sload\n      dup2\n      lt\n      tag_210\n      jumpi\n      tag_211\n      tag_111\n      jump\t// in\n    tag_211:\n    tag_210:\n      swap1\n      0x00\n      mstore\n      keccak256(0x00, 0x20)\n      add\n      sload\n        /* \"UZHPancakeLottery.sol\":6133:6191  playersTickets[playersAddresses[i]][j] == winningNumber[j] */\n      eq\n        /* \"UZHPancakeLottery.sol\":6129:6311  if (playersTickets[playersAddresses[i]][j] == winningNumber[j]) {\r... */\n      iszero\n      tag_213\n      jumpi\n        /* \"UZHPancakeLottery.sol\":6216:6237  firstMatchedNumbers++ */\n      dup7\n      dup1\n      tag_214\n      swap1\n      tag_114\n      jump\t// in\n    tag_214:\n      swap8\n      pop\n      pop\n        /* \"UZHPancakeLottery.sol\":6129:6311  if (playersTickets[playersAddresses[i]][j] == winningNumber[j]) {\r... */\n      jump(tag_215)\n    tag_213:\n        /* \"UZHPancakeLottery.sol\":6286:6291  break */\n      jump(tag_202)\n        /* \"UZHPancakeLottery.sol\":6129:6311  if (playersTickets[playersAddresses[i]][j] == winningNumber[j]) {\r... */\n    tag_215:\n        /* \"UZHPancakeLottery.sol\":6003:6006  j++ */\n      dup1\n      dup1\n      tag_216\n      swap1\n      tag_114\n      jump\t// in\n    tag_216:\n      swap2\n      pop\n      pop\n        /* \"UZHPancakeLottery.sol\":5960:6326  for (uint j = 0; j < winningNumber.length; j++) {\r... */\n      jump(tag_201)\n    tag_202:\n      pop\n        /* \"UZHPancakeLottery.sol\":6407:6421  playersTickets */\n      0x02\n        /* \"UZHPancakeLottery.sol\":6407:6442  playersTickets[playersAddresses[i]] */\n      0x00\n        /* \"UZHPancakeLottery.sol\":6422:6438  playersAddresses */\n      0x06\n        /* \"UZHPancakeLottery.sol\":6439:6440  i */\n      dup4\n        /* \"UZHPancakeLottery.sol\":6422:6441  playersAddresses[i] */\n      dup2\n      sload\n      dup2\n      lt\n      tag_217\n      jumpi\n      tag_218\n      tag_111\n      jump\t// in\n    tag_218:\n    tag_217:\n      swap1\n      0x00\n      mstore\n      keccak256(0x00, 0x20)\n      add\n      0x00\n      swap1\n      sload\n      swap1\n      0x0100\n      exp\n      swap1\n      div\n      0xffffffffffffffffffffffffffffffffffffffff\n      and\n        /* \"UZHPancakeLottery.sol\":6407:6442  playersTickets[playersAddresses[i]] */\n      0xffffffffffffffffffffffffffffffffffffffff\n      and\n      0xffffffffffffffffffffffffffffffffffffffff\n      and\n      dup2\n      mstore\n      0x20\n      add\n      swap1\n      dup2\n      mstore\n      0x20\n      add\n      0x00\n      keccak256\n      0x00\n        /* \"UZHPancakeLottery.sol\":6400:6442  delete playersTickets[playersAddresses[i]] */\n      tag_220\n      swap2\n      swap1\n      tag_221\n      jump\t// in\n    tag_220:\n        /* \"UZHPancakeLottery.sol\":6569:6570  1 */\n      0x01\n        /* \"UZHPancakeLottery.sol\":6546:6565  firstMatchedNumbers */\n      dup7\n        /* \"UZHPancakeLottery.sol\":6546:6570  firstMatchedNumbers == 1 */\n      eq\n        /* \"UZHPancakeLottery.sol\":6542:7049  if (firstMatchedNumbers == 1) {\r... */\n      iszero\n      tag_222\n      jumpi\n        /* \"UZHPancakeLottery.sol\":6604:6605  2 */\n      0x02\n        /* \"UZHPancakeLottery.sol\":6591:6605  percentage = 2 */\n      swap5\n      pop\n        /* \"UZHPancakeLottery.sol\":6542:7049  if (firstMatchedNumbers == 1) {\r... */\n      jump(tag_223)\n    tag_222:\n        /* \"UZHPancakeLottery.sol\":6654:6655  2 */\n      0x02\n        /* \"UZHPancakeLottery.sol\":6631:6650  firstMatchedNumbers */\n      dup7\n        /* \"UZHPancakeLottery.sol\":6631:6655  firstMatchedNumbers == 2 */\n      eq\n        /* \"UZHPancakeLottery.sol\":6627:7049  if (firstMatchedNumbers == 2) {\r... */\n      iszero\n      tag_224\n      jumpi\n        /* \"UZHPancakeLottery.sol\":6689:6690  3 */\n      0x03\n        /* \"UZHPancakeLottery.sol\":6676:6690  percentage = 3 */\n      swap5\n      pop\n        /* \"UZHPancakeLottery.sol\":6627:7049  if (firstMatchedNumbers == 2) {\r... */\n      jump(tag_225)\n    tag_224:\n        /* \"UZHPancakeLottery.sol\":6739:6740  3 */\n      0x03\n        /* \"UZHPancakeLottery.sol\":6716:6735  firstMatchedNumbers */\n      dup7\n        /* \"UZHPancakeLottery.sol\":6716:6740  firstMatchedNumbers == 3 */\n      eq\n        /* \"UZHPancakeLottery.sol\":6712:7049  if (firstMatchedNumbers == 3) {\r... */\n      iszero\n      tag_226\n      jumpi\n        /* \"UZHPancakeLottery.sol\":6774:6775  5 */\n      0x05\n        /* \"UZHPancakeLottery.sol\":6761:6775  percentage = 5 */\n      swap5\n      pop\n        /* \"UZHPancakeLottery.sol\":6712:7049  if (firstMatchedNumbers == 3) {\r... */\n      jump(tag_227)\n    tag_226:\n        /* \"UZHPancakeLottery.sol\":6824:6825  4 */\n      0x04\n        /* \"UZHPancakeLottery.sol\":6801:6820  firstMatchedNumbers */\n      dup7\n        /* \"UZHPancakeLottery.sol\":6801:6825  firstMatchedNumbers == 4 */\n      eq\n        /* \"UZHPancakeLottery.sol\":6797:7049  if (firstMatchedNumbers == 4) {\r... */\n      iszero\n      tag_228\n      jumpi\n        /* \"UZHPancakeLottery.sol\":6859:6861  10 */\n      0x0a\n        /* \"UZHPancakeLottery.sol\":6846:6861  percentage = 10 */\n      swap5\n      pop\n        /* \"UZHPancakeLottery.sol\":6797:7049  if (firstMatchedNumbers == 4) {\r... */\n      jump(tag_229)\n    tag_228:\n        /* \"UZHPancakeLottery.sol\":6910:6911  5 */\n      0x05\n        /* \"UZHPancakeLottery.sol\":6887:6906  firstMatchedNumbers */\n      dup7\n        /* \"UZHPancakeLottery.sol\":6887:6911  firstMatchedNumbers == 5 */\n      eq\n        /* \"UZHPancakeLottery.sol\":6883:7049  if (firstMatchedNumbers == 5) {\r... */\n      iszero\n      tag_230\n      jumpi\n        /* \"UZHPancakeLottery.sol\":6945:6947  20 */\n      0x14\n        /* \"UZHPancakeLottery.sol\":6932:6947  percentage = 20 */\n      swap5\n      pop\n        /* \"UZHPancakeLottery.sol\":6883:7049  if (firstMatchedNumbers == 5) {\r... */\n      jump(tag_231)\n    tag_230:\n        /* \"UZHPancakeLottery.sol\":6996:6997  6 */\n      0x06\n        /* \"UZHPancakeLottery.sol\":6973:6992  firstMatchedNumbers */\n      dup7\n        /* \"UZHPancakeLottery.sol\":6973:6997  firstMatchedNumbers == 6 */\n      eq\n        /* \"UZHPancakeLottery.sol\":6969:7049  if (firstMatchedNumbers == 6) {\r... */\n      iszero\n      tag_232\n      jumpi\n        /* \"UZHPancakeLottery.sol\":7031:7033  40 */\n      0x28\n        /* \"UZHPancakeLottery.sol\":7018:7033  percentage = 40 */\n      swap5\n      pop\n        /* \"UZHPancakeLottery.sol\":6969:7049  if (firstMatchedNumbers == 6) {\r... */\n    tag_232:\n        /* \"UZHPancakeLottery.sol\":6883:7049  if (firstMatchedNumbers == 5) {\r... */\n    tag_231:\n        /* \"UZHPancakeLottery.sol\":6797:7049  if (firstMatchedNumbers == 4) {\r... */\n    tag_229:\n        /* \"UZHPancakeLottery.sol\":6712:7049  if (firstMatchedNumbers == 3) {\r... */\n    tag_227:\n        /* \"UZHPancakeLottery.sol\":6627:7049  if (firstMatchedNumbers == 2) {\r... */\n    tag_225:\n        /* \"UZHPancakeLottery.sol\":6542:7049  if (firstMatchedNumbers == 1) {\r... */\n    tag_223:\n        /* \"UZHPancakeLottery.sol\":7146:7149  100 */\n      0x64\n        /* \"UZHPancakeLottery.sol\":7132:7142  percentage */\n      dup6\n        /* \"UZHPancakeLottery.sol\":7114:7129  TotalLotteryPot */\n      sload(0x04)\n        /* \"UZHPancakeLottery.sol\":7114:7142  TotalLotteryPot * percentage */\n      tag_233\n      swap2\n      swap1\n      tag_124\n      jump\t// in\n    tag_233:\n        /* \"UZHPancakeLottery.sol\":7113:7149  (TotalLotteryPot * percentage) / 100 */\n      tag_234\n      swap2\n      swap1\n      tag_173\n      jump\t// in\n    tag_234:\n        /* \"UZHPancakeLottery.sol\":7104:7149  reward = (TotalLotteryPot * percentage) / 100 */\n      swap4\n      pop\n        /* \"UZHPancakeLottery.sol\":7233:7239  reward */\n      dup4\n        /* \"UZHPancakeLottery.sol\":7218:7239  totalreward += reward */\n      dup4\n      tag_235\n      swap2\n      swap1\n      tag_167\n      jump\t// in\n    tag_235:\n      swap3\n      pop\n        /* \"UZHPancakeLottery.sol\":7344:7360  playersAddresses */\n      0x06\n        /* \"UZHPancakeLottery.sol\":7361:7362  i */\n      dup2\n        /* \"UZHPancakeLottery.sol\":7344:7363  playersAddresses[i] */\n      dup2\n      sload\n      dup2\n      lt\n      tag_236\n      jumpi\n      tag_237\n      tag_111\n      jump\t// in\n    tag_237:\n    tag_236:\n      swap1\n      0x00\n      mstore\n      keccak256(0x00, 0x20)\n      add\n      0x00\n      swap1\n      sload\n      swap1\n      0x0100\n      exp\n      swap1\n      div\n      0xffffffffffffffffffffffffffffffffffffffff\n      and\n        /* \"UZHPancakeLottery.sol\":7320:7364  playeraddress = payable(playersAddresses[i]) */\n      swap2\n      pop\n        /* \"UZHPancakeLottery.sol\":7433:7446  playeraddress */\n      dup2\n        /* \"UZHPancakeLottery.sol\":7433:7455  playeraddress.transfer */\n      0xffffffffffffffffffffffffffffffffffffffff\n      and\n        /* \"UZHPancakeLottery.sol\":7433:7463  playeraddress.transfer(reward) */\n      0x08fc\n        /* \"UZHPancakeLottery.sol\":7456:7462  reward */\n      dup6\n        /* \"UZHPancakeLottery.sol\":7433:7463  playeraddress.transfer(reward) */\n      swap1\n      dup2\n      iszero\n      mul\n      swap1\n      mload(0x40)\n      0x00\n      mload(0x40)\n      dup1\n      dup4\n      sub\n      dup2\n      dup6\n      dup9\n      dup9\n      call\n      swap4\n      pop\n      pop\n      pop\n      pop\n      iszero\n      dup1\n      iszero\n      tag_240\n      jumpi\n      returndatasize\n      0x00\n      dup1\n      returndatacopy\n      revert(0x00, returndatasize)\n    tag_240:\n      pop\n        /* \"UZHPancakeLottery.sol\":7540:7541  0 */\n      0x00\n        /* \"UZHPancakeLottery.sol\":7518:7541  firstMatchedNumbers = 0 */\n      swap6\n      pop\n        /* \"UZHPancakeLottery.sol\":7569:7570  0 */\n      0x00\n        /* \"UZHPancakeLottery.sol\":7556:7570  percentage = 0 */\n      swap5\n      pop\n        /* \"UZHPancakeLottery.sol\":7594:7595  0 */\n      0x00\n        /* \"UZHPancakeLottery.sol\":7585:7595  reward = 0 */\n      swap4\n      pop\n        /* \"UZHPancakeLottery.sol\":5868:5871  i++ */\n      dup1\n      dup1\n      tag_241\n      swap1\n      tag_114\n      jump\t// in\n    tag_241:\n      swap2\n      pop\n      pop\n        /* \"UZHPancakeLottery.sol\":5822:7607  for (uint i = 0; i < playersAddresses.length; i++) {   \r... */\n      jump(tag_198)\n    tag_199:\n      pop\n        /* \"UZHPancakeLottery.sol\":7677:7678  0 */\n      0x00\n        /* \"UZHPancakeLottery.sol\":7659:7674  NrticketsBought */\n      0x05\n        /* \"UZHPancakeLottery.sol\":7659:7678  NrticketsBought = 0 */\n      dup2\n      swap1\n      sstore\n      pop\n        /* \"UZHPancakeLottery.sol\":7708:7719  totalreward */\n      dup2\n        /* \"UZHPancakeLottery.sol\":7689:7704  TotalLotteryPot */\n      0x04\n      0x00\n        /* \"UZHPancakeLottery.sol\":7689:7719  TotalLotteryPot -= totalreward */\n      dup3\n      dup3\n      sload\n      tag_242\n      swap2\n      swap1\n      tag_243\n      jump\t// in\n    tag_242:\n      swap3\n      pop\n      pop\n      dup2\n      swap1\n      sstore\n      pop\n        /* \"UZHPancakeLottery.sol\":7763:7764  0 */\n      0x00\n        /* \"UZHPancakeLottery.sol\":7749:7765  new address[](0) */\n      0xffffffffffffffff\n      dup2\n      gt\n      iszero\n      tag_244\n      jumpi\n      tag_245\n      tag_97\n      jump\t// in\n    tag_245:\n    tag_244:\n      mload(0x40)\n      swap1\n      dup1\n      dup3\n      mstore\n      dup1\n      0x20\n      mul\n      0x20\n      add\n      dup3\n      add\n      0x40\n      mstore\n      dup1\n      iszero\n      tag_246\n      jumpi\n      dup2\n      0x20\n      add\n      0x20\n      dup3\n      mul\n      dup1\n      calldatasize\n      dup4\n      calldatacopy\n      dup1\n      dup3\n      add\n      swap2\n      pop\n      pop\n      swap1\n      pop\n    tag_246:\n      pop\n        /* \"UZHPancakeLottery.sol\":7730:7746  playersAddresses */\n      0x06\n        /* \"UZHPancakeLottery.sol\":7730:7765  playersAddresses = new address[](0) */\n      swap1\n      dup1\n      mload\n      swap1\n      0x20\n      add\n      swap1\n      tag_247\n      swap3\n      swap2\n      swap1\n      tag_248\n      jump\t// in\n    tag_247:\n      pop\n        /* \"UZHPancakeLottery.sol\":7808:7809  0 */\n      0x00\n        /* \"UZHPancakeLottery.sol\":7776:7811  playeraddress = payable(address(0)) */\n      swap1\n      pop\n        /* \"UZHPancakeLottery.sol\":7839:7844  false */\n      0x00\n        /* \"UZHPancakeLottery.sol\":7822:7836  lotteryStarted */\n      0x07\n      0x00\n        /* \"UZHPancakeLottery.sol\":7822:7844  lotteryStarted = false */\n      0x0100\n      exp\n      dup2\n      sload\n      dup2\n      0xff\n      mul\n      not\n      and\n      swap1\n      dup4\n      iszero\n      iszero\n      mul\n      or\n      swap1\n      sstore\n      pop\n        /* \"UZHPancakeLottery.sol\":5052:7852  {\r... */\n      pop\n      pop\n      pop\n      pop\n      pop\n        /* \"UZHPancakeLottery.sol\":5014:7852  function EndLottery() public onlyOwner{\r... */\n      jump\t// out\n        /* \"UZHPancakeLottery.sol\":754:785  uint public NrticketsBought = 0 */\n    tag_76:\n      sload(0x05)\n      dup2\n      jump\t// out\n    tag_100:\n      dup3\n      dup1\n      sload\n      dup3\n      dup3\n      sstore\n      swap1\n      0x00\n      mstore\n      keccak256(0x00, 0x20)\n      swap1\n      dup2\n      add\n      swap3\n      dup3\n      iszero\n      tag_249\n      jumpi\n      swap2\n      0x20\n      mul\n      dup3\n      add\n    tag_250:\n      dup3\n      dup2\n      gt\n      iszero\n      tag_251\n      jumpi\n      dup3\n      mload\n      dup3\n      sstore\n      swap2\n      0x20\n      add\n      swap2\n      swap1\n      0x01\n      add\n      swap1\n      jump(tag_250)\n    tag_251:\n    tag_249:\n      pop\n      swap1\n      pop\n      tag_252\n      swap2\n      swap1\n      tag_253\n      jump\t// in\n    tag_252:\n      pop\n      swap1\n      jump\t// out\n    tag_221:\n      pop\n      dup1\n      sload\n      0x00\n      dup3\n      sstore\n      swap1\n      0x00\n      mstore\n      keccak256(0x00, 0x20)\n      swap1\n      dup2\n      add\n      swap1\n      tag_255\n      swap2\n      swap1\n      tag_253\n      jump\t// in\n    tag_255:\n      pop\n      jump\t// out\n    tag_248:\n      dup3\n      dup1\n      sload\n      dup3\n      dup3\n      sstore\n      swap1\n      0x00\n      mstore\n      keccak256(0x00, 0x20)\n      swap1\n      dup2\n      add\n      swap3\n      dup3\n      iszero\n      tag_256\n      jumpi\n      swap2\n      0x20\n      mul\n      dup3\n      add\n    tag_257:\n      dup3\n      dup2\n      gt\n      iszero\n      tag_258\n      jumpi\n      dup3\n      mload\n      dup3\n      exp(0x0100, 0x00)\n      dup2\n      sload\n      dup2\n      0xffffffffffffffffffffffffffffffffffffffff\n      mul\n      not\n      and\n      swap1\n      dup4\n      0xffffffffffffffffffffffffffffffffffffffff\n      and\n      mul\n      or\n      swap1\n      sstore\n      pop\n      swap2\n      0x20\n      add\n      swap2\n      swap1\n      0x01\n      add\n      swap1\n      jump(tag_257)\n    tag_258:\n    tag_256:\n      pop\n      swap1\n      pop\n      tag_259\n      swap2\n      swap1\n      tag_253\n      jump\t// in\n    tag_259:\n      pop\n      swap1\n      jump\t// out\n    tag_253:\n    tag_260:\n      dup1\n      dup3\n      gt\n      iszero\n      tag_261\n      jumpi\n      0x00\n      dup2\n      0x00\n      swap1\n      sstore\n      pop\n      0x01\n      add\n      jump(tag_260)\n    tag_261:\n      pop\n      swap1\n      jump\t// out\n        /* \"#utility.yul\":24:746   */\n    tag_263:\n        /* \"#utility.yul\":120:125   */\n      0x00\n        /* \"#utility.yul\":145:226   */\n      tag_265\n        /* \"#utility.yul\":161:225   */\n      tag_266\n        /* \"#utility.yul\":218:224   */\n      dup5\n        /* \"#utility.yul\":161:225   */\n      tag_267\n      jump\t// in\n    tag_266:\n        /* \"#utility.yul\":145:226   */\n      tag_268\n      jump\t// in\n    tag_265:\n        /* \"#utility.yul\":136:226   */\n      swap1\n      pop\n        /* \"#utility.yul\":246:251   */\n      dup1\n        /* \"#utility.yul\":275:281   */\n      dup4\n        /* \"#utility.yul\":268:273   */\n      dup3\n        /* \"#utility.yul\":261:282   */\n      mstore\n        /* \"#utility.yul\":309:313   */\n      0x20\n        /* \"#utility.yul\":302:307   */\n      dup3\n        /* \"#utility.yul\":298:314   */\n      add\n        /* \"#utility.yul\":291:314   */\n      swap1\n      pop\n        /* \"#utility.yul\":335:341   */\n      dup3\n        /* \"#utility.yul\":385:388   */\n      dup6\n        /* \"#utility.yul\":377:381   */\n      0x20\n        /* \"#utility.yul\":369:375   */\n      dup7\n        /* \"#utility.yul\":365:382   */\n      mul\n        /* \"#utility.yul\":360:363   */\n      dup3\n        /* \"#utility.yul\":356:383   */\n      add\n        /* \"#utility.yul\":353:389   */\n      gt\n        /* \"#utility.yul\":350:493   */\n      iszero\n      tag_269\n      jumpi\n        /* \"#utility.yul\":404:483   */\n      tag_270\n      tag_271\n      jump\t// in\n    tag_270:\n        /* \"#utility.yul\":350:493   */\n    tag_269:\n        /* \"#utility.yul\":517:518   */\n      0x00\n        /* \"#utility.yul\":502:740   */\n    tag_272:\n        /* \"#utility.yul\":527:533   */\n      dup6\n        /* \"#utility.yul\":524:525   */\n      dup2\n        /* \"#utility.yul\":521:534   */\n      lt\n        /* \"#utility.yul\":502:740   */\n      iszero\n      tag_274\n      jumpi\n        /* \"#utility.yul\":595:598   */\n      dup2\n        /* \"#utility.yul\":624:661   */\n      tag_275\n        /* \"#utility.yul\":657:660   */\n      dup9\n        /* \"#utility.yul\":645:655   */\n      dup3\n        /* \"#utility.yul\":624:661   */\n      tag_276\n      jump\t// in\n    tag_275:\n        /* \"#utility.yul\":619:622   */\n      dup5\n        /* \"#utility.yul\":612:662   */\n      mstore\n        /* \"#utility.yul\":691:695   */\n      0x20\n        /* \"#utility.yul\":686:689   */\n      dup5\n        /* \"#utility.yul\":682:696   */\n      add\n        /* \"#utility.yul\":675:696   */\n      swap4\n      pop\n        /* \"#utility.yul\":725:729   */\n      0x20\n        /* \"#utility.yul\":720:723   */\n      dup4\n        /* \"#utility.yul\":716:730   */\n      add\n        /* \"#utility.yul\":709:730   */\n      swap3\n      pop\n        /* \"#utility.yul\":562:740   */\n      pop\n        /* \"#utility.yul\":549:550   */\n      0x01\n        /* \"#utility.yul\":546:547   */\n      dup2\n        /* \"#utility.yul\":542:551   */\n      add\n        /* \"#utility.yul\":537:551   */\n      swap1\n      pop\n        /* \"#utility.yul\":502:740   */\n      jump(tag_272)\n    tag_274:\n        /* \"#utility.yul\":506:520   */\n      pop\n        /* \"#utility.yul\":126:746   */\n      pop\n      pop\n        /* \"#utility.yul\":24:746   */\n      swap4\n      swap3\n      pop\n      pop\n      pop\n      jump\t// out\n        /* \"#utility.yul\":769:1139   */\n    tag_277:\n        /* \"#utility.yul\":840:845   */\n      0x00\n        /* \"#utility.yul\":889:892   */\n      dup3\n        /* \"#utility.yul\":882:886   */\n      0x1f\n        /* \"#utility.yul\":874:880   */\n      dup4\n        /* \"#utility.yul\":870:887   */\n      add\n        /* \"#utility.yul\":866:893   */\n      slt\n        /* \"#utility.yul\":856:978   */\n      tag_279\n      jumpi\n        /* \"#utility.yul\":897:976   */\n      tag_280\n      tag_281\n      jump\t// in\n    tag_280:\n        /* \"#utility.yul\":856:978   */\n    tag_279:\n        /* \"#utility.yul\":1014:1020   */\n      dup2\n        /* \"#utility.yul\":1001:1021   */\n      calldataload\n        /* \"#utility.yul\":1039:1133   */\n      tag_282\n        /* \"#utility.yul\":1129:1132   */\n      dup5\n        /* \"#utility.yul\":1121:1127   */\n      dup3\n        /* \"#utility.yul\":1114:1118   */\n      0x20\n        /* \"#utility.yul\":1106:1112   */\n      dup7\n        /* \"#utility.yul\":1102:1119   */\n      add\n        /* \"#utility.yul\":1039:1133   */\n      tag_263\n      jump\t// in\n    tag_282:\n        /* \"#utility.yul\":1030:1133   */\n      swap2\n      pop\n        /* \"#utility.yul\":846:1139   */\n      pop\n        /* \"#utility.yul\":769:1139   */\n      swap3\n      swap2\n      pop\n      pop\n      jump\t// out\n        /* \"#utility.yul\":1145:1284   */\n    tag_276:\n        /* \"#utility.yul\":1191:1196   */\n      0x00\n        /* \"#utility.yul\":1229:1235   */\n      dup2\n        /* \"#utility.yul\":1216:1236   */\n      calldataload\n        /* \"#utility.yul\":1207:1236   */\n      swap1\n      pop\n        /* \"#utility.yul\":1245:1278   */\n      tag_284\n        /* \"#utility.yul\":1272:1277   */\n      dup2\n        /* \"#utility.yul\":1245:1278   */\n      tag_285\n      jump\t// in\n    tag_284:\n        /* \"#utility.yul\":1145:1284   */\n      swap3\n      swap2\n      pop\n      pop\n      jump\t// out\n        /* \"#utility.yul\":1290:1829   */\n    tag_39:\n        /* \"#utility.yul\":1374:1380   */\n      0x00\n        /* \"#utility.yul\":1423:1425   */\n      0x20\n        /* \"#utility.yul\":1411:1420   */\n      dup3\n        /* \"#utility.yul\":1402:1409   */\n      dup5\n        /* \"#utility.yul\":1398:1421   */\n      sub\n        /* \"#utility.yul\":1394:1426   */\n      slt\n        /* \"#utility.yul\":1391:1510   */\n      iszero\n      tag_287\n      jumpi\n        /* \"#utility.yul\":1429:1508   */\n      tag_288\n      tag_289\n      jump\t// in\n    tag_288:\n        /* \"#utility.yul\":1391:1510   */\n    tag_287:\n        /* \"#utility.yul\":1577:1578   */\n      0x00\n        /* \"#utility.yul\":1566:1575   */\n      dup3\n        /* \"#utility.yul\":1562:1579   */\n      add\n        /* \"#utility.yul\":1549:1580   */\n      calldataload\n        /* \"#utility.yul\":1607:1625   */\n      0xffffffffffffffff\n        /* \"#utility.yul\":1599:1605   */\n      dup2\n        /* \"#utility.yul\":1596:1626   */\n      gt\n        /* \"#utility.yul\":1593:1710   */\n      iszero\n      tag_290\n      jumpi\n        /* \"#utility.yul\":1629:1708   */\n      tag_291\n      tag_292\n      jump\t// in\n    tag_291:\n        /* \"#utility.yul\":1593:1710   */\n    tag_290:\n        /* \"#utility.yul\":1734:1812   */\n      tag_293\n        /* \"#utility.yul\":1804:1811   */\n      dup5\n        /* \"#utility.yul\":1795:1801   */\n      dup3\n        /* \"#utility.yul\":1784:1793   */\n      dup6\n        /* \"#utility.yul\":1780:1802   */\n      add\n        /* \"#utility.yul\":1734:1812   */\n      tag_277\n      jump\t// in\n    tag_293:\n        /* \"#utility.yul\":1724:1812   */\n      swap2\n      pop\n        /* \"#utility.yul\":1520:1822   */\n      pop\n        /* \"#utility.yul\":1290:1829   */\n      swap3\n      swap2\n      pop\n      pop\n      jump\t// out\n        /* \"#utility.yul\":1835:2164   */\n    tag_28:\n        /* \"#utility.yul\":1894:1900   */\n      0x00\n        /* \"#utility.yul\":1943:1945   */\n      0x20\n        /* \"#utility.yul\":1931:1940   */\n      dup3\n        /* \"#utility.yul\":1922:1929   */\n      dup5\n        /* \"#utility.yul\":1918:1941   */\n      sub\n        /* \"#utility.yul\":1914:1946   */\n      slt\n        /* \"#utility.yul\":1911:2030   */\n      iszero\n      tag_295\n      jumpi\n        /* \"#utility.yul\":1949:2028   */\n      tag_296\n      tag_289\n      jump\t// in\n    tag_296:\n        /* \"#utility.yul\":1911:2030   */\n    tag_295:\n        /* \"#utility.yul\":2069:2070   */\n      0x00\n        /* \"#utility.yul\":2094:2147   */\n      tag_297\n        /* \"#utility.yul\":2139:2146   */\n      dup5\n        /* \"#utility.yul\":2130:2136   */\n      dup3\n        /* \"#utility.yul\":2119:2128   */\n      dup6\n        /* \"#utility.yul\":2115:2137   */\n      add\n        /* \"#utility.yul\":2094:2147   */\n      tag_276\n      jump\t// in\n    tag_297:\n        /* \"#utility.yul\":2084:2147   */\n      swap2\n      pop\n        /* \"#utility.yul\":2040:2157   */\n      pop\n        /* \"#utility.yul\":1835:2164   */\n      swap3\n      swap2\n      pop\n      pop\n      jump\t// out\n        /* \"#utility.yul\":2170:2349   */\n    tag_298:\n        /* \"#utility.yul\":2239:2249   */\n      0x00\n        /* \"#utility.yul\":2260:2306   */\n      tag_300\n        /* \"#utility.yul\":2302:2305   */\n      dup4\n        /* \"#utility.yul\":2294:2300   */\n      dup4\n        /* \"#utility.yul\":2260:2306   */\n      tag_301\n      jump\t// in\n    tag_300:\n        /* \"#utility.yul\":2338:2342   */\n      0x20\n        /* \"#utility.yul\":2333:2336   */\n      dup4\n        /* \"#utility.yul\":2329:2343   */\n      add\n        /* \"#utility.yul\":2315:2343   */\n      swap1\n      pop\n        /* \"#utility.yul\":2170:2349   */\n      swap3\n      swap2\n      pop\n      pop\n      jump\t// out\n        /* \"#utility.yul\":2355:2473   */\n    tag_302:\n        /* \"#utility.yul\":2442:2466   */\n      tag_304\n        /* \"#utility.yul\":2460:2465   */\n      dup2\n        /* \"#utility.yul\":2442:2466   */\n      tag_305\n      jump\t// in\n    tag_304:\n        /* \"#utility.yul\":2437:2440   */\n      dup3\n        /* \"#utility.yul\":2430:2467   */\n      mstore\n        /* \"#utility.yul\":2355:2473   */\n      pop\n      pop\n      jump\t// out\n        /* \"#utility.yul\":2509:3241   */\n    tag_306:\n        /* \"#utility.yul\":2628:2631   */\n      0x00\n        /* \"#utility.yul\":2657:2711   */\n      tag_308\n        /* \"#utility.yul\":2705:2710   */\n      dup3\n        /* \"#utility.yul\":2657:2711   */\n      tag_309\n      jump\t// in\n    tag_308:\n        /* \"#utility.yul\":2727:2813   */\n      tag_310\n        /* \"#utility.yul\":2806:2812   */\n      dup2\n        /* \"#utility.yul\":2801:2804   */\n      dup6\n        /* \"#utility.yul\":2727:2813   */\n      tag_311\n      jump\t// in\n    tag_310:\n        /* \"#utility.yul\":2720:2813   */\n      swap4\n      pop\n        /* \"#utility.yul\":2837:2893   */\n      tag_312\n        /* \"#utility.yul\":2887:2892   */\n      dup4\n        /* \"#utility.yul\":2837:2893   */\n      tag_313\n      jump\t// in\n    tag_312:\n        /* \"#utility.yul\":2916:2923   */\n      dup1\n        /* \"#utility.yul\":2947:2948   */\n      0x00\n        /* \"#utility.yul\":2932:3216   */\n    tag_314:\n        /* \"#utility.yul\":2957:2963   */\n      dup4\n        /* \"#utility.yul\":2954:2955   */\n      dup2\n        /* \"#utility.yul\":2951:2964   */\n      lt\n        /* \"#utility.yul\":2932:3216   */\n      iszero\n      tag_316\n      jumpi\n        /* \"#utility.yul\":3033:3039   */\n      dup2\n        /* \"#utility.yul\":3027:3040   */\n      mload\n        /* \"#utility.yul\":3060:3123   */\n      tag_317\n        /* \"#utility.yul\":3119:3122   */\n      dup9\n        /* \"#utility.yul\":3104:3117   */\n      dup3\n        /* \"#utility.yul\":3060:3123   */\n      tag_298\n      jump\t// in\n    tag_317:\n        /* \"#utility.yul\":3053:3123   */\n      swap8\n      pop\n        /* \"#utility.yul\":3146:3206   */\n      tag_318\n        /* \"#utility.yul\":3199:3205   */\n      dup4\n        /* \"#utility.yul\":3146:3206   */\n      tag_319\n      jump\t// in\n    tag_318:\n        /* \"#utility.yul\":3136:3206   */\n      swap3\n      pop\n        /* \"#utility.yul\":2992:3216   */\n      pop\n        /* \"#utility.yul\":2979:2980   */\n      0x01\n        /* \"#utility.yul\":2976:2977   */\n      dup2\n        /* \"#utility.yul\":2972:2981   */\n      add\n        /* \"#utility.yul\":2967:2981   */\n      swap1\n      pop\n        /* \"#utility.yul\":2932:3216   */\n      jump(tag_314)\n    tag_316:\n        /* \"#utility.yul\":2936:2950   */\n      pop\n        /* \"#utility.yul\":3232:3235   */\n      dup6\n        /* \"#utility.yul\":3225:3235   */\n      swap4\n      pop\n        /* \"#utility.yul\":2633:3241   */\n      pop\n      pop\n      pop\n        /* \"#utility.yul\":2509:3241   */\n      swap3\n      swap2\n      pop\n      pop\n      jump\t// out\n        /* \"#utility.yul\":3247:3356   */\n    tag_320:\n        /* \"#utility.yul\":3328:3349   */\n      tag_322\n        /* \"#utility.yul\":3343:3348   */\n      dup2\n        /* \"#utility.yul\":3328:3349   */\n      tag_323\n      jump\t// in\n    tag_322:\n        /* \"#utility.yul\":3323:3326   */\n      dup3\n        /* \"#utility.yul\":3316:3350   */\n      mstore\n        /* \"#utility.yul\":3247:3356   */\n      pop\n      pop\n      jump\t// out\n        /* \"#utility.yul\":3362:3728   */\n    tag_324:\n        /* \"#utility.yul\":3504:3507   */\n      0x00\n        /* \"#utility.yul\":3525:3592   */\n      tag_326\n        /* \"#utility.yul\":3589:3591   */\n      0x14\n        /* \"#utility.yul\":3584:3587   */\n      dup4\n        /* \"#utility.yul\":3525:3592   */\n      tag_327\n      jump\t// in\n    tag_326:\n        /* \"#utility.yul\":3518:3592   */\n      swap2\n      pop\n        /* \"#utility.yul\":3601:3694   */\n      tag_328\n        /* \"#utility.yul\":3690:3693   */\n      dup3\n        /* \"#utility.yul\":3601:3694   */\n      tag_329\n      jump\t// in\n    tag_328:\n        /* \"#utility.yul\":3719:3721   */\n      0x20\n        /* \"#utility.yul\":3714:3717   */\n      dup3\n        /* \"#utility.yul\":3710:3722   */\n      add\n        /* \"#utility.yul\":3703:3722   */\n      swap1\n      pop\n        /* \"#utility.yul\":3362:3728   */\n      swap2\n      swap1\n      pop\n      jump\t// out\n        /* \"#utility.yul\":3734:4100   */\n    tag_330:\n        /* \"#utility.yul\":3876:3879   */\n      0x00\n        /* \"#utility.yul\":3897:3964   */\n      tag_332\n        /* \"#utility.yul\":3961:3963   */\n      0x11\n        /* \"#utility.yul\":3956:3959   */\n      dup4\n        /* \"#utility.yul\":3897:3964   */\n      tag_327\n      jump\t// in\n    tag_332:\n        /* \"#utility.yul\":3890:3964   */\n      swap2\n      pop\n        /* \"#utility.yul\":3973:4066   */\n      tag_333\n        /* \"#utility.yul\":4062:4065   */\n      dup3\n        /* \"#utility.yul\":3973:4066   */\n      tag_334\n      jump\t// in\n    tag_333:\n        /* \"#utility.yul\":4091:4093   */\n      0x20\n        /* \"#utility.yul\":4086:4089   */\n      dup3\n        /* \"#utility.yul\":4082:4094   */\n      add\n        /* \"#utility.yul\":4075:4094   */\n      swap1\n      pop\n        /* \"#utility.yul\":3734:4100   */\n      swap2\n      swap1\n      pop\n      jump\t// out\n        /* \"#utility.yul\":4106:4472   */\n    tag_335:\n        /* \"#utility.yul\":4248:4251   */\n      0x00\n        /* \"#utility.yul\":4269:4336   */\n      tag_337\n        /* \"#utility.yul\":4333:4335   */\n      0x20\n        /* \"#utility.yul\":4328:4331   */\n      dup4\n        /* \"#utility.yul\":4269:4336   */\n      tag_327\n      jump\t// in\n    tag_337:\n        /* \"#utility.yul\":4262:4336   */\n      swap2\n      pop\n        /* \"#utility.yul\":4345:4438   */\n      tag_338\n        /* \"#utility.yul\":4434:4437   */\n      dup3\n        /* \"#utility.yul\":4345:4438   */\n      tag_339\n      jump\t// in\n    tag_338:\n        /* \"#utility.yul\":4463:4465   */\n      0x20\n        /* \"#utility.yul\":4458:4461   */\n      dup3\n        /* \"#utility.yul\":4454:4466   */\n      add\n        /* \"#utility.yul\":4447:4466   */\n      swap1\n      pop\n        /* \"#utility.yul\":4106:4472   */\n      swap2\n      swap1\n      pop\n      jump\t// out\n        /* \"#utility.yul\":4478:4844   */\n    tag_340:\n        /* \"#utility.yul\":4620:4623   */\n      0x00\n        /* \"#utility.yul\":4641:4708   */\n      tag_342\n        /* \"#utility.yul\":4705:4707   */\n      0x26\n        /* \"#utility.yul\":4700:4703   */\n      dup4\n        /* \"#utility.yul\":4641:4708   */\n      tag_327\n      jump\t// in\n    tag_342:\n        /* \"#utility.yul\":4634:4708   */\n      swap2\n      pop\n        /* \"#utility.yul\":4717:4810   */\n      tag_343\n        /* \"#utility.yul\":4806:4809   */\n      dup3\n        /* \"#utility.yul\":4717:4810   */\n      tag_344\n      jump\t// in\n    tag_343:\n        /* \"#utility.yul\":4835:4837   */\n      0x40\n        /* \"#utility.yul\":4830:4833   */\n      dup3\n        /* \"#utility.yul\":4826:4838   */\n      add\n        /* \"#utility.yul\":4819:4838   */\n      swap1\n      pop\n        /* \"#utility.yul\":4478:4844   */\n      swap2\n      swap1\n      pop\n      jump\t// out\n        /* \"#utility.yul\":4850:5216   */\n    tag_345:\n        /* \"#utility.yul\":4992:4995   */\n      0x00\n        /* \"#utility.yul\":5013:5080   */\n      tag_347\n        /* \"#utility.yul\":5077:5079   */\n      0x15\n        /* \"#utility.yul\":5072:5075   */\n      dup4\n        /* \"#utility.yul\":5013:5080   */\n      tag_327\n      jump\t// in\n    tag_347:\n        /* \"#utility.yul\":5006:5080   */\n      swap2\n      pop\n        /* \"#utility.yul\":5089:5182   */\n      tag_348\n        /* \"#utility.yul\":5178:5181   */\n      dup3\n        /* \"#utility.yul\":5089:5182   */\n      tag_349\n      jump\t// in\n    tag_348:\n        /* \"#utility.yul\":5207:5209   */\n      0x20\n        /* \"#utility.yul\":5202:5205   */\n      dup3\n        /* \"#utility.yul\":5198:5210   */\n      add\n        /* \"#utility.yul\":5191:5210   */\n      swap1\n      pop\n        /* \"#utility.yul\":4850:5216   */\n      swap2\n      swap1\n      pop\n      jump\t// out\n        /* \"#utility.yul\":5222:5588   */\n    tag_350:\n        /* \"#utility.yul\":5364:5367   */\n      0x00\n        /* \"#utility.yul\":5385:5452   */\n      tag_352\n        /* \"#utility.yul\":5449:5451   */\n      0x0c\n        /* \"#utility.yul\":5444:5447   */\n      dup4\n        /* \"#utility.yul\":5385:5452   */\n      tag_327\n      jump\t// in\n    tag_352:\n        /* \"#utility.yul\":5378:5452   */\n      swap2\n      pop\n        /* \"#utility.yul\":5461:5554   */\n      tag_353\n        /* \"#utility.yul\":5550:5553   */\n      dup3\n        /* \"#utility.yul\":5461:5554   */\n      tag_354\n      jump\t// in\n    tag_353:\n        /* \"#utility.yul\":5579:5581   */\n      0x20\n        /* \"#utility.yul\":5574:5577   */\n      dup3\n        /* \"#utility.yul\":5570:5582   */\n      add\n        /* \"#utility.yul\":5563:5582   */\n      swap1\n      pop\n        /* \"#utility.yul\":5222:5588   */\n      swap2\n      swap1\n      pop\n      jump\t// out\n        /* \"#utility.yul\":5594:5960   */\n    tag_355:\n        /* \"#utility.yul\":5736:5739   */\n      0x00\n        /* \"#utility.yul\":5757:5824   */\n      tag_357\n        /* \"#utility.yul\":5821:5823   */\n      0x17\n        /* \"#utility.yul\":5816:5819   */\n      dup4\n        /* \"#utility.yul\":5757:5824   */\n      tag_327\n      jump\t// in\n    tag_357:\n        /* \"#utility.yul\":5750:5824   */\n      swap2\n      pop\n        /* \"#utility.yul\":5833:5926   */\n      tag_358\n        /* \"#utility.yul\":5922:5925   */\n      dup3\n        /* \"#utility.yul\":5833:5926   */\n      tag_359\n      jump\t// in\n    tag_358:\n        /* \"#utility.yul\":5951:5953   */\n      0x20\n        /* \"#utility.yul\":5946:5949   */\n      dup3\n        /* \"#utility.yul\":5942:5954   */\n      add\n        /* \"#utility.yul\":5935:5954   */\n      swap1\n      pop\n        /* \"#utility.yul\":5594:5960   */\n      swap2\n      swap1\n      pop\n      jump\t// out\n        /* \"#utility.yul\":5966:6332   */\n    tag_360:\n        /* \"#utility.yul\":6108:6111   */\n      0x00\n        /* \"#utility.yul\":6129:6196   */\n      tag_362\n        /* \"#utility.yul\":6193:6195   */\n      0x14\n        /* \"#utility.yul\":6188:6191   */\n      dup4\n        /* \"#utility.yul\":6129:6196   */\n      tag_327\n      jump\t// in\n    tag_362:\n        /* \"#utility.yul\":6122:6196   */\n      swap2\n      pop\n        /* \"#utility.yul\":6205:6298   */\n      tag_363\n        /* \"#utility.yul\":6294:6297   */\n      dup3\n        /* \"#utility.yul\":6205:6298   */\n      tag_364\n      jump\t// in\n    tag_363:\n        /* \"#utility.yul\":6323:6325   */\n      0x20\n        /* \"#utility.yul\":6318:6321   */\n      dup3\n        /* \"#utility.yul\":6314:6326   */\n      add\n        /* \"#utility.yul\":6307:6326   */\n      swap1\n      pop\n        /* \"#utility.yul\":5966:6332   */\n      swap2\n      swap1\n      pop\n      jump\t// out\n        /* \"#utility.yul\":6338:6704   */\n    tag_365:\n        /* \"#utility.yul\":6480:6483   */\n      0x00\n        /* \"#utility.yul\":6501:6568   */\n      tag_367\n        /* \"#utility.yul\":6565:6567   */\n      0x0c\n        /* \"#utility.yul\":6560:6563   */\n      dup4\n        /* \"#utility.yul\":6501:6568   */\n      tag_327\n      jump\t// in\n    tag_367:\n        /* \"#utility.yul\":6494:6568   */\n      swap2\n      pop\n        /* \"#utility.yul\":6577:6670   */\n      tag_368\n        /* \"#utility.yul\":6666:6669   */\n      dup3\n        /* \"#utility.yul\":6577:6670   */\n      tag_369\n      jump\t// in\n    tag_368:\n        /* \"#utility.yul\":6695:6697   */\n      0x20\n        /* \"#utility.yul\":6690:6693   */\n      dup3\n        /* \"#utility.yul\":6686:6698   */\n      add\n        /* \"#utility.yul\":6679:6698   */\n      swap1\n      pop\n        /* \"#utility.yul\":6338:6704   */\n      swap2\n      swap1\n      pop\n      jump\t// out\n        /* \"#utility.yul\":6710:6818   */\n    tag_301:\n        /* \"#utility.yul\":6787:6811   */\n      tag_371\n        /* \"#utility.yul\":6805:6810   */\n      dup2\n        /* \"#utility.yul\":6787:6811   */\n      tag_372\n      jump\t// in\n    tag_371:\n        /* \"#utility.yul\":6782:6785   */\n      dup3\n        /* \"#utility.yul\":6775:6812   */\n      mstore\n        /* \"#utility.yul\":6710:6818   */\n      pop\n      pop\n      jump\t// out\n        /* \"#utility.yul\":6824:6942   */\n    tag_373:\n        /* \"#utility.yul\":6911:6935   */\n      tag_375\n        /* \"#utility.yul\":6929:6934   */\n      dup2\n        /* \"#utility.yul\":6911:6935   */\n      tag_372\n      jump\t// in\n    tag_375:\n        /* \"#utility.yul\":6906:6909   */\n      dup3\n        /* \"#utility.yul\":6899:6936   */\n      mstore\n        /* \"#utility.yul\":6824:6942   */\n      pop\n      pop\n      jump\t// out\n        /* \"#utility.yul\":6948:7105   */\n    tag_376:\n        /* \"#utility.yul\":7053:7098   */\n      tag_378\n        /* \"#utility.yul\":7073:7097   */\n      tag_379\n        /* \"#utility.yul\":7091:7096   */\n      dup3\n        /* \"#utility.yul\":7073:7097   */\n      tag_372\n      jump\t// in\n    tag_379:\n        /* \"#utility.yul\":7053:7098   */\n      tag_380\n      jump\t// in\n    tag_378:\n        /* \"#utility.yul\":7048:7051   */\n      dup3\n        /* \"#utility.yul\":7041:7099   */\n      mstore\n        /* \"#utility.yul\":6948:7105   */\n      pop\n      pop\n      jump\t// out\n        /* \"#utility.yul\":7111:7649   */\n    tag_105:\n        /* \"#utility.yul\":7279:7282   */\n      0x00\n        /* \"#utility.yul\":7294:7369   */\n      tag_382\n        /* \"#utility.yul\":7365:7368   */\n      dup3\n        /* \"#utility.yul\":7356:7362   */\n      dup7\n        /* \"#utility.yul\":7294:7369   */\n      tag_376\n      jump\t// in\n    tag_382:\n        /* \"#utility.yul\":7394:7396   */\n      0x20\n        /* \"#utility.yul\":7389:7392   */\n      dup3\n        /* \"#utility.yul\":7385:7397   */\n      add\n        /* \"#utility.yul\":7378:7397   */\n      swap2\n      pop\n        /* \"#utility.yul\":7407:7482   */\n      tag_383\n        /* \"#utility.yul\":7478:7481   */\n      dup3\n        /* \"#utility.yul\":7469:7475   */\n      dup6\n        /* \"#utility.yul\":7407:7482   */\n      tag_376\n      jump\t// in\n    tag_383:\n        /* \"#utility.yul\":7507:7509   */\n      0x20\n        /* \"#utility.yul\":7502:7505   */\n      dup3\n        /* \"#utility.yul\":7498:7510   */\n      add\n        /* \"#utility.yul\":7491:7510   */\n      swap2\n      pop\n        /* \"#utility.yul\":7520:7595   */\n      tag_384\n        /* \"#utility.yul\":7591:7594   */\n      dup3\n        /* \"#utility.yul\":7582:7588   */\n      dup5\n        /* \"#utility.yul\":7520:7595   */\n      tag_376\n      jump\t// in\n    tag_384:\n        /* \"#utility.yul\":7620:7622   */\n      0x20\n        /* \"#utility.yul\":7615:7618   */\n      dup3\n        /* \"#utility.yul\":7611:7623   */\n      add\n        /* \"#utility.yul\":7604:7623   */\n      swap2\n      pop\n        /* \"#utility.yul\":7640:7643   */\n      dup2\n        /* \"#utility.yul\":7633:7643   */\n      swap1\n      pop\n        /* \"#utility.yul\":7111:7649   */\n      swap5\n      swap4\n      pop\n      pop\n      pop\n      pop\n      jump\t// out\n        /* \"#utility.yul\":7655:7877   */\n    tag_35:\n        /* \"#utility.yul\":7748:7752   */\n      0x00\n        /* \"#utility.yul\":7786:7788   */\n      0x20\n        /* \"#utility.yul\":7775:7784   */\n      dup3\n        /* \"#utility.yul\":7771:7789   */\n      add\n        /* \"#utility.yul\":7763:7789   */\n      swap1\n      pop\n        /* \"#utility.yul\":7799:7870   */\n      tag_386\n        /* \"#utility.yul\":7867:7868   */\n      0x00\n        /* \"#utility.yul\":7856:7865   */\n      dup4\n        /* \"#utility.yul\":7852:7869   */\n      add\n        /* \"#utility.yul\":7843:7849   */\n      dup5\n        /* \"#utility.yul\":7799:7870   */\n      tag_302\n      jump\t// in\n    tag_386:\n        /* \"#utility.yul\":7655:7877   */\n      swap3\n      swap2\n      pop\n      pop\n      jump\t// out\n        /* \"#utility.yul\":7883:8256   */\n    tag_62:\n        /* \"#utility.yul\":8026:8030   */\n      0x00\n        /* \"#utility.yul\":8064:8066   */\n      0x20\n        /* \"#utility.yul\":8053:8062   */\n      dup3\n        /* \"#utility.yul\":8049:8067   */\n      add\n        /* \"#utility.yul\":8041:8067   */\n      swap1\n      pop\n        /* \"#utility.yul\":8113:8122   */\n      dup2\n        /* \"#utility.yul\":8107:8111   */\n      dup2\n        /* \"#utility.yul\":8103:8123   */\n      sub\n        /* \"#utility.yul\":8099:8100   */\n      0x00\n        /* \"#utility.yul\":8088:8097   */\n      dup4\n        /* \"#utility.yul\":8084:8101   */\n      add\n        /* \"#utility.yul\":8077:8124   */\n      mstore\n        /* \"#utility.yul\":8141:8249   */\n      tag_388\n        /* \"#utility.yul\":8244:8248   */\n      dup2\n        /* \"#utility.yul\":8235:8241   */\n      dup5\n        /* \"#utility.yul\":8141:8249   */\n      tag_306\n      jump\t// in\n    tag_388:\n        /* \"#utility.yul\":8133:8249   */\n      swap1\n      pop\n        /* \"#utility.yul\":7883:8256   */\n      swap3\n      swap2\n      pop\n      pop\n      jump\t// out\n        /* \"#utility.yul\":8262:8472   */\n    tag_45:\n        /* \"#utility.yul\":8349:8353   */\n      0x00\n        /* \"#utility.yul\":8387:8389   */\n      0x20\n        /* \"#utility.yul\":8376:8385   */\n      dup3\n        /* \"#utility.yul\":8372:8390   */\n      add\n        /* \"#utility.yul\":8364:8390   */\n      swap1\n      pop\n        /* \"#utility.yul\":8400:8465   */\n      tag_390\n        /* \"#utility.yul\":8462:8463   */\n      0x00\n        /* \"#utility.yul\":8451:8460   */\n      dup4\n        /* \"#utility.yul\":8447:8464   */\n      add\n        /* \"#utility.yul\":8438:8444   */\n      dup5\n        /* \"#utility.yul\":8400:8465   */\n      tag_320\n      jump\t// in\n    tag_390:\n        /* \"#utility.yul\":8262:8472   */\n      swap3\n      swap2\n      pop\n      pop\n      jump\t// out\n        /* \"#utility.yul\":8478:8897   */\n    tag_88:\n        /* \"#utility.yul\":8644:8648   */\n      0x00\n        /* \"#utility.yul\":8682:8684   */\n      0x20\n        /* \"#utility.yul\":8671:8680   */\n      dup3\n        /* \"#utility.yul\":8667:8685   */\n      add\n        /* \"#utility.yul\":8659:8685   */\n      swap1\n      pop\n        /* \"#utility.yul\":8731:8740   */\n      dup2\n        /* \"#utility.yul\":8725:8729   */\n      dup2\n        /* \"#utility.yul\":8721:8741   */\n      sub\n        /* \"#utility.yul\":8717:8718   */\n      0x00\n        /* \"#utility.yul\":8706:8715   */\n      dup4\n        /* \"#utility.yul\":8702:8719   */\n      add\n        /* \"#utility.yul\":8695:8742   */\n      mstore\n        /* \"#utility.yul\":8759:8890   */\n      tag_392\n        /* \"#utility.yul\":8885:8889   */\n      dup2\n        /* \"#utility.yul\":8759:8890   */\n      tag_324\n      jump\t// in\n    tag_392:\n        /* \"#utility.yul\":8751:8890   */\n      swap1\n      pop\n        /* \"#utility.yul\":8478:8897   */\n      swap2\n      swap1\n      pop\n      jump\t// out\n        /* \"#utility.yul\":8903:9322   */\n    tag_197:\n        /* \"#utility.yul\":9069:9073   */\n      0x00\n        /* \"#utility.yul\":9107:9109   */\n      0x20\n        /* \"#utility.yul\":9096:9105   */\n      dup3\n        /* \"#utility.yul\":9092:9110   */\n      add\n        /* \"#utility.yul\":9084:9110   */\n      swap1\n      pop\n        /* \"#utility.yul\":9156:9165   */\n      dup2\n        /* \"#utility.yul\":9150:9154   */\n      dup2\n        /* \"#utility.yul\":9146:9166   */\n      sub\n        /* \"#utility.yul\":9142:9143   */\n      0x00\n        /* \"#utility.yul\":9131:9140   */\n      dup4\n        /* \"#utility.yul\":9127:9144   */\n      add\n        /* \"#utility.yul\":9120:9167   */\n      mstore\n        /* \"#utility.yul\":9184:9315   */\n      tag_394\n        /* \"#utility.yul\":9310:9314   */\n      dup2\n        /* \"#utility.yul\":9184:9315   */\n      tag_330\n      jump\t// in\n    tag_394:\n        /* \"#utility.yul\":9176:9315   */\n      swap1\n      pop\n        /* \"#utility.yul\":8903:9322   */\n      swap2\n      swap1\n      pop\n      jump\t// out\n        /* \"#utility.yul\":9328:9747   */\n    tag_163:\n        /* \"#utility.yul\":9494:9498   */\n      0x00\n        /* \"#utility.yul\":9532:9534   */\n      0x20\n        /* \"#utility.yul\":9521:9530   */\n      dup3\n        /* \"#utility.yul\":9517:9535   */\n      add\n        /* \"#utility.yul\":9509:9535   */\n      swap1\n      pop\n        /* \"#utility.yul\":9581:9590   */\n      dup2\n        /* \"#utility.yul\":9575:9579   */\n      dup2\n        /* \"#utility.yul\":9571:9591   */\n      sub\n        /* \"#utility.yul\":9567:9568   */\n      0x00\n        /* \"#utility.yul\":9556:9565   */\n      dup4\n        /* \"#utility.yul\":9552:9569   */\n      add\n        /* \"#utility.yul\":9545:9592   */\n      mstore\n        /* \"#utility.yul\":9609:9740   */\n      tag_396\n        /* \"#utility.yul\":9735:9739   */\n      dup2\n        /* \"#utility.yul\":9609:9740   */\n      tag_335\n      jump\t// in\n    tag_396:\n        /* \"#utility.yul\":9601:9740   */\n      swap1\n      pop\n        /* \"#utility.yul\":9328:9747   */\n      swap2\n      swap1\n      pop\n      jump\t// out\n        /* \"#utility.yul\":9753:10172   */\n    tag_81:\n        /* \"#utility.yul\":9919:9923   */\n      0x00\n        /* \"#utility.yul\":9957:9959   */\n      0x20\n        /* \"#utility.yul\":9946:9955   */\n      dup3\n        /* \"#utility.yul\":9942:9960   */\n      add\n        /* \"#utility.yul\":9934:9960   */\n      swap1\n      pop\n        /* \"#utility.yul\":10006:10015   */\n      dup2\n        /* \"#utility.yul\":10000:10004   */\n      dup2\n        /* \"#utility.yul\":9996:10016   */\n      sub\n        /* \"#utility.yul\":9992:9993   */\n      0x00\n        /* \"#utility.yul\":9981:9990   */\n      dup4\n        /* \"#utility.yul\":9977:9994   */\n      add\n        /* \"#utility.yul\":9970:10017   */\n      mstore\n        /* \"#utility.yul\":10034:10165   */\n      tag_398\n        /* \"#utility.yul\":10160:10164   */\n      dup2\n        /* \"#utility.yul\":10034:10165   */\n      tag_340\n      jump\t// in\n    tag_398:\n        /* \"#utility.yul\":10026:10165   */\n      swap1\n      pop\n        /* \"#utility.yul\":9753:10172   */\n      swap2\n      swap1\n      pop\n      jump\t// out\n        /* \"#utility.yul\":10178:10597   */\n    tag_85:\n        /* \"#utility.yul\":10344:10348   */\n      0x00\n        /* \"#utility.yul\":10382:10384   */\n      0x20\n        /* \"#utility.yul\":10371:10380   */\n      dup3\n        /* \"#utility.yul\":10367:10385   */\n      add\n        /* \"#utility.yul\":10359:10385   */\n      swap1\n      pop\n        /* \"#utility.yul\":10431:10440   */\n      dup2\n        /* \"#utility.yul\":10425:10429   */\n      dup2\n        /* \"#utility.yul\":10421:10441   */\n      sub\n        /* \"#utility.yul\":10417:10418   */\n      0x00\n        /* \"#utility.yul\":10406:10415   */\n      dup4\n        /* \"#utility.yul\":10402:10419   */\n      add\n        /* \"#utility.yul\":10395:10442   */\n      mstore\n        /* \"#utility.yul\":10459:10590   */\n      tag_400\n        /* \"#utility.yul\":10585:10589   */\n      dup2\n        /* \"#utility.yul\":10459:10590   */\n      tag_345\n      jump\t// in\n    tag_400:\n        /* \"#utility.yul\":10451:10590   */\n      swap1\n      pop\n        /* \"#utility.yul\":10178:10597   */\n      swap2\n      swap1\n      pop\n      jump\t// out\n        /* \"#utility.yul\":10603:11022   */\n    tag_159:\n        /* \"#utility.yul\":10769:10773   */\n      0x00\n        /* \"#utility.yul\":10807:10809   */\n      0x20\n        /* \"#utility.yul\":10796:10805   */\n      dup3\n        /* \"#utility.yul\":10792:10810   */\n      add\n        /* \"#utility.yul\":10784:10810   */\n      swap1\n      pop\n        /* \"#utility.yul\":10856:10865   */\n      dup2\n        /* \"#utility.yul\":10850:10854   */\n      dup2\n        /* \"#utility.yul\":10846:10866   */\n      sub\n        /* \"#utility.yul\":10842:10843   */\n      0x00\n        /* \"#utility.yul\":10831:10840   */\n      dup4\n        /* \"#utility.yul\":10827:10844   */\n      add\n        /* \"#utility.yul\":10820:10867   */\n      mstore\n        /* \"#utility.yul\":10884:11015   */\n      tag_402\n        /* \"#utility.yul\":11010:11014   */\n      dup2\n        /* \"#utility.yul\":10884:11015   */\n      tag_350\n      jump\t// in\n    tag_402:\n        /* \"#utility.yul\":10876:11015   */\n      swap1\n      pop\n        /* \"#utility.yul\":10603:11022   */\n      swap2\n      swap1\n      pop\n      jump\t// out\n        /* \"#utility.yul\":11028:11447   */\n    tag_148:\n        /* \"#utility.yul\":11194:11198   */\n      0x00\n        /* \"#utility.yul\":11232:11234   */\n      0x20\n        /* \"#utility.yul\":11221:11230   */\n      dup3\n        /* \"#utility.yul\":11217:11235   */\n      add\n        /* \"#utility.yul\":11209:11235   */\n      swap1\n      pop\n        /* \"#utility.yul\":11281:11290   */\n      dup2\n        /* \"#utility.yul\":11275:11279   */\n      dup2\n        /* \"#utility.yul\":11271:11291   */\n      sub\n        /* \"#utility.yul\":11267:11268   */\n      0x00\n        /* \"#utility.yul\":11256:11265   */\n      dup4\n        /* \"#utility.yul\":11252:11269   */\n      add\n        /* \"#utility.yul\":11245:11292   */\n      mstore\n        /* \"#utility.yul\":11309:11440   */\n      tag_404\n        /* \"#utility.yul\":11435:11439   */\n      dup2\n        /* \"#utility.yul\":11309:11440   */\n      tag_355\n      jump\t// in\n    tag_404:\n        /* \"#utility.yul\":11301:11440   */\n      swap1\n      pop\n        /* \"#utility.yul\":11028:11447   */\n      swap2\n      swap1\n      pop\n      jump\t// out\n        /* \"#utility.yul\":11453:11872   */\n    tag_122:\n        /* \"#utility.yul\":11619:11623   */\n      0x00\n        /* \"#utility.yul\":11657:11659   */\n      0x20\n        /* \"#utility.yul\":11646:11655   */\n      dup3\n        /* \"#utility.yul\":11642:11660   */\n      add\n        /* \"#utility.yul\":11634:11660   */\n      swap1\n      pop\n        /* \"#utility.yul\":11706:11715   */\n      dup2\n        /* \"#utility.yul\":11700:11704   */\n      dup2\n        /* \"#utility.yul\":11696:11716   */\n      sub\n        /* \"#utility.yul\":11692:11693   */\n      0x00\n        /* \"#utility.yul\":11681:11690   */\n      dup4\n        /* \"#utility.yul\":11677:11694   */\n      add\n        /* \"#utility.yul\":11670:11717   */\n      mstore\n        /* \"#utility.yul\":11734:11865   */\n      tag_406\n        /* \"#utility.yul\":11860:11864   */\n      dup2\n        /* \"#utility.yul\":11734:11865   */\n      tag_360\n      jump\t// in\n    tag_406:\n        /* \"#utility.yul\":11726:11865   */\n      swap1\n      pop\n        /* \"#utility.yul\":11453:11872   */\n      swap2\n      swap1\n      pop\n      jump\t// out\n        /* \"#utility.yul\":11878:12297   */\n    tag_145:\n        /* \"#utility.yul\":12044:12048   */\n      0x00\n        /* \"#utility.yul\":12082:12084   */\n      0x20\n        /* \"#utility.yul\":12071:12080   */\n      dup3\n        /* \"#utility.yul\":12067:12085   */\n      add\n        /* \"#utility.yul\":12059:12085   */\n      swap1\n      pop\n        /* \"#utility.yul\":12131:12140   */\n      dup2\n        /* \"#utility.yul\":12125:12129   */\n      dup2\n        /* \"#utility.yul\":12121:12141   */\n      sub\n        /* \"#utility.yul\":12117:12118   */\n      0x00\n        /* \"#utility.yul\":12106:12115   */\n      dup4\n        /* \"#utility.yul\":12102:12119   */\n      add\n        /* \"#utility.yul\":12095:12142   */\n      mstore\n        /* \"#utility.yul\":12159:12290   */\n      tag_408\n        /* \"#utility.yul\":12285:12289   */\n      dup2\n        /* \"#utility.yul\":12159:12290   */\n      tag_365\n      jump\t// in\n    tag_408:\n        /* \"#utility.yul\":12151:12290   */\n      swap1\n      pop\n        /* \"#utility.yul\":11878:12297   */\n      swap2\n      swap1\n      pop\n      jump\t// out\n        /* \"#utility.yul\":12303:12525   */\n    tag_53:\n        /* \"#utility.yul\":12396:12400   */\n      0x00\n        /* \"#utility.yul\":12434:12436   */\n      0x20\n        /* \"#utility.yul\":12423:12432   */\n      dup3\n        /* \"#utility.yul\":12419:12437   */\n      add\n        /* \"#utility.yul\":12411:12437   */\n      swap1\n      pop\n        /* \"#utility.yul\":12447:12518   */\n      tag_410\n        /* \"#utility.yul\":12515:12516   */\n      0x00\n        /* \"#utility.yul\":12504:12513   */\n      dup4\n        /* \"#utility.yul\":12500:12517   */\n      add\n        /* \"#utility.yul\":12491:12497   */\n      dup5\n        /* \"#utility.yul\":12447:12518   */\n      tag_373\n      jump\t// in\n    tag_410:\n        /* \"#utility.yul\":12303:12525   */\n      swap3\n      swap2\n      pop\n      pop\n      jump\t// out\n        /* \"#utility.yul\":12531:12660   */\n    tag_268:\n        /* \"#utility.yul\":12565:12571   */\n      0x00\n        /* \"#utility.yul\":12592:12612   */\n      tag_412\n      tag_413\n      jump\t// in\n    tag_412:\n        /* \"#utility.yul\":12582:12612   */\n      swap1\n      pop\n        /* \"#utility.yul\":12621:12654   */\n      tag_414\n        /* \"#utility.yul\":12649:12653   */\n      dup3\n        /* \"#utility.yul\":12641:12647   */\n      dup3\n        /* \"#utility.yul\":12621:12654   */\n      tag_415\n      jump\t// in\n    tag_414:\n        /* \"#utility.yul\":12531:12660   */\n      swap2\n      swap1\n      pop\n      jump\t// out\n        /* \"#utility.yul\":12666:12741   */\n    tag_413:\n        /* \"#utility.yul\":12699:12705   */\n      0x00\n        /* \"#utility.yul\":12732:12734   */\n      0x40\n        /* \"#utility.yul\":12726:12735   */\n      mload\n        /* \"#utility.yul\":12716:12735   */\n      swap1\n      pop\n        /* \"#utility.yul\":12666:12741   */\n      swap1\n      jump\t// out\n        /* \"#utility.yul\":12747:13058   */\n    tag_267:\n        /* \"#utility.yul\":12824:12828   */\n      0x00\n        /* \"#utility.yul\":12914:12932   */\n      0xffffffffffffffff\n        /* \"#utility.yul\":12906:12912   */\n      dup3\n        /* \"#utility.yul\":12903:12933   */\n      gt\n        /* \"#utility.yul\":12900:12956   */\n      iszero\n      tag_418\n      jumpi\n        /* \"#utility.yul\":12936:12954   */\n      tag_419\n      tag_97\n      jump\t// in\n    tag_419:\n        /* \"#utility.yul\":12900:12956   */\n    tag_418:\n        /* \"#utility.yul\":12986:12990   */\n      0x20\n        /* \"#utility.yul\":12978:12984   */\n      dup3\n        /* \"#utility.yul\":12974:12991   */\n      mul\n        /* \"#utility.yul\":12966:12991   */\n      swap1\n      pop\n        /* \"#utility.yul\":13046:13050   */\n      0x20\n        /* \"#utility.yul\":13040:13044   */\n      dup2\n        /* \"#utility.yul\":13036:13051   */\n      add\n        /* \"#utility.yul\":13028:13051   */\n      swap1\n      pop\n        /* \"#utility.yul\":12747:13058   */\n      swap2\n      swap1\n      pop\n      jump\t// out\n        /* \"#utility.yul\":13064:13196   */\n    tag_313:\n        /* \"#utility.yul\":13131:13135   */\n      0x00\n        /* \"#utility.yul\":13154:13157   */\n      dup2\n        /* \"#utility.yul\":13146:13157   */\n      swap1\n      pop\n        /* \"#utility.yul\":13184:13188   */\n      0x20\n        /* \"#utility.yul\":13179:13182   */\n      dup3\n        /* \"#utility.yul\":13175:13189   */\n      add\n        /* \"#utility.yul\":13167:13189   */\n      swap1\n      pop\n        /* \"#utility.yul\":13064:13196   */\n      swap2\n      swap1\n      pop\n      jump\t// out\n        /* \"#utility.yul\":13202:13316   */\n    tag_309:\n        /* \"#utility.yul\":13269:13275   */\n      0x00\n        /* \"#utility.yul\":13303:13308   */\n      dup2\n        /* \"#utility.yul\":13297:13309   */\n      mload\n        /* \"#utility.yul\":13287:13309   */\n      swap1\n      pop\n        /* \"#utility.yul\":13202:13316   */\n      swap2\n      swap1\n      pop\n      jump\t// out\n        /* \"#utility.yul\":13322:13435   */\n    tag_319:\n        /* \"#utility.yul\":13392:13396   */\n      0x00\n        /* \"#utility.yul\":13424:13428   */\n      0x20\n        /* \"#utility.yul\":13419:13422   */\n      dup3\n        /* \"#utility.yul\":13415:13429   */\n      add\n        /* \"#utility.yul\":13407:13429   */\n      swap1\n      pop\n        /* \"#utility.yul\":13322:13435   */\n      swap2\n      swap1\n      pop\n      jump\t// out\n        /* \"#utility.yul\":13441:13625   */\n    tag_311:\n        /* \"#utility.yul\":13540:13551   */\n      0x00\n        /* \"#utility.yul\":13574:13580   */\n      dup3\n        /* \"#utility.yul\":13569:13572   */\n      dup3\n        /* \"#utility.yul\":13562:13581   */\n      mstore\n        /* \"#utility.yul\":13614:13618   */\n      0x20\n        /* \"#utility.yul\":13609:13612   */\n      dup3\n        /* \"#utility.yul\":13605:13619   */\n      add\n        /* \"#utility.yul\":13590:13619   */\n      swap1\n      pop\n        /* \"#utility.yul\":13441:13625   */\n      swap3\n      swap2\n      pop\n      pop\n      jump\t// out\n        /* \"#utility.yul\":13631:13800   */\n    tag_327:\n        /* \"#utility.yul\":13715:13726   */\n      0x00\n        /* \"#utility.yul\":13749:13755   */\n      dup3\n        /* \"#utility.yul\":13744:13747   */\n      dup3\n        /* \"#utility.yul\":13737:13756   */\n      mstore\n        /* \"#utility.yul\":13789:13793   */\n      0x20\n        /* \"#utility.yul\":13784:13787   */\n      dup3\n        /* \"#utility.yul\":13780:13794   */\n      add\n        /* \"#utility.yul\":13765:13794   */\n      swap1\n      pop\n        /* \"#utility.yul\":13631:13800   */\n      swap3\n      swap2\n      pop\n      pop\n      jump\t// out\n        /* \"#utility.yul\":13806:14111   */\n    tag_167:\n        /* \"#utility.yul\":13846:13849   */\n      0x00\n        /* \"#utility.yul\":13865:13885   */\n      tag_426\n        /* \"#utility.yul\":13883:13884   */\n      dup3\n        /* \"#utility.yul\":13865:13885   */\n      tag_372\n      jump\t// in\n    tag_426:\n        /* \"#utility.yul\":13860:13885   */\n      swap2\n      pop\n        /* \"#utility.yul\":13899:13919   */\n      tag_427\n        /* \"#utility.yul\":13917:13918   */\n      dup4\n        /* \"#utility.yul\":13899:13919   */\n      tag_372\n      jump\t// in\n    tag_427:\n        /* \"#utility.yul\":13894:13919   */\n      swap3\n      pop\n        /* \"#utility.yul\":14053:14054   */\n      dup3\n        /* \"#utility.yul\":13985:14051   */\n      0xffffffffffffffffffffffffffffffffffffffffffffffffffffffffffffffff\n        /* \"#utility.yul\":13981:14055   */\n      sub\n        /* \"#utility.yul\":13978:13979   */\n      dup3\n        /* \"#utility.yul\":13975:14056   */\n      gt\n        /* \"#utility.yul\":13972:14079   */\n      iszero\n      tag_428\n      jumpi\n        /* \"#utility.yul\":14059:14077   */\n      tag_429\n      tag_430\n      jump\t// in\n    tag_429:\n        /* \"#utility.yul\":13972:14079   */\n    tag_428:\n        /* \"#utility.yul\":14103:14104   */\n      dup3\n        /* \"#utility.yul\":14100:14101   */\n      dup3\n        /* \"#utility.yul\":14096:14105   */\n      add\n        /* \"#utility.yul\":14089:14105   */\n      swap1\n      pop\n        /* \"#utility.yul\":13806:14111   */\n      swap3\n      swap2\n      pop\n      pop\n      jump\t// out\n        /* \"#utility.yul\":14117:14302   */\n    tag_173:\n        /* \"#utility.yul\":14157:14158   */\n      0x00\n        /* \"#utility.yul\":14174:14194   */\n      tag_432\n        /* \"#utility.yul\":14192:14193   */\n      dup3\n        /* \"#utility.yul\":14174:14194   */\n      tag_372\n      jump\t// in\n    tag_432:\n        /* \"#utility.yul\":14169:14194   */\n      swap2\n      pop\n        /* \"#utility.yul\":14208:14228   */\n      tag_433\n        /* \"#utility.yul\":14226:14227   */\n      dup4\n        /* \"#utility.yul\":14208:14228   */\n      tag_372\n      jump\t// in\n    tag_433:\n        /* \"#utility.yul\":14203:14228   */\n      swap3\n      pop\n        /* \"#utility.yul\":14247:14248   */\n      dup3\n        /* \"#utility.yul\":14237:14272   */\n      tag_434\n      jumpi\n        /* \"#utility.yul\":14252:14270   */\n      tag_435\n      tag_436\n      jump\t// in\n    tag_435:\n        /* \"#utility.yul\":14237:14272   */\n    tag_434:\n        /* \"#utility.yul\":14294:14295   */\n      dup3\n        /* \"#utility.yul\":14291:14292   */\n      dup3\n        /* \"#utility.yul\":14287:14296   */\n      div\n        /* \"#utility.yul\":14282:14296   */\n      swap1\n      pop\n        /* \"#utility.yul\":14117:14302   */\n      swap3\n      swap2\n      pop\n      pop\n      jump\t// out\n        /* \"#utility.yul\":14308:14656   */\n    tag_124:\n        /* \"#utility.yul\":14348:14355   */\n      0x00\n        /* \"#utility.yul\":14371:14391   */\n      tag_438\n        /* \"#utility.yul\":14389:14390   */\n      dup3\n        /* \"#utility.yul\":14371:14391   */\n      tag_372\n      jump\t// in\n    tag_438:\n        /* \"#utility.yul\":14366:14391   */\n      swap2\n      pop\n        /* \"#utility.yul\":14405:14425   */\n      tag_439\n        /* \"#utility.yul\":14423:14424   */\n      dup4\n        /* \"#utility.yul\":14405:14425   */\n      tag_372\n      jump\t// in\n    tag_439:\n        /* \"#utility.yul\":14400:14425   */\n      swap3\n      pop\n        /* \"#utility.yul\":14593:14594   */\n      dup2\n        /* \"#utility.yul\":14525:14591   */\n      0xffffffffffffffffffffffffffffffffffffffffffffffffffffffffffffffff\n        /* \"#utility.yul\":14521:14595   */\n      div\n        /* \"#utility.yul\":14518:14519   */\n      dup4\n        /* \"#utility.yul\":14515:14596   */\n      gt\n        /* \"#utility.yul\":14510:14511   */\n      dup3\n        /* \"#utility.yul\":14503:14512   */\n      iszero\n        /* \"#utility.yul\":14496:14513   */\n      iszero\n        /* \"#utility.yul\":14492:14597   */\n      and\n        /* \"#utility.yul\":14489:14620   */\n      iszero\n      tag_440\n      jumpi\n        /* \"#utility.yul\":14600:14618   */\n      tag_441\n      tag_430\n      jump\t// in\n    tag_441:\n        /* \"#utility.yul\":14489:14620   */\n    tag_440:\n        /* \"#utility.yul\":14648:14649   */\n      dup3\n        /* \"#utility.yul\":14645:14646   */\n      dup3\n        /* \"#utility.yul\":14641:14650   */\n      mul\n        /* \"#utility.yul\":14630:14650   */\n      swap1\n      pop\n        /* \"#utility.yul\":14308:14656   */\n      swap3\n      swap2\n      pop\n      pop\n      jump\t// out\n        /* \"#utility.yul\":14662:14853   */\n    tag_243:\n        /* \"#utility.yul\":14702:14706   */\n      0x00\n        /* \"#utility.yul\":14722:14742   */\n      tag_443\n        /* \"#utility.yul\":14740:14741   */\n      dup3\n        /* \"#utility.yul\":14722:14742   */\n      tag_372\n      jump\t// in\n    tag_443:\n        /* \"#utility.yul\":14717:14742   */\n      swap2\n      pop\n        /* \"#utility.yul\":14756:14776   */\n      tag_444\n        /* \"#utility.yul\":14774:14775   */\n      dup4\n        /* \"#utility.yul\":14756:14776   */\n      tag_372\n      jump\t// in\n    tag_444:\n        /* \"#utility.yul\":14751:14776   */\n      swap3\n      pop\n        /* \"#utility.yul\":14795:14796   */\n      dup3\n        /* \"#utility.yul\":14792:14793   */\n      dup3\n        /* \"#utility.yul\":14789:14797   */\n      lt\n        /* \"#utility.yul\":14786:14820   */\n      iszero\n      tag_445\n      jumpi\n        /* \"#utility.yul\":14800:14818   */\n      tag_446\n      tag_430\n      jump\t// in\n    tag_446:\n        /* \"#utility.yul\":14786:14820   */\n    tag_445:\n        /* \"#utility.yul\":14845:14846   */\n      dup3\n        /* \"#utility.yul\":14842:14843   */\n      dup3\n        /* \"#utility.yul\":14838:14847   */\n      sub\n        /* \"#utility.yul\":14830:14847   */\n      swap1\n      pop\n        /* \"#utility.yul\":14662:14853   */\n      swap3\n      swap2\n      pop\n      pop\n      jump\t// out\n        /* \"#utility.yul\":14859:14955   */\n    tag_305:\n        /* \"#utility.yul\":14896:14903   */\n      0x00\n        /* \"#utility.yul\":14925:14949   */\n      tag_448\n        /* \"#utility.yul\":14943:14948   */\n      dup3\n        /* \"#utility.yul\":14925:14949   */\n      tag_449\n      jump\t// in\n    tag_448:\n        /* \"#utility.yul\":14914:14949   */\n      swap1\n      pop\n        /* \"#utility.yul\":14859:14955   */\n      swap2\n      swap1\n      pop\n      jump\t// out\n        /* \"#utility.yul\":14961:15051   */\n    tag_323:\n        /* \"#utility.yul\":14995:15002   */\n      0x00\n        /* \"#utility.yul\":15038:15043   */\n      dup2\n        /* \"#utility.yul\":15031:15044   */\n      iszero\n        /* \"#utility.yul\":15024:15045   */\n      iszero\n        /* \"#utility.yul\":15013:15045   */\n      swap1\n      pop\n        /* \"#utility.yul\":14961:15051   */\n      swap2\n      swap1\n      pop\n      jump\t// out\n        /* \"#utility.yul\":15057:15183   */\n    tag_449:\n        /* \"#utility.yul\":15094:15101   */\n      0x00\n        /* \"#utility.yul\":15134:15176   */\n      0xffffffffffffffffffffffffffffffffffffffff\n        /* \"#utility.yul\":15127:15132   */\n      dup3\n        /* \"#utility.yul\":15123:15177   */\n      and\n        /* \"#utility.yul\":15112:15177   */\n      swap1\n      pop\n        /* \"#utility.yul\":15057:15183   */\n      swap2\n      swap1\n      pop\n      jump\t// out\n        /* \"#utility.yul\":15189:15266   */\n    tag_372:\n        /* \"#utility.yul\":15226:15233   */\n      0x00\n        /* \"#utility.yul\":15255:15260   */\n      dup2\n        /* \"#utility.yul\":15244:15260   */\n      swap1\n      pop\n        /* \"#utility.yul\":15189:15266   */\n      swap2\n      swap1\n      pop\n      jump\t// out\n        /* \"#utility.yul\":15272:15553   */\n    tag_415:\n        /* \"#utility.yul\":15355:15382   */\n      tag_454\n        /* \"#utility.yul\":15377:15381   */\n      dup3\n        /* \"#utility.yul\":15355:15382   */\n      tag_455\n      jump\t// in\n    tag_454:\n        /* \"#utility.yul\":15347:15353   */\n      dup2\n        /* \"#utility.yul\":15343:15383   */\n      add\n        /* \"#utility.yul\":15485:15491   */\n      dup2\n        /* \"#utility.yul\":15473:15483   */\n      dup2\n        /* \"#utility.yul\":15470:15492   */\n      lt\n        /* \"#utility.yul\":15449:15467   */\n      0xffffffffffffffff\n        /* \"#utility.yul\":15437:15447   */\n      dup3\n        /* \"#utility.yul\":15434:15468   */\n      gt\n        /* \"#utility.yul\":15431:15493   */\n      or\n        /* \"#utility.yul\":15428:15516   */\n      iszero\n      tag_456\n      jumpi\n        /* \"#utility.yul\":15496:15514   */\n      tag_457\n      tag_97\n      jump\t// in\n    tag_457:\n        /* \"#utility.yul\":15428:15516   */\n    tag_456:\n        /* \"#utility.yul\":15536:15546   */\n      dup1\n        /* \"#utility.yul\":15532:15534   */\n      0x40\n        /* \"#utility.yul\":15525:15547   */\n      mstore\n        /* \"#utility.yul\":15315:15553   */\n      pop\n        /* \"#utility.yul\":15272:15553   */\n      pop\n      pop\n      jump\t// out\n        /* \"#utility.yul\":15559:15792   */\n    tag_114:\n        /* \"#utility.yul\":15598:15601   */\n      0x00\n        /* \"#utility.yul\":15621:15645   */\n      tag_459\n        /* \"#utility.yul\":15639:15644   */\n      dup3\n        /* \"#utility.yul\":15621:15645   */\n      tag_372\n      jump\t// in\n    tag_459:\n        /* \"#utility.yul\":15612:15645   */\n      swap2\n      pop\n        /* \"#utility.yul\":15667:15733   */\n      0xffffffffffffffffffffffffffffffffffffffffffffffffffffffffffffffff\n        /* \"#utility.yul\":15660:15665   */\n      dup3\n        /* \"#utility.yul\":15657:15734   */\n      eq\n        /* \"#utility.yul\":15654:15757   */\n      iszero\n      tag_460\n      jumpi\n        /* \"#utility.yul\":15737:15755   */\n      tag_461\n      tag_430\n      jump\t// in\n    tag_461:\n        /* \"#utility.yul\":15654:15757   */\n    tag_460:\n        /* \"#utility.yul\":15784:15785   */\n      0x01\n        /* \"#utility.yul\":15777:15782   */\n      dup3\n        /* \"#utility.yul\":15773:15786   */\n      add\n        /* \"#utility.yul\":15766:15786   */\n      swap1\n      pop\n        /* \"#utility.yul\":15559:15792   */\n      swap2\n      swap1\n      pop\n      jump\t// out\n        /* \"#utility.yul\":15798:15877   */\n    tag_380:\n        /* \"#utility.yul\":15837:15844   */\n      0x00\n        /* \"#utility.yul\":15866:15871   */\n      dup2\n        /* \"#utility.yul\":15855:15871   */\n      swap1\n      pop\n        /* \"#utility.yul\":15798:15877   */\n      swap2\n      swap1\n      pop\n      jump\t// out\n        /* \"#utility.yul\":15883:16059   */\n    tag_107:\n        /* \"#utility.yul\":15915:15916   */\n      0x00\n        /* \"#utility.yul\":15932:15952   */\n      tag_464\n        /* \"#utility.yul\":15950:15951   */\n      dup3\n        /* \"#utility.yul\":15932:15952   */\n      tag_372\n      jump\t// in\n    tag_464:\n        /* \"#utility.yul\":15927:15952   */\n      swap2\n      pop\n        /* \"#utility.yul\":15966:15986   */\n      tag_465\n        /* \"#utility.yul\":15984:15985   */\n      dup4\n        /* \"#utility.yul\":15966:15986   */\n      tag_372\n      jump\t// in\n    tag_465:\n        /* \"#utility.yul\":15961:15986   */\n      swap3\n      pop\n        /* \"#utility.yul\":16005:16006   */\n      dup3\n        /* \"#utility.yul\":15995:16030   */\n      tag_466\n      jumpi\n        /* \"#utility.yul\":16010:16028   */\n      tag_467\n      tag_436\n      jump\t// in\n    tag_467:\n        /* \"#utility.yul\":15995:16030   */\n    tag_466:\n        /* \"#utility.yul\":16051:16052   */\n      dup3\n        /* \"#utility.yul\":16048:16049   */\n      dup3\n        /* \"#utility.yul\":16044:16053   */\n      mod\n        /* \"#utility.yul\":16039:16053   */\n      swap1\n      pop\n        /* \"#utility.yul\":15883:16059   */\n      swap3\n      swap2\n      pop\n      pop\n      jump\t// out\n        /* \"#utility.yul\":16065:16245   */\n    tag_430:\n        /* \"#utility.yul\":16113:16190   */\n      0x4e487b7100000000000000000000000000000000000000000000000000000000\n        /* \"#utility.yul\":16110:16111   */\n      0x00\n        /* \"#utility.yul\":16103:16191   */\n      mstore\n        /* \"#utility.yul\":16210:16214   */\n      0x11\n        /* \"#utility.yul\":16207:16208   */\n      0x04\n        /* \"#utility.yul\":16200:16215   */\n      mstore\n        /* \"#utility.yul\":16234:16238   */\n      0x24\n        /* \"#utility.yul\":16231:16232   */\n      0x00\n        /* \"#utility.yul\":16224:16239   */\n      revert\n        /* \"#utility.yul\":16251:16431   */\n    tag_436:\n        /* \"#utility.yul\":16299:16376   */\n      0x4e487b7100000000000000000000000000000000000000000000000000000000\n        /* \"#utility.yul\":16296:16297   */\n      0x00\n        /* \"#utility.yul\":16289:16377   */\n      mstore\n        /* \"#utility.yul\":16396:16400   */\n      0x12\n        /* \"#utility.yul\":16393:16394   */\n      0x04\n        /* \"#utility.yul\":16386:16401   */\n      mstore\n        /* \"#utility.yul\":16420:16424   */\n      0x24\n        /* \"#utility.yul\":16417:16418   */\n      0x00\n        /* \"#utility.yul\":16410:16425   */\n      revert\n        /* \"#utility.yul\":16437:16617   */\n    tag_111:\n        /* \"#utility.yul\":16485:16562   */\n      0x4e487b7100000000000000000000000000000000000000000000000000000000\n        /* \"#utility.yul\":16482:16483   */\n      0x00\n        /* \"#utility.yul\":16475:16563   */\n      mstore\n        /* \"#utility.yul\":16582:16586   */\n      0x32\n        /* \"#utility.yul\":16579:16580   */\n      0x04\n        /* \"#utility.yul\":16572:16587   */\n      mstore\n        /* \"#utility.yul\":16606:16610   */\n      0x24\n        /* \"#utility.yul\":16603:16604   */\n      0x00\n        /* \"#utility.yul\":16596:16611   */\n      revert\n        /* \"#utility.yul\":16623:16803   */\n    tag_97:\n        /* \"#utility.yul\":16671:16748   */\n      0x4e487b7100000000000000000000000000000000000000000000000000000000\n        /* \"#utility.yul\":16668:16669   */\n      0x00\n        /* \"#utility.yul\":16661:16749   */\n      mstore\n        /* \"#utility.yul\":16768:16772   */\n      0x41\n        /* \"#utility.yul\":16765:16766   */\n      0x04\n        /* \"#utility.yul\":16758:16773   */\n      mstore\n        /* \"#utility.yul\":16792:16796   */\n      0x24\n        /* \"#utility.yul\":16789:16790   */\n      0x00\n        /* \"#utility.yul\":16782:16797   */\n      revert\n        /* \"#utility.yul\":16809:16926   */\n    tag_281:\n        /* \"#utility.yul\":16918:16919   */\n      0x00\n        /* \"#utility.yul\":16915:16916   */\n      dup1\n        /* \"#utility.yul\":16908:16920   */\n      revert\n        /* \"#utility.yul\":16932:17049   */\n    tag_271:\n        /* \"#utility.yul\":17041:17042   */\n      0x00\n        /* \"#utility.yul\":17038:17039   */\n      dup1\n        /* \"#utility.yul\":17031:17043   */\n      revert\n        /* \"#utility.yul\":17055:17172   */\n    tag_292:\n        /* \"#utility.yul\":17164:17165   */\n      0x00\n        /* \"#utility.yul\":17161:17162   */\n      dup1\n        /* \"#utility.yul\":17154:17166   */\n      revert\n        /* \"#utility.yul\":17178:17295   */\n    tag_289:\n        /* \"#utility.yul\":17287:17288   */\n      0x00\n        /* \"#utility.yul\":17284:17285   */\n      dup1\n        /* \"#utility.yul\":17277:17289   */\n      revert\n        /* \"#utility.yul\":17301:17403   */\n    tag_455:\n        /* \"#utility.yul\":17342:17348   */\n      0x00\n        /* \"#utility.yul\":17393:17395   */\n      0x1f\n        /* \"#utility.yul\":17389:17396   */\n      not\n        /* \"#utility.yul\":17384:17386   */\n      0x1f\n        /* \"#utility.yul\":17377:17382   */\n      dup4\n        /* \"#utility.yul\":17373:17387   */\n      add\n        /* \"#utility.yul\":17369:17397   */\n      and\n        /* \"#utility.yul\":17359:17397   */\n      swap1\n      pop\n        /* \"#utility.yul\":17301:17403   */\n      swap2\n      swap1\n      pop\n      jump\t// out\n        /* \"#utility.yul\":17409:17579   */\n    tag_329:\n        /* \"#utility.yul\":17549:17571   */\n      0x4e6f20457468657220746f2070756c6c206f7574000000000000000000000000\n        /* \"#utility.yul\":17545:17546   */\n      0x00\n        /* \"#utility.yul\":17537:17543   */\n      dup3\n        /* \"#utility.yul\":17533:17547   */\n      add\n        /* \"#utility.yul\":17526:17572   */\n      mstore\n        /* \"#utility.yul\":17409:17579   */\n      pop\n      jump\t// out\n        /* \"#utility.yul\":17585:17752   */\n    tag_334:\n        /* \"#utility.yul\":17725:17744   */\n      0x4e6f207469636b65742077617320626f75000000000000000000000000000000\n        /* \"#utility.yul\":17721:17722   */\n      0x00\n        /* \"#utility.yul\":17713:17719   */\n      dup3\n        /* \"#utility.yul\":17709:17723   */\n      add\n        /* \"#utility.yul\":17702:17745   */\n      mstore\n        /* \"#utility.yul\":17585:17752   */\n      pop\n      jump\t// out\n        /* \"#utility.yul\":17758:17940   */\n    tag_339:\n        /* \"#utility.yul\":17898:17932   */\n      0x596f75206861766520616c726561647920626f756768742061207469636b6574\n        /* \"#utility.yul\":17894:17895   */\n      0x00\n        /* \"#utility.yul\":17886:17892   */\n      dup3\n        /* \"#utility.yul\":17882:17896   */\n      add\n        /* \"#utility.yul\":17875:17933   */\n      mstore\n        /* \"#utility.yul\":17758:17940   */\n      pop\n      jump\t// out\n        /* \"#utility.yul\":17946:18171   */\n    tag_344:\n        /* \"#utility.yul\":18086:18120   */\n      0x4f6e6c7920746865206f776e65722063616e20706572666f726d207468697320\n        /* \"#utility.yul\":18082:18083   */\n      0x00\n        /* \"#utility.yul\":18074:18080   */\n      dup3\n        /* \"#utility.yul\":18070:18084   */\n      add\n        /* \"#utility.yul\":18063:18121   */\n      mstore\n        /* \"#utility.yul\":18155:18163   */\n      0x616374696f6e0000000000000000000000000000000000000000000000000000\n        /* \"#utility.yul\":18150:18152   */\n      0x20\n        /* \"#utility.yul\":18142:18148   */\n      dup3\n        /* \"#utility.yul\":18138:18153   */\n      add\n        /* \"#utility.yul\":18131:18164   */\n      mstore\n        /* \"#utility.yul\":17946:18171   */\n      pop\n      jump\t// out\n        /* \"#utility.yul\":18177:18348   */\n    tag_349:\n        /* \"#utility.yul\":18317:18340   */\n      0x4e6f206c6f74746572792069732072756e6e696e670000000000000000000000\n        /* \"#utility.yul\":18313:18314   */\n      0x00\n        /* \"#utility.yul\":18305:18311   */\n      dup3\n        /* \"#utility.yul\":18301:18315   */\n      add\n        /* \"#utility.yul\":18294:18341   */\n      mstore\n        /* \"#utility.yul\":18177:18348   */\n      pop\n      jump\t// out\n        /* \"#utility.yul\":18354:18516   */\n    tag_354:\n        /* \"#utility.yul\":18494:18508   */\n      0x57726f6e67206e756d6265720000000000000000000000000000000000000000\n        /* \"#utility.yul\":18490:18491   */\n      0x00\n        /* \"#utility.yul\":18482:18488   */\n      dup3\n        /* \"#utility.yul\":18478:18492   */\n      add\n        /* \"#utility.yul\":18471:18509   */\n      mstore\n        /* \"#utility.yul\":18354:18516   */\n      pop\n      jump\t// out\n        /* \"#utility.yul\":18522:18695   */\n    tag_359:\n        /* \"#utility.yul\":18662:18687   */\n      0x57726f6e67206e756d626572206f66206e756d62657273000000000000000000\n        /* \"#utility.yul\":18658:18659   */\n      0x00\n        /* \"#utility.yul\":18650:18656   */\n      dup3\n        /* \"#utility.yul\":18646:18660   */\n      add\n        /* \"#utility.yul\":18639:18688   */\n      mstore\n        /* \"#utility.yul\":18522:18695   */\n      pop\n      jump\t// out\n        /* \"#utility.yul\":18701:18871   */\n    tag_364:\n        /* \"#utility.yul\":18841:18863   */\n      0x41206c6f74746572792069732072756e6e696e67000000000000000000000000\n        /* \"#utility.yul\":18837:18838   */\n      0x00\n        /* \"#utility.yul\":18829:18835   */\n      dup3\n        /* \"#utility.yul\":18825:18839   */\n      add\n        /* \"#utility.yul\":18818:18864   */\n      mstore\n        /* \"#utility.yul\":18701:18871   */\n      pop\n      jump\t// out\n        /* \"#utility.yul\":18877:19039   */\n    tag_369:\n        /* \"#utility.yul\":19017:19031   */\n      0x57726f6e6720616d6f756e740000000000000000000000000000000000000000\n        /* \"#utility.yul\":19013:19014   */\n      0x00\n        /* \"#utility.yul\":19005:19011   */\n      dup3\n        /* \"#utility.yul\":19001:19015   */\n      add\n        /* \"#utility.yul\":18994:19032   */\n      mstore\n        /* \"#utility.yul\":18877:19039   */\n      pop\n      jump\t// out\n        /* \"#utility.yul\":19045:19167   */\n    tag_285:\n        /* \"#utility.yul\":19118:19142   */\n      tag_487\n        /* \"#utility.yul\":19136:19141   */\n      dup2\n        /* \"#utility.yul\":19118:19142   */\n      tag_372\n      jump\t// in\n    tag_487:\n        /* \"#utility.yul\":19111:19116   */\n      dup2\n        /* \"#utility.yul\":19108:19143   */\n      eq\n        /* \"#utility.yul\":19098:19161   */\n      tag_488\n      jumpi\n        /* \"#utility.yul\":19157:19158   */\n      0x00\n        /* \"#utility.yul\":19154:19155   */\n      dup1\n        /* \"#utility.yul\":19147:19159   */\n      revert\n        /* \"#utility.yul\":19098:19161   */\n    tag_488:\n        /* \"#utility.yul\":19045:19167   */\n      pop\n      jump\t// out\n\n    auxdata: 0xa26469706673582212201fab7fdee171c8ab47edf6aad7deb085f7082e30fa916d7bbe741e98fa34fb9564736f6c63430008070033\n}\n",
				"bytecode": {
					"linkReferences": {},
					"object": "6080604052674563918244f4000060035560006005556000600760006101000a81548160ff02191690831515021790555034801561003c57600080fd5b50336000806101000a81548173ffffffffffffffffffffffffffffffffffffffff021916908373ffffffffffffffffffffffffffffffffffffffff160217905550611ea08061008c6000396000f3fe6080604052600436106100dd5760003560e01c806387bb7ae01161007f5780638da5cb5b116100595780638da5cb5b14610267578063a650fbab14610292578063b04a3f1c146102bd578063d386ea73146102d4576100dd565b806387bb7ae0146101e65780638a4a29c3146102115780638b0b9ed41461023c576100dd565b8063472016da116100bb578063472016da146101395780634efd7cca146101765780635a3811b91461019f578063716cac96146101ca576100dd565b806330daec49146100e257806336c1ec23146100f95780634630a0ee14610110575b600080fd5b3480156100ee57600080fd5b506100f76102ff565b005b34801561010557600080fd5b5061010e6104a2565b005b34801561011c57600080fd5b506101376004803603810190610132919061152d565b610648565b005b34801561014557600080fd5b50610160600480360381019061015b919061152d565b610749565b60405161016d919061179b565b60405180910390f35b34801561018257600080fd5b5061019d600480360381019061019891906114e4565b610788565b005b3480156101ab57600080fd5b506101b4610886565b6040516101c191906117d8565b60405180910390f35b6101e460048036038101906101df91906114e4565b610899565b005b3480156101f257600080fd5b506101fb610b8d565b6040516102089190611913565b60405180910390f35b34801561021d57600080fd5b50610226610c00565b6040516102339190611913565b60405180910390f35b34801561024857600080fd5b50610251610c73565b60405161025e91906117b6565b60405180910390f35b34801561027357600080fd5b5061027c610daf565b604051610289919061179b565b60405180910390f35b34801561029e57600080fd5b506102a7610dd3565b6040516102b491906117b6565b60405180910390f35b3480156102c957600080fd5b506102d2610e68565b005b3480156102e057600080fd5b506102e9611316565b6040516102f69190611913565b60405180910390f35b60008054906101000a900473ffffffffffffffffffffffffffffffffffffffff1673ffffffffffffffffffffffffffffffffffffffff163373ffffffffffffffffffffffffffffffffffffffff161461038d576040517f08c379a000000000000000000000000000000000000000000000000000000000815260040161038490611853565b60405180910390fd5b60011515600760009054906101000a900460ff161515146103e3576040517f08c379a00000000000000000000000000000000000000000000000000000000081526004016103da90611873565b60405180910390fd5b60008060009054906101000a900473ffffffffffffffffffffffffffffffffffffffff16905060006004541161044e576040517f08c379a0000000000000000000000000000000000000000000000000000000008152600401610445906117f3565b60405180910390fd5b8073ffffffffffffffffffffffffffffffffffffffff166108fc6004549081150290604051600060405180830381858888f19350505050158015610496573d6000803e3d6000fd5b50600060048190555050565b60008054906101000a900473ffffffffffffffffffffffffffffffffffffffff1673ffffffffffffffffffffffffffffffffffffffff163373ffffffffffffffffffffffffffffffffffffffff1614610530576040517f08c379a000000000000000000000000000000000000000000000000000000000815260040161052790611853565b60405180910390fd5b6001600760006101000a81548160ff021916908315150217905550600667ffffffffffffffff81111561056657610565611c68565b5b6040519080825280602002602001820160405280156105945781602001602082028036833780820191505090505b50600190805190602001906105aa92919061131c565b506000805b6006811015610644576000600a4442846040516020016105d19392919061175e565b6040516020818303038152906040528051906020012060001c6105f49190611baa565b90506000811461063057806001848154811061061357610612611c39565b5b9060005260206000200181905550828061062c90611b57565b9350505b50808061063c90611b57565b9150506105af565b5050565b60008054906101000a900473ffffffffffffffffffffffffffffffffffffffff1673ffffffffffffffffffffffffffffffffffffffff163373ffffffffffffffffffffffffffffffffffffffff16146106d6576040517f08c379a00000000000000000000000000000000000000000000000000000000081526004016106cd90611853565b60405180910390fd5b60001515600760009054906101000a900460ff1615151461072c576040517f08c379a0000000000000000000000000000000000000000000000000000000008152600401610723906118d3565b60405180910390fd5b670de0b6b3a7640000816107409190611a50565b60038190555050565b6006818154811061075957600080fd5b906000526020600020016000915054906101000a900473ffffffffffffffffffffffffffffffffffffffff1681565b60008054906101000a900473ffffffffffffffffffffffffffffffffffffffff1673ffffffffffffffffffffffffffffffffffffffff163373ffffffffffffffffffffffffffffffffffffffff1614610816576040517f08c379a000000000000000000000000000000000000000000000000000000000815260040161080d90611853565b60405180910390fd5b600681511461082457600080fd5b60005b815181101561086b57600982828151811061084557610844611c39565b5b6020026020010151111561085857600080fd5b808061086390611b57565b915050610827565b50806001908051906020019061088292919061131c565b5050565b600760009054906101000a900460ff1681565b60011515600760009054906101000a900460ff161515146108ef576040517f08c379a00000000000000000000000000000000000000000000000000000000081526004016108e690611873565b60405180910390fd5b6003543414610933576040517f08c379a000000000000000000000000000000000000000000000000000000000815260040161092a906118f3565b60405180910390fd5b6006815114610977576040517f08c379a000000000000000000000000000000000000000000000000000000000815260040161096e906118b3565b60405180910390fd5b60005b8151811015610a1a57600a82828151811061099857610997611c39565b5b60200260200101511080156109c8575060008282815181106109bd576109bc611c39565b5b602002602001015110155b610a07576040517f08c379a00000000000000000000000000000000000000000000000000000000081526004016109fe90611893565b60405180910390fd5b8080610a1290611b57565b91505061097a565b506000600260003373ffffffffffffffffffffffffffffffffffffffff1673ffffffffffffffffffffffffffffffffffffffff1681526020019081526020016000208054905014610aa0576040517f08c379a0000000000000000000000000000000000000000000000000000000008152600401610a9790611833565b60405180910390fd5b80600260003373ffffffffffffffffffffffffffffffffffffffff1673ffffffffffffffffffffffffffffffffffffffff1681526020019081526020016000209080519060200190610af392919061131c565b506006339080600181540180825580915050600190039060005260206000200160009091909190916101000a81548173ffffffffffffffffffffffffffffffffffffffff021916908373ffffffffffffffffffffffffffffffffffffffff1602179055503460046000828254610b6991906119c9565b92505081905550600160056000828254610b8391906119c9565b9250508190555050565b600060011515600760009054906101000a900460ff16151514610be5576040517f08c379a0000000000000000000000000000000000000000000000000000000008152600401610bdc90611873565b60405180910390fd5b670de0b6b3a7640000600354610bfb9190611a1f565b905090565b600060011515600760009054906101000a900460ff16151514610c58576040517f08c379a0000000000000000000000000000000000000000000000000000000008152600401610c4f90611873565b60405180910390fd5b670de0b6b3a7640000600454610c6e9190611a1f565b905090565b606060008054906101000a900473ffffffffffffffffffffffffffffffffffffffff1673ffffffffffffffffffffffffffffffffffffffff163373ffffffffffffffffffffffffffffffffffffffff1614610d03576040517f08c379a0000000000000000000000000000000000000000000000000000000008152600401610cfa90611853565b60405180910390fd5b60011515600760009054906101000a900460ff16151514610d59576040517f08c379a0000000000000000000000000000000000000000000000000000000008152600401610d5090611873565b60405180910390fd5b6001805480602002602001604051908101604052809291908181526020018280548015610da557602002820191906000526020600020905b815481526020019060010190808311610d91575b5050505050905090565b60008054906101000a900473ffffffffffffffffffffffffffffffffffffffff1681565b6060600260003373ffffffffffffffffffffffffffffffffffffffff1673ffffffffffffffffffffffffffffffffffffffff168152602001908152602001600020805480602002602001604051908101604052809291908181526020018280548015610e5e57602002820191906000526020600020905b815481526020019060010190808311610e4a575b5050505050905090565b60008054906101000a900473ffffffffffffffffffffffffffffffffffffffff1673ffffffffffffffffffffffffffffffffffffffff163373ffffffffffffffffffffffffffffffffffffffff1614610ef6576040517f08c379a0000000000000000000000000000000000000000000000000000000008152600401610eed90611853565b60405180910390fd5b60011515600760009054906101000a900460ff16151514610f4c576040517f08c379a0000000000000000000000000000000000000000000000000000000008152600401610f4390611873565b60405180910390fd5b600060055411610f91576040517f08c379a0000000000000000000000000000000000000000000000000000000008152600401610f8890611813565b60405180910390fd5b600080600080600080600090505b60068054905081101561126e5760005b6001805490508110156110a65760018181548110610fd057610fcf611c39565b5b90600052602060002001546002600060068581548110610ff357610ff2611c39565b5b9060005260206000200160009054906101000a900473ffffffffffffffffffffffffffffffffffffffff1673ffffffffffffffffffffffffffffffffffffffff1673ffffffffffffffffffffffffffffffffffffffff168152602001908152602001600020828154811061106a57611069611c39565b5b9060005260206000200154141561108e57868061108690611b57565b975050611093565b6110a6565b808061109e90611b57565b915050610faf565b5060026000600683815481106110bf576110be611c39565b5b9060005260206000200160009054906101000a900473ffffffffffffffffffffffffffffffffffffffff1673ffffffffffffffffffffffffffffffffffffffff1673ffffffffffffffffffffffffffffffffffffffff16815260200190815260200160002060006111309190611369565b6001861415611142576002945061119d565b6002861415611154576003945061119c565b6003861415611166576005945061119b565b600486141561117857600a945061119a565b600586141561118a5760149450611199565b600686141561119857602894505b5b5b5b5b5b6064856004546111ad9190611a50565b6111b79190611a1f565b935083836111c591906119c9565b9250600681815481106111db576111da611c39565b5b9060005260206000200160009054906101000a900473ffffffffffffffffffffffffffffffffffffffff1691508173ffffffffffffffffffffffffffffffffffffffff166108fc859081150290604051600060405180830381858888f1935050505015801561124e573d6000803e3d6000fd5b50600095506000945060009350808061126690611b57565b915050610f9f565b50600060058190555081600460008282546112899190611aaa565b92505081905550600067ffffffffffffffff8111156112ab576112aa611c68565b5b6040519080825280602002602001820160405280156112d95781602001602082028036833780820191505090505b50600690805190602001906112ef92919061138a565b50600090506000600760006101000a81548160ff0219169083151502179055505050505050565b60055481565b828054828255906000526020600020908101928215611358579160200282015b8281111561135757825182559160200191906001019061133c565b5b5090506113659190611414565b5090565b50805460008255906000526020600020908101906113879190611414565b50565b828054828255906000526020600020908101928215611403579160200282015b828111156114025782518260006101000a81548173ffffffffffffffffffffffffffffffffffffffff021916908373ffffffffffffffffffffffffffffffffffffffff160217905550916020019190600101906113aa565b5b5090506114109190611414565b5090565b5b8082111561142d576000816000905550600101611415565b5090565b600061144461143f84611953565b61192e565b9050808382526020820190508285602086028201111561146757611466611c9c565b5b60005b85811015611497578161147d88826114cf565b84526020840193506020830192505060018101905061146a565b5050509392505050565b600082601f8301126114b6576114b5611c97565b5b81356114c6848260208601611431565b91505092915050565b6000813590506114de81611e53565b92915050565b6000602082840312156114fa576114f9611ca6565b5b600082013567ffffffffffffffff81111561151857611517611ca1565b5b611524848285016114a1565b91505092915050565b60006020828403121561154357611542611ca6565b5b6000611551848285016114cf565b91505092915050565b60006115668383611729565b60208301905092915050565b61157b81611ade565b82525050565b600061158c8261198f565b61159681856119a7565b93506115a18361197f565b8060005b838110156115d25781516115b9888261155a565b97506115c48361199a565b9250506001810190506115a5565b5085935050505092915050565b6115e881611af0565b82525050565b60006115fb6014836119b8565b915061160682611cbc565b602082019050919050565b600061161e6011836119b8565b915061162982611ce5565b602082019050919050565b60006116416020836119b8565b915061164c82611d0e565b602082019050919050565b60006116646026836119b8565b915061166f82611d37565b604082019050919050565b60006116876015836119b8565b915061169282611d86565b602082019050919050565b60006116aa600c836119b8565b91506116b582611daf565b602082019050919050565b60006116cd6017836119b8565b91506116d882611dd8565b602082019050919050565b60006116f06014836119b8565b91506116fb82611e01565b602082019050919050565b6000611713600c836119b8565b915061171e82611e2a565b602082019050919050565b61173281611b1c565b82525050565b61174181611b1c565b82525050565b61175861175382611b1c565b611ba0565b82525050565b600061176a8286611747565b60208201915061177a8285611747565b60208201915061178a8284611747565b602082019150819050949350505050565b60006020820190506117b06000830184611572565b92915050565b600060208201905081810360008301526117d08184611581565b905092915050565b60006020820190506117ed60008301846115df565b92915050565b6000602082019050818103600083015261180c816115ee565b9050919050565b6000602082019050818103600083015261182c81611611565b9050919050565b6000602082019050818103600083015261184c81611634565b9050919050565b6000602082019050818103600083015261186c81611657565b9050919050565b6000602082019050818103600083015261188c8161167a565b9050919050565b600060208201905081810360008301526118ac8161169d565b9050919050565b600060208201905081810360008301526118cc816116c0565b9050919050565b600060208201905081810360008301526118ec816116e3565b9050919050565b6000602082019050818103600083015261190c81611706565b9050919050565b60006020820190506119286000830184611738565b92915050565b6000611938611949565b90506119448282611b26565b919050565b6000604051905090565b600067ffffffffffffffff82111561196e5761196d611c68565b5b602082029050602081019050919050565b6000819050602082019050919050565b600081519050919050565b6000602082019050919050565b600082825260208201905092915050565b600082825260208201905092915050565b60006119d482611b1c565b91506119df83611b1c565b9250827fffffffffffffffffffffffffffffffffffffffffffffffffffffffffffffffff03821115611a1457611a13611bdb565b5b828201905092915050565b6000611a2a82611b1c565b9150611a3583611b1c565b925082611a4557611a44611c0a565b5b828204905092915050565b6000611a5b82611b1c565b9150611a6683611b1c565b9250817fffffffffffffffffffffffffffffffffffffffffffffffffffffffffffffffff0483118215151615611a9f57611a9e611bdb565b5b828202905092915050565b6000611ab582611b1c565b9150611ac083611b1c565b925082821015611ad357611ad2611bdb565b5b828203905092915050565b6000611ae982611afc565b9050919050565b60008115159050919050565b600073ffffffffffffffffffffffffffffffffffffffff82169050919050565b6000819050919050565b611b2f82611cab565b810181811067ffffffffffffffff82111715611b4e57611b4d611c68565b5b80604052505050565b6000611b6282611b1c565b91507fffffffffffffffffffffffffffffffffffffffffffffffffffffffffffffffff821415611b9557611b94611bdb565b5b600182019050919050565b6000819050919050565b6000611bb582611b1c565b9150611bc083611b1c565b925082611bd057611bcf611c0a565b5b828206905092915050565b7f4e487b7100000000000000000000000000000000000000000000000000000000600052601160045260246000fd5b7f4e487b7100000000000000000000000000000000000000000000000000000000600052601260045260246000fd5b7f4e487b7100000000000000000000000000000000000000000000000000000000600052603260045260246000fd5b7f4e487b7100000000000000000000000000000000000000000000000000000000600052604160045260246000fd5b600080fd5b600080fd5b600080fd5b600080fd5b6000601f19601f8301169050919050565b7f4e6f20457468657220746f2070756c6c206f7574000000000000000000000000600082015250565b7f4e6f207469636b65742077617320626f75000000000000000000000000000000600082015250565b7f596f75206861766520616c726561647920626f756768742061207469636b6574600082015250565b7f4f6e6c7920746865206f776e65722063616e20706572666f726d20746869732060008201527f616374696f6e0000000000000000000000000000000000000000000000000000602082015250565b7f4e6f206c6f74746572792069732072756e6e696e670000000000000000000000600082015250565b7f57726f6e67206e756d6265720000000000000000000000000000000000000000600082015250565b7f57726f6e67206e756d626572206f66206e756d62657273000000000000000000600082015250565b7f41206c6f74746572792069732072756e6e696e67000000000000000000000000600082015250565b7f57726f6e6720616d6f756e740000000000000000000000000000000000000000600082015250565b611e5c81611b1c565b8114611e6757600080fd5b5056fea26469706673582212201fab7fdee171c8ab47edf6aad7deb085f7082e30fa916d7bbe741e98fa34fb9564736f6c63430008070033",
					"opcodes": "PUSH1 0x80 PUSH1 0x40 MSTORE PUSH8 0x4563918244F40000 PUSH1 0x3 SSTORE PUSH1 0x0 PUSH1 0x5 SSTORE PUSH1 0x0 PUSH1 0x7 PUSH1 0x0 PUSH2 0x100 EXP DUP2 SLOAD DUP2 PUSH1 0xFF MUL NOT AND SWAP1 DUP4 ISZERO ISZERO MUL OR SWAP1 SSTORE POP CALLVALUE DUP1 ISZERO PUSH2 0x3C JUMPI PUSH1 0x0 DUP1 REVERT JUMPDEST POP CALLER PUSH1 0x0 DUP1 PUSH2 0x100 EXP DUP2 SLOAD DUP2 PUSH20 0xFFFFFFFFFFFFFFFFFFFFFFFFFFFFFFFFFFFFFFFF MUL NOT AND SWAP1 DUP4 PUSH20 0xFFFFFFFFFFFFFFFFFFFFFFFFFFFFFFFFFFFFFFFF AND MUL OR SWAP1 SSTORE POP PUSH2 0x1EA0 DUP1 PUSH2 0x8C PUSH1 0x0 CODECOPY PUSH1 0x0 RETURN INVALID PUSH1 0x80 PUSH1 0x40 MSTORE PUSH1 0x4 CALLDATASIZE LT PUSH2 0xDD JUMPI PUSH1 0x0 CALLDATALOAD PUSH1 0xE0 SHR DUP1 PUSH4 0x87BB7AE0 GT PUSH2 0x7F JUMPI DUP1 PUSH4 0x8DA5CB5B GT PUSH2 0x59 JUMPI DUP1 PUSH4 0x8DA5CB5B EQ PUSH2 0x267 JUMPI DUP1 PUSH4 0xA650FBAB EQ PUSH2 0x292 JUMPI DUP1 PUSH4 0xB04A3F1C EQ PUSH2 0x2BD JUMPI DUP1 PUSH4 0xD386EA73 EQ PUSH2 0x2D4 JUMPI PUSH2 0xDD JUMP JUMPDEST DUP1 PUSH4 0x87BB7AE0 EQ PUSH2 0x1E6 JUMPI DUP1 PUSH4 0x8A4A29C3 EQ PUSH2 0x211 JUMPI DUP1 PUSH4 0x8B0B9ED4 EQ PUSH2 0x23C JUMPI PUSH2 0xDD JUMP JUMPDEST DUP1 PUSH4 0x472016DA GT PUSH2 0xBB JUMPI DUP1 PUSH4 0x472016DA EQ PUSH2 0x139 JUMPI DUP1 PUSH4 0x4EFD7CCA EQ PUSH2 0x176 JUMPI DUP1 PUSH4 0x5A3811B9 EQ PUSH2 0x19F JUMPI DUP1 PUSH4 0x716CAC96 EQ PUSH2 0x1CA JUMPI PUSH2 0xDD JUMP JUMPDEST DUP1 PUSH4 0x30DAEC49 EQ PUSH2 0xE2 JUMPI DUP1 PUSH4 0x36C1EC23 EQ PUSH2 0xF9 JUMPI DUP1 PUSH4 0x4630A0EE EQ PUSH2 0x110 JUMPI JUMPDEST PUSH1 0x0 DUP1 REVERT JUMPDEST CALLVALUE DUP1 ISZERO PUSH2 0xEE JUMPI PUSH1 0x0 DUP1 REVERT JUMPDEST POP PUSH2 0xF7 PUSH2 0x2FF JUMP JUMPDEST STOP JUMPDEST CALLVALUE DUP1 ISZERO PUSH2 0x105 JUMPI PUSH1 0x0 DUP1 REVERT JUMPDEST POP PUSH2 0x10E PUSH2 0x4A2 JUMP JUMPDEST STOP JUMPDEST CALLVALUE DUP1 ISZERO PUSH2 0x11C JUMPI PUSH1 0x0 DUP1 REVERT JUMPDEST POP PUSH2 0x137 PUSH1 0x4 DUP1 CALLDATASIZE SUB DUP2 ADD SWAP1 PUSH2 0x132 SWAP2 SWAP1 PUSH2 0x152D JUMP JUMPDEST PUSH2 0x648 JUMP JUMPDEST STOP JUMPDEST CALLVALUE DUP1 ISZERO PUSH2 0x145 JUMPI PUSH1 0x0 DUP1 REVERT JUMPDEST POP PUSH2 0x160 PUSH1 0x4 DUP1 CALLDATASIZE SUB DUP2 ADD SWAP1 PUSH2 0x15B SWAP2 SWAP1 PUSH2 0x152D JUMP JUMPDEST PUSH2 0x749 JUMP JUMPDEST PUSH1 0x40 MLOAD PUSH2 0x16D SWAP2 SWAP1 PUSH2 0x179B JUMP JUMPDEST PUSH1 0x40 MLOAD DUP1 SWAP2 SUB SWAP1 RETURN JUMPDEST CALLVALUE DUP1 ISZERO PUSH2 0x182 JUMPI PUSH1 0x0 DUP1 REVERT JUMPDEST POP PUSH2 0x19D PUSH1 0x4 DUP1 CALLDATASIZE SUB DUP2 ADD SWAP1 PUSH2 0x198 SWAP2 SWAP1 PUSH2 0x14E4 JUMP JUMPDEST PUSH2 0x788 JUMP JUMPDEST STOP JUMPDEST CALLVALUE DUP1 ISZERO PUSH2 0x1AB JUMPI PUSH1 0x0 DUP1 REVERT JUMPDEST POP PUSH2 0x1B4 PUSH2 0x886 JUMP JUMPDEST PUSH1 0x40 MLOAD PUSH2 0x1C1 SWAP2 SWAP1 PUSH2 0x17D8 JUMP JUMPDEST PUSH1 0x40 MLOAD DUP1 SWAP2 SUB SWAP1 RETURN JUMPDEST PUSH2 0x1E4 PUSH1 0x4 DUP1 CALLDATASIZE SUB DUP2 ADD SWAP1 PUSH2 0x1DF SWAP2 SWAP1 PUSH2 0x14E4 JUMP JUMPDEST PUSH2 0x899 JUMP JUMPDEST STOP JUMPDEST CALLVALUE DUP1 ISZERO PUSH2 0x1F2 JUMPI PUSH1 0x0 DUP1 REVERT JUMPDEST POP PUSH2 0x1FB PUSH2 0xB8D JUMP JUMPDEST PUSH1 0x40 MLOAD PUSH2 0x208 SWAP2 SWAP1 PUSH2 0x1913 JUMP JUMPDEST PUSH1 0x40 MLOAD DUP1 SWAP2 SUB SWAP1 RETURN JUMPDEST CALLVALUE DUP1 ISZERO PUSH2 0x21D JUMPI PUSH1 0x0 DUP1 REVERT JUMPDEST POP PUSH2 0x226 PUSH2 0xC00 JUMP JUMPDEST PUSH1 0x40 MLOAD PUSH2 0x233 SWAP2 SWAP1 PUSH2 0x1913 JUMP JUMPDEST PUSH1 0x40 MLOAD DUP1 SWAP2 SUB SWAP1 RETURN JUMPDEST CALLVALUE DUP1 ISZERO PUSH2 0x248 JUMPI PUSH1 0x0 DUP1 REVERT JUMPDEST POP PUSH2 0x251 PUSH2 0xC73 JUMP JUMPDEST PUSH1 0x40 MLOAD PUSH2 0x25E SWAP2 SWAP1 PUSH2 0x17B6 JUMP JUMPDEST PUSH1 0x40 MLOAD DUP1 SWAP2 SUB SWAP1 RETURN JUMPDEST CALLVALUE DUP1 ISZERO PUSH2 0x273 JUMPI PUSH1 0x0 DUP1 REVERT JUMPDEST POP PUSH2 0x27C PUSH2 0xDAF JUMP JUMPDEST PUSH1 0x40 MLOAD PUSH2 0x289 SWAP2 SWAP1 PUSH2 0x179B JUMP JUMPDEST PUSH1 0x40 MLOAD DUP1 SWAP2 SUB SWAP1 RETURN JUMPDEST CALLVALUE DUP1 ISZERO PUSH2 0x29E JUMPI PUSH1 0x0 DUP1 REVERT JUMPDEST POP PUSH2 0x2A7 PUSH2 0xDD3 JUMP JUMPDEST PUSH1 0x40 MLOAD PUSH2 0x2B4 SWAP2 SWAP1 PUSH2 0x17B6 JUMP JUMPDEST PUSH1 0x40 MLOAD DUP1 SWAP2 SUB SWAP1 RETURN JUMPDEST CALLVALUE DUP1 ISZERO PUSH2 0x2C9 JUMPI PUSH1 0x0 DUP1 REVERT JUMPDEST POP PUSH2 0x2D2 PUSH2 0xE68 JUMP JUMPDEST STOP JUMPDEST CALLVALUE DUP1 ISZERO PUSH2 0x2E0 JUMPI PUSH1 0x0 DUP1 REVERT JUMPDEST POP PUSH2 0x2E9 PUSH2 0x1316 JUMP JUMPDEST PUSH1 0x40 MLOAD PUSH2 0x2F6 SWAP2 SWAP1 PUSH2 0x1913 JUMP JUMPDEST PUSH1 0x40 MLOAD DUP1 SWAP2 SUB SWAP1 RETURN JUMPDEST PUSH1 0x0 DUP1 SLOAD SWAP1 PUSH2 0x100 EXP SWAP1 DIV PUSH20 0xFFFFFFFFFFFFFFFFFFFFFFFFFFFFFFFFFFFFFFFF AND PUSH20 0xFFFFFFFFFFFFFFFFFFFFFFFFFFFFFFFFFFFFFFFF AND CALLER PUSH20 0xFFFFFFFFFFFFFFFFFFFFFFFFFFFFFFFFFFFFFFFF AND EQ PUSH2 0x38D JUMPI PUSH1 0x40 MLOAD PUSH32 0x8C379A000000000000000000000000000000000000000000000000000000000 DUP2 MSTORE PUSH1 0x4 ADD PUSH2 0x384 SWAP1 PUSH2 0x1853 JUMP JUMPDEST PUSH1 0x40 MLOAD DUP1 SWAP2 SUB SWAP1 REVERT JUMPDEST PUSH1 0x1 ISZERO ISZERO PUSH1 0x7 PUSH1 0x0 SWAP1 SLOAD SWAP1 PUSH2 0x100 EXP SWAP1 DIV PUSH1 0xFF AND ISZERO ISZERO EQ PUSH2 0x3E3 JUMPI PUSH1 0x40 MLOAD PUSH32 0x8C379A000000000000000000000000000000000000000000000000000000000 DUP2 MSTORE PUSH1 0x4 ADD PUSH2 0x3DA SWAP1 PUSH2 0x1873 JUMP JUMPDEST PUSH1 0x40 MLOAD DUP1 SWAP2 SUB SWAP1 REVERT JUMPDEST PUSH1 0x0 DUP1 PUSH1 0x0 SWAP1 SLOAD SWAP1 PUSH2 0x100 EXP SWAP1 DIV PUSH20 0xFFFFFFFFFFFFFFFFFFFFFFFFFFFFFFFFFFFFFFFF AND SWAP1 POP PUSH1 0x0 PUSH1 0x4 SLOAD GT PUSH2 0x44E JUMPI PUSH1 0x40 MLOAD PUSH32 0x8C379A000000000000000000000000000000000000000000000000000000000 DUP2 MSTORE PUSH1 0x4 ADD PUSH2 0x445 SWAP1 PUSH2 0x17F3 JUMP JUMPDEST PUSH1 0x40 MLOAD DUP1 SWAP2 SUB SWAP1 REVERT JUMPDEST DUP1 PUSH20 0xFFFFFFFFFFFFFFFFFFFFFFFFFFFFFFFFFFFFFFFF AND PUSH2 0x8FC PUSH1 0x4 SLOAD SWAP1 DUP2 ISZERO MUL SWAP1 PUSH1 0x40 MLOAD PUSH1 0x0 PUSH1 0x40 MLOAD DUP1 DUP4 SUB DUP2 DUP6 DUP9 DUP9 CALL SWAP4 POP POP POP POP ISZERO DUP1 ISZERO PUSH2 0x496 JUMPI RETURNDATASIZE PUSH1 0x0 DUP1 RETURNDATACOPY RETURNDATASIZE PUSH1 0x0 REVERT JUMPDEST POP PUSH1 0x0 PUSH1 0x4 DUP2 SWAP1 SSTORE POP POP JUMP JUMPDEST PUSH1 0x0 DUP1 SLOAD SWAP1 PUSH2 0x100 EXP SWAP1 DIV PUSH20 0xFFFFFFFFFFFFFFFFFFFFFFFFFFFFFFFFFFFFFFFF AND PUSH20 0xFFFFFFFFFFFFFFFFFFFFFFFFFFFFFFFFFFFFFFFF AND CALLER PUSH20 0xFFFFFFFFFFFFFFFFFFFFFFFFFFFFFFFFFFFFFFFF AND EQ PUSH2 0x530 JUMPI PUSH1 0x40 MLOAD PUSH32 0x8C379A000000000000000000000000000000000000000000000000000000000 DUP2 MSTORE PUSH1 0x4 ADD PUSH2 0x527 SWAP1 PUSH2 0x1853 JUMP JUMPDEST PUSH1 0x40 MLOAD DUP1 SWAP2 SUB SWAP1 REVERT JUMPDEST PUSH1 0x1 PUSH1 0x7 PUSH1 0x0 PUSH2 0x100 EXP DUP2 SLOAD DUP2 PUSH1 0xFF MUL NOT AND SWAP1 DUP4 ISZERO ISZERO MUL OR SWAP1 SSTORE POP PUSH1 0x6 PUSH8 0xFFFFFFFFFFFFFFFF DUP2 GT ISZERO PUSH2 0x566 JUMPI PUSH2 0x565 PUSH2 0x1C68 JUMP JUMPDEST JUMPDEST PUSH1 0x40 MLOAD SWAP1 DUP1 DUP3 MSTORE DUP1 PUSH1 0x20 MUL PUSH1 0x20 ADD DUP3 ADD PUSH1 0x40 MSTORE DUP1 ISZERO PUSH2 0x594 JUMPI DUP2 PUSH1 0x20 ADD PUSH1 0x20 DUP3 MUL DUP1 CALLDATASIZE DUP4 CALLDATACOPY DUP1 DUP3 ADD SWAP2 POP POP SWAP1 POP JUMPDEST POP PUSH1 0x1 SWAP1 DUP1 MLOAD SWAP1 PUSH1 0x20 ADD SWAP1 PUSH2 0x5AA SWAP3 SWAP2 SWAP1 PUSH2 0x131C JUMP JUMPDEST POP PUSH1 0x0 DUP1 JUMPDEST PUSH1 0x6 DUP2 LT ISZERO PUSH2 0x644 JUMPI PUSH1 0x0 PUSH1 0xA DIFFICULTY TIMESTAMP DUP5 PUSH1 0x40 MLOAD PUSH1 0x20 ADD PUSH2 0x5D1 SWAP4 SWAP3 SWAP2 SWAP1 PUSH2 0x175E JUMP JUMPDEST PUSH1 0x40 MLOAD PUSH1 0x20 DUP2 DUP4 SUB SUB DUP2 MSTORE SWAP1 PUSH1 0x40 MSTORE DUP1 MLOAD SWAP1 PUSH1 0x20 ADD KECCAK256 PUSH1 0x0 SHR PUSH2 0x5F4 SWAP2 SWAP1 PUSH2 0x1BAA JUMP JUMPDEST SWAP1 POP PUSH1 0x0 DUP2 EQ PUSH2 0x630 JUMPI DUP1 PUSH1 0x1 DUP5 DUP2 SLOAD DUP2 LT PUSH2 0x613 JUMPI PUSH2 0x612 PUSH2 0x1C39 JUMP JUMPDEST JUMPDEST SWAP1 PUSH1 0x0 MSTORE PUSH1 0x20 PUSH1 0x0 KECCAK256 ADD DUP2 SWAP1 SSTORE POP DUP3 DUP1 PUSH2 0x62C SWAP1 PUSH2 0x1B57 JUMP JUMPDEST SWAP4 POP POP JUMPDEST POP DUP1 DUP1 PUSH2 0x63C SWAP1 PUSH2 0x1B57 JUMP JUMPDEST SWAP2 POP POP PUSH2 0x5AF JUMP JUMPDEST POP POP JUMP JUMPDEST PUSH1 0x0 DUP1 SLOAD SWAP1 PUSH2 0x100 EXP SWAP1 DIV PUSH20 0xFFFFFFFFFFFFFFFFFFFFFFFFFFFFFFFFFFFFFFFF AND PUSH20 0xFFFFFFFFFFFFFFFFFFFFFFFFFFFFFFFFFFFFFFFF AND CALLER PUSH20 0xFFFFFFFFFFFFFFFFFFFFFFFFFFFFFFFFFFFFFFFF AND EQ PUSH2 0x6D6 JUMPI PUSH1 0x40 MLOAD PUSH32 0x8C379A000000000000000000000000000000000000000000000000000000000 DUP2 MSTORE PUSH1 0x4 ADD PUSH2 0x6CD SWAP1 PUSH2 0x1853 JUMP JUMPDEST PUSH1 0x40 MLOAD DUP1 SWAP2 SUB SWAP1 REVERT JUMPDEST PUSH1 0x0 ISZERO ISZERO PUSH1 0x7 PUSH1 0x0 SWAP1 SLOAD SWAP1 PUSH2 0x100 EXP SWAP1 DIV PUSH1 0xFF AND ISZERO ISZERO EQ PUSH2 0x72C JUMPI PUSH1 0x40 MLOAD PUSH32 0x8C379A000000000000000000000000000000000000000000000000000000000 DUP2 MSTORE PUSH1 0x4 ADD PUSH2 0x723 SWAP1 PUSH2 0x18D3 JUMP JUMPDEST PUSH1 0x40 MLOAD DUP1 SWAP2 SUB SWAP1 REVERT JUMPDEST PUSH8 0xDE0B6B3A7640000 DUP2 PUSH2 0x740 SWAP2 SWAP1 PUSH2 0x1A50 JUMP JUMPDEST PUSH1 0x3 DUP2 SWAP1 SSTORE POP POP JUMP JUMPDEST PUSH1 0x6 DUP2 DUP2 SLOAD DUP2 LT PUSH2 0x759 JUMPI PUSH1 0x0 DUP1 REVERT JUMPDEST SWAP1 PUSH1 0x0 MSTORE PUSH1 0x20 PUSH1 0x0 KECCAK256 ADD PUSH1 0x0 SWAP2 POP SLOAD SWAP1 PUSH2 0x100 EXP SWAP1 DIV PUSH20 0xFFFFFFFFFFFFFFFFFFFFFFFFFFFFFFFFFFFFFFFF AND DUP2 JUMP JUMPDEST PUSH1 0x0 DUP1 SLOAD SWAP1 PUSH2 0x100 EXP SWAP1 DIV PUSH20 0xFFFFFFFFFFFFFFFFFFFFFFFFFFFFFFFFFFFFFFFF AND PUSH20 0xFFFFFFFFFFFFFFFFFFFFFFFFFFFFFFFFFFFFFFFF AND CALLER PUSH20 0xFFFFFFFFFFFFFFFFFFFFFFFFFFFFFFFFFFFFFFFF AND EQ PUSH2 0x816 JUMPI PUSH1 0x40 MLOAD PUSH32 0x8C379A000000000000000000000000000000000000000000000000000000000 DUP2 MSTORE PUSH1 0x4 ADD PUSH2 0x80D SWAP1 PUSH2 0x1853 JUMP JUMPDEST PUSH1 0x40 MLOAD DUP1 SWAP2 SUB SWAP1 REVERT JUMPDEST PUSH1 0x6 DUP2 MLOAD EQ PUSH2 0x824 JUMPI PUSH1 0x0 DUP1 REVERT JUMPDEST PUSH1 0x0 JUMPDEST DUP2 MLOAD DUP2 LT ISZERO PUSH2 0x86B JUMPI PUSH1 0x9 DUP3 DUP3 DUP2 MLOAD DUP2 LT PUSH2 0x845 JUMPI PUSH2 0x844 PUSH2 0x1C39 JUMP JUMPDEST JUMPDEST PUSH1 0x20 MUL PUSH1 0x20 ADD ADD MLOAD GT ISZERO PUSH2 0x858 JUMPI PUSH1 0x0 DUP1 REVERT JUMPDEST DUP1 DUP1 PUSH2 0x863 SWAP1 PUSH2 0x1B57 JUMP JUMPDEST SWAP2 POP POP PUSH2 0x827 JUMP JUMPDEST POP DUP1 PUSH1 0x1 SWAP1 DUP1 MLOAD SWAP1 PUSH1 0x20 ADD SWAP1 PUSH2 0x882 SWAP3 SWAP2 SWAP1 PUSH2 0x131C JUMP JUMPDEST POP POP JUMP JUMPDEST PUSH1 0x7 PUSH1 0x0 SWAP1 SLOAD SWAP1 PUSH2 0x100 EXP SWAP1 DIV PUSH1 0xFF AND DUP2 JUMP JUMPDEST PUSH1 0x1 ISZERO ISZERO PUSH1 0x7 PUSH1 0x0 SWAP1 SLOAD SWAP1 PUSH2 0x100 EXP SWAP1 DIV PUSH1 0xFF AND ISZERO ISZERO EQ PUSH2 0x8EF JUMPI PUSH1 0x40 MLOAD PUSH32 0x8C379A000000000000000000000000000000000000000000000000000000000 DUP2 MSTORE PUSH1 0x4 ADD PUSH2 0x8E6 SWAP1 PUSH2 0x1873 JUMP JUMPDEST PUSH1 0x40 MLOAD DUP1 SWAP2 SUB SWAP1 REVERT JUMPDEST PUSH1 0x3 SLOAD CALLVALUE EQ PUSH2 0x933 JUMPI PUSH1 0x40 MLOAD PUSH32 0x8C379A000000000000000000000000000000000000000000000000000000000 DUP2 MSTORE PUSH1 0x4 ADD PUSH2 0x92A SWAP1 PUSH2 0x18F3 JUMP JUMPDEST PUSH1 0x40 MLOAD DUP1 SWAP2 SUB SWAP1 REVERT JUMPDEST PUSH1 0x6 DUP2 MLOAD EQ PUSH2 0x977 JUMPI PUSH1 0x40 MLOAD PUSH32 0x8C379A000000000000000000000000000000000000000000000000000000000 DUP2 MSTORE PUSH1 0x4 ADD PUSH2 0x96E SWAP1 PUSH2 0x18B3 JUMP JUMPDEST PUSH1 0x40 MLOAD DUP1 SWAP2 SUB SWAP1 REVERT JUMPDEST PUSH1 0x0 JUMPDEST DUP2 MLOAD DUP2 LT ISZERO PUSH2 0xA1A JUMPI PUSH1 0xA DUP3 DUP3 DUP2 MLOAD DUP2 LT PUSH2 0x998 JUMPI PUSH2 0x997 PUSH2 0x1C39 JUMP JUMPDEST JUMPDEST PUSH1 0x20 MUL PUSH1 0x20 ADD ADD MLOAD LT DUP1 ISZERO PUSH2 0x9C8 JUMPI POP PUSH1 0x0 DUP3 DUP3 DUP2 MLOAD DUP2 LT PUSH2 0x9BD JUMPI PUSH2 0x9BC PUSH2 0x1C39 JUMP JUMPDEST JUMPDEST PUSH1 0x20 MUL PUSH1 0x20 ADD ADD MLOAD LT ISZERO JUMPDEST PUSH2 0xA07 JUMPI PUSH1 0x40 MLOAD PUSH32 0x8C379A000000000000000000000000000000000000000000000000000000000 DUP2 MSTORE PUSH1 0x4 ADD PUSH2 0x9FE SWAP1 PUSH2 0x1893 JUMP JUMPDEST PUSH1 0x40 MLOAD DUP1 SWAP2 SUB SWAP1 REVERT JUMPDEST DUP1 DUP1 PUSH2 0xA12 SWAP1 PUSH2 0x1B57 JUMP JUMPDEST SWAP2 POP POP PUSH2 0x97A JUMP JUMPDEST POP PUSH1 0x0 PUSH1 0x2 PUSH1 0x0 CALLER PUSH20 0xFFFFFFFFFFFFFFFFFFFFFFFFFFFFFFFFFFFFFFFF AND PUSH20 0xFFFFFFFFFFFFFFFFFFFFFFFFFFFFFFFFFFFFFFFF AND DUP2 MSTORE PUSH1 0x20 ADD SWAP1 DUP2 MSTORE PUSH1 0x20 ADD PUSH1 0x0 KECCAK256 DUP1 SLOAD SWAP1 POP EQ PUSH2 0xAA0 JUMPI PUSH1 0x40 MLOAD PUSH32 0x8C379A000000000000000000000000000000000000000000000000000000000 DUP2 MSTORE PUSH1 0x4 ADD PUSH2 0xA97 SWAP1 PUSH2 0x1833 JUMP JUMPDEST PUSH1 0x40 MLOAD DUP1 SWAP2 SUB SWAP1 REVERT JUMPDEST DUP1 PUSH1 0x2 PUSH1 0x0 CALLER PUSH20 0xFFFFFFFFFFFFFFFFFFFFFFFFFFFFFFFFFFFFFFFF AND PUSH20 0xFFFFFFFFFFFFFFFFFFFFFFFFFFFFFFFFFFFFFFFF AND DUP2 MSTORE PUSH1 0x20 ADD SWAP1 DUP2 MSTORE PUSH1 0x20 ADD PUSH1 0x0 KECCAK256 SWAP1 DUP1 MLOAD SWAP1 PUSH1 0x20 ADD SWAP1 PUSH2 0xAF3 SWAP3 SWAP2 SWAP1 PUSH2 0x131C JUMP JUMPDEST POP PUSH1 0x6 CALLER SWAP1 DUP1 PUSH1 0x1 DUP2 SLOAD ADD DUP1 DUP3 SSTORE DUP1 SWAP2 POP POP PUSH1 0x1 SWAP1 SUB SWAP1 PUSH1 0x0 MSTORE PUSH1 0x20 PUSH1 0x0 KECCAK256 ADD PUSH1 0x0 SWAP1 SWAP2 SWAP1 SWAP2 SWAP1 SWAP2 PUSH2 0x100 EXP DUP2 SLOAD DUP2 PUSH20 0xFFFFFFFFFFFFFFFFFFFFFFFFFFFFFFFFFFFFFFFF MUL NOT AND SWAP1 DUP4 PUSH20 0xFFFFFFFFFFFFFFFFFFFFFFFFFFFFFFFFFFFFFFFF AND MUL OR SWAP1 SSTORE POP CALLVALUE PUSH1 0x4 PUSH1 0x0 DUP3 DUP3 SLOAD PUSH2 0xB69 SWAP2 SWAP1 PUSH2 0x19C9 JUMP JUMPDEST SWAP3 POP POP DUP2 SWAP1 SSTORE POP PUSH1 0x1 PUSH1 0x5 PUSH1 0x0 DUP3 DUP3 SLOAD PUSH2 0xB83 SWAP2 SWAP1 PUSH2 0x19C9 JUMP JUMPDEST SWAP3 POP POP DUP2 SWAP1 SSTORE POP POP JUMP JUMPDEST PUSH1 0x0 PUSH1 0x1 ISZERO ISZERO PUSH1 0x7 PUSH1 0x0 SWAP1 SLOAD SWAP1 PUSH2 0x100 EXP SWAP1 DIV PUSH1 0xFF AND ISZERO ISZERO EQ PUSH2 0xBE5 JUMPI PUSH1 0x40 MLOAD PUSH32 0x8C379A000000000000000000000000000000000000000000000000000000000 DUP2 MSTORE PUSH1 0x4 ADD PUSH2 0xBDC SWAP1 PUSH2 0x1873 JUMP JUMPDEST PUSH1 0x40 MLOAD DUP1 SWAP2 SUB SWAP1 REVERT JUMPDEST PUSH8 0xDE0B6B3A7640000 PUSH1 0x3 SLOAD PUSH2 0xBFB SWAP2 SWAP1 PUSH2 0x1A1F JUMP JUMPDEST SWAP1 POP SWAP1 JUMP JUMPDEST PUSH1 0x0 PUSH1 0x1 ISZERO ISZERO PUSH1 0x7 PUSH1 0x0 SWAP1 SLOAD SWAP1 PUSH2 0x100 EXP SWAP1 DIV PUSH1 0xFF AND ISZERO ISZERO EQ PUSH2 0xC58 JUMPI PUSH1 0x40 MLOAD PUSH32 0x8C379A000000000000000000000000000000000000000000000000000000000 DUP2 MSTORE PUSH1 0x4 ADD PUSH2 0xC4F SWAP1 PUSH2 0x1873 JUMP JUMPDEST PUSH1 0x40 MLOAD DUP1 SWAP2 SUB SWAP1 REVERT JUMPDEST PUSH8 0xDE0B6B3A7640000 PUSH1 0x4 SLOAD PUSH2 0xC6E SWAP2 SWAP1 PUSH2 0x1A1F JUMP JUMPDEST SWAP1 POP SWAP1 JUMP JUMPDEST PUSH1 0x60 PUSH1 0x0 DUP1 SLOAD SWAP1 PUSH2 0x100 EXP SWAP1 DIV PUSH20 0xFFFFFFFFFFFFFFFFFFFFFFFFFFFFFFFFFFFFFFFF AND PUSH20 0xFFFFFFFFFFFFFFFFFFFFFFFFFFFFFFFFFFFFFFFF AND CALLER PUSH20 0xFFFFFFFFFFFFFFFFFFFFFFFFFFFFFFFFFFFFFFFF AND EQ PUSH2 0xD03 JUMPI PUSH1 0x40 MLOAD PUSH32 0x8C379A000000000000000000000000000000000000000000000000000000000 DUP2 MSTORE PUSH1 0x4 ADD PUSH2 0xCFA SWAP1 PUSH2 0x1853 JUMP JUMPDEST PUSH1 0x40 MLOAD DUP1 SWAP2 SUB SWAP1 REVERT JUMPDEST PUSH1 0x1 ISZERO ISZERO PUSH1 0x7 PUSH1 0x0 SWAP1 SLOAD SWAP1 PUSH2 0x100 EXP SWAP1 DIV PUSH1 0xFF AND ISZERO ISZERO EQ PUSH2 0xD59 JUMPI PUSH1 0x40 MLOAD PUSH32 0x8C379A000000000000000000000000000000000000000000000000000000000 DUP2 MSTORE PUSH1 0x4 ADD PUSH2 0xD50 SWAP1 PUSH2 0x1873 JUMP JUMPDEST PUSH1 0x40 MLOAD DUP1 SWAP2 SUB SWAP1 REVERT JUMPDEST PUSH1 0x1 DUP1 SLOAD DUP1 PUSH1 0x20 MUL PUSH1 0x20 ADD PUSH1 0x40 MLOAD SWAP1 DUP2 ADD PUSH1 0x40 MSTORE DUP1 SWAP3 SWAP2 SWAP1 DUP2 DUP2 MSTORE PUSH1 0x20 ADD DUP3 DUP1 SLOAD DUP1 ISZERO PUSH2 0xDA5 JUMPI PUSH1 0x20 MUL DUP3 ADD SWAP2 SWAP1 PUSH1 0x0 MSTORE PUSH1 0x20 PUSH1 0x0 KECCAK256 SWAP1 JUMPDEST DUP2 SLOAD DUP2 MSTORE PUSH1 0x20 ADD SWAP1 PUSH1 0x1 ADD SWAP1 DUP1 DUP4 GT PUSH2 0xD91 JUMPI JUMPDEST POP POP POP POP POP SWAP1 POP SWAP1 JUMP JUMPDEST PUSH1 0x0 DUP1 SLOAD SWAP1 PUSH2 0x100 EXP SWAP1 DIV PUSH20 0xFFFFFFFFFFFFFFFFFFFFFFFFFFFFFFFFFFFFFFFF AND DUP2 JUMP JUMPDEST PUSH1 0x60 PUSH1 0x2 PUSH1 0x0 CALLER PUSH20 0xFFFFFFFFFFFFFFFFFFFFFFFFFFFFFFFFFFFFFFFF AND PUSH20 0xFFFFFFFFFFFFFFFFFFFFFFFFFFFFFFFFFFFFFFFF AND DUP2 MSTORE PUSH1 0x20 ADD SWAP1 DUP2 MSTORE PUSH1 0x20 ADD PUSH1 0x0 KECCAK256 DUP1 SLOAD DUP1 PUSH1 0x20 MUL PUSH1 0x20 ADD PUSH1 0x40 MLOAD SWAP1 DUP2 ADD PUSH1 0x40 MSTORE DUP1 SWAP3 SWAP2 SWAP1 DUP2 DUP2 MSTORE PUSH1 0x20 ADD DUP3 DUP1 SLOAD DUP1 ISZERO PUSH2 0xE5E JUMPI PUSH1 0x20 MUL DUP3 ADD SWAP2 SWAP1 PUSH1 0x0 MSTORE PUSH1 0x20 PUSH1 0x0 KECCAK256 SWAP1 JUMPDEST DUP2 SLOAD DUP2 MSTORE PUSH1 0x20 ADD SWAP1 PUSH1 0x1 ADD SWAP1 DUP1 DUP4 GT PUSH2 0xE4A JUMPI JUMPDEST POP POP POP POP POP SWAP1 POP SWAP1 JUMP JUMPDEST PUSH1 0x0 DUP1 SLOAD SWAP1 PUSH2 0x100 EXP SWAP1 DIV PUSH20 0xFFFFFFFFFFFFFFFFFFFFFFFFFFFFFFFFFFFFFFFF AND PUSH20 0xFFFFFFFFFFFFFFFFFFFFFFFFFFFFFFFFFFFFFFFF AND CALLER PUSH20 0xFFFFFFFFFFFFFFFFFFFFFFFFFFFFFFFFFFFFFFFF AND EQ PUSH2 0xEF6 JUMPI PUSH1 0x40 MLOAD PUSH32 0x8C379A000000000000000000000000000000000000000000000000000000000 DUP2 MSTORE PUSH1 0x4 ADD PUSH2 0xEED SWAP1 PUSH2 0x1853 JUMP JUMPDEST PUSH1 0x40 MLOAD DUP1 SWAP2 SUB SWAP1 REVERT JUMPDEST PUSH1 0x1 ISZERO ISZERO PUSH1 0x7 PUSH1 0x0 SWAP1 SLOAD SWAP1 PUSH2 0x100 EXP SWAP1 DIV PUSH1 0xFF AND ISZERO ISZERO EQ PUSH2 0xF4C JUMPI PUSH1 0x40 MLOAD PUSH32 0x8C379A000000000000000000000000000000000000000000000000000000000 DUP2 MSTORE PUSH1 0x4 ADD PUSH2 0xF43 SWAP1 PUSH2 0x1873 JUMP JUMPDEST PUSH1 0x40 MLOAD DUP1 SWAP2 SUB SWAP1 REVERT JUMPDEST PUSH1 0x0 PUSH1 0x5 SLOAD GT PUSH2 0xF91 JUMPI PUSH1 0x40 MLOAD PUSH32 0x8C379A000000000000000000000000000000000000000000000000000000000 DUP2 MSTORE PUSH1 0x4 ADD PUSH2 0xF88 SWAP1 PUSH2 0x1813 JUMP JUMPDEST PUSH1 0x40 MLOAD DUP1 SWAP2 SUB SWAP1 REVERT JUMPDEST PUSH1 0x0 DUP1 PUSH1 0x0 DUP1 PUSH1 0x0 DUP1 PUSH1 0x0 SWAP1 POP JUMPDEST PUSH1 0x6 DUP1 SLOAD SWAP1 POP DUP2 LT ISZERO PUSH2 0x126E JUMPI PUSH1 0x0 JUMPDEST PUSH1 0x1 DUP1 SLOAD SWAP1 POP DUP2 LT ISZERO PUSH2 0x10A6 JUMPI PUSH1 0x1 DUP2 DUP2 SLOAD DUP2 LT PUSH2 0xFD0 JUMPI PUSH2 0xFCF PUSH2 0x1C39 JUMP JUMPDEST JUMPDEST SWAP1 PUSH1 0x0 MSTORE PUSH1 0x20 PUSH1 0x0 KECCAK256 ADD SLOAD PUSH1 0x2 PUSH1 0x0 PUSH1 0x6 DUP6 DUP2 SLOAD DUP2 LT PUSH2 0xFF3 JUMPI PUSH2 0xFF2 PUSH2 0x1C39 JUMP JUMPDEST JUMPDEST SWAP1 PUSH1 0x0 MSTORE PUSH1 0x20 PUSH1 0x0 KECCAK256 ADD PUSH1 0x0 SWAP1 SLOAD SWAP1 PUSH2 0x100 EXP SWAP1 DIV PUSH20 0xFFFFFFFFFFFFFFFFFFFFFFFFFFFFFFFFFFFFFFFF AND PUSH20 0xFFFFFFFFFFFFFFFFFFFFFFFFFFFFFFFFFFFFFFFF AND PUSH20 0xFFFFFFFFFFFFFFFFFFFFFFFFFFFFFFFFFFFFFFFF AND DUP2 MSTORE PUSH1 0x20 ADD SWAP1 DUP2 MSTORE PUSH1 0x20 ADD PUSH1 0x0 KECCAK256 DUP3 DUP2 SLOAD DUP2 LT PUSH2 0x106A JUMPI PUSH2 0x1069 PUSH2 0x1C39 JUMP JUMPDEST JUMPDEST SWAP1 PUSH1 0x0 MSTORE PUSH1 0x20 PUSH1 0x0 KECCAK256 ADD SLOAD EQ ISZERO PUSH2 0x108E JUMPI DUP7 DUP1 PUSH2 0x1086 SWAP1 PUSH2 0x1B57 JUMP JUMPDEST SWAP8 POP POP PUSH2 0x1093 JUMP JUMPDEST PUSH2 0x10A6 JUMP JUMPDEST DUP1 DUP1 PUSH2 0x109E SWAP1 PUSH2 0x1B57 JUMP JUMPDEST SWAP2 POP POP PUSH2 0xFAF JUMP JUMPDEST POP PUSH1 0x2 PUSH1 0x0 PUSH1 0x6 DUP4 DUP2 SLOAD DUP2 LT PUSH2 0x10BF JUMPI PUSH2 0x10BE PUSH2 0x1C39 JUMP JUMPDEST JUMPDEST SWAP1 PUSH1 0x0 MSTORE PUSH1 0x20 PUSH1 0x0 KECCAK256 ADD PUSH1 0x0 SWAP1 SLOAD SWAP1 PUSH2 0x100 EXP SWAP1 DIV PUSH20 0xFFFFFFFFFFFFFFFFFFFFFFFFFFFFFFFFFFFFFFFF AND PUSH20 0xFFFFFFFFFFFFFFFFFFFFFFFFFFFFFFFFFFFFFFFF AND PUSH20 0xFFFFFFFFFFFFFFFFFFFFFFFFFFFFFFFFFFFFFFFF AND DUP2 MSTORE PUSH1 0x20 ADD SWAP1 DUP2 MSTORE PUSH1 0x20 ADD PUSH1 0x0 KECCAK256 PUSH1 0x0 PUSH2 0x1130 SWAP2 SWAP1 PUSH2 0x1369 JUMP JUMPDEST PUSH1 0x1 DUP7 EQ ISZERO PUSH2 0x1142 JUMPI PUSH1 0x2 SWAP5 POP PUSH2 0x119D JUMP JUMPDEST PUSH1 0x2 DUP7 EQ ISZERO PUSH2 0x1154 JUMPI PUSH1 0x3 SWAP5 POP PUSH2 0x119C JUMP JUMPDEST PUSH1 0x3 DUP7 EQ ISZERO PUSH2 0x1166 JUMPI PUSH1 0x5 SWAP5 POP PUSH2 0x119B JUMP JUMPDEST PUSH1 0x4 DUP7 EQ ISZERO PUSH2 0x1178 JUMPI PUSH1 0xA SWAP5 POP PUSH2 0x119A JUMP JUMPDEST PUSH1 0x5 DUP7 EQ ISZERO PUSH2 0x118A JUMPI PUSH1 0x14 SWAP5 POP PUSH2 0x1199 JUMP JUMPDEST PUSH1 0x6 DUP7 EQ ISZERO PUSH2 0x1198 JUMPI PUSH1 0x28 SWAP5 POP JUMPDEST JUMPDEST JUMPDEST JUMPDEST JUMPDEST JUMPDEST PUSH1 0x64 DUP6 PUSH1 0x4 SLOAD PUSH2 0x11AD SWAP2 SWAP1 PUSH2 0x1A50 JUMP JUMPDEST PUSH2 0x11B7 SWAP2 SWAP1 PUSH2 0x1A1F JUMP JUMPDEST SWAP4 POP DUP4 DUP4 PUSH2 0x11C5 SWAP2 SWAP1 PUSH2 0x19C9 JUMP JUMPDEST SWAP3 POP PUSH1 0x6 DUP2 DUP2 SLOAD DUP2 LT PUSH2 0x11DB JUMPI PUSH2 0x11DA PUSH2 0x1C39 JUMP JUMPDEST JUMPDEST SWAP1 PUSH1 0x0 MSTORE PUSH1 0x20 PUSH1 0x0 KECCAK256 ADD PUSH1 0x0 SWAP1 SLOAD SWAP1 PUSH2 0x100 EXP SWAP1 DIV PUSH20 0xFFFFFFFFFFFFFFFFFFFFFFFFFFFFFFFFFFFFFFFF AND SWAP2 POP DUP2 PUSH20 0xFFFFFFFFFFFFFFFFFFFFFFFFFFFFFFFFFFFFFFFF AND PUSH2 0x8FC DUP6 SWAP1 DUP2 ISZERO MUL SWAP1 PUSH1 0x40 MLOAD PUSH1 0x0 PUSH1 0x40 MLOAD DUP1 DUP4 SUB DUP2 DUP6 DUP9 DUP9 CALL SWAP4 POP POP POP POP ISZERO DUP1 ISZERO PUSH2 0x124E JUMPI RETURNDATASIZE PUSH1 0x0 DUP1 RETURNDATACOPY RETURNDATASIZE PUSH1 0x0 REVERT JUMPDEST POP PUSH1 0x0 SWAP6 POP PUSH1 0x0 SWAP5 POP PUSH1 0x0 SWAP4 POP DUP1 DUP1 PUSH2 0x1266 SWAP1 PUSH2 0x1B57 JUMP JUMPDEST SWAP2 POP POP PUSH2 0xF9F JUMP JUMPDEST POP PUSH1 0x0 PUSH1 0x5 DUP2 SWAP1 SSTORE POP DUP2 PUSH1 0x4 PUSH1 0x0 DUP3 DUP3 SLOAD PUSH2 0x1289 SWAP2 SWAP1 PUSH2 0x1AAA JUMP JUMPDEST SWAP3 POP POP DUP2 SWAP1 SSTORE POP PUSH1 0x0 PUSH8 0xFFFFFFFFFFFFFFFF DUP2 GT ISZERO PUSH2 0x12AB JUMPI PUSH2 0x12AA PUSH2 0x1C68 JUMP JUMPDEST JUMPDEST PUSH1 0x40 MLOAD SWAP1 DUP1 DUP3 MSTORE DUP1 PUSH1 0x20 MUL PUSH1 0x20 ADD DUP3 ADD PUSH1 0x40 MSTORE DUP1 ISZERO PUSH2 0x12D9 JUMPI DUP2 PUSH1 0x20 ADD PUSH1 0x20 DUP3 MUL DUP1 CALLDATASIZE DUP4 CALLDATACOPY DUP1 DUP3 ADD SWAP2 POP POP SWAP1 POP JUMPDEST POP PUSH1 0x6 SWAP1 DUP1 MLOAD SWAP1 PUSH1 0x20 ADD SWAP1 PUSH2 0x12EF SWAP3 SWAP2 SWAP1 PUSH2 0x138A JUMP JUMPDEST POP PUSH1 0x0 SWAP1 POP PUSH1 0x0 PUSH1 0x7 PUSH1 0x0 PUSH2 0x100 EXP DUP2 SLOAD DUP2 PUSH1 0xFF MUL NOT AND SWAP1 DUP4 ISZERO ISZERO MUL OR SWAP1 SSTORE POP POP POP POP POP POP JUMP JUMPDEST PUSH1 0x5 SLOAD DUP2 JUMP JUMPDEST DUP3 DUP1 SLOAD DUP3 DUP3 SSTORE SWAP1 PUSH1 0x0 MSTORE PUSH1 0x20 PUSH1 0x0 KECCAK256 SWAP1 DUP2 ADD SWAP3 DUP3 ISZERO PUSH2 0x1358 JUMPI SWAP2 PUSH1 0x20 MUL DUP3 ADD JUMPDEST DUP3 DUP2 GT ISZERO PUSH2 0x1357 JUMPI DUP3 MLOAD DUP3 SSTORE SWAP2 PUSH1 0x20 ADD SWAP2 SWAP1 PUSH1 0x1 ADD SWAP1 PUSH2 0x133C JUMP JUMPDEST JUMPDEST POP SWAP1 POP PUSH2 0x1365 SWAP2 SWAP1 PUSH2 0x1414 JUMP JUMPDEST POP SWAP1 JUMP JUMPDEST POP DUP1 SLOAD PUSH1 0x0 DUP3 SSTORE SWAP1 PUSH1 0x0 MSTORE PUSH1 0x20 PUSH1 0x0 KECCAK256 SWAP1 DUP2 ADD SWAP1 PUSH2 0x1387 SWAP2 SWAP1 PUSH2 0x1414 JUMP JUMPDEST POP JUMP JUMPDEST DUP3 DUP1 SLOAD DUP3 DUP3 SSTORE SWAP1 PUSH1 0x0 MSTORE PUSH1 0x20 PUSH1 0x0 KECCAK256 SWAP1 DUP2 ADD SWAP3 DUP3 ISZERO PUSH2 0x1403 JUMPI SWAP2 PUSH1 0x20 MUL DUP3 ADD JUMPDEST DUP3 DUP2 GT ISZERO PUSH2 0x1402 JUMPI DUP3 MLOAD DUP3 PUSH1 0x0 PUSH2 0x100 EXP DUP2 SLOAD DUP2 PUSH20 0xFFFFFFFFFFFFFFFFFFFFFFFFFFFFFFFFFFFFFFFF MUL NOT AND SWAP1 DUP4 PUSH20 0xFFFFFFFFFFFFFFFFFFFFFFFFFFFFFFFFFFFFFFFF AND MUL OR SWAP1 SSTORE POP SWAP2 PUSH1 0x20 ADD SWAP2 SWAP1 PUSH1 0x1 ADD SWAP1 PUSH2 0x13AA JUMP JUMPDEST JUMPDEST POP SWAP1 POP PUSH2 0x1410 SWAP2 SWAP1 PUSH2 0x1414 JUMP JUMPDEST POP SWAP1 JUMP JUMPDEST JUMPDEST DUP1 DUP3 GT ISZERO PUSH2 0x142D JUMPI PUSH1 0x0 DUP2 PUSH1 0x0 SWAP1 SSTORE POP PUSH1 0x1 ADD PUSH2 0x1415 JUMP JUMPDEST POP SWAP1 JUMP JUMPDEST PUSH1 0x0 PUSH2 0x1444 PUSH2 0x143F DUP5 PUSH2 0x1953 JUMP JUMPDEST PUSH2 0x192E JUMP JUMPDEST SWAP1 POP DUP1 DUP4 DUP3 MSTORE PUSH1 0x20 DUP3 ADD SWAP1 POP DUP3 DUP6 PUSH1 0x20 DUP7 MUL DUP3 ADD GT ISZERO PUSH2 0x1467 JUMPI PUSH2 0x1466 PUSH2 0x1C9C JUMP JUMPDEST JUMPDEST PUSH1 0x0 JUMPDEST DUP6 DUP2 LT ISZERO PUSH2 0x1497 JUMPI DUP2 PUSH2 0x147D DUP9 DUP3 PUSH2 0x14CF JUMP JUMPDEST DUP5 MSTORE PUSH1 0x20 DUP5 ADD SWAP4 POP PUSH1 0x20 DUP4 ADD SWAP3 POP POP PUSH1 0x1 DUP2 ADD SWAP1 POP PUSH2 0x146A JUMP JUMPDEST POP POP POP SWAP4 SWAP3 POP POP POP JUMP JUMPDEST PUSH1 0x0 DUP3 PUSH1 0x1F DUP4 ADD SLT PUSH2 0x14B6 JUMPI PUSH2 0x14B5 PUSH2 0x1C97 JUMP JUMPDEST JUMPDEST DUP2 CALLDATALOAD PUSH2 0x14C6 DUP5 DUP3 PUSH1 0x20 DUP7 ADD PUSH2 0x1431 JUMP JUMPDEST SWAP2 POP POP SWAP3 SWAP2 POP POP JUMP JUMPDEST PUSH1 0x0 DUP2 CALLDATALOAD SWAP1 POP PUSH2 0x14DE DUP2 PUSH2 0x1E53 JUMP JUMPDEST SWAP3 SWAP2 POP POP JUMP JUMPDEST PUSH1 0x0 PUSH1 0x20 DUP3 DUP5 SUB SLT ISZERO PUSH2 0x14FA JUMPI PUSH2 0x14F9 PUSH2 0x1CA6 JUMP JUMPDEST JUMPDEST PUSH1 0x0 DUP3 ADD CALLDATALOAD PUSH8 0xFFFFFFFFFFFFFFFF DUP2 GT ISZERO PUSH2 0x1518 JUMPI PUSH2 0x1517 PUSH2 0x1CA1 JUMP JUMPDEST JUMPDEST PUSH2 0x1524 DUP5 DUP3 DUP6 ADD PUSH2 0x14A1 JUMP JUMPDEST SWAP2 POP POP SWAP3 SWAP2 POP POP JUMP JUMPDEST PUSH1 0x0 PUSH1 0x20 DUP3 DUP5 SUB SLT ISZERO PUSH2 0x1543 JUMPI PUSH2 0x1542 PUSH2 0x1CA6 JUMP JUMPDEST JUMPDEST PUSH1 0x0 PUSH2 0x1551 DUP5 DUP3 DUP6 ADD PUSH2 0x14CF JUMP JUMPDEST SWAP2 POP POP SWAP3 SWAP2 POP POP JUMP JUMPDEST PUSH1 0x0 PUSH2 0x1566 DUP4 DUP4 PUSH2 0x1729 JUMP JUMPDEST PUSH1 0x20 DUP4 ADD SWAP1 POP SWAP3 SWAP2 POP POP JUMP JUMPDEST PUSH2 0x157B DUP2 PUSH2 0x1ADE JUMP JUMPDEST DUP3 MSTORE POP POP JUMP JUMPDEST PUSH1 0x0 PUSH2 0x158C DUP3 PUSH2 0x198F JUMP JUMPDEST PUSH2 0x1596 DUP2 DUP6 PUSH2 0x19A7 JUMP JUMPDEST SWAP4 POP PUSH2 0x15A1 DUP4 PUSH2 0x197F JUMP JUMPDEST DUP1 PUSH1 0x0 JUMPDEST DUP4 DUP2 LT ISZERO PUSH2 0x15D2 JUMPI DUP2 MLOAD PUSH2 0x15B9 DUP9 DUP3 PUSH2 0x155A JUMP JUMPDEST SWAP8 POP PUSH2 0x15C4 DUP4 PUSH2 0x199A JUMP JUMPDEST SWAP3 POP POP PUSH1 0x1 DUP2 ADD SWAP1 POP PUSH2 0x15A5 JUMP JUMPDEST POP DUP6 SWAP4 POP POP POP POP SWAP3 SWAP2 POP POP JUMP JUMPDEST PUSH2 0x15E8 DUP2 PUSH2 0x1AF0 JUMP JUMPDEST DUP3 MSTORE POP POP JUMP JUMPDEST PUSH1 0x0 PUSH2 0x15FB PUSH1 0x14 DUP4 PUSH2 0x19B8 JUMP JUMPDEST SWAP2 POP PUSH2 0x1606 DUP3 PUSH2 0x1CBC JUMP JUMPDEST PUSH1 0x20 DUP3 ADD SWAP1 POP SWAP2 SWAP1 POP JUMP JUMPDEST PUSH1 0x0 PUSH2 0x161E PUSH1 0x11 DUP4 PUSH2 0x19B8 JUMP JUMPDEST SWAP2 POP PUSH2 0x1629 DUP3 PUSH2 0x1CE5 JUMP JUMPDEST PUSH1 0x20 DUP3 ADD SWAP1 POP SWAP2 SWAP1 POP JUMP JUMPDEST PUSH1 0x0 PUSH2 0x1641 PUSH1 0x20 DUP4 PUSH2 0x19B8 JUMP JUMPDEST SWAP2 POP PUSH2 0x164C DUP3 PUSH2 0x1D0E JUMP JUMPDEST PUSH1 0x20 DUP3 ADD SWAP1 POP SWAP2 SWAP1 POP JUMP JUMPDEST PUSH1 0x0 PUSH2 0x1664 PUSH1 0x26 DUP4 PUSH2 0x19B8 JUMP JUMPDEST SWAP2 POP PUSH2 0x166F DUP3 PUSH2 0x1D37 JUMP JUMPDEST PUSH1 0x40 DUP3 ADD SWAP1 POP SWAP2 SWAP1 POP JUMP JUMPDEST PUSH1 0x0 PUSH2 0x1687 PUSH1 0x15 DUP4 PUSH2 0x19B8 JUMP JUMPDEST SWAP2 POP PUSH2 0x1692 DUP3 PUSH2 0x1D86 JUMP JUMPDEST PUSH1 0x20 DUP3 ADD SWAP1 POP SWAP2 SWAP1 POP JUMP JUMPDEST PUSH1 0x0 PUSH2 0x16AA PUSH1 0xC DUP4 PUSH2 0x19B8 JUMP JUMPDEST SWAP2 POP PUSH2 0x16B5 DUP3 PUSH2 0x1DAF JUMP JUMPDEST PUSH1 0x20 DUP3 ADD SWAP1 POP SWAP2 SWAP1 POP JUMP JUMPDEST PUSH1 0x0 PUSH2 0x16CD PUSH1 0x17 DUP4 PUSH2 0x19B8 JUMP JUMPDEST SWAP2 POP PUSH2 0x16D8 DUP3 PUSH2 0x1DD8 JUMP JUMPDEST PUSH1 0x20 DUP3 ADD SWAP1 POP SWAP2 SWAP1 POP JUMP JUMPDEST PUSH1 0x0 PUSH2 0x16F0 PUSH1 0x14 DUP4 PUSH2 0x19B8 JUMP JUMPDEST SWAP2 POP PUSH2 0x16FB DUP3 PUSH2 0x1E01 JUMP JUMPDEST PUSH1 0x20 DUP3 ADD SWAP1 POP SWAP2 SWAP1 POP JUMP JUMPDEST PUSH1 0x0 PUSH2 0x1713 PUSH1 0xC DUP4 PUSH2 0x19B8 JUMP JUMPDEST SWAP2 POP PUSH2 0x171E DUP3 PUSH2 0x1E2A JUMP JUMPDEST PUSH1 0x20 DUP3 ADD SWAP1 POP SWAP2 SWAP1 POP JUMP JUMPDEST PUSH2 0x1732 DUP2 PUSH2 0x1B1C JUMP JUMPDEST DUP3 MSTORE POP POP JUMP JUMPDEST PUSH2 0x1741 DUP2 PUSH2 0x1B1C JUMP JUMPDEST DUP3 MSTORE POP POP JUMP JUMPDEST PUSH2 0x1758 PUSH2 0x1753 DUP3 PUSH2 0x1B1C JUMP JUMPDEST PUSH2 0x1BA0 JUMP JUMPDEST DUP3 MSTORE POP POP JUMP JUMPDEST PUSH1 0x0 PUSH2 0x176A DUP3 DUP7 PUSH2 0x1747 JUMP JUMPDEST PUSH1 0x20 DUP3 ADD SWAP2 POP PUSH2 0x177A DUP3 DUP6 PUSH2 0x1747 JUMP JUMPDEST PUSH1 0x20 DUP3 ADD SWAP2 POP PUSH2 0x178A DUP3 DUP5 PUSH2 0x1747 JUMP JUMPDEST PUSH1 0x20 DUP3 ADD SWAP2 POP DUP2 SWAP1 POP SWAP5 SWAP4 POP POP POP POP JUMP JUMPDEST PUSH1 0x0 PUSH1 0x20 DUP3 ADD SWAP1 POP PUSH2 0x17B0 PUSH1 0x0 DUP4 ADD DUP5 PUSH2 0x1572 JUMP JUMPDEST SWAP3 SWAP2 POP POP JUMP JUMPDEST PUSH1 0x0 PUSH1 0x20 DUP3 ADD SWAP1 POP DUP2 DUP2 SUB PUSH1 0x0 DUP4 ADD MSTORE PUSH2 0x17D0 DUP2 DUP5 PUSH2 0x1581 JUMP JUMPDEST SWAP1 POP SWAP3 SWAP2 POP POP JUMP JUMPDEST PUSH1 0x0 PUSH1 0x20 DUP3 ADD SWAP1 POP PUSH2 0x17ED PUSH1 0x0 DUP4 ADD DUP5 PUSH2 0x15DF JUMP JUMPDEST SWAP3 SWAP2 POP POP JUMP JUMPDEST PUSH1 0x0 PUSH1 0x20 DUP3 ADD SWAP1 POP DUP2 DUP2 SUB PUSH1 0x0 DUP4 ADD MSTORE PUSH2 0x180C DUP2 PUSH2 0x15EE JUMP JUMPDEST SWAP1 POP SWAP2 SWAP1 POP JUMP JUMPDEST PUSH1 0x0 PUSH1 0x20 DUP3 ADD SWAP1 POP DUP2 DUP2 SUB PUSH1 0x0 DUP4 ADD MSTORE PUSH2 0x182C DUP2 PUSH2 0x1611 JUMP JUMPDEST SWAP1 POP SWAP2 SWAP1 POP JUMP JUMPDEST PUSH1 0x0 PUSH1 0x20 DUP3 ADD SWAP1 POP DUP2 DUP2 SUB PUSH1 0x0 DUP4 ADD MSTORE PUSH2 0x184C DUP2 PUSH2 0x1634 JUMP JUMPDEST SWAP1 POP SWAP2 SWAP1 POP JUMP JUMPDEST PUSH1 0x0 PUSH1 0x20 DUP3 ADD SWAP1 POP DUP2 DUP2 SUB PUSH1 0x0 DUP4 ADD MSTORE PUSH2 0x186C DUP2 PUSH2 0x1657 JUMP JUMPDEST SWAP1 POP SWAP2 SWAP1 POP JUMP JUMPDEST PUSH1 0x0 PUSH1 0x20 DUP3 ADD SWAP1 POP DUP2 DUP2 SUB PUSH1 0x0 DUP4 ADD MSTORE PUSH2 0x188C DUP2 PUSH2 0x167A JUMP JUMPDEST SWAP1 POP SWAP2 SWAP1 POP JUMP JUMPDEST PUSH1 0x0 PUSH1 0x20 DUP3 ADD SWAP1 POP DUP2 DUP2 SUB PUSH1 0x0 DUP4 ADD MSTORE PUSH2 0x18AC DUP2 PUSH2 0x169D JUMP JUMPDEST SWAP1 POP SWAP2 SWAP1 POP JUMP JUMPDEST PUSH1 0x0 PUSH1 0x20 DUP3 ADD SWAP1 POP DUP2 DUP2 SUB PUSH1 0x0 DUP4 ADD MSTORE PUSH2 0x18CC DUP2 PUSH2 0x16C0 JUMP JUMPDEST SWAP1 POP SWAP2 SWAP1 POP JUMP JUMPDEST PUSH1 0x0 PUSH1 0x20 DUP3 ADD SWAP1 POP DUP2 DUP2 SUB PUSH1 0x0 DUP4 ADD MSTORE PUSH2 0x18EC DUP2 PUSH2 0x16E3 JUMP JUMPDEST SWAP1 POP SWAP2 SWAP1 POP JUMP JUMPDEST PUSH1 0x0 PUSH1 0x20 DUP3 ADD SWAP1 POP DUP2 DUP2 SUB PUSH1 0x0 DUP4 ADD MSTORE PUSH2 0x190C DUP2 PUSH2 0x1706 JUMP JUMPDEST SWAP1 POP SWAP2 SWAP1 POP JUMP JUMPDEST PUSH1 0x0 PUSH1 0x20 DUP3 ADD SWAP1 POP PUSH2 0x1928 PUSH1 0x0 DUP4 ADD DUP5 PUSH2 0x1738 JUMP JUMPDEST SWAP3 SWAP2 POP POP JUMP JUMPDEST PUSH1 0x0 PUSH2 0x1938 PUSH2 0x1949 JUMP JUMPDEST SWAP1 POP PUSH2 0x1944 DUP3 DUP3 PUSH2 0x1B26 JUMP JUMPDEST SWAP2 SWAP1 POP JUMP JUMPDEST PUSH1 0x0 PUSH1 0x40 MLOAD SWAP1 POP SWAP1 JUMP JUMPDEST PUSH1 0x0 PUSH8 0xFFFFFFFFFFFFFFFF DUP3 GT ISZERO PUSH2 0x196E JUMPI PUSH2 0x196D PUSH2 0x1C68 JUMP JUMPDEST JUMPDEST PUSH1 0x20 DUP3 MUL SWAP1 POP PUSH1 0x20 DUP2 ADD SWAP1 POP SWAP2 SWAP1 POP JUMP JUMPDEST PUSH1 0x0 DUP2 SWAP1 POP PUSH1 0x20 DUP3 ADD SWAP1 POP SWAP2 SWAP1 POP JUMP JUMPDEST PUSH1 0x0 DUP2 MLOAD SWAP1 POP SWAP2 SWAP1 POP JUMP JUMPDEST PUSH1 0x0 PUSH1 0x20 DUP3 ADD SWAP1 POP SWAP2 SWAP1 POP JUMP JUMPDEST PUSH1 0x0 DUP3 DUP3 MSTORE PUSH1 0x20 DUP3 ADD SWAP1 POP SWAP3 SWAP2 POP POP JUMP JUMPDEST PUSH1 0x0 DUP3 DUP3 MSTORE PUSH1 0x20 DUP3 ADD SWAP1 POP SWAP3 SWAP2 POP POP JUMP JUMPDEST PUSH1 0x0 PUSH2 0x19D4 DUP3 PUSH2 0x1B1C JUMP JUMPDEST SWAP2 POP PUSH2 0x19DF DUP4 PUSH2 0x1B1C JUMP JUMPDEST SWAP3 POP DUP3 PUSH32 0xFFFFFFFFFFFFFFFFFFFFFFFFFFFFFFFFFFFFFFFFFFFFFFFFFFFFFFFFFFFFFFFF SUB DUP3 GT ISZERO PUSH2 0x1A14 JUMPI PUSH2 0x1A13 PUSH2 0x1BDB JUMP JUMPDEST JUMPDEST DUP3 DUP3 ADD SWAP1 POP SWAP3 SWAP2 POP POP JUMP JUMPDEST PUSH1 0x0 PUSH2 0x1A2A DUP3 PUSH2 0x1B1C JUMP JUMPDEST SWAP2 POP PUSH2 0x1A35 DUP4 PUSH2 0x1B1C JUMP JUMPDEST SWAP3 POP DUP3 PUSH2 0x1A45 JUMPI PUSH2 0x1A44 PUSH2 0x1C0A JUMP JUMPDEST JUMPDEST DUP3 DUP3 DIV SWAP1 POP SWAP3 SWAP2 POP POP JUMP JUMPDEST PUSH1 0x0 PUSH2 0x1A5B DUP3 PUSH2 0x1B1C JUMP JUMPDEST SWAP2 POP PUSH2 0x1A66 DUP4 PUSH2 0x1B1C JUMP JUMPDEST SWAP3 POP DUP2 PUSH32 0xFFFFFFFFFFFFFFFFFFFFFFFFFFFFFFFFFFFFFFFFFFFFFFFFFFFFFFFFFFFFFFFF DIV DUP4 GT DUP3 ISZERO ISZERO AND ISZERO PUSH2 0x1A9F JUMPI PUSH2 0x1A9E PUSH2 0x1BDB JUMP JUMPDEST JUMPDEST DUP3 DUP3 MUL SWAP1 POP SWAP3 SWAP2 POP POP JUMP JUMPDEST PUSH1 0x0 PUSH2 0x1AB5 DUP3 PUSH2 0x1B1C JUMP JUMPDEST SWAP2 POP PUSH2 0x1AC0 DUP4 PUSH2 0x1B1C JUMP JUMPDEST SWAP3 POP DUP3 DUP3 LT ISZERO PUSH2 0x1AD3 JUMPI PUSH2 0x1AD2 PUSH2 0x1BDB JUMP JUMPDEST JUMPDEST DUP3 DUP3 SUB SWAP1 POP SWAP3 SWAP2 POP POP JUMP JUMPDEST PUSH1 0x0 PUSH2 0x1AE9 DUP3 PUSH2 0x1AFC JUMP JUMPDEST SWAP1 POP SWAP2 SWAP1 POP JUMP JUMPDEST PUSH1 0x0 DUP2 ISZERO ISZERO SWAP1 POP SWAP2 SWAP1 POP JUMP JUMPDEST PUSH1 0x0 PUSH20 0xFFFFFFFFFFFFFFFFFFFFFFFFFFFFFFFFFFFFFFFF DUP3 AND SWAP1 POP SWAP2 SWAP1 POP JUMP JUMPDEST PUSH1 0x0 DUP2 SWAP1 POP SWAP2 SWAP1 POP JUMP JUMPDEST PUSH2 0x1B2F DUP3 PUSH2 0x1CAB JUMP JUMPDEST DUP2 ADD DUP2 DUP2 LT PUSH8 0xFFFFFFFFFFFFFFFF DUP3 GT OR ISZERO PUSH2 0x1B4E JUMPI PUSH2 0x1B4D PUSH2 0x1C68 JUMP JUMPDEST JUMPDEST DUP1 PUSH1 0x40 MSTORE POP POP POP JUMP JUMPDEST PUSH1 0x0 PUSH2 0x1B62 DUP3 PUSH2 0x1B1C JUMP JUMPDEST SWAP2 POP PUSH32 0xFFFFFFFFFFFFFFFFFFFFFFFFFFFFFFFFFFFFFFFFFFFFFFFFFFFFFFFFFFFFFFFF DUP3 EQ ISZERO PUSH2 0x1B95 JUMPI PUSH2 0x1B94 PUSH2 0x1BDB JUMP JUMPDEST JUMPDEST PUSH1 0x1 DUP3 ADD SWAP1 POP SWAP2 SWAP1 POP JUMP JUMPDEST PUSH1 0x0 DUP2 SWAP1 POP SWAP2 SWAP1 POP JUMP JUMPDEST PUSH1 0x0 PUSH2 0x1BB5 DUP3 PUSH2 0x1B1C JUMP JUMPDEST SWAP2 POP PUSH2 0x1BC0 DUP4 PUSH2 0x1B1C JUMP JUMPDEST SWAP3 POP DUP3 PUSH2 0x1BD0 JUMPI PUSH2 0x1BCF PUSH2 0x1C0A JUMP JUMPDEST JUMPDEST DUP3 DUP3 MOD SWAP1 POP SWAP3 SWAP2 POP POP JUMP JUMPDEST PUSH32 0x4E487B7100000000000000000000000000000000000000000000000000000000 PUSH1 0x0 MSTORE PUSH1 0x11 PUSH1 0x4 MSTORE PUSH1 0x24 PUSH1 0x0 REVERT JUMPDEST PUSH32 0x4E487B7100000000000000000000000000000000000000000000000000000000 PUSH1 0x0 MSTORE PUSH1 0x12 PUSH1 0x4 MSTORE PUSH1 0x24 PUSH1 0x0 REVERT JUMPDEST PUSH32 0x4E487B7100000000000000000000000000000000000000000000000000000000 PUSH1 0x0 MSTORE PUSH1 0x32 PUSH1 0x4 MSTORE PUSH1 0x24 PUSH1 0x0 REVERT JUMPDEST PUSH32 0x4E487B7100000000000000000000000000000000000000000000000000000000 PUSH1 0x0 MSTORE PUSH1 0x41 PUSH1 0x4 MSTORE PUSH1 0x24 PUSH1 0x0 REVERT JUMPDEST PUSH1 0x0 DUP1 REVERT JUMPDEST PUSH1 0x0 DUP1 REVERT JUMPDEST PUSH1 0x0 DUP1 REVERT JUMPDEST PUSH1 0x0 DUP1 REVERT JUMPDEST PUSH1 0x0 PUSH1 0x1F NOT PUSH1 0x1F DUP4 ADD AND SWAP1 POP SWAP2 SWAP1 POP JUMP JUMPDEST PUSH32 0x4E6F20457468657220746F2070756C6C206F7574000000000000000000000000 PUSH1 0x0 DUP3 ADD MSTORE POP JUMP JUMPDEST PUSH32 0x4E6F207469636B65742077617320626F75000000000000000000000000000000 PUSH1 0x0 DUP3 ADD MSTORE POP JUMP JUMPDEST PUSH32 0x596F75206861766520616C726561647920626F756768742061207469636B6574 PUSH1 0x0 DUP3 ADD MSTORE POP JUMP JUMPDEST PUSH32 0x4F6E6C7920746865206F776E65722063616E20706572666F726D207468697320 PUSH1 0x0 DUP3 ADD MSTORE PUSH32 0x616374696F6E0000000000000000000000000000000000000000000000000000 PUSH1 0x20 DUP3 ADD MSTORE POP JUMP JUMPDEST PUSH32 0x4E6F206C6F74746572792069732072756E6E696E670000000000000000000000 PUSH1 0x0 DUP3 ADD MSTORE POP JUMP JUMPDEST PUSH32 0x57726F6E67206E756D6265720000000000000000000000000000000000000000 PUSH1 0x0 DUP3 ADD MSTORE POP JUMP JUMPDEST PUSH32 0x57726F6E67206E756D626572206F66206E756D62657273000000000000000000 PUSH1 0x0 DUP3 ADD MSTORE POP JUMP JUMPDEST PUSH32 0x41206C6F74746572792069732072756E6E696E67000000000000000000000000 PUSH1 0x0 DUP3 ADD MSTORE POP JUMP JUMPDEST PUSH32 0x57726F6E6720616D6F756E740000000000000000000000000000000000000000 PUSH1 0x0 DUP3 ADD MSTORE POP JUMP JUMPDEST PUSH2 0x1E5C DUP2 PUSH2 0x1B1C JUMP JUMPDEST DUP2 EQ PUSH2 0x1E67 JUMPI PUSH1 0x0 DUP1 REVERT JUMPDEST POP JUMP INVALID LOG2 PUSH5 0x6970667358 0x22 SLT KECCAK256 0x1F 0xAB PUSH32 0xDEE171C8AB47EDF6AAD7DEB085F7082E30FA916D7BBE741E98FA34FB9564736F PUSH13 0x63430008070033000000000000 "
				},
				"gasEstimates": {
					"creation": {
						"codeDepositCost": "1568000",
						"executionCost": "77283",
						"totalCost": "1645283"
					},
					"external": {
						"BeginLottery()": "infinite",
						"EndLottery()": "infinite",
						"NrticketsBought()": "2517",
						"Pull()": "infinite",
						"buyTicket(uint256[])": "infinite",
						"changeTicketPrice(uint256)": "infinite",
						"getMyTicketNumbers()": "infinite",
						"getTicketPrice()": "infinite",
						"getTotalLotteryPot()": "infinite",
						"getWinningNumber()": "infinite",
						"lotteryStarted()": "2538",
						"owner()": "2533",
						"playersAddresses(uint256)": "4979",
						"setWinningNumber(uint256[])": "infinite"
					}
				},
				"methodIdentifiers": {
					"BeginLottery()": "36c1ec23",
					"EndLottery()": "b04a3f1c",
					"NrticketsBought()": "d386ea73",
					"Pull()": "30daec49",
					"buyTicket(uint256[])": "716cac96",
					"changeTicketPrice(uint256)": "4630a0ee",
					"getMyTicketNumbers()": "a650fbab",
					"getTicketPrice()": "87bb7ae0",
					"getTotalLotteryPot()": "8a4a29c3",
					"getWinningNumber()": "8b0b9ed4",
					"lotteryStarted()": "5a3811b9",
					"owner()": "8da5cb5b",
					"playersAddresses(uint256)": "472016da",
					"setWinningNumber(uint256[])": "4efd7cca"
				}
			},
			"storageLayout": {
				"storage": [
					{
						"astId": 3,
						"contract": "UZHPancakeLottery.sol:UZHPancakeLottery",
						"label": "owner",
						"offset": 0,
						"slot": "0",
						"type": "t_address"
					},
					{
						"astId": 6,
						"contract": "UZHPancakeLottery.sol:UZHPancakeLottery",
						"label": "winningNumber",
						"offset": 0,
						"slot": "1",
						"type": "t_array(t_uint256)dyn_storage"
					},
					{
						"astId": 11,
						"contract": "UZHPancakeLottery.sol:UZHPancakeLottery",
						"label": "playersTickets",
						"offset": 0,
						"slot": "2",
						"type": "t_mapping(t_address,t_array(t_uint256)dyn_storage)"
					},
					{
						"astId": 14,
						"contract": "UZHPancakeLottery.sol:UZHPancakeLottery",
						"label": "ticketprice",
						"offset": 0,
						"slot": "3",
						"type": "t_uint256"
					},
					{
						"astId": 16,
						"contract": "UZHPancakeLottery.sol:UZHPancakeLottery",
						"label": "TotalLotteryPot",
						"offset": 0,
						"slot": "4",
						"type": "t_uint256"
					},
					{
						"astId": 19,
						"contract": "UZHPancakeLottery.sol:UZHPancakeLottery",
						"label": "NrticketsBought",
						"offset": 0,
						"slot": "5",
						"type": "t_uint256"
					},
					{
						"astId": 22,
						"contract": "UZHPancakeLottery.sol:UZHPancakeLottery",
						"label": "playersAddresses",
						"offset": 0,
						"slot": "6",
						"type": "t_array(t_address)dyn_storage"
					},
					{
						"astId": 25,
						"contract": "UZHPancakeLottery.sol:UZHPancakeLottery",
						"label": "lotteryStarted",
						"offset": 0,
						"slot": "7",
						"type": "t_bool"
					}
				],
				"types": {
					"t_address": {
						"encoding": "inplace",
						"label": "address",
						"numberOfBytes": "20"
					},
					"t_array(t_address)dyn_storage": {
						"base": "t_address",
						"encoding": "dynamic_array",
						"label": "address[]",
						"numberOfBytes": "32"
					},
					"t_array(t_uint256)dyn_storage": {
						"base": "t_uint256",
						"encoding": "dynamic_array",
						"label": "uint256[]",
						"numberOfBytes": "32"
					},
					"t_bool": {
						"encoding": "inplace",
						"label": "bool",
						"numberOfBytes": "1"
					},
					"t_mapping(t_address,t_array(t_uint256)dyn_storage)": {
						"encoding": "mapping",
						"key": "t_address",
						"label": "mapping(address => uint256[])",
						"numberOfBytes": "32",
						"value": "t_array(t_uint256)dyn_storage"
					},
					"t_uint256": {
						"encoding": "inplace",
						"label": "uint256",
						"numberOfBytes": "32"
					}
				}
			},
			"userdoc": {
				"kind": "user",
				"methods": {},
				"version": 1
			}
		}
	}
}