{
	"UZHPancakeLottery.sol": {
		"UZHPancakeLottery": {
			"abi": [
				{
					"inputs": [],
					"stateMutability": "nonpayable",
					"type": "constructor"
				},
				{
					"inputs": [],
					"name": "BeginLottery",
					"outputs": [],
					"stateMutability": "nonpayable",
					"type": "function"
				},
				{
					"inputs": [],
					"name": "EndLottery",
					"outputs": [],
					"stateMutability": "nonpayable",
					"type": "function"
				},
				{
					"inputs": [],
					"name": "Lotterystatus",
					"outputs": [
						{
							"internalType": "bool",
							"name": "",
							"type": "bool"
						}
					],
					"stateMutability": "view",
					"type": "function"
				},
				{
					"inputs": [],
					"name": "NrOfticketsBought",
					"outputs": [
						{
							"internalType": "uint256",
							"name": "",
							"type": "uint256"
						}
					],
					"stateMutability": "view",
					"type": "function"
				},
				{
					"inputs": [],
					"name": "OwnerAddress",
					"outputs": [
						{
							"internalType": "address",
							"name": "",
							"type": "address"
						}
					],
					"stateMutability": "view",
					"type": "function"
				},
				{
					"inputs": [],
					"name": "Pull",
					"outputs": [],
					"stateMutability": "nonpayable",
					"type": "function"
				},
				{
					"inputs": [
						{
							"internalType": "uint256[]",
							"name": "ticketNumbers",
							"type": "uint256[]"
						}
					],
					"name": "buyTicket",
					"outputs": [],
					"stateMutability": "payable",
					"type": "function"
				},
				{
					"inputs": [
						{
							"internalType": "uint256",
							"name": "_price",
							"type": "uint256"
						}
					],
					"name": "changeTicketPrice",
					"outputs": [],
					"stateMutability": "nonpayable",
					"type": "function"
				},
				{
					"inputs": [],
					"name": "getMyTicketNumbers",
					"outputs": [
						{
							"internalType": "uint256[]",
							"name": "",
							"type": "uint256[]"
						}
					],
					"stateMutability": "view",
					"type": "function"
				},
				{
					"inputs": [],
					"name": "getTicketPrice",
					"outputs": [
						{
							"internalType": "uint256",
							"name": "",
							"type": "uint256"
						}
					],
					"stateMutability": "view",
					"type": "function"
				},
				{
					"inputs": [],
					"name": "getTotalLotteryPot",
					"outputs": [
						{
							"internalType": "uint256",
							"name": "",
							"type": "uint256"
						}
					],
					"stateMutability": "view",
					"type": "function"
				},
				{
					"inputs": [],
					"name": "getWinningNumber",
					"outputs": [
						{
							"internalType": "uint256[]",
							"name": "",
							"type": "uint256[]"
						}
					],
					"stateMutability": "view",
					"type": "function"
				},
				{
					"inputs": [],
					"name": "lotteryStarted",
					"outputs": [
						{
							"internalType": "bool",
							"name": "",
							"type": "bool"
						}
					],
					"stateMutability": "view",
					"type": "function"
				},
				{
					"inputs": [
						{
							"internalType": "uint256",
							"name": "",
							"type": "uint256"
						}
					],
					"name": "playersAddresses",
					"outputs": [
						{
							"internalType": "address",
							"name": "",
							"type": "address"
						}
					],
					"stateMutability": "view",
					"type": "function"
				},
				{
					"inputs": [
						{
							"internalType": "uint256[]",
							"name": "_winningNumber",
							"type": "uint256[]"
						}
					],
					"name": "setWinningNumber",
					"outputs": [],
					"stateMutability": "nonpayable",
					"type": "function"
				}
			],
			"devdoc": {
				"kind": "dev",
				"methods": {},
				"version": 1
			},
			"evm": {
				"assembly": "    /* \"UZHPancakeLottery.sol\":256:9637  contract UZHPancakeLottery {\r... */\n  mstore(0x40, 0x80)\n    /* \"UZHPancakeLottery.sol\":620:627  5 ether */\n  0x4563918244f40000\n    /* \"UZHPancakeLottery.sol\":593:627  uint private ticketprice = 5 ether */\n  0x03\n  sstore\n    /* \"UZHPancakeLottery.sol\":786:787  0 */\n  0x00\n    /* \"UZHPancakeLottery.sol\":755:787  uint private NrticketsBought = 0 */\n  0x05\n  sstore\n    /* \"UZHPancakeLottery.sol\":975:980  false */\n  0x00\n    /* \"UZHPancakeLottery.sol\":946:980  bool public lotteryStarted = false */\n  0x07\n  exp(0x0100, 0x00)\n  dup2\n  sload\n  dup2\n  0xff\n  mul\n  not\n  and\n  swap1\n  dup4\n  iszero\n  iszero\n  mul\n  or\n  swap1\n  sstore\n  pop\n    /* \"UZHPancakeLottery.sol\":1066:1124  constructor() public {\r... */\n  callvalue\n  dup1\n  iszero\n  tag_1\n  jumpi\n  0x00\n  dup1\n  revert\ntag_1:\n  pop\n    /* \"UZHPancakeLottery.sol\":1106:1116  msg.sender */\n  caller\n    /* \"UZHPancakeLottery.sol\":1098:1103  owner */\n  0x00\n  dup1\n    /* \"UZHPancakeLottery.sol\":1098:1116  owner = msg.sender */\n  0x0100\n  exp\n  dup2\n  sload\n  dup2\n  0xffffffffffffffffffffffffffffffffffffffff\n  mul\n  not\n  and\n  swap1\n  dup4\n  0xffffffffffffffffffffffffffffffffffffffff\n  and\n  mul\n  or\n  swap1\n  sstore\n  pop\n    /* \"UZHPancakeLottery.sol\":256:9637  contract UZHPancakeLottery {\r... */\n  dataSize(sub_0)\n  dup1\n  dataOffset(sub_0)\n  0x00\n  codecopy\n  0x00\n  return\nstop\n\nsub_0: assembly {\n        /* \"UZHPancakeLottery.sol\":256:9637  contract UZHPancakeLottery {\r... */\n      mstore(0x40, 0x80)\n      jumpi(tag_1, lt(calldatasize, 0x04))\n      shr(0xe0, calldataload(0x00))\n      dup1\n      0x716cac96\n      gt\n      tag_17\n      jumpi\n      dup1\n      0x8b0b9ed4\n      gt\n      tag_18\n      jumpi\n      dup1\n      0x8b0b9ed4\n      eq\n      tag_13\n      jumpi\n      dup1\n      0xa1bb96a1\n      eq\n      tag_14\n      jumpi\n      dup1\n      0xa650fbab\n      eq\n      tag_15\n      jumpi\n      dup1\n      0xb04a3f1c\n      eq\n      tag_16\n      jumpi\n      jump(tag_1)\n    tag_18:\n      dup1\n      0x716cac96\n      eq\n      tag_9\n      jumpi\n      dup1\n      0x7f17b05d\n      eq\n      tag_10\n      jumpi\n      dup1\n      0x87bb7ae0\n      eq\n      tag_11\n      jumpi\n      dup1\n      0x8a4a29c3\n      eq\n      tag_12\n      jumpi\n      jump(tag_1)\n    tag_17:\n      dup1\n      0x472016da\n      gt\n      tag_19\n      jumpi\n      dup1\n      0x472016da\n      eq\n      tag_5\n      jumpi\n      dup1\n      0x4c75e3f1\n      eq\n      tag_6\n      jumpi\n      dup1\n      0x4efd7cca\n      eq\n      tag_7\n      jumpi\n      dup1\n      0x5a3811b9\n      eq\n      tag_8\n      jumpi\n      jump(tag_1)\n    tag_19:\n      dup1\n      0x30daec49\n      eq\n      tag_2\n      jumpi\n      dup1\n      0x36c1ec23\n      eq\n      tag_3\n      jumpi\n      dup1\n      0x4630a0ee\n      eq\n      tag_4\n      jumpi\n    tag_1:\n      0x00\n      dup1\n      revert\n        /* \"UZHPancakeLottery.sol\":9035:9632  function Pull() public onlyOwner {\r... */\n    tag_2:\n      callvalue\n      dup1\n      iszero\n      tag_20\n      jumpi\n      0x00\n      dup1\n      revert\n    tag_20:\n      pop\n      tag_21\n      tag_22\n      jump\t// in\n    tag_21:\n      stop\n        /* \"UZHPancakeLottery.sol\":2780:3431  function BeginLottery() public onlyOwner {\r... */\n    tag_3:\n      callvalue\n      dup1\n      iszero\n      tag_23\n      jumpi\n      0x00\n      dup1\n      revert\n    tag_23:\n      pop\n      tag_24\n      tag_25\n      jump\t// in\n    tag_24:\n      stop\n        /* \"UZHPancakeLottery.sol\":1382:1612  function changeTicketPrice(uint _price) public onlyOwner {\r... */\n    tag_4:\n      callvalue\n      dup1\n      iszero\n      tag_26\n      jumpi\n      0x00\n      dup1\n      revert\n    tag_26:\n      pop\n      tag_27\n      0x04\n      dup1\n      calldatasize\n      sub\n      dup2\n      add\n      swap1\n      tag_28\n      swap2\n      swap1\n      tag_29\n      jump\t// in\n    tag_28:\n      tag_30\n      jump\t// in\n    tag_27:\n      stop\n        /* \"UZHPancakeLottery.sol\":849:883  address [] public playersAddresses */\n    tag_5:\n      callvalue\n      dup1\n      iszero\n      tag_31\n      jumpi\n      0x00\n      dup1\n      revert\n    tag_31:\n      pop\n      tag_32\n      0x04\n      dup1\n      calldatasize\n      sub\n      dup2\n      add\n      swap1\n      tag_33\n      swap2\n      swap1\n      tag_29\n      jump\t// in\n    tag_33:\n      tag_34\n      jump\t// in\n    tag_32:\n      mload(0x40)\n      tag_35\n      swap2\n      swap1\n      tag_36\n      jump\t// in\n    tag_35:\n      mload(0x40)\n      dup1\n      swap2\n      sub\n      swap1\n      return\n        /* \"UZHPancakeLottery.sol\":2623:2715  function Lotterystatus() public view returns (bool) {\r... */\n    tag_6:\n      callvalue\n      dup1\n      iszero\n      tag_37\n      jumpi\n      0x00\n      dup1\n      revert\n    tag_37:\n      pop\n      tag_38\n      tag_39\n      jump\t// in\n    tag_38:\n      mload(0x40)\n      tag_40\n      swap2\n      swap1\n      tag_41\n      jump\t// in\n    tag_40:\n      mload(0x40)\n      dup1\n      swap2\n      sub\n      swap1\n      return\n        /* \"UZHPancakeLottery.sol\":3510:3833  function setWinningNumber(uint[] memory _winningNumber) public onlyOwner {\r... */\n    tag_7:\n      callvalue\n      dup1\n      iszero\n      tag_42\n      jumpi\n      0x00\n      dup1\n      revert\n    tag_42:\n      pop\n      tag_43\n      0x04\n      dup1\n      calldatasize\n      sub\n      dup2\n      add\n      swap1\n      tag_44\n      swap2\n      swap1\n      tag_45\n      jump\t// in\n    tag_44:\n      tag_46\n      jump\t// in\n    tag_43:\n      stop\n        /* \"UZHPancakeLottery.sol\":946:980  bool public lotteryStarted = false */\n    tag_8:\n      callvalue\n      dup1\n      iszero\n      tag_47\n      jumpi\n      0x00\n      dup1\n      revert\n    tag_47:\n      pop\n      tag_48\n      tag_49\n      jump\t// in\n    tag_48:\n      mload(0x40)\n      tag_50\n      swap2\n      swap1\n      tag_41\n      jump\t// in\n    tag_50:\n      mload(0x40)\n      dup1\n      swap2\n      sub\n      swap1\n      return\n        /* \"UZHPancakeLottery.sol\":4206:5470  function buyTicket(uint[] memory ticketNumbers) public payable {\r... */\n    tag_9:\n      tag_51\n      0x04\n      dup1\n      calldatasize\n      sub\n      dup2\n      add\n      swap1\n      tag_52\n      swap2\n      swap1\n      tag_45\n      jump\t// in\n    tag_52:\n      tag_53\n      jump\t// in\n    tag_51:\n      stop\n        /* \"UZHPancakeLottery.sol\":2430:2515  function OwnerAddress() public view returns (address) {\r... */\n    tag_10:\n      callvalue\n      dup1\n      iszero\n      tag_54\n      jumpi\n      0x00\n      dup1\n      revert\n    tag_54:\n      pop\n      tag_55\n      tag_56\n      jump\t// in\n    tag_55:\n      mload(0x40)\n      tag_57\n      swap2\n      swap1\n      tag_36\n      jump\t// in\n    tag_57:\n      mload(0x40)\n      dup1\n      swap2\n      sub\n      swap1\n      return\n        /* \"UZHPancakeLottery.sol\":1673:1893  function getTicketPrice() public view returns (uint) {\r... */\n    tag_11:\n      callvalue\n      dup1\n      iszero\n      tag_58\n      jumpi\n      0x00\n      dup1\n      revert\n    tag_58:\n      pop\n      tag_59\n      tag_60\n      jump\t// in\n    tag_59:\n      mload(0x40)\n      tag_61\n      swap2\n      swap1\n      tag_62\n      jump\t// in\n    tag_61:\n      mload(0x40)\n      dup1\n      swap2\n      sub\n      swap1\n      return\n        /* \"UZHPancakeLottery.sol\":1973:2201  function getTotalLotteryPot() public view returns (uint) {\r... */\n    tag_12:\n      callvalue\n      dup1\n      iszero\n      tag_63\n      jumpi\n      0x00\n      dup1\n      revert\n    tag_63:\n      pop\n      tag_64\n      tag_65\n      jump\t// in\n    tag_64:\n      mload(0x40)\n      tag_66\n      swap2\n      swap1\n      tag_62\n      jump\t// in\n    tag_66:\n      mload(0x40)\n      dup1\n      swap2\n      sub\n      swap1\n      return\n        /* \"UZHPancakeLottery.sol\":3932:4165  function getWinningNumber() public view onlyOwner returns (uint[] memory) {\r... */\n    tag_13:\n      callvalue\n      dup1\n      iszero\n      tag_67\n      jumpi\n      0x00\n      dup1\n      revert\n    tag_67:\n      pop\n      tag_68\n      tag_69\n      jump\t// in\n    tag_68:\n      mload(0x40)\n      tag_70\n      swap2\n      swap1\n      tag_71\n      jump\t// in\n    tag_70:\n      mload(0x40)\n      dup1\n      swap2\n      sub\n      swap1\n      return\n        /* \"UZHPancakeLottery.sol\":2273:2370  function NrOfticketsBought() public view returns (uint) {\r... */\n    tag_14:\n      callvalue\n      dup1\n      iszero\n      tag_72\n      jumpi\n      0x00\n      dup1\n      revert\n    tag_72:\n      pop\n      tag_73\n      tag_74\n      jump\t// in\n    tag_73:\n      mload(0x40)\n      tag_75\n      swap2\n      swap1\n      tag_62\n      jump\t// in\n    tag_75:\n      mload(0x40)\n      dup1\n      swap2\n      sub\n      swap1\n      return\n        /* \"UZHPancakeLottery.sol\":5538:5656  function getMyTicketNumbers() public view returns (uint[] memory) {\r... */\n    tag_15:\n      callvalue\n      dup1\n      iszero\n      tag_76\n      jumpi\n      0x00\n      dup1\n      revert\n    tag_76:\n      pop\n      tag_77\n      tag_78\n      jump\t// in\n    tag_77:\n      mload(0x40)\n      tag_79\n      swap2\n      swap1\n      tag_71\n      jump\t// in\n    tag_79:\n      mload(0x40)\n      dup1\n      swap2\n      sub\n      swap1\n      return\n        /* \"UZHPancakeLottery.sol\":5705:8960  function EndLottery() public onlyOwner{\r... */\n    tag_16:\n      callvalue\n      dup1\n      iszero\n      tag_80\n      jumpi\n      0x00\n      dup1\n      revert\n    tag_80:\n      pop\n      tag_81\n      tag_82\n      jump\t// in\n    tag_81:\n      stop\n        /* \"UZHPancakeLottery.sol\":9035:9632  function Pull() public onlyOwner {\r... */\n    tag_22:\n        /* \"UZHPancakeLottery.sol\":1254:1259  owner */\n      0x00\n      dup1\n      sload\n      swap1\n      0x0100\n      exp\n      swap1\n      div\n      0xffffffffffffffffffffffffffffffffffffffff\n      and\n        /* \"UZHPancakeLottery.sol\":1240:1259  msg.sender == owner */\n      0xffffffffffffffffffffffffffffffffffffffff\n      and\n        /* \"UZHPancakeLottery.sol\":1240:1250  msg.sender */\n      caller\n        /* \"UZHPancakeLottery.sol\":1240:1259  msg.sender == owner */\n      0xffffffffffffffffffffffffffffffffffffffff\n      and\n      eq\n        /* \"UZHPancakeLottery.sol\":1232:1302  require(msg.sender == owner, \"Only the owner can perform this action\") */\n      tag_84\n      jumpi\n      mload(0x40)\n      0x08c379a000000000000000000000000000000000000000000000000000000000\n      dup2\n      mstore\n      0x04\n      add\n      tag_85\n      swap1\n      tag_86\n      jump\t// in\n    tag_85:\n      mload(0x40)\n      dup1\n      swap2\n      sub\n      swap1\n      revert\n    tag_84:\n        /* \"UZHPancakeLottery.sol\":9162:9167  false */\n      0x00\n        /* \"UZHPancakeLottery.sol\":9144:9167  lotteryStarted == false */\n      iszero\n      iszero\n        /* \"UZHPancakeLottery.sol\":9144:9158  lotteryStarted */\n      0x07\n      0x00\n      swap1\n      sload\n      swap1\n      0x0100\n      exp\n      swap1\n      div\n      0xff\n      and\n        /* \"UZHPancakeLottery.sol\":9144:9167  lotteryStarted == false */\n      iszero\n      iszero\n      eq\n        /* \"UZHPancakeLottery.sol\":9136:9192  require(lotteryStarted == false, \"A lottery is running\") */\n      tag_88\n      jumpi\n      mload(0x40)\n      0x08c379a000000000000000000000000000000000000000000000000000000000\n      dup2\n      mstore\n      0x04\n      add\n      tag_89\n      swap1\n      tag_90\n      jump\t// in\n    tag_89:\n      mload(0x40)\n      dup1\n      swap2\n      sub\n      swap1\n      revert\n    tag_88:\n        /* \"UZHPancakeLottery.sol\":9265:9293  address payable ownerpayable */\n      0x00\n        /* \"UZHPancakeLottery.sol\":9304:9309  owner */\n      dup1\n      0x00\n      swap1\n      sload\n      swap1\n      0x0100\n      exp\n      swap1\n      div\n      0xffffffffffffffffffffffffffffffffffffffff\n      and\n        /* \"UZHPancakeLottery.sol\":9265:9310  address payable ownerpayable = payable(owner) */\n      swap1\n      pop\n        /* \"UZHPancakeLottery.sol\":9414:9415  0 */\n      0x00\n        /* \"UZHPancakeLottery.sol\":9396:9411  TotalLotteryPot */\n      sload(0x04)\n        /* \"UZHPancakeLottery.sol\":9396:9415  TotalLotteryPot > 0 */\n      gt\n        /* \"UZHPancakeLottery.sol\":9388:9440  require(TotalLotteryPot > 0, \"No Ether to pull out\") */\n      tag_91\n      jumpi\n      mload(0x40)\n      0x08c379a000000000000000000000000000000000000000000000000000000000\n      dup2\n      mstore\n      0x04\n      add\n      tag_92\n      swap1\n      tag_93\n      jump\t// in\n    tag_92:\n      mload(0x40)\n      dup1\n      swap2\n      sub\n      swap1\n      revert\n    tag_91:\n        /* \"UZHPancakeLottery.sol\":9509:9521  ownerpayable */\n      dup1\n        /* \"UZHPancakeLottery.sol\":9509:9530  ownerpayable.transfer */\n      0xffffffffffffffffffffffffffffffffffffffff\n      and\n        /* \"UZHPancakeLottery.sol\":9509:9547  ownerpayable.transfer(TotalLotteryPot) */\n      0x08fc\n        /* \"UZHPancakeLottery.sol\":9531:9546  TotalLotteryPot */\n      sload(0x04)\n        /* \"UZHPancakeLottery.sol\":9509:9547  ownerpayable.transfer(TotalLotteryPot) */\n      swap1\n      dup2\n      iszero\n      mul\n      swap1\n      mload(0x40)\n      0x00\n      mload(0x40)\n      dup1\n      dup4\n      sub\n      dup2\n      dup6\n      dup9\n      dup9\n      call\n      swap4\n      pop\n      pop\n      pop\n      pop\n      iszero\n      dup1\n      iszero\n      tag_95\n      jumpi\n      returndatasize\n      0x00\n      dup1\n      returndatacopy\n      revert(0x00, returndatasize)\n    tag_95:\n      pop\n        /* \"UZHPancakeLottery.sol\":9623:9624  0 */\n      0x00\n        /* \"UZHPancakeLottery.sol\":9605:9620  TotalLotteryPot */\n      0x04\n        /* \"UZHPancakeLottery.sol\":9605:9624  TotalLotteryPot = 0 */\n      dup2\n      swap1\n      sstore\n      pop\n        /* \"UZHPancakeLottery.sol\":9068:9632  {\r... */\n      pop\n        /* \"UZHPancakeLottery.sol\":9035:9632  function Pull() public onlyOwner {\r... */\n      jump\t// out\n        /* \"UZHPancakeLottery.sol\":2780:3431  function BeginLottery() public onlyOwner {\r... */\n    tag_25:\n        /* \"UZHPancakeLottery.sol\":1254:1259  owner */\n      0x00\n      dup1\n      sload\n      swap1\n      0x0100\n      exp\n      swap1\n      div\n      0xffffffffffffffffffffffffffffffffffffffff\n      and\n        /* \"UZHPancakeLottery.sol\":1240:1259  msg.sender == owner */\n      0xffffffffffffffffffffffffffffffffffffffff\n      and\n        /* \"UZHPancakeLottery.sol\":1240:1250  msg.sender */\n      caller\n        /* \"UZHPancakeLottery.sol\":1240:1259  msg.sender == owner */\n      0xffffffffffffffffffffffffffffffffffffffff\n      and\n      eq\n        /* \"UZHPancakeLottery.sol\":1232:1302  require(msg.sender == owner, \"Only the owner can perform this action\") */\n      tag_97\n      jumpi\n      mload(0x40)\n      0x08c379a000000000000000000000000000000000000000000000000000000000\n      dup2\n      mstore\n      0x04\n      add\n      tag_98\n      swap1\n      tag_86\n      jump\t// in\n    tag_98:\n      mload(0x40)\n      dup1\n      swap2\n      sub\n      swap1\n      revert\n    tag_97:\n        /* \"UZHPancakeLottery.sol\":2915:2920  false */\n      0x00\n        /* \"UZHPancakeLottery.sol\":2897:2920  lotteryStarted == false */\n      iszero\n      iszero\n        /* \"UZHPancakeLottery.sol\":2897:2911  lotteryStarted */\n      0x07\n      0x00\n      swap1\n      sload\n      swap1\n      0x0100\n      exp\n      swap1\n      div\n      0xff\n      and\n        /* \"UZHPancakeLottery.sol\":2897:2920  lotteryStarted == false */\n      iszero\n      iszero\n      eq\n        /* \"UZHPancakeLottery.sol\":2889:2945  require(lotteryStarted == false, \"A lottery is running\") */\n      tag_100\n      jumpi\n      mload(0x40)\n      0x08c379a000000000000000000000000000000000000000000000000000000000\n      dup2\n      mstore\n      0x04\n      add\n      tag_101\n      swap1\n      tag_90\n      jump\t// in\n    tag_101:\n      mload(0x40)\n      dup1\n      swap2\n      sub\n      swap1\n      revert\n    tag_100:\n        /* \"UZHPancakeLottery.sol\":2973:2977  true */\n      0x01\n        /* \"UZHPancakeLottery.sol\":2956:2970  lotteryStarted */\n      0x07\n      0x00\n        /* \"UZHPancakeLottery.sol\":2956:2977  lotteryStarted = true */\n      0x0100\n      exp\n      dup2\n      sload\n      dup2\n      0xff\n      mul\n      not\n      and\n      swap1\n      dup4\n      iszero\n      iszero\n      mul\n      or\n      swap1\n      sstore\n      pop\n        /* \"UZHPancakeLottery.sol\":3015:3016  6 */\n      0x06\n        /* \"UZHPancakeLottery.sol\":3004:3017  new uint[](6) */\n      0xffffffffffffffff\n      dup2\n      gt\n      iszero\n      tag_102\n      jumpi\n      tag_103\n      tag_104\n      jump\t// in\n    tag_103:\n    tag_102:\n      mload(0x40)\n      swap1\n      dup1\n      dup3\n      mstore\n      dup1\n      0x20\n      mul\n      0x20\n      add\n      dup3\n      add\n      0x40\n      mstore\n      dup1\n      iszero\n      tag_105\n      jumpi\n      dup2\n      0x20\n      add\n      0x20\n      dup3\n      mul\n      dup1\n      calldatasize\n      dup4\n      calldatacopy\n      dup1\n      dup3\n      add\n      swap2\n      pop\n      pop\n      swap1\n      pop\n    tag_105:\n      pop\n        /* \"UZHPancakeLottery.sol\":2988:3001  winningNumber */\n      0x01\n        /* \"UZHPancakeLottery.sol\":2988:3017  winningNumber = new uint[](6) */\n      swap1\n      dup1\n      mload\n      swap1\n      0x20\n      add\n      swap1\n      tag_106\n      swap3\n      swap2\n      swap1\n      tag_107\n      jump\t// in\n    tag_106:\n      pop\n        /* \"UZHPancakeLottery.sol\":3028:3040  uint counter */\n      0x00\n        /* \"UZHPancakeLottery.sol\":3133:3139  uint i */\n      dup1\n        /* \"UZHPancakeLottery.sol\":3128:3424  for (uint i = 0; i < 6; i++) {\r... */\n    tag_108:\n        /* \"UZHPancakeLottery.sol\":3149:3150  6 */\n      0x06\n        /* \"UZHPancakeLottery.sol\":3145:3146  i */\n      dup2\n        /* \"UZHPancakeLottery.sol\":3145:3150  i < 6 */\n      lt\n        /* \"UZHPancakeLottery.sol\":3128:3424  for (uint i = 0; i < 6; i++) {\r... */\n      iszero\n      tag_109\n      jumpi\n        /* \"UZHPancakeLottery.sol\":3172:3192  uint256 randomNumber */\n      0x00\n        /* \"UZHPancakeLottery.sol\":3272:3274  10 */\n      0x0a\n        /* \"UZHPancakeLottery.sol\":3230:3246  block.difficulty */\n      difficulty\n        /* \"UZHPancakeLottery.sol\":3248:3263  block.timestamp */\n      timestamp\n        /* \"UZHPancakeLottery.sol\":3265:3266  i */\n      dup5\n        /* \"UZHPancakeLottery.sol\":3213:3267  abi.encodePacked(block.difficulty, block.timestamp, i) */\n      add(0x20, mload(0x40))\n      tag_111\n      swap4\n      swap3\n      swap2\n      swap1\n      tag_112\n      jump\t// in\n    tag_111:\n      mload(0x40)\n      0x20\n      dup2\n      dup4\n      sub\n      sub\n      dup2\n      mstore\n      swap1\n      0x40\n      mstore\n        /* \"UZHPancakeLottery.sol\":3203:3268  keccak256(abi.encodePacked(block.difficulty, block.timestamp, i)) */\n      dup1\n      mload\n      swap1\n      0x20\n      add\n      keccak256\n        /* \"UZHPancakeLottery.sol\":3195:3269  uint256(keccak256(abi.encodePacked(block.difficulty, block.timestamp, i))) */\n      0x00\n      shr\n        /* \"UZHPancakeLottery.sol\":3195:3274  uint256(keccak256(abi.encodePacked(block.difficulty, block.timestamp, i))) % 10 */\n      tag_113\n      swap2\n      swap1\n      tag_114\n      jump\t// in\n    tag_113:\n        /* \"UZHPancakeLottery.sol\":3172:3274  uint256 randomNumber = uint256(keccak256(abi.encodePacked(block.difficulty, block.timestamp, i))) % 10 */\n      swap1\n      pop\n        /* \"UZHPancakeLottery.sol\":3309:3310  0 */\n      0x00\n        /* \"UZHPancakeLottery.sol\":3293:3305  randomNumber */\n      dup2\n        /* \"UZHPancakeLottery.sol\":3293:3310  randomNumber != 0 */\n      eq\n        /* \"UZHPancakeLottery.sol\":3289:3413  if (randomNumber != 0) {\r... */\n      tag_115\n      jumpi\n        /* \"UZHPancakeLottery.sol\":3356:3368  randomNumber */\n      dup1\n        /* \"UZHPancakeLottery.sol\":3331:3344  winningNumber */\n      0x01\n        /* \"UZHPancakeLottery.sol\":3345:3352  counter */\n      dup5\n        /* \"UZHPancakeLottery.sol\":3331:3353  winningNumber[counter] */\n      dup2\n      sload\n      dup2\n      lt\n      tag_116\n      jumpi\n      tag_117\n      tag_118\n      jump\t// in\n    tag_117:\n    tag_116:\n      swap1\n      0x00\n      mstore\n      keccak256(0x00, 0x20)\n      add\n        /* \"UZHPancakeLottery.sol\":3331:3368  winningNumber[counter] = randomNumber */\n      dup2\n      swap1\n      sstore\n      pop\n        /* \"UZHPancakeLottery.sol\":3388:3397  counter++ */\n      dup3\n      dup1\n      tag_120\n      swap1\n      tag_121\n      jump\t// in\n    tag_120:\n      swap4\n      pop\n      pop\n        /* \"UZHPancakeLottery.sol\":3289:3413  if (randomNumber != 0) {\r... */\n    tag_115:\n        /* \"UZHPancakeLottery.sol\":3157:3424  {\r... */\n      pop\n        /* \"UZHPancakeLottery.sol\":3152:3155  i++ */\n      dup1\n      dup1\n      tag_122\n      swap1\n      tag_121\n      jump\t// in\n    tag_122:\n      swap2\n      pop\n      pop\n        /* \"UZHPancakeLottery.sol\":3128:3424  for (uint i = 0; i < 6; i++) {\r... */\n      jump(tag_108)\n    tag_109:\n      pop\n        /* \"UZHPancakeLottery.sol\":2821:3431  {\r... */\n      pop\n        /* \"UZHPancakeLottery.sol\":2780:3431  function BeginLottery() public onlyOwner {\r... */\n      jump\t// out\n        /* \"UZHPancakeLottery.sol\":1382:1612  function changeTicketPrice(uint _price) public onlyOwner {\r... */\n    tag_30:\n        /* \"UZHPancakeLottery.sol\":1254:1259  owner */\n      0x00\n      dup1\n      sload\n      swap1\n      0x0100\n      exp\n      swap1\n      div\n      0xffffffffffffffffffffffffffffffffffffffff\n      and\n        /* \"UZHPancakeLottery.sol\":1240:1259  msg.sender == owner */\n      0xffffffffffffffffffffffffffffffffffffffff\n      and\n        /* \"UZHPancakeLottery.sol\":1240:1250  msg.sender */\n      caller\n        /* \"UZHPancakeLottery.sol\":1240:1259  msg.sender == owner */\n      0xffffffffffffffffffffffffffffffffffffffff\n      and\n      eq\n        /* \"UZHPancakeLottery.sol\":1232:1302  require(msg.sender == owner, \"Only the owner can perform this action\") */\n      tag_124\n      jumpi\n      mload(0x40)\n      0x08c379a000000000000000000000000000000000000000000000000000000000\n      dup2\n      mstore\n      0x04\n      add\n      tag_125\n      swap1\n      tag_86\n      jump\t// in\n    tag_125:\n      mload(0x40)\n      dup1\n      swap2\n      sub\n      swap1\n      revert\n    tag_124:\n        /* \"UZHPancakeLottery.sol\":1533:1538  false */\n      0x00\n        /* \"UZHPancakeLottery.sol\":1515:1538  lotteryStarted == false */\n      iszero\n      iszero\n        /* \"UZHPancakeLottery.sol\":1515:1529  lotteryStarted */\n      0x07\n      0x00\n      swap1\n      sload\n      swap1\n      0x0100\n      exp\n      swap1\n      div\n      0xff\n      and\n        /* \"UZHPancakeLottery.sol\":1515:1538  lotteryStarted == false */\n      iszero\n      iszero\n      eq\n        /* \"UZHPancakeLottery.sol\":1507:1563  require(lotteryStarted == false, \"A lottery is running\") */\n      tag_127\n      jumpi\n      mload(0x40)\n      0x08c379a000000000000000000000000000000000000000000000000000000000\n      dup2\n      mstore\n      0x04\n      add\n      tag_128\n      swap1\n      tag_90\n      jump\t// in\n    tag_128:\n      mload(0x40)\n      dup1\n      swap2\n      sub\n      swap1\n      revert\n    tag_127:\n        /* \"UZHPancakeLottery.sol\":1597:1604  1 ether */\n      0x0de0b6b3a7640000\n        /* \"UZHPancakeLottery.sol\":1588:1594  _price */\n      dup2\n        /* \"UZHPancakeLottery.sol\":1588:1604  _price * 1 ether */\n      tag_129\n      swap2\n      swap1\n      tag_130\n      jump\t// in\n    tag_129:\n        /* \"UZHPancakeLottery.sol\":1574:1585  ticketprice */\n      0x03\n        /* \"UZHPancakeLottery.sol\":1574:1604  ticketprice = _price * 1 ether */\n      dup2\n      swap1\n      sstore\n      pop\n        /* \"UZHPancakeLottery.sol\":1382:1612  function changeTicketPrice(uint _price) public onlyOwner {\r... */\n      pop\n      jump\t// out\n        /* \"UZHPancakeLottery.sol\":849:883  address [] public playersAddresses */\n    tag_34:\n      0x06\n      dup2\n      dup2\n      sload\n      dup2\n      lt\n      tag_131\n      jumpi\n      0x00\n      dup1\n      revert\n    tag_131:\n      swap1\n      0x00\n      mstore\n      keccak256(0x00, 0x20)\n      add\n      0x00\n      swap2\n      pop\n      sload\n      swap1\n      0x0100\n      exp\n      swap1\n      div\n      0xffffffffffffffffffffffffffffffffffffffff\n      and\n      dup2\n      jump\t// out\n        /* \"UZHPancakeLottery.sol\":2623:2715  function Lotterystatus() public view returns (bool) {\r... */\n    tag_39:\n        /* \"UZHPancakeLottery.sol\":2669:2673  bool */\n      0x00\n        /* \"UZHPancakeLottery.sol\":2693:2707  lotteryStarted */\n      0x07\n      0x00\n      swap1\n      sload\n      swap1\n      0x0100\n      exp\n      swap1\n      div\n      0xff\n      and\n        /* \"UZHPancakeLottery.sol\":2686:2707  return lotteryStarted */\n      swap1\n      pop\n        /* \"UZHPancakeLottery.sol\":2623:2715  function Lotterystatus() public view returns (bool) {\r... */\n      swap1\n      jump\t// out\n        /* \"UZHPancakeLottery.sol\":3510:3833  function setWinningNumber(uint[] memory _winningNumber) public onlyOwner {\r... */\n    tag_46:\n        /* \"UZHPancakeLottery.sol\":1254:1259  owner */\n      0x00\n      dup1\n      sload\n      swap1\n      0x0100\n      exp\n      swap1\n      div\n      0xffffffffffffffffffffffffffffffffffffffff\n      and\n        /* \"UZHPancakeLottery.sol\":1240:1259  msg.sender == owner */\n      0xffffffffffffffffffffffffffffffffffffffff\n      and\n        /* \"UZHPancakeLottery.sol\":1240:1250  msg.sender */\n      caller\n        /* \"UZHPancakeLottery.sol\":1240:1259  msg.sender == owner */\n      0xffffffffffffffffffffffffffffffffffffffff\n      and\n      eq\n        /* \"UZHPancakeLottery.sol\":1232:1302  require(msg.sender == owner, \"Only the owner can perform this action\") */\n      tag_135\n      jumpi\n      mload(0x40)\n      0x08c379a000000000000000000000000000000000000000000000000000000000\n      dup2\n      mstore\n      0x04\n      add\n      tag_136\n      swap1\n      tag_86\n      jump\t// in\n    tag_136:\n      mload(0x40)\n      dup1\n      swap2\n      sub\n      swap1\n      revert\n    tag_135:\n        /* \"UZHPancakeLottery.sol\":3616:3621  owner */\n      0x00\n      dup1\n      sload\n      swap1\n      0x0100\n      exp\n      swap1\n      div\n      0xffffffffffffffffffffffffffffffffffffffff\n      and\n        /* \"UZHPancakeLottery.sol\":3602:3621  msg.sender == owner */\n      0xffffffffffffffffffffffffffffffffffffffff\n      and\n        /* \"UZHPancakeLottery.sol\":3602:3612  msg.sender */\n      caller\n        /* \"UZHPancakeLottery.sol\":3602:3621  msg.sender == owner */\n      0xffffffffffffffffffffffffffffffffffffffff\n      and\n      eq\n        /* \"UZHPancakeLottery.sol\":3594:3622  require(msg.sender == owner) */\n      tag_138\n      jumpi\n      0x00\n      dup1\n      revert\n    tag_138:\n        /* \"UZHPancakeLottery.sol\":3666:3667  6 */\n      0x06\n        /* \"UZHPancakeLottery.sol\":3641:3655  _winningNumber */\n      dup2\n        /* \"UZHPancakeLottery.sol\":3641:3662  _winningNumber.length */\n      mload\n        /* \"UZHPancakeLottery.sol\":3641:3667  _winningNumber.length == 6 */\n      eq\n        /* \"UZHPancakeLottery.sol\":3633:3668  require(_winningNumber.length == 6) */\n      tag_139\n      jumpi\n      0x00\n      dup1\n      revert\n    tag_139:\n        /* \"UZHPancakeLottery.sol\":3683:3689  uint i */\n      0x00\n        /* \"UZHPancakeLottery.sol\":3679:3785  for(uint i = 0; i < _winningNumber.length; i++) {\r... */\n    tag_140:\n        /* \"UZHPancakeLottery.sol\":3699:3713  _winningNumber */\n      dup2\n        /* \"UZHPancakeLottery.sol\":3699:3720  _winningNumber.length */\n      mload\n        /* \"UZHPancakeLottery.sol\":3695:3696  i */\n      dup2\n        /* \"UZHPancakeLottery.sol\":3695:3720  i < _winningNumber.length */\n      lt\n        /* \"UZHPancakeLottery.sol\":3679:3785  for(uint i = 0; i < _winningNumber.length; i++) {\r... */\n      iszero\n      tag_141\n      jumpi\n        /* \"UZHPancakeLottery.sol\":3771:3772  9 */\n      0x09\n        /* \"UZHPancakeLottery.sol\":3750:3764  _winningNumber */\n      dup3\n        /* \"UZHPancakeLottery.sol\":3765:3766  i */\n      dup3\n        /* \"UZHPancakeLottery.sol\":3750:3767  _winningNumber[i] */\n      dup2\n      mload\n      dup2\n      lt\n      tag_143\n      jumpi\n      tag_144\n      tag_118\n      jump\t// in\n    tag_144:\n    tag_143:\n      0x20\n      mul\n      0x20\n      add\n      add\n      mload\n        /* \"UZHPancakeLottery.sol\":3750:3772  _winningNumber[i] <= 9 */\n      gt\n      iszero\n        /* \"UZHPancakeLottery.sol\":3742:3773  require(_winningNumber[i] <= 9) */\n      tag_145\n      jumpi\n      0x00\n      dup1\n      revert\n    tag_145:\n        /* \"UZHPancakeLottery.sol\":3722:3725  i++ */\n      dup1\n      dup1\n      tag_146\n      swap1\n      tag_121\n      jump\t// in\n    tag_146:\n      swap2\n      pop\n      pop\n        /* \"UZHPancakeLottery.sol\":3679:3785  for(uint i = 0; i < _winningNumber.length; i++) {\r... */\n      jump(tag_140)\n    tag_141:\n      pop\n        /* \"UZHPancakeLottery.sol\":3811:3825  _winningNumber */\n      dup1\n        /* \"UZHPancakeLottery.sol\":3795:3808  winningNumber */\n      0x01\n        /* \"UZHPancakeLottery.sol\":3795:3825  winningNumber = _winningNumber */\n      swap1\n      dup1\n      mload\n      swap1\n      0x20\n      add\n      swap1\n      tag_147\n      swap3\n      swap2\n      swap1\n      tag_107\n      jump\t// in\n    tag_147:\n      pop\n        /* \"UZHPancakeLottery.sol\":3510:3833  function setWinningNumber(uint[] memory _winningNumber) public onlyOwner {\r... */\n      pop\n      jump\t// out\n        /* \"UZHPancakeLottery.sol\":946:980  bool public lotteryStarted = false */\n    tag_49:\n      0x07\n      0x00\n      swap1\n      sload\n      swap1\n      0x0100\n      exp\n      swap1\n      div\n      0xff\n      and\n      dup2\n      jump\t// out\n        /* \"UZHPancakeLottery.sol\":4206:5470  function buyTicket(uint[] memory ticketNumbers) public payable {\r... */\n    tag_53:\n        /* \"UZHPancakeLottery.sol\":4359:4363  true */\n      0x01\n        /* \"UZHPancakeLottery.sol\":4341:4363  lotteryStarted == true */\n      iszero\n      iszero\n        /* \"UZHPancakeLottery.sol\":4341:4355  lotteryStarted */\n      0x07\n      0x00\n      swap1\n      sload\n      swap1\n      0x0100\n      exp\n      swap1\n      div\n      0xff\n      and\n        /* \"UZHPancakeLottery.sol\":4341:4363  lotteryStarted == true */\n      iszero\n      iszero\n      eq\n        /* \"UZHPancakeLottery.sol\":4333:4389  require(lotteryStarted == true, \"No lottery is running\") */\n      tag_149\n      jumpi\n      mload(0x40)\n      0x08c379a000000000000000000000000000000000000000000000000000000000\n      dup2\n      mstore\n      0x04\n      add\n      tag_150\n      swap1\n      tag_151\n      jump\t// in\n    tag_150:\n      mload(0x40)\n      dup1\n      swap2\n      sub\n      swap1\n      revert\n    tag_149:\n        /* \"UZHPancakeLottery.sol\":4508:4519  ticketprice */\n      sload(0x03)\n        /* \"UZHPancakeLottery.sol\":4495:4504  msg.value */\n      callvalue\n        /* \"UZHPancakeLottery.sol\":4495:4519  msg.value == ticketprice */\n      eq\n        /* \"UZHPancakeLottery.sol\":4487:4536  require(msg.value == ticketprice, \"Wrong amount\") */\n      tag_152\n      jumpi\n      mload(0x40)\n      0x08c379a000000000000000000000000000000000000000000000000000000000\n      dup2\n      mstore\n      0x04\n      add\n      tag_153\n      swap1\n      tag_154\n      jump\t// in\n    tag_153:\n      mload(0x40)\n      dup1\n      swap2\n      sub\n      swap1\n      revert\n    tag_152:\n        /* \"UZHPancakeLottery.sol\":4638:4639  6 */\n      0x06\n        /* \"UZHPancakeLottery.sol\":4614:4627  ticketNumbers */\n      dup2\n        /* \"UZHPancakeLottery.sol\":4614:4634  ticketNumbers.length */\n      mload\n        /* \"UZHPancakeLottery.sol\":4614:4639  ticketNumbers.length == 6 */\n      eq\n        /* \"UZHPancakeLottery.sol\":4606:4667  require(ticketNumbers.length == 6, \"Wrong number of numbers\") */\n      tag_155\n      jumpi\n      mload(0x40)\n      0x08c379a000000000000000000000000000000000000000000000000000000000\n      dup2\n      mstore\n      0x04\n      add\n      tag_156\n      swap1\n      tag_157\n      jump\t// in\n    tag_156:\n      mload(0x40)\n      dup1\n      swap2\n      sub\n      swap1\n      revert\n    tag_155:\n        /* \"UZHPancakeLottery.sol\":4751:4757  uint i */\n      0x00\n        /* \"UZHPancakeLottery.sol\":4746:4892  for (uint i = 0; i < ticketNumbers.length; i++) {\r... */\n    tag_158:\n        /* \"UZHPancakeLottery.sol\":4767:4780  ticketNumbers */\n      dup2\n        /* \"UZHPancakeLottery.sol\":4767:4787  ticketNumbers.length */\n      mload\n        /* \"UZHPancakeLottery.sol\":4763:4764  i */\n      dup2\n        /* \"UZHPancakeLottery.sol\":4763:4787  i < ticketNumbers.length */\n      lt\n        /* \"UZHPancakeLottery.sol\":4746:4892  for (uint i = 0; i < ticketNumbers.length; i++) {\r... */\n      iszero\n      tag_159\n      jumpi\n        /* \"UZHPancakeLottery.sol\":4836:4838  10 */\n      0x0a\n        /* \"UZHPancakeLottery.sol\":4817:4830  ticketNumbers */\n      dup3\n        /* \"UZHPancakeLottery.sol\":4831:4832  i */\n      dup3\n        /* \"UZHPancakeLottery.sol\":4817:4833  ticketNumbers[i] */\n      dup2\n      mload\n      dup2\n      lt\n      tag_161\n      jumpi\n      tag_162\n      tag_118\n      jump\t// in\n    tag_162:\n    tag_161:\n      0x20\n      mul\n      0x20\n      add\n      add\n      mload\n        /* \"UZHPancakeLottery.sol\":4817:4838  ticketNumbers[i] < 10 */\n      lt\n        /* \"UZHPancakeLottery.sol\":4817:4863  ticketNumbers[i] < 10 && ticketNumbers[i] >= 0 */\n      dup1\n      iszero\n      tag_163\n      jumpi\n      pop\n        /* \"UZHPancakeLottery.sol\":4862:4863  0 */\n      0x00\n        /* \"UZHPancakeLottery.sol\":4842:4855  ticketNumbers */\n      dup3\n        /* \"UZHPancakeLottery.sol\":4856:4857  i */\n      dup3\n        /* \"UZHPancakeLottery.sol\":4842:4858  ticketNumbers[i] */\n      dup2\n      mload\n      dup2\n      lt\n      tag_164\n      jumpi\n      tag_165\n      tag_118\n      jump\t// in\n    tag_165:\n    tag_164:\n      0x20\n      mul\n      0x20\n      add\n      add\n      mload\n        /* \"UZHPancakeLottery.sol\":4842:4863  ticketNumbers[i] >= 0 */\n      lt\n      iszero\n        /* \"UZHPancakeLottery.sol\":4817:4863  ticketNumbers[i] < 10 && ticketNumbers[i] >= 0 */\n    tag_163:\n        /* \"UZHPancakeLottery.sol\":4809:4880  require(ticketNumbers[i] < 10 && ticketNumbers[i] >= 0, \"Wrong number\") */\n      tag_166\n      jumpi\n      mload(0x40)\n      0x08c379a000000000000000000000000000000000000000000000000000000000\n      dup2\n      mstore\n      0x04\n      add\n      tag_167\n      swap1\n      tag_168\n      jump\t// in\n    tag_167:\n      mload(0x40)\n      dup1\n      swap2\n      sub\n      swap1\n      revert\n    tag_166:\n        /* \"UZHPancakeLottery.sol\":4789:4792  i++ */\n      dup1\n      dup1\n      tag_169\n      swap1\n      tag_121\n      jump\t// in\n    tag_169:\n      swap2\n      pop\n      pop\n        /* \"UZHPancakeLottery.sol\":4746:4892  for (uint i = 0; i < ticketNumbers.length; i++) {\r... */\n      jump(tag_158)\n    tag_159:\n      pop\n        /* \"UZHPancakeLottery.sol\":5019:5020  0 */\n      0x00\n        /* \"UZHPancakeLottery.sol\":4982:4996  playersTickets */\n      0x02\n        /* \"UZHPancakeLottery.sol\":4982:5008  playersTickets[msg.sender] */\n      0x00\n        /* \"UZHPancakeLottery.sol\":4997:5007  msg.sender */\n      caller\n        /* \"UZHPancakeLottery.sol\":4982:5008  playersTickets[msg.sender] */\n      0xffffffffffffffffffffffffffffffffffffffff\n      and\n      0xffffffffffffffffffffffffffffffffffffffff\n      and\n      dup2\n      mstore\n      0x20\n      add\n      swap1\n      dup2\n      mstore\n      0x20\n      add\n      0x00\n      keccak256\n        /* \"UZHPancakeLottery.sol\":4982:5015  playersTickets[msg.sender].length */\n      dup1\n      sload\n      swap1\n      pop\n        /* \"UZHPancakeLottery.sol\":4982:5020  playersTickets[msg.sender].length == 0 */\n      eq\n        /* \"UZHPancakeLottery.sol\":4974:5057  require(playersTickets[msg.sender].length == 0, \"You have already bought a ticket\") */\n      tag_170\n      jumpi\n      mload(0x40)\n      0x08c379a000000000000000000000000000000000000000000000000000000000\n      dup2\n      mstore\n      0x04\n      add\n      tag_171\n      swap1\n      tag_172\n      jump\t// in\n    tag_171:\n      mload(0x40)\n      dup1\n      swap2\n      sub\n      swap1\n      revert\n    tag_170:\n        /* \"UZHPancakeLottery.sol\":5162:5175  ticketNumbers */\n      dup1\n        /* \"UZHPancakeLottery.sol\":5133:5147  playersTickets */\n      0x02\n        /* \"UZHPancakeLottery.sol\":5133:5159  playersTickets[msg.sender] */\n      0x00\n        /* \"UZHPancakeLottery.sol\":5148:5158  msg.sender */\n      caller\n        /* \"UZHPancakeLottery.sol\":5133:5159  playersTickets[msg.sender] */\n      0xffffffffffffffffffffffffffffffffffffffff\n      and\n      0xffffffffffffffffffffffffffffffffffffffff\n      and\n      dup2\n      mstore\n      0x20\n      add\n      swap1\n      dup2\n      mstore\n      0x20\n      add\n      0x00\n      keccak256\n        /* \"UZHPancakeLottery.sol\":5133:5175  playersTickets[msg.sender] = ticketNumbers */\n      swap1\n      dup1\n      mload\n      swap1\n      0x20\n      add\n      swap1\n      tag_173\n      swap3\n      swap2\n      swap1\n      tag_107\n      jump\t// in\n    tag_173:\n      pop\n        /* \"UZHPancakeLottery.sol\":5256:5272  playersAddresses */\n      0x06\n        /* \"UZHPancakeLottery.sol\":5278:5288  msg.sender */\n      caller\n        /* \"UZHPancakeLottery.sol\":5256:5289  playersAddresses.push(msg.sender) */\n      swap1\n      dup1\n      0x01\n      dup2\n      sload\n      add\n      dup1\n      dup3\n      sstore\n      dup1\n      swap2\n      pop\n      pop\n      0x01\n      swap1\n      sub\n      swap1\n      0x00\n      mstore\n      keccak256(0x00, 0x20)\n      add\n      0x00\n      swap1\n      swap2\n      swap1\n      swap2\n      swap1\n      swap2\n      0x0100\n      exp\n      dup2\n      sload\n      dup2\n      0xffffffffffffffffffffffffffffffffffffffff\n      mul\n      not\n      and\n      swap1\n      dup4\n      0xffffffffffffffffffffffffffffffffffffffff\n      and\n      mul\n      or\n      swap1\n      sstore\n      pop\n        /* \"UZHPancakeLottery.sol\":5377:5386  msg.value */\n      callvalue\n        /* \"UZHPancakeLottery.sol\":5358:5373  TotalLotteryPot */\n      0x04\n      0x00\n        /* \"UZHPancakeLottery.sol\":5358:5386  TotalLotteryPot += msg.value */\n      dup3\n      dup3\n      sload\n      tag_175\n      swap2\n      swap1\n      tag_176\n      jump\t// in\n    tag_175:\n      swap3\n      pop\n      pop\n      dup2\n      swap1\n      sstore\n      pop\n        /* \"UZHPancakeLottery.sol\":5461:5462  1 */\n      0x01\n        /* \"UZHPancakeLottery.sol\":5442:5457  NrticketsBought */\n      0x05\n      0x00\n        /* \"UZHPancakeLottery.sol\":5442:5462  NrticketsBought += 1 */\n      dup3\n      dup3\n      sload\n      tag_177\n      swap2\n      swap1\n      tag_176\n      jump\t// in\n    tag_177:\n      swap3\n      pop\n      pop\n      dup2\n      swap1\n      sstore\n      pop\n        /* \"UZHPancakeLottery.sol\":4206:5470  function buyTicket(uint[] memory ticketNumbers) public payable {\r... */\n      pop\n      jump\t// out\n        /* \"UZHPancakeLottery.sol\":2430:2515  function OwnerAddress() public view returns (address) {\r... */\n    tag_56:\n        /* \"UZHPancakeLottery.sol\":2475:2482  address */\n      0x00\n        /* \"UZHPancakeLottery.sol\":2502:2507  owner */\n      dup1\n      0x00\n      swap1\n      sload\n      swap1\n      0x0100\n      exp\n      swap1\n      div\n      0xffffffffffffffffffffffffffffffffffffffff\n      and\n        /* \"UZHPancakeLottery.sol\":2495:2507  return owner */\n      swap1\n      pop\n        /* \"UZHPancakeLottery.sol\":2430:2515  function OwnerAddress() public view returns (address) {\r... */\n      swap1\n      jump\t// out\n        /* \"UZHPancakeLottery.sol\":1673:1893  function getTicketPrice() public view returns (uint) {\r... */\n    tag_60:\n        /* \"UZHPancakeLottery.sol\":1720:1724  uint */\n      0x00\n        /* \"UZHPancakeLottery.sol\":1816:1820  true */\n      0x01\n        /* \"UZHPancakeLottery.sol\":1798:1820  lotteryStarted == true */\n      iszero\n      iszero\n        /* \"UZHPancakeLottery.sol\":1798:1812  lotteryStarted */\n      0x07\n      0x00\n      swap1\n      sload\n      swap1\n      0x0100\n      exp\n      swap1\n      div\n      0xff\n      and\n        /* \"UZHPancakeLottery.sol\":1798:1820  lotteryStarted == true */\n      iszero\n      iszero\n      eq\n        /* \"UZHPancakeLottery.sol\":1790:1846  require(lotteryStarted == true, \"No lottery is running\") */\n      tag_180\n      jumpi\n      mload(0x40)\n      0x08c379a000000000000000000000000000000000000000000000000000000000\n      dup2\n      mstore\n      0x04\n      add\n      tag_181\n      swap1\n      tag_151\n      jump\t// in\n    tag_181:\n      mload(0x40)\n      dup1\n      swap2\n      sub\n      swap1\n      revert\n    tag_180:\n        /* \"UZHPancakeLottery.sol\":1878:1885  1 ether */\n      0x0de0b6b3a7640000\n        /* \"UZHPancakeLottery.sol\":1864:1875  ticketprice */\n      sload(0x03)\n        /* \"UZHPancakeLottery.sol\":1864:1885  ticketprice / 1 ether */\n      tag_182\n      swap2\n      swap1\n      tag_183\n      jump\t// in\n    tag_182:\n        /* \"UZHPancakeLottery.sol\":1857:1885  return ticketprice / 1 ether */\n      swap1\n      pop\n        /* \"UZHPancakeLottery.sol\":1673:1893  function getTicketPrice() public view returns (uint) {\r... */\n      swap1\n      jump\t// out\n        /* \"UZHPancakeLottery.sol\":1973:2201  function getTotalLotteryPot() public view returns (uint) {\r... */\n    tag_65:\n        /* \"UZHPancakeLottery.sol\":2024:2028  uint */\n      0x00\n        /* \"UZHPancakeLottery.sol\":2120:2124  true */\n      0x01\n        /* \"UZHPancakeLottery.sol\":2102:2124  lotteryStarted == true */\n      iszero\n      iszero\n        /* \"UZHPancakeLottery.sol\":2102:2116  lotteryStarted */\n      0x07\n      0x00\n      swap1\n      sload\n      swap1\n      0x0100\n      exp\n      swap1\n      div\n      0xff\n      and\n        /* \"UZHPancakeLottery.sol\":2102:2124  lotteryStarted == true */\n      iszero\n      iszero\n      eq\n        /* \"UZHPancakeLottery.sol\":2094:2150  require(lotteryStarted == true, \"No lottery is running\") */\n      tag_185\n      jumpi\n      mload(0x40)\n      0x08c379a000000000000000000000000000000000000000000000000000000000\n      dup2\n      mstore\n      0x04\n      add\n      tag_186\n      swap1\n      tag_151\n      jump\t// in\n    tag_186:\n      mload(0x40)\n      dup1\n      swap2\n      sub\n      swap1\n      revert\n    tag_185:\n        /* \"UZHPancakeLottery.sol\":2186:2193  1 ether */\n      0x0de0b6b3a7640000\n        /* \"UZHPancakeLottery.sol\":2168:2183  TotalLotteryPot */\n      sload(0x04)\n        /* \"UZHPancakeLottery.sol\":2168:2193  TotalLotteryPot / 1 ether */\n      tag_187\n      swap2\n      swap1\n      tag_183\n      jump\t// in\n    tag_187:\n        /* \"UZHPancakeLottery.sol\":2161:2193  return TotalLotteryPot / 1 ether */\n      swap1\n      pop\n        /* \"UZHPancakeLottery.sol\":1973:2201  function getTotalLotteryPot() public view returns (uint) {\r... */\n      swap1\n      jump\t// out\n        /* \"UZHPancakeLottery.sol\":3932:4165  function getWinningNumber() public view onlyOwner returns (uint[] memory) {\r... */\n    tag_69:\n        /* \"UZHPancakeLottery.sol\":3991:4004  uint[] memory */\n      0x60\n        /* \"UZHPancakeLottery.sol\":1254:1259  owner */\n      0x00\n      dup1\n      sload\n      swap1\n      0x0100\n      exp\n      swap1\n      div\n      0xffffffffffffffffffffffffffffffffffffffff\n      and\n        /* \"UZHPancakeLottery.sol\":1240:1259  msg.sender == owner */\n      0xffffffffffffffffffffffffffffffffffffffff\n      and\n        /* \"UZHPancakeLottery.sol\":1240:1250  msg.sender */\n      caller\n        /* \"UZHPancakeLottery.sol\":1240:1259  msg.sender == owner */\n      0xffffffffffffffffffffffffffffffffffffffff\n      and\n      eq\n        /* \"UZHPancakeLottery.sol\":1232:1302  require(msg.sender == owner, \"Only the owner can perform this action\") */\n      tag_189\n      jumpi\n      mload(0x40)\n      0x08c379a000000000000000000000000000000000000000000000000000000000\n      dup2\n      mstore\n      0x04\n      add\n      tag_190\n      swap1\n      tag_86\n      jump\t// in\n    tag_190:\n      mload(0x40)\n      dup1\n      swap2\n      sub\n      swap1\n      revert\n    tag_189:\n        /* \"UZHPancakeLottery.sol\":4096:4100  true */\n      0x01\n        /* \"UZHPancakeLottery.sol\":4078:4100  lotteryStarted == true */\n      iszero\n      iszero\n        /* \"UZHPancakeLottery.sol\":4078:4092  lotteryStarted */\n      0x07\n      0x00\n      swap1\n      sload\n      swap1\n      0x0100\n      exp\n      swap1\n      div\n      0xff\n      and\n        /* \"UZHPancakeLottery.sol\":4078:4100  lotteryStarted == true */\n      iszero\n      iszero\n      eq\n        /* \"UZHPancakeLottery.sol\":4070:4126  require(lotteryStarted == true, \"No lottery is running\") */\n      tag_192\n      jumpi\n      mload(0x40)\n      0x08c379a000000000000000000000000000000000000000000000000000000000\n      dup2\n      mstore\n      0x04\n      add\n      tag_193\n      swap1\n      tag_151\n      jump\t// in\n    tag_193:\n      mload(0x40)\n      dup1\n      swap2\n      sub\n      swap1\n      revert\n    tag_192:\n        /* \"UZHPancakeLottery.sol\":4144:4157  winningNumber */\n      0x01\n        /* \"UZHPancakeLottery.sol\":4137:4157  return winningNumber */\n      dup1\n      sload\n      dup1\n      0x20\n      mul\n      0x20\n      add\n      mload(0x40)\n      swap1\n      dup2\n      add\n      0x40\n      mstore\n      dup1\n      swap3\n      swap2\n      swap1\n      dup2\n      dup2\n      mstore\n      0x20\n      add\n      dup3\n      dup1\n      sload\n      dup1\n      iszero\n      tag_194\n      jumpi\n      0x20\n      mul\n      dup3\n      add\n      swap2\n      swap1\n      0x00\n      mstore\n      keccak256(0x00, 0x20)\n      swap1\n    tag_195:\n      dup2\n      sload\n      dup2\n      mstore\n      0x20\n      add\n      swap1\n      0x01\n      add\n      swap1\n      dup1\n      dup4\n      gt\n      tag_195\n      jumpi\n    tag_194:\n      pop\n      pop\n      pop\n      pop\n      pop\n      swap1\n      pop\n        /* \"UZHPancakeLottery.sol\":3932:4165  function getWinningNumber() public view onlyOwner returns (uint[] memory) {\r... */\n      swap1\n      jump\t// out\n        /* \"UZHPancakeLottery.sol\":2273:2370  function NrOfticketsBought() public view returns (uint) {\r... */\n    tag_74:\n        /* \"UZHPancakeLottery.sol\":2323:2327  uint */\n      0x00\n        /* \"UZHPancakeLottery.sol\":2347:2362  NrticketsBought */\n      sload(0x05)\n        /* \"UZHPancakeLottery.sol\":2340:2362  return NrticketsBought */\n      swap1\n      pop\n        /* \"UZHPancakeLottery.sol\":2273:2370  function NrOfticketsBought() public view returns (uint) {\r... */\n      swap1\n      jump\t// out\n        /* \"UZHPancakeLottery.sol\":5538:5656  function getMyTicketNumbers() public view returns (uint[] memory) {\r... */\n    tag_78:\n        /* \"UZHPancakeLottery.sol\":5589:5602  uint[] memory */\n      0x60\n        /* \"UZHPancakeLottery.sol\":5622:5636  playersTickets */\n      0x02\n        /* \"UZHPancakeLottery.sol\":5622:5648  playersTickets[msg.sender] */\n      0x00\n        /* \"UZHPancakeLottery.sol\":5637:5647  msg.sender */\n      caller\n        /* \"UZHPancakeLottery.sol\":5622:5648  playersTickets[msg.sender] */\n      0xffffffffffffffffffffffffffffffffffffffff\n      and\n      0xffffffffffffffffffffffffffffffffffffffff\n      and\n      dup2\n      mstore\n      0x20\n      add\n      swap1\n      dup2\n      mstore\n      0x20\n      add\n      0x00\n      keccak256\n        /* \"UZHPancakeLottery.sol\":5615:5648  return playersTickets[msg.sender] */\n      dup1\n      sload\n      dup1\n      0x20\n      mul\n      0x20\n      add\n      mload(0x40)\n      swap1\n      dup2\n      add\n      0x40\n      mstore\n      dup1\n      swap3\n      swap2\n      swap1\n      dup2\n      dup2\n      mstore\n      0x20\n      add\n      dup3\n      dup1\n      sload\n      dup1\n      iszero\n      tag_198\n      jumpi\n      0x20\n      mul\n      dup3\n      add\n      swap2\n      swap1\n      0x00\n      mstore\n      keccak256(0x00, 0x20)\n      swap1\n    tag_199:\n      dup2\n      sload\n      dup2\n      mstore\n      0x20\n      add\n      swap1\n      0x01\n      add\n      swap1\n      dup1\n      dup4\n      gt\n      tag_199\n      jumpi\n    tag_198:\n      pop\n      pop\n      pop\n      pop\n      pop\n      swap1\n      pop\n        /* \"UZHPancakeLottery.sol\":5538:5656  function getMyTicketNumbers() public view returns (uint[] memory) {\r... */\n      swap1\n      jump\t// out\n        /* \"UZHPancakeLottery.sol\":5705:8960  function EndLottery() public onlyOwner{\r... */\n    tag_82:\n        /* \"UZHPancakeLottery.sol\":1254:1259  owner */\n      0x00\n      dup1\n      sload\n      swap1\n      0x0100\n      exp\n      swap1\n      div\n      0xffffffffffffffffffffffffffffffffffffffff\n      and\n        /* \"UZHPancakeLottery.sol\":1240:1259  msg.sender == owner */\n      0xffffffffffffffffffffffffffffffffffffffff\n      and\n        /* \"UZHPancakeLottery.sol\":1240:1250  msg.sender */\n      caller\n        /* \"UZHPancakeLottery.sol\":1240:1259  msg.sender == owner */\n      0xffffffffffffffffffffffffffffffffffffffff\n      and\n      eq\n        /* \"UZHPancakeLottery.sol\":1232:1302  require(msg.sender == owner, \"Only the owner can perform this action\") */\n      tag_201\n      jumpi\n      mload(0x40)\n      0x08c379a000000000000000000000000000000000000000000000000000000000\n      dup2\n      mstore\n      0x04\n      add\n      tag_202\n      swap1\n      tag_86\n      jump\t// in\n    tag_202:\n      mload(0x40)\n      dup1\n      swap2\n      sub\n      swap1\n      revert\n    tag_201:\n        /* \"UZHPancakeLottery.sol\":5833:5837  true */\n      0x01\n        /* \"UZHPancakeLottery.sol\":5815:5837  lotteryStarted == true */\n      iszero\n      iszero\n        /* \"UZHPancakeLottery.sol\":5815:5829  lotteryStarted */\n      0x07\n      0x00\n      swap1\n      sload\n      swap1\n      0x0100\n      exp\n      swap1\n      div\n      0xff\n      and\n        /* \"UZHPancakeLottery.sol\":5815:5837  lotteryStarted == true */\n      iszero\n      iszero\n      eq\n        /* \"UZHPancakeLottery.sol\":5807:5863  require(lotteryStarted == true, \"No lottery is running\") */\n      tag_204\n      jumpi\n      mload(0x40)\n      0x08c379a000000000000000000000000000000000000000000000000000000000\n      dup2\n      mstore\n      0x04\n      add\n      tag_205\n      swap1\n      tag_151\n      jump\t// in\n    tag_205:\n      mload(0x40)\n      dup1\n      swap2\n      sub\n      swap1\n      revert\n    tag_204:\n        /* \"UZHPancakeLottery.sol\":5965:5966  0 */\n      0x00\n        /* \"UZHPancakeLottery.sol\":5947:5962  NrticketsBought */\n      sload(0x05)\n        /* \"UZHPancakeLottery.sol\":5947:5966  NrticketsBought > 0 */\n      gt\n        /* \"UZHPancakeLottery.sol\":5939:5988  require(NrticketsBought > 0, \"No ticket was bou\") */\n      tag_206\n      jumpi\n      mload(0x40)\n      0x08c379a000000000000000000000000000000000000000000000000000000000\n      dup2\n      mstore\n      0x04\n      add\n      tag_207\n      swap1\n      tag_208\n      jump\t// in\n    tag_207:\n      mload(0x40)\n      dup1\n      swap2\n      sub\n      swap1\n      revert\n    tag_206:\n        /* \"UZHPancakeLottery.sol\":6062:6086  uint firstMatchedNumbers */\n      0x00\n        /* \"UZHPancakeLottery.sol\":6196:6211  uint percentage */\n      dup1\n        /* \"UZHPancakeLottery.sol\":6281:6292  uint reward */\n      0x00\n        /* \"UZHPancakeLottery.sol\":6356:6372  uint totalreward */\n      dup1\n        /* \"UZHPancakeLottery.sol\":6419:6448  address payable playeraddress */\n      0x00\n        /* \"UZHPancakeLottery.sol\":6518:6524  uint i */\n      dup1\n        /* \"UZHPancakeLottery.sol\":6527:6528  0 */\n      0x00\n        /* \"UZHPancakeLottery.sol\":6518:6528  uint i = 0 */\n      swap1\n      pop\n        /* \"UZHPancakeLottery.sol\":6513:8298  for (uint i = 0; i < playersAddresses.length; i++) {   \r... */\n    tag_209:\n        /* \"UZHPancakeLottery.sol\":6534:6550  playersAddresses */\n      0x06\n        /* \"UZHPancakeLottery.sol\":6534:6557  playersAddresses.length */\n      dup1\n      sload\n      swap1\n      pop\n        /* \"UZHPancakeLottery.sol\":6530:6531  i */\n      dup2\n        /* \"UZHPancakeLottery.sol\":6530:6557  i < playersAddresses.length */\n      lt\n        /* \"UZHPancakeLottery.sol\":6513:8298  for (uint i = 0; i < playersAddresses.length; i++) {   \r... */\n      iszero\n      tag_210\n      jumpi\n        /* \"UZHPancakeLottery.sol\":6656:6662  uint j */\n      0x00\n        /* \"UZHPancakeLottery.sol\":6651:7017  for (uint j = 0; j < winningNumber.length; j++) {\r... */\n    tag_212:\n        /* \"UZHPancakeLottery.sol\":6672:6685  winningNumber */\n      0x01\n        /* \"UZHPancakeLottery.sol\":6672:6692  winningNumber.length */\n      dup1\n      sload\n      swap1\n      pop\n        /* \"UZHPancakeLottery.sol\":6668:6669  j */\n      dup2\n        /* \"UZHPancakeLottery.sol\":6668:6692  j < winningNumber.length */\n      lt\n        /* \"UZHPancakeLottery.sol\":6651:7017  for (uint j = 0; j < winningNumber.length; j++) {\r... */\n      iszero\n      tag_213\n      jumpi\n        /* \"UZHPancakeLottery.sol\":6866:6879  winningNumber */\n      0x01\n        /* \"UZHPancakeLottery.sol\":6880:6881  j */\n      dup2\n        /* \"UZHPancakeLottery.sol\":6866:6882  winningNumber[j] */\n      dup2\n      sload\n      dup2\n      lt\n      tag_215\n      jumpi\n      tag_216\n      tag_118\n      jump\t// in\n    tag_216:\n    tag_215:\n      swap1\n      0x00\n      mstore\n      keccak256(0x00, 0x20)\n      add\n      sload\n        /* \"UZHPancakeLottery.sol\":6824:6838  playersTickets */\n      0x02\n        /* \"UZHPancakeLottery.sol\":6824:6859  playersTickets[playersAddresses[i]] */\n      0x00\n        /* \"UZHPancakeLottery.sol\":6839:6855  playersAddresses */\n      0x06\n        /* \"UZHPancakeLottery.sol\":6856:6857  i */\n      dup6\n        /* \"UZHPancakeLottery.sol\":6839:6858  playersAddresses[i] */\n      dup2\n      sload\n      dup2\n      lt\n      tag_218\n      jumpi\n      tag_219\n      tag_118\n      jump\t// in\n    tag_219:\n    tag_218:\n      swap1\n      0x00\n      mstore\n      keccak256(0x00, 0x20)\n      add\n      0x00\n      swap1\n      sload\n      swap1\n      0x0100\n      exp\n      swap1\n      div\n      0xffffffffffffffffffffffffffffffffffffffff\n      and\n        /* \"UZHPancakeLottery.sol\":6824:6859  playersTickets[playersAddresses[i]] */\n      0xffffffffffffffffffffffffffffffffffffffff\n      and\n      0xffffffffffffffffffffffffffffffffffffffff\n      and\n      dup2\n      mstore\n      0x20\n      add\n      swap1\n      dup2\n      mstore\n      0x20\n      add\n      0x00\n      keccak256\n        /* \"UZHPancakeLottery.sol\":6860:6861  j */\n      dup3\n        /* \"UZHPancakeLottery.sol\":6824:6862  playersTickets[playersAddresses[i]][j] */\n      dup2\n      sload\n      dup2\n      lt\n      tag_221\n      jumpi\n      tag_222\n      tag_118\n      jump\t// in\n    tag_222:\n    tag_221:\n      swap1\n      0x00\n      mstore\n      keccak256(0x00, 0x20)\n      add\n      sload\n        /* \"UZHPancakeLottery.sol\":6824:6882  playersTickets[playersAddresses[i]][j] == winningNumber[j] */\n      eq\n        /* \"UZHPancakeLottery.sol\":6820:7002  if (playersTickets[playersAddresses[i]][j] == winningNumber[j]) {\r... */\n      iszero\n      tag_224\n      jumpi\n        /* \"UZHPancakeLottery.sol\":6907:6928  firstMatchedNumbers++ */\n      dup7\n      dup1\n      tag_225\n      swap1\n      tag_121\n      jump\t// in\n    tag_225:\n      swap8\n      pop\n      pop\n        /* \"UZHPancakeLottery.sol\":6820:7002  if (playersTickets[playersAddresses[i]][j] == winningNumber[j]) {\r... */\n      jump(tag_226)\n    tag_224:\n        /* \"UZHPancakeLottery.sol\":6977:6982  break */\n      jump(tag_213)\n        /* \"UZHPancakeLottery.sol\":6820:7002  if (playersTickets[playersAddresses[i]][j] == winningNumber[j]) {\r... */\n    tag_226:\n        /* \"UZHPancakeLottery.sol\":6694:6697  j++ */\n      dup1\n      dup1\n      tag_227\n      swap1\n      tag_121\n      jump\t// in\n    tag_227:\n      swap2\n      pop\n      pop\n        /* \"UZHPancakeLottery.sol\":6651:7017  for (uint j = 0; j < winningNumber.length; j++) {\r... */\n      jump(tag_212)\n    tag_213:\n      pop\n        /* \"UZHPancakeLottery.sol\":7098:7112  playersTickets */\n      0x02\n        /* \"UZHPancakeLottery.sol\":7098:7133  playersTickets[playersAddresses[i]] */\n      0x00\n        /* \"UZHPancakeLottery.sol\":7113:7129  playersAddresses */\n      0x06\n        /* \"UZHPancakeLottery.sol\":7130:7131  i */\n      dup4\n        /* \"UZHPancakeLottery.sol\":7113:7132  playersAddresses[i] */\n      dup2\n      sload\n      dup2\n      lt\n      tag_228\n      jumpi\n      tag_229\n      tag_118\n      jump\t// in\n    tag_229:\n    tag_228:\n      swap1\n      0x00\n      mstore\n      keccak256(0x00, 0x20)\n      add\n      0x00\n      swap1\n      sload\n      swap1\n      0x0100\n      exp\n      swap1\n      div\n      0xffffffffffffffffffffffffffffffffffffffff\n      and\n        /* \"UZHPancakeLottery.sol\":7098:7133  playersTickets[playersAddresses[i]] */\n      0xffffffffffffffffffffffffffffffffffffffff\n      and\n      0xffffffffffffffffffffffffffffffffffffffff\n      and\n      dup2\n      mstore\n      0x20\n      add\n      swap1\n      dup2\n      mstore\n      0x20\n      add\n      0x00\n      keccak256\n      0x00\n        /* \"UZHPancakeLottery.sol\":7091:7133  delete playersTickets[playersAddresses[i]] */\n      tag_231\n      swap2\n      swap1\n      tag_232\n      jump\t// in\n    tag_231:\n        /* \"UZHPancakeLottery.sol\":7260:7261  1 */\n      0x01\n        /* \"UZHPancakeLottery.sol\":7237:7256  firstMatchedNumbers */\n      dup7\n        /* \"UZHPancakeLottery.sol\":7237:7261  firstMatchedNumbers == 1 */\n      eq\n        /* \"UZHPancakeLottery.sol\":7233:7740  if (firstMatchedNumbers == 1) {\r... */\n      iszero\n      tag_233\n      jumpi\n        /* \"UZHPancakeLottery.sol\":7295:7296  2 */\n      0x02\n        /* \"UZHPancakeLottery.sol\":7282:7296  percentage = 2 */\n      swap5\n      pop\n        /* \"UZHPancakeLottery.sol\":7233:7740  if (firstMatchedNumbers == 1) {\r... */\n      jump(tag_234)\n    tag_233:\n        /* \"UZHPancakeLottery.sol\":7345:7346  2 */\n      0x02\n        /* \"UZHPancakeLottery.sol\":7322:7341  firstMatchedNumbers */\n      dup7\n        /* \"UZHPancakeLottery.sol\":7322:7346  firstMatchedNumbers == 2 */\n      eq\n        /* \"UZHPancakeLottery.sol\":7318:7740  if (firstMatchedNumbers == 2) {\r... */\n      iszero\n      tag_235\n      jumpi\n        /* \"UZHPancakeLottery.sol\":7380:7381  3 */\n      0x03\n        /* \"UZHPancakeLottery.sol\":7367:7381  percentage = 3 */\n      swap5\n      pop\n        /* \"UZHPancakeLottery.sol\":7318:7740  if (firstMatchedNumbers == 2) {\r... */\n      jump(tag_236)\n    tag_235:\n        /* \"UZHPancakeLottery.sol\":7430:7431  3 */\n      0x03\n        /* \"UZHPancakeLottery.sol\":7407:7426  firstMatchedNumbers */\n      dup7\n        /* \"UZHPancakeLottery.sol\":7407:7431  firstMatchedNumbers == 3 */\n      eq\n        /* \"UZHPancakeLottery.sol\":7403:7740  if (firstMatchedNumbers == 3) {\r... */\n      iszero\n      tag_237\n      jumpi\n        /* \"UZHPancakeLottery.sol\":7465:7466  5 */\n      0x05\n        /* \"UZHPancakeLottery.sol\":7452:7466  percentage = 5 */\n      swap5\n      pop\n        /* \"UZHPancakeLottery.sol\":7403:7740  if (firstMatchedNumbers == 3) {\r... */\n      jump(tag_238)\n    tag_237:\n        /* \"UZHPancakeLottery.sol\":7515:7516  4 */\n      0x04\n        /* \"UZHPancakeLottery.sol\":7492:7511  firstMatchedNumbers */\n      dup7\n        /* \"UZHPancakeLottery.sol\":7492:7516  firstMatchedNumbers == 4 */\n      eq\n        /* \"UZHPancakeLottery.sol\":7488:7740  if (firstMatchedNumbers == 4) {\r... */\n      iszero\n      tag_239\n      jumpi\n        /* \"UZHPancakeLottery.sol\":7550:7552  10 */\n      0x0a\n        /* \"UZHPancakeLottery.sol\":7537:7552  percentage = 10 */\n      swap5\n      pop\n        /* \"UZHPancakeLottery.sol\":7488:7740  if (firstMatchedNumbers == 4) {\r... */\n      jump(tag_240)\n    tag_239:\n        /* \"UZHPancakeLottery.sol\":7601:7602  5 */\n      0x05\n        /* \"UZHPancakeLottery.sol\":7578:7597  firstMatchedNumbers */\n      dup7\n        /* \"UZHPancakeLottery.sol\":7578:7602  firstMatchedNumbers == 5 */\n      eq\n        /* \"UZHPancakeLottery.sol\":7574:7740  if (firstMatchedNumbers == 5) {\r... */\n      iszero\n      tag_241\n      jumpi\n        /* \"UZHPancakeLottery.sol\":7636:7638  20 */\n      0x14\n        /* \"UZHPancakeLottery.sol\":7623:7638  percentage = 20 */\n      swap5\n      pop\n        /* \"UZHPancakeLottery.sol\":7574:7740  if (firstMatchedNumbers == 5) {\r... */\n      jump(tag_242)\n    tag_241:\n        /* \"UZHPancakeLottery.sol\":7687:7688  6 */\n      0x06\n        /* \"UZHPancakeLottery.sol\":7664:7683  firstMatchedNumbers */\n      dup7\n        /* \"UZHPancakeLottery.sol\":7664:7688  firstMatchedNumbers == 6 */\n      eq\n        /* \"UZHPancakeLottery.sol\":7660:7740  if (firstMatchedNumbers == 6) {\r... */\n      iszero\n      tag_243\n      jumpi\n        /* \"UZHPancakeLottery.sol\":7722:7724  40 */\n      0x28\n        /* \"UZHPancakeLottery.sol\":7709:7724  percentage = 40 */\n      swap5\n      pop\n        /* \"UZHPancakeLottery.sol\":7660:7740  if (firstMatchedNumbers == 6) {\r... */\n    tag_243:\n        /* \"UZHPancakeLottery.sol\":7574:7740  if (firstMatchedNumbers == 5) {\r... */\n    tag_242:\n        /* \"UZHPancakeLottery.sol\":7488:7740  if (firstMatchedNumbers == 4) {\r... */\n    tag_240:\n        /* \"UZHPancakeLottery.sol\":7403:7740  if (firstMatchedNumbers == 3) {\r... */\n    tag_238:\n        /* \"UZHPancakeLottery.sol\":7318:7740  if (firstMatchedNumbers == 2) {\r... */\n    tag_236:\n        /* \"UZHPancakeLottery.sol\":7233:7740  if (firstMatchedNumbers == 1) {\r... */\n    tag_234:\n        /* \"UZHPancakeLottery.sol\":7837:7840  100 */\n      0x64\n        /* \"UZHPancakeLottery.sol\":7823:7833  percentage */\n      dup6\n        /* \"UZHPancakeLottery.sol\":7805:7820  TotalLotteryPot */\n      sload(0x04)\n        /* \"UZHPancakeLottery.sol\":7805:7833  TotalLotteryPot * percentage */\n      tag_244\n      swap2\n      swap1\n      tag_130\n      jump\t// in\n    tag_244:\n        /* \"UZHPancakeLottery.sol\":7804:7840  (TotalLotteryPot * percentage) / 100 */\n      tag_245\n      swap2\n      swap1\n      tag_183\n      jump\t// in\n    tag_245:\n        /* \"UZHPancakeLottery.sol\":7795:7840  reward = (TotalLotteryPot * percentage) / 100 */\n      swap4\n      pop\n        /* \"UZHPancakeLottery.sol\":7924:7930  reward */\n      dup4\n        /* \"UZHPancakeLottery.sol\":7909:7930  totalreward += reward */\n      dup4\n      tag_246\n      swap2\n      swap1\n      tag_176\n      jump\t// in\n    tag_246:\n      swap3\n      pop\n        /* \"UZHPancakeLottery.sol\":8035:8051  playersAddresses */\n      0x06\n        /* \"UZHPancakeLottery.sol\":8052:8053  i */\n      dup2\n        /* \"UZHPancakeLottery.sol\":8035:8054  playersAddresses[i] */\n      dup2\n      sload\n      dup2\n      lt\n      tag_247\n      jumpi\n      tag_248\n      tag_118\n      jump\t// in\n    tag_248:\n    tag_247:\n      swap1\n      0x00\n      mstore\n      keccak256(0x00, 0x20)\n      add\n      0x00\n      swap1\n      sload\n      swap1\n      0x0100\n      exp\n      swap1\n      div\n      0xffffffffffffffffffffffffffffffffffffffff\n      and\n        /* \"UZHPancakeLottery.sol\":8011:8055  playeraddress = payable(playersAddresses[i]) */\n      swap2\n      pop\n        /* \"UZHPancakeLottery.sol\":8124:8137  playeraddress */\n      dup2\n        /* \"UZHPancakeLottery.sol\":8124:8146  playeraddress.transfer */\n      0xffffffffffffffffffffffffffffffffffffffff\n      and\n        /* \"UZHPancakeLottery.sol\":8124:8154  playeraddress.transfer(reward) */\n      0x08fc\n        /* \"UZHPancakeLottery.sol\":8147:8153  reward */\n      dup6\n        /* \"UZHPancakeLottery.sol\":8124:8154  playeraddress.transfer(reward) */\n      swap1\n      dup2\n      iszero\n      mul\n      swap1\n      mload(0x40)\n      0x00\n      mload(0x40)\n      dup1\n      dup4\n      sub\n      dup2\n      dup6\n      dup9\n      dup9\n      call\n      swap4\n      pop\n      pop\n      pop\n      pop\n      iszero\n      dup1\n      iszero\n      tag_251\n      jumpi\n      returndatasize\n      0x00\n      dup1\n      returndatacopy\n      revert(0x00, returndatasize)\n    tag_251:\n      pop\n        /* \"UZHPancakeLottery.sol\":8231:8232  0 */\n      0x00\n        /* \"UZHPancakeLottery.sol\":8209:8232  firstMatchedNumbers = 0 */\n      swap6\n      pop\n        /* \"UZHPancakeLottery.sol\":8260:8261  0 */\n      0x00\n        /* \"UZHPancakeLottery.sol\":8247:8261  percentage = 0 */\n      swap5\n      pop\n        /* \"UZHPancakeLottery.sol\":8285:8286  0 */\n      0x00\n        /* \"UZHPancakeLottery.sol\":8276:8286  reward = 0 */\n      swap4\n      pop\n        /* \"UZHPancakeLottery.sol\":6559:6562  i++ */\n      dup1\n      dup1\n      tag_252\n      swap1\n      tag_121\n      jump\t// in\n    tag_252:\n      swap2\n      pop\n      pop\n        /* \"UZHPancakeLottery.sol\":6513:8298  for (uint i = 0; i < playersAddresses.length; i++) {   \r... */\n      jump(tag_209)\n    tag_210:\n      pop\n        /* \"UZHPancakeLottery.sol\":8785:8786  0 */\n      0x00\n        /* \"UZHPancakeLottery.sol\":8767:8782  NrticketsBought */\n      0x05\n        /* \"UZHPancakeLottery.sol\":8767:8786  NrticketsBought = 0 */\n      dup2\n      swap1\n      sstore\n      pop\n        /* \"UZHPancakeLottery.sol\":8816:8827  totalreward */\n      dup2\n        /* \"UZHPancakeLottery.sol\":8797:8812  TotalLotteryPot */\n      0x04\n      0x00\n        /* \"UZHPancakeLottery.sol\":8797:8827  TotalLotteryPot -= totalreward */\n      dup3\n      dup3\n      sload\n      tag_253\n      swap2\n      swap1\n      tag_254\n      jump\t// in\n    tag_253:\n      swap3\n      pop\n      pop\n      dup2\n      swap1\n      sstore\n      pop\n        /* \"UZHPancakeLottery.sol\":8871:8872  0 */\n      0x00\n        /* \"UZHPancakeLottery.sol\":8857:8873  new address[](0) */\n      0xffffffffffffffff\n      dup2\n      gt\n      iszero\n      tag_255\n      jumpi\n      tag_256\n      tag_104\n      jump\t// in\n    tag_256:\n    tag_255:\n      mload(0x40)\n      swap1\n      dup1\n      dup3\n      mstore\n      dup1\n      0x20\n      mul\n      0x20\n      add\n      dup3\n      add\n      0x40\n      mstore\n      dup1\n      iszero\n      tag_257\n      jumpi\n      dup2\n      0x20\n      add\n      0x20\n      dup3\n      mul\n      dup1\n      calldatasize\n      dup4\n      calldatacopy\n      dup1\n      dup3\n      add\n      swap2\n      pop\n      pop\n      swap1\n      pop\n    tag_257:\n      pop\n        /* \"UZHPancakeLottery.sol\":8838:8854  playersAddresses */\n      0x06\n        /* \"UZHPancakeLottery.sol\":8838:8873  playersAddresses = new address[](0) */\n      swap1\n      dup1\n      mload\n      swap1\n      0x20\n      add\n      swap1\n      tag_258\n      swap3\n      swap2\n      swap1\n      tag_259\n      jump\t// in\n    tag_258:\n      pop\n        /* \"UZHPancakeLottery.sol\":8916:8917  0 */\n      0x00\n        /* \"UZHPancakeLottery.sol\":8884:8919  playeraddress = payable(address(0)) */\n      swap1\n      pop\n        /* \"UZHPancakeLottery.sol\":8947:8952  false */\n      0x00\n        /* \"UZHPancakeLottery.sol\":8930:8944  lotteryStarted */\n      0x07\n      0x00\n        /* \"UZHPancakeLottery.sol\":8930:8952  lotteryStarted = false */\n      0x0100\n      exp\n      dup2\n      sload\n      dup2\n      0xff\n      mul\n      not\n      and\n      swap1\n      dup4\n      iszero\n      iszero\n      mul\n      or\n      swap1\n      sstore\n      pop\n        /* \"UZHPancakeLottery.sol\":5743:8960  {\r... */\n      pop\n      pop\n      pop\n      pop\n      pop\n        /* \"UZHPancakeLottery.sol\":5705:8960  function EndLottery() public onlyOwner{\r... */\n      jump\t// out\n    tag_107:\n      dup3\n      dup1\n      sload\n      dup3\n      dup3\n      sstore\n      swap1\n      0x00\n      mstore\n      keccak256(0x00, 0x20)\n      swap1\n      dup2\n      add\n      swap3\n      dup3\n      iszero\n      tag_260\n      jumpi\n      swap2\n      0x20\n      mul\n      dup3\n      add\n    tag_261:\n      dup3\n      dup2\n      gt\n      iszero\n      tag_262\n      jumpi\n      dup3\n      mload\n      dup3\n      sstore\n      swap2\n      0x20\n      add\n      swap2\n      swap1\n      0x01\n      add\n      swap1\n      jump(tag_261)\n    tag_262:\n    tag_260:\n      pop\n      swap1\n      pop\n      tag_263\n      swap2\n      swap1\n      tag_264\n      jump\t// in\n    tag_263:\n      pop\n      swap1\n      jump\t// out\n    tag_232:\n      pop\n      dup1\n      sload\n      0x00\n      dup3\n      sstore\n      swap1\n      0x00\n      mstore\n      keccak256(0x00, 0x20)\n      swap1\n      dup2\n      add\n      swap1\n      tag_266\n      swap2\n      swap1\n      tag_264\n      jump\t// in\n    tag_266:\n      pop\n      jump\t// out\n    tag_259:\n      dup3\n      dup1\n      sload\n      dup3\n      dup3\n      sstore\n      swap1\n      0x00\n      mstore\n      keccak256(0x00, 0x20)\n      swap1\n      dup2\n      add\n      swap3\n      dup3\n      iszero\n      tag_267\n      jumpi\n      swap2\n      0x20\n      mul\n      dup3\n      add\n    tag_268:\n      dup3\n      dup2\n      gt\n      iszero\n      tag_269\n      jumpi\n      dup3\n      mload\n      dup3\n      exp(0x0100, 0x00)\n      dup2\n      sload\n      dup2\n      0xffffffffffffffffffffffffffffffffffffffff\n      mul\n      not\n      and\n      swap1\n      dup4\n      0xffffffffffffffffffffffffffffffffffffffff\n      and\n      mul\n      or\n      swap1\n      sstore\n      pop\n      swap2\n      0x20\n      add\n      swap2\n      swap1\n      0x01\n      add\n      swap1\n      jump(tag_268)\n    tag_269:\n    tag_267:\n      pop\n      swap1\n      pop\n      tag_270\n      swap2\n      swap1\n      tag_264\n      jump\t// in\n    tag_270:\n      pop\n      swap1\n      jump\t// out\n    tag_264:\n    tag_271:\n      dup1\n      dup3\n      gt\n      iszero\n      tag_272\n      jumpi\n      0x00\n      dup2\n      0x00\n      swap1\n      sstore\n      pop\n      0x01\n      add\n      jump(tag_271)\n    tag_272:\n      pop\n      swap1\n      jump\t// out\n        /* \"#utility.yul\":24:746   */\n    tag_274:\n        /* \"#utility.yul\":120:125   */\n      0x00\n        /* \"#utility.yul\":145:226   */\n      tag_276\n        /* \"#utility.yul\":161:225   */\n      tag_277\n        /* \"#utility.yul\":218:224   */\n      dup5\n        /* \"#utility.yul\":161:225   */\n      tag_278\n      jump\t// in\n    tag_277:\n        /* \"#utility.yul\":145:226   */\n      tag_279\n      jump\t// in\n    tag_276:\n        /* \"#utility.yul\":136:226   */\n      swap1\n      pop\n        /* \"#utility.yul\":246:251   */\n      dup1\n        /* \"#utility.yul\":275:281   */\n      dup4\n        /* \"#utility.yul\":268:273   */\n      dup3\n        /* \"#utility.yul\":261:282   */\n      mstore\n        /* \"#utility.yul\":309:313   */\n      0x20\n        /* \"#utility.yul\":302:307   */\n      dup3\n        /* \"#utility.yul\":298:314   */\n      add\n        /* \"#utility.yul\":291:314   */\n      swap1\n      pop\n        /* \"#utility.yul\":335:341   */\n      dup3\n        /* \"#utility.yul\":385:388   */\n      dup6\n        /* \"#utility.yul\":377:381   */\n      0x20\n        /* \"#utility.yul\":369:375   */\n      dup7\n        /* \"#utility.yul\":365:382   */\n      mul\n        /* \"#utility.yul\":360:363   */\n      dup3\n        /* \"#utility.yul\":356:383   */\n      add\n        /* \"#utility.yul\":353:389   */\n      gt\n        /* \"#utility.yul\":350:493   */\n      iszero\n      tag_280\n      jumpi\n        /* \"#utility.yul\":404:483   */\n      tag_281\n      tag_282\n      jump\t// in\n    tag_281:\n        /* \"#utility.yul\":350:493   */\n    tag_280:\n        /* \"#utility.yul\":517:518   */\n      0x00\n        /* \"#utility.yul\":502:740   */\n    tag_283:\n        /* \"#utility.yul\":527:533   */\n      dup6\n        /* \"#utility.yul\":524:525   */\n      dup2\n        /* \"#utility.yul\":521:534   */\n      lt\n        /* \"#utility.yul\":502:740   */\n      iszero\n      tag_285\n      jumpi\n        /* \"#utility.yul\":595:598   */\n      dup2\n        /* \"#utility.yul\":624:661   */\n      tag_286\n        /* \"#utility.yul\":657:660   */\n      dup9\n        /* \"#utility.yul\":645:655   */\n      dup3\n        /* \"#utility.yul\":624:661   */\n      tag_287\n      jump\t// in\n    tag_286:\n        /* \"#utility.yul\":619:622   */\n      dup5\n        /* \"#utility.yul\":612:662   */\n      mstore\n        /* \"#utility.yul\":691:695   */\n      0x20\n        /* \"#utility.yul\":686:689   */\n      dup5\n        /* \"#utility.yul\":682:696   */\n      add\n        /* \"#utility.yul\":675:696   */\n      swap4\n      pop\n        /* \"#utility.yul\":725:729   */\n      0x20\n        /* \"#utility.yul\":720:723   */\n      dup4\n        /* \"#utility.yul\":716:730   */\n      add\n        /* \"#utility.yul\":709:730   */\n      swap3\n      pop\n        /* \"#utility.yul\":562:740   */\n      pop\n        /* \"#utility.yul\":549:550   */\n      0x01\n        /* \"#utility.yul\":546:547   */\n      dup2\n        /* \"#utility.yul\":542:551   */\n      add\n        /* \"#utility.yul\":537:551   */\n      swap1\n      pop\n        /* \"#utility.yul\":502:740   */\n      jump(tag_283)\n    tag_285:\n        /* \"#utility.yul\":506:520   */\n      pop\n        /* \"#utility.yul\":126:746   */\n      pop\n      pop\n        /* \"#utility.yul\":24:746   */\n      swap4\n      swap3\n      pop\n      pop\n      pop\n      jump\t// out\n        /* \"#utility.yul\":769:1139   */\n    tag_288:\n        /* \"#utility.yul\":840:845   */\n      0x00\n        /* \"#utility.yul\":889:892   */\n      dup3\n        /* \"#utility.yul\":882:886   */\n      0x1f\n        /* \"#utility.yul\":874:880   */\n      dup4\n        /* \"#utility.yul\":870:887   */\n      add\n        /* \"#utility.yul\":866:893   */\n      slt\n        /* \"#utility.yul\":856:978   */\n      tag_290\n      jumpi\n        /* \"#utility.yul\":897:976   */\n      tag_291\n      tag_292\n      jump\t// in\n    tag_291:\n        /* \"#utility.yul\":856:978   */\n    tag_290:\n        /* \"#utility.yul\":1014:1020   */\n      dup2\n        /* \"#utility.yul\":1001:1021   */\n      calldataload\n        /* \"#utility.yul\":1039:1133   */\n      tag_293\n        /* \"#utility.yul\":1129:1132   */\n      dup5\n        /* \"#utility.yul\":1121:1127   */\n      dup3\n        /* \"#utility.yul\":1114:1118   */\n      0x20\n        /* \"#utility.yul\":1106:1112   */\n      dup7\n        /* \"#utility.yul\":1102:1119   */\n      add\n        /* \"#utility.yul\":1039:1133   */\n      tag_274\n      jump\t// in\n    tag_293:\n        /* \"#utility.yul\":1030:1133   */\n      swap2\n      pop\n        /* \"#utility.yul\":846:1139   */\n      pop\n        /* \"#utility.yul\":769:1139   */\n      swap3\n      swap2\n      pop\n      pop\n      jump\t// out\n        /* \"#utility.yul\":1145:1284   */\n    tag_287:\n        /* \"#utility.yul\":1191:1196   */\n      0x00\n        /* \"#utility.yul\":1229:1235   */\n      dup2\n        /* \"#utility.yul\":1216:1236   */\n      calldataload\n        /* \"#utility.yul\":1207:1236   */\n      swap1\n      pop\n        /* \"#utility.yul\":1245:1278   */\n      tag_295\n        /* \"#utility.yul\":1272:1277   */\n      dup2\n        /* \"#utility.yul\":1245:1278   */\n      tag_296\n      jump\t// in\n    tag_295:\n        /* \"#utility.yul\":1145:1284   */\n      swap3\n      swap2\n      pop\n      pop\n      jump\t// out\n        /* \"#utility.yul\":1290:1829   */\n    tag_45:\n        /* \"#utility.yul\":1374:1380   */\n      0x00\n        /* \"#utility.yul\":1423:1425   */\n      0x20\n        /* \"#utility.yul\":1411:1420   */\n      dup3\n        /* \"#utility.yul\":1402:1409   */\n      dup5\n        /* \"#utility.yul\":1398:1421   */\n      sub\n        /* \"#utility.yul\":1394:1426   */\n      slt\n        /* \"#utility.yul\":1391:1510   */\n      iszero\n      tag_298\n      jumpi\n        /* \"#utility.yul\":1429:1508   */\n      tag_299\n      tag_300\n      jump\t// in\n    tag_299:\n        /* \"#utility.yul\":1391:1510   */\n    tag_298:\n        /* \"#utility.yul\":1577:1578   */\n      0x00\n        /* \"#utility.yul\":1566:1575   */\n      dup3\n        /* \"#utility.yul\":1562:1579   */\n      add\n        /* \"#utility.yul\":1549:1580   */\n      calldataload\n        /* \"#utility.yul\":1607:1625   */\n      0xffffffffffffffff\n        /* \"#utility.yul\":1599:1605   */\n      dup2\n        /* \"#utility.yul\":1596:1626   */\n      gt\n        /* \"#utility.yul\":1593:1710   */\n      iszero\n      tag_301\n      jumpi\n        /* \"#utility.yul\":1629:1708   */\n      tag_302\n      tag_303\n      jump\t// in\n    tag_302:\n        /* \"#utility.yul\":1593:1710   */\n    tag_301:\n        /* \"#utility.yul\":1734:1812   */\n      tag_304\n        /* \"#utility.yul\":1804:1811   */\n      dup5\n        /* \"#utility.yul\":1795:1801   */\n      dup3\n        /* \"#utility.yul\":1784:1793   */\n      dup6\n        /* \"#utility.yul\":1780:1802   */\n      add\n        /* \"#utility.yul\":1734:1812   */\n      tag_288\n      jump\t// in\n    tag_304:\n        /* \"#utility.yul\":1724:1812   */\n      swap2\n      pop\n        /* \"#utility.yul\":1520:1822   */\n      pop\n        /* \"#utility.yul\":1290:1829   */\n      swap3\n      swap2\n      pop\n      pop\n      jump\t// out\n        /* \"#utility.yul\":1835:2164   */\n    tag_29:\n        /* \"#utility.yul\":1894:1900   */\n      0x00\n        /* \"#utility.yul\":1943:1945   */\n      0x20\n        /* \"#utility.yul\":1931:1940   */\n      dup3\n        /* \"#utility.yul\":1922:1929   */\n      dup5\n        /* \"#utility.yul\":1918:1941   */\n      sub\n        /* \"#utility.yul\":1914:1946   */\n      slt\n        /* \"#utility.yul\":1911:2030   */\n      iszero\n      tag_306\n      jumpi\n        /* \"#utility.yul\":1949:2028   */\n      tag_307\n      tag_300\n      jump\t// in\n    tag_307:\n        /* \"#utility.yul\":1911:2030   */\n    tag_306:\n        /* \"#utility.yul\":2069:2070   */\n      0x00\n        /* \"#utility.yul\":2094:2147   */\n      tag_308\n        /* \"#utility.yul\":2139:2146   */\n      dup5\n        /* \"#utility.yul\":2130:2136   */\n      dup3\n        /* \"#utility.yul\":2119:2128   */\n      dup6\n        /* \"#utility.yul\":2115:2137   */\n      add\n        /* \"#utility.yul\":2094:2147   */\n      tag_287\n      jump\t// in\n    tag_308:\n        /* \"#utility.yul\":2084:2147   */\n      swap2\n      pop\n        /* \"#utility.yul\":2040:2157   */\n      pop\n        /* \"#utility.yul\":1835:2164   */\n      swap3\n      swap2\n      pop\n      pop\n      jump\t// out\n        /* \"#utility.yul\":2170:2349   */\n    tag_309:\n        /* \"#utility.yul\":2239:2249   */\n      0x00\n        /* \"#utility.yul\":2260:2306   */\n      tag_311\n        /* \"#utility.yul\":2302:2305   */\n      dup4\n        /* \"#utility.yul\":2294:2300   */\n      dup4\n        /* \"#utility.yul\":2260:2306   */\n      tag_312\n      jump\t// in\n    tag_311:\n        /* \"#utility.yul\":2338:2342   */\n      0x20\n        /* \"#utility.yul\":2333:2336   */\n      dup4\n        /* \"#utility.yul\":2329:2343   */\n      add\n        /* \"#utility.yul\":2315:2343   */\n      swap1\n      pop\n        /* \"#utility.yul\":2170:2349   */\n      swap3\n      swap2\n      pop\n      pop\n      jump\t// out\n        /* \"#utility.yul\":2355:2473   */\n    tag_313:\n        /* \"#utility.yul\":2442:2466   */\n      tag_315\n        /* \"#utility.yul\":2460:2465   */\n      dup2\n        /* \"#utility.yul\":2442:2466   */\n      tag_316\n      jump\t// in\n    tag_315:\n        /* \"#utility.yul\":2437:2440   */\n      dup3\n        /* \"#utility.yul\":2430:2467   */\n      mstore\n        /* \"#utility.yul\":2355:2473   */\n      pop\n      pop\n      jump\t// out\n        /* \"#utility.yul\":2509:3241   */\n    tag_317:\n        /* \"#utility.yul\":2628:2631   */\n      0x00\n        /* \"#utility.yul\":2657:2711   */\n      tag_319\n        /* \"#utility.yul\":2705:2710   */\n      dup3\n        /* \"#utility.yul\":2657:2711   */\n      tag_320\n      jump\t// in\n    tag_319:\n        /* \"#utility.yul\":2727:2813   */\n      tag_321\n        /* \"#utility.yul\":2806:2812   */\n      dup2\n        /* \"#utility.yul\":2801:2804   */\n      dup6\n        /* \"#utility.yul\":2727:2813   */\n      tag_322\n      jump\t// in\n    tag_321:\n        /* \"#utility.yul\":2720:2813   */\n      swap4\n      pop\n        /* \"#utility.yul\":2837:2893   */\n      tag_323\n        /* \"#utility.yul\":2887:2892   */\n      dup4\n        /* \"#utility.yul\":2837:2893   */\n      tag_324\n      jump\t// in\n    tag_323:\n        /* \"#utility.yul\":2916:2923   */\n      dup1\n        /* \"#utility.yul\":2947:2948   */\n      0x00\n        /* \"#utility.yul\":2932:3216   */\n    tag_325:\n        /* \"#utility.yul\":2957:2963   */\n      dup4\n        /* \"#utility.yul\":2954:2955   */\n      dup2\n        /* \"#utility.yul\":2951:2964   */\n      lt\n        /* \"#utility.yul\":2932:3216   */\n      iszero\n      tag_327\n      jumpi\n        /* \"#utility.yul\":3033:3039   */\n      dup2\n        /* \"#utility.yul\":3027:3040   */\n      mload\n        /* \"#utility.yul\":3060:3123   */\n      tag_328\n        /* \"#utility.yul\":3119:3122   */\n      dup9\n        /* \"#utility.yul\":3104:3117   */\n      dup3\n        /* \"#utility.yul\":3060:3123   */\n      tag_309\n      jump\t// in\n    tag_328:\n        /* \"#utility.yul\":3053:3123   */\n      swap8\n      pop\n        /* \"#utility.yul\":3146:3206   */\n      tag_329\n        /* \"#utility.yul\":3199:3205   */\n      dup4\n        /* \"#utility.yul\":3146:3206   */\n      tag_330\n      jump\t// in\n    tag_329:\n        /* \"#utility.yul\":3136:3206   */\n      swap3\n      pop\n        /* \"#utility.yul\":2992:3216   */\n      pop\n        /* \"#utility.yul\":2979:2980   */\n      0x01\n        /* \"#utility.yul\":2976:2977   */\n      dup2\n        /* \"#utility.yul\":2972:2981   */\n      add\n        /* \"#utility.yul\":2967:2981   */\n      swap1\n      pop\n        /* \"#utility.yul\":2932:3216   */\n      jump(tag_325)\n    tag_327:\n        /* \"#utility.yul\":2936:2950   */\n      pop\n        /* \"#utility.yul\":3232:3235   */\n      dup6\n        /* \"#utility.yul\":3225:3235   */\n      swap4\n      pop\n        /* \"#utility.yul\":2633:3241   */\n      pop\n      pop\n      pop\n        /* \"#utility.yul\":2509:3241   */\n      swap3\n      swap2\n      pop\n      pop\n      jump\t// out\n        /* \"#utility.yul\":3247:3356   */\n    tag_331:\n        /* \"#utility.yul\":3328:3349   */\n      tag_333\n        /* \"#utility.yul\":3343:3348   */\n      dup2\n        /* \"#utility.yul\":3328:3349   */\n      tag_334\n      jump\t// in\n    tag_333:\n        /* \"#utility.yul\":3323:3326   */\n      dup3\n        /* \"#utility.yul\":3316:3350   */\n      mstore\n        /* \"#utility.yul\":3247:3356   */\n      pop\n      pop\n      jump\t// out\n        /* \"#utility.yul\":3362:3728   */\n    tag_335:\n        /* \"#utility.yul\":3504:3507   */\n      0x00\n        /* \"#utility.yul\":3525:3592   */\n      tag_337\n        /* \"#utility.yul\":3589:3591   */\n      0x14\n        /* \"#utility.yul\":3584:3587   */\n      dup4\n        /* \"#utility.yul\":3525:3592   */\n      tag_338\n      jump\t// in\n    tag_337:\n        /* \"#utility.yul\":3518:3592   */\n      swap2\n      pop\n        /* \"#utility.yul\":3601:3694   */\n      tag_339\n        /* \"#utility.yul\":3690:3693   */\n      dup3\n        /* \"#utility.yul\":3601:3694   */\n      tag_340\n      jump\t// in\n    tag_339:\n        /* \"#utility.yul\":3719:3721   */\n      0x20\n        /* \"#utility.yul\":3714:3717   */\n      dup3\n        /* \"#utility.yul\":3710:3722   */\n      add\n        /* \"#utility.yul\":3703:3722   */\n      swap1\n      pop\n        /* \"#utility.yul\":3362:3728   */\n      swap2\n      swap1\n      pop\n      jump\t// out\n        /* \"#utility.yul\":3734:4100   */\n    tag_341:\n        /* \"#utility.yul\":3876:3879   */\n      0x00\n        /* \"#utility.yul\":3897:3964   */\n      tag_343\n        /* \"#utility.yul\":3961:3963   */\n      0x11\n        /* \"#utility.yul\":3956:3959   */\n      dup4\n        /* \"#utility.yul\":3897:3964   */\n      tag_338\n      jump\t// in\n    tag_343:\n        /* \"#utility.yul\":3890:3964   */\n      swap2\n      pop\n        /* \"#utility.yul\":3973:4066   */\n      tag_344\n        /* \"#utility.yul\":4062:4065   */\n      dup3\n        /* \"#utility.yul\":3973:4066   */\n      tag_345\n      jump\t// in\n    tag_344:\n        /* \"#utility.yul\":4091:4093   */\n      0x20\n        /* \"#utility.yul\":4086:4089   */\n      dup3\n        /* \"#utility.yul\":4082:4094   */\n      add\n        /* \"#utility.yul\":4075:4094   */\n      swap1\n      pop\n        /* \"#utility.yul\":3734:4100   */\n      swap2\n      swap1\n      pop\n      jump\t// out\n        /* \"#utility.yul\":4106:4472   */\n    tag_346:\n        /* \"#utility.yul\":4248:4251   */\n      0x00\n        /* \"#utility.yul\":4269:4336   */\n      tag_348\n        /* \"#utility.yul\":4333:4335   */\n      0x20\n        /* \"#utility.yul\":4328:4331   */\n      dup4\n        /* \"#utility.yul\":4269:4336   */\n      tag_338\n      jump\t// in\n    tag_348:\n        /* \"#utility.yul\":4262:4336   */\n      swap2\n      pop\n        /* \"#utility.yul\":4345:4438   */\n      tag_349\n        /* \"#utility.yul\":4434:4437   */\n      dup3\n        /* \"#utility.yul\":4345:4438   */\n      tag_350\n      jump\t// in\n    tag_349:\n        /* \"#utility.yul\":4463:4465   */\n      0x20\n        /* \"#utility.yul\":4458:4461   */\n      dup3\n        /* \"#utility.yul\":4454:4466   */\n      add\n        /* \"#utility.yul\":4447:4466   */\n      swap1\n      pop\n        /* \"#utility.yul\":4106:4472   */\n      swap2\n      swap1\n      pop\n      jump\t// out\n        /* \"#utility.yul\":4478:4844   */\n    tag_351:\n        /* \"#utility.yul\":4620:4623   */\n      0x00\n        /* \"#utility.yul\":4641:4708   */\n      tag_353\n        /* \"#utility.yul\":4705:4707   */\n      0x26\n        /* \"#utility.yul\":4700:4703   */\n      dup4\n        /* \"#utility.yul\":4641:4708   */\n      tag_338\n      jump\t// in\n    tag_353:\n        /* \"#utility.yul\":4634:4708   */\n      swap2\n      pop\n        /* \"#utility.yul\":4717:4810   */\n      tag_354\n        /* \"#utility.yul\":4806:4809   */\n      dup3\n        /* \"#utility.yul\":4717:4810   */\n      tag_355\n      jump\t// in\n    tag_354:\n        /* \"#utility.yul\":4835:4837   */\n      0x40\n        /* \"#utility.yul\":4830:4833   */\n      dup3\n        /* \"#utility.yul\":4826:4838   */\n      add\n        /* \"#utility.yul\":4819:4838   */\n      swap1\n      pop\n        /* \"#utility.yul\":4478:4844   */\n      swap2\n      swap1\n      pop\n      jump\t// out\n        /* \"#utility.yul\":4850:5216   */\n    tag_356:\n        /* \"#utility.yul\":4992:4995   */\n      0x00\n        /* \"#utility.yul\":5013:5080   */\n      tag_358\n        /* \"#utility.yul\":5077:5079   */\n      0x15\n        /* \"#utility.yul\":5072:5075   */\n      dup4\n        /* \"#utility.yul\":5013:5080   */\n      tag_338\n      jump\t// in\n    tag_358:\n        /* \"#utility.yul\":5006:5080   */\n      swap2\n      pop\n        /* \"#utility.yul\":5089:5182   */\n      tag_359\n        /* \"#utility.yul\":5178:5181   */\n      dup3\n        /* \"#utility.yul\":5089:5182   */\n      tag_360\n      jump\t// in\n    tag_359:\n        /* \"#utility.yul\":5207:5209   */\n      0x20\n        /* \"#utility.yul\":5202:5205   */\n      dup3\n        /* \"#utility.yul\":5198:5210   */\n      add\n        /* \"#utility.yul\":5191:5210   */\n      swap1\n      pop\n        /* \"#utility.yul\":4850:5216   */\n      swap2\n      swap1\n      pop\n      jump\t// out\n        /* \"#utility.yul\":5222:5588   */\n    tag_361:\n        /* \"#utility.yul\":5364:5367   */\n      0x00\n        /* \"#utility.yul\":5385:5452   */\n      tag_363\n        /* \"#utility.yul\":5449:5451   */\n      0x0c\n        /* \"#utility.yul\":5444:5447   */\n      dup4\n        /* \"#utility.yul\":5385:5452   */\n      tag_338\n      jump\t// in\n    tag_363:\n        /* \"#utility.yul\":5378:5452   */\n      swap2\n      pop\n        /* \"#utility.yul\":5461:5554   */\n      tag_364\n        /* \"#utility.yul\":5550:5553   */\n      dup3\n        /* \"#utility.yul\":5461:5554   */\n      tag_365\n      jump\t// in\n    tag_364:\n        /* \"#utility.yul\":5579:5581   */\n      0x20\n        /* \"#utility.yul\":5574:5577   */\n      dup3\n        /* \"#utility.yul\":5570:5582   */\n      add\n        /* \"#utility.yul\":5563:5582   */\n      swap1\n      pop\n        /* \"#utility.yul\":5222:5588   */\n      swap2\n      swap1\n      pop\n      jump\t// out\n        /* \"#utility.yul\":5594:5960   */\n    tag_366:\n        /* \"#utility.yul\":5736:5739   */\n      0x00\n        /* \"#utility.yul\":5757:5824   */\n      tag_368\n        /* \"#utility.yul\":5821:5823   */\n      0x17\n        /* \"#utility.yul\":5816:5819   */\n      dup4\n        /* \"#utility.yul\":5757:5824   */\n      tag_338\n      jump\t// in\n    tag_368:\n        /* \"#utility.yul\":5750:5824   */\n      swap2\n      pop\n        /* \"#utility.yul\":5833:5926   */\n      tag_369\n        /* \"#utility.yul\":5922:5925   */\n      dup3\n        /* \"#utility.yul\":5833:5926   */\n      tag_370\n      jump\t// in\n    tag_369:\n        /* \"#utility.yul\":5951:5953   */\n      0x20\n        /* \"#utility.yul\":5946:5949   */\n      dup3\n        /* \"#utility.yul\":5942:5954   */\n      add\n        /* \"#utility.yul\":5935:5954   */\n      swap1\n      pop\n        /* \"#utility.yul\":5594:5960   */\n      swap2\n      swap1\n      pop\n      jump\t// out\n        /* \"#utility.yul\":5966:6332   */\n    tag_371:\n        /* \"#utility.yul\":6108:6111   */\n      0x00\n        /* \"#utility.yul\":6129:6196   */\n      tag_373\n        /* \"#utility.yul\":6193:6195   */\n      0x14\n        /* \"#utility.yul\":6188:6191   */\n      dup4\n        /* \"#utility.yul\":6129:6196   */\n      tag_338\n      jump\t// in\n    tag_373:\n        /* \"#utility.yul\":6122:6196   */\n      swap2\n      pop\n        /* \"#utility.yul\":6205:6298   */\n      tag_374\n        /* \"#utility.yul\":6294:6297   */\n      dup3\n        /* \"#utility.yul\":6205:6298   */\n      tag_375\n      jump\t// in\n    tag_374:\n        /* \"#utility.yul\":6323:6325   */\n      0x20\n        /* \"#utility.yul\":6318:6321   */\n      dup3\n        /* \"#utility.yul\":6314:6326   */\n      add\n        /* \"#utility.yul\":6307:6326   */\n      swap1\n      pop\n        /* \"#utility.yul\":5966:6332   */\n      swap2\n      swap1\n      pop\n      jump\t// out\n        /* \"#utility.yul\":6338:6704   */\n    tag_376:\n        /* \"#utility.yul\":6480:6483   */\n      0x00\n        /* \"#utility.yul\":6501:6568   */\n      tag_378\n        /* \"#utility.yul\":6565:6567   */\n      0x0c\n        /* \"#utility.yul\":6560:6563   */\n      dup4\n        /* \"#utility.yul\":6501:6568   */\n      tag_338\n      jump\t// in\n    tag_378:\n        /* \"#utility.yul\":6494:6568   */\n      swap2\n      pop\n        /* \"#utility.yul\":6577:6670   */\n      tag_379\n        /* \"#utility.yul\":6666:6669   */\n      dup3\n        /* \"#utility.yul\":6577:6670   */\n      tag_380\n      jump\t// in\n    tag_379:\n        /* \"#utility.yul\":6695:6697   */\n      0x20\n        /* \"#utility.yul\":6690:6693   */\n      dup3\n        /* \"#utility.yul\":6686:6698   */\n      add\n        /* \"#utility.yul\":6679:6698   */\n      swap1\n      pop\n        /* \"#utility.yul\":6338:6704   */\n      swap2\n      swap1\n      pop\n      jump\t// out\n        /* \"#utility.yul\":6710:6818   */\n    tag_312:\n        /* \"#utility.yul\":6787:6811   */\n      tag_382\n        /* \"#utility.yul\":6805:6810   */\n      dup2\n        /* \"#utility.yul\":6787:6811   */\n      tag_383\n      jump\t// in\n    tag_382:\n        /* \"#utility.yul\":6782:6785   */\n      dup3\n        /* \"#utility.yul\":6775:6812   */\n      mstore\n        /* \"#utility.yul\":6710:6818   */\n      pop\n      pop\n      jump\t// out\n        /* \"#utility.yul\":6824:6942   */\n    tag_384:\n        /* \"#utility.yul\":6911:6935   */\n      tag_386\n        /* \"#utility.yul\":6929:6934   */\n      dup2\n        /* \"#utility.yul\":6911:6935   */\n      tag_383\n      jump\t// in\n    tag_386:\n        /* \"#utility.yul\":6906:6909   */\n      dup3\n        /* \"#utility.yul\":6899:6936   */\n      mstore\n        /* \"#utility.yul\":6824:6942   */\n      pop\n      pop\n      jump\t// out\n        /* \"#utility.yul\":6948:7105   */\n    tag_387:\n        /* \"#utility.yul\":7053:7098   */\n      tag_389\n        /* \"#utility.yul\":7073:7097   */\n      tag_390\n        /* \"#utility.yul\":7091:7096   */\n      dup3\n        /* \"#utility.yul\":7073:7097   */\n      tag_383\n      jump\t// in\n    tag_390:\n        /* \"#utility.yul\":7053:7098   */\n      tag_391\n      jump\t// in\n    tag_389:\n        /* \"#utility.yul\":7048:7051   */\n      dup3\n        /* \"#utility.yul\":7041:7099   */\n      mstore\n        /* \"#utility.yul\":6948:7105   */\n      pop\n      pop\n      jump\t// out\n        /* \"#utility.yul\":7111:7649   */\n    tag_112:\n        /* \"#utility.yul\":7279:7282   */\n      0x00\n        /* \"#utility.yul\":7294:7369   */\n      tag_393\n        /* \"#utility.yul\":7365:7368   */\n      dup3\n        /* \"#utility.yul\":7356:7362   */\n      dup7\n        /* \"#utility.yul\":7294:7369   */\n      tag_387\n      jump\t// in\n    tag_393:\n        /* \"#utility.yul\":7394:7396   */\n      0x20\n        /* \"#utility.yul\":7389:7392   */\n      dup3\n        /* \"#utility.yul\":7385:7397   */\n      add\n        /* \"#utility.yul\":7378:7397   */\n      swap2\n      pop\n        /* \"#utility.yul\":7407:7482   */\n      tag_394\n        /* \"#utility.yul\":7478:7481   */\n      dup3\n        /* \"#utility.yul\":7469:7475   */\n      dup6\n        /* \"#utility.yul\":7407:7482   */\n      tag_387\n      jump\t// in\n    tag_394:\n        /* \"#utility.yul\":7507:7509   */\n      0x20\n        /* \"#utility.yul\":7502:7505   */\n      dup3\n        /* \"#utility.yul\":7498:7510   */\n      add\n        /* \"#utility.yul\":7491:7510   */\n      swap2\n      pop\n        /* \"#utility.yul\":7520:7595   */\n      tag_395\n        /* \"#utility.yul\":7591:7594   */\n      dup3\n        /* \"#utility.yul\":7582:7588   */\n      dup5\n        /* \"#utility.yul\":7520:7595   */\n      tag_387\n      jump\t// in\n    tag_395:\n        /* \"#utility.yul\":7620:7622   */\n      0x20\n        /* \"#utility.yul\":7615:7618   */\n      dup3\n        /* \"#utility.yul\":7611:7623   */\n      add\n        /* \"#utility.yul\":7604:7623   */\n      swap2\n      pop\n        /* \"#utility.yul\":7640:7643   */\n      dup2\n        /* \"#utility.yul\":7633:7643   */\n      swap1\n      pop\n        /* \"#utility.yul\":7111:7649   */\n      swap5\n      swap4\n      pop\n      pop\n      pop\n      pop\n      jump\t// out\n        /* \"#utility.yul\":7655:7877   */\n    tag_36:\n        /* \"#utility.yul\":7748:7752   */\n      0x00\n        /* \"#utility.yul\":7786:7788   */\n      0x20\n        /* \"#utility.yul\":7775:7784   */\n      dup3\n        /* \"#utility.yul\":7771:7789   */\n      add\n        /* \"#utility.yul\":7763:7789   */\n      swap1\n      pop\n        /* \"#utility.yul\":7799:7870   */\n      tag_397\n        /* \"#utility.yul\":7867:7868   */\n      0x00\n        /* \"#utility.yul\":7856:7865   */\n      dup4\n        /* \"#utility.yul\":7852:7869   */\n      add\n        /* \"#utility.yul\":7843:7849   */\n      dup5\n        /* \"#utility.yul\":7799:7870   */\n      tag_313\n      jump\t// in\n    tag_397:\n        /* \"#utility.yul\":7655:7877   */\n      swap3\n      swap2\n      pop\n      pop\n      jump\t// out\n        /* \"#utility.yul\":7883:8256   */\n    tag_71:\n        /* \"#utility.yul\":8026:8030   */\n      0x00\n        /* \"#utility.yul\":8064:8066   */\n      0x20\n        /* \"#utility.yul\":8053:8062   */\n      dup3\n        /* \"#utility.yul\":8049:8067   */\n      add\n        /* \"#utility.yul\":8041:8067   */\n      swap1\n      pop\n        /* \"#utility.yul\":8113:8122   */\n      dup2\n        /* \"#utility.yul\":8107:8111   */\n      dup2\n        /* \"#utility.yul\":8103:8123   */\n      sub\n        /* \"#utility.yul\":8099:8100   */\n      0x00\n        /* \"#utility.yul\":8088:8097   */\n      dup4\n        /* \"#utility.yul\":8084:8101   */\n      add\n        /* \"#utility.yul\":8077:8124   */\n      mstore\n        /* \"#utility.yul\":8141:8249   */\n      tag_399\n        /* \"#utility.yul\":8244:8248   */\n      dup2\n        /* \"#utility.yul\":8235:8241   */\n      dup5\n        /* \"#utility.yul\":8141:8249   */\n      tag_317\n      jump\t// in\n    tag_399:\n        /* \"#utility.yul\":8133:8249   */\n      swap1\n      pop\n        /* \"#utility.yul\":7883:8256   */\n      swap3\n      swap2\n      pop\n      pop\n      jump\t// out\n        /* \"#utility.yul\":8262:8472   */\n    tag_41:\n        /* \"#utility.yul\":8349:8353   */\n      0x00\n        /* \"#utility.yul\":8387:8389   */\n      0x20\n        /* \"#utility.yul\":8376:8385   */\n      dup3\n        /* \"#utility.yul\":8372:8390   */\n      add\n        /* \"#utility.yul\":8364:8390   */\n      swap1\n      pop\n        /* \"#utility.yul\":8400:8465   */\n      tag_401\n        /* \"#utility.yul\":8462:8463   */\n      0x00\n        /* \"#utility.yul\":8451:8460   */\n      dup4\n        /* \"#utility.yul\":8447:8464   */\n      add\n        /* \"#utility.yul\":8438:8444   */\n      dup5\n        /* \"#utility.yul\":8400:8465   */\n      tag_331\n      jump\t// in\n    tag_401:\n        /* \"#utility.yul\":8262:8472   */\n      swap3\n      swap2\n      pop\n      pop\n      jump\t// out\n        /* \"#utility.yul\":8478:8897   */\n    tag_93:\n        /* \"#utility.yul\":8644:8648   */\n      0x00\n        /* \"#utility.yul\":8682:8684   */\n      0x20\n        /* \"#utility.yul\":8671:8680   */\n      dup3\n        /* \"#utility.yul\":8667:8685   */\n      add\n        /* \"#utility.yul\":8659:8685   */\n      swap1\n      pop\n        /* \"#utility.yul\":8731:8740   */\n      dup2\n        /* \"#utility.yul\":8725:8729   */\n      dup2\n        /* \"#utility.yul\":8721:8741   */\n      sub\n        /* \"#utility.yul\":8717:8718   */\n      0x00\n        /* \"#utility.yul\":8706:8715   */\n      dup4\n        /* \"#utility.yul\":8702:8719   */\n      add\n        /* \"#utility.yul\":8695:8742   */\n      mstore\n        /* \"#utility.yul\":8759:8890   */\n      tag_403\n        /* \"#utility.yul\":8885:8889   */\n      dup2\n        /* \"#utility.yul\":8759:8890   */\n      tag_335\n      jump\t// in\n    tag_403:\n        /* \"#utility.yul\":8751:8890   */\n      swap1\n      pop\n        /* \"#utility.yul\":8478:8897   */\n      swap2\n      swap1\n      pop\n      jump\t// out\n        /* \"#utility.yul\":8903:9322   */\n    tag_208:\n        /* \"#utility.yul\":9069:9073   */\n      0x00\n        /* \"#utility.yul\":9107:9109   */\n      0x20\n        /* \"#utility.yul\":9096:9105   */\n      dup3\n        /* \"#utility.yul\":9092:9110   */\n      add\n        /* \"#utility.yul\":9084:9110   */\n      swap1\n      pop\n        /* \"#utility.yul\":9156:9165   */\n      dup2\n        /* \"#utility.yul\":9150:9154   */\n      dup2\n        /* \"#utility.yul\":9146:9166   */\n      sub\n        /* \"#utility.yul\":9142:9143   */\n      0x00\n        /* \"#utility.yul\":9131:9140   */\n      dup4\n        /* \"#utility.yul\":9127:9144   */\n      add\n        /* \"#utility.yul\":9120:9167   */\n      mstore\n        /* \"#utility.yul\":9184:9315   */\n      tag_405\n        /* \"#utility.yul\":9310:9314   */\n      dup2\n        /* \"#utility.yul\":9184:9315   */\n      tag_341\n      jump\t// in\n    tag_405:\n        /* \"#utility.yul\":9176:9315   */\n      swap1\n      pop\n        /* \"#utility.yul\":8903:9322   */\n      swap2\n      swap1\n      pop\n      jump\t// out\n        /* \"#utility.yul\":9328:9747   */\n    tag_172:\n        /* \"#utility.yul\":9494:9498   */\n      0x00\n        /* \"#utility.yul\":9532:9534   */\n      0x20\n        /* \"#utility.yul\":9521:9530   */\n      dup3\n        /* \"#utility.yul\":9517:9535   */\n      add\n        /* \"#utility.yul\":9509:9535   */\n      swap1\n      pop\n        /* \"#utility.yul\":9581:9590   */\n      dup2\n        /* \"#utility.yul\":9575:9579   */\n      dup2\n        /* \"#utility.yul\":9571:9591   */\n      sub\n        /* \"#utility.yul\":9567:9568   */\n      0x00\n        /* \"#utility.yul\":9556:9565   */\n      dup4\n        /* \"#utility.yul\":9552:9569   */\n      add\n        /* \"#utility.yul\":9545:9592   */\n      mstore\n        /* \"#utility.yul\":9609:9740   */\n      tag_407\n        /* \"#utility.yul\":9735:9739   */\n      dup2\n        /* \"#utility.yul\":9609:9740   */\n      tag_346\n      jump\t// in\n    tag_407:\n        /* \"#utility.yul\":9601:9740   */\n      swap1\n      pop\n        /* \"#utility.yul\":9328:9747   */\n      swap2\n      swap1\n      pop\n      jump\t// out\n        /* \"#utility.yul\":9753:10172   */\n    tag_86:\n        /* \"#utility.yul\":9919:9923   */\n      0x00\n        /* \"#utility.yul\":9957:9959   */\n      0x20\n        /* \"#utility.yul\":9946:9955   */\n      dup3\n        /* \"#utility.yul\":9942:9960   */\n      add\n        /* \"#utility.yul\":9934:9960   */\n      swap1\n      pop\n        /* \"#utility.yul\":10006:10015   */\n      dup2\n        /* \"#utility.yul\":10000:10004   */\n      dup2\n        /* \"#utility.yul\":9996:10016   */\n      sub\n        /* \"#utility.yul\":9992:9993   */\n      0x00\n        /* \"#utility.yul\":9981:9990   */\n      dup4\n        /* \"#utility.yul\":9977:9994   */\n      add\n        /* \"#utility.yul\":9970:10017   */\n      mstore\n        /* \"#utility.yul\":10034:10165   */\n      tag_409\n        /* \"#utility.yul\":10160:10164   */\n      dup2\n        /* \"#utility.yul\":10034:10165   */\n      tag_351\n      jump\t// in\n    tag_409:\n        /* \"#utility.yul\":10026:10165   */\n      swap1\n      pop\n        /* \"#utility.yul\":9753:10172   */\n      swap2\n      swap1\n      pop\n      jump\t// out\n        /* \"#utility.yul\":10178:10597   */\n    tag_151:\n        /* \"#utility.yul\":10344:10348   */\n      0x00\n        /* \"#utility.yul\":10382:10384   */\n      0x20\n        /* \"#utility.yul\":10371:10380   */\n      dup3\n        /* \"#utility.yul\":10367:10385   */\n      add\n        /* \"#utility.yul\":10359:10385   */\n      swap1\n      pop\n        /* \"#utility.yul\":10431:10440   */\n      dup2\n        /* \"#utility.yul\":10425:10429   */\n      dup2\n        /* \"#utility.yul\":10421:10441   */\n      sub\n        /* \"#utility.yul\":10417:10418   */\n      0x00\n        /* \"#utility.yul\":10406:10415   */\n      dup4\n        /* \"#utility.yul\":10402:10419   */\n      add\n        /* \"#utility.yul\":10395:10442   */\n      mstore\n        /* \"#utility.yul\":10459:10590   */\n      tag_411\n        /* \"#utility.yul\":10585:10589   */\n      dup2\n        /* \"#utility.yul\":10459:10590   */\n      tag_356\n      jump\t// in\n    tag_411:\n        /* \"#utility.yul\":10451:10590   */\n      swap1\n      pop\n        /* \"#utility.yul\":10178:10597   */\n      swap2\n      swap1\n      pop\n      jump\t// out\n        /* \"#utility.yul\":10603:11022   */\n    tag_168:\n        /* \"#utility.yul\":10769:10773   */\n      0x00\n        /* \"#utility.yul\":10807:10809   */\n      0x20\n        /* \"#utility.yul\":10796:10805   */\n      dup3\n        /* \"#utility.yul\":10792:10810   */\n      add\n        /* \"#utility.yul\":10784:10810   */\n      swap1\n      pop\n        /* \"#utility.yul\":10856:10865   */\n      dup2\n        /* \"#utility.yul\":10850:10854   */\n      dup2\n        /* \"#utility.yul\":10846:10866   */\n      sub\n        /* \"#utility.yul\":10842:10843   */\n      0x00\n        /* \"#utility.yul\":10831:10840   */\n      dup4\n        /* \"#utility.yul\":10827:10844   */\n      add\n        /* \"#utility.yul\":10820:10867   */\n      mstore\n        /* \"#utility.yul\":10884:11015   */\n      tag_413\n        /* \"#utility.yul\":11010:11014   */\n      dup2\n        /* \"#utility.yul\":10884:11015   */\n      tag_361\n      jump\t// in\n    tag_413:\n        /* \"#utility.yul\":10876:11015   */\n      swap1\n      pop\n        /* \"#utility.yul\":10603:11022   */\n      swap2\n      swap1\n      pop\n      jump\t// out\n        /* \"#utility.yul\":11028:11447   */\n    tag_157:\n        /* \"#utility.yul\":11194:11198   */\n      0x00\n        /* \"#utility.yul\":11232:11234   */\n      0x20\n        /* \"#utility.yul\":11221:11230   */\n      dup3\n        /* \"#utility.yul\":11217:11235   */\n      add\n        /* \"#utility.yul\":11209:11235   */\n      swap1\n      pop\n        /* \"#utility.yul\":11281:11290   */\n      dup2\n        /* \"#utility.yul\":11275:11279   */\n      dup2\n        /* \"#utility.yul\":11271:11291   */\n      sub\n        /* \"#utility.yul\":11267:11268   */\n      0x00\n        /* \"#utility.yul\":11256:11265   */\n      dup4\n        /* \"#utility.yul\":11252:11269   */\n      add\n        /* \"#utility.yul\":11245:11292   */\n      mstore\n        /* \"#utility.yul\":11309:11440   */\n      tag_415\n        /* \"#utility.yul\":11435:11439   */\n      dup2\n        /* \"#utility.yul\":11309:11440   */\n      tag_366\n      jump\t// in\n    tag_415:\n        /* \"#utility.yul\":11301:11440   */\n      swap1\n      pop\n        /* \"#utility.yul\":11028:11447   */\n      swap2\n      swap1\n      pop\n      jump\t// out\n        /* \"#utility.yul\":11453:11872   */\n    tag_90:\n        /* \"#utility.yul\":11619:11623   */\n      0x00\n        /* \"#utility.yul\":11657:11659   */\n      0x20\n        /* \"#utility.yul\":11646:11655   */\n      dup3\n        /* \"#utility.yul\":11642:11660   */\n      add\n        /* \"#utility.yul\":11634:11660   */\n      swap1\n      pop\n        /* \"#utility.yul\":11706:11715   */\n      dup2\n        /* \"#utility.yul\":11700:11704   */\n      dup2\n        /* \"#utility.yul\":11696:11716   */\n      sub\n        /* \"#utility.yul\":11692:11693   */\n      0x00\n        /* \"#utility.yul\":11681:11690   */\n      dup4\n        /* \"#utility.yul\":11677:11694   */\n      add\n        /* \"#utility.yul\":11670:11717   */\n      mstore\n        /* \"#utility.yul\":11734:11865   */\n      tag_417\n        /* \"#utility.yul\":11860:11864   */\n      dup2\n        /* \"#utility.yul\":11734:11865   */\n      tag_371\n      jump\t// in\n    tag_417:\n        /* \"#utility.yul\":11726:11865   */\n      swap1\n      pop\n        /* \"#utility.yul\":11453:11872   */\n      swap2\n      swap1\n      pop\n      jump\t// out\n        /* \"#utility.yul\":11878:12297   */\n    tag_154:\n        /* \"#utility.yul\":12044:12048   */\n      0x00\n        /* \"#utility.yul\":12082:12084   */\n      0x20\n        /* \"#utility.yul\":12071:12080   */\n      dup3\n        /* \"#utility.yul\":12067:12085   */\n      add\n        /* \"#utility.yul\":12059:12085   */\n      swap1\n      pop\n        /* \"#utility.yul\":12131:12140   */\n      dup2\n        /* \"#utility.yul\":12125:12129   */\n      dup2\n        /* \"#utility.yul\":12121:12141   */\n      sub\n        /* \"#utility.yul\":12117:12118   */\n      0x00\n        /* \"#utility.yul\":12106:12115   */\n      dup4\n        /* \"#utility.yul\":12102:12119   */\n      add\n        /* \"#utility.yul\":12095:12142   */\n      mstore\n        /* \"#utility.yul\":12159:12290   */\n      tag_419\n        /* \"#utility.yul\":12285:12289   */\n      dup2\n        /* \"#utility.yul\":12159:12290   */\n      tag_376\n      jump\t// in\n    tag_419:\n        /* \"#utility.yul\":12151:12290   */\n      swap1\n      pop\n        /* \"#utility.yul\":11878:12297   */\n      swap2\n      swap1\n      pop\n      jump\t// out\n        /* \"#utility.yul\":12303:12525   */\n    tag_62:\n        /* \"#utility.yul\":12396:12400   */\n      0x00\n        /* \"#utility.yul\":12434:12436   */\n      0x20\n        /* \"#utility.yul\":12423:12432   */\n      dup3\n        /* \"#utility.yul\":12419:12437   */\n      add\n        /* \"#utility.yul\":12411:12437   */\n      swap1\n      pop\n        /* \"#utility.yul\":12447:12518   */\n      tag_421\n        /* \"#utility.yul\":12515:12516   */\n      0x00\n        /* \"#utility.yul\":12504:12513   */\n      dup4\n        /* \"#utility.yul\":12500:12517   */\n      add\n        /* \"#utility.yul\":12491:12497   */\n      dup5\n        /* \"#utility.yul\":12447:12518   */\n      tag_384\n      jump\t// in\n    tag_421:\n        /* \"#utility.yul\":12303:12525   */\n      swap3\n      swap2\n      pop\n      pop\n      jump\t// out\n        /* \"#utility.yul\":12531:12660   */\n    tag_279:\n        /* \"#utility.yul\":12565:12571   */\n      0x00\n        /* \"#utility.yul\":12592:12612   */\n      tag_423\n      tag_424\n      jump\t// in\n    tag_423:\n        /* \"#utility.yul\":12582:12612   */\n      swap1\n      pop\n        /* \"#utility.yul\":12621:12654   */\n      tag_425\n        /* \"#utility.yul\":12649:12653   */\n      dup3\n        /* \"#utility.yul\":12641:12647   */\n      dup3\n        /* \"#utility.yul\":12621:12654   */\n      tag_426\n      jump\t// in\n    tag_425:\n        /* \"#utility.yul\":12531:12660   */\n      swap2\n      swap1\n      pop\n      jump\t// out\n        /* \"#utility.yul\":12666:12741   */\n    tag_424:\n        /* \"#utility.yul\":12699:12705   */\n      0x00\n        /* \"#utility.yul\":12732:12734   */\n      0x40\n        /* \"#utility.yul\":12726:12735   */\n      mload\n        /* \"#utility.yul\":12716:12735   */\n      swap1\n      pop\n        /* \"#utility.yul\":12666:12741   */\n      swap1\n      jump\t// out\n        /* \"#utility.yul\":12747:13058   */\n    tag_278:\n        /* \"#utility.yul\":12824:12828   */\n      0x00\n        /* \"#utility.yul\":12914:12932   */\n      0xffffffffffffffff\n        /* \"#utility.yul\":12906:12912   */\n      dup3\n        /* \"#utility.yul\":12903:12933   */\n      gt\n        /* \"#utility.yul\":12900:12956   */\n      iszero\n      tag_429\n      jumpi\n        /* \"#utility.yul\":12936:12954   */\n      tag_430\n      tag_104\n      jump\t// in\n    tag_430:\n        /* \"#utility.yul\":12900:12956   */\n    tag_429:\n        /* \"#utility.yul\":12986:12990   */\n      0x20\n        /* \"#utility.yul\":12978:12984   */\n      dup3\n        /* \"#utility.yul\":12974:12991   */\n      mul\n        /* \"#utility.yul\":12966:12991   */\n      swap1\n      pop\n        /* \"#utility.yul\":13046:13050   */\n      0x20\n        /* \"#utility.yul\":13040:13044   */\n      dup2\n        /* \"#utility.yul\":13036:13051   */\n      add\n        /* \"#utility.yul\":13028:13051   */\n      swap1\n      pop\n        /* \"#utility.yul\":12747:13058   */\n      swap2\n      swap1\n      pop\n      jump\t// out\n        /* \"#utility.yul\":13064:13196   */\n    tag_324:\n        /* \"#utility.yul\":13131:13135   */\n      0x00\n        /* \"#utility.yul\":13154:13157   */\n      dup2\n        /* \"#utility.yul\":13146:13157   */\n      swap1\n      pop\n        /* \"#utility.yul\":13184:13188   */\n      0x20\n        /* \"#utility.yul\":13179:13182   */\n      dup3\n        /* \"#utility.yul\":13175:13189   */\n      add\n        /* \"#utility.yul\":13167:13189   */\n      swap1\n      pop\n        /* \"#utility.yul\":13064:13196   */\n      swap2\n      swap1\n      pop\n      jump\t// out\n        /* \"#utility.yul\":13202:13316   */\n    tag_320:\n        /* \"#utility.yul\":13269:13275   */\n      0x00\n        /* \"#utility.yul\":13303:13308   */\n      dup2\n        /* \"#utility.yul\":13297:13309   */\n      mload\n        /* \"#utility.yul\":13287:13309   */\n      swap1\n      pop\n        /* \"#utility.yul\":13202:13316   */\n      swap2\n      swap1\n      pop\n      jump\t// out\n        /* \"#utility.yul\":13322:13435   */\n    tag_330:\n        /* \"#utility.yul\":13392:13396   */\n      0x00\n        /* \"#utility.yul\":13424:13428   */\n      0x20\n        /* \"#utility.yul\":13419:13422   */\n      dup3\n        /* \"#utility.yul\":13415:13429   */\n      add\n        /* \"#utility.yul\":13407:13429   */\n      swap1\n      pop\n        /* \"#utility.yul\":13322:13435   */\n      swap2\n      swap1\n      pop\n      jump\t// out\n        /* \"#utility.yul\":13441:13625   */\n    tag_322:\n        /* \"#utility.yul\":13540:13551   */\n      0x00\n        /* \"#utility.yul\":13574:13580   */\n      dup3\n        /* \"#utility.yul\":13569:13572   */\n      dup3\n        /* \"#utility.yul\":13562:13581   */\n      mstore\n        /* \"#utility.yul\":13614:13618   */\n      0x20\n        /* \"#utility.yul\":13609:13612   */\n      dup3\n        /* \"#utility.yul\":13605:13619   */\n      add\n        /* \"#utility.yul\":13590:13619   */\n      swap1\n      pop\n        /* \"#utility.yul\":13441:13625   */\n      swap3\n      swap2\n      pop\n      pop\n      jump\t// out\n        /* \"#utility.yul\":13631:13800   */\n    tag_338:\n        /* \"#utility.yul\":13715:13726   */\n      0x00\n        /* \"#utility.yul\":13749:13755   */\n      dup3\n        /* \"#utility.yul\":13744:13747   */\n      dup3\n        /* \"#utility.yul\":13737:13756   */\n      mstore\n        /* \"#utility.yul\":13789:13793   */\n      0x20\n        /* \"#utility.yul\":13784:13787   */\n      dup3\n        /* \"#utility.yul\":13780:13794   */\n      add\n        /* \"#utility.yul\":13765:13794   */\n      swap1\n      pop\n        /* \"#utility.yul\":13631:13800   */\n      swap3\n      swap2\n      pop\n      pop\n      jump\t// out\n        /* \"#utility.yul\":13806:14111   */\n    tag_176:\n        /* \"#utility.yul\":13846:13849   */\n      0x00\n        /* \"#utility.yul\":13865:13885   */\n      tag_437\n        /* \"#utility.yul\":13883:13884   */\n      dup3\n        /* \"#utility.yul\":13865:13885   */\n      tag_383\n      jump\t// in\n    tag_437:\n        /* \"#utility.yul\":13860:13885   */\n      swap2\n      pop\n        /* \"#utility.yul\":13899:13919   */\n      tag_438\n        /* \"#utility.yul\":13917:13918   */\n      dup4\n        /* \"#utility.yul\":13899:13919   */\n      tag_383\n      jump\t// in\n    tag_438:\n        /* \"#utility.yul\":13894:13919   */\n      swap3\n      pop\n        /* \"#utility.yul\":14053:14054   */\n      dup3\n        /* \"#utility.yul\":13985:14051   */\n      0xffffffffffffffffffffffffffffffffffffffffffffffffffffffffffffffff\n        /* \"#utility.yul\":13981:14055   */\n      sub\n        /* \"#utility.yul\":13978:13979   */\n      dup3\n        /* \"#utility.yul\":13975:14056   */\n      gt\n        /* \"#utility.yul\":13972:14079   */\n      iszero\n      tag_439\n      jumpi\n        /* \"#utility.yul\":14059:14077   */\n      tag_440\n      tag_441\n      jump\t// in\n    tag_440:\n        /* \"#utility.yul\":13972:14079   */\n    tag_439:\n        /* \"#utility.yul\":14103:14104   */\n      dup3\n        /* \"#utility.yul\":14100:14101   */\n      dup3\n        /* \"#utility.yul\":14096:14105   */\n      add\n        /* \"#utility.yul\":14089:14105   */\n      swap1\n      pop\n        /* \"#utility.yul\":13806:14111   */\n      swap3\n      swap2\n      pop\n      pop\n      jump\t// out\n        /* \"#utility.yul\":14117:14302   */\n    tag_183:\n        /* \"#utility.yul\":14157:14158   */\n      0x00\n        /* \"#utility.yul\":14174:14194   */\n      tag_443\n        /* \"#utility.yul\":14192:14193   */\n      dup3\n        /* \"#utility.yul\":14174:14194   */\n      tag_383\n      jump\t// in\n    tag_443:\n        /* \"#utility.yul\":14169:14194   */\n      swap2\n      pop\n        /* \"#utility.yul\":14208:14228   */\n      tag_444\n        /* \"#utility.yul\":14226:14227   */\n      dup4\n        /* \"#utility.yul\":14208:14228   */\n      tag_383\n      jump\t// in\n    tag_444:\n        /* \"#utility.yul\":14203:14228   */\n      swap3\n      pop\n        /* \"#utility.yul\":14247:14248   */\n      dup3\n        /* \"#utility.yul\":14237:14272   */\n      tag_445\n      jumpi\n        /* \"#utility.yul\":14252:14270   */\n      tag_446\n      tag_447\n      jump\t// in\n    tag_446:\n        /* \"#utility.yul\":14237:14272   */\n    tag_445:\n        /* \"#utility.yul\":14294:14295   */\n      dup3\n        /* \"#utility.yul\":14291:14292   */\n      dup3\n        /* \"#utility.yul\":14287:14296   */\n      div\n        /* \"#utility.yul\":14282:14296   */\n      swap1\n      pop\n        /* \"#utility.yul\":14117:14302   */\n      swap3\n      swap2\n      pop\n      pop\n      jump\t// out\n        /* \"#utility.yul\":14308:14656   */\n    tag_130:\n        /* \"#utility.yul\":14348:14355   */\n      0x00\n        /* \"#utility.yul\":14371:14391   */\n      tag_449\n        /* \"#utility.yul\":14389:14390   */\n      dup3\n        /* \"#utility.yul\":14371:14391   */\n      tag_383\n      jump\t// in\n    tag_449:\n        /* \"#utility.yul\":14366:14391   */\n      swap2\n      pop\n        /* \"#utility.yul\":14405:14425   */\n      tag_450\n        /* \"#utility.yul\":14423:14424   */\n      dup4\n        /* \"#utility.yul\":14405:14425   */\n      tag_383\n      jump\t// in\n    tag_450:\n        /* \"#utility.yul\":14400:14425   */\n      swap3\n      pop\n        /* \"#utility.yul\":14593:14594   */\n      dup2\n        /* \"#utility.yul\":14525:14591   */\n      0xffffffffffffffffffffffffffffffffffffffffffffffffffffffffffffffff\n        /* \"#utility.yul\":14521:14595   */\n      div\n        /* \"#utility.yul\":14518:14519   */\n      dup4\n        /* \"#utility.yul\":14515:14596   */\n      gt\n        /* \"#utility.yul\":14510:14511   */\n      dup3\n        /* \"#utility.yul\":14503:14512   */\n      iszero\n        /* \"#utility.yul\":14496:14513   */\n      iszero\n        /* \"#utility.yul\":14492:14597   */\n      and\n        /* \"#utility.yul\":14489:14620   */\n      iszero\n      tag_451\n      jumpi\n        /* \"#utility.yul\":14600:14618   */\n      tag_452\n      tag_441\n      jump\t// in\n    tag_452:\n        /* \"#utility.yul\":14489:14620   */\n    tag_451:\n        /* \"#utility.yul\":14648:14649   */\n      dup3\n        /* \"#utility.yul\":14645:14646   */\n      dup3\n        /* \"#utility.yul\":14641:14650   */\n      mul\n        /* \"#utility.yul\":14630:14650   */\n      swap1\n      pop\n        /* \"#utility.yul\":14308:14656   */\n      swap3\n      swap2\n      pop\n      pop\n      jump\t// out\n        /* \"#utility.yul\":14662:14853   */\n    tag_254:\n        /* \"#utility.yul\":14702:14706   */\n      0x00\n        /* \"#utility.yul\":14722:14742   */\n      tag_454\n        /* \"#utility.yul\":14740:14741   */\n      dup3\n        /* \"#utility.yul\":14722:14742   */\n      tag_383\n      jump\t// in\n    tag_454:\n        /* \"#utility.yul\":14717:14742   */\n      swap2\n      pop\n        /* \"#utility.yul\":14756:14776   */\n      tag_455\n        /* \"#utility.yul\":14774:14775   */\n      dup4\n        /* \"#utility.yul\":14756:14776   */\n      tag_383\n      jump\t// in\n    tag_455:\n        /* \"#utility.yul\":14751:14776   */\n      swap3\n      pop\n        /* \"#utility.yul\":14795:14796   */\n      dup3\n        /* \"#utility.yul\":14792:14793   */\n      dup3\n        /* \"#utility.yul\":14789:14797   */\n      lt\n        /* \"#utility.yul\":14786:14820   */\n      iszero\n      tag_456\n      jumpi\n        /* \"#utility.yul\":14800:14818   */\n      tag_457\n      tag_441\n      jump\t// in\n    tag_457:\n        /* \"#utility.yul\":14786:14820   */\n    tag_456:\n        /* \"#utility.yul\":14845:14846   */\n      dup3\n        /* \"#utility.yul\":14842:14843   */\n      dup3\n        /* \"#utility.yul\":14838:14847   */\n      sub\n        /* \"#utility.yul\":14830:14847   */\n      swap1\n      pop\n        /* \"#utility.yul\":14662:14853   */\n      swap3\n      swap2\n      pop\n      pop\n      jump\t// out\n        /* \"#utility.yul\":14859:14955   */\n    tag_316:\n        /* \"#utility.yul\":14896:14903   */\n      0x00\n        /* \"#utility.yul\":14925:14949   */\n      tag_459\n        /* \"#utility.yul\":14943:14948   */\n      dup3\n        /* \"#utility.yul\":14925:14949   */\n      tag_460\n      jump\t// in\n    tag_459:\n        /* \"#utility.yul\":14914:14949   */\n      swap1\n      pop\n        /* \"#utility.yul\":14859:14955   */\n      swap2\n      swap1\n      pop\n      jump\t// out\n        /* \"#utility.yul\":14961:15051   */\n    tag_334:\n        /* \"#utility.yul\":14995:15002   */\n      0x00\n        /* \"#utility.yul\":15038:15043   */\n      dup2\n        /* \"#utility.yul\":15031:15044   */\n      iszero\n        /* \"#utility.yul\":15024:15045   */\n      iszero\n        /* \"#utility.yul\":15013:15045   */\n      swap1\n      pop\n        /* \"#utility.yul\":14961:15051   */\n      swap2\n      swap1\n      pop\n      jump\t// out\n        /* \"#utility.yul\":15057:15183   */\n    tag_460:\n        /* \"#utility.yul\":15094:15101   */\n      0x00\n        /* \"#utility.yul\":15134:15176   */\n      0xffffffffffffffffffffffffffffffffffffffff\n        /* \"#utility.yul\":15127:15132   */\n      dup3\n        /* \"#utility.yul\":15123:15177   */\n      and\n        /* \"#utility.yul\":15112:15177   */\n      swap1\n      pop\n        /* \"#utility.yul\":15057:15183   */\n      swap2\n      swap1\n      pop\n      jump\t// out\n        /* \"#utility.yul\":15189:15266   */\n    tag_383:\n        /* \"#utility.yul\":15226:15233   */\n      0x00\n        /* \"#utility.yul\":15255:15260   */\n      dup2\n        /* \"#utility.yul\":15244:15260   */\n      swap1\n      pop\n        /* \"#utility.yul\":15189:15266   */\n      swap2\n      swap1\n      pop\n      jump\t// out\n        /* \"#utility.yul\":15272:15553   */\n    tag_426:\n        /* \"#utility.yul\":15355:15382   */\n      tag_465\n        /* \"#utility.yul\":15377:15381   */\n      dup3\n        /* \"#utility.yul\":15355:15382   */\n      tag_466\n      jump\t// in\n    tag_465:\n        /* \"#utility.yul\":15347:15353   */\n      dup2\n        /* \"#utility.yul\":15343:15383   */\n      add\n        /* \"#utility.yul\":15485:15491   */\n      dup2\n        /* \"#utility.yul\":15473:15483   */\n      dup2\n        /* \"#utility.yul\":15470:15492   */\n      lt\n        /* \"#utility.yul\":15449:15467   */\n      0xffffffffffffffff\n        /* \"#utility.yul\":15437:15447   */\n      dup3\n        /* \"#utility.yul\":15434:15468   */\n      gt\n        /* \"#utility.yul\":15431:15493   */\n      or\n        /* \"#utility.yul\":15428:15516   */\n      iszero\n      tag_467\n      jumpi\n        /* \"#utility.yul\":15496:15514   */\n      tag_468\n      tag_104\n      jump\t// in\n    tag_468:\n        /* \"#utility.yul\":15428:15516   */\n    tag_467:\n        /* \"#utility.yul\":15536:15546   */\n      dup1\n        /* \"#utility.yul\":15532:15534   */\n      0x40\n        /* \"#utility.yul\":15525:15547   */\n      mstore\n        /* \"#utility.yul\":15315:15553   */\n      pop\n        /* \"#utility.yul\":15272:15553   */\n      pop\n      pop\n      jump\t// out\n        /* \"#utility.yul\":15559:15792   */\n    tag_121:\n        /* \"#utility.yul\":15598:15601   */\n      0x00\n        /* \"#utility.yul\":15621:15645   */\n      tag_470\n        /* \"#utility.yul\":15639:15644   */\n      dup3\n        /* \"#utility.yul\":15621:15645   */\n      tag_383\n      jump\t// in\n    tag_470:\n        /* \"#utility.yul\":15612:15645   */\n      swap2\n      pop\n        /* \"#utility.yul\":15667:15733   */\n      0xffffffffffffffffffffffffffffffffffffffffffffffffffffffffffffffff\n        /* \"#utility.yul\":15660:15665   */\n      dup3\n        /* \"#utility.yul\":15657:15734   */\n      eq\n        /* \"#utility.yul\":15654:15757   */\n      iszero\n      tag_471\n      jumpi\n        /* \"#utility.yul\":15737:15755   */\n      tag_472\n      tag_441\n      jump\t// in\n    tag_472:\n        /* \"#utility.yul\":15654:15757   */\n    tag_471:\n        /* \"#utility.yul\":15784:15785   */\n      0x01\n        /* \"#utility.yul\":15777:15782   */\n      dup3\n        /* \"#utility.yul\":15773:15786   */\n      add\n        /* \"#utility.yul\":15766:15786   */\n      swap1\n      pop\n        /* \"#utility.yul\":15559:15792   */\n      swap2\n      swap1\n      pop\n      jump\t// out\n        /* \"#utility.yul\":15798:15877   */\n    tag_391:\n        /* \"#utility.yul\":15837:15844   */\n      0x00\n        /* \"#utility.yul\":15866:15871   */\n      dup2\n        /* \"#utility.yul\":15855:15871   */\n      swap1\n      pop\n        /* \"#utility.yul\":15798:15877   */\n      swap2\n      swap1\n      pop\n      jump\t// out\n        /* \"#utility.yul\":15883:16059   */\n    tag_114:\n        /* \"#utility.yul\":15915:15916   */\n      0x00\n        /* \"#utility.yul\":15932:15952   */\n      tag_475\n        /* \"#utility.yul\":15950:15951   */\n      dup3\n        /* \"#utility.yul\":15932:15952   */\n      tag_383\n      jump\t// in\n    tag_475:\n        /* \"#utility.yul\":15927:15952   */\n      swap2\n      pop\n        /* \"#utility.yul\":15966:15986   */\n      tag_476\n        /* \"#utility.yul\":15984:15985   */\n      dup4\n        /* \"#utility.yul\":15966:15986   */\n      tag_383\n      jump\t// in\n    tag_476:\n        /* \"#utility.yul\":15961:15986   */\n      swap3\n      pop\n        /* \"#utility.yul\":16005:16006   */\n      dup3\n        /* \"#utility.yul\":15995:16030   */\n      tag_477\n      jumpi\n        /* \"#utility.yul\":16010:16028   */\n      tag_478\n      tag_447\n      jump\t// in\n    tag_478:\n        /* \"#utility.yul\":15995:16030   */\n    tag_477:\n        /* \"#utility.yul\":16051:16052   */\n      dup3\n        /* \"#utility.yul\":16048:16049   */\n      dup3\n        /* \"#utility.yul\":16044:16053   */\n      mod\n        /* \"#utility.yul\":16039:16053   */\n      swap1\n      pop\n        /* \"#utility.yul\":15883:16059   */\n      swap3\n      swap2\n      pop\n      pop\n      jump\t// out\n        /* \"#utility.yul\":16065:16245   */\n    tag_441:\n        /* \"#utility.yul\":16113:16190   */\n      0x4e487b7100000000000000000000000000000000000000000000000000000000\n        /* \"#utility.yul\":16110:16111   */\n      0x00\n        /* \"#utility.yul\":16103:16191   */\n      mstore\n        /* \"#utility.yul\":16210:16214   */\n      0x11\n        /* \"#utility.yul\":16207:16208   */\n      0x04\n        /* \"#utility.yul\":16200:16215   */\n      mstore\n        /* \"#utility.yul\":16234:16238   */\n      0x24\n        /* \"#utility.yul\":16231:16232   */\n      0x00\n        /* \"#utility.yul\":16224:16239   */\n      revert\n        /* \"#utility.yul\":16251:16431   */\n    tag_447:\n        /* \"#utility.yul\":16299:16376   */\n      0x4e487b7100000000000000000000000000000000000000000000000000000000\n        /* \"#utility.yul\":16296:16297   */\n      0x00\n        /* \"#utility.yul\":16289:16377   */\n      mstore\n        /* \"#utility.yul\":16396:16400   */\n      0x12\n        /* \"#utility.yul\":16393:16394   */\n      0x04\n        /* \"#utility.yul\":16386:16401   */\n      mstore\n        /* \"#utility.yul\":16420:16424   */\n      0x24\n        /* \"#utility.yul\":16417:16418   */\n      0x00\n        /* \"#utility.yul\":16410:16425   */\n      revert\n        /* \"#utility.yul\":16437:16617   */\n    tag_118:\n        /* \"#utility.yul\":16485:16562   */\n      0x4e487b7100000000000000000000000000000000000000000000000000000000\n        /* \"#utility.yul\":16482:16483   */\n      0x00\n        /* \"#utility.yul\":16475:16563   */\n      mstore\n        /* \"#utility.yul\":16582:16586   */\n      0x32\n        /* \"#utility.yul\":16579:16580   */\n      0x04\n        /* \"#utility.yul\":16572:16587   */\n      mstore\n        /* \"#utility.yul\":16606:16610   */\n      0x24\n        /* \"#utility.yul\":16603:16604   */\n      0x00\n        /* \"#utility.yul\":16596:16611   */\n      revert\n        /* \"#utility.yul\":16623:16803   */\n    tag_104:\n        /* \"#utility.yul\":16671:16748   */\n      0x4e487b7100000000000000000000000000000000000000000000000000000000\n        /* \"#utility.yul\":16668:16669   */\n      0x00\n        /* \"#utility.yul\":16661:16749   */\n      mstore\n        /* \"#utility.yul\":16768:16772   */\n      0x41\n        /* \"#utility.yul\":16765:16766   */\n      0x04\n        /* \"#utility.yul\":16758:16773   */\n      mstore\n        /* \"#utility.yul\":16792:16796   */\n      0x24\n        /* \"#utility.yul\":16789:16790   */\n      0x00\n        /* \"#utility.yul\":16782:16797   */\n      revert\n        /* \"#utility.yul\":16809:16926   */\n    tag_292:\n        /* \"#utility.yul\":16918:16919   */\n      0x00\n        /* \"#utility.yul\":16915:16916   */\n      dup1\n        /* \"#utility.yul\":16908:16920   */\n      revert\n        /* \"#utility.yul\":16932:17049   */\n    tag_282:\n        /* \"#utility.yul\":17041:17042   */\n      0x00\n        /* \"#utility.yul\":17038:17039   */\n      dup1\n        /* \"#utility.yul\":17031:17043   */\n      revert\n        /* \"#utility.yul\":17055:17172   */\n    tag_303:\n        /* \"#utility.yul\":17164:17165   */\n      0x00\n        /* \"#utility.yul\":17161:17162   */\n      dup1\n        /* \"#utility.yul\":17154:17166   */\n      revert\n        /* \"#utility.yul\":17178:17295   */\n    tag_300:\n        /* \"#utility.yul\":17287:17288   */\n      0x00\n        /* \"#utility.yul\":17284:17285   */\n      dup1\n        /* \"#utility.yul\":17277:17289   */\n      revert\n        /* \"#utility.yul\":17301:17403   */\n    tag_466:\n        /* \"#utility.yul\":17342:17348   */\n      0x00\n        /* \"#utility.yul\":17393:17395   */\n      0x1f\n        /* \"#utility.yul\":17389:17396   */\n      not\n        /* \"#utility.yul\":17384:17386   */\n      0x1f\n        /* \"#utility.yul\":17377:17382   */\n      dup4\n        /* \"#utility.yul\":17373:17387   */\n      add\n        /* \"#utility.yul\":17369:17397   */\n      and\n        /* \"#utility.yul\":17359:17397   */\n      swap1\n      pop\n        /* \"#utility.yul\":17301:17403   */\n      swap2\n      swap1\n      pop\n      jump\t// out\n        /* \"#utility.yul\":17409:17579   */\n    tag_340:\n        /* \"#utility.yul\":17549:17571   */\n      0x4e6f20457468657220746f2070756c6c206f7574000000000000000000000000\n        /* \"#utility.yul\":17545:17546   */\n      0x00\n        /* \"#utility.yul\":17537:17543   */\n      dup3\n        /* \"#utility.yul\":17533:17547   */\n      add\n        /* \"#utility.yul\":17526:17572   */\n      mstore\n        /* \"#utility.yul\":17409:17579   */\n      pop\n      jump\t// out\n        /* \"#utility.yul\":17585:17752   */\n    tag_345:\n        /* \"#utility.yul\":17725:17744   */\n      0x4e6f207469636b65742077617320626f75000000000000000000000000000000\n        /* \"#utility.yul\":17721:17722   */\n      0x00\n        /* \"#utility.yul\":17713:17719   */\n      dup3\n        /* \"#utility.yul\":17709:17723   */\n      add\n        /* \"#utility.yul\":17702:17745   */\n      mstore\n        /* \"#utility.yul\":17585:17752   */\n      pop\n      jump\t// out\n        /* \"#utility.yul\":17758:17940   */\n    tag_350:\n        /* \"#utility.yul\":17898:17932   */\n      0x596f75206861766520616c726561647920626f756768742061207469636b6574\n        /* \"#utility.yul\":17894:17895   */\n      0x00\n        /* \"#utility.yul\":17886:17892   */\n      dup3\n        /* \"#utility.yul\":17882:17896   */\n      add\n        /* \"#utility.yul\":17875:17933   */\n      mstore\n        /* \"#utility.yul\":17758:17940   */\n      pop\n      jump\t// out\n        /* \"#utility.yul\":17946:18171   */\n    tag_355:\n        /* \"#utility.yul\":18086:18120   */\n      0x4f6e6c7920746865206f776e65722063616e20706572666f726d207468697320\n        /* \"#utility.yul\":18082:18083   */\n      0x00\n        /* \"#utility.yul\":18074:18080   */\n      dup3\n        /* \"#utility.yul\":18070:18084   */\n      add\n        /* \"#utility.yul\":18063:18121   */\n      mstore\n        /* \"#utility.yul\":18155:18163   */\n      0x616374696f6e0000000000000000000000000000000000000000000000000000\n        /* \"#utility.yul\":18150:18152   */\n      0x20\n        /* \"#utility.yul\":18142:18148   */\n      dup3\n        /* \"#utility.yul\":18138:18153   */\n      add\n        /* \"#utility.yul\":18131:18164   */\n      mstore\n        /* \"#utility.yul\":17946:18171   */\n      pop\n      jump\t// out\n        /* \"#utility.yul\":18177:18348   */\n    tag_360:\n        /* \"#utility.yul\":18317:18340   */\n      0x4e6f206c6f74746572792069732072756e6e696e670000000000000000000000\n        /* \"#utility.yul\":18313:18314   */\n      0x00\n        /* \"#utility.yul\":18305:18311   */\n      dup3\n        /* \"#utility.yul\":18301:18315   */\n      add\n        /* \"#utility.yul\":18294:18341   */\n      mstore\n        /* \"#utility.yul\":18177:18348   */\n      pop\n      jump\t// out\n        /* \"#utility.yul\":18354:18516   */\n    tag_365:\n        /* \"#utility.yul\":18494:18508   */\n      0x57726f6e67206e756d6265720000000000000000000000000000000000000000\n        /* \"#utility.yul\":18490:18491   */\n      0x00\n        /* \"#utility.yul\":18482:18488   */\n      dup3\n        /* \"#utility.yul\":18478:18492   */\n      add\n        /* \"#utility.yul\":18471:18509   */\n      mstore\n        /* \"#utility.yul\":18354:18516   */\n      pop\n      jump\t// out\n        /* \"#utility.yul\":18522:18695   */\n    tag_370:\n        /* \"#utility.yul\":18662:18687   */\n      0x57726f6e67206e756d626572206f66206e756d62657273000000000000000000\n        /* \"#utility.yul\":18658:18659   */\n      0x00\n        /* \"#utility.yul\":18650:18656   */\n      dup3\n        /* \"#utility.yul\":18646:18660   */\n      add\n        /* \"#utility.yul\":18639:18688   */\n      mstore\n        /* \"#utility.yul\":18522:18695   */\n      pop\n      jump\t// out\n        /* \"#utility.yul\":18701:18871   */\n    tag_375:\n        /* \"#utility.yul\":18841:18863   */\n      0x41206c6f74746572792069732072756e6e696e67000000000000000000000000\n        /* \"#utility.yul\":18837:18838   */\n      0x00\n        /* \"#utility.yul\":18829:18835   */\n      dup3\n        /* \"#utility.yul\":18825:18839   */\n      add\n        /* \"#utility.yul\":18818:18864   */\n      mstore\n        /* \"#utility.yul\":18701:18871   */\n      pop\n      jump\t// out\n        /* \"#utility.yul\":18877:19039   */\n    tag_380:\n        /* \"#utility.yul\":19017:19031   */\n      0x57726f6e6720616d6f756e740000000000000000000000000000000000000000\n        /* \"#utility.yul\":19013:19014   */\n      0x00\n        /* \"#utility.yul\":19005:19011   */\n      dup3\n        /* \"#utility.yul\":19001:19015   */\n      add\n        /* \"#utility.yul\":18994:19032   */\n      mstore\n        /* \"#utility.yul\":18877:19039   */\n      pop\n      jump\t// out\n        /* \"#utility.yul\":19045:19167   */\n    tag_296:\n        /* \"#utility.yul\":19118:19142   */\n      tag_498\n        /* \"#utility.yul\":19136:19141   */\n      dup2\n        /* \"#utility.yul\":19118:19142   */\n      tag_383\n      jump\t// in\n    tag_498:\n        /* \"#utility.yul\":19111:19116   */\n      dup2\n        /* \"#utility.yul\":19108:19143   */\n      eq\n        /* \"#utility.yul\":19098:19161   */\n      tag_499\n      jumpi\n        /* \"#utility.yul\":19157:19158   */\n      0x00\n        /* \"#utility.yul\":19154:19155   */\n      dup1\n        /* \"#utility.yul\":19147:19159   */\n      revert\n        /* \"#utility.yul\":19098:19161   */\n    tag_499:\n        /* \"#utility.yul\":19045:19167   */\n      pop\n      jump\t// out\n\n    auxdata: 0xa2646970667358221220fc18555ed0f970707a7ff4965a26413e8e8df3688b8b64c055c629c4a9d4c7c464736f6c63430008070033\n}\n",
				"bytecode": {
					"linkReferences": {},
					"object": "6080604052674563918244f4000060035560006005556000600760006101000a81548160ff02191690831515021790555034801561003c57600080fd5b50336000806101000a81548173ffffffffffffffffffffffffffffffffffffffff021916908373ffffffffffffffffffffffffffffffffffffffff160217905550611fa48061008c6000396000f3fe6080604052600436106100e85760003560e01c8063716cac961161008a5780638b0b9ed4116100595780638b0b9ed41461029d578063a1bb96a1146102c8578063a650fbab146102f3578063b04a3f1c1461031e576100e8565b8063716cac96146102005780637f17b05d1461021c57806387bb7ae0146102475780638a4a29c314610272576100e8565b8063472016da116100c6578063472016da146101445780634c75e3f1146101815780634efd7cca146101ac5780635a3811b9146101d5576100e8565b806330daec49146100ed57806336c1ec23146101045780634630a0ee1461011b575b600080fd5b3480156100f957600080fd5b50610102610335565b005b34801561011057600080fd5b506101196104d8565b005b34801561012757600080fd5b50610142600480360381019061013d9190611631565b6106d4565b005b34801561015057600080fd5b5061016b60048036038101906101669190611631565b6107d5565b604051610178919061189f565b60405180910390f35b34801561018d57600080fd5b50610196610814565b6040516101a391906118dc565b60405180910390f35b3480156101b857600080fd5b506101d360048036038101906101ce91906115e8565b61082b565b005b3480156101e157600080fd5b506101ea610981565b6040516101f791906118dc565b60405180910390f35b61021a600480360381019061021591906115e8565b610994565b005b34801561022857600080fd5b50610231610c88565b60405161023e919061189f565b60405180910390f35b34801561025357600080fd5b5061025c610cb1565b6040516102699190611a17565b60405180910390f35b34801561027e57600080fd5b50610287610d24565b6040516102949190611a17565b60405180910390f35b3480156102a957600080fd5b506102b2610d97565b6040516102bf91906118ba565b60405180910390f35b3480156102d457600080fd5b506102dd610ed3565b6040516102ea9190611a17565b60405180910390f35b3480156102ff57600080fd5b50610308610edd565b60405161031591906118ba565b60405180910390f35b34801561032a57600080fd5b50610333610f72565b005b60008054906101000a900473ffffffffffffffffffffffffffffffffffffffff1673ffffffffffffffffffffffffffffffffffffffff163373ffffffffffffffffffffffffffffffffffffffff16146103c3576040517f08c379a00000000000000000000000000000000000000000000000000000000081526004016103ba90611957565b60405180910390fd5b60001515600760009054906101000a900460ff16151514610419576040517f08c379a0000000000000000000000000000000000000000000000000000000008152600401610410906119d7565b60405180910390fd5b60008060009054906101000a900473ffffffffffffffffffffffffffffffffffffffff169050600060045411610484576040517f08c379a000000000000000000000000000000000000000000000000000000000815260040161047b906118f7565b60405180910390fd5b8073ffffffffffffffffffffffffffffffffffffffff166108fc6004549081150290604051600060405180830381858888f193505050501580156104cc573d6000803e3d6000fd5b50600060048190555050565b60008054906101000a900473ffffffffffffffffffffffffffffffffffffffff1673ffffffffffffffffffffffffffffffffffffffff163373ffffffffffffffffffffffffffffffffffffffff1614610566576040517f08c379a000000000000000000000000000000000000000000000000000000000815260040161055d90611957565b60405180910390fd5b60001515600760009054906101000a900460ff161515146105bc576040517f08c379a00000000000000000000000000000000000000000000000000000000081526004016105b3906119d7565b60405180910390fd5b6001600760006101000a81548160ff021916908315150217905550600667ffffffffffffffff8111156105f2576105f1611d6c565b5b6040519080825280602002602001820160405280156106205781602001602082028036833780820191505090505b5060019080519060200190610636929190611420565b506000805b60068110156106d0576000600a44428460405160200161065d93929190611862565b6040516020818303038152906040528051906020012060001c6106809190611cae565b9050600081146106bc57806001848154811061069f5761069e611d3d565b5b906000526020600020018190555082806106b890611c5b565b9350505b5080806106c890611c5b565b91505061063b565b5050565b60008054906101000a900473ffffffffffffffffffffffffffffffffffffffff1673ffffffffffffffffffffffffffffffffffffffff163373ffffffffffffffffffffffffffffffffffffffff1614610762576040517f08c379a000000000000000000000000000000000000000000000000000000000815260040161075990611957565b60405180910390fd5b60001515600760009054906101000a900460ff161515146107b8576040517f08c379a00000000000000000000000000000000000000000000000000000000081526004016107af906119d7565b60405180910390fd5b670de0b6b3a7640000816107cc9190611b54565b60038190555050565b600681815481106107e557600080fd5b906000526020600020016000915054906101000a900473ffffffffffffffffffffffffffffffffffffffff1681565b6000600760009054906101000a900460ff16905090565b60008054906101000a900473ffffffffffffffffffffffffffffffffffffffff1673ffffffffffffffffffffffffffffffffffffffff163373ffffffffffffffffffffffffffffffffffffffff16146108b9576040517f08c379a00000000000000000000000000000000000000000000000000000000081526004016108b090611957565b60405180910390fd5b60008054906101000a900473ffffffffffffffffffffffffffffffffffffffff1673ffffffffffffffffffffffffffffffffffffffff163373ffffffffffffffffffffffffffffffffffffffff161461091157600080fd5b600681511461091f57600080fd5b60005b81518110156109665760098282815181106109405761093f611d3d565b5b6020026020010151111561095357600080fd5b808061095e90611c5b565b915050610922565b50806001908051906020019061097d929190611420565b5050565b600760009054906101000a900460ff1681565b60011515600760009054906101000a900460ff161515146109ea576040517f08c379a00000000000000000000000000000000000000000000000000000000081526004016109e190611977565b60405180910390fd5b6003543414610a2e576040517f08c379a0000000000000000000000000000000000000000000000000000000008152600401610a25906119f7565b60405180910390fd5b6006815114610a72576040517f08c379a0000000000000000000000000000000000000000000000000000000008152600401610a69906119b7565b60405180910390fd5b60005b8151811015610b1557600a828281518110610a9357610a92611d3d565b5b6020026020010151108015610ac357506000828281518110610ab857610ab7611d3d565b5b602002602001015110155b610b02576040517f08c379a0000000000000000000000000000000000000000000000000000000008152600401610af990611997565b60405180910390fd5b8080610b0d90611c5b565b915050610a75565b506000600260003373ffffffffffffffffffffffffffffffffffffffff1673ffffffffffffffffffffffffffffffffffffffff1681526020019081526020016000208054905014610b9b576040517f08c379a0000000000000000000000000000000000000000000000000000000008152600401610b9290611937565b60405180910390fd5b80600260003373ffffffffffffffffffffffffffffffffffffffff1673ffffffffffffffffffffffffffffffffffffffff1681526020019081526020016000209080519060200190610bee929190611420565b506006339080600181540180825580915050600190039060005260206000200160009091909190916101000a81548173ffffffffffffffffffffffffffffffffffffffff021916908373ffffffffffffffffffffffffffffffffffffffff1602179055503460046000828254610c649190611acd565b92505081905550600160056000828254610c7e9190611acd565b9250508190555050565b60008060009054906101000a900473ffffffffffffffffffffffffffffffffffffffff16905090565b600060011515600760009054906101000a900460ff16151514610d09576040517f08c379a0000000000000000000000000000000000000000000000000000000008152600401610d0090611977565b60405180910390fd5b670de0b6b3a7640000600354610d1f9190611b23565b905090565b600060011515600760009054906101000a900460ff16151514610d7c576040517f08c379a0000000000000000000000000000000000000000000000000000000008152600401610d7390611977565b60405180910390fd5b670de0b6b3a7640000600454610d929190611b23565b905090565b606060008054906101000a900473ffffffffffffffffffffffffffffffffffffffff1673ffffffffffffffffffffffffffffffffffffffff163373ffffffffffffffffffffffffffffffffffffffff1614610e27576040517f08c379a0000000000000000000000000000000000000000000000000000000008152600401610e1e90611957565b60405180910390fd5b60011515600760009054906101000a900460ff16151514610e7d576040517f08c379a0000000000000000000000000000000000000000000000000000000008152600401610e7490611977565b60405180910390fd5b6001805480602002602001604051908101604052809291908181526020018280548015610ec957602002820191906000526020600020905b815481526020019060010190808311610eb5575b5050505050905090565b6000600554905090565b6060600260003373ffffffffffffffffffffffffffffffffffffffff1673ffffffffffffffffffffffffffffffffffffffff168152602001908152602001600020805480602002602001604051908101604052809291908181526020018280548015610f6857602002820191906000526020600020905b815481526020019060010190808311610f54575b5050505050905090565b60008054906101000a900473ffffffffffffffffffffffffffffffffffffffff1673ffffffffffffffffffffffffffffffffffffffff163373ffffffffffffffffffffffffffffffffffffffff1614611000576040517f08c379a0000000000000000000000000000000000000000000000000000000008152600401610ff790611957565b60405180910390fd5b60011515600760009054906101000a900460ff16151514611056576040517f08c379a000000000000000000000000000000000000000000000000000000000815260040161104d90611977565b60405180910390fd5b60006005541161109b576040517f08c379a000000000000000000000000000000000000000000000000000000000815260040161109290611917565b60405180910390fd5b600080600080600080600090505b6006805490508110156113785760005b6001805490508110156111b057600181815481106110da576110d9611d3d565b5b906000526020600020015460026000600685815481106110fd576110fc611d3d565b5b9060005260206000200160009054906101000a900473ffffffffffffffffffffffffffffffffffffffff1673ffffffffffffffffffffffffffffffffffffffff1673ffffffffffffffffffffffffffffffffffffffff168152602001908152602001600020828154811061117457611173611d3d565b5b9060005260206000200154141561119857868061119090611c5b565b97505061119d565b6111b0565b80806111a890611c5b565b9150506110b9565b5060026000600683815481106111c9576111c8611d3d565b5b9060005260206000200160009054906101000a900473ffffffffffffffffffffffffffffffffffffffff1673ffffffffffffffffffffffffffffffffffffffff1673ffffffffffffffffffffffffffffffffffffffff168152602001908152602001600020600061123a919061146d565b600186141561124c57600294506112a7565b600286141561125e57600394506112a6565b600386141561127057600594506112a5565b600486141561128257600a94506112a4565b600586141561129457601494506112a3565b60068614156112a257602894505b5b5b5b5b5b6064856004546112b79190611b54565b6112c19190611b23565b935083836112cf9190611acd565b9250600681815481106112e5576112e4611d3d565b5b9060005260206000200160009054906101000a900473ffffffffffffffffffffffffffffffffffffffff1691508173ffffffffffffffffffffffffffffffffffffffff166108fc859081150290604051600060405180830381858888f19350505050158015611358573d6000803e3d6000fd5b50600095506000945060009350808061137090611c5b565b9150506110a9565b50600060058190555081600460008282546113939190611bae565b92505081905550600067ffffffffffffffff8111156113b5576113b4611d6c565b5b6040519080825280602002602001820160405280156113e35781602001602082028036833780820191505090505b50600690805190602001906113f992919061148e565b50600090506000600760006101000a81548160ff0219169083151502179055505050505050565b82805482825590600052602060002090810192821561145c579160200282015b8281111561145b578251825591602001919060010190611440565b5b5090506114699190611518565b5090565b508054600082559060005260206000209081019061148b9190611518565b50565b828054828255906000526020600020908101928215611507579160200282015b828111156115065782518260006101000a81548173ffffffffffffffffffffffffffffffffffffffff021916908373ffffffffffffffffffffffffffffffffffffffff160217905550916020019190600101906114ae565b5b5090506115149190611518565b5090565b5b80821115611531576000816000905550600101611519565b5090565b600061154861154384611a57565b611a32565b9050808382526020820190508285602086028201111561156b5761156a611da0565b5b60005b8581101561159b578161158188826115d3565b84526020840193506020830192505060018101905061156e565b5050509392505050565b600082601f8301126115ba576115b9611d9b565b5b81356115ca848260208601611535565b91505092915050565b6000813590506115e281611f57565b92915050565b6000602082840312156115fe576115fd611daa565b5b600082013567ffffffffffffffff81111561161c5761161b611da5565b5b611628848285016115a5565b91505092915050565b60006020828403121561164757611646611daa565b5b6000611655848285016115d3565b91505092915050565b600061166a838361182d565b60208301905092915050565b61167f81611be2565b82525050565b600061169082611a93565b61169a8185611aab565b93506116a583611a83565b8060005b838110156116d65781516116bd888261165e565b97506116c883611a9e565b9250506001810190506116a9565b5085935050505092915050565b6116ec81611bf4565b82525050565b60006116ff601483611abc565b915061170a82611dc0565b602082019050919050565b6000611722601183611abc565b915061172d82611de9565b602082019050919050565b6000611745602083611abc565b915061175082611e12565b602082019050919050565b6000611768602683611abc565b915061177382611e3b565b604082019050919050565b600061178b601583611abc565b915061179682611e8a565b602082019050919050565b60006117ae600c83611abc565b91506117b982611eb3565b602082019050919050565b60006117d1601783611abc565b91506117dc82611edc565b602082019050919050565b60006117f4601483611abc565b91506117ff82611f05565b602082019050919050565b6000611817600c83611abc565b915061182282611f2e565b602082019050919050565b61183681611c20565b82525050565b61184581611c20565b82525050565b61185c61185782611c20565b611ca4565b82525050565b600061186e828661184b565b60208201915061187e828561184b565b60208201915061188e828461184b565b602082019150819050949350505050565b60006020820190506118b46000830184611676565b92915050565b600060208201905081810360008301526118d48184611685565b905092915050565b60006020820190506118f160008301846116e3565b92915050565b60006020820190508181036000830152611910816116f2565b9050919050565b6000602082019050818103600083015261193081611715565b9050919050565b6000602082019050818103600083015261195081611738565b9050919050565b600060208201905081810360008301526119708161175b565b9050919050565b600060208201905081810360008301526119908161177e565b9050919050565b600060208201905081810360008301526119b0816117a1565b9050919050565b600060208201905081810360008301526119d0816117c4565b9050919050565b600060208201905081810360008301526119f0816117e7565b9050919050565b60006020820190508181036000830152611a108161180a565b9050919050565b6000602082019050611a2c600083018461183c565b92915050565b6000611a3c611a4d565b9050611a488282611c2a565b919050565b6000604051905090565b600067ffffffffffffffff821115611a7257611a71611d6c565b5b602082029050602081019050919050565b6000819050602082019050919050565b600081519050919050565b6000602082019050919050565b600082825260208201905092915050565b600082825260208201905092915050565b6000611ad882611c20565b9150611ae383611c20565b9250827fffffffffffffffffffffffffffffffffffffffffffffffffffffffffffffffff03821115611b1857611b17611cdf565b5b828201905092915050565b6000611b2e82611c20565b9150611b3983611c20565b925082611b4957611b48611d0e565b5b828204905092915050565b6000611b5f82611c20565b9150611b6a83611c20565b9250817fffffffffffffffffffffffffffffffffffffffffffffffffffffffffffffffff0483118215151615611ba357611ba2611cdf565b5b828202905092915050565b6000611bb982611c20565b9150611bc483611c20565b925082821015611bd757611bd6611cdf565b5b828203905092915050565b6000611bed82611c00565b9050919050565b60008115159050919050565b600073ffffffffffffffffffffffffffffffffffffffff82169050919050565b6000819050919050565b611c3382611daf565b810181811067ffffffffffffffff82111715611c5257611c51611d6c565b5b80604052505050565b6000611c6682611c20565b91507fffffffffffffffffffffffffffffffffffffffffffffffffffffffffffffffff821415611c9957611c98611cdf565b5b600182019050919050565b6000819050919050565b6000611cb982611c20565b9150611cc483611c20565b925082611cd457611cd3611d0e565b5b828206905092915050565b7f4e487b7100000000000000000000000000000000000000000000000000000000600052601160045260246000fd5b7f4e487b7100000000000000000000000000000000000000000000000000000000600052601260045260246000fd5b7f4e487b7100000000000000000000000000000000000000000000000000000000600052603260045260246000fd5b7f4e487b7100000000000000000000000000000000000000000000000000000000600052604160045260246000fd5b600080fd5b600080fd5b600080fd5b600080fd5b6000601f19601f8301169050919050565b7f4e6f20457468657220746f2070756c6c206f7574000000000000000000000000600082015250565b7f4e6f207469636b65742077617320626f75000000000000000000000000000000600082015250565b7f596f75206861766520616c726561647920626f756768742061207469636b6574600082015250565b7f4f6e6c7920746865206f776e65722063616e20706572666f726d20746869732060008201527f616374696f6e0000000000000000000000000000000000000000000000000000602082015250565b7f4e6f206c6f74746572792069732072756e6e696e670000000000000000000000600082015250565b7f57726f6e67206e756d6265720000000000000000000000000000000000000000600082015250565b7f57726f6e67206e756d626572206f66206e756d62657273000000000000000000600082015250565b7f41206c6f74746572792069732072756e6e696e67000000000000000000000000600082015250565b7f57726f6e6720616d6f756e740000000000000000000000000000000000000000600082015250565b611f6081611c20565b8114611f6b57600080fd5b5056fea2646970667358221220fc18555ed0f970707a7ff4965a26413e8e8df3688b8b64c055c629c4a9d4c7c464736f6c63430008070033",
					"opcodes": "PUSH1 0x80 PUSH1 0x40 MSTORE PUSH8 0x4563918244F40000 PUSH1 0x3 SSTORE PUSH1 0x0 PUSH1 0x5 SSTORE PUSH1 0x0 PUSH1 0x7 PUSH1 0x0 PUSH2 0x100 EXP DUP2 SLOAD DUP2 PUSH1 0xFF MUL NOT AND SWAP1 DUP4 ISZERO ISZERO MUL OR SWAP1 SSTORE POP CALLVALUE DUP1 ISZERO PUSH2 0x3C JUMPI PUSH1 0x0 DUP1 REVERT JUMPDEST POP CALLER PUSH1 0x0 DUP1 PUSH2 0x100 EXP DUP2 SLOAD DUP2 PUSH20 0xFFFFFFFFFFFFFFFFFFFFFFFFFFFFFFFFFFFFFFFF MUL NOT AND SWAP1 DUP4 PUSH20 0xFFFFFFFFFFFFFFFFFFFFFFFFFFFFFFFFFFFFFFFF AND MUL OR SWAP1 SSTORE POP PUSH2 0x1FA4 DUP1 PUSH2 0x8C PUSH1 0x0 CODECOPY PUSH1 0x0 RETURN INVALID PUSH1 0x80 PUSH1 0x40 MSTORE PUSH1 0x4 CALLDATASIZE LT PUSH2 0xE8 JUMPI PUSH1 0x0 CALLDATALOAD PUSH1 0xE0 SHR DUP1 PUSH4 0x716CAC96 GT PUSH2 0x8A JUMPI DUP1 PUSH4 0x8B0B9ED4 GT PUSH2 0x59 JUMPI DUP1 PUSH4 0x8B0B9ED4 EQ PUSH2 0x29D JUMPI DUP1 PUSH4 0xA1BB96A1 EQ PUSH2 0x2C8 JUMPI DUP1 PUSH4 0xA650FBAB EQ PUSH2 0x2F3 JUMPI DUP1 PUSH4 0xB04A3F1C EQ PUSH2 0x31E JUMPI PUSH2 0xE8 JUMP JUMPDEST DUP1 PUSH4 0x716CAC96 EQ PUSH2 0x200 JUMPI DUP1 PUSH4 0x7F17B05D EQ PUSH2 0x21C JUMPI DUP1 PUSH4 0x87BB7AE0 EQ PUSH2 0x247 JUMPI DUP1 PUSH4 0x8A4A29C3 EQ PUSH2 0x272 JUMPI PUSH2 0xE8 JUMP JUMPDEST DUP1 PUSH4 0x472016DA GT PUSH2 0xC6 JUMPI DUP1 PUSH4 0x472016DA EQ PUSH2 0x144 JUMPI DUP1 PUSH4 0x4C75E3F1 EQ PUSH2 0x181 JUMPI DUP1 PUSH4 0x4EFD7CCA EQ PUSH2 0x1AC JUMPI DUP1 PUSH4 0x5A3811B9 EQ PUSH2 0x1D5 JUMPI PUSH2 0xE8 JUMP JUMPDEST DUP1 PUSH4 0x30DAEC49 EQ PUSH2 0xED JUMPI DUP1 PUSH4 0x36C1EC23 EQ PUSH2 0x104 JUMPI DUP1 PUSH4 0x4630A0EE EQ PUSH2 0x11B JUMPI JUMPDEST PUSH1 0x0 DUP1 REVERT JUMPDEST CALLVALUE DUP1 ISZERO PUSH2 0xF9 JUMPI PUSH1 0x0 DUP1 REVERT JUMPDEST POP PUSH2 0x102 PUSH2 0x335 JUMP JUMPDEST STOP JUMPDEST CALLVALUE DUP1 ISZERO PUSH2 0x110 JUMPI PUSH1 0x0 DUP1 REVERT JUMPDEST POP PUSH2 0x119 PUSH2 0x4D8 JUMP JUMPDEST STOP JUMPDEST CALLVALUE DUP1 ISZERO PUSH2 0x127 JUMPI PUSH1 0x0 DUP1 REVERT JUMPDEST POP PUSH2 0x142 PUSH1 0x4 DUP1 CALLDATASIZE SUB DUP2 ADD SWAP1 PUSH2 0x13D SWAP2 SWAP1 PUSH2 0x1631 JUMP JUMPDEST PUSH2 0x6D4 JUMP JUMPDEST STOP JUMPDEST CALLVALUE DUP1 ISZERO PUSH2 0x150 JUMPI PUSH1 0x0 DUP1 REVERT JUMPDEST POP PUSH2 0x16B PUSH1 0x4 DUP1 CALLDATASIZE SUB DUP2 ADD SWAP1 PUSH2 0x166 SWAP2 SWAP1 PUSH2 0x1631 JUMP JUMPDEST PUSH2 0x7D5 JUMP JUMPDEST PUSH1 0x40 MLOAD PUSH2 0x178 SWAP2 SWAP1 PUSH2 0x189F JUMP JUMPDEST PUSH1 0x40 MLOAD DUP1 SWAP2 SUB SWAP1 RETURN JUMPDEST CALLVALUE DUP1 ISZERO PUSH2 0x18D JUMPI PUSH1 0x0 DUP1 REVERT JUMPDEST POP PUSH2 0x196 PUSH2 0x814 JUMP JUMPDEST PUSH1 0x40 MLOAD PUSH2 0x1A3 SWAP2 SWAP1 PUSH2 0x18DC JUMP JUMPDEST PUSH1 0x40 MLOAD DUP1 SWAP2 SUB SWAP1 RETURN JUMPDEST CALLVALUE DUP1 ISZERO PUSH2 0x1B8 JUMPI PUSH1 0x0 DUP1 REVERT JUMPDEST POP PUSH2 0x1D3 PUSH1 0x4 DUP1 CALLDATASIZE SUB DUP2 ADD SWAP1 PUSH2 0x1CE SWAP2 SWAP1 PUSH2 0x15E8 JUMP JUMPDEST PUSH2 0x82B JUMP JUMPDEST STOP JUMPDEST CALLVALUE DUP1 ISZERO PUSH2 0x1E1 JUMPI PUSH1 0x0 DUP1 REVERT JUMPDEST POP PUSH2 0x1EA PUSH2 0x981 JUMP JUMPDEST PUSH1 0x40 MLOAD PUSH2 0x1F7 SWAP2 SWAP1 PUSH2 0x18DC JUMP JUMPDEST PUSH1 0x40 MLOAD DUP1 SWAP2 SUB SWAP1 RETURN JUMPDEST PUSH2 0x21A PUSH1 0x4 DUP1 CALLDATASIZE SUB DUP2 ADD SWAP1 PUSH2 0x215 SWAP2 SWAP1 PUSH2 0x15E8 JUMP JUMPDEST PUSH2 0x994 JUMP JUMPDEST STOP JUMPDEST CALLVALUE DUP1 ISZERO PUSH2 0x228 JUMPI PUSH1 0x0 DUP1 REVERT JUMPDEST POP PUSH2 0x231 PUSH2 0xC88 JUMP JUMPDEST PUSH1 0x40 MLOAD PUSH2 0x23E SWAP2 SWAP1 PUSH2 0x189F JUMP JUMPDEST PUSH1 0x40 MLOAD DUP1 SWAP2 SUB SWAP1 RETURN JUMPDEST CALLVALUE DUP1 ISZERO PUSH2 0x253 JUMPI PUSH1 0x0 DUP1 REVERT JUMPDEST POP PUSH2 0x25C PUSH2 0xCB1 JUMP JUMPDEST PUSH1 0x40 MLOAD PUSH2 0x269 SWAP2 SWAP1 PUSH2 0x1A17 JUMP JUMPDEST PUSH1 0x40 MLOAD DUP1 SWAP2 SUB SWAP1 RETURN JUMPDEST CALLVALUE DUP1 ISZERO PUSH2 0x27E JUMPI PUSH1 0x0 DUP1 REVERT JUMPDEST POP PUSH2 0x287 PUSH2 0xD24 JUMP JUMPDEST PUSH1 0x40 MLOAD PUSH2 0x294 SWAP2 SWAP1 PUSH2 0x1A17 JUMP JUMPDEST PUSH1 0x40 MLOAD DUP1 SWAP2 SUB SWAP1 RETURN JUMPDEST CALLVALUE DUP1 ISZERO PUSH2 0x2A9 JUMPI PUSH1 0x0 DUP1 REVERT JUMPDEST POP PUSH2 0x2B2 PUSH2 0xD97 JUMP JUMPDEST PUSH1 0x40 MLOAD PUSH2 0x2BF SWAP2 SWAP1 PUSH2 0x18BA JUMP JUMPDEST PUSH1 0x40 MLOAD DUP1 SWAP2 SUB SWAP1 RETURN JUMPDEST CALLVALUE DUP1 ISZERO PUSH2 0x2D4 JUMPI PUSH1 0x0 DUP1 REVERT JUMPDEST POP PUSH2 0x2DD PUSH2 0xED3 JUMP JUMPDEST PUSH1 0x40 MLOAD PUSH2 0x2EA SWAP2 SWAP1 PUSH2 0x1A17 JUMP JUMPDEST PUSH1 0x40 MLOAD DUP1 SWAP2 SUB SWAP1 RETURN JUMPDEST CALLVALUE DUP1 ISZERO PUSH2 0x2FF JUMPI PUSH1 0x0 DUP1 REVERT JUMPDEST POP PUSH2 0x308 PUSH2 0xEDD JUMP JUMPDEST PUSH1 0x40 MLOAD PUSH2 0x315 SWAP2 SWAP1 PUSH2 0x18BA JUMP JUMPDEST PUSH1 0x40 MLOAD DUP1 SWAP2 SUB SWAP1 RETURN JUMPDEST CALLVALUE DUP1 ISZERO PUSH2 0x32A JUMPI PUSH1 0x0 DUP1 REVERT JUMPDEST POP PUSH2 0x333 PUSH2 0xF72 JUMP JUMPDEST STOP JUMPDEST PUSH1 0x0 DUP1 SLOAD SWAP1 PUSH2 0x100 EXP SWAP1 DIV PUSH20 0xFFFFFFFFFFFFFFFFFFFFFFFFFFFFFFFFFFFFFFFF AND PUSH20 0xFFFFFFFFFFFFFFFFFFFFFFFFFFFFFFFFFFFFFFFF AND CALLER PUSH20 0xFFFFFFFFFFFFFFFFFFFFFFFFFFFFFFFFFFFFFFFF AND EQ PUSH2 0x3C3 JUMPI PUSH1 0x40 MLOAD PUSH32 0x8C379A000000000000000000000000000000000000000000000000000000000 DUP2 MSTORE PUSH1 0x4 ADD PUSH2 0x3BA SWAP1 PUSH2 0x1957 JUMP JUMPDEST PUSH1 0x40 MLOAD DUP1 SWAP2 SUB SWAP1 REVERT JUMPDEST PUSH1 0x0 ISZERO ISZERO PUSH1 0x7 PUSH1 0x0 SWAP1 SLOAD SWAP1 PUSH2 0x100 EXP SWAP1 DIV PUSH1 0xFF AND ISZERO ISZERO EQ PUSH2 0x419 JUMPI PUSH1 0x40 MLOAD PUSH32 0x8C379A000000000000000000000000000000000000000000000000000000000 DUP2 MSTORE PUSH1 0x4 ADD PUSH2 0x410 SWAP1 PUSH2 0x19D7 JUMP JUMPDEST PUSH1 0x40 MLOAD DUP1 SWAP2 SUB SWAP1 REVERT JUMPDEST PUSH1 0x0 DUP1 PUSH1 0x0 SWAP1 SLOAD SWAP1 PUSH2 0x100 EXP SWAP1 DIV PUSH20 0xFFFFFFFFFFFFFFFFFFFFFFFFFFFFFFFFFFFFFFFF AND SWAP1 POP PUSH1 0x0 PUSH1 0x4 SLOAD GT PUSH2 0x484 JUMPI PUSH1 0x40 MLOAD PUSH32 0x8C379A000000000000000000000000000000000000000000000000000000000 DUP2 MSTORE PUSH1 0x4 ADD PUSH2 0x47B SWAP1 PUSH2 0x18F7 JUMP JUMPDEST PUSH1 0x40 MLOAD DUP1 SWAP2 SUB SWAP1 REVERT JUMPDEST DUP1 PUSH20 0xFFFFFFFFFFFFFFFFFFFFFFFFFFFFFFFFFFFFFFFF AND PUSH2 0x8FC PUSH1 0x4 SLOAD SWAP1 DUP2 ISZERO MUL SWAP1 PUSH1 0x40 MLOAD PUSH1 0x0 PUSH1 0x40 MLOAD DUP1 DUP4 SUB DUP2 DUP6 DUP9 DUP9 CALL SWAP4 POP POP POP POP ISZERO DUP1 ISZERO PUSH2 0x4CC JUMPI RETURNDATASIZE PUSH1 0x0 DUP1 RETURNDATACOPY RETURNDATASIZE PUSH1 0x0 REVERT JUMPDEST POP PUSH1 0x0 PUSH1 0x4 DUP2 SWAP1 SSTORE POP POP JUMP JUMPDEST PUSH1 0x0 DUP1 SLOAD SWAP1 PUSH2 0x100 EXP SWAP1 DIV PUSH20 0xFFFFFFFFFFFFFFFFFFFFFFFFFFFFFFFFFFFFFFFF AND PUSH20 0xFFFFFFFFFFFFFFFFFFFFFFFFFFFFFFFFFFFFFFFF AND CALLER PUSH20 0xFFFFFFFFFFFFFFFFFFFFFFFFFFFFFFFFFFFFFFFF AND EQ PUSH2 0x566 JUMPI PUSH1 0x40 MLOAD PUSH32 0x8C379A000000000000000000000000000000000000000000000000000000000 DUP2 MSTORE PUSH1 0x4 ADD PUSH2 0x55D SWAP1 PUSH2 0x1957 JUMP JUMPDEST PUSH1 0x40 MLOAD DUP1 SWAP2 SUB SWAP1 REVERT JUMPDEST PUSH1 0x0 ISZERO ISZERO PUSH1 0x7 PUSH1 0x0 SWAP1 SLOAD SWAP1 PUSH2 0x100 EXP SWAP1 DIV PUSH1 0xFF AND ISZERO ISZERO EQ PUSH2 0x5BC JUMPI PUSH1 0x40 MLOAD PUSH32 0x8C379A000000000000000000000000000000000000000000000000000000000 DUP2 MSTORE PUSH1 0x4 ADD PUSH2 0x5B3 SWAP1 PUSH2 0x19D7 JUMP JUMPDEST PUSH1 0x40 MLOAD DUP1 SWAP2 SUB SWAP1 REVERT JUMPDEST PUSH1 0x1 PUSH1 0x7 PUSH1 0x0 PUSH2 0x100 EXP DUP2 SLOAD DUP2 PUSH1 0xFF MUL NOT AND SWAP1 DUP4 ISZERO ISZERO MUL OR SWAP1 SSTORE POP PUSH1 0x6 PUSH8 0xFFFFFFFFFFFFFFFF DUP2 GT ISZERO PUSH2 0x5F2 JUMPI PUSH2 0x5F1 PUSH2 0x1D6C JUMP JUMPDEST JUMPDEST PUSH1 0x40 MLOAD SWAP1 DUP1 DUP3 MSTORE DUP1 PUSH1 0x20 MUL PUSH1 0x20 ADD DUP3 ADD PUSH1 0x40 MSTORE DUP1 ISZERO PUSH2 0x620 JUMPI DUP2 PUSH1 0x20 ADD PUSH1 0x20 DUP3 MUL DUP1 CALLDATASIZE DUP4 CALLDATACOPY DUP1 DUP3 ADD SWAP2 POP POP SWAP1 POP JUMPDEST POP PUSH1 0x1 SWAP1 DUP1 MLOAD SWAP1 PUSH1 0x20 ADD SWAP1 PUSH2 0x636 SWAP3 SWAP2 SWAP1 PUSH2 0x1420 JUMP JUMPDEST POP PUSH1 0x0 DUP1 JUMPDEST PUSH1 0x6 DUP2 LT ISZERO PUSH2 0x6D0 JUMPI PUSH1 0x0 PUSH1 0xA DIFFICULTY TIMESTAMP DUP5 PUSH1 0x40 MLOAD PUSH1 0x20 ADD PUSH2 0x65D SWAP4 SWAP3 SWAP2 SWAP1 PUSH2 0x1862 JUMP JUMPDEST PUSH1 0x40 MLOAD PUSH1 0x20 DUP2 DUP4 SUB SUB DUP2 MSTORE SWAP1 PUSH1 0x40 MSTORE DUP1 MLOAD SWAP1 PUSH1 0x20 ADD KECCAK256 PUSH1 0x0 SHR PUSH2 0x680 SWAP2 SWAP1 PUSH2 0x1CAE JUMP JUMPDEST SWAP1 POP PUSH1 0x0 DUP2 EQ PUSH2 0x6BC JUMPI DUP1 PUSH1 0x1 DUP5 DUP2 SLOAD DUP2 LT PUSH2 0x69F JUMPI PUSH2 0x69E PUSH2 0x1D3D JUMP JUMPDEST JUMPDEST SWAP1 PUSH1 0x0 MSTORE PUSH1 0x20 PUSH1 0x0 KECCAK256 ADD DUP2 SWAP1 SSTORE POP DUP3 DUP1 PUSH2 0x6B8 SWAP1 PUSH2 0x1C5B JUMP JUMPDEST SWAP4 POP POP JUMPDEST POP DUP1 DUP1 PUSH2 0x6C8 SWAP1 PUSH2 0x1C5B JUMP JUMPDEST SWAP2 POP POP PUSH2 0x63B JUMP JUMPDEST POP POP JUMP JUMPDEST PUSH1 0x0 DUP1 SLOAD SWAP1 PUSH2 0x100 EXP SWAP1 DIV PUSH20 0xFFFFFFFFFFFFFFFFFFFFFFFFFFFFFFFFFFFFFFFF AND PUSH20 0xFFFFFFFFFFFFFFFFFFFFFFFFFFFFFFFFFFFFFFFF AND CALLER PUSH20 0xFFFFFFFFFFFFFFFFFFFFFFFFFFFFFFFFFFFFFFFF AND EQ PUSH2 0x762 JUMPI PUSH1 0x40 MLOAD PUSH32 0x8C379A000000000000000000000000000000000000000000000000000000000 DUP2 MSTORE PUSH1 0x4 ADD PUSH2 0x759 SWAP1 PUSH2 0x1957 JUMP JUMPDEST PUSH1 0x40 MLOAD DUP1 SWAP2 SUB SWAP1 REVERT JUMPDEST PUSH1 0x0 ISZERO ISZERO PUSH1 0x7 PUSH1 0x0 SWAP1 SLOAD SWAP1 PUSH2 0x100 EXP SWAP1 DIV PUSH1 0xFF AND ISZERO ISZERO EQ PUSH2 0x7B8 JUMPI PUSH1 0x40 MLOAD PUSH32 0x8C379A000000000000000000000000000000000000000000000000000000000 DUP2 MSTORE PUSH1 0x4 ADD PUSH2 0x7AF SWAP1 PUSH2 0x19D7 JUMP JUMPDEST PUSH1 0x40 MLOAD DUP1 SWAP2 SUB SWAP1 REVERT JUMPDEST PUSH8 0xDE0B6B3A7640000 DUP2 PUSH2 0x7CC SWAP2 SWAP1 PUSH2 0x1B54 JUMP JUMPDEST PUSH1 0x3 DUP2 SWAP1 SSTORE POP POP JUMP JUMPDEST PUSH1 0x6 DUP2 DUP2 SLOAD DUP2 LT PUSH2 0x7E5 JUMPI PUSH1 0x0 DUP1 REVERT JUMPDEST SWAP1 PUSH1 0x0 MSTORE PUSH1 0x20 PUSH1 0x0 KECCAK256 ADD PUSH1 0x0 SWAP2 POP SLOAD SWAP1 PUSH2 0x100 EXP SWAP1 DIV PUSH20 0xFFFFFFFFFFFFFFFFFFFFFFFFFFFFFFFFFFFFFFFF AND DUP2 JUMP JUMPDEST PUSH1 0x0 PUSH1 0x7 PUSH1 0x0 SWAP1 SLOAD SWAP1 PUSH2 0x100 EXP SWAP1 DIV PUSH1 0xFF AND SWAP1 POP SWAP1 JUMP JUMPDEST PUSH1 0x0 DUP1 SLOAD SWAP1 PUSH2 0x100 EXP SWAP1 DIV PUSH20 0xFFFFFFFFFFFFFFFFFFFFFFFFFFFFFFFFFFFFFFFF AND PUSH20 0xFFFFFFFFFFFFFFFFFFFFFFFFFFFFFFFFFFFFFFFF AND CALLER PUSH20 0xFFFFFFFFFFFFFFFFFFFFFFFFFFFFFFFFFFFFFFFF AND EQ PUSH2 0x8B9 JUMPI PUSH1 0x40 MLOAD PUSH32 0x8C379A000000000000000000000000000000000000000000000000000000000 DUP2 MSTORE PUSH1 0x4 ADD PUSH2 0x8B0 SWAP1 PUSH2 0x1957 JUMP JUMPDEST PUSH1 0x40 MLOAD DUP1 SWAP2 SUB SWAP1 REVERT JUMPDEST PUSH1 0x0 DUP1 SLOAD SWAP1 PUSH2 0x100 EXP SWAP1 DIV PUSH20 0xFFFFFFFFFFFFFFFFFFFFFFFFFFFFFFFFFFFFFFFF AND PUSH20 0xFFFFFFFFFFFFFFFFFFFFFFFFFFFFFFFFFFFFFFFF AND CALLER PUSH20 0xFFFFFFFFFFFFFFFFFFFFFFFFFFFFFFFFFFFFFFFF AND EQ PUSH2 0x911 JUMPI PUSH1 0x0 DUP1 REVERT JUMPDEST PUSH1 0x6 DUP2 MLOAD EQ PUSH2 0x91F JUMPI PUSH1 0x0 DUP1 REVERT JUMPDEST PUSH1 0x0 JUMPDEST DUP2 MLOAD DUP2 LT ISZERO PUSH2 0x966 JUMPI PUSH1 0x9 DUP3 DUP3 DUP2 MLOAD DUP2 LT PUSH2 0x940 JUMPI PUSH2 0x93F PUSH2 0x1D3D JUMP JUMPDEST JUMPDEST PUSH1 0x20 MUL PUSH1 0x20 ADD ADD MLOAD GT ISZERO PUSH2 0x953 JUMPI PUSH1 0x0 DUP1 REVERT JUMPDEST DUP1 DUP1 PUSH2 0x95E SWAP1 PUSH2 0x1C5B JUMP JUMPDEST SWAP2 POP POP PUSH2 0x922 JUMP JUMPDEST POP DUP1 PUSH1 0x1 SWAP1 DUP1 MLOAD SWAP1 PUSH1 0x20 ADD SWAP1 PUSH2 0x97D SWAP3 SWAP2 SWAP1 PUSH2 0x1420 JUMP JUMPDEST POP POP JUMP JUMPDEST PUSH1 0x7 PUSH1 0x0 SWAP1 SLOAD SWAP1 PUSH2 0x100 EXP SWAP1 DIV PUSH1 0xFF AND DUP2 JUMP JUMPDEST PUSH1 0x1 ISZERO ISZERO PUSH1 0x7 PUSH1 0x0 SWAP1 SLOAD SWAP1 PUSH2 0x100 EXP SWAP1 DIV PUSH1 0xFF AND ISZERO ISZERO EQ PUSH2 0x9EA JUMPI PUSH1 0x40 MLOAD PUSH32 0x8C379A000000000000000000000000000000000000000000000000000000000 DUP2 MSTORE PUSH1 0x4 ADD PUSH2 0x9E1 SWAP1 PUSH2 0x1977 JUMP JUMPDEST PUSH1 0x40 MLOAD DUP1 SWAP2 SUB SWAP1 REVERT JUMPDEST PUSH1 0x3 SLOAD CALLVALUE EQ PUSH2 0xA2E JUMPI PUSH1 0x40 MLOAD PUSH32 0x8C379A000000000000000000000000000000000000000000000000000000000 DUP2 MSTORE PUSH1 0x4 ADD PUSH2 0xA25 SWAP1 PUSH2 0x19F7 JUMP JUMPDEST PUSH1 0x40 MLOAD DUP1 SWAP2 SUB SWAP1 REVERT JUMPDEST PUSH1 0x6 DUP2 MLOAD EQ PUSH2 0xA72 JUMPI PUSH1 0x40 MLOAD PUSH32 0x8C379A000000000000000000000000000000000000000000000000000000000 DUP2 MSTORE PUSH1 0x4 ADD PUSH2 0xA69 SWAP1 PUSH2 0x19B7 JUMP JUMPDEST PUSH1 0x40 MLOAD DUP1 SWAP2 SUB SWAP1 REVERT JUMPDEST PUSH1 0x0 JUMPDEST DUP2 MLOAD DUP2 LT ISZERO PUSH2 0xB15 JUMPI PUSH1 0xA DUP3 DUP3 DUP2 MLOAD DUP2 LT PUSH2 0xA93 JUMPI PUSH2 0xA92 PUSH2 0x1D3D JUMP JUMPDEST JUMPDEST PUSH1 0x20 MUL PUSH1 0x20 ADD ADD MLOAD LT DUP1 ISZERO PUSH2 0xAC3 JUMPI POP PUSH1 0x0 DUP3 DUP3 DUP2 MLOAD DUP2 LT PUSH2 0xAB8 JUMPI PUSH2 0xAB7 PUSH2 0x1D3D JUMP JUMPDEST JUMPDEST PUSH1 0x20 MUL PUSH1 0x20 ADD ADD MLOAD LT ISZERO JUMPDEST PUSH2 0xB02 JUMPI PUSH1 0x40 MLOAD PUSH32 0x8C379A000000000000000000000000000000000000000000000000000000000 DUP2 MSTORE PUSH1 0x4 ADD PUSH2 0xAF9 SWAP1 PUSH2 0x1997 JUMP JUMPDEST PUSH1 0x40 MLOAD DUP1 SWAP2 SUB SWAP1 REVERT JUMPDEST DUP1 DUP1 PUSH2 0xB0D SWAP1 PUSH2 0x1C5B JUMP JUMPDEST SWAP2 POP POP PUSH2 0xA75 JUMP JUMPDEST POP PUSH1 0x0 PUSH1 0x2 PUSH1 0x0 CALLER PUSH20 0xFFFFFFFFFFFFFFFFFFFFFFFFFFFFFFFFFFFFFFFF AND PUSH20 0xFFFFFFFFFFFFFFFFFFFFFFFFFFFFFFFFFFFFFFFF AND DUP2 MSTORE PUSH1 0x20 ADD SWAP1 DUP2 MSTORE PUSH1 0x20 ADD PUSH1 0x0 KECCAK256 DUP1 SLOAD SWAP1 POP EQ PUSH2 0xB9B JUMPI PUSH1 0x40 MLOAD PUSH32 0x8C379A000000000000000000000000000000000000000000000000000000000 DUP2 MSTORE PUSH1 0x4 ADD PUSH2 0xB92 SWAP1 PUSH2 0x1937 JUMP JUMPDEST PUSH1 0x40 MLOAD DUP1 SWAP2 SUB SWAP1 REVERT JUMPDEST DUP1 PUSH1 0x2 PUSH1 0x0 CALLER PUSH20 0xFFFFFFFFFFFFFFFFFFFFFFFFFFFFFFFFFFFFFFFF AND PUSH20 0xFFFFFFFFFFFFFFFFFFFFFFFFFFFFFFFFFFFFFFFF AND DUP2 MSTORE PUSH1 0x20 ADD SWAP1 DUP2 MSTORE PUSH1 0x20 ADD PUSH1 0x0 KECCAK256 SWAP1 DUP1 MLOAD SWAP1 PUSH1 0x20 ADD SWAP1 PUSH2 0xBEE SWAP3 SWAP2 SWAP1 PUSH2 0x1420 JUMP JUMPDEST POP PUSH1 0x6 CALLER SWAP1 DUP1 PUSH1 0x1 DUP2 SLOAD ADD DUP1 DUP3 SSTORE DUP1 SWAP2 POP POP PUSH1 0x1 SWAP1 SUB SWAP1 PUSH1 0x0 MSTORE PUSH1 0x20 PUSH1 0x0 KECCAK256 ADD PUSH1 0x0 SWAP1 SWAP2 SWAP1 SWAP2 SWAP1 SWAP2 PUSH2 0x100 EXP DUP2 SLOAD DUP2 PUSH20 0xFFFFFFFFFFFFFFFFFFFFFFFFFFFFFFFFFFFFFFFF MUL NOT AND SWAP1 DUP4 PUSH20 0xFFFFFFFFFFFFFFFFFFFFFFFFFFFFFFFFFFFFFFFF AND MUL OR SWAP1 SSTORE POP CALLVALUE PUSH1 0x4 PUSH1 0x0 DUP3 DUP3 SLOAD PUSH2 0xC64 SWAP2 SWAP1 PUSH2 0x1ACD JUMP JUMPDEST SWAP3 POP POP DUP2 SWAP1 SSTORE POP PUSH1 0x1 PUSH1 0x5 PUSH1 0x0 DUP3 DUP3 SLOAD PUSH2 0xC7E SWAP2 SWAP1 PUSH2 0x1ACD JUMP JUMPDEST SWAP3 POP POP DUP2 SWAP1 SSTORE POP POP JUMP JUMPDEST PUSH1 0x0 DUP1 PUSH1 0x0 SWAP1 SLOAD SWAP1 PUSH2 0x100 EXP SWAP1 DIV PUSH20 0xFFFFFFFFFFFFFFFFFFFFFFFFFFFFFFFFFFFFFFFF AND SWAP1 POP SWAP1 JUMP JUMPDEST PUSH1 0x0 PUSH1 0x1 ISZERO ISZERO PUSH1 0x7 PUSH1 0x0 SWAP1 SLOAD SWAP1 PUSH2 0x100 EXP SWAP1 DIV PUSH1 0xFF AND ISZERO ISZERO EQ PUSH2 0xD09 JUMPI PUSH1 0x40 MLOAD PUSH32 0x8C379A000000000000000000000000000000000000000000000000000000000 DUP2 MSTORE PUSH1 0x4 ADD PUSH2 0xD00 SWAP1 PUSH2 0x1977 JUMP JUMPDEST PUSH1 0x40 MLOAD DUP1 SWAP2 SUB SWAP1 REVERT JUMPDEST PUSH8 0xDE0B6B3A7640000 PUSH1 0x3 SLOAD PUSH2 0xD1F SWAP2 SWAP1 PUSH2 0x1B23 JUMP JUMPDEST SWAP1 POP SWAP1 JUMP JUMPDEST PUSH1 0x0 PUSH1 0x1 ISZERO ISZERO PUSH1 0x7 PUSH1 0x0 SWAP1 SLOAD SWAP1 PUSH2 0x100 EXP SWAP1 DIV PUSH1 0xFF AND ISZERO ISZERO EQ PUSH2 0xD7C JUMPI PUSH1 0x40 MLOAD PUSH32 0x8C379A000000000000000000000000000000000000000000000000000000000 DUP2 MSTORE PUSH1 0x4 ADD PUSH2 0xD73 SWAP1 PUSH2 0x1977 JUMP JUMPDEST PUSH1 0x40 MLOAD DUP1 SWAP2 SUB SWAP1 REVERT JUMPDEST PUSH8 0xDE0B6B3A7640000 PUSH1 0x4 SLOAD PUSH2 0xD92 SWAP2 SWAP1 PUSH2 0x1B23 JUMP JUMPDEST SWAP1 POP SWAP1 JUMP JUMPDEST PUSH1 0x60 PUSH1 0x0 DUP1 SLOAD SWAP1 PUSH2 0x100 EXP SWAP1 DIV PUSH20 0xFFFFFFFFFFFFFFFFFFFFFFFFFFFFFFFFFFFFFFFF AND PUSH20 0xFFFFFFFFFFFFFFFFFFFFFFFFFFFFFFFFFFFFFFFF AND CALLER PUSH20 0xFFFFFFFFFFFFFFFFFFFFFFFFFFFFFFFFFFFFFFFF AND EQ PUSH2 0xE27 JUMPI PUSH1 0x40 MLOAD PUSH32 0x8C379A000000000000000000000000000000000000000000000000000000000 DUP2 MSTORE PUSH1 0x4 ADD PUSH2 0xE1E SWAP1 PUSH2 0x1957 JUMP JUMPDEST PUSH1 0x40 MLOAD DUP1 SWAP2 SUB SWAP1 REVERT JUMPDEST PUSH1 0x1 ISZERO ISZERO PUSH1 0x7 PUSH1 0x0 SWAP1 SLOAD SWAP1 PUSH2 0x100 EXP SWAP1 DIV PUSH1 0xFF AND ISZERO ISZERO EQ PUSH2 0xE7D JUMPI PUSH1 0x40 MLOAD PUSH32 0x8C379A000000000000000000000000000000000000000000000000000000000 DUP2 MSTORE PUSH1 0x4 ADD PUSH2 0xE74 SWAP1 PUSH2 0x1977 JUMP JUMPDEST PUSH1 0x40 MLOAD DUP1 SWAP2 SUB SWAP1 REVERT JUMPDEST PUSH1 0x1 DUP1 SLOAD DUP1 PUSH1 0x20 MUL PUSH1 0x20 ADD PUSH1 0x40 MLOAD SWAP1 DUP2 ADD PUSH1 0x40 MSTORE DUP1 SWAP3 SWAP2 SWAP1 DUP2 DUP2 MSTORE PUSH1 0x20 ADD DUP3 DUP1 SLOAD DUP1 ISZERO PUSH2 0xEC9 JUMPI PUSH1 0x20 MUL DUP3 ADD SWAP2 SWAP1 PUSH1 0x0 MSTORE PUSH1 0x20 PUSH1 0x0 KECCAK256 SWAP1 JUMPDEST DUP2 SLOAD DUP2 MSTORE PUSH1 0x20 ADD SWAP1 PUSH1 0x1 ADD SWAP1 DUP1 DUP4 GT PUSH2 0xEB5 JUMPI JUMPDEST POP POP POP POP POP SWAP1 POP SWAP1 JUMP JUMPDEST PUSH1 0x0 PUSH1 0x5 SLOAD SWAP1 POP SWAP1 JUMP JUMPDEST PUSH1 0x60 PUSH1 0x2 PUSH1 0x0 CALLER PUSH20 0xFFFFFFFFFFFFFFFFFFFFFFFFFFFFFFFFFFFFFFFF AND PUSH20 0xFFFFFFFFFFFFFFFFFFFFFFFFFFFFFFFFFFFFFFFF AND DUP2 MSTORE PUSH1 0x20 ADD SWAP1 DUP2 MSTORE PUSH1 0x20 ADD PUSH1 0x0 KECCAK256 DUP1 SLOAD DUP1 PUSH1 0x20 MUL PUSH1 0x20 ADD PUSH1 0x40 MLOAD SWAP1 DUP2 ADD PUSH1 0x40 MSTORE DUP1 SWAP3 SWAP2 SWAP1 DUP2 DUP2 MSTORE PUSH1 0x20 ADD DUP3 DUP1 SLOAD DUP1 ISZERO PUSH2 0xF68 JUMPI PUSH1 0x20 MUL DUP3 ADD SWAP2 SWAP1 PUSH1 0x0 MSTORE PUSH1 0x20 PUSH1 0x0 KECCAK256 SWAP1 JUMPDEST DUP2 SLOAD DUP2 MSTORE PUSH1 0x20 ADD SWAP1 PUSH1 0x1 ADD SWAP1 DUP1 DUP4 GT PUSH2 0xF54 JUMPI JUMPDEST POP POP POP POP POP SWAP1 POP SWAP1 JUMP JUMPDEST PUSH1 0x0 DUP1 SLOAD SWAP1 PUSH2 0x100 EXP SWAP1 DIV PUSH20 0xFFFFFFFFFFFFFFFFFFFFFFFFFFFFFFFFFFFFFFFF AND PUSH20 0xFFFFFFFFFFFFFFFFFFFFFFFFFFFFFFFFFFFFFFFF AND CALLER PUSH20 0xFFFFFFFFFFFFFFFFFFFFFFFFFFFFFFFFFFFFFFFF AND EQ PUSH2 0x1000 JUMPI PUSH1 0x40 MLOAD PUSH32 0x8C379A000000000000000000000000000000000000000000000000000000000 DUP2 MSTORE PUSH1 0x4 ADD PUSH2 0xFF7 SWAP1 PUSH2 0x1957 JUMP JUMPDEST PUSH1 0x40 MLOAD DUP1 SWAP2 SUB SWAP1 REVERT JUMPDEST PUSH1 0x1 ISZERO ISZERO PUSH1 0x7 PUSH1 0x0 SWAP1 SLOAD SWAP1 PUSH2 0x100 EXP SWAP1 DIV PUSH1 0xFF AND ISZERO ISZERO EQ PUSH2 0x1056 JUMPI PUSH1 0x40 MLOAD PUSH32 0x8C379A000000000000000000000000000000000000000000000000000000000 DUP2 MSTORE PUSH1 0x4 ADD PUSH2 0x104D SWAP1 PUSH2 0x1977 JUMP JUMPDEST PUSH1 0x40 MLOAD DUP1 SWAP2 SUB SWAP1 REVERT JUMPDEST PUSH1 0x0 PUSH1 0x5 SLOAD GT PUSH2 0x109B JUMPI PUSH1 0x40 MLOAD PUSH32 0x8C379A000000000000000000000000000000000000000000000000000000000 DUP2 MSTORE PUSH1 0x4 ADD PUSH2 0x1092 SWAP1 PUSH2 0x1917 JUMP JUMPDEST PUSH1 0x40 MLOAD DUP1 SWAP2 SUB SWAP1 REVERT JUMPDEST PUSH1 0x0 DUP1 PUSH1 0x0 DUP1 PUSH1 0x0 DUP1 PUSH1 0x0 SWAP1 POP JUMPDEST PUSH1 0x6 DUP1 SLOAD SWAP1 POP DUP2 LT ISZERO PUSH2 0x1378 JUMPI PUSH1 0x0 JUMPDEST PUSH1 0x1 DUP1 SLOAD SWAP1 POP DUP2 LT ISZERO PUSH2 0x11B0 JUMPI PUSH1 0x1 DUP2 DUP2 SLOAD DUP2 LT PUSH2 0x10DA JUMPI PUSH2 0x10D9 PUSH2 0x1D3D JUMP JUMPDEST JUMPDEST SWAP1 PUSH1 0x0 MSTORE PUSH1 0x20 PUSH1 0x0 KECCAK256 ADD SLOAD PUSH1 0x2 PUSH1 0x0 PUSH1 0x6 DUP6 DUP2 SLOAD DUP2 LT PUSH2 0x10FD JUMPI PUSH2 0x10FC PUSH2 0x1D3D JUMP JUMPDEST JUMPDEST SWAP1 PUSH1 0x0 MSTORE PUSH1 0x20 PUSH1 0x0 KECCAK256 ADD PUSH1 0x0 SWAP1 SLOAD SWAP1 PUSH2 0x100 EXP SWAP1 DIV PUSH20 0xFFFFFFFFFFFFFFFFFFFFFFFFFFFFFFFFFFFFFFFF AND PUSH20 0xFFFFFFFFFFFFFFFFFFFFFFFFFFFFFFFFFFFFFFFF AND PUSH20 0xFFFFFFFFFFFFFFFFFFFFFFFFFFFFFFFFFFFFFFFF AND DUP2 MSTORE PUSH1 0x20 ADD SWAP1 DUP2 MSTORE PUSH1 0x20 ADD PUSH1 0x0 KECCAK256 DUP3 DUP2 SLOAD DUP2 LT PUSH2 0x1174 JUMPI PUSH2 0x1173 PUSH2 0x1D3D JUMP JUMPDEST JUMPDEST SWAP1 PUSH1 0x0 MSTORE PUSH1 0x20 PUSH1 0x0 KECCAK256 ADD SLOAD EQ ISZERO PUSH2 0x1198 JUMPI DUP7 DUP1 PUSH2 0x1190 SWAP1 PUSH2 0x1C5B JUMP JUMPDEST SWAP8 POP POP PUSH2 0x119D JUMP JUMPDEST PUSH2 0x11B0 JUMP JUMPDEST DUP1 DUP1 PUSH2 0x11A8 SWAP1 PUSH2 0x1C5B JUMP JUMPDEST SWAP2 POP POP PUSH2 0x10B9 JUMP JUMPDEST POP PUSH1 0x2 PUSH1 0x0 PUSH1 0x6 DUP4 DUP2 SLOAD DUP2 LT PUSH2 0x11C9 JUMPI PUSH2 0x11C8 PUSH2 0x1D3D JUMP JUMPDEST JUMPDEST SWAP1 PUSH1 0x0 MSTORE PUSH1 0x20 PUSH1 0x0 KECCAK256 ADD PUSH1 0x0 SWAP1 SLOAD SWAP1 PUSH2 0x100 EXP SWAP1 DIV PUSH20 0xFFFFFFFFFFFFFFFFFFFFFFFFFFFFFFFFFFFFFFFF AND PUSH20 0xFFFFFFFFFFFFFFFFFFFFFFFFFFFFFFFFFFFFFFFF AND PUSH20 0xFFFFFFFFFFFFFFFFFFFFFFFFFFFFFFFFFFFFFFFF AND DUP2 MSTORE PUSH1 0x20 ADD SWAP1 DUP2 MSTORE PUSH1 0x20 ADD PUSH1 0x0 KECCAK256 PUSH1 0x0 PUSH2 0x123A SWAP2 SWAP1 PUSH2 0x146D JUMP JUMPDEST PUSH1 0x1 DUP7 EQ ISZERO PUSH2 0x124C JUMPI PUSH1 0x2 SWAP5 POP PUSH2 0x12A7 JUMP JUMPDEST PUSH1 0x2 DUP7 EQ ISZERO PUSH2 0x125E JUMPI PUSH1 0x3 SWAP5 POP PUSH2 0x12A6 JUMP JUMPDEST PUSH1 0x3 DUP7 EQ ISZERO PUSH2 0x1270 JUMPI PUSH1 0x5 SWAP5 POP PUSH2 0x12A5 JUMP JUMPDEST PUSH1 0x4 DUP7 EQ ISZERO PUSH2 0x1282 JUMPI PUSH1 0xA SWAP5 POP PUSH2 0x12A4 JUMP JUMPDEST PUSH1 0x5 DUP7 EQ ISZERO PUSH2 0x1294 JUMPI PUSH1 0x14 SWAP5 POP PUSH2 0x12A3 JUMP JUMPDEST PUSH1 0x6 DUP7 EQ ISZERO PUSH2 0x12A2 JUMPI PUSH1 0x28 SWAP5 POP JUMPDEST JUMPDEST JUMPDEST JUMPDEST JUMPDEST JUMPDEST PUSH1 0x64 DUP6 PUSH1 0x4 SLOAD PUSH2 0x12B7 SWAP2 SWAP1 PUSH2 0x1B54 JUMP JUMPDEST PUSH2 0x12C1 SWAP2 SWAP1 PUSH2 0x1B23 JUMP JUMPDEST SWAP4 POP DUP4 DUP4 PUSH2 0x12CF SWAP2 SWAP1 PUSH2 0x1ACD JUMP JUMPDEST SWAP3 POP PUSH1 0x6 DUP2 DUP2 SLOAD DUP2 LT PUSH2 0x12E5 JUMPI PUSH2 0x12E4 PUSH2 0x1D3D JUMP JUMPDEST JUMPDEST SWAP1 PUSH1 0x0 MSTORE PUSH1 0x20 PUSH1 0x0 KECCAK256 ADD PUSH1 0x0 SWAP1 SLOAD SWAP1 PUSH2 0x100 EXP SWAP1 DIV PUSH20 0xFFFFFFFFFFFFFFFFFFFFFFFFFFFFFFFFFFFFFFFF AND SWAP2 POP DUP2 PUSH20 0xFFFFFFFFFFFFFFFFFFFFFFFFFFFFFFFFFFFFFFFF AND PUSH2 0x8FC DUP6 SWAP1 DUP2 ISZERO MUL SWAP1 PUSH1 0x40 MLOAD PUSH1 0x0 PUSH1 0x40 MLOAD DUP1 DUP4 SUB DUP2 DUP6 DUP9 DUP9 CALL SWAP4 POP POP POP POP ISZERO DUP1 ISZERO PUSH2 0x1358 JUMPI RETURNDATASIZE PUSH1 0x0 DUP1 RETURNDATACOPY RETURNDATASIZE PUSH1 0x0 REVERT JUMPDEST POP PUSH1 0x0 SWAP6 POP PUSH1 0x0 SWAP5 POP PUSH1 0x0 SWAP4 POP DUP1 DUP1 PUSH2 0x1370 SWAP1 PUSH2 0x1C5B JUMP JUMPDEST SWAP2 POP POP PUSH2 0x10A9 JUMP JUMPDEST POP PUSH1 0x0 PUSH1 0x5 DUP2 SWAP1 SSTORE POP DUP2 PUSH1 0x4 PUSH1 0x0 DUP3 DUP3 SLOAD PUSH2 0x1393 SWAP2 SWAP1 PUSH2 0x1BAE JUMP JUMPDEST SWAP3 POP POP DUP2 SWAP1 SSTORE POP PUSH1 0x0 PUSH8 0xFFFFFFFFFFFFFFFF DUP2 GT ISZERO PUSH2 0x13B5 JUMPI PUSH2 0x13B4 PUSH2 0x1D6C JUMP JUMPDEST JUMPDEST PUSH1 0x40 MLOAD SWAP1 DUP1 DUP3 MSTORE DUP1 PUSH1 0x20 MUL PUSH1 0x20 ADD DUP3 ADD PUSH1 0x40 MSTORE DUP1 ISZERO PUSH2 0x13E3 JUMPI DUP2 PUSH1 0x20 ADD PUSH1 0x20 DUP3 MUL DUP1 CALLDATASIZE DUP4 CALLDATACOPY DUP1 DUP3 ADD SWAP2 POP POP SWAP1 POP JUMPDEST POP PUSH1 0x6 SWAP1 DUP1 MLOAD SWAP1 PUSH1 0x20 ADD SWAP1 PUSH2 0x13F9 SWAP3 SWAP2 SWAP1 PUSH2 0x148E JUMP JUMPDEST POP PUSH1 0x0 SWAP1 POP PUSH1 0x0 PUSH1 0x7 PUSH1 0x0 PUSH2 0x100 EXP DUP2 SLOAD DUP2 PUSH1 0xFF MUL NOT AND SWAP1 DUP4 ISZERO ISZERO MUL OR SWAP1 SSTORE POP POP POP POP POP POP JUMP JUMPDEST DUP3 DUP1 SLOAD DUP3 DUP3 SSTORE SWAP1 PUSH1 0x0 MSTORE PUSH1 0x20 PUSH1 0x0 KECCAK256 SWAP1 DUP2 ADD SWAP3 DUP3 ISZERO PUSH2 0x145C JUMPI SWAP2 PUSH1 0x20 MUL DUP3 ADD JUMPDEST DUP3 DUP2 GT ISZERO PUSH2 0x145B JUMPI DUP3 MLOAD DUP3 SSTORE SWAP2 PUSH1 0x20 ADD SWAP2 SWAP1 PUSH1 0x1 ADD SWAP1 PUSH2 0x1440 JUMP JUMPDEST JUMPDEST POP SWAP1 POP PUSH2 0x1469 SWAP2 SWAP1 PUSH2 0x1518 JUMP JUMPDEST POP SWAP1 JUMP JUMPDEST POP DUP1 SLOAD PUSH1 0x0 DUP3 SSTORE SWAP1 PUSH1 0x0 MSTORE PUSH1 0x20 PUSH1 0x0 KECCAK256 SWAP1 DUP2 ADD SWAP1 PUSH2 0x148B SWAP2 SWAP1 PUSH2 0x1518 JUMP JUMPDEST POP JUMP JUMPDEST DUP3 DUP1 SLOAD DUP3 DUP3 SSTORE SWAP1 PUSH1 0x0 MSTORE PUSH1 0x20 PUSH1 0x0 KECCAK256 SWAP1 DUP2 ADD SWAP3 DUP3 ISZERO PUSH2 0x1507 JUMPI SWAP2 PUSH1 0x20 MUL DUP3 ADD JUMPDEST DUP3 DUP2 GT ISZERO PUSH2 0x1506 JUMPI DUP3 MLOAD DUP3 PUSH1 0x0 PUSH2 0x100 EXP DUP2 SLOAD DUP2 PUSH20 0xFFFFFFFFFFFFFFFFFFFFFFFFFFFFFFFFFFFFFFFF MUL NOT AND SWAP1 DUP4 PUSH20 0xFFFFFFFFFFFFFFFFFFFFFFFFFFFFFFFFFFFFFFFF AND MUL OR SWAP1 SSTORE POP SWAP2 PUSH1 0x20 ADD SWAP2 SWAP1 PUSH1 0x1 ADD SWAP1 PUSH2 0x14AE JUMP JUMPDEST JUMPDEST POP SWAP1 POP PUSH2 0x1514 SWAP2 SWAP1 PUSH2 0x1518 JUMP JUMPDEST POP SWAP1 JUMP JUMPDEST JUMPDEST DUP1 DUP3 GT ISZERO PUSH2 0x1531 JUMPI PUSH1 0x0 DUP2 PUSH1 0x0 SWAP1 SSTORE POP PUSH1 0x1 ADD PUSH2 0x1519 JUMP JUMPDEST POP SWAP1 JUMP JUMPDEST PUSH1 0x0 PUSH2 0x1548 PUSH2 0x1543 DUP5 PUSH2 0x1A57 JUMP JUMPDEST PUSH2 0x1A32 JUMP JUMPDEST SWAP1 POP DUP1 DUP4 DUP3 MSTORE PUSH1 0x20 DUP3 ADD SWAP1 POP DUP3 DUP6 PUSH1 0x20 DUP7 MUL DUP3 ADD GT ISZERO PUSH2 0x156B JUMPI PUSH2 0x156A PUSH2 0x1DA0 JUMP JUMPDEST JUMPDEST PUSH1 0x0 JUMPDEST DUP6 DUP2 LT ISZERO PUSH2 0x159B JUMPI DUP2 PUSH2 0x1581 DUP9 DUP3 PUSH2 0x15D3 JUMP JUMPDEST DUP5 MSTORE PUSH1 0x20 DUP5 ADD SWAP4 POP PUSH1 0x20 DUP4 ADD SWAP3 POP POP PUSH1 0x1 DUP2 ADD SWAP1 POP PUSH2 0x156E JUMP JUMPDEST POP POP POP SWAP4 SWAP3 POP POP POP JUMP JUMPDEST PUSH1 0x0 DUP3 PUSH1 0x1F DUP4 ADD SLT PUSH2 0x15BA JUMPI PUSH2 0x15B9 PUSH2 0x1D9B JUMP JUMPDEST JUMPDEST DUP2 CALLDATALOAD PUSH2 0x15CA DUP5 DUP3 PUSH1 0x20 DUP7 ADD PUSH2 0x1535 JUMP JUMPDEST SWAP2 POP POP SWAP3 SWAP2 POP POP JUMP JUMPDEST PUSH1 0x0 DUP2 CALLDATALOAD SWAP1 POP PUSH2 0x15E2 DUP2 PUSH2 0x1F57 JUMP JUMPDEST SWAP3 SWAP2 POP POP JUMP JUMPDEST PUSH1 0x0 PUSH1 0x20 DUP3 DUP5 SUB SLT ISZERO PUSH2 0x15FE JUMPI PUSH2 0x15FD PUSH2 0x1DAA JUMP JUMPDEST JUMPDEST PUSH1 0x0 DUP3 ADD CALLDATALOAD PUSH8 0xFFFFFFFFFFFFFFFF DUP2 GT ISZERO PUSH2 0x161C JUMPI PUSH2 0x161B PUSH2 0x1DA5 JUMP JUMPDEST JUMPDEST PUSH2 0x1628 DUP5 DUP3 DUP6 ADD PUSH2 0x15A5 JUMP JUMPDEST SWAP2 POP POP SWAP3 SWAP2 POP POP JUMP JUMPDEST PUSH1 0x0 PUSH1 0x20 DUP3 DUP5 SUB SLT ISZERO PUSH2 0x1647 JUMPI PUSH2 0x1646 PUSH2 0x1DAA JUMP JUMPDEST JUMPDEST PUSH1 0x0 PUSH2 0x1655 DUP5 DUP3 DUP6 ADD PUSH2 0x15D3 JUMP JUMPDEST SWAP2 POP POP SWAP3 SWAP2 POP POP JUMP JUMPDEST PUSH1 0x0 PUSH2 0x166A DUP4 DUP4 PUSH2 0x182D JUMP JUMPDEST PUSH1 0x20 DUP4 ADD SWAP1 POP SWAP3 SWAP2 POP POP JUMP JUMPDEST PUSH2 0x167F DUP2 PUSH2 0x1BE2 JUMP JUMPDEST DUP3 MSTORE POP POP JUMP JUMPDEST PUSH1 0x0 PUSH2 0x1690 DUP3 PUSH2 0x1A93 JUMP JUMPDEST PUSH2 0x169A DUP2 DUP6 PUSH2 0x1AAB JUMP JUMPDEST SWAP4 POP PUSH2 0x16A5 DUP4 PUSH2 0x1A83 JUMP JUMPDEST DUP1 PUSH1 0x0 JUMPDEST DUP4 DUP2 LT ISZERO PUSH2 0x16D6 JUMPI DUP2 MLOAD PUSH2 0x16BD DUP9 DUP3 PUSH2 0x165E JUMP JUMPDEST SWAP8 POP PUSH2 0x16C8 DUP4 PUSH2 0x1A9E JUMP JUMPDEST SWAP3 POP POP PUSH1 0x1 DUP2 ADD SWAP1 POP PUSH2 0x16A9 JUMP JUMPDEST POP DUP6 SWAP4 POP POP POP POP SWAP3 SWAP2 POP POP JUMP JUMPDEST PUSH2 0x16EC DUP2 PUSH2 0x1BF4 JUMP JUMPDEST DUP3 MSTORE POP POP JUMP JUMPDEST PUSH1 0x0 PUSH2 0x16FF PUSH1 0x14 DUP4 PUSH2 0x1ABC JUMP JUMPDEST SWAP2 POP PUSH2 0x170A DUP3 PUSH2 0x1DC0 JUMP JUMPDEST PUSH1 0x20 DUP3 ADD SWAP1 POP SWAP2 SWAP1 POP JUMP JUMPDEST PUSH1 0x0 PUSH2 0x1722 PUSH1 0x11 DUP4 PUSH2 0x1ABC JUMP JUMPDEST SWAP2 POP PUSH2 0x172D DUP3 PUSH2 0x1DE9 JUMP JUMPDEST PUSH1 0x20 DUP3 ADD SWAP1 POP SWAP2 SWAP1 POP JUMP JUMPDEST PUSH1 0x0 PUSH2 0x1745 PUSH1 0x20 DUP4 PUSH2 0x1ABC JUMP JUMPDEST SWAP2 POP PUSH2 0x1750 DUP3 PUSH2 0x1E12 JUMP JUMPDEST PUSH1 0x20 DUP3 ADD SWAP1 POP SWAP2 SWAP1 POP JUMP JUMPDEST PUSH1 0x0 PUSH2 0x1768 PUSH1 0x26 DUP4 PUSH2 0x1ABC JUMP JUMPDEST SWAP2 POP PUSH2 0x1773 DUP3 PUSH2 0x1E3B JUMP JUMPDEST PUSH1 0x40 DUP3 ADD SWAP1 POP SWAP2 SWAP1 POP JUMP JUMPDEST PUSH1 0x0 PUSH2 0x178B PUSH1 0x15 DUP4 PUSH2 0x1ABC JUMP JUMPDEST SWAP2 POP PUSH2 0x1796 DUP3 PUSH2 0x1E8A JUMP JUMPDEST PUSH1 0x20 DUP3 ADD SWAP1 POP SWAP2 SWAP1 POP JUMP JUMPDEST PUSH1 0x0 PUSH2 0x17AE PUSH1 0xC DUP4 PUSH2 0x1ABC JUMP JUMPDEST SWAP2 POP PUSH2 0x17B9 DUP3 PUSH2 0x1EB3 JUMP JUMPDEST PUSH1 0x20 DUP3 ADD SWAP1 POP SWAP2 SWAP1 POP JUMP JUMPDEST PUSH1 0x0 PUSH2 0x17D1 PUSH1 0x17 DUP4 PUSH2 0x1ABC JUMP JUMPDEST SWAP2 POP PUSH2 0x17DC DUP3 PUSH2 0x1EDC JUMP JUMPDEST PUSH1 0x20 DUP3 ADD SWAP1 POP SWAP2 SWAP1 POP JUMP JUMPDEST PUSH1 0x0 PUSH2 0x17F4 PUSH1 0x14 DUP4 PUSH2 0x1ABC JUMP JUMPDEST SWAP2 POP PUSH2 0x17FF DUP3 PUSH2 0x1F05 JUMP JUMPDEST PUSH1 0x20 DUP3 ADD SWAP1 POP SWAP2 SWAP1 POP JUMP JUMPDEST PUSH1 0x0 PUSH2 0x1817 PUSH1 0xC DUP4 PUSH2 0x1ABC JUMP JUMPDEST SWAP2 POP PUSH2 0x1822 DUP3 PUSH2 0x1F2E JUMP JUMPDEST PUSH1 0x20 DUP3 ADD SWAP1 POP SWAP2 SWAP1 POP JUMP JUMPDEST PUSH2 0x1836 DUP2 PUSH2 0x1C20 JUMP JUMPDEST DUP3 MSTORE POP POP JUMP JUMPDEST PUSH2 0x1845 DUP2 PUSH2 0x1C20 JUMP JUMPDEST DUP3 MSTORE POP POP JUMP JUMPDEST PUSH2 0x185C PUSH2 0x1857 DUP3 PUSH2 0x1C20 JUMP JUMPDEST PUSH2 0x1CA4 JUMP JUMPDEST DUP3 MSTORE POP POP JUMP JUMPDEST PUSH1 0x0 PUSH2 0x186E DUP3 DUP7 PUSH2 0x184B JUMP JUMPDEST PUSH1 0x20 DUP3 ADD SWAP2 POP PUSH2 0x187E DUP3 DUP6 PUSH2 0x184B JUMP JUMPDEST PUSH1 0x20 DUP3 ADD SWAP2 POP PUSH2 0x188E DUP3 DUP5 PUSH2 0x184B JUMP JUMPDEST PUSH1 0x20 DUP3 ADD SWAP2 POP DUP2 SWAP1 POP SWAP5 SWAP4 POP POP POP POP JUMP JUMPDEST PUSH1 0x0 PUSH1 0x20 DUP3 ADD SWAP1 POP PUSH2 0x18B4 PUSH1 0x0 DUP4 ADD DUP5 PUSH2 0x1676 JUMP JUMPDEST SWAP3 SWAP2 POP POP JUMP JUMPDEST PUSH1 0x0 PUSH1 0x20 DUP3 ADD SWAP1 POP DUP2 DUP2 SUB PUSH1 0x0 DUP4 ADD MSTORE PUSH2 0x18D4 DUP2 DUP5 PUSH2 0x1685 JUMP JUMPDEST SWAP1 POP SWAP3 SWAP2 POP POP JUMP JUMPDEST PUSH1 0x0 PUSH1 0x20 DUP3 ADD SWAP1 POP PUSH2 0x18F1 PUSH1 0x0 DUP4 ADD DUP5 PUSH2 0x16E3 JUMP JUMPDEST SWAP3 SWAP2 POP POP JUMP JUMPDEST PUSH1 0x0 PUSH1 0x20 DUP3 ADD SWAP1 POP DUP2 DUP2 SUB PUSH1 0x0 DUP4 ADD MSTORE PUSH2 0x1910 DUP2 PUSH2 0x16F2 JUMP JUMPDEST SWAP1 POP SWAP2 SWAP1 POP JUMP JUMPDEST PUSH1 0x0 PUSH1 0x20 DUP3 ADD SWAP1 POP DUP2 DUP2 SUB PUSH1 0x0 DUP4 ADD MSTORE PUSH2 0x1930 DUP2 PUSH2 0x1715 JUMP JUMPDEST SWAP1 POP SWAP2 SWAP1 POP JUMP JUMPDEST PUSH1 0x0 PUSH1 0x20 DUP3 ADD SWAP1 POP DUP2 DUP2 SUB PUSH1 0x0 DUP4 ADD MSTORE PUSH2 0x1950 DUP2 PUSH2 0x1738 JUMP JUMPDEST SWAP1 POP SWAP2 SWAP1 POP JUMP JUMPDEST PUSH1 0x0 PUSH1 0x20 DUP3 ADD SWAP1 POP DUP2 DUP2 SUB PUSH1 0x0 DUP4 ADD MSTORE PUSH2 0x1970 DUP2 PUSH2 0x175B JUMP JUMPDEST SWAP1 POP SWAP2 SWAP1 POP JUMP JUMPDEST PUSH1 0x0 PUSH1 0x20 DUP3 ADD SWAP1 POP DUP2 DUP2 SUB PUSH1 0x0 DUP4 ADD MSTORE PUSH2 0x1990 DUP2 PUSH2 0x177E JUMP JUMPDEST SWAP1 POP SWAP2 SWAP1 POP JUMP JUMPDEST PUSH1 0x0 PUSH1 0x20 DUP3 ADD SWAP1 POP DUP2 DUP2 SUB PUSH1 0x0 DUP4 ADD MSTORE PUSH2 0x19B0 DUP2 PUSH2 0x17A1 JUMP JUMPDEST SWAP1 POP SWAP2 SWAP1 POP JUMP JUMPDEST PUSH1 0x0 PUSH1 0x20 DUP3 ADD SWAP1 POP DUP2 DUP2 SUB PUSH1 0x0 DUP4 ADD MSTORE PUSH2 0x19D0 DUP2 PUSH2 0x17C4 JUMP JUMPDEST SWAP1 POP SWAP2 SWAP1 POP JUMP JUMPDEST PUSH1 0x0 PUSH1 0x20 DUP3 ADD SWAP1 POP DUP2 DUP2 SUB PUSH1 0x0 DUP4 ADD MSTORE PUSH2 0x19F0 DUP2 PUSH2 0x17E7 JUMP JUMPDEST SWAP1 POP SWAP2 SWAP1 POP JUMP JUMPDEST PUSH1 0x0 PUSH1 0x20 DUP3 ADD SWAP1 POP DUP2 DUP2 SUB PUSH1 0x0 DUP4 ADD MSTORE PUSH2 0x1A10 DUP2 PUSH2 0x180A JUMP JUMPDEST SWAP1 POP SWAP2 SWAP1 POP JUMP JUMPDEST PUSH1 0x0 PUSH1 0x20 DUP3 ADD SWAP1 POP PUSH2 0x1A2C PUSH1 0x0 DUP4 ADD DUP5 PUSH2 0x183C JUMP JUMPDEST SWAP3 SWAP2 POP POP JUMP JUMPDEST PUSH1 0x0 PUSH2 0x1A3C PUSH2 0x1A4D JUMP JUMPDEST SWAP1 POP PUSH2 0x1A48 DUP3 DUP3 PUSH2 0x1C2A JUMP JUMPDEST SWAP2 SWAP1 POP JUMP JUMPDEST PUSH1 0x0 PUSH1 0x40 MLOAD SWAP1 POP SWAP1 JUMP JUMPDEST PUSH1 0x0 PUSH8 0xFFFFFFFFFFFFFFFF DUP3 GT ISZERO PUSH2 0x1A72 JUMPI PUSH2 0x1A71 PUSH2 0x1D6C JUMP JUMPDEST JUMPDEST PUSH1 0x20 DUP3 MUL SWAP1 POP PUSH1 0x20 DUP2 ADD SWAP1 POP SWAP2 SWAP1 POP JUMP JUMPDEST PUSH1 0x0 DUP2 SWAP1 POP PUSH1 0x20 DUP3 ADD SWAP1 POP SWAP2 SWAP1 POP JUMP JUMPDEST PUSH1 0x0 DUP2 MLOAD SWAP1 POP SWAP2 SWAP1 POP JUMP JUMPDEST PUSH1 0x0 PUSH1 0x20 DUP3 ADD SWAP1 POP SWAP2 SWAP1 POP JUMP JUMPDEST PUSH1 0x0 DUP3 DUP3 MSTORE PUSH1 0x20 DUP3 ADD SWAP1 POP SWAP3 SWAP2 POP POP JUMP JUMPDEST PUSH1 0x0 DUP3 DUP3 MSTORE PUSH1 0x20 DUP3 ADD SWAP1 POP SWAP3 SWAP2 POP POP JUMP JUMPDEST PUSH1 0x0 PUSH2 0x1AD8 DUP3 PUSH2 0x1C20 JUMP JUMPDEST SWAP2 POP PUSH2 0x1AE3 DUP4 PUSH2 0x1C20 JUMP JUMPDEST SWAP3 POP DUP3 PUSH32 0xFFFFFFFFFFFFFFFFFFFFFFFFFFFFFFFFFFFFFFFFFFFFFFFFFFFFFFFFFFFFFFFF SUB DUP3 GT ISZERO PUSH2 0x1B18 JUMPI PUSH2 0x1B17 PUSH2 0x1CDF JUMP JUMPDEST JUMPDEST DUP3 DUP3 ADD SWAP1 POP SWAP3 SWAP2 POP POP JUMP JUMPDEST PUSH1 0x0 PUSH2 0x1B2E DUP3 PUSH2 0x1C20 JUMP JUMPDEST SWAP2 POP PUSH2 0x1B39 DUP4 PUSH2 0x1C20 JUMP JUMPDEST SWAP3 POP DUP3 PUSH2 0x1B49 JUMPI PUSH2 0x1B48 PUSH2 0x1D0E JUMP JUMPDEST JUMPDEST DUP3 DUP3 DIV SWAP1 POP SWAP3 SWAP2 POP POP JUMP JUMPDEST PUSH1 0x0 PUSH2 0x1B5F DUP3 PUSH2 0x1C20 JUMP JUMPDEST SWAP2 POP PUSH2 0x1B6A DUP4 PUSH2 0x1C20 JUMP JUMPDEST SWAP3 POP DUP2 PUSH32 0xFFFFFFFFFFFFFFFFFFFFFFFFFFFFFFFFFFFFFFFFFFFFFFFFFFFFFFFFFFFFFFFF DIV DUP4 GT DUP3 ISZERO ISZERO AND ISZERO PUSH2 0x1BA3 JUMPI PUSH2 0x1BA2 PUSH2 0x1CDF JUMP JUMPDEST JUMPDEST DUP3 DUP3 MUL SWAP1 POP SWAP3 SWAP2 POP POP JUMP JUMPDEST PUSH1 0x0 PUSH2 0x1BB9 DUP3 PUSH2 0x1C20 JUMP JUMPDEST SWAP2 POP PUSH2 0x1BC4 DUP4 PUSH2 0x1C20 JUMP JUMPDEST SWAP3 POP DUP3 DUP3 LT ISZERO PUSH2 0x1BD7 JUMPI PUSH2 0x1BD6 PUSH2 0x1CDF JUMP JUMPDEST JUMPDEST DUP3 DUP3 SUB SWAP1 POP SWAP3 SWAP2 POP POP JUMP JUMPDEST PUSH1 0x0 PUSH2 0x1BED DUP3 PUSH2 0x1C00 JUMP JUMPDEST SWAP1 POP SWAP2 SWAP1 POP JUMP JUMPDEST PUSH1 0x0 DUP2 ISZERO ISZERO SWAP1 POP SWAP2 SWAP1 POP JUMP JUMPDEST PUSH1 0x0 PUSH20 0xFFFFFFFFFFFFFFFFFFFFFFFFFFFFFFFFFFFFFFFF DUP3 AND SWAP1 POP SWAP2 SWAP1 POP JUMP JUMPDEST PUSH1 0x0 DUP2 SWAP1 POP SWAP2 SWAP1 POP JUMP JUMPDEST PUSH2 0x1C33 DUP3 PUSH2 0x1DAF JUMP JUMPDEST DUP2 ADD DUP2 DUP2 LT PUSH8 0xFFFFFFFFFFFFFFFF DUP3 GT OR ISZERO PUSH2 0x1C52 JUMPI PUSH2 0x1C51 PUSH2 0x1D6C JUMP JUMPDEST JUMPDEST DUP1 PUSH1 0x40 MSTORE POP POP POP JUMP JUMPDEST PUSH1 0x0 PUSH2 0x1C66 DUP3 PUSH2 0x1C20 JUMP JUMPDEST SWAP2 POP PUSH32 0xFFFFFFFFFFFFFFFFFFFFFFFFFFFFFFFFFFFFFFFFFFFFFFFFFFFFFFFFFFFFFFFF DUP3 EQ ISZERO PUSH2 0x1C99 JUMPI PUSH2 0x1C98 PUSH2 0x1CDF JUMP JUMPDEST JUMPDEST PUSH1 0x1 DUP3 ADD SWAP1 POP SWAP2 SWAP1 POP JUMP JUMPDEST PUSH1 0x0 DUP2 SWAP1 POP SWAP2 SWAP1 POP JUMP JUMPDEST PUSH1 0x0 PUSH2 0x1CB9 DUP3 PUSH2 0x1C20 JUMP JUMPDEST SWAP2 POP PUSH2 0x1CC4 DUP4 PUSH2 0x1C20 JUMP JUMPDEST SWAP3 POP DUP3 PUSH2 0x1CD4 JUMPI PUSH2 0x1CD3 PUSH2 0x1D0E JUMP JUMPDEST JUMPDEST DUP3 DUP3 MOD SWAP1 POP SWAP3 SWAP2 POP POP JUMP JUMPDEST PUSH32 0x4E487B7100000000000000000000000000000000000000000000000000000000 PUSH1 0x0 MSTORE PUSH1 0x11 PUSH1 0x4 MSTORE PUSH1 0x24 PUSH1 0x0 REVERT JUMPDEST PUSH32 0x4E487B7100000000000000000000000000000000000000000000000000000000 PUSH1 0x0 MSTORE PUSH1 0x12 PUSH1 0x4 MSTORE PUSH1 0x24 PUSH1 0x0 REVERT JUMPDEST PUSH32 0x4E487B7100000000000000000000000000000000000000000000000000000000 PUSH1 0x0 MSTORE PUSH1 0x32 PUSH1 0x4 MSTORE PUSH1 0x24 PUSH1 0x0 REVERT JUMPDEST PUSH32 0x4E487B7100000000000000000000000000000000000000000000000000000000 PUSH1 0x0 MSTORE PUSH1 0x41 PUSH1 0x4 MSTORE PUSH1 0x24 PUSH1 0x0 REVERT JUMPDEST PUSH1 0x0 DUP1 REVERT JUMPDEST PUSH1 0x0 DUP1 REVERT JUMPDEST PUSH1 0x0 DUP1 REVERT JUMPDEST PUSH1 0x0 DUP1 REVERT JUMPDEST PUSH1 0x0 PUSH1 0x1F NOT PUSH1 0x1F DUP4 ADD AND SWAP1 POP SWAP2 SWAP1 POP JUMP JUMPDEST PUSH32 0x4E6F20457468657220746F2070756C6C206F7574000000000000000000000000 PUSH1 0x0 DUP3 ADD MSTORE POP JUMP JUMPDEST PUSH32 0x4E6F207469636B65742077617320626F75000000000000000000000000000000 PUSH1 0x0 DUP3 ADD MSTORE POP JUMP JUMPDEST PUSH32 0x596F75206861766520616C726561647920626F756768742061207469636B6574 PUSH1 0x0 DUP3 ADD MSTORE POP JUMP JUMPDEST PUSH32 0x4F6E6C7920746865206F776E65722063616E20706572666F726D207468697320 PUSH1 0x0 DUP3 ADD MSTORE PUSH32 0x616374696F6E0000000000000000000000000000000000000000000000000000 PUSH1 0x20 DUP3 ADD MSTORE POP JUMP JUMPDEST PUSH32 0x4E6F206C6F74746572792069732072756E6E696E670000000000000000000000 PUSH1 0x0 DUP3 ADD MSTORE POP JUMP JUMPDEST PUSH32 0x57726F6E67206E756D6265720000000000000000000000000000000000000000 PUSH1 0x0 DUP3 ADD MSTORE POP JUMP JUMPDEST PUSH32 0x57726F6E67206E756D626572206F66206E756D62657273000000000000000000 PUSH1 0x0 DUP3 ADD MSTORE POP JUMP JUMPDEST PUSH32 0x41206C6F74746572792069732072756E6E696E67000000000000000000000000 PUSH1 0x0 DUP3 ADD MSTORE POP JUMP JUMPDEST PUSH32 0x57726F6E6720616D6F756E740000000000000000000000000000000000000000 PUSH1 0x0 DUP3 ADD MSTORE POP JUMP JUMPDEST PUSH2 0x1F60 DUP2 PUSH2 0x1C20 JUMP JUMPDEST DUP2 EQ PUSH2 0x1F6B JUMPI PUSH1 0x0 DUP1 REVERT JUMPDEST POP JUMP INVALID LOG2 PUSH5 0x6970667358 0x22 SLT KECCAK256 0xFC XOR SSTORE 0x5E 0xD0 0xF9 PUSH17 0x707A7FF4965A26413E8E8DF3688B8B64C0 SSTORE 0xC6 0x29 0xC4 0xA9 0xD4 0xC7 0xC4 PUSH5 0x736F6C6343 STOP ADDMOD SMOD STOP CALLER "
				},
				"gasEstimates": {
					"creation": {
						"codeDepositCost": "1620000",
						"executionCost": "77346",
						"totalCost": "1697346"
					},
					"external": {
						"BeginLottery()": "infinite",
						"EndLottery()": "infinite",
						"Lotterystatus()": "2524",
						"NrOfticketsBought()": "2481",
						"OwnerAddress()": "2567",
						"Pull()": "infinite",
						"buyTicket(uint256[])": "infinite",
						"changeTicketPrice(uint256)": "infinite",
						"getMyTicketNumbers()": "infinite",
						"getTicketPrice()": "infinite",
						"getTotalLotteryPot()": "infinite",
						"getWinningNumber()": "infinite",
						"lotteryStarted()": "2560",
						"playersAddresses(uint256)": "4979",
						"setWinningNumber(uint256[])": "infinite"
					}
				},
				"methodIdentifiers": {
					"BeginLottery()": "36c1ec23",
					"EndLottery()": "b04a3f1c",
					"Lotterystatus()": "4c75e3f1",
					"NrOfticketsBought()": "a1bb96a1",
					"OwnerAddress()": "7f17b05d",
					"Pull()": "30daec49",
					"buyTicket(uint256[])": "716cac96",
					"changeTicketPrice(uint256)": "4630a0ee",
					"getMyTicketNumbers()": "a650fbab",
					"getTicketPrice()": "87bb7ae0",
					"getTotalLotteryPot()": "8a4a29c3",
					"getWinningNumber()": "8b0b9ed4",
					"lotteryStarted()": "5a3811b9",
					"playersAddresses(uint256)": "472016da",
					"setWinningNumber(uint256[])": "4efd7cca"
				}
			},
			"storageLayout": {
				"storage": [
					{
						"astId": 3,
						"contract": "UZHPancakeLottery.sol:UZHPancakeLottery",
						"label": "owner",
						"offset": 0,
						"slot": "0",
						"type": "t_address"
					},
					{
						"astId": 6,
						"contract": "UZHPancakeLottery.sol:UZHPancakeLottery",
						"label": "winningNumber",
						"offset": 0,
						"slot": "1",
						"type": "t_array(t_uint256)dyn_storage"
					},
					{
						"astId": 11,
						"contract": "UZHPancakeLottery.sol:UZHPancakeLottery",
						"label": "playersTickets",
						"offset": 0,
						"slot": "2",
						"type": "t_mapping(t_address,t_array(t_uint256)dyn_storage)"
					},
					{
						"astId": 14,
						"contract": "UZHPancakeLottery.sol:UZHPancakeLottery",
						"label": "ticketprice",
						"offset": 0,
						"slot": "3",
						"type": "t_uint256"
					},
					{
						"astId": 16,
						"contract": "UZHPancakeLottery.sol:UZHPancakeLottery",
						"label": "TotalLotteryPot",
						"offset": 0,
						"slot": "4",
						"type": "t_uint256"
					},
					{
						"astId": 19,
						"contract": "UZHPancakeLottery.sol:UZHPancakeLottery",
						"label": "NrticketsBought",
						"offset": 0,
						"slot": "5",
						"type": "t_uint256"
					},
					{
						"astId": 22,
						"contract": "UZHPancakeLottery.sol:UZHPancakeLottery",
						"label": "playersAddresses",
						"offset": 0,
						"slot": "6",
						"type": "t_array(t_address)dyn_storage"
					},
					{
						"astId": 25,
						"contract": "UZHPancakeLottery.sol:UZHPancakeLottery",
						"label": "lotteryStarted",
						"offset": 0,
						"slot": "7",
						"type": "t_bool"
					}
				],
				"types": {
					"t_address": {
						"encoding": "inplace",
						"label": "address",
						"numberOfBytes": "20"
					},
					"t_array(t_address)dyn_storage": {
						"base": "t_address",
						"encoding": "dynamic_array",
						"label": "address[]",
						"numberOfBytes": "32"
					},
					"t_array(t_uint256)dyn_storage": {
						"base": "t_uint256",
						"encoding": "dynamic_array",
						"label": "uint256[]",
						"numberOfBytes": "32"
					},
					"t_bool": {
						"encoding": "inplace",
						"label": "bool",
						"numberOfBytes": "1"
					},
					"t_mapping(t_address,t_array(t_uint256)dyn_storage)": {
						"encoding": "mapping",
						"key": "t_address",
						"label": "mapping(address => uint256[])",
						"numberOfBytes": "32",
						"value": "t_array(t_uint256)dyn_storage"
					},
					"t_uint256": {
						"encoding": "inplace",
						"label": "uint256",
						"numberOfBytes": "32"
					}
				}
			},
			"userdoc": {
				"kind": "user",
				"methods": {},
				"version": 1
			}
		}
	}
}