{
	"Lottery/lotteryPancake.sol": {
		"PancakeLottery": {
			"abi": [
				{
					"inputs": [],
					"stateMutability": "nonpayable",
					"type": "constructor"
				},
				{
					"inputs": [],
					"name": "burnAmount",
					"outputs": [
						{
							"internalType": "uint256",
							"name": "",
							"type": "uint256"
						}
					],
					"stateMutability": "view",
					"type": "function"
				},
				{
					"inputs": [],
					"name": "burnPool",
					"outputs": [
						{
							"internalType": "uint256",
							"name": "",
							"type": "uint256"
						}
					],
					"stateMutability": "view",
					"type": "function"
				},
				{
					"inputs": [
						{
							"internalType": "uint256[]",
							"name": "ticket",
							"type": "uint256[]"
						}
					],
					"name": "buyTicket",
					"outputs": [],
					"stateMutability": "payable",
					"type": "function"
				},
				{
					"inputs": [],
					"name": "calculatePrizes",
					"outputs": [],
					"stateMutability": "nonpayable",
					"type": "function"
				},
				{
					"inputs": [
						{
							"internalType": "uint256[]",
							"name": "ticket",
							"type": "uint256[]"
						}
					],
					"name": "claimPrizes",
					"outputs": [],
					"stateMutability": "nonpayable",
					"type": "function"
				},
				{
					"inputs": [],
					"name": "distributePrizes",
					"outputs": [],
					"stateMutability": "nonpayable",
					"type": "function"
				},
				{
					"inputs": [],
					"name": "endRound",
					"outputs": [],
					"stateMutability": "nonpayable",
					"type": "function"
				},
				{
					"inputs": [],
					"name": "getTicketsBoughtCount",
					"outputs": [
						{
							"internalType": "uint256",
							"name": "count",
							"type": "uint256"
						}
					],
					"stateMutability": "view",
					"type": "function"
				},
				{
					"inputs": [],
					"name": "getWinningNumbers",
					"outputs": [
						{
							"internalType": "uint256[6]",
							"name": "",
							"type": "uint256[6]"
						}
					],
					"stateMutability": "view",
					"type": "function"
				},
				{
					"inputs": [],
					"name": "owner",
					"outputs": [
						{
							"internalType": "address",
							"name": "",
							"type": "address"
						}
					],
					"stateMutability": "view",
					"type": "function"
				},
				{
					"inputs": [
						{
							"internalType": "uint256",
							"name": "",
							"type": "uint256"
						},
						{
							"internalType": "uint256",
							"name": "",
							"type": "uint256"
						}
					],
					"name": "prizePools",
					"outputs": [
						{
							"internalType": "uint256",
							"name": "",
							"type": "uint256"
						}
					],
					"stateMutability": "view",
					"type": "function"
				},
				{
					"inputs": [
						{
							"internalType": "uint256[]",
							"name": "numbers",
							"type": "uint256[]"
						}
					],
					"name": "setWinningNumbers",
					"outputs": [],
					"stateMutability": "nonpayable",
					"type": "function"
				},
				{
					"inputs": [],
					"name": "setWinningNumbers",
					"outputs": [],
					"stateMutability": "nonpayable",
					"type": "function"
				},
				{
					"inputs": [],
					"name": "startRound",
					"outputs": [],
					"stateMutability": "nonpayable",
					"type": "function"
				},
				{
					"inputs": [],
					"name": "ticketPrice",
					"outputs": [
						{
							"internalType": "uint256",
							"name": "",
							"type": "uint256"
						}
					],
					"stateMutability": "view",
					"type": "function"
				},
				{
					"inputs": [
						{
							"internalType": "address",
							"name": "",
							"type": "address"
						},
						{
							"internalType": "uint256",
							"name": "",
							"type": "uint256"
						},
						{
							"internalType": "uint256",
							"name": "",
							"type": "uint256"
						}
					],
					"name": "tickets",
					"outputs": [
						{
							"internalType": "uint256",
							"name": "",
							"type": "uint256"
						}
					],
					"stateMutability": "view",
					"type": "function"
				},
				{
					"inputs": [],
					"name": "totalPrizePool",
					"outputs": [
						{
							"internalType": "uint256",
							"name": "",
							"type": "uint256"
						}
					],
					"stateMutability": "view",
					"type": "function"
				},
				{
					"inputs": [
						{
							"internalType": "uint256",
							"name": "ticketnr",
							"type": "uint256"
						}
					],
					"name": "viewTickets",
					"outputs": [
						{
							"internalType": "uint256[]",
							"name": "",
							"type": "uint256[]"
						}
					],
					"stateMutability": "view",
					"type": "function"
				},
				{
					"inputs": [
						{
							"internalType": "uint256",
							"name": "",
							"type": "uint256"
						}
					],
					"name": "winningNumbers",
					"outputs": [
						{
							"internalType": "uint256",
							"name": "",
							"type": "uint256"
						}
					],
					"stateMutability": "view",
					"type": "function"
				}
			],
			"devdoc": {
				"kind": "dev",
				"methods": {},
				"version": 1
			},
			"evm": {
				"assembly": "    /* \"Lottery/lotteryPancake.sol\":65:7463  contract PancakeLottery {\r... */\n  mstore(0x40, 0x80)\n    /* \"Lottery/lotteryPancake.sol\":414:569  constructor() public {\r... */\n  callvalue\n  dup1\n  iszero\n  tag_1\n  jumpi\n  0x00\n  dup1\n  revert\ntag_1:\n  pop\n    /* \"Lottery/lotteryPancake.sol\":454:464  msg.sender */\n  caller\n    /* \"Lottery/lotteryPancake.sol\":446:451  owner */\n  0x00\n  dup1\n    /* \"Lottery/lotteryPancake.sol\":446:464  owner = msg.sender */\n  0x0100\n  exp\n  dup2\n  sload\n  dup2\n  0xffffffffffffffffffffffffffffffffffffffff\n  mul\n  not\n  and\n  swap1\n  dup4\n  0xffffffffffffffffffffffffffffffffffffffff\n  and\n  mul\n  or\n  swap1\n  sstore\n  pop\n    /* \"Lottery/lotteryPancake.sol\":490:513  5 * 1000000000000000000 */\n  0x4563918244f40000\n    /* \"Lottery/lotteryPancake.sol\":476:487  ticketPrice */\n  0x01\n    /* \"Lottery/lotteryPancake.sol\":476:513  ticketPrice = 5 * 1000000000000000000 */\n  dup2\n  swap1\n  sstore\n  pop\n    /* \"Lottery/lotteryPancake.sol\":536:560  20 * 1000000000000000000 */\n  0x01158e460913d00000\n    /* \"Lottery/lotteryPancake.sol\":525:533  burnPool */\n  0x06\n    /* \"Lottery/lotteryPancake.sol\":525:560  burnPool = 20 * 1000000000000000000 */\n  dup2\n  swap1\n  sstore\n  pop\n    /* \"Lottery/lotteryPancake.sol\":65:7463  contract PancakeLottery {\r... */\n  dataSize(sub_0)\n  dup1\n  dataOffset(sub_0)\n  0x00\n  codecopy\n  0x00\n  return\nstop\n\nsub_0: assembly {\n        /* \"Lottery/lotteryPancake.sol\":65:7463  contract PancakeLottery {\r... */\n      mstore(0x40, 0x80)\n      jumpi(tag_1, lt(calldatasize, 0x04))\n      shr(0xe0, calldataload(0x00))\n      dup1\n      0x6c0d87fe\n      gt\n      tag_21\n      jumpi\n      dup1\n      0x8da5cb5b\n      gt\n      tag_22\n      jumpi\n      dup1\n      0x8da5cb5b\n      eq\n      tag_16\n      jumpi\n      dup1\n      0x8e7e9a3c\n      eq\n      tag_17\n      jumpi\n      dup1\n      0xa54b2a73\n      eq\n      tag_18\n      jumpi\n      dup1\n      0xa7caba25\n      eq\n      tag_19\n      jumpi\n      dup1\n      0xab3eb60e\n      eq\n      tag_20\n      jumpi\n      jump(tag_1)\n    tag_22:\n      dup1\n      0x6c0d87fe\n      eq\n      tag_11\n      jumpi\n      dup1\n      0x716cac96\n      eq\n      tag_12\n      jumpi\n      dup1\n      0x749aa2d9\n      eq\n      tag_13\n      jumpi\n      dup1\n      0x7ce52eb6\n      eq\n      tag_14\n      jumpi\n      dup1\n      0x84350e1d\n      eq\n      tag_15\n      jumpi\n      jump(tag_1)\n    tag_21:\n      dup1\n      0x2869f35a\n      gt\n      tag_23\n      jumpi\n      dup1\n      0x2869f35a\n      eq\n      tag_6\n      jumpi\n      dup1\n      0x398ab9a7\n      eq\n      tag_7\n      jumpi\n      dup1\n      0x486a7e6b\n      eq\n      tag_8\n      jumpi\n      dup1\n      0x4e45f095\n      eq\n      tag_9\n      jumpi\n      dup1\n      0x55e3f086\n      eq\n      tag_10\n      jumpi\n      jump(tag_1)\n    tag_23:\n      dup1\n      0x1004b18d\n      eq\n      tag_2\n      jumpi\n      dup1\n      0x1209b1f6\n      eq\n      tag_3\n      jumpi\n      dup1\n      0x1b646259\n      eq\n      tag_4\n      jumpi\n      dup1\n      0x2115f4d1\n      eq\n      tag_5\n      jumpi\n    tag_1:\n      0x00\n      dup1\n      revert\n        /* \"Lottery/lotteryPancake.sol\":2153:2409  function setWinningNumbers(uint256[] memory numbers) public {\r... */\n    tag_2:\n      callvalue\n      dup1\n      iszero\n      tag_24\n      jumpi\n      0x00\n      dup1\n      revert\n    tag_24:\n      pop\n      tag_25\n      0x04\n      dup1\n      calldatasize\n      sub\n      dup2\n      add\n      swap1\n      tag_26\n      swap2\n      swap1\n      tag_27\n      jump\t// in\n    tag_26:\n      tag_28\n      jump\t// in\n    tag_25:\n      stop\n        /* \"Lottery/lotteryPancake.sol\":124:150  uint256 public ticketPrice */\n    tag_3:\n      callvalue\n      dup1\n      iszero\n      tag_29\n      jumpi\n      0x00\n      dup1\n      revert\n    tag_29:\n      pop\n      tag_30\n      tag_31\n      jump\t// in\n    tag_30:\n      mload(0x40)\n      tag_32\n      swap2\n      swap1\n      tag_33\n      jump\t// in\n    tag_32:\n      mload(0x40)\n      dup1\n      swap2\n      sub\n      swap1\n      return\n        /* \"Lottery/lotteryPancake.sol\":252:300  mapping (uint256 => uint256[]) public prizePools */\n    tag_4:\n      callvalue\n      dup1\n      iszero\n      tag_34\n      jumpi\n      0x00\n      dup1\n      revert\n    tag_34:\n      pop\n      tag_35\n      0x04\n      dup1\n      calldatasize\n      sub\n      dup2\n      add\n      swap1\n      tag_36\n      swap2\n      swap1\n      tag_37\n      jump\t// in\n    tag_36:\n      tag_38\n      jump\t// in\n    tag_35:\n      mload(0x40)\n      tag_39\n      swap2\n      swap1\n      tag_33\n      jump\t// in\n    tag_39:\n      mload(0x40)\n      dup1\n      swap2\n      sub\n      swap1\n      return\n        /* \"Lottery/lotteryPancake.sol\":158:205  mapping (address => uint256[][]) public tickets */\n    tag_5:\n      callvalue\n      dup1\n      iszero\n      tag_40\n      jumpi\n      0x00\n      dup1\n      revert\n    tag_40:\n      pop\n      tag_41\n      0x04\n      dup1\n      calldatasize\n      sub\n      dup2\n      add\n      swap1\n      tag_42\n      swap2\n      swap1\n      tag_43\n      jump\t// in\n    tag_42:\n      tag_44\n      jump\t// in\n    tag_41:\n      mload(0x40)\n      tag_45\n      swap2\n      swap1\n      tag_33\n      jump\t// in\n    tag_45:\n      mload(0x40)\n      dup1\n      swap2\n      sub\n      swap1\n      return\n        /* \"Lottery/lotteryPancake.sol\":5338:6328  function claimPrizes(uint256[] memory ticket) public {\r... */\n    tag_6:\n      callvalue\n      dup1\n      iszero\n      tag_46\n      jumpi\n      0x00\n      dup1\n      revert\n    tag_46:\n      pop\n      tag_47\n      0x04\n      dup1\n      calldatasize\n      sub\n      dup2\n      add\n      swap1\n      tag_48\n      swap2\n      swap1\n      tag_27\n      jump\t// in\n    tag_48:\n      tag_49\n      jump\t// in\n    tag_47:\n      stop\n        /* \"Lottery/lotteryPancake.sol\":307:336  uint256 public totalPrizePool */\n    tag_7:\n      callvalue\n      dup1\n      iszero\n      tag_50\n      jumpi\n      0x00\n      dup1\n      revert\n    tag_50:\n      pop\n      tag_51\n      tag_52\n      jump\t// in\n    tag_51:\n      mload(0x40)\n      tag_53\n      swap2\n      swap1\n      tag_33\n      jump\t// in\n    tag_53:\n      mload(0x40)\n      dup1\n      swap2\n      sub\n      swap1\n      return\n        /* \"Lottery/lotteryPancake.sol\":375:400  uint256 public burnAmount */\n    tag_8:\n      callvalue\n      dup1\n      iszero\n      tag_54\n      jumpi\n      0x00\n      dup1\n      revert\n    tag_54:\n      pop\n      tag_55\n      tag_56\n      jump\t// in\n    tag_55:\n      mload(0x40)\n      tag_57\n      swap2\n      swap1\n      tag_33\n      jump\t// in\n    tag_57:\n      mload(0x40)\n      dup1\n      swap2\n      sub\n      swap1\n      return\n        /* \"Lottery/lotteryPancake.sol\":213:244  uint256[] public winningNumbers */\n    tag_9:\n      callvalue\n      dup1\n      iszero\n      tag_58\n      jumpi\n      0x00\n      dup1\n      revert\n    tag_58:\n      pop\n      tag_59\n      0x04\n      dup1\n      calldatasize\n      sub\n      dup2\n      add\n      swap1\n      tag_60\n      swap2\n      swap1\n      tag_61\n      jump\t// in\n    tag_60:\n      tag_62\n      jump\t// in\n    tag_59:\n      mload(0x40)\n      tag_63\n      swap2\n      swap1\n      tag_33\n      jump\t// in\n    tag_63:\n      mload(0x40)\n      dup1\n      swap2\n      sub\n      swap1\n      return\n        /* \"Lottery/lotteryPancake.sol\":1619:1988  function startRound() public {\r... */\n    tag_10:\n      callvalue\n      dup1\n      iszero\n      tag_64\n      jumpi\n      0x00\n      dup1\n      revert\n    tag_64:\n      pop\n      tag_65\n      tag_66\n      jump\t// in\n    tag_65:\n      stop\n        /* \"Lottery/lotteryPancake.sol\":1094:1202  function getTicketsBoughtCount() public view returns(uint count){\r... */\n    tag_11:\n      callvalue\n      dup1\n      iszero\n      tag_67\n      jumpi\n      0x00\n      dup1\n      revert\n    tag_67:\n      pop\n      tag_68\n      tag_69\n      jump\t// in\n    tag_68:\n      mload(0x40)\n      tag_70\n      swap2\n      swap1\n      tag_33\n      jump\t// in\n    tag_70:\n      mload(0x40)\n      dup1\n      swap2\n      sub\n      swap1\n      return\n        /* \"Lottery/lotteryPancake.sol\":766:1033  function buyTicket(uint256[] memory ticket) public payable {\r... */\n    tag_12:\n      tag_71\n      0x04\n      dup1\n      calldatasize\n      sub\n      dup2\n      add\n      swap1\n      tag_72\n      swap2\n      swap1\n      tag_27\n      jump\t// in\n    tag_72:\n      tag_73\n      jump\t// in\n    tag_71:\n      stop\n        /* \"Lottery/lotteryPancake.sol\":6548:6982  function endRound() public {\r... */\n    tag_13:\n      callvalue\n      dup1\n      iszero\n      tag_74\n      jumpi\n      0x00\n      dup1\n      revert\n    tag_74:\n      pop\n      tag_75\n      tag_76\n      jump\t// in\n    tag_75:\n      stop\n        /* \"Lottery/lotteryPancake.sol\":7148:7460  function distributePrizes() public {\r... */\n    tag_14:\n      callvalue\n      dup1\n      iszero\n      tag_77\n      jumpi\n      0x00\n      dup1\n      revert\n    tag_77:\n      pop\n      tag_78\n      tag_79\n      jump\t// in\n    tag_78:\n      stop\n        /* \"Lottery/lotteryPancake.sol\":3035:3302  function getWinningNumbers() public view returns (uint256[6] memory) {\r... */\n    tag_15:\n      callvalue\n      dup1\n      iszero\n      tag_80\n      jumpi\n      0x00\n      dup1\n      revert\n    tag_80:\n      pop\n      tag_81\n      tag_82\n      jump\t// in\n    tag_81:\n      mload(0x40)\n      tag_83\n      swap2\n      swap1\n      tag_84\n      jump\t// in\n    tag_83:\n      mload(0x40)\n      dup1\n      swap2\n      sub\n      swap1\n      return\n        /* \"Lottery/lotteryPancake.sol\":96:116  address public owner */\n    tag_16:\n      callvalue\n      dup1\n      iszero\n      tag_85\n      jumpi\n      0x00\n      dup1\n      revert\n    tag_85:\n      pop\n      tag_86\n      tag_87\n      jump\t// in\n    tag_86:\n      mload(0x40)\n      tag_88\n      swap2\n      swap1\n      tag_89\n      jump\t// in\n    tag_88:\n      mload(0x40)\n      dup1\n      swap2\n      sub\n      swap1\n      return\n        /* \"Lottery/lotteryPancake.sol\":3608:5147  function calculatePrizes() public {\r... */\n    tag_17:\n      callvalue\n      dup1\n      iszero\n      tag_90\n      jumpi\n      0x00\n      dup1\n      revert\n    tag_90:\n      pop\n      tag_91\n      tag_92\n      jump\t// in\n    tag_91:\n      stop\n        /* \"Lottery/lotteryPancake.sol\":344:367  uint256 public burnPool */\n    tag_18:\n      callvalue\n      dup1\n      iszero\n      tag_93\n      jumpi\n      0x00\n      dup1\n      revert\n    tag_93:\n      pop\n      tag_94\n      tag_95\n      jump\t// in\n    tag_94:\n      mload(0x40)\n      tag_96\n      swap2\n      swap1\n      tag_33\n      jump\t// in\n    tag_96:\n      mload(0x40)\n      dup1\n      swap2\n      sub\n      swap1\n      return\n        /* \"Lottery/lotteryPancake.sol\":2611:2940  function setWinningNumbers() public {\r... */\n    tag_19:\n      callvalue\n      dup1\n      iszero\n      tag_97\n      jumpi\n      0x00\n      dup1\n      revert\n    tag_97:\n      pop\n      tag_98\n      tag_99\n      jump\t// in\n    tag_98:\n      stop\n        /* \"Lottery/lotteryPancake.sol\":1313:1445  function viewTickets(uint256 ticketnr) public view returns(uint256[] memory) {\r... */\n    tag_20:\n      callvalue\n      dup1\n      iszero\n      tag_100\n      jumpi\n      0x00\n      dup1\n      revert\n    tag_100:\n      pop\n      tag_101\n      0x04\n      dup1\n      calldatasize\n      sub\n      dup2\n      add\n      swap1\n      tag_102\n      swap2\n      swap1\n      tag_61\n      jump\t// in\n    tag_102:\n      tag_103\n      jump\t// in\n    tag_101:\n      mload(0x40)\n      tag_104\n      swap2\n      swap1\n      tag_105\n      jump\t// in\n    tag_104:\n      mload(0x40)\n      dup1\n      swap2\n      sub\n      swap1\n      return\n        /* \"Lottery/lotteryPancake.sol\":2153:2409  function setWinningNumbers(uint256[] memory numbers) public {\r... */\n    tag_28:\n        /* \"Lottery/lotteryPancake.sol\":2246:2251  owner */\n      0x00\n      dup1\n      sload\n      swap1\n      0x0100\n      exp\n      swap1\n      div\n      0xffffffffffffffffffffffffffffffffffffffff\n      and\n        /* \"Lottery/lotteryPancake.sol\":2232:2251  msg.sender == owner */\n      0xffffffffffffffffffffffffffffffffffffffff\n      and\n        /* \"Lottery/lotteryPancake.sol\":2232:2242  msg.sender */\n      caller\n        /* \"Lottery/lotteryPancake.sol\":2232:2251  msg.sender == owner */\n      0xffffffffffffffffffffffffffffffffffffffff\n      and\n      eq\n        /* \"Lottery/lotteryPancake.sol\":2224:2298  require(msg.sender == owner, \"Only the owner can set the winning numbers\") */\n      tag_107\n      jumpi\n      mload(0x40)\n      0x08c379a000000000000000000000000000000000000000000000000000000000\n      dup2\n      mstore\n      0x04\n      add\n      tag_108\n      swap1\n      tag_109\n      jump\t// in\n    tag_108:\n      mload(0x40)\n      dup1\n      swap2\n      sub\n      swap1\n      revert\n    tag_107:\n        /* \"Lottery/lotteryPancake.sol\":2336:2337  6 */\n      0x06\n        /* \"Lottery/lotteryPancake.sol\":2318:2325  numbers */\n      dup2\n        /* \"Lottery/lotteryPancake.sol\":2318:2332  numbers.length */\n      mload\n        /* \"Lottery/lotteryPancake.sol\":2318:2337  numbers.length == 6 */\n      eq\n        /* \"Lottery/lotteryPancake.sol\":2310:2364  require(numbers.length == 6, \"Must provide 6 numbers\") */\n      tag_110\n      jumpi\n      mload(0x40)\n      0x08c379a000000000000000000000000000000000000000000000000000000000\n      dup2\n      mstore\n      0x04\n      add\n      tag_111\n      swap1\n      tag_112\n      jump\t// in\n    tag_111:\n      mload(0x40)\n      dup1\n      swap2\n      sub\n      swap1\n      revert\n    tag_110:\n        /* \"Lottery/lotteryPancake.sol\":2393:2400  numbers */\n      dup1\n        /* \"Lottery/lotteryPancake.sol\":2376:2390  winningNumbers */\n      0x03\n        /* \"Lottery/lotteryPancake.sol\":2376:2400  winningNumbers = numbers */\n      swap1\n      dup1\n      mload\n      swap1\n      0x20\n      add\n      swap1\n      tag_113\n      swap3\n      swap2\n      swap1\n      tag_114\n      jump\t// in\n    tag_113:\n      pop\n        /* \"Lottery/lotteryPancake.sol\":2153:2409  function setWinningNumbers(uint256[] memory numbers) public {\r... */\n      pop\n      jump\t// out\n        /* \"Lottery/lotteryPancake.sol\":124:150  uint256 public ticketPrice */\n    tag_31:\n      sload(0x01)\n      dup2\n      jump\t// out\n        /* \"Lottery/lotteryPancake.sol\":252:300  mapping (uint256 => uint256[]) public prizePools */\n    tag_38:\n      mstore(0x20, 0x04)\n      dup2\n      0x00\n      mstore\n      keccak256(0x00, 0x40)\n      dup2\n      dup2\n      sload\n      dup2\n      lt\n      tag_115\n      jumpi\n      invalid\n    tag_115:\n      swap1\n      0x00\n      mstore\n      keccak256(0x00, 0x20)\n      add\n      0x00\n      swap2\n      pop\n      swap2\n      pop\n      pop\n      sload\n      dup2\n      jump\t// out\n        /* \"Lottery/lotteryPancake.sol\":158:205  mapping (address => uint256[][]) public tickets */\n    tag_44:\n      mstore(0x20, 0x02)\n      dup3\n      0x00\n      mstore\n      keccak256(0x00, 0x40)\n      dup3\n      dup2\n      sload\n      dup2\n      lt\n      tag_117\n      jumpi\n      invalid\n    tag_117:\n      swap1\n      0x00\n      mstore\n      keccak256(0x00, 0x20)\n      add\n      dup2\n      dup2\n      sload\n      dup2\n      lt\n      tag_119\n      jumpi\n      invalid\n    tag_119:\n      swap1\n      0x00\n      mstore\n      keccak256(0x00, 0x20)\n      add\n      0x00\n      swap3\n      pop\n      swap3\n      pop\n      pop\n      pop\n      sload\n      dup2\n      jump\t// out\n        /* \"Lottery/lotteryPancake.sol\":5338:6328  function claimPrizes(uint256[] memory ticket) public {\r... */\n    tag_49:\n        /* \"Lottery/lotteryPancake.sol\":5439:5440  0 */\n      0x00\n        /* \"Lottery/lotteryPancake.sol\":5410:5417  tickets */\n      0x02\n        /* \"Lottery/lotteryPancake.sol\":5410:5429  tickets[msg.sender] */\n      0x00\n        /* \"Lottery/lotteryPancake.sol\":5418:5428  msg.sender */\n      caller\n        /* \"Lottery/lotteryPancake.sol\":5410:5429  tickets[msg.sender] */\n      0xffffffffffffffffffffffffffffffffffffffff\n      and\n      0xffffffffffffffffffffffffffffffffffffffff\n      and\n      dup2\n      mstore\n      0x20\n      add\n      swap1\n      dup2\n      mstore\n      0x20\n      add\n      0x00\n      keccak256\n        /* \"Lottery/lotteryPancake.sol\":5410:5436  tickets[msg.sender].length */\n      dup1\n      sload\n      swap1\n      pop\n        /* \"Lottery/lotteryPancake.sol\":5410:5440  tickets[msg.sender].length > 0 */\n      gt\n        /* \"Lottery/lotteryPancake.sol\":5402:5471  require(tickets[msg.sender].length > 0, \"You don't have any tickets\") */\n      tag_122\n      jumpi\n      mload(0x40)\n      0x08c379a000000000000000000000000000000000000000000000000000000000\n      dup2\n      mstore\n      0x04\n      add\n      tag_123\n      swap1\n      tag_124\n      jump\t// in\n    tag_123:\n      mload(0x40)\n      dup1\n      swap2\n      sub\n      swap1\n      revert\n    tag_122:\n        /* \"Lottery/lotteryPancake.sol\":5483:5498  uint256 counter */\n      0x00\n        /* \"Lottery/lotteryPancake.sol\":5519:5528  uint256 j */\n      dup1\n        /* \"Lottery/lotteryPancake.sol\":5514:5653  for (uint256 j = 0; j < 6; j++) {\r... */\n    tag_125:\n        /* \"Lottery/lotteryPancake.sol\":5538:5539  6 */\n      0x06\n        /* \"Lottery/lotteryPancake.sol\":5534:5535  j */\n      dup2\n        /* \"Lottery/lotteryPancake.sol\":5534:5539  j < 6 */\n      lt\n        /* \"Lottery/lotteryPancake.sol\":5514:5653  for (uint256 j = 0; j < 6; j++) {\r... */\n      iszero\n      tag_126\n      jumpi\n        /* \"Lottery/lotteryPancake.sol\":5578:5592  winningNumbers */\n      0x03\n        /* \"Lottery/lotteryPancake.sol\":5593:5594  j */\n      dup2\n        /* \"Lottery/lotteryPancake.sol\":5578:5595  winningNumbers[j] */\n      dup2\n      sload\n      dup2\n      lt\n      tag_128\n      jumpi\n      invalid\n    tag_128:\n      swap1\n      0x00\n      mstore\n      keccak256(0x00, 0x20)\n      add\n      sload\n        /* \"Lottery/lotteryPancake.sol\":5565:5571  ticket */\n      dup4\n        /* \"Lottery/lotteryPancake.sol\":5572:5573  j */\n      dup3\n        /* \"Lottery/lotteryPancake.sol\":5565:5574  ticket[j] */\n      dup2\n      mload\n      dup2\n      lt\n      tag_130\n      jumpi\n      invalid\n    tag_130:\n      0x20\n      mul\n      0x20\n      add\n      add\n      mload\n        /* \"Lottery/lotteryPancake.sol\":5565:5595  ticket[j] == winningNumbers[j] */\n      eq\n        /* \"Lottery/lotteryPancake.sol\":5561:5642  if (ticket[j] == winningNumbers[j]) {\r... */\n      iszero\n      tag_131\n      jumpi\n        /* \"Lottery/lotteryPancake.sol\":5616:5625  counter++ */\n      dup2\n      dup1\n      0x01\n      add\n      swap3\n      pop\n      pop\n        /* \"Lottery/lotteryPancake.sol\":5561:5642  if (ticket[j] == winningNumbers[j]) {\r... */\n    tag_131:\n        /* \"Lottery/lotteryPancake.sol\":5541:5544  j++ */\n      dup1\n      dup1\n      0x01\n      add\n      swap2\n      pop\n      pop\n        /* \"Lottery/lotteryPancake.sol\":5514:5653  for (uint256 j = 0; j < 6; j++) {\r... */\n      jump(tag_125)\n    tag_126:\n      pop\n        /* \"Lottery/lotteryPancake.sol\":5678:5679  1 */\n      0x01\n        /* \"Lottery/lotteryPancake.sol\":5667:5674  counter */\n      dup2\n        /* \"Lottery/lotteryPancake.sol\":5667:5679  counter == 1 */\n      eq\n        /* \"Lottery/lotteryPancake.sol\":5663:6231  if (counter == 1) {\r... */\n      iszero\n      tag_132\n      jumpi\n        /* \"Lottery/lotteryPancake.sol\":5716:5739  2 * 1000000000000000000 */\n      0x1bc16d674ec80000\n        /* \"Lottery/lotteryPancake.sol\":5696:5706  prizePools */\n      0x04\n        /* \"Lottery/lotteryPancake.sol\":5696:5709  prizePools[0] */\n      0x00\n        /* \"Lottery/lotteryPancake.sol\":5707:5708  0 */\n      dup1\n        /* \"Lottery/lotteryPancake.sol\":5696:5709  prizePools[0] */\n      dup2\n      mstore\n      0x20\n      add\n      swap1\n      dup2\n      mstore\n      0x20\n      add\n      0x00\n      keccak256\n        /* \"Lottery/lotteryPancake.sol\":5710:5711  1 */\n      0x01\n        /* \"Lottery/lotteryPancake.sol\":5696:5712  prizePools[0][1] */\n      dup2\n      sload\n      dup2\n      lt\n      tag_133\n      jumpi\n      invalid\n    tag_133:\n      swap1\n      0x00\n      mstore\n      keccak256(0x00, 0x20)\n      add\n      0x00\n        /* \"Lottery/lotteryPancake.sol\":5696:5739  prizePools[0][1] += 2 * 1000000000000000000 */\n      dup3\n      dup3\n      sload\n      add\n      swap3\n      pop\n      pop\n      dup2\n      swap1\n      sstore\n      pop\n        /* \"Lottery/lotteryPancake.sol\":5663:6231  if (counter == 1) {\r... */\n      jump(tag_135)\n    tag_132:\n        /* \"Lottery/lotteryPancake.sol\":5773:5774  2 */\n      0x02\n        /* \"Lottery/lotteryPancake.sol\":5762:5769  counter */\n      dup2\n        /* \"Lottery/lotteryPancake.sol\":5762:5774  counter == 2 */\n      eq\n        /* \"Lottery/lotteryPancake.sol\":5758:6231  if (counter == 2) {\r... */\n      iszero\n      tag_136\n      jumpi\n        /* \"Lottery/lotteryPancake.sol\":5811:5834  3 * 1000000000000000000 */\n      0x29a2241af62c0000\n        /* \"Lottery/lotteryPancake.sol\":5791:5801  prizePools */\n      0x04\n        /* \"Lottery/lotteryPancake.sol\":5791:5804  prizePools[1] */\n      0x00\n        /* \"Lottery/lotteryPancake.sol\":5802:5803  1 */\n      0x01\n        /* \"Lottery/lotteryPancake.sol\":5791:5804  prizePools[1] */\n      dup2\n      mstore\n      0x20\n      add\n      swap1\n      dup2\n      mstore\n      0x20\n      add\n      0x00\n      keccak256\n        /* \"Lottery/lotteryPancake.sol\":5805:5806  1 */\n      0x01\n        /* \"Lottery/lotteryPancake.sol\":5791:5807  prizePools[1][1] */\n      dup2\n      sload\n      dup2\n      lt\n      tag_137\n      jumpi\n      invalid\n    tag_137:\n      swap1\n      0x00\n      mstore\n      keccak256(0x00, 0x20)\n      add\n      0x00\n        /* \"Lottery/lotteryPancake.sol\":5791:5834  prizePools[1][1] += 3 * 1000000000000000000 */\n      dup3\n      dup3\n      sload\n      add\n      swap3\n      pop\n      pop\n      dup2\n      swap1\n      sstore\n      pop\n        /* \"Lottery/lotteryPancake.sol\":5758:6231  if (counter == 2) {\r... */\n      jump(tag_139)\n    tag_136:\n        /* \"Lottery/lotteryPancake.sol\":5868:5869  3 */\n      0x03\n        /* \"Lottery/lotteryPancake.sol\":5857:5864  counter */\n      dup2\n        /* \"Lottery/lotteryPancake.sol\":5857:5869  counter == 3 */\n      eq\n        /* \"Lottery/lotteryPancake.sol\":5853:6231  if (counter == 3) {\r... */\n      iszero\n      tag_140\n      jumpi\n        /* \"Lottery/lotteryPancake.sol\":5906:5930  5  * 1000000000000000000 */\n      0x4563918244f40000\n        /* \"Lottery/lotteryPancake.sol\":5886:5896  prizePools */\n      0x04\n        /* \"Lottery/lotteryPancake.sol\":5886:5899  prizePools[2] */\n      0x00\n        /* \"Lottery/lotteryPancake.sol\":5897:5898  2 */\n      0x02\n        /* \"Lottery/lotteryPancake.sol\":5886:5899  prizePools[2] */\n      dup2\n      mstore\n      0x20\n      add\n      swap1\n      dup2\n      mstore\n      0x20\n      add\n      0x00\n      keccak256\n        /* \"Lottery/lotteryPancake.sol\":5900:5901  1 */\n      0x01\n        /* \"Lottery/lotteryPancake.sol\":5886:5902  prizePools[2][1] */\n      dup2\n      sload\n      dup2\n      lt\n      tag_141\n      jumpi\n      invalid\n    tag_141:\n      swap1\n      0x00\n      mstore\n      keccak256(0x00, 0x20)\n      add\n      0x00\n        /* \"Lottery/lotteryPancake.sol\":5886:5930  prizePools[2][1] += 5  * 1000000000000000000 */\n      dup3\n      dup3\n      sload\n      add\n      swap3\n      pop\n      pop\n      dup2\n      swap1\n      sstore\n      pop\n        /* \"Lottery/lotteryPancake.sol\":5853:6231  if (counter == 3) {\r... */\n      jump(tag_143)\n    tag_140:\n        /* \"Lottery/lotteryPancake.sol\":5964:5965  4 */\n      0x04\n        /* \"Lottery/lotteryPancake.sol\":5953:5960  counter */\n      dup2\n        /* \"Lottery/lotteryPancake.sol\":5953:5965  counter == 4 */\n      eq\n        /* \"Lottery/lotteryPancake.sol\":5949:6231  if (counter == 4) {\r... */\n      iszero\n      tag_144\n      jumpi\n        /* \"Lottery/lotteryPancake.sol\":6002:6026  10 * 1000000000000000000 */\n      0x8ac7230489e80000\n        /* \"Lottery/lotteryPancake.sol\":5982:5992  prizePools */\n      0x04\n        /* \"Lottery/lotteryPancake.sol\":5982:5995  prizePools[3] */\n      0x00\n        /* \"Lottery/lotteryPancake.sol\":5993:5994  3 */\n      0x03\n        /* \"Lottery/lotteryPancake.sol\":5982:5995  prizePools[3] */\n      dup2\n      mstore\n      0x20\n      add\n      swap1\n      dup2\n      mstore\n      0x20\n      add\n      0x00\n      keccak256\n        /* \"Lottery/lotteryPancake.sol\":5996:5997  1 */\n      0x01\n        /* \"Lottery/lotteryPancake.sol\":5982:5998  prizePools[3][1] */\n      dup2\n      sload\n      dup2\n      lt\n      tag_145\n      jumpi\n      invalid\n    tag_145:\n      swap1\n      0x00\n      mstore\n      keccak256(0x00, 0x20)\n      add\n      0x00\n        /* \"Lottery/lotteryPancake.sol\":5982:6026  prizePools[3][1] += 10 * 1000000000000000000 */\n      dup3\n      dup3\n      sload\n      add\n      swap3\n      pop\n      pop\n      dup2\n      swap1\n      sstore\n      pop\n        /* \"Lottery/lotteryPancake.sol\":5949:6231  if (counter == 4) {\r... */\n      jump(tag_147)\n    tag_144:\n        /* \"Lottery/lotteryPancake.sol\":6060:6061  5 */\n      0x05\n        /* \"Lottery/lotteryPancake.sol\":6049:6056  counter */\n      dup2\n        /* \"Lottery/lotteryPancake.sol\":6049:6061  counter == 5 */\n      eq\n        /* \"Lottery/lotteryPancake.sol\":6045:6231  if (counter == 5) {\r... */\n      iszero\n      tag_148\n      jumpi\n        /* \"Lottery/lotteryPancake.sol\":6098:6122  20 * 1000000000000000000 */\n      0x01158e460913d00000\n        /* \"Lottery/lotteryPancake.sol\":6078:6088  prizePools */\n      0x04\n        /* \"Lottery/lotteryPancake.sol\":6078:6091  prizePools[4] */\n      0x00\n        /* \"Lottery/lotteryPancake.sol\":6089:6090  4 */\n      0x04\n        /* \"Lottery/lotteryPancake.sol\":6078:6091  prizePools[4] */\n      dup2\n      mstore\n      0x20\n      add\n      swap1\n      dup2\n      mstore\n      0x20\n      add\n      0x00\n      keccak256\n        /* \"Lottery/lotteryPancake.sol\":6092:6093  1 */\n      0x01\n        /* \"Lottery/lotteryPancake.sol\":6078:6094  prizePools[4][1] */\n      dup2\n      sload\n      dup2\n      lt\n      tag_149\n      jumpi\n      invalid\n    tag_149:\n      swap1\n      0x00\n      mstore\n      keccak256(0x00, 0x20)\n      add\n      0x00\n        /* \"Lottery/lotteryPancake.sol\":6078:6122  prizePools[4][1] += 20 * 1000000000000000000 */\n      dup3\n      dup3\n      sload\n      add\n      swap3\n      pop\n      pop\n      dup2\n      swap1\n      sstore\n      pop\n        /* \"Lottery/lotteryPancake.sol\":6045:6231  if (counter == 5) {\r... */\n      jump(tag_151)\n    tag_148:\n        /* \"Lottery/lotteryPancake.sol\":6156:6157  6 */\n      0x06\n        /* \"Lottery/lotteryPancake.sol\":6145:6152  counter */\n      dup2\n        /* \"Lottery/lotteryPancake.sol\":6145:6157  counter == 6 */\n      eq\n        /* \"Lottery/lotteryPancake.sol\":6141:6231  if (counter == 6) {\r... */\n      iszero\n      tag_152\n      jumpi\n        /* \"Lottery/lotteryPancake.sol\":6194:6218  40 * 1000000000000000000 */\n      0x022b1c8c1227a00000\n        /* \"Lottery/lotteryPancake.sol\":6174:6184  prizePools */\n      0x04\n        /* \"Lottery/lotteryPancake.sol\":6174:6187  prizePools[5] */\n      0x00\n        /* \"Lottery/lotteryPancake.sol\":6185:6186  5 */\n      0x05\n        /* \"Lottery/lotteryPancake.sol\":6174:6187  prizePools[5] */\n      dup2\n      mstore\n      0x20\n      add\n      swap1\n      dup2\n      mstore\n      0x20\n      add\n      0x00\n      keccak256\n        /* \"Lottery/lotteryPancake.sol\":6188:6189  1 */\n      0x01\n        /* \"Lottery/lotteryPancake.sol\":6174:6190  prizePools[5][1] */\n      dup2\n      sload\n      dup2\n      lt\n      tag_153\n      jumpi\n      invalid\n    tag_153:\n      swap1\n      0x00\n      mstore\n      keccak256(0x00, 0x20)\n      add\n      0x00\n        /* \"Lottery/lotteryPancake.sol\":6174:6218  prizePools[5][1] += 40 * 1000000000000000000 */\n      dup3\n      dup3\n      sload\n      add\n      swap3\n      pop\n      pop\n      dup2\n      swap1\n      sstore\n      pop\n        /* \"Lottery/lotteryPancake.sol\":6141:6231  if (counter == 6) {\r... */\n    tag_152:\n        /* \"Lottery/lotteryPancake.sol\":6045:6231  if (counter == 5) {\r... */\n    tag_151:\n        /* \"Lottery/lotteryPancake.sol\":5949:6231  if (counter == 4) {\r... */\n    tag_147:\n        /* \"Lottery/lotteryPancake.sol\":5853:6231  if (counter == 3) {\r... */\n    tag_143:\n        /* \"Lottery/lotteryPancake.sol\":5758:6231  if (counter == 2) {\r... */\n    tag_139:\n        /* \"Lottery/lotteryPancake.sol\":5663:6231  if (counter == 1) {\r... */\n    tag_135:\n        /* \"Lottery/lotteryPancake.sol\":6241:6254  uint256 prize */\n      0x00\n        /* \"Lottery/lotteryPancake.sol\":6257:6267  prizePools */\n      0x04\n        /* \"Lottery/lotteryPancake.sol\":6257:6278  prizePools[counter-1] */\n      0x00\n        /* \"Lottery/lotteryPancake.sol\":6276:6277  1 */\n      0x01\n        /* \"Lottery/lotteryPancake.sol\":6268:6275  counter */\n      dup5\n        /* \"Lottery/lotteryPancake.sol\":6268:6277  counter-1 */\n      sub\n        /* \"Lottery/lotteryPancake.sol\":6257:6278  prizePools[counter-1] */\n      dup2\n      mstore\n      0x20\n      add\n      swap1\n      dup2\n      mstore\n      0x20\n      add\n      0x00\n      keccak256\n        /* \"Lottery/lotteryPancake.sol\":6279:6280  1 */\n      0x01\n        /* \"Lottery/lotteryPancake.sol\":6257:6281  prizePools[counter-1][1] */\n      dup2\n      sload\n      dup2\n      lt\n      tag_155\n      jumpi\n      invalid\n    tag_155:\n      swap1\n      0x00\n      mstore\n      keccak256(0x00, 0x20)\n      add\n      sload\n        /* \"Lottery/lotteryPancake.sol\":6241:6281  uint256 prize = prizePools[counter-1][1] */\n      swap1\n      pop\n        /* \"Lottery/lotteryPancake.sol\":6293:6303  msg.sender */\n      caller\n        /* \"Lottery/lotteryPancake.sol\":6293:6312  msg.sender.transfer */\n      0xffffffffffffffffffffffffffffffffffffffff\n      and\n        /* \"Lottery/lotteryPancake.sol\":6293:6319  msg.sender.transfer(prize) */\n      0x08fc\n        /* \"Lottery/lotteryPancake.sol\":6313:6318  prize */\n      dup3\n        /* \"Lottery/lotteryPancake.sol\":6293:6319  msg.sender.transfer(prize) */\n      swap1\n      dup2\n      iszero\n      mul\n      swap1\n      mload(0x40)\n      0x00\n      mload(0x40)\n      dup1\n      dup4\n      sub\n      dup2\n      dup6\n      dup9\n      dup9\n      call\n      swap4\n      pop\n      pop\n      pop\n      pop\n      iszero\n      dup1\n      iszero\n      tag_158\n      jumpi\n      returndatasize\n      0x00\n      dup1\n      returndatacopy\n      revert(0x00, returndatasize)\n    tag_158:\n      pop\n        /* \"Lottery/lotteryPancake.sol\":5338:6328  function claimPrizes(uint256[] memory ticket) public {\r... */\n      pop\n      pop\n      pop\n      jump\t// out\n        /* \"Lottery/lotteryPancake.sol\":307:336  uint256 public totalPrizePool */\n    tag_52:\n      sload(0x05)\n      dup2\n      jump\t// out\n        /* \"Lottery/lotteryPancake.sol\":375:400  uint256 public burnAmount */\n    tag_56:\n      sload(0x07)\n      dup2\n      jump\t// out\n        /* \"Lottery/lotteryPancake.sol\":213:244  uint256[] public winningNumbers */\n    tag_62:\n      0x03\n      dup2\n      dup2\n      sload\n      dup2\n      lt\n      tag_159\n      jumpi\n      invalid\n    tag_159:\n      swap1\n      0x00\n      mstore\n      keccak256(0x00, 0x20)\n      add\n      0x00\n      swap2\n      pop\n      swap1\n      pop\n      sload\n      dup2\n      jump\t// out\n        /* \"Lottery/lotteryPancake.sol\":1619:1988  function startRound() public {\r... */\n    tag_66:\n        /* \"Lottery/lotteryPancake.sol\":1681:1686  owner */\n      0x00\n      dup1\n      sload\n      swap1\n      0x0100\n      exp\n      swap1\n      div\n      0xffffffffffffffffffffffffffffffffffffffff\n      and\n        /* \"Lottery/lotteryPancake.sol\":1667:1686  msg.sender == owner */\n      0xffffffffffffffffffffffffffffffffffffffff\n      and\n        /* \"Lottery/lotteryPancake.sol\":1667:1677  msg.sender */\n      caller\n        /* \"Lottery/lotteryPancake.sol\":1667:1686  msg.sender == owner */\n      0xffffffffffffffffffffffffffffffffffffffff\n      and\n      eq\n        /* \"Lottery/lotteryPancake.sol\":1659:1723  require(msg.sender == owner, \"Only the owner can start a round\") */\n      tag_162\n      jumpi\n      mload(0x40)\n      0x08c379a000000000000000000000000000000000000000000000000000000000\n      dup2\n      mstore\n      0x04\n      add\n      tag_163\n      swap1\n      tag_164\n      jump\t// in\n    tag_163:\n      mload(0x40)\n      dup1\n      swap2\n      sub\n      swap1\n      revert\n    tag_162:\n        /* \"Lottery/lotteryPancake.sol\":1752:1753  0 */\n      0x00\n        /* \"Lottery/lotteryPancake.sol\":1735:1749  totalPrizePool */\n      0x05\n        /* \"Lottery/lotteryPancake.sol\":1735:1753  totalPrizePool = 0 */\n      dup2\n      swap1\n      sstore\n      pop\n        /* \"Lottery/lotteryPancake.sol\":1778:1779  0 */\n      0x00\n        /* \"Lottery/lotteryPancake.sol\":1765:1775  burnAmount */\n      0x07\n        /* \"Lottery/lotteryPancake.sol\":1765:1779  burnAmount = 0 */\n      dup2\n      swap1\n      sstore\n      pop\n        /* \"Lottery/lotteryPancake.sol\":1796:1805  uint256 i */\n      0x00\n        /* \"Lottery/lotteryPancake.sol\":1791:1981  for (uint256 i = 0; i < 6; i++) {\r... */\n    tag_165:\n        /* \"Lottery/lotteryPancake.sol\":1815:1816  6 */\n      0x06\n        /* \"Lottery/lotteryPancake.sol\":1811:1812  i */\n      dup2\n        /* \"Lottery/lotteryPancake.sol\":1811:1816  i < 6 */\n      lt\n        /* \"Lottery/lotteryPancake.sol\":1791:1981  for (uint256 i = 0; i < 6; i++) {\r... */\n      iszero\n      tag_166\n      jumpi\n        /* \"Lottery/lotteryPancake.sol\":1838:1859  uint256[] memory pool */\n      0x60\n        /* \"Lottery/lotteryPancake.sol\":1876:1877  2 */\n      0x02\n        /* \"Lottery/lotteryPancake.sol\":1862:1878  new uint256[](2) */\n      0xffffffffffffffff\n      dup2\n      gt\n      dup1\n      iszero\n      tag_168\n      jumpi\n      0x00\n      dup1\n      revert\n    tag_168:\n      pop\n      mload(0x40)\n      swap1\n      dup1\n      dup3\n      mstore\n      dup1\n      0x20\n      mul\n      0x20\n      add\n      dup3\n      add\n      0x40\n      mstore\n      dup1\n      iszero\n      tag_169\n      jumpi\n      dup2\n      0x20\n      add\n      0x20\n      dup3\n      mul\n      dup1\n      calldatasize\n      dup4\n      calldatacopy\n      dup1\n      dup3\n      add\n      swap2\n      pop\n      pop\n      swap1\n      pop\n    tag_169:\n      pop\n        /* \"Lottery/lotteryPancake.sol\":1838:1878  uint256[] memory pool = new uint256[](2) */\n      swap1\n      pop\n        /* \"Lottery/lotteryPancake.sol\":1904:1905  0 */\n      0x00\n        /* \"Lottery/lotteryPancake.sol\":1894:1898  pool */\n      dup2\n        /* \"Lottery/lotteryPancake.sol\":1899:1900  0 */\n      0x00\n        /* \"Lottery/lotteryPancake.sol\":1894:1901  pool[0] */\n      dup2\n      mload\n      dup2\n      lt\n      tag_170\n      jumpi\n      invalid\n    tag_170:\n      0x20\n      mul\n      0x20\n      add\n      add\n        /* \"Lottery/lotteryPancake.sol\":1894:1905  pool[0] = 0 */\n      dup2\n      dup2\n      mstore\n      pop\n      pop\n        /* \"Lottery/lotteryPancake.sol\":1931:1932  0 */\n      0x00\n        /* \"Lottery/lotteryPancake.sol\":1921:1925  pool */\n      dup2\n        /* \"Lottery/lotteryPancake.sol\":1926:1927  1 */\n      0x01\n        /* \"Lottery/lotteryPancake.sol\":1921:1928  pool[1] */\n      dup2\n      mload\n      dup2\n      lt\n      tag_171\n      jumpi\n      invalid\n    tag_171:\n      0x20\n      mul\n      0x20\n      add\n      add\n        /* \"Lottery/lotteryPancake.sol\":1921:1932  pool[1] = 0 */\n      dup2\n      dup2\n      mstore\n      pop\n      pop\n        /* \"Lottery/lotteryPancake.sol\":1964:1968  pool */\n      dup1\n        /* \"Lottery/lotteryPancake.sol\":1948:1958  prizePools */\n      0x04\n        /* \"Lottery/lotteryPancake.sol\":1948:1961  prizePools[i] */\n      0x00\n        /* \"Lottery/lotteryPancake.sol\":1959:1960  i */\n      dup5\n        /* \"Lottery/lotteryPancake.sol\":1948:1961  prizePools[i] */\n      dup2\n      mstore\n      0x20\n      add\n      swap1\n      dup2\n      mstore\n      0x20\n      add\n      0x00\n      keccak256\n        /* \"Lottery/lotteryPancake.sol\":1948:1968  prizePools[i] = pool */\n      swap1\n      dup1\n      mload\n      swap1\n      0x20\n      add\n      swap1\n      tag_172\n      swap3\n      swap2\n      swap1\n      tag_114\n      jump\t// in\n    tag_172:\n      pop\n        /* \"Lottery/lotteryPancake.sol\":1791:1981  for (uint256 i = 0; i < 6; i++) {\r... */\n      pop\n        /* \"Lottery/lotteryPancake.sol\":1818:1821  i++ */\n      dup1\n      dup1\n      0x01\n      add\n      swap2\n      pop\n      pop\n        /* \"Lottery/lotteryPancake.sol\":1791:1981  for (uint256 i = 0; i < 6; i++) {\r... */\n      jump(tag_165)\n    tag_166:\n      pop\n        /* \"Lottery/lotteryPancake.sol\":1619:1988  function startRound() public {\r... */\n      jump\t// out\n        /* \"Lottery/lotteryPancake.sol\":1094:1202  function getTicketsBoughtCount() public view returns(uint count){\r... */\n    tag_69:\n        /* \"Lottery/lotteryPancake.sol\":1147:1157  uint count */\n      0x00\n        /* \"Lottery/lotteryPancake.sol\":1172:1179  tickets */\n      0x02\n        /* \"Lottery/lotteryPancake.sol\":1172:1191  tickets[msg.sender] */\n      0x00\n        /* \"Lottery/lotteryPancake.sol\":1180:1190  msg.sender */\n      caller\n        /* \"Lottery/lotteryPancake.sol\":1172:1191  tickets[msg.sender] */\n      0xffffffffffffffffffffffffffffffffffffffff\n      and\n      0xffffffffffffffffffffffffffffffffffffffff\n      and\n      dup2\n      mstore\n      0x20\n      add\n      swap1\n      dup2\n      mstore\n      0x20\n      add\n      0x00\n      keccak256\n        /* \"Lottery/lotteryPancake.sol\":1172:1198  tickets[msg.sender].length */\n      dup1\n      sload\n      swap1\n      pop\n        /* \"Lottery/lotteryPancake.sol\":1165:1198  return tickets[msg.sender].length */\n      swap1\n      pop\n        /* \"Lottery/lotteryPancake.sol\":1094:1202  function getTicketsBoughtCount() public view returns(uint count){\r... */\n      swap1\n      jump\t// out\n        /* \"Lottery/lotteryPancake.sol\":766:1033  function buyTicket(uint256[] memory ticket) public payable {\r... */\n    tag_73:\n        /* \"Lottery/lotteryPancake.sol\":857:868  ticketPrice */\n      sload(0x01)\n        /* \"Lottery/lotteryPancake.sol\":844:853  msg.value */\n      callvalue\n        /* \"Lottery/lotteryPancake.sol\":844:868  msg.value == ticketPrice */\n      eq\n        /* \"Lottery/lotteryPancake.sol\":836:913  require(msg.value == ticketPrice, \"You need to pay the correct ticket price\") */\n      tag_175\n      jumpi\n      mload(0x40)\n      0x08c379a000000000000000000000000000000000000000000000000000000000\n      dup2\n      mstore\n      0x04\n      add\n      tag_176\n      swap1\n      tag_177\n      jump\t// in\n    tag_176:\n      mload(0x40)\n      dup1\n      swap2\n      sub\n      swap1\n      revert\n    tag_175:\n        /* \"Lottery/lotteryPancake.sol\":949:950  6 */\n      0x06\n        /* \"Lottery/lotteryPancake.sol\":932:938  ticket */\n      dup2\n        /* \"Lottery/lotteryPancake.sol\":932:945  ticket.length */\n      mload\n        /* \"Lottery/lotteryPancake.sol\":932:950  ticket.length == 6 */\n      eq\n        /* \"Lottery/lotteryPancake.sol\":924:980  require(ticket.length == 6, \"Ticket must have 6 digits\") */\n      tag_178\n      jumpi\n      mload(0x40)\n      0x08c379a000000000000000000000000000000000000000000000000000000000\n      dup2\n      mstore\n      0x04\n      add\n      tag_179\n      swap1\n      tag_180\n      jump\t// in\n    tag_179:\n      mload(0x40)\n      dup1\n      swap2\n      sub\n      swap1\n      revert\n    tag_178:\n        /* \"Lottery/lotteryPancake.sol\":992:999  tickets */\n      0x02\n        /* \"Lottery/lotteryPancake.sol\":992:1011  tickets[msg.sender] */\n      0x00\n        /* \"Lottery/lotteryPancake.sol\":1000:1010  msg.sender */\n      caller\n        /* \"Lottery/lotteryPancake.sol\":992:1011  tickets[msg.sender] */\n      0xffffffffffffffffffffffffffffffffffffffff\n      and\n      0xffffffffffffffffffffffffffffffffffffffff\n      and\n      dup2\n      mstore\n      0x20\n      add\n      swap1\n      dup2\n      mstore\n      0x20\n      add\n      0x00\n      keccak256\n        /* \"Lottery/lotteryPancake.sol\":1017:1023  ticket */\n      dup2\n        /* \"Lottery/lotteryPancake.sol\":992:1024  tickets[msg.sender].push(ticket) */\n      swap1\n      dup1\n      0x01\n      dup2\n      sload\n      add\n      dup1\n      dup3\n      sstore\n      dup1\n      swap2\n      pop\n      pop\n      0x01\n      swap1\n      sub\n      swap1\n      0x00\n      mstore\n      keccak256(0x00, 0x20)\n      add\n      0x00\n      swap1\n      swap2\n      swap1\n      swap2\n      swap1\n      swap2\n      pop\n      swap1\n      dup1\n      mload\n      swap1\n      0x20\n      add\n      swap1\n      tag_182\n      swap3\n      swap2\n      swap1\n      tag_114\n      jump\t// in\n    tag_182:\n      pop\n        /* \"Lottery/lotteryPancake.sol\":766:1033  function buyTicket(uint256[] memory ticket) public payable {\r... */\n      pop\n      jump\t// out\n        /* \"Lottery/lotteryPancake.sol\":6548:6982  function endRound() public {\r... */\n    tag_76:\n        /* \"Lottery/lotteryPancake.sol\":6608:6613  owner */\n      0x00\n      dup1\n      sload\n      swap1\n      0x0100\n      exp\n      swap1\n      div\n      0xffffffffffffffffffffffffffffffffffffffff\n      and\n        /* \"Lottery/lotteryPancake.sol\":6594:6613  msg.sender == owner */\n      0xffffffffffffffffffffffffffffffffffffffff\n      and\n        /* \"Lottery/lotteryPancake.sol\":6594:6604  msg.sender */\n      caller\n        /* \"Lottery/lotteryPancake.sol\":6594:6613  msg.sender == owner */\n      0xffffffffffffffffffffffffffffffffffffffff\n      and\n      eq\n        /* \"Lottery/lotteryPancake.sol\":6586:6650  require(msg.sender == owner, \"Only the owner can end the round\") */\n      tag_184\n      jumpi\n      mload(0x40)\n      0x08c379a000000000000000000000000000000000000000000000000000000000\n      dup2\n      mstore\n      0x04\n      add\n      tag_185\n      swap1\n      tag_186\n      jump\t// in\n    tag_185:\n      mload(0x40)\n      dup1\n      swap2\n      sub\n      swap1\n      revert\n    tag_184:\n        /* \"Lottery/lotteryPancake.sol\":6662:6675  uint256 total */\n      0x00\n        /* \"Lottery/lotteryPancake.sol\":6695:6705  burnAmount */\n      sload(0x07)\n        /* \"Lottery/lotteryPancake.sol\":6678:6692  totalPrizePool */\n      sload(0x05)\n        /* \"Lottery/lotteryPancake.sol\":6678:6705  totalPrizePool + burnAmount */\n      add\n        /* \"Lottery/lotteryPancake.sol\":6662:6705  uint256 total = totalPrizePool + burnAmount */\n      swap1\n      pop\n        /* \"Lottery/lotteryPancake.sol\":6722:6731  uint256 i */\n      0x00\n        /* \"Lottery/lotteryPancake.sol\":6717:6915  for (uint256 i = 0; i < 6; i++) {\r... */\n    tag_187:\n        /* \"Lottery/lotteryPancake.sol\":6741:6742  6 */\n      0x06\n        /* \"Lottery/lotteryPancake.sol\":6737:6738  i */\n      dup2\n        /* \"Lottery/lotteryPancake.sol\":6737:6742  i < 6 */\n      lt\n        /* \"Lottery/lotteryPancake.sol\":6717:6915  for (uint256 i = 0; i < 6; i++) {\r... */\n      iszero\n      tag_188\n      jumpi\n        /* \"Lottery/lotteryPancake.sol\":6764:6778  uint256 amount */\n      0x00\n        /* \"Lottery/lotteryPancake.sol\":6818:6823  total */\n      dup3\n        /* \"Lottery/lotteryPancake.sol\":6801:6815  totalPrizePool */\n      sload(0x05)\n        /* \"Lottery/lotteryPancake.sol\":6801:6823  totalPrizePool / total */\n      dup2\n      tag_190\n      jumpi\n      invalid\n    tag_190:\n      div\n        /* \"Lottery/lotteryPancake.sol\":6781:6791  prizePools */\n      0x04\n        /* \"Lottery/lotteryPancake.sol\":6781:6794  prizePools[i] */\n      0x00\n        /* \"Lottery/lotteryPancake.sol\":6792:6793  i */\n      dup5\n        /* \"Lottery/lotteryPancake.sol\":6781:6794  prizePools[i] */\n      dup2\n      mstore\n      0x20\n      add\n      swap1\n      dup2\n      mstore\n      0x20\n      add\n      0x00\n      keccak256\n        /* \"Lottery/lotteryPancake.sol\":6795:6796  1 */\n      0x01\n        /* \"Lottery/lotteryPancake.sol\":6781:6797  prizePools[i][1] */\n      dup2\n      sload\n      dup2\n      lt\n      tag_191\n      jumpi\n      invalid\n    tag_191:\n      swap1\n      0x00\n      mstore\n      keccak256(0x00, 0x20)\n      add\n      sload\n        /* \"Lottery/lotteryPancake.sol\":6781:6824  prizePools[i][1] * (totalPrizePool / total) */\n      mul\n        /* \"Lottery/lotteryPancake.sol\":6764:6824  uint256 amount = prizePools[i][1] * (totalPrizePool / total) */\n      swap1\n      pop\n        /* \"Lottery/lotteryPancake.sol\":6859:6860  0 */\n      0x00\n        /* \"Lottery/lotteryPancake.sol\":6840:6850  prizePools */\n      0x04\n        /* \"Lottery/lotteryPancake.sol\":6840:6853  prizePools[i] */\n      0x00\n        /* \"Lottery/lotteryPancake.sol\":6851:6852  i */\n      dup5\n        /* \"Lottery/lotteryPancake.sol\":6840:6853  prizePools[i] */\n      dup2\n      mstore\n      0x20\n      add\n      swap1\n      dup2\n      mstore\n      0x20\n      add\n      0x00\n      keccak256\n        /* \"Lottery/lotteryPancake.sol\":6854:6855  1 */\n      0x01\n        /* \"Lottery/lotteryPancake.sol\":6840:6856  prizePools[i][1] */\n      dup2\n      sload\n      dup2\n      lt\n      tag_193\n      jumpi\n      invalid\n    tag_193:\n      swap1\n      0x00\n      mstore\n      keccak256(0x00, 0x20)\n      add\n        /* \"Lottery/lotteryPancake.sol\":6840:6860  prizePools[i][1] = 0 */\n      dup2\n      swap1\n      sstore\n      pop\n        /* \"Lottery/lotteryPancake.sol\":6896:6902  amount */\n      dup1\n        /* \"Lottery/lotteryPancake.sol\":6876:6886  prizePools */\n      0x04\n        /* \"Lottery/lotteryPancake.sol\":6876:6889  prizePools[i] */\n      0x00\n        /* \"Lottery/lotteryPancake.sol\":6887:6888  i */\n      dup5\n        /* \"Lottery/lotteryPancake.sol\":6876:6889  prizePools[i] */\n      dup2\n      mstore\n      0x20\n      add\n      swap1\n      dup2\n      mstore\n      0x20\n      add\n      0x00\n      keccak256\n        /* \"Lottery/lotteryPancake.sol\":6890:6891  0 */\n      0x00\n        /* \"Lottery/lotteryPancake.sol\":6876:6892  prizePools[i][0] */\n      dup2\n      sload\n      dup2\n      lt\n      tag_195\n      jumpi\n      invalid\n    tag_195:\n      swap1\n      0x00\n      mstore\n      keccak256(0x00, 0x20)\n      add\n      0x00\n        /* \"Lottery/lotteryPancake.sol\":6876:6902  prizePools[i][0] += amount */\n      dup3\n      dup3\n      sload\n      add\n      swap3\n      pop\n      pop\n      dup2\n      swap1\n      sstore\n      pop\n        /* \"Lottery/lotteryPancake.sol\":6717:6915  for (uint256 i = 0; i < 6; i++) {\r... */\n      pop\n        /* \"Lottery/lotteryPancake.sol\":6744:6747  i++ */\n      dup1\n      dup1\n      0x01\n      add\n      swap2\n      pop\n      pop\n        /* \"Lottery/lotteryPancake.sol\":6717:6915  for (uint256 i = 0; i < 6; i++) {\r... */\n      jump(tag_187)\n    tag_188:\n      pop\n        /* \"Lottery/lotteryPancake.sol\":6967:6972  total */\n      dup1\n        /* \"Lottery/lotteryPancake.sol\":6950:6964  totalPrizePool */\n      sload(0x05)\n        /* \"Lottery/lotteryPancake.sol\":6950:6972  totalPrizePool / total */\n      dup2\n      tag_197\n      jumpi\n      invalid\n    tag_197:\n      div\n        /* \"Lottery/lotteryPancake.sol\":6938:6946  burnPool */\n      sload(0x06)\n        /* \"Lottery/lotteryPancake.sol\":6938:6973  burnPool * (totalPrizePool / total) */\n      mul\n        /* \"Lottery/lotteryPancake.sol\":6925:6935  burnAmount */\n      0x07\n        /* \"Lottery/lotteryPancake.sol\":6925:6973  burnAmount = burnPool * (totalPrizePool / total) */\n      dup2\n      swap1\n      sstore\n      pop\n        /* \"Lottery/lotteryPancake.sol\":6548:6982  function endRound() public {\r... */\n      pop\n      jump\t// out\n        /* \"Lottery/lotteryPancake.sol\":7148:7460  function distributePrizes() public {\r... */\n    tag_79:\n        /* \"Lottery/lotteryPancake.sol\":7216:7221  owner */\n      0x00\n      dup1\n      sload\n      swap1\n      0x0100\n      exp\n      swap1\n      div\n      0xffffffffffffffffffffffffffffffffffffffff\n      and\n        /* \"Lottery/lotteryPancake.sol\":7202:7221  msg.sender == owner */\n      0xffffffffffffffffffffffffffffffffffffffff\n      and\n        /* \"Lottery/lotteryPancake.sol\":7202:7212  msg.sender */\n      caller\n        /* \"Lottery/lotteryPancake.sol\":7202:7221  msg.sender == owner */\n      0xffffffffffffffffffffffffffffffffffffffff\n      and\n      eq\n        /* \"Lottery/lotteryPancake.sol\":7194:7262  require(msg.sender == owner, \"Only the owner can distribute prizes\") */\n      tag_199\n      jumpi\n      mload(0x40)\n      0x08c379a000000000000000000000000000000000000000000000000000000000\n      dup2\n      mstore\n      0x04\n      add\n      tag_200\n      swap1\n      tag_201\n      jump\t// in\n    tag_200:\n      mload(0x40)\n      dup1\n      swap2\n      sub\n      swap1\n      revert\n    tag_199:\n        /* \"Lottery/lotteryPancake.sol\":7279:7288  uint256 i */\n      0x00\n        /* \"Lottery/lotteryPancake.sol\":7274:7427  for (uint256 i = 0; i < 6; i++) {\r... */\n    tag_202:\n        /* \"Lottery/lotteryPancake.sol\":7298:7299  6 */\n      0x06\n        /* \"Lottery/lotteryPancake.sol\":7294:7295  i */\n      dup2\n        /* \"Lottery/lotteryPancake.sol\":7294:7299  i < 6 */\n      lt\n        /* \"Lottery/lotteryPancake.sol\":7274:7427  for (uint256 i = 0; i < 6; i++) {\r... */\n      iszero\n      tag_203\n      jumpi\n        /* \"Lottery/lotteryPancake.sol\":7321:7334  uint256 total */\n      0x00\n        /* \"Lottery/lotteryPancake.sol\":7356:7366  prizePools */\n      0x04\n        /* \"Lottery/lotteryPancake.sol\":7356:7369  prizePools[i] */\n      0x00\n        /* \"Lottery/lotteryPancake.sol\":7367:7368  i */\n      dup4\n        /* \"Lottery/lotteryPancake.sol\":7356:7369  prizePools[i] */\n      dup2\n      mstore\n      0x20\n      add\n      swap1\n      dup2\n      mstore\n      0x20\n      add\n      0x00\n      keccak256\n        /* \"Lottery/lotteryPancake.sol\":7370:7371  1 */\n      0x01\n        /* \"Lottery/lotteryPancake.sol\":7356:7372  prizePools[i][1] */\n      dup2\n      sload\n      dup2\n      lt\n      tag_205\n      jumpi\n      invalid\n    tag_205:\n      swap1\n      0x00\n      mstore\n      keccak256(0x00, 0x20)\n      add\n      sload\n        /* \"Lottery/lotteryPancake.sol\":7337:7347  prizePools */\n      0x04\n        /* \"Lottery/lotteryPancake.sol\":7337:7350  prizePools[i] */\n      0x00\n        /* \"Lottery/lotteryPancake.sol\":7348:7349  i */\n      dup5\n        /* \"Lottery/lotteryPancake.sol\":7337:7350  prizePools[i] */\n      dup2\n      mstore\n      0x20\n      add\n      swap1\n      dup2\n      mstore\n      0x20\n      add\n      0x00\n      keccak256\n        /* \"Lottery/lotteryPancake.sol\":7351:7352  0 */\n      0x00\n        /* \"Lottery/lotteryPancake.sol\":7337:7353  prizePools[i][0] */\n      dup2\n      sload\n      dup2\n      lt\n      tag_207\n      jumpi\n      invalid\n    tag_207:\n      swap1\n      0x00\n      mstore\n      keccak256(0x00, 0x20)\n      add\n      sload\n        /* \"Lottery/lotteryPancake.sol\":7337:7372  prizePools[i][0] + prizePools[i][1] */\n      add\n        /* \"Lottery/lotteryPancake.sol\":7321:7372  uint256 total = prizePools[i][0] + prizePools[i][1] */\n      swap1\n      pop\n        /* \"Lottery/lotteryPancake.sol\":7388:7398  msg.sender */\n      caller\n        /* \"Lottery/lotteryPancake.sol\":7388:7407  msg.sender.transfer */\n      0xffffffffffffffffffffffffffffffffffffffff\n      and\n        /* \"Lottery/lotteryPancake.sol\":7388:7414  msg.sender.transfer(total) */\n      0x08fc\n        /* \"Lottery/lotteryPancake.sol\":7408:7413  total */\n      dup3\n        /* \"Lottery/lotteryPancake.sol\":7388:7414  msg.sender.transfer(total) */\n      swap1\n      dup2\n      iszero\n      mul\n      swap1\n      mload(0x40)\n      0x00\n      mload(0x40)\n      dup1\n      dup4\n      sub\n      dup2\n      dup6\n      dup9\n      dup9\n      call\n      swap4\n      pop\n      pop\n      pop\n      pop\n      iszero\n      dup1\n      iszero\n      tag_210\n      jumpi\n      returndatasize\n      0x00\n      dup1\n      returndatacopy\n      revert(0x00, returndatasize)\n    tag_210:\n      pop\n        /* \"Lottery/lotteryPancake.sol\":7274:7427  for (uint256 i = 0; i < 6; i++) {\r... */\n      pop\n        /* \"Lottery/lotteryPancake.sol\":7301:7304  i++ */\n      dup1\n      dup1\n      0x01\n      add\n      swap2\n      pop\n      pop\n        /* \"Lottery/lotteryPancake.sol\":7274:7427  for (uint256 i = 0; i < 6; i++) {\r... */\n      jump(tag_202)\n    tag_203:\n      pop\n        /* \"Lottery/lotteryPancake.sol\":7450:7451  0 */\n      0x00\n        /* \"Lottery/lotteryPancake.sol\":7437:7447  burnAmount */\n      0x07\n        /* \"Lottery/lotteryPancake.sol\":7437:7451  burnAmount = 0 */\n      dup2\n      swap1\n      sstore\n      pop\n        /* \"Lottery/lotteryPancake.sol\":7148:7460  function distributePrizes() public {\r... */\n      jump\t// out\n        /* \"Lottery/lotteryPancake.sol\":3035:3302  function getWinningNumbers() public view returns (uint256[6] memory) {\r... */\n    tag_82:\n        /* \"Lottery/lotteryPancake.sol\":3085:3102  uint256[6] memory */\n      tag_211\n      tag_212\n      jump\t// in\n    tag_211:\n        /* \"Lottery/lotteryPancake.sol\":3115:3151  uint256[6] memory winningNumbersCopy */\n      tag_214\n      tag_212\n      jump\t// in\n    tag_214:\n        /* \"Lottery/lotteryPancake.sol\":3167:3173  uint i */\n      0x00\n        /* \"Lottery/lotteryPancake.sol\":3162:3259  for (uint i = 0; i < 6; i++) {\r... */\n    tag_215:\n        /* \"Lottery/lotteryPancake.sol\":3183:3184  6 */\n      0x06\n        /* \"Lottery/lotteryPancake.sol\":3179:3180  i */\n      dup2\n        /* \"Lottery/lotteryPancake.sol\":3179:3184  i < 6 */\n      lt\n        /* \"Lottery/lotteryPancake.sol\":3162:3259  for (uint i = 0; i < 6; i++) {\r... */\n      iszero\n      tag_216\n      jumpi\n        /* \"Lottery/lotteryPancake.sol\":3230:3244  winningNumbers */\n      0x03\n        /* \"Lottery/lotteryPancake.sol\":3245:3246  i */\n      dup2\n        /* \"Lottery/lotteryPancake.sol\":3230:3247  winningNumbers[i] */\n      dup2\n      sload\n      dup2\n      lt\n      tag_218\n      jumpi\n      invalid\n    tag_218:\n      swap1\n      0x00\n      mstore\n      keccak256(0x00, 0x20)\n      add\n      sload\n        /* \"Lottery/lotteryPancake.sol\":3206:3224  winningNumbersCopy */\n      dup3\n        /* \"Lottery/lotteryPancake.sol\":3225:3226  i */\n      dup3\n        /* \"Lottery/lotteryPancake.sol\":3206:3227  winningNumbersCopy[i] */\n      0x06\n      dup2\n      lt\n      tag_220\n      jumpi\n      invalid\n    tag_220:\n      0x20\n      mul\n      add\n        /* \"Lottery/lotteryPancake.sol\":3206:3247  winningNumbersCopy[i] = winningNumbers[i] */\n      dup2\n      dup2\n      mstore\n      pop\n      pop\n        /* \"Lottery/lotteryPancake.sol\":3186:3189  i++ */\n      dup1\n      dup1\n      0x01\n      add\n      swap2\n      pop\n      pop\n        /* \"Lottery/lotteryPancake.sol\":3162:3259  for (uint i = 0; i < 6; i++) {\r... */\n      jump(tag_215)\n    tag_216:\n      pop\n        /* \"Lottery/lotteryPancake.sol\":3276:3294  winningNumbersCopy */\n      dup1\n        /* \"Lottery/lotteryPancake.sol\":3269:3294  return winningNumbersCopy */\n      swap2\n      pop\n      pop\n        /* \"Lottery/lotteryPancake.sol\":3035:3302  function getWinningNumbers() public view returns (uint256[6] memory) {\r... */\n      swap1\n      jump\t// out\n        /* \"Lottery/lotteryPancake.sol\":96:116  address public owner */\n    tag_87:\n      0x00\n      dup1\n      sload\n      swap1\n      0x0100\n      exp\n      swap1\n      div\n      0xffffffffffffffffffffffffffffffffffffffff\n      and\n      dup2\n      jump\t// out\n        /* \"Lottery/lotteryPancake.sol\":3608:5147  function calculatePrizes() public {\r... */\n    tag_92:\n        /* \"Lottery/lotteryPancake.sol\":3670:3671  0 */\n      0x00\n        /* \"Lottery/lotteryPancake.sol\":3653:3667  totalPrizePool */\n      0x05\n        /* \"Lottery/lotteryPancake.sol\":3653:3671  totalPrizePool = 0 */\n      dup2\n      swap1\n      sstore\n      pop\n        /* \"Lottery/lotteryPancake.sol\":3695:3696  0 */\n      0x00\n        /* \"Lottery/lotteryPancake.sol\":3682:3692  burnAmount */\n      0x07\n        /* \"Lottery/lotteryPancake.sol\":3682:3696  burnAmount = 0 */\n      dup2\n      swap1\n      sstore\n      pop\n        /* \"Lottery/lotteryPancake.sol\":3729:3734  owner */\n      0x00\n      dup1\n      sload\n      swap1\n      0x0100\n      exp\n      swap1\n      div\n      0xffffffffffffffffffffffffffffffffffffffff\n      and\n        /* \"Lottery/lotteryPancake.sol\":3715:3734  msg.sender == owner */\n      0xffffffffffffffffffffffffffffffffffffffff\n      and\n        /* \"Lottery/lotteryPancake.sol\":3715:3725  msg.sender */\n      caller\n        /* \"Lottery/lotteryPancake.sol\":3715:3734  msg.sender == owner */\n      0xffffffffffffffffffffffffffffffffffffffff\n      and\n      eq\n        /* \"Lottery/lotteryPancake.sol\":3707:3774  require(msg.sender == owner, \"Only the owner can calculate prizes\") */\n      tag_222\n      jumpi\n      mload(0x40)\n      0x08c379a000000000000000000000000000000000000000000000000000000000\n      dup2\n      mstore\n      0x04\n      add\n      tag_223\n      swap1\n      tag_224\n      jump\t// in\n    tag_223:\n      mload(0x40)\n      dup1\n      swap2\n      sub\n      swap1\n      revert\n    tag_222:\n        /* \"Lottery/lotteryPancake.sol\":3791:3800  uint256 i */\n      0x00\n        /* \"Lottery/lotteryPancake.sol\":3786:4988  for (uint256 i = 0; i < tickets[msg.sender].length; i++) {\r... */\n    tag_225:\n        /* \"Lottery/lotteryPancake.sol\":3810:3817  tickets */\n      0x02\n        /* \"Lottery/lotteryPancake.sol\":3810:3829  tickets[msg.sender] */\n      0x00\n        /* \"Lottery/lotteryPancake.sol\":3818:3828  msg.sender */\n      caller\n        /* \"Lottery/lotteryPancake.sol\":3810:3829  tickets[msg.sender] */\n      0xffffffffffffffffffffffffffffffffffffffff\n      and\n      0xffffffffffffffffffffffffffffffffffffffff\n      and\n      dup2\n      mstore\n      0x20\n      add\n      swap1\n      dup2\n      mstore\n      0x20\n      add\n      0x00\n      keccak256\n        /* \"Lottery/lotteryPancake.sol\":3810:3836  tickets[msg.sender].length */\n      dup1\n      sload\n      swap1\n      pop\n        /* \"Lottery/lotteryPancake.sol\":3806:3807  i */\n      dup2\n        /* \"Lottery/lotteryPancake.sol\":3806:3836  i < tickets[msg.sender].length */\n      lt\n        /* \"Lottery/lotteryPancake.sol\":3786:4988  for (uint256 i = 0; i < tickets[msg.sender].length; i++) {\r... */\n      iszero\n      tag_226\n      jumpi\n        /* \"Lottery/lotteryPancake.sol\":3858:3881  uint256[] memory ticket */\n      0x60\n        /* \"Lottery/lotteryPancake.sol\":3884:3891  tickets */\n      0x02\n        /* \"Lottery/lotteryPancake.sol\":3884:3903  tickets[msg.sender] */\n      0x00\n        /* \"Lottery/lotteryPancake.sol\":3892:3902  msg.sender */\n      caller\n        /* \"Lottery/lotteryPancake.sol\":3884:3903  tickets[msg.sender] */\n      0xffffffffffffffffffffffffffffffffffffffff\n      and\n      0xffffffffffffffffffffffffffffffffffffffff\n      and\n      dup2\n      mstore\n      0x20\n      add\n      swap1\n      dup2\n      mstore\n      0x20\n      add\n      0x00\n      keccak256\n        /* \"Lottery/lotteryPancake.sol\":3904:3905  i */\n      dup3\n        /* \"Lottery/lotteryPancake.sol\":3884:3906  tickets[msg.sender][i] */\n      dup2\n      sload\n      dup2\n      lt\n      tag_228\n      jumpi\n      invalid\n    tag_228:\n      swap1\n      0x00\n      mstore\n      keccak256(0x00, 0x20)\n      add\n        /* \"Lottery/lotteryPancake.sol\":3858:3906  uint256[] memory ticket = tickets[msg.sender][i] */\n      dup1\n      sload\n      dup1\n      0x20\n      mul\n      0x20\n      add\n      mload(0x40)\n      swap1\n      dup2\n      add\n      0x40\n      mstore\n      dup1\n      swap3\n      swap2\n      swap1\n      dup2\n      dup2\n      mstore\n      0x20\n      add\n      dup3\n      dup1\n      sload\n      dup1\n      iszero\n      tag_230\n      jumpi\n      0x20\n      mul\n      dup3\n      add\n      swap2\n      swap1\n      0x00\n      mstore\n      keccak256(0x00, 0x20)\n      swap1\n    tag_231:\n      dup2\n      sload\n      dup2\n      mstore\n      0x20\n      add\n      swap1\n      0x01\n      add\n      swap1\n      dup1\n      dup4\n      gt\n      tag_231\n      jumpi\n    tag_230:\n      pop\n      pop\n      pop\n      pop\n      pop\n      swap1\n      pop\n        /* \"Lottery/lotteryPancake.sol\":3922:3937  uint256 counter */\n      0x00\n        /* \"Lottery/lotteryPancake.sol\":3962:3971  uint256 j */\n      dup1\n        /* \"Lottery/lotteryPancake.sol\":3957:4112  for (uint256 j = 0; j < 6; j++) {\r... */\n    tag_232:\n        /* \"Lottery/lotteryPancake.sol\":3981:3982  6 */\n      0x06\n        /* \"Lottery/lotteryPancake.sol\":3977:3978  j */\n      dup2\n        /* \"Lottery/lotteryPancake.sol\":3977:3982  j < 6 */\n      lt\n        /* \"Lottery/lotteryPancake.sol\":3957:4112  for (uint256 j = 0; j < 6; j++) {\r... */\n      iszero\n      tag_233\n      jumpi\n        /* \"Lottery/lotteryPancake.sol\":4025:4039  winningNumbers */\n      0x03\n        /* \"Lottery/lotteryPancake.sol\":4040:4041  j */\n      dup2\n        /* \"Lottery/lotteryPancake.sol\":4025:4042  winningNumbers[j] */\n      dup2\n      sload\n      dup2\n      lt\n      tag_235\n      jumpi\n      invalid\n    tag_235:\n      swap1\n      0x00\n      mstore\n      keccak256(0x00, 0x20)\n      add\n      sload\n        /* \"Lottery/lotteryPancake.sol\":4012:4018  ticket */\n      dup4\n        /* \"Lottery/lotteryPancake.sol\":4019:4020  j */\n      dup3\n        /* \"Lottery/lotteryPancake.sol\":4012:4021  ticket[j] */\n      dup2\n      mload\n      dup2\n      lt\n      tag_237\n      jumpi\n      invalid\n    tag_237:\n      0x20\n      mul\n      0x20\n      add\n      add\n      mload\n        /* \"Lottery/lotteryPancake.sol\":4012:4042  ticket[j] == winningNumbers[j] */\n      eq\n        /* \"Lottery/lotteryPancake.sol\":4008:4097  if (ticket[j] == winningNumbers[j]) {\r... */\n      iszero\n      tag_238\n      jumpi\n        /* \"Lottery/lotteryPancake.sol\":4067:4076  counter++ */\n      dup2\n      dup1\n      0x01\n      add\n      swap3\n      pop\n      pop\n        /* \"Lottery/lotteryPancake.sol\":4008:4097  if (ticket[j] == winningNumbers[j]) {\r... */\n    tag_238:\n        /* \"Lottery/lotteryPancake.sol\":3984:3987  j++ */\n      dup1\n      dup1\n      0x01\n      add\n      swap2\n      pop\n      pop\n        /* \"Lottery/lotteryPancake.sol\":3957:4112  for (uint256 j = 0; j < 6; j++) {\r... */\n      jump(tag_232)\n    tag_233:\n      pop\n        /* \"Lottery/lotteryPancake.sol\":4141:4142  1 */\n      0x01\n        /* \"Lottery/lotteryPancake.sol\":4130:4137  counter */\n      dup2\n        /* \"Lottery/lotteryPancake.sol\":4130:4142  counter == 1 */\n      eq\n        /* \"Lottery/lotteryPancake.sol\":4126:4977  if (counter == 1) {\r... */\n      iszero\n      tag_239\n      jumpi\n        /* \"Lottery/lotteryPancake.sol\":4182:4183  0 */\n      0x00\n        /* \"Lottery/lotteryPancake.sol\":4163:4173  prizePools */\n      0x04\n        /* \"Lottery/lotteryPancake.sol\":4163:4176  prizePools[0] */\n      0x00\n        /* \"Lottery/lotteryPancake.sol\":4174:4175  0 */\n      dup1\n        /* \"Lottery/lotteryPancake.sol\":4163:4176  prizePools[0] */\n      dup2\n      mstore\n      0x20\n      add\n      swap1\n      dup2\n      mstore\n      0x20\n      add\n      0x00\n      keccak256\n        /* \"Lottery/lotteryPancake.sol\":4177:4178  0 */\n      0x00\n        /* \"Lottery/lotteryPancake.sol\":4163:4179  prizePools[0][0] */\n      dup2\n      sload\n      dup2\n      lt\n      tag_240\n      jumpi\n      invalid\n    tag_240:\n      swap1\n      0x00\n      mstore\n      keccak256(0x00, 0x20)\n      add\n        /* \"Lottery/lotteryPancake.sol\":4163:4183  prizePools[0][0] = 0 */\n      dup2\n      swap1\n      sstore\n      pop\n        /* \"Lottery/lotteryPancake.sol\":4222:4245  2 * 1000000000000000000 */\n      0x1bc16d674ec80000\n        /* \"Lottery/lotteryPancake.sol\":4202:4212  prizePools */\n      0x04\n        /* \"Lottery/lotteryPancake.sol\":4202:4215  prizePools[0] */\n      0x00\n        /* \"Lottery/lotteryPancake.sol\":4213:4214  0 */\n      dup1\n        /* \"Lottery/lotteryPancake.sol\":4202:4215  prizePools[0] */\n      dup2\n      mstore\n      0x20\n      add\n      swap1\n      dup2\n      mstore\n      0x20\n      add\n      0x00\n      keccak256\n        /* \"Lottery/lotteryPancake.sol\":4216:4217  0 */\n      0x00\n        /* \"Lottery/lotteryPancake.sol\":4202:4218  prizePools[0][0] */\n      dup2\n      sload\n      dup2\n      lt\n      tag_242\n      jumpi\n      invalid\n    tag_242:\n      swap1\n      0x00\n      mstore\n      keccak256(0x00, 0x20)\n      add\n      0x00\n        /* \"Lottery/lotteryPancake.sol\":4202:4245  prizePools[0][0] += 2 * 1000000000000000000 */\n      dup3\n      dup3\n      sload\n      add\n      swap3\n      pop\n      pop\n      dup2\n      swap1\n      sstore\n      pop\n        /* \"Lottery/lotteryPancake.sol\":4126:4977  if (counter == 1) {\r... */\n      jump(tag_244)\n    tag_239:\n        /* \"Lottery/lotteryPancake.sol\":4284:4285  2 */\n      0x02\n        /* \"Lottery/lotteryPancake.sol\":4273:4280  counter */\n      dup2\n        /* \"Lottery/lotteryPancake.sol\":4273:4285  counter == 2 */\n      eq\n        /* \"Lottery/lotteryPancake.sol\":4269:4977  if (counter == 2) {\r... */\n      iszero\n      tag_245\n      jumpi\n        /* \"Lottery/lotteryPancake.sol\":4325:4326  0 */\n      0x00\n        /* \"Lottery/lotteryPancake.sol\":4306:4316  prizePools */\n      0x04\n        /* \"Lottery/lotteryPancake.sol\":4306:4319  prizePools[1] */\n      0x00\n        /* \"Lottery/lotteryPancake.sol\":4317:4318  1 */\n      0x01\n        /* \"Lottery/lotteryPancake.sol\":4306:4319  prizePools[1] */\n      dup2\n      mstore\n      0x20\n      add\n      swap1\n      dup2\n      mstore\n      0x20\n      add\n      0x00\n      keccak256\n        /* \"Lottery/lotteryPancake.sol\":4320:4321  0 */\n      0x00\n        /* \"Lottery/lotteryPancake.sol\":4306:4322  prizePools[1][0] */\n      dup2\n      sload\n      dup2\n      lt\n      tag_246\n      jumpi\n      invalid\n    tag_246:\n      swap1\n      0x00\n      mstore\n      keccak256(0x00, 0x20)\n      add\n        /* \"Lottery/lotteryPancake.sol\":4306:4326  prizePools[1][0] = 0 */\n      dup2\n      swap1\n      sstore\n      pop\n        /* \"Lottery/lotteryPancake.sol\":4365:4388  3 * 1000000000000000000 */\n      0x29a2241af62c0000\n        /* \"Lottery/lotteryPancake.sol\":4345:4355  prizePools */\n      0x04\n        /* \"Lottery/lotteryPancake.sol\":4345:4358  prizePools[1] */\n      0x00\n        /* \"Lottery/lotteryPancake.sol\":4356:4357  1 */\n      0x01\n        /* \"Lottery/lotteryPancake.sol\":4345:4358  prizePools[1] */\n      dup2\n      mstore\n      0x20\n      add\n      swap1\n      dup2\n      mstore\n      0x20\n      add\n      0x00\n      keccak256\n        /* \"Lottery/lotteryPancake.sol\":4359:4360  0 */\n      0x00\n        /* \"Lottery/lotteryPancake.sol\":4345:4361  prizePools[1][0] */\n      dup2\n      sload\n      dup2\n      lt\n      tag_248\n      jumpi\n      invalid\n    tag_248:\n      swap1\n      0x00\n      mstore\n      keccak256(0x00, 0x20)\n      add\n      0x00\n        /* \"Lottery/lotteryPancake.sol\":4345:4388  prizePools[1][0] += 3 * 1000000000000000000 */\n      dup3\n      dup3\n      sload\n      add\n      swap3\n      pop\n      pop\n      dup2\n      swap1\n      sstore\n      pop\n        /* \"Lottery/lotteryPancake.sol\":4269:4977  if (counter == 2) {\r... */\n      jump(tag_250)\n    tag_245:\n        /* \"Lottery/lotteryPancake.sol\":4426:4427  3 */\n      0x03\n        /* \"Lottery/lotteryPancake.sol\":4415:4422  counter */\n      dup2\n        /* \"Lottery/lotteryPancake.sol\":4415:4427  counter == 3 */\n      eq\n        /* \"Lottery/lotteryPancake.sol\":4411:4977  if (counter == 3) {\r... */\n      iszero\n      tag_251\n      jumpi\n        /* \"Lottery/lotteryPancake.sol\":4467:4468  0 */\n      0x00\n        /* \"Lottery/lotteryPancake.sol\":4448:4458  prizePools */\n      0x04\n        /* \"Lottery/lotteryPancake.sol\":4448:4461  prizePools[2] */\n      0x00\n        /* \"Lottery/lotteryPancake.sol\":4459:4460  2 */\n      0x02\n        /* \"Lottery/lotteryPancake.sol\":4448:4461  prizePools[2] */\n      dup2\n      mstore\n      0x20\n      add\n      swap1\n      dup2\n      mstore\n      0x20\n      add\n      0x00\n      keccak256\n        /* \"Lottery/lotteryPancake.sol\":4462:4463  0 */\n      0x00\n        /* \"Lottery/lotteryPancake.sol\":4448:4464  prizePools[2][0] */\n      dup2\n      sload\n      dup2\n      lt\n      tag_252\n      jumpi\n      invalid\n    tag_252:\n      swap1\n      0x00\n      mstore\n      keccak256(0x00, 0x20)\n      add\n        /* \"Lottery/lotteryPancake.sol\":4448:4468  prizePools[2][0] = 0 */\n      dup2\n      swap1\n      sstore\n      pop\n        /* \"Lottery/lotteryPancake.sol\":4507:4530  5 * 1000000000000000000 */\n      0x4563918244f40000\n        /* \"Lottery/lotteryPancake.sol\":4487:4497  prizePools */\n      0x04\n        /* \"Lottery/lotteryPancake.sol\":4487:4500  prizePools[2] */\n      0x00\n        /* \"Lottery/lotteryPancake.sol\":4498:4499  2 */\n      0x02\n        /* \"Lottery/lotteryPancake.sol\":4487:4500  prizePools[2] */\n      dup2\n      mstore\n      0x20\n      add\n      swap1\n      dup2\n      mstore\n      0x20\n      add\n      0x00\n      keccak256\n        /* \"Lottery/lotteryPancake.sol\":4501:4502  0 */\n      0x00\n        /* \"Lottery/lotteryPancake.sol\":4487:4503  prizePools[2][0] */\n      dup2\n      sload\n      dup2\n      lt\n      tag_254\n      jumpi\n      invalid\n    tag_254:\n      swap1\n      0x00\n      mstore\n      keccak256(0x00, 0x20)\n      add\n      0x00\n        /* \"Lottery/lotteryPancake.sol\":4487:4530  prizePools[2][0] += 5 * 1000000000000000000 */\n      dup3\n      dup3\n      sload\n      add\n      swap3\n      pop\n      pop\n      dup2\n      swap1\n      sstore\n      pop\n        /* \"Lottery/lotteryPancake.sol\":4411:4977  if (counter == 3) {\r... */\n      jump(tag_256)\n    tag_251:\n        /* \"Lottery/lotteryPancake.sol\":4568:4569  4 */\n      0x04\n        /* \"Lottery/lotteryPancake.sol\":4557:4564  counter */\n      dup2\n        /* \"Lottery/lotteryPancake.sol\":4557:4569  counter == 4 */\n      eq\n        /* \"Lottery/lotteryPancake.sol\":4553:4977  if (counter == 4) {\r... */\n      iszero\n      tag_257\n      jumpi\n        /* \"Lottery/lotteryPancake.sol\":4609:4610  0 */\n      0x00\n        /* \"Lottery/lotteryPancake.sol\":4590:4600  prizePools */\n      0x04\n        /* \"Lottery/lotteryPancake.sol\":4590:4603  prizePools[3] */\n      0x00\n        /* \"Lottery/lotteryPancake.sol\":4601:4602  3 */\n      0x03\n        /* \"Lottery/lotteryPancake.sol\":4590:4603  prizePools[3] */\n      dup2\n      mstore\n      0x20\n      add\n      swap1\n      dup2\n      mstore\n      0x20\n      add\n      0x00\n      keccak256\n        /* \"Lottery/lotteryPancake.sol\":4604:4605  0 */\n      0x00\n        /* \"Lottery/lotteryPancake.sol\":4590:4606  prizePools[3][0] */\n      dup2\n      sload\n      dup2\n      lt\n      tag_258\n      jumpi\n      invalid\n    tag_258:\n      swap1\n      0x00\n      mstore\n      keccak256(0x00, 0x20)\n      add\n        /* \"Lottery/lotteryPancake.sol\":4590:4610  prizePools[3][0] = 0 */\n      dup2\n      swap1\n      sstore\n      pop\n        /* \"Lottery/lotteryPancake.sol\":4650:4674  10 * 1000000000000000000 */\n      0x8ac7230489e80000\n        /* \"Lottery/lotteryPancake.sol\":4630:4640  prizePools */\n      0x04\n        /* \"Lottery/lotteryPancake.sol\":4630:4643  prizePools[3] */\n      0x00\n        /* \"Lottery/lotteryPancake.sol\":4641:4642  3 */\n      0x03\n        /* \"Lottery/lotteryPancake.sol\":4630:4643  prizePools[3] */\n      dup2\n      mstore\n      0x20\n      add\n      swap1\n      dup2\n      mstore\n      0x20\n      add\n      0x00\n      keccak256\n        /* \"Lottery/lotteryPancake.sol\":4644:4645  0 */\n      0x00\n        /* \"Lottery/lotteryPancake.sol\":4630:4646  prizePools[3][0] */\n      dup2\n      sload\n      dup2\n      lt\n      tag_260\n      jumpi\n      invalid\n    tag_260:\n      swap1\n      0x00\n      mstore\n      keccak256(0x00, 0x20)\n      add\n      0x00\n        /* \"Lottery/lotteryPancake.sol\":4630:4674  prizePools[3][0] += 10 * 1000000000000000000 */\n      dup3\n      dup3\n      sload\n      add\n      swap3\n      pop\n      pop\n      dup2\n      swap1\n      sstore\n      pop\n        /* \"Lottery/lotteryPancake.sol\":4553:4977  if (counter == 4) {\r... */\n      jump(tag_262)\n    tag_257:\n        /* \"Lottery/lotteryPancake.sol\":4712:4713  5 */\n      0x05\n        /* \"Lottery/lotteryPancake.sol\":4701:4708  counter */\n      dup2\n        /* \"Lottery/lotteryPancake.sol\":4701:4713  counter == 5 */\n      eq\n        /* \"Lottery/lotteryPancake.sol\":4697:4977  if (counter == 5) {\r... */\n      iszero\n      tag_263\n      jumpi\n        /* \"Lottery/lotteryPancake.sol\":4753:4754  0 */\n      0x00\n        /* \"Lottery/lotteryPancake.sol\":4734:4744  prizePools */\n      0x04\n        /* \"Lottery/lotteryPancake.sol\":4734:4747  prizePools[4] */\n      0x00\n        /* \"Lottery/lotteryPancake.sol\":4745:4746  4 */\n      0x04\n        /* \"Lottery/lotteryPancake.sol\":4734:4747  prizePools[4] */\n      dup2\n      mstore\n      0x20\n      add\n      swap1\n      dup2\n      mstore\n      0x20\n      add\n      0x00\n      keccak256\n        /* \"Lottery/lotteryPancake.sol\":4748:4749  0 */\n      0x00\n        /* \"Lottery/lotteryPancake.sol\":4734:4750  prizePools[4][0] */\n      dup2\n      sload\n      dup2\n      lt\n      tag_264\n      jumpi\n      invalid\n    tag_264:\n      swap1\n      0x00\n      mstore\n      keccak256(0x00, 0x20)\n      add\n        /* \"Lottery/lotteryPancake.sol\":4734:4754  prizePools[4][0] = 0 */\n      dup2\n      swap1\n      sstore\n      pop\n        /* \"Lottery/lotteryPancake.sol\":4793:4817  20 * 1000000000000000000 */\n      0x01158e460913d00000\n        /* \"Lottery/lotteryPancake.sol\":4773:4783  prizePools */\n      0x04\n        /* \"Lottery/lotteryPancake.sol\":4773:4786  prizePools[4] */\n      0x00\n        /* \"Lottery/lotteryPancake.sol\":4784:4785  4 */\n      0x04\n        /* \"Lottery/lotteryPancake.sol\":4773:4786  prizePools[4] */\n      dup2\n      mstore\n      0x20\n      add\n      swap1\n      dup2\n      mstore\n      0x20\n      add\n      0x00\n      keccak256\n        /* \"Lottery/lotteryPancake.sol\":4787:4788  0 */\n      0x00\n        /* \"Lottery/lotteryPancake.sol\":4773:4789  prizePools[4][0] */\n      dup2\n      sload\n      dup2\n      lt\n      tag_266\n      jumpi\n      invalid\n    tag_266:\n      swap1\n      0x00\n      mstore\n      keccak256(0x00, 0x20)\n      add\n      0x00\n        /* \"Lottery/lotteryPancake.sol\":4773:4817  prizePools[4][0] += 20 * 1000000000000000000 */\n      dup3\n      dup3\n      sload\n      add\n      swap3\n      pop\n      pop\n      dup2\n      swap1\n      sstore\n      pop\n        /* \"Lottery/lotteryPancake.sol\":4697:4977  if (counter == 5) {\r... */\n      jump(tag_268)\n    tag_263:\n        /* \"Lottery/lotteryPancake.sol\":4855:4856  6 */\n      0x06\n        /* \"Lottery/lotteryPancake.sol\":4844:4851  counter */\n      dup2\n        /* \"Lottery/lotteryPancake.sol\":4844:4856  counter == 6 */\n      eq\n        /* \"Lottery/lotteryPancake.sol\":4840:4977  if (counter == 6) {\r... */\n      iszero\n      tag_269\n      jumpi\n        /* \"Lottery/lotteryPancake.sol\":4896:4897  0 */\n      0x00\n        /* \"Lottery/lotteryPancake.sol\":4877:4887  prizePools */\n      0x04\n        /* \"Lottery/lotteryPancake.sol\":4877:4890  prizePools[5] */\n      0x00\n        /* \"Lottery/lotteryPancake.sol\":4888:4889  5 */\n      0x05\n        /* \"Lottery/lotteryPancake.sol\":4877:4890  prizePools[5] */\n      dup2\n      mstore\n      0x20\n      add\n      swap1\n      dup2\n      mstore\n      0x20\n      add\n      0x00\n      keccak256\n        /* \"Lottery/lotteryPancake.sol\":4891:4892  0 */\n      0x00\n        /* \"Lottery/lotteryPancake.sol\":4877:4893  prizePools[5][0] */\n      dup2\n      sload\n      dup2\n      lt\n      tag_270\n      jumpi\n      invalid\n    tag_270:\n      swap1\n      0x00\n      mstore\n      keccak256(0x00, 0x20)\n      add\n        /* \"Lottery/lotteryPancake.sol\":4877:4897  prizePools[5][0] = 0 */\n      dup2\n      swap1\n      sstore\n      pop\n        /* \"Lottery/lotteryPancake.sol\":4936:4960  40 * 1000000000000000000 */\n      0x022b1c8c1227a00000\n        /* \"Lottery/lotteryPancake.sol\":4916:4926  prizePools */\n      0x04\n        /* \"Lottery/lotteryPancake.sol\":4916:4929  prizePools[5] */\n      0x00\n        /* \"Lottery/lotteryPancake.sol\":4927:4928  5 */\n      0x05\n        /* \"Lottery/lotteryPancake.sol\":4916:4929  prizePools[5] */\n      dup2\n      mstore\n      0x20\n      add\n      swap1\n      dup2\n      mstore\n      0x20\n      add\n      0x00\n      keccak256\n        /* \"Lottery/lotteryPancake.sol\":4930:4931  0 */\n      0x00\n        /* \"Lottery/lotteryPancake.sol\":4916:4932  prizePools[5][0] */\n      dup2\n      sload\n      dup2\n      lt\n      tag_272\n      jumpi\n      invalid\n    tag_272:\n      swap1\n      0x00\n      mstore\n      keccak256(0x00, 0x20)\n      add\n      0x00\n        /* \"Lottery/lotteryPancake.sol\":4916:4960  prizePools[5][0] += 40 * 1000000000000000000 */\n      dup3\n      dup3\n      sload\n      add\n      swap3\n      pop\n      pop\n      dup2\n      swap1\n      sstore\n      pop\n        /* \"Lottery/lotteryPancake.sol\":4840:4977  if (counter == 6) {\r... */\n    tag_269:\n        /* \"Lottery/lotteryPancake.sol\":4697:4977  if (counter == 5) {\r... */\n    tag_268:\n        /* \"Lottery/lotteryPancake.sol\":4553:4977  if (counter == 4) {\r... */\n    tag_262:\n        /* \"Lottery/lotteryPancake.sol\":4411:4977  if (counter == 3) {\r... */\n    tag_256:\n        /* \"Lottery/lotteryPancake.sol\":4269:4977  if (counter == 2) {\r... */\n    tag_250:\n        /* \"Lottery/lotteryPancake.sol\":4126:4977  if (counter == 1) {\r... */\n    tag_244:\n        /* \"Lottery/lotteryPancake.sol\":3786:4988  for (uint256 i = 0; i < tickets[msg.sender].length; i++) {\r... */\n      pop\n      pop\n        /* \"Lottery/lotteryPancake.sol\":3838:3841  i++ */\n      dup1\n      dup1\n      0x01\n      add\n      swap2\n      pop\n      pop\n        /* \"Lottery/lotteryPancake.sol\":3786:4988  for (uint256 i = 0; i < tickets[msg.sender].length; i++) {\r... */\n      jump(tag_225)\n    tag_226:\n      pop\n        /* \"Lottery/lotteryPancake.sol\":5005:5014  uint256 i */\n      0x00\n        /* \"Lottery/lotteryPancake.sol\":5000:5140  for (uint256 i = 0; i < 6; i++) {\r... */\n    tag_274:\n        /* \"Lottery/lotteryPancake.sol\":5024:5025  6 */\n      0x06\n        /* \"Lottery/lotteryPancake.sol\":5020:5021  i */\n      dup2\n        /* \"Lottery/lotteryPancake.sol\":5020:5025  i < 6 */\n      lt\n        /* \"Lottery/lotteryPancake.sol\":5000:5140  for (uint256 i = 0; i < 6; i++) {\r... */\n      iszero\n      tag_275\n      jumpi\n        /* \"Lottery/lotteryPancake.sol\":5065:5075  prizePools */\n      0x04\n        /* \"Lottery/lotteryPancake.sol\":5065:5078  prizePools[i] */\n      0x00\n        /* \"Lottery/lotteryPancake.sol\":5076:5077  i */\n      dup3\n        /* \"Lottery/lotteryPancake.sol\":5065:5078  prizePools[i] */\n      dup2\n      mstore\n      0x20\n      add\n      swap1\n      dup2\n      mstore\n      0x20\n      add\n      0x00\n      keccak256\n        /* \"Lottery/lotteryPancake.sol\":5079:5080  0 */\n      0x00\n        /* \"Lottery/lotteryPancake.sol\":5065:5081  prizePools[i][0] */\n      dup2\n      sload\n      dup2\n      lt\n      tag_277\n      jumpi\n      invalid\n    tag_277:\n      swap1\n      0x00\n      mstore\n      keccak256(0x00, 0x20)\n      add\n      sload\n        /* \"Lottery/lotteryPancake.sol\":5047:5061  totalPrizePool */\n      0x05\n      0x00\n        /* \"Lottery/lotteryPancake.sol\":5047:5081  totalPrizePool += prizePools[i][0] */\n      dup3\n      dup3\n      sload\n      add\n      swap3\n      pop\n      pop\n      dup2\n      swap1\n      sstore\n      pop\n        /* \"Lottery/lotteryPancake.sol\":5111:5121  prizePools */\n      0x04\n        /* \"Lottery/lotteryPancake.sol\":5111:5124  prizePools[i] */\n      0x00\n        /* \"Lottery/lotteryPancake.sol\":5122:5123  i */\n      dup3\n        /* \"Lottery/lotteryPancake.sol\":5111:5124  prizePools[i] */\n      dup2\n      mstore\n      0x20\n      add\n      swap1\n      dup2\n      mstore\n      0x20\n      add\n      0x00\n      keccak256\n        /* \"Lottery/lotteryPancake.sol\":5125:5126  1 */\n      0x01\n        /* \"Lottery/lotteryPancake.sol\":5111:5127  prizePools[i][1] */\n      dup2\n      sload\n      dup2\n      lt\n      tag_279\n      jumpi\n      invalid\n    tag_279:\n      swap1\n      0x00\n      mstore\n      keccak256(0x00, 0x20)\n      add\n      sload\n        /* \"Lottery/lotteryPancake.sol\":5097:5107  burnAmount */\n      0x07\n      0x00\n        /* \"Lottery/lotteryPancake.sol\":5097:5127  burnAmount += prizePools[i][1] */\n      dup3\n      dup3\n      sload\n      add\n      swap3\n      pop\n      pop\n      dup2\n      swap1\n      sstore\n      pop\n        /* \"Lottery/lotteryPancake.sol\":5027:5030  i++ */\n      dup1\n      dup1\n      0x01\n      add\n      swap2\n      pop\n      pop\n        /* \"Lottery/lotteryPancake.sol\":5000:5140  for (uint256 i = 0; i < 6; i++) {\r... */\n      jump(tag_274)\n    tag_275:\n      pop\n        /* \"Lottery/lotteryPancake.sol\":3608:5147  function calculatePrizes() public {\r... */\n      jump\t// out\n        /* \"Lottery/lotteryPancake.sol\":344:367  uint256 public burnPool */\n    tag_95:\n      sload(0x06)\n      dup2\n      jump\t// out\n        /* \"Lottery/lotteryPancake.sol\":2611:2940  function setWinningNumbers() public {\r... */\n    tag_99:\n        /* \"Lottery/lotteryPancake.sol\":2680:2685  owner */\n      0x00\n      dup1\n      sload\n      swap1\n      0x0100\n      exp\n      swap1\n      div\n      0xffffffffffffffffffffffffffffffffffffffff\n      and\n        /* \"Lottery/lotteryPancake.sol\":2666:2685  msg.sender == owner */\n      0xffffffffffffffffffffffffffffffffffffffff\n      and\n        /* \"Lottery/lotteryPancake.sol\":2666:2676  msg.sender */\n      caller\n        /* \"Lottery/lotteryPancake.sol\":2666:2685  msg.sender == owner */\n      0xffffffffffffffffffffffffffffffffffffffff\n      and\n      eq\n        /* \"Lottery/lotteryPancake.sol\":2658:2732  require(msg.sender == owner, \"Only the owner can set the winning numbers\") */\n      tag_282\n      jumpi\n      mload(0x40)\n      0x08c379a000000000000000000000000000000000000000000000000000000000\n      dup2\n      mstore\n      0x04\n      add\n      tag_283\n      swap1\n      tag_109\n      jump\t// in\n    tag_283:\n      mload(0x40)\n      dup1\n      swap2\n      sub\n      swap1\n      revert\n    tag_282:\n        /* \"Lottery/lotteryPancake.sol\":2749:2755  uint i */\n      0x00\n        /* \"Lottery/lotteryPancake.sol\":2744:2933  for (uint i = 0; i < 6; i++) {\r... */\n    tag_284:\n        /* \"Lottery/lotteryPancake.sol\":2765:2766  6 */\n      0x06\n        /* \"Lottery/lotteryPancake.sol\":2761:2762  i */\n      dup2\n        /* \"Lottery/lotteryPancake.sol\":2761:2766  i < 6 */\n      lt\n        /* \"Lottery/lotteryPancake.sol\":2744:2933  for (uint i = 0; i < 6; i++) {\r... */\n      iszero\n      tag_285\n      jumpi\n        /* \"Lottery/lotteryPancake.sol\":2788:2808  uint256 randomNumber */\n      0x00\n        /* \"Lottery/lotteryPancake.sol\":2870:2872  10 */\n      0x0a\n        /* \"Lottery/lotteryPancake.sol\":2846:2861  block.timestamp */\n      timestamp\n        /* \"Lottery/lotteryPancake.sol\":2863:2864  i */\n      dup4\n        /* \"Lottery/lotteryPancake.sol\":2829:2865  abi.encodePacked(block.timestamp, i) */\n      add(0x20, mload(0x40))\n      tag_287\n      swap3\n      swap2\n      swap1\n      tag_288\n      jump\t// in\n    tag_287:\n      mload(0x40)\n      0x20\n      dup2\n      dup4\n      sub\n      sub\n      dup2\n      mstore\n      swap1\n      0x40\n      mstore\n        /* \"Lottery/lotteryPancake.sol\":2819:2866  keccak256(abi.encodePacked(block.timestamp, i)) */\n      dup1\n      mload\n      swap1\n      0x20\n      add\n      keccak256\n        /* \"Lottery/lotteryPancake.sol\":2811:2867  uint256(keccak256(abi.encodePacked(block.timestamp, i))) */\n      0x00\n      shr\n        /* \"Lottery/lotteryPancake.sol\":2811:2872  uint256(keccak256(abi.encodePacked(block.timestamp, i))) % 10 */\n      dup2\n      tag_289\n      jumpi\n      invalid\n    tag_289:\n      mod\n        /* \"Lottery/lotteryPancake.sol\":2788:2872  uint256 randomNumber = uint256(keccak256(abi.encodePacked(block.timestamp, i))) % 10 */\n      swap1\n      pop\n        /* \"Lottery/lotteryPancake.sol\":2887:2901  winningNumbers */\n      0x03\n        /* \"Lottery/lotteryPancake.sol\":2907:2919  randomNumber */\n      dup2\n        /* \"Lottery/lotteryPancake.sol\":2887:2920  winningNumbers.push(randomNumber) */\n      swap1\n      dup1\n      0x01\n      dup2\n      sload\n      add\n      dup1\n      dup3\n      sstore\n      dup1\n      swap2\n      pop\n      pop\n      0x01\n      swap1\n      sub\n      swap1\n      0x00\n      mstore\n      keccak256(0x00, 0x20)\n      add\n      0x00\n      swap1\n      swap2\n      swap1\n      swap2\n      swap1\n      swap2\n      pop\n      sstore\n        /* \"Lottery/lotteryPancake.sol\":2744:2933  for (uint i = 0; i < 6; i++) {\r... */\n      pop\n        /* \"Lottery/lotteryPancake.sol\":2768:2771  i++ */\n      dup1\n      dup1\n      0x01\n      add\n      swap2\n      pop\n      pop\n        /* \"Lottery/lotteryPancake.sol\":2744:2933  for (uint i = 0; i < 6; i++) {\r... */\n      jump(tag_284)\n    tag_285:\n      pop\n        /* \"Lottery/lotteryPancake.sol\":2611:2940  function setWinningNumbers() public {\r... */\n      jump\t// out\n        /* \"Lottery/lotteryPancake.sol\":1313:1445  function viewTickets(uint256 ticketnr) public view returns(uint256[] memory) {\r... */\n    tag_103:\n        /* \"Lottery/lotteryPancake.sol\":1372:1388  uint256[] memory */\n      0x60\n        /* \"Lottery/lotteryPancake.sol\":1408:1415  tickets */\n      0x02\n        /* \"Lottery/lotteryPancake.sol\":1408:1427  tickets[msg.sender] */\n      0x00\n        /* \"Lottery/lotteryPancake.sol\":1416:1426  msg.sender */\n      caller\n        /* \"Lottery/lotteryPancake.sol\":1408:1427  tickets[msg.sender] */\n      0xffffffffffffffffffffffffffffffffffffffff\n      and\n      0xffffffffffffffffffffffffffffffffffffffff\n      and\n      dup2\n      mstore\n      0x20\n      add\n      swap1\n      dup2\n      mstore\n      0x20\n      add\n      0x00\n      keccak256\n        /* \"Lottery/lotteryPancake.sol\":1428:1436  ticketnr */\n      dup3\n        /* \"Lottery/lotteryPancake.sol\":1408:1437  tickets[msg.sender][ticketnr] */\n      dup2\n      sload\n      dup2\n      lt\n      tag_292\n      jumpi\n      invalid\n    tag_292:\n      swap1\n      0x00\n      mstore\n      keccak256(0x00, 0x20)\n      add\n        /* \"Lottery/lotteryPancake.sol\":1401:1437  return tickets[msg.sender][ticketnr] */\n      dup1\n      sload\n      dup1\n      0x20\n      mul\n      0x20\n      add\n      mload(0x40)\n      swap1\n      dup2\n      add\n      0x40\n      mstore\n      dup1\n      swap3\n      swap2\n      swap1\n      dup2\n      dup2\n      mstore\n      0x20\n      add\n      dup3\n      dup1\n      sload\n      dup1\n      iszero\n      tag_294\n      jumpi\n      0x20\n      mul\n      dup3\n      add\n      swap2\n      swap1\n      0x00\n      mstore\n      keccak256(0x00, 0x20)\n      swap1\n    tag_295:\n      dup2\n      sload\n      dup2\n      mstore\n      0x20\n      add\n      swap1\n      0x01\n      add\n      swap1\n      dup1\n      dup4\n      gt\n      tag_295\n      jumpi\n    tag_294:\n      pop\n      pop\n      pop\n      pop\n      pop\n      swap1\n      pop\n        /* \"Lottery/lotteryPancake.sol\":1313:1445  function viewTickets(uint256 ticketnr) public view returns(uint256[] memory) {\r... */\n      swap2\n      swap1\n      pop\n      jump\t// out\n    tag_114:\n      dup3\n      dup1\n      sload\n      dup3\n      dup3\n      sstore\n      swap1\n      0x00\n      mstore\n      keccak256(0x00, 0x20)\n      swap1\n      dup2\n      add\n      swap3\n      dup3\n      iszero\n      tag_296\n      jumpi\n      swap2\n      0x20\n      mul\n      dup3\n      add\n    tag_297:\n      dup3\n      dup2\n      gt\n      iszero\n      tag_298\n      jumpi\n      dup3\n      mload\n      dup3\n      sstore\n      swap2\n      0x20\n      add\n      swap2\n      swap1\n      0x01\n      add\n      swap1\n      jump(tag_297)\n    tag_298:\n    tag_296:\n      pop\n      swap1\n      pop\n      tag_299\n      swap2\n      swap1\n      tag_300\n      jump\t// in\n    tag_299:\n      pop\n      swap1\n      jump\t// out\n    tag_212:\n      mload(0x40)\n      dup1\n      0xc0\n      add\n      0x40\n      mstore\n      dup1\n      0x06\n      swap1\n      0x20\n      dup3\n      mul\n      dup1\n      calldatasize\n      dup4\n      calldatacopy\n      dup1\n      dup3\n      add\n      swap2\n      pop\n      pop\n      swap1\n      pop\n      pop\n      swap1\n      jump\t// out\n    tag_300:\n    tag_301:\n      dup1\n      dup3\n      gt\n      iszero\n      tag_302\n      jumpi\n      0x00\n      dup2\n      0x00\n      swap1\n      sstore\n      pop\n      0x01\n      add\n      jump(tag_301)\n    tag_302:\n      pop\n      swap1\n      jump\t// out\n        /* \"--CODEGEN--\":5:135   */\n    tag_304:\n      0x00\n        /* \"--CODEGEN--\":85:91   */\n      dup2\n        /* \"--CODEGEN--\":72:92   */\n      calldataload\n        /* \"--CODEGEN--\":63:92   */\n      swap1\n      pop\n        /* \"--CODEGEN--\":97:130   */\n      tag_306\n        /* \"--CODEGEN--\":124:129   */\n      dup2\n        /* \"--CODEGEN--\":97:130   */\n      tag_307\n      jump\t// in\n    tag_306:\n        /* \"--CODEGEN--\":57:135   */\n      swap3\n      swap2\n      pop\n      pop\n      jump\t// out\n        /* \"--CODEGEN--\":160:867   */\n    tag_308:\n      0x00\n        /* \"--CODEGEN--\":277:280   */\n      dup3\n        /* \"--CODEGEN--\":270:274   */\n      0x1f\n        /* \"--CODEGEN--\":262:268   */\n      dup4\n        /* \"--CODEGEN--\":258:275   */\n      add\n        /* \"--CODEGEN--\":254:281   */\n      slt\n        /* \"--CODEGEN--\":244:246   */\n      tag_310\n      jumpi\n        /* \"--CODEGEN--\":295:296   */\n      0x00\n        /* \"--CODEGEN--\":292:293   */\n      dup1\n        /* \"--CODEGEN--\":285:297   */\n      revert\n        /* \"--CODEGEN--\":244:246   */\n    tag_310:\n        /* \"--CODEGEN--\":332:338   */\n      dup2\n        /* \"--CODEGEN--\":319:339   */\n      calldataload\n        /* \"--CODEGEN--\":354:434   */\n      tag_311\n        /* \"--CODEGEN--\":369:433   */\n      tag_312\n        /* \"--CODEGEN--\":426:432   */\n      dup3\n        /* \"--CODEGEN--\":369:433   */\n      tag_313\n      jump\t// in\n    tag_312:\n        /* \"--CODEGEN--\":354:434   */\n      tag_314\n      jump\t// in\n    tag_311:\n        /* \"--CODEGEN--\":345:434   */\n      swap2\n      pop\n        /* \"--CODEGEN--\":451:456   */\n      dup2\n        /* \"--CODEGEN--\":476:482   */\n      dup2\n        /* \"--CODEGEN--\":469:474   */\n      dup4\n        /* \"--CODEGEN--\":462:483   */\n      mstore\n        /* \"--CODEGEN--\":506:510   */\n      0x20\n        /* \"--CODEGEN--\":498:504   */\n      dup5\n        /* \"--CODEGEN--\":494:511   */\n      add\n        /* \"--CODEGEN--\":484:511   */\n      swap4\n      pop\n        /* \"--CODEGEN--\":528:532   */\n      0x20\n        /* \"--CODEGEN--\":523:526   */\n      dup2\n        /* \"--CODEGEN--\":519:533   */\n      add\n        /* \"--CODEGEN--\":512:533   */\n      swap1\n      pop\n        /* \"--CODEGEN--\":581:587   */\n      dup4\n        /* \"--CODEGEN--\":628:631   */\n      dup6\n        /* \"--CODEGEN--\":620:624   */\n      0x20\n        /* \"--CODEGEN--\":612:618   */\n      dup5\n        /* \"--CODEGEN--\":608:625   */\n      mul\n        /* \"--CODEGEN--\":603:606   */\n      dup3\n        /* \"--CODEGEN--\":599:626   */\n      add\n        /* \"--CODEGEN--\":596:632   */\n      gt\n        /* \"--CODEGEN--\":593:595   */\n      iszero\n      tag_315\n      jumpi\n        /* \"--CODEGEN--\":645:646   */\n      0x00\n        /* \"--CODEGEN--\":642:643   */\n      dup1\n        /* \"--CODEGEN--\":635:647   */\n      revert\n        /* \"--CODEGEN--\":593:595   */\n    tag_315:\n        /* \"--CODEGEN--\":670:671   */\n      0x00\n        /* \"--CODEGEN--\":655:861   */\n    tag_316:\n        /* \"--CODEGEN--\":680:686   */\n      dup4\n        /* \"--CODEGEN--\":677:678   */\n      dup2\n        /* \"--CODEGEN--\":674:687   */\n      lt\n        /* \"--CODEGEN--\":655:861   */\n      iszero\n      tag_318\n      jumpi\n        /* \"--CODEGEN--\":738:741   */\n      dup2\n        /* \"--CODEGEN--\":760:797   */\n      tag_319\n        /* \"--CODEGEN--\":793:796   */\n      dup9\n        /* \"--CODEGEN--\":781:791   */\n      dup3\n        /* \"--CODEGEN--\":760:797   */\n      tag_320\n      jump\t// in\n    tag_319:\n        /* \"--CODEGEN--\":755:758   */\n      dup5\n        /* \"--CODEGEN--\":748:798   */\n      mstore\n        /* \"--CODEGEN--\":821:825   */\n      0x20\n        /* \"--CODEGEN--\":816:819   */\n      dup5\n        /* \"--CODEGEN--\":812:826   */\n      add\n        /* \"--CODEGEN--\":805:826   */\n      swap4\n      pop\n        /* \"--CODEGEN--\":849:853   */\n      0x20\n        /* \"--CODEGEN--\":844:847   */\n      dup4\n        /* \"--CODEGEN--\":840:854   */\n      add\n        /* \"--CODEGEN--\":833:854   */\n      swap3\n      pop\n        /* \"--CODEGEN--\":712:861   */\n      pop\n        /* \"--CODEGEN--\":702:703   */\n      0x01\n        /* \"--CODEGEN--\":699:700   */\n      dup2\n        /* \"--CODEGEN--\":695:704   */\n      add\n        /* \"--CODEGEN--\":690:704   */\n      swap1\n      pop\n        /* \"--CODEGEN--\":655:861   */\n      jump(tag_316)\n    tag_318:\n        /* \"--CODEGEN--\":659:673   */\n      pop\n        /* \"--CODEGEN--\":237:867   */\n      pop\n      pop\n      pop\n      swap3\n      swap2\n      pop\n      pop\n      jump\t// out\n        /* \"--CODEGEN--\":875:1005   */\n    tag_320:\n      0x00\n        /* \"--CODEGEN--\":955:961   */\n      dup2\n        /* \"--CODEGEN--\":942:962   */\n      calldataload\n        /* \"--CODEGEN--\":933:962   */\n      swap1\n      pop\n        /* \"--CODEGEN--\":967:1000   */\n      tag_322\n        /* \"--CODEGEN--\":994:999   */\n      dup2\n        /* \"--CODEGEN--\":967:1000   */\n      tag_323\n      jump\t// in\n    tag_322:\n        /* \"--CODEGEN--\":927:1005   */\n      swap3\n      swap2\n      pop\n      pop\n      jump\t// out\n        /* \"--CODEGEN--\":1012:1503   */\n    tag_43:\n      0x00\n      dup1\n      0x00\n        /* \"--CODEGEN--\":1150:1152   */\n      0x60\n        /* \"--CODEGEN--\":1138:1147   */\n      dup5\n        /* \"--CODEGEN--\":1129:1136   */\n      dup7\n        /* \"--CODEGEN--\":1125:1148   */\n      sub\n        /* \"--CODEGEN--\":1121:1153   */\n      slt\n        /* \"--CODEGEN--\":1118:1120   */\n      iszero\n      tag_325\n      jumpi\n        /* \"--CODEGEN--\":1166:1167   */\n      0x00\n        /* \"--CODEGEN--\":1163:1164   */\n      dup1\n        /* \"--CODEGEN--\":1156:1168   */\n      revert\n        /* \"--CODEGEN--\":1118:1120   */\n    tag_325:\n        /* \"--CODEGEN--\":1201:1202   */\n      0x00\n        /* \"--CODEGEN--\":1218:1271   */\n      tag_326\n        /* \"--CODEGEN--\":1263:1270   */\n      dup7\n        /* \"--CODEGEN--\":1254:1260   */\n      dup3\n        /* \"--CODEGEN--\":1243:1252   */\n      dup8\n        /* \"--CODEGEN--\":1239:1261   */\n      add\n        /* \"--CODEGEN--\":1218:1271   */\n      tag_304\n      jump\t// in\n    tag_326:\n        /* \"--CODEGEN--\":1208:1271   */\n      swap4\n      pop\n        /* \"--CODEGEN--\":1180:1277   */\n      pop\n        /* \"--CODEGEN--\":1308:1310   */\n      0x20\n        /* \"--CODEGEN--\":1326:1379   */\n      tag_327\n        /* \"--CODEGEN--\":1371:1378   */\n      dup7\n        /* \"--CODEGEN--\":1362:1368   */\n      dup3\n        /* \"--CODEGEN--\":1351:1360   */\n      dup8\n        /* \"--CODEGEN--\":1347:1369   */\n      add\n        /* \"--CODEGEN--\":1326:1379   */\n      tag_320\n      jump\t// in\n    tag_327:\n        /* \"--CODEGEN--\":1316:1379   */\n      swap3\n      pop\n        /* \"--CODEGEN--\":1287:1385   */\n      pop\n        /* \"--CODEGEN--\":1416:1418   */\n      0x40\n        /* \"--CODEGEN--\":1434:1487   */\n      tag_328\n        /* \"--CODEGEN--\":1479:1486   */\n      dup7\n        /* \"--CODEGEN--\":1470:1476   */\n      dup3\n        /* \"--CODEGEN--\":1459:1468   */\n      dup8\n        /* \"--CODEGEN--\":1455:1477   */\n      add\n        /* \"--CODEGEN--\":1434:1487   */\n      tag_320\n      jump\t// in\n    tag_328:\n        /* \"--CODEGEN--\":1424:1487   */\n      swap2\n      pop\n        /* \"--CODEGEN--\":1395:1493   */\n      pop\n        /* \"--CODEGEN--\":1112:1503   */\n      swap3\n      pop\n      swap3\n      pop\n      swap3\n      jump\t// out\n        /* \"--CODEGEN--\":1510:1887   */\n    tag_27:\n      0x00\n        /* \"--CODEGEN--\":1639:1641   */\n      0x20\n        /* \"--CODEGEN--\":1627:1636   */\n      dup3\n        /* \"--CODEGEN--\":1618:1625   */\n      dup5\n        /* \"--CODEGEN--\":1614:1637   */\n      sub\n        /* \"--CODEGEN--\":1610:1642   */\n      slt\n        /* \"--CODEGEN--\":1607:1609   */\n      iszero\n      tag_330\n      jumpi\n        /* \"--CODEGEN--\":1655:1656   */\n      0x00\n        /* \"--CODEGEN--\":1652:1653   */\n      dup1\n        /* \"--CODEGEN--\":1645:1657   */\n      revert\n        /* \"--CODEGEN--\":1607:1609   */\n    tag_330:\n        /* \"--CODEGEN--\":1718:1719   */\n      0x00\n        /* \"--CODEGEN--\":1707:1716   */\n      dup3\n        /* \"--CODEGEN--\":1703:1720   */\n      add\n        /* \"--CODEGEN--\":1690:1721   */\n      calldataload\n        /* \"--CODEGEN--\":1741:1759   */\n      0xffffffffffffffff\n        /* \"--CODEGEN--\":1733:1739   */\n      dup2\n        /* \"--CODEGEN--\":1730:1760   */\n      gt\n        /* \"--CODEGEN--\":1727:1729   */\n      iszero\n      tag_331\n      jumpi\n        /* \"--CODEGEN--\":1773:1774   */\n      0x00\n        /* \"--CODEGEN--\":1770:1771   */\n      dup1\n        /* \"--CODEGEN--\":1763:1775   */\n      revert\n        /* \"--CODEGEN--\":1727:1729   */\n    tag_331:\n        /* \"--CODEGEN--\":1793:1871   */\n      tag_332\n        /* \"--CODEGEN--\":1863:1870   */\n      dup5\n        /* \"--CODEGEN--\":1854:1860   */\n      dup3\n        /* \"--CODEGEN--\":1843:1852   */\n      dup6\n        /* \"--CODEGEN--\":1839:1861   */\n      add\n        /* \"--CODEGEN--\":1793:1871   */\n      tag_308\n      jump\t// in\n    tag_332:\n        /* \"--CODEGEN--\":1783:1871   */\n      swap2\n      pop\n        /* \"--CODEGEN--\":1669:1877   */\n      pop\n        /* \"--CODEGEN--\":1601:1887   */\n      swap3\n      swap2\n      pop\n      pop\n      jump\t// out\n        /* \"--CODEGEN--\":1894:2135   */\n    tag_61:\n      0x00\n        /* \"--CODEGEN--\":1998:2000   */\n      0x20\n        /* \"--CODEGEN--\":1986:1995   */\n      dup3\n        /* \"--CODEGEN--\":1977:1984   */\n      dup5\n        /* \"--CODEGEN--\":1973:1996   */\n      sub\n        /* \"--CODEGEN--\":1969:2001   */\n      slt\n        /* \"--CODEGEN--\":1966:1968   */\n      iszero\n      tag_334\n      jumpi\n        /* \"--CODEGEN--\":2014:2015   */\n      0x00\n        /* \"--CODEGEN--\":2011:2012   */\n      dup1\n        /* \"--CODEGEN--\":2004:2016   */\n      revert\n        /* \"--CODEGEN--\":1966:1968   */\n    tag_334:\n        /* \"--CODEGEN--\":2049:2050   */\n      0x00\n        /* \"--CODEGEN--\":2066:2119   */\n      tag_335\n        /* \"--CODEGEN--\":2111:2118   */\n      dup5\n        /* \"--CODEGEN--\":2102:2108   */\n      dup3\n        /* \"--CODEGEN--\":2091:2100   */\n      dup6\n        /* \"--CODEGEN--\":2087:2109   */\n      add\n        /* \"--CODEGEN--\":2066:2119   */\n      tag_320\n      jump\t// in\n    tag_335:\n        /* \"--CODEGEN--\":2056:2119   */\n      swap2\n      pop\n        /* \"--CODEGEN--\":2028:2125   */\n      pop\n        /* \"--CODEGEN--\":1960:2135   */\n      swap3\n      swap2\n      pop\n      pop\n      jump\t// out\n        /* \"--CODEGEN--\":2142:2508   */\n    tag_37:\n      0x00\n      dup1\n        /* \"--CODEGEN--\":2263:2265   */\n      0x40\n        /* \"--CODEGEN--\":2251:2260   */\n      dup4\n        /* \"--CODEGEN--\":2242:2249   */\n      dup6\n        /* \"--CODEGEN--\":2238:2261   */\n      sub\n        /* \"--CODEGEN--\":2234:2266   */\n      slt\n        /* \"--CODEGEN--\":2231:2233   */\n      iszero\n      tag_337\n      jumpi\n        /* \"--CODEGEN--\":2279:2280   */\n      0x00\n        /* \"--CODEGEN--\":2276:2277   */\n      dup1\n        /* \"--CODEGEN--\":2269:2281   */\n      revert\n        /* \"--CODEGEN--\":2231:2233   */\n    tag_337:\n        /* \"--CODEGEN--\":2314:2315   */\n      0x00\n        /* \"--CODEGEN--\":2331:2384   */\n      tag_338\n        /* \"--CODEGEN--\":2376:2383   */\n      dup6\n        /* \"--CODEGEN--\":2367:2373   */\n      dup3\n        /* \"--CODEGEN--\":2356:2365   */\n      dup7\n        /* \"--CODEGEN--\":2352:2374   */\n      add\n        /* \"--CODEGEN--\":2331:2384   */\n      tag_320\n      jump\t// in\n    tag_338:\n        /* \"--CODEGEN--\":2321:2384   */\n      swap3\n      pop\n        /* \"--CODEGEN--\":2293:2390   */\n      pop\n        /* \"--CODEGEN--\":2421:2423   */\n      0x20\n        /* \"--CODEGEN--\":2439:2492   */\n      tag_339\n        /* \"--CODEGEN--\":2484:2491   */\n      dup6\n        /* \"--CODEGEN--\":2475:2481   */\n      dup3\n        /* \"--CODEGEN--\":2464:2473   */\n      dup7\n        /* \"--CODEGEN--\":2460:2482   */\n      add\n        /* \"--CODEGEN--\":2439:2492   */\n      tag_320\n      jump\t// in\n    tag_339:\n        /* \"--CODEGEN--\":2429:2492   */\n      swap2\n      pop\n        /* \"--CODEGEN--\":2400:2498   */\n      pop\n        /* \"--CODEGEN--\":2225:2508   */\n      swap3\n      pop\n      swap3\n      swap1\n      pop\n      jump\t// out\n        /* \"--CODEGEN--\":2516:2689   */\n    tag_340:\n      0x00\n        /* \"--CODEGEN--\":2603:2649   */\n      tag_342\n        /* \"--CODEGEN--\":2645:2648   */\n      dup4\n        /* \"--CODEGEN--\":2637:2643   */\n      dup4\n        /* \"--CODEGEN--\":2603:2649   */\n      tag_343\n      jump\t// in\n    tag_342:\n        /* \"--CODEGEN--\":2678:2682   */\n      0x20\n        /* \"--CODEGEN--\":2673:2676   */\n      dup4\n        /* \"--CODEGEN--\":2669:2683   */\n      add\n        /* \"--CODEGEN--\":2655:2683   */\n      swap1\n      pop\n        /* \"--CODEGEN--\":2596:2689   */\n      swap3\n      swap2\n      pop\n      pop\n      jump\t// out\n        /* \"--CODEGEN--\":2697:2810   */\n    tag_344:\n        /* \"--CODEGEN--\":2780:2804   */\n      tag_346\n        /* \"--CODEGEN--\":2798:2803   */\n      dup2\n        /* \"--CODEGEN--\":2780:2804   */\n      tag_347\n      jump\t// in\n    tag_346:\n        /* \"--CODEGEN--\":2775:2778   */\n      dup3\n        /* \"--CODEGEN--\":2768:2805   */\n      mstore\n        /* \"--CODEGEN--\":2762:2810   */\n      pop\n      pop\n      jump\t// out\n        /* \"--CODEGEN--\":2850:3510   */\n    tag_348:\n        /* \"--CODEGEN--\":2983:3035   */\n      tag_350\n        /* \"--CODEGEN--\":3029:3034   */\n      dup2\n        /* \"--CODEGEN--\":2983:3035   */\n      tag_351\n      jump\t// in\n    tag_350:\n        /* \"--CODEGEN--\":3048:3132   */\n      tag_352\n        /* \"--CODEGEN--\":3125:3131   */\n      dup2\n        /* \"--CODEGEN--\":3120:3123   */\n      dup5\n        /* \"--CODEGEN--\":3048:3132   */\n      tag_353\n      jump\t// in\n    tag_352:\n        /* \"--CODEGEN--\":3041:3132   */\n      swap3\n      pop\n        /* \"--CODEGEN--\":3153:3207   */\n      tag_354\n        /* \"--CODEGEN--\":3201:3206   */\n      dup3\n        /* \"--CODEGEN--\":3153:3207   */\n      tag_355\n      jump\t// in\n    tag_354:\n        /* \"--CODEGEN--\":3227:3234   */\n      dup1\n        /* \"--CODEGEN--\":3255:3256   */\n      0x00\n        /* \"--CODEGEN--\":3240:3498   */\n    tag_356:\n        /* \"--CODEGEN--\":3265:3271   */\n      dup4\n        /* \"--CODEGEN--\":3262:3263   */\n      dup2\n        /* \"--CODEGEN--\":3259:3272   */\n      lt\n        /* \"--CODEGEN--\":3240:3498   */\n      iszero\n      tag_358\n      jumpi\n        /* \"--CODEGEN--\":3332:3338   */\n      dup2\n        /* \"--CODEGEN--\":3326:3339   */\n      mload\n        /* \"--CODEGEN--\":3353:3416   */\n      tag_359\n        /* \"--CODEGEN--\":3412:3415   */\n      dup8\n        /* \"--CODEGEN--\":3397:3410   */\n      dup3\n        /* \"--CODEGEN--\":3353:3416   */\n      tag_340\n      jump\t// in\n    tag_359:\n        /* \"--CODEGEN--\":3346:3416   */\n      swap7\n      pop\n        /* \"--CODEGEN--\":3433:3491   */\n      tag_360\n        /* \"--CODEGEN--\":3484:3490   */\n      dup4\n        /* \"--CODEGEN--\":3433:3491   */\n      tag_361\n      jump\t// in\n    tag_360:\n        /* \"--CODEGEN--\":3423:3491   */\n      swap3\n      pop\n        /* \"--CODEGEN--\":3297:3498   */\n      pop\n        /* \"--CODEGEN--\":3287:3288   */\n      0x01\n        /* \"--CODEGEN--\":3284:3285   */\n      dup2\n        /* \"--CODEGEN--\":3280:3289   */\n      add\n        /* \"--CODEGEN--\":3275:3289   */\n      swap1\n      pop\n        /* \"--CODEGEN--\":3240:3498   */\n      jump(tag_356)\n    tag_358:\n        /* \"--CODEGEN--\":3244:3258   */\n      pop\n        /* \"--CODEGEN--\":2962:3510   */\n      pop\n      pop\n      pop\n      pop\n      pop\n      jump\t// out\n        /* \"--CODEGEN--\":3549:4239   */\n    tag_362:\n      0x00\n        /* \"--CODEGEN--\":3694:3748   */\n      tag_364\n        /* \"--CODEGEN--\":3742:3747   */\n      dup3\n        /* \"--CODEGEN--\":3694:3748   */\n      tag_365\n      jump\t// in\n    tag_364:\n        /* \"--CODEGEN--\":3761:3847   */\n      tag_366\n        /* \"--CODEGEN--\":3840:3846   */\n      dup2\n        /* \"--CODEGEN--\":3835:3838   */\n      dup6\n        /* \"--CODEGEN--\":3761:3847   */\n      tag_367\n      jump\t// in\n    tag_366:\n        /* \"--CODEGEN--\":3754:3847   */\n      swap4\n      pop\n        /* \"--CODEGEN--\":3868:3924   */\n      tag_368\n        /* \"--CODEGEN--\":3918:3923   */\n      dup4\n        /* \"--CODEGEN--\":3868:3924   */\n      tag_369\n      jump\t// in\n    tag_368:\n        /* \"--CODEGEN--\":3944:3951   */\n      dup1\n        /* \"--CODEGEN--\":3972:3973   */\n      0x00\n        /* \"--CODEGEN--\":3957:4217   */\n    tag_370:\n        /* \"--CODEGEN--\":3982:3988   */\n      dup4\n        /* \"--CODEGEN--\":3979:3980   */\n      dup2\n        /* \"--CODEGEN--\":3976:3989   */\n      lt\n        /* \"--CODEGEN--\":3957:4217   */\n      iszero\n      tag_372\n      jumpi\n        /* \"--CODEGEN--\":4049:4055   */\n      dup2\n        /* \"--CODEGEN--\":4043:4056   */\n      mload\n        /* \"--CODEGEN--\":4070:4133   */\n      tag_373\n        /* \"--CODEGEN--\":4129:4132   */\n      dup9\n        /* \"--CODEGEN--\":4114:4127   */\n      dup3\n        /* \"--CODEGEN--\":4070:4133   */\n      tag_340\n      jump\t// in\n    tag_373:\n        /* \"--CODEGEN--\":4063:4133   */\n      swap8\n      pop\n        /* \"--CODEGEN--\":4150:4210   */\n      tag_374\n        /* \"--CODEGEN--\":4203:4209   */\n      dup4\n        /* \"--CODEGEN--\":4150:4210   */\n      tag_375\n      jump\t// in\n    tag_374:\n        /* \"--CODEGEN--\":4140:4210   */\n      swap3\n      pop\n        /* \"--CODEGEN--\":4014:4217   */\n      pop\n        /* \"--CODEGEN--\":4004:4005   */\n      0x01\n        /* \"--CODEGEN--\":4001:4002   */\n      dup2\n        /* \"--CODEGEN--\":3997:4006   */\n      add\n        /* \"--CODEGEN--\":3992:4006   */\n      swap1\n      pop\n        /* \"--CODEGEN--\":3957:4217   */\n      jump(tag_370)\n    tag_372:\n        /* \"--CODEGEN--\":3961:3975   */\n      pop\n        /* \"--CODEGEN--\":4230:4233   */\n      dup6\n        /* \"--CODEGEN--\":4223:4233   */\n      swap4\n      pop\n        /* \"--CODEGEN--\":3673:4239   */\n      pop\n      pop\n      pop\n      swap3\n      swap2\n      pop\n      pop\n      jump\t// out\n        /* \"--CODEGEN--\":4248:4573   */\n    tag_376:\n      0x00\n        /* \"--CODEGEN--\":4408:4475   */\n      tag_378\n        /* \"--CODEGEN--\":4472:4474   */\n      0x19\n        /* \"--CODEGEN--\":4467:4470   */\n      dup4\n        /* \"--CODEGEN--\":4408:4475   */\n      tag_379\n      jump\t// in\n    tag_378:\n        /* \"--CODEGEN--\":4401:4475   */\n      swap2\n      pop\n        /* \"--CODEGEN--\":4508:4535   */\n      0x5469636b6574206d757374206861766520362064696769747300000000000000\n        /* \"--CODEGEN--\":4504:4505   */\n      0x00\n        /* \"--CODEGEN--\":4499:4502   */\n      dup4\n        /* \"--CODEGEN--\":4495:4506   */\n      add\n        /* \"--CODEGEN--\":4488:4536   */\n      mstore\n        /* \"--CODEGEN--\":4564:4566   */\n      0x20\n        /* \"--CODEGEN--\":4559:4562   */\n      dup3\n        /* \"--CODEGEN--\":4555:4567   */\n      add\n        /* \"--CODEGEN--\":4548:4567   */\n      swap1\n      pop\n        /* \"--CODEGEN--\":4394:4573   */\n      swap2\n      swap1\n      pop\n      jump\t// out\n        /* \"--CODEGEN--\":4582:4914   */\n    tag_380:\n      0x00\n        /* \"--CODEGEN--\":4742:4809   */\n      tag_382\n        /* \"--CODEGEN--\":4806:4808   */\n      0x20\n        /* \"--CODEGEN--\":4801:4804   */\n      dup4\n        /* \"--CODEGEN--\":4742:4809   */\n      tag_379\n      jump\t// in\n    tag_382:\n        /* \"--CODEGEN--\":4735:4809   */\n      swap2\n      pop\n        /* \"--CODEGEN--\":4842:4876   */\n      0x4f6e6c7920746865206f776e65722063616e20656e642074686520726f756e64\n        /* \"--CODEGEN--\":4838:4839   */\n      0x00\n        /* \"--CODEGEN--\":4833:4836   */\n      dup4\n        /* \"--CODEGEN--\":4829:4840   */\n      add\n        /* \"--CODEGEN--\":4822:4877   */\n      mstore\n        /* \"--CODEGEN--\":4905:4907   */\n      0x20\n        /* \"--CODEGEN--\":4900:4903   */\n      dup3\n        /* \"--CODEGEN--\":4896:4908   */\n      add\n        /* \"--CODEGEN--\":4889:4908   */\n      swap1\n      pop\n        /* \"--CODEGEN--\":4728:4914   */\n      swap2\n      swap1\n      pop\n      jump\t// out\n        /* \"--CODEGEN--\":4923:5249   */\n    tag_383:\n      0x00\n        /* \"--CODEGEN--\":5083:5150   */\n      tag_385\n        /* \"--CODEGEN--\":5147:5149   */\n      0x1a\n        /* \"--CODEGEN--\":5142:5145   */\n      dup4\n        /* \"--CODEGEN--\":5083:5150   */\n      tag_379\n      jump\t// in\n    tag_385:\n        /* \"--CODEGEN--\":5076:5150   */\n      swap2\n      pop\n        /* \"--CODEGEN--\":5183:5211   */\n      0x596f7520646f6e2774206861766520616e79207469636b657473000000000000\n        /* \"--CODEGEN--\":5179:5180   */\n      0x00\n        /* \"--CODEGEN--\":5174:5177   */\n      dup4\n        /* \"--CODEGEN--\":5170:5181   */\n      add\n        /* \"--CODEGEN--\":5163:5212   */\n      mstore\n        /* \"--CODEGEN--\":5240:5242   */\n      0x20\n        /* \"--CODEGEN--\":5235:5238   */\n      dup3\n        /* \"--CODEGEN--\":5231:5243   */\n      add\n        /* \"--CODEGEN--\":5224:5243   */\n      swap1\n      pop\n        /* \"--CODEGEN--\":5069:5249   */\n      swap2\n      swap1\n      pop\n      jump\t// out\n        /* \"--CODEGEN--\":5258:5631   */\n    tag_386:\n      0x00\n        /* \"--CODEGEN--\":5418:5485   */\n      tag_388\n        /* \"--CODEGEN--\":5482:5484   */\n      0x24\n        /* \"--CODEGEN--\":5477:5480   */\n      dup4\n        /* \"--CODEGEN--\":5418:5485   */\n      tag_379\n      jump\t// in\n    tag_388:\n        /* \"--CODEGEN--\":5411:5485   */\n      swap2\n      pop\n        /* \"--CODEGEN--\":5518:5552   */\n      0x4f6e6c7920746865206f776e65722063616e2064697374726962757465207072\n        /* \"--CODEGEN--\":5514:5515   */\n      0x00\n        /* \"--CODEGEN--\":5509:5512   */\n      dup4\n        /* \"--CODEGEN--\":5505:5516   */\n      add\n        /* \"--CODEGEN--\":5498:5553   */\n      mstore\n        /* \"--CODEGEN--\":5587:5593   */\n      0x697a657300000000000000000000000000000000000000000000000000000000\n        /* \"--CODEGEN--\":5582:5584   */\n      0x20\n        /* \"--CODEGEN--\":5577:5580   */\n      dup4\n        /* \"--CODEGEN--\":5573:5585   */\n      add\n        /* \"--CODEGEN--\":5566:5594   */\n      mstore\n        /* \"--CODEGEN--\":5622:5624   */\n      0x40\n        /* \"--CODEGEN--\":5617:5620   */\n      dup3\n        /* \"--CODEGEN--\":5613:5625   */\n      add\n        /* \"--CODEGEN--\":5606:5625   */\n      swap1\n      pop\n        /* \"--CODEGEN--\":5404:5631   */\n      swap2\n      swap1\n      pop\n      jump\t// out\n        /* \"--CODEGEN--\":5640:5972   */\n    tag_389:\n      0x00\n        /* \"--CODEGEN--\":5800:5867   */\n      tag_391\n        /* \"--CODEGEN--\":5864:5866   */\n      0x20\n        /* \"--CODEGEN--\":5859:5862   */\n      dup4\n        /* \"--CODEGEN--\":5800:5867   */\n      tag_379\n      jump\t// in\n    tag_391:\n        /* \"--CODEGEN--\":5793:5867   */\n      swap2\n      pop\n        /* \"--CODEGEN--\":5900:5934   */\n      0x4f6e6c7920746865206f776e65722063616e207374617274206120726f756e64\n        /* \"--CODEGEN--\":5896:5897   */\n      0x00\n        /* \"--CODEGEN--\":5891:5894   */\n      dup4\n        /* \"--CODEGEN--\":5887:5898   */\n      add\n        /* \"--CODEGEN--\":5880:5935   */\n      mstore\n        /* \"--CODEGEN--\":5963:5965   */\n      0x20\n        /* \"--CODEGEN--\":5958:5961   */\n      dup3\n        /* \"--CODEGEN--\":5954:5966   */\n      add\n        /* \"--CODEGEN--\":5947:5966   */\n      swap1\n      pop\n        /* \"--CODEGEN--\":5786:5972   */\n      swap2\n      swap1\n      pop\n      jump\t// out\n        /* \"--CODEGEN--\":5981:6360   */\n    tag_392:\n      0x00\n        /* \"--CODEGEN--\":6141:6208   */\n      tag_394\n        /* \"--CODEGEN--\":6205:6207   */\n      0x2a\n        /* \"--CODEGEN--\":6200:6203   */\n      dup4\n        /* \"--CODEGEN--\":6141:6208   */\n      tag_379\n      jump\t// in\n    tag_394:\n        /* \"--CODEGEN--\":6134:6208   */\n      swap2\n      pop\n        /* \"--CODEGEN--\":6241:6275   */\n      0x4f6e6c7920746865206f776e65722063616e20736574207468652077696e6e69\n        /* \"--CODEGEN--\":6237:6238   */\n      0x00\n        /* \"--CODEGEN--\":6232:6235   */\n      dup4\n        /* \"--CODEGEN--\":6228:6239   */\n      add\n        /* \"--CODEGEN--\":6221:6276   */\n      mstore\n        /* \"--CODEGEN--\":6310:6322   */\n      0x6e67206e756d6265727300000000000000000000000000000000000000000000\n        /* \"--CODEGEN--\":6305:6307   */\n      0x20\n        /* \"--CODEGEN--\":6300:6303   */\n      dup4\n        /* \"--CODEGEN--\":6296:6308   */\n      add\n        /* \"--CODEGEN--\":6289:6323   */\n      mstore\n        /* \"--CODEGEN--\":6351:6353   */\n      0x40\n        /* \"--CODEGEN--\":6346:6349   */\n      dup3\n        /* \"--CODEGEN--\":6342:6354   */\n      add\n        /* \"--CODEGEN--\":6335:6354   */\n      swap1\n      pop\n        /* \"--CODEGEN--\":6127:6360   */\n      swap2\n      swap1\n      pop\n      jump\t// out\n        /* \"--CODEGEN--\":6369:6741   */\n    tag_395:\n      0x00\n        /* \"--CODEGEN--\":6529:6596   */\n      tag_397\n        /* \"--CODEGEN--\":6593:6595   */\n      0x23\n        /* \"--CODEGEN--\":6588:6591   */\n      dup4\n        /* \"--CODEGEN--\":6529:6596   */\n      tag_379\n      jump\t// in\n    tag_397:\n        /* \"--CODEGEN--\":6522:6596   */\n      swap2\n      pop\n        /* \"--CODEGEN--\":6629:6663   */\n      0x4f6e6c7920746865206f776e65722063616e2063616c63756c61746520707269\n        /* \"--CODEGEN--\":6625:6626   */\n      0x00\n        /* \"--CODEGEN--\":6620:6623   */\n      dup4\n        /* \"--CODEGEN--\":6616:6627   */\n      add\n        /* \"--CODEGEN--\":6609:6664   */\n      mstore\n        /* \"--CODEGEN--\":6698:6703   */\n      0x7a65730000000000000000000000000000000000000000000000000000000000\n        /* \"--CODEGEN--\":6693:6695   */\n      0x20\n        /* \"--CODEGEN--\":6688:6691   */\n      dup4\n        /* \"--CODEGEN--\":6684:6696   */\n      add\n        /* \"--CODEGEN--\":6677:6704   */\n      mstore\n        /* \"--CODEGEN--\":6732:6734   */\n      0x40\n        /* \"--CODEGEN--\":6727:6730   */\n      dup3\n        /* \"--CODEGEN--\":6723:6735   */\n      add\n        /* \"--CODEGEN--\":6716:6735   */\n      swap1\n      pop\n        /* \"--CODEGEN--\":6515:6741   */\n      swap2\n      swap1\n      pop\n      jump\t// out\n        /* \"--CODEGEN--\":6750:7127   */\n    tag_398:\n      0x00\n        /* \"--CODEGEN--\":6910:6977   */\n      tag_400\n        /* \"--CODEGEN--\":6974:6976   */\n      0x28\n        /* \"--CODEGEN--\":6969:6972   */\n      dup4\n        /* \"--CODEGEN--\":6910:6977   */\n      tag_379\n      jump\t// in\n    tag_400:\n        /* \"--CODEGEN--\":6903:6977   */\n      swap2\n      pop\n        /* \"--CODEGEN--\":7010:7044   */\n      0x596f75206e65656420746f207061792074686520636f7272656374207469636b\n        /* \"--CODEGEN--\":7006:7007   */\n      0x00\n        /* \"--CODEGEN--\":7001:7004   */\n      dup4\n        /* \"--CODEGEN--\":6997:7008   */\n      add\n        /* \"--CODEGEN--\":6990:7045   */\n      mstore\n        /* \"--CODEGEN--\":7079:7089   */\n      0x6574207072696365000000000000000000000000000000000000000000000000\n        /* \"--CODEGEN--\":7074:7076   */\n      0x20\n        /* \"--CODEGEN--\":7069:7072   */\n      dup4\n        /* \"--CODEGEN--\":7065:7077   */\n      add\n        /* \"--CODEGEN--\":7058:7090   */\n      mstore\n        /* \"--CODEGEN--\":7118:7120   */\n      0x40\n        /* \"--CODEGEN--\":7113:7116   */\n      dup3\n        /* \"--CODEGEN--\":7109:7121   */\n      add\n        /* \"--CODEGEN--\":7102:7121   */\n      swap1\n      pop\n        /* \"--CODEGEN--\":6896:7127   */\n      swap2\n      swap1\n      pop\n      jump\t// out\n        /* \"--CODEGEN--\":7136:7458   */\n    tag_401:\n      0x00\n        /* \"--CODEGEN--\":7296:7363   */\n      tag_403\n        /* \"--CODEGEN--\":7360:7362   */\n      0x16\n        /* \"--CODEGEN--\":7355:7358   */\n      dup4\n        /* \"--CODEGEN--\":7296:7363   */\n      tag_379\n      jump\t// in\n    tag_403:\n        /* \"--CODEGEN--\":7289:7363   */\n      swap2\n      pop\n        /* \"--CODEGEN--\":7396:7420   */\n      0x4d7573742070726f766964652036206e756d6265727300000000000000000000\n        /* \"--CODEGEN--\":7392:7393   */\n      0x00\n        /* \"--CODEGEN--\":7387:7390   */\n      dup4\n        /* \"--CODEGEN--\":7383:7394   */\n      add\n        /* \"--CODEGEN--\":7376:7421   */\n      mstore\n        /* \"--CODEGEN--\":7449:7451   */\n      0x20\n        /* \"--CODEGEN--\":7444:7447   */\n      dup3\n        /* \"--CODEGEN--\":7440:7452   */\n      add\n        /* \"--CODEGEN--\":7433:7452   */\n      swap1\n      pop\n        /* \"--CODEGEN--\":7282:7458   */\n      swap2\n      swap1\n      pop\n      jump\t// out\n        /* \"--CODEGEN--\":7466:7569   */\n    tag_343:\n        /* \"--CODEGEN--\":7539:7563   */\n      tag_405\n        /* \"--CODEGEN--\":7557:7562   */\n      dup2\n        /* \"--CODEGEN--\":7539:7563   */\n      tag_406\n      jump\t// in\n    tag_405:\n        /* \"--CODEGEN--\":7534:7537   */\n      dup3\n        /* \"--CODEGEN--\":7527:7564   */\n      mstore\n        /* \"--CODEGEN--\":7521:7569   */\n      pop\n      pop\n      jump\t// out\n        /* \"--CODEGEN--\":7576:7689   */\n    tag_407:\n        /* \"--CODEGEN--\":7659:7683   */\n      tag_409\n        /* \"--CODEGEN--\":7677:7682   */\n      dup2\n        /* \"--CODEGEN--\":7659:7683   */\n      tag_406\n      jump\t// in\n    tag_409:\n        /* \"--CODEGEN--\":7654:7657   */\n      dup3\n        /* \"--CODEGEN--\":7647:7684   */\n      mstore\n        /* \"--CODEGEN--\":7641:7689   */\n      pop\n      pop\n      jump\t// out\n        /* \"--CODEGEN--\":7696:7848   */\n    tag_410:\n        /* \"--CODEGEN--\":7797:7842   */\n      tag_412\n        /* \"--CODEGEN--\":7817:7841   */\n      tag_413\n        /* \"--CODEGEN--\":7835:7840   */\n      dup3\n        /* \"--CODEGEN--\":7817:7841   */\n      tag_406\n      jump\t// in\n    tag_413:\n        /* \"--CODEGEN--\":7797:7842   */\n      tag_414\n      jump\t// in\n    tag_412:\n        /* \"--CODEGEN--\":7792:7795   */\n      dup3\n        /* \"--CODEGEN--\":7785:7843   */\n      mstore\n        /* \"--CODEGEN--\":7779:7848   */\n      pop\n      pop\n      jump\t// out\n        /* \"--CODEGEN--\":7855:8247   */\n    tag_288:\n      0x00\n        /* \"--CODEGEN--\":8011:8086   */\n      tag_416\n        /* \"--CODEGEN--\":8082:8085   */\n      dup3\n        /* \"--CODEGEN--\":8073:8079   */\n      dup6\n        /* \"--CODEGEN--\":8011:8086   */\n      tag_410\n      jump\t// in\n    tag_416:\n        /* \"--CODEGEN--\":8108:8110   */\n      0x20\n        /* \"--CODEGEN--\":8103:8106   */\n      dup3\n        /* \"--CODEGEN--\":8099:8111   */\n      add\n        /* \"--CODEGEN--\":8092:8111   */\n      swap2\n      pop\n        /* \"--CODEGEN--\":8122:8197   */\n      tag_417\n        /* \"--CODEGEN--\":8193:8196   */\n      dup3\n        /* \"--CODEGEN--\":8184:8190   */\n      dup5\n        /* \"--CODEGEN--\":8122:8197   */\n      tag_410\n      jump\t// in\n    tag_417:\n        /* \"--CODEGEN--\":8219:8221   */\n      0x20\n        /* \"--CODEGEN--\":8214:8217   */\n      dup3\n        /* \"--CODEGEN--\":8210:8222   */\n      add\n        /* \"--CODEGEN--\":8203:8222   */\n      swap2\n      pop\n        /* \"--CODEGEN--\":8239:8242   */\n      dup2\n        /* \"--CODEGEN--\":8232:8242   */\n      swap1\n      pop\n        /* \"--CODEGEN--\":7999:8247   */\n      swap4\n      swap3\n      pop\n      pop\n      pop\n      jump\t// out\n        /* \"--CODEGEN--\":8254:8476   */\n    tag_89:\n      0x00\n        /* \"--CODEGEN--\":8381:8383   */\n      0x20\n        /* \"--CODEGEN--\":8370:8379   */\n      dup3\n        /* \"--CODEGEN--\":8366:8384   */\n      add\n        /* \"--CODEGEN--\":8358:8384   */\n      swap1\n      pop\n        /* \"--CODEGEN--\":8395:8466   */\n      tag_419\n        /* \"--CODEGEN--\":8463:8464   */\n      0x00\n        /* \"--CODEGEN--\":8452:8461   */\n      dup4\n        /* \"--CODEGEN--\":8448:8465   */\n      add\n        /* \"--CODEGEN--\":8439:8445   */\n      dup5\n        /* \"--CODEGEN--\":8395:8466   */\n      tag_344\n      jump\t// in\n    tag_419:\n        /* \"--CODEGEN--\":8352:8476   */\n      swap3\n      swap2\n      pop\n      pop\n      jump\t// out\n        /* \"--CODEGEN--\":8483:8798   */\n    tag_84:\n      0x00\n        /* \"--CODEGEN--\":8656:8659   */\n      0xc0\n        /* \"--CODEGEN--\":8645:8654   */\n      dup3\n        /* \"--CODEGEN--\":8641:8660   */\n      add\n        /* \"--CODEGEN--\":8633:8660   */\n      swap1\n      pop\n        /* \"--CODEGEN--\":8671:8788   */\n      tag_421\n        /* \"--CODEGEN--\":8785:8786   */\n      0x00\n        /* \"--CODEGEN--\":8774:8783   */\n      dup4\n        /* \"--CODEGEN--\":8770:8787   */\n      add\n        /* \"--CODEGEN--\":8761:8767   */\n      dup5\n        /* \"--CODEGEN--\":8671:8788   */\n      tag_348\n      jump\t// in\n    tag_421:\n        /* \"--CODEGEN--\":8627:8798   */\n      swap3\n      swap2\n      pop\n      pop\n      jump\t// out\n        /* \"--CODEGEN--\":8805:9175   */\n    tag_105:\n      0x00\n        /* \"--CODEGEN--\":8982:8984   */\n      0x20\n        /* \"--CODEGEN--\":8971:8980   */\n      dup3\n        /* \"--CODEGEN--\":8967:8985   */\n      add\n        /* \"--CODEGEN--\":8959:8985   */\n      swap1\n      pop\n        /* \"--CODEGEN--\":9032:9041   */\n      dup2\n        /* \"--CODEGEN--\":9026:9030   */\n      dup2\n        /* \"--CODEGEN--\":9022:9042   */\n      sub\n        /* \"--CODEGEN--\":9018:9019   */\n      0x00\n        /* \"--CODEGEN--\":9007:9016   */\n      dup4\n        /* \"--CODEGEN--\":9003:9020   */\n      add\n        /* \"--CODEGEN--\":8996:9043   */\n      mstore\n        /* \"--CODEGEN--\":9057:9165   */\n      tag_423\n        /* \"--CODEGEN--\":9160:9164   */\n      dup2\n        /* \"--CODEGEN--\":9151:9157   */\n      dup5\n        /* \"--CODEGEN--\":9057:9165   */\n      tag_362\n      jump\t// in\n    tag_423:\n        /* \"--CODEGEN--\":9049:9165   */\n      swap1\n      pop\n        /* \"--CODEGEN--\":8953:9175   */\n      swap3\n      swap2\n      pop\n      pop\n      jump\t// out\n        /* \"--CODEGEN--\":9182:9598   */\n    tag_180:\n      0x00\n        /* \"--CODEGEN--\":9382:9384   */\n      0x20\n        /* \"--CODEGEN--\":9371:9380   */\n      dup3\n        /* \"--CODEGEN--\":9367:9385   */\n      add\n        /* \"--CODEGEN--\":9359:9385   */\n      swap1\n      pop\n        /* \"--CODEGEN--\":9432:9441   */\n      dup2\n        /* \"--CODEGEN--\":9426:9430   */\n      dup2\n        /* \"--CODEGEN--\":9422:9442   */\n      sub\n        /* \"--CODEGEN--\":9418:9419   */\n      0x00\n        /* \"--CODEGEN--\":9407:9416   */\n      dup4\n        /* \"--CODEGEN--\":9403:9420   */\n      add\n        /* \"--CODEGEN--\":9396:9443   */\n      mstore\n        /* \"--CODEGEN--\":9457:9588   */\n      tag_425\n        /* \"--CODEGEN--\":9583:9587   */\n      dup2\n        /* \"--CODEGEN--\":9457:9588   */\n      tag_376\n      jump\t// in\n    tag_425:\n        /* \"--CODEGEN--\":9449:9588   */\n      swap1\n      pop\n        /* \"--CODEGEN--\":9353:9598   */\n      swap2\n      swap1\n      pop\n      jump\t// out\n        /* \"--CODEGEN--\":9605:10021   */\n    tag_186:\n      0x00\n        /* \"--CODEGEN--\":9805:9807   */\n      0x20\n        /* \"--CODEGEN--\":9794:9803   */\n      dup3\n        /* \"--CODEGEN--\":9790:9808   */\n      add\n        /* \"--CODEGEN--\":9782:9808   */\n      swap1\n      pop\n        /* \"--CODEGEN--\":9855:9864   */\n      dup2\n        /* \"--CODEGEN--\":9849:9853   */\n      dup2\n        /* \"--CODEGEN--\":9845:9865   */\n      sub\n        /* \"--CODEGEN--\":9841:9842   */\n      0x00\n        /* \"--CODEGEN--\":9830:9839   */\n      dup4\n        /* \"--CODEGEN--\":9826:9843   */\n      add\n        /* \"--CODEGEN--\":9819:9866   */\n      mstore\n        /* \"--CODEGEN--\":9880:10011   */\n      tag_427\n        /* \"--CODEGEN--\":10006:10010   */\n      dup2\n        /* \"--CODEGEN--\":9880:10011   */\n      tag_380\n      jump\t// in\n    tag_427:\n        /* \"--CODEGEN--\":9872:10011   */\n      swap1\n      pop\n        /* \"--CODEGEN--\":9776:10021   */\n      swap2\n      swap1\n      pop\n      jump\t// out\n        /* \"--CODEGEN--\":10028:10444   */\n    tag_124:\n      0x00\n        /* \"--CODEGEN--\":10228:10230   */\n      0x20\n        /* \"--CODEGEN--\":10217:10226   */\n      dup3\n        /* \"--CODEGEN--\":10213:10231   */\n      add\n        /* \"--CODEGEN--\":10205:10231   */\n      swap1\n      pop\n        /* \"--CODEGEN--\":10278:10287   */\n      dup2\n        /* \"--CODEGEN--\":10272:10276   */\n      dup2\n        /* \"--CODEGEN--\":10268:10288   */\n      sub\n        /* \"--CODEGEN--\":10264:10265   */\n      0x00\n        /* \"--CODEGEN--\":10253:10262   */\n      dup4\n        /* \"--CODEGEN--\":10249:10266   */\n      add\n        /* \"--CODEGEN--\":10242:10289   */\n      mstore\n        /* \"--CODEGEN--\":10303:10434   */\n      tag_429\n        /* \"--CODEGEN--\":10429:10433   */\n      dup2\n        /* \"--CODEGEN--\":10303:10434   */\n      tag_383\n      jump\t// in\n    tag_429:\n        /* \"--CODEGEN--\":10295:10434   */\n      swap1\n      pop\n        /* \"--CODEGEN--\":10199:10444   */\n      swap2\n      swap1\n      pop\n      jump\t// out\n        /* \"--CODEGEN--\":10451:10867   */\n    tag_201:\n      0x00\n        /* \"--CODEGEN--\":10651:10653   */\n      0x20\n        /* \"--CODEGEN--\":10640:10649   */\n      dup3\n        /* \"--CODEGEN--\":10636:10654   */\n      add\n        /* \"--CODEGEN--\":10628:10654   */\n      swap1\n      pop\n        /* \"--CODEGEN--\":10701:10710   */\n      dup2\n        /* \"--CODEGEN--\":10695:10699   */\n      dup2\n        /* \"--CODEGEN--\":10691:10711   */\n      sub\n        /* \"--CODEGEN--\":10687:10688   */\n      0x00\n        /* \"--CODEGEN--\":10676:10685   */\n      dup4\n        /* \"--CODEGEN--\":10672:10689   */\n      add\n        /* \"--CODEGEN--\":10665:10712   */\n      mstore\n        /* \"--CODEGEN--\":10726:10857   */\n      tag_431\n        /* \"--CODEGEN--\":10852:10856   */\n      dup2\n        /* \"--CODEGEN--\":10726:10857   */\n      tag_386\n      jump\t// in\n    tag_431:\n        /* \"--CODEGEN--\":10718:10857   */\n      swap1\n      pop\n        /* \"--CODEGEN--\":10622:10867   */\n      swap2\n      swap1\n      pop\n      jump\t// out\n        /* \"--CODEGEN--\":10874:11290   */\n    tag_164:\n      0x00\n        /* \"--CODEGEN--\":11074:11076   */\n      0x20\n        /* \"--CODEGEN--\":11063:11072   */\n      dup3\n        /* \"--CODEGEN--\":11059:11077   */\n      add\n        /* \"--CODEGEN--\":11051:11077   */\n      swap1\n      pop\n        /* \"--CODEGEN--\":11124:11133   */\n      dup2\n        /* \"--CODEGEN--\":11118:11122   */\n      dup2\n        /* \"--CODEGEN--\":11114:11134   */\n      sub\n        /* \"--CODEGEN--\":11110:11111   */\n      0x00\n        /* \"--CODEGEN--\":11099:11108   */\n      dup4\n        /* \"--CODEGEN--\":11095:11112   */\n      add\n        /* \"--CODEGEN--\":11088:11135   */\n      mstore\n        /* \"--CODEGEN--\":11149:11280   */\n      tag_433\n        /* \"--CODEGEN--\":11275:11279   */\n      dup2\n        /* \"--CODEGEN--\":11149:11280   */\n      tag_389\n      jump\t// in\n    tag_433:\n        /* \"--CODEGEN--\":11141:11280   */\n      swap1\n      pop\n        /* \"--CODEGEN--\":11045:11290   */\n      swap2\n      swap1\n      pop\n      jump\t// out\n        /* \"--CODEGEN--\":11297:11713   */\n    tag_109:\n      0x00\n        /* \"--CODEGEN--\":11497:11499   */\n      0x20\n        /* \"--CODEGEN--\":11486:11495   */\n      dup3\n        /* \"--CODEGEN--\":11482:11500   */\n      add\n        /* \"--CODEGEN--\":11474:11500   */\n      swap1\n      pop\n        /* \"--CODEGEN--\":11547:11556   */\n      dup2\n        /* \"--CODEGEN--\":11541:11545   */\n      dup2\n        /* \"--CODEGEN--\":11537:11557   */\n      sub\n        /* \"--CODEGEN--\":11533:11534   */\n      0x00\n        /* \"--CODEGEN--\":11522:11531   */\n      dup4\n        /* \"--CODEGEN--\":11518:11535   */\n      add\n        /* \"--CODEGEN--\":11511:11558   */\n      mstore\n        /* \"--CODEGEN--\":11572:11703   */\n      tag_435\n        /* \"--CODEGEN--\":11698:11702   */\n      dup2\n        /* \"--CODEGEN--\":11572:11703   */\n      tag_392\n      jump\t// in\n    tag_435:\n        /* \"--CODEGEN--\":11564:11703   */\n      swap1\n      pop\n        /* \"--CODEGEN--\":11468:11713   */\n      swap2\n      swap1\n      pop\n      jump\t// out\n        /* \"--CODEGEN--\":11720:12136   */\n    tag_224:\n      0x00\n        /* \"--CODEGEN--\":11920:11922   */\n      0x20\n        /* \"--CODEGEN--\":11909:11918   */\n      dup3\n        /* \"--CODEGEN--\":11905:11923   */\n      add\n        /* \"--CODEGEN--\":11897:11923   */\n      swap1\n      pop\n        /* \"--CODEGEN--\":11970:11979   */\n      dup2\n        /* \"--CODEGEN--\":11964:11968   */\n      dup2\n        /* \"--CODEGEN--\":11960:11980   */\n      sub\n        /* \"--CODEGEN--\":11956:11957   */\n      0x00\n        /* \"--CODEGEN--\":11945:11954   */\n      dup4\n        /* \"--CODEGEN--\":11941:11958   */\n      add\n        /* \"--CODEGEN--\":11934:11981   */\n      mstore\n        /* \"--CODEGEN--\":11995:12126   */\n      tag_437\n        /* \"--CODEGEN--\":12121:12125   */\n      dup2\n        /* \"--CODEGEN--\":11995:12126   */\n      tag_395\n      jump\t// in\n    tag_437:\n        /* \"--CODEGEN--\":11987:12126   */\n      swap1\n      pop\n        /* \"--CODEGEN--\":11891:12136   */\n      swap2\n      swap1\n      pop\n      jump\t// out\n        /* \"--CODEGEN--\":12143:12559   */\n    tag_177:\n      0x00\n        /* \"--CODEGEN--\":12343:12345   */\n      0x20\n        /* \"--CODEGEN--\":12332:12341   */\n      dup3\n        /* \"--CODEGEN--\":12328:12346   */\n      add\n        /* \"--CODEGEN--\":12320:12346   */\n      swap1\n      pop\n        /* \"--CODEGEN--\":12393:12402   */\n      dup2\n        /* \"--CODEGEN--\":12387:12391   */\n      dup2\n        /* \"--CODEGEN--\":12383:12403   */\n      sub\n        /* \"--CODEGEN--\":12379:12380   */\n      0x00\n        /* \"--CODEGEN--\":12368:12377   */\n      dup4\n        /* \"--CODEGEN--\":12364:12381   */\n      add\n        /* \"--CODEGEN--\":12357:12404   */\n      mstore\n        /* \"--CODEGEN--\":12418:12549   */\n      tag_439\n        /* \"--CODEGEN--\":12544:12548   */\n      dup2\n        /* \"--CODEGEN--\":12418:12549   */\n      tag_398\n      jump\t// in\n    tag_439:\n        /* \"--CODEGEN--\":12410:12549   */\n      swap1\n      pop\n        /* \"--CODEGEN--\":12314:12559   */\n      swap2\n      swap1\n      pop\n      jump\t// out\n        /* \"--CODEGEN--\":12566:12982   */\n    tag_112:\n      0x00\n        /* \"--CODEGEN--\":12766:12768   */\n      0x20\n        /* \"--CODEGEN--\":12755:12764   */\n      dup3\n        /* \"--CODEGEN--\":12751:12769   */\n      add\n        /* \"--CODEGEN--\":12743:12769   */\n      swap1\n      pop\n        /* \"--CODEGEN--\":12816:12825   */\n      dup2\n        /* \"--CODEGEN--\":12810:12814   */\n      dup2\n        /* \"--CODEGEN--\":12806:12826   */\n      sub\n        /* \"--CODEGEN--\":12802:12803   */\n      0x00\n        /* \"--CODEGEN--\":12791:12800   */\n      dup4\n        /* \"--CODEGEN--\":12787:12804   */\n      add\n        /* \"--CODEGEN--\":12780:12827   */\n      mstore\n        /* \"--CODEGEN--\":12841:12972   */\n      tag_441\n        /* \"--CODEGEN--\":12967:12971   */\n      dup2\n        /* \"--CODEGEN--\":12841:12972   */\n      tag_401\n      jump\t// in\n    tag_441:\n        /* \"--CODEGEN--\":12833:12972   */\n      swap1\n      pop\n        /* \"--CODEGEN--\":12737:12982   */\n      swap2\n      swap1\n      pop\n      jump\t// out\n        /* \"--CODEGEN--\":12989:13211   */\n    tag_33:\n      0x00\n        /* \"--CODEGEN--\":13116:13118   */\n      0x20\n        /* \"--CODEGEN--\":13105:13114   */\n      dup3\n        /* \"--CODEGEN--\":13101:13119   */\n      add\n        /* \"--CODEGEN--\":13093:13119   */\n      swap1\n      pop\n        /* \"--CODEGEN--\":13130:13201   */\n      tag_443\n        /* \"--CODEGEN--\":13198:13199   */\n      0x00\n        /* \"--CODEGEN--\":13187:13196   */\n      dup4\n        /* \"--CODEGEN--\":13183:13200   */\n      add\n        /* \"--CODEGEN--\":13174:13180   */\n      dup5\n        /* \"--CODEGEN--\":13130:13201   */\n      tag_407\n      jump\t// in\n    tag_443:\n        /* \"--CODEGEN--\":13087:13211   */\n      swap3\n      swap2\n      pop\n      pop\n      jump\t// out\n        /* \"--CODEGEN--\":13218:13474   */\n    tag_314:\n      0x00\n        /* \"--CODEGEN--\":13280:13282   */\n      0x40\n        /* \"--CODEGEN--\":13274:13283   */\n      mload\n        /* \"--CODEGEN--\":13264:13283   */\n      swap1\n      pop\n        /* \"--CODEGEN--\":13318:13322   */\n      dup2\n        /* \"--CODEGEN--\":13310:13316   */\n      dup2\n        /* \"--CODEGEN--\":13306:13323   */\n      add\n        /* \"--CODEGEN--\":13417:13423   */\n      dup2\n        /* \"--CODEGEN--\":13405:13415   */\n      dup2\n        /* \"--CODEGEN--\":13402:13424   */\n      lt\n        /* \"--CODEGEN--\":13381:13399   */\n      0xffffffffffffffff\n        /* \"--CODEGEN--\":13369:13379   */\n      dup3\n        /* \"--CODEGEN--\":13366:13400   */\n      gt\n        /* \"--CODEGEN--\":13363:13425   */\n      or\n        /* \"--CODEGEN--\":13360:13362   */\n      iszero\n      tag_445\n      jumpi\n        /* \"--CODEGEN--\":13438:13439   */\n      0x00\n        /* \"--CODEGEN--\":13435:13436   */\n      dup1\n        /* \"--CODEGEN--\":13428:13440   */\n      revert\n        /* \"--CODEGEN--\":13360:13362   */\n    tag_445:\n        /* \"--CODEGEN--\":13458:13468   */\n      dup1\n        /* \"--CODEGEN--\":13454:13456   */\n      0x40\n        /* \"--CODEGEN--\":13447:13469   */\n      mstore\n        /* \"--CODEGEN--\":13258:13474   */\n      pop\n      swap2\n      swap1\n      pop\n      jump\t// out\n        /* \"--CODEGEN--\":13481:13785   */\n    tag_313:\n      0x00\n        /* \"--CODEGEN--\":13640:13658   */\n      0xffffffffffffffff\n        /* \"--CODEGEN--\":13632:13638   */\n      dup3\n        /* \"--CODEGEN--\":13629:13659   */\n      gt\n        /* \"--CODEGEN--\":13626:13628   */\n      iszero\n      tag_447\n      jumpi\n        /* \"--CODEGEN--\":13672:13673   */\n      0x00\n        /* \"--CODEGEN--\":13669:13670   */\n      dup1\n        /* \"--CODEGEN--\":13662:13674   */\n      revert\n        /* \"--CODEGEN--\":13626:13628   */\n    tag_447:\n        /* \"--CODEGEN--\":13707:13711   */\n      0x20\n        /* \"--CODEGEN--\":13699:13705   */\n      dup3\n        /* \"--CODEGEN--\":13695:13712   */\n      mul\n        /* \"--CODEGEN--\":13687:13712   */\n      swap1\n      pop\n        /* \"--CODEGEN--\":13770:13774   */\n      0x20\n        /* \"--CODEGEN--\":13764:13768   */\n      dup2\n        /* \"--CODEGEN--\":13760:13775   */\n      add\n        /* \"--CODEGEN--\":13752:13775   */\n      swap1\n      pop\n        /* \"--CODEGEN--\":13563:13785   */\n      swap2\n      swap1\n      pop\n      jump\t// out\n        /* \"--CODEGEN--\":13792:13889   */\n    tag_355:\n      0x00\n        /* \"--CODEGEN--\":13876:13879   */\n      dup2\n        /* \"--CODEGEN--\":13868:13879   */\n      swap1\n      pop\n        /* \"--CODEGEN--\":13862:13889   */\n      swap2\n      swap1\n      pop\n      jump\t// out\n        /* \"--CODEGEN--\":13896:14047   */\n    tag_369:\n      0x00\n        /* \"--CODEGEN--\":13982:13985   */\n      dup2\n        /* \"--CODEGEN--\":13974:13985   */\n      swap1\n      pop\n        /* \"--CODEGEN--\":14020:14024   */\n      0x20\n        /* \"--CODEGEN--\":14015:14018   */\n      dup3\n        /* \"--CODEGEN--\":14011:14025   */\n      add\n        /* \"--CODEGEN--\":14003:14025   */\n      swap1\n      pop\n        /* \"--CODEGEN--\":13968:14047   */\n      swap2\n      swap1\n      pop\n      jump\t// out\n        /* \"--CODEGEN--\":14054:14162   */\n    tag_351:\n      0x00\n        /* \"--CODEGEN--\":14148:14152   */\n      0x06\n        /* \"--CODEGEN--\":14138:14152   */\n      swap1\n      pop\n        /* \"--CODEGEN--\":14126:14162   */\n      swap2\n      swap1\n      pop\n      jump\t// out\n        /* \"--CODEGEN--\":14169:14306   */\n    tag_365:\n      0x00\n        /* \"--CODEGEN--\":14278:14283   */\n      dup2\n        /* \"--CODEGEN--\":14272:14284   */\n      mload\n        /* \"--CODEGEN--\":14262:14284   */\n      swap1\n      pop\n        /* \"--CODEGEN--\":14243:14306   */\n      swap2\n      swap1\n      pop\n      jump\t// out\n        /* \"--CODEGEN--\":14313:14419   */\n    tag_361:\n      0x00\n        /* \"--CODEGEN--\":14409:14413   */\n      0x20\n        /* \"--CODEGEN--\":14404:14407   */\n      dup3\n        /* \"--CODEGEN--\":14400:14414   */\n      add\n        /* \"--CODEGEN--\":14392:14414   */\n      swap1\n      pop\n        /* \"--CODEGEN--\":14386:14419   */\n      swap2\n      swap1\n      pop\n      jump\t// out\n        /* \"--CODEGEN--\":14426:14534   */\n    tag_375:\n      0x00\n        /* \"--CODEGEN--\":14524:14528   */\n      0x20\n        /* \"--CODEGEN--\":14519:14522   */\n      dup3\n        /* \"--CODEGEN--\":14515:14529   */\n      add\n        /* \"--CODEGEN--\":14507:14529   */\n      swap1\n      pop\n        /* \"--CODEGEN--\":14501:14534   */\n      swap2\n      swap1\n      pop\n      jump\t// out\n        /* \"--CODEGEN--\":14542:14682   */\n    tag_353:\n      0x00\n        /* \"--CODEGEN--\":14673:14676   */\n      dup2\n        /* \"--CODEGEN--\":14658:14676   */\n      swap1\n      pop\n        /* \"--CODEGEN--\":14651:14682   */\n      swap3\n      swap2\n      pop\n      pop\n      jump\t// out\n        /* \"--CODEGEN--\":14691:14869   */\n    tag_367:\n      0x00\n        /* \"--CODEGEN--\":14821:14827   */\n      dup3\n        /* \"--CODEGEN--\":14816:14819   */\n      dup3\n        /* \"--CODEGEN--\":14809:14828   */\n      mstore\n        /* \"--CODEGEN--\":14858:14862   */\n      0x20\n        /* \"--CODEGEN--\":14853:14856   */\n      dup3\n        /* \"--CODEGEN--\":14849:14863   */\n      add\n        /* \"--CODEGEN--\":14834:14863   */\n      swap1\n      pop\n        /* \"--CODEGEN--\":14802:14869   */\n      swap3\n      swap2\n      pop\n      pop\n      jump\t// out\n        /* \"--CODEGEN--\":14878:15041   */\n    tag_379:\n      0x00\n        /* \"--CODEGEN--\":14993:14999   */\n      dup3\n        /* \"--CODEGEN--\":14988:14991   */\n      dup3\n        /* \"--CODEGEN--\":14981:15000   */\n      mstore\n        /* \"--CODEGEN--\":15030:15034   */\n      0x20\n        /* \"--CODEGEN--\":15025:15028   */\n      dup3\n        /* \"--CODEGEN--\":15021:15035   */\n      add\n        /* \"--CODEGEN--\":15006:15035   */\n      swap1\n      pop\n        /* \"--CODEGEN--\":14974:15041   */\n      swap3\n      swap2\n      pop\n      pop\n      jump\t// out\n        /* \"--CODEGEN--\":15049:15140   */\n    tag_347:\n      0x00\n        /* \"--CODEGEN--\":15111:15135   */\n      tag_458\n        /* \"--CODEGEN--\":15129:15134   */\n      dup3\n        /* \"--CODEGEN--\":15111:15135   */\n      tag_459\n      jump\t// in\n    tag_458:\n        /* \"--CODEGEN--\":15100:15135   */\n      swap1\n      pop\n        /* \"--CODEGEN--\":15094:15140   */\n      swap2\n      swap1\n      pop\n      jump\t// out\n        /* \"--CODEGEN--\":15147:15268   */\n    tag_459:\n      0x00\n        /* \"--CODEGEN--\":15220:15262   */\n      0xffffffffffffffffffffffffffffffffffffffff\n        /* \"--CODEGEN--\":15213:15218   */\n      dup3\n        /* \"--CODEGEN--\":15209:15263   */\n      and\n        /* \"--CODEGEN--\":15198:15263   */\n      swap1\n      pop\n        /* \"--CODEGEN--\":15192:15268   */\n      swap2\n      swap1\n      pop\n      jump\t// out\n        /* \"--CODEGEN--\":15275:15347   */\n    tag_406:\n      0x00\n        /* \"--CODEGEN--\":15337:15342   */\n      dup2\n        /* \"--CODEGEN--\":15326:15342   */\n      swap1\n      pop\n        /* \"--CODEGEN--\":15320:15347   */\n      swap2\n      swap1\n      pop\n      jump\t// out\n        /* \"--CODEGEN--\":15354:15428   */\n    tag_414:\n      0x00\n        /* \"--CODEGEN--\":15418:15423   */\n      dup2\n        /* \"--CODEGEN--\":15407:15423   */\n      swap1\n      pop\n        /* \"--CODEGEN--\":15401:15428   */\n      swap2\n      swap1\n      pop\n      jump\t// out\n        /* \"--CODEGEN--\":15435:15552   */\n    tag_307:\n        /* \"--CODEGEN--\":15504:15528   */\n      tag_464\n        /* \"--CODEGEN--\":15522:15527   */\n      dup2\n        /* \"--CODEGEN--\":15504:15528   */\n      tag_347\n      jump\t// in\n    tag_464:\n        /* \"--CODEGEN--\":15497:15502   */\n      dup2\n        /* \"--CODEGEN--\":15494:15529   */\n      eq\n        /* \"--CODEGEN--\":15484:15486   */\n      tag_465\n      jumpi\n        /* \"--CODEGEN--\":15543:15544   */\n      0x00\n        /* \"--CODEGEN--\":15540:15541   */\n      dup1\n        /* \"--CODEGEN--\":15533:15545   */\n      revert\n        /* \"--CODEGEN--\":15484:15486   */\n    tag_465:\n        /* \"--CODEGEN--\":15478:15552   */\n      pop\n      jump\t// out\n        /* \"--CODEGEN--\":15559:15676   */\n    tag_323:\n        /* \"--CODEGEN--\":15628:15652   */\n      tag_467\n        /* \"--CODEGEN--\":15646:15651   */\n      dup2\n        /* \"--CODEGEN--\":15628:15652   */\n      tag_406\n      jump\t// in\n    tag_467:\n        /* \"--CODEGEN--\":15621:15626   */\n      dup2\n        /* \"--CODEGEN--\":15618:15653   */\n      eq\n        /* \"--CODEGEN--\":15608:15610   */\n      tag_468\n      jumpi\n        /* \"--CODEGEN--\":15667:15668   */\n      0x00\n        /* \"--CODEGEN--\":15664:15665   */\n      dup1\n        /* \"--CODEGEN--\":15657:15669   */\n      revert\n        /* \"--CODEGEN--\":15608:15610   */\n    tag_468:\n        /* \"--CODEGEN--\":15602:15676   */\n      pop\n      jump\t// out\n\n    auxdata: 0xa264697066735822122007fe0105fd5780574e5e88253197fbf4ff19f51d458945fca800735a1d16fa3764736f6c634300060c0033\n}\n",
				"bytecode": {
					"linkReferences": {},
					"object": "608060405234801561001057600080fd5b50336000806101000a81548173ffffffffffffffffffffffffffffffffffffffff021916908373ffffffffffffffffffffffffffffffffffffffff160217905550674563918244f400006001819055506801158e460913d00000600681905550611f578061007f6000396000f3fe6080604052600436106101145760003560e01c80636c0d87fe116100a05780638da5cb5b116100645780638da5cb5b1461035a5780638e7e9a3c14610385578063a54b2a731461039c578063a7caba25146103c7578063ab3eb60e146103de57610114565b80636c0d87fe146102ba578063716cac96146102e5578063749aa2d9146103015780637ce52eb61461031857806384350e1d1461032f57610114565b80632869f35a116100e75780632869f35a146101e7578063398ab9a714610210578063486a7e6b1461023b5780634e45f0951461026657806355e3f086146102a357610114565b80631004b18d146101195780631209b1f6146101425780631b6462591461016d5780632115f4d1146101aa575b600080fd5b34801561012557600080fd5b50610140600480360381019061013b9190611793565b61041b565b005b34801561014e57600080fd5b50610157610507565b6040516101649190611dc6565b60405180910390f35b34801561017957600080fd5b50610194600480360381019061018f91906117fd565b61050d565b6040516101a19190611dc6565b60405180910390f35b3480156101b657600080fd5b506101d160048036038101906101cc9190611744565b61053b565b6040516101de9190611dc6565b60405180910390f35b3480156101f357600080fd5b5061020e60048036038101906102099190611793565b61057f565b005b34801561021c57600080fd5b506102256108ad565b6040516102329190611dc6565b60405180910390f35b34801561024757600080fd5b506102506108b3565b60405161025d9190611dc6565b60405180910390f35b34801561027257600080fd5b5061028d600480360381019061028891906117d4565b6108b9565b60405161029a9190611dc6565b60405180910390f35b3480156102af57600080fd5b506102b86108da565b005b3480156102c657600080fd5b506102cf610a3f565b6040516102dc9190611dc6565b60405180910390f35b6102ff60048036038101906102fa9190611793565b610a89565b005b34801561030d57600080fd5b50610316610b8d565b005b34801561032457600080fd5b5061032d610cfb565b005b34801561033b57600080fd5b50610344610e4e565b6040516103519190611c69565b60405180910390f35b34801561036657600080fd5b5061036f610eac565b60405161037c9190611c4e565b60405180910390f35b34801561039157600080fd5b5061039a610ed0565b005b3480156103a857600080fd5b506103b161144b565b6040516103be9190611dc6565b60405180910390f35b3480156103d357600080fd5b506103dc611451565b005b3480156103ea57600080fd5b50610405600480360381019061040091906117d4565b61155f565b6040516104129190611c84565b60405180910390f35b60008054906101000a900473ffffffffffffffffffffffffffffffffffffffff1673ffffffffffffffffffffffffffffffffffffffff163373ffffffffffffffffffffffffffffffffffffffff16146104a9576040517f08c379a00000000000000000000000000000000000000000000000000000000081526004016104a090611d46565b60405180910390fd5b60068151146104ed576040517f08c379a00000000000000000000000000000000000000000000000000000000081526004016104e490611da6565b60405180910390fd5b806003908051906020019061050392919061160b565b5050565b60015481565b6004602052816000526040600020818154811061052657fe5b90600052602060002001600091509150505481565b6002602052826000526040600020828154811061055457fe5b90600052602060002001818154811061056957fe5b9060005260206000200160009250925050505481565b6000600260003373ffffffffffffffffffffffffffffffffffffffff1673ffffffffffffffffffffffffffffffffffffffff1681526020019081526020016000208054905011610604576040517f08c379a00000000000000000000000000000000000000000000000000000000081526004016105fb90611ce6565b60405180910390fd5b6000805b6006811015610659576003818154811061061e57fe5b906000526020600020015483828151811061063557fe5b6020026020010151141561064c5781806001019250505b8080600101915050610608565b5060018114156106a757671bc16d674ec800006004600080815260200190815260200160002060018154811061068b57fe5b9060005260206000200160008282540192505081905550610830565b60028114156106f5576729a2241af62c000060046000600181526020019081526020016000206001815481106106d957fe5b906000526020600020016000828254019250508190555061082f565b600381141561074357674563918244f40000600460006002815260200190815260200160002060018154811061072757fe5b906000526020600020016000828254019250508190555061082e565b600481141561079157678ac7230489e80000600460006003815260200190815260200160002060018154811061077557fe5b906000526020600020016000828254019250508190555061082d565b60058114156107e0576801158e460913d0000060046000600481526020019081526020016000206001815481106107c457fe5b906000526020600020016000828254019250508190555061082c565b600681141561082b5768022b1c8c1227a00000600460006005815260200190815260200160002060018154811061081357fe5b90600052602060002001600082825401925050819055505b5b5b5b5b5b60006004600060018403815260200190815260200160002060018154811061085457fe5b906000526020600020015490503373ffffffffffffffffffffffffffffffffffffffff166108fc829081150290604051600060405180830381858888f193505050501580156108a7573d6000803e3d6000fd5b50505050565b60055481565b60075481565b600381815481106108c657fe5b906000526020600020016000915090505481565b60008054906101000a900473ffffffffffffffffffffffffffffffffffffffff1673ffffffffffffffffffffffffffffffffffffffff163373ffffffffffffffffffffffffffffffffffffffff1614610968576040517f08c379a000000000000000000000000000000000000000000000000000000000815260040161095f90611d26565b60405180910390fd5b6000600581905550600060078190555060005b6006811015610a3c576060600267ffffffffffffffff8111801561099e57600080fd5b506040519080825280602002602001820160405280156109cd5781602001602082028036833780820191505090505b5090506000816000815181106109df57fe5b6020026020010181815250506000816001815181106109fa57fe5b60200260200101818152505080600460008481526020019081526020016000209080519060200190610a2d92919061160b565b5050808060010191505061097b565b50565b6000600260003373ffffffffffffffffffffffffffffffffffffffff1673ffffffffffffffffffffffffffffffffffffffff16815260200190815260200160002080549050905090565b6001543414610acd576040517f08c379a0000000000000000000000000000000000000000000000000000000008152600401610ac490611d86565b60405180910390fd5b6006815114610b11576040517f08c379a0000000000000000000000000000000000000000000000000000000008152600401610b0890611ca6565b60405180910390fd5b600260003373ffffffffffffffffffffffffffffffffffffffff1673ffffffffffffffffffffffffffffffffffffffff16815260200190815260200160002081908060018154018082558091505060019003906000526020600020016000909190919091509080519060200190610b8992919061160b565b5050565b60008054906101000a900473ffffffffffffffffffffffffffffffffffffffff1673ffffffffffffffffffffffffffffffffffffffff163373ffffffffffffffffffffffffffffffffffffffff1614610c1b576040517f08c379a0000000000000000000000000000000000000000000000000000000008152600401610c1290611cc6565b60405180910390fd5b600060075460055401905060005b6006811015610ce15760008260055481610c3f57fe5b0460046000848152602001908152602001600020600181548110610c5f57fe5b9060005260206000200154029050600060046000848152602001908152602001600020600181548110610c8e57fe5b90600052602060002001819055508060046000848152602001908152602001600020600081548110610cbc57fe5b9060005260206000200160008282540192505081905550508080600101915050610c29565b508060055481610ced57fe5b046006540260078190555050565b60008054906101000a900473ffffffffffffffffffffffffffffffffffffffff1673ffffffffffffffffffffffffffffffffffffffff163373ffffffffffffffffffffffffffffffffffffffff1614610d89576040517f08c379a0000000000000000000000000000000000000000000000000000000008152600401610d8090611d06565b60405180910390fd5b60005b6006811015610e4357600060046000838152602001908152602001600020600181548110610db657fe5b906000526020600020015460046000848152602001908152602001600020600081548110610de057fe5b90600052602060002001540190503373ffffffffffffffffffffffffffffffffffffffff166108fc829081150290604051600060405180830381858888f19350505050158015610e34573d6000803e3d6000fd5b50508080600101915050610d8c565b506000600781905550565b610e56611658565b610e5e611658565b60005b6006811015610ea45760038181548110610e7757fe5b9060005260206000200154828260068110610e8e57fe5b6020020181815250508080600101915050610e61565b508091505090565b60008054906101000a900473ffffffffffffffffffffffffffffffffffffffff1681565b6000600581905550600060078190555060008054906101000a900473ffffffffffffffffffffffffffffffffffffffff1673ffffffffffffffffffffffffffffffffffffffff163373ffffffffffffffffffffffffffffffffffffffff1614610f6e576040517f08c379a0000000000000000000000000000000000000000000000000000000008152600401610f6590611d66565b60405180910390fd5b60005b600260003373ffffffffffffffffffffffffffffffffffffffff1673ffffffffffffffffffffffffffffffffffffffff168152602001908152602001600020805490508110156113bc576060600260003373ffffffffffffffffffffffffffffffffffffffff1673ffffffffffffffffffffffffffffffffffffffff168152602001908152602001600020828154811061100757fe5b9060005260206000200180548060200260200160405190810160405280929190818152602001828054801561105b57602002820191906000526020600020905b815481526020019060010190808311611047575b505050505090506000805b60068110156110b7576003818154811061107c57fe5b906000526020600020015483828151811061109357fe5b602002602001015114156110aa5781806001019250505b8080600101915050611066565b506001811415611134576000600460008081526020019081526020016000206000815481106110e257fe5b9060005260206000200181905550671bc16d674ec800006004600080815260200190815260200160002060008154811061111857fe5b90600052602060002001600082825401925050819055506113ad565b60028114156111b2576000600460006001815260200190815260200160002060008154811061115f57fe5b90600052602060002001819055506729a2241af62c0000600460006001815260200190815260200160002060008154811061119657fe5b90600052602060002001600082825401925050819055506113ac565b600381141561123057600060046000600281526020019081526020016000206000815481106111dd57fe5b9060005260206000200181905550674563918244f40000600460006002815260200190815260200160002060008154811061121457fe5b90600052602060002001600082825401925050819055506113ab565b60048114156112ae576000600460006003815260200190815260200160002060008154811061125b57fe5b9060005260206000200181905550678ac7230489e80000600460006003815260200190815260200160002060008154811061129257fe5b90600052602060002001600082825401925050819055506113aa565b600581141561132d57600060046000600481526020019081526020016000206000815481106112d957fe5b90600052602060002001819055506801158e460913d00000600460006004815260200190815260200160002060008154811061131157fe5b90600052602060002001600082825401925050819055506113a9565b60068114156113a8576000600460006005815260200190815260200160002060008154811061135857fe5b906000526020600020018190555068022b1c8c1227a00000600460006005815260200190815260200160002060008154811061139057fe5b90600052602060002001600082825401925050819055505b5b5b5b5b5b50508080600101915050610f71565b5060005b600681101561144857600460008281526020019081526020016000206000815481106113e857fe5b90600052602060002001546005600082825401925050819055506004600082815260200190815260200160002060018154811061142157fe5b906000526020600020015460076000828254019250508190555080806001019150506113c0565b50565b60065481565b60008054906101000a900473ffffffffffffffffffffffffffffffffffffffff1673ffffffffffffffffffffffffffffffffffffffff163373ffffffffffffffffffffffffffffffffffffffff16146114df576040517f08c379a00000000000000000000000000000000000000000000000000000000081526004016114d690611d46565b60405180910390fd5b60005b600681101561155c576000600a4283604051602001611502929190611c22565b6040516020818303038152906040528051906020012060001c8161152257fe5b06905060038190806001815401808255809150506001900390600052602060002001600090919091909150555080806001019150506114e2565b50565b6060600260003373ffffffffffffffffffffffffffffffffffffffff1673ffffffffffffffffffffffffffffffffffffffff16815260200190815260200160002082815481106115ab57fe5b906000526020600020018054806020026020016040519081016040528092919081815260200182805480156115ff57602002820191906000526020600020905b8154815260200190600101908083116115eb575b50505050509050919050565b828054828255906000526020600020908101928215611647579160200282015b8281111561164657825182559160200191906001019061162b565b5b509050611654919061167a565b5090565b6040518060c00160405280600690602082028036833780820191505090505090565b5b8082111561169357600081600090555060010161167b565b5090565b6000813590506116a681611ef3565b92915050565b600082601f8301126116bd57600080fd5b81356116d06116cb82611e0e565b611de1565b915081818352602084019350602081019050838560208402820111156116f557600080fd5b60005b83811015611725578161170b888261172f565b8452602084019350602083019250506001810190506116f8565b5050505092915050565b60008135905061173e81611f0a565b92915050565b60008060006060848603121561175957600080fd5b600061176786828701611697565b93505060206117788682870161172f565b92505060406117898682870161172f565b9150509250925092565b6000602082840312156117a557600080fd5b600082013567ffffffffffffffff8111156117bf57600080fd5b6117cb848285016116ac565b91505092915050565b6000602082840312156117e657600080fd5b60006117f48482850161172f565b91505092915050565b6000806040838503121561181057600080fd5b600061181e8582860161172f565b925050602061182f8582860161172f565b9150509250929050565b60006118458383611bed565b60208301905092915050565b61185a81611ead565b82525050565b61186981611e50565b6118738184611e80565b925061187e82611e36565b8060005b838110156118af5781516118968782611839565b96506118a183611e66565b925050600181019050611882565b505050505050565b60006118c282611e5b565b6118cc8185611e8b565b93506118d783611e40565b8060005b838110156119085781516118ef8882611839565b97506118fa83611e73565b9250506001810190506118db565b5085935050505092915050565b6000611922601983611e9c565b91507f5469636b6574206d7573742068617665203620646967697473000000000000006000830152602082019050919050565b6000611962602083611e9c565b91507f4f6e6c7920746865206f776e65722063616e20656e642074686520726f756e646000830152602082019050919050565b60006119a2601a83611e9c565b91507f596f7520646f6e2774206861766520616e79207469636b6574730000000000006000830152602082019050919050565b60006119e2602483611e9c565b91507f4f6e6c7920746865206f776e65722063616e206469737472696275746520707260008301527f697a6573000000000000000000000000000000000000000000000000000000006020830152604082019050919050565b6000611a48602083611e9c565b91507f4f6e6c7920746865206f776e65722063616e207374617274206120726f756e646000830152602082019050919050565b6000611a88602a83611e9c565b91507f4f6e6c7920746865206f776e65722063616e20736574207468652077696e6e6960008301527f6e67206e756d62657273000000000000000000000000000000000000000000006020830152604082019050919050565b6000611aee602383611e9c565b91507f4f6e6c7920746865206f776e65722063616e2063616c63756c6174652070726960008301527f7a657300000000000000000000000000000000000000000000000000000000006020830152604082019050919050565b6000611b54602883611e9c565b91507f596f75206e65656420746f207061792074686520636f7272656374207469636b60008301527f65742070726963650000000000000000000000000000000000000000000000006020830152604082019050919050565b6000611bba601683611e9c565b91507f4d7573742070726f766964652036206e756d62657273000000000000000000006000830152602082019050919050565b611bf681611edf565b82525050565b611c0581611edf565b82525050565b611c1c611c1782611edf565b611ee9565b82525050565b6000611c2e8285611c0b565b602082019150611c3e8284611c0b565b6020820191508190509392505050565b6000602082019050611c636000830184611851565b92915050565b600060c082019050611c7e6000830184611860565b92915050565b60006020820190508181036000830152611c9e81846118b7565b905092915050565b60006020820190508181036000830152611cbf81611915565b9050919050565b60006020820190508181036000830152611cdf81611955565b9050919050565b60006020820190508181036000830152611cff81611995565b9050919050565b60006020820190508181036000830152611d1f816119d5565b9050919050565b60006020820190508181036000830152611d3f81611a3b565b9050919050565b60006020820190508181036000830152611d5f81611a7b565b9050919050565b60006020820190508181036000830152611d7f81611ae1565b9050919050565b60006020820190508181036000830152611d9f81611b47565b9050919050565b60006020820190508181036000830152611dbf81611bad565b9050919050565b6000602082019050611ddb6000830184611bfc565b92915050565b6000604051905081810181811067ffffffffffffffff82111715611e0457600080fd5b8060405250919050565b600067ffffffffffffffff821115611e2557600080fd5b602082029050602081019050919050565b6000819050919050565b6000819050602082019050919050565b600060069050919050565b600081519050919050565b6000602082019050919050565b6000602082019050919050565b600081905092915050565b600082825260208201905092915050565b600082825260208201905092915050565b6000611eb882611ebf565b9050919050565b600073ffffffffffffffffffffffffffffffffffffffff82169050919050565b6000819050919050565b6000819050919050565b611efc81611ead565b8114611f0757600080fd5b50565b611f1381611edf565b8114611f1e57600080fd5b5056fea264697066735822122007fe0105fd5780574e5e88253197fbf4ff19f51d458945fca800735a1d16fa3764736f6c634300060c0033",
					"opcodes": "PUSH1 0x80 PUSH1 0x40 MSTORE CALLVALUE DUP1 ISZERO PUSH2 0x10 JUMPI PUSH1 0x0 DUP1 REVERT JUMPDEST POP CALLER PUSH1 0x0 DUP1 PUSH2 0x100 EXP DUP2 SLOAD DUP2 PUSH20 0xFFFFFFFFFFFFFFFFFFFFFFFFFFFFFFFFFFFFFFFF MUL NOT AND SWAP1 DUP4 PUSH20 0xFFFFFFFFFFFFFFFFFFFFFFFFFFFFFFFFFFFFFFFF AND MUL OR SWAP1 SSTORE POP PUSH8 0x4563918244F40000 PUSH1 0x1 DUP2 SWAP1 SSTORE POP PUSH9 0x1158E460913D00000 PUSH1 0x6 DUP2 SWAP1 SSTORE POP PUSH2 0x1F57 DUP1 PUSH2 0x7F PUSH1 0x0 CODECOPY PUSH1 0x0 RETURN INVALID PUSH1 0x80 PUSH1 0x40 MSTORE PUSH1 0x4 CALLDATASIZE LT PUSH2 0x114 JUMPI PUSH1 0x0 CALLDATALOAD PUSH1 0xE0 SHR DUP1 PUSH4 0x6C0D87FE GT PUSH2 0xA0 JUMPI DUP1 PUSH4 0x8DA5CB5B GT PUSH2 0x64 JUMPI DUP1 PUSH4 0x8DA5CB5B EQ PUSH2 0x35A JUMPI DUP1 PUSH4 0x8E7E9A3C EQ PUSH2 0x385 JUMPI DUP1 PUSH4 0xA54B2A73 EQ PUSH2 0x39C JUMPI DUP1 PUSH4 0xA7CABA25 EQ PUSH2 0x3C7 JUMPI DUP1 PUSH4 0xAB3EB60E EQ PUSH2 0x3DE JUMPI PUSH2 0x114 JUMP JUMPDEST DUP1 PUSH4 0x6C0D87FE EQ PUSH2 0x2BA JUMPI DUP1 PUSH4 0x716CAC96 EQ PUSH2 0x2E5 JUMPI DUP1 PUSH4 0x749AA2D9 EQ PUSH2 0x301 JUMPI DUP1 PUSH4 0x7CE52EB6 EQ PUSH2 0x318 JUMPI DUP1 PUSH4 0x84350E1D EQ PUSH2 0x32F JUMPI PUSH2 0x114 JUMP JUMPDEST DUP1 PUSH4 0x2869F35A GT PUSH2 0xE7 JUMPI DUP1 PUSH4 0x2869F35A EQ PUSH2 0x1E7 JUMPI DUP1 PUSH4 0x398AB9A7 EQ PUSH2 0x210 JUMPI DUP1 PUSH4 0x486A7E6B EQ PUSH2 0x23B JUMPI DUP1 PUSH4 0x4E45F095 EQ PUSH2 0x266 JUMPI DUP1 PUSH4 0x55E3F086 EQ PUSH2 0x2A3 JUMPI PUSH2 0x114 JUMP JUMPDEST DUP1 PUSH4 0x1004B18D EQ PUSH2 0x119 JUMPI DUP1 PUSH4 0x1209B1F6 EQ PUSH2 0x142 JUMPI DUP1 PUSH4 0x1B646259 EQ PUSH2 0x16D JUMPI DUP1 PUSH4 0x2115F4D1 EQ PUSH2 0x1AA JUMPI JUMPDEST PUSH1 0x0 DUP1 REVERT JUMPDEST CALLVALUE DUP1 ISZERO PUSH2 0x125 JUMPI PUSH1 0x0 DUP1 REVERT JUMPDEST POP PUSH2 0x140 PUSH1 0x4 DUP1 CALLDATASIZE SUB DUP2 ADD SWAP1 PUSH2 0x13B SWAP2 SWAP1 PUSH2 0x1793 JUMP JUMPDEST PUSH2 0x41B JUMP JUMPDEST STOP JUMPDEST CALLVALUE DUP1 ISZERO PUSH2 0x14E JUMPI PUSH1 0x0 DUP1 REVERT JUMPDEST POP PUSH2 0x157 PUSH2 0x507 JUMP JUMPDEST PUSH1 0x40 MLOAD PUSH2 0x164 SWAP2 SWAP1 PUSH2 0x1DC6 JUMP JUMPDEST PUSH1 0x40 MLOAD DUP1 SWAP2 SUB SWAP1 RETURN JUMPDEST CALLVALUE DUP1 ISZERO PUSH2 0x179 JUMPI PUSH1 0x0 DUP1 REVERT JUMPDEST POP PUSH2 0x194 PUSH1 0x4 DUP1 CALLDATASIZE SUB DUP2 ADD SWAP1 PUSH2 0x18F SWAP2 SWAP1 PUSH2 0x17FD JUMP JUMPDEST PUSH2 0x50D JUMP JUMPDEST PUSH1 0x40 MLOAD PUSH2 0x1A1 SWAP2 SWAP1 PUSH2 0x1DC6 JUMP JUMPDEST PUSH1 0x40 MLOAD DUP1 SWAP2 SUB SWAP1 RETURN JUMPDEST CALLVALUE DUP1 ISZERO PUSH2 0x1B6 JUMPI PUSH1 0x0 DUP1 REVERT JUMPDEST POP PUSH2 0x1D1 PUSH1 0x4 DUP1 CALLDATASIZE SUB DUP2 ADD SWAP1 PUSH2 0x1CC SWAP2 SWAP1 PUSH2 0x1744 JUMP JUMPDEST PUSH2 0x53B JUMP JUMPDEST PUSH1 0x40 MLOAD PUSH2 0x1DE SWAP2 SWAP1 PUSH2 0x1DC6 JUMP JUMPDEST PUSH1 0x40 MLOAD DUP1 SWAP2 SUB SWAP1 RETURN JUMPDEST CALLVALUE DUP1 ISZERO PUSH2 0x1F3 JUMPI PUSH1 0x0 DUP1 REVERT JUMPDEST POP PUSH2 0x20E PUSH1 0x4 DUP1 CALLDATASIZE SUB DUP2 ADD SWAP1 PUSH2 0x209 SWAP2 SWAP1 PUSH2 0x1793 JUMP JUMPDEST PUSH2 0x57F JUMP JUMPDEST STOP JUMPDEST CALLVALUE DUP1 ISZERO PUSH2 0x21C JUMPI PUSH1 0x0 DUP1 REVERT JUMPDEST POP PUSH2 0x225 PUSH2 0x8AD JUMP JUMPDEST PUSH1 0x40 MLOAD PUSH2 0x232 SWAP2 SWAP1 PUSH2 0x1DC6 JUMP JUMPDEST PUSH1 0x40 MLOAD DUP1 SWAP2 SUB SWAP1 RETURN JUMPDEST CALLVALUE DUP1 ISZERO PUSH2 0x247 JUMPI PUSH1 0x0 DUP1 REVERT JUMPDEST POP PUSH2 0x250 PUSH2 0x8B3 JUMP JUMPDEST PUSH1 0x40 MLOAD PUSH2 0x25D SWAP2 SWAP1 PUSH2 0x1DC6 JUMP JUMPDEST PUSH1 0x40 MLOAD DUP1 SWAP2 SUB SWAP1 RETURN JUMPDEST CALLVALUE DUP1 ISZERO PUSH2 0x272 JUMPI PUSH1 0x0 DUP1 REVERT JUMPDEST POP PUSH2 0x28D PUSH1 0x4 DUP1 CALLDATASIZE SUB DUP2 ADD SWAP1 PUSH2 0x288 SWAP2 SWAP1 PUSH2 0x17D4 JUMP JUMPDEST PUSH2 0x8B9 JUMP JUMPDEST PUSH1 0x40 MLOAD PUSH2 0x29A SWAP2 SWAP1 PUSH2 0x1DC6 JUMP JUMPDEST PUSH1 0x40 MLOAD DUP1 SWAP2 SUB SWAP1 RETURN JUMPDEST CALLVALUE DUP1 ISZERO PUSH2 0x2AF JUMPI PUSH1 0x0 DUP1 REVERT JUMPDEST POP PUSH2 0x2B8 PUSH2 0x8DA JUMP JUMPDEST STOP JUMPDEST CALLVALUE DUP1 ISZERO PUSH2 0x2C6 JUMPI PUSH1 0x0 DUP1 REVERT JUMPDEST POP PUSH2 0x2CF PUSH2 0xA3F JUMP JUMPDEST PUSH1 0x40 MLOAD PUSH2 0x2DC SWAP2 SWAP1 PUSH2 0x1DC6 JUMP JUMPDEST PUSH1 0x40 MLOAD DUP1 SWAP2 SUB SWAP1 RETURN JUMPDEST PUSH2 0x2FF PUSH1 0x4 DUP1 CALLDATASIZE SUB DUP2 ADD SWAP1 PUSH2 0x2FA SWAP2 SWAP1 PUSH2 0x1793 JUMP JUMPDEST PUSH2 0xA89 JUMP JUMPDEST STOP JUMPDEST CALLVALUE DUP1 ISZERO PUSH2 0x30D JUMPI PUSH1 0x0 DUP1 REVERT JUMPDEST POP PUSH2 0x316 PUSH2 0xB8D JUMP JUMPDEST STOP JUMPDEST CALLVALUE DUP1 ISZERO PUSH2 0x324 JUMPI PUSH1 0x0 DUP1 REVERT JUMPDEST POP PUSH2 0x32D PUSH2 0xCFB JUMP JUMPDEST STOP JUMPDEST CALLVALUE DUP1 ISZERO PUSH2 0x33B JUMPI PUSH1 0x0 DUP1 REVERT JUMPDEST POP PUSH2 0x344 PUSH2 0xE4E JUMP JUMPDEST PUSH1 0x40 MLOAD PUSH2 0x351 SWAP2 SWAP1 PUSH2 0x1C69 JUMP JUMPDEST PUSH1 0x40 MLOAD DUP1 SWAP2 SUB SWAP1 RETURN JUMPDEST CALLVALUE DUP1 ISZERO PUSH2 0x366 JUMPI PUSH1 0x0 DUP1 REVERT JUMPDEST POP PUSH2 0x36F PUSH2 0xEAC JUMP JUMPDEST PUSH1 0x40 MLOAD PUSH2 0x37C SWAP2 SWAP1 PUSH2 0x1C4E JUMP JUMPDEST PUSH1 0x40 MLOAD DUP1 SWAP2 SUB SWAP1 RETURN JUMPDEST CALLVALUE DUP1 ISZERO PUSH2 0x391 JUMPI PUSH1 0x0 DUP1 REVERT JUMPDEST POP PUSH2 0x39A PUSH2 0xED0 JUMP JUMPDEST STOP JUMPDEST CALLVALUE DUP1 ISZERO PUSH2 0x3A8 JUMPI PUSH1 0x0 DUP1 REVERT JUMPDEST POP PUSH2 0x3B1 PUSH2 0x144B JUMP JUMPDEST PUSH1 0x40 MLOAD PUSH2 0x3BE SWAP2 SWAP1 PUSH2 0x1DC6 JUMP JUMPDEST PUSH1 0x40 MLOAD DUP1 SWAP2 SUB SWAP1 RETURN JUMPDEST CALLVALUE DUP1 ISZERO PUSH2 0x3D3 JUMPI PUSH1 0x0 DUP1 REVERT JUMPDEST POP PUSH2 0x3DC PUSH2 0x1451 JUMP JUMPDEST STOP JUMPDEST CALLVALUE DUP1 ISZERO PUSH2 0x3EA JUMPI PUSH1 0x0 DUP1 REVERT JUMPDEST POP PUSH2 0x405 PUSH1 0x4 DUP1 CALLDATASIZE SUB DUP2 ADD SWAP1 PUSH2 0x400 SWAP2 SWAP1 PUSH2 0x17D4 JUMP JUMPDEST PUSH2 0x155F JUMP JUMPDEST PUSH1 0x40 MLOAD PUSH2 0x412 SWAP2 SWAP1 PUSH2 0x1C84 JUMP JUMPDEST PUSH1 0x40 MLOAD DUP1 SWAP2 SUB SWAP1 RETURN JUMPDEST PUSH1 0x0 DUP1 SLOAD SWAP1 PUSH2 0x100 EXP SWAP1 DIV PUSH20 0xFFFFFFFFFFFFFFFFFFFFFFFFFFFFFFFFFFFFFFFF AND PUSH20 0xFFFFFFFFFFFFFFFFFFFFFFFFFFFFFFFFFFFFFFFF AND CALLER PUSH20 0xFFFFFFFFFFFFFFFFFFFFFFFFFFFFFFFFFFFFFFFF AND EQ PUSH2 0x4A9 JUMPI PUSH1 0x40 MLOAD PUSH32 0x8C379A000000000000000000000000000000000000000000000000000000000 DUP2 MSTORE PUSH1 0x4 ADD PUSH2 0x4A0 SWAP1 PUSH2 0x1D46 JUMP JUMPDEST PUSH1 0x40 MLOAD DUP1 SWAP2 SUB SWAP1 REVERT JUMPDEST PUSH1 0x6 DUP2 MLOAD EQ PUSH2 0x4ED JUMPI PUSH1 0x40 MLOAD PUSH32 0x8C379A000000000000000000000000000000000000000000000000000000000 DUP2 MSTORE PUSH1 0x4 ADD PUSH2 0x4E4 SWAP1 PUSH2 0x1DA6 JUMP JUMPDEST PUSH1 0x40 MLOAD DUP1 SWAP2 SUB SWAP1 REVERT JUMPDEST DUP1 PUSH1 0x3 SWAP1 DUP1 MLOAD SWAP1 PUSH1 0x20 ADD SWAP1 PUSH2 0x503 SWAP3 SWAP2 SWAP1 PUSH2 0x160B JUMP JUMPDEST POP POP JUMP JUMPDEST PUSH1 0x1 SLOAD DUP2 JUMP JUMPDEST PUSH1 0x4 PUSH1 0x20 MSTORE DUP2 PUSH1 0x0 MSTORE PUSH1 0x40 PUSH1 0x0 KECCAK256 DUP2 DUP2 SLOAD DUP2 LT PUSH2 0x526 JUMPI INVALID JUMPDEST SWAP1 PUSH1 0x0 MSTORE PUSH1 0x20 PUSH1 0x0 KECCAK256 ADD PUSH1 0x0 SWAP2 POP SWAP2 POP POP SLOAD DUP2 JUMP JUMPDEST PUSH1 0x2 PUSH1 0x20 MSTORE DUP3 PUSH1 0x0 MSTORE PUSH1 0x40 PUSH1 0x0 KECCAK256 DUP3 DUP2 SLOAD DUP2 LT PUSH2 0x554 JUMPI INVALID JUMPDEST SWAP1 PUSH1 0x0 MSTORE PUSH1 0x20 PUSH1 0x0 KECCAK256 ADD DUP2 DUP2 SLOAD DUP2 LT PUSH2 0x569 JUMPI INVALID JUMPDEST SWAP1 PUSH1 0x0 MSTORE PUSH1 0x20 PUSH1 0x0 KECCAK256 ADD PUSH1 0x0 SWAP3 POP SWAP3 POP POP POP SLOAD DUP2 JUMP JUMPDEST PUSH1 0x0 PUSH1 0x2 PUSH1 0x0 CALLER PUSH20 0xFFFFFFFFFFFFFFFFFFFFFFFFFFFFFFFFFFFFFFFF AND PUSH20 0xFFFFFFFFFFFFFFFFFFFFFFFFFFFFFFFFFFFFFFFF AND DUP2 MSTORE PUSH1 0x20 ADD SWAP1 DUP2 MSTORE PUSH1 0x20 ADD PUSH1 0x0 KECCAK256 DUP1 SLOAD SWAP1 POP GT PUSH2 0x604 JUMPI PUSH1 0x40 MLOAD PUSH32 0x8C379A000000000000000000000000000000000000000000000000000000000 DUP2 MSTORE PUSH1 0x4 ADD PUSH2 0x5FB SWAP1 PUSH2 0x1CE6 JUMP JUMPDEST PUSH1 0x40 MLOAD DUP1 SWAP2 SUB SWAP1 REVERT JUMPDEST PUSH1 0x0 DUP1 JUMPDEST PUSH1 0x6 DUP2 LT ISZERO PUSH2 0x659 JUMPI PUSH1 0x3 DUP2 DUP2 SLOAD DUP2 LT PUSH2 0x61E JUMPI INVALID JUMPDEST SWAP1 PUSH1 0x0 MSTORE PUSH1 0x20 PUSH1 0x0 KECCAK256 ADD SLOAD DUP4 DUP3 DUP2 MLOAD DUP2 LT PUSH2 0x635 JUMPI INVALID JUMPDEST PUSH1 0x20 MUL PUSH1 0x20 ADD ADD MLOAD EQ ISZERO PUSH2 0x64C JUMPI DUP2 DUP1 PUSH1 0x1 ADD SWAP3 POP POP JUMPDEST DUP1 DUP1 PUSH1 0x1 ADD SWAP2 POP POP PUSH2 0x608 JUMP JUMPDEST POP PUSH1 0x1 DUP2 EQ ISZERO PUSH2 0x6A7 JUMPI PUSH8 0x1BC16D674EC80000 PUSH1 0x4 PUSH1 0x0 DUP1 DUP2 MSTORE PUSH1 0x20 ADD SWAP1 DUP2 MSTORE PUSH1 0x20 ADD PUSH1 0x0 KECCAK256 PUSH1 0x1 DUP2 SLOAD DUP2 LT PUSH2 0x68B JUMPI INVALID JUMPDEST SWAP1 PUSH1 0x0 MSTORE PUSH1 0x20 PUSH1 0x0 KECCAK256 ADD PUSH1 0x0 DUP3 DUP3 SLOAD ADD SWAP3 POP POP DUP2 SWAP1 SSTORE POP PUSH2 0x830 JUMP JUMPDEST PUSH1 0x2 DUP2 EQ ISZERO PUSH2 0x6F5 JUMPI PUSH8 0x29A2241AF62C0000 PUSH1 0x4 PUSH1 0x0 PUSH1 0x1 DUP2 MSTORE PUSH1 0x20 ADD SWAP1 DUP2 MSTORE PUSH1 0x20 ADD PUSH1 0x0 KECCAK256 PUSH1 0x1 DUP2 SLOAD DUP2 LT PUSH2 0x6D9 JUMPI INVALID JUMPDEST SWAP1 PUSH1 0x0 MSTORE PUSH1 0x20 PUSH1 0x0 KECCAK256 ADD PUSH1 0x0 DUP3 DUP3 SLOAD ADD SWAP3 POP POP DUP2 SWAP1 SSTORE POP PUSH2 0x82F JUMP JUMPDEST PUSH1 0x3 DUP2 EQ ISZERO PUSH2 0x743 JUMPI PUSH8 0x4563918244F40000 PUSH1 0x4 PUSH1 0x0 PUSH1 0x2 DUP2 MSTORE PUSH1 0x20 ADD SWAP1 DUP2 MSTORE PUSH1 0x20 ADD PUSH1 0x0 KECCAK256 PUSH1 0x1 DUP2 SLOAD DUP2 LT PUSH2 0x727 JUMPI INVALID JUMPDEST SWAP1 PUSH1 0x0 MSTORE PUSH1 0x20 PUSH1 0x0 KECCAK256 ADD PUSH1 0x0 DUP3 DUP3 SLOAD ADD SWAP3 POP POP DUP2 SWAP1 SSTORE POP PUSH2 0x82E JUMP JUMPDEST PUSH1 0x4 DUP2 EQ ISZERO PUSH2 0x791 JUMPI PUSH8 0x8AC7230489E80000 PUSH1 0x4 PUSH1 0x0 PUSH1 0x3 DUP2 MSTORE PUSH1 0x20 ADD SWAP1 DUP2 MSTORE PUSH1 0x20 ADD PUSH1 0x0 KECCAK256 PUSH1 0x1 DUP2 SLOAD DUP2 LT PUSH2 0x775 JUMPI INVALID JUMPDEST SWAP1 PUSH1 0x0 MSTORE PUSH1 0x20 PUSH1 0x0 KECCAK256 ADD PUSH1 0x0 DUP3 DUP3 SLOAD ADD SWAP3 POP POP DUP2 SWAP1 SSTORE POP PUSH2 0x82D JUMP JUMPDEST PUSH1 0x5 DUP2 EQ ISZERO PUSH2 0x7E0 JUMPI PUSH9 0x1158E460913D00000 PUSH1 0x4 PUSH1 0x0 PUSH1 0x4 DUP2 MSTORE PUSH1 0x20 ADD SWAP1 DUP2 MSTORE PUSH1 0x20 ADD PUSH1 0x0 KECCAK256 PUSH1 0x1 DUP2 SLOAD DUP2 LT PUSH2 0x7C4 JUMPI INVALID JUMPDEST SWAP1 PUSH1 0x0 MSTORE PUSH1 0x20 PUSH1 0x0 KECCAK256 ADD PUSH1 0x0 DUP3 DUP3 SLOAD ADD SWAP3 POP POP DUP2 SWAP1 SSTORE POP PUSH2 0x82C JUMP JUMPDEST PUSH1 0x6 DUP2 EQ ISZERO PUSH2 0x82B JUMPI PUSH9 0x22B1C8C1227A00000 PUSH1 0x4 PUSH1 0x0 PUSH1 0x5 DUP2 MSTORE PUSH1 0x20 ADD SWAP1 DUP2 MSTORE PUSH1 0x20 ADD PUSH1 0x0 KECCAK256 PUSH1 0x1 DUP2 SLOAD DUP2 LT PUSH2 0x813 JUMPI INVALID JUMPDEST SWAP1 PUSH1 0x0 MSTORE PUSH1 0x20 PUSH1 0x0 KECCAK256 ADD PUSH1 0x0 DUP3 DUP3 SLOAD ADD SWAP3 POP POP DUP2 SWAP1 SSTORE POP JUMPDEST JUMPDEST JUMPDEST JUMPDEST JUMPDEST JUMPDEST PUSH1 0x0 PUSH1 0x4 PUSH1 0x0 PUSH1 0x1 DUP5 SUB DUP2 MSTORE PUSH1 0x20 ADD SWAP1 DUP2 MSTORE PUSH1 0x20 ADD PUSH1 0x0 KECCAK256 PUSH1 0x1 DUP2 SLOAD DUP2 LT PUSH2 0x854 JUMPI INVALID JUMPDEST SWAP1 PUSH1 0x0 MSTORE PUSH1 0x20 PUSH1 0x0 KECCAK256 ADD SLOAD SWAP1 POP CALLER PUSH20 0xFFFFFFFFFFFFFFFFFFFFFFFFFFFFFFFFFFFFFFFF AND PUSH2 0x8FC DUP3 SWAP1 DUP2 ISZERO MUL SWAP1 PUSH1 0x40 MLOAD PUSH1 0x0 PUSH1 0x40 MLOAD DUP1 DUP4 SUB DUP2 DUP6 DUP9 DUP9 CALL SWAP4 POP POP POP POP ISZERO DUP1 ISZERO PUSH2 0x8A7 JUMPI RETURNDATASIZE PUSH1 0x0 DUP1 RETURNDATACOPY RETURNDATASIZE PUSH1 0x0 REVERT JUMPDEST POP POP POP POP JUMP JUMPDEST PUSH1 0x5 SLOAD DUP2 JUMP JUMPDEST PUSH1 0x7 SLOAD DUP2 JUMP JUMPDEST PUSH1 0x3 DUP2 DUP2 SLOAD DUP2 LT PUSH2 0x8C6 JUMPI INVALID JUMPDEST SWAP1 PUSH1 0x0 MSTORE PUSH1 0x20 PUSH1 0x0 KECCAK256 ADD PUSH1 0x0 SWAP2 POP SWAP1 POP SLOAD DUP2 JUMP JUMPDEST PUSH1 0x0 DUP1 SLOAD SWAP1 PUSH2 0x100 EXP SWAP1 DIV PUSH20 0xFFFFFFFFFFFFFFFFFFFFFFFFFFFFFFFFFFFFFFFF AND PUSH20 0xFFFFFFFFFFFFFFFFFFFFFFFFFFFFFFFFFFFFFFFF AND CALLER PUSH20 0xFFFFFFFFFFFFFFFFFFFFFFFFFFFFFFFFFFFFFFFF AND EQ PUSH2 0x968 JUMPI PUSH1 0x40 MLOAD PUSH32 0x8C379A000000000000000000000000000000000000000000000000000000000 DUP2 MSTORE PUSH1 0x4 ADD PUSH2 0x95F SWAP1 PUSH2 0x1D26 JUMP JUMPDEST PUSH1 0x40 MLOAD DUP1 SWAP2 SUB SWAP1 REVERT JUMPDEST PUSH1 0x0 PUSH1 0x5 DUP2 SWAP1 SSTORE POP PUSH1 0x0 PUSH1 0x7 DUP2 SWAP1 SSTORE POP PUSH1 0x0 JUMPDEST PUSH1 0x6 DUP2 LT ISZERO PUSH2 0xA3C JUMPI PUSH1 0x60 PUSH1 0x2 PUSH8 0xFFFFFFFFFFFFFFFF DUP2 GT DUP1 ISZERO PUSH2 0x99E JUMPI PUSH1 0x0 DUP1 REVERT JUMPDEST POP PUSH1 0x40 MLOAD SWAP1 DUP1 DUP3 MSTORE DUP1 PUSH1 0x20 MUL PUSH1 0x20 ADD DUP3 ADD PUSH1 0x40 MSTORE DUP1 ISZERO PUSH2 0x9CD JUMPI DUP2 PUSH1 0x20 ADD PUSH1 0x20 DUP3 MUL DUP1 CALLDATASIZE DUP4 CALLDATACOPY DUP1 DUP3 ADD SWAP2 POP POP SWAP1 POP JUMPDEST POP SWAP1 POP PUSH1 0x0 DUP2 PUSH1 0x0 DUP2 MLOAD DUP2 LT PUSH2 0x9DF JUMPI INVALID JUMPDEST PUSH1 0x20 MUL PUSH1 0x20 ADD ADD DUP2 DUP2 MSTORE POP POP PUSH1 0x0 DUP2 PUSH1 0x1 DUP2 MLOAD DUP2 LT PUSH2 0x9FA JUMPI INVALID JUMPDEST PUSH1 0x20 MUL PUSH1 0x20 ADD ADD DUP2 DUP2 MSTORE POP POP DUP1 PUSH1 0x4 PUSH1 0x0 DUP5 DUP2 MSTORE PUSH1 0x20 ADD SWAP1 DUP2 MSTORE PUSH1 0x20 ADD PUSH1 0x0 KECCAK256 SWAP1 DUP1 MLOAD SWAP1 PUSH1 0x20 ADD SWAP1 PUSH2 0xA2D SWAP3 SWAP2 SWAP1 PUSH2 0x160B JUMP JUMPDEST POP POP DUP1 DUP1 PUSH1 0x1 ADD SWAP2 POP POP PUSH2 0x97B JUMP JUMPDEST POP JUMP JUMPDEST PUSH1 0x0 PUSH1 0x2 PUSH1 0x0 CALLER PUSH20 0xFFFFFFFFFFFFFFFFFFFFFFFFFFFFFFFFFFFFFFFF AND PUSH20 0xFFFFFFFFFFFFFFFFFFFFFFFFFFFFFFFFFFFFFFFF AND DUP2 MSTORE PUSH1 0x20 ADD SWAP1 DUP2 MSTORE PUSH1 0x20 ADD PUSH1 0x0 KECCAK256 DUP1 SLOAD SWAP1 POP SWAP1 POP SWAP1 JUMP JUMPDEST PUSH1 0x1 SLOAD CALLVALUE EQ PUSH2 0xACD JUMPI PUSH1 0x40 MLOAD PUSH32 0x8C379A000000000000000000000000000000000000000000000000000000000 DUP2 MSTORE PUSH1 0x4 ADD PUSH2 0xAC4 SWAP1 PUSH2 0x1D86 JUMP JUMPDEST PUSH1 0x40 MLOAD DUP1 SWAP2 SUB SWAP1 REVERT JUMPDEST PUSH1 0x6 DUP2 MLOAD EQ PUSH2 0xB11 JUMPI PUSH1 0x40 MLOAD PUSH32 0x8C379A000000000000000000000000000000000000000000000000000000000 DUP2 MSTORE PUSH1 0x4 ADD PUSH2 0xB08 SWAP1 PUSH2 0x1CA6 JUMP JUMPDEST PUSH1 0x40 MLOAD DUP1 SWAP2 SUB SWAP1 REVERT JUMPDEST PUSH1 0x2 PUSH1 0x0 CALLER PUSH20 0xFFFFFFFFFFFFFFFFFFFFFFFFFFFFFFFFFFFFFFFF AND PUSH20 0xFFFFFFFFFFFFFFFFFFFFFFFFFFFFFFFFFFFFFFFF AND DUP2 MSTORE PUSH1 0x20 ADD SWAP1 DUP2 MSTORE PUSH1 0x20 ADD PUSH1 0x0 KECCAK256 DUP2 SWAP1 DUP1 PUSH1 0x1 DUP2 SLOAD ADD DUP1 DUP3 SSTORE DUP1 SWAP2 POP POP PUSH1 0x1 SWAP1 SUB SWAP1 PUSH1 0x0 MSTORE PUSH1 0x20 PUSH1 0x0 KECCAK256 ADD PUSH1 0x0 SWAP1 SWAP2 SWAP1 SWAP2 SWAP1 SWAP2 POP SWAP1 DUP1 MLOAD SWAP1 PUSH1 0x20 ADD SWAP1 PUSH2 0xB89 SWAP3 SWAP2 SWAP1 PUSH2 0x160B JUMP JUMPDEST POP POP JUMP JUMPDEST PUSH1 0x0 DUP1 SLOAD SWAP1 PUSH2 0x100 EXP SWAP1 DIV PUSH20 0xFFFFFFFFFFFFFFFFFFFFFFFFFFFFFFFFFFFFFFFF AND PUSH20 0xFFFFFFFFFFFFFFFFFFFFFFFFFFFFFFFFFFFFFFFF AND CALLER PUSH20 0xFFFFFFFFFFFFFFFFFFFFFFFFFFFFFFFFFFFFFFFF AND EQ PUSH2 0xC1B JUMPI PUSH1 0x40 MLOAD PUSH32 0x8C379A000000000000000000000000000000000000000000000000000000000 DUP2 MSTORE PUSH1 0x4 ADD PUSH2 0xC12 SWAP1 PUSH2 0x1CC6 JUMP JUMPDEST PUSH1 0x40 MLOAD DUP1 SWAP2 SUB SWAP1 REVERT JUMPDEST PUSH1 0x0 PUSH1 0x7 SLOAD PUSH1 0x5 SLOAD ADD SWAP1 POP PUSH1 0x0 JUMPDEST PUSH1 0x6 DUP2 LT ISZERO PUSH2 0xCE1 JUMPI PUSH1 0x0 DUP3 PUSH1 0x5 SLOAD DUP2 PUSH2 0xC3F JUMPI INVALID JUMPDEST DIV PUSH1 0x4 PUSH1 0x0 DUP5 DUP2 MSTORE PUSH1 0x20 ADD SWAP1 DUP2 MSTORE PUSH1 0x20 ADD PUSH1 0x0 KECCAK256 PUSH1 0x1 DUP2 SLOAD DUP2 LT PUSH2 0xC5F JUMPI INVALID JUMPDEST SWAP1 PUSH1 0x0 MSTORE PUSH1 0x20 PUSH1 0x0 KECCAK256 ADD SLOAD MUL SWAP1 POP PUSH1 0x0 PUSH1 0x4 PUSH1 0x0 DUP5 DUP2 MSTORE PUSH1 0x20 ADD SWAP1 DUP2 MSTORE PUSH1 0x20 ADD PUSH1 0x0 KECCAK256 PUSH1 0x1 DUP2 SLOAD DUP2 LT PUSH2 0xC8E JUMPI INVALID JUMPDEST SWAP1 PUSH1 0x0 MSTORE PUSH1 0x20 PUSH1 0x0 KECCAK256 ADD DUP2 SWAP1 SSTORE POP DUP1 PUSH1 0x4 PUSH1 0x0 DUP5 DUP2 MSTORE PUSH1 0x20 ADD SWAP1 DUP2 MSTORE PUSH1 0x20 ADD PUSH1 0x0 KECCAK256 PUSH1 0x0 DUP2 SLOAD DUP2 LT PUSH2 0xCBC JUMPI INVALID JUMPDEST SWAP1 PUSH1 0x0 MSTORE PUSH1 0x20 PUSH1 0x0 KECCAK256 ADD PUSH1 0x0 DUP3 DUP3 SLOAD ADD SWAP3 POP POP DUP2 SWAP1 SSTORE POP POP DUP1 DUP1 PUSH1 0x1 ADD SWAP2 POP POP PUSH2 0xC29 JUMP JUMPDEST POP DUP1 PUSH1 0x5 SLOAD DUP2 PUSH2 0xCED JUMPI INVALID JUMPDEST DIV PUSH1 0x6 SLOAD MUL PUSH1 0x7 DUP2 SWAP1 SSTORE POP POP JUMP JUMPDEST PUSH1 0x0 DUP1 SLOAD SWAP1 PUSH2 0x100 EXP SWAP1 DIV PUSH20 0xFFFFFFFFFFFFFFFFFFFFFFFFFFFFFFFFFFFFFFFF AND PUSH20 0xFFFFFFFFFFFFFFFFFFFFFFFFFFFFFFFFFFFFFFFF AND CALLER PUSH20 0xFFFFFFFFFFFFFFFFFFFFFFFFFFFFFFFFFFFFFFFF AND EQ PUSH2 0xD89 JUMPI PUSH1 0x40 MLOAD PUSH32 0x8C379A000000000000000000000000000000000000000000000000000000000 DUP2 MSTORE PUSH1 0x4 ADD PUSH2 0xD80 SWAP1 PUSH2 0x1D06 JUMP JUMPDEST PUSH1 0x40 MLOAD DUP1 SWAP2 SUB SWAP1 REVERT JUMPDEST PUSH1 0x0 JUMPDEST PUSH1 0x6 DUP2 LT ISZERO PUSH2 0xE43 JUMPI PUSH1 0x0 PUSH1 0x4 PUSH1 0x0 DUP4 DUP2 MSTORE PUSH1 0x20 ADD SWAP1 DUP2 MSTORE PUSH1 0x20 ADD PUSH1 0x0 KECCAK256 PUSH1 0x1 DUP2 SLOAD DUP2 LT PUSH2 0xDB6 JUMPI INVALID JUMPDEST SWAP1 PUSH1 0x0 MSTORE PUSH1 0x20 PUSH1 0x0 KECCAK256 ADD SLOAD PUSH1 0x4 PUSH1 0x0 DUP5 DUP2 MSTORE PUSH1 0x20 ADD SWAP1 DUP2 MSTORE PUSH1 0x20 ADD PUSH1 0x0 KECCAK256 PUSH1 0x0 DUP2 SLOAD DUP2 LT PUSH2 0xDE0 JUMPI INVALID JUMPDEST SWAP1 PUSH1 0x0 MSTORE PUSH1 0x20 PUSH1 0x0 KECCAK256 ADD SLOAD ADD SWAP1 POP CALLER PUSH20 0xFFFFFFFFFFFFFFFFFFFFFFFFFFFFFFFFFFFFFFFF AND PUSH2 0x8FC DUP3 SWAP1 DUP2 ISZERO MUL SWAP1 PUSH1 0x40 MLOAD PUSH1 0x0 PUSH1 0x40 MLOAD DUP1 DUP4 SUB DUP2 DUP6 DUP9 DUP9 CALL SWAP4 POP POP POP POP ISZERO DUP1 ISZERO PUSH2 0xE34 JUMPI RETURNDATASIZE PUSH1 0x0 DUP1 RETURNDATACOPY RETURNDATASIZE PUSH1 0x0 REVERT JUMPDEST POP POP DUP1 DUP1 PUSH1 0x1 ADD SWAP2 POP POP PUSH2 0xD8C JUMP JUMPDEST POP PUSH1 0x0 PUSH1 0x7 DUP2 SWAP1 SSTORE POP JUMP JUMPDEST PUSH2 0xE56 PUSH2 0x1658 JUMP JUMPDEST PUSH2 0xE5E PUSH2 0x1658 JUMP JUMPDEST PUSH1 0x0 JUMPDEST PUSH1 0x6 DUP2 LT ISZERO PUSH2 0xEA4 JUMPI PUSH1 0x3 DUP2 DUP2 SLOAD DUP2 LT PUSH2 0xE77 JUMPI INVALID JUMPDEST SWAP1 PUSH1 0x0 MSTORE PUSH1 0x20 PUSH1 0x0 KECCAK256 ADD SLOAD DUP3 DUP3 PUSH1 0x6 DUP2 LT PUSH2 0xE8E JUMPI INVALID JUMPDEST PUSH1 0x20 MUL ADD DUP2 DUP2 MSTORE POP POP DUP1 DUP1 PUSH1 0x1 ADD SWAP2 POP POP PUSH2 0xE61 JUMP JUMPDEST POP DUP1 SWAP2 POP POP SWAP1 JUMP JUMPDEST PUSH1 0x0 DUP1 SLOAD SWAP1 PUSH2 0x100 EXP SWAP1 DIV PUSH20 0xFFFFFFFFFFFFFFFFFFFFFFFFFFFFFFFFFFFFFFFF AND DUP2 JUMP JUMPDEST PUSH1 0x0 PUSH1 0x5 DUP2 SWAP1 SSTORE POP PUSH1 0x0 PUSH1 0x7 DUP2 SWAP1 SSTORE POP PUSH1 0x0 DUP1 SLOAD SWAP1 PUSH2 0x100 EXP SWAP1 DIV PUSH20 0xFFFFFFFFFFFFFFFFFFFFFFFFFFFFFFFFFFFFFFFF AND PUSH20 0xFFFFFFFFFFFFFFFFFFFFFFFFFFFFFFFFFFFFFFFF AND CALLER PUSH20 0xFFFFFFFFFFFFFFFFFFFFFFFFFFFFFFFFFFFFFFFF AND EQ PUSH2 0xF6E JUMPI PUSH1 0x40 MLOAD PUSH32 0x8C379A000000000000000000000000000000000000000000000000000000000 DUP2 MSTORE PUSH1 0x4 ADD PUSH2 0xF65 SWAP1 PUSH2 0x1D66 JUMP JUMPDEST PUSH1 0x40 MLOAD DUP1 SWAP2 SUB SWAP1 REVERT JUMPDEST PUSH1 0x0 JUMPDEST PUSH1 0x2 PUSH1 0x0 CALLER PUSH20 0xFFFFFFFFFFFFFFFFFFFFFFFFFFFFFFFFFFFFFFFF AND PUSH20 0xFFFFFFFFFFFFFFFFFFFFFFFFFFFFFFFFFFFFFFFF AND DUP2 MSTORE PUSH1 0x20 ADD SWAP1 DUP2 MSTORE PUSH1 0x20 ADD PUSH1 0x0 KECCAK256 DUP1 SLOAD SWAP1 POP DUP2 LT ISZERO PUSH2 0x13BC JUMPI PUSH1 0x60 PUSH1 0x2 PUSH1 0x0 CALLER PUSH20 0xFFFFFFFFFFFFFFFFFFFFFFFFFFFFFFFFFFFFFFFF AND PUSH20 0xFFFFFFFFFFFFFFFFFFFFFFFFFFFFFFFFFFFFFFFF AND DUP2 MSTORE PUSH1 0x20 ADD SWAP1 DUP2 MSTORE PUSH1 0x20 ADD PUSH1 0x0 KECCAK256 DUP3 DUP2 SLOAD DUP2 LT PUSH2 0x1007 JUMPI INVALID JUMPDEST SWAP1 PUSH1 0x0 MSTORE PUSH1 0x20 PUSH1 0x0 KECCAK256 ADD DUP1 SLOAD DUP1 PUSH1 0x20 MUL PUSH1 0x20 ADD PUSH1 0x40 MLOAD SWAP1 DUP2 ADD PUSH1 0x40 MSTORE DUP1 SWAP3 SWAP2 SWAP1 DUP2 DUP2 MSTORE PUSH1 0x20 ADD DUP3 DUP1 SLOAD DUP1 ISZERO PUSH2 0x105B JUMPI PUSH1 0x20 MUL DUP3 ADD SWAP2 SWAP1 PUSH1 0x0 MSTORE PUSH1 0x20 PUSH1 0x0 KECCAK256 SWAP1 JUMPDEST DUP2 SLOAD DUP2 MSTORE PUSH1 0x20 ADD SWAP1 PUSH1 0x1 ADD SWAP1 DUP1 DUP4 GT PUSH2 0x1047 JUMPI JUMPDEST POP POP POP POP POP SWAP1 POP PUSH1 0x0 DUP1 JUMPDEST PUSH1 0x6 DUP2 LT ISZERO PUSH2 0x10B7 JUMPI PUSH1 0x3 DUP2 DUP2 SLOAD DUP2 LT PUSH2 0x107C JUMPI INVALID JUMPDEST SWAP1 PUSH1 0x0 MSTORE PUSH1 0x20 PUSH1 0x0 KECCAK256 ADD SLOAD DUP4 DUP3 DUP2 MLOAD DUP2 LT PUSH2 0x1093 JUMPI INVALID JUMPDEST PUSH1 0x20 MUL PUSH1 0x20 ADD ADD MLOAD EQ ISZERO PUSH2 0x10AA JUMPI DUP2 DUP1 PUSH1 0x1 ADD SWAP3 POP POP JUMPDEST DUP1 DUP1 PUSH1 0x1 ADD SWAP2 POP POP PUSH2 0x1066 JUMP JUMPDEST POP PUSH1 0x1 DUP2 EQ ISZERO PUSH2 0x1134 JUMPI PUSH1 0x0 PUSH1 0x4 PUSH1 0x0 DUP1 DUP2 MSTORE PUSH1 0x20 ADD SWAP1 DUP2 MSTORE PUSH1 0x20 ADD PUSH1 0x0 KECCAK256 PUSH1 0x0 DUP2 SLOAD DUP2 LT PUSH2 0x10E2 JUMPI INVALID JUMPDEST SWAP1 PUSH1 0x0 MSTORE PUSH1 0x20 PUSH1 0x0 KECCAK256 ADD DUP2 SWAP1 SSTORE POP PUSH8 0x1BC16D674EC80000 PUSH1 0x4 PUSH1 0x0 DUP1 DUP2 MSTORE PUSH1 0x20 ADD SWAP1 DUP2 MSTORE PUSH1 0x20 ADD PUSH1 0x0 KECCAK256 PUSH1 0x0 DUP2 SLOAD DUP2 LT PUSH2 0x1118 JUMPI INVALID JUMPDEST SWAP1 PUSH1 0x0 MSTORE PUSH1 0x20 PUSH1 0x0 KECCAK256 ADD PUSH1 0x0 DUP3 DUP3 SLOAD ADD SWAP3 POP POP DUP2 SWAP1 SSTORE POP PUSH2 0x13AD JUMP JUMPDEST PUSH1 0x2 DUP2 EQ ISZERO PUSH2 0x11B2 JUMPI PUSH1 0x0 PUSH1 0x4 PUSH1 0x0 PUSH1 0x1 DUP2 MSTORE PUSH1 0x20 ADD SWAP1 DUP2 MSTORE PUSH1 0x20 ADD PUSH1 0x0 KECCAK256 PUSH1 0x0 DUP2 SLOAD DUP2 LT PUSH2 0x115F JUMPI INVALID JUMPDEST SWAP1 PUSH1 0x0 MSTORE PUSH1 0x20 PUSH1 0x0 KECCAK256 ADD DUP2 SWAP1 SSTORE POP PUSH8 0x29A2241AF62C0000 PUSH1 0x4 PUSH1 0x0 PUSH1 0x1 DUP2 MSTORE PUSH1 0x20 ADD SWAP1 DUP2 MSTORE PUSH1 0x20 ADD PUSH1 0x0 KECCAK256 PUSH1 0x0 DUP2 SLOAD DUP2 LT PUSH2 0x1196 JUMPI INVALID JUMPDEST SWAP1 PUSH1 0x0 MSTORE PUSH1 0x20 PUSH1 0x0 KECCAK256 ADD PUSH1 0x0 DUP3 DUP3 SLOAD ADD SWAP3 POP POP DUP2 SWAP1 SSTORE POP PUSH2 0x13AC JUMP JUMPDEST PUSH1 0x3 DUP2 EQ ISZERO PUSH2 0x1230 JUMPI PUSH1 0x0 PUSH1 0x4 PUSH1 0x0 PUSH1 0x2 DUP2 MSTORE PUSH1 0x20 ADD SWAP1 DUP2 MSTORE PUSH1 0x20 ADD PUSH1 0x0 KECCAK256 PUSH1 0x0 DUP2 SLOAD DUP2 LT PUSH2 0x11DD JUMPI INVALID JUMPDEST SWAP1 PUSH1 0x0 MSTORE PUSH1 0x20 PUSH1 0x0 KECCAK256 ADD DUP2 SWAP1 SSTORE POP PUSH8 0x4563918244F40000 PUSH1 0x4 PUSH1 0x0 PUSH1 0x2 DUP2 MSTORE PUSH1 0x20 ADD SWAP1 DUP2 MSTORE PUSH1 0x20 ADD PUSH1 0x0 KECCAK256 PUSH1 0x0 DUP2 SLOAD DUP2 LT PUSH2 0x1214 JUMPI INVALID JUMPDEST SWAP1 PUSH1 0x0 MSTORE PUSH1 0x20 PUSH1 0x0 KECCAK256 ADD PUSH1 0x0 DUP3 DUP3 SLOAD ADD SWAP3 POP POP DUP2 SWAP1 SSTORE POP PUSH2 0x13AB JUMP JUMPDEST PUSH1 0x4 DUP2 EQ ISZERO PUSH2 0x12AE JUMPI PUSH1 0x0 PUSH1 0x4 PUSH1 0x0 PUSH1 0x3 DUP2 MSTORE PUSH1 0x20 ADD SWAP1 DUP2 MSTORE PUSH1 0x20 ADD PUSH1 0x0 KECCAK256 PUSH1 0x0 DUP2 SLOAD DUP2 LT PUSH2 0x125B JUMPI INVALID JUMPDEST SWAP1 PUSH1 0x0 MSTORE PUSH1 0x20 PUSH1 0x0 KECCAK256 ADD DUP2 SWAP1 SSTORE POP PUSH8 0x8AC7230489E80000 PUSH1 0x4 PUSH1 0x0 PUSH1 0x3 DUP2 MSTORE PUSH1 0x20 ADD SWAP1 DUP2 MSTORE PUSH1 0x20 ADD PUSH1 0x0 KECCAK256 PUSH1 0x0 DUP2 SLOAD DUP2 LT PUSH2 0x1292 JUMPI INVALID JUMPDEST SWAP1 PUSH1 0x0 MSTORE PUSH1 0x20 PUSH1 0x0 KECCAK256 ADD PUSH1 0x0 DUP3 DUP3 SLOAD ADD SWAP3 POP POP DUP2 SWAP1 SSTORE POP PUSH2 0x13AA JUMP JUMPDEST PUSH1 0x5 DUP2 EQ ISZERO PUSH2 0x132D JUMPI PUSH1 0x0 PUSH1 0x4 PUSH1 0x0 PUSH1 0x4 DUP2 MSTORE PUSH1 0x20 ADD SWAP1 DUP2 MSTORE PUSH1 0x20 ADD PUSH1 0x0 KECCAK256 PUSH1 0x0 DUP2 SLOAD DUP2 LT PUSH2 0x12D9 JUMPI INVALID JUMPDEST SWAP1 PUSH1 0x0 MSTORE PUSH1 0x20 PUSH1 0x0 KECCAK256 ADD DUP2 SWAP1 SSTORE POP PUSH9 0x1158E460913D00000 PUSH1 0x4 PUSH1 0x0 PUSH1 0x4 DUP2 MSTORE PUSH1 0x20 ADD SWAP1 DUP2 MSTORE PUSH1 0x20 ADD PUSH1 0x0 KECCAK256 PUSH1 0x0 DUP2 SLOAD DUP2 LT PUSH2 0x1311 JUMPI INVALID JUMPDEST SWAP1 PUSH1 0x0 MSTORE PUSH1 0x20 PUSH1 0x0 KECCAK256 ADD PUSH1 0x0 DUP3 DUP3 SLOAD ADD SWAP3 POP POP DUP2 SWAP1 SSTORE POP PUSH2 0x13A9 JUMP JUMPDEST PUSH1 0x6 DUP2 EQ ISZERO PUSH2 0x13A8 JUMPI PUSH1 0x0 PUSH1 0x4 PUSH1 0x0 PUSH1 0x5 DUP2 MSTORE PUSH1 0x20 ADD SWAP1 DUP2 MSTORE PUSH1 0x20 ADD PUSH1 0x0 KECCAK256 PUSH1 0x0 DUP2 SLOAD DUP2 LT PUSH2 0x1358 JUMPI INVALID JUMPDEST SWAP1 PUSH1 0x0 MSTORE PUSH1 0x20 PUSH1 0x0 KECCAK256 ADD DUP2 SWAP1 SSTORE POP PUSH9 0x22B1C8C1227A00000 PUSH1 0x4 PUSH1 0x0 PUSH1 0x5 DUP2 MSTORE PUSH1 0x20 ADD SWAP1 DUP2 MSTORE PUSH1 0x20 ADD PUSH1 0x0 KECCAK256 PUSH1 0x0 DUP2 SLOAD DUP2 LT PUSH2 0x1390 JUMPI INVALID JUMPDEST SWAP1 PUSH1 0x0 MSTORE PUSH1 0x20 PUSH1 0x0 KECCAK256 ADD PUSH1 0x0 DUP3 DUP3 SLOAD ADD SWAP3 POP POP DUP2 SWAP1 SSTORE POP JUMPDEST JUMPDEST JUMPDEST JUMPDEST JUMPDEST JUMPDEST POP POP DUP1 DUP1 PUSH1 0x1 ADD SWAP2 POP POP PUSH2 0xF71 JUMP JUMPDEST POP PUSH1 0x0 JUMPDEST PUSH1 0x6 DUP2 LT ISZERO PUSH2 0x1448 JUMPI PUSH1 0x4 PUSH1 0x0 DUP3 DUP2 MSTORE PUSH1 0x20 ADD SWAP1 DUP2 MSTORE PUSH1 0x20 ADD PUSH1 0x0 KECCAK256 PUSH1 0x0 DUP2 SLOAD DUP2 LT PUSH2 0x13E8 JUMPI INVALID JUMPDEST SWAP1 PUSH1 0x0 MSTORE PUSH1 0x20 PUSH1 0x0 KECCAK256 ADD SLOAD PUSH1 0x5 PUSH1 0x0 DUP3 DUP3 SLOAD ADD SWAP3 POP POP DUP2 SWAP1 SSTORE POP PUSH1 0x4 PUSH1 0x0 DUP3 DUP2 MSTORE PUSH1 0x20 ADD SWAP1 DUP2 MSTORE PUSH1 0x20 ADD PUSH1 0x0 KECCAK256 PUSH1 0x1 DUP2 SLOAD DUP2 LT PUSH2 0x1421 JUMPI INVALID JUMPDEST SWAP1 PUSH1 0x0 MSTORE PUSH1 0x20 PUSH1 0x0 KECCAK256 ADD SLOAD PUSH1 0x7 PUSH1 0x0 DUP3 DUP3 SLOAD ADD SWAP3 POP POP DUP2 SWAP1 SSTORE POP DUP1 DUP1 PUSH1 0x1 ADD SWAP2 POP POP PUSH2 0x13C0 JUMP JUMPDEST POP JUMP JUMPDEST PUSH1 0x6 SLOAD DUP2 JUMP JUMPDEST PUSH1 0x0 DUP1 SLOAD SWAP1 PUSH2 0x100 EXP SWAP1 DIV PUSH20 0xFFFFFFFFFFFFFFFFFFFFFFFFFFFFFFFFFFFFFFFF AND PUSH20 0xFFFFFFFFFFFFFFFFFFFFFFFFFFFFFFFFFFFFFFFF AND CALLER PUSH20 0xFFFFFFFFFFFFFFFFFFFFFFFFFFFFFFFFFFFFFFFF AND EQ PUSH2 0x14DF JUMPI PUSH1 0x40 MLOAD PUSH32 0x8C379A000000000000000000000000000000000000000000000000000000000 DUP2 MSTORE PUSH1 0x4 ADD PUSH2 0x14D6 SWAP1 PUSH2 0x1D46 JUMP JUMPDEST PUSH1 0x40 MLOAD DUP1 SWAP2 SUB SWAP1 REVERT JUMPDEST PUSH1 0x0 JUMPDEST PUSH1 0x6 DUP2 LT ISZERO PUSH2 0x155C JUMPI PUSH1 0x0 PUSH1 0xA TIMESTAMP DUP4 PUSH1 0x40 MLOAD PUSH1 0x20 ADD PUSH2 0x1502 SWAP3 SWAP2 SWAP1 PUSH2 0x1C22 JUMP JUMPDEST PUSH1 0x40 MLOAD PUSH1 0x20 DUP2 DUP4 SUB SUB DUP2 MSTORE SWAP1 PUSH1 0x40 MSTORE DUP1 MLOAD SWAP1 PUSH1 0x20 ADD KECCAK256 PUSH1 0x0 SHR DUP2 PUSH2 0x1522 JUMPI INVALID JUMPDEST MOD SWAP1 POP PUSH1 0x3 DUP2 SWAP1 DUP1 PUSH1 0x1 DUP2 SLOAD ADD DUP1 DUP3 SSTORE DUP1 SWAP2 POP POP PUSH1 0x1 SWAP1 SUB SWAP1 PUSH1 0x0 MSTORE PUSH1 0x20 PUSH1 0x0 KECCAK256 ADD PUSH1 0x0 SWAP1 SWAP2 SWAP1 SWAP2 SWAP1 SWAP2 POP SSTORE POP DUP1 DUP1 PUSH1 0x1 ADD SWAP2 POP POP PUSH2 0x14E2 JUMP JUMPDEST POP JUMP JUMPDEST PUSH1 0x60 PUSH1 0x2 PUSH1 0x0 CALLER PUSH20 0xFFFFFFFFFFFFFFFFFFFFFFFFFFFFFFFFFFFFFFFF AND PUSH20 0xFFFFFFFFFFFFFFFFFFFFFFFFFFFFFFFFFFFFFFFF AND DUP2 MSTORE PUSH1 0x20 ADD SWAP1 DUP2 MSTORE PUSH1 0x20 ADD PUSH1 0x0 KECCAK256 DUP3 DUP2 SLOAD DUP2 LT PUSH2 0x15AB JUMPI INVALID JUMPDEST SWAP1 PUSH1 0x0 MSTORE PUSH1 0x20 PUSH1 0x0 KECCAK256 ADD DUP1 SLOAD DUP1 PUSH1 0x20 MUL PUSH1 0x20 ADD PUSH1 0x40 MLOAD SWAP1 DUP2 ADD PUSH1 0x40 MSTORE DUP1 SWAP3 SWAP2 SWAP1 DUP2 DUP2 MSTORE PUSH1 0x20 ADD DUP3 DUP1 SLOAD DUP1 ISZERO PUSH2 0x15FF JUMPI PUSH1 0x20 MUL DUP3 ADD SWAP2 SWAP1 PUSH1 0x0 MSTORE PUSH1 0x20 PUSH1 0x0 KECCAK256 SWAP1 JUMPDEST DUP2 SLOAD DUP2 MSTORE PUSH1 0x20 ADD SWAP1 PUSH1 0x1 ADD SWAP1 DUP1 DUP4 GT PUSH2 0x15EB JUMPI JUMPDEST POP POP POP POP POP SWAP1 POP SWAP2 SWAP1 POP JUMP JUMPDEST DUP3 DUP1 SLOAD DUP3 DUP3 SSTORE SWAP1 PUSH1 0x0 MSTORE PUSH1 0x20 PUSH1 0x0 KECCAK256 SWAP1 DUP2 ADD SWAP3 DUP3 ISZERO PUSH2 0x1647 JUMPI SWAP2 PUSH1 0x20 MUL DUP3 ADD JUMPDEST DUP3 DUP2 GT ISZERO PUSH2 0x1646 JUMPI DUP3 MLOAD DUP3 SSTORE SWAP2 PUSH1 0x20 ADD SWAP2 SWAP1 PUSH1 0x1 ADD SWAP1 PUSH2 0x162B JUMP JUMPDEST JUMPDEST POP SWAP1 POP PUSH2 0x1654 SWAP2 SWAP1 PUSH2 0x167A JUMP JUMPDEST POP SWAP1 JUMP JUMPDEST PUSH1 0x40 MLOAD DUP1 PUSH1 0xC0 ADD PUSH1 0x40 MSTORE DUP1 PUSH1 0x6 SWAP1 PUSH1 0x20 DUP3 MUL DUP1 CALLDATASIZE DUP4 CALLDATACOPY DUP1 DUP3 ADD SWAP2 POP POP SWAP1 POP POP SWAP1 JUMP JUMPDEST JUMPDEST DUP1 DUP3 GT ISZERO PUSH2 0x1693 JUMPI PUSH1 0x0 DUP2 PUSH1 0x0 SWAP1 SSTORE POP PUSH1 0x1 ADD PUSH2 0x167B JUMP JUMPDEST POP SWAP1 JUMP JUMPDEST PUSH1 0x0 DUP2 CALLDATALOAD SWAP1 POP PUSH2 0x16A6 DUP2 PUSH2 0x1EF3 JUMP JUMPDEST SWAP3 SWAP2 POP POP JUMP JUMPDEST PUSH1 0x0 DUP3 PUSH1 0x1F DUP4 ADD SLT PUSH2 0x16BD JUMPI PUSH1 0x0 DUP1 REVERT JUMPDEST DUP2 CALLDATALOAD PUSH2 0x16D0 PUSH2 0x16CB DUP3 PUSH2 0x1E0E JUMP JUMPDEST PUSH2 0x1DE1 JUMP JUMPDEST SWAP2 POP DUP2 DUP2 DUP4 MSTORE PUSH1 0x20 DUP5 ADD SWAP4 POP PUSH1 0x20 DUP2 ADD SWAP1 POP DUP4 DUP6 PUSH1 0x20 DUP5 MUL DUP3 ADD GT ISZERO PUSH2 0x16F5 JUMPI PUSH1 0x0 DUP1 REVERT JUMPDEST PUSH1 0x0 JUMPDEST DUP4 DUP2 LT ISZERO PUSH2 0x1725 JUMPI DUP2 PUSH2 0x170B DUP9 DUP3 PUSH2 0x172F JUMP JUMPDEST DUP5 MSTORE PUSH1 0x20 DUP5 ADD SWAP4 POP PUSH1 0x20 DUP4 ADD SWAP3 POP POP PUSH1 0x1 DUP2 ADD SWAP1 POP PUSH2 0x16F8 JUMP JUMPDEST POP POP POP POP SWAP3 SWAP2 POP POP JUMP JUMPDEST PUSH1 0x0 DUP2 CALLDATALOAD SWAP1 POP PUSH2 0x173E DUP2 PUSH2 0x1F0A JUMP JUMPDEST SWAP3 SWAP2 POP POP JUMP JUMPDEST PUSH1 0x0 DUP1 PUSH1 0x0 PUSH1 0x60 DUP5 DUP7 SUB SLT ISZERO PUSH2 0x1759 JUMPI PUSH1 0x0 DUP1 REVERT JUMPDEST PUSH1 0x0 PUSH2 0x1767 DUP7 DUP3 DUP8 ADD PUSH2 0x1697 JUMP JUMPDEST SWAP4 POP POP PUSH1 0x20 PUSH2 0x1778 DUP7 DUP3 DUP8 ADD PUSH2 0x172F JUMP JUMPDEST SWAP3 POP POP PUSH1 0x40 PUSH2 0x1789 DUP7 DUP3 DUP8 ADD PUSH2 0x172F JUMP JUMPDEST SWAP2 POP POP SWAP3 POP SWAP3 POP SWAP3 JUMP JUMPDEST PUSH1 0x0 PUSH1 0x20 DUP3 DUP5 SUB SLT ISZERO PUSH2 0x17A5 JUMPI PUSH1 0x0 DUP1 REVERT JUMPDEST PUSH1 0x0 DUP3 ADD CALLDATALOAD PUSH8 0xFFFFFFFFFFFFFFFF DUP2 GT ISZERO PUSH2 0x17BF JUMPI PUSH1 0x0 DUP1 REVERT JUMPDEST PUSH2 0x17CB DUP5 DUP3 DUP6 ADD PUSH2 0x16AC JUMP JUMPDEST SWAP2 POP POP SWAP3 SWAP2 POP POP JUMP JUMPDEST PUSH1 0x0 PUSH1 0x20 DUP3 DUP5 SUB SLT ISZERO PUSH2 0x17E6 JUMPI PUSH1 0x0 DUP1 REVERT JUMPDEST PUSH1 0x0 PUSH2 0x17F4 DUP5 DUP3 DUP6 ADD PUSH2 0x172F JUMP JUMPDEST SWAP2 POP POP SWAP3 SWAP2 POP POP JUMP JUMPDEST PUSH1 0x0 DUP1 PUSH1 0x40 DUP4 DUP6 SUB SLT ISZERO PUSH2 0x1810 JUMPI PUSH1 0x0 DUP1 REVERT JUMPDEST PUSH1 0x0 PUSH2 0x181E DUP6 DUP3 DUP7 ADD PUSH2 0x172F JUMP JUMPDEST SWAP3 POP POP PUSH1 0x20 PUSH2 0x182F DUP6 DUP3 DUP7 ADD PUSH2 0x172F JUMP JUMPDEST SWAP2 POP POP SWAP3 POP SWAP3 SWAP1 POP JUMP JUMPDEST PUSH1 0x0 PUSH2 0x1845 DUP4 DUP4 PUSH2 0x1BED JUMP JUMPDEST PUSH1 0x20 DUP4 ADD SWAP1 POP SWAP3 SWAP2 POP POP JUMP JUMPDEST PUSH2 0x185A DUP2 PUSH2 0x1EAD JUMP JUMPDEST DUP3 MSTORE POP POP JUMP JUMPDEST PUSH2 0x1869 DUP2 PUSH2 0x1E50 JUMP JUMPDEST PUSH2 0x1873 DUP2 DUP5 PUSH2 0x1E80 JUMP JUMPDEST SWAP3 POP PUSH2 0x187E DUP3 PUSH2 0x1E36 JUMP JUMPDEST DUP1 PUSH1 0x0 JUMPDEST DUP4 DUP2 LT ISZERO PUSH2 0x18AF JUMPI DUP2 MLOAD PUSH2 0x1896 DUP8 DUP3 PUSH2 0x1839 JUMP JUMPDEST SWAP7 POP PUSH2 0x18A1 DUP4 PUSH2 0x1E66 JUMP JUMPDEST SWAP3 POP POP PUSH1 0x1 DUP2 ADD SWAP1 POP PUSH2 0x1882 JUMP JUMPDEST POP POP POP POP POP POP JUMP JUMPDEST PUSH1 0x0 PUSH2 0x18C2 DUP3 PUSH2 0x1E5B JUMP JUMPDEST PUSH2 0x18CC DUP2 DUP6 PUSH2 0x1E8B JUMP JUMPDEST SWAP4 POP PUSH2 0x18D7 DUP4 PUSH2 0x1E40 JUMP JUMPDEST DUP1 PUSH1 0x0 JUMPDEST DUP4 DUP2 LT ISZERO PUSH2 0x1908 JUMPI DUP2 MLOAD PUSH2 0x18EF DUP9 DUP3 PUSH2 0x1839 JUMP JUMPDEST SWAP8 POP PUSH2 0x18FA DUP4 PUSH2 0x1E73 JUMP JUMPDEST SWAP3 POP POP PUSH1 0x1 DUP2 ADD SWAP1 POP PUSH2 0x18DB JUMP JUMPDEST POP DUP6 SWAP4 POP POP POP POP SWAP3 SWAP2 POP POP JUMP JUMPDEST PUSH1 0x0 PUSH2 0x1922 PUSH1 0x19 DUP4 PUSH2 0x1E9C JUMP JUMPDEST SWAP2 POP PUSH32 0x5469636B6574206D757374206861766520362064696769747300000000000000 PUSH1 0x0 DUP4 ADD MSTORE PUSH1 0x20 DUP3 ADD SWAP1 POP SWAP2 SWAP1 POP JUMP JUMPDEST PUSH1 0x0 PUSH2 0x1962 PUSH1 0x20 DUP4 PUSH2 0x1E9C JUMP JUMPDEST SWAP2 POP PUSH32 0x4F6E6C7920746865206F776E65722063616E20656E642074686520726F756E64 PUSH1 0x0 DUP4 ADD MSTORE PUSH1 0x20 DUP3 ADD SWAP1 POP SWAP2 SWAP1 POP JUMP JUMPDEST PUSH1 0x0 PUSH2 0x19A2 PUSH1 0x1A DUP4 PUSH2 0x1E9C JUMP JUMPDEST SWAP2 POP PUSH32 0x596F7520646F6E2774206861766520616E79207469636B657473000000000000 PUSH1 0x0 DUP4 ADD MSTORE PUSH1 0x20 DUP3 ADD SWAP1 POP SWAP2 SWAP1 POP JUMP JUMPDEST PUSH1 0x0 PUSH2 0x19E2 PUSH1 0x24 DUP4 PUSH2 0x1E9C JUMP JUMPDEST SWAP2 POP PUSH32 0x4F6E6C7920746865206F776E65722063616E2064697374726962757465207072 PUSH1 0x0 DUP4 ADD MSTORE PUSH32 0x697A657300000000000000000000000000000000000000000000000000000000 PUSH1 0x20 DUP4 ADD MSTORE PUSH1 0x40 DUP3 ADD SWAP1 POP SWAP2 SWAP1 POP JUMP JUMPDEST PUSH1 0x0 PUSH2 0x1A48 PUSH1 0x20 DUP4 PUSH2 0x1E9C JUMP JUMPDEST SWAP2 POP PUSH32 0x4F6E6C7920746865206F776E65722063616E207374617274206120726F756E64 PUSH1 0x0 DUP4 ADD MSTORE PUSH1 0x20 DUP3 ADD SWAP1 POP SWAP2 SWAP1 POP JUMP JUMPDEST PUSH1 0x0 PUSH2 0x1A88 PUSH1 0x2A DUP4 PUSH2 0x1E9C JUMP JUMPDEST SWAP2 POP PUSH32 0x4F6E6C7920746865206F776E65722063616E20736574207468652077696E6E69 PUSH1 0x0 DUP4 ADD MSTORE PUSH32 0x6E67206E756D6265727300000000000000000000000000000000000000000000 PUSH1 0x20 DUP4 ADD MSTORE PUSH1 0x40 DUP3 ADD SWAP1 POP SWAP2 SWAP1 POP JUMP JUMPDEST PUSH1 0x0 PUSH2 0x1AEE PUSH1 0x23 DUP4 PUSH2 0x1E9C JUMP JUMPDEST SWAP2 POP PUSH32 0x4F6E6C7920746865206F776E65722063616E2063616C63756C61746520707269 PUSH1 0x0 DUP4 ADD MSTORE PUSH32 0x7A65730000000000000000000000000000000000000000000000000000000000 PUSH1 0x20 DUP4 ADD MSTORE PUSH1 0x40 DUP3 ADD SWAP1 POP SWAP2 SWAP1 POP JUMP JUMPDEST PUSH1 0x0 PUSH2 0x1B54 PUSH1 0x28 DUP4 PUSH2 0x1E9C JUMP JUMPDEST SWAP2 POP PUSH32 0x596F75206E65656420746F207061792074686520636F7272656374207469636B PUSH1 0x0 DUP4 ADD MSTORE PUSH32 0x6574207072696365000000000000000000000000000000000000000000000000 PUSH1 0x20 DUP4 ADD MSTORE PUSH1 0x40 DUP3 ADD SWAP1 POP SWAP2 SWAP1 POP JUMP JUMPDEST PUSH1 0x0 PUSH2 0x1BBA PUSH1 0x16 DUP4 PUSH2 0x1E9C JUMP JUMPDEST SWAP2 POP PUSH32 0x4D7573742070726F766964652036206E756D6265727300000000000000000000 PUSH1 0x0 DUP4 ADD MSTORE PUSH1 0x20 DUP3 ADD SWAP1 POP SWAP2 SWAP1 POP JUMP JUMPDEST PUSH2 0x1BF6 DUP2 PUSH2 0x1EDF JUMP JUMPDEST DUP3 MSTORE POP POP JUMP JUMPDEST PUSH2 0x1C05 DUP2 PUSH2 0x1EDF JUMP JUMPDEST DUP3 MSTORE POP POP JUMP JUMPDEST PUSH2 0x1C1C PUSH2 0x1C17 DUP3 PUSH2 0x1EDF JUMP JUMPDEST PUSH2 0x1EE9 JUMP JUMPDEST DUP3 MSTORE POP POP JUMP JUMPDEST PUSH1 0x0 PUSH2 0x1C2E DUP3 DUP6 PUSH2 0x1C0B JUMP JUMPDEST PUSH1 0x20 DUP3 ADD SWAP2 POP PUSH2 0x1C3E DUP3 DUP5 PUSH2 0x1C0B JUMP JUMPDEST PUSH1 0x20 DUP3 ADD SWAP2 POP DUP2 SWAP1 POP SWAP4 SWAP3 POP POP POP JUMP JUMPDEST PUSH1 0x0 PUSH1 0x20 DUP3 ADD SWAP1 POP PUSH2 0x1C63 PUSH1 0x0 DUP4 ADD DUP5 PUSH2 0x1851 JUMP JUMPDEST SWAP3 SWAP2 POP POP JUMP JUMPDEST PUSH1 0x0 PUSH1 0xC0 DUP3 ADD SWAP1 POP PUSH2 0x1C7E PUSH1 0x0 DUP4 ADD DUP5 PUSH2 0x1860 JUMP JUMPDEST SWAP3 SWAP2 POP POP JUMP JUMPDEST PUSH1 0x0 PUSH1 0x20 DUP3 ADD SWAP1 POP DUP2 DUP2 SUB PUSH1 0x0 DUP4 ADD MSTORE PUSH2 0x1C9E DUP2 DUP5 PUSH2 0x18B7 JUMP JUMPDEST SWAP1 POP SWAP3 SWAP2 POP POP JUMP JUMPDEST PUSH1 0x0 PUSH1 0x20 DUP3 ADD SWAP1 POP DUP2 DUP2 SUB PUSH1 0x0 DUP4 ADD MSTORE PUSH2 0x1CBF DUP2 PUSH2 0x1915 JUMP JUMPDEST SWAP1 POP SWAP2 SWAP1 POP JUMP JUMPDEST PUSH1 0x0 PUSH1 0x20 DUP3 ADD SWAP1 POP DUP2 DUP2 SUB PUSH1 0x0 DUP4 ADD MSTORE PUSH2 0x1CDF DUP2 PUSH2 0x1955 JUMP JUMPDEST SWAP1 POP SWAP2 SWAP1 POP JUMP JUMPDEST PUSH1 0x0 PUSH1 0x20 DUP3 ADD SWAP1 POP DUP2 DUP2 SUB PUSH1 0x0 DUP4 ADD MSTORE PUSH2 0x1CFF DUP2 PUSH2 0x1995 JUMP JUMPDEST SWAP1 POP SWAP2 SWAP1 POP JUMP JUMPDEST PUSH1 0x0 PUSH1 0x20 DUP3 ADD SWAP1 POP DUP2 DUP2 SUB PUSH1 0x0 DUP4 ADD MSTORE PUSH2 0x1D1F DUP2 PUSH2 0x19D5 JUMP JUMPDEST SWAP1 POP SWAP2 SWAP1 POP JUMP JUMPDEST PUSH1 0x0 PUSH1 0x20 DUP3 ADD SWAP1 POP DUP2 DUP2 SUB PUSH1 0x0 DUP4 ADD MSTORE PUSH2 0x1D3F DUP2 PUSH2 0x1A3B JUMP JUMPDEST SWAP1 POP SWAP2 SWAP1 POP JUMP JUMPDEST PUSH1 0x0 PUSH1 0x20 DUP3 ADD SWAP1 POP DUP2 DUP2 SUB PUSH1 0x0 DUP4 ADD MSTORE PUSH2 0x1D5F DUP2 PUSH2 0x1A7B JUMP JUMPDEST SWAP1 POP SWAP2 SWAP1 POP JUMP JUMPDEST PUSH1 0x0 PUSH1 0x20 DUP3 ADD SWAP1 POP DUP2 DUP2 SUB PUSH1 0x0 DUP4 ADD MSTORE PUSH2 0x1D7F DUP2 PUSH2 0x1AE1 JUMP JUMPDEST SWAP1 POP SWAP2 SWAP1 POP JUMP JUMPDEST PUSH1 0x0 PUSH1 0x20 DUP3 ADD SWAP1 POP DUP2 DUP2 SUB PUSH1 0x0 DUP4 ADD MSTORE PUSH2 0x1D9F DUP2 PUSH2 0x1B47 JUMP JUMPDEST SWAP1 POP SWAP2 SWAP1 POP JUMP JUMPDEST PUSH1 0x0 PUSH1 0x20 DUP3 ADD SWAP1 POP DUP2 DUP2 SUB PUSH1 0x0 DUP4 ADD MSTORE PUSH2 0x1DBF DUP2 PUSH2 0x1BAD JUMP JUMPDEST SWAP1 POP SWAP2 SWAP1 POP JUMP JUMPDEST PUSH1 0x0 PUSH1 0x20 DUP3 ADD SWAP1 POP PUSH2 0x1DDB PUSH1 0x0 DUP4 ADD DUP5 PUSH2 0x1BFC JUMP JUMPDEST SWAP3 SWAP2 POP POP JUMP JUMPDEST PUSH1 0x0 PUSH1 0x40 MLOAD SWAP1 POP DUP2 DUP2 ADD DUP2 DUP2 LT PUSH8 0xFFFFFFFFFFFFFFFF DUP3 GT OR ISZERO PUSH2 0x1E04 JUMPI PUSH1 0x0 DUP1 REVERT JUMPDEST DUP1 PUSH1 0x40 MSTORE POP SWAP2 SWAP1 POP JUMP JUMPDEST PUSH1 0x0 PUSH8 0xFFFFFFFFFFFFFFFF DUP3 GT ISZERO PUSH2 0x1E25 JUMPI PUSH1 0x0 DUP1 REVERT JUMPDEST PUSH1 0x20 DUP3 MUL SWAP1 POP PUSH1 0x20 DUP2 ADD SWAP1 POP SWAP2 SWAP1 POP JUMP JUMPDEST PUSH1 0x0 DUP2 SWAP1 POP SWAP2 SWAP1 POP JUMP JUMPDEST PUSH1 0x0 DUP2 SWAP1 POP PUSH1 0x20 DUP3 ADD SWAP1 POP SWAP2 SWAP1 POP JUMP JUMPDEST PUSH1 0x0 PUSH1 0x6 SWAP1 POP SWAP2 SWAP1 POP JUMP JUMPDEST PUSH1 0x0 DUP2 MLOAD SWAP1 POP SWAP2 SWAP1 POP JUMP JUMPDEST PUSH1 0x0 PUSH1 0x20 DUP3 ADD SWAP1 POP SWAP2 SWAP1 POP JUMP JUMPDEST PUSH1 0x0 PUSH1 0x20 DUP3 ADD SWAP1 POP SWAP2 SWAP1 POP JUMP JUMPDEST PUSH1 0x0 DUP2 SWAP1 POP SWAP3 SWAP2 POP POP JUMP JUMPDEST PUSH1 0x0 DUP3 DUP3 MSTORE PUSH1 0x20 DUP3 ADD SWAP1 POP SWAP3 SWAP2 POP POP JUMP JUMPDEST PUSH1 0x0 DUP3 DUP3 MSTORE PUSH1 0x20 DUP3 ADD SWAP1 POP SWAP3 SWAP2 POP POP JUMP JUMPDEST PUSH1 0x0 PUSH2 0x1EB8 DUP3 PUSH2 0x1EBF JUMP JUMPDEST SWAP1 POP SWAP2 SWAP1 POP JUMP JUMPDEST PUSH1 0x0 PUSH20 0xFFFFFFFFFFFFFFFFFFFFFFFFFFFFFFFFFFFFFFFF DUP3 AND SWAP1 POP SWAP2 SWAP1 POP JUMP JUMPDEST PUSH1 0x0 DUP2 SWAP1 POP SWAP2 SWAP1 POP JUMP JUMPDEST PUSH1 0x0 DUP2 SWAP1 POP SWAP2 SWAP1 POP JUMP JUMPDEST PUSH2 0x1EFC DUP2 PUSH2 0x1EAD JUMP JUMPDEST DUP2 EQ PUSH2 0x1F07 JUMPI PUSH1 0x0 DUP1 REVERT JUMPDEST POP JUMP JUMPDEST PUSH2 0x1F13 DUP2 PUSH2 0x1EDF JUMP JUMPDEST DUP2 EQ PUSH2 0x1F1E JUMPI PUSH1 0x0 DUP1 REVERT JUMPDEST POP JUMP INVALID LOG2 PUSH5 0x6970667358 0x22 SLT KECCAK256 SMOD INVALID ADD SDIV REVERT JUMPI DUP1 JUMPI 0x4E 0x5E DUP9 0x25 BALANCE SWAP8 0xFB DELEGATECALL SELFDESTRUCT NOT CREATE2 SAR GASLIMIT DUP10 GASLIMIT 0xFC 0xA8 STOP PUSH20 0x5A1D16FA3764736F6C634300060C003300000000 "
				},
				"gasEstimates": {
					"creation": {
						"codeDepositCost": "1604600",
						"executionCost": "62574",
						"totalCost": "1667174"
					},
					"external": {
						"burnAmount()": "1196",
						"burnPool()": "1195",
						"buyTicket(uint256[])": "infinite",
						"calculatePrizes()": "infinite",
						"claimPrizes(uint256[])": "infinite",
						"distributePrizes()": "infinite",
						"endRound()": "infinite",
						"getTicketsBoughtCount()": "1257",
						"getWinningNumbers()": "infinite",
						"owner()": "1233",
						"prizePools(uint256,uint256)": "infinite",
						"setWinningNumbers()": "infinite",
						"setWinningNumbers(uint256[])": "infinite",
						"startRound()": "infinite",
						"ticketPrice()": "1175",
						"tickets(address,uint256,uint256)": "infinite",
						"totalPrizePool()": "1174",
						"viewTickets(uint256)": "infinite",
						"winningNumbers(uint256)": "infinite"
					}
				},
				"methodIdentifiers": {
					"burnAmount()": "486a7e6b",
					"burnPool()": "a54b2a73",
					"buyTicket(uint256[])": "716cac96",
					"calculatePrizes()": "8e7e9a3c",
					"claimPrizes(uint256[])": "2869f35a",
					"distributePrizes()": "7ce52eb6",
					"endRound()": "749aa2d9",
					"getTicketsBoughtCount()": "6c0d87fe",
					"getWinningNumbers()": "84350e1d",
					"owner()": "8da5cb5b",
					"prizePools(uint256,uint256)": "1b646259",
					"setWinningNumbers()": "a7caba25",
					"setWinningNumbers(uint256[])": "1004b18d",
					"startRound()": "55e3f086",
					"ticketPrice()": "1209b1f6",
					"tickets(address,uint256,uint256)": "2115f4d1",
					"totalPrizePool()": "398ab9a7",
					"viewTickets(uint256)": "ab3eb60e",
					"winningNumbers(uint256)": "4e45f095"
				}
			},
			"storageLayout": {
				"storage": [
					{
						"astId": 4,
						"contract": "Lottery/lotteryPancake.sol:PancakeLottery",
						"label": "owner",
						"offset": 0,
						"slot": "0",
						"type": "t_address"
					},
					{
						"astId": 6,
						"contract": "Lottery/lotteryPancake.sol:PancakeLottery",
						"label": "ticketPrice",
						"offset": 0,
						"slot": "1",
						"type": "t_uint256"
					},
					{
						"astId": 12,
						"contract": "Lottery/lotteryPancake.sol:PancakeLottery",
						"label": "tickets",
						"offset": 0,
						"slot": "2",
						"type": "t_mapping(t_address,t_array(t_array(t_uint256)dyn_storage)dyn_storage)"
					},
					{
						"astId": 15,
						"contract": "Lottery/lotteryPancake.sol:PancakeLottery",
						"label": "winningNumbers",
						"offset": 0,
						"slot": "3",
						"type": "t_array(t_uint256)dyn_storage"
					},
					{
						"astId": 20,
						"contract": "Lottery/lotteryPancake.sol:PancakeLottery",
						"label": "prizePools",
						"offset": 0,
						"slot": "4",
						"type": "t_mapping(t_uint256,t_array(t_uint256)dyn_storage)"
					},
					{
						"astId": 22,
						"contract": "Lottery/lotteryPancake.sol:PancakeLottery",
						"label": "totalPrizePool",
						"offset": 0,
						"slot": "5",
						"type": "t_uint256"
					},
					{
						"astId": 24,
						"contract": "Lottery/lotteryPancake.sol:PancakeLottery",
						"label": "burnPool",
						"offset": 0,
						"slot": "6",
						"type": "t_uint256"
					},
					{
						"astId": 26,
						"contract": "Lottery/lotteryPancake.sol:PancakeLottery",
						"label": "burnAmount",
						"offset": 0,
						"slot": "7",
						"type": "t_uint256"
					}
				],
				"types": {
					"t_address": {
						"encoding": "inplace",
						"label": "address",
						"numberOfBytes": "20"
					},
					"t_array(t_array(t_uint256)dyn_storage)dyn_storage": {
						"base": "t_array(t_uint256)dyn_storage",
						"encoding": "dynamic_array",
						"label": "uint256[][]",
						"numberOfBytes": "32"
					},
					"t_array(t_uint256)dyn_storage": {
						"base": "t_uint256",
						"encoding": "dynamic_array",
						"label": "uint256[]",
						"numberOfBytes": "32"
					},
					"t_mapping(t_address,t_array(t_array(t_uint256)dyn_storage)dyn_storage)": {
						"encoding": "mapping",
						"key": "t_address",
						"label": "mapping(address => uint256[][])",
						"numberOfBytes": "32",
						"value": "t_array(t_array(t_uint256)dyn_storage)dyn_storage"
					},
					"t_mapping(t_uint256,t_array(t_uint256)dyn_storage)": {
						"encoding": "mapping",
						"key": "t_uint256",
						"label": "mapping(uint256 => uint256[])",
						"numberOfBytes": "32",
						"value": "t_array(t_uint256)dyn_storage"
					},
					"t_uint256": {
						"encoding": "inplace",
						"label": "uint256",
						"numberOfBytes": "32"
					}
				}
			},
			"userdoc": {
				"kind": "user",
				"methods": {},
				"version": 1
			}
		}
	}
}