{
	"UZHPancakeLottery/UZHPancakeLottery.sol": {
		"UZHPancakeLottery": {
			"abi": [
				{
					"inputs": [],
					"stateMutability": "nonpayable",
					"type": "constructor"
				},
				{
					"inputs": [],
					"name": "EndLottery",
					"outputs": [],
					"stateMutability": "nonpayable",
					"type": "function"
				},
				{
					"inputs": [],
					"name": "NrticketsBought",
					"outputs": [
						{
							"internalType": "uint256",
							"name": "",
							"type": "uint256"
						}
					],
					"stateMutability": "view",
					"type": "function"
				},
				{
					"inputs": [],
					"name": "Pull",
					"outputs": [],
					"stateMutability": "nonpayable",
					"type": "function"
				},
				{
					"inputs": [
						{
							"internalType": "uint256[]",
							"name": "ticketNumbers",
							"type": "uint256[]"
						}
					],
					"name": "buyTicket",
					"outputs": [],
					"stateMutability": "payable",
					"type": "function"
				},
				{
					"inputs": [
						{
							"internalType": "uint256",
							"name": "_price",
							"type": "uint256"
						}
					],
					"name": "changeTicketPrice",
					"outputs": [],
					"stateMutability": "nonpayable",
					"type": "function"
				},
				{
					"inputs": [],
					"name": "getMyTicketNumbers",
					"outputs": [
						{
							"internalType": "uint256[]",
							"name": "",
							"type": "uint256[]"
						}
					],
					"stateMutability": "view",
					"type": "function"
				},
				{
					"inputs": [],
					"name": "getTicketPrice",
					"outputs": [
						{
							"internalType": "uint256",
							"name": "",
							"type": "uint256"
						}
					],
					"stateMutability": "view",
					"type": "function"
				},
				{
					"inputs": [],
					"name": "getTotalLotteryPot",
					"outputs": [
						{
							"internalType": "uint256",
							"name": "",
							"type": "uint256"
						}
					],
					"stateMutability": "view",
					"type": "function"
				},
				{
					"inputs": [],
					"name": "getWinningNumber",
					"outputs": [
						{
							"internalType": "uint256[]",
							"name": "",
							"type": "uint256[]"
						}
					],
					"stateMutability": "view",
					"type": "function"
				},
				{
					"inputs": [],
					"name": "lotteryStarted",
					"outputs": [
						{
							"internalType": "bool",
							"name": "",
							"type": "bool"
						}
					],
					"stateMutability": "view",
					"type": "function"
				},
				{
					"inputs": [],
					"name": "owner",
					"outputs": [
						{
							"internalType": "address",
							"name": "",
							"type": "address"
						}
					],
					"stateMutability": "view",
					"type": "function"
				},
				{
					"inputs": [
						{
							"internalType": "uint256",
							"name": "",
							"type": "uint256"
						}
					],
					"name": "playersAddresses",
					"outputs": [
						{
							"internalType": "address",
							"name": "",
							"type": "address"
						}
					],
					"stateMutability": "view",
					"type": "function"
				},
				{
					"inputs": [],
					"name": "setWinningNumbers",
					"outputs": [],
					"stateMutability": "nonpayable",
					"type": "function"
				}
			],
			"devdoc": {
				"kind": "dev",
				"methods": {},
				"version": 1
			},
			"evm": {
				"assembly": "    /* \"UZHPancakeLottery/UZHPancakeLottery.sol\":256:7385  contract UZHPancakeLottery {... */\n  mstore(0x40, 0x80)\n    /* \"UZHPancakeLottery/UZHPancakeLottery.sol\":607:614  5 ether */\n  0x4563918244f40000\n    /* \"UZHPancakeLottery/UZHPancakeLottery.sol\":586:614  uint private price = 5 ether */\n  0x03\n  sstore\n    /* \"UZHPancakeLottery/UZHPancakeLottery.sol\":772:773  0 */\n  0x00\n    /* \"UZHPancakeLottery/UZHPancakeLottery.sol\":742:773  uint public NrticketsBought = 0 */\n  0x05\n  sstore\n    /* \"UZHPancakeLottery/UZHPancakeLottery.sol\":961:966  false */\n  0x00\n    /* \"UZHPancakeLottery/UZHPancakeLottery.sol\":932:966  bool public lotteryStarted = false */\n  0x07\n  exp(0x0100, 0x00)\n  dup2\n  sload\n  dup2\n  0xff\n  mul\n  not\n  and\n  swap1\n  dup4\n  iszero\n  iszero\n  mul\n  or\n  swap1\n  sstore\n  pop\n    /* \"UZHPancakeLottery/UZHPancakeLottery.sol\":1052:1110  constructor() public {... */\n  callvalue\n  dup1\n  iszero\n  tag_1\n  jumpi\n  0x00\n  dup1\n  revert\ntag_1:\n  pop\n    /* \"UZHPancakeLottery/UZHPancakeLottery.sol\":1092:1102  msg.sender */\n  caller\n    /* \"UZHPancakeLottery/UZHPancakeLottery.sol\":1084:1089  owner */\n  0x00\n  dup1\n    /* \"UZHPancakeLottery/UZHPancakeLottery.sol\":1084:1102  owner = msg.sender */\n  0x0100\n  exp\n  dup2\n  sload\n  dup2\n  0xffffffffffffffffffffffffffffffffffffffff\n  mul\n  not\n  and\n  swap1\n  dup4\n  0xffffffffffffffffffffffffffffffffffffffff\n  and\n  mul\n  or\n  swap1\n  sstore\n  pop\n    /* \"UZHPancakeLottery/UZHPancakeLottery.sol\":256:7385  contract UZHPancakeLottery {... */\n  dataSize(sub_0)\n  dup1\n  dataOffset(sub_0)\n  0x00\n  codecopy\n  0x00\n  return\nstop\n\nsub_0: assembly {\n        /* \"UZHPancakeLottery/UZHPancakeLottery.sol\":256:7385  contract UZHPancakeLottery {... */\n      mstore(0x40, 0x80)\n      jumpi(tag_1, lt(calldatasize, 0x04))\n      shr(0xe0, calldataload(0x00))\n      dup1\n      0x8a4a29c3\n      gt\n      tag_15\n      jumpi\n      dup1\n      0xa650fbab\n      gt\n      tag_16\n      jumpi\n      dup1\n      0xa650fbab\n      eq\n      tag_11\n      jumpi\n      dup1\n      0xa7caba25\n      eq\n      tag_12\n      jumpi\n      dup1\n      0xb04a3f1c\n      eq\n      tag_13\n      jumpi\n      dup1\n      0xd386ea73\n      eq\n      tag_14\n      jumpi\n      jump(tag_1)\n    tag_16:\n      dup1\n      0x8a4a29c3\n      eq\n      tag_8\n      jumpi\n      dup1\n      0x8b0b9ed4\n      eq\n      tag_9\n      jumpi\n      dup1\n      0x8da5cb5b\n      eq\n      tag_10\n      jumpi\n      jump(tag_1)\n    tag_15:\n      dup1\n      0x30daec49\n      eq\n      tag_2\n      jumpi\n      dup1\n      0x4630a0ee\n      eq\n      tag_3\n      jumpi\n      dup1\n      0x472016da\n      eq\n      tag_4\n      jumpi\n      dup1\n      0x5a3811b9\n      eq\n      tag_5\n      jumpi\n      dup1\n      0x716cac96\n      eq\n      tag_6\n      jumpi\n      dup1\n      0x87bb7ae0\n      eq\n      tag_7\n      jumpi\n    tag_1:\n      0x00\n      dup1\n      revert\n        /* \"UZHPancakeLottery/UZHPancakeLottery.sol\":6907:7380  function Pull() public onlyOwner {... */\n    tag_2:\n      callvalue\n      dup1\n      iszero\n      tag_17\n      jumpi\n      0x00\n      dup1\n      revert\n    tag_17:\n      pop\n      tag_18\n      tag_19\n      jump\t// in\n    tag_18:\n      stop\n        /* \"UZHPancakeLottery/UZHPancakeLottery.sol\":1362:1462  function changeTicketPrice(uint _price) public onlyOwner {... */\n    tag_3:\n      callvalue\n      dup1\n      iszero\n      tag_20\n      jumpi\n      0x00\n      dup1\n      revert\n    tag_20:\n      pop\n      tag_21\n      0x04\n      dup1\n      calldatasize\n      sub\n      dup2\n      add\n      swap1\n      tag_22\n      swap2\n      swap1\n      tag_23\n      jump\t// in\n    tag_22:\n      tag_24\n      jump\t// in\n    tag_21:\n      stop\n        /* \"UZHPancakeLottery/UZHPancakeLottery.sol\":835:869  address [] public playersAddresses */\n    tag_4:\n      callvalue\n      dup1\n      iszero\n      tag_25\n      jumpi\n      0x00\n      dup1\n      revert\n    tag_25:\n      pop\n      tag_26\n      0x04\n      dup1\n      calldatasize\n      sub\n      dup2\n      add\n      swap1\n      tag_27\n      swap2\n      swap1\n      tag_23\n      jump\t// in\n    tag_27:\n      tag_28\n      jump\t// in\n    tag_26:\n      mload(0x40)\n      tag_29\n      swap2\n      swap1\n      tag_30\n      jump\t// in\n    tag_29:\n      mload(0x40)\n      dup1\n      swap2\n      sub\n      swap1\n      return\n        /* \"UZHPancakeLottery/UZHPancakeLottery.sol\":932:966  bool public lotteryStarted = false */\n    tag_5:\n      callvalue\n      dup1\n      iszero\n      tag_31\n      jumpi\n      0x00\n      dup1\n      revert\n    tag_31:\n      pop\n      tag_32\n      tag_33\n      jump\t// in\n    tag_32:\n      mload(0x40)\n      tag_34\n      swap2\n      swap1\n      tag_35\n      jump\t// in\n    tag_34:\n      mload(0x40)\n      dup1\n      swap2\n      sub\n      swap1\n      return\n        /* \"UZHPancakeLottery/UZHPancakeLottery.sol\":2627:3759  function buyTicket(uint[] memory ticketNumbers) public payable {... */\n    tag_6:\n      tag_36\n      0x04\n      dup1\n      calldatasize\n      sub\n      dup2\n      add\n      swap1\n      tag_37\n      swap2\n      swap1\n      tag_38\n      jump\t// in\n    tag_37:\n      tag_39\n      jump\t// in\n    tag_36:\n      stop\n        /* \"UZHPancakeLottery/UZHPancakeLottery.sol\":1517:1611  function getTicketPrice() public view returns (uint) {... */\n    tag_7:\n      callvalue\n      dup1\n      iszero\n      tag_40\n      jumpi\n      0x00\n      dup1\n      revert\n    tag_40:\n      pop\n      tag_41\n      tag_42\n      jump\t// in\n    tag_41:\n      mload(0x40)\n      tag_43\n      swap2\n      swap1\n      tag_44\n      jump\t// in\n    tag_43:\n      mload(0x40)\n      dup1\n      swap2\n      sub\n      swap1\n      return\n        /* \"UZHPancakeLottery/UZHPancakeLottery.sol\":1691:1799  function getTotalLotteryPot() public view returns (uint) {... */\n    tag_8:\n      callvalue\n      dup1\n      iszero\n      tag_45\n      jumpi\n      0x00\n      dup1\n      revert\n    tag_45:\n      pop\n      tag_46\n      tag_47\n      jump\t// in\n    tag_46:\n      mload(0x40)\n      tag_48\n      swap2\n      swap1\n      tag_44\n      jump\t// in\n    tag_48:\n      mload(0x40)\n      dup1\n      swap2\n      sub\n      swap1\n      return\n        /* \"UZHPancakeLottery/UZHPancakeLottery.sol\":2473:2586  function getWinningNumber() public view onlyOwner returns (uint[] memory) {... */\n    tag_9:\n      callvalue\n      dup1\n      iszero\n      tag_49\n      jumpi\n      0x00\n      dup1\n      revert\n    tag_49:\n      pop\n      tag_50\n      tag_51\n      jump\t// in\n    tag_50:\n      mload(0x40)\n      tag_52\n      swap2\n      swap1\n      tag_53\n      jump\t// in\n    tag_52:\n      mload(0x40)\n      dup1\n      swap2\n      sub\n      swap1\n      return\n        /* \"UZHPancakeLottery/UZHPancakeLottery.sol\":335:355  address public owner */\n    tag_10:\n      callvalue\n      dup1\n      iszero\n      tag_54\n      jumpi\n      0x00\n      dup1\n      revert\n    tag_54:\n      pop\n      tag_55\n      tag_56\n      jump\t// in\n    tag_55:\n      mload(0x40)\n      tag_57\n      swap2\n      swap1\n      tag_30\n      jump\t// in\n    tag_57:\n      mload(0x40)\n      dup1\n      swap2\n      sub\n      swap1\n      return\n        /* \"UZHPancakeLottery/UZHPancakeLottery.sol\":3827:3945  function getMyTicketNumbers() public view returns (uint[] memory) {... */\n    tag_11:\n      callvalue\n      dup1\n      iszero\n      tag_58\n      jumpi\n      0x00\n      dup1\n      revert\n    tag_58:\n      pop\n      tag_59\n      tag_60\n      jump\t// in\n    tag_59:\n      mload(0x40)\n      tag_61\n      swap2\n      swap1\n      tag_53\n      jump\t// in\n    tag_61:\n      mload(0x40)\n      dup1\n      swap2\n      sub\n      swap1\n      return\n        /* \"UZHPancakeLottery/UZHPancakeLottery.sol\":1860:2374  function setWinningNumbers() public onlyOwner {... */\n    tag_12:\n      callvalue\n      dup1\n      iszero\n      tag_62\n      jumpi\n      0x00\n      dup1\n      revert\n    tag_62:\n      pop\n      tag_63\n      tag_64\n      jump\t// in\n    tag_63:\n      stop\n        /* \"UZHPancakeLottery/UZHPancakeLottery.sol\":3994:6832  function EndLottery() public onlyOwner{... */\n    tag_13:\n      callvalue\n      dup1\n      iszero\n      tag_65\n      jumpi\n      0x00\n      dup1\n      revert\n    tag_65:\n      pop\n      tag_66\n      tag_67\n      jump\t// in\n    tag_66:\n      stop\n        /* \"UZHPancakeLottery/UZHPancakeLottery.sol\":742:773  uint public NrticketsBought = 0 */\n    tag_14:\n      callvalue\n      dup1\n      iszero\n      tag_68\n      jumpi\n      0x00\n      dup1\n      revert\n    tag_68:\n      pop\n      tag_69\n      tag_70\n      jump\t// in\n    tag_69:\n      mload(0x40)\n      tag_71\n      swap2\n      swap1\n      tag_44\n      jump\t// in\n    tag_71:\n      mload(0x40)\n      dup1\n      swap2\n      sub\n      swap1\n      return\n        /* \"UZHPancakeLottery/UZHPancakeLottery.sol\":6907:7380  function Pull() public onlyOwner {... */\n    tag_19:\n        /* \"UZHPancakeLottery/UZHPancakeLottery.sol\":1240:1245  owner */\n      0x00\n      dup1\n      sload\n      swap1\n      0x0100\n      exp\n      swap1\n      div\n      0xffffffffffffffffffffffffffffffffffffffff\n      and\n        /* \"UZHPancakeLottery/UZHPancakeLottery.sol\":1226:1245  msg.sender == owner */\n      0xffffffffffffffffffffffffffffffffffffffff\n      and\n        /* \"UZHPancakeLottery/UZHPancakeLottery.sol\":1226:1236  msg.sender */\n      caller\n        /* \"UZHPancakeLottery/UZHPancakeLottery.sol\":1226:1245  msg.sender == owner */\n      0xffffffffffffffffffffffffffffffffffffffff\n      and\n      eq\n        /* \"UZHPancakeLottery/UZHPancakeLottery.sol\":1218:1288  require(msg.sender == owner, \"Only the owner can perform this action\") */\n      tag_73\n      jumpi\n      mload(0x40)\n      0x08c379a000000000000000000000000000000000000000000000000000000000\n      dup2\n      mstore\n      0x04\n      add\n      tag_74\n      swap1\n      tag_75\n      jump\t// in\n    tag_74:\n      mload(0x40)\n      dup1\n      swap2\n      sub\n      swap1\n      revert\n    tag_73:\n        /* \"UZHPancakeLottery/UZHPancakeLottery.sol\":7013:7041  address payable ownerpayable */\n      0x00\n        /* \"UZHPancakeLottery/UZHPancakeLottery.sol\":7052:7057  owner */\n      dup1\n      0x00\n      swap1\n      sload\n      swap1\n      0x0100\n      exp\n      swap1\n      div\n      0xffffffffffffffffffffffffffffffffffffffff\n      and\n        /* \"UZHPancakeLottery/UZHPancakeLottery.sol\":7013:7058  address payable ownerpayable = payable(owner) */\n      swap1\n      pop\n        /* \"UZHPancakeLottery/UZHPancakeLottery.sol\":7162:7163  0 */\n      0x00\n        /* \"UZHPancakeLottery/UZHPancakeLottery.sol\":7144:7159  TotalLotteryPot */\n      sload(0x04)\n        /* \"UZHPancakeLottery/UZHPancakeLottery.sol\":7144:7163  TotalLotteryPot > 0 */\n      gt\n        /* \"UZHPancakeLottery/UZHPancakeLottery.sol\":7136:7188  require(TotalLotteryPot > 0, \"No Ether to pull out\") */\n      tag_77\n      jumpi\n      mload(0x40)\n      0x08c379a000000000000000000000000000000000000000000000000000000000\n      dup2\n      mstore\n      0x04\n      add\n      tag_78\n      swap1\n      tag_79\n      jump\t// in\n    tag_78:\n      mload(0x40)\n      dup1\n      swap2\n      sub\n      swap1\n      revert\n    tag_77:\n        /* \"UZHPancakeLottery/UZHPancakeLottery.sol\":7257:7269  ownerpayable */\n      dup1\n        /* \"UZHPancakeLottery/UZHPancakeLottery.sol\":7257:7278  ownerpayable.transfer */\n      0xffffffffffffffffffffffffffffffffffffffff\n      and\n        /* \"UZHPancakeLottery/UZHPancakeLottery.sol\":7257:7295  ownerpayable.transfer(TotalLotteryPot) */\n      0x08fc\n        /* \"UZHPancakeLottery/UZHPancakeLottery.sol\":7279:7294  TotalLotteryPot */\n      sload(0x04)\n        /* \"UZHPancakeLottery/UZHPancakeLottery.sol\":7257:7295  ownerpayable.transfer(TotalLotteryPot) */\n      swap1\n      dup2\n      iszero\n      mul\n      swap1\n      mload(0x40)\n      0x00\n      mload(0x40)\n      dup1\n      dup4\n      sub\n      dup2\n      dup6\n      dup9\n      dup9\n      call\n      swap4\n      pop\n      pop\n      pop\n      pop\n      iszero\n      dup1\n      iszero\n      tag_81\n      jumpi\n      returndatasize\n      0x00\n      dup1\n      returndatacopy\n      revert(0x00, returndatasize)\n    tag_81:\n      pop\n        /* \"UZHPancakeLottery/UZHPancakeLottery.sol\":7371:7372  0 */\n      0x00\n        /* \"UZHPancakeLottery/UZHPancakeLottery.sol\":7353:7368  TotalLotteryPot */\n      0x04\n        /* \"UZHPancakeLottery/UZHPancakeLottery.sol\":7353:7372  TotalLotteryPot = 0 */\n      dup2\n      swap1\n      sstore\n      pop\n        /* \"UZHPancakeLottery/UZHPancakeLottery.sol\":6940:7380  {... */\n      pop\n        /* \"UZHPancakeLottery/UZHPancakeLottery.sol\":6907:7380  function Pull() public onlyOwner {... */\n      jump\t// out\n        /* \"UZHPancakeLottery/UZHPancakeLottery.sol\":1362:1462  function changeTicketPrice(uint _price) public onlyOwner {... */\n    tag_24:\n        /* \"UZHPancakeLottery/UZHPancakeLottery.sol\":1240:1245  owner */\n      0x00\n      dup1\n      sload\n      swap1\n      0x0100\n      exp\n      swap1\n      div\n      0xffffffffffffffffffffffffffffffffffffffff\n      and\n        /* \"UZHPancakeLottery/UZHPancakeLottery.sol\":1226:1245  msg.sender == owner */\n      0xffffffffffffffffffffffffffffffffffffffff\n      and\n        /* \"UZHPancakeLottery/UZHPancakeLottery.sol\":1226:1236  msg.sender */\n      caller\n        /* \"UZHPancakeLottery/UZHPancakeLottery.sol\":1226:1245  msg.sender == owner */\n      0xffffffffffffffffffffffffffffffffffffffff\n      and\n      eq\n        /* \"UZHPancakeLottery/UZHPancakeLottery.sol\":1218:1288  require(msg.sender == owner, \"Only the owner can perform this action\") */\n      tag_83\n      jumpi\n      mload(0x40)\n      0x08c379a000000000000000000000000000000000000000000000000000000000\n      dup2\n      mstore\n      0x04\n      add\n      tag_84\n      swap1\n      tag_75\n      jump\t// in\n    tag_84:\n      mload(0x40)\n      dup1\n      swap2\n      sub\n      swap1\n      revert\n    tag_83:\n        /* \"UZHPancakeLottery/UZHPancakeLottery.sol\":1447:1454  1 ether */\n      0x0de0b6b3a7640000\n        /* \"UZHPancakeLottery/UZHPancakeLottery.sol\":1438:1444  _price */\n      dup2\n        /* \"UZHPancakeLottery/UZHPancakeLottery.sol\":1438:1454  _price * 1 ether */\n      tag_86\n      swap2\n      swap1\n      tag_87\n      jump\t// in\n    tag_86:\n        /* \"UZHPancakeLottery/UZHPancakeLottery.sol\":1430:1435  price */\n      0x03\n        /* \"UZHPancakeLottery/UZHPancakeLottery.sol\":1430:1454  price = _price * 1 ether */\n      dup2\n      swap1\n      sstore\n      pop\n        /* \"UZHPancakeLottery/UZHPancakeLottery.sol\":1362:1462  function changeTicketPrice(uint _price) public onlyOwner {... */\n      pop\n      jump\t// out\n        /* \"UZHPancakeLottery/UZHPancakeLottery.sol\":835:869  address [] public playersAddresses */\n    tag_28:\n      0x06\n      dup2\n      dup2\n      sload\n      dup2\n      lt\n      tag_88\n      jumpi\n      0x00\n      dup1\n      revert\n    tag_88:\n      swap1\n      0x00\n      mstore\n      keccak256(0x00, 0x20)\n      add\n      0x00\n      swap2\n      pop\n      sload\n      swap1\n      0x0100\n      exp\n      swap1\n      div\n      0xffffffffffffffffffffffffffffffffffffffff\n      and\n      dup2\n      jump\t// out\n        /* \"UZHPancakeLottery/UZHPancakeLottery.sol\":932:966  bool public lotteryStarted = false */\n    tag_33:\n      0x07\n      0x00\n      swap1\n      sload\n      swap1\n      0x0100\n      exp\n      swap1\n      div\n      0xff\n      and\n      dup2\n      jump\t// out\n        /* \"UZHPancakeLottery/UZHPancakeLottery.sol\":2627:3759  function buyTicket(uint[] memory ticketNumbers) public payable {... */\n    tag_39:\n        /* \"UZHPancakeLottery/UZHPancakeLottery.sol\":2803:2808  price */\n      sload(0x03)\n        /* \"UZHPancakeLottery/UZHPancakeLottery.sol\":2790:2799  msg.value */\n      callvalue\n        /* \"UZHPancakeLottery/UZHPancakeLottery.sol\":2790:2808  msg.value == price */\n      eq\n        /* \"UZHPancakeLottery/UZHPancakeLottery.sol\":2782:2825  require(msg.value == price, \"Wrong amount\") */\n      tag_91\n      jumpi\n      mload(0x40)\n      0x08c379a000000000000000000000000000000000000000000000000000000000\n      dup2\n      mstore\n      0x04\n      add\n      tag_92\n      swap1\n      tag_93\n      jump\t// in\n    tag_92:\n      mload(0x40)\n      dup1\n      swap2\n      sub\n      swap1\n      revert\n    tag_91:\n        /* \"UZHPancakeLottery/UZHPancakeLottery.sol\":2927:2928  6 */\n      0x06\n        /* \"UZHPancakeLottery/UZHPancakeLottery.sol\":2903:2916  ticketNumbers */\n      dup2\n        /* \"UZHPancakeLottery/UZHPancakeLottery.sol\":2903:2923  ticketNumbers.length */\n      mload\n        /* \"UZHPancakeLottery/UZHPancakeLottery.sol\":2903:2928  ticketNumbers.length == 6 */\n      eq\n        /* \"UZHPancakeLottery/UZHPancakeLottery.sol\":2895:2956  require(ticketNumbers.length == 6, \"Wrong number of numbers\") */\n      tag_94\n      jumpi\n      mload(0x40)\n      0x08c379a000000000000000000000000000000000000000000000000000000000\n      dup2\n      mstore\n      0x04\n      add\n      tag_95\n      swap1\n      tag_96\n      jump\t// in\n    tag_95:\n      mload(0x40)\n      dup1\n      swap2\n      sub\n      swap1\n      revert\n    tag_94:\n        /* \"UZHPancakeLottery/UZHPancakeLottery.sol\":3040:3046  uint i */\n      0x00\n        /* \"UZHPancakeLottery/UZHPancakeLottery.sol\":3035:3181  for (uint i = 0; i < ticketNumbers.length; i++) {... */\n    tag_97:\n        /* \"UZHPancakeLottery/UZHPancakeLottery.sol\":3056:3069  ticketNumbers */\n      dup2\n        /* \"UZHPancakeLottery/UZHPancakeLottery.sol\":3056:3076  ticketNumbers.length */\n      mload\n        /* \"UZHPancakeLottery/UZHPancakeLottery.sol\":3052:3053  i */\n      dup2\n        /* \"UZHPancakeLottery/UZHPancakeLottery.sol\":3052:3076  i < ticketNumbers.length */\n      lt\n        /* \"UZHPancakeLottery/UZHPancakeLottery.sol\":3035:3181  for (uint i = 0; i < ticketNumbers.length; i++) {... */\n      iszero\n      tag_98\n      jumpi\n        /* \"UZHPancakeLottery/UZHPancakeLottery.sol\":3125:3127  10 */\n      0x0a\n        /* \"UZHPancakeLottery/UZHPancakeLottery.sol\":3106:3119  ticketNumbers */\n      dup3\n        /* \"UZHPancakeLottery/UZHPancakeLottery.sol\":3120:3121  i */\n      dup3\n        /* \"UZHPancakeLottery/UZHPancakeLottery.sol\":3106:3122  ticketNumbers[i] */\n      dup2\n      mload\n      dup2\n      lt\n      tag_100\n      jumpi\n      tag_101\n      tag_102\n      jump\t// in\n    tag_101:\n    tag_100:\n      0x20\n      mul\n      0x20\n      add\n      add\n      mload\n        /* \"UZHPancakeLottery/UZHPancakeLottery.sol\":3106:3127  ticketNumbers[i] < 10 */\n      lt\n        /* \"UZHPancakeLottery/UZHPancakeLottery.sol\":3106:3152  ticketNumbers[i] < 10 && ticketNumbers[i] >= 0 */\n      dup1\n      iszero\n      tag_103\n      jumpi\n      pop\n        /* \"UZHPancakeLottery/UZHPancakeLottery.sol\":3151:3152  0 */\n      0x00\n        /* \"UZHPancakeLottery/UZHPancakeLottery.sol\":3131:3144  ticketNumbers */\n      dup3\n        /* \"UZHPancakeLottery/UZHPancakeLottery.sol\":3145:3146  i */\n      dup3\n        /* \"UZHPancakeLottery/UZHPancakeLottery.sol\":3131:3147  ticketNumbers[i] */\n      dup2\n      mload\n      dup2\n      lt\n      tag_104\n      jumpi\n      tag_105\n      tag_102\n      jump\t// in\n    tag_105:\n    tag_104:\n      0x20\n      mul\n      0x20\n      add\n      add\n      mload\n        /* \"UZHPancakeLottery/UZHPancakeLottery.sol\":3131:3152  ticketNumbers[i] >= 0 */\n      lt\n      iszero\n        /* \"UZHPancakeLottery/UZHPancakeLottery.sol\":3106:3152  ticketNumbers[i] < 10 && ticketNumbers[i] >= 0 */\n    tag_103:\n        /* \"UZHPancakeLottery/UZHPancakeLottery.sol\":3098:3169  require(ticketNumbers[i] < 10 && ticketNumbers[i] >= 0, \"Wrong number\") */\n      tag_106\n      jumpi\n      mload(0x40)\n      0x08c379a000000000000000000000000000000000000000000000000000000000\n      dup2\n      mstore\n      0x04\n      add\n      tag_107\n      swap1\n      tag_108\n      jump\t// in\n    tag_107:\n      mload(0x40)\n      dup1\n      swap2\n      sub\n      swap1\n      revert\n    tag_106:\n        /* \"UZHPancakeLottery/UZHPancakeLottery.sol\":3078:3081  i++ */\n      dup1\n      dup1\n      tag_109\n      swap1\n      tag_110\n      jump\t// in\n    tag_109:\n      swap2\n      pop\n      pop\n        /* \"UZHPancakeLottery/UZHPancakeLottery.sol\":3035:3181  for (uint i = 0; i < ticketNumbers.length; i++) {... */\n      jump(tag_97)\n    tag_98:\n      pop\n        /* \"UZHPancakeLottery/UZHPancakeLottery.sol\":3308:3309  0 */\n      0x00\n        /* \"UZHPancakeLottery/UZHPancakeLottery.sol\":3271:3285  playersTickets */\n      0x02\n        /* \"UZHPancakeLottery/UZHPancakeLottery.sol\":3271:3297  playersTickets[msg.sender] */\n      0x00\n        /* \"UZHPancakeLottery/UZHPancakeLottery.sol\":3286:3296  msg.sender */\n      caller\n        /* \"UZHPancakeLottery/UZHPancakeLottery.sol\":3271:3297  playersTickets[msg.sender] */\n      0xffffffffffffffffffffffffffffffffffffffff\n      and\n      0xffffffffffffffffffffffffffffffffffffffff\n      and\n      dup2\n      mstore\n      0x20\n      add\n      swap1\n      dup2\n      mstore\n      0x20\n      add\n      0x00\n      keccak256\n        /* \"UZHPancakeLottery/UZHPancakeLottery.sol\":3271:3304  playersTickets[msg.sender].length */\n      dup1\n      sload\n      swap1\n      pop\n        /* \"UZHPancakeLottery/UZHPancakeLottery.sol\":3271:3309  playersTickets[msg.sender].length == 0 */\n      eq\n        /* \"UZHPancakeLottery/UZHPancakeLottery.sol\":3263:3346  require(playersTickets[msg.sender].length == 0, \"You have already bought a ticket\") */\n      tag_111\n      jumpi\n      mload(0x40)\n      0x08c379a000000000000000000000000000000000000000000000000000000000\n      dup2\n      mstore\n      0x04\n      add\n      tag_112\n      swap1\n      tag_113\n      jump\t// in\n    tag_112:\n      mload(0x40)\n      dup1\n      swap2\n      sub\n      swap1\n      revert\n    tag_111:\n        /* \"UZHPancakeLottery/UZHPancakeLottery.sol\":3451:3464  ticketNumbers */\n      dup1\n        /* \"UZHPancakeLottery/UZHPancakeLottery.sol\":3422:3436  playersTickets */\n      0x02\n        /* \"UZHPancakeLottery/UZHPancakeLottery.sol\":3422:3448  playersTickets[msg.sender] */\n      0x00\n        /* \"UZHPancakeLottery/UZHPancakeLottery.sol\":3437:3447  msg.sender */\n      caller\n        /* \"UZHPancakeLottery/UZHPancakeLottery.sol\":3422:3448  playersTickets[msg.sender] */\n      0xffffffffffffffffffffffffffffffffffffffff\n      and\n      0xffffffffffffffffffffffffffffffffffffffff\n      and\n      dup2\n      mstore\n      0x20\n      add\n      swap1\n      dup2\n      mstore\n      0x20\n      add\n      0x00\n      keccak256\n        /* \"UZHPancakeLottery/UZHPancakeLottery.sol\":3422:3464  playersTickets[msg.sender] = ticketNumbers */\n      swap1\n      dup1\n      mload\n      swap1\n      0x20\n      add\n      swap1\n      tag_114\n      swap3\n      swap2\n      swap1\n      tag_115\n      jump\t// in\n    tag_114:\n      pop\n        /* \"UZHPancakeLottery/UZHPancakeLottery.sol\":3545:3561  playersAddresses */\n      0x06\n        /* \"UZHPancakeLottery/UZHPancakeLottery.sol\":3567:3577  msg.sender */\n      caller\n        /* \"UZHPancakeLottery/UZHPancakeLottery.sol\":3545:3578  playersAddresses.push(msg.sender) */\n      swap1\n      dup1\n      0x01\n      dup2\n      sload\n      add\n      dup1\n      dup3\n      sstore\n      dup1\n      swap2\n      pop\n      pop\n      0x01\n      swap1\n      sub\n      swap1\n      0x00\n      mstore\n      keccak256(0x00, 0x20)\n      add\n      0x00\n      swap1\n      swap2\n      swap1\n      swap2\n      swap1\n      swap2\n      0x0100\n      exp\n      dup2\n      sload\n      dup2\n      0xffffffffffffffffffffffffffffffffffffffff\n      mul\n      not\n      and\n      swap1\n      dup4\n      0xffffffffffffffffffffffffffffffffffffffff\n      and\n      mul\n      or\n      swap1\n      sstore\n      pop\n        /* \"UZHPancakeLottery/UZHPancakeLottery.sol\":3666:3675  msg.value */\n      callvalue\n        /* \"UZHPancakeLottery/UZHPancakeLottery.sol\":3647:3662  TotalLotteryPot */\n      0x04\n      0x00\n        /* \"UZHPancakeLottery/UZHPancakeLottery.sol\":3647:3675  TotalLotteryPot += msg.value */\n      dup3\n      dup3\n      sload\n      tag_117\n      swap2\n      swap1\n      tag_118\n      jump\t// in\n    tag_117:\n      swap3\n      pop\n      pop\n      dup2\n      swap1\n      sstore\n      pop\n        /* \"UZHPancakeLottery/UZHPancakeLottery.sol\":3750:3751  1 */\n      0x01\n        /* \"UZHPancakeLottery/UZHPancakeLottery.sol\":3731:3746  NrticketsBought */\n      0x05\n      0x00\n        /* \"UZHPancakeLottery/UZHPancakeLottery.sol\":3731:3751  NrticketsBought += 1 */\n      dup3\n      dup3\n      sload\n      tag_119\n      swap2\n      swap1\n      tag_118\n      jump\t// in\n    tag_119:\n      swap3\n      pop\n      pop\n      dup2\n      swap1\n      sstore\n      pop\n        /* \"UZHPancakeLottery/UZHPancakeLottery.sol\":2627:3759  function buyTicket(uint[] memory ticketNumbers) public payable {... */\n      pop\n      jump\t// out\n        /* \"UZHPancakeLottery/UZHPancakeLottery.sol\":1517:1611  function getTicketPrice() public view returns (uint) {... */\n    tag_42:\n        /* \"UZHPancakeLottery/UZHPancakeLottery.sol\":1564:1568  uint */\n      0x00\n        /* \"UZHPancakeLottery/UZHPancakeLottery.sol\":1596:1603  1 ether */\n      0x0de0b6b3a7640000\n        /* \"UZHPancakeLottery/UZHPancakeLottery.sol\":1588:1593  price */\n      sload(0x03)\n        /* \"UZHPancakeLottery/UZHPancakeLottery.sol\":1588:1603  price / 1 ether */\n      tag_121\n      swap2\n      swap1\n      tag_122\n      jump\t// in\n    tag_121:\n        /* \"UZHPancakeLottery/UZHPancakeLottery.sol\":1581:1603  return price / 1 ether */\n      swap1\n      pop\n        /* \"UZHPancakeLottery/UZHPancakeLottery.sol\":1517:1611  function getTicketPrice() public view returns (uint) {... */\n      swap1\n      jump\t// out\n        /* \"UZHPancakeLottery/UZHPancakeLottery.sol\":1691:1799  function getTotalLotteryPot() public view returns (uint) {... */\n    tag_47:\n        /* \"UZHPancakeLottery/UZHPancakeLottery.sol\":1742:1746  uint */\n      0x00\n        /* \"UZHPancakeLottery/UZHPancakeLottery.sol\":1784:1791  1 ether */\n      0x0de0b6b3a7640000\n        /* \"UZHPancakeLottery/UZHPancakeLottery.sol\":1766:1781  TotalLotteryPot */\n      sload(0x04)\n        /* \"UZHPancakeLottery/UZHPancakeLottery.sol\":1766:1791  TotalLotteryPot / 1 ether */\n      tag_124\n      swap2\n      swap1\n      tag_122\n      jump\t// in\n    tag_124:\n        /* \"UZHPancakeLottery/UZHPancakeLottery.sol\":1759:1791  return TotalLotteryPot / 1 ether */\n      swap1\n      pop\n        /* \"UZHPancakeLottery/UZHPancakeLottery.sol\":1691:1799  function getTotalLotteryPot() public view returns (uint) {... */\n      swap1\n      jump\t// out\n        /* \"UZHPancakeLottery/UZHPancakeLottery.sol\":2473:2586  function getWinningNumber() public view onlyOwner returns (uint[] memory) {... */\n    tag_51:\n        /* \"UZHPancakeLottery/UZHPancakeLottery.sol\":2532:2545  uint[] memory */\n      0x60\n        /* \"UZHPancakeLottery/UZHPancakeLottery.sol\":1240:1245  owner */\n      0x00\n      dup1\n      sload\n      swap1\n      0x0100\n      exp\n      swap1\n      div\n      0xffffffffffffffffffffffffffffffffffffffff\n      and\n        /* \"UZHPancakeLottery/UZHPancakeLottery.sol\":1226:1245  msg.sender == owner */\n      0xffffffffffffffffffffffffffffffffffffffff\n      and\n        /* \"UZHPancakeLottery/UZHPancakeLottery.sol\":1226:1236  msg.sender */\n      caller\n        /* \"UZHPancakeLottery/UZHPancakeLottery.sol\":1226:1245  msg.sender == owner */\n      0xffffffffffffffffffffffffffffffffffffffff\n      and\n      eq\n        /* \"UZHPancakeLottery/UZHPancakeLottery.sol\":1218:1288  require(msg.sender == owner, \"Only the owner can perform this action\") */\n      tag_126\n      jumpi\n      mload(0x40)\n      0x08c379a000000000000000000000000000000000000000000000000000000000\n      dup2\n      mstore\n      0x04\n      add\n      tag_127\n      swap1\n      tag_75\n      jump\t// in\n    tag_127:\n      mload(0x40)\n      dup1\n      swap2\n      sub\n      swap1\n      revert\n    tag_126:\n        /* \"UZHPancakeLottery/UZHPancakeLottery.sol\":2565:2578  winningNumber */\n      0x01\n        /* \"UZHPancakeLottery/UZHPancakeLottery.sol\":2558:2578  return winningNumber */\n      dup1\n      sload\n      dup1\n      0x20\n      mul\n      0x20\n      add\n      mload(0x40)\n      swap1\n      dup2\n      add\n      0x40\n      mstore\n      dup1\n      swap3\n      swap2\n      swap1\n      dup2\n      dup2\n      mstore\n      0x20\n      add\n      dup3\n      dup1\n      sload\n      dup1\n      iszero\n      tag_129\n      jumpi\n      0x20\n      mul\n      dup3\n      add\n      swap2\n      swap1\n      0x00\n      mstore\n      keccak256(0x00, 0x20)\n      swap1\n    tag_130:\n      dup2\n      sload\n      dup2\n      mstore\n      0x20\n      add\n      swap1\n      0x01\n      add\n      swap1\n      dup1\n      dup4\n      gt\n      tag_130\n      jumpi\n    tag_129:\n      pop\n      pop\n      pop\n      pop\n      pop\n      swap1\n      pop\n        /* \"UZHPancakeLottery/UZHPancakeLottery.sol\":2473:2586  function getWinningNumber() public view onlyOwner returns (uint[] memory) {... */\n      swap1\n      jump\t// out\n        /* \"UZHPancakeLottery/UZHPancakeLottery.sol\":335:355  address public owner */\n    tag_56:\n      0x00\n      dup1\n      sload\n      swap1\n      0x0100\n      exp\n      swap1\n      div\n      0xffffffffffffffffffffffffffffffffffffffff\n      and\n      dup2\n      jump\t// out\n        /* \"UZHPancakeLottery/UZHPancakeLottery.sol\":3827:3945  function getMyTicketNumbers() public view returns (uint[] memory) {... */\n    tag_60:\n        /* \"UZHPancakeLottery/UZHPancakeLottery.sol\":3878:3891  uint[] memory */\n      0x60\n        /* \"UZHPancakeLottery/UZHPancakeLottery.sol\":3911:3925  playersTickets */\n      0x02\n        /* \"UZHPancakeLottery/UZHPancakeLottery.sol\":3911:3937  playersTickets[msg.sender] */\n      0x00\n        /* \"UZHPancakeLottery/UZHPancakeLottery.sol\":3926:3936  msg.sender */\n      caller\n        /* \"UZHPancakeLottery/UZHPancakeLottery.sol\":3911:3937  playersTickets[msg.sender] */\n      0xffffffffffffffffffffffffffffffffffffffff\n      and\n      0xffffffffffffffffffffffffffffffffffffffff\n      and\n      dup2\n      mstore\n      0x20\n      add\n      swap1\n      dup2\n      mstore\n      0x20\n      add\n      0x00\n      keccak256\n        /* \"UZHPancakeLottery/UZHPancakeLottery.sol\":3904:3937  return playersTickets[msg.sender] */\n      dup1\n      sload\n      dup1\n      0x20\n      mul\n      0x20\n      add\n      mload(0x40)\n      swap1\n      dup2\n      add\n      0x40\n      mstore\n      dup1\n      swap3\n      swap2\n      swap1\n      dup2\n      dup2\n      mstore\n      0x20\n      add\n      dup3\n      dup1\n      sload\n      dup1\n      iszero\n      tag_132\n      jumpi\n      0x20\n      mul\n      dup3\n      add\n      swap2\n      swap1\n      0x00\n      mstore\n      keccak256(0x00, 0x20)\n      swap1\n    tag_133:\n      dup2\n      sload\n      dup2\n      mstore\n      0x20\n      add\n      swap1\n      0x01\n      add\n      swap1\n      dup1\n      dup4\n      gt\n      tag_133\n      jumpi\n    tag_132:\n      pop\n      pop\n      pop\n      pop\n      pop\n      swap1\n      pop\n        /* \"UZHPancakeLottery/UZHPancakeLottery.sol\":3827:3945  function getMyTicketNumbers() public view returns (uint[] memory) {... */\n      swap1\n      jump\t// out\n        /* \"UZHPancakeLottery/UZHPancakeLottery.sol\":1860:2374  function setWinningNumbers() public onlyOwner {... */\n    tag_64:\n        /* \"UZHPancakeLottery/UZHPancakeLottery.sol\":1240:1245  owner */\n      0x00\n      dup1\n      sload\n      swap1\n      0x0100\n      exp\n      swap1\n      div\n      0xffffffffffffffffffffffffffffffffffffffff\n      and\n        /* \"UZHPancakeLottery/UZHPancakeLottery.sol\":1226:1245  msg.sender == owner */\n      0xffffffffffffffffffffffffffffffffffffffff\n      and\n        /* \"UZHPancakeLottery/UZHPancakeLottery.sol\":1226:1236  msg.sender */\n      caller\n        /* \"UZHPancakeLottery/UZHPancakeLottery.sol\":1226:1245  msg.sender == owner */\n      0xffffffffffffffffffffffffffffffffffffffff\n      and\n      eq\n        /* \"UZHPancakeLottery/UZHPancakeLottery.sol\":1218:1288  require(msg.sender == owner, \"Only the owner can perform this action\") */\n      tag_135\n      jumpi\n      mload(0x40)\n      0x08c379a000000000000000000000000000000000000000000000000000000000\n      dup2\n      mstore\n      0x04\n      add\n      tag_136\n      swap1\n      tag_75\n      jump\t// in\n    tag_136:\n      mload(0x40)\n      dup1\n      swap2\n      sub\n      swap1\n      revert\n    tag_135:\n        /* \"UZHPancakeLottery/UZHPancakeLottery.sol\":1934:1938  true */\n      0x01\n        /* \"UZHPancakeLottery/UZHPancakeLottery.sol\":1917:1931  lotteryStarted */\n      0x07\n      0x00\n        /* \"UZHPancakeLottery/UZHPancakeLottery.sol\":1917:1938  lotteryStarted = true */\n      0x0100\n      exp\n      dup2\n      sload\n      dup2\n      0xff\n      mul\n      not\n      and\n      swap1\n      dup4\n      iszero\n      iszero\n      mul\n      or\n      swap1\n      sstore\n      pop\n        /* \"UZHPancakeLottery/UZHPancakeLottery.sol\":1976:1977  6 */\n      0x06\n        /* \"UZHPancakeLottery/UZHPancakeLottery.sol\":1965:1978  new uint[](6) */\n      0xffffffffffffffff\n      dup2\n      gt\n      iszero\n      tag_138\n      jumpi\n      tag_139\n      tag_140\n      jump\t// in\n    tag_139:\n    tag_138:\n      mload(0x40)\n      swap1\n      dup1\n      dup3\n      mstore\n      dup1\n      0x20\n      mul\n      0x20\n      add\n      dup3\n      add\n      0x40\n      mstore\n      dup1\n      iszero\n      tag_141\n      jumpi\n      dup2\n      0x20\n      add\n      0x20\n      dup3\n      mul\n      dup1\n      calldatasize\n      dup4\n      calldatacopy\n      dup1\n      dup3\n      add\n      swap2\n      pop\n      pop\n      swap1\n      pop\n    tag_141:\n      pop\n        /* \"UZHPancakeLottery/UZHPancakeLottery.sol\":1949:1962  winningNumber */\n      0x01\n        /* \"UZHPancakeLottery/UZHPancakeLottery.sol\":1949:1978  winningNumber = new uint[](6) */\n      swap1\n      dup1\n      mload\n      swap1\n      0x20\n      add\n      swap1\n      tag_142\n      swap3\n      swap2\n      swap1\n      tag_115\n      jump\t// in\n    tag_142:\n      pop\n        /* \"UZHPancakeLottery/UZHPancakeLottery.sol\":1989:2001  uint counter */\n      0x00\n        /* \"UZHPancakeLottery/UZHPancakeLottery.sol\":2094:2100  uint i */\n      dup1\n        /* \"UZHPancakeLottery/UZHPancakeLottery.sol\":2089:2367  for (uint i = 0; i < 6; i++) {... */\n    tag_143:\n        /* \"UZHPancakeLottery/UZHPancakeLottery.sol\":2110:2111  6 */\n      0x06\n        /* \"UZHPancakeLottery/UZHPancakeLottery.sol\":2106:2107  i */\n      dup2\n        /* \"UZHPancakeLottery/UZHPancakeLottery.sol\":2106:2111  i < 6 */\n      lt\n        /* \"UZHPancakeLottery/UZHPancakeLottery.sol\":2089:2367  for (uint i = 0; i < 6; i++) {... */\n      iszero\n      tag_144\n      jumpi\n        /* \"UZHPancakeLottery/UZHPancakeLottery.sol\":2133:2153  uint256 randomNumber */\n      0x00\n        /* \"UZHPancakeLottery/UZHPancakeLottery.sol\":2215:2217  10 */\n      0x0a\n        /* \"UZHPancakeLottery/UZHPancakeLottery.sol\":2191:2206  block.timestamp */\n      timestamp\n        /* \"UZHPancakeLottery/UZHPancakeLottery.sol\":2208:2209  i */\n      dup4\n        /* \"UZHPancakeLottery/UZHPancakeLottery.sol\":2174:2210  abi.encodePacked(block.timestamp, i) */\n      add(0x20, mload(0x40))\n      tag_146\n      swap3\n      swap2\n      swap1\n      tag_147\n      jump\t// in\n    tag_146:\n      mload(0x40)\n      0x20\n      dup2\n      dup4\n      sub\n      sub\n      dup2\n      mstore\n      swap1\n      0x40\n      mstore\n        /* \"UZHPancakeLottery/UZHPancakeLottery.sol\":2164:2211  keccak256(abi.encodePacked(block.timestamp, i)) */\n      dup1\n      mload\n      swap1\n      0x20\n      add\n      keccak256\n        /* \"UZHPancakeLottery/UZHPancakeLottery.sol\":2156:2212  uint256(keccak256(abi.encodePacked(block.timestamp, i))) */\n      0x00\n      shr\n        /* \"UZHPancakeLottery/UZHPancakeLottery.sol\":2156:2217  uint256(keccak256(abi.encodePacked(block.timestamp, i))) % 10 */\n      tag_148\n      swap2\n      swap1\n      tag_149\n      jump\t// in\n    tag_148:\n        /* \"UZHPancakeLottery/UZHPancakeLottery.sol\":2133:2217  uint256 randomNumber = uint256(keccak256(abi.encodePacked(block.timestamp, i))) % 10 */\n      swap1\n      pop\n        /* \"UZHPancakeLottery/UZHPancakeLottery.sol\":2252:2253  0 */\n      0x00\n        /* \"UZHPancakeLottery/UZHPancakeLottery.sol\":2236:2248  randomNumber */\n      dup2\n        /* \"UZHPancakeLottery/UZHPancakeLottery.sol\":2236:2253  randomNumber != 0 */\n      eq\n        /* \"UZHPancakeLottery/UZHPancakeLottery.sol\":2232:2356  if (randomNumber != 0) {... */\n      tag_150\n      jumpi\n        /* \"UZHPancakeLottery/UZHPancakeLottery.sol\":2299:2311  randomNumber */\n      dup1\n        /* \"UZHPancakeLottery/UZHPancakeLottery.sol\":2274:2287  winningNumber */\n      0x01\n        /* \"UZHPancakeLottery/UZHPancakeLottery.sol\":2288:2295  counter */\n      dup5\n        /* \"UZHPancakeLottery/UZHPancakeLottery.sol\":2274:2296  winningNumber[counter] */\n      dup2\n      sload\n      dup2\n      lt\n      tag_151\n      jumpi\n      tag_152\n      tag_102\n      jump\t// in\n    tag_152:\n    tag_151:\n      swap1\n      0x00\n      mstore\n      keccak256(0x00, 0x20)\n      add\n        /* \"UZHPancakeLottery/UZHPancakeLottery.sol\":2274:2311  winningNumber[counter] = randomNumber */\n      dup2\n      swap1\n      sstore\n      pop\n        /* \"UZHPancakeLottery/UZHPancakeLottery.sol\":2331:2340  counter++ */\n      dup3\n      dup1\n      tag_154\n      swap1\n      tag_110\n      jump\t// in\n    tag_154:\n      swap4\n      pop\n      pop\n        /* \"UZHPancakeLottery/UZHPancakeLottery.sol\":2232:2356  if (randomNumber != 0) {... */\n    tag_150:\n        /* \"UZHPancakeLottery/UZHPancakeLottery.sol\":2118:2367  {... */\n      pop\n        /* \"UZHPancakeLottery/UZHPancakeLottery.sol\":2113:2116  i++ */\n      dup1\n      dup1\n      tag_155\n      swap1\n      tag_110\n      jump\t// in\n    tag_155:\n      swap2\n      pop\n      pop\n        /* \"UZHPancakeLottery/UZHPancakeLottery.sol\":2089:2367  for (uint i = 0; i < 6; i++) {... */\n      jump(tag_143)\n    tag_144:\n      pop\n        /* \"UZHPancakeLottery/UZHPancakeLottery.sol\":1906:2374  {... */\n      pop\n        /* \"UZHPancakeLottery/UZHPancakeLottery.sol\":1860:2374  function setWinningNumbers() public onlyOwner {... */\n      jump\t// out\n        /* \"UZHPancakeLottery/UZHPancakeLottery.sol\":3994:6832  function EndLottery() public onlyOwner{... */\n    tag_67:\n        /* \"UZHPancakeLottery/UZHPancakeLottery.sol\":1240:1245  owner */\n      0x00\n      dup1\n      sload\n      swap1\n      0x0100\n      exp\n      swap1\n      div\n      0xffffffffffffffffffffffffffffffffffffffff\n      and\n        /* \"UZHPancakeLottery/UZHPancakeLottery.sol\":1226:1245  msg.sender == owner */\n      0xffffffffffffffffffffffffffffffffffffffff\n      and\n        /* \"UZHPancakeLottery/UZHPancakeLottery.sol\":1226:1236  msg.sender */\n      caller\n        /* \"UZHPancakeLottery/UZHPancakeLottery.sol\":1226:1245  msg.sender == owner */\n      0xffffffffffffffffffffffffffffffffffffffff\n      and\n      eq\n        /* \"UZHPancakeLottery/UZHPancakeLottery.sol\":1218:1288  require(msg.sender == owner, \"Only the owner can perform this action\") */\n      tag_157\n      jumpi\n      mload(0x40)\n      0x08c379a000000000000000000000000000000000000000000000000000000000\n      dup2\n      mstore\n      0x04\n      add\n      tag_158\n      swap1\n      tag_75\n      jump\t// in\n    tag_158:\n      mload(0x40)\n      dup1\n      swap2\n      sub\n      swap1\n      revert\n    tag_157:\n        /* \"UZHPancakeLottery/UZHPancakeLottery.sol\":4122:4126  true */\n      0x01\n        /* \"UZHPancakeLottery/UZHPancakeLottery.sol\":4104:4126  lotteryStarted == true */\n      iszero\n      iszero\n        /* \"UZHPancakeLottery/UZHPancakeLottery.sol\":4104:4118  lotteryStarted */\n      0x07\n      0x00\n      swap1\n      sload\n      swap1\n      0x0100\n      exp\n      swap1\n      div\n      0xff\n      and\n        /* \"UZHPancakeLottery/UZHPancakeLottery.sol\":4104:4126  lotteryStarted == true */\n      iszero\n      iszero\n      eq\n        /* \"UZHPancakeLottery/UZHPancakeLottery.sol\":4096:4152  require(lotteryStarted == true, \"No lottery is running\") */\n      tag_160\n      jumpi\n      mload(0x40)\n      0x08c379a000000000000000000000000000000000000000000000000000000000\n      dup2\n      mstore\n      0x04\n      add\n      tag_161\n      swap1\n      tag_162\n      jump\t// in\n    tag_161:\n      mload(0x40)\n      dup1\n      swap2\n      sub\n      swap1\n      revert\n    tag_160:\n        /* \"UZHPancakeLottery/UZHPancakeLottery.sol\":4254:4255  0 */\n      0x00\n        /* \"UZHPancakeLottery/UZHPancakeLottery.sol\":4236:4251  NrticketsBought */\n      sload(0x05)\n        /* \"UZHPancakeLottery/UZHPancakeLottery.sol\":4236:4255  NrticketsBought > 0 */\n      gt\n        /* \"UZHPancakeLottery/UZHPancakeLottery.sol\":4228:4277  require(NrticketsBought > 0, \"No ticket was bou\") */\n      tag_163\n      jumpi\n      mload(0x40)\n      0x08c379a000000000000000000000000000000000000000000000000000000000\n      dup2\n      mstore\n      0x04\n      add\n      tag_164\n      swap1\n      tag_165\n      jump\t// in\n    tag_164:\n      mload(0x40)\n      dup1\n      swap2\n      sub\n      swap1\n      revert\n    tag_163:\n        /* \"UZHPancakeLottery/UZHPancakeLottery.sol\":4351:4375  uint firstMatchedNumbers */\n      0x00\n        /* \"UZHPancakeLottery/UZHPancakeLottery.sol\":4485:4500  uint percentage */\n      dup1\n        /* \"UZHPancakeLottery/UZHPancakeLottery.sol\":4570:4581  uint reward */\n      0x00\n        /* \"UZHPancakeLottery/UZHPancakeLottery.sol\":4645:4661  uint totalreward */\n      dup1\n        /* \"UZHPancakeLottery/UZHPancakeLottery.sol\":4708:4737  address payable playeraddress */\n      0x00\n        /* \"UZHPancakeLottery/UZHPancakeLottery.sol\":4807:4813  uint i */\n      dup1\n        /* \"UZHPancakeLottery/UZHPancakeLottery.sol\":4816:4817  0 */\n      0x00\n        /* \"UZHPancakeLottery/UZHPancakeLottery.sol\":4807:4817  uint i = 0 */\n      swap1\n      pop\n        /* \"UZHPancakeLottery/UZHPancakeLottery.sol\":4802:6587  for (uint i = 0; i < playersAddresses.length; i++) {   ... */\n    tag_166:\n        /* \"UZHPancakeLottery/UZHPancakeLottery.sol\":4823:4839  playersAddresses */\n      0x06\n        /* \"UZHPancakeLottery/UZHPancakeLottery.sol\":4823:4846  playersAddresses.length */\n      dup1\n      sload\n      swap1\n      pop\n        /* \"UZHPancakeLottery/UZHPancakeLottery.sol\":4819:4820  i */\n      dup2\n        /* \"UZHPancakeLottery/UZHPancakeLottery.sol\":4819:4846  i < playersAddresses.length */\n      lt\n        /* \"UZHPancakeLottery/UZHPancakeLottery.sol\":4802:6587  for (uint i = 0; i < playersAddresses.length; i++) {   ... */\n      iszero\n      tag_167\n      jumpi\n        /* \"UZHPancakeLottery/UZHPancakeLottery.sol\":4945:4951  uint j */\n      0x00\n        /* \"UZHPancakeLottery/UZHPancakeLottery.sol\":4940:5306  for (uint j = 0; j < winningNumber.length; j++) {... */\n    tag_169:\n        /* \"UZHPancakeLottery/UZHPancakeLottery.sol\":4961:4974  winningNumber */\n      0x01\n        /* \"UZHPancakeLottery/UZHPancakeLottery.sol\":4961:4981  winningNumber.length */\n      dup1\n      sload\n      swap1\n      pop\n        /* \"UZHPancakeLottery/UZHPancakeLottery.sol\":4957:4958  j */\n      dup2\n        /* \"UZHPancakeLottery/UZHPancakeLottery.sol\":4957:4981  j < winningNumber.length */\n      lt\n        /* \"UZHPancakeLottery/UZHPancakeLottery.sol\":4940:5306  for (uint j = 0; j < winningNumber.length; j++) {... */\n      iszero\n      tag_170\n      jumpi\n        /* \"UZHPancakeLottery/UZHPancakeLottery.sol\":5155:5168  winningNumber */\n      0x01\n        /* \"UZHPancakeLottery/UZHPancakeLottery.sol\":5169:5170  j */\n      dup2\n        /* \"UZHPancakeLottery/UZHPancakeLottery.sol\":5155:5171  winningNumber[j] */\n      dup2\n      sload\n      dup2\n      lt\n      tag_172\n      jumpi\n      tag_173\n      tag_102\n      jump\t// in\n    tag_173:\n    tag_172:\n      swap1\n      0x00\n      mstore\n      keccak256(0x00, 0x20)\n      add\n      sload\n        /* \"UZHPancakeLottery/UZHPancakeLottery.sol\":5113:5127  playersTickets */\n      0x02\n        /* \"UZHPancakeLottery/UZHPancakeLottery.sol\":5113:5148  playersTickets[playersAddresses[i]] */\n      0x00\n        /* \"UZHPancakeLottery/UZHPancakeLottery.sol\":5128:5144  playersAddresses */\n      0x06\n        /* \"UZHPancakeLottery/UZHPancakeLottery.sol\":5145:5146  i */\n      dup6\n        /* \"UZHPancakeLottery/UZHPancakeLottery.sol\":5128:5147  playersAddresses[i] */\n      dup2\n      sload\n      dup2\n      lt\n      tag_175\n      jumpi\n      tag_176\n      tag_102\n      jump\t// in\n    tag_176:\n    tag_175:\n      swap1\n      0x00\n      mstore\n      keccak256(0x00, 0x20)\n      add\n      0x00\n      swap1\n      sload\n      swap1\n      0x0100\n      exp\n      swap1\n      div\n      0xffffffffffffffffffffffffffffffffffffffff\n      and\n        /* \"UZHPancakeLottery/UZHPancakeLottery.sol\":5113:5148  playersTickets[playersAddresses[i]] */\n      0xffffffffffffffffffffffffffffffffffffffff\n      and\n      0xffffffffffffffffffffffffffffffffffffffff\n      and\n      dup2\n      mstore\n      0x20\n      add\n      swap1\n      dup2\n      mstore\n      0x20\n      add\n      0x00\n      keccak256\n        /* \"UZHPancakeLottery/UZHPancakeLottery.sol\":5149:5150  j */\n      dup3\n        /* \"UZHPancakeLottery/UZHPancakeLottery.sol\":5113:5151  playersTickets[playersAddresses[i]][j] */\n      dup2\n      sload\n      dup2\n      lt\n      tag_178\n      jumpi\n      tag_179\n      tag_102\n      jump\t// in\n    tag_179:\n    tag_178:\n      swap1\n      0x00\n      mstore\n      keccak256(0x00, 0x20)\n      add\n      sload\n        /* \"UZHPancakeLottery/UZHPancakeLottery.sol\":5113:5171  playersTickets[playersAddresses[i]][j] == winningNumber[j] */\n      eq\n        /* \"UZHPancakeLottery/UZHPancakeLottery.sol\":5109:5291  if (playersTickets[playersAddresses[i]][j] == winningNumber[j]) {... */\n      iszero\n      tag_181\n      jumpi\n        /* \"UZHPancakeLottery/UZHPancakeLottery.sol\":5196:5217  firstMatchedNumbers++ */\n      dup7\n      dup1\n      tag_182\n      swap1\n      tag_110\n      jump\t// in\n    tag_182:\n      swap8\n      pop\n      pop\n        /* \"UZHPancakeLottery/UZHPancakeLottery.sol\":5109:5291  if (playersTickets[playersAddresses[i]][j] == winningNumber[j]) {... */\n      jump(tag_183)\n    tag_181:\n        /* \"UZHPancakeLottery/UZHPancakeLottery.sol\":5266:5271  break */\n      jump(tag_170)\n        /* \"UZHPancakeLottery/UZHPancakeLottery.sol\":5109:5291  if (playersTickets[playersAddresses[i]][j] == winningNumber[j]) {... */\n    tag_183:\n        /* \"UZHPancakeLottery/UZHPancakeLottery.sol\":4983:4986  j++ */\n      dup1\n      dup1\n      tag_184\n      swap1\n      tag_110\n      jump\t// in\n    tag_184:\n      swap2\n      pop\n      pop\n        /* \"UZHPancakeLottery/UZHPancakeLottery.sol\":4940:5306  for (uint j = 0; j < winningNumber.length; j++) {... */\n      jump(tag_169)\n    tag_170:\n      pop\n        /* \"UZHPancakeLottery/UZHPancakeLottery.sol\":5387:5401  playersTickets */\n      0x02\n        /* \"UZHPancakeLottery/UZHPancakeLottery.sol\":5387:5422  playersTickets[playersAddresses[i]] */\n      0x00\n        /* \"UZHPancakeLottery/UZHPancakeLottery.sol\":5402:5418  playersAddresses */\n      0x06\n        /* \"UZHPancakeLottery/UZHPancakeLottery.sol\":5419:5420  i */\n      dup4\n        /* \"UZHPancakeLottery/UZHPancakeLottery.sol\":5402:5421  playersAddresses[i] */\n      dup2\n      sload\n      dup2\n      lt\n      tag_185\n      jumpi\n      tag_186\n      tag_102\n      jump\t// in\n    tag_186:\n    tag_185:\n      swap1\n      0x00\n      mstore\n      keccak256(0x00, 0x20)\n      add\n      0x00\n      swap1\n      sload\n      swap1\n      0x0100\n      exp\n      swap1\n      div\n      0xffffffffffffffffffffffffffffffffffffffff\n      and\n        /* \"UZHPancakeLottery/UZHPancakeLottery.sol\":5387:5422  playersTickets[playersAddresses[i]] */\n      0xffffffffffffffffffffffffffffffffffffffff\n      and\n      0xffffffffffffffffffffffffffffffffffffffff\n      and\n      dup2\n      mstore\n      0x20\n      add\n      swap1\n      dup2\n      mstore\n      0x20\n      add\n      0x00\n      keccak256\n      0x00\n        /* \"UZHPancakeLottery/UZHPancakeLottery.sol\":5380:5422  delete playersTickets[playersAddresses[i]] */\n      tag_188\n      swap2\n      swap1\n      tag_189\n      jump\t// in\n    tag_188:\n        /* \"UZHPancakeLottery/UZHPancakeLottery.sol\":5549:5550  1 */\n      0x01\n        /* \"UZHPancakeLottery/UZHPancakeLottery.sol\":5526:5545  firstMatchedNumbers */\n      dup7\n        /* \"UZHPancakeLottery/UZHPancakeLottery.sol\":5526:5550  firstMatchedNumbers == 1 */\n      eq\n        /* \"UZHPancakeLottery/UZHPancakeLottery.sol\":5522:6029  if (firstMatchedNumbers == 1) {... */\n      iszero\n      tag_190\n      jumpi\n        /* \"UZHPancakeLottery/UZHPancakeLottery.sol\":5584:5585  2 */\n      0x02\n        /* \"UZHPancakeLottery/UZHPancakeLottery.sol\":5571:5585  percentage = 2 */\n      swap5\n      pop\n        /* \"UZHPancakeLottery/UZHPancakeLottery.sol\":5522:6029  if (firstMatchedNumbers == 1) {... */\n      jump(tag_191)\n    tag_190:\n        /* \"UZHPancakeLottery/UZHPancakeLottery.sol\":5634:5635  2 */\n      0x02\n        /* \"UZHPancakeLottery/UZHPancakeLottery.sol\":5611:5630  firstMatchedNumbers */\n      dup7\n        /* \"UZHPancakeLottery/UZHPancakeLottery.sol\":5611:5635  firstMatchedNumbers == 2 */\n      eq\n        /* \"UZHPancakeLottery/UZHPancakeLottery.sol\":5607:6029  if (firstMatchedNumbers == 2) {... */\n      iszero\n      tag_192\n      jumpi\n        /* \"UZHPancakeLottery/UZHPancakeLottery.sol\":5669:5670  3 */\n      0x03\n        /* \"UZHPancakeLottery/UZHPancakeLottery.sol\":5656:5670  percentage = 3 */\n      swap5\n      pop\n        /* \"UZHPancakeLottery/UZHPancakeLottery.sol\":5607:6029  if (firstMatchedNumbers == 2) {... */\n      jump(tag_193)\n    tag_192:\n        /* \"UZHPancakeLottery/UZHPancakeLottery.sol\":5719:5720  3 */\n      0x03\n        /* \"UZHPancakeLottery/UZHPancakeLottery.sol\":5696:5715  firstMatchedNumbers */\n      dup7\n        /* \"UZHPancakeLottery/UZHPancakeLottery.sol\":5696:5720  firstMatchedNumbers == 3 */\n      eq\n        /* \"UZHPancakeLottery/UZHPancakeLottery.sol\":5692:6029  if (firstMatchedNumbers == 3) {... */\n      iszero\n      tag_194\n      jumpi\n        /* \"UZHPancakeLottery/UZHPancakeLottery.sol\":5754:5755  5 */\n      0x05\n        /* \"UZHPancakeLottery/UZHPancakeLottery.sol\":5741:5755  percentage = 5 */\n      swap5\n      pop\n        /* \"UZHPancakeLottery/UZHPancakeLottery.sol\":5692:6029  if (firstMatchedNumbers == 3) {... */\n      jump(tag_195)\n    tag_194:\n        /* \"UZHPancakeLottery/UZHPancakeLottery.sol\":5804:5805  4 */\n      0x04\n        /* \"UZHPancakeLottery/UZHPancakeLottery.sol\":5781:5800  firstMatchedNumbers */\n      dup7\n        /* \"UZHPancakeLottery/UZHPancakeLottery.sol\":5781:5805  firstMatchedNumbers == 4 */\n      eq\n        /* \"UZHPancakeLottery/UZHPancakeLottery.sol\":5777:6029  if (firstMatchedNumbers == 4) {... */\n      iszero\n      tag_196\n      jumpi\n        /* \"UZHPancakeLottery/UZHPancakeLottery.sol\":5839:5841  10 */\n      0x0a\n        /* \"UZHPancakeLottery/UZHPancakeLottery.sol\":5826:5841  percentage = 10 */\n      swap5\n      pop\n        /* \"UZHPancakeLottery/UZHPancakeLottery.sol\":5777:6029  if (firstMatchedNumbers == 4) {... */\n      jump(tag_197)\n    tag_196:\n        /* \"UZHPancakeLottery/UZHPancakeLottery.sol\":5890:5891  5 */\n      0x05\n        /* \"UZHPancakeLottery/UZHPancakeLottery.sol\":5867:5886  firstMatchedNumbers */\n      dup7\n        /* \"UZHPancakeLottery/UZHPancakeLottery.sol\":5867:5891  firstMatchedNumbers == 5 */\n      eq\n        /* \"UZHPancakeLottery/UZHPancakeLottery.sol\":5863:6029  if (firstMatchedNumbers == 5) {... */\n      iszero\n      tag_198\n      jumpi\n        /* \"UZHPancakeLottery/UZHPancakeLottery.sol\":5925:5927  20 */\n      0x14\n        /* \"UZHPancakeLottery/UZHPancakeLottery.sol\":5912:5927  percentage = 20 */\n      swap5\n      pop\n        /* \"UZHPancakeLottery/UZHPancakeLottery.sol\":5863:6029  if (firstMatchedNumbers == 5) {... */\n      jump(tag_199)\n    tag_198:\n        /* \"UZHPancakeLottery/UZHPancakeLottery.sol\":5976:5977  6 */\n      0x06\n        /* \"UZHPancakeLottery/UZHPancakeLottery.sol\":5953:5972  firstMatchedNumbers */\n      dup7\n        /* \"UZHPancakeLottery/UZHPancakeLottery.sol\":5953:5977  firstMatchedNumbers == 6 */\n      eq\n        /* \"UZHPancakeLottery/UZHPancakeLottery.sol\":5949:6029  if (firstMatchedNumbers == 6) {... */\n      iszero\n      tag_200\n      jumpi\n        /* \"UZHPancakeLottery/UZHPancakeLottery.sol\":6011:6013  40 */\n      0x28\n        /* \"UZHPancakeLottery/UZHPancakeLottery.sol\":5998:6013  percentage = 40 */\n      swap5\n      pop\n        /* \"UZHPancakeLottery/UZHPancakeLottery.sol\":5949:6029  if (firstMatchedNumbers == 6) {... */\n    tag_200:\n        /* \"UZHPancakeLottery/UZHPancakeLottery.sol\":5863:6029  if (firstMatchedNumbers == 5) {... */\n    tag_199:\n        /* \"UZHPancakeLottery/UZHPancakeLottery.sol\":5777:6029  if (firstMatchedNumbers == 4) {... */\n    tag_197:\n        /* \"UZHPancakeLottery/UZHPancakeLottery.sol\":5692:6029  if (firstMatchedNumbers == 3) {... */\n    tag_195:\n        /* \"UZHPancakeLottery/UZHPancakeLottery.sol\":5607:6029  if (firstMatchedNumbers == 2) {... */\n    tag_193:\n        /* \"UZHPancakeLottery/UZHPancakeLottery.sol\":5522:6029  if (firstMatchedNumbers == 1) {... */\n    tag_191:\n        /* \"UZHPancakeLottery/UZHPancakeLottery.sol\":6126:6129  100 */\n      0x64\n        /* \"UZHPancakeLottery/UZHPancakeLottery.sol\":6112:6122  percentage */\n      dup6\n        /* \"UZHPancakeLottery/UZHPancakeLottery.sol\":6094:6109  TotalLotteryPot */\n      sload(0x04)\n        /* \"UZHPancakeLottery/UZHPancakeLottery.sol\":6094:6122  TotalLotteryPot * percentage */\n      tag_201\n      swap2\n      swap1\n      tag_87\n      jump\t// in\n    tag_201:\n        /* \"UZHPancakeLottery/UZHPancakeLottery.sol\":6093:6129  (TotalLotteryPot * percentage) / 100 */\n      tag_202\n      swap2\n      swap1\n      tag_122\n      jump\t// in\n    tag_202:\n        /* \"UZHPancakeLottery/UZHPancakeLottery.sol\":6084:6129  reward = (TotalLotteryPot * percentage) / 100 */\n      swap4\n      pop\n        /* \"UZHPancakeLottery/UZHPancakeLottery.sol\":6213:6219  reward */\n      dup4\n        /* \"UZHPancakeLottery/UZHPancakeLottery.sol\":6198:6219  totalreward += reward */\n      dup4\n      tag_203\n      swap2\n      swap1\n      tag_118\n      jump\t// in\n    tag_203:\n      swap3\n      pop\n        /* \"UZHPancakeLottery/UZHPancakeLottery.sol\":6324:6340  playersAddresses */\n      0x06\n        /* \"UZHPancakeLottery/UZHPancakeLottery.sol\":6341:6342  i */\n      dup2\n        /* \"UZHPancakeLottery/UZHPancakeLottery.sol\":6324:6343  playersAddresses[i] */\n      dup2\n      sload\n      dup2\n      lt\n      tag_204\n      jumpi\n      tag_205\n      tag_102\n      jump\t// in\n    tag_205:\n    tag_204:\n      swap1\n      0x00\n      mstore\n      keccak256(0x00, 0x20)\n      add\n      0x00\n      swap1\n      sload\n      swap1\n      0x0100\n      exp\n      swap1\n      div\n      0xffffffffffffffffffffffffffffffffffffffff\n      and\n        /* \"UZHPancakeLottery/UZHPancakeLottery.sol\":6300:6344  playeraddress = payable(playersAddresses[i]) */\n      swap2\n      pop\n        /* \"UZHPancakeLottery/UZHPancakeLottery.sol\":6413:6426  playeraddress */\n      dup2\n        /* \"UZHPancakeLottery/UZHPancakeLottery.sol\":6413:6435  playeraddress.transfer */\n      0xffffffffffffffffffffffffffffffffffffffff\n      and\n        /* \"UZHPancakeLottery/UZHPancakeLottery.sol\":6413:6443  playeraddress.transfer(reward) */\n      0x08fc\n        /* \"UZHPancakeLottery/UZHPancakeLottery.sol\":6436:6442  reward */\n      dup6\n        /* \"UZHPancakeLottery/UZHPancakeLottery.sol\":6413:6443  playeraddress.transfer(reward) */\n      swap1\n      dup2\n      iszero\n      mul\n      swap1\n      mload(0x40)\n      0x00\n      mload(0x40)\n      dup1\n      dup4\n      sub\n      dup2\n      dup6\n      dup9\n      dup9\n      call\n      swap4\n      pop\n      pop\n      pop\n      pop\n      iszero\n      dup1\n      iszero\n      tag_208\n      jumpi\n      returndatasize\n      0x00\n      dup1\n      returndatacopy\n      revert(0x00, returndatasize)\n    tag_208:\n      pop\n        /* \"UZHPancakeLottery/UZHPancakeLottery.sol\":6520:6521  0 */\n      0x00\n        /* \"UZHPancakeLottery/UZHPancakeLottery.sol\":6498:6521  firstMatchedNumbers = 0 */\n      swap6\n      pop\n        /* \"UZHPancakeLottery/UZHPancakeLottery.sol\":6549:6550  0 */\n      0x00\n        /* \"UZHPancakeLottery/UZHPancakeLottery.sol\":6536:6550  percentage = 0 */\n      swap5\n      pop\n        /* \"UZHPancakeLottery/UZHPancakeLottery.sol\":6574:6575  0 */\n      0x00\n        /* \"UZHPancakeLottery/UZHPancakeLottery.sol\":6565:6575  reward = 0 */\n      swap4\n      pop\n        /* \"UZHPancakeLottery/UZHPancakeLottery.sol\":4848:4851  i++ */\n      dup1\n      dup1\n      tag_209\n      swap1\n      tag_110\n      jump\t// in\n    tag_209:\n      swap2\n      pop\n      pop\n        /* \"UZHPancakeLottery/UZHPancakeLottery.sol\":4802:6587  for (uint i = 0; i < playersAddresses.length; i++) {   ... */\n      jump(tag_166)\n    tag_167:\n      pop\n        /* \"UZHPancakeLottery/UZHPancakeLottery.sol\":6657:6658  0 */\n      0x00\n        /* \"UZHPancakeLottery/UZHPancakeLottery.sol\":6639:6654  NrticketsBought */\n      0x05\n        /* \"UZHPancakeLottery/UZHPancakeLottery.sol\":6639:6658  NrticketsBought = 0 */\n      dup2\n      swap1\n      sstore\n      pop\n        /* \"UZHPancakeLottery/UZHPancakeLottery.sol\":6688:6699  totalreward */\n      dup2\n        /* \"UZHPancakeLottery/UZHPancakeLottery.sol\":6669:6684  TotalLotteryPot */\n      0x04\n      0x00\n        /* \"UZHPancakeLottery/UZHPancakeLottery.sol\":6669:6699  TotalLotteryPot -= totalreward */\n      dup3\n      dup3\n      sload\n      tag_210\n      swap2\n      swap1\n      tag_211\n      jump\t// in\n    tag_210:\n      swap3\n      pop\n      pop\n      dup2\n      swap1\n      sstore\n      pop\n        /* \"UZHPancakeLottery/UZHPancakeLottery.sol\":6743:6744  0 */\n      0x00\n        /* \"UZHPancakeLottery/UZHPancakeLottery.sol\":6729:6745  new address[](0) */\n      0xffffffffffffffff\n      dup2\n      gt\n      iszero\n      tag_212\n      jumpi\n      tag_213\n      tag_140\n      jump\t// in\n    tag_213:\n    tag_212:\n      mload(0x40)\n      swap1\n      dup1\n      dup3\n      mstore\n      dup1\n      0x20\n      mul\n      0x20\n      add\n      dup3\n      add\n      0x40\n      mstore\n      dup1\n      iszero\n      tag_214\n      jumpi\n      dup2\n      0x20\n      add\n      0x20\n      dup3\n      mul\n      dup1\n      calldatasize\n      dup4\n      calldatacopy\n      dup1\n      dup3\n      add\n      swap2\n      pop\n      pop\n      swap1\n      pop\n    tag_214:\n      pop\n        /* \"UZHPancakeLottery/UZHPancakeLottery.sol\":6710:6726  playersAddresses */\n      0x06\n        /* \"UZHPancakeLottery/UZHPancakeLottery.sol\":6710:6745  playersAddresses = new address[](0) */\n      swap1\n      dup1\n      mload\n      swap1\n      0x20\n      add\n      swap1\n      tag_215\n      swap3\n      swap2\n      swap1\n      tag_216\n      jump\t// in\n    tag_215:\n      pop\n        /* \"UZHPancakeLottery/UZHPancakeLottery.sol\":6788:6789  0 */\n      0x00\n        /* \"UZHPancakeLottery/UZHPancakeLottery.sol\":6756:6791  playeraddress = payable(address(0)) */\n      swap1\n      pop\n        /* \"UZHPancakeLottery/UZHPancakeLottery.sol\":6819:6824  false */\n      0x00\n        /* \"UZHPancakeLottery/UZHPancakeLottery.sol\":6802:6816  lotteryStarted */\n      0x07\n      0x00\n        /* \"UZHPancakeLottery/UZHPancakeLottery.sol\":6802:6824  lotteryStarted = false */\n      0x0100\n      exp\n      dup2\n      sload\n      dup2\n      0xff\n      mul\n      not\n      and\n      swap1\n      dup4\n      iszero\n      iszero\n      mul\n      or\n      swap1\n      sstore\n      pop\n        /* \"UZHPancakeLottery/UZHPancakeLottery.sol\":4032:6832  {... */\n      pop\n      pop\n      pop\n      pop\n      pop\n        /* \"UZHPancakeLottery/UZHPancakeLottery.sol\":3994:6832  function EndLottery() public onlyOwner{... */\n      jump\t// out\n        /* \"UZHPancakeLottery/UZHPancakeLottery.sol\":742:773  uint public NrticketsBought = 0 */\n    tag_70:\n      sload(0x05)\n      dup2\n      jump\t// out\n    tag_115:\n      dup3\n      dup1\n      sload\n      dup3\n      dup3\n      sstore\n      swap1\n      0x00\n      mstore\n      keccak256(0x00, 0x20)\n      swap1\n      dup2\n      add\n      swap3\n      dup3\n      iszero\n      tag_217\n      jumpi\n      swap2\n      0x20\n      mul\n      dup3\n      add\n    tag_218:\n      dup3\n      dup2\n      gt\n      iszero\n      tag_219\n      jumpi\n      dup3\n      mload\n      dup3\n      sstore\n      swap2\n      0x20\n      add\n      swap2\n      swap1\n      0x01\n      add\n      swap1\n      jump(tag_218)\n    tag_219:\n    tag_217:\n      pop\n      swap1\n      pop\n      tag_220\n      swap2\n      swap1\n      tag_221\n      jump\t// in\n    tag_220:\n      pop\n      swap1\n      jump\t// out\n    tag_189:\n      pop\n      dup1\n      sload\n      0x00\n      dup3\n      sstore\n      swap1\n      0x00\n      mstore\n      keccak256(0x00, 0x20)\n      swap1\n      dup2\n      add\n      swap1\n      tag_223\n      swap2\n      swap1\n      tag_221\n      jump\t// in\n    tag_223:\n      pop\n      jump\t// out\n    tag_216:\n      dup3\n      dup1\n      sload\n      dup3\n      dup3\n      sstore\n      swap1\n      0x00\n      mstore\n      keccak256(0x00, 0x20)\n      swap1\n      dup2\n      add\n      swap3\n      dup3\n      iszero\n      tag_224\n      jumpi\n      swap2\n      0x20\n      mul\n      dup3\n      add\n    tag_225:\n      dup3\n      dup2\n      gt\n      iszero\n      tag_226\n      jumpi\n      dup3\n      mload\n      dup3\n      exp(0x0100, 0x00)\n      dup2\n      sload\n      dup2\n      0xffffffffffffffffffffffffffffffffffffffff\n      mul\n      not\n      and\n      swap1\n      dup4\n      0xffffffffffffffffffffffffffffffffffffffff\n      and\n      mul\n      or\n      swap1\n      sstore\n      pop\n      swap2\n      0x20\n      add\n      swap2\n      swap1\n      0x01\n      add\n      swap1\n      jump(tag_225)\n    tag_226:\n    tag_224:\n      pop\n      swap1\n      pop\n      tag_227\n      swap2\n      swap1\n      tag_221\n      jump\t// in\n    tag_227:\n      pop\n      swap1\n      jump\t// out\n    tag_221:\n    tag_228:\n      dup1\n      dup3\n      gt\n      iszero\n      tag_229\n      jumpi\n      0x00\n      dup2\n      0x00\n      swap1\n      sstore\n      pop\n      0x01\n      add\n      jump(tag_228)\n    tag_229:\n      pop\n      swap1\n      jump\t// out\n        /* \"#utility.yul\":7:82   */\n    tag_230:\n        /* \"#utility.yul\":40:46   */\n      0x00\n        /* \"#utility.yul\":73:75   */\n      0x40\n        /* \"#utility.yul\":67:76   */\n      mload\n        /* \"#utility.yul\":57:76   */\n      swap1\n      pop\n        /* \"#utility.yul\":7:82   */\n      swap1\n      jump\t// out\n        /* \"#utility.yul\":88:205   */\n    tag_231:\n        /* \"#utility.yul\":197:198   */\n      0x00\n        /* \"#utility.yul\":194:195   */\n      dup1\n        /* \"#utility.yul\":187:199   */\n      revert\n        /* \"#utility.yul\":211:328   */\n    tag_232:\n        /* \"#utility.yul\":320:321   */\n      0x00\n        /* \"#utility.yul\":317:318   */\n      dup1\n        /* \"#utility.yul\":310:322   */\n      revert\n        /* \"#utility.yul\":334:411   */\n    tag_233:\n        /* \"#utility.yul\":371:378   */\n      0x00\n        /* \"#utility.yul\":400:405   */\n      dup2\n        /* \"#utility.yul\":389:405   */\n      swap1\n      pop\n        /* \"#utility.yul\":334:411   */\n      swap2\n      swap1\n      pop\n      jump\t// out\n        /* \"#utility.yul\":417:539   */\n    tag_234:\n        /* \"#utility.yul\":490:514   */\n      tag_284\n        /* \"#utility.yul\":508:513   */\n      dup2\n        /* \"#utility.yul\":490:514   */\n      tag_233\n      jump\t// in\n    tag_284:\n        /* \"#utility.yul\":483:488   */\n      dup2\n        /* \"#utility.yul\":480:515   */\n      eq\n        /* \"#utility.yul\":470:533   */\n      tag_285\n      jumpi\n        /* \"#utility.yul\":529:530   */\n      0x00\n        /* \"#utility.yul\":526:527   */\n      dup1\n        /* \"#utility.yul\":519:531   */\n      revert\n        /* \"#utility.yul\":470:533   */\n    tag_285:\n        /* \"#utility.yul\":417:539   */\n      pop\n      jump\t// out\n        /* \"#utility.yul\":545:684   */\n    tag_235:\n        /* \"#utility.yul\":591:596   */\n      0x00\n        /* \"#utility.yul\":629:635   */\n      dup2\n        /* \"#utility.yul\":616:636   */\n      calldataload\n        /* \"#utility.yul\":607:636   */\n      swap1\n      pop\n        /* \"#utility.yul\":645:678   */\n      tag_287\n        /* \"#utility.yul\":672:677   */\n      dup2\n        /* \"#utility.yul\":645:678   */\n      tag_234\n      jump\t// in\n    tag_287:\n        /* \"#utility.yul\":545:684   */\n      swap3\n      swap2\n      pop\n      pop\n      jump\t// out\n        /* \"#utility.yul\":690:1019   */\n    tag_23:\n        /* \"#utility.yul\":749:755   */\n      0x00\n        /* \"#utility.yul\":798:800   */\n      0x20\n        /* \"#utility.yul\":786:795   */\n      dup3\n        /* \"#utility.yul\":777:784   */\n      dup5\n        /* \"#utility.yul\":773:796   */\n      sub\n        /* \"#utility.yul\":769:801   */\n      slt\n        /* \"#utility.yul\":766:885   */\n      iszero\n      tag_289\n      jumpi\n        /* \"#utility.yul\":804:883   */\n      tag_290\n      tag_231\n      jump\t// in\n    tag_290:\n        /* \"#utility.yul\":766:885   */\n    tag_289:\n        /* \"#utility.yul\":924:925   */\n      0x00\n        /* \"#utility.yul\":949:1002   */\n      tag_291\n        /* \"#utility.yul\":994:1001   */\n      dup5\n        /* \"#utility.yul\":985:991   */\n      dup3\n        /* \"#utility.yul\":974:983   */\n      dup6\n        /* \"#utility.yul\":970:992   */\n      add\n        /* \"#utility.yul\":949:1002   */\n      tag_235\n      jump\t// in\n    tag_291:\n        /* \"#utility.yul\":939:1002   */\n      swap2\n      pop\n        /* \"#utility.yul\":895:1012   */\n      pop\n        /* \"#utility.yul\":690:1019   */\n      swap3\n      swap2\n      pop\n      pop\n      jump\t// out\n        /* \"#utility.yul\":1025:1151   */\n    tag_236:\n        /* \"#utility.yul\":1062:1069   */\n      0x00\n        /* \"#utility.yul\":1102:1144   */\n      0xffffffffffffffffffffffffffffffffffffffff\n        /* \"#utility.yul\":1095:1100   */\n      dup3\n        /* \"#utility.yul\":1091:1145   */\n      and\n        /* \"#utility.yul\":1080:1145   */\n      swap1\n      pop\n        /* \"#utility.yul\":1025:1151   */\n      swap2\n      swap1\n      pop\n      jump\t// out\n        /* \"#utility.yul\":1157:1253   */\n    tag_237:\n        /* \"#utility.yul\":1194:1201   */\n      0x00\n        /* \"#utility.yul\":1223:1247   */\n      tag_294\n        /* \"#utility.yul\":1241:1246   */\n      dup3\n        /* \"#utility.yul\":1223:1247   */\n      tag_236\n      jump\t// in\n    tag_294:\n        /* \"#utility.yul\":1212:1247   */\n      swap1\n      pop\n        /* \"#utility.yul\":1157:1253   */\n      swap2\n      swap1\n      pop\n      jump\t// out\n        /* \"#utility.yul\":1259:1377   */\n    tag_238:\n        /* \"#utility.yul\":1346:1370   */\n      tag_296\n        /* \"#utility.yul\":1364:1369   */\n      dup2\n        /* \"#utility.yul\":1346:1370   */\n      tag_237\n      jump\t// in\n    tag_296:\n        /* \"#utility.yul\":1341:1344   */\n      dup3\n        /* \"#utility.yul\":1334:1371   */\n      mstore\n        /* \"#utility.yul\":1259:1377   */\n      pop\n      pop\n      jump\t// out\n        /* \"#utility.yul\":1383:1605   */\n    tag_30:\n        /* \"#utility.yul\":1476:1480   */\n      0x00\n        /* \"#utility.yul\":1514:1516   */\n      0x20\n        /* \"#utility.yul\":1503:1512   */\n      dup3\n        /* \"#utility.yul\":1499:1517   */\n      add\n        /* \"#utility.yul\":1491:1517   */\n      swap1\n      pop\n        /* \"#utility.yul\":1527:1598   */\n      tag_298\n        /* \"#utility.yul\":1595:1596   */\n      0x00\n        /* \"#utility.yul\":1584:1593   */\n      dup4\n        /* \"#utility.yul\":1580:1597   */\n      add\n        /* \"#utility.yul\":1571:1577   */\n      dup5\n        /* \"#utility.yul\":1527:1598   */\n      tag_238\n      jump\t// in\n    tag_298:\n        /* \"#utility.yul\":1383:1605   */\n      swap3\n      swap2\n      pop\n      pop\n      jump\t// out\n        /* \"#utility.yul\":1611:1701   */\n    tag_239:\n        /* \"#utility.yul\":1645:1652   */\n      0x00\n        /* \"#utility.yul\":1688:1693   */\n      dup2\n        /* \"#utility.yul\":1681:1694   */\n      iszero\n        /* \"#utility.yul\":1674:1695   */\n      iszero\n        /* \"#utility.yul\":1663:1695   */\n      swap1\n      pop\n        /* \"#utility.yul\":1611:1701   */\n      swap2\n      swap1\n      pop\n      jump\t// out\n        /* \"#utility.yul\":1707:1816   */\n    tag_240:\n        /* \"#utility.yul\":1788:1809   */\n      tag_301\n        /* \"#utility.yul\":1803:1808   */\n      dup2\n        /* \"#utility.yul\":1788:1809   */\n      tag_239\n      jump\t// in\n    tag_301:\n        /* \"#utility.yul\":1783:1786   */\n      dup3\n        /* \"#utility.yul\":1776:1810   */\n      mstore\n        /* \"#utility.yul\":1707:1816   */\n      pop\n      pop\n      jump\t// out\n        /* \"#utility.yul\":1822:2032   */\n    tag_35:\n        /* \"#utility.yul\":1909:1913   */\n      0x00\n        /* \"#utility.yul\":1947:1949   */\n      0x20\n        /* \"#utility.yul\":1936:1945   */\n      dup3\n        /* \"#utility.yul\":1932:1950   */\n      add\n        /* \"#utility.yul\":1924:1950   */\n      swap1\n      pop\n        /* \"#utility.yul\":1960:2025   */\n      tag_303\n        /* \"#utility.yul\":2022:2023   */\n      0x00\n        /* \"#utility.yul\":2011:2020   */\n      dup4\n        /* \"#utility.yul\":2007:2024   */\n      add\n        /* \"#utility.yul\":1998:2004   */\n      dup5\n        /* \"#utility.yul\":1960:2025   */\n      tag_240\n      jump\t// in\n    tag_303:\n        /* \"#utility.yul\":1822:2032   */\n      swap3\n      swap2\n      pop\n      pop\n      jump\t// out\n        /* \"#utility.yul\":2038:2155   */\n    tag_241:\n        /* \"#utility.yul\":2147:2148   */\n      0x00\n        /* \"#utility.yul\":2144:2145   */\n      dup1\n        /* \"#utility.yul\":2137:2149   */\n      revert\n        /* \"#utility.yul\":2161:2263   */\n    tag_242:\n        /* \"#utility.yul\":2202:2208   */\n      0x00\n        /* \"#utility.yul\":2253:2255   */\n      0x1f\n        /* \"#utility.yul\":2249:2256   */\n      not\n        /* \"#utility.yul\":2244:2246   */\n      0x1f\n        /* \"#utility.yul\":2237:2242   */\n      dup4\n        /* \"#utility.yul\":2233:2247   */\n      add\n        /* \"#utility.yul\":2229:2257   */\n      and\n        /* \"#utility.yul\":2219:2257   */\n      swap1\n      pop\n        /* \"#utility.yul\":2161:2263   */\n      swap2\n      swap1\n      pop\n      jump\t// out\n        /* \"#utility.yul\":2269:2449   */\n    tag_140:\n        /* \"#utility.yul\":2317:2394   */\n      0x4e487b7100000000000000000000000000000000000000000000000000000000\n        /* \"#utility.yul\":2314:2315   */\n      0x00\n        /* \"#utility.yul\":2307:2395   */\n      mstore\n        /* \"#utility.yul\":2414:2418   */\n      0x41\n        /* \"#utility.yul\":2411:2412   */\n      0x04\n        /* \"#utility.yul\":2404:2419   */\n      mstore\n        /* \"#utility.yul\":2438:2442   */\n      0x24\n        /* \"#utility.yul\":2435:2436   */\n      0x00\n        /* \"#utility.yul\":2428:2443   */\n      revert\n        /* \"#utility.yul\":2455:2736   */\n    tag_243:\n        /* \"#utility.yul\":2538:2565   */\n      tag_308\n        /* \"#utility.yul\":2560:2564   */\n      dup3\n        /* \"#utility.yul\":2538:2565   */\n      tag_242\n      jump\t// in\n    tag_308:\n        /* \"#utility.yul\":2530:2536   */\n      dup2\n        /* \"#utility.yul\":2526:2566   */\n      add\n        /* \"#utility.yul\":2668:2674   */\n      dup2\n        /* \"#utility.yul\":2656:2666   */\n      dup2\n        /* \"#utility.yul\":2653:2675   */\n      lt\n        /* \"#utility.yul\":2632:2650   */\n      0xffffffffffffffff\n        /* \"#utility.yul\":2620:2630   */\n      dup3\n        /* \"#utility.yul\":2617:2651   */\n      gt\n        /* \"#utility.yul\":2614:2676   */\n      or\n        /* \"#utility.yul\":2611:2699   */\n      iszero\n      tag_309\n      jumpi\n        /* \"#utility.yul\":2679:2697   */\n      tag_310\n      tag_140\n      jump\t// in\n    tag_310:\n        /* \"#utility.yul\":2611:2699   */\n    tag_309:\n        /* \"#utility.yul\":2719:2729   */\n      dup1\n        /* \"#utility.yul\":2715:2717   */\n      0x40\n        /* \"#utility.yul\":2708:2730   */\n      mstore\n        /* \"#utility.yul\":2498:2736   */\n      pop\n        /* \"#utility.yul\":2455:2736   */\n      pop\n      pop\n      jump\t// out\n        /* \"#utility.yul\":2742:2871   */\n    tag_244:\n        /* \"#utility.yul\":2776:2782   */\n      0x00\n        /* \"#utility.yul\":2803:2823   */\n      tag_312\n      tag_230\n      jump\t// in\n    tag_312:\n        /* \"#utility.yul\":2793:2823   */\n      swap1\n      pop\n        /* \"#utility.yul\":2832:2865   */\n      tag_313\n        /* \"#utility.yul\":2860:2864   */\n      dup3\n        /* \"#utility.yul\":2852:2858   */\n      dup3\n        /* \"#utility.yul\":2832:2865   */\n      tag_243\n      jump\t// in\n    tag_313:\n        /* \"#utility.yul\":2742:2871   */\n      swap2\n      swap1\n      pop\n      jump\t// out\n        /* \"#utility.yul\":2877:3188   */\n    tag_245:\n        /* \"#utility.yul\":2954:2958   */\n      0x00\n        /* \"#utility.yul\":3044:3062   */\n      0xffffffffffffffff\n        /* \"#utility.yul\":3036:3042   */\n      dup3\n        /* \"#utility.yul\":3033:3063   */\n      gt\n        /* \"#utility.yul\":3030:3086   */\n      iszero\n      tag_315\n      jumpi\n        /* \"#utility.yul\":3066:3084   */\n      tag_316\n      tag_140\n      jump\t// in\n    tag_316:\n        /* \"#utility.yul\":3030:3086   */\n    tag_315:\n        /* \"#utility.yul\":3116:3120   */\n      0x20\n        /* \"#utility.yul\":3108:3114   */\n      dup3\n        /* \"#utility.yul\":3104:3121   */\n      mul\n        /* \"#utility.yul\":3096:3121   */\n      swap1\n      pop\n        /* \"#utility.yul\":3176:3180   */\n      0x20\n        /* \"#utility.yul\":3170:3174   */\n      dup2\n        /* \"#utility.yul\":3166:3181   */\n      add\n        /* \"#utility.yul\":3158:3181   */\n      swap1\n      pop\n        /* \"#utility.yul\":2877:3188   */\n      swap2\n      swap1\n      pop\n      jump\t// out\n        /* \"#utility.yul\":3194:3311   */\n    tag_246:\n        /* \"#utility.yul\":3303:3304   */\n      0x00\n        /* \"#utility.yul\":3300:3301   */\n      dup1\n        /* \"#utility.yul\":3293:3305   */\n      revert\n        /* \"#utility.yul\":3334:4044   */\n    tag_247:\n        /* \"#utility.yul\":3430:3435   */\n      0x00\n        /* \"#utility.yul\":3455:3536   */\n      tag_319\n        /* \"#utility.yul\":3471:3535   */\n      tag_320\n        /* \"#utility.yul\":3528:3534   */\n      dup5\n        /* \"#utility.yul\":3471:3535   */\n      tag_245\n      jump\t// in\n    tag_320:\n        /* \"#utility.yul\":3455:3536   */\n      tag_244\n      jump\t// in\n    tag_319:\n        /* \"#utility.yul\":3446:3536   */\n      swap1\n      pop\n        /* \"#utility.yul\":3556:3561   */\n      dup1\n        /* \"#utility.yul\":3585:3591   */\n      dup4\n        /* \"#utility.yul\":3578:3583   */\n      dup3\n        /* \"#utility.yul\":3571:3592   */\n      mstore\n        /* \"#utility.yul\":3619:3623   */\n      0x20\n        /* \"#utility.yul\":3612:3617   */\n      dup3\n        /* \"#utility.yul\":3608:3624   */\n      add\n        /* \"#utility.yul\":3601:3624   */\n      swap1\n      pop\n        /* \"#utility.yul\":3672:3676   */\n      0x20\n        /* \"#utility.yul\":3664:3670   */\n      dup5\n        /* \"#utility.yul\":3660:3677   */\n      mul\n        /* \"#utility.yul\":3652:3658   */\n      dup4\n        /* \"#utility.yul\":3648:3678   */\n      add\n        /* \"#utility.yul\":3701:3704   */\n      dup6\n        /* \"#utility.yul\":3693:3699   */\n      dup2\n        /* \"#utility.yul\":3690:3705   */\n      gt\n        /* \"#utility.yul\":3687:3809   */\n      iszero\n      tag_321\n      jumpi\n        /* \"#utility.yul\":3720:3799   */\n      tag_322\n      tag_246\n      jump\t// in\n    tag_322:\n        /* \"#utility.yul\":3687:3809   */\n    tag_321:\n        /* \"#utility.yul\":3835:3841   */\n      dup4\n        /* \"#utility.yul\":3818:4038   */\n    tag_323:\n        /* \"#utility.yul\":3852:3858   */\n      dup2\n        /* \"#utility.yul\":3847:3850   */\n      dup2\n        /* \"#utility.yul\":3844:3859   */\n      lt\n        /* \"#utility.yul\":3818:4038   */\n      iszero\n      tag_325\n      jumpi\n        /* \"#utility.yul\":3927:3930   */\n      dup1\n        /* \"#utility.yul\":3956:3993   */\n      tag_326\n        /* \"#utility.yul\":3989:3992   */\n      dup9\n        /* \"#utility.yul\":3977:3987   */\n      dup3\n        /* \"#utility.yul\":3956:3993   */\n      tag_235\n      jump\t// in\n    tag_326:\n        /* \"#utility.yul\":3951:3954   */\n      dup5\n        /* \"#utility.yul\":3944:3994   */\n      mstore\n        /* \"#utility.yul\":4023:4027   */\n      0x20\n        /* \"#utility.yul\":4018:4021   */\n      dup5\n        /* \"#utility.yul\":4014:4028   */\n      add\n        /* \"#utility.yul\":4007:4028   */\n      swap4\n      pop\n        /* \"#utility.yul\":3894:4038   */\n      pop\n        /* \"#utility.yul\":3878:3882   */\n      0x20\n        /* \"#utility.yul\":3873:3876   */\n      dup2\n        /* \"#utility.yul\":3869:3883   */\n      add\n        /* \"#utility.yul\":3862:3883   */\n      swap1\n      pop\n        /* \"#utility.yul\":3818:4038   */\n      jump(tag_323)\n    tag_325:\n        /* \"#utility.yul\":3822:3843   */\n      pop\n        /* \"#utility.yul\":3436:4044   */\n      pop\n      pop\n        /* \"#utility.yul\":3334:4044   */\n      swap4\n      swap3\n      pop\n      pop\n      pop\n      jump\t// out\n        /* \"#utility.yul\":4067:4437   */\n    tag_248:\n        /* \"#utility.yul\":4138:4143   */\n      0x00\n        /* \"#utility.yul\":4187:4190   */\n      dup3\n        /* \"#utility.yul\":4180:4184   */\n      0x1f\n        /* \"#utility.yul\":4172:4178   */\n      dup4\n        /* \"#utility.yul\":4168:4185   */\n      add\n        /* \"#utility.yul\":4164:4191   */\n      slt\n        /* \"#utility.yul\":4154:4276   */\n      tag_328\n      jumpi\n        /* \"#utility.yul\":4195:4274   */\n      tag_329\n      tag_241\n      jump\t// in\n    tag_329:\n        /* \"#utility.yul\":4154:4276   */\n    tag_328:\n        /* \"#utility.yul\":4312:4318   */\n      dup2\n        /* \"#utility.yul\":4299:4319   */\n      calldataload\n        /* \"#utility.yul\":4337:4431   */\n      tag_330\n        /* \"#utility.yul\":4427:4430   */\n      dup5\n        /* \"#utility.yul\":4419:4425   */\n      dup3\n        /* \"#utility.yul\":4412:4416   */\n      0x20\n        /* \"#utility.yul\":4404:4410   */\n      dup7\n        /* \"#utility.yul\":4400:4417   */\n      add\n        /* \"#utility.yul\":4337:4431   */\n      tag_247\n      jump\t// in\n    tag_330:\n        /* \"#utility.yul\":4328:4431   */\n      swap2\n      pop\n        /* \"#utility.yul\":4144:4437   */\n      pop\n        /* \"#utility.yul\":4067:4437   */\n      swap3\n      swap2\n      pop\n      pop\n      jump\t// out\n        /* \"#utility.yul\":4443:4982   */\n    tag_38:\n        /* \"#utility.yul\":4527:4533   */\n      0x00\n        /* \"#utility.yul\":4576:4578   */\n      0x20\n        /* \"#utility.yul\":4564:4573   */\n      dup3\n        /* \"#utility.yul\":4555:4562   */\n      dup5\n        /* \"#utility.yul\":4551:4574   */\n      sub\n        /* \"#utility.yul\":4547:4579   */\n      slt\n        /* \"#utility.yul\":4544:4663   */\n      iszero\n      tag_332\n      jumpi\n        /* \"#utility.yul\":4582:4661   */\n      tag_333\n      tag_231\n      jump\t// in\n    tag_333:\n        /* \"#utility.yul\":4544:4663   */\n    tag_332:\n        /* \"#utility.yul\":4730:4731   */\n      0x00\n        /* \"#utility.yul\":4719:4728   */\n      dup3\n        /* \"#utility.yul\":4715:4732   */\n      add\n        /* \"#utility.yul\":4702:4733   */\n      calldataload\n        /* \"#utility.yul\":4760:4778   */\n      0xffffffffffffffff\n        /* \"#utility.yul\":4752:4758   */\n      dup2\n        /* \"#utility.yul\":4749:4779   */\n      gt\n        /* \"#utility.yul\":4746:4863   */\n      iszero\n      tag_334\n      jumpi\n        /* \"#utility.yul\":4782:4861   */\n      tag_335\n      tag_232\n      jump\t// in\n    tag_335:\n        /* \"#utility.yul\":4746:4863   */\n    tag_334:\n        /* \"#utility.yul\":4887:4965   */\n      tag_336\n        /* \"#utility.yul\":4957:4964   */\n      dup5\n        /* \"#utility.yul\":4948:4954   */\n      dup3\n        /* \"#utility.yul\":4937:4946   */\n      dup6\n        /* \"#utility.yul\":4933:4955   */\n      add\n        /* \"#utility.yul\":4887:4965   */\n      tag_248\n      jump\t// in\n    tag_336:\n        /* \"#utility.yul\":4877:4965   */\n      swap2\n      pop\n        /* \"#utility.yul\":4673:4975   */\n      pop\n        /* \"#utility.yul\":4443:4982   */\n      swap3\n      swap2\n      pop\n      pop\n      jump\t// out\n        /* \"#utility.yul\":4988:5106   */\n    tag_249:\n        /* \"#utility.yul\":5075:5099   */\n      tag_338\n        /* \"#utility.yul\":5093:5098   */\n      dup2\n        /* \"#utility.yul\":5075:5099   */\n      tag_233\n      jump\t// in\n    tag_338:\n        /* \"#utility.yul\":5070:5073   */\n      dup3\n        /* \"#utility.yul\":5063:5100   */\n      mstore\n        /* \"#utility.yul\":4988:5106   */\n      pop\n      pop\n      jump\t// out\n        /* \"#utility.yul\":5112:5334   */\n    tag_44:\n        /* \"#utility.yul\":5205:5209   */\n      0x00\n        /* \"#utility.yul\":5243:5245   */\n      0x20\n        /* \"#utility.yul\":5232:5241   */\n      dup3\n        /* \"#utility.yul\":5228:5246   */\n      add\n        /* \"#utility.yul\":5220:5246   */\n      swap1\n      pop\n        /* \"#utility.yul\":5256:5327   */\n      tag_340\n        /* \"#utility.yul\":5324:5325   */\n      0x00\n        /* \"#utility.yul\":5313:5322   */\n      dup4\n        /* \"#utility.yul\":5309:5326   */\n      add\n        /* \"#utility.yul\":5300:5306   */\n      dup5\n        /* \"#utility.yul\":5256:5327   */\n      tag_249\n      jump\t// in\n    tag_340:\n        /* \"#utility.yul\":5112:5334   */\n      swap3\n      swap2\n      pop\n      pop\n      jump\t// out\n        /* \"#utility.yul\":5340:5454   */\n    tag_250:\n        /* \"#utility.yul\":5407:5413   */\n      0x00\n        /* \"#utility.yul\":5441:5446   */\n      dup2\n        /* \"#utility.yul\":5435:5447   */\n      mload\n        /* \"#utility.yul\":5425:5447   */\n      swap1\n      pop\n        /* \"#utility.yul\":5340:5454   */\n      swap2\n      swap1\n      pop\n      jump\t// out\n        /* \"#utility.yul\":5460:5644   */\n    tag_251:\n        /* \"#utility.yul\":5559:5570   */\n      0x00\n        /* \"#utility.yul\":5593:5599   */\n      dup3\n        /* \"#utility.yul\":5588:5591   */\n      dup3\n        /* \"#utility.yul\":5581:5600   */\n      mstore\n        /* \"#utility.yul\":5633:5637   */\n      0x20\n        /* \"#utility.yul\":5628:5631   */\n      dup3\n        /* \"#utility.yul\":5624:5638   */\n      add\n        /* \"#utility.yul\":5609:5638   */\n      swap1\n      pop\n        /* \"#utility.yul\":5460:5644   */\n      swap3\n      swap2\n      pop\n      pop\n      jump\t// out\n        /* \"#utility.yul\":5650:5782   */\n    tag_252:\n        /* \"#utility.yul\":5717:5721   */\n      0x00\n        /* \"#utility.yul\":5740:5743   */\n      dup2\n        /* \"#utility.yul\":5732:5743   */\n      swap1\n      pop\n        /* \"#utility.yul\":5770:5774   */\n      0x20\n        /* \"#utility.yul\":5765:5768   */\n      dup3\n        /* \"#utility.yul\":5761:5775   */\n      add\n        /* \"#utility.yul\":5753:5775   */\n      swap1\n      pop\n        /* \"#utility.yul\":5650:5782   */\n      swap2\n      swap1\n      pop\n      jump\t// out\n        /* \"#utility.yul\":5788:5896   */\n    tag_253:\n        /* \"#utility.yul\":5865:5889   */\n      tag_345\n        /* \"#utility.yul\":5883:5888   */\n      dup2\n        /* \"#utility.yul\":5865:5889   */\n      tag_233\n      jump\t// in\n    tag_345:\n        /* \"#utility.yul\":5860:5863   */\n      dup3\n        /* \"#utility.yul\":5853:5890   */\n      mstore\n        /* \"#utility.yul\":5788:5896   */\n      pop\n      pop\n      jump\t// out\n        /* \"#utility.yul\":5902:6081   */\n    tag_254:\n        /* \"#utility.yul\":5971:5981   */\n      0x00\n        /* \"#utility.yul\":5992:6038   */\n      tag_347\n        /* \"#utility.yul\":6034:6037   */\n      dup4\n        /* \"#utility.yul\":6026:6032   */\n      dup4\n        /* \"#utility.yul\":5992:6038   */\n      tag_253\n      jump\t// in\n    tag_347:\n        /* \"#utility.yul\":6070:6074   */\n      0x20\n        /* \"#utility.yul\":6065:6068   */\n      dup4\n        /* \"#utility.yul\":6061:6075   */\n      add\n        /* \"#utility.yul\":6047:6075   */\n      swap1\n      pop\n        /* \"#utility.yul\":5902:6081   */\n      swap3\n      swap2\n      pop\n      pop\n      jump\t// out\n        /* \"#utility.yul\":6087:6200   */\n    tag_255:\n        /* \"#utility.yul\":6157:6161   */\n      0x00\n        /* \"#utility.yul\":6189:6193   */\n      0x20\n        /* \"#utility.yul\":6184:6187   */\n      dup3\n        /* \"#utility.yul\":6180:6194   */\n      add\n        /* \"#utility.yul\":6172:6194   */\n      swap1\n      pop\n        /* \"#utility.yul\":6087:6200   */\n      swap2\n      swap1\n      pop\n      jump\t// out\n        /* \"#utility.yul\":6236:6968   */\n    tag_256:\n        /* \"#utility.yul\":6355:6358   */\n      0x00\n        /* \"#utility.yul\":6384:6438   */\n      tag_350\n        /* \"#utility.yul\":6432:6437   */\n      dup3\n        /* \"#utility.yul\":6384:6438   */\n      tag_250\n      jump\t// in\n    tag_350:\n        /* \"#utility.yul\":6454:6540   */\n      tag_351\n        /* \"#utility.yul\":6533:6539   */\n      dup2\n        /* \"#utility.yul\":6528:6531   */\n      dup6\n        /* \"#utility.yul\":6454:6540   */\n      tag_251\n      jump\t// in\n    tag_351:\n        /* \"#utility.yul\":6447:6540   */\n      swap4\n      pop\n        /* \"#utility.yul\":6564:6620   */\n      tag_352\n        /* \"#utility.yul\":6614:6619   */\n      dup4\n        /* \"#utility.yul\":6564:6620   */\n      tag_252\n      jump\t// in\n    tag_352:\n        /* \"#utility.yul\":6643:6650   */\n      dup1\n        /* \"#utility.yul\":6674:6675   */\n      0x00\n        /* \"#utility.yul\":6659:6943   */\n    tag_353:\n        /* \"#utility.yul\":6684:6690   */\n      dup4\n        /* \"#utility.yul\":6681:6682   */\n      dup2\n        /* \"#utility.yul\":6678:6691   */\n      lt\n        /* \"#utility.yul\":6659:6943   */\n      iszero\n      tag_355\n      jumpi\n        /* \"#utility.yul\":6760:6766   */\n      dup2\n        /* \"#utility.yul\":6754:6767   */\n      mload\n        /* \"#utility.yul\":6787:6850   */\n      tag_356\n        /* \"#utility.yul\":6846:6849   */\n      dup9\n        /* \"#utility.yul\":6831:6844   */\n      dup3\n        /* \"#utility.yul\":6787:6850   */\n      tag_254\n      jump\t// in\n    tag_356:\n        /* \"#utility.yul\":6780:6850   */\n      swap8\n      pop\n        /* \"#utility.yul\":6873:6933   */\n      tag_357\n        /* \"#utility.yul\":6926:6932   */\n      dup4\n        /* \"#utility.yul\":6873:6933   */\n      tag_255\n      jump\t// in\n    tag_357:\n        /* \"#utility.yul\":6863:6933   */\n      swap3\n      pop\n        /* \"#utility.yul\":6719:6943   */\n      pop\n        /* \"#utility.yul\":6706:6707   */\n      0x01\n        /* \"#utility.yul\":6703:6704   */\n      dup2\n        /* \"#utility.yul\":6699:6708   */\n      add\n        /* \"#utility.yul\":6694:6708   */\n      swap1\n      pop\n        /* \"#utility.yul\":6659:6943   */\n      jump(tag_353)\n    tag_355:\n        /* \"#utility.yul\":6663:6677   */\n      pop\n        /* \"#utility.yul\":6959:6962   */\n      dup6\n        /* \"#utility.yul\":6952:6962   */\n      swap4\n      pop\n        /* \"#utility.yul\":6360:6968   */\n      pop\n      pop\n      pop\n        /* \"#utility.yul\":6236:6968   */\n      swap3\n      swap2\n      pop\n      pop\n      jump\t// out\n        /* \"#utility.yul\":6974:7347   */\n    tag_53:\n        /* \"#utility.yul\":7117:7121   */\n      0x00\n        /* \"#utility.yul\":7155:7157   */\n      0x20\n        /* \"#utility.yul\":7144:7153   */\n      dup3\n        /* \"#utility.yul\":7140:7158   */\n      add\n        /* \"#utility.yul\":7132:7158   */\n      swap1\n      pop\n        /* \"#utility.yul\":7204:7213   */\n      dup2\n        /* \"#utility.yul\":7198:7202   */\n      dup2\n        /* \"#utility.yul\":7194:7214   */\n      sub\n        /* \"#utility.yul\":7190:7191   */\n      0x00\n        /* \"#utility.yul\":7179:7188   */\n      dup4\n        /* \"#utility.yul\":7175:7192   */\n      add\n        /* \"#utility.yul\":7168:7215   */\n      mstore\n        /* \"#utility.yul\":7232:7340   */\n      tag_359\n        /* \"#utility.yul\":7335:7339   */\n      dup2\n        /* \"#utility.yul\":7326:7332   */\n      dup5\n        /* \"#utility.yul\":7232:7340   */\n      tag_256\n      jump\t// in\n    tag_359:\n        /* \"#utility.yul\":7224:7340   */\n      swap1\n      pop\n        /* \"#utility.yul\":6974:7347   */\n      swap3\n      swap2\n      pop\n      pop\n      jump\t// out\n        /* \"#utility.yul\":7353:7522   */\n    tag_257:\n        /* \"#utility.yul\":7437:7448   */\n      0x00\n        /* \"#utility.yul\":7471:7477   */\n      dup3\n        /* \"#utility.yul\":7466:7469   */\n      dup3\n        /* \"#utility.yul\":7459:7478   */\n      mstore\n        /* \"#utility.yul\":7511:7515   */\n      0x20\n        /* \"#utility.yul\":7506:7509   */\n      dup3\n        /* \"#utility.yul\":7502:7516   */\n      add\n        /* \"#utility.yul\":7487:7516   */\n      swap1\n      pop\n        /* \"#utility.yul\":7353:7522   */\n      swap3\n      swap2\n      pop\n      pop\n      jump\t// out\n        /* \"#utility.yul\":7528:7753   */\n    tag_258:\n        /* \"#utility.yul\":7668:7702   */\n      0x4f6e6c7920746865206f776e65722063616e20706572666f726d207468697320\n        /* \"#utility.yul\":7664:7665   */\n      0x00\n        /* \"#utility.yul\":7656:7662   */\n      dup3\n        /* \"#utility.yul\":7652:7666   */\n      add\n        /* \"#utility.yul\":7645:7703   */\n      mstore\n        /* \"#utility.yul\":7737:7745   */\n      0x616374696f6e0000000000000000000000000000000000000000000000000000\n        /* \"#utility.yul\":7732:7734   */\n      0x20\n        /* \"#utility.yul\":7724:7730   */\n      dup3\n        /* \"#utility.yul\":7720:7735   */\n      add\n        /* \"#utility.yul\":7713:7746   */\n      mstore\n        /* \"#utility.yul\":7528:7753   */\n      pop\n      jump\t// out\n        /* \"#utility.yul\":7759:8125   */\n    tag_259:\n        /* \"#utility.yul\":7901:7904   */\n      0x00\n        /* \"#utility.yul\":7922:7989   */\n      tag_363\n        /* \"#utility.yul\":7986:7988   */\n      0x26\n        /* \"#utility.yul\":7981:7984   */\n      dup4\n        /* \"#utility.yul\":7922:7989   */\n      tag_257\n      jump\t// in\n    tag_363:\n        /* \"#utility.yul\":7915:7989   */\n      swap2\n      pop\n        /* \"#utility.yul\":7998:8091   */\n      tag_364\n        /* \"#utility.yul\":8087:8090   */\n      dup3\n        /* \"#utility.yul\":7998:8091   */\n      tag_258\n      jump\t// in\n    tag_364:\n        /* \"#utility.yul\":8116:8118   */\n      0x40\n        /* \"#utility.yul\":8111:8114   */\n      dup3\n        /* \"#utility.yul\":8107:8119   */\n      add\n        /* \"#utility.yul\":8100:8119   */\n      swap1\n      pop\n        /* \"#utility.yul\":7759:8125   */\n      swap2\n      swap1\n      pop\n      jump\t// out\n        /* \"#utility.yul\":8131:8550   */\n    tag_75:\n        /* \"#utility.yul\":8297:8301   */\n      0x00\n        /* \"#utility.yul\":8335:8337   */\n      0x20\n        /* \"#utility.yul\":8324:8333   */\n      dup3\n        /* \"#utility.yul\":8320:8338   */\n      add\n        /* \"#utility.yul\":8312:8338   */\n      swap1\n      pop\n        /* \"#utility.yul\":8384:8393   */\n      dup2\n        /* \"#utility.yul\":8378:8382   */\n      dup2\n        /* \"#utility.yul\":8374:8394   */\n      sub\n        /* \"#utility.yul\":8370:8371   */\n      0x00\n        /* \"#utility.yul\":8359:8368   */\n      dup4\n        /* \"#utility.yul\":8355:8372   */\n      add\n        /* \"#utility.yul\":8348:8395   */\n      mstore\n        /* \"#utility.yul\":8412:8543   */\n      tag_366\n        /* \"#utility.yul\":8538:8542   */\n      dup2\n        /* \"#utility.yul\":8412:8543   */\n      tag_259\n      jump\t// in\n    tag_366:\n        /* \"#utility.yul\":8404:8543   */\n      swap1\n      pop\n        /* \"#utility.yul\":8131:8550   */\n      swap2\n      swap1\n      pop\n      jump\t// out\n        /* \"#utility.yul\":8556:8726   */\n    tag_260:\n        /* \"#utility.yul\":8696:8718   */\n      0x4e6f20457468657220746f2070756c6c206f7574000000000000000000000000\n        /* \"#utility.yul\":8692:8693   */\n      0x00\n        /* \"#utility.yul\":8684:8690   */\n      dup3\n        /* \"#utility.yul\":8680:8694   */\n      add\n        /* \"#utility.yul\":8673:8719   */\n      mstore\n        /* \"#utility.yul\":8556:8726   */\n      pop\n      jump\t// out\n        /* \"#utility.yul\":8732:9098   */\n    tag_261:\n        /* \"#utility.yul\":8874:8877   */\n      0x00\n        /* \"#utility.yul\":8895:8962   */\n      tag_369\n        /* \"#utility.yul\":8959:8961   */\n      0x14\n        /* \"#utility.yul\":8954:8957   */\n      dup4\n        /* \"#utility.yul\":8895:8962   */\n      tag_257\n      jump\t// in\n    tag_369:\n        /* \"#utility.yul\":8888:8962   */\n      swap2\n      pop\n        /* \"#utility.yul\":8971:9064   */\n      tag_370\n        /* \"#utility.yul\":9060:9063   */\n      dup3\n        /* \"#utility.yul\":8971:9064   */\n      tag_260\n      jump\t// in\n    tag_370:\n        /* \"#utility.yul\":9089:9091   */\n      0x20\n        /* \"#utility.yul\":9084:9087   */\n      dup3\n        /* \"#utility.yul\":9080:9092   */\n      add\n        /* \"#utility.yul\":9073:9092   */\n      swap1\n      pop\n        /* \"#utility.yul\":8732:9098   */\n      swap2\n      swap1\n      pop\n      jump\t// out\n        /* \"#utility.yul\":9104:9523   */\n    tag_79:\n        /* \"#utility.yul\":9270:9274   */\n      0x00\n        /* \"#utility.yul\":9308:9310   */\n      0x20\n        /* \"#utility.yul\":9297:9306   */\n      dup3\n        /* \"#utility.yul\":9293:9311   */\n      add\n        /* \"#utility.yul\":9285:9311   */\n      swap1\n      pop\n        /* \"#utility.yul\":9357:9366   */\n      dup2\n        /* \"#utility.yul\":9351:9355   */\n      dup2\n        /* \"#utility.yul\":9347:9367   */\n      sub\n        /* \"#utility.yul\":9343:9344   */\n      0x00\n        /* \"#utility.yul\":9332:9341   */\n      dup4\n        /* \"#utility.yul\":9328:9345   */\n      add\n        /* \"#utility.yul\":9321:9368   */\n      mstore\n        /* \"#utility.yul\":9385:9516   */\n      tag_372\n        /* \"#utility.yul\":9511:9515   */\n      dup2\n        /* \"#utility.yul\":9385:9516   */\n      tag_261\n      jump\t// in\n    tag_372:\n        /* \"#utility.yul\":9377:9516   */\n      swap1\n      pop\n        /* \"#utility.yul\":9104:9523   */\n      swap2\n      swap1\n      pop\n      jump\t// out\n        /* \"#utility.yul\":9529:9709   */\n    tag_262:\n        /* \"#utility.yul\":9577:9654   */\n      0x4e487b7100000000000000000000000000000000000000000000000000000000\n        /* \"#utility.yul\":9574:9575   */\n      0x00\n        /* \"#utility.yul\":9567:9655   */\n      mstore\n        /* \"#utility.yul\":9674:9678   */\n      0x11\n        /* \"#utility.yul\":9671:9672   */\n      0x04\n        /* \"#utility.yul\":9664:9679   */\n      mstore\n        /* \"#utility.yul\":9698:9702   */\n      0x24\n        /* \"#utility.yul\":9695:9696   */\n      0x00\n        /* \"#utility.yul\":9688:9703   */\n      revert\n        /* \"#utility.yul\":9715:10063   */\n    tag_87:\n        /* \"#utility.yul\":9755:9762   */\n      0x00\n        /* \"#utility.yul\":9778:9798   */\n      tag_375\n        /* \"#utility.yul\":9796:9797   */\n      dup3\n        /* \"#utility.yul\":9778:9798   */\n      tag_233\n      jump\t// in\n    tag_375:\n        /* \"#utility.yul\":9773:9798   */\n      swap2\n      pop\n        /* \"#utility.yul\":9812:9832   */\n      tag_376\n        /* \"#utility.yul\":9830:9831   */\n      dup4\n        /* \"#utility.yul\":9812:9832   */\n      tag_233\n      jump\t// in\n    tag_376:\n        /* \"#utility.yul\":9807:9832   */\n      swap3\n      pop\n        /* \"#utility.yul\":10000:10001   */\n      dup2\n        /* \"#utility.yul\":9932:9998   */\n      0xffffffffffffffffffffffffffffffffffffffffffffffffffffffffffffffff\n        /* \"#utility.yul\":9928:10002   */\n      div\n        /* \"#utility.yul\":9925:9926   */\n      dup4\n        /* \"#utility.yul\":9922:10003   */\n      gt\n        /* \"#utility.yul\":9917:9918   */\n      dup3\n        /* \"#utility.yul\":9910:9919   */\n      iszero\n        /* \"#utility.yul\":9903:9920   */\n      iszero\n        /* \"#utility.yul\":9899:10004   */\n      and\n        /* \"#utility.yul\":9896:10027   */\n      iszero\n      tag_377\n      jumpi\n        /* \"#utility.yul\":10007:10025   */\n      tag_378\n      tag_262\n      jump\t// in\n    tag_378:\n        /* \"#utility.yul\":9896:10027   */\n    tag_377:\n        /* \"#utility.yul\":10055:10056   */\n      dup3\n        /* \"#utility.yul\":10052:10053   */\n      dup3\n        /* \"#utility.yul\":10048:10057   */\n      mul\n        /* \"#utility.yul\":10037:10057   */\n      swap1\n      pop\n        /* \"#utility.yul\":9715:10063   */\n      swap3\n      swap2\n      pop\n      pop\n      jump\t// out\n        /* \"#utility.yul\":10069:10231   */\n    tag_263:\n        /* \"#utility.yul\":10209:10223   */\n      0x57726f6e6720616d6f756e740000000000000000000000000000000000000000\n        /* \"#utility.yul\":10205:10206   */\n      0x00\n        /* \"#utility.yul\":10197:10203   */\n      dup3\n        /* \"#utility.yul\":10193:10207   */\n      add\n        /* \"#utility.yul\":10186:10224   */\n      mstore\n        /* \"#utility.yul\":10069:10231   */\n      pop\n      jump\t// out\n        /* \"#utility.yul\":10237:10603   */\n    tag_264:\n        /* \"#utility.yul\":10379:10382   */\n      0x00\n        /* \"#utility.yul\":10400:10467   */\n      tag_381\n        /* \"#utility.yul\":10464:10466   */\n      0x0c\n        /* \"#utility.yul\":10459:10462   */\n      dup4\n        /* \"#utility.yul\":10400:10467   */\n      tag_257\n      jump\t// in\n    tag_381:\n        /* \"#utility.yul\":10393:10467   */\n      swap2\n      pop\n        /* \"#utility.yul\":10476:10569   */\n      tag_382\n        /* \"#utility.yul\":10565:10568   */\n      dup3\n        /* \"#utility.yul\":10476:10569   */\n      tag_263\n      jump\t// in\n    tag_382:\n        /* \"#utility.yul\":10594:10596   */\n      0x20\n        /* \"#utility.yul\":10589:10592   */\n      dup3\n        /* \"#utility.yul\":10585:10597   */\n      add\n        /* \"#utility.yul\":10578:10597   */\n      swap1\n      pop\n        /* \"#utility.yul\":10237:10603   */\n      swap2\n      swap1\n      pop\n      jump\t// out\n        /* \"#utility.yul\":10609:11028   */\n    tag_93:\n        /* \"#utility.yul\":10775:10779   */\n      0x00\n        /* \"#utility.yul\":10813:10815   */\n      0x20\n        /* \"#utility.yul\":10802:10811   */\n      dup3\n        /* \"#utility.yul\":10798:10816   */\n      add\n        /* \"#utility.yul\":10790:10816   */\n      swap1\n      pop\n        /* \"#utility.yul\":10862:10871   */\n      dup2\n        /* \"#utility.yul\":10856:10860   */\n      dup2\n        /* \"#utility.yul\":10852:10872   */\n      sub\n        /* \"#utility.yul\":10848:10849   */\n      0x00\n        /* \"#utility.yul\":10837:10846   */\n      dup4\n        /* \"#utility.yul\":10833:10850   */\n      add\n        /* \"#utility.yul\":10826:10873   */\n      mstore\n        /* \"#utility.yul\":10890:11021   */\n      tag_384\n        /* \"#utility.yul\":11016:11020   */\n      dup2\n        /* \"#utility.yul\":10890:11021   */\n      tag_264\n      jump\t// in\n    tag_384:\n        /* \"#utility.yul\":10882:11021   */\n      swap1\n      pop\n        /* \"#utility.yul\":10609:11028   */\n      swap2\n      swap1\n      pop\n      jump\t// out\n        /* \"#utility.yul\":11034:11207   */\n    tag_265:\n        /* \"#utility.yul\":11174:11199   */\n      0x57726f6e67206e756d626572206f66206e756d62657273000000000000000000\n        /* \"#utility.yul\":11170:11171   */\n      0x00\n        /* \"#utility.yul\":11162:11168   */\n      dup3\n        /* \"#utility.yul\":11158:11172   */\n      add\n        /* \"#utility.yul\":11151:11200   */\n      mstore\n        /* \"#utility.yul\":11034:11207   */\n      pop\n      jump\t// out\n        /* \"#utility.yul\":11213:11579   */\n    tag_266:\n        /* \"#utility.yul\":11355:11358   */\n      0x00\n        /* \"#utility.yul\":11376:11443   */\n      tag_387\n        /* \"#utility.yul\":11440:11442   */\n      0x17\n        /* \"#utility.yul\":11435:11438   */\n      dup4\n        /* \"#utility.yul\":11376:11443   */\n      tag_257\n      jump\t// in\n    tag_387:\n        /* \"#utility.yul\":11369:11443   */\n      swap2\n      pop\n        /* \"#utility.yul\":11452:11545   */\n      tag_388\n        /* \"#utility.yul\":11541:11544   */\n      dup3\n        /* \"#utility.yul\":11452:11545   */\n      tag_265\n      jump\t// in\n    tag_388:\n        /* \"#utility.yul\":11570:11572   */\n      0x20\n        /* \"#utility.yul\":11565:11568   */\n      dup3\n        /* \"#utility.yul\":11561:11573   */\n      add\n        /* \"#utility.yul\":11554:11573   */\n      swap1\n      pop\n        /* \"#utility.yul\":11213:11579   */\n      swap2\n      swap1\n      pop\n      jump\t// out\n        /* \"#utility.yul\":11585:12004   */\n    tag_96:\n        /* \"#utility.yul\":11751:11755   */\n      0x00\n        /* \"#utility.yul\":11789:11791   */\n      0x20\n        /* \"#utility.yul\":11778:11787   */\n      dup3\n        /* \"#utility.yul\":11774:11792   */\n      add\n        /* \"#utility.yul\":11766:11792   */\n      swap1\n      pop\n        /* \"#utility.yul\":11838:11847   */\n      dup2\n        /* \"#utility.yul\":11832:11836   */\n      dup2\n        /* \"#utility.yul\":11828:11848   */\n      sub\n        /* \"#utility.yul\":11824:11825   */\n      0x00\n        /* \"#utility.yul\":11813:11822   */\n      dup4\n        /* \"#utility.yul\":11809:11826   */\n      add\n        /* \"#utility.yul\":11802:11849   */\n      mstore\n        /* \"#utility.yul\":11866:11997   */\n      tag_390\n        /* \"#utility.yul\":11992:11996   */\n      dup2\n        /* \"#utility.yul\":11866:11997   */\n      tag_266\n      jump\t// in\n    tag_390:\n        /* \"#utility.yul\":11858:11997   */\n      swap1\n      pop\n        /* \"#utility.yul\":11585:12004   */\n      swap2\n      swap1\n      pop\n      jump\t// out\n        /* \"#utility.yul\":12010:12190   */\n    tag_102:\n        /* \"#utility.yul\":12058:12135   */\n      0x4e487b7100000000000000000000000000000000000000000000000000000000\n        /* \"#utility.yul\":12055:12056   */\n      0x00\n        /* \"#utility.yul\":12048:12136   */\n      mstore\n        /* \"#utility.yul\":12155:12159   */\n      0x32\n        /* \"#utility.yul\":12152:12153   */\n      0x04\n        /* \"#utility.yul\":12145:12160   */\n      mstore\n        /* \"#utility.yul\":12179:12183   */\n      0x24\n        /* \"#utility.yul\":12176:12177   */\n      0x00\n        /* \"#utility.yul\":12169:12184   */\n      revert\n        /* \"#utility.yul\":12196:12358   */\n    tag_267:\n        /* \"#utility.yul\":12336:12350   */\n      0x57726f6e67206e756d6265720000000000000000000000000000000000000000\n        /* \"#utility.yul\":12332:12333   */\n      0x00\n        /* \"#utility.yul\":12324:12330   */\n      dup3\n        /* \"#utility.yul\":12320:12334   */\n      add\n        /* \"#utility.yul\":12313:12351   */\n      mstore\n        /* \"#utility.yul\":12196:12358   */\n      pop\n      jump\t// out\n        /* \"#utility.yul\":12364:12730   */\n    tag_268:\n        /* \"#utility.yul\":12506:12509   */\n      0x00\n        /* \"#utility.yul\":12527:12594   */\n      tag_394\n        /* \"#utility.yul\":12591:12593   */\n      0x0c\n        /* \"#utility.yul\":12586:12589   */\n      dup4\n        /* \"#utility.yul\":12527:12594   */\n      tag_257\n      jump\t// in\n    tag_394:\n        /* \"#utility.yul\":12520:12594   */\n      swap2\n      pop\n        /* \"#utility.yul\":12603:12696   */\n      tag_395\n        /* \"#utility.yul\":12692:12695   */\n      dup3\n        /* \"#utility.yul\":12603:12696   */\n      tag_267\n      jump\t// in\n    tag_395:\n        /* \"#utility.yul\":12721:12723   */\n      0x20\n        /* \"#utility.yul\":12716:12719   */\n      dup3\n        /* \"#utility.yul\":12712:12724   */\n      add\n        /* \"#utility.yul\":12705:12724   */\n      swap1\n      pop\n        /* \"#utility.yul\":12364:12730   */\n      swap2\n      swap1\n      pop\n      jump\t// out\n        /* \"#utility.yul\":12736:13155   */\n    tag_108:\n        /* \"#utility.yul\":12902:12906   */\n      0x00\n        /* \"#utility.yul\":12940:12942   */\n      0x20\n        /* \"#utility.yul\":12929:12938   */\n      dup3\n        /* \"#utility.yul\":12925:12943   */\n      add\n        /* \"#utility.yul\":12917:12943   */\n      swap1\n      pop\n        /* \"#utility.yul\":12989:12998   */\n      dup2\n        /* \"#utility.yul\":12983:12987   */\n      dup2\n        /* \"#utility.yul\":12979:12999   */\n      sub\n        /* \"#utility.yul\":12975:12976   */\n      0x00\n        /* \"#utility.yul\":12964:12973   */\n      dup4\n        /* \"#utility.yul\":12960:12977   */\n      add\n        /* \"#utility.yul\":12953:13000   */\n      mstore\n        /* \"#utility.yul\":13017:13148   */\n      tag_397\n        /* \"#utility.yul\":13143:13147   */\n      dup2\n        /* \"#utility.yul\":13017:13148   */\n      tag_268\n      jump\t// in\n    tag_397:\n        /* \"#utility.yul\":13009:13148   */\n      swap1\n      pop\n        /* \"#utility.yul\":12736:13155   */\n      swap2\n      swap1\n      pop\n      jump\t// out\n        /* \"#utility.yul\":13161:13394   */\n    tag_110:\n        /* \"#utility.yul\":13200:13203   */\n      0x00\n        /* \"#utility.yul\":13223:13247   */\n      tag_399\n        /* \"#utility.yul\":13241:13246   */\n      dup3\n        /* \"#utility.yul\":13223:13247   */\n      tag_233\n      jump\t// in\n    tag_399:\n        /* \"#utility.yul\":13214:13247   */\n      swap2\n      pop\n        /* \"#utility.yul\":13269:13335   */\n      0xffffffffffffffffffffffffffffffffffffffffffffffffffffffffffffffff\n        /* \"#utility.yul\":13262:13267   */\n      dup3\n        /* \"#utility.yul\":13259:13336   */\n      eq\n        /* \"#utility.yul\":13256:13359   */\n      iszero\n      tag_400\n      jumpi\n        /* \"#utility.yul\":13339:13357   */\n      tag_401\n      tag_262\n      jump\t// in\n    tag_401:\n        /* \"#utility.yul\":13256:13359   */\n    tag_400:\n        /* \"#utility.yul\":13386:13387   */\n      0x01\n        /* \"#utility.yul\":13379:13384   */\n      dup3\n        /* \"#utility.yul\":13375:13388   */\n      add\n        /* \"#utility.yul\":13368:13388   */\n      swap1\n      pop\n        /* \"#utility.yul\":13161:13394   */\n      swap2\n      swap1\n      pop\n      jump\t// out\n        /* \"#utility.yul\":13400:13582   */\n    tag_269:\n        /* \"#utility.yul\":13540:13574   */\n      0x596f75206861766520616c726561647920626f756768742061207469636b6574\n        /* \"#utility.yul\":13536:13537   */\n      0x00\n        /* \"#utility.yul\":13528:13534   */\n      dup3\n        /* \"#utility.yul\":13524:13538   */\n      add\n        /* \"#utility.yul\":13517:13575   */\n      mstore\n        /* \"#utility.yul\":13400:13582   */\n      pop\n      jump\t// out\n        /* \"#utility.yul\":13588:13954   */\n    tag_270:\n        /* \"#utility.yul\":13730:13733   */\n      0x00\n        /* \"#utility.yul\":13751:13818   */\n      tag_404\n        /* \"#utility.yul\":13815:13817   */\n      0x20\n        /* \"#utility.yul\":13810:13813   */\n      dup4\n        /* \"#utility.yul\":13751:13818   */\n      tag_257\n      jump\t// in\n    tag_404:\n        /* \"#utility.yul\":13744:13818   */\n      swap2\n      pop\n        /* \"#utility.yul\":13827:13920   */\n      tag_405\n        /* \"#utility.yul\":13916:13919   */\n      dup3\n        /* \"#utility.yul\":13827:13920   */\n      tag_269\n      jump\t// in\n    tag_405:\n        /* \"#utility.yul\":13945:13947   */\n      0x20\n        /* \"#utility.yul\":13940:13943   */\n      dup3\n        /* \"#utility.yul\":13936:13948   */\n      add\n        /* \"#utility.yul\":13929:13948   */\n      swap1\n      pop\n        /* \"#utility.yul\":13588:13954   */\n      swap2\n      swap1\n      pop\n      jump\t// out\n        /* \"#utility.yul\":13960:14379   */\n    tag_113:\n        /* \"#utility.yul\":14126:14130   */\n      0x00\n        /* \"#utility.yul\":14164:14166   */\n      0x20\n        /* \"#utility.yul\":14153:14162   */\n      dup3\n        /* \"#utility.yul\":14149:14167   */\n      add\n        /* \"#utility.yul\":14141:14167   */\n      swap1\n      pop\n        /* \"#utility.yul\":14213:14222   */\n      dup2\n        /* \"#utility.yul\":14207:14211   */\n      dup2\n        /* \"#utility.yul\":14203:14223   */\n      sub\n        /* \"#utility.yul\":14199:14200   */\n      0x00\n        /* \"#utility.yul\":14188:14197   */\n      dup4\n        /* \"#utility.yul\":14184:14201   */\n      add\n        /* \"#utility.yul\":14177:14224   */\n      mstore\n        /* \"#utility.yul\":14241:14372   */\n      tag_407\n        /* \"#utility.yul\":14367:14371   */\n      dup2\n        /* \"#utility.yul\":14241:14372   */\n      tag_270\n      jump\t// in\n    tag_407:\n        /* \"#utility.yul\":14233:14372   */\n      swap1\n      pop\n        /* \"#utility.yul\":13960:14379   */\n      swap2\n      swap1\n      pop\n      jump\t// out\n        /* \"#utility.yul\":14385:14690   */\n    tag_118:\n        /* \"#utility.yul\":14425:14428   */\n      0x00\n        /* \"#utility.yul\":14444:14464   */\n      tag_409\n        /* \"#utility.yul\":14462:14463   */\n      dup3\n        /* \"#utility.yul\":14444:14464   */\n      tag_233\n      jump\t// in\n    tag_409:\n        /* \"#utility.yul\":14439:14464   */\n      swap2\n      pop\n        /* \"#utility.yul\":14478:14498   */\n      tag_410\n        /* \"#utility.yul\":14496:14497   */\n      dup4\n        /* \"#utility.yul\":14478:14498   */\n      tag_233\n      jump\t// in\n    tag_410:\n        /* \"#utility.yul\":14473:14498   */\n      swap3\n      pop\n        /* \"#utility.yul\":14632:14633   */\n      dup3\n        /* \"#utility.yul\":14564:14630   */\n      0xffffffffffffffffffffffffffffffffffffffffffffffffffffffffffffffff\n        /* \"#utility.yul\":14560:14634   */\n      sub\n        /* \"#utility.yul\":14557:14558   */\n      dup3\n        /* \"#utility.yul\":14554:14635   */\n      gt\n        /* \"#utility.yul\":14551:14658   */\n      iszero\n      tag_411\n      jumpi\n        /* \"#utility.yul\":14638:14656   */\n      tag_412\n      tag_262\n      jump\t// in\n    tag_412:\n        /* \"#utility.yul\":14551:14658   */\n    tag_411:\n        /* \"#utility.yul\":14682:14683   */\n      dup3\n        /* \"#utility.yul\":14679:14680   */\n      dup3\n        /* \"#utility.yul\":14675:14684   */\n      add\n        /* \"#utility.yul\":14668:14684   */\n      swap1\n      pop\n        /* \"#utility.yul\":14385:14690   */\n      swap3\n      swap2\n      pop\n      pop\n      jump\t// out\n        /* \"#utility.yul\":14696:14876   */\n    tag_271:\n        /* \"#utility.yul\":14744:14821   */\n      0x4e487b7100000000000000000000000000000000000000000000000000000000\n        /* \"#utility.yul\":14741:14742   */\n      0x00\n        /* \"#utility.yul\":14734:14822   */\n      mstore\n        /* \"#utility.yul\":14841:14845   */\n      0x12\n        /* \"#utility.yul\":14838:14839   */\n      0x04\n        /* \"#utility.yul\":14831:14846   */\n      mstore\n        /* \"#utility.yul\":14865:14869   */\n      0x24\n        /* \"#utility.yul\":14862:14863   */\n      0x00\n        /* \"#utility.yul\":14855:14870   */\n      revert\n        /* \"#utility.yul\":14882:15067   */\n    tag_122:\n        /* \"#utility.yul\":14922:14923   */\n      0x00\n        /* \"#utility.yul\":14939:14959   */\n      tag_415\n        /* \"#utility.yul\":14957:14958   */\n      dup3\n        /* \"#utility.yul\":14939:14959   */\n      tag_233\n      jump\t// in\n    tag_415:\n        /* \"#utility.yul\":14934:14959   */\n      swap2\n      pop\n        /* \"#utility.yul\":14973:14993   */\n      tag_416\n        /* \"#utility.yul\":14991:14992   */\n      dup4\n        /* \"#utility.yul\":14973:14993   */\n      tag_233\n      jump\t// in\n    tag_416:\n        /* \"#utility.yul\":14968:14993   */\n      swap3\n      pop\n        /* \"#utility.yul\":15012:15013   */\n      dup3\n        /* \"#utility.yul\":15002:15037   */\n      tag_417\n      jumpi\n        /* \"#utility.yul\":15017:15035   */\n      tag_418\n      tag_271\n      jump\t// in\n    tag_418:\n        /* \"#utility.yul\":15002:15037   */\n    tag_417:\n        /* \"#utility.yul\":15059:15060   */\n      dup3\n        /* \"#utility.yul\":15056:15057   */\n      dup3\n        /* \"#utility.yul\":15052:15061   */\n      div\n        /* \"#utility.yul\":15047:15061   */\n      swap1\n      pop\n        /* \"#utility.yul\":14882:15067   */\n      swap3\n      swap2\n      pop\n      pop\n      jump\t// out\n        /* \"#utility.yul\":15073:15152   */\n    tag_272:\n        /* \"#utility.yul\":15112:15119   */\n      0x00\n        /* \"#utility.yul\":15141:15146   */\n      dup2\n        /* \"#utility.yul\":15130:15146   */\n      swap1\n      pop\n        /* \"#utility.yul\":15073:15152   */\n      swap2\n      swap1\n      pop\n      jump\t// out\n        /* \"#utility.yul\":15158:15315   */\n    tag_273:\n        /* \"#utility.yul\":15263:15308   */\n      tag_421\n        /* \"#utility.yul\":15283:15307   */\n      tag_422\n        /* \"#utility.yul\":15301:15306   */\n      dup3\n        /* \"#utility.yul\":15283:15307   */\n      tag_233\n      jump\t// in\n    tag_422:\n        /* \"#utility.yul\":15263:15308   */\n      tag_272\n      jump\t// in\n    tag_421:\n        /* \"#utility.yul\":15258:15261   */\n      dup3\n        /* \"#utility.yul\":15251:15309   */\n      mstore\n        /* \"#utility.yul\":15158:15315   */\n      pop\n      pop\n      jump\t// out\n        /* \"#utility.yul\":15321:15718   */\n    tag_147:\n        /* \"#utility.yul\":15461:15464   */\n      0x00\n        /* \"#utility.yul\":15476:15551   */\n      tag_424\n        /* \"#utility.yul\":15547:15550   */\n      dup3\n        /* \"#utility.yul\":15538:15544   */\n      dup6\n        /* \"#utility.yul\":15476:15551   */\n      tag_273\n      jump\t// in\n    tag_424:\n        /* \"#utility.yul\":15576:15578   */\n      0x20\n        /* \"#utility.yul\":15571:15574   */\n      dup3\n        /* \"#utility.yul\":15567:15579   */\n      add\n        /* \"#utility.yul\":15560:15579   */\n      swap2\n      pop\n        /* \"#utility.yul\":15589:15664   */\n      tag_425\n        /* \"#utility.yul\":15660:15663   */\n      dup3\n        /* \"#utility.yul\":15651:15657   */\n      dup5\n        /* \"#utility.yul\":15589:15664   */\n      tag_273\n      jump\t// in\n    tag_425:\n        /* \"#utility.yul\":15689:15691   */\n      0x20\n        /* \"#utility.yul\":15684:15687   */\n      dup3\n        /* \"#utility.yul\":15680:15692   */\n      add\n        /* \"#utility.yul\":15673:15692   */\n      swap2\n      pop\n        /* \"#utility.yul\":15709:15712   */\n      dup2\n        /* \"#utility.yul\":15702:15712   */\n      swap1\n      pop\n        /* \"#utility.yul\":15321:15718   */\n      swap4\n      swap3\n      pop\n      pop\n      pop\n      jump\t// out\n        /* \"#utility.yul\":15724:15900   */\n    tag_149:\n        /* \"#utility.yul\":15756:15757   */\n      0x00\n        /* \"#utility.yul\":15773:15793   */\n      tag_427\n        /* \"#utility.yul\":15791:15792   */\n      dup3\n        /* \"#utility.yul\":15773:15793   */\n      tag_233\n      jump\t// in\n    tag_427:\n        /* \"#utility.yul\":15768:15793   */\n      swap2\n      pop\n        /* \"#utility.yul\":15807:15827   */\n      tag_428\n        /* \"#utility.yul\":15825:15826   */\n      dup4\n        /* \"#utility.yul\":15807:15827   */\n      tag_233\n      jump\t// in\n    tag_428:\n        /* \"#utility.yul\":15802:15827   */\n      swap3\n      pop\n        /* \"#utility.yul\":15846:15847   */\n      dup3\n        /* \"#utility.yul\":15836:15871   */\n      tag_429\n      jumpi\n        /* \"#utility.yul\":15851:15869   */\n      tag_430\n      tag_271\n      jump\t// in\n    tag_430:\n        /* \"#utility.yul\":15836:15871   */\n    tag_429:\n        /* \"#utility.yul\":15892:15893   */\n      dup3\n        /* \"#utility.yul\":15889:15890   */\n      dup3\n        /* \"#utility.yul\":15885:15894   */\n      mod\n        /* \"#utility.yul\":15880:15894   */\n      swap1\n      pop\n        /* \"#utility.yul\":15724:15900   */\n      swap3\n      swap2\n      pop\n      pop\n      jump\t// out\n        /* \"#utility.yul\":15906:16077   */\n    tag_274:\n        /* \"#utility.yul\":16046:16069   */\n      0x4e6f206c6f74746572792069732072756e6e696e670000000000000000000000\n        /* \"#utility.yul\":16042:16043   */\n      0x00\n        /* \"#utility.yul\":16034:16040   */\n      dup3\n        /* \"#utility.yul\":16030:16044   */\n      add\n        /* \"#utility.yul\":16023:16070   */\n      mstore\n        /* \"#utility.yul\":15906:16077   */\n      pop\n      jump\t// out\n        /* \"#utility.yul\":16083:16449   */\n    tag_275:\n        /* \"#utility.yul\":16225:16228   */\n      0x00\n        /* \"#utility.yul\":16246:16313   */\n      tag_433\n        /* \"#utility.yul\":16310:16312   */\n      0x15\n        /* \"#utility.yul\":16305:16308   */\n      dup4\n        /* \"#utility.yul\":16246:16313   */\n      tag_257\n      jump\t// in\n    tag_433:\n        /* \"#utility.yul\":16239:16313   */\n      swap2\n      pop\n        /* \"#utility.yul\":16322:16415   */\n      tag_434\n        /* \"#utility.yul\":16411:16414   */\n      dup3\n        /* \"#utility.yul\":16322:16415   */\n      tag_274\n      jump\t// in\n    tag_434:\n        /* \"#utility.yul\":16440:16442   */\n      0x20\n        /* \"#utility.yul\":16435:16438   */\n      dup3\n        /* \"#utility.yul\":16431:16443   */\n      add\n        /* \"#utility.yul\":16424:16443   */\n      swap1\n      pop\n        /* \"#utility.yul\":16083:16449   */\n      swap2\n      swap1\n      pop\n      jump\t// out\n        /* \"#utility.yul\":16455:16874   */\n    tag_162:\n        /* \"#utility.yul\":16621:16625   */\n      0x00\n        /* \"#utility.yul\":16659:16661   */\n      0x20\n        /* \"#utility.yul\":16648:16657   */\n      dup3\n        /* \"#utility.yul\":16644:16662   */\n      add\n        /* \"#utility.yul\":16636:16662   */\n      swap1\n      pop\n        /* \"#utility.yul\":16708:16717   */\n      dup2\n        /* \"#utility.yul\":16702:16706   */\n      dup2\n        /* \"#utility.yul\":16698:16718   */\n      sub\n        /* \"#utility.yul\":16694:16695   */\n      0x00\n        /* \"#utility.yul\":16683:16692   */\n      dup4\n        /* \"#utility.yul\":16679:16696   */\n      add\n        /* \"#utility.yul\":16672:16719   */\n      mstore\n        /* \"#utility.yul\":16736:16867   */\n      tag_436\n        /* \"#utility.yul\":16862:16866   */\n      dup2\n        /* \"#utility.yul\":16736:16867   */\n      tag_275\n      jump\t// in\n    tag_436:\n        /* \"#utility.yul\":16728:16867   */\n      swap1\n      pop\n        /* \"#utility.yul\":16455:16874   */\n      swap2\n      swap1\n      pop\n      jump\t// out\n        /* \"#utility.yul\":16880:17047   */\n    tag_276:\n        /* \"#utility.yul\":17020:17039   */\n      0x4e6f207469636b65742077617320626f75000000000000000000000000000000\n        /* \"#utility.yul\":17016:17017   */\n      0x00\n        /* \"#utility.yul\":17008:17014   */\n      dup3\n        /* \"#utility.yul\":17004:17018   */\n      add\n        /* \"#utility.yul\":16997:17040   */\n      mstore\n        /* \"#utility.yul\":16880:17047   */\n      pop\n      jump\t// out\n        /* \"#utility.yul\":17053:17419   */\n    tag_277:\n        /* \"#utility.yul\":17195:17198   */\n      0x00\n        /* \"#utility.yul\":17216:17283   */\n      tag_439\n        /* \"#utility.yul\":17280:17282   */\n      0x11\n        /* \"#utility.yul\":17275:17278   */\n      dup4\n        /* \"#utility.yul\":17216:17283   */\n      tag_257\n      jump\t// in\n    tag_439:\n        /* \"#utility.yul\":17209:17283   */\n      swap2\n      pop\n        /* \"#utility.yul\":17292:17385   */\n      tag_440\n        /* \"#utility.yul\":17381:17384   */\n      dup3\n        /* \"#utility.yul\":17292:17385   */\n      tag_276\n      jump\t// in\n    tag_440:\n        /* \"#utility.yul\":17410:17412   */\n      0x20\n        /* \"#utility.yul\":17405:17408   */\n      dup3\n        /* \"#utility.yul\":17401:17413   */\n      add\n        /* \"#utility.yul\":17394:17413   */\n      swap1\n      pop\n        /* \"#utility.yul\":17053:17419   */\n      swap2\n      swap1\n      pop\n      jump\t// out\n        /* \"#utility.yul\":17425:17844   */\n    tag_165:\n        /* \"#utility.yul\":17591:17595   */\n      0x00\n        /* \"#utility.yul\":17629:17631   */\n      0x20\n        /* \"#utility.yul\":17618:17627   */\n      dup3\n        /* \"#utility.yul\":17614:17632   */\n      add\n        /* \"#utility.yul\":17606:17632   */\n      swap1\n      pop\n        /* \"#utility.yul\":17678:17687   */\n      dup2\n        /* \"#utility.yul\":17672:17676   */\n      dup2\n        /* \"#utility.yul\":17668:17688   */\n      sub\n        /* \"#utility.yul\":17664:17665   */\n      0x00\n        /* \"#utility.yul\":17653:17662   */\n      dup4\n        /* \"#utility.yul\":17649:17666   */\n      add\n        /* \"#utility.yul\":17642:17689   */\n      mstore\n        /* \"#utility.yul\":17706:17837   */\n      tag_442\n        /* \"#utility.yul\":17832:17836   */\n      dup2\n        /* \"#utility.yul\":17706:17837   */\n      tag_277\n      jump\t// in\n    tag_442:\n        /* \"#utility.yul\":17698:17837   */\n      swap1\n      pop\n        /* \"#utility.yul\":17425:17844   */\n      swap2\n      swap1\n      pop\n      jump\t// out\n        /* \"#utility.yul\":17850:18041   */\n    tag_211:\n        /* \"#utility.yul\":17890:17894   */\n      0x00\n        /* \"#utility.yul\":17910:17930   */\n      tag_444\n        /* \"#utility.yul\":17928:17929   */\n      dup3\n        /* \"#utility.yul\":17910:17930   */\n      tag_233\n      jump\t// in\n    tag_444:\n        /* \"#utility.yul\":17905:17930   */\n      swap2\n      pop\n        /* \"#utility.yul\":17944:17964   */\n      tag_445\n        /* \"#utility.yul\":17962:17963   */\n      dup4\n        /* \"#utility.yul\":17944:17964   */\n      tag_233\n      jump\t// in\n    tag_445:\n        /* \"#utility.yul\":17939:17964   */\n      swap3\n      pop\n        /* \"#utility.yul\":17983:17984   */\n      dup3\n        /* \"#utility.yul\":17980:17981   */\n      dup3\n        /* \"#utility.yul\":17977:17985   */\n      lt\n        /* \"#utility.yul\":17974:18008   */\n      iszero\n      tag_446\n      jumpi\n        /* \"#utility.yul\":17988:18006   */\n      tag_447\n      tag_262\n      jump\t// in\n    tag_447:\n        /* \"#utility.yul\":17974:18008   */\n    tag_446:\n        /* \"#utility.yul\":18033:18034   */\n      dup3\n        /* \"#utility.yul\":18030:18031   */\n      dup3\n        /* \"#utility.yul\":18026:18035   */\n      sub\n        /* \"#utility.yul\":18018:18035   */\n      swap1\n      pop\n        /* \"#utility.yul\":17850:18041   */\n      swap3\n      swap2\n      pop\n      pop\n      jump\t// out\n\n    auxdata: 0xa264697066735822122039c1995debf2415a7bacdef775c1b0fc6d9c85529478d8026217eb3b7598596f64736f6c634300080b0033\n}\n",
				"bytecode": {
					"linkReferences": {},
					"object": "6080604052674563918244f4000060035560006005556000600760006101000a81548160ff02191690831515021790555034801561003c57600080fd5b50336000806101000a81548173ffffffffffffffffffffffffffffffffffffffff021916908373ffffffffffffffffffffffffffffffffffffffff160217905550611ad48061008c6000396000f3fe6080604052600436106100c25760003560e01c80638a4a29c31161007f578063a650fbab11610059578063a650fbab14610237578063a7caba2514610262578063b04a3f1c14610279578063d386ea7314610290576100c2565b80638a4a29c3146101b65780638b0b9ed4146101e15780638da5cb5b1461020c576100c2565b806330daec49146100c75780634630a0ee146100de578063472016da146101075780635a3811b914610144578063716cac961461016f57806387bb7ae01461018b575b600080fd5b3480156100d357600080fd5b506100dc6102bb565b005b3480156100ea57600080fd5b5061010560048036038101906101009190611133565b610408565b005b34801561011357600080fd5b5061012e60048036038101906101299190611133565b6104b3565b60405161013b91906111a1565b60405180910390f35b34801561015057600080fd5b506101596104f2565b60405161016691906111d7565b60405180910390f35b6101896004803603810190610184919061134b565b610505565b005b34801561019757600080fd5b506101a06107a3565b6040516101ad91906113a3565b60405180910390f35b3480156101c257600080fd5b506101cb6107c0565b6040516101d891906113a3565b60405180910390f35b3480156101ed57600080fd5b506101f66107dd565b604051610203919061147c565b60405180910390f35b34801561021857600080fd5b506102216108c3565b60405161022e91906111a1565b60405180910390f35b34801561024357600080fd5b5061024c6108e7565b604051610259919061147c565b60405180910390f35b34801561026e57600080fd5b5061027761097c565b005b34801561028557600080fd5b5061028e610b20565b005b34801561029c57600080fd5b506102a5610fce565b6040516102b291906113a3565b60405180910390f35b60008054906101000a900473ffffffffffffffffffffffffffffffffffffffff1673ffffffffffffffffffffffffffffffffffffffff163373ffffffffffffffffffffffffffffffffffffffff1614610349576040517f08c379a000000000000000000000000000000000000000000000000000000000815260040161034090611521565b60405180910390fd5b60008060009054906101000a900473ffffffffffffffffffffffffffffffffffffffff1690506000600454116103b4576040517f08c379a00000000000000000000000000000000000000000000000000000000081526004016103ab9061158d565b60405180910390fd5b8073ffffffffffffffffffffffffffffffffffffffff166108fc6004549081150290604051600060405180830381858888f193505050501580156103fc573d6000803e3d6000fd5b50600060048190555050565b60008054906101000a900473ffffffffffffffffffffffffffffffffffffffff1673ffffffffffffffffffffffffffffffffffffffff163373ffffffffffffffffffffffffffffffffffffffff1614610496576040517f08c379a000000000000000000000000000000000000000000000000000000000815260040161048d90611521565b60405180910390fd5b670de0b6b3a7640000816104aa91906115dc565b60038190555050565b600681815481106104c357600080fd5b906000526020600020016000915054906101000a900473ffffffffffffffffffffffffffffffffffffffff1681565b600760009054906101000a900460ff1681565b6003543414610549576040517f08c379a000000000000000000000000000000000000000000000000000000000815260040161054090611682565b60405180910390fd5b600681511461058d576040517f08c379a0000000000000000000000000000000000000000000000000000000008152600401610584906116ee565b60405180910390fd5b60005b815181101561063057600a8282815181106105ae576105ad61170e565b5b60200260200101511080156105de575060008282815181106105d3576105d261170e565b5b602002602001015110155b61061d576040517f08c379a000000000000000000000000000000000000000000000000000000000815260040161061490611789565b60405180910390fd5b8080610628906117a9565b915050610590565b506000600260003373ffffffffffffffffffffffffffffffffffffffff1673ffffffffffffffffffffffffffffffffffffffff16815260200190815260200160002080549050146106b6576040517f08c379a00000000000000000000000000000000000000000000000000000000081526004016106ad9061183e565b60405180910390fd5b80600260003373ffffffffffffffffffffffffffffffffffffffff1673ffffffffffffffffffffffffffffffffffffffff1681526020019081526020016000209080519060200190610709929190610fd4565b506006339080600181540180825580915050600190039060005260206000200160009091909190916101000a81548173ffffffffffffffffffffffffffffffffffffffff021916908373ffffffffffffffffffffffffffffffffffffffff160217905550346004600082825461077f919061185e565b92505081905550600160056000828254610799919061185e565b9250508190555050565b6000670de0b6b3a76400006003546107bb91906118e3565b905090565b6000670de0b6b3a76400006004546107d891906118e3565b905090565b606060008054906101000a900473ffffffffffffffffffffffffffffffffffffffff1673ffffffffffffffffffffffffffffffffffffffff163373ffffffffffffffffffffffffffffffffffffffff161461086d576040517f08c379a000000000000000000000000000000000000000000000000000000000815260040161086490611521565b60405180910390fd5b60018054806020026020016040519081016040528092919081815260200182805480156108b957602002820191906000526020600020905b8154815260200190600101908083116108a5575b5050505050905090565b60008054906101000a900473ffffffffffffffffffffffffffffffffffffffff1681565b6060600260003373ffffffffffffffffffffffffffffffffffffffff1673ffffffffffffffffffffffffffffffffffffffff16815260200190815260200160002080548060200260200160405190810160405280929190818152602001828054801561097257602002820191906000526020600020905b81548152602001906001019080831161095e575b5050505050905090565b60008054906101000a900473ffffffffffffffffffffffffffffffffffffffff1673ffffffffffffffffffffffffffffffffffffffff163373ffffffffffffffffffffffffffffffffffffffff1614610a0a576040517f08c379a0000000000000000000000000000000000000000000000000000000008152600401610a0190611521565b60405180910390fd5b6001600760006101000a81548160ff021916908315150217905550600667ffffffffffffffff811115610a4057610a3f611208565b5b604051908082528060200260200182016040528015610a6e5781602001602082028036833780820191505090505b5060019080519060200190610a84929190610fd4565b506000805b6006811015610b1c576000600a4283604051602001610aa9929190611935565b6040516020818303038152906040528051906020012060001c610acc9190611961565b905060008114610b08578060018481548110610aeb57610aea61170e565b5b90600052602060002001819055508280610b04906117a9565b9350505b508080610b14906117a9565b915050610a89565b5050565b60008054906101000a900473ffffffffffffffffffffffffffffffffffffffff1673ffffffffffffffffffffffffffffffffffffffff163373ffffffffffffffffffffffffffffffffffffffff1614610bae576040517f08c379a0000000000000000000000000000000000000000000000000000000008152600401610ba590611521565b60405180910390fd5b60011515600760009054906101000a900460ff16151514610c04576040517f08c379a0000000000000000000000000000000000000000000000000000000008152600401610bfb906119de565b60405180910390fd5b600060055411610c49576040517f08c379a0000000000000000000000000000000000000000000000000000000008152600401610c4090611a4a565b60405180910390fd5b600080600080600080600090505b600680549050811015610f265760005b600180549050811015610d5e5760018181548110610c8857610c8761170e565b5b90600052602060002001546002600060068581548110610cab57610caa61170e565b5b9060005260206000200160009054906101000a900473ffffffffffffffffffffffffffffffffffffffff1673ffffffffffffffffffffffffffffffffffffffff1673ffffffffffffffffffffffffffffffffffffffff1681526020019081526020016000208281548110610d2257610d2161170e565b5b90600052602060002001541415610d46578680610d3e906117a9565b975050610d4b565b610d5e565b8080610d56906117a9565b915050610c67565b506002600060068381548110610d7757610d7661170e565b5b9060005260206000200160009054906101000a900473ffffffffffffffffffffffffffffffffffffffff1673ffffffffffffffffffffffffffffffffffffffff1673ffffffffffffffffffffffffffffffffffffffff1681526020019081526020016000206000610de89190611021565b6001861415610dfa5760029450610e55565b6002861415610e0c5760039450610e54565b6003861415610e1e5760059450610e53565b6004861415610e3057600a9450610e52565b6005861415610e425760149450610e51565b6006861415610e5057602894505b5b5b5b5b5b606485600454610e6591906115dc565b610e6f91906118e3565b93508383610e7d919061185e565b925060068181548110610e9357610e9261170e565b5b9060005260206000200160009054906101000a900473ffffffffffffffffffffffffffffffffffffffff1691508173ffffffffffffffffffffffffffffffffffffffff166108fc859081150290604051600060405180830381858888f19350505050158015610f06573d6000803e3d6000fd5b506000955060009450600093508080610f1e906117a9565b915050610c57565b5060006005819055508160046000828254610f419190611a6a565b92505081905550600067ffffffffffffffff811115610f6357610f62611208565b5b604051908082528060200260200182016040528015610f915781602001602082028036833780820191505090505b5060069080519060200190610fa7929190611042565b50600090506000600760006101000a81548160ff0219169083151502179055505050505050565b60055481565b828054828255906000526020600020908101928215611010579160200282015b8281111561100f578251825591602001919060010190610ff4565b5b50905061101d91906110cc565b5090565b508054600082559060005260206000209081019061103f91906110cc565b50565b8280548282559060005260206000209081019282156110bb579160200282015b828111156110ba5782518260006101000a81548173ffffffffffffffffffffffffffffffffffffffff021916908373ffffffffffffffffffffffffffffffffffffffff16021790555091602001919060010190611062565b5b5090506110c891906110cc565b5090565b5b808211156110e55760008160009055506001016110cd565b5090565b6000604051905090565b600080fd5b600080fd5b6000819050919050565b611110816110fd565b811461111b57600080fd5b50565b60008135905061112d81611107565b92915050565b600060208284031215611149576111486110f3565b5b60006111578482850161111e565b91505092915050565b600073ffffffffffffffffffffffffffffffffffffffff82169050919050565b600061118b82611160565b9050919050565b61119b81611180565b82525050565b60006020820190506111b66000830184611192565b92915050565b60008115159050919050565b6111d1816111bc565b82525050565b60006020820190506111ec60008301846111c8565b92915050565b600080fd5b6000601f19601f8301169050919050565b7f4e487b7100000000000000000000000000000000000000000000000000000000600052604160045260246000fd5b611240826111f7565b810181811067ffffffffffffffff8211171561125f5761125e611208565b5b80604052505050565b60006112726110e9565b905061127e8282611237565b919050565b600067ffffffffffffffff82111561129e5761129d611208565b5b602082029050602081019050919050565b600080fd5b60006112c76112c284611283565b611268565b905080838252602082019050602084028301858111156112ea576112e96112af565b5b835b8181101561131357806112ff888261111e565b8452602084019350506020810190506112ec565b5050509392505050565b600082601f830112611332576113316111f2565b5b81356113428482602086016112b4565b91505092915050565b600060208284031215611361576113606110f3565b5b600082013567ffffffffffffffff81111561137f5761137e6110f8565b5b61138b8482850161131d565b91505092915050565b61139d816110fd565b82525050565b60006020820190506113b86000830184611394565b92915050565b600081519050919050565b600082825260208201905092915050565b6000819050602082019050919050565b6113f3816110fd565b82525050565b600061140583836113ea565b60208301905092915050565b6000602082019050919050565b6000611429826113be565b61143381856113c9565b935061143e836113da565b8060005b8381101561146f57815161145688826113f9565b975061146183611411565b925050600181019050611442565b5085935050505092915050565b60006020820190508181036000830152611496818461141e565b905092915050565b600082825260208201905092915050565b7f4f6e6c7920746865206f776e65722063616e20706572666f726d20746869732060008201527f616374696f6e0000000000000000000000000000000000000000000000000000602082015250565b600061150b60268361149e565b9150611516826114af565b604082019050919050565b6000602082019050818103600083015261153a816114fe565b9050919050565b7f4e6f20457468657220746f2070756c6c206f7574000000000000000000000000600082015250565b600061157760148361149e565b915061158282611541565b602082019050919050565b600060208201905081810360008301526115a68161156a565b9050919050565b7f4e487b7100000000000000000000000000000000000000000000000000000000600052601160045260246000fd5b60006115e7826110fd565b91506115f2836110fd565b9250817fffffffffffffffffffffffffffffffffffffffffffffffffffffffffffffffff048311821515161561162b5761162a6115ad565b5b828202905092915050565b7f57726f6e6720616d6f756e740000000000000000000000000000000000000000600082015250565b600061166c600c8361149e565b915061167782611636565b602082019050919050565b6000602082019050818103600083015261169b8161165f565b9050919050565b7f57726f6e67206e756d626572206f66206e756d62657273000000000000000000600082015250565b60006116d860178361149e565b91506116e3826116a2565b602082019050919050565b60006020820190508181036000830152611707816116cb565b9050919050565b7f4e487b7100000000000000000000000000000000000000000000000000000000600052603260045260246000fd5b7f57726f6e67206e756d6265720000000000000000000000000000000000000000600082015250565b6000611773600c8361149e565b915061177e8261173d565b602082019050919050565b600060208201905081810360008301526117a281611766565b9050919050565b60006117b4826110fd565b91507fffffffffffffffffffffffffffffffffffffffffffffffffffffffffffffffff8214156117e7576117e66115ad565b5b600182019050919050565b7f596f75206861766520616c726561647920626f756768742061207469636b6574600082015250565b600061182860208361149e565b9150611833826117f2565b602082019050919050565b600060208201905081810360008301526118578161181b565b9050919050565b6000611869826110fd565b9150611874836110fd565b9250827fffffffffffffffffffffffffffffffffffffffffffffffffffffffffffffffff038211156118a9576118a86115ad565b5b828201905092915050565b7f4e487b7100000000000000000000000000000000000000000000000000000000600052601260045260246000fd5b60006118ee826110fd565b91506118f9836110fd565b925082611909576119086118b4565b5b828204905092915050565b6000819050919050565b61192f61192a826110fd565b611914565b82525050565b6000611941828561191e565b602082019150611951828461191e565b6020820191508190509392505050565b600061196c826110fd565b9150611977836110fd565b925082611987576119866118b4565b5b828206905092915050565b7f4e6f206c6f74746572792069732072756e6e696e670000000000000000000000600082015250565b60006119c860158361149e565b91506119d382611992565b602082019050919050565b600060208201905081810360008301526119f7816119bb565b9050919050565b7f4e6f207469636b65742077617320626f75000000000000000000000000000000600082015250565b6000611a3460118361149e565b9150611a3f826119fe565b602082019050919050565b60006020820190508181036000830152611a6381611a27565b9050919050565b6000611a75826110fd565b9150611a80836110fd565b925082821015611a9357611a926115ad565b5b82820390509291505056fea264697066735822122039c1995debf2415a7bacdef775c1b0fc6d9c85529478d8026217eb3b7598596f64736f6c634300080b0033",
					"opcodes": "PUSH1 0x80 PUSH1 0x40 MSTORE PUSH8 0x4563918244F40000 PUSH1 0x3 SSTORE PUSH1 0x0 PUSH1 0x5 SSTORE PUSH1 0x0 PUSH1 0x7 PUSH1 0x0 PUSH2 0x100 EXP DUP2 SLOAD DUP2 PUSH1 0xFF MUL NOT AND SWAP1 DUP4 ISZERO ISZERO MUL OR SWAP1 SSTORE POP CALLVALUE DUP1 ISZERO PUSH2 0x3C JUMPI PUSH1 0x0 DUP1 REVERT JUMPDEST POP CALLER PUSH1 0x0 DUP1 PUSH2 0x100 EXP DUP2 SLOAD DUP2 PUSH20 0xFFFFFFFFFFFFFFFFFFFFFFFFFFFFFFFFFFFFFFFF MUL NOT AND SWAP1 DUP4 PUSH20 0xFFFFFFFFFFFFFFFFFFFFFFFFFFFFFFFFFFFFFFFF AND MUL OR SWAP1 SSTORE POP PUSH2 0x1AD4 DUP1 PUSH2 0x8C PUSH1 0x0 CODECOPY PUSH1 0x0 RETURN INVALID PUSH1 0x80 PUSH1 0x40 MSTORE PUSH1 0x4 CALLDATASIZE LT PUSH2 0xC2 JUMPI PUSH1 0x0 CALLDATALOAD PUSH1 0xE0 SHR DUP1 PUSH4 0x8A4A29C3 GT PUSH2 0x7F JUMPI DUP1 PUSH4 0xA650FBAB GT PUSH2 0x59 JUMPI DUP1 PUSH4 0xA650FBAB EQ PUSH2 0x237 JUMPI DUP1 PUSH4 0xA7CABA25 EQ PUSH2 0x262 JUMPI DUP1 PUSH4 0xB04A3F1C EQ PUSH2 0x279 JUMPI DUP1 PUSH4 0xD386EA73 EQ PUSH2 0x290 JUMPI PUSH2 0xC2 JUMP JUMPDEST DUP1 PUSH4 0x8A4A29C3 EQ PUSH2 0x1B6 JUMPI DUP1 PUSH4 0x8B0B9ED4 EQ PUSH2 0x1E1 JUMPI DUP1 PUSH4 0x8DA5CB5B EQ PUSH2 0x20C JUMPI PUSH2 0xC2 JUMP JUMPDEST DUP1 PUSH4 0x30DAEC49 EQ PUSH2 0xC7 JUMPI DUP1 PUSH4 0x4630A0EE EQ PUSH2 0xDE JUMPI DUP1 PUSH4 0x472016DA EQ PUSH2 0x107 JUMPI DUP1 PUSH4 0x5A3811B9 EQ PUSH2 0x144 JUMPI DUP1 PUSH4 0x716CAC96 EQ PUSH2 0x16F JUMPI DUP1 PUSH4 0x87BB7AE0 EQ PUSH2 0x18B JUMPI JUMPDEST PUSH1 0x0 DUP1 REVERT JUMPDEST CALLVALUE DUP1 ISZERO PUSH2 0xD3 JUMPI PUSH1 0x0 DUP1 REVERT JUMPDEST POP PUSH2 0xDC PUSH2 0x2BB JUMP JUMPDEST STOP JUMPDEST CALLVALUE DUP1 ISZERO PUSH2 0xEA JUMPI PUSH1 0x0 DUP1 REVERT JUMPDEST POP PUSH2 0x105 PUSH1 0x4 DUP1 CALLDATASIZE SUB DUP2 ADD SWAP1 PUSH2 0x100 SWAP2 SWAP1 PUSH2 0x1133 JUMP JUMPDEST PUSH2 0x408 JUMP JUMPDEST STOP JUMPDEST CALLVALUE DUP1 ISZERO PUSH2 0x113 JUMPI PUSH1 0x0 DUP1 REVERT JUMPDEST POP PUSH2 0x12E PUSH1 0x4 DUP1 CALLDATASIZE SUB DUP2 ADD SWAP1 PUSH2 0x129 SWAP2 SWAP1 PUSH2 0x1133 JUMP JUMPDEST PUSH2 0x4B3 JUMP JUMPDEST PUSH1 0x40 MLOAD PUSH2 0x13B SWAP2 SWAP1 PUSH2 0x11A1 JUMP JUMPDEST PUSH1 0x40 MLOAD DUP1 SWAP2 SUB SWAP1 RETURN JUMPDEST CALLVALUE DUP1 ISZERO PUSH2 0x150 JUMPI PUSH1 0x0 DUP1 REVERT JUMPDEST POP PUSH2 0x159 PUSH2 0x4F2 JUMP JUMPDEST PUSH1 0x40 MLOAD PUSH2 0x166 SWAP2 SWAP1 PUSH2 0x11D7 JUMP JUMPDEST PUSH1 0x40 MLOAD DUP1 SWAP2 SUB SWAP1 RETURN JUMPDEST PUSH2 0x189 PUSH1 0x4 DUP1 CALLDATASIZE SUB DUP2 ADD SWAP1 PUSH2 0x184 SWAP2 SWAP1 PUSH2 0x134B JUMP JUMPDEST PUSH2 0x505 JUMP JUMPDEST STOP JUMPDEST CALLVALUE DUP1 ISZERO PUSH2 0x197 JUMPI PUSH1 0x0 DUP1 REVERT JUMPDEST POP PUSH2 0x1A0 PUSH2 0x7A3 JUMP JUMPDEST PUSH1 0x40 MLOAD PUSH2 0x1AD SWAP2 SWAP1 PUSH2 0x13A3 JUMP JUMPDEST PUSH1 0x40 MLOAD DUP1 SWAP2 SUB SWAP1 RETURN JUMPDEST CALLVALUE DUP1 ISZERO PUSH2 0x1C2 JUMPI PUSH1 0x0 DUP1 REVERT JUMPDEST POP PUSH2 0x1CB PUSH2 0x7C0 JUMP JUMPDEST PUSH1 0x40 MLOAD PUSH2 0x1D8 SWAP2 SWAP1 PUSH2 0x13A3 JUMP JUMPDEST PUSH1 0x40 MLOAD DUP1 SWAP2 SUB SWAP1 RETURN JUMPDEST CALLVALUE DUP1 ISZERO PUSH2 0x1ED JUMPI PUSH1 0x0 DUP1 REVERT JUMPDEST POP PUSH2 0x1F6 PUSH2 0x7DD JUMP JUMPDEST PUSH1 0x40 MLOAD PUSH2 0x203 SWAP2 SWAP1 PUSH2 0x147C JUMP JUMPDEST PUSH1 0x40 MLOAD DUP1 SWAP2 SUB SWAP1 RETURN JUMPDEST CALLVALUE DUP1 ISZERO PUSH2 0x218 JUMPI PUSH1 0x0 DUP1 REVERT JUMPDEST POP PUSH2 0x221 PUSH2 0x8C3 JUMP JUMPDEST PUSH1 0x40 MLOAD PUSH2 0x22E SWAP2 SWAP1 PUSH2 0x11A1 JUMP JUMPDEST PUSH1 0x40 MLOAD DUP1 SWAP2 SUB SWAP1 RETURN JUMPDEST CALLVALUE DUP1 ISZERO PUSH2 0x243 JUMPI PUSH1 0x0 DUP1 REVERT JUMPDEST POP PUSH2 0x24C PUSH2 0x8E7 JUMP JUMPDEST PUSH1 0x40 MLOAD PUSH2 0x259 SWAP2 SWAP1 PUSH2 0x147C JUMP JUMPDEST PUSH1 0x40 MLOAD DUP1 SWAP2 SUB SWAP1 RETURN JUMPDEST CALLVALUE DUP1 ISZERO PUSH2 0x26E JUMPI PUSH1 0x0 DUP1 REVERT JUMPDEST POP PUSH2 0x277 PUSH2 0x97C JUMP JUMPDEST STOP JUMPDEST CALLVALUE DUP1 ISZERO PUSH2 0x285 JUMPI PUSH1 0x0 DUP1 REVERT JUMPDEST POP PUSH2 0x28E PUSH2 0xB20 JUMP JUMPDEST STOP JUMPDEST CALLVALUE DUP1 ISZERO PUSH2 0x29C JUMPI PUSH1 0x0 DUP1 REVERT JUMPDEST POP PUSH2 0x2A5 PUSH2 0xFCE JUMP JUMPDEST PUSH1 0x40 MLOAD PUSH2 0x2B2 SWAP2 SWAP1 PUSH2 0x13A3 JUMP JUMPDEST PUSH1 0x40 MLOAD DUP1 SWAP2 SUB SWAP1 RETURN JUMPDEST PUSH1 0x0 DUP1 SLOAD SWAP1 PUSH2 0x100 EXP SWAP1 DIV PUSH20 0xFFFFFFFFFFFFFFFFFFFFFFFFFFFFFFFFFFFFFFFF AND PUSH20 0xFFFFFFFFFFFFFFFFFFFFFFFFFFFFFFFFFFFFFFFF AND CALLER PUSH20 0xFFFFFFFFFFFFFFFFFFFFFFFFFFFFFFFFFFFFFFFF AND EQ PUSH2 0x349 JUMPI PUSH1 0x40 MLOAD PUSH32 0x8C379A000000000000000000000000000000000000000000000000000000000 DUP2 MSTORE PUSH1 0x4 ADD PUSH2 0x340 SWAP1 PUSH2 0x1521 JUMP JUMPDEST PUSH1 0x40 MLOAD DUP1 SWAP2 SUB SWAP1 REVERT JUMPDEST PUSH1 0x0 DUP1 PUSH1 0x0 SWAP1 SLOAD SWAP1 PUSH2 0x100 EXP SWAP1 DIV PUSH20 0xFFFFFFFFFFFFFFFFFFFFFFFFFFFFFFFFFFFFFFFF AND SWAP1 POP PUSH1 0x0 PUSH1 0x4 SLOAD GT PUSH2 0x3B4 JUMPI PUSH1 0x40 MLOAD PUSH32 0x8C379A000000000000000000000000000000000000000000000000000000000 DUP2 MSTORE PUSH1 0x4 ADD PUSH2 0x3AB SWAP1 PUSH2 0x158D JUMP JUMPDEST PUSH1 0x40 MLOAD DUP1 SWAP2 SUB SWAP1 REVERT JUMPDEST DUP1 PUSH20 0xFFFFFFFFFFFFFFFFFFFFFFFFFFFFFFFFFFFFFFFF AND PUSH2 0x8FC PUSH1 0x4 SLOAD SWAP1 DUP2 ISZERO MUL SWAP1 PUSH1 0x40 MLOAD PUSH1 0x0 PUSH1 0x40 MLOAD DUP1 DUP4 SUB DUP2 DUP6 DUP9 DUP9 CALL SWAP4 POP POP POP POP ISZERO DUP1 ISZERO PUSH2 0x3FC JUMPI RETURNDATASIZE PUSH1 0x0 DUP1 RETURNDATACOPY RETURNDATASIZE PUSH1 0x0 REVERT JUMPDEST POP PUSH1 0x0 PUSH1 0x4 DUP2 SWAP1 SSTORE POP POP JUMP JUMPDEST PUSH1 0x0 DUP1 SLOAD SWAP1 PUSH2 0x100 EXP SWAP1 DIV PUSH20 0xFFFFFFFFFFFFFFFFFFFFFFFFFFFFFFFFFFFFFFFF AND PUSH20 0xFFFFFFFFFFFFFFFFFFFFFFFFFFFFFFFFFFFFFFFF AND CALLER PUSH20 0xFFFFFFFFFFFFFFFFFFFFFFFFFFFFFFFFFFFFFFFF AND EQ PUSH2 0x496 JUMPI PUSH1 0x40 MLOAD PUSH32 0x8C379A000000000000000000000000000000000000000000000000000000000 DUP2 MSTORE PUSH1 0x4 ADD PUSH2 0x48D SWAP1 PUSH2 0x1521 JUMP JUMPDEST PUSH1 0x40 MLOAD DUP1 SWAP2 SUB SWAP1 REVERT JUMPDEST PUSH8 0xDE0B6B3A7640000 DUP2 PUSH2 0x4AA SWAP2 SWAP1 PUSH2 0x15DC JUMP JUMPDEST PUSH1 0x3 DUP2 SWAP1 SSTORE POP POP JUMP JUMPDEST PUSH1 0x6 DUP2 DUP2 SLOAD DUP2 LT PUSH2 0x4C3 JUMPI PUSH1 0x0 DUP1 REVERT JUMPDEST SWAP1 PUSH1 0x0 MSTORE PUSH1 0x20 PUSH1 0x0 KECCAK256 ADD PUSH1 0x0 SWAP2 POP SLOAD SWAP1 PUSH2 0x100 EXP SWAP1 DIV PUSH20 0xFFFFFFFFFFFFFFFFFFFFFFFFFFFFFFFFFFFFFFFF AND DUP2 JUMP JUMPDEST PUSH1 0x7 PUSH1 0x0 SWAP1 SLOAD SWAP1 PUSH2 0x100 EXP SWAP1 DIV PUSH1 0xFF AND DUP2 JUMP JUMPDEST PUSH1 0x3 SLOAD CALLVALUE EQ PUSH2 0x549 JUMPI PUSH1 0x40 MLOAD PUSH32 0x8C379A000000000000000000000000000000000000000000000000000000000 DUP2 MSTORE PUSH1 0x4 ADD PUSH2 0x540 SWAP1 PUSH2 0x1682 JUMP JUMPDEST PUSH1 0x40 MLOAD DUP1 SWAP2 SUB SWAP1 REVERT JUMPDEST PUSH1 0x6 DUP2 MLOAD EQ PUSH2 0x58D JUMPI PUSH1 0x40 MLOAD PUSH32 0x8C379A000000000000000000000000000000000000000000000000000000000 DUP2 MSTORE PUSH1 0x4 ADD PUSH2 0x584 SWAP1 PUSH2 0x16EE JUMP JUMPDEST PUSH1 0x40 MLOAD DUP1 SWAP2 SUB SWAP1 REVERT JUMPDEST PUSH1 0x0 JUMPDEST DUP2 MLOAD DUP2 LT ISZERO PUSH2 0x630 JUMPI PUSH1 0xA DUP3 DUP3 DUP2 MLOAD DUP2 LT PUSH2 0x5AE JUMPI PUSH2 0x5AD PUSH2 0x170E JUMP JUMPDEST JUMPDEST PUSH1 0x20 MUL PUSH1 0x20 ADD ADD MLOAD LT DUP1 ISZERO PUSH2 0x5DE JUMPI POP PUSH1 0x0 DUP3 DUP3 DUP2 MLOAD DUP2 LT PUSH2 0x5D3 JUMPI PUSH2 0x5D2 PUSH2 0x170E JUMP JUMPDEST JUMPDEST PUSH1 0x20 MUL PUSH1 0x20 ADD ADD MLOAD LT ISZERO JUMPDEST PUSH2 0x61D JUMPI PUSH1 0x40 MLOAD PUSH32 0x8C379A000000000000000000000000000000000000000000000000000000000 DUP2 MSTORE PUSH1 0x4 ADD PUSH2 0x614 SWAP1 PUSH2 0x1789 JUMP JUMPDEST PUSH1 0x40 MLOAD DUP1 SWAP2 SUB SWAP1 REVERT JUMPDEST DUP1 DUP1 PUSH2 0x628 SWAP1 PUSH2 0x17A9 JUMP JUMPDEST SWAP2 POP POP PUSH2 0x590 JUMP JUMPDEST POP PUSH1 0x0 PUSH1 0x2 PUSH1 0x0 CALLER PUSH20 0xFFFFFFFFFFFFFFFFFFFFFFFFFFFFFFFFFFFFFFFF AND PUSH20 0xFFFFFFFFFFFFFFFFFFFFFFFFFFFFFFFFFFFFFFFF AND DUP2 MSTORE PUSH1 0x20 ADD SWAP1 DUP2 MSTORE PUSH1 0x20 ADD PUSH1 0x0 KECCAK256 DUP1 SLOAD SWAP1 POP EQ PUSH2 0x6B6 JUMPI PUSH1 0x40 MLOAD PUSH32 0x8C379A000000000000000000000000000000000000000000000000000000000 DUP2 MSTORE PUSH1 0x4 ADD PUSH2 0x6AD SWAP1 PUSH2 0x183E JUMP JUMPDEST PUSH1 0x40 MLOAD DUP1 SWAP2 SUB SWAP1 REVERT JUMPDEST DUP1 PUSH1 0x2 PUSH1 0x0 CALLER PUSH20 0xFFFFFFFFFFFFFFFFFFFFFFFFFFFFFFFFFFFFFFFF AND PUSH20 0xFFFFFFFFFFFFFFFFFFFFFFFFFFFFFFFFFFFFFFFF AND DUP2 MSTORE PUSH1 0x20 ADD SWAP1 DUP2 MSTORE PUSH1 0x20 ADD PUSH1 0x0 KECCAK256 SWAP1 DUP1 MLOAD SWAP1 PUSH1 0x20 ADD SWAP1 PUSH2 0x709 SWAP3 SWAP2 SWAP1 PUSH2 0xFD4 JUMP JUMPDEST POP PUSH1 0x6 CALLER SWAP1 DUP1 PUSH1 0x1 DUP2 SLOAD ADD DUP1 DUP3 SSTORE DUP1 SWAP2 POP POP PUSH1 0x1 SWAP1 SUB SWAP1 PUSH1 0x0 MSTORE PUSH1 0x20 PUSH1 0x0 KECCAK256 ADD PUSH1 0x0 SWAP1 SWAP2 SWAP1 SWAP2 SWAP1 SWAP2 PUSH2 0x100 EXP DUP2 SLOAD DUP2 PUSH20 0xFFFFFFFFFFFFFFFFFFFFFFFFFFFFFFFFFFFFFFFF MUL NOT AND SWAP1 DUP4 PUSH20 0xFFFFFFFFFFFFFFFFFFFFFFFFFFFFFFFFFFFFFFFF AND MUL OR SWAP1 SSTORE POP CALLVALUE PUSH1 0x4 PUSH1 0x0 DUP3 DUP3 SLOAD PUSH2 0x77F SWAP2 SWAP1 PUSH2 0x185E JUMP JUMPDEST SWAP3 POP POP DUP2 SWAP1 SSTORE POP PUSH1 0x1 PUSH1 0x5 PUSH1 0x0 DUP3 DUP3 SLOAD PUSH2 0x799 SWAP2 SWAP1 PUSH2 0x185E JUMP JUMPDEST SWAP3 POP POP DUP2 SWAP1 SSTORE POP POP JUMP JUMPDEST PUSH1 0x0 PUSH8 0xDE0B6B3A7640000 PUSH1 0x3 SLOAD PUSH2 0x7BB SWAP2 SWAP1 PUSH2 0x18E3 JUMP JUMPDEST SWAP1 POP SWAP1 JUMP JUMPDEST PUSH1 0x0 PUSH8 0xDE0B6B3A7640000 PUSH1 0x4 SLOAD PUSH2 0x7D8 SWAP2 SWAP1 PUSH2 0x18E3 JUMP JUMPDEST SWAP1 POP SWAP1 JUMP JUMPDEST PUSH1 0x60 PUSH1 0x0 DUP1 SLOAD SWAP1 PUSH2 0x100 EXP SWAP1 DIV PUSH20 0xFFFFFFFFFFFFFFFFFFFFFFFFFFFFFFFFFFFFFFFF AND PUSH20 0xFFFFFFFFFFFFFFFFFFFFFFFFFFFFFFFFFFFFFFFF AND CALLER PUSH20 0xFFFFFFFFFFFFFFFFFFFFFFFFFFFFFFFFFFFFFFFF AND EQ PUSH2 0x86D JUMPI PUSH1 0x40 MLOAD PUSH32 0x8C379A000000000000000000000000000000000000000000000000000000000 DUP2 MSTORE PUSH1 0x4 ADD PUSH2 0x864 SWAP1 PUSH2 0x1521 JUMP JUMPDEST PUSH1 0x40 MLOAD DUP1 SWAP2 SUB SWAP1 REVERT JUMPDEST PUSH1 0x1 DUP1 SLOAD DUP1 PUSH1 0x20 MUL PUSH1 0x20 ADD PUSH1 0x40 MLOAD SWAP1 DUP2 ADD PUSH1 0x40 MSTORE DUP1 SWAP3 SWAP2 SWAP1 DUP2 DUP2 MSTORE PUSH1 0x20 ADD DUP3 DUP1 SLOAD DUP1 ISZERO PUSH2 0x8B9 JUMPI PUSH1 0x20 MUL DUP3 ADD SWAP2 SWAP1 PUSH1 0x0 MSTORE PUSH1 0x20 PUSH1 0x0 KECCAK256 SWAP1 JUMPDEST DUP2 SLOAD DUP2 MSTORE PUSH1 0x20 ADD SWAP1 PUSH1 0x1 ADD SWAP1 DUP1 DUP4 GT PUSH2 0x8A5 JUMPI JUMPDEST POP POP POP POP POP SWAP1 POP SWAP1 JUMP JUMPDEST PUSH1 0x0 DUP1 SLOAD SWAP1 PUSH2 0x100 EXP SWAP1 DIV PUSH20 0xFFFFFFFFFFFFFFFFFFFFFFFFFFFFFFFFFFFFFFFF AND DUP2 JUMP JUMPDEST PUSH1 0x60 PUSH1 0x2 PUSH1 0x0 CALLER PUSH20 0xFFFFFFFFFFFFFFFFFFFFFFFFFFFFFFFFFFFFFFFF AND PUSH20 0xFFFFFFFFFFFFFFFFFFFFFFFFFFFFFFFFFFFFFFFF AND DUP2 MSTORE PUSH1 0x20 ADD SWAP1 DUP2 MSTORE PUSH1 0x20 ADD PUSH1 0x0 KECCAK256 DUP1 SLOAD DUP1 PUSH1 0x20 MUL PUSH1 0x20 ADD PUSH1 0x40 MLOAD SWAP1 DUP2 ADD PUSH1 0x40 MSTORE DUP1 SWAP3 SWAP2 SWAP1 DUP2 DUP2 MSTORE PUSH1 0x20 ADD DUP3 DUP1 SLOAD DUP1 ISZERO PUSH2 0x972 JUMPI PUSH1 0x20 MUL DUP3 ADD SWAP2 SWAP1 PUSH1 0x0 MSTORE PUSH1 0x20 PUSH1 0x0 KECCAK256 SWAP1 JUMPDEST DUP2 SLOAD DUP2 MSTORE PUSH1 0x20 ADD SWAP1 PUSH1 0x1 ADD SWAP1 DUP1 DUP4 GT PUSH2 0x95E JUMPI JUMPDEST POP POP POP POP POP SWAP1 POP SWAP1 JUMP JUMPDEST PUSH1 0x0 DUP1 SLOAD SWAP1 PUSH2 0x100 EXP SWAP1 DIV PUSH20 0xFFFFFFFFFFFFFFFFFFFFFFFFFFFFFFFFFFFFFFFF AND PUSH20 0xFFFFFFFFFFFFFFFFFFFFFFFFFFFFFFFFFFFFFFFF AND CALLER PUSH20 0xFFFFFFFFFFFFFFFFFFFFFFFFFFFFFFFFFFFFFFFF AND EQ PUSH2 0xA0A JUMPI PUSH1 0x40 MLOAD PUSH32 0x8C379A000000000000000000000000000000000000000000000000000000000 DUP2 MSTORE PUSH1 0x4 ADD PUSH2 0xA01 SWAP1 PUSH2 0x1521 JUMP JUMPDEST PUSH1 0x40 MLOAD DUP1 SWAP2 SUB SWAP1 REVERT JUMPDEST PUSH1 0x1 PUSH1 0x7 PUSH1 0x0 PUSH2 0x100 EXP DUP2 SLOAD DUP2 PUSH1 0xFF MUL NOT AND SWAP1 DUP4 ISZERO ISZERO MUL OR SWAP1 SSTORE POP PUSH1 0x6 PUSH8 0xFFFFFFFFFFFFFFFF DUP2 GT ISZERO PUSH2 0xA40 JUMPI PUSH2 0xA3F PUSH2 0x1208 JUMP JUMPDEST JUMPDEST PUSH1 0x40 MLOAD SWAP1 DUP1 DUP3 MSTORE DUP1 PUSH1 0x20 MUL PUSH1 0x20 ADD DUP3 ADD PUSH1 0x40 MSTORE DUP1 ISZERO PUSH2 0xA6E JUMPI DUP2 PUSH1 0x20 ADD PUSH1 0x20 DUP3 MUL DUP1 CALLDATASIZE DUP4 CALLDATACOPY DUP1 DUP3 ADD SWAP2 POP POP SWAP1 POP JUMPDEST POP PUSH1 0x1 SWAP1 DUP1 MLOAD SWAP1 PUSH1 0x20 ADD SWAP1 PUSH2 0xA84 SWAP3 SWAP2 SWAP1 PUSH2 0xFD4 JUMP JUMPDEST POP PUSH1 0x0 DUP1 JUMPDEST PUSH1 0x6 DUP2 LT ISZERO PUSH2 0xB1C JUMPI PUSH1 0x0 PUSH1 0xA TIMESTAMP DUP4 PUSH1 0x40 MLOAD PUSH1 0x20 ADD PUSH2 0xAA9 SWAP3 SWAP2 SWAP1 PUSH2 0x1935 JUMP JUMPDEST PUSH1 0x40 MLOAD PUSH1 0x20 DUP2 DUP4 SUB SUB DUP2 MSTORE SWAP1 PUSH1 0x40 MSTORE DUP1 MLOAD SWAP1 PUSH1 0x20 ADD KECCAK256 PUSH1 0x0 SHR PUSH2 0xACC SWAP2 SWAP1 PUSH2 0x1961 JUMP JUMPDEST SWAP1 POP PUSH1 0x0 DUP2 EQ PUSH2 0xB08 JUMPI DUP1 PUSH1 0x1 DUP5 DUP2 SLOAD DUP2 LT PUSH2 0xAEB JUMPI PUSH2 0xAEA PUSH2 0x170E JUMP JUMPDEST JUMPDEST SWAP1 PUSH1 0x0 MSTORE PUSH1 0x20 PUSH1 0x0 KECCAK256 ADD DUP2 SWAP1 SSTORE POP DUP3 DUP1 PUSH2 0xB04 SWAP1 PUSH2 0x17A9 JUMP JUMPDEST SWAP4 POP POP JUMPDEST POP DUP1 DUP1 PUSH2 0xB14 SWAP1 PUSH2 0x17A9 JUMP JUMPDEST SWAP2 POP POP PUSH2 0xA89 JUMP JUMPDEST POP POP JUMP JUMPDEST PUSH1 0x0 DUP1 SLOAD SWAP1 PUSH2 0x100 EXP SWAP1 DIV PUSH20 0xFFFFFFFFFFFFFFFFFFFFFFFFFFFFFFFFFFFFFFFF AND PUSH20 0xFFFFFFFFFFFFFFFFFFFFFFFFFFFFFFFFFFFFFFFF AND CALLER PUSH20 0xFFFFFFFFFFFFFFFFFFFFFFFFFFFFFFFFFFFFFFFF AND EQ PUSH2 0xBAE JUMPI PUSH1 0x40 MLOAD PUSH32 0x8C379A000000000000000000000000000000000000000000000000000000000 DUP2 MSTORE PUSH1 0x4 ADD PUSH2 0xBA5 SWAP1 PUSH2 0x1521 JUMP JUMPDEST PUSH1 0x40 MLOAD DUP1 SWAP2 SUB SWAP1 REVERT JUMPDEST PUSH1 0x1 ISZERO ISZERO PUSH1 0x7 PUSH1 0x0 SWAP1 SLOAD SWAP1 PUSH2 0x100 EXP SWAP1 DIV PUSH1 0xFF AND ISZERO ISZERO EQ PUSH2 0xC04 JUMPI PUSH1 0x40 MLOAD PUSH32 0x8C379A000000000000000000000000000000000000000000000000000000000 DUP2 MSTORE PUSH1 0x4 ADD PUSH2 0xBFB SWAP1 PUSH2 0x19DE JUMP JUMPDEST PUSH1 0x40 MLOAD DUP1 SWAP2 SUB SWAP1 REVERT JUMPDEST PUSH1 0x0 PUSH1 0x5 SLOAD GT PUSH2 0xC49 JUMPI PUSH1 0x40 MLOAD PUSH32 0x8C379A000000000000000000000000000000000000000000000000000000000 DUP2 MSTORE PUSH1 0x4 ADD PUSH2 0xC40 SWAP1 PUSH2 0x1A4A JUMP JUMPDEST PUSH1 0x40 MLOAD DUP1 SWAP2 SUB SWAP1 REVERT JUMPDEST PUSH1 0x0 DUP1 PUSH1 0x0 DUP1 PUSH1 0x0 DUP1 PUSH1 0x0 SWAP1 POP JUMPDEST PUSH1 0x6 DUP1 SLOAD SWAP1 POP DUP2 LT ISZERO PUSH2 0xF26 JUMPI PUSH1 0x0 JUMPDEST PUSH1 0x1 DUP1 SLOAD SWAP1 POP DUP2 LT ISZERO PUSH2 0xD5E JUMPI PUSH1 0x1 DUP2 DUP2 SLOAD DUP2 LT PUSH2 0xC88 JUMPI PUSH2 0xC87 PUSH2 0x170E JUMP JUMPDEST JUMPDEST SWAP1 PUSH1 0x0 MSTORE PUSH1 0x20 PUSH1 0x0 KECCAK256 ADD SLOAD PUSH1 0x2 PUSH1 0x0 PUSH1 0x6 DUP6 DUP2 SLOAD DUP2 LT PUSH2 0xCAB JUMPI PUSH2 0xCAA PUSH2 0x170E JUMP JUMPDEST JUMPDEST SWAP1 PUSH1 0x0 MSTORE PUSH1 0x20 PUSH1 0x0 KECCAK256 ADD PUSH1 0x0 SWAP1 SLOAD SWAP1 PUSH2 0x100 EXP SWAP1 DIV PUSH20 0xFFFFFFFFFFFFFFFFFFFFFFFFFFFFFFFFFFFFFFFF AND PUSH20 0xFFFFFFFFFFFFFFFFFFFFFFFFFFFFFFFFFFFFFFFF AND PUSH20 0xFFFFFFFFFFFFFFFFFFFFFFFFFFFFFFFFFFFFFFFF AND DUP2 MSTORE PUSH1 0x20 ADD SWAP1 DUP2 MSTORE PUSH1 0x20 ADD PUSH1 0x0 KECCAK256 DUP3 DUP2 SLOAD DUP2 LT PUSH2 0xD22 JUMPI PUSH2 0xD21 PUSH2 0x170E JUMP JUMPDEST JUMPDEST SWAP1 PUSH1 0x0 MSTORE PUSH1 0x20 PUSH1 0x0 KECCAK256 ADD SLOAD EQ ISZERO PUSH2 0xD46 JUMPI DUP7 DUP1 PUSH2 0xD3E SWAP1 PUSH2 0x17A9 JUMP JUMPDEST SWAP8 POP POP PUSH2 0xD4B JUMP JUMPDEST PUSH2 0xD5E JUMP JUMPDEST DUP1 DUP1 PUSH2 0xD56 SWAP1 PUSH2 0x17A9 JUMP JUMPDEST SWAP2 POP POP PUSH2 0xC67 JUMP JUMPDEST POP PUSH1 0x2 PUSH1 0x0 PUSH1 0x6 DUP4 DUP2 SLOAD DUP2 LT PUSH2 0xD77 JUMPI PUSH2 0xD76 PUSH2 0x170E JUMP JUMPDEST JUMPDEST SWAP1 PUSH1 0x0 MSTORE PUSH1 0x20 PUSH1 0x0 KECCAK256 ADD PUSH1 0x0 SWAP1 SLOAD SWAP1 PUSH2 0x100 EXP SWAP1 DIV PUSH20 0xFFFFFFFFFFFFFFFFFFFFFFFFFFFFFFFFFFFFFFFF AND PUSH20 0xFFFFFFFFFFFFFFFFFFFFFFFFFFFFFFFFFFFFFFFF AND PUSH20 0xFFFFFFFFFFFFFFFFFFFFFFFFFFFFFFFFFFFFFFFF AND DUP2 MSTORE PUSH1 0x20 ADD SWAP1 DUP2 MSTORE PUSH1 0x20 ADD PUSH1 0x0 KECCAK256 PUSH1 0x0 PUSH2 0xDE8 SWAP2 SWAP1 PUSH2 0x1021 JUMP JUMPDEST PUSH1 0x1 DUP7 EQ ISZERO PUSH2 0xDFA JUMPI PUSH1 0x2 SWAP5 POP PUSH2 0xE55 JUMP JUMPDEST PUSH1 0x2 DUP7 EQ ISZERO PUSH2 0xE0C JUMPI PUSH1 0x3 SWAP5 POP PUSH2 0xE54 JUMP JUMPDEST PUSH1 0x3 DUP7 EQ ISZERO PUSH2 0xE1E JUMPI PUSH1 0x5 SWAP5 POP PUSH2 0xE53 JUMP JUMPDEST PUSH1 0x4 DUP7 EQ ISZERO PUSH2 0xE30 JUMPI PUSH1 0xA SWAP5 POP PUSH2 0xE52 JUMP JUMPDEST PUSH1 0x5 DUP7 EQ ISZERO PUSH2 0xE42 JUMPI PUSH1 0x14 SWAP5 POP PUSH2 0xE51 JUMP JUMPDEST PUSH1 0x6 DUP7 EQ ISZERO PUSH2 0xE50 JUMPI PUSH1 0x28 SWAP5 POP JUMPDEST JUMPDEST JUMPDEST JUMPDEST JUMPDEST JUMPDEST PUSH1 0x64 DUP6 PUSH1 0x4 SLOAD PUSH2 0xE65 SWAP2 SWAP1 PUSH2 0x15DC JUMP JUMPDEST PUSH2 0xE6F SWAP2 SWAP1 PUSH2 0x18E3 JUMP JUMPDEST SWAP4 POP DUP4 DUP4 PUSH2 0xE7D SWAP2 SWAP1 PUSH2 0x185E JUMP JUMPDEST SWAP3 POP PUSH1 0x6 DUP2 DUP2 SLOAD DUP2 LT PUSH2 0xE93 JUMPI PUSH2 0xE92 PUSH2 0x170E JUMP JUMPDEST JUMPDEST SWAP1 PUSH1 0x0 MSTORE PUSH1 0x20 PUSH1 0x0 KECCAK256 ADD PUSH1 0x0 SWAP1 SLOAD SWAP1 PUSH2 0x100 EXP SWAP1 DIV PUSH20 0xFFFFFFFFFFFFFFFFFFFFFFFFFFFFFFFFFFFFFFFF AND SWAP2 POP DUP2 PUSH20 0xFFFFFFFFFFFFFFFFFFFFFFFFFFFFFFFFFFFFFFFF AND PUSH2 0x8FC DUP6 SWAP1 DUP2 ISZERO MUL SWAP1 PUSH1 0x40 MLOAD PUSH1 0x0 PUSH1 0x40 MLOAD DUP1 DUP4 SUB DUP2 DUP6 DUP9 DUP9 CALL SWAP4 POP POP POP POP ISZERO DUP1 ISZERO PUSH2 0xF06 JUMPI RETURNDATASIZE PUSH1 0x0 DUP1 RETURNDATACOPY RETURNDATASIZE PUSH1 0x0 REVERT JUMPDEST POP PUSH1 0x0 SWAP6 POP PUSH1 0x0 SWAP5 POP PUSH1 0x0 SWAP4 POP DUP1 DUP1 PUSH2 0xF1E SWAP1 PUSH2 0x17A9 JUMP JUMPDEST SWAP2 POP POP PUSH2 0xC57 JUMP JUMPDEST POP PUSH1 0x0 PUSH1 0x5 DUP2 SWAP1 SSTORE POP DUP2 PUSH1 0x4 PUSH1 0x0 DUP3 DUP3 SLOAD PUSH2 0xF41 SWAP2 SWAP1 PUSH2 0x1A6A JUMP JUMPDEST SWAP3 POP POP DUP2 SWAP1 SSTORE POP PUSH1 0x0 PUSH8 0xFFFFFFFFFFFFFFFF DUP2 GT ISZERO PUSH2 0xF63 JUMPI PUSH2 0xF62 PUSH2 0x1208 JUMP JUMPDEST JUMPDEST PUSH1 0x40 MLOAD SWAP1 DUP1 DUP3 MSTORE DUP1 PUSH1 0x20 MUL PUSH1 0x20 ADD DUP3 ADD PUSH1 0x40 MSTORE DUP1 ISZERO PUSH2 0xF91 JUMPI DUP2 PUSH1 0x20 ADD PUSH1 0x20 DUP3 MUL DUP1 CALLDATASIZE DUP4 CALLDATACOPY DUP1 DUP3 ADD SWAP2 POP POP SWAP1 POP JUMPDEST POP PUSH1 0x6 SWAP1 DUP1 MLOAD SWAP1 PUSH1 0x20 ADD SWAP1 PUSH2 0xFA7 SWAP3 SWAP2 SWAP1 PUSH2 0x1042 JUMP JUMPDEST POP PUSH1 0x0 SWAP1 POP PUSH1 0x0 PUSH1 0x7 PUSH1 0x0 PUSH2 0x100 EXP DUP2 SLOAD DUP2 PUSH1 0xFF MUL NOT AND SWAP1 DUP4 ISZERO ISZERO MUL OR SWAP1 SSTORE POP POP POP POP POP POP JUMP JUMPDEST PUSH1 0x5 SLOAD DUP2 JUMP JUMPDEST DUP3 DUP1 SLOAD DUP3 DUP3 SSTORE SWAP1 PUSH1 0x0 MSTORE PUSH1 0x20 PUSH1 0x0 KECCAK256 SWAP1 DUP2 ADD SWAP3 DUP3 ISZERO PUSH2 0x1010 JUMPI SWAP2 PUSH1 0x20 MUL DUP3 ADD JUMPDEST DUP3 DUP2 GT ISZERO PUSH2 0x100F JUMPI DUP3 MLOAD DUP3 SSTORE SWAP2 PUSH1 0x20 ADD SWAP2 SWAP1 PUSH1 0x1 ADD SWAP1 PUSH2 0xFF4 JUMP JUMPDEST JUMPDEST POP SWAP1 POP PUSH2 0x101D SWAP2 SWAP1 PUSH2 0x10CC JUMP JUMPDEST POP SWAP1 JUMP JUMPDEST POP DUP1 SLOAD PUSH1 0x0 DUP3 SSTORE SWAP1 PUSH1 0x0 MSTORE PUSH1 0x20 PUSH1 0x0 KECCAK256 SWAP1 DUP2 ADD SWAP1 PUSH2 0x103F SWAP2 SWAP1 PUSH2 0x10CC JUMP JUMPDEST POP JUMP JUMPDEST DUP3 DUP1 SLOAD DUP3 DUP3 SSTORE SWAP1 PUSH1 0x0 MSTORE PUSH1 0x20 PUSH1 0x0 KECCAK256 SWAP1 DUP2 ADD SWAP3 DUP3 ISZERO PUSH2 0x10BB JUMPI SWAP2 PUSH1 0x20 MUL DUP3 ADD JUMPDEST DUP3 DUP2 GT ISZERO PUSH2 0x10BA JUMPI DUP3 MLOAD DUP3 PUSH1 0x0 PUSH2 0x100 EXP DUP2 SLOAD DUP2 PUSH20 0xFFFFFFFFFFFFFFFFFFFFFFFFFFFFFFFFFFFFFFFF MUL NOT AND SWAP1 DUP4 PUSH20 0xFFFFFFFFFFFFFFFFFFFFFFFFFFFFFFFFFFFFFFFF AND MUL OR SWAP1 SSTORE POP SWAP2 PUSH1 0x20 ADD SWAP2 SWAP1 PUSH1 0x1 ADD SWAP1 PUSH2 0x1062 JUMP JUMPDEST JUMPDEST POP SWAP1 POP PUSH2 0x10C8 SWAP2 SWAP1 PUSH2 0x10CC JUMP JUMPDEST POP SWAP1 JUMP JUMPDEST JUMPDEST DUP1 DUP3 GT ISZERO PUSH2 0x10E5 JUMPI PUSH1 0x0 DUP2 PUSH1 0x0 SWAP1 SSTORE POP PUSH1 0x1 ADD PUSH2 0x10CD JUMP JUMPDEST POP SWAP1 JUMP JUMPDEST PUSH1 0x0 PUSH1 0x40 MLOAD SWAP1 POP SWAP1 JUMP JUMPDEST PUSH1 0x0 DUP1 REVERT JUMPDEST PUSH1 0x0 DUP1 REVERT JUMPDEST PUSH1 0x0 DUP2 SWAP1 POP SWAP2 SWAP1 POP JUMP JUMPDEST PUSH2 0x1110 DUP2 PUSH2 0x10FD JUMP JUMPDEST DUP2 EQ PUSH2 0x111B JUMPI PUSH1 0x0 DUP1 REVERT JUMPDEST POP JUMP JUMPDEST PUSH1 0x0 DUP2 CALLDATALOAD SWAP1 POP PUSH2 0x112D DUP2 PUSH2 0x1107 JUMP JUMPDEST SWAP3 SWAP2 POP POP JUMP JUMPDEST PUSH1 0x0 PUSH1 0x20 DUP3 DUP5 SUB SLT ISZERO PUSH2 0x1149 JUMPI PUSH2 0x1148 PUSH2 0x10F3 JUMP JUMPDEST JUMPDEST PUSH1 0x0 PUSH2 0x1157 DUP5 DUP3 DUP6 ADD PUSH2 0x111E JUMP JUMPDEST SWAP2 POP POP SWAP3 SWAP2 POP POP JUMP JUMPDEST PUSH1 0x0 PUSH20 0xFFFFFFFFFFFFFFFFFFFFFFFFFFFFFFFFFFFFFFFF DUP3 AND SWAP1 POP SWAP2 SWAP1 POP JUMP JUMPDEST PUSH1 0x0 PUSH2 0x118B DUP3 PUSH2 0x1160 JUMP JUMPDEST SWAP1 POP SWAP2 SWAP1 POP JUMP JUMPDEST PUSH2 0x119B DUP2 PUSH2 0x1180 JUMP JUMPDEST DUP3 MSTORE POP POP JUMP JUMPDEST PUSH1 0x0 PUSH1 0x20 DUP3 ADD SWAP1 POP PUSH2 0x11B6 PUSH1 0x0 DUP4 ADD DUP5 PUSH2 0x1192 JUMP JUMPDEST SWAP3 SWAP2 POP POP JUMP JUMPDEST PUSH1 0x0 DUP2 ISZERO ISZERO SWAP1 POP SWAP2 SWAP1 POP JUMP JUMPDEST PUSH2 0x11D1 DUP2 PUSH2 0x11BC JUMP JUMPDEST DUP3 MSTORE POP POP JUMP JUMPDEST PUSH1 0x0 PUSH1 0x20 DUP3 ADD SWAP1 POP PUSH2 0x11EC PUSH1 0x0 DUP4 ADD DUP5 PUSH2 0x11C8 JUMP JUMPDEST SWAP3 SWAP2 POP POP JUMP JUMPDEST PUSH1 0x0 DUP1 REVERT JUMPDEST PUSH1 0x0 PUSH1 0x1F NOT PUSH1 0x1F DUP4 ADD AND SWAP1 POP SWAP2 SWAP1 POP JUMP JUMPDEST PUSH32 0x4E487B7100000000000000000000000000000000000000000000000000000000 PUSH1 0x0 MSTORE PUSH1 0x41 PUSH1 0x4 MSTORE PUSH1 0x24 PUSH1 0x0 REVERT JUMPDEST PUSH2 0x1240 DUP3 PUSH2 0x11F7 JUMP JUMPDEST DUP2 ADD DUP2 DUP2 LT PUSH8 0xFFFFFFFFFFFFFFFF DUP3 GT OR ISZERO PUSH2 0x125F JUMPI PUSH2 0x125E PUSH2 0x1208 JUMP JUMPDEST JUMPDEST DUP1 PUSH1 0x40 MSTORE POP POP POP JUMP JUMPDEST PUSH1 0x0 PUSH2 0x1272 PUSH2 0x10E9 JUMP JUMPDEST SWAP1 POP PUSH2 0x127E DUP3 DUP3 PUSH2 0x1237 JUMP JUMPDEST SWAP2 SWAP1 POP JUMP JUMPDEST PUSH1 0x0 PUSH8 0xFFFFFFFFFFFFFFFF DUP3 GT ISZERO PUSH2 0x129E JUMPI PUSH2 0x129D PUSH2 0x1208 JUMP JUMPDEST JUMPDEST PUSH1 0x20 DUP3 MUL SWAP1 POP PUSH1 0x20 DUP2 ADD SWAP1 POP SWAP2 SWAP1 POP JUMP JUMPDEST PUSH1 0x0 DUP1 REVERT JUMPDEST PUSH1 0x0 PUSH2 0x12C7 PUSH2 0x12C2 DUP5 PUSH2 0x1283 JUMP JUMPDEST PUSH2 0x1268 JUMP JUMPDEST SWAP1 POP DUP1 DUP4 DUP3 MSTORE PUSH1 0x20 DUP3 ADD SWAP1 POP PUSH1 0x20 DUP5 MUL DUP4 ADD DUP6 DUP2 GT ISZERO PUSH2 0x12EA JUMPI PUSH2 0x12E9 PUSH2 0x12AF JUMP JUMPDEST JUMPDEST DUP4 JUMPDEST DUP2 DUP2 LT ISZERO PUSH2 0x1313 JUMPI DUP1 PUSH2 0x12FF DUP9 DUP3 PUSH2 0x111E JUMP JUMPDEST DUP5 MSTORE PUSH1 0x20 DUP5 ADD SWAP4 POP POP PUSH1 0x20 DUP2 ADD SWAP1 POP PUSH2 0x12EC JUMP JUMPDEST POP POP POP SWAP4 SWAP3 POP POP POP JUMP JUMPDEST PUSH1 0x0 DUP3 PUSH1 0x1F DUP4 ADD SLT PUSH2 0x1332 JUMPI PUSH2 0x1331 PUSH2 0x11F2 JUMP JUMPDEST JUMPDEST DUP2 CALLDATALOAD PUSH2 0x1342 DUP5 DUP3 PUSH1 0x20 DUP7 ADD PUSH2 0x12B4 JUMP JUMPDEST SWAP2 POP POP SWAP3 SWAP2 POP POP JUMP JUMPDEST PUSH1 0x0 PUSH1 0x20 DUP3 DUP5 SUB SLT ISZERO PUSH2 0x1361 JUMPI PUSH2 0x1360 PUSH2 0x10F3 JUMP JUMPDEST JUMPDEST PUSH1 0x0 DUP3 ADD CALLDATALOAD PUSH8 0xFFFFFFFFFFFFFFFF DUP2 GT ISZERO PUSH2 0x137F JUMPI PUSH2 0x137E PUSH2 0x10F8 JUMP JUMPDEST JUMPDEST PUSH2 0x138B DUP5 DUP3 DUP6 ADD PUSH2 0x131D JUMP JUMPDEST SWAP2 POP POP SWAP3 SWAP2 POP POP JUMP JUMPDEST PUSH2 0x139D DUP2 PUSH2 0x10FD JUMP JUMPDEST DUP3 MSTORE POP POP JUMP JUMPDEST PUSH1 0x0 PUSH1 0x20 DUP3 ADD SWAP1 POP PUSH2 0x13B8 PUSH1 0x0 DUP4 ADD DUP5 PUSH2 0x1394 JUMP JUMPDEST SWAP3 SWAP2 POP POP JUMP JUMPDEST PUSH1 0x0 DUP2 MLOAD SWAP1 POP SWAP2 SWAP1 POP JUMP JUMPDEST PUSH1 0x0 DUP3 DUP3 MSTORE PUSH1 0x20 DUP3 ADD SWAP1 POP SWAP3 SWAP2 POP POP JUMP JUMPDEST PUSH1 0x0 DUP2 SWAP1 POP PUSH1 0x20 DUP3 ADD SWAP1 POP SWAP2 SWAP1 POP JUMP JUMPDEST PUSH2 0x13F3 DUP2 PUSH2 0x10FD JUMP JUMPDEST DUP3 MSTORE POP POP JUMP JUMPDEST PUSH1 0x0 PUSH2 0x1405 DUP4 DUP4 PUSH2 0x13EA JUMP JUMPDEST PUSH1 0x20 DUP4 ADD SWAP1 POP SWAP3 SWAP2 POP POP JUMP JUMPDEST PUSH1 0x0 PUSH1 0x20 DUP3 ADD SWAP1 POP SWAP2 SWAP1 POP JUMP JUMPDEST PUSH1 0x0 PUSH2 0x1429 DUP3 PUSH2 0x13BE JUMP JUMPDEST PUSH2 0x1433 DUP2 DUP6 PUSH2 0x13C9 JUMP JUMPDEST SWAP4 POP PUSH2 0x143E DUP4 PUSH2 0x13DA JUMP JUMPDEST DUP1 PUSH1 0x0 JUMPDEST DUP4 DUP2 LT ISZERO PUSH2 0x146F JUMPI DUP2 MLOAD PUSH2 0x1456 DUP9 DUP3 PUSH2 0x13F9 JUMP JUMPDEST SWAP8 POP PUSH2 0x1461 DUP4 PUSH2 0x1411 JUMP JUMPDEST SWAP3 POP POP PUSH1 0x1 DUP2 ADD SWAP1 POP PUSH2 0x1442 JUMP JUMPDEST POP DUP6 SWAP4 POP POP POP POP SWAP3 SWAP2 POP POP JUMP JUMPDEST PUSH1 0x0 PUSH1 0x20 DUP3 ADD SWAP1 POP DUP2 DUP2 SUB PUSH1 0x0 DUP4 ADD MSTORE PUSH2 0x1496 DUP2 DUP5 PUSH2 0x141E JUMP JUMPDEST SWAP1 POP SWAP3 SWAP2 POP POP JUMP JUMPDEST PUSH1 0x0 DUP3 DUP3 MSTORE PUSH1 0x20 DUP3 ADD SWAP1 POP SWAP3 SWAP2 POP POP JUMP JUMPDEST PUSH32 0x4F6E6C7920746865206F776E65722063616E20706572666F726D207468697320 PUSH1 0x0 DUP3 ADD MSTORE PUSH32 0x616374696F6E0000000000000000000000000000000000000000000000000000 PUSH1 0x20 DUP3 ADD MSTORE POP JUMP JUMPDEST PUSH1 0x0 PUSH2 0x150B PUSH1 0x26 DUP4 PUSH2 0x149E JUMP JUMPDEST SWAP2 POP PUSH2 0x1516 DUP3 PUSH2 0x14AF JUMP JUMPDEST PUSH1 0x40 DUP3 ADD SWAP1 POP SWAP2 SWAP1 POP JUMP JUMPDEST PUSH1 0x0 PUSH1 0x20 DUP3 ADD SWAP1 POP DUP2 DUP2 SUB PUSH1 0x0 DUP4 ADD MSTORE PUSH2 0x153A DUP2 PUSH2 0x14FE JUMP JUMPDEST SWAP1 POP SWAP2 SWAP1 POP JUMP JUMPDEST PUSH32 0x4E6F20457468657220746F2070756C6C206F7574000000000000000000000000 PUSH1 0x0 DUP3 ADD MSTORE POP JUMP JUMPDEST PUSH1 0x0 PUSH2 0x1577 PUSH1 0x14 DUP4 PUSH2 0x149E JUMP JUMPDEST SWAP2 POP PUSH2 0x1582 DUP3 PUSH2 0x1541 JUMP JUMPDEST PUSH1 0x20 DUP3 ADD SWAP1 POP SWAP2 SWAP1 POP JUMP JUMPDEST PUSH1 0x0 PUSH1 0x20 DUP3 ADD SWAP1 POP DUP2 DUP2 SUB PUSH1 0x0 DUP4 ADD MSTORE PUSH2 0x15A6 DUP2 PUSH2 0x156A JUMP JUMPDEST SWAP1 POP SWAP2 SWAP1 POP JUMP JUMPDEST PUSH32 0x4E487B7100000000000000000000000000000000000000000000000000000000 PUSH1 0x0 MSTORE PUSH1 0x11 PUSH1 0x4 MSTORE PUSH1 0x24 PUSH1 0x0 REVERT JUMPDEST PUSH1 0x0 PUSH2 0x15E7 DUP3 PUSH2 0x10FD JUMP JUMPDEST SWAP2 POP PUSH2 0x15F2 DUP4 PUSH2 0x10FD JUMP JUMPDEST SWAP3 POP DUP2 PUSH32 0xFFFFFFFFFFFFFFFFFFFFFFFFFFFFFFFFFFFFFFFFFFFFFFFFFFFFFFFFFFFFFFFF DIV DUP4 GT DUP3 ISZERO ISZERO AND ISZERO PUSH2 0x162B JUMPI PUSH2 0x162A PUSH2 0x15AD JUMP JUMPDEST JUMPDEST DUP3 DUP3 MUL SWAP1 POP SWAP3 SWAP2 POP POP JUMP JUMPDEST PUSH32 0x57726F6E6720616D6F756E740000000000000000000000000000000000000000 PUSH1 0x0 DUP3 ADD MSTORE POP JUMP JUMPDEST PUSH1 0x0 PUSH2 0x166C PUSH1 0xC DUP4 PUSH2 0x149E JUMP JUMPDEST SWAP2 POP PUSH2 0x1677 DUP3 PUSH2 0x1636 JUMP JUMPDEST PUSH1 0x20 DUP3 ADD SWAP1 POP SWAP2 SWAP1 POP JUMP JUMPDEST PUSH1 0x0 PUSH1 0x20 DUP3 ADD SWAP1 POP DUP2 DUP2 SUB PUSH1 0x0 DUP4 ADD MSTORE PUSH2 0x169B DUP2 PUSH2 0x165F JUMP JUMPDEST SWAP1 POP SWAP2 SWAP1 POP JUMP JUMPDEST PUSH32 0x57726F6E67206E756D626572206F66206E756D62657273000000000000000000 PUSH1 0x0 DUP3 ADD MSTORE POP JUMP JUMPDEST PUSH1 0x0 PUSH2 0x16D8 PUSH1 0x17 DUP4 PUSH2 0x149E JUMP JUMPDEST SWAP2 POP PUSH2 0x16E3 DUP3 PUSH2 0x16A2 JUMP JUMPDEST PUSH1 0x20 DUP3 ADD SWAP1 POP SWAP2 SWAP1 POP JUMP JUMPDEST PUSH1 0x0 PUSH1 0x20 DUP3 ADD SWAP1 POP DUP2 DUP2 SUB PUSH1 0x0 DUP4 ADD MSTORE PUSH2 0x1707 DUP2 PUSH2 0x16CB JUMP JUMPDEST SWAP1 POP SWAP2 SWAP1 POP JUMP JUMPDEST PUSH32 0x4E487B7100000000000000000000000000000000000000000000000000000000 PUSH1 0x0 MSTORE PUSH1 0x32 PUSH1 0x4 MSTORE PUSH1 0x24 PUSH1 0x0 REVERT JUMPDEST PUSH32 0x57726F6E67206E756D6265720000000000000000000000000000000000000000 PUSH1 0x0 DUP3 ADD MSTORE POP JUMP JUMPDEST PUSH1 0x0 PUSH2 0x1773 PUSH1 0xC DUP4 PUSH2 0x149E JUMP JUMPDEST SWAP2 POP PUSH2 0x177E DUP3 PUSH2 0x173D JUMP JUMPDEST PUSH1 0x20 DUP3 ADD SWAP1 POP SWAP2 SWAP1 POP JUMP JUMPDEST PUSH1 0x0 PUSH1 0x20 DUP3 ADD SWAP1 POP DUP2 DUP2 SUB PUSH1 0x0 DUP4 ADD MSTORE PUSH2 0x17A2 DUP2 PUSH2 0x1766 JUMP JUMPDEST SWAP1 POP SWAP2 SWAP1 POP JUMP JUMPDEST PUSH1 0x0 PUSH2 0x17B4 DUP3 PUSH2 0x10FD JUMP JUMPDEST SWAP2 POP PUSH32 0xFFFFFFFFFFFFFFFFFFFFFFFFFFFFFFFFFFFFFFFFFFFFFFFFFFFFFFFFFFFFFFFF DUP3 EQ ISZERO PUSH2 0x17E7 JUMPI PUSH2 0x17E6 PUSH2 0x15AD JUMP JUMPDEST JUMPDEST PUSH1 0x1 DUP3 ADD SWAP1 POP SWAP2 SWAP1 POP JUMP JUMPDEST PUSH32 0x596F75206861766520616C726561647920626F756768742061207469636B6574 PUSH1 0x0 DUP3 ADD MSTORE POP JUMP JUMPDEST PUSH1 0x0 PUSH2 0x1828 PUSH1 0x20 DUP4 PUSH2 0x149E JUMP JUMPDEST SWAP2 POP PUSH2 0x1833 DUP3 PUSH2 0x17F2 JUMP JUMPDEST PUSH1 0x20 DUP3 ADD SWAP1 POP SWAP2 SWAP1 POP JUMP JUMPDEST PUSH1 0x0 PUSH1 0x20 DUP3 ADD SWAP1 POP DUP2 DUP2 SUB PUSH1 0x0 DUP4 ADD MSTORE PUSH2 0x1857 DUP2 PUSH2 0x181B JUMP JUMPDEST SWAP1 POP SWAP2 SWAP1 POP JUMP JUMPDEST PUSH1 0x0 PUSH2 0x1869 DUP3 PUSH2 0x10FD JUMP JUMPDEST SWAP2 POP PUSH2 0x1874 DUP4 PUSH2 0x10FD JUMP JUMPDEST SWAP3 POP DUP3 PUSH32 0xFFFFFFFFFFFFFFFFFFFFFFFFFFFFFFFFFFFFFFFFFFFFFFFFFFFFFFFFFFFFFFFF SUB DUP3 GT ISZERO PUSH2 0x18A9 JUMPI PUSH2 0x18A8 PUSH2 0x15AD JUMP JUMPDEST JUMPDEST DUP3 DUP3 ADD SWAP1 POP SWAP3 SWAP2 POP POP JUMP JUMPDEST PUSH32 0x4E487B7100000000000000000000000000000000000000000000000000000000 PUSH1 0x0 MSTORE PUSH1 0x12 PUSH1 0x4 MSTORE PUSH1 0x24 PUSH1 0x0 REVERT JUMPDEST PUSH1 0x0 PUSH2 0x18EE DUP3 PUSH2 0x10FD JUMP JUMPDEST SWAP2 POP PUSH2 0x18F9 DUP4 PUSH2 0x10FD JUMP JUMPDEST SWAP3 POP DUP3 PUSH2 0x1909 JUMPI PUSH2 0x1908 PUSH2 0x18B4 JUMP JUMPDEST JUMPDEST DUP3 DUP3 DIV SWAP1 POP SWAP3 SWAP2 POP POP JUMP JUMPDEST PUSH1 0x0 DUP2 SWAP1 POP SWAP2 SWAP1 POP JUMP JUMPDEST PUSH2 0x192F PUSH2 0x192A DUP3 PUSH2 0x10FD JUMP JUMPDEST PUSH2 0x1914 JUMP JUMPDEST DUP3 MSTORE POP POP JUMP JUMPDEST PUSH1 0x0 PUSH2 0x1941 DUP3 DUP6 PUSH2 0x191E JUMP JUMPDEST PUSH1 0x20 DUP3 ADD SWAP2 POP PUSH2 0x1951 DUP3 DUP5 PUSH2 0x191E JUMP JUMPDEST PUSH1 0x20 DUP3 ADD SWAP2 POP DUP2 SWAP1 POP SWAP4 SWAP3 POP POP POP JUMP JUMPDEST PUSH1 0x0 PUSH2 0x196C DUP3 PUSH2 0x10FD JUMP JUMPDEST SWAP2 POP PUSH2 0x1977 DUP4 PUSH2 0x10FD JUMP JUMPDEST SWAP3 POP DUP3 PUSH2 0x1987 JUMPI PUSH2 0x1986 PUSH2 0x18B4 JUMP JUMPDEST JUMPDEST DUP3 DUP3 MOD SWAP1 POP SWAP3 SWAP2 POP POP JUMP JUMPDEST PUSH32 0x4E6F206C6F74746572792069732072756E6E696E670000000000000000000000 PUSH1 0x0 DUP3 ADD MSTORE POP JUMP JUMPDEST PUSH1 0x0 PUSH2 0x19C8 PUSH1 0x15 DUP4 PUSH2 0x149E JUMP JUMPDEST SWAP2 POP PUSH2 0x19D3 DUP3 PUSH2 0x1992 JUMP JUMPDEST PUSH1 0x20 DUP3 ADD SWAP1 POP SWAP2 SWAP1 POP JUMP JUMPDEST PUSH1 0x0 PUSH1 0x20 DUP3 ADD SWAP1 POP DUP2 DUP2 SUB PUSH1 0x0 DUP4 ADD MSTORE PUSH2 0x19F7 DUP2 PUSH2 0x19BB JUMP JUMPDEST SWAP1 POP SWAP2 SWAP1 POP JUMP JUMPDEST PUSH32 0x4E6F207469636B65742077617320626F75000000000000000000000000000000 PUSH1 0x0 DUP3 ADD MSTORE POP JUMP JUMPDEST PUSH1 0x0 PUSH2 0x1A34 PUSH1 0x11 DUP4 PUSH2 0x149E JUMP JUMPDEST SWAP2 POP PUSH2 0x1A3F DUP3 PUSH2 0x19FE JUMP JUMPDEST PUSH1 0x20 DUP3 ADD SWAP1 POP SWAP2 SWAP1 POP JUMP JUMPDEST PUSH1 0x0 PUSH1 0x20 DUP3 ADD SWAP1 POP DUP2 DUP2 SUB PUSH1 0x0 DUP4 ADD MSTORE PUSH2 0x1A63 DUP2 PUSH2 0x1A27 JUMP JUMPDEST SWAP1 POP SWAP2 SWAP1 POP JUMP JUMPDEST PUSH1 0x0 PUSH2 0x1A75 DUP3 PUSH2 0x10FD JUMP JUMPDEST SWAP2 POP PUSH2 0x1A80 DUP4 PUSH2 0x10FD JUMP JUMPDEST SWAP3 POP DUP3 DUP3 LT ISZERO PUSH2 0x1A93 JUMPI PUSH2 0x1A92 PUSH2 0x15AD JUMP JUMPDEST JUMPDEST DUP3 DUP3 SUB SWAP1 POP SWAP3 SWAP2 POP POP JUMP INVALID LOG2 PUSH5 0x6970667358 0x22 SLT KECCAK256 CODECOPY 0xC1 SWAP10 0x5D 0xEB CALLCODE COINBASE GAS PUSH28 0xACDEF775C1B0FC6D9C85529478D8026217EB3B7598596F64736F6C63 NUMBER STOP ADDMOD SIGNEXTEND STOP CALLER "
				},
				"gasEstimates": {
					"creation": {
						"codeDepositCost": "1373600",
						"executionCost": "77076",
						"totalCost": "1450676"
					},
					"external": {
						"EndLottery()": "infinite",
						"NrticketsBought()": "2517",
						"Pull()": "infinite",
						"buyTicket(uint256[])": "infinite",
						"changeTicketPrice(uint256)": "infinite",
						"getMyTicketNumbers()": "infinite",
						"getTicketPrice()": "infinite",
						"getTotalLotteryPot()": "infinite",
						"getWinningNumber()": "infinite",
						"lotteryStarted()": "2538",
						"owner()": "2578",
						"playersAddresses(uint256)": "5001",
						"setWinningNumbers()": "infinite"
					}
				},
				"methodIdentifiers": {
					"EndLottery()": "b04a3f1c",
					"NrticketsBought()": "d386ea73",
					"Pull()": "30daec49",
					"buyTicket(uint256[])": "716cac96",
					"changeTicketPrice(uint256)": "4630a0ee",
					"getMyTicketNumbers()": "a650fbab",
					"getTicketPrice()": "87bb7ae0",
					"getTotalLotteryPot()": "8a4a29c3",
					"getWinningNumber()": "8b0b9ed4",
					"lotteryStarted()": "5a3811b9",
					"owner()": "8da5cb5b",
					"playersAddresses(uint256)": "472016da",
					"setWinningNumbers()": "a7caba25"
				}
			},
			"storageLayout": {
				"storage": [
					{
						"astId": 3,
						"contract": "UZHPancakeLottery/UZHPancakeLottery.sol:UZHPancakeLottery",
						"label": "owner",
						"offset": 0,
						"slot": "0",
						"type": "t_address"
					},
					{
						"astId": 6,
						"contract": "UZHPancakeLottery/UZHPancakeLottery.sol:UZHPancakeLottery",
						"label": "winningNumber",
						"offset": 0,
						"slot": "1",
						"type": "t_array(t_uint256)dyn_storage"
					},
					{
						"astId": 11,
						"contract": "UZHPancakeLottery/UZHPancakeLottery.sol:UZHPancakeLottery",
						"label": "playersTickets",
						"offset": 0,
						"slot": "2",
						"type": "t_mapping(t_address,t_array(t_uint256)dyn_storage)"
					},
					{
						"astId": 14,
						"contract": "UZHPancakeLottery/UZHPancakeLottery.sol:UZHPancakeLottery",
						"label": "price",
						"offset": 0,
						"slot": "3",
						"type": "t_uint256"
					},
					{
						"astId": 16,
						"contract": "UZHPancakeLottery/UZHPancakeLottery.sol:UZHPancakeLottery",
						"label": "TotalLotteryPot",
						"offset": 0,
						"slot": "4",
						"type": "t_uint256"
					},
					{
						"astId": 19,
						"contract": "UZHPancakeLottery/UZHPancakeLottery.sol:UZHPancakeLottery",
						"label": "NrticketsBought",
						"offset": 0,
						"slot": "5",
						"type": "t_uint256"
					},
					{
						"astId": 22,
						"contract": "UZHPancakeLottery/UZHPancakeLottery.sol:UZHPancakeLottery",
						"label": "playersAddresses",
						"offset": 0,
						"slot": "6",
						"type": "t_array(t_address)dyn_storage"
					},
					{
						"astId": 25,
						"contract": "UZHPancakeLottery/UZHPancakeLottery.sol:UZHPancakeLottery",
						"label": "lotteryStarted",
						"offset": 0,
						"slot": "7",
						"type": "t_bool"
					}
				],
				"types": {
					"t_address": {
						"encoding": "inplace",
						"label": "address",
						"numberOfBytes": "20"
					},
					"t_array(t_address)dyn_storage": {
						"base": "t_address",
						"encoding": "dynamic_array",
						"label": "address[]",
						"numberOfBytes": "32"
					},
					"t_array(t_uint256)dyn_storage": {
						"base": "t_uint256",
						"encoding": "dynamic_array",
						"label": "uint256[]",
						"numberOfBytes": "32"
					},
					"t_bool": {
						"encoding": "inplace",
						"label": "bool",
						"numberOfBytes": "1"
					},
					"t_mapping(t_address,t_array(t_uint256)dyn_storage)": {
						"encoding": "mapping",
						"key": "t_address",
						"label": "mapping(address => uint256[])",
						"numberOfBytes": "32",
						"value": "t_array(t_uint256)dyn_storage"
					},
					"t_uint256": {
						"encoding": "inplace",
						"label": "uint256",
						"numberOfBytes": "32"
					}
				}
			},
			"userdoc": {
				"kind": "user",
				"methods": {},
				"version": 1
			}
		}
	}
}