{
	"UZHPancakeLottery.sol": {
		"UZHPancakeLottery": {
			"abi": [
				{
					"inputs": [],
					"stateMutability": "nonpayable",
					"type": "constructor"
				},
				{
					"inputs": [],
					"name": "BeginLottery",
					"outputs": [],
					"stateMutability": "nonpayable",
					"type": "function"
				},
				{
					"inputs": [],
					"name": "EndLottery",
					"outputs": [],
					"stateMutability": "nonpayable",
					"type": "function"
				},
				{
					"inputs": [],
					"name": "Lotterystatus",
					"outputs": [
						{
							"internalType": "bool",
							"name": "",
							"type": "bool"
						}
					],
					"stateMutability": "view",
					"type": "function"
				},
				{
					"inputs": [],
					"name": "NrOfticketsBought",
					"outputs": [
						{
							"internalType": "uint256",
							"name": "",
							"type": "uint256"
						}
					],
					"stateMutability": "view",
					"type": "function"
				},
				{
					"inputs": [],
					"name": "OwnerAddress",
					"outputs": [
						{
							"internalType": "address",
							"name": "",
							"type": "address"
						}
					],
					"stateMutability": "view",
					"type": "function"
				},
				{
					"inputs": [],
					"name": "Pull",
					"outputs": [],
					"stateMutability": "nonpayable",
					"type": "function"
				},
				{
					"inputs": [
						{
							"internalType": "uint256[]",
							"name": "ticketNumbers",
							"type": "uint256[]"
						}
					],
					"name": "buyTicket",
					"outputs": [],
					"stateMutability": "payable",
					"type": "function"
				},
				{
					"inputs": [
						{
							"internalType": "uint256",
							"name": "_price",
							"type": "uint256"
						}
					],
					"name": "changeTicketPrice",
					"outputs": [],
					"stateMutability": "nonpayable",
					"type": "function"
				},
				{
					"inputs": [],
					"name": "getMyTicketNumbers",
					"outputs": [
						{
							"internalType": "uint256[]",
							"name": "",
							"type": "uint256[]"
						}
					],
					"stateMutability": "view",
					"type": "function"
				},
				{
					"inputs": [],
					"name": "getTicketPrice",
					"outputs": [
						{
							"internalType": "uint256",
							"name": "",
							"type": "uint256"
						}
					],
					"stateMutability": "view",
					"type": "function"
				},
				{
					"inputs": [],
					"name": "getTotalLotteryPot",
					"outputs": [
						{
							"internalType": "uint256",
							"name": "",
							"type": "uint256"
						}
					],
					"stateMutability": "view",
					"type": "function"
				},
				{
					"inputs": [],
					"name": "getWinningNumber",
					"outputs": [
						{
							"internalType": "uint256[]",
							"name": "",
							"type": "uint256[]"
						}
					],
					"stateMutability": "view",
					"type": "function"
				},
				{
					"inputs": [],
					"name": "lotteryStarted",
					"outputs": [
						{
							"internalType": "bool",
							"name": "",
							"type": "bool"
						}
					],
					"stateMutability": "view",
					"type": "function"
				},
				{
					"inputs": [
						{
							"internalType": "uint256",
							"name": "",
							"type": "uint256"
						}
					],
					"name": "playersAddresses",
					"outputs": [
						{
							"internalType": "address",
							"name": "",
							"type": "address"
						}
					],
					"stateMutability": "view",
					"type": "function"
				},
				{
					"inputs": [
						{
							"internalType": "uint256[]",
							"name": "_winningNumber",
							"type": "uint256[]"
						}
					],
					"name": "setWinningNumber",
					"outputs": [],
					"stateMutability": "nonpayable",
					"type": "function"
				}
			],
			"devdoc": {
				"kind": "dev",
				"methods": {},
				"version": 1
			},
			"evm": {
				"assembly": "    /* \"UZHPancakeLottery.sol\":256:9255  contract UZHPancakeLottery {\r... */\n  mstore(0x40, 0x80)\n    /* \"UZHPancakeLottery.sol\":620:627  5 ether */\n  0x4563918244f40000\n    /* \"UZHPancakeLottery.sol\":593:627  uint private ticketprice = 5 ether */\n  0x03\n  sstore\n    /* \"UZHPancakeLottery.sol\":786:787  0 */\n  0x00\n    /* \"UZHPancakeLottery.sol\":755:787  uint private NrticketsBought = 0 */\n  0x05\n  sstore\n    /* \"UZHPancakeLottery.sol\":975:980  false */\n  0x00\n    /* \"UZHPancakeLottery.sol\":946:980  bool public lotteryStarted = false */\n  0x07\n  exp(0x0100, 0x00)\n  dup2\n  sload\n  dup2\n  0xff\n  mul\n  not\n  and\n  swap1\n  dup4\n  iszero\n  iszero\n  mul\n  or\n  swap1\n  sstore\n  pop\n    /* \"UZHPancakeLottery.sol\":1066:1124  constructor() public {\r... */\n  callvalue\n  dup1\n  iszero\n  tag_1\n  jumpi\n  0x00\n  dup1\n  revert\ntag_1:\n  pop\n    /* \"UZHPancakeLottery.sol\":1106:1116  msg.sender */\n  caller\n    /* \"UZHPancakeLottery.sol\":1098:1103  owner */\n  0x00\n  dup1\n    /* \"UZHPancakeLottery.sol\":1098:1116  owner = msg.sender */\n  0x0100\n  exp\n  dup2\n  sload\n  dup2\n  0xffffffffffffffffffffffffffffffffffffffff\n  mul\n  not\n  and\n  swap1\n  dup4\n  0xffffffffffffffffffffffffffffffffffffffff\n  and\n  mul\n  or\n  swap1\n  sstore\n  pop\n    /* \"UZHPancakeLottery.sol\":256:9255  contract UZHPancakeLottery {\r... */\n  dataSize(sub_0)\n  dup1\n  dataOffset(sub_0)\n  0x00\n  codecopy\n  0x00\n  return\nstop\n\nsub_0: assembly {\n        /* \"UZHPancakeLottery.sol\":256:9255  contract UZHPancakeLottery {\r... */\n      mstore(0x40, 0x80)\n      jumpi(tag_1, lt(calldatasize, 0x04))\n      shr(0xe0, calldataload(0x00))\n      dup1\n      0x716cac96\n      gt\n      tag_17\n      jumpi\n      dup1\n      0x8b0b9ed4\n      gt\n      tag_18\n      jumpi\n      dup1\n      0x8b0b9ed4\n      eq\n      tag_13\n      jumpi\n      dup1\n      0xa1bb96a1\n      eq\n      tag_14\n      jumpi\n      dup1\n      0xa650fbab\n      eq\n      tag_15\n      jumpi\n      dup1\n      0xb04a3f1c\n      eq\n      tag_16\n      jumpi\n      jump(tag_1)\n    tag_18:\n      dup1\n      0x716cac96\n      eq\n      tag_9\n      jumpi\n      dup1\n      0x7f17b05d\n      eq\n      tag_10\n      jumpi\n      dup1\n      0x87bb7ae0\n      eq\n      tag_11\n      jumpi\n      dup1\n      0x8a4a29c3\n      eq\n      tag_12\n      jumpi\n      jump(tag_1)\n    tag_17:\n      dup1\n      0x472016da\n      gt\n      tag_19\n      jumpi\n      dup1\n      0x472016da\n      eq\n      tag_5\n      jumpi\n      dup1\n      0x4c75e3f1\n      eq\n      tag_6\n      jumpi\n      dup1\n      0x4efd7cca\n      eq\n      tag_7\n      jumpi\n      dup1\n      0x5a3811b9\n      eq\n      tag_8\n      jumpi\n      jump(tag_1)\n    tag_19:\n      dup1\n      0x30daec49\n      eq\n      tag_2\n      jumpi\n      dup1\n      0x36c1ec23\n      eq\n      tag_3\n      jumpi\n      dup1\n      0x4630a0ee\n      eq\n      tag_4\n      jumpi\n    tag_1:\n      0x00\n      dup1\n      revert\n        /* \"UZHPancakeLottery.sol\":8653:9250  function Pull() public onlyOwner {\r... */\n    tag_2:\n      callvalue\n      dup1\n      iszero\n      tag_20\n      jumpi\n      0x00\n      dup1\n      revert\n    tag_20:\n      pop\n      tag_21\n      tag_22\n      jump\t// in\n    tag_21:\n      stop\n        /* \"UZHPancakeLottery.sol\":2780:3431  function BeginLottery() public onlyOwner {\r... */\n    tag_3:\n      callvalue\n      dup1\n      iszero\n      tag_23\n      jumpi\n      0x00\n      dup1\n      revert\n    tag_23:\n      pop\n      tag_24\n      tag_25\n      jump\t// in\n    tag_24:\n      stop\n        /* \"UZHPancakeLottery.sol\":1382:1612  function changeTicketPrice(uint _price) public onlyOwner {\r... */\n    tag_4:\n      callvalue\n      dup1\n      iszero\n      tag_26\n      jumpi\n      0x00\n      dup1\n      revert\n    tag_26:\n      pop\n      tag_27\n      0x04\n      dup1\n      calldatasize\n      sub\n      dup2\n      add\n      swap1\n      tag_28\n      swap2\n      swap1\n      tag_29\n      jump\t// in\n    tag_28:\n      tag_30\n      jump\t// in\n    tag_27:\n      stop\n        /* \"UZHPancakeLottery.sol\":849:883  address [] public playersAddresses */\n    tag_5:\n      callvalue\n      dup1\n      iszero\n      tag_31\n      jumpi\n      0x00\n      dup1\n      revert\n    tag_31:\n      pop\n      tag_32\n      0x04\n      dup1\n      calldatasize\n      sub\n      dup2\n      add\n      swap1\n      tag_33\n      swap2\n      swap1\n      tag_29\n      jump\t// in\n    tag_33:\n      tag_34\n      jump\t// in\n    tag_32:\n      mload(0x40)\n      tag_35\n      swap2\n      swap1\n      tag_36\n      jump\t// in\n    tag_35:\n      mload(0x40)\n      dup1\n      swap2\n      sub\n      swap1\n      return\n        /* \"UZHPancakeLottery.sol\":2623:2715  function Lotterystatus() public view returns (bool) {\r... */\n    tag_6:\n      callvalue\n      dup1\n      iszero\n      tag_37\n      jumpi\n      0x00\n      dup1\n      revert\n    tag_37:\n      pop\n      tag_38\n      tag_39\n      jump\t// in\n    tag_38:\n      mload(0x40)\n      tag_40\n      swap2\n      swap1\n      tag_41\n      jump\t// in\n    tag_40:\n      mload(0x40)\n      dup1\n      swap2\n      sub\n      swap1\n      return\n        /* \"UZHPancakeLottery.sol\":3510:3868  function setWinningNumber(uint[] memory _winningNumber) public onlyOwner {\r... */\n    tag_7:\n      callvalue\n      dup1\n      iszero\n      tag_42\n      jumpi\n      0x00\n      dup1\n      revert\n    tag_42:\n      pop\n      tag_43\n      0x04\n      dup1\n      calldatasize\n      sub\n      dup2\n      add\n      swap1\n      tag_44\n      swap2\n      swap1\n      tag_45\n      jump\t// in\n    tag_44:\n      tag_46\n      jump\t// in\n    tag_43:\n      stop\n        /* \"UZHPancakeLottery.sol\":946:980  bool public lotteryStarted = false */\n    tag_8:\n      callvalue\n      dup1\n      iszero\n      tag_47\n      jumpi\n      0x00\n      dup1\n      revert\n    tag_47:\n      pop\n      tag_48\n      tag_49\n      jump\t// in\n    tag_48:\n      mload(0x40)\n      tag_50\n      swap2\n      swap1\n      tag_41\n      jump\t// in\n    tag_50:\n      mload(0x40)\n      dup1\n      swap2\n      sub\n      swap1\n      return\n        /* \"UZHPancakeLottery.sol\":4241:5505  function buyTicket(uint[] memory ticketNumbers) public payable {\r... */\n    tag_9:\n      tag_51\n      0x04\n      dup1\n      calldatasize\n      sub\n      dup2\n      add\n      swap1\n      tag_52\n      swap2\n      swap1\n      tag_45\n      jump\t// in\n    tag_52:\n      tag_53\n      jump\t// in\n    tag_51:\n      stop\n        /* \"UZHPancakeLottery.sol\":2430:2515  function OwnerAddress() public view returns (address) {\r... */\n    tag_10:\n      callvalue\n      dup1\n      iszero\n      tag_54\n      jumpi\n      0x00\n      dup1\n      revert\n    tag_54:\n      pop\n      tag_55\n      tag_56\n      jump\t// in\n    tag_55:\n      mload(0x40)\n      tag_57\n      swap2\n      swap1\n      tag_36\n      jump\t// in\n    tag_57:\n      mload(0x40)\n      dup1\n      swap2\n      sub\n      swap1\n      return\n        /* \"UZHPancakeLottery.sol\":1673:1893  function getTicketPrice() public view returns (uint) {\r... */\n    tag_11:\n      callvalue\n      dup1\n      iszero\n      tag_58\n      jumpi\n      0x00\n      dup1\n      revert\n    tag_58:\n      pop\n      tag_59\n      tag_60\n      jump\t// in\n    tag_59:\n      mload(0x40)\n      tag_61\n      swap2\n      swap1\n      tag_62\n      jump\t// in\n    tag_61:\n      mload(0x40)\n      dup1\n      swap2\n      sub\n      swap1\n      return\n        /* \"UZHPancakeLottery.sol\":1973:2201  function getTotalLotteryPot() public view returns (uint) {\r... */\n    tag_12:\n      callvalue\n      dup1\n      iszero\n      tag_63\n      jumpi\n      0x00\n      dup1\n      revert\n    tag_63:\n      pop\n      tag_64\n      tag_65\n      jump\t// in\n    tag_64:\n      mload(0x40)\n      tag_66\n      swap2\n      swap1\n      tag_62\n      jump\t// in\n    tag_66:\n      mload(0x40)\n      dup1\n      swap2\n      sub\n      swap1\n      return\n        /* \"UZHPancakeLottery.sol\":3967:4200  function getWinningNumber() public view onlyOwner returns (uint[] memory) {\r... */\n    tag_13:\n      callvalue\n      dup1\n      iszero\n      tag_67\n      jumpi\n      0x00\n      dup1\n      revert\n    tag_67:\n      pop\n      tag_68\n      tag_69\n      jump\t// in\n    tag_68:\n      mload(0x40)\n      tag_70\n      swap2\n      swap1\n      tag_71\n      jump\t// in\n    tag_70:\n      mload(0x40)\n      dup1\n      swap2\n      sub\n      swap1\n      return\n        /* \"UZHPancakeLottery.sol\":2273:2370  function NrOfticketsBought() public view returns (uint) {\r... */\n    tag_14:\n      callvalue\n      dup1\n      iszero\n      tag_72\n      jumpi\n      0x00\n      dup1\n      revert\n    tag_72:\n      pop\n      tag_73\n      tag_74\n      jump\t// in\n    tag_73:\n      mload(0x40)\n      tag_75\n      swap2\n      swap1\n      tag_62\n      jump\t// in\n    tag_75:\n      mload(0x40)\n      dup1\n      swap2\n      sub\n      swap1\n      return\n        /* \"UZHPancakeLottery.sol\":5573:5691  function getMyTicketNumbers() public view returns (uint[] memory) {\r... */\n    tag_15:\n      callvalue\n      dup1\n      iszero\n      tag_76\n      jumpi\n      0x00\n      dup1\n      revert\n    tag_76:\n      pop\n      tag_77\n      tag_78\n      jump\t// in\n    tag_77:\n      mload(0x40)\n      tag_79\n      swap2\n      swap1\n      tag_71\n      jump\t// in\n    tag_79:\n      mload(0x40)\n      dup1\n      swap2\n      sub\n      swap1\n      return\n        /* \"UZHPancakeLottery.sol\":5740:8578  function EndLottery() public onlyOwner{\r... */\n    tag_16:\n      callvalue\n      dup1\n      iszero\n      tag_80\n      jumpi\n      0x00\n      dup1\n      revert\n    tag_80:\n      pop\n      tag_81\n      tag_82\n      jump\t// in\n    tag_81:\n      stop\n        /* \"UZHPancakeLottery.sol\":8653:9250  function Pull() public onlyOwner {\r... */\n    tag_22:\n        /* \"UZHPancakeLottery.sol\":1254:1259  owner */\n      0x00\n      dup1\n      sload\n      swap1\n      0x0100\n      exp\n      swap1\n      div\n      0xffffffffffffffffffffffffffffffffffffffff\n      and\n        /* \"UZHPancakeLottery.sol\":1240:1259  msg.sender == owner */\n      0xffffffffffffffffffffffffffffffffffffffff\n      and\n        /* \"UZHPancakeLottery.sol\":1240:1250  msg.sender */\n      caller\n        /* \"UZHPancakeLottery.sol\":1240:1259  msg.sender == owner */\n      0xffffffffffffffffffffffffffffffffffffffff\n      and\n      eq\n        /* \"UZHPancakeLottery.sol\":1232:1302  require(msg.sender == owner, \"Only the owner can perform this action\") */\n      tag_84\n      jumpi\n      mload(0x40)\n      0x08c379a000000000000000000000000000000000000000000000000000000000\n      dup2\n      mstore\n      0x04\n      add\n      tag_85\n      swap1\n      tag_86\n      jump\t// in\n    tag_85:\n      mload(0x40)\n      dup1\n      swap2\n      sub\n      swap1\n      revert\n    tag_84:\n        /* \"UZHPancakeLottery.sol\":8780:8785  false */\n      0x00\n        /* \"UZHPancakeLottery.sol\":8762:8785  lotteryStarted == false */\n      iszero\n      iszero\n        /* \"UZHPancakeLottery.sol\":8762:8776  lotteryStarted */\n      0x07\n      0x00\n      swap1\n      sload\n      swap1\n      0x0100\n      exp\n      swap1\n      div\n      0xff\n      and\n        /* \"UZHPancakeLottery.sol\":8762:8785  lotteryStarted == false */\n      iszero\n      iszero\n      eq\n        /* \"UZHPancakeLottery.sol\":8754:8810  require(lotteryStarted == false, \"A lottery is running\") */\n      tag_88\n      jumpi\n      mload(0x40)\n      0x08c379a000000000000000000000000000000000000000000000000000000000\n      dup2\n      mstore\n      0x04\n      add\n      tag_89\n      swap1\n      tag_90\n      jump\t// in\n    tag_89:\n      mload(0x40)\n      dup1\n      swap2\n      sub\n      swap1\n      revert\n    tag_88:\n        /* \"UZHPancakeLottery.sol\":8883:8911  address payable ownerpayable */\n      0x00\n        /* \"UZHPancakeLottery.sol\":8922:8927  owner */\n      dup1\n      0x00\n      swap1\n      sload\n      swap1\n      0x0100\n      exp\n      swap1\n      div\n      0xffffffffffffffffffffffffffffffffffffffff\n      and\n        /* \"UZHPancakeLottery.sol\":8883:8928  address payable ownerpayable = payable(owner) */\n      swap1\n      pop\n        /* \"UZHPancakeLottery.sol\":9032:9033  0 */\n      0x00\n        /* \"UZHPancakeLottery.sol\":9014:9029  TotalLotteryPot */\n      sload(0x04)\n        /* \"UZHPancakeLottery.sol\":9014:9033  TotalLotteryPot > 0 */\n      gt\n        /* \"UZHPancakeLottery.sol\":9006:9058  require(TotalLotteryPot > 0, \"No Ether to pull out\") */\n      tag_91\n      jumpi\n      mload(0x40)\n      0x08c379a000000000000000000000000000000000000000000000000000000000\n      dup2\n      mstore\n      0x04\n      add\n      tag_92\n      swap1\n      tag_93\n      jump\t// in\n    tag_92:\n      mload(0x40)\n      dup1\n      swap2\n      sub\n      swap1\n      revert\n    tag_91:\n        /* \"UZHPancakeLottery.sol\":9127:9139  ownerpayable */\n      dup1\n        /* \"UZHPancakeLottery.sol\":9127:9148  ownerpayable.transfer */\n      0xffffffffffffffffffffffffffffffffffffffff\n      and\n        /* \"UZHPancakeLottery.sol\":9127:9165  ownerpayable.transfer(TotalLotteryPot) */\n      0x08fc\n        /* \"UZHPancakeLottery.sol\":9149:9164  TotalLotteryPot */\n      sload(0x04)\n        /* \"UZHPancakeLottery.sol\":9127:9165  ownerpayable.transfer(TotalLotteryPot) */\n      swap1\n      dup2\n      iszero\n      mul\n      swap1\n      mload(0x40)\n      0x00\n      mload(0x40)\n      dup1\n      dup4\n      sub\n      dup2\n      dup6\n      dup9\n      dup9\n      call\n      swap4\n      pop\n      pop\n      pop\n      pop\n      iszero\n      dup1\n      iszero\n      tag_95\n      jumpi\n      returndatasize\n      0x00\n      dup1\n      returndatacopy\n      revert(0x00, returndatasize)\n    tag_95:\n      pop\n        /* \"UZHPancakeLottery.sol\":9241:9242  0 */\n      0x00\n        /* \"UZHPancakeLottery.sol\":9223:9238  TotalLotteryPot */\n      0x04\n        /* \"UZHPancakeLottery.sol\":9223:9242  TotalLotteryPot = 0 */\n      dup2\n      swap1\n      sstore\n      pop\n        /* \"UZHPancakeLottery.sol\":8686:9250  {\r... */\n      pop\n        /* \"UZHPancakeLottery.sol\":8653:9250  function Pull() public onlyOwner {\r... */\n      jump\t// out\n        /* \"UZHPancakeLottery.sol\":2780:3431  function BeginLottery() public onlyOwner {\r... */\n    tag_25:\n        /* \"UZHPancakeLottery.sol\":1254:1259  owner */\n      0x00\n      dup1\n      sload\n      swap1\n      0x0100\n      exp\n      swap1\n      div\n      0xffffffffffffffffffffffffffffffffffffffff\n      and\n        /* \"UZHPancakeLottery.sol\":1240:1259  msg.sender == owner */\n      0xffffffffffffffffffffffffffffffffffffffff\n      and\n        /* \"UZHPancakeLottery.sol\":1240:1250  msg.sender */\n      caller\n        /* \"UZHPancakeLottery.sol\":1240:1259  msg.sender == owner */\n      0xffffffffffffffffffffffffffffffffffffffff\n      and\n      eq\n        /* \"UZHPancakeLottery.sol\":1232:1302  require(msg.sender == owner, \"Only the owner can perform this action\") */\n      tag_97\n      jumpi\n      mload(0x40)\n      0x08c379a000000000000000000000000000000000000000000000000000000000\n      dup2\n      mstore\n      0x04\n      add\n      tag_98\n      swap1\n      tag_86\n      jump\t// in\n    tag_98:\n      mload(0x40)\n      dup1\n      swap2\n      sub\n      swap1\n      revert\n    tag_97:\n        /* \"UZHPancakeLottery.sol\":2915:2920  false */\n      0x00\n        /* \"UZHPancakeLottery.sol\":2897:2920  lotteryStarted == false */\n      iszero\n      iszero\n        /* \"UZHPancakeLottery.sol\":2897:2911  lotteryStarted */\n      0x07\n      0x00\n      swap1\n      sload\n      swap1\n      0x0100\n      exp\n      swap1\n      div\n      0xff\n      and\n        /* \"UZHPancakeLottery.sol\":2897:2920  lotteryStarted == false */\n      iszero\n      iszero\n      eq\n        /* \"UZHPancakeLottery.sol\":2889:2945  require(lotteryStarted == false, \"A lottery is running\") */\n      tag_100\n      jumpi\n      mload(0x40)\n      0x08c379a000000000000000000000000000000000000000000000000000000000\n      dup2\n      mstore\n      0x04\n      add\n      tag_101\n      swap1\n      tag_90\n      jump\t// in\n    tag_101:\n      mload(0x40)\n      dup1\n      swap2\n      sub\n      swap1\n      revert\n    tag_100:\n        /* \"UZHPancakeLottery.sol\":2973:2977  true */\n      0x01\n        /* \"UZHPancakeLottery.sol\":2956:2970  lotteryStarted */\n      0x07\n      0x00\n        /* \"UZHPancakeLottery.sol\":2956:2977  lotteryStarted = true */\n      0x0100\n      exp\n      dup2\n      sload\n      dup2\n      0xff\n      mul\n      not\n      and\n      swap1\n      dup4\n      iszero\n      iszero\n      mul\n      or\n      swap1\n      sstore\n      pop\n        /* \"UZHPancakeLottery.sol\":3015:3016  6 */\n      0x06\n        /* \"UZHPancakeLottery.sol\":3004:3017  new uint[](6) */\n      0xffffffffffffffff\n      dup2\n      gt\n      iszero\n      tag_102\n      jumpi\n      tag_103\n      tag_104\n      jump\t// in\n    tag_103:\n    tag_102:\n      mload(0x40)\n      swap1\n      dup1\n      dup3\n      mstore\n      dup1\n      0x20\n      mul\n      0x20\n      add\n      dup3\n      add\n      0x40\n      mstore\n      dup1\n      iszero\n      tag_105\n      jumpi\n      dup2\n      0x20\n      add\n      0x20\n      dup3\n      mul\n      dup1\n      calldatasize\n      dup4\n      calldatacopy\n      dup1\n      dup3\n      add\n      swap2\n      pop\n      pop\n      swap1\n      pop\n    tag_105:\n      pop\n        /* \"UZHPancakeLottery.sol\":2988:3001  winningNumber */\n      0x01\n        /* \"UZHPancakeLottery.sol\":2988:3017  winningNumber = new uint[](6) */\n      swap1\n      dup1\n      mload\n      swap1\n      0x20\n      add\n      swap1\n      tag_106\n      swap3\n      swap2\n      swap1\n      tag_107\n      jump\t// in\n    tag_106:\n      pop\n        /* \"UZHPancakeLottery.sol\":3028:3040  uint counter */\n      0x00\n        /* \"UZHPancakeLottery.sol\":3133:3139  uint i */\n      dup1\n        /* \"UZHPancakeLottery.sol\":3128:3424  for (uint i = 0; i < 6; i++) {\r... */\n    tag_108:\n        /* \"UZHPancakeLottery.sol\":3149:3150  6 */\n      0x06\n        /* \"UZHPancakeLottery.sol\":3145:3146  i */\n      dup2\n        /* \"UZHPancakeLottery.sol\":3145:3150  i < 6 */\n      lt\n        /* \"UZHPancakeLottery.sol\":3128:3424  for (uint i = 0; i < 6; i++) {\r... */\n      iszero\n      tag_109\n      jumpi\n        /* \"UZHPancakeLottery.sol\":3172:3192  uint256 randomNumber */\n      0x00\n        /* \"UZHPancakeLottery.sol\":3272:3274  10 */\n      0x0a\n        /* \"UZHPancakeLottery.sol\":3230:3246  block.difficulty */\n      difficulty\n        /* \"UZHPancakeLottery.sol\":3248:3263  block.timestamp */\n      timestamp\n        /* \"UZHPancakeLottery.sol\":3265:3266  i */\n      dup5\n        /* \"UZHPancakeLottery.sol\":3213:3267  abi.encodePacked(block.difficulty, block.timestamp, i) */\n      add(0x20, mload(0x40))\n      tag_111\n      swap4\n      swap3\n      swap2\n      swap1\n      tag_112\n      jump\t// in\n    tag_111:\n      mload(0x40)\n      0x20\n      dup2\n      dup4\n      sub\n      sub\n      dup2\n      mstore\n      swap1\n      0x40\n      mstore\n        /* \"UZHPancakeLottery.sol\":3203:3268  keccak256(abi.encodePacked(block.difficulty, block.timestamp, i)) */\n      dup1\n      mload\n      swap1\n      0x20\n      add\n      keccak256\n        /* \"UZHPancakeLottery.sol\":3195:3269  uint256(keccak256(abi.encodePacked(block.difficulty, block.timestamp, i))) */\n      0x00\n      shr\n        /* \"UZHPancakeLottery.sol\":3195:3274  uint256(keccak256(abi.encodePacked(block.difficulty, block.timestamp, i))) % 10 */\n      tag_113\n      swap2\n      swap1\n      tag_114\n      jump\t// in\n    tag_113:\n        /* \"UZHPancakeLottery.sol\":3172:3274  uint256 randomNumber = uint256(keccak256(abi.encodePacked(block.difficulty, block.timestamp, i))) % 10 */\n      swap1\n      pop\n        /* \"UZHPancakeLottery.sol\":3309:3310  0 */\n      0x00\n        /* \"UZHPancakeLottery.sol\":3293:3305  randomNumber */\n      dup2\n        /* \"UZHPancakeLottery.sol\":3293:3310  randomNumber != 0 */\n      eq\n        /* \"UZHPancakeLottery.sol\":3289:3413  if (randomNumber != 0) {\r... */\n      tag_115\n      jumpi\n        /* \"UZHPancakeLottery.sol\":3356:3368  randomNumber */\n      dup1\n        /* \"UZHPancakeLottery.sol\":3331:3344  winningNumber */\n      0x01\n        /* \"UZHPancakeLottery.sol\":3345:3352  counter */\n      dup5\n        /* \"UZHPancakeLottery.sol\":3331:3353  winningNumber[counter] */\n      dup2\n      sload\n      dup2\n      lt\n      tag_116\n      jumpi\n      tag_117\n      tag_118\n      jump\t// in\n    tag_117:\n    tag_116:\n      swap1\n      0x00\n      mstore\n      keccak256(0x00, 0x20)\n      add\n        /* \"UZHPancakeLottery.sol\":3331:3368  winningNumber[counter] = randomNumber */\n      dup2\n      swap1\n      sstore\n      pop\n        /* \"UZHPancakeLottery.sol\":3388:3397  counter++ */\n      dup3\n      dup1\n      tag_120\n      swap1\n      tag_121\n      jump\t// in\n    tag_120:\n      swap4\n      pop\n      pop\n        /* \"UZHPancakeLottery.sol\":3289:3413  if (randomNumber != 0) {\r... */\n    tag_115:\n        /* \"UZHPancakeLottery.sol\":3157:3424  {\r... */\n      pop\n        /* \"UZHPancakeLottery.sol\":3152:3155  i++ */\n      dup1\n      dup1\n      tag_122\n      swap1\n      tag_121\n      jump\t// in\n    tag_122:\n      swap2\n      pop\n      pop\n        /* \"UZHPancakeLottery.sol\":3128:3424  for (uint i = 0; i < 6; i++) {\r... */\n      jump(tag_108)\n    tag_109:\n      pop\n        /* \"UZHPancakeLottery.sol\":2821:3431  {\r... */\n      pop\n        /* \"UZHPancakeLottery.sol\":2780:3431  function BeginLottery() public onlyOwner {\r... */\n      jump\t// out\n        /* \"UZHPancakeLottery.sol\":1382:1612  function changeTicketPrice(uint _price) public onlyOwner {\r... */\n    tag_30:\n        /* \"UZHPancakeLottery.sol\":1254:1259  owner */\n      0x00\n      dup1\n      sload\n      swap1\n      0x0100\n      exp\n      swap1\n      div\n      0xffffffffffffffffffffffffffffffffffffffff\n      and\n        /* \"UZHPancakeLottery.sol\":1240:1259  msg.sender == owner */\n      0xffffffffffffffffffffffffffffffffffffffff\n      and\n        /* \"UZHPancakeLottery.sol\":1240:1250  msg.sender */\n      caller\n        /* \"UZHPancakeLottery.sol\":1240:1259  msg.sender == owner */\n      0xffffffffffffffffffffffffffffffffffffffff\n      and\n      eq\n        /* \"UZHPancakeLottery.sol\":1232:1302  require(msg.sender == owner, \"Only the owner can perform this action\") */\n      tag_124\n      jumpi\n      mload(0x40)\n      0x08c379a000000000000000000000000000000000000000000000000000000000\n      dup2\n      mstore\n      0x04\n      add\n      tag_125\n      swap1\n      tag_86\n      jump\t// in\n    tag_125:\n      mload(0x40)\n      dup1\n      swap2\n      sub\n      swap1\n      revert\n    tag_124:\n        /* \"UZHPancakeLottery.sol\":1533:1538  false */\n      0x00\n        /* \"UZHPancakeLottery.sol\":1515:1538  lotteryStarted == false */\n      iszero\n      iszero\n        /* \"UZHPancakeLottery.sol\":1515:1529  lotteryStarted */\n      0x07\n      0x00\n      swap1\n      sload\n      swap1\n      0x0100\n      exp\n      swap1\n      div\n      0xff\n      and\n        /* \"UZHPancakeLottery.sol\":1515:1538  lotteryStarted == false */\n      iszero\n      iszero\n      eq\n        /* \"UZHPancakeLottery.sol\":1507:1563  require(lotteryStarted == false, \"A lottery is running\") */\n      tag_127\n      jumpi\n      mload(0x40)\n      0x08c379a000000000000000000000000000000000000000000000000000000000\n      dup2\n      mstore\n      0x04\n      add\n      tag_128\n      swap1\n      tag_90\n      jump\t// in\n    tag_128:\n      mload(0x40)\n      dup1\n      swap2\n      sub\n      swap1\n      revert\n    tag_127:\n        /* \"UZHPancakeLottery.sol\":1597:1604  1 ether */\n      0x0de0b6b3a7640000\n        /* \"UZHPancakeLottery.sol\":1588:1594  _price */\n      dup2\n        /* \"UZHPancakeLottery.sol\":1588:1604  _price * 1 ether */\n      tag_129\n      swap2\n      swap1\n      tag_130\n      jump\t// in\n    tag_129:\n        /* \"UZHPancakeLottery.sol\":1574:1585  ticketprice */\n      0x03\n        /* \"UZHPancakeLottery.sol\":1574:1604  ticketprice = _price * 1 ether */\n      dup2\n      swap1\n      sstore\n      pop\n        /* \"UZHPancakeLottery.sol\":1382:1612  function changeTicketPrice(uint _price) public onlyOwner {\r... */\n      pop\n      jump\t// out\n        /* \"UZHPancakeLottery.sol\":849:883  address [] public playersAddresses */\n    tag_34:\n      0x06\n      dup2\n      dup2\n      sload\n      dup2\n      lt\n      tag_131\n      jumpi\n      0x00\n      dup1\n      revert\n    tag_131:\n      swap1\n      0x00\n      mstore\n      keccak256(0x00, 0x20)\n      add\n      0x00\n      swap2\n      pop\n      sload\n      swap1\n      0x0100\n      exp\n      swap1\n      div\n      0xffffffffffffffffffffffffffffffffffffffff\n      and\n      dup2\n      jump\t// out\n        /* \"UZHPancakeLottery.sol\":2623:2715  function Lotterystatus() public view returns (bool) {\r... */\n    tag_39:\n        /* \"UZHPancakeLottery.sol\":2669:2673  bool */\n      0x00\n        /* \"UZHPancakeLottery.sol\":2693:2707  lotteryStarted */\n      0x07\n      0x00\n      swap1\n      sload\n      swap1\n      0x0100\n      exp\n      swap1\n      div\n      0xff\n      and\n        /* \"UZHPancakeLottery.sol\":2686:2707  return lotteryStarted */\n      swap1\n      pop\n        /* \"UZHPancakeLottery.sol\":2623:2715  function Lotterystatus() public view returns (bool) {\r... */\n      swap1\n      jump\t// out\n        /* \"UZHPancakeLottery.sol\":3510:3868  function setWinningNumber(uint[] memory _winningNumber) public onlyOwner {\r... */\n    tag_46:\n        /* \"UZHPancakeLottery.sol\":1254:1259  owner */\n      0x00\n      dup1\n      sload\n      swap1\n      0x0100\n      exp\n      swap1\n      div\n      0xffffffffffffffffffffffffffffffffffffffff\n      and\n        /* \"UZHPancakeLottery.sol\":1240:1259  msg.sender == owner */\n      0xffffffffffffffffffffffffffffffffffffffff\n      and\n        /* \"UZHPancakeLottery.sol\":1240:1250  msg.sender */\n      caller\n        /* \"UZHPancakeLottery.sol\":1240:1259  msg.sender == owner */\n      0xffffffffffffffffffffffffffffffffffffffff\n      and\n      eq\n        /* \"UZHPancakeLottery.sol\":1232:1302  require(msg.sender == owner, \"Only the owner can perform this action\") */\n      tag_135\n      jumpi\n      mload(0x40)\n      0x08c379a000000000000000000000000000000000000000000000000000000000\n      dup2\n      mstore\n      0x04\n      add\n      tag_136\n      swap1\n      tag_86\n      jump\t// in\n    tag_136:\n      mload(0x40)\n      dup1\n      swap2\n      sub\n      swap1\n      revert\n    tag_135:\n        /* \"UZHPancakeLottery.sol\":3603:3617  lotteryStarted */\n      0x07\n      0x00\n      swap1\n      sload\n      swap1\n      0x0100\n      exp\n      swap1\n      div\n      0xff\n      and\n        /* \"UZHPancakeLottery.sol\":3602:3617  !lotteryStarted */\n      iszero\n        /* \"UZHPancakeLottery.sol\":3594:3618  require(!lotteryStarted) */\n      tag_138\n      jumpi\n      0x00\n      dup1\n      revert\n    tag_138:\n        /* \"UZHPancakeLottery.sol\":3651:3656  owner */\n      0x00\n      dup1\n      sload\n      swap1\n      0x0100\n      exp\n      swap1\n      div\n      0xffffffffffffffffffffffffffffffffffffffff\n      and\n        /* \"UZHPancakeLottery.sol\":3637:3656  msg.sender == owner */\n      0xffffffffffffffffffffffffffffffffffffffff\n      and\n        /* \"UZHPancakeLottery.sol\":3637:3647  msg.sender */\n      caller\n        /* \"UZHPancakeLottery.sol\":3637:3656  msg.sender == owner */\n      0xffffffffffffffffffffffffffffffffffffffff\n      and\n      eq\n        /* \"UZHPancakeLottery.sol\":3629:3657  require(msg.sender == owner) */\n      tag_139\n      jumpi\n      0x00\n      dup1\n      revert\n    tag_139:\n        /* \"UZHPancakeLottery.sol\":3701:3702  6 */\n      0x06\n        /* \"UZHPancakeLottery.sol\":3676:3690  _winningNumber */\n      dup2\n        /* \"UZHPancakeLottery.sol\":3676:3697  _winningNumber.length */\n      mload\n        /* \"UZHPancakeLottery.sol\":3676:3702  _winningNumber.length == 6 */\n      eq\n        /* \"UZHPancakeLottery.sol\":3668:3703  require(_winningNumber.length == 6) */\n      tag_140\n      jumpi\n      0x00\n      dup1\n      revert\n    tag_140:\n        /* \"UZHPancakeLottery.sol\":3718:3724  uint i */\n      0x00\n        /* \"UZHPancakeLottery.sol\":3714:3820  for(uint i = 0; i < _winningNumber.length; i++) {\r... */\n    tag_141:\n        /* \"UZHPancakeLottery.sol\":3734:3748  _winningNumber */\n      dup2\n        /* \"UZHPancakeLottery.sol\":3734:3755  _winningNumber.length */\n      mload\n        /* \"UZHPancakeLottery.sol\":3730:3731  i */\n      dup2\n        /* \"UZHPancakeLottery.sol\":3730:3755  i < _winningNumber.length */\n      lt\n        /* \"UZHPancakeLottery.sol\":3714:3820  for(uint i = 0; i < _winningNumber.length; i++) {\r... */\n      iszero\n      tag_142\n      jumpi\n        /* \"UZHPancakeLottery.sol\":3806:3807  9 */\n      0x09\n        /* \"UZHPancakeLottery.sol\":3785:3799  _winningNumber */\n      dup3\n        /* \"UZHPancakeLottery.sol\":3800:3801  i */\n      dup3\n        /* \"UZHPancakeLottery.sol\":3785:3802  _winningNumber[i] */\n      dup2\n      mload\n      dup2\n      lt\n      tag_144\n      jumpi\n      tag_145\n      tag_118\n      jump\t// in\n    tag_145:\n    tag_144:\n      0x20\n      mul\n      0x20\n      add\n      add\n      mload\n        /* \"UZHPancakeLottery.sol\":3785:3807  _winningNumber[i] <= 9 */\n      gt\n      iszero\n        /* \"UZHPancakeLottery.sol\":3777:3808  require(_winningNumber[i] <= 9) */\n      tag_146\n      jumpi\n      0x00\n      dup1\n      revert\n    tag_146:\n        /* \"UZHPancakeLottery.sol\":3757:3760  i++ */\n      dup1\n      dup1\n      tag_147\n      swap1\n      tag_121\n      jump\t// in\n    tag_147:\n      swap2\n      pop\n      pop\n        /* \"UZHPancakeLottery.sol\":3714:3820  for(uint i = 0; i < _winningNumber.length; i++) {\r... */\n      jump(tag_141)\n    tag_142:\n      pop\n        /* \"UZHPancakeLottery.sol\":3846:3860  _winningNumber */\n      dup1\n        /* \"UZHPancakeLottery.sol\":3830:3843  winningNumber */\n      0x01\n        /* \"UZHPancakeLottery.sol\":3830:3860  winningNumber = _winningNumber */\n      swap1\n      dup1\n      mload\n      swap1\n      0x20\n      add\n      swap1\n      tag_148\n      swap3\n      swap2\n      swap1\n      tag_107\n      jump\t// in\n    tag_148:\n      pop\n        /* \"UZHPancakeLottery.sol\":3510:3868  function setWinningNumber(uint[] memory _winningNumber) public onlyOwner {\r... */\n      pop\n      jump\t// out\n        /* \"UZHPancakeLottery.sol\":946:980  bool public lotteryStarted = false */\n    tag_49:\n      0x07\n      0x00\n      swap1\n      sload\n      swap1\n      0x0100\n      exp\n      swap1\n      div\n      0xff\n      and\n      dup2\n      jump\t// out\n        /* \"UZHPancakeLottery.sol\":4241:5505  function buyTicket(uint[] memory ticketNumbers) public payable {\r... */\n    tag_53:\n        /* \"UZHPancakeLottery.sol\":4394:4398  true */\n      0x01\n        /* \"UZHPancakeLottery.sol\":4376:4398  lotteryStarted == true */\n      iszero\n      iszero\n        /* \"UZHPancakeLottery.sol\":4376:4390  lotteryStarted */\n      0x07\n      0x00\n      swap1\n      sload\n      swap1\n      0x0100\n      exp\n      swap1\n      div\n      0xff\n      and\n        /* \"UZHPancakeLottery.sol\":4376:4398  lotteryStarted == true */\n      iszero\n      iszero\n      eq\n        /* \"UZHPancakeLottery.sol\":4368:4424  require(lotteryStarted == true, \"No lottery is running\") */\n      tag_150\n      jumpi\n      mload(0x40)\n      0x08c379a000000000000000000000000000000000000000000000000000000000\n      dup2\n      mstore\n      0x04\n      add\n      tag_151\n      swap1\n      tag_152\n      jump\t// in\n    tag_151:\n      mload(0x40)\n      dup1\n      swap2\n      sub\n      swap1\n      revert\n    tag_150:\n        /* \"UZHPancakeLottery.sol\":4543:4554  ticketprice */\n      sload(0x03)\n        /* \"UZHPancakeLottery.sol\":4530:4539  msg.value */\n      callvalue\n        /* \"UZHPancakeLottery.sol\":4530:4554  msg.value == ticketprice */\n      eq\n        /* \"UZHPancakeLottery.sol\":4522:4571  require(msg.value == ticketprice, \"Wrong amount\") */\n      tag_153\n      jumpi\n      mload(0x40)\n      0x08c379a000000000000000000000000000000000000000000000000000000000\n      dup2\n      mstore\n      0x04\n      add\n      tag_154\n      swap1\n      tag_155\n      jump\t// in\n    tag_154:\n      mload(0x40)\n      dup1\n      swap2\n      sub\n      swap1\n      revert\n    tag_153:\n        /* \"UZHPancakeLottery.sol\":4673:4674  6 */\n      0x06\n        /* \"UZHPancakeLottery.sol\":4649:4662  ticketNumbers */\n      dup2\n        /* \"UZHPancakeLottery.sol\":4649:4669  ticketNumbers.length */\n      mload\n        /* \"UZHPancakeLottery.sol\":4649:4674  ticketNumbers.length == 6 */\n      eq\n        /* \"UZHPancakeLottery.sol\":4641:4702  require(ticketNumbers.length == 6, \"Wrong number of numbers\") */\n      tag_156\n      jumpi\n      mload(0x40)\n      0x08c379a000000000000000000000000000000000000000000000000000000000\n      dup2\n      mstore\n      0x04\n      add\n      tag_157\n      swap1\n      tag_158\n      jump\t// in\n    tag_157:\n      mload(0x40)\n      dup1\n      swap2\n      sub\n      swap1\n      revert\n    tag_156:\n        /* \"UZHPancakeLottery.sol\":4786:4792  uint i */\n      0x00\n        /* \"UZHPancakeLottery.sol\":4781:4927  for (uint i = 0; i < ticketNumbers.length; i++) {\r... */\n    tag_159:\n        /* \"UZHPancakeLottery.sol\":4802:4815  ticketNumbers */\n      dup2\n        /* \"UZHPancakeLottery.sol\":4802:4822  ticketNumbers.length */\n      mload\n        /* \"UZHPancakeLottery.sol\":4798:4799  i */\n      dup2\n        /* \"UZHPancakeLottery.sol\":4798:4822  i < ticketNumbers.length */\n      lt\n        /* \"UZHPancakeLottery.sol\":4781:4927  for (uint i = 0; i < ticketNumbers.length; i++) {\r... */\n      iszero\n      tag_160\n      jumpi\n        /* \"UZHPancakeLottery.sol\":4871:4873  10 */\n      0x0a\n        /* \"UZHPancakeLottery.sol\":4852:4865  ticketNumbers */\n      dup3\n        /* \"UZHPancakeLottery.sol\":4866:4867  i */\n      dup3\n        /* \"UZHPancakeLottery.sol\":4852:4868  ticketNumbers[i] */\n      dup2\n      mload\n      dup2\n      lt\n      tag_162\n      jumpi\n      tag_163\n      tag_118\n      jump\t// in\n    tag_163:\n    tag_162:\n      0x20\n      mul\n      0x20\n      add\n      add\n      mload\n        /* \"UZHPancakeLottery.sol\":4852:4873  ticketNumbers[i] < 10 */\n      lt\n        /* \"UZHPancakeLottery.sol\":4852:4898  ticketNumbers[i] < 10 && ticketNumbers[i] >= 0 */\n      dup1\n      iszero\n      tag_164\n      jumpi\n      pop\n        /* \"UZHPancakeLottery.sol\":4897:4898  0 */\n      0x00\n        /* \"UZHPancakeLottery.sol\":4877:4890  ticketNumbers */\n      dup3\n        /* \"UZHPancakeLottery.sol\":4891:4892  i */\n      dup3\n        /* \"UZHPancakeLottery.sol\":4877:4893  ticketNumbers[i] */\n      dup2\n      mload\n      dup2\n      lt\n      tag_165\n      jumpi\n      tag_166\n      tag_118\n      jump\t// in\n    tag_166:\n    tag_165:\n      0x20\n      mul\n      0x20\n      add\n      add\n      mload\n        /* \"UZHPancakeLottery.sol\":4877:4898  ticketNumbers[i] >= 0 */\n      lt\n      iszero\n        /* \"UZHPancakeLottery.sol\":4852:4898  ticketNumbers[i] < 10 && ticketNumbers[i] >= 0 */\n    tag_164:\n        /* \"UZHPancakeLottery.sol\":4844:4915  require(ticketNumbers[i] < 10 && ticketNumbers[i] >= 0, \"Wrong number\") */\n      tag_167\n      jumpi\n      mload(0x40)\n      0x08c379a000000000000000000000000000000000000000000000000000000000\n      dup2\n      mstore\n      0x04\n      add\n      tag_168\n      swap1\n      tag_169\n      jump\t// in\n    tag_168:\n      mload(0x40)\n      dup1\n      swap2\n      sub\n      swap1\n      revert\n    tag_167:\n        /* \"UZHPancakeLottery.sol\":4824:4827  i++ */\n      dup1\n      dup1\n      tag_170\n      swap1\n      tag_121\n      jump\t// in\n    tag_170:\n      swap2\n      pop\n      pop\n        /* \"UZHPancakeLottery.sol\":4781:4927  for (uint i = 0; i < ticketNumbers.length; i++) {\r... */\n      jump(tag_159)\n    tag_160:\n      pop\n        /* \"UZHPancakeLottery.sol\":5054:5055  0 */\n      0x00\n        /* \"UZHPancakeLottery.sol\":5017:5031  playersTickets */\n      0x02\n        /* \"UZHPancakeLottery.sol\":5017:5043  playersTickets[msg.sender] */\n      0x00\n        /* \"UZHPancakeLottery.sol\":5032:5042  msg.sender */\n      caller\n        /* \"UZHPancakeLottery.sol\":5017:5043  playersTickets[msg.sender] */\n      0xffffffffffffffffffffffffffffffffffffffff\n      and\n      0xffffffffffffffffffffffffffffffffffffffff\n      and\n      dup2\n      mstore\n      0x20\n      add\n      swap1\n      dup2\n      mstore\n      0x20\n      add\n      0x00\n      keccak256\n        /* \"UZHPancakeLottery.sol\":5017:5050  playersTickets[msg.sender].length */\n      dup1\n      sload\n      swap1\n      pop\n        /* \"UZHPancakeLottery.sol\":5017:5055  playersTickets[msg.sender].length == 0 */\n      eq\n        /* \"UZHPancakeLottery.sol\":5009:5092  require(playersTickets[msg.sender].length == 0, \"You have already bought a ticket\") */\n      tag_171\n      jumpi\n      mload(0x40)\n      0x08c379a000000000000000000000000000000000000000000000000000000000\n      dup2\n      mstore\n      0x04\n      add\n      tag_172\n      swap1\n      tag_173\n      jump\t// in\n    tag_172:\n      mload(0x40)\n      dup1\n      swap2\n      sub\n      swap1\n      revert\n    tag_171:\n        /* \"UZHPancakeLottery.sol\":5197:5210  ticketNumbers */\n      dup1\n        /* \"UZHPancakeLottery.sol\":5168:5182  playersTickets */\n      0x02\n        /* \"UZHPancakeLottery.sol\":5168:5194  playersTickets[msg.sender] */\n      0x00\n        /* \"UZHPancakeLottery.sol\":5183:5193  msg.sender */\n      caller\n        /* \"UZHPancakeLottery.sol\":5168:5194  playersTickets[msg.sender] */\n      0xffffffffffffffffffffffffffffffffffffffff\n      and\n      0xffffffffffffffffffffffffffffffffffffffff\n      and\n      dup2\n      mstore\n      0x20\n      add\n      swap1\n      dup2\n      mstore\n      0x20\n      add\n      0x00\n      keccak256\n        /* \"UZHPancakeLottery.sol\":5168:5210  playersTickets[msg.sender] = ticketNumbers */\n      swap1\n      dup1\n      mload\n      swap1\n      0x20\n      add\n      swap1\n      tag_174\n      swap3\n      swap2\n      swap1\n      tag_107\n      jump\t// in\n    tag_174:\n      pop\n        /* \"UZHPancakeLottery.sol\":5291:5307  playersAddresses */\n      0x06\n        /* \"UZHPancakeLottery.sol\":5313:5323  msg.sender */\n      caller\n        /* \"UZHPancakeLottery.sol\":5291:5324  playersAddresses.push(msg.sender) */\n      swap1\n      dup1\n      0x01\n      dup2\n      sload\n      add\n      dup1\n      dup3\n      sstore\n      dup1\n      swap2\n      pop\n      pop\n      0x01\n      swap1\n      sub\n      swap1\n      0x00\n      mstore\n      keccak256(0x00, 0x20)\n      add\n      0x00\n      swap1\n      swap2\n      swap1\n      swap2\n      swap1\n      swap2\n      0x0100\n      exp\n      dup2\n      sload\n      dup2\n      0xffffffffffffffffffffffffffffffffffffffff\n      mul\n      not\n      and\n      swap1\n      dup4\n      0xffffffffffffffffffffffffffffffffffffffff\n      and\n      mul\n      or\n      swap1\n      sstore\n      pop\n        /* \"UZHPancakeLottery.sol\":5412:5421  msg.value */\n      callvalue\n        /* \"UZHPancakeLottery.sol\":5393:5408  TotalLotteryPot */\n      0x04\n      0x00\n        /* \"UZHPancakeLottery.sol\":5393:5421  TotalLotteryPot += msg.value */\n      dup3\n      dup3\n      sload\n      tag_176\n      swap2\n      swap1\n      tag_177\n      jump\t// in\n    tag_176:\n      swap3\n      pop\n      pop\n      dup2\n      swap1\n      sstore\n      pop\n        /* \"UZHPancakeLottery.sol\":5496:5497  1 */\n      0x01\n        /* \"UZHPancakeLottery.sol\":5477:5492  NrticketsBought */\n      0x05\n      0x00\n        /* \"UZHPancakeLottery.sol\":5477:5497  NrticketsBought += 1 */\n      dup3\n      dup3\n      sload\n      tag_178\n      swap2\n      swap1\n      tag_177\n      jump\t// in\n    tag_178:\n      swap3\n      pop\n      pop\n      dup2\n      swap1\n      sstore\n      pop\n        /* \"UZHPancakeLottery.sol\":4241:5505  function buyTicket(uint[] memory ticketNumbers) public payable {\r... */\n      pop\n      jump\t// out\n        /* \"UZHPancakeLottery.sol\":2430:2515  function OwnerAddress() public view returns (address) {\r... */\n    tag_56:\n        /* \"UZHPancakeLottery.sol\":2475:2482  address */\n      0x00\n        /* \"UZHPancakeLottery.sol\":2502:2507  owner */\n      dup1\n      0x00\n      swap1\n      sload\n      swap1\n      0x0100\n      exp\n      swap1\n      div\n      0xffffffffffffffffffffffffffffffffffffffff\n      and\n        /* \"UZHPancakeLottery.sol\":2495:2507  return owner */\n      swap1\n      pop\n        /* \"UZHPancakeLottery.sol\":2430:2515  function OwnerAddress() public view returns (address) {\r... */\n      swap1\n      jump\t// out\n        /* \"UZHPancakeLottery.sol\":1673:1893  function getTicketPrice() public view returns (uint) {\r... */\n    tag_60:\n        /* \"UZHPancakeLottery.sol\":1720:1724  uint */\n      0x00\n        /* \"UZHPancakeLottery.sol\":1816:1820  true */\n      0x01\n        /* \"UZHPancakeLottery.sol\":1798:1820  lotteryStarted == true */\n      iszero\n      iszero\n        /* \"UZHPancakeLottery.sol\":1798:1812  lotteryStarted */\n      0x07\n      0x00\n      swap1\n      sload\n      swap1\n      0x0100\n      exp\n      swap1\n      div\n      0xff\n      and\n        /* \"UZHPancakeLottery.sol\":1798:1820  lotteryStarted == true */\n      iszero\n      iszero\n      eq\n        /* \"UZHPancakeLottery.sol\":1790:1846  require(lotteryStarted == true, \"No lottery is running\") */\n      tag_181\n      jumpi\n      mload(0x40)\n      0x08c379a000000000000000000000000000000000000000000000000000000000\n      dup2\n      mstore\n      0x04\n      add\n      tag_182\n      swap1\n      tag_152\n      jump\t// in\n    tag_182:\n      mload(0x40)\n      dup1\n      swap2\n      sub\n      swap1\n      revert\n    tag_181:\n        /* \"UZHPancakeLottery.sol\":1878:1885  1 ether */\n      0x0de0b6b3a7640000\n        /* \"UZHPancakeLottery.sol\":1864:1875  ticketprice */\n      sload(0x03)\n        /* \"UZHPancakeLottery.sol\":1864:1885  ticketprice / 1 ether */\n      tag_183\n      swap2\n      swap1\n      tag_184\n      jump\t// in\n    tag_183:\n        /* \"UZHPancakeLottery.sol\":1857:1885  return ticketprice / 1 ether */\n      swap1\n      pop\n        /* \"UZHPancakeLottery.sol\":1673:1893  function getTicketPrice() public view returns (uint) {\r... */\n      swap1\n      jump\t// out\n        /* \"UZHPancakeLottery.sol\":1973:2201  function getTotalLotteryPot() public view returns (uint) {\r... */\n    tag_65:\n        /* \"UZHPancakeLottery.sol\":2024:2028  uint */\n      0x00\n        /* \"UZHPancakeLottery.sol\":2120:2124  true */\n      0x01\n        /* \"UZHPancakeLottery.sol\":2102:2124  lotteryStarted == true */\n      iszero\n      iszero\n        /* \"UZHPancakeLottery.sol\":2102:2116  lotteryStarted */\n      0x07\n      0x00\n      swap1\n      sload\n      swap1\n      0x0100\n      exp\n      swap1\n      div\n      0xff\n      and\n        /* \"UZHPancakeLottery.sol\":2102:2124  lotteryStarted == true */\n      iszero\n      iszero\n      eq\n        /* \"UZHPancakeLottery.sol\":2094:2150  require(lotteryStarted == true, \"No lottery is running\") */\n      tag_186\n      jumpi\n      mload(0x40)\n      0x08c379a000000000000000000000000000000000000000000000000000000000\n      dup2\n      mstore\n      0x04\n      add\n      tag_187\n      swap1\n      tag_152\n      jump\t// in\n    tag_187:\n      mload(0x40)\n      dup1\n      swap2\n      sub\n      swap1\n      revert\n    tag_186:\n        /* \"UZHPancakeLottery.sol\":2186:2193  1 ether */\n      0x0de0b6b3a7640000\n        /* \"UZHPancakeLottery.sol\":2168:2183  TotalLotteryPot */\n      sload(0x04)\n        /* \"UZHPancakeLottery.sol\":2168:2193  TotalLotteryPot / 1 ether */\n      tag_188\n      swap2\n      swap1\n      tag_184\n      jump\t// in\n    tag_188:\n        /* \"UZHPancakeLottery.sol\":2161:2193  return TotalLotteryPot / 1 ether */\n      swap1\n      pop\n        /* \"UZHPancakeLottery.sol\":1973:2201  function getTotalLotteryPot() public view returns (uint) {\r... */\n      swap1\n      jump\t// out\n        /* \"UZHPancakeLottery.sol\":3967:4200  function getWinningNumber() public view onlyOwner returns (uint[] memory) {\r... */\n    tag_69:\n        /* \"UZHPancakeLottery.sol\":4026:4039  uint[] memory */\n      0x60\n        /* \"UZHPancakeLottery.sol\":1254:1259  owner */\n      0x00\n      dup1\n      sload\n      swap1\n      0x0100\n      exp\n      swap1\n      div\n      0xffffffffffffffffffffffffffffffffffffffff\n      and\n        /* \"UZHPancakeLottery.sol\":1240:1259  msg.sender == owner */\n      0xffffffffffffffffffffffffffffffffffffffff\n      and\n        /* \"UZHPancakeLottery.sol\":1240:1250  msg.sender */\n      caller\n        /* \"UZHPancakeLottery.sol\":1240:1259  msg.sender == owner */\n      0xffffffffffffffffffffffffffffffffffffffff\n      and\n      eq\n        /* \"UZHPancakeLottery.sol\":1232:1302  require(msg.sender == owner, \"Only the owner can perform this action\") */\n      tag_190\n      jumpi\n      mload(0x40)\n      0x08c379a000000000000000000000000000000000000000000000000000000000\n      dup2\n      mstore\n      0x04\n      add\n      tag_191\n      swap1\n      tag_86\n      jump\t// in\n    tag_191:\n      mload(0x40)\n      dup1\n      swap2\n      sub\n      swap1\n      revert\n    tag_190:\n        /* \"UZHPancakeLottery.sol\":4131:4135  true */\n      0x01\n        /* \"UZHPancakeLottery.sol\":4113:4135  lotteryStarted == true */\n      iszero\n      iszero\n        /* \"UZHPancakeLottery.sol\":4113:4127  lotteryStarted */\n      0x07\n      0x00\n      swap1\n      sload\n      swap1\n      0x0100\n      exp\n      swap1\n      div\n      0xff\n      and\n        /* \"UZHPancakeLottery.sol\":4113:4135  lotteryStarted == true */\n      iszero\n      iszero\n      eq\n        /* \"UZHPancakeLottery.sol\":4105:4161  require(lotteryStarted == true, \"No lottery is running\") */\n      tag_193\n      jumpi\n      mload(0x40)\n      0x08c379a000000000000000000000000000000000000000000000000000000000\n      dup2\n      mstore\n      0x04\n      add\n      tag_194\n      swap1\n      tag_152\n      jump\t// in\n    tag_194:\n      mload(0x40)\n      dup1\n      swap2\n      sub\n      swap1\n      revert\n    tag_193:\n        /* \"UZHPancakeLottery.sol\":4179:4192  winningNumber */\n      0x01\n        /* \"UZHPancakeLottery.sol\":4172:4192  return winningNumber */\n      dup1\n      sload\n      dup1\n      0x20\n      mul\n      0x20\n      add\n      mload(0x40)\n      swap1\n      dup2\n      add\n      0x40\n      mstore\n      dup1\n      swap3\n      swap2\n      swap1\n      dup2\n      dup2\n      mstore\n      0x20\n      add\n      dup3\n      dup1\n      sload\n      dup1\n      iszero\n      tag_195\n      jumpi\n      0x20\n      mul\n      dup3\n      add\n      swap2\n      swap1\n      0x00\n      mstore\n      keccak256(0x00, 0x20)\n      swap1\n    tag_196:\n      dup2\n      sload\n      dup2\n      mstore\n      0x20\n      add\n      swap1\n      0x01\n      add\n      swap1\n      dup1\n      dup4\n      gt\n      tag_196\n      jumpi\n    tag_195:\n      pop\n      pop\n      pop\n      pop\n      pop\n      swap1\n      pop\n        /* \"UZHPancakeLottery.sol\":3967:4200  function getWinningNumber() public view onlyOwner returns (uint[] memory) {\r... */\n      swap1\n      jump\t// out\n        /* \"UZHPancakeLottery.sol\":2273:2370  function NrOfticketsBought() public view returns (uint) {\r... */\n    tag_74:\n        /* \"UZHPancakeLottery.sol\":2323:2327  uint */\n      0x00\n        /* \"UZHPancakeLottery.sol\":2347:2362  NrticketsBought */\n      sload(0x05)\n        /* \"UZHPancakeLottery.sol\":2340:2362  return NrticketsBought */\n      swap1\n      pop\n        /* \"UZHPancakeLottery.sol\":2273:2370  function NrOfticketsBought() public view returns (uint) {\r... */\n      swap1\n      jump\t// out\n        /* \"UZHPancakeLottery.sol\":5573:5691  function getMyTicketNumbers() public view returns (uint[] memory) {\r... */\n    tag_78:\n        /* \"UZHPancakeLottery.sol\":5624:5637  uint[] memory */\n      0x60\n        /* \"UZHPancakeLottery.sol\":5657:5671  playersTickets */\n      0x02\n        /* \"UZHPancakeLottery.sol\":5657:5683  playersTickets[msg.sender] */\n      0x00\n        /* \"UZHPancakeLottery.sol\":5672:5682  msg.sender */\n      caller\n        /* \"UZHPancakeLottery.sol\":5657:5683  playersTickets[msg.sender] */\n      0xffffffffffffffffffffffffffffffffffffffff\n      and\n      0xffffffffffffffffffffffffffffffffffffffff\n      and\n      dup2\n      mstore\n      0x20\n      add\n      swap1\n      dup2\n      mstore\n      0x20\n      add\n      0x00\n      keccak256\n        /* \"UZHPancakeLottery.sol\":5650:5683  return playersTickets[msg.sender] */\n      dup1\n      sload\n      dup1\n      0x20\n      mul\n      0x20\n      add\n      mload(0x40)\n      swap1\n      dup2\n      add\n      0x40\n      mstore\n      dup1\n      swap3\n      swap2\n      swap1\n      dup2\n      dup2\n      mstore\n      0x20\n      add\n      dup3\n      dup1\n      sload\n      dup1\n      iszero\n      tag_199\n      jumpi\n      0x20\n      mul\n      dup3\n      add\n      swap2\n      swap1\n      0x00\n      mstore\n      keccak256(0x00, 0x20)\n      swap1\n    tag_200:\n      dup2\n      sload\n      dup2\n      mstore\n      0x20\n      add\n      swap1\n      0x01\n      add\n      swap1\n      dup1\n      dup4\n      gt\n      tag_200\n      jumpi\n    tag_199:\n      pop\n      pop\n      pop\n      pop\n      pop\n      swap1\n      pop\n        /* \"UZHPancakeLottery.sol\":5573:5691  function getMyTicketNumbers() public view returns (uint[] memory) {\r... */\n      swap1\n      jump\t// out\n        /* \"UZHPancakeLottery.sol\":5740:8578  function EndLottery() public onlyOwner{\r... */\n    tag_82:\n        /* \"UZHPancakeLottery.sol\":1254:1259  owner */\n      0x00\n      dup1\n      sload\n      swap1\n      0x0100\n      exp\n      swap1\n      div\n      0xffffffffffffffffffffffffffffffffffffffff\n      and\n        /* \"UZHPancakeLottery.sol\":1240:1259  msg.sender == owner */\n      0xffffffffffffffffffffffffffffffffffffffff\n      and\n        /* \"UZHPancakeLottery.sol\":1240:1250  msg.sender */\n      caller\n        /* \"UZHPancakeLottery.sol\":1240:1259  msg.sender == owner */\n      0xffffffffffffffffffffffffffffffffffffffff\n      and\n      eq\n        /* \"UZHPancakeLottery.sol\":1232:1302  require(msg.sender == owner, \"Only the owner can perform this action\") */\n      tag_202\n      jumpi\n      mload(0x40)\n      0x08c379a000000000000000000000000000000000000000000000000000000000\n      dup2\n      mstore\n      0x04\n      add\n      tag_203\n      swap1\n      tag_86\n      jump\t// in\n    tag_203:\n      mload(0x40)\n      dup1\n      swap2\n      sub\n      swap1\n      revert\n    tag_202:\n        /* \"UZHPancakeLottery.sol\":5868:5872  true */\n      0x01\n        /* \"UZHPancakeLottery.sol\":5850:5872  lotteryStarted == true */\n      iszero\n      iszero\n        /* \"UZHPancakeLottery.sol\":5850:5864  lotteryStarted */\n      0x07\n      0x00\n      swap1\n      sload\n      swap1\n      0x0100\n      exp\n      swap1\n      div\n      0xff\n      and\n        /* \"UZHPancakeLottery.sol\":5850:5872  lotteryStarted == true */\n      iszero\n      iszero\n      eq\n        /* \"UZHPancakeLottery.sol\":5842:5898  require(lotteryStarted == true, \"No lottery is running\") */\n      tag_205\n      jumpi\n      mload(0x40)\n      0x08c379a000000000000000000000000000000000000000000000000000000000\n      dup2\n      mstore\n      0x04\n      add\n      tag_206\n      swap1\n      tag_152\n      jump\t// in\n    tag_206:\n      mload(0x40)\n      dup1\n      swap2\n      sub\n      swap1\n      revert\n    tag_205:\n        /* \"UZHPancakeLottery.sol\":6000:6001  0 */\n      0x00\n        /* \"UZHPancakeLottery.sol\":5982:5997  NrticketsBought */\n      sload(0x05)\n        /* \"UZHPancakeLottery.sol\":5982:6001  NrticketsBought > 0 */\n      gt\n        /* \"UZHPancakeLottery.sol\":5974:6023  require(NrticketsBought > 0, \"No ticket was bou\") */\n      tag_207\n      jumpi\n      mload(0x40)\n      0x08c379a000000000000000000000000000000000000000000000000000000000\n      dup2\n      mstore\n      0x04\n      add\n      tag_208\n      swap1\n      tag_209\n      jump\t// in\n    tag_208:\n      mload(0x40)\n      dup1\n      swap2\n      sub\n      swap1\n      revert\n    tag_207:\n        /* \"UZHPancakeLottery.sol\":6097:6121  uint firstMatchedNumbers */\n      0x00\n        /* \"UZHPancakeLottery.sol\":6231:6246  uint percentage */\n      dup1\n        /* \"UZHPancakeLottery.sol\":6316:6327  uint reward */\n      0x00\n        /* \"UZHPancakeLottery.sol\":6391:6407  uint totalreward */\n      dup1\n        /* \"UZHPancakeLottery.sol\":6454:6483  address payable playeraddress */\n      0x00\n        /* \"UZHPancakeLottery.sol\":6553:6559  uint i */\n      dup1\n        /* \"UZHPancakeLottery.sol\":6562:6563  0 */\n      0x00\n        /* \"UZHPancakeLottery.sol\":6553:6563  uint i = 0 */\n      swap1\n      pop\n        /* \"UZHPancakeLottery.sol\":6548:8333  for (uint i = 0; i < playersAddresses.length; i++) {   \r... */\n    tag_210:\n        /* \"UZHPancakeLottery.sol\":6569:6585  playersAddresses */\n      0x06\n        /* \"UZHPancakeLottery.sol\":6569:6592  playersAddresses.length */\n      dup1\n      sload\n      swap1\n      pop\n        /* \"UZHPancakeLottery.sol\":6565:6566  i */\n      dup2\n        /* \"UZHPancakeLottery.sol\":6565:6592  i < playersAddresses.length */\n      lt\n        /* \"UZHPancakeLottery.sol\":6548:8333  for (uint i = 0; i < playersAddresses.length; i++) {   \r... */\n      iszero\n      tag_211\n      jumpi\n        /* \"UZHPancakeLottery.sol\":6691:6697  uint j */\n      0x00\n        /* \"UZHPancakeLottery.sol\":6686:7052  for (uint j = 0; j < winningNumber.length; j++) {\r... */\n    tag_213:\n        /* \"UZHPancakeLottery.sol\":6707:6720  winningNumber */\n      0x01\n        /* \"UZHPancakeLottery.sol\":6707:6727  winningNumber.length */\n      dup1\n      sload\n      swap1\n      pop\n        /* \"UZHPancakeLottery.sol\":6703:6704  j */\n      dup2\n        /* \"UZHPancakeLottery.sol\":6703:6727  j < winningNumber.length */\n      lt\n        /* \"UZHPancakeLottery.sol\":6686:7052  for (uint j = 0; j < winningNumber.length; j++) {\r... */\n      iszero\n      tag_214\n      jumpi\n        /* \"UZHPancakeLottery.sol\":6901:6914  winningNumber */\n      0x01\n        /* \"UZHPancakeLottery.sol\":6915:6916  j */\n      dup2\n        /* \"UZHPancakeLottery.sol\":6901:6917  winningNumber[j] */\n      dup2\n      sload\n      dup2\n      lt\n      tag_216\n      jumpi\n      tag_217\n      tag_118\n      jump\t// in\n    tag_217:\n    tag_216:\n      swap1\n      0x00\n      mstore\n      keccak256(0x00, 0x20)\n      add\n      sload\n        /* \"UZHPancakeLottery.sol\":6859:6873  playersTickets */\n      0x02\n        /* \"UZHPancakeLottery.sol\":6859:6894  playersTickets[playersAddresses[i]] */\n      0x00\n        /* \"UZHPancakeLottery.sol\":6874:6890  playersAddresses */\n      0x06\n        /* \"UZHPancakeLottery.sol\":6891:6892  i */\n      dup6\n        /* \"UZHPancakeLottery.sol\":6874:6893  playersAddresses[i] */\n      dup2\n      sload\n      dup2\n      lt\n      tag_219\n      jumpi\n      tag_220\n      tag_118\n      jump\t// in\n    tag_220:\n    tag_219:\n      swap1\n      0x00\n      mstore\n      keccak256(0x00, 0x20)\n      add\n      0x00\n      swap1\n      sload\n      swap1\n      0x0100\n      exp\n      swap1\n      div\n      0xffffffffffffffffffffffffffffffffffffffff\n      and\n        /* \"UZHPancakeLottery.sol\":6859:6894  playersTickets[playersAddresses[i]] */\n      0xffffffffffffffffffffffffffffffffffffffff\n      and\n      0xffffffffffffffffffffffffffffffffffffffff\n      and\n      dup2\n      mstore\n      0x20\n      add\n      swap1\n      dup2\n      mstore\n      0x20\n      add\n      0x00\n      keccak256\n        /* \"UZHPancakeLottery.sol\":6895:6896  j */\n      dup3\n        /* \"UZHPancakeLottery.sol\":6859:6897  playersTickets[playersAddresses[i]][j] */\n      dup2\n      sload\n      dup2\n      lt\n      tag_222\n      jumpi\n      tag_223\n      tag_118\n      jump\t// in\n    tag_223:\n    tag_222:\n      swap1\n      0x00\n      mstore\n      keccak256(0x00, 0x20)\n      add\n      sload\n        /* \"UZHPancakeLottery.sol\":6859:6917  playersTickets[playersAddresses[i]][j] == winningNumber[j] */\n      eq\n        /* \"UZHPancakeLottery.sol\":6855:7037  if (playersTickets[playersAddresses[i]][j] == winningNumber[j]) {\r... */\n      iszero\n      tag_225\n      jumpi\n        /* \"UZHPancakeLottery.sol\":6942:6963  firstMatchedNumbers++ */\n      dup7\n      dup1\n      tag_226\n      swap1\n      tag_121\n      jump\t// in\n    tag_226:\n      swap8\n      pop\n      pop\n        /* \"UZHPancakeLottery.sol\":6855:7037  if (playersTickets[playersAddresses[i]][j] == winningNumber[j]) {\r... */\n      jump(tag_227)\n    tag_225:\n        /* \"UZHPancakeLottery.sol\":7012:7017  break */\n      jump(tag_214)\n        /* \"UZHPancakeLottery.sol\":6855:7037  if (playersTickets[playersAddresses[i]][j] == winningNumber[j]) {\r... */\n    tag_227:\n        /* \"UZHPancakeLottery.sol\":6729:6732  j++ */\n      dup1\n      dup1\n      tag_228\n      swap1\n      tag_121\n      jump\t// in\n    tag_228:\n      swap2\n      pop\n      pop\n        /* \"UZHPancakeLottery.sol\":6686:7052  for (uint j = 0; j < winningNumber.length; j++) {\r... */\n      jump(tag_213)\n    tag_214:\n      pop\n        /* \"UZHPancakeLottery.sol\":7133:7147  playersTickets */\n      0x02\n        /* \"UZHPancakeLottery.sol\":7133:7168  playersTickets[playersAddresses[i]] */\n      0x00\n        /* \"UZHPancakeLottery.sol\":7148:7164  playersAddresses */\n      0x06\n        /* \"UZHPancakeLottery.sol\":7165:7166  i */\n      dup4\n        /* \"UZHPancakeLottery.sol\":7148:7167  playersAddresses[i] */\n      dup2\n      sload\n      dup2\n      lt\n      tag_229\n      jumpi\n      tag_230\n      tag_118\n      jump\t// in\n    tag_230:\n    tag_229:\n      swap1\n      0x00\n      mstore\n      keccak256(0x00, 0x20)\n      add\n      0x00\n      swap1\n      sload\n      swap1\n      0x0100\n      exp\n      swap1\n      div\n      0xffffffffffffffffffffffffffffffffffffffff\n      and\n        /* \"UZHPancakeLottery.sol\":7133:7168  playersTickets[playersAddresses[i]] */\n      0xffffffffffffffffffffffffffffffffffffffff\n      and\n      0xffffffffffffffffffffffffffffffffffffffff\n      and\n      dup2\n      mstore\n      0x20\n      add\n      swap1\n      dup2\n      mstore\n      0x20\n      add\n      0x00\n      keccak256\n      0x00\n        /* \"UZHPancakeLottery.sol\":7126:7168  delete playersTickets[playersAddresses[i]] */\n      tag_232\n      swap2\n      swap1\n      tag_233\n      jump\t// in\n    tag_232:\n        /* \"UZHPancakeLottery.sol\":7295:7296  1 */\n      0x01\n        /* \"UZHPancakeLottery.sol\":7272:7291  firstMatchedNumbers */\n      dup7\n        /* \"UZHPancakeLottery.sol\":7272:7296  firstMatchedNumbers == 1 */\n      eq\n        /* \"UZHPancakeLottery.sol\":7268:7775  if (firstMatchedNumbers == 1) {\r... */\n      iszero\n      tag_234\n      jumpi\n        /* \"UZHPancakeLottery.sol\":7330:7331  2 */\n      0x02\n        /* \"UZHPancakeLottery.sol\":7317:7331  percentage = 2 */\n      swap5\n      pop\n        /* \"UZHPancakeLottery.sol\":7268:7775  if (firstMatchedNumbers == 1) {\r... */\n      jump(tag_235)\n    tag_234:\n        /* \"UZHPancakeLottery.sol\":7380:7381  2 */\n      0x02\n        /* \"UZHPancakeLottery.sol\":7357:7376  firstMatchedNumbers */\n      dup7\n        /* \"UZHPancakeLottery.sol\":7357:7381  firstMatchedNumbers == 2 */\n      eq\n        /* \"UZHPancakeLottery.sol\":7353:7775  if (firstMatchedNumbers == 2) {\r... */\n      iszero\n      tag_236\n      jumpi\n        /* \"UZHPancakeLottery.sol\":7415:7416  3 */\n      0x03\n        /* \"UZHPancakeLottery.sol\":7402:7416  percentage = 3 */\n      swap5\n      pop\n        /* \"UZHPancakeLottery.sol\":7353:7775  if (firstMatchedNumbers == 2) {\r... */\n      jump(tag_237)\n    tag_236:\n        /* \"UZHPancakeLottery.sol\":7465:7466  3 */\n      0x03\n        /* \"UZHPancakeLottery.sol\":7442:7461  firstMatchedNumbers */\n      dup7\n        /* \"UZHPancakeLottery.sol\":7442:7466  firstMatchedNumbers == 3 */\n      eq\n        /* \"UZHPancakeLottery.sol\":7438:7775  if (firstMatchedNumbers == 3) {\r... */\n      iszero\n      tag_238\n      jumpi\n        /* \"UZHPancakeLottery.sol\":7500:7501  5 */\n      0x05\n        /* \"UZHPancakeLottery.sol\":7487:7501  percentage = 5 */\n      swap5\n      pop\n        /* \"UZHPancakeLottery.sol\":7438:7775  if (firstMatchedNumbers == 3) {\r... */\n      jump(tag_239)\n    tag_238:\n        /* \"UZHPancakeLottery.sol\":7550:7551  4 */\n      0x04\n        /* \"UZHPancakeLottery.sol\":7527:7546  firstMatchedNumbers */\n      dup7\n        /* \"UZHPancakeLottery.sol\":7527:7551  firstMatchedNumbers == 4 */\n      eq\n        /* \"UZHPancakeLottery.sol\":7523:7775  if (firstMatchedNumbers == 4) {\r... */\n      iszero\n      tag_240\n      jumpi\n        /* \"UZHPancakeLottery.sol\":7585:7587  10 */\n      0x0a\n        /* \"UZHPancakeLottery.sol\":7572:7587  percentage = 10 */\n      swap5\n      pop\n        /* \"UZHPancakeLottery.sol\":7523:7775  if (firstMatchedNumbers == 4) {\r... */\n      jump(tag_241)\n    tag_240:\n        /* \"UZHPancakeLottery.sol\":7636:7637  5 */\n      0x05\n        /* \"UZHPancakeLottery.sol\":7613:7632  firstMatchedNumbers */\n      dup7\n        /* \"UZHPancakeLottery.sol\":7613:7637  firstMatchedNumbers == 5 */\n      eq\n        /* \"UZHPancakeLottery.sol\":7609:7775  if (firstMatchedNumbers == 5) {\r... */\n      iszero\n      tag_242\n      jumpi\n        /* \"UZHPancakeLottery.sol\":7671:7673  20 */\n      0x14\n        /* \"UZHPancakeLottery.sol\":7658:7673  percentage = 20 */\n      swap5\n      pop\n        /* \"UZHPancakeLottery.sol\":7609:7775  if (firstMatchedNumbers == 5) {\r... */\n      jump(tag_243)\n    tag_242:\n        /* \"UZHPancakeLottery.sol\":7722:7723  6 */\n      0x06\n        /* \"UZHPancakeLottery.sol\":7699:7718  firstMatchedNumbers */\n      dup7\n        /* \"UZHPancakeLottery.sol\":7699:7723  firstMatchedNumbers == 6 */\n      eq\n        /* \"UZHPancakeLottery.sol\":7695:7775  if (firstMatchedNumbers == 6) {\r... */\n      iszero\n      tag_244\n      jumpi\n        /* \"UZHPancakeLottery.sol\":7757:7759  40 */\n      0x28\n        /* \"UZHPancakeLottery.sol\":7744:7759  percentage = 40 */\n      swap5\n      pop\n        /* \"UZHPancakeLottery.sol\":7695:7775  if (firstMatchedNumbers == 6) {\r... */\n    tag_244:\n        /* \"UZHPancakeLottery.sol\":7609:7775  if (firstMatchedNumbers == 5) {\r... */\n    tag_243:\n        /* \"UZHPancakeLottery.sol\":7523:7775  if (firstMatchedNumbers == 4) {\r... */\n    tag_241:\n        /* \"UZHPancakeLottery.sol\":7438:7775  if (firstMatchedNumbers == 3) {\r... */\n    tag_239:\n        /* \"UZHPancakeLottery.sol\":7353:7775  if (firstMatchedNumbers == 2) {\r... */\n    tag_237:\n        /* \"UZHPancakeLottery.sol\":7268:7775  if (firstMatchedNumbers == 1) {\r... */\n    tag_235:\n        /* \"UZHPancakeLottery.sol\":7872:7875  100 */\n      0x64\n        /* \"UZHPancakeLottery.sol\":7858:7868  percentage */\n      dup6\n        /* \"UZHPancakeLottery.sol\":7840:7855  TotalLotteryPot */\n      sload(0x04)\n        /* \"UZHPancakeLottery.sol\":7840:7868  TotalLotteryPot * percentage */\n      tag_245\n      swap2\n      swap1\n      tag_130\n      jump\t// in\n    tag_245:\n        /* \"UZHPancakeLottery.sol\":7839:7875  (TotalLotteryPot * percentage) / 100 */\n      tag_246\n      swap2\n      swap1\n      tag_184\n      jump\t// in\n    tag_246:\n        /* \"UZHPancakeLottery.sol\":7830:7875  reward = (TotalLotteryPot * percentage) / 100 */\n      swap4\n      pop\n        /* \"UZHPancakeLottery.sol\":7959:7965  reward */\n      dup4\n        /* \"UZHPancakeLottery.sol\":7944:7965  totalreward += reward */\n      dup4\n      tag_247\n      swap2\n      swap1\n      tag_177\n      jump\t// in\n    tag_247:\n      swap3\n      pop\n        /* \"UZHPancakeLottery.sol\":8070:8086  playersAddresses */\n      0x06\n        /* \"UZHPancakeLottery.sol\":8087:8088  i */\n      dup2\n        /* \"UZHPancakeLottery.sol\":8070:8089  playersAddresses[i] */\n      dup2\n      sload\n      dup2\n      lt\n      tag_248\n      jumpi\n      tag_249\n      tag_118\n      jump\t// in\n    tag_249:\n    tag_248:\n      swap1\n      0x00\n      mstore\n      keccak256(0x00, 0x20)\n      add\n      0x00\n      swap1\n      sload\n      swap1\n      0x0100\n      exp\n      swap1\n      div\n      0xffffffffffffffffffffffffffffffffffffffff\n      and\n        /* \"UZHPancakeLottery.sol\":8046:8090  playeraddress = payable(playersAddresses[i]) */\n      swap2\n      pop\n        /* \"UZHPancakeLottery.sol\":8159:8172  playeraddress */\n      dup2\n        /* \"UZHPancakeLottery.sol\":8159:8181  playeraddress.transfer */\n      0xffffffffffffffffffffffffffffffffffffffff\n      and\n        /* \"UZHPancakeLottery.sol\":8159:8189  playeraddress.transfer(reward) */\n      0x08fc\n        /* \"UZHPancakeLottery.sol\":8182:8188  reward */\n      dup6\n        /* \"UZHPancakeLottery.sol\":8159:8189  playeraddress.transfer(reward) */\n      swap1\n      dup2\n      iszero\n      mul\n      swap1\n      mload(0x40)\n      0x00\n      mload(0x40)\n      dup1\n      dup4\n      sub\n      dup2\n      dup6\n      dup9\n      dup9\n      call\n      swap4\n      pop\n      pop\n      pop\n      pop\n      iszero\n      dup1\n      iszero\n      tag_252\n      jumpi\n      returndatasize\n      0x00\n      dup1\n      returndatacopy\n      revert(0x00, returndatasize)\n    tag_252:\n      pop\n        /* \"UZHPancakeLottery.sol\":8266:8267  0 */\n      0x00\n        /* \"UZHPancakeLottery.sol\":8244:8267  firstMatchedNumbers = 0 */\n      swap6\n      pop\n        /* \"UZHPancakeLottery.sol\":8295:8296  0 */\n      0x00\n        /* \"UZHPancakeLottery.sol\":8282:8296  percentage = 0 */\n      swap5\n      pop\n        /* \"UZHPancakeLottery.sol\":8320:8321  0 */\n      0x00\n        /* \"UZHPancakeLottery.sol\":8311:8321  reward = 0 */\n      swap4\n      pop\n        /* \"UZHPancakeLottery.sol\":6594:6597  i++ */\n      dup1\n      dup1\n      tag_253\n      swap1\n      tag_121\n      jump\t// in\n    tag_253:\n      swap2\n      pop\n      pop\n        /* \"UZHPancakeLottery.sol\":6548:8333  for (uint i = 0; i < playersAddresses.length; i++) {   \r... */\n      jump(tag_210)\n    tag_211:\n      pop\n        /* \"UZHPancakeLottery.sol\":8403:8404  0 */\n      0x00\n        /* \"UZHPancakeLottery.sol\":8385:8400  NrticketsBought */\n      0x05\n        /* \"UZHPancakeLottery.sol\":8385:8404  NrticketsBought = 0 */\n      dup2\n      swap1\n      sstore\n      pop\n        /* \"UZHPancakeLottery.sol\":8434:8445  totalreward */\n      dup2\n        /* \"UZHPancakeLottery.sol\":8415:8430  TotalLotteryPot */\n      0x04\n      0x00\n        /* \"UZHPancakeLottery.sol\":8415:8445  TotalLotteryPot -= totalreward */\n      dup3\n      dup3\n      sload\n      tag_254\n      swap2\n      swap1\n      tag_255\n      jump\t// in\n    tag_254:\n      swap3\n      pop\n      pop\n      dup2\n      swap1\n      sstore\n      pop\n        /* \"UZHPancakeLottery.sol\":8489:8490  0 */\n      0x00\n        /* \"UZHPancakeLottery.sol\":8475:8491  new address[](0) */\n      0xffffffffffffffff\n      dup2\n      gt\n      iszero\n      tag_256\n      jumpi\n      tag_257\n      tag_104\n      jump\t// in\n    tag_257:\n    tag_256:\n      mload(0x40)\n      swap1\n      dup1\n      dup3\n      mstore\n      dup1\n      0x20\n      mul\n      0x20\n      add\n      dup3\n      add\n      0x40\n      mstore\n      dup1\n      iszero\n      tag_258\n      jumpi\n      dup2\n      0x20\n      add\n      0x20\n      dup3\n      mul\n      dup1\n      calldatasize\n      dup4\n      calldatacopy\n      dup1\n      dup3\n      add\n      swap2\n      pop\n      pop\n      swap1\n      pop\n    tag_258:\n      pop\n        /* \"UZHPancakeLottery.sol\":8456:8472  playersAddresses */\n      0x06\n        /* \"UZHPancakeLottery.sol\":8456:8491  playersAddresses = new address[](0) */\n      swap1\n      dup1\n      mload\n      swap1\n      0x20\n      add\n      swap1\n      tag_259\n      swap3\n      swap2\n      swap1\n      tag_260\n      jump\t// in\n    tag_259:\n      pop\n        /* \"UZHPancakeLottery.sol\":8534:8535  0 */\n      0x00\n        /* \"UZHPancakeLottery.sol\":8502:8537  playeraddress = payable(address(0)) */\n      swap1\n      pop\n        /* \"UZHPancakeLottery.sol\":8565:8570  false */\n      0x00\n        /* \"UZHPancakeLottery.sol\":8548:8562  lotteryStarted */\n      0x07\n      0x00\n        /* \"UZHPancakeLottery.sol\":8548:8570  lotteryStarted = false */\n      0x0100\n      exp\n      dup2\n      sload\n      dup2\n      0xff\n      mul\n      not\n      and\n      swap1\n      dup4\n      iszero\n      iszero\n      mul\n      or\n      swap1\n      sstore\n      pop\n        /* \"UZHPancakeLottery.sol\":5778:8578  {\r... */\n      pop\n      pop\n      pop\n      pop\n      pop\n        /* \"UZHPancakeLottery.sol\":5740:8578  function EndLottery() public onlyOwner{\r... */\n      jump\t// out\n    tag_107:\n      dup3\n      dup1\n      sload\n      dup3\n      dup3\n      sstore\n      swap1\n      0x00\n      mstore\n      keccak256(0x00, 0x20)\n      swap1\n      dup2\n      add\n      swap3\n      dup3\n      iszero\n      tag_261\n      jumpi\n      swap2\n      0x20\n      mul\n      dup3\n      add\n    tag_262:\n      dup3\n      dup2\n      gt\n      iszero\n      tag_263\n      jumpi\n      dup3\n      mload\n      dup3\n      sstore\n      swap2\n      0x20\n      add\n      swap2\n      swap1\n      0x01\n      add\n      swap1\n      jump(tag_262)\n    tag_263:\n    tag_261:\n      pop\n      swap1\n      pop\n      tag_264\n      swap2\n      swap1\n      tag_265\n      jump\t// in\n    tag_264:\n      pop\n      swap1\n      jump\t// out\n    tag_233:\n      pop\n      dup1\n      sload\n      0x00\n      dup3\n      sstore\n      swap1\n      0x00\n      mstore\n      keccak256(0x00, 0x20)\n      swap1\n      dup2\n      add\n      swap1\n      tag_267\n      swap2\n      swap1\n      tag_265\n      jump\t// in\n    tag_267:\n      pop\n      jump\t// out\n    tag_260:\n      dup3\n      dup1\n      sload\n      dup3\n      dup3\n      sstore\n      swap1\n      0x00\n      mstore\n      keccak256(0x00, 0x20)\n      swap1\n      dup2\n      add\n      swap3\n      dup3\n      iszero\n      tag_268\n      jumpi\n      swap2\n      0x20\n      mul\n      dup3\n      add\n    tag_269:\n      dup3\n      dup2\n      gt\n      iszero\n      tag_270\n      jumpi\n      dup3\n      mload\n      dup3\n      exp(0x0100, 0x00)\n      dup2\n      sload\n      dup2\n      0xffffffffffffffffffffffffffffffffffffffff\n      mul\n      not\n      and\n      swap1\n      dup4\n      0xffffffffffffffffffffffffffffffffffffffff\n      and\n      mul\n      or\n      swap1\n      sstore\n      pop\n      swap2\n      0x20\n      add\n      swap2\n      swap1\n      0x01\n      add\n      swap1\n      jump(tag_269)\n    tag_270:\n    tag_268:\n      pop\n      swap1\n      pop\n      tag_271\n      swap2\n      swap1\n      tag_265\n      jump\t// in\n    tag_271:\n      pop\n      swap1\n      jump\t// out\n    tag_265:\n    tag_272:\n      dup1\n      dup3\n      gt\n      iszero\n      tag_273\n      jumpi\n      0x00\n      dup2\n      0x00\n      swap1\n      sstore\n      pop\n      0x01\n      add\n      jump(tag_272)\n    tag_273:\n      pop\n      swap1\n      jump\t// out\n        /* \"#utility.yul\":24:746   */\n    tag_275:\n        /* \"#utility.yul\":120:125   */\n      0x00\n        /* \"#utility.yul\":145:226   */\n      tag_277\n        /* \"#utility.yul\":161:225   */\n      tag_278\n        /* \"#utility.yul\":218:224   */\n      dup5\n        /* \"#utility.yul\":161:225   */\n      tag_279\n      jump\t// in\n    tag_278:\n        /* \"#utility.yul\":145:226   */\n      tag_280\n      jump\t// in\n    tag_277:\n        /* \"#utility.yul\":136:226   */\n      swap1\n      pop\n        /* \"#utility.yul\":246:251   */\n      dup1\n        /* \"#utility.yul\":275:281   */\n      dup4\n        /* \"#utility.yul\":268:273   */\n      dup3\n        /* \"#utility.yul\":261:282   */\n      mstore\n        /* \"#utility.yul\":309:313   */\n      0x20\n        /* \"#utility.yul\":302:307   */\n      dup3\n        /* \"#utility.yul\":298:314   */\n      add\n        /* \"#utility.yul\":291:314   */\n      swap1\n      pop\n        /* \"#utility.yul\":335:341   */\n      dup3\n        /* \"#utility.yul\":385:388   */\n      dup6\n        /* \"#utility.yul\":377:381   */\n      0x20\n        /* \"#utility.yul\":369:375   */\n      dup7\n        /* \"#utility.yul\":365:382   */\n      mul\n        /* \"#utility.yul\":360:363   */\n      dup3\n        /* \"#utility.yul\":356:383   */\n      add\n        /* \"#utility.yul\":353:389   */\n      gt\n        /* \"#utility.yul\":350:493   */\n      iszero\n      tag_281\n      jumpi\n        /* \"#utility.yul\":404:483   */\n      tag_282\n      tag_283\n      jump\t// in\n    tag_282:\n        /* \"#utility.yul\":350:493   */\n    tag_281:\n        /* \"#utility.yul\":517:518   */\n      0x00\n        /* \"#utility.yul\":502:740   */\n    tag_284:\n        /* \"#utility.yul\":527:533   */\n      dup6\n        /* \"#utility.yul\":524:525   */\n      dup2\n        /* \"#utility.yul\":521:534   */\n      lt\n        /* \"#utility.yul\":502:740   */\n      iszero\n      tag_286\n      jumpi\n        /* \"#utility.yul\":595:598   */\n      dup2\n        /* \"#utility.yul\":624:661   */\n      tag_287\n        /* \"#utility.yul\":657:660   */\n      dup9\n        /* \"#utility.yul\":645:655   */\n      dup3\n        /* \"#utility.yul\":624:661   */\n      tag_288\n      jump\t// in\n    tag_287:\n        /* \"#utility.yul\":619:622   */\n      dup5\n        /* \"#utility.yul\":612:662   */\n      mstore\n        /* \"#utility.yul\":691:695   */\n      0x20\n        /* \"#utility.yul\":686:689   */\n      dup5\n        /* \"#utility.yul\":682:696   */\n      add\n        /* \"#utility.yul\":675:696   */\n      swap4\n      pop\n        /* \"#utility.yul\":725:729   */\n      0x20\n        /* \"#utility.yul\":720:723   */\n      dup4\n        /* \"#utility.yul\":716:730   */\n      add\n        /* \"#utility.yul\":709:730   */\n      swap3\n      pop\n        /* \"#utility.yul\":562:740   */\n      pop\n        /* \"#utility.yul\":549:550   */\n      0x01\n        /* \"#utility.yul\":546:547   */\n      dup2\n        /* \"#utility.yul\":542:551   */\n      add\n        /* \"#utility.yul\":537:551   */\n      swap1\n      pop\n        /* \"#utility.yul\":502:740   */\n      jump(tag_284)\n    tag_286:\n        /* \"#utility.yul\":506:520   */\n      pop\n        /* \"#utility.yul\":126:746   */\n      pop\n      pop\n        /* \"#utility.yul\":24:746   */\n      swap4\n      swap3\n      pop\n      pop\n      pop\n      jump\t// out\n        /* \"#utility.yul\":769:1139   */\n    tag_289:\n        /* \"#utility.yul\":840:845   */\n      0x00\n        /* \"#utility.yul\":889:892   */\n      dup3\n        /* \"#utility.yul\":882:886   */\n      0x1f\n        /* \"#utility.yul\":874:880   */\n      dup4\n        /* \"#utility.yul\":870:887   */\n      add\n        /* \"#utility.yul\":866:893   */\n      slt\n        /* \"#utility.yul\":856:978   */\n      tag_291\n      jumpi\n        /* \"#utility.yul\":897:976   */\n      tag_292\n      tag_293\n      jump\t// in\n    tag_292:\n        /* \"#utility.yul\":856:978   */\n    tag_291:\n        /* \"#utility.yul\":1014:1020   */\n      dup2\n        /* \"#utility.yul\":1001:1021   */\n      calldataload\n        /* \"#utility.yul\":1039:1133   */\n      tag_294\n        /* \"#utility.yul\":1129:1132   */\n      dup5\n        /* \"#utility.yul\":1121:1127   */\n      dup3\n        /* \"#utility.yul\":1114:1118   */\n      0x20\n        /* \"#utility.yul\":1106:1112   */\n      dup7\n        /* \"#utility.yul\":1102:1119   */\n      add\n        /* \"#utility.yul\":1039:1133   */\n      tag_275\n      jump\t// in\n    tag_294:\n        /* \"#utility.yul\":1030:1133   */\n      swap2\n      pop\n        /* \"#utility.yul\":846:1139   */\n      pop\n        /* \"#utility.yul\":769:1139   */\n      swap3\n      swap2\n      pop\n      pop\n      jump\t// out\n        /* \"#utility.yul\":1145:1284   */\n    tag_288:\n        /* \"#utility.yul\":1191:1196   */\n      0x00\n        /* \"#utility.yul\":1229:1235   */\n      dup2\n        /* \"#utility.yul\":1216:1236   */\n      calldataload\n        /* \"#utility.yul\":1207:1236   */\n      swap1\n      pop\n        /* \"#utility.yul\":1245:1278   */\n      tag_296\n        /* \"#utility.yul\":1272:1277   */\n      dup2\n        /* \"#utility.yul\":1245:1278   */\n      tag_297\n      jump\t// in\n    tag_296:\n        /* \"#utility.yul\":1145:1284   */\n      swap3\n      swap2\n      pop\n      pop\n      jump\t// out\n        /* \"#utility.yul\":1290:1829   */\n    tag_45:\n        /* \"#utility.yul\":1374:1380   */\n      0x00\n        /* \"#utility.yul\":1423:1425   */\n      0x20\n        /* \"#utility.yul\":1411:1420   */\n      dup3\n        /* \"#utility.yul\":1402:1409   */\n      dup5\n        /* \"#utility.yul\":1398:1421   */\n      sub\n        /* \"#utility.yul\":1394:1426   */\n      slt\n        /* \"#utility.yul\":1391:1510   */\n      iszero\n      tag_299\n      jumpi\n        /* \"#utility.yul\":1429:1508   */\n      tag_300\n      tag_301\n      jump\t// in\n    tag_300:\n        /* \"#utility.yul\":1391:1510   */\n    tag_299:\n        /* \"#utility.yul\":1577:1578   */\n      0x00\n        /* \"#utility.yul\":1566:1575   */\n      dup3\n        /* \"#utility.yul\":1562:1579   */\n      add\n        /* \"#utility.yul\":1549:1580   */\n      calldataload\n        /* \"#utility.yul\":1607:1625   */\n      0xffffffffffffffff\n        /* \"#utility.yul\":1599:1605   */\n      dup2\n        /* \"#utility.yul\":1596:1626   */\n      gt\n        /* \"#utility.yul\":1593:1710   */\n      iszero\n      tag_302\n      jumpi\n        /* \"#utility.yul\":1629:1708   */\n      tag_303\n      tag_304\n      jump\t// in\n    tag_303:\n        /* \"#utility.yul\":1593:1710   */\n    tag_302:\n        /* \"#utility.yul\":1734:1812   */\n      tag_305\n        /* \"#utility.yul\":1804:1811   */\n      dup5\n        /* \"#utility.yul\":1795:1801   */\n      dup3\n        /* \"#utility.yul\":1784:1793   */\n      dup6\n        /* \"#utility.yul\":1780:1802   */\n      add\n        /* \"#utility.yul\":1734:1812   */\n      tag_289\n      jump\t// in\n    tag_305:\n        /* \"#utility.yul\":1724:1812   */\n      swap2\n      pop\n        /* \"#utility.yul\":1520:1822   */\n      pop\n        /* \"#utility.yul\":1290:1829   */\n      swap3\n      swap2\n      pop\n      pop\n      jump\t// out\n        /* \"#utility.yul\":1835:2164   */\n    tag_29:\n        /* \"#utility.yul\":1894:1900   */\n      0x00\n        /* \"#utility.yul\":1943:1945   */\n      0x20\n        /* \"#utility.yul\":1931:1940   */\n      dup3\n        /* \"#utility.yul\":1922:1929   */\n      dup5\n        /* \"#utility.yul\":1918:1941   */\n      sub\n        /* \"#utility.yul\":1914:1946   */\n      slt\n        /* \"#utility.yul\":1911:2030   */\n      iszero\n      tag_307\n      jumpi\n        /* \"#utility.yul\":1949:2028   */\n      tag_308\n      tag_301\n      jump\t// in\n    tag_308:\n        /* \"#utility.yul\":1911:2030   */\n    tag_307:\n        /* \"#utility.yul\":2069:2070   */\n      0x00\n        /* \"#utility.yul\":2094:2147   */\n      tag_309\n        /* \"#utility.yul\":2139:2146   */\n      dup5\n        /* \"#utility.yul\":2130:2136   */\n      dup3\n        /* \"#utility.yul\":2119:2128   */\n      dup6\n        /* \"#utility.yul\":2115:2137   */\n      add\n        /* \"#utility.yul\":2094:2147   */\n      tag_288\n      jump\t// in\n    tag_309:\n        /* \"#utility.yul\":2084:2147   */\n      swap2\n      pop\n        /* \"#utility.yul\":2040:2157   */\n      pop\n        /* \"#utility.yul\":1835:2164   */\n      swap3\n      swap2\n      pop\n      pop\n      jump\t// out\n        /* \"#utility.yul\":2170:2349   */\n    tag_310:\n        /* \"#utility.yul\":2239:2249   */\n      0x00\n        /* \"#utility.yul\":2260:2306   */\n      tag_312\n        /* \"#utility.yul\":2302:2305   */\n      dup4\n        /* \"#utility.yul\":2294:2300   */\n      dup4\n        /* \"#utility.yul\":2260:2306   */\n      tag_313\n      jump\t// in\n    tag_312:\n        /* \"#utility.yul\":2338:2342   */\n      0x20\n        /* \"#utility.yul\":2333:2336   */\n      dup4\n        /* \"#utility.yul\":2329:2343   */\n      add\n        /* \"#utility.yul\":2315:2343   */\n      swap1\n      pop\n        /* \"#utility.yul\":2170:2349   */\n      swap3\n      swap2\n      pop\n      pop\n      jump\t// out\n        /* \"#utility.yul\":2355:2473   */\n    tag_314:\n        /* \"#utility.yul\":2442:2466   */\n      tag_316\n        /* \"#utility.yul\":2460:2465   */\n      dup2\n        /* \"#utility.yul\":2442:2466   */\n      tag_317\n      jump\t// in\n    tag_316:\n        /* \"#utility.yul\":2437:2440   */\n      dup3\n        /* \"#utility.yul\":2430:2467   */\n      mstore\n        /* \"#utility.yul\":2355:2473   */\n      pop\n      pop\n      jump\t// out\n        /* \"#utility.yul\":2509:3241   */\n    tag_318:\n        /* \"#utility.yul\":2628:2631   */\n      0x00\n        /* \"#utility.yul\":2657:2711   */\n      tag_320\n        /* \"#utility.yul\":2705:2710   */\n      dup3\n        /* \"#utility.yul\":2657:2711   */\n      tag_321\n      jump\t// in\n    tag_320:\n        /* \"#utility.yul\":2727:2813   */\n      tag_322\n        /* \"#utility.yul\":2806:2812   */\n      dup2\n        /* \"#utility.yul\":2801:2804   */\n      dup6\n        /* \"#utility.yul\":2727:2813   */\n      tag_323\n      jump\t// in\n    tag_322:\n        /* \"#utility.yul\":2720:2813   */\n      swap4\n      pop\n        /* \"#utility.yul\":2837:2893   */\n      tag_324\n        /* \"#utility.yul\":2887:2892   */\n      dup4\n        /* \"#utility.yul\":2837:2893   */\n      tag_325\n      jump\t// in\n    tag_324:\n        /* \"#utility.yul\":2916:2923   */\n      dup1\n        /* \"#utility.yul\":2947:2948   */\n      0x00\n        /* \"#utility.yul\":2932:3216   */\n    tag_326:\n        /* \"#utility.yul\":2957:2963   */\n      dup4\n        /* \"#utility.yul\":2954:2955   */\n      dup2\n        /* \"#utility.yul\":2951:2964   */\n      lt\n        /* \"#utility.yul\":2932:3216   */\n      iszero\n      tag_328\n      jumpi\n        /* \"#utility.yul\":3033:3039   */\n      dup2\n        /* \"#utility.yul\":3027:3040   */\n      mload\n        /* \"#utility.yul\":3060:3123   */\n      tag_329\n        /* \"#utility.yul\":3119:3122   */\n      dup9\n        /* \"#utility.yul\":3104:3117   */\n      dup3\n        /* \"#utility.yul\":3060:3123   */\n      tag_310\n      jump\t// in\n    tag_329:\n        /* \"#utility.yul\":3053:3123   */\n      swap8\n      pop\n        /* \"#utility.yul\":3146:3206   */\n      tag_330\n        /* \"#utility.yul\":3199:3205   */\n      dup4\n        /* \"#utility.yul\":3146:3206   */\n      tag_331\n      jump\t// in\n    tag_330:\n        /* \"#utility.yul\":3136:3206   */\n      swap3\n      pop\n        /* \"#utility.yul\":2992:3216   */\n      pop\n        /* \"#utility.yul\":2979:2980   */\n      0x01\n        /* \"#utility.yul\":2976:2977   */\n      dup2\n        /* \"#utility.yul\":2972:2981   */\n      add\n        /* \"#utility.yul\":2967:2981   */\n      swap1\n      pop\n        /* \"#utility.yul\":2932:3216   */\n      jump(tag_326)\n    tag_328:\n        /* \"#utility.yul\":2936:2950   */\n      pop\n        /* \"#utility.yul\":3232:3235   */\n      dup6\n        /* \"#utility.yul\":3225:3235   */\n      swap4\n      pop\n        /* \"#utility.yul\":2633:3241   */\n      pop\n      pop\n      pop\n        /* \"#utility.yul\":2509:3241   */\n      swap3\n      swap2\n      pop\n      pop\n      jump\t// out\n        /* \"#utility.yul\":3247:3356   */\n    tag_332:\n        /* \"#utility.yul\":3328:3349   */\n      tag_334\n        /* \"#utility.yul\":3343:3348   */\n      dup2\n        /* \"#utility.yul\":3328:3349   */\n      tag_335\n      jump\t// in\n    tag_334:\n        /* \"#utility.yul\":3323:3326   */\n      dup3\n        /* \"#utility.yul\":3316:3350   */\n      mstore\n        /* \"#utility.yul\":3247:3356   */\n      pop\n      pop\n      jump\t// out\n        /* \"#utility.yul\":3362:3728   */\n    tag_336:\n        /* \"#utility.yul\":3504:3507   */\n      0x00\n        /* \"#utility.yul\":3525:3592   */\n      tag_338\n        /* \"#utility.yul\":3589:3591   */\n      0x14\n        /* \"#utility.yul\":3584:3587   */\n      dup4\n        /* \"#utility.yul\":3525:3592   */\n      tag_339\n      jump\t// in\n    tag_338:\n        /* \"#utility.yul\":3518:3592   */\n      swap2\n      pop\n        /* \"#utility.yul\":3601:3694   */\n      tag_340\n        /* \"#utility.yul\":3690:3693   */\n      dup3\n        /* \"#utility.yul\":3601:3694   */\n      tag_341\n      jump\t// in\n    tag_340:\n        /* \"#utility.yul\":3719:3721   */\n      0x20\n        /* \"#utility.yul\":3714:3717   */\n      dup3\n        /* \"#utility.yul\":3710:3722   */\n      add\n        /* \"#utility.yul\":3703:3722   */\n      swap1\n      pop\n        /* \"#utility.yul\":3362:3728   */\n      swap2\n      swap1\n      pop\n      jump\t// out\n        /* \"#utility.yul\":3734:4100   */\n    tag_342:\n        /* \"#utility.yul\":3876:3879   */\n      0x00\n        /* \"#utility.yul\":3897:3964   */\n      tag_344\n        /* \"#utility.yul\":3961:3963   */\n      0x11\n        /* \"#utility.yul\":3956:3959   */\n      dup4\n        /* \"#utility.yul\":3897:3964   */\n      tag_339\n      jump\t// in\n    tag_344:\n        /* \"#utility.yul\":3890:3964   */\n      swap2\n      pop\n        /* \"#utility.yul\":3973:4066   */\n      tag_345\n        /* \"#utility.yul\":4062:4065   */\n      dup3\n        /* \"#utility.yul\":3973:4066   */\n      tag_346\n      jump\t// in\n    tag_345:\n        /* \"#utility.yul\":4091:4093   */\n      0x20\n        /* \"#utility.yul\":4086:4089   */\n      dup3\n        /* \"#utility.yul\":4082:4094   */\n      add\n        /* \"#utility.yul\":4075:4094   */\n      swap1\n      pop\n        /* \"#utility.yul\":3734:4100   */\n      swap2\n      swap1\n      pop\n      jump\t// out\n        /* \"#utility.yul\":4106:4472   */\n    tag_347:\n        /* \"#utility.yul\":4248:4251   */\n      0x00\n        /* \"#utility.yul\":4269:4336   */\n      tag_349\n        /* \"#utility.yul\":4333:4335   */\n      0x20\n        /* \"#utility.yul\":4328:4331   */\n      dup4\n        /* \"#utility.yul\":4269:4336   */\n      tag_339\n      jump\t// in\n    tag_349:\n        /* \"#utility.yul\":4262:4336   */\n      swap2\n      pop\n        /* \"#utility.yul\":4345:4438   */\n      tag_350\n        /* \"#utility.yul\":4434:4437   */\n      dup3\n        /* \"#utility.yul\":4345:4438   */\n      tag_351\n      jump\t// in\n    tag_350:\n        /* \"#utility.yul\":4463:4465   */\n      0x20\n        /* \"#utility.yul\":4458:4461   */\n      dup3\n        /* \"#utility.yul\":4454:4466   */\n      add\n        /* \"#utility.yul\":4447:4466   */\n      swap1\n      pop\n        /* \"#utility.yul\":4106:4472   */\n      swap2\n      swap1\n      pop\n      jump\t// out\n        /* \"#utility.yul\":4478:4844   */\n    tag_352:\n        /* \"#utility.yul\":4620:4623   */\n      0x00\n        /* \"#utility.yul\":4641:4708   */\n      tag_354\n        /* \"#utility.yul\":4705:4707   */\n      0x26\n        /* \"#utility.yul\":4700:4703   */\n      dup4\n        /* \"#utility.yul\":4641:4708   */\n      tag_339\n      jump\t// in\n    tag_354:\n        /* \"#utility.yul\":4634:4708   */\n      swap2\n      pop\n        /* \"#utility.yul\":4717:4810   */\n      tag_355\n        /* \"#utility.yul\":4806:4809   */\n      dup3\n        /* \"#utility.yul\":4717:4810   */\n      tag_356\n      jump\t// in\n    tag_355:\n        /* \"#utility.yul\":4835:4837   */\n      0x40\n        /* \"#utility.yul\":4830:4833   */\n      dup3\n        /* \"#utility.yul\":4826:4838   */\n      add\n        /* \"#utility.yul\":4819:4838   */\n      swap1\n      pop\n        /* \"#utility.yul\":4478:4844   */\n      swap2\n      swap1\n      pop\n      jump\t// out\n        /* \"#utility.yul\":4850:5216   */\n    tag_357:\n        /* \"#utility.yul\":4992:4995   */\n      0x00\n        /* \"#utility.yul\":5013:5080   */\n      tag_359\n        /* \"#utility.yul\":5077:5079   */\n      0x15\n        /* \"#utility.yul\":5072:5075   */\n      dup4\n        /* \"#utility.yul\":5013:5080   */\n      tag_339\n      jump\t// in\n    tag_359:\n        /* \"#utility.yul\":5006:5080   */\n      swap2\n      pop\n        /* \"#utility.yul\":5089:5182   */\n      tag_360\n        /* \"#utility.yul\":5178:5181   */\n      dup3\n        /* \"#utility.yul\":5089:5182   */\n      tag_361\n      jump\t// in\n    tag_360:\n        /* \"#utility.yul\":5207:5209   */\n      0x20\n        /* \"#utility.yul\":5202:5205   */\n      dup3\n        /* \"#utility.yul\":5198:5210   */\n      add\n        /* \"#utility.yul\":5191:5210   */\n      swap1\n      pop\n        /* \"#utility.yul\":4850:5216   */\n      swap2\n      swap1\n      pop\n      jump\t// out\n        /* \"#utility.yul\":5222:5588   */\n    tag_362:\n        /* \"#utility.yul\":5364:5367   */\n      0x00\n        /* \"#utility.yul\":5385:5452   */\n      tag_364\n        /* \"#utility.yul\":5449:5451   */\n      0x0c\n        /* \"#utility.yul\":5444:5447   */\n      dup4\n        /* \"#utility.yul\":5385:5452   */\n      tag_339\n      jump\t// in\n    tag_364:\n        /* \"#utility.yul\":5378:5452   */\n      swap2\n      pop\n        /* \"#utility.yul\":5461:5554   */\n      tag_365\n        /* \"#utility.yul\":5550:5553   */\n      dup3\n        /* \"#utility.yul\":5461:5554   */\n      tag_366\n      jump\t// in\n    tag_365:\n        /* \"#utility.yul\":5579:5581   */\n      0x20\n        /* \"#utility.yul\":5574:5577   */\n      dup3\n        /* \"#utility.yul\":5570:5582   */\n      add\n        /* \"#utility.yul\":5563:5582   */\n      swap1\n      pop\n        /* \"#utility.yul\":5222:5588   */\n      swap2\n      swap1\n      pop\n      jump\t// out\n        /* \"#utility.yul\":5594:5960   */\n    tag_367:\n        /* \"#utility.yul\":5736:5739   */\n      0x00\n        /* \"#utility.yul\":5757:5824   */\n      tag_369\n        /* \"#utility.yul\":5821:5823   */\n      0x17\n        /* \"#utility.yul\":5816:5819   */\n      dup4\n        /* \"#utility.yul\":5757:5824   */\n      tag_339\n      jump\t// in\n    tag_369:\n        /* \"#utility.yul\":5750:5824   */\n      swap2\n      pop\n        /* \"#utility.yul\":5833:5926   */\n      tag_370\n        /* \"#utility.yul\":5922:5925   */\n      dup3\n        /* \"#utility.yul\":5833:5926   */\n      tag_371\n      jump\t// in\n    tag_370:\n        /* \"#utility.yul\":5951:5953   */\n      0x20\n        /* \"#utility.yul\":5946:5949   */\n      dup3\n        /* \"#utility.yul\":5942:5954   */\n      add\n        /* \"#utility.yul\":5935:5954   */\n      swap1\n      pop\n        /* \"#utility.yul\":5594:5960   */\n      swap2\n      swap1\n      pop\n      jump\t// out\n        /* \"#utility.yul\":5966:6332   */\n    tag_372:\n        /* \"#utility.yul\":6108:6111   */\n      0x00\n        /* \"#utility.yul\":6129:6196   */\n      tag_374\n        /* \"#utility.yul\":6193:6195   */\n      0x14\n        /* \"#utility.yul\":6188:6191   */\n      dup4\n        /* \"#utility.yul\":6129:6196   */\n      tag_339\n      jump\t// in\n    tag_374:\n        /* \"#utility.yul\":6122:6196   */\n      swap2\n      pop\n        /* \"#utility.yul\":6205:6298   */\n      tag_375\n        /* \"#utility.yul\":6294:6297   */\n      dup3\n        /* \"#utility.yul\":6205:6298   */\n      tag_376\n      jump\t// in\n    tag_375:\n        /* \"#utility.yul\":6323:6325   */\n      0x20\n        /* \"#utility.yul\":6318:6321   */\n      dup3\n        /* \"#utility.yul\":6314:6326   */\n      add\n        /* \"#utility.yul\":6307:6326   */\n      swap1\n      pop\n        /* \"#utility.yul\":5966:6332   */\n      swap2\n      swap1\n      pop\n      jump\t// out\n        /* \"#utility.yul\":6338:6704   */\n    tag_377:\n        /* \"#utility.yul\":6480:6483   */\n      0x00\n        /* \"#utility.yul\":6501:6568   */\n      tag_379\n        /* \"#utility.yul\":6565:6567   */\n      0x0c\n        /* \"#utility.yul\":6560:6563   */\n      dup4\n        /* \"#utility.yul\":6501:6568   */\n      tag_339\n      jump\t// in\n    tag_379:\n        /* \"#utility.yul\":6494:6568   */\n      swap2\n      pop\n        /* \"#utility.yul\":6577:6670   */\n      tag_380\n        /* \"#utility.yul\":6666:6669   */\n      dup3\n        /* \"#utility.yul\":6577:6670   */\n      tag_381\n      jump\t// in\n    tag_380:\n        /* \"#utility.yul\":6695:6697   */\n      0x20\n        /* \"#utility.yul\":6690:6693   */\n      dup3\n        /* \"#utility.yul\":6686:6698   */\n      add\n        /* \"#utility.yul\":6679:6698   */\n      swap1\n      pop\n        /* \"#utility.yul\":6338:6704   */\n      swap2\n      swap1\n      pop\n      jump\t// out\n        /* \"#utility.yul\":6710:6818   */\n    tag_313:\n        /* \"#utility.yul\":6787:6811   */\n      tag_383\n        /* \"#utility.yul\":6805:6810   */\n      dup2\n        /* \"#utility.yul\":6787:6811   */\n      tag_384\n      jump\t// in\n    tag_383:\n        /* \"#utility.yul\":6782:6785   */\n      dup3\n        /* \"#utility.yul\":6775:6812   */\n      mstore\n        /* \"#utility.yul\":6710:6818   */\n      pop\n      pop\n      jump\t// out\n        /* \"#utility.yul\":6824:6942   */\n    tag_385:\n        /* \"#utility.yul\":6911:6935   */\n      tag_387\n        /* \"#utility.yul\":6929:6934   */\n      dup2\n        /* \"#utility.yul\":6911:6935   */\n      tag_384\n      jump\t// in\n    tag_387:\n        /* \"#utility.yul\":6906:6909   */\n      dup3\n        /* \"#utility.yul\":6899:6936   */\n      mstore\n        /* \"#utility.yul\":6824:6942   */\n      pop\n      pop\n      jump\t// out\n        /* \"#utility.yul\":6948:7105   */\n    tag_388:\n        /* \"#utility.yul\":7053:7098   */\n      tag_390\n        /* \"#utility.yul\":7073:7097   */\n      tag_391\n        /* \"#utility.yul\":7091:7096   */\n      dup3\n        /* \"#utility.yul\":7073:7097   */\n      tag_384\n      jump\t// in\n    tag_391:\n        /* \"#utility.yul\":7053:7098   */\n      tag_392\n      jump\t// in\n    tag_390:\n        /* \"#utility.yul\":7048:7051   */\n      dup3\n        /* \"#utility.yul\":7041:7099   */\n      mstore\n        /* \"#utility.yul\":6948:7105   */\n      pop\n      pop\n      jump\t// out\n        /* \"#utility.yul\":7111:7649   */\n    tag_112:\n        /* \"#utility.yul\":7279:7282   */\n      0x00\n        /* \"#utility.yul\":7294:7369   */\n      tag_394\n        /* \"#utility.yul\":7365:7368   */\n      dup3\n        /* \"#utility.yul\":7356:7362   */\n      dup7\n        /* \"#utility.yul\":7294:7369   */\n      tag_388\n      jump\t// in\n    tag_394:\n        /* \"#utility.yul\":7394:7396   */\n      0x20\n        /* \"#utility.yul\":7389:7392   */\n      dup3\n        /* \"#utility.yul\":7385:7397   */\n      add\n        /* \"#utility.yul\":7378:7397   */\n      swap2\n      pop\n        /* \"#utility.yul\":7407:7482   */\n      tag_395\n        /* \"#utility.yul\":7478:7481   */\n      dup3\n        /* \"#utility.yul\":7469:7475   */\n      dup6\n        /* \"#utility.yul\":7407:7482   */\n      tag_388\n      jump\t// in\n    tag_395:\n        /* \"#utility.yul\":7507:7509   */\n      0x20\n        /* \"#utility.yul\":7502:7505   */\n      dup3\n        /* \"#utility.yul\":7498:7510   */\n      add\n        /* \"#utility.yul\":7491:7510   */\n      swap2\n      pop\n        /* \"#utility.yul\":7520:7595   */\n      tag_396\n        /* \"#utility.yul\":7591:7594   */\n      dup3\n        /* \"#utility.yul\":7582:7588   */\n      dup5\n        /* \"#utility.yul\":7520:7595   */\n      tag_388\n      jump\t// in\n    tag_396:\n        /* \"#utility.yul\":7620:7622   */\n      0x20\n        /* \"#utility.yul\":7615:7618   */\n      dup3\n        /* \"#utility.yul\":7611:7623   */\n      add\n        /* \"#utility.yul\":7604:7623   */\n      swap2\n      pop\n        /* \"#utility.yul\":7640:7643   */\n      dup2\n        /* \"#utility.yul\":7633:7643   */\n      swap1\n      pop\n        /* \"#utility.yul\":7111:7649   */\n      swap5\n      swap4\n      pop\n      pop\n      pop\n      pop\n      jump\t// out\n        /* \"#utility.yul\":7655:7877   */\n    tag_36:\n        /* \"#utility.yul\":7748:7752   */\n      0x00\n        /* \"#utility.yul\":7786:7788   */\n      0x20\n        /* \"#utility.yul\":7775:7784   */\n      dup3\n        /* \"#utility.yul\":7771:7789   */\n      add\n        /* \"#utility.yul\":7763:7789   */\n      swap1\n      pop\n        /* \"#utility.yul\":7799:7870   */\n      tag_398\n        /* \"#utility.yul\":7867:7868   */\n      0x00\n        /* \"#utility.yul\":7856:7865   */\n      dup4\n        /* \"#utility.yul\":7852:7869   */\n      add\n        /* \"#utility.yul\":7843:7849   */\n      dup5\n        /* \"#utility.yul\":7799:7870   */\n      tag_314\n      jump\t// in\n    tag_398:\n        /* \"#utility.yul\":7655:7877   */\n      swap3\n      swap2\n      pop\n      pop\n      jump\t// out\n        /* \"#utility.yul\":7883:8256   */\n    tag_71:\n        /* \"#utility.yul\":8026:8030   */\n      0x00\n        /* \"#utility.yul\":8064:8066   */\n      0x20\n        /* \"#utility.yul\":8053:8062   */\n      dup3\n        /* \"#utility.yul\":8049:8067   */\n      add\n        /* \"#utility.yul\":8041:8067   */\n      swap1\n      pop\n        /* \"#utility.yul\":8113:8122   */\n      dup2\n        /* \"#utility.yul\":8107:8111   */\n      dup2\n        /* \"#utility.yul\":8103:8123   */\n      sub\n        /* \"#utility.yul\":8099:8100   */\n      0x00\n        /* \"#utility.yul\":8088:8097   */\n      dup4\n        /* \"#utility.yul\":8084:8101   */\n      add\n        /* \"#utility.yul\":8077:8124   */\n      mstore\n        /* \"#utility.yul\":8141:8249   */\n      tag_400\n        /* \"#utility.yul\":8244:8248   */\n      dup2\n        /* \"#utility.yul\":8235:8241   */\n      dup5\n        /* \"#utility.yul\":8141:8249   */\n      tag_318\n      jump\t// in\n    tag_400:\n        /* \"#utility.yul\":8133:8249   */\n      swap1\n      pop\n        /* \"#utility.yul\":7883:8256   */\n      swap3\n      swap2\n      pop\n      pop\n      jump\t// out\n        /* \"#utility.yul\":8262:8472   */\n    tag_41:\n        /* \"#utility.yul\":8349:8353   */\n      0x00\n        /* \"#utility.yul\":8387:8389   */\n      0x20\n        /* \"#utility.yul\":8376:8385   */\n      dup3\n        /* \"#utility.yul\":8372:8390   */\n      add\n        /* \"#utility.yul\":8364:8390   */\n      swap1\n      pop\n        /* \"#utility.yul\":8400:8465   */\n      tag_402\n        /* \"#utility.yul\":8462:8463   */\n      0x00\n        /* \"#utility.yul\":8451:8460   */\n      dup4\n        /* \"#utility.yul\":8447:8464   */\n      add\n        /* \"#utility.yul\":8438:8444   */\n      dup5\n        /* \"#utility.yul\":8400:8465   */\n      tag_332\n      jump\t// in\n    tag_402:\n        /* \"#utility.yul\":8262:8472   */\n      swap3\n      swap2\n      pop\n      pop\n      jump\t// out\n        /* \"#utility.yul\":8478:8897   */\n    tag_93:\n        /* \"#utility.yul\":8644:8648   */\n      0x00\n        /* \"#utility.yul\":8682:8684   */\n      0x20\n        /* \"#utility.yul\":8671:8680   */\n      dup3\n        /* \"#utility.yul\":8667:8685   */\n      add\n        /* \"#utility.yul\":8659:8685   */\n      swap1\n      pop\n        /* \"#utility.yul\":8731:8740   */\n      dup2\n        /* \"#utility.yul\":8725:8729   */\n      dup2\n        /* \"#utility.yul\":8721:8741   */\n      sub\n        /* \"#utility.yul\":8717:8718   */\n      0x00\n        /* \"#utility.yul\":8706:8715   */\n      dup4\n        /* \"#utility.yul\":8702:8719   */\n      add\n        /* \"#utility.yul\":8695:8742   */\n      mstore\n        /* \"#utility.yul\":8759:8890   */\n      tag_404\n        /* \"#utility.yul\":8885:8889   */\n      dup2\n        /* \"#utility.yul\":8759:8890   */\n      tag_336\n      jump\t// in\n    tag_404:\n        /* \"#utility.yul\":8751:8890   */\n      swap1\n      pop\n        /* \"#utility.yul\":8478:8897   */\n      swap2\n      swap1\n      pop\n      jump\t// out\n        /* \"#utility.yul\":8903:9322   */\n    tag_209:\n        /* \"#utility.yul\":9069:9073   */\n      0x00\n        /* \"#utility.yul\":9107:9109   */\n      0x20\n        /* \"#utility.yul\":9096:9105   */\n      dup3\n        /* \"#utility.yul\":9092:9110   */\n      add\n        /* \"#utility.yul\":9084:9110   */\n      swap1\n      pop\n        /* \"#utility.yul\":9156:9165   */\n      dup2\n        /* \"#utility.yul\":9150:9154   */\n      dup2\n        /* \"#utility.yul\":9146:9166   */\n      sub\n        /* \"#utility.yul\":9142:9143   */\n      0x00\n        /* \"#utility.yul\":9131:9140   */\n      dup4\n        /* \"#utility.yul\":9127:9144   */\n      add\n        /* \"#utility.yul\":9120:9167   */\n      mstore\n        /* \"#utility.yul\":9184:9315   */\n      tag_406\n        /* \"#utility.yul\":9310:9314   */\n      dup2\n        /* \"#utility.yul\":9184:9315   */\n      tag_342\n      jump\t// in\n    tag_406:\n        /* \"#utility.yul\":9176:9315   */\n      swap1\n      pop\n        /* \"#utility.yul\":8903:9322   */\n      swap2\n      swap1\n      pop\n      jump\t// out\n        /* \"#utility.yul\":9328:9747   */\n    tag_173:\n        /* \"#utility.yul\":9494:9498   */\n      0x00\n        /* \"#utility.yul\":9532:9534   */\n      0x20\n        /* \"#utility.yul\":9521:9530   */\n      dup3\n        /* \"#utility.yul\":9517:9535   */\n      add\n        /* \"#utility.yul\":9509:9535   */\n      swap1\n      pop\n        /* \"#utility.yul\":9581:9590   */\n      dup2\n        /* \"#utility.yul\":9575:9579   */\n      dup2\n        /* \"#utility.yul\":9571:9591   */\n      sub\n        /* \"#utility.yul\":9567:9568   */\n      0x00\n        /* \"#utility.yul\":9556:9565   */\n      dup4\n        /* \"#utility.yul\":9552:9569   */\n      add\n        /* \"#utility.yul\":9545:9592   */\n      mstore\n        /* \"#utility.yul\":9609:9740   */\n      tag_408\n        /* \"#utility.yul\":9735:9739   */\n      dup2\n        /* \"#utility.yul\":9609:9740   */\n      tag_347\n      jump\t// in\n    tag_408:\n        /* \"#utility.yul\":9601:9740   */\n      swap1\n      pop\n        /* \"#utility.yul\":9328:9747   */\n      swap2\n      swap1\n      pop\n      jump\t// out\n        /* \"#utility.yul\":9753:10172   */\n    tag_86:\n        /* \"#utility.yul\":9919:9923   */\n      0x00\n        /* \"#utility.yul\":9957:9959   */\n      0x20\n        /* \"#utility.yul\":9946:9955   */\n      dup3\n        /* \"#utility.yul\":9942:9960   */\n      add\n        /* \"#utility.yul\":9934:9960   */\n      swap1\n      pop\n        /* \"#utility.yul\":10006:10015   */\n      dup2\n        /* \"#utility.yul\":10000:10004   */\n      dup2\n        /* \"#utility.yul\":9996:10016   */\n      sub\n        /* \"#utility.yul\":9992:9993   */\n      0x00\n        /* \"#utility.yul\":9981:9990   */\n      dup4\n        /* \"#utility.yul\":9977:9994   */\n      add\n        /* \"#utility.yul\":9970:10017   */\n      mstore\n        /* \"#utility.yul\":10034:10165   */\n      tag_410\n        /* \"#utility.yul\":10160:10164   */\n      dup2\n        /* \"#utility.yul\":10034:10165   */\n      tag_352\n      jump\t// in\n    tag_410:\n        /* \"#utility.yul\":10026:10165   */\n      swap1\n      pop\n        /* \"#utility.yul\":9753:10172   */\n      swap2\n      swap1\n      pop\n      jump\t// out\n        /* \"#utility.yul\":10178:10597   */\n    tag_152:\n        /* \"#utility.yul\":10344:10348   */\n      0x00\n        /* \"#utility.yul\":10382:10384   */\n      0x20\n        /* \"#utility.yul\":10371:10380   */\n      dup3\n        /* \"#utility.yul\":10367:10385   */\n      add\n        /* \"#utility.yul\":10359:10385   */\n      swap1\n      pop\n        /* \"#utility.yul\":10431:10440   */\n      dup2\n        /* \"#utility.yul\":10425:10429   */\n      dup2\n        /* \"#utility.yul\":10421:10441   */\n      sub\n        /* \"#utility.yul\":10417:10418   */\n      0x00\n        /* \"#utility.yul\":10406:10415   */\n      dup4\n        /* \"#utility.yul\":10402:10419   */\n      add\n        /* \"#utility.yul\":10395:10442   */\n      mstore\n        /* \"#utility.yul\":10459:10590   */\n      tag_412\n        /* \"#utility.yul\":10585:10589   */\n      dup2\n        /* \"#utility.yul\":10459:10590   */\n      tag_357\n      jump\t// in\n    tag_412:\n        /* \"#utility.yul\":10451:10590   */\n      swap1\n      pop\n        /* \"#utility.yul\":10178:10597   */\n      swap2\n      swap1\n      pop\n      jump\t// out\n        /* \"#utility.yul\":10603:11022   */\n    tag_169:\n        /* \"#utility.yul\":10769:10773   */\n      0x00\n        /* \"#utility.yul\":10807:10809   */\n      0x20\n        /* \"#utility.yul\":10796:10805   */\n      dup3\n        /* \"#utility.yul\":10792:10810   */\n      add\n        /* \"#utility.yul\":10784:10810   */\n      swap1\n      pop\n        /* \"#utility.yul\":10856:10865   */\n      dup2\n        /* \"#utility.yul\":10850:10854   */\n      dup2\n        /* \"#utility.yul\":10846:10866   */\n      sub\n        /* \"#utility.yul\":10842:10843   */\n      0x00\n        /* \"#utility.yul\":10831:10840   */\n      dup4\n        /* \"#utility.yul\":10827:10844   */\n      add\n        /* \"#utility.yul\":10820:10867   */\n      mstore\n        /* \"#utility.yul\":10884:11015   */\n      tag_414\n        /* \"#utility.yul\":11010:11014   */\n      dup2\n        /* \"#utility.yul\":10884:11015   */\n      tag_362\n      jump\t// in\n    tag_414:\n        /* \"#utility.yul\":10876:11015   */\n      swap1\n      pop\n        /* \"#utility.yul\":10603:11022   */\n      swap2\n      swap1\n      pop\n      jump\t// out\n        /* \"#utility.yul\":11028:11447   */\n    tag_158:\n        /* \"#utility.yul\":11194:11198   */\n      0x00\n        /* \"#utility.yul\":11232:11234   */\n      0x20\n        /* \"#utility.yul\":11221:11230   */\n      dup3\n        /* \"#utility.yul\":11217:11235   */\n      add\n        /* \"#utility.yul\":11209:11235   */\n      swap1\n      pop\n        /* \"#utility.yul\":11281:11290   */\n      dup2\n        /* \"#utility.yul\":11275:11279   */\n      dup2\n        /* \"#utility.yul\":11271:11291   */\n      sub\n        /* \"#utility.yul\":11267:11268   */\n      0x00\n        /* \"#utility.yul\":11256:11265   */\n      dup4\n        /* \"#utility.yul\":11252:11269   */\n      add\n        /* \"#utility.yul\":11245:11292   */\n      mstore\n        /* \"#utility.yul\":11309:11440   */\n      tag_416\n        /* \"#utility.yul\":11435:11439   */\n      dup2\n        /* \"#utility.yul\":11309:11440   */\n      tag_367\n      jump\t// in\n    tag_416:\n        /* \"#utility.yul\":11301:11440   */\n      swap1\n      pop\n        /* \"#utility.yul\":11028:11447   */\n      swap2\n      swap1\n      pop\n      jump\t// out\n        /* \"#utility.yul\":11453:11872   */\n    tag_90:\n        /* \"#utility.yul\":11619:11623   */\n      0x00\n        /* \"#utility.yul\":11657:11659   */\n      0x20\n        /* \"#utility.yul\":11646:11655   */\n      dup3\n        /* \"#utility.yul\":11642:11660   */\n      add\n        /* \"#utility.yul\":11634:11660   */\n      swap1\n      pop\n        /* \"#utility.yul\":11706:11715   */\n      dup2\n        /* \"#utility.yul\":11700:11704   */\n      dup2\n        /* \"#utility.yul\":11696:11716   */\n      sub\n        /* \"#utility.yul\":11692:11693   */\n      0x00\n        /* \"#utility.yul\":11681:11690   */\n      dup4\n        /* \"#utility.yul\":11677:11694   */\n      add\n        /* \"#utility.yul\":11670:11717   */\n      mstore\n        /* \"#utility.yul\":11734:11865   */\n      tag_418\n        /* \"#utility.yul\":11860:11864   */\n      dup2\n        /* \"#utility.yul\":11734:11865   */\n      tag_372\n      jump\t// in\n    tag_418:\n        /* \"#utility.yul\":11726:11865   */\n      swap1\n      pop\n        /* \"#utility.yul\":11453:11872   */\n      swap2\n      swap1\n      pop\n      jump\t// out\n        /* \"#utility.yul\":11878:12297   */\n    tag_155:\n        /* \"#utility.yul\":12044:12048   */\n      0x00\n        /* \"#utility.yul\":12082:12084   */\n      0x20\n        /* \"#utility.yul\":12071:12080   */\n      dup3\n        /* \"#utility.yul\":12067:12085   */\n      add\n        /* \"#utility.yul\":12059:12085   */\n      swap1\n      pop\n        /* \"#utility.yul\":12131:12140   */\n      dup2\n        /* \"#utility.yul\":12125:12129   */\n      dup2\n        /* \"#utility.yul\":12121:12141   */\n      sub\n        /* \"#utility.yul\":12117:12118   */\n      0x00\n        /* \"#utility.yul\":12106:12115   */\n      dup4\n        /* \"#utility.yul\":12102:12119   */\n      add\n        /* \"#utility.yul\":12095:12142   */\n      mstore\n        /* \"#utility.yul\":12159:12290   */\n      tag_420\n        /* \"#utility.yul\":12285:12289   */\n      dup2\n        /* \"#utility.yul\":12159:12290   */\n      tag_377\n      jump\t// in\n    tag_420:\n        /* \"#utility.yul\":12151:12290   */\n      swap1\n      pop\n        /* \"#utility.yul\":11878:12297   */\n      swap2\n      swap1\n      pop\n      jump\t// out\n        /* \"#utility.yul\":12303:12525   */\n    tag_62:\n        /* \"#utility.yul\":12396:12400   */\n      0x00\n        /* \"#utility.yul\":12434:12436   */\n      0x20\n        /* \"#utility.yul\":12423:12432   */\n      dup3\n        /* \"#utility.yul\":12419:12437   */\n      add\n        /* \"#utility.yul\":12411:12437   */\n      swap1\n      pop\n        /* \"#utility.yul\":12447:12518   */\n      tag_422\n        /* \"#utility.yul\":12515:12516   */\n      0x00\n        /* \"#utility.yul\":12504:12513   */\n      dup4\n        /* \"#utility.yul\":12500:12517   */\n      add\n        /* \"#utility.yul\":12491:12497   */\n      dup5\n        /* \"#utility.yul\":12447:12518   */\n      tag_385\n      jump\t// in\n    tag_422:\n        /* \"#utility.yul\":12303:12525   */\n      swap3\n      swap2\n      pop\n      pop\n      jump\t// out\n        /* \"#utility.yul\":12531:12660   */\n    tag_280:\n        /* \"#utility.yul\":12565:12571   */\n      0x00\n        /* \"#utility.yul\":12592:12612   */\n      tag_424\n      tag_425\n      jump\t// in\n    tag_424:\n        /* \"#utility.yul\":12582:12612   */\n      swap1\n      pop\n        /* \"#utility.yul\":12621:12654   */\n      tag_426\n        /* \"#utility.yul\":12649:12653   */\n      dup3\n        /* \"#utility.yul\":12641:12647   */\n      dup3\n        /* \"#utility.yul\":12621:12654   */\n      tag_427\n      jump\t// in\n    tag_426:\n        /* \"#utility.yul\":12531:12660   */\n      swap2\n      swap1\n      pop\n      jump\t// out\n        /* \"#utility.yul\":12666:12741   */\n    tag_425:\n        /* \"#utility.yul\":12699:12705   */\n      0x00\n        /* \"#utility.yul\":12732:12734   */\n      0x40\n        /* \"#utility.yul\":12726:12735   */\n      mload\n        /* \"#utility.yul\":12716:12735   */\n      swap1\n      pop\n        /* \"#utility.yul\":12666:12741   */\n      swap1\n      jump\t// out\n        /* \"#utility.yul\":12747:13058   */\n    tag_279:\n        /* \"#utility.yul\":12824:12828   */\n      0x00\n        /* \"#utility.yul\":12914:12932   */\n      0xffffffffffffffff\n        /* \"#utility.yul\":12906:12912   */\n      dup3\n        /* \"#utility.yul\":12903:12933   */\n      gt\n        /* \"#utility.yul\":12900:12956   */\n      iszero\n      tag_430\n      jumpi\n        /* \"#utility.yul\":12936:12954   */\n      tag_431\n      tag_104\n      jump\t// in\n    tag_431:\n        /* \"#utility.yul\":12900:12956   */\n    tag_430:\n        /* \"#utility.yul\":12986:12990   */\n      0x20\n        /* \"#utility.yul\":12978:12984   */\n      dup3\n        /* \"#utility.yul\":12974:12991   */\n      mul\n        /* \"#utility.yul\":12966:12991   */\n      swap1\n      pop\n        /* \"#utility.yul\":13046:13050   */\n      0x20\n        /* \"#utility.yul\":13040:13044   */\n      dup2\n        /* \"#utility.yul\":13036:13051   */\n      add\n        /* \"#utility.yul\":13028:13051   */\n      swap1\n      pop\n        /* \"#utility.yul\":12747:13058   */\n      swap2\n      swap1\n      pop\n      jump\t// out\n        /* \"#utility.yul\":13064:13196   */\n    tag_325:\n        /* \"#utility.yul\":13131:13135   */\n      0x00\n        /* \"#utility.yul\":13154:13157   */\n      dup2\n        /* \"#utility.yul\":13146:13157   */\n      swap1\n      pop\n        /* \"#utility.yul\":13184:13188   */\n      0x20\n        /* \"#utility.yul\":13179:13182   */\n      dup3\n        /* \"#utility.yul\":13175:13189   */\n      add\n        /* \"#utility.yul\":13167:13189   */\n      swap1\n      pop\n        /* \"#utility.yul\":13064:13196   */\n      swap2\n      swap1\n      pop\n      jump\t// out\n        /* \"#utility.yul\":13202:13316   */\n    tag_321:\n        /* \"#utility.yul\":13269:13275   */\n      0x00\n        /* \"#utility.yul\":13303:13308   */\n      dup2\n        /* \"#utility.yul\":13297:13309   */\n      mload\n        /* \"#utility.yul\":13287:13309   */\n      swap1\n      pop\n        /* \"#utility.yul\":13202:13316   */\n      swap2\n      swap1\n      pop\n      jump\t// out\n        /* \"#utility.yul\":13322:13435   */\n    tag_331:\n        /* \"#utility.yul\":13392:13396   */\n      0x00\n        /* \"#utility.yul\":13424:13428   */\n      0x20\n        /* \"#utility.yul\":13419:13422   */\n      dup3\n        /* \"#utility.yul\":13415:13429   */\n      add\n        /* \"#utility.yul\":13407:13429   */\n      swap1\n      pop\n        /* \"#utility.yul\":13322:13435   */\n      swap2\n      swap1\n      pop\n      jump\t// out\n        /* \"#utility.yul\":13441:13625   */\n    tag_323:\n        /* \"#utility.yul\":13540:13551   */\n      0x00\n        /* \"#utility.yul\":13574:13580   */\n      dup3\n        /* \"#utility.yul\":13569:13572   */\n      dup3\n        /* \"#utility.yul\":13562:13581   */\n      mstore\n        /* \"#utility.yul\":13614:13618   */\n      0x20\n        /* \"#utility.yul\":13609:13612   */\n      dup3\n        /* \"#utility.yul\":13605:13619   */\n      add\n        /* \"#utility.yul\":13590:13619   */\n      swap1\n      pop\n        /* \"#utility.yul\":13441:13625   */\n      swap3\n      swap2\n      pop\n      pop\n      jump\t// out\n        /* \"#utility.yul\":13631:13800   */\n    tag_339:\n        /* \"#utility.yul\":13715:13726   */\n      0x00\n        /* \"#utility.yul\":13749:13755   */\n      dup3\n        /* \"#utility.yul\":13744:13747   */\n      dup3\n        /* \"#utility.yul\":13737:13756   */\n      mstore\n        /* \"#utility.yul\":13789:13793   */\n      0x20\n        /* \"#utility.yul\":13784:13787   */\n      dup3\n        /* \"#utility.yul\":13780:13794   */\n      add\n        /* \"#utility.yul\":13765:13794   */\n      swap1\n      pop\n        /* \"#utility.yul\":13631:13800   */\n      swap3\n      swap2\n      pop\n      pop\n      jump\t// out\n        /* \"#utility.yul\":13806:14111   */\n    tag_177:\n        /* \"#utility.yul\":13846:13849   */\n      0x00\n        /* \"#utility.yul\":13865:13885   */\n      tag_438\n        /* \"#utility.yul\":13883:13884   */\n      dup3\n        /* \"#utility.yul\":13865:13885   */\n      tag_384\n      jump\t// in\n    tag_438:\n        /* \"#utility.yul\":13860:13885   */\n      swap2\n      pop\n        /* \"#utility.yul\":13899:13919   */\n      tag_439\n        /* \"#utility.yul\":13917:13918   */\n      dup4\n        /* \"#utility.yul\":13899:13919   */\n      tag_384\n      jump\t// in\n    tag_439:\n        /* \"#utility.yul\":13894:13919   */\n      swap3\n      pop\n        /* \"#utility.yul\":14053:14054   */\n      dup3\n        /* \"#utility.yul\":13985:14051   */\n      0xffffffffffffffffffffffffffffffffffffffffffffffffffffffffffffffff\n        /* \"#utility.yul\":13981:14055   */\n      sub\n        /* \"#utility.yul\":13978:13979   */\n      dup3\n        /* \"#utility.yul\":13975:14056   */\n      gt\n        /* \"#utility.yul\":13972:14079   */\n      iszero\n      tag_440\n      jumpi\n        /* \"#utility.yul\":14059:14077   */\n      tag_441\n      tag_442\n      jump\t// in\n    tag_441:\n        /* \"#utility.yul\":13972:14079   */\n    tag_440:\n        /* \"#utility.yul\":14103:14104   */\n      dup3\n        /* \"#utility.yul\":14100:14101   */\n      dup3\n        /* \"#utility.yul\":14096:14105   */\n      add\n        /* \"#utility.yul\":14089:14105   */\n      swap1\n      pop\n        /* \"#utility.yul\":13806:14111   */\n      swap3\n      swap2\n      pop\n      pop\n      jump\t// out\n        /* \"#utility.yul\":14117:14302   */\n    tag_184:\n        /* \"#utility.yul\":14157:14158   */\n      0x00\n        /* \"#utility.yul\":14174:14194   */\n      tag_444\n        /* \"#utility.yul\":14192:14193   */\n      dup3\n        /* \"#utility.yul\":14174:14194   */\n      tag_384\n      jump\t// in\n    tag_444:\n        /* \"#utility.yul\":14169:14194   */\n      swap2\n      pop\n        /* \"#utility.yul\":14208:14228   */\n      tag_445\n        /* \"#utility.yul\":14226:14227   */\n      dup4\n        /* \"#utility.yul\":14208:14228   */\n      tag_384\n      jump\t// in\n    tag_445:\n        /* \"#utility.yul\":14203:14228   */\n      swap3\n      pop\n        /* \"#utility.yul\":14247:14248   */\n      dup3\n        /* \"#utility.yul\":14237:14272   */\n      tag_446\n      jumpi\n        /* \"#utility.yul\":14252:14270   */\n      tag_447\n      tag_448\n      jump\t// in\n    tag_447:\n        /* \"#utility.yul\":14237:14272   */\n    tag_446:\n        /* \"#utility.yul\":14294:14295   */\n      dup3\n        /* \"#utility.yul\":14291:14292   */\n      dup3\n        /* \"#utility.yul\":14287:14296   */\n      div\n        /* \"#utility.yul\":14282:14296   */\n      swap1\n      pop\n        /* \"#utility.yul\":14117:14302   */\n      swap3\n      swap2\n      pop\n      pop\n      jump\t// out\n        /* \"#utility.yul\":14308:14656   */\n    tag_130:\n        /* \"#utility.yul\":14348:14355   */\n      0x00\n        /* \"#utility.yul\":14371:14391   */\n      tag_450\n        /* \"#utility.yul\":14389:14390   */\n      dup3\n        /* \"#utility.yul\":14371:14391   */\n      tag_384\n      jump\t// in\n    tag_450:\n        /* \"#utility.yul\":14366:14391   */\n      swap2\n      pop\n        /* \"#utility.yul\":14405:14425   */\n      tag_451\n        /* \"#utility.yul\":14423:14424   */\n      dup4\n        /* \"#utility.yul\":14405:14425   */\n      tag_384\n      jump\t// in\n    tag_451:\n        /* \"#utility.yul\":14400:14425   */\n      swap3\n      pop\n        /* \"#utility.yul\":14593:14594   */\n      dup2\n        /* \"#utility.yul\":14525:14591   */\n      0xffffffffffffffffffffffffffffffffffffffffffffffffffffffffffffffff\n        /* \"#utility.yul\":14521:14595   */\n      div\n        /* \"#utility.yul\":14518:14519   */\n      dup4\n        /* \"#utility.yul\":14515:14596   */\n      gt\n        /* \"#utility.yul\":14510:14511   */\n      dup3\n        /* \"#utility.yul\":14503:14512   */\n      iszero\n        /* \"#utility.yul\":14496:14513   */\n      iszero\n        /* \"#utility.yul\":14492:14597   */\n      and\n        /* \"#utility.yul\":14489:14620   */\n      iszero\n      tag_452\n      jumpi\n        /* \"#utility.yul\":14600:14618   */\n      tag_453\n      tag_442\n      jump\t// in\n    tag_453:\n        /* \"#utility.yul\":14489:14620   */\n    tag_452:\n        /* \"#utility.yul\":14648:14649   */\n      dup3\n        /* \"#utility.yul\":14645:14646   */\n      dup3\n        /* \"#utility.yul\":14641:14650   */\n      mul\n        /* \"#utility.yul\":14630:14650   */\n      swap1\n      pop\n        /* \"#utility.yul\":14308:14656   */\n      swap3\n      swap2\n      pop\n      pop\n      jump\t// out\n        /* \"#utility.yul\":14662:14853   */\n    tag_255:\n        /* \"#utility.yul\":14702:14706   */\n      0x00\n        /* \"#utility.yul\":14722:14742   */\n      tag_455\n        /* \"#utility.yul\":14740:14741   */\n      dup3\n        /* \"#utility.yul\":14722:14742   */\n      tag_384\n      jump\t// in\n    tag_455:\n        /* \"#utility.yul\":14717:14742   */\n      swap2\n      pop\n        /* \"#utility.yul\":14756:14776   */\n      tag_456\n        /* \"#utility.yul\":14774:14775   */\n      dup4\n        /* \"#utility.yul\":14756:14776   */\n      tag_384\n      jump\t// in\n    tag_456:\n        /* \"#utility.yul\":14751:14776   */\n      swap3\n      pop\n        /* \"#utility.yul\":14795:14796   */\n      dup3\n        /* \"#utility.yul\":14792:14793   */\n      dup3\n        /* \"#utility.yul\":14789:14797   */\n      lt\n        /* \"#utility.yul\":14786:14820   */\n      iszero\n      tag_457\n      jumpi\n        /* \"#utility.yul\":14800:14818   */\n      tag_458\n      tag_442\n      jump\t// in\n    tag_458:\n        /* \"#utility.yul\":14786:14820   */\n    tag_457:\n        /* \"#utility.yul\":14845:14846   */\n      dup3\n        /* \"#utility.yul\":14842:14843   */\n      dup3\n        /* \"#utility.yul\":14838:14847   */\n      sub\n        /* \"#utility.yul\":14830:14847   */\n      swap1\n      pop\n        /* \"#utility.yul\":14662:14853   */\n      swap3\n      swap2\n      pop\n      pop\n      jump\t// out\n        /* \"#utility.yul\":14859:14955   */\n    tag_317:\n        /* \"#utility.yul\":14896:14903   */\n      0x00\n        /* \"#utility.yul\":14925:14949   */\n      tag_460\n        /* \"#utility.yul\":14943:14948   */\n      dup3\n        /* \"#utility.yul\":14925:14949   */\n      tag_461\n      jump\t// in\n    tag_460:\n        /* \"#utility.yul\":14914:14949   */\n      swap1\n      pop\n        /* \"#utility.yul\":14859:14955   */\n      swap2\n      swap1\n      pop\n      jump\t// out\n        /* \"#utility.yul\":14961:15051   */\n    tag_335:\n        /* \"#utility.yul\":14995:15002   */\n      0x00\n        /* \"#utility.yul\":15038:15043   */\n      dup2\n        /* \"#utility.yul\":15031:15044   */\n      iszero\n        /* \"#utility.yul\":15024:15045   */\n      iszero\n        /* \"#utility.yul\":15013:15045   */\n      swap1\n      pop\n        /* \"#utility.yul\":14961:15051   */\n      swap2\n      swap1\n      pop\n      jump\t// out\n        /* \"#utility.yul\":15057:15183   */\n    tag_461:\n        /* \"#utility.yul\":15094:15101   */\n      0x00\n        /* \"#utility.yul\":15134:15176   */\n      0xffffffffffffffffffffffffffffffffffffffff\n        /* \"#utility.yul\":15127:15132   */\n      dup3\n        /* \"#utility.yul\":15123:15177   */\n      and\n        /* \"#utility.yul\":15112:15177   */\n      swap1\n      pop\n        /* \"#utility.yul\":15057:15183   */\n      swap2\n      swap1\n      pop\n      jump\t// out\n        /* \"#utility.yul\":15189:15266   */\n    tag_384:\n        /* \"#utility.yul\":15226:15233   */\n      0x00\n        /* \"#utility.yul\":15255:15260   */\n      dup2\n        /* \"#utility.yul\":15244:15260   */\n      swap1\n      pop\n        /* \"#utility.yul\":15189:15266   */\n      swap2\n      swap1\n      pop\n      jump\t// out\n        /* \"#utility.yul\":15272:15553   */\n    tag_427:\n        /* \"#utility.yul\":15355:15382   */\n      tag_466\n        /* \"#utility.yul\":15377:15381   */\n      dup3\n        /* \"#utility.yul\":15355:15382   */\n      tag_467\n      jump\t// in\n    tag_466:\n        /* \"#utility.yul\":15347:15353   */\n      dup2\n        /* \"#utility.yul\":15343:15383   */\n      add\n        /* \"#utility.yul\":15485:15491   */\n      dup2\n        /* \"#utility.yul\":15473:15483   */\n      dup2\n        /* \"#utility.yul\":15470:15492   */\n      lt\n        /* \"#utility.yul\":15449:15467   */\n      0xffffffffffffffff\n        /* \"#utility.yul\":15437:15447   */\n      dup3\n        /* \"#utility.yul\":15434:15468   */\n      gt\n        /* \"#utility.yul\":15431:15493   */\n      or\n        /* \"#utility.yul\":15428:15516   */\n      iszero\n      tag_468\n      jumpi\n        /* \"#utility.yul\":15496:15514   */\n      tag_469\n      tag_104\n      jump\t// in\n    tag_469:\n        /* \"#utility.yul\":15428:15516   */\n    tag_468:\n        /* \"#utility.yul\":15536:15546   */\n      dup1\n        /* \"#utility.yul\":15532:15534   */\n      0x40\n        /* \"#utility.yul\":15525:15547   */\n      mstore\n        /* \"#utility.yul\":15315:15553   */\n      pop\n        /* \"#utility.yul\":15272:15553   */\n      pop\n      pop\n      jump\t// out\n        /* \"#utility.yul\":15559:15792   */\n    tag_121:\n        /* \"#utility.yul\":15598:15601   */\n      0x00\n        /* \"#utility.yul\":15621:15645   */\n      tag_471\n        /* \"#utility.yul\":15639:15644   */\n      dup3\n        /* \"#utility.yul\":15621:15645   */\n      tag_384\n      jump\t// in\n    tag_471:\n        /* \"#utility.yul\":15612:15645   */\n      swap2\n      pop\n        /* \"#utility.yul\":15667:15733   */\n      0xffffffffffffffffffffffffffffffffffffffffffffffffffffffffffffffff\n        /* \"#utility.yul\":15660:15665   */\n      dup3\n        /* \"#utility.yul\":15657:15734   */\n      eq\n        /* \"#utility.yul\":15654:15757   */\n      iszero\n      tag_472\n      jumpi\n        /* \"#utility.yul\":15737:15755   */\n      tag_473\n      tag_442\n      jump\t// in\n    tag_473:\n        /* \"#utility.yul\":15654:15757   */\n    tag_472:\n        /* \"#utility.yul\":15784:15785   */\n      0x01\n        /* \"#utility.yul\":15777:15782   */\n      dup3\n        /* \"#utility.yul\":15773:15786   */\n      add\n        /* \"#utility.yul\":15766:15786   */\n      swap1\n      pop\n        /* \"#utility.yul\":15559:15792   */\n      swap2\n      swap1\n      pop\n      jump\t// out\n        /* \"#utility.yul\":15798:15877   */\n    tag_392:\n        /* \"#utility.yul\":15837:15844   */\n      0x00\n        /* \"#utility.yul\":15866:15871   */\n      dup2\n        /* \"#utility.yul\":15855:15871   */\n      swap1\n      pop\n        /* \"#utility.yul\":15798:15877   */\n      swap2\n      swap1\n      pop\n      jump\t// out\n        /* \"#utility.yul\":15883:16059   */\n    tag_114:\n        /* \"#utility.yul\":15915:15916   */\n      0x00\n        /* \"#utility.yul\":15932:15952   */\n      tag_476\n        /* \"#utility.yul\":15950:15951   */\n      dup3\n        /* \"#utility.yul\":15932:15952   */\n      tag_384\n      jump\t// in\n    tag_476:\n        /* \"#utility.yul\":15927:15952   */\n      swap2\n      pop\n        /* \"#utility.yul\":15966:15986   */\n      tag_477\n        /* \"#utility.yul\":15984:15985   */\n      dup4\n        /* \"#utility.yul\":15966:15986   */\n      tag_384\n      jump\t// in\n    tag_477:\n        /* \"#utility.yul\":15961:15986   */\n      swap3\n      pop\n        /* \"#utility.yul\":16005:16006   */\n      dup3\n        /* \"#utility.yul\":15995:16030   */\n      tag_478\n      jumpi\n        /* \"#utility.yul\":16010:16028   */\n      tag_479\n      tag_448\n      jump\t// in\n    tag_479:\n        /* \"#utility.yul\":15995:16030   */\n    tag_478:\n        /* \"#utility.yul\":16051:16052   */\n      dup3\n        /* \"#utility.yul\":16048:16049   */\n      dup3\n        /* \"#utility.yul\":16044:16053   */\n      mod\n        /* \"#utility.yul\":16039:16053   */\n      swap1\n      pop\n        /* \"#utility.yul\":15883:16059   */\n      swap3\n      swap2\n      pop\n      pop\n      jump\t// out\n        /* \"#utility.yul\":16065:16245   */\n    tag_442:\n        /* \"#utility.yul\":16113:16190   */\n      0x4e487b7100000000000000000000000000000000000000000000000000000000\n        /* \"#utility.yul\":16110:16111   */\n      0x00\n        /* \"#utility.yul\":16103:16191   */\n      mstore\n        /* \"#utility.yul\":16210:16214   */\n      0x11\n        /* \"#utility.yul\":16207:16208   */\n      0x04\n        /* \"#utility.yul\":16200:16215   */\n      mstore\n        /* \"#utility.yul\":16234:16238   */\n      0x24\n        /* \"#utility.yul\":16231:16232   */\n      0x00\n        /* \"#utility.yul\":16224:16239   */\n      revert\n        /* \"#utility.yul\":16251:16431   */\n    tag_448:\n        /* \"#utility.yul\":16299:16376   */\n      0x4e487b7100000000000000000000000000000000000000000000000000000000\n        /* \"#utility.yul\":16296:16297   */\n      0x00\n        /* \"#utility.yul\":16289:16377   */\n      mstore\n        /* \"#utility.yul\":16396:16400   */\n      0x12\n        /* \"#utility.yul\":16393:16394   */\n      0x04\n        /* \"#utility.yul\":16386:16401   */\n      mstore\n        /* \"#utility.yul\":16420:16424   */\n      0x24\n        /* \"#utility.yul\":16417:16418   */\n      0x00\n        /* \"#utility.yul\":16410:16425   */\n      revert\n        /* \"#utility.yul\":16437:16617   */\n    tag_118:\n        /* \"#utility.yul\":16485:16562   */\n      0x4e487b7100000000000000000000000000000000000000000000000000000000\n        /* \"#utility.yul\":16482:16483   */\n      0x00\n        /* \"#utility.yul\":16475:16563   */\n      mstore\n        /* \"#utility.yul\":16582:16586   */\n      0x32\n        /* \"#utility.yul\":16579:16580   */\n      0x04\n        /* \"#utility.yul\":16572:16587   */\n      mstore\n        /* \"#utility.yul\":16606:16610   */\n      0x24\n        /* \"#utility.yul\":16603:16604   */\n      0x00\n        /* \"#utility.yul\":16596:16611   */\n      revert\n        /* \"#utility.yul\":16623:16803   */\n    tag_104:\n        /* \"#utility.yul\":16671:16748   */\n      0x4e487b7100000000000000000000000000000000000000000000000000000000\n        /* \"#utility.yul\":16668:16669   */\n      0x00\n        /* \"#utility.yul\":16661:16749   */\n      mstore\n        /* \"#utility.yul\":16768:16772   */\n      0x41\n        /* \"#utility.yul\":16765:16766   */\n      0x04\n        /* \"#utility.yul\":16758:16773   */\n      mstore\n        /* \"#utility.yul\":16792:16796   */\n      0x24\n        /* \"#utility.yul\":16789:16790   */\n      0x00\n        /* \"#utility.yul\":16782:16797   */\n      revert\n        /* \"#utility.yul\":16809:16926   */\n    tag_293:\n        /* \"#utility.yul\":16918:16919   */\n      0x00\n        /* \"#utility.yul\":16915:16916   */\n      dup1\n        /* \"#utility.yul\":16908:16920   */\n      revert\n        /* \"#utility.yul\":16932:17049   */\n    tag_283:\n        /* \"#utility.yul\":17041:17042   */\n      0x00\n        /* \"#utility.yul\":17038:17039   */\n      dup1\n        /* \"#utility.yul\":17031:17043   */\n      revert\n        /* \"#utility.yul\":17055:17172   */\n    tag_304:\n        /* \"#utility.yul\":17164:17165   */\n      0x00\n        /* \"#utility.yul\":17161:17162   */\n      dup1\n        /* \"#utility.yul\":17154:17166   */\n      revert\n        /* \"#utility.yul\":17178:17295   */\n    tag_301:\n        /* \"#utility.yul\":17287:17288   */\n      0x00\n        /* \"#utility.yul\":17284:17285   */\n      dup1\n        /* \"#utility.yul\":17277:17289   */\n      revert\n        /* \"#utility.yul\":17301:17403   */\n    tag_467:\n        /* \"#utility.yul\":17342:17348   */\n      0x00\n        /* \"#utility.yul\":17393:17395   */\n      0x1f\n        /* \"#utility.yul\":17389:17396   */\n      not\n        /* \"#utility.yul\":17384:17386   */\n      0x1f\n        /* \"#utility.yul\":17377:17382   */\n      dup4\n        /* \"#utility.yul\":17373:17387   */\n      add\n        /* \"#utility.yul\":17369:17397   */\n      and\n        /* \"#utility.yul\":17359:17397   */\n      swap1\n      pop\n        /* \"#utility.yul\":17301:17403   */\n      swap2\n      swap1\n      pop\n      jump\t// out\n        /* \"#utility.yul\":17409:17579   */\n    tag_341:\n        /* \"#utility.yul\":17549:17571   */\n      0x4e6f20457468657220746f2070756c6c206f7574000000000000000000000000\n        /* \"#utility.yul\":17545:17546   */\n      0x00\n        /* \"#utility.yul\":17537:17543   */\n      dup3\n        /* \"#utility.yul\":17533:17547   */\n      add\n        /* \"#utility.yul\":17526:17572   */\n      mstore\n        /* \"#utility.yul\":17409:17579   */\n      pop\n      jump\t// out\n        /* \"#utility.yul\":17585:17752   */\n    tag_346:\n        /* \"#utility.yul\":17725:17744   */\n      0x4e6f207469636b65742077617320626f75000000000000000000000000000000\n        /* \"#utility.yul\":17721:17722   */\n      0x00\n        /* \"#utility.yul\":17713:17719   */\n      dup3\n        /* \"#utility.yul\":17709:17723   */\n      add\n        /* \"#utility.yul\":17702:17745   */\n      mstore\n        /* \"#utility.yul\":17585:17752   */\n      pop\n      jump\t// out\n        /* \"#utility.yul\":17758:17940   */\n    tag_351:\n        /* \"#utility.yul\":17898:17932   */\n      0x596f75206861766520616c726561647920626f756768742061207469636b6574\n        /* \"#utility.yul\":17894:17895   */\n      0x00\n        /* \"#utility.yul\":17886:17892   */\n      dup3\n        /* \"#utility.yul\":17882:17896   */\n      add\n        /* \"#utility.yul\":17875:17933   */\n      mstore\n        /* \"#utility.yul\":17758:17940   */\n      pop\n      jump\t// out\n        /* \"#utility.yul\":17946:18171   */\n    tag_356:\n        /* \"#utility.yul\":18086:18120   */\n      0x4f6e6c7920746865206f776e65722063616e20706572666f726d207468697320\n        /* \"#utility.yul\":18082:18083   */\n      0x00\n        /* \"#utility.yul\":18074:18080   */\n      dup3\n        /* \"#utility.yul\":18070:18084   */\n      add\n        /* \"#utility.yul\":18063:18121   */\n      mstore\n        /* \"#utility.yul\":18155:18163   */\n      0x616374696f6e0000000000000000000000000000000000000000000000000000\n        /* \"#utility.yul\":18150:18152   */\n      0x20\n        /* \"#utility.yul\":18142:18148   */\n      dup3\n        /* \"#utility.yul\":18138:18153   */\n      add\n        /* \"#utility.yul\":18131:18164   */\n      mstore\n        /* \"#utility.yul\":17946:18171   */\n      pop\n      jump\t// out\n        /* \"#utility.yul\":18177:18348   */\n    tag_361:\n        /* \"#utility.yul\":18317:18340   */\n      0x4e6f206c6f74746572792069732072756e6e696e670000000000000000000000\n        /* \"#utility.yul\":18313:18314   */\n      0x00\n        /* \"#utility.yul\":18305:18311   */\n      dup3\n        /* \"#utility.yul\":18301:18315   */\n      add\n        /* \"#utility.yul\":18294:18341   */\n      mstore\n        /* \"#utility.yul\":18177:18348   */\n      pop\n      jump\t// out\n        /* \"#utility.yul\":18354:18516   */\n    tag_366:\n        /* \"#utility.yul\":18494:18508   */\n      0x57726f6e67206e756d6265720000000000000000000000000000000000000000\n        /* \"#utility.yul\":18490:18491   */\n      0x00\n        /* \"#utility.yul\":18482:18488   */\n      dup3\n        /* \"#utility.yul\":18478:18492   */\n      add\n        /* \"#utility.yul\":18471:18509   */\n      mstore\n        /* \"#utility.yul\":18354:18516   */\n      pop\n      jump\t// out\n        /* \"#utility.yul\":18522:18695   */\n    tag_371:\n        /* \"#utility.yul\":18662:18687   */\n      0x57726f6e67206e756d626572206f66206e756d62657273000000000000000000\n        /* \"#utility.yul\":18658:18659   */\n      0x00\n        /* \"#utility.yul\":18650:18656   */\n      dup3\n        /* \"#utility.yul\":18646:18660   */\n      add\n        /* \"#utility.yul\":18639:18688   */\n      mstore\n        /* \"#utility.yul\":18522:18695   */\n      pop\n      jump\t// out\n        /* \"#utility.yul\":18701:18871   */\n    tag_376:\n        /* \"#utility.yul\":18841:18863   */\n      0x41206c6f74746572792069732072756e6e696e67000000000000000000000000\n        /* \"#utility.yul\":18837:18838   */\n      0x00\n        /* \"#utility.yul\":18829:18835   */\n      dup3\n        /* \"#utility.yul\":18825:18839   */\n      add\n        /* \"#utility.yul\":18818:18864   */\n      mstore\n        /* \"#utility.yul\":18701:18871   */\n      pop\n      jump\t// out\n        /* \"#utility.yul\":18877:19039   */\n    tag_381:\n        /* \"#utility.yul\":19017:19031   */\n      0x57726f6e6720616d6f756e740000000000000000000000000000000000000000\n        /* \"#utility.yul\":19013:19014   */\n      0x00\n        /* \"#utility.yul\":19005:19011   */\n      dup3\n        /* \"#utility.yul\":19001:19015   */\n      add\n        /* \"#utility.yul\":18994:19032   */\n      mstore\n        /* \"#utility.yul\":18877:19039   */\n      pop\n      jump\t// out\n        /* \"#utility.yul\":19045:19167   */\n    tag_297:\n        /* \"#utility.yul\":19118:19142   */\n      tag_499\n        /* \"#utility.yul\":19136:19141   */\n      dup2\n        /* \"#utility.yul\":19118:19142   */\n      tag_384\n      jump\t// in\n    tag_499:\n        /* \"#utility.yul\":19111:19116   */\n      dup2\n        /* \"#utility.yul\":19108:19143   */\n      eq\n        /* \"#utility.yul\":19098:19161   */\n      tag_500\n      jumpi\n        /* \"#utility.yul\":19157:19158   */\n      0x00\n        /* \"#utility.yul\":19154:19155   */\n      dup1\n        /* \"#utility.yul\":19147:19159   */\n      revert\n        /* \"#utility.yul\":19098:19161   */\n    tag_500:\n        /* \"#utility.yul\":19045:19167   */\n      pop\n      jump\t// out\n\n    auxdata: 0xa2646970667358221220afc01d7040525b2fa17ef2b94e038ed16b86778bc3354f5dd599aa40b0dbd69d64736f6c63430008070033\n}\n",
				"bytecode": {
					"linkReferences": {},
					"object": "6080604052674563918244f4000060035560006005556000600760006101000a81548160ff02191690831515021790555034801561003c57600080fd5b50336000806101000a81548173ffffffffffffffffffffffffffffffffffffffff021916908373ffffffffffffffffffffffffffffffffffffffff160217905550611fbe8061008c6000396000f3fe6080604052600436106100e85760003560e01c8063716cac961161008a5780638b0b9ed4116100595780638b0b9ed41461029d578063a1bb96a1146102c8578063a650fbab146102f3578063b04a3f1c1461031e576100e8565b8063716cac96146102005780637f17b05d1461021c57806387bb7ae0146102475780638a4a29c314610272576100e8565b8063472016da116100c6578063472016da146101445780634c75e3f1146101815780634efd7cca146101ac5780635a3811b9146101d5576100e8565b806330daec49146100ed57806336c1ec23146101045780634630a0ee1461011b575b600080fd5b3480156100f957600080fd5b50610102610335565b005b34801561011057600080fd5b506101196104d8565b005b34801561012757600080fd5b50610142600480360381019061013d919061164b565b6106d4565b005b34801561015057600080fd5b5061016b6004803603810190610166919061164b565b6107d5565b60405161017891906118b9565b60405180910390f35b34801561018d57600080fd5b50610196610814565b6040516101a391906118f6565b60405180910390f35b3480156101b857600080fd5b506101d360048036038101906101ce9190611602565b61082b565b005b3480156101e157600080fd5b506101ea61099b565b6040516101f791906118f6565b60405180910390f35b61021a60048036038101906102159190611602565b6109ae565b005b34801561022857600080fd5b50610231610ca2565b60405161023e91906118b9565b60405180910390f35b34801561025357600080fd5b5061025c610ccb565b6040516102699190611a31565b60405180910390f35b34801561027e57600080fd5b50610287610d3e565b6040516102949190611a31565b60405180910390f35b3480156102a957600080fd5b506102b2610db1565b6040516102bf91906118d4565b60405180910390f35b3480156102d457600080fd5b506102dd610eed565b6040516102ea9190611a31565b60405180910390f35b3480156102ff57600080fd5b50610308610ef7565b60405161031591906118d4565b60405180910390f35b34801561032a57600080fd5b50610333610f8c565b005b60008054906101000a900473ffffffffffffffffffffffffffffffffffffffff1673ffffffffffffffffffffffffffffffffffffffff163373ffffffffffffffffffffffffffffffffffffffff16146103c3576040517f08c379a00000000000000000000000000000000000000000000000000000000081526004016103ba90611971565b60405180910390fd5b60001515600760009054906101000a900460ff16151514610419576040517f08c379a0000000000000000000000000000000000000000000000000000000008152600401610410906119f1565b60405180910390fd5b60008060009054906101000a900473ffffffffffffffffffffffffffffffffffffffff169050600060045411610484576040517f08c379a000000000000000000000000000000000000000000000000000000000815260040161047b90611911565b60405180910390fd5b8073ffffffffffffffffffffffffffffffffffffffff166108fc6004549081150290604051600060405180830381858888f193505050501580156104cc573d6000803e3d6000fd5b50600060048190555050565b60008054906101000a900473ffffffffffffffffffffffffffffffffffffffff1673ffffffffffffffffffffffffffffffffffffffff163373ffffffffffffffffffffffffffffffffffffffff1614610566576040517f08c379a000000000000000000000000000000000000000000000000000000000815260040161055d90611971565b60405180910390fd5b60001515600760009054906101000a900460ff161515146105bc576040517f08c379a00000000000000000000000000000000000000000000000000000000081526004016105b3906119f1565b60405180910390fd5b6001600760006101000a81548160ff021916908315150217905550600667ffffffffffffffff8111156105f2576105f1611d86565b5b6040519080825280602002602001820160405280156106205781602001602082028036833780820191505090505b506001908051906020019061063692919061143a565b506000805b60068110156106d0576000600a44428460405160200161065d9392919061187c565b6040516020818303038152906040528051906020012060001c6106809190611cc8565b9050600081146106bc57806001848154811061069f5761069e611d57565b5b906000526020600020018190555082806106b890611c75565b9350505b5080806106c890611c75565b91505061063b565b5050565b60008054906101000a900473ffffffffffffffffffffffffffffffffffffffff1673ffffffffffffffffffffffffffffffffffffffff163373ffffffffffffffffffffffffffffffffffffffff1614610762576040517f08c379a000000000000000000000000000000000000000000000000000000000815260040161075990611971565b60405180910390fd5b60001515600760009054906101000a900460ff161515146107b8576040517f08c379a00000000000000000000000000000000000000000000000000000000081526004016107af906119f1565b60405180910390fd5b670de0b6b3a7640000816107cc9190611b6e565b60038190555050565b600681815481106107e557600080fd5b906000526020600020016000915054906101000a900473ffffffffffffffffffffffffffffffffffffffff1681565b6000600760009054906101000a900460ff16905090565b60008054906101000a900473ffffffffffffffffffffffffffffffffffffffff1673ffffffffffffffffffffffffffffffffffffffff163373ffffffffffffffffffffffffffffffffffffffff16146108b9576040517f08c379a00000000000000000000000000000000000000000000000000000000081526004016108b090611971565b60405180910390fd5b600760009054906101000a900460ff16156108d357600080fd5b60008054906101000a900473ffffffffffffffffffffffffffffffffffffffff1673ffffffffffffffffffffffffffffffffffffffff163373ffffffffffffffffffffffffffffffffffffffff161461092b57600080fd5b600681511461093957600080fd5b60005b815181101561098057600982828151811061095a57610959611d57565b5b6020026020010151111561096d57600080fd5b808061097890611c75565b91505061093c565b50806001908051906020019061099792919061143a565b5050565b600760009054906101000a900460ff1681565b60011515600760009054906101000a900460ff16151514610a04576040517f08c379a00000000000000000000000000000000000000000000000000000000081526004016109fb90611991565b60405180910390fd5b6003543414610a48576040517f08c379a0000000000000000000000000000000000000000000000000000000008152600401610a3f90611a11565b60405180910390fd5b6006815114610a8c576040517f08c379a0000000000000000000000000000000000000000000000000000000008152600401610a83906119d1565b60405180910390fd5b60005b8151811015610b2f57600a828281518110610aad57610aac611d57565b5b6020026020010151108015610add57506000828281518110610ad257610ad1611d57565b5b602002602001015110155b610b1c576040517f08c379a0000000000000000000000000000000000000000000000000000000008152600401610b13906119b1565b60405180910390fd5b8080610b2790611c75565b915050610a8f565b506000600260003373ffffffffffffffffffffffffffffffffffffffff1673ffffffffffffffffffffffffffffffffffffffff1681526020019081526020016000208054905014610bb5576040517f08c379a0000000000000000000000000000000000000000000000000000000008152600401610bac90611951565b60405180910390fd5b80600260003373ffffffffffffffffffffffffffffffffffffffff1673ffffffffffffffffffffffffffffffffffffffff1681526020019081526020016000209080519060200190610c0892919061143a565b506006339080600181540180825580915050600190039060005260206000200160009091909190916101000a81548173ffffffffffffffffffffffffffffffffffffffff021916908373ffffffffffffffffffffffffffffffffffffffff1602179055503460046000828254610c7e9190611ae7565b92505081905550600160056000828254610c989190611ae7565b9250508190555050565b60008060009054906101000a900473ffffffffffffffffffffffffffffffffffffffff16905090565b600060011515600760009054906101000a900460ff16151514610d23576040517f08c379a0000000000000000000000000000000000000000000000000000000008152600401610d1a90611991565b60405180910390fd5b670de0b6b3a7640000600354610d399190611b3d565b905090565b600060011515600760009054906101000a900460ff16151514610d96576040517f08c379a0000000000000000000000000000000000000000000000000000000008152600401610d8d90611991565b60405180910390fd5b670de0b6b3a7640000600454610dac9190611b3d565b905090565b606060008054906101000a900473ffffffffffffffffffffffffffffffffffffffff1673ffffffffffffffffffffffffffffffffffffffff163373ffffffffffffffffffffffffffffffffffffffff1614610e41576040517f08c379a0000000000000000000000000000000000000000000000000000000008152600401610e3890611971565b60405180910390fd5b60011515600760009054906101000a900460ff16151514610e97576040517f08c379a0000000000000000000000000000000000000000000000000000000008152600401610e8e90611991565b60405180910390fd5b6001805480602002602001604051908101604052809291908181526020018280548015610ee357602002820191906000526020600020905b815481526020019060010190808311610ecf575b5050505050905090565b6000600554905090565b6060600260003373ffffffffffffffffffffffffffffffffffffffff1673ffffffffffffffffffffffffffffffffffffffff168152602001908152602001600020805480602002602001604051908101604052809291908181526020018280548015610f8257602002820191906000526020600020905b815481526020019060010190808311610f6e575b5050505050905090565b60008054906101000a900473ffffffffffffffffffffffffffffffffffffffff1673ffffffffffffffffffffffffffffffffffffffff163373ffffffffffffffffffffffffffffffffffffffff161461101a576040517f08c379a000000000000000000000000000000000000000000000000000000000815260040161101190611971565b60405180910390fd5b60011515600760009054906101000a900460ff16151514611070576040517f08c379a000000000000000000000000000000000000000000000000000000000815260040161106790611991565b60405180910390fd5b6000600554116110b5576040517f08c379a00000000000000000000000000000000000000000000000000000000081526004016110ac90611931565b60405180910390fd5b600080600080600080600090505b6006805490508110156113925760005b6001805490508110156111ca57600181815481106110f4576110f3611d57565b5b9060005260206000200154600260006006858154811061111757611116611d57565b5b9060005260206000200160009054906101000a900473ffffffffffffffffffffffffffffffffffffffff1673ffffffffffffffffffffffffffffffffffffffff1673ffffffffffffffffffffffffffffffffffffffff168152602001908152602001600020828154811061118e5761118d611d57565b5b906000526020600020015414156111b25786806111aa90611c75565b9750506111b7565b6111ca565b80806111c290611c75565b9150506110d3565b5060026000600683815481106111e3576111e2611d57565b5b9060005260206000200160009054906101000a900473ffffffffffffffffffffffffffffffffffffffff1673ffffffffffffffffffffffffffffffffffffffff1673ffffffffffffffffffffffffffffffffffffffff16815260200190815260200160002060006112549190611487565b600186141561126657600294506112c1565b600286141561127857600394506112c0565b600386141561128a57600594506112bf565b600486141561129c57600a94506112be565b60058614156112ae57601494506112bd565b60068614156112bc57602894505b5b5b5b5b5b6064856004546112d19190611b6e565b6112db9190611b3d565b935083836112e99190611ae7565b9250600681815481106112ff576112fe611d57565b5b9060005260206000200160009054906101000a900473ffffffffffffffffffffffffffffffffffffffff1691508173ffffffffffffffffffffffffffffffffffffffff166108fc859081150290604051600060405180830381858888f19350505050158015611372573d6000803e3d6000fd5b50600095506000945060009350808061138a90611c75565b9150506110c3565b50600060058190555081600460008282546113ad9190611bc8565b92505081905550600067ffffffffffffffff8111156113cf576113ce611d86565b5b6040519080825280602002602001820160405280156113fd5781602001602082028036833780820191505090505b50600690805190602001906114139291906114a8565b50600090506000600760006101000a81548160ff0219169083151502179055505050505050565b828054828255906000526020600020908101928215611476579160200282015b8281111561147557825182559160200191906001019061145a565b5b5090506114839190611532565b5090565b50805460008255906000526020600020908101906114a59190611532565b50565b828054828255906000526020600020908101928215611521579160200282015b828111156115205782518260006101000a81548173ffffffffffffffffffffffffffffffffffffffff021916908373ffffffffffffffffffffffffffffffffffffffff160217905550916020019190600101906114c8565b5b50905061152e9190611532565b5090565b5b8082111561154b576000816000905550600101611533565b5090565b600061156261155d84611a71565b611a4c565b9050808382526020820190508285602086028201111561158557611584611dba565b5b60005b858110156115b5578161159b88826115ed565b845260208401935060208301925050600181019050611588565b5050509392505050565b600082601f8301126115d4576115d3611db5565b5b81356115e484826020860161154f565b91505092915050565b6000813590506115fc81611f71565b92915050565b60006020828403121561161857611617611dc4565b5b600082013567ffffffffffffffff81111561163657611635611dbf565b5b611642848285016115bf565b91505092915050565b60006020828403121561166157611660611dc4565b5b600061166f848285016115ed565b91505092915050565b60006116848383611847565b60208301905092915050565b61169981611bfc565b82525050565b60006116aa82611aad565b6116b48185611ac5565b93506116bf83611a9d565b8060005b838110156116f05781516116d78882611678565b97506116e283611ab8565b9250506001810190506116c3565b5085935050505092915050565b61170681611c0e565b82525050565b6000611719601483611ad6565b915061172482611dda565b602082019050919050565b600061173c601183611ad6565b915061174782611e03565b602082019050919050565b600061175f602083611ad6565b915061176a82611e2c565b602082019050919050565b6000611782602683611ad6565b915061178d82611e55565b604082019050919050565b60006117a5601583611ad6565b91506117b082611ea4565b602082019050919050565b60006117c8600c83611ad6565b91506117d382611ecd565b602082019050919050565b60006117eb601783611ad6565b91506117f682611ef6565b602082019050919050565b600061180e601483611ad6565b915061181982611f1f565b602082019050919050565b6000611831600c83611ad6565b915061183c82611f48565b602082019050919050565b61185081611c3a565b82525050565b61185f81611c3a565b82525050565b61187661187182611c3a565b611cbe565b82525050565b60006118888286611865565b6020820191506118988285611865565b6020820191506118a88284611865565b602082019150819050949350505050565b60006020820190506118ce6000830184611690565b92915050565b600060208201905081810360008301526118ee818461169f565b905092915050565b600060208201905061190b60008301846116fd565b92915050565b6000602082019050818103600083015261192a8161170c565b9050919050565b6000602082019050818103600083015261194a8161172f565b9050919050565b6000602082019050818103600083015261196a81611752565b9050919050565b6000602082019050818103600083015261198a81611775565b9050919050565b600060208201905081810360008301526119aa81611798565b9050919050565b600060208201905081810360008301526119ca816117bb565b9050919050565b600060208201905081810360008301526119ea816117de565b9050919050565b60006020820190508181036000830152611a0a81611801565b9050919050565b60006020820190508181036000830152611a2a81611824565b9050919050565b6000602082019050611a466000830184611856565b92915050565b6000611a56611a67565b9050611a628282611c44565b919050565b6000604051905090565b600067ffffffffffffffff821115611a8c57611a8b611d86565b5b602082029050602081019050919050565b6000819050602082019050919050565b600081519050919050565b6000602082019050919050565b600082825260208201905092915050565b600082825260208201905092915050565b6000611af282611c3a565b9150611afd83611c3a565b9250827fffffffffffffffffffffffffffffffffffffffffffffffffffffffffffffffff03821115611b3257611b31611cf9565b5b828201905092915050565b6000611b4882611c3a565b9150611b5383611c3a565b925082611b6357611b62611d28565b5b828204905092915050565b6000611b7982611c3a565b9150611b8483611c3a565b9250817fffffffffffffffffffffffffffffffffffffffffffffffffffffffffffffffff0483118215151615611bbd57611bbc611cf9565b5b828202905092915050565b6000611bd382611c3a565b9150611bde83611c3a565b925082821015611bf157611bf0611cf9565b5b828203905092915050565b6000611c0782611c1a565b9050919050565b60008115159050919050565b600073ffffffffffffffffffffffffffffffffffffffff82169050919050565b6000819050919050565b611c4d82611dc9565b810181811067ffffffffffffffff82111715611c6c57611c6b611d86565b5b80604052505050565b6000611c8082611c3a565b91507fffffffffffffffffffffffffffffffffffffffffffffffffffffffffffffffff821415611cb357611cb2611cf9565b5b600182019050919050565b6000819050919050565b6000611cd382611c3a565b9150611cde83611c3a565b925082611cee57611ced611d28565b5b828206905092915050565b7f4e487b7100000000000000000000000000000000000000000000000000000000600052601160045260246000fd5b7f4e487b7100000000000000000000000000000000000000000000000000000000600052601260045260246000fd5b7f4e487b7100000000000000000000000000000000000000000000000000000000600052603260045260246000fd5b7f4e487b7100000000000000000000000000000000000000000000000000000000600052604160045260246000fd5b600080fd5b600080fd5b600080fd5b600080fd5b6000601f19601f8301169050919050565b7f4e6f20457468657220746f2070756c6c206f7574000000000000000000000000600082015250565b7f4e6f207469636b65742077617320626f75000000000000000000000000000000600082015250565b7f596f75206861766520616c726561647920626f756768742061207469636b6574600082015250565b7f4f6e6c7920746865206f776e65722063616e20706572666f726d20746869732060008201527f616374696f6e0000000000000000000000000000000000000000000000000000602082015250565b7f4e6f206c6f74746572792069732072756e6e696e670000000000000000000000600082015250565b7f57726f6e67206e756d6265720000000000000000000000000000000000000000600082015250565b7f57726f6e67206e756d626572206f66206e756d62657273000000000000000000600082015250565b7f41206c6f74746572792069732072756e6e696e67000000000000000000000000600082015250565b7f57726f6e6720616d6f756e740000000000000000000000000000000000000000600082015250565b611f7a81611c3a565b8114611f8557600080fd5b5056fea2646970667358221220afc01d7040525b2fa17ef2b94e038ed16b86778bc3354f5dd599aa40b0dbd69d64736f6c63430008070033",
					"opcodes": "PUSH1 0x80 PUSH1 0x40 MSTORE PUSH8 0x4563918244F40000 PUSH1 0x3 SSTORE PUSH1 0x0 PUSH1 0x5 SSTORE PUSH1 0x0 PUSH1 0x7 PUSH1 0x0 PUSH2 0x100 EXP DUP2 SLOAD DUP2 PUSH1 0xFF MUL NOT AND SWAP1 DUP4 ISZERO ISZERO MUL OR SWAP1 SSTORE POP CALLVALUE DUP1 ISZERO PUSH2 0x3C JUMPI PUSH1 0x0 DUP1 REVERT JUMPDEST POP CALLER PUSH1 0x0 DUP1 PUSH2 0x100 EXP DUP2 SLOAD DUP2 PUSH20 0xFFFFFFFFFFFFFFFFFFFFFFFFFFFFFFFFFFFFFFFF MUL NOT AND SWAP1 DUP4 PUSH20 0xFFFFFFFFFFFFFFFFFFFFFFFFFFFFFFFFFFFFFFFF AND MUL OR SWAP1 SSTORE POP PUSH2 0x1FBE DUP1 PUSH2 0x8C PUSH1 0x0 CODECOPY PUSH1 0x0 RETURN INVALID PUSH1 0x80 PUSH1 0x40 MSTORE PUSH1 0x4 CALLDATASIZE LT PUSH2 0xE8 JUMPI PUSH1 0x0 CALLDATALOAD PUSH1 0xE0 SHR DUP1 PUSH4 0x716CAC96 GT PUSH2 0x8A JUMPI DUP1 PUSH4 0x8B0B9ED4 GT PUSH2 0x59 JUMPI DUP1 PUSH4 0x8B0B9ED4 EQ PUSH2 0x29D JUMPI DUP1 PUSH4 0xA1BB96A1 EQ PUSH2 0x2C8 JUMPI DUP1 PUSH4 0xA650FBAB EQ PUSH2 0x2F3 JUMPI DUP1 PUSH4 0xB04A3F1C EQ PUSH2 0x31E JUMPI PUSH2 0xE8 JUMP JUMPDEST DUP1 PUSH4 0x716CAC96 EQ PUSH2 0x200 JUMPI DUP1 PUSH4 0x7F17B05D EQ PUSH2 0x21C JUMPI DUP1 PUSH4 0x87BB7AE0 EQ PUSH2 0x247 JUMPI DUP1 PUSH4 0x8A4A29C3 EQ PUSH2 0x272 JUMPI PUSH2 0xE8 JUMP JUMPDEST DUP1 PUSH4 0x472016DA GT PUSH2 0xC6 JUMPI DUP1 PUSH4 0x472016DA EQ PUSH2 0x144 JUMPI DUP1 PUSH4 0x4C75E3F1 EQ PUSH2 0x181 JUMPI DUP1 PUSH4 0x4EFD7CCA EQ PUSH2 0x1AC JUMPI DUP1 PUSH4 0x5A3811B9 EQ PUSH2 0x1D5 JUMPI PUSH2 0xE8 JUMP JUMPDEST DUP1 PUSH4 0x30DAEC49 EQ PUSH2 0xED JUMPI DUP1 PUSH4 0x36C1EC23 EQ PUSH2 0x104 JUMPI DUP1 PUSH4 0x4630A0EE EQ PUSH2 0x11B JUMPI JUMPDEST PUSH1 0x0 DUP1 REVERT JUMPDEST CALLVALUE DUP1 ISZERO PUSH2 0xF9 JUMPI PUSH1 0x0 DUP1 REVERT JUMPDEST POP PUSH2 0x102 PUSH2 0x335 JUMP JUMPDEST STOP JUMPDEST CALLVALUE DUP1 ISZERO PUSH2 0x110 JUMPI PUSH1 0x0 DUP1 REVERT JUMPDEST POP PUSH2 0x119 PUSH2 0x4D8 JUMP JUMPDEST STOP JUMPDEST CALLVALUE DUP1 ISZERO PUSH2 0x127 JUMPI PUSH1 0x0 DUP1 REVERT JUMPDEST POP PUSH2 0x142 PUSH1 0x4 DUP1 CALLDATASIZE SUB DUP2 ADD SWAP1 PUSH2 0x13D SWAP2 SWAP1 PUSH2 0x164B JUMP JUMPDEST PUSH2 0x6D4 JUMP JUMPDEST STOP JUMPDEST CALLVALUE DUP1 ISZERO PUSH2 0x150 JUMPI PUSH1 0x0 DUP1 REVERT JUMPDEST POP PUSH2 0x16B PUSH1 0x4 DUP1 CALLDATASIZE SUB DUP2 ADD SWAP1 PUSH2 0x166 SWAP2 SWAP1 PUSH2 0x164B JUMP JUMPDEST PUSH2 0x7D5 JUMP JUMPDEST PUSH1 0x40 MLOAD PUSH2 0x178 SWAP2 SWAP1 PUSH2 0x18B9 JUMP JUMPDEST PUSH1 0x40 MLOAD DUP1 SWAP2 SUB SWAP1 RETURN JUMPDEST CALLVALUE DUP1 ISZERO PUSH2 0x18D JUMPI PUSH1 0x0 DUP1 REVERT JUMPDEST POP PUSH2 0x196 PUSH2 0x814 JUMP JUMPDEST PUSH1 0x40 MLOAD PUSH2 0x1A3 SWAP2 SWAP1 PUSH2 0x18F6 JUMP JUMPDEST PUSH1 0x40 MLOAD DUP1 SWAP2 SUB SWAP1 RETURN JUMPDEST CALLVALUE DUP1 ISZERO PUSH2 0x1B8 JUMPI PUSH1 0x0 DUP1 REVERT JUMPDEST POP PUSH2 0x1D3 PUSH1 0x4 DUP1 CALLDATASIZE SUB DUP2 ADD SWAP1 PUSH2 0x1CE SWAP2 SWAP1 PUSH2 0x1602 JUMP JUMPDEST PUSH2 0x82B JUMP JUMPDEST STOP JUMPDEST CALLVALUE DUP1 ISZERO PUSH2 0x1E1 JUMPI PUSH1 0x0 DUP1 REVERT JUMPDEST POP PUSH2 0x1EA PUSH2 0x99B JUMP JUMPDEST PUSH1 0x40 MLOAD PUSH2 0x1F7 SWAP2 SWAP1 PUSH2 0x18F6 JUMP JUMPDEST PUSH1 0x40 MLOAD DUP1 SWAP2 SUB SWAP1 RETURN JUMPDEST PUSH2 0x21A PUSH1 0x4 DUP1 CALLDATASIZE SUB DUP2 ADD SWAP1 PUSH2 0x215 SWAP2 SWAP1 PUSH2 0x1602 JUMP JUMPDEST PUSH2 0x9AE JUMP JUMPDEST STOP JUMPDEST CALLVALUE DUP1 ISZERO PUSH2 0x228 JUMPI PUSH1 0x0 DUP1 REVERT JUMPDEST POP PUSH2 0x231 PUSH2 0xCA2 JUMP JUMPDEST PUSH1 0x40 MLOAD PUSH2 0x23E SWAP2 SWAP1 PUSH2 0x18B9 JUMP JUMPDEST PUSH1 0x40 MLOAD DUP1 SWAP2 SUB SWAP1 RETURN JUMPDEST CALLVALUE DUP1 ISZERO PUSH2 0x253 JUMPI PUSH1 0x0 DUP1 REVERT JUMPDEST POP PUSH2 0x25C PUSH2 0xCCB JUMP JUMPDEST PUSH1 0x40 MLOAD PUSH2 0x269 SWAP2 SWAP1 PUSH2 0x1A31 JUMP JUMPDEST PUSH1 0x40 MLOAD DUP1 SWAP2 SUB SWAP1 RETURN JUMPDEST CALLVALUE DUP1 ISZERO PUSH2 0x27E JUMPI PUSH1 0x0 DUP1 REVERT JUMPDEST POP PUSH2 0x287 PUSH2 0xD3E JUMP JUMPDEST PUSH1 0x40 MLOAD PUSH2 0x294 SWAP2 SWAP1 PUSH2 0x1A31 JUMP JUMPDEST PUSH1 0x40 MLOAD DUP1 SWAP2 SUB SWAP1 RETURN JUMPDEST CALLVALUE DUP1 ISZERO PUSH2 0x2A9 JUMPI PUSH1 0x0 DUP1 REVERT JUMPDEST POP PUSH2 0x2B2 PUSH2 0xDB1 JUMP JUMPDEST PUSH1 0x40 MLOAD PUSH2 0x2BF SWAP2 SWAP1 PUSH2 0x18D4 JUMP JUMPDEST PUSH1 0x40 MLOAD DUP1 SWAP2 SUB SWAP1 RETURN JUMPDEST CALLVALUE DUP1 ISZERO PUSH2 0x2D4 JUMPI PUSH1 0x0 DUP1 REVERT JUMPDEST POP PUSH2 0x2DD PUSH2 0xEED JUMP JUMPDEST PUSH1 0x40 MLOAD PUSH2 0x2EA SWAP2 SWAP1 PUSH2 0x1A31 JUMP JUMPDEST PUSH1 0x40 MLOAD DUP1 SWAP2 SUB SWAP1 RETURN JUMPDEST CALLVALUE DUP1 ISZERO PUSH2 0x2FF JUMPI PUSH1 0x0 DUP1 REVERT JUMPDEST POP PUSH2 0x308 PUSH2 0xEF7 JUMP JUMPDEST PUSH1 0x40 MLOAD PUSH2 0x315 SWAP2 SWAP1 PUSH2 0x18D4 JUMP JUMPDEST PUSH1 0x40 MLOAD DUP1 SWAP2 SUB SWAP1 RETURN JUMPDEST CALLVALUE DUP1 ISZERO PUSH2 0x32A JUMPI PUSH1 0x0 DUP1 REVERT JUMPDEST POP PUSH2 0x333 PUSH2 0xF8C JUMP JUMPDEST STOP JUMPDEST PUSH1 0x0 DUP1 SLOAD SWAP1 PUSH2 0x100 EXP SWAP1 DIV PUSH20 0xFFFFFFFFFFFFFFFFFFFFFFFFFFFFFFFFFFFFFFFF AND PUSH20 0xFFFFFFFFFFFFFFFFFFFFFFFFFFFFFFFFFFFFFFFF AND CALLER PUSH20 0xFFFFFFFFFFFFFFFFFFFFFFFFFFFFFFFFFFFFFFFF AND EQ PUSH2 0x3C3 JUMPI PUSH1 0x40 MLOAD PUSH32 0x8C379A000000000000000000000000000000000000000000000000000000000 DUP2 MSTORE PUSH1 0x4 ADD PUSH2 0x3BA SWAP1 PUSH2 0x1971 JUMP JUMPDEST PUSH1 0x40 MLOAD DUP1 SWAP2 SUB SWAP1 REVERT JUMPDEST PUSH1 0x0 ISZERO ISZERO PUSH1 0x7 PUSH1 0x0 SWAP1 SLOAD SWAP1 PUSH2 0x100 EXP SWAP1 DIV PUSH1 0xFF AND ISZERO ISZERO EQ PUSH2 0x419 JUMPI PUSH1 0x40 MLOAD PUSH32 0x8C379A000000000000000000000000000000000000000000000000000000000 DUP2 MSTORE PUSH1 0x4 ADD PUSH2 0x410 SWAP1 PUSH2 0x19F1 JUMP JUMPDEST PUSH1 0x40 MLOAD DUP1 SWAP2 SUB SWAP1 REVERT JUMPDEST PUSH1 0x0 DUP1 PUSH1 0x0 SWAP1 SLOAD SWAP1 PUSH2 0x100 EXP SWAP1 DIV PUSH20 0xFFFFFFFFFFFFFFFFFFFFFFFFFFFFFFFFFFFFFFFF AND SWAP1 POP PUSH1 0x0 PUSH1 0x4 SLOAD GT PUSH2 0x484 JUMPI PUSH1 0x40 MLOAD PUSH32 0x8C379A000000000000000000000000000000000000000000000000000000000 DUP2 MSTORE PUSH1 0x4 ADD PUSH2 0x47B SWAP1 PUSH2 0x1911 JUMP JUMPDEST PUSH1 0x40 MLOAD DUP1 SWAP2 SUB SWAP1 REVERT JUMPDEST DUP1 PUSH20 0xFFFFFFFFFFFFFFFFFFFFFFFFFFFFFFFFFFFFFFFF AND PUSH2 0x8FC PUSH1 0x4 SLOAD SWAP1 DUP2 ISZERO MUL SWAP1 PUSH1 0x40 MLOAD PUSH1 0x0 PUSH1 0x40 MLOAD DUP1 DUP4 SUB DUP2 DUP6 DUP9 DUP9 CALL SWAP4 POP POP POP POP ISZERO DUP1 ISZERO PUSH2 0x4CC JUMPI RETURNDATASIZE PUSH1 0x0 DUP1 RETURNDATACOPY RETURNDATASIZE PUSH1 0x0 REVERT JUMPDEST POP PUSH1 0x0 PUSH1 0x4 DUP2 SWAP1 SSTORE POP POP JUMP JUMPDEST PUSH1 0x0 DUP1 SLOAD SWAP1 PUSH2 0x100 EXP SWAP1 DIV PUSH20 0xFFFFFFFFFFFFFFFFFFFFFFFFFFFFFFFFFFFFFFFF AND PUSH20 0xFFFFFFFFFFFFFFFFFFFFFFFFFFFFFFFFFFFFFFFF AND CALLER PUSH20 0xFFFFFFFFFFFFFFFFFFFFFFFFFFFFFFFFFFFFFFFF AND EQ PUSH2 0x566 JUMPI PUSH1 0x40 MLOAD PUSH32 0x8C379A000000000000000000000000000000000000000000000000000000000 DUP2 MSTORE PUSH1 0x4 ADD PUSH2 0x55D SWAP1 PUSH2 0x1971 JUMP JUMPDEST PUSH1 0x40 MLOAD DUP1 SWAP2 SUB SWAP1 REVERT JUMPDEST PUSH1 0x0 ISZERO ISZERO PUSH1 0x7 PUSH1 0x0 SWAP1 SLOAD SWAP1 PUSH2 0x100 EXP SWAP1 DIV PUSH1 0xFF AND ISZERO ISZERO EQ PUSH2 0x5BC JUMPI PUSH1 0x40 MLOAD PUSH32 0x8C379A000000000000000000000000000000000000000000000000000000000 DUP2 MSTORE PUSH1 0x4 ADD PUSH2 0x5B3 SWAP1 PUSH2 0x19F1 JUMP JUMPDEST PUSH1 0x40 MLOAD DUP1 SWAP2 SUB SWAP1 REVERT JUMPDEST PUSH1 0x1 PUSH1 0x7 PUSH1 0x0 PUSH2 0x100 EXP DUP2 SLOAD DUP2 PUSH1 0xFF MUL NOT AND SWAP1 DUP4 ISZERO ISZERO MUL OR SWAP1 SSTORE POP PUSH1 0x6 PUSH8 0xFFFFFFFFFFFFFFFF DUP2 GT ISZERO PUSH2 0x5F2 JUMPI PUSH2 0x5F1 PUSH2 0x1D86 JUMP JUMPDEST JUMPDEST PUSH1 0x40 MLOAD SWAP1 DUP1 DUP3 MSTORE DUP1 PUSH1 0x20 MUL PUSH1 0x20 ADD DUP3 ADD PUSH1 0x40 MSTORE DUP1 ISZERO PUSH2 0x620 JUMPI DUP2 PUSH1 0x20 ADD PUSH1 0x20 DUP3 MUL DUP1 CALLDATASIZE DUP4 CALLDATACOPY DUP1 DUP3 ADD SWAP2 POP POP SWAP1 POP JUMPDEST POP PUSH1 0x1 SWAP1 DUP1 MLOAD SWAP1 PUSH1 0x20 ADD SWAP1 PUSH2 0x636 SWAP3 SWAP2 SWAP1 PUSH2 0x143A JUMP JUMPDEST POP PUSH1 0x0 DUP1 JUMPDEST PUSH1 0x6 DUP2 LT ISZERO PUSH2 0x6D0 JUMPI PUSH1 0x0 PUSH1 0xA DIFFICULTY TIMESTAMP DUP5 PUSH1 0x40 MLOAD PUSH1 0x20 ADD PUSH2 0x65D SWAP4 SWAP3 SWAP2 SWAP1 PUSH2 0x187C JUMP JUMPDEST PUSH1 0x40 MLOAD PUSH1 0x20 DUP2 DUP4 SUB SUB DUP2 MSTORE SWAP1 PUSH1 0x40 MSTORE DUP1 MLOAD SWAP1 PUSH1 0x20 ADD KECCAK256 PUSH1 0x0 SHR PUSH2 0x680 SWAP2 SWAP1 PUSH2 0x1CC8 JUMP JUMPDEST SWAP1 POP PUSH1 0x0 DUP2 EQ PUSH2 0x6BC JUMPI DUP1 PUSH1 0x1 DUP5 DUP2 SLOAD DUP2 LT PUSH2 0x69F JUMPI PUSH2 0x69E PUSH2 0x1D57 JUMP JUMPDEST JUMPDEST SWAP1 PUSH1 0x0 MSTORE PUSH1 0x20 PUSH1 0x0 KECCAK256 ADD DUP2 SWAP1 SSTORE POP DUP3 DUP1 PUSH2 0x6B8 SWAP1 PUSH2 0x1C75 JUMP JUMPDEST SWAP4 POP POP JUMPDEST POP DUP1 DUP1 PUSH2 0x6C8 SWAP1 PUSH2 0x1C75 JUMP JUMPDEST SWAP2 POP POP PUSH2 0x63B JUMP JUMPDEST POP POP JUMP JUMPDEST PUSH1 0x0 DUP1 SLOAD SWAP1 PUSH2 0x100 EXP SWAP1 DIV PUSH20 0xFFFFFFFFFFFFFFFFFFFFFFFFFFFFFFFFFFFFFFFF AND PUSH20 0xFFFFFFFFFFFFFFFFFFFFFFFFFFFFFFFFFFFFFFFF AND CALLER PUSH20 0xFFFFFFFFFFFFFFFFFFFFFFFFFFFFFFFFFFFFFFFF AND EQ PUSH2 0x762 JUMPI PUSH1 0x40 MLOAD PUSH32 0x8C379A000000000000000000000000000000000000000000000000000000000 DUP2 MSTORE PUSH1 0x4 ADD PUSH2 0x759 SWAP1 PUSH2 0x1971 JUMP JUMPDEST PUSH1 0x40 MLOAD DUP1 SWAP2 SUB SWAP1 REVERT JUMPDEST PUSH1 0x0 ISZERO ISZERO PUSH1 0x7 PUSH1 0x0 SWAP1 SLOAD SWAP1 PUSH2 0x100 EXP SWAP1 DIV PUSH1 0xFF AND ISZERO ISZERO EQ PUSH2 0x7B8 JUMPI PUSH1 0x40 MLOAD PUSH32 0x8C379A000000000000000000000000000000000000000000000000000000000 DUP2 MSTORE PUSH1 0x4 ADD PUSH2 0x7AF SWAP1 PUSH2 0x19F1 JUMP JUMPDEST PUSH1 0x40 MLOAD DUP1 SWAP2 SUB SWAP1 REVERT JUMPDEST PUSH8 0xDE0B6B3A7640000 DUP2 PUSH2 0x7CC SWAP2 SWAP1 PUSH2 0x1B6E JUMP JUMPDEST PUSH1 0x3 DUP2 SWAP1 SSTORE POP POP JUMP JUMPDEST PUSH1 0x6 DUP2 DUP2 SLOAD DUP2 LT PUSH2 0x7E5 JUMPI PUSH1 0x0 DUP1 REVERT JUMPDEST SWAP1 PUSH1 0x0 MSTORE PUSH1 0x20 PUSH1 0x0 KECCAK256 ADD PUSH1 0x0 SWAP2 POP SLOAD SWAP1 PUSH2 0x100 EXP SWAP1 DIV PUSH20 0xFFFFFFFFFFFFFFFFFFFFFFFFFFFFFFFFFFFFFFFF AND DUP2 JUMP JUMPDEST PUSH1 0x0 PUSH1 0x7 PUSH1 0x0 SWAP1 SLOAD SWAP1 PUSH2 0x100 EXP SWAP1 DIV PUSH1 0xFF AND SWAP1 POP SWAP1 JUMP JUMPDEST PUSH1 0x0 DUP1 SLOAD SWAP1 PUSH2 0x100 EXP SWAP1 DIV PUSH20 0xFFFFFFFFFFFFFFFFFFFFFFFFFFFFFFFFFFFFFFFF AND PUSH20 0xFFFFFFFFFFFFFFFFFFFFFFFFFFFFFFFFFFFFFFFF AND CALLER PUSH20 0xFFFFFFFFFFFFFFFFFFFFFFFFFFFFFFFFFFFFFFFF AND EQ PUSH2 0x8B9 JUMPI PUSH1 0x40 MLOAD PUSH32 0x8C379A000000000000000000000000000000000000000000000000000000000 DUP2 MSTORE PUSH1 0x4 ADD PUSH2 0x8B0 SWAP1 PUSH2 0x1971 JUMP JUMPDEST PUSH1 0x40 MLOAD DUP1 SWAP2 SUB SWAP1 REVERT JUMPDEST PUSH1 0x7 PUSH1 0x0 SWAP1 SLOAD SWAP1 PUSH2 0x100 EXP SWAP1 DIV PUSH1 0xFF AND ISZERO PUSH2 0x8D3 JUMPI PUSH1 0x0 DUP1 REVERT JUMPDEST PUSH1 0x0 DUP1 SLOAD SWAP1 PUSH2 0x100 EXP SWAP1 DIV PUSH20 0xFFFFFFFFFFFFFFFFFFFFFFFFFFFFFFFFFFFFFFFF AND PUSH20 0xFFFFFFFFFFFFFFFFFFFFFFFFFFFFFFFFFFFFFFFF AND CALLER PUSH20 0xFFFFFFFFFFFFFFFFFFFFFFFFFFFFFFFFFFFFFFFF AND EQ PUSH2 0x92B JUMPI PUSH1 0x0 DUP1 REVERT JUMPDEST PUSH1 0x6 DUP2 MLOAD EQ PUSH2 0x939 JUMPI PUSH1 0x0 DUP1 REVERT JUMPDEST PUSH1 0x0 JUMPDEST DUP2 MLOAD DUP2 LT ISZERO PUSH2 0x980 JUMPI PUSH1 0x9 DUP3 DUP3 DUP2 MLOAD DUP2 LT PUSH2 0x95A JUMPI PUSH2 0x959 PUSH2 0x1D57 JUMP JUMPDEST JUMPDEST PUSH1 0x20 MUL PUSH1 0x20 ADD ADD MLOAD GT ISZERO PUSH2 0x96D JUMPI PUSH1 0x0 DUP1 REVERT JUMPDEST DUP1 DUP1 PUSH2 0x978 SWAP1 PUSH2 0x1C75 JUMP JUMPDEST SWAP2 POP POP PUSH2 0x93C JUMP JUMPDEST POP DUP1 PUSH1 0x1 SWAP1 DUP1 MLOAD SWAP1 PUSH1 0x20 ADD SWAP1 PUSH2 0x997 SWAP3 SWAP2 SWAP1 PUSH2 0x143A JUMP JUMPDEST POP POP JUMP JUMPDEST PUSH1 0x7 PUSH1 0x0 SWAP1 SLOAD SWAP1 PUSH2 0x100 EXP SWAP1 DIV PUSH1 0xFF AND DUP2 JUMP JUMPDEST PUSH1 0x1 ISZERO ISZERO PUSH1 0x7 PUSH1 0x0 SWAP1 SLOAD SWAP1 PUSH2 0x100 EXP SWAP1 DIV PUSH1 0xFF AND ISZERO ISZERO EQ PUSH2 0xA04 JUMPI PUSH1 0x40 MLOAD PUSH32 0x8C379A000000000000000000000000000000000000000000000000000000000 DUP2 MSTORE PUSH1 0x4 ADD PUSH2 0x9FB SWAP1 PUSH2 0x1991 JUMP JUMPDEST PUSH1 0x40 MLOAD DUP1 SWAP2 SUB SWAP1 REVERT JUMPDEST PUSH1 0x3 SLOAD CALLVALUE EQ PUSH2 0xA48 JUMPI PUSH1 0x40 MLOAD PUSH32 0x8C379A000000000000000000000000000000000000000000000000000000000 DUP2 MSTORE PUSH1 0x4 ADD PUSH2 0xA3F SWAP1 PUSH2 0x1A11 JUMP JUMPDEST PUSH1 0x40 MLOAD DUP1 SWAP2 SUB SWAP1 REVERT JUMPDEST PUSH1 0x6 DUP2 MLOAD EQ PUSH2 0xA8C JUMPI PUSH1 0x40 MLOAD PUSH32 0x8C379A000000000000000000000000000000000000000000000000000000000 DUP2 MSTORE PUSH1 0x4 ADD PUSH2 0xA83 SWAP1 PUSH2 0x19D1 JUMP JUMPDEST PUSH1 0x40 MLOAD DUP1 SWAP2 SUB SWAP1 REVERT JUMPDEST PUSH1 0x0 JUMPDEST DUP2 MLOAD DUP2 LT ISZERO PUSH2 0xB2F JUMPI PUSH1 0xA DUP3 DUP3 DUP2 MLOAD DUP2 LT PUSH2 0xAAD JUMPI PUSH2 0xAAC PUSH2 0x1D57 JUMP JUMPDEST JUMPDEST PUSH1 0x20 MUL PUSH1 0x20 ADD ADD MLOAD LT DUP1 ISZERO PUSH2 0xADD JUMPI POP PUSH1 0x0 DUP3 DUP3 DUP2 MLOAD DUP2 LT PUSH2 0xAD2 JUMPI PUSH2 0xAD1 PUSH2 0x1D57 JUMP JUMPDEST JUMPDEST PUSH1 0x20 MUL PUSH1 0x20 ADD ADD MLOAD LT ISZERO JUMPDEST PUSH2 0xB1C JUMPI PUSH1 0x40 MLOAD PUSH32 0x8C379A000000000000000000000000000000000000000000000000000000000 DUP2 MSTORE PUSH1 0x4 ADD PUSH2 0xB13 SWAP1 PUSH2 0x19B1 JUMP JUMPDEST PUSH1 0x40 MLOAD DUP1 SWAP2 SUB SWAP1 REVERT JUMPDEST DUP1 DUP1 PUSH2 0xB27 SWAP1 PUSH2 0x1C75 JUMP JUMPDEST SWAP2 POP POP PUSH2 0xA8F JUMP JUMPDEST POP PUSH1 0x0 PUSH1 0x2 PUSH1 0x0 CALLER PUSH20 0xFFFFFFFFFFFFFFFFFFFFFFFFFFFFFFFFFFFFFFFF AND PUSH20 0xFFFFFFFFFFFFFFFFFFFFFFFFFFFFFFFFFFFFFFFF AND DUP2 MSTORE PUSH1 0x20 ADD SWAP1 DUP2 MSTORE PUSH1 0x20 ADD PUSH1 0x0 KECCAK256 DUP1 SLOAD SWAP1 POP EQ PUSH2 0xBB5 JUMPI PUSH1 0x40 MLOAD PUSH32 0x8C379A000000000000000000000000000000000000000000000000000000000 DUP2 MSTORE PUSH1 0x4 ADD PUSH2 0xBAC SWAP1 PUSH2 0x1951 JUMP JUMPDEST PUSH1 0x40 MLOAD DUP1 SWAP2 SUB SWAP1 REVERT JUMPDEST DUP1 PUSH1 0x2 PUSH1 0x0 CALLER PUSH20 0xFFFFFFFFFFFFFFFFFFFFFFFFFFFFFFFFFFFFFFFF AND PUSH20 0xFFFFFFFFFFFFFFFFFFFFFFFFFFFFFFFFFFFFFFFF AND DUP2 MSTORE PUSH1 0x20 ADD SWAP1 DUP2 MSTORE PUSH1 0x20 ADD PUSH1 0x0 KECCAK256 SWAP1 DUP1 MLOAD SWAP1 PUSH1 0x20 ADD SWAP1 PUSH2 0xC08 SWAP3 SWAP2 SWAP1 PUSH2 0x143A JUMP JUMPDEST POP PUSH1 0x6 CALLER SWAP1 DUP1 PUSH1 0x1 DUP2 SLOAD ADD DUP1 DUP3 SSTORE DUP1 SWAP2 POP POP PUSH1 0x1 SWAP1 SUB SWAP1 PUSH1 0x0 MSTORE PUSH1 0x20 PUSH1 0x0 KECCAK256 ADD PUSH1 0x0 SWAP1 SWAP2 SWAP1 SWAP2 SWAP1 SWAP2 PUSH2 0x100 EXP DUP2 SLOAD DUP2 PUSH20 0xFFFFFFFFFFFFFFFFFFFFFFFFFFFFFFFFFFFFFFFF MUL NOT AND SWAP1 DUP4 PUSH20 0xFFFFFFFFFFFFFFFFFFFFFFFFFFFFFFFFFFFFFFFF AND MUL OR SWAP1 SSTORE POP CALLVALUE PUSH1 0x4 PUSH1 0x0 DUP3 DUP3 SLOAD PUSH2 0xC7E SWAP2 SWAP1 PUSH2 0x1AE7 JUMP JUMPDEST SWAP3 POP POP DUP2 SWAP1 SSTORE POP PUSH1 0x1 PUSH1 0x5 PUSH1 0x0 DUP3 DUP3 SLOAD PUSH2 0xC98 SWAP2 SWAP1 PUSH2 0x1AE7 JUMP JUMPDEST SWAP3 POP POP DUP2 SWAP1 SSTORE POP POP JUMP JUMPDEST PUSH1 0x0 DUP1 PUSH1 0x0 SWAP1 SLOAD SWAP1 PUSH2 0x100 EXP SWAP1 DIV PUSH20 0xFFFFFFFFFFFFFFFFFFFFFFFFFFFFFFFFFFFFFFFF AND SWAP1 POP SWAP1 JUMP JUMPDEST PUSH1 0x0 PUSH1 0x1 ISZERO ISZERO PUSH1 0x7 PUSH1 0x0 SWAP1 SLOAD SWAP1 PUSH2 0x100 EXP SWAP1 DIV PUSH1 0xFF AND ISZERO ISZERO EQ PUSH2 0xD23 JUMPI PUSH1 0x40 MLOAD PUSH32 0x8C379A000000000000000000000000000000000000000000000000000000000 DUP2 MSTORE PUSH1 0x4 ADD PUSH2 0xD1A SWAP1 PUSH2 0x1991 JUMP JUMPDEST PUSH1 0x40 MLOAD DUP1 SWAP2 SUB SWAP1 REVERT JUMPDEST PUSH8 0xDE0B6B3A7640000 PUSH1 0x3 SLOAD PUSH2 0xD39 SWAP2 SWAP1 PUSH2 0x1B3D JUMP JUMPDEST SWAP1 POP SWAP1 JUMP JUMPDEST PUSH1 0x0 PUSH1 0x1 ISZERO ISZERO PUSH1 0x7 PUSH1 0x0 SWAP1 SLOAD SWAP1 PUSH2 0x100 EXP SWAP1 DIV PUSH1 0xFF AND ISZERO ISZERO EQ PUSH2 0xD96 JUMPI PUSH1 0x40 MLOAD PUSH32 0x8C379A000000000000000000000000000000000000000000000000000000000 DUP2 MSTORE PUSH1 0x4 ADD PUSH2 0xD8D SWAP1 PUSH2 0x1991 JUMP JUMPDEST PUSH1 0x40 MLOAD DUP1 SWAP2 SUB SWAP1 REVERT JUMPDEST PUSH8 0xDE0B6B3A7640000 PUSH1 0x4 SLOAD PUSH2 0xDAC SWAP2 SWAP1 PUSH2 0x1B3D JUMP JUMPDEST SWAP1 POP SWAP1 JUMP JUMPDEST PUSH1 0x60 PUSH1 0x0 DUP1 SLOAD SWAP1 PUSH2 0x100 EXP SWAP1 DIV PUSH20 0xFFFFFFFFFFFFFFFFFFFFFFFFFFFFFFFFFFFFFFFF AND PUSH20 0xFFFFFFFFFFFFFFFFFFFFFFFFFFFFFFFFFFFFFFFF AND CALLER PUSH20 0xFFFFFFFFFFFFFFFFFFFFFFFFFFFFFFFFFFFFFFFF AND EQ PUSH2 0xE41 JUMPI PUSH1 0x40 MLOAD PUSH32 0x8C379A000000000000000000000000000000000000000000000000000000000 DUP2 MSTORE PUSH1 0x4 ADD PUSH2 0xE38 SWAP1 PUSH2 0x1971 JUMP JUMPDEST PUSH1 0x40 MLOAD DUP1 SWAP2 SUB SWAP1 REVERT JUMPDEST PUSH1 0x1 ISZERO ISZERO PUSH1 0x7 PUSH1 0x0 SWAP1 SLOAD SWAP1 PUSH2 0x100 EXP SWAP1 DIV PUSH1 0xFF AND ISZERO ISZERO EQ PUSH2 0xE97 JUMPI PUSH1 0x40 MLOAD PUSH32 0x8C379A000000000000000000000000000000000000000000000000000000000 DUP2 MSTORE PUSH1 0x4 ADD PUSH2 0xE8E SWAP1 PUSH2 0x1991 JUMP JUMPDEST PUSH1 0x40 MLOAD DUP1 SWAP2 SUB SWAP1 REVERT JUMPDEST PUSH1 0x1 DUP1 SLOAD DUP1 PUSH1 0x20 MUL PUSH1 0x20 ADD PUSH1 0x40 MLOAD SWAP1 DUP2 ADD PUSH1 0x40 MSTORE DUP1 SWAP3 SWAP2 SWAP1 DUP2 DUP2 MSTORE PUSH1 0x20 ADD DUP3 DUP1 SLOAD DUP1 ISZERO PUSH2 0xEE3 JUMPI PUSH1 0x20 MUL DUP3 ADD SWAP2 SWAP1 PUSH1 0x0 MSTORE PUSH1 0x20 PUSH1 0x0 KECCAK256 SWAP1 JUMPDEST DUP2 SLOAD DUP2 MSTORE PUSH1 0x20 ADD SWAP1 PUSH1 0x1 ADD SWAP1 DUP1 DUP4 GT PUSH2 0xECF JUMPI JUMPDEST POP POP POP POP POP SWAP1 POP SWAP1 JUMP JUMPDEST PUSH1 0x0 PUSH1 0x5 SLOAD SWAP1 POP SWAP1 JUMP JUMPDEST PUSH1 0x60 PUSH1 0x2 PUSH1 0x0 CALLER PUSH20 0xFFFFFFFFFFFFFFFFFFFFFFFFFFFFFFFFFFFFFFFF AND PUSH20 0xFFFFFFFFFFFFFFFFFFFFFFFFFFFFFFFFFFFFFFFF AND DUP2 MSTORE PUSH1 0x20 ADD SWAP1 DUP2 MSTORE PUSH1 0x20 ADD PUSH1 0x0 KECCAK256 DUP1 SLOAD DUP1 PUSH1 0x20 MUL PUSH1 0x20 ADD PUSH1 0x40 MLOAD SWAP1 DUP2 ADD PUSH1 0x40 MSTORE DUP1 SWAP3 SWAP2 SWAP1 DUP2 DUP2 MSTORE PUSH1 0x20 ADD DUP3 DUP1 SLOAD DUP1 ISZERO PUSH2 0xF82 JUMPI PUSH1 0x20 MUL DUP3 ADD SWAP2 SWAP1 PUSH1 0x0 MSTORE PUSH1 0x20 PUSH1 0x0 KECCAK256 SWAP1 JUMPDEST DUP2 SLOAD DUP2 MSTORE PUSH1 0x20 ADD SWAP1 PUSH1 0x1 ADD SWAP1 DUP1 DUP4 GT PUSH2 0xF6E JUMPI JUMPDEST POP POP POP POP POP SWAP1 POP SWAP1 JUMP JUMPDEST PUSH1 0x0 DUP1 SLOAD SWAP1 PUSH2 0x100 EXP SWAP1 DIV PUSH20 0xFFFFFFFFFFFFFFFFFFFFFFFFFFFFFFFFFFFFFFFF AND PUSH20 0xFFFFFFFFFFFFFFFFFFFFFFFFFFFFFFFFFFFFFFFF AND CALLER PUSH20 0xFFFFFFFFFFFFFFFFFFFFFFFFFFFFFFFFFFFFFFFF AND EQ PUSH2 0x101A JUMPI PUSH1 0x40 MLOAD PUSH32 0x8C379A000000000000000000000000000000000000000000000000000000000 DUP2 MSTORE PUSH1 0x4 ADD PUSH2 0x1011 SWAP1 PUSH2 0x1971 JUMP JUMPDEST PUSH1 0x40 MLOAD DUP1 SWAP2 SUB SWAP1 REVERT JUMPDEST PUSH1 0x1 ISZERO ISZERO PUSH1 0x7 PUSH1 0x0 SWAP1 SLOAD SWAP1 PUSH2 0x100 EXP SWAP1 DIV PUSH1 0xFF AND ISZERO ISZERO EQ PUSH2 0x1070 JUMPI PUSH1 0x40 MLOAD PUSH32 0x8C379A000000000000000000000000000000000000000000000000000000000 DUP2 MSTORE PUSH1 0x4 ADD PUSH2 0x1067 SWAP1 PUSH2 0x1991 JUMP JUMPDEST PUSH1 0x40 MLOAD DUP1 SWAP2 SUB SWAP1 REVERT JUMPDEST PUSH1 0x0 PUSH1 0x5 SLOAD GT PUSH2 0x10B5 JUMPI PUSH1 0x40 MLOAD PUSH32 0x8C379A000000000000000000000000000000000000000000000000000000000 DUP2 MSTORE PUSH1 0x4 ADD PUSH2 0x10AC SWAP1 PUSH2 0x1931 JUMP JUMPDEST PUSH1 0x40 MLOAD DUP1 SWAP2 SUB SWAP1 REVERT JUMPDEST PUSH1 0x0 DUP1 PUSH1 0x0 DUP1 PUSH1 0x0 DUP1 PUSH1 0x0 SWAP1 POP JUMPDEST PUSH1 0x6 DUP1 SLOAD SWAP1 POP DUP2 LT ISZERO PUSH2 0x1392 JUMPI PUSH1 0x0 JUMPDEST PUSH1 0x1 DUP1 SLOAD SWAP1 POP DUP2 LT ISZERO PUSH2 0x11CA JUMPI PUSH1 0x1 DUP2 DUP2 SLOAD DUP2 LT PUSH2 0x10F4 JUMPI PUSH2 0x10F3 PUSH2 0x1D57 JUMP JUMPDEST JUMPDEST SWAP1 PUSH1 0x0 MSTORE PUSH1 0x20 PUSH1 0x0 KECCAK256 ADD SLOAD PUSH1 0x2 PUSH1 0x0 PUSH1 0x6 DUP6 DUP2 SLOAD DUP2 LT PUSH2 0x1117 JUMPI PUSH2 0x1116 PUSH2 0x1D57 JUMP JUMPDEST JUMPDEST SWAP1 PUSH1 0x0 MSTORE PUSH1 0x20 PUSH1 0x0 KECCAK256 ADD PUSH1 0x0 SWAP1 SLOAD SWAP1 PUSH2 0x100 EXP SWAP1 DIV PUSH20 0xFFFFFFFFFFFFFFFFFFFFFFFFFFFFFFFFFFFFFFFF AND PUSH20 0xFFFFFFFFFFFFFFFFFFFFFFFFFFFFFFFFFFFFFFFF AND PUSH20 0xFFFFFFFFFFFFFFFFFFFFFFFFFFFFFFFFFFFFFFFF AND DUP2 MSTORE PUSH1 0x20 ADD SWAP1 DUP2 MSTORE PUSH1 0x20 ADD PUSH1 0x0 KECCAK256 DUP3 DUP2 SLOAD DUP2 LT PUSH2 0x118E JUMPI PUSH2 0x118D PUSH2 0x1D57 JUMP JUMPDEST JUMPDEST SWAP1 PUSH1 0x0 MSTORE PUSH1 0x20 PUSH1 0x0 KECCAK256 ADD SLOAD EQ ISZERO PUSH2 0x11B2 JUMPI DUP7 DUP1 PUSH2 0x11AA SWAP1 PUSH2 0x1C75 JUMP JUMPDEST SWAP8 POP POP PUSH2 0x11B7 JUMP JUMPDEST PUSH2 0x11CA JUMP JUMPDEST DUP1 DUP1 PUSH2 0x11C2 SWAP1 PUSH2 0x1C75 JUMP JUMPDEST SWAP2 POP POP PUSH2 0x10D3 JUMP JUMPDEST POP PUSH1 0x2 PUSH1 0x0 PUSH1 0x6 DUP4 DUP2 SLOAD DUP2 LT PUSH2 0x11E3 JUMPI PUSH2 0x11E2 PUSH2 0x1D57 JUMP JUMPDEST JUMPDEST SWAP1 PUSH1 0x0 MSTORE PUSH1 0x20 PUSH1 0x0 KECCAK256 ADD PUSH1 0x0 SWAP1 SLOAD SWAP1 PUSH2 0x100 EXP SWAP1 DIV PUSH20 0xFFFFFFFFFFFFFFFFFFFFFFFFFFFFFFFFFFFFFFFF AND PUSH20 0xFFFFFFFFFFFFFFFFFFFFFFFFFFFFFFFFFFFFFFFF AND PUSH20 0xFFFFFFFFFFFFFFFFFFFFFFFFFFFFFFFFFFFFFFFF AND DUP2 MSTORE PUSH1 0x20 ADD SWAP1 DUP2 MSTORE PUSH1 0x20 ADD PUSH1 0x0 KECCAK256 PUSH1 0x0 PUSH2 0x1254 SWAP2 SWAP1 PUSH2 0x1487 JUMP JUMPDEST PUSH1 0x1 DUP7 EQ ISZERO PUSH2 0x1266 JUMPI PUSH1 0x2 SWAP5 POP PUSH2 0x12C1 JUMP JUMPDEST PUSH1 0x2 DUP7 EQ ISZERO PUSH2 0x1278 JUMPI PUSH1 0x3 SWAP5 POP PUSH2 0x12C0 JUMP JUMPDEST PUSH1 0x3 DUP7 EQ ISZERO PUSH2 0x128A JUMPI PUSH1 0x5 SWAP5 POP PUSH2 0x12BF JUMP JUMPDEST PUSH1 0x4 DUP7 EQ ISZERO PUSH2 0x129C JUMPI PUSH1 0xA SWAP5 POP PUSH2 0x12BE JUMP JUMPDEST PUSH1 0x5 DUP7 EQ ISZERO PUSH2 0x12AE JUMPI PUSH1 0x14 SWAP5 POP PUSH2 0x12BD JUMP JUMPDEST PUSH1 0x6 DUP7 EQ ISZERO PUSH2 0x12BC JUMPI PUSH1 0x28 SWAP5 POP JUMPDEST JUMPDEST JUMPDEST JUMPDEST JUMPDEST JUMPDEST PUSH1 0x64 DUP6 PUSH1 0x4 SLOAD PUSH2 0x12D1 SWAP2 SWAP1 PUSH2 0x1B6E JUMP JUMPDEST PUSH2 0x12DB SWAP2 SWAP1 PUSH2 0x1B3D JUMP JUMPDEST SWAP4 POP DUP4 DUP4 PUSH2 0x12E9 SWAP2 SWAP1 PUSH2 0x1AE7 JUMP JUMPDEST SWAP3 POP PUSH1 0x6 DUP2 DUP2 SLOAD DUP2 LT PUSH2 0x12FF JUMPI PUSH2 0x12FE PUSH2 0x1D57 JUMP JUMPDEST JUMPDEST SWAP1 PUSH1 0x0 MSTORE PUSH1 0x20 PUSH1 0x0 KECCAK256 ADD PUSH1 0x0 SWAP1 SLOAD SWAP1 PUSH2 0x100 EXP SWAP1 DIV PUSH20 0xFFFFFFFFFFFFFFFFFFFFFFFFFFFFFFFFFFFFFFFF AND SWAP2 POP DUP2 PUSH20 0xFFFFFFFFFFFFFFFFFFFFFFFFFFFFFFFFFFFFFFFF AND PUSH2 0x8FC DUP6 SWAP1 DUP2 ISZERO MUL SWAP1 PUSH1 0x40 MLOAD PUSH1 0x0 PUSH1 0x40 MLOAD DUP1 DUP4 SUB DUP2 DUP6 DUP9 DUP9 CALL SWAP4 POP POP POP POP ISZERO DUP1 ISZERO PUSH2 0x1372 JUMPI RETURNDATASIZE PUSH1 0x0 DUP1 RETURNDATACOPY RETURNDATASIZE PUSH1 0x0 REVERT JUMPDEST POP PUSH1 0x0 SWAP6 POP PUSH1 0x0 SWAP5 POP PUSH1 0x0 SWAP4 POP DUP1 DUP1 PUSH2 0x138A SWAP1 PUSH2 0x1C75 JUMP JUMPDEST SWAP2 POP POP PUSH2 0x10C3 JUMP JUMPDEST POP PUSH1 0x0 PUSH1 0x5 DUP2 SWAP1 SSTORE POP DUP2 PUSH1 0x4 PUSH1 0x0 DUP3 DUP3 SLOAD PUSH2 0x13AD SWAP2 SWAP1 PUSH2 0x1BC8 JUMP JUMPDEST SWAP3 POP POP DUP2 SWAP1 SSTORE POP PUSH1 0x0 PUSH8 0xFFFFFFFFFFFFFFFF DUP2 GT ISZERO PUSH2 0x13CF JUMPI PUSH2 0x13CE PUSH2 0x1D86 JUMP JUMPDEST JUMPDEST PUSH1 0x40 MLOAD SWAP1 DUP1 DUP3 MSTORE DUP1 PUSH1 0x20 MUL PUSH1 0x20 ADD DUP3 ADD PUSH1 0x40 MSTORE DUP1 ISZERO PUSH2 0x13FD JUMPI DUP2 PUSH1 0x20 ADD PUSH1 0x20 DUP3 MUL DUP1 CALLDATASIZE DUP4 CALLDATACOPY DUP1 DUP3 ADD SWAP2 POP POP SWAP1 POP JUMPDEST POP PUSH1 0x6 SWAP1 DUP1 MLOAD SWAP1 PUSH1 0x20 ADD SWAP1 PUSH2 0x1413 SWAP3 SWAP2 SWAP1 PUSH2 0x14A8 JUMP JUMPDEST POP PUSH1 0x0 SWAP1 POP PUSH1 0x0 PUSH1 0x7 PUSH1 0x0 PUSH2 0x100 EXP DUP2 SLOAD DUP2 PUSH1 0xFF MUL NOT AND SWAP1 DUP4 ISZERO ISZERO MUL OR SWAP1 SSTORE POP POP POP POP POP POP JUMP JUMPDEST DUP3 DUP1 SLOAD DUP3 DUP3 SSTORE SWAP1 PUSH1 0x0 MSTORE PUSH1 0x20 PUSH1 0x0 KECCAK256 SWAP1 DUP2 ADD SWAP3 DUP3 ISZERO PUSH2 0x1476 JUMPI SWAP2 PUSH1 0x20 MUL DUP3 ADD JUMPDEST DUP3 DUP2 GT ISZERO PUSH2 0x1475 JUMPI DUP3 MLOAD DUP3 SSTORE SWAP2 PUSH1 0x20 ADD SWAP2 SWAP1 PUSH1 0x1 ADD SWAP1 PUSH2 0x145A JUMP JUMPDEST JUMPDEST POP SWAP1 POP PUSH2 0x1483 SWAP2 SWAP1 PUSH2 0x1532 JUMP JUMPDEST POP SWAP1 JUMP JUMPDEST POP DUP1 SLOAD PUSH1 0x0 DUP3 SSTORE SWAP1 PUSH1 0x0 MSTORE PUSH1 0x20 PUSH1 0x0 KECCAK256 SWAP1 DUP2 ADD SWAP1 PUSH2 0x14A5 SWAP2 SWAP1 PUSH2 0x1532 JUMP JUMPDEST POP JUMP JUMPDEST DUP3 DUP1 SLOAD DUP3 DUP3 SSTORE SWAP1 PUSH1 0x0 MSTORE PUSH1 0x20 PUSH1 0x0 KECCAK256 SWAP1 DUP2 ADD SWAP3 DUP3 ISZERO PUSH2 0x1521 JUMPI SWAP2 PUSH1 0x20 MUL DUP3 ADD JUMPDEST DUP3 DUP2 GT ISZERO PUSH2 0x1520 JUMPI DUP3 MLOAD DUP3 PUSH1 0x0 PUSH2 0x100 EXP DUP2 SLOAD DUP2 PUSH20 0xFFFFFFFFFFFFFFFFFFFFFFFFFFFFFFFFFFFFFFFF MUL NOT AND SWAP1 DUP4 PUSH20 0xFFFFFFFFFFFFFFFFFFFFFFFFFFFFFFFFFFFFFFFF AND MUL OR SWAP1 SSTORE POP SWAP2 PUSH1 0x20 ADD SWAP2 SWAP1 PUSH1 0x1 ADD SWAP1 PUSH2 0x14C8 JUMP JUMPDEST JUMPDEST POP SWAP1 POP PUSH2 0x152E SWAP2 SWAP1 PUSH2 0x1532 JUMP JUMPDEST POP SWAP1 JUMP JUMPDEST JUMPDEST DUP1 DUP3 GT ISZERO PUSH2 0x154B JUMPI PUSH1 0x0 DUP2 PUSH1 0x0 SWAP1 SSTORE POP PUSH1 0x1 ADD PUSH2 0x1533 JUMP JUMPDEST POP SWAP1 JUMP JUMPDEST PUSH1 0x0 PUSH2 0x1562 PUSH2 0x155D DUP5 PUSH2 0x1A71 JUMP JUMPDEST PUSH2 0x1A4C JUMP JUMPDEST SWAP1 POP DUP1 DUP4 DUP3 MSTORE PUSH1 0x20 DUP3 ADD SWAP1 POP DUP3 DUP6 PUSH1 0x20 DUP7 MUL DUP3 ADD GT ISZERO PUSH2 0x1585 JUMPI PUSH2 0x1584 PUSH2 0x1DBA JUMP JUMPDEST JUMPDEST PUSH1 0x0 JUMPDEST DUP6 DUP2 LT ISZERO PUSH2 0x15B5 JUMPI DUP2 PUSH2 0x159B DUP9 DUP3 PUSH2 0x15ED JUMP JUMPDEST DUP5 MSTORE PUSH1 0x20 DUP5 ADD SWAP4 POP PUSH1 0x20 DUP4 ADD SWAP3 POP POP PUSH1 0x1 DUP2 ADD SWAP1 POP PUSH2 0x1588 JUMP JUMPDEST POP POP POP SWAP4 SWAP3 POP POP POP JUMP JUMPDEST PUSH1 0x0 DUP3 PUSH1 0x1F DUP4 ADD SLT PUSH2 0x15D4 JUMPI PUSH2 0x15D3 PUSH2 0x1DB5 JUMP JUMPDEST JUMPDEST DUP2 CALLDATALOAD PUSH2 0x15E4 DUP5 DUP3 PUSH1 0x20 DUP7 ADD PUSH2 0x154F JUMP JUMPDEST SWAP2 POP POP SWAP3 SWAP2 POP POP JUMP JUMPDEST PUSH1 0x0 DUP2 CALLDATALOAD SWAP1 POP PUSH2 0x15FC DUP2 PUSH2 0x1F71 JUMP JUMPDEST SWAP3 SWAP2 POP POP JUMP JUMPDEST PUSH1 0x0 PUSH1 0x20 DUP3 DUP5 SUB SLT ISZERO PUSH2 0x1618 JUMPI PUSH2 0x1617 PUSH2 0x1DC4 JUMP JUMPDEST JUMPDEST PUSH1 0x0 DUP3 ADD CALLDATALOAD PUSH8 0xFFFFFFFFFFFFFFFF DUP2 GT ISZERO PUSH2 0x1636 JUMPI PUSH2 0x1635 PUSH2 0x1DBF JUMP JUMPDEST JUMPDEST PUSH2 0x1642 DUP5 DUP3 DUP6 ADD PUSH2 0x15BF JUMP JUMPDEST SWAP2 POP POP SWAP3 SWAP2 POP POP JUMP JUMPDEST PUSH1 0x0 PUSH1 0x20 DUP3 DUP5 SUB SLT ISZERO PUSH2 0x1661 JUMPI PUSH2 0x1660 PUSH2 0x1DC4 JUMP JUMPDEST JUMPDEST PUSH1 0x0 PUSH2 0x166F DUP5 DUP3 DUP6 ADD PUSH2 0x15ED JUMP JUMPDEST SWAP2 POP POP SWAP3 SWAP2 POP POP JUMP JUMPDEST PUSH1 0x0 PUSH2 0x1684 DUP4 DUP4 PUSH2 0x1847 JUMP JUMPDEST PUSH1 0x20 DUP4 ADD SWAP1 POP SWAP3 SWAP2 POP POP JUMP JUMPDEST PUSH2 0x1699 DUP2 PUSH2 0x1BFC JUMP JUMPDEST DUP3 MSTORE POP POP JUMP JUMPDEST PUSH1 0x0 PUSH2 0x16AA DUP3 PUSH2 0x1AAD JUMP JUMPDEST PUSH2 0x16B4 DUP2 DUP6 PUSH2 0x1AC5 JUMP JUMPDEST SWAP4 POP PUSH2 0x16BF DUP4 PUSH2 0x1A9D JUMP JUMPDEST DUP1 PUSH1 0x0 JUMPDEST DUP4 DUP2 LT ISZERO PUSH2 0x16F0 JUMPI DUP2 MLOAD PUSH2 0x16D7 DUP9 DUP3 PUSH2 0x1678 JUMP JUMPDEST SWAP8 POP PUSH2 0x16E2 DUP4 PUSH2 0x1AB8 JUMP JUMPDEST SWAP3 POP POP PUSH1 0x1 DUP2 ADD SWAP1 POP PUSH2 0x16C3 JUMP JUMPDEST POP DUP6 SWAP4 POP POP POP POP SWAP3 SWAP2 POP POP JUMP JUMPDEST PUSH2 0x1706 DUP2 PUSH2 0x1C0E JUMP JUMPDEST DUP3 MSTORE POP POP JUMP JUMPDEST PUSH1 0x0 PUSH2 0x1719 PUSH1 0x14 DUP4 PUSH2 0x1AD6 JUMP JUMPDEST SWAP2 POP PUSH2 0x1724 DUP3 PUSH2 0x1DDA JUMP JUMPDEST PUSH1 0x20 DUP3 ADD SWAP1 POP SWAP2 SWAP1 POP JUMP JUMPDEST PUSH1 0x0 PUSH2 0x173C PUSH1 0x11 DUP4 PUSH2 0x1AD6 JUMP JUMPDEST SWAP2 POP PUSH2 0x1747 DUP3 PUSH2 0x1E03 JUMP JUMPDEST PUSH1 0x20 DUP3 ADD SWAP1 POP SWAP2 SWAP1 POP JUMP JUMPDEST PUSH1 0x0 PUSH2 0x175F PUSH1 0x20 DUP4 PUSH2 0x1AD6 JUMP JUMPDEST SWAP2 POP PUSH2 0x176A DUP3 PUSH2 0x1E2C JUMP JUMPDEST PUSH1 0x20 DUP3 ADD SWAP1 POP SWAP2 SWAP1 POP JUMP JUMPDEST PUSH1 0x0 PUSH2 0x1782 PUSH1 0x26 DUP4 PUSH2 0x1AD6 JUMP JUMPDEST SWAP2 POP PUSH2 0x178D DUP3 PUSH2 0x1E55 JUMP JUMPDEST PUSH1 0x40 DUP3 ADD SWAP1 POP SWAP2 SWAP1 POP JUMP JUMPDEST PUSH1 0x0 PUSH2 0x17A5 PUSH1 0x15 DUP4 PUSH2 0x1AD6 JUMP JUMPDEST SWAP2 POP PUSH2 0x17B0 DUP3 PUSH2 0x1EA4 JUMP JUMPDEST PUSH1 0x20 DUP3 ADD SWAP1 POP SWAP2 SWAP1 POP JUMP JUMPDEST PUSH1 0x0 PUSH2 0x17C8 PUSH1 0xC DUP4 PUSH2 0x1AD6 JUMP JUMPDEST SWAP2 POP PUSH2 0x17D3 DUP3 PUSH2 0x1ECD JUMP JUMPDEST PUSH1 0x20 DUP3 ADD SWAP1 POP SWAP2 SWAP1 POP JUMP JUMPDEST PUSH1 0x0 PUSH2 0x17EB PUSH1 0x17 DUP4 PUSH2 0x1AD6 JUMP JUMPDEST SWAP2 POP PUSH2 0x17F6 DUP3 PUSH2 0x1EF6 JUMP JUMPDEST PUSH1 0x20 DUP3 ADD SWAP1 POP SWAP2 SWAP1 POP JUMP JUMPDEST PUSH1 0x0 PUSH2 0x180E PUSH1 0x14 DUP4 PUSH2 0x1AD6 JUMP JUMPDEST SWAP2 POP PUSH2 0x1819 DUP3 PUSH2 0x1F1F JUMP JUMPDEST PUSH1 0x20 DUP3 ADD SWAP1 POP SWAP2 SWAP1 POP JUMP JUMPDEST PUSH1 0x0 PUSH2 0x1831 PUSH1 0xC DUP4 PUSH2 0x1AD6 JUMP JUMPDEST SWAP2 POP PUSH2 0x183C DUP3 PUSH2 0x1F48 JUMP JUMPDEST PUSH1 0x20 DUP3 ADD SWAP1 POP SWAP2 SWAP1 POP JUMP JUMPDEST PUSH2 0x1850 DUP2 PUSH2 0x1C3A JUMP JUMPDEST DUP3 MSTORE POP POP JUMP JUMPDEST PUSH2 0x185F DUP2 PUSH2 0x1C3A JUMP JUMPDEST DUP3 MSTORE POP POP JUMP JUMPDEST PUSH2 0x1876 PUSH2 0x1871 DUP3 PUSH2 0x1C3A JUMP JUMPDEST PUSH2 0x1CBE JUMP JUMPDEST DUP3 MSTORE POP POP JUMP JUMPDEST PUSH1 0x0 PUSH2 0x1888 DUP3 DUP7 PUSH2 0x1865 JUMP JUMPDEST PUSH1 0x20 DUP3 ADD SWAP2 POP PUSH2 0x1898 DUP3 DUP6 PUSH2 0x1865 JUMP JUMPDEST PUSH1 0x20 DUP3 ADD SWAP2 POP PUSH2 0x18A8 DUP3 DUP5 PUSH2 0x1865 JUMP JUMPDEST PUSH1 0x20 DUP3 ADD SWAP2 POP DUP2 SWAP1 POP SWAP5 SWAP4 POP POP POP POP JUMP JUMPDEST PUSH1 0x0 PUSH1 0x20 DUP3 ADD SWAP1 POP PUSH2 0x18CE PUSH1 0x0 DUP4 ADD DUP5 PUSH2 0x1690 JUMP JUMPDEST SWAP3 SWAP2 POP POP JUMP JUMPDEST PUSH1 0x0 PUSH1 0x20 DUP3 ADD SWAP1 POP DUP2 DUP2 SUB PUSH1 0x0 DUP4 ADD MSTORE PUSH2 0x18EE DUP2 DUP5 PUSH2 0x169F JUMP JUMPDEST SWAP1 POP SWAP3 SWAP2 POP POP JUMP JUMPDEST PUSH1 0x0 PUSH1 0x20 DUP3 ADD SWAP1 POP PUSH2 0x190B PUSH1 0x0 DUP4 ADD DUP5 PUSH2 0x16FD JUMP JUMPDEST SWAP3 SWAP2 POP POP JUMP JUMPDEST PUSH1 0x0 PUSH1 0x20 DUP3 ADD SWAP1 POP DUP2 DUP2 SUB PUSH1 0x0 DUP4 ADD MSTORE PUSH2 0x192A DUP2 PUSH2 0x170C JUMP JUMPDEST SWAP1 POP SWAP2 SWAP1 POP JUMP JUMPDEST PUSH1 0x0 PUSH1 0x20 DUP3 ADD SWAP1 POP DUP2 DUP2 SUB PUSH1 0x0 DUP4 ADD MSTORE PUSH2 0x194A DUP2 PUSH2 0x172F JUMP JUMPDEST SWAP1 POP SWAP2 SWAP1 POP JUMP JUMPDEST PUSH1 0x0 PUSH1 0x20 DUP3 ADD SWAP1 POP DUP2 DUP2 SUB PUSH1 0x0 DUP4 ADD MSTORE PUSH2 0x196A DUP2 PUSH2 0x1752 JUMP JUMPDEST SWAP1 POP SWAP2 SWAP1 POP JUMP JUMPDEST PUSH1 0x0 PUSH1 0x20 DUP3 ADD SWAP1 POP DUP2 DUP2 SUB PUSH1 0x0 DUP4 ADD MSTORE PUSH2 0x198A DUP2 PUSH2 0x1775 JUMP JUMPDEST SWAP1 POP SWAP2 SWAP1 POP JUMP JUMPDEST PUSH1 0x0 PUSH1 0x20 DUP3 ADD SWAP1 POP DUP2 DUP2 SUB PUSH1 0x0 DUP4 ADD MSTORE PUSH2 0x19AA DUP2 PUSH2 0x1798 JUMP JUMPDEST SWAP1 POP SWAP2 SWAP1 POP JUMP JUMPDEST PUSH1 0x0 PUSH1 0x20 DUP3 ADD SWAP1 POP DUP2 DUP2 SUB PUSH1 0x0 DUP4 ADD MSTORE PUSH2 0x19CA DUP2 PUSH2 0x17BB JUMP JUMPDEST SWAP1 POP SWAP2 SWAP1 POP JUMP JUMPDEST PUSH1 0x0 PUSH1 0x20 DUP3 ADD SWAP1 POP DUP2 DUP2 SUB PUSH1 0x0 DUP4 ADD MSTORE PUSH2 0x19EA DUP2 PUSH2 0x17DE JUMP JUMPDEST SWAP1 POP SWAP2 SWAP1 POP JUMP JUMPDEST PUSH1 0x0 PUSH1 0x20 DUP3 ADD SWAP1 POP DUP2 DUP2 SUB PUSH1 0x0 DUP4 ADD MSTORE PUSH2 0x1A0A DUP2 PUSH2 0x1801 JUMP JUMPDEST SWAP1 POP SWAP2 SWAP1 POP JUMP JUMPDEST PUSH1 0x0 PUSH1 0x20 DUP3 ADD SWAP1 POP DUP2 DUP2 SUB PUSH1 0x0 DUP4 ADD MSTORE PUSH2 0x1A2A DUP2 PUSH2 0x1824 JUMP JUMPDEST SWAP1 POP SWAP2 SWAP1 POP JUMP JUMPDEST PUSH1 0x0 PUSH1 0x20 DUP3 ADD SWAP1 POP PUSH2 0x1A46 PUSH1 0x0 DUP4 ADD DUP5 PUSH2 0x1856 JUMP JUMPDEST SWAP3 SWAP2 POP POP JUMP JUMPDEST PUSH1 0x0 PUSH2 0x1A56 PUSH2 0x1A67 JUMP JUMPDEST SWAP1 POP PUSH2 0x1A62 DUP3 DUP3 PUSH2 0x1C44 JUMP JUMPDEST SWAP2 SWAP1 POP JUMP JUMPDEST PUSH1 0x0 PUSH1 0x40 MLOAD SWAP1 POP SWAP1 JUMP JUMPDEST PUSH1 0x0 PUSH8 0xFFFFFFFFFFFFFFFF DUP3 GT ISZERO PUSH2 0x1A8C JUMPI PUSH2 0x1A8B PUSH2 0x1D86 JUMP JUMPDEST JUMPDEST PUSH1 0x20 DUP3 MUL SWAP1 POP PUSH1 0x20 DUP2 ADD SWAP1 POP SWAP2 SWAP1 POP JUMP JUMPDEST PUSH1 0x0 DUP2 SWAP1 POP PUSH1 0x20 DUP3 ADD SWAP1 POP SWAP2 SWAP1 POP JUMP JUMPDEST PUSH1 0x0 DUP2 MLOAD SWAP1 POP SWAP2 SWAP1 POP JUMP JUMPDEST PUSH1 0x0 PUSH1 0x20 DUP3 ADD SWAP1 POP SWAP2 SWAP1 POP JUMP JUMPDEST PUSH1 0x0 DUP3 DUP3 MSTORE PUSH1 0x20 DUP3 ADD SWAP1 POP SWAP3 SWAP2 POP POP JUMP JUMPDEST PUSH1 0x0 DUP3 DUP3 MSTORE PUSH1 0x20 DUP3 ADD SWAP1 POP SWAP3 SWAP2 POP POP JUMP JUMPDEST PUSH1 0x0 PUSH2 0x1AF2 DUP3 PUSH2 0x1C3A JUMP JUMPDEST SWAP2 POP PUSH2 0x1AFD DUP4 PUSH2 0x1C3A JUMP JUMPDEST SWAP3 POP DUP3 PUSH32 0xFFFFFFFFFFFFFFFFFFFFFFFFFFFFFFFFFFFFFFFFFFFFFFFFFFFFFFFFFFFFFFFF SUB DUP3 GT ISZERO PUSH2 0x1B32 JUMPI PUSH2 0x1B31 PUSH2 0x1CF9 JUMP JUMPDEST JUMPDEST DUP3 DUP3 ADD SWAP1 POP SWAP3 SWAP2 POP POP JUMP JUMPDEST PUSH1 0x0 PUSH2 0x1B48 DUP3 PUSH2 0x1C3A JUMP JUMPDEST SWAP2 POP PUSH2 0x1B53 DUP4 PUSH2 0x1C3A JUMP JUMPDEST SWAP3 POP DUP3 PUSH2 0x1B63 JUMPI PUSH2 0x1B62 PUSH2 0x1D28 JUMP JUMPDEST JUMPDEST DUP3 DUP3 DIV SWAP1 POP SWAP3 SWAP2 POP POP JUMP JUMPDEST PUSH1 0x0 PUSH2 0x1B79 DUP3 PUSH2 0x1C3A JUMP JUMPDEST SWAP2 POP PUSH2 0x1B84 DUP4 PUSH2 0x1C3A JUMP JUMPDEST SWAP3 POP DUP2 PUSH32 0xFFFFFFFFFFFFFFFFFFFFFFFFFFFFFFFFFFFFFFFFFFFFFFFFFFFFFFFFFFFFFFFF DIV DUP4 GT DUP3 ISZERO ISZERO AND ISZERO PUSH2 0x1BBD JUMPI PUSH2 0x1BBC PUSH2 0x1CF9 JUMP JUMPDEST JUMPDEST DUP3 DUP3 MUL SWAP1 POP SWAP3 SWAP2 POP POP JUMP JUMPDEST PUSH1 0x0 PUSH2 0x1BD3 DUP3 PUSH2 0x1C3A JUMP JUMPDEST SWAP2 POP PUSH2 0x1BDE DUP4 PUSH2 0x1C3A JUMP JUMPDEST SWAP3 POP DUP3 DUP3 LT ISZERO PUSH2 0x1BF1 JUMPI PUSH2 0x1BF0 PUSH2 0x1CF9 JUMP JUMPDEST JUMPDEST DUP3 DUP3 SUB SWAP1 POP SWAP3 SWAP2 POP POP JUMP JUMPDEST PUSH1 0x0 PUSH2 0x1C07 DUP3 PUSH2 0x1C1A JUMP JUMPDEST SWAP1 POP SWAP2 SWAP1 POP JUMP JUMPDEST PUSH1 0x0 DUP2 ISZERO ISZERO SWAP1 POP SWAP2 SWAP1 POP JUMP JUMPDEST PUSH1 0x0 PUSH20 0xFFFFFFFFFFFFFFFFFFFFFFFFFFFFFFFFFFFFFFFF DUP3 AND SWAP1 POP SWAP2 SWAP1 POP JUMP JUMPDEST PUSH1 0x0 DUP2 SWAP1 POP SWAP2 SWAP1 POP JUMP JUMPDEST PUSH2 0x1C4D DUP3 PUSH2 0x1DC9 JUMP JUMPDEST DUP2 ADD DUP2 DUP2 LT PUSH8 0xFFFFFFFFFFFFFFFF DUP3 GT OR ISZERO PUSH2 0x1C6C JUMPI PUSH2 0x1C6B PUSH2 0x1D86 JUMP JUMPDEST JUMPDEST DUP1 PUSH1 0x40 MSTORE POP POP POP JUMP JUMPDEST PUSH1 0x0 PUSH2 0x1C80 DUP3 PUSH2 0x1C3A JUMP JUMPDEST SWAP2 POP PUSH32 0xFFFFFFFFFFFFFFFFFFFFFFFFFFFFFFFFFFFFFFFFFFFFFFFFFFFFFFFFFFFFFFFF DUP3 EQ ISZERO PUSH2 0x1CB3 JUMPI PUSH2 0x1CB2 PUSH2 0x1CF9 JUMP JUMPDEST JUMPDEST PUSH1 0x1 DUP3 ADD SWAP1 POP SWAP2 SWAP1 POP JUMP JUMPDEST PUSH1 0x0 DUP2 SWAP1 POP SWAP2 SWAP1 POP JUMP JUMPDEST PUSH1 0x0 PUSH2 0x1CD3 DUP3 PUSH2 0x1C3A JUMP JUMPDEST SWAP2 POP PUSH2 0x1CDE DUP4 PUSH2 0x1C3A JUMP JUMPDEST SWAP3 POP DUP3 PUSH2 0x1CEE JUMPI PUSH2 0x1CED PUSH2 0x1D28 JUMP JUMPDEST JUMPDEST DUP3 DUP3 MOD SWAP1 POP SWAP3 SWAP2 POP POP JUMP JUMPDEST PUSH32 0x4E487B7100000000000000000000000000000000000000000000000000000000 PUSH1 0x0 MSTORE PUSH1 0x11 PUSH1 0x4 MSTORE PUSH1 0x24 PUSH1 0x0 REVERT JUMPDEST PUSH32 0x4E487B7100000000000000000000000000000000000000000000000000000000 PUSH1 0x0 MSTORE PUSH1 0x12 PUSH1 0x4 MSTORE PUSH1 0x24 PUSH1 0x0 REVERT JUMPDEST PUSH32 0x4E487B7100000000000000000000000000000000000000000000000000000000 PUSH1 0x0 MSTORE PUSH1 0x32 PUSH1 0x4 MSTORE PUSH1 0x24 PUSH1 0x0 REVERT JUMPDEST PUSH32 0x4E487B7100000000000000000000000000000000000000000000000000000000 PUSH1 0x0 MSTORE PUSH1 0x41 PUSH1 0x4 MSTORE PUSH1 0x24 PUSH1 0x0 REVERT JUMPDEST PUSH1 0x0 DUP1 REVERT JUMPDEST PUSH1 0x0 DUP1 REVERT JUMPDEST PUSH1 0x0 DUP1 REVERT JUMPDEST PUSH1 0x0 DUP1 REVERT JUMPDEST PUSH1 0x0 PUSH1 0x1F NOT PUSH1 0x1F DUP4 ADD AND SWAP1 POP SWAP2 SWAP1 POP JUMP JUMPDEST PUSH32 0x4E6F20457468657220746F2070756C6C206F7574000000000000000000000000 PUSH1 0x0 DUP3 ADD MSTORE POP JUMP JUMPDEST PUSH32 0x4E6F207469636B65742077617320626F75000000000000000000000000000000 PUSH1 0x0 DUP3 ADD MSTORE POP JUMP JUMPDEST PUSH32 0x596F75206861766520616C726561647920626F756768742061207469636B6574 PUSH1 0x0 DUP3 ADD MSTORE POP JUMP JUMPDEST PUSH32 0x4F6E6C7920746865206F776E65722063616E20706572666F726D207468697320 PUSH1 0x0 DUP3 ADD MSTORE PUSH32 0x616374696F6E0000000000000000000000000000000000000000000000000000 PUSH1 0x20 DUP3 ADD MSTORE POP JUMP JUMPDEST PUSH32 0x4E6F206C6F74746572792069732072756E6E696E670000000000000000000000 PUSH1 0x0 DUP3 ADD MSTORE POP JUMP JUMPDEST PUSH32 0x57726F6E67206E756D6265720000000000000000000000000000000000000000 PUSH1 0x0 DUP3 ADD MSTORE POP JUMP JUMPDEST PUSH32 0x57726F6E67206E756D626572206F66206E756D62657273000000000000000000 PUSH1 0x0 DUP3 ADD MSTORE POP JUMP JUMPDEST PUSH32 0x41206C6F74746572792069732072756E6E696E67000000000000000000000000 PUSH1 0x0 DUP3 ADD MSTORE POP JUMP JUMPDEST PUSH32 0x57726F6E6720616D6F756E740000000000000000000000000000000000000000 PUSH1 0x0 DUP3 ADD MSTORE POP JUMP JUMPDEST PUSH2 0x1F7A DUP2 PUSH2 0x1C3A JUMP JUMPDEST DUP2 EQ PUSH2 0x1F85 JUMPI PUSH1 0x0 DUP1 REVERT JUMPDEST POP JUMP INVALID LOG2 PUSH5 0x6970667358 0x22 SLT KECCAK256 0xAF 0xC0 SAR PUSH17 0x40525B2FA17EF2B94E038ED16B86778BC3 CALLDATALOAD 0x4F 0x5D 0xD5 SWAP10 0xAA BLOCKHASH 0xB0 0xDB 0xD6 SWAP14 PUSH5 0x736F6C6343 STOP ADDMOD SMOD STOP CALLER "
				},
				"gasEstimates": {
					"creation": {
						"codeDepositCost": "1625200",
						"executionCost": "77346",
						"totalCost": "1702546"
					},
					"external": {
						"BeginLottery()": "infinite",
						"EndLottery()": "infinite",
						"Lotterystatus()": "2524",
						"NrOfticketsBought()": "2481",
						"OwnerAddress()": "2567",
						"Pull()": "infinite",
						"buyTicket(uint256[])": "infinite",
						"changeTicketPrice(uint256)": "infinite",
						"getMyTicketNumbers()": "infinite",
						"getTicketPrice()": "infinite",
						"getTotalLotteryPot()": "infinite",
						"getWinningNumber()": "infinite",
						"lotteryStarted()": "2560",
						"playersAddresses(uint256)": "4979",
						"setWinningNumber(uint256[])": "infinite"
					}
				},
				"methodIdentifiers": {
					"BeginLottery()": "36c1ec23",
					"EndLottery()": "b04a3f1c",
					"Lotterystatus()": "4c75e3f1",
					"NrOfticketsBought()": "a1bb96a1",
					"OwnerAddress()": "7f17b05d",
					"Pull()": "30daec49",
					"buyTicket(uint256[])": "716cac96",
					"changeTicketPrice(uint256)": "4630a0ee",
					"getMyTicketNumbers()": "a650fbab",
					"getTicketPrice()": "87bb7ae0",
					"getTotalLotteryPot()": "8a4a29c3",
					"getWinningNumber()": "8b0b9ed4",
					"lotteryStarted()": "5a3811b9",
					"playersAddresses(uint256)": "472016da",
					"setWinningNumber(uint256[])": "4efd7cca"
				}
			},
			"storageLayout": {
				"storage": [
					{
						"astId": 3,
						"contract": "UZHPancakeLottery.sol:UZHPancakeLottery",
						"label": "owner",
						"offset": 0,
						"slot": "0",
						"type": "t_address"
					},
					{
						"astId": 6,
						"contract": "UZHPancakeLottery.sol:UZHPancakeLottery",
						"label": "winningNumber",
						"offset": 0,
						"slot": "1",
						"type": "t_array(t_uint256)dyn_storage"
					},
					{
						"astId": 11,
						"contract": "UZHPancakeLottery.sol:UZHPancakeLottery",
						"label": "playersTickets",
						"offset": 0,
						"slot": "2",
						"type": "t_mapping(t_address,t_array(t_uint256)dyn_storage)"
					},
					{
						"astId": 14,
						"contract": "UZHPancakeLottery.sol:UZHPancakeLottery",
						"label": "ticketprice",
						"offset": 0,
						"slot": "3",
						"type": "t_uint256"
					},
					{
						"astId": 16,
						"contract": "UZHPancakeLottery.sol:UZHPancakeLottery",
						"label": "TotalLotteryPot",
						"offset": 0,
						"slot": "4",
						"type": "t_uint256"
					},
					{
						"astId": 19,
						"contract": "UZHPancakeLottery.sol:UZHPancakeLottery",
						"label": "NrticketsBought",
						"offset": 0,
						"slot": "5",
						"type": "t_uint256"
					},
					{
						"astId": 22,
						"contract": "UZHPancakeLottery.sol:UZHPancakeLottery",
						"label": "playersAddresses",
						"offset": 0,
						"slot": "6",
						"type": "t_array(t_address)dyn_storage"
					},
					{
						"astId": 25,
						"contract": "UZHPancakeLottery.sol:UZHPancakeLottery",
						"label": "lotteryStarted",
						"offset": 0,
						"slot": "7",
						"type": "t_bool"
					}
				],
				"types": {
					"t_address": {
						"encoding": "inplace",
						"label": "address",
						"numberOfBytes": "20"
					},
					"t_array(t_address)dyn_storage": {
						"base": "t_address",
						"encoding": "dynamic_array",
						"label": "address[]",
						"numberOfBytes": "32"
					},
					"t_array(t_uint256)dyn_storage": {
						"base": "t_uint256",
						"encoding": "dynamic_array",
						"label": "uint256[]",
						"numberOfBytes": "32"
					},
					"t_bool": {
						"encoding": "inplace",
						"label": "bool",
						"numberOfBytes": "1"
					},
					"t_mapping(t_address,t_array(t_uint256)dyn_storage)": {
						"encoding": "mapping",
						"key": "t_address",
						"label": "mapping(address => uint256[])",
						"numberOfBytes": "32",
						"value": "t_array(t_uint256)dyn_storage"
					},
					"t_uint256": {
						"encoding": "inplace",
						"label": "uint256",
						"numberOfBytes": "32"
					}
				}
			},
			"userdoc": {
				"kind": "user",
				"methods": {},
				"version": 1
			}
		}
	}
}