{
	"Lottery/UZHPancakeLottery.sol": {
		"UZHPancakeLottery": {
			"abi": [
				{
					"inputs": [],
					"stateMutability": "nonpayable",
					"type": "constructor"
				},
				{
					"inputs": [],
					"name": "EndLottery",
					"outputs": [],
					"stateMutability": "nonpayable",
					"type": "function"
				},
				{
					"inputs": [],
					"name": "NrticketsBought",
					"outputs": [
						{
							"internalType": "uint256",
							"name": "",
							"type": "uint256"
						}
					],
					"stateMutability": "view",
					"type": "function"
				},
				{
					"inputs": [],
					"name": "Pull",
					"outputs": [],
					"stateMutability": "nonpayable",
					"type": "function"
				},
				{
					"inputs": [
						{
							"internalType": "uint256[]",
							"name": "ticketNumbers",
							"type": "uint256[]"
						}
					],
					"name": "buyTicket",
					"outputs": [],
					"stateMutability": "payable",
					"type": "function"
				},
				{
					"inputs": [
						{
							"internalType": "uint256",
							"name": "_price",
							"type": "uint256"
						}
					],
					"name": "changeTicketPrice",
					"outputs": [],
					"stateMutability": "nonpayable",
					"type": "function"
				},
				{
					"inputs": [],
					"name": "getMyTicketNumbers",
					"outputs": [
						{
							"internalType": "uint256[]",
							"name": "",
							"type": "uint256[]"
						}
					],
					"stateMutability": "view",
					"type": "function"
				},
				{
					"inputs": [],
					"name": "getTicketPrice",
					"outputs": [
						{
							"internalType": "uint256",
							"name": "",
							"type": "uint256"
						}
					],
					"stateMutability": "view",
					"type": "function"
				},
				{
					"inputs": [],
					"name": "getTotalLotteryPot",
					"outputs": [
						{
							"internalType": "uint256",
							"name": "",
							"type": "uint256"
						}
					],
					"stateMutability": "view",
					"type": "function"
				},
				{
					"inputs": [],
					"name": "getWinningNumber",
					"outputs": [
						{
							"internalType": "uint256[]",
							"name": "",
							"type": "uint256[]"
						}
					],
					"stateMutability": "view",
					"type": "function"
				},
				{
					"inputs": [],
					"name": "lotteryStarted",
					"outputs": [
						{
							"internalType": "bool",
							"name": "",
							"type": "bool"
						}
					],
					"stateMutability": "view",
					"type": "function"
				},
				{
					"inputs": [],
					"name": "owner",
					"outputs": [
						{
							"internalType": "address",
							"name": "",
							"type": "address"
						}
					],
					"stateMutability": "view",
					"type": "function"
				},
				{
					"inputs": [
						{
							"internalType": "uint256",
							"name": "",
							"type": "uint256"
						}
					],
					"name": "playersAddresses",
					"outputs": [
						{
							"internalType": "address",
							"name": "",
							"type": "address"
						}
					],
					"stateMutability": "view",
					"type": "function"
				},
				{
					"inputs": [],
					"name": "setWinningNumbers",
					"outputs": [],
					"stateMutability": "nonpayable",
					"type": "function"
				}
			],
			"devdoc": {
				"kind": "dev",
				"methods": {},
				"version": 1
			},
			"evm": {
				"assembly": "    /* \"Lottery/UZHPancakeLottery.sol\":223:7352  contract UZHPancakeLottery {\r... */\n  mstore(0x40, 0x80)\n    /* \"Lottery/UZHPancakeLottery.sol\":574:581  5 ether */\n  0x4563918244f40000\n    /* \"Lottery/UZHPancakeLottery.sol\":553:581  uint private price = 5 ether */\n  0x03\n  sstore\n    /* \"Lottery/UZHPancakeLottery.sol\":739:740  0 */\n  0x00\n    /* \"Lottery/UZHPancakeLottery.sol\":709:740  uint public NrticketsBought = 0 */\n  0x05\n  sstore\n    /* \"Lottery/UZHPancakeLottery.sol\":928:933  false */\n  0x00\n    /* \"Lottery/UZHPancakeLottery.sol\":899:933  bool public lotteryStarted = false */\n  0x07\n  exp(0x0100, 0x00)\n  dup2\n  sload\n  dup2\n  0xff\n  mul\n  not\n  and\n  swap1\n  dup4\n  iszero\n  iszero\n  mul\n  or\n  swap1\n  sstore\n  pop\n    /* \"Lottery/UZHPancakeLottery.sol\":1019:1077  constructor() public {\r... */\n  callvalue\n  dup1\n  iszero\n  tag_1\n  jumpi\n  0x00\n  dup1\n  revert\ntag_1:\n  pop\n    /* \"Lottery/UZHPancakeLottery.sol\":1059:1069  msg.sender */\n  caller\n    /* \"Lottery/UZHPancakeLottery.sol\":1051:1056  owner */\n  0x00\n  dup1\n    /* \"Lottery/UZHPancakeLottery.sol\":1051:1069  owner = msg.sender */\n  0x0100\n  exp\n  dup2\n  sload\n  dup2\n  0xffffffffffffffffffffffffffffffffffffffff\n  mul\n  not\n  and\n  swap1\n  dup4\n  0xffffffffffffffffffffffffffffffffffffffff\n  and\n  mul\n  or\n  swap1\n  sstore\n  pop\n    /* \"Lottery/UZHPancakeLottery.sol\":223:7352  contract UZHPancakeLottery {\r... */\n  dataSize(sub_0)\n  dup1\n  dataOffset(sub_0)\n  0x00\n  codecopy\n  0x00\n  return\nstop\n\nsub_0: assembly {\n        /* \"Lottery/UZHPancakeLottery.sol\":223:7352  contract UZHPancakeLottery {\r... */\n      mstore(0x40, 0x80)\n      jumpi(tag_1, lt(calldatasize, 0x04))\n      shr(0xe0, calldataload(0x00))\n      dup1\n      0x8a4a29c3\n      gt\n      tag_15\n      jumpi\n      dup1\n      0xa650fbab\n      gt\n      tag_16\n      jumpi\n      dup1\n      0xa650fbab\n      eq\n      tag_11\n      jumpi\n      dup1\n      0xa7caba25\n      eq\n      tag_12\n      jumpi\n      dup1\n      0xb04a3f1c\n      eq\n      tag_13\n      jumpi\n      dup1\n      0xd386ea73\n      eq\n      tag_14\n      jumpi\n      jump(tag_1)\n    tag_16:\n      dup1\n      0x8a4a29c3\n      eq\n      tag_8\n      jumpi\n      dup1\n      0x8b0b9ed4\n      eq\n      tag_9\n      jumpi\n      dup1\n      0x8da5cb5b\n      eq\n      tag_10\n      jumpi\n      jump(tag_1)\n    tag_15:\n      dup1\n      0x30daec49\n      eq\n      tag_2\n      jumpi\n      dup1\n      0x4630a0ee\n      eq\n      tag_3\n      jumpi\n      dup1\n      0x472016da\n      eq\n      tag_4\n      jumpi\n      dup1\n      0x5a3811b9\n      eq\n      tag_5\n      jumpi\n      dup1\n      0x716cac96\n      eq\n      tag_6\n      jumpi\n      dup1\n      0x87bb7ae0\n      eq\n      tag_7\n      jumpi\n    tag_1:\n      0x00\n      dup1\n      revert\n        /* \"Lottery/UZHPancakeLottery.sol\":6874:7347  function Pull() public onlyOwner {\r... */\n    tag_2:\n      callvalue\n      dup1\n      iszero\n      tag_17\n      jumpi\n      0x00\n      dup1\n      revert\n    tag_17:\n      pop\n      tag_18\n      tag_19\n      jump\t// in\n    tag_18:\n      stop\n        /* \"Lottery/UZHPancakeLottery.sol\":1329:1429  function changeTicketPrice(uint _price) public onlyOwner {\r... */\n    tag_3:\n      callvalue\n      dup1\n      iszero\n      tag_20\n      jumpi\n      0x00\n      dup1\n      revert\n    tag_20:\n      pop\n      tag_21\n      0x04\n      dup1\n      calldatasize\n      sub\n      dup2\n      add\n      swap1\n      tag_22\n      swap2\n      swap1\n      tag_23\n      jump\t// in\n    tag_22:\n      tag_24\n      jump\t// in\n    tag_21:\n      stop\n        /* \"Lottery/UZHPancakeLottery.sol\":802:836  address [] public playersAddresses */\n    tag_4:\n      callvalue\n      dup1\n      iszero\n      tag_25\n      jumpi\n      0x00\n      dup1\n      revert\n    tag_25:\n      pop\n      tag_26\n      0x04\n      dup1\n      calldatasize\n      sub\n      dup2\n      add\n      swap1\n      tag_27\n      swap2\n      swap1\n      tag_23\n      jump\t// in\n    tag_27:\n      tag_28\n      jump\t// in\n    tag_26:\n      mload(0x40)\n      tag_29\n      swap2\n      swap1\n      tag_30\n      jump\t// in\n    tag_29:\n      mload(0x40)\n      dup1\n      swap2\n      sub\n      swap1\n      return\n        /* \"Lottery/UZHPancakeLottery.sol\":899:933  bool public lotteryStarted = false */\n    tag_5:\n      callvalue\n      dup1\n      iszero\n      tag_31\n      jumpi\n      0x00\n      dup1\n      revert\n    tag_31:\n      pop\n      tag_32\n      tag_33\n      jump\t// in\n    tag_32:\n      mload(0x40)\n      tag_34\n      swap2\n      swap1\n      tag_35\n      jump\t// in\n    tag_34:\n      mload(0x40)\n      dup1\n      swap2\n      sub\n      swap1\n      return\n        /* \"Lottery/UZHPancakeLottery.sol\":2594:3726  function buyTicket(uint[] memory ticketNumbers) public payable {\r... */\n    tag_6:\n      tag_36\n      0x04\n      dup1\n      calldatasize\n      sub\n      dup2\n      add\n      swap1\n      tag_37\n      swap2\n      swap1\n      tag_38\n      jump\t// in\n    tag_37:\n      tag_39\n      jump\t// in\n    tag_36:\n      stop\n        /* \"Lottery/UZHPancakeLottery.sol\":1484:1578  function getTicketPrice() public view returns (uint) {\r... */\n    tag_7:\n      callvalue\n      dup1\n      iszero\n      tag_40\n      jumpi\n      0x00\n      dup1\n      revert\n    tag_40:\n      pop\n      tag_41\n      tag_42\n      jump\t// in\n    tag_41:\n      mload(0x40)\n      tag_43\n      swap2\n      swap1\n      tag_44\n      jump\t// in\n    tag_43:\n      mload(0x40)\n      dup1\n      swap2\n      sub\n      swap1\n      return\n        /* \"Lottery/UZHPancakeLottery.sol\":1658:1766  function getTotalLotteryPot() public view returns (uint) {\r... */\n    tag_8:\n      callvalue\n      dup1\n      iszero\n      tag_45\n      jumpi\n      0x00\n      dup1\n      revert\n    tag_45:\n      pop\n      tag_46\n      tag_47\n      jump\t// in\n    tag_46:\n      mload(0x40)\n      tag_48\n      swap2\n      swap1\n      tag_44\n      jump\t// in\n    tag_48:\n      mload(0x40)\n      dup1\n      swap2\n      sub\n      swap1\n      return\n        /* \"Lottery/UZHPancakeLottery.sol\":2440:2553  function getWinningNumber() public view onlyOwner returns (uint[] memory) {\r... */\n    tag_9:\n      callvalue\n      dup1\n      iszero\n      tag_49\n      jumpi\n      0x00\n      dup1\n      revert\n    tag_49:\n      pop\n      tag_50\n      tag_51\n      jump\t// in\n    tag_50:\n      mload(0x40)\n      tag_52\n      swap2\n      swap1\n      tag_53\n      jump\t// in\n    tag_52:\n      mload(0x40)\n      dup1\n      swap2\n      sub\n      swap1\n      return\n        /* \"Lottery/UZHPancakeLottery.sol\":302:322  address public owner */\n    tag_10:\n      callvalue\n      dup1\n      iszero\n      tag_54\n      jumpi\n      0x00\n      dup1\n      revert\n    tag_54:\n      pop\n      tag_55\n      tag_56\n      jump\t// in\n    tag_55:\n      mload(0x40)\n      tag_57\n      swap2\n      swap1\n      tag_30\n      jump\t// in\n    tag_57:\n      mload(0x40)\n      dup1\n      swap2\n      sub\n      swap1\n      return\n        /* \"Lottery/UZHPancakeLottery.sol\":3794:3912  function getMyTicketNumbers() public view returns (uint[] memory) {\r... */\n    tag_11:\n      callvalue\n      dup1\n      iszero\n      tag_58\n      jumpi\n      0x00\n      dup1\n      revert\n    tag_58:\n      pop\n      tag_59\n      tag_60\n      jump\t// in\n    tag_59:\n      mload(0x40)\n      tag_61\n      swap2\n      swap1\n      tag_53\n      jump\t// in\n    tag_61:\n      mload(0x40)\n      dup1\n      swap2\n      sub\n      swap1\n      return\n        /* \"Lottery/UZHPancakeLottery.sol\":1827:2341  function setWinningNumbers() public onlyOwner {\r... */\n    tag_12:\n      callvalue\n      dup1\n      iszero\n      tag_62\n      jumpi\n      0x00\n      dup1\n      revert\n    tag_62:\n      pop\n      tag_63\n      tag_64\n      jump\t// in\n    tag_63:\n      stop\n        /* \"Lottery/UZHPancakeLottery.sol\":3961:6799  function EndLottery() public onlyOwner{\r... */\n    tag_13:\n      callvalue\n      dup1\n      iszero\n      tag_65\n      jumpi\n      0x00\n      dup1\n      revert\n    tag_65:\n      pop\n      tag_66\n      tag_67\n      jump\t// in\n    tag_66:\n      stop\n        /* \"Lottery/UZHPancakeLottery.sol\":709:740  uint public NrticketsBought = 0 */\n    tag_14:\n      callvalue\n      dup1\n      iszero\n      tag_68\n      jumpi\n      0x00\n      dup1\n      revert\n    tag_68:\n      pop\n      tag_69\n      tag_70\n      jump\t// in\n    tag_69:\n      mload(0x40)\n      tag_71\n      swap2\n      swap1\n      tag_44\n      jump\t// in\n    tag_71:\n      mload(0x40)\n      dup1\n      swap2\n      sub\n      swap1\n      return\n        /* \"Lottery/UZHPancakeLottery.sol\":6874:7347  function Pull() public onlyOwner {\r... */\n    tag_19:\n        /* \"Lottery/UZHPancakeLottery.sol\":1207:1212  owner */\n      0x00\n      dup1\n      sload\n      swap1\n      0x0100\n      exp\n      swap1\n      div\n      0xffffffffffffffffffffffffffffffffffffffff\n      and\n        /* \"Lottery/UZHPancakeLottery.sol\":1193:1212  msg.sender == owner */\n      0xffffffffffffffffffffffffffffffffffffffff\n      and\n        /* \"Lottery/UZHPancakeLottery.sol\":1193:1203  msg.sender */\n      caller\n        /* \"Lottery/UZHPancakeLottery.sol\":1193:1212  msg.sender == owner */\n      0xffffffffffffffffffffffffffffffffffffffff\n      and\n      eq\n        /* \"Lottery/UZHPancakeLottery.sol\":1185:1255  require(msg.sender == owner, \"Only the owner can perform this action\") */\n      tag_73\n      jumpi\n      mload(0x40)\n      0x08c379a000000000000000000000000000000000000000000000000000000000\n      dup2\n      mstore\n      0x04\n      add\n      tag_74\n      swap1\n      tag_75\n      jump\t// in\n    tag_74:\n      mload(0x40)\n      dup1\n      swap2\n      sub\n      swap1\n      revert\n    tag_73:\n        /* \"Lottery/UZHPancakeLottery.sol\":6980:7008  address payable ownerpayable */\n      0x00\n        /* \"Lottery/UZHPancakeLottery.sol\":7019:7024  owner */\n      dup1\n      0x00\n      swap1\n      sload\n      swap1\n      0x0100\n      exp\n      swap1\n      div\n      0xffffffffffffffffffffffffffffffffffffffff\n      and\n        /* \"Lottery/UZHPancakeLottery.sol\":6980:7025  address payable ownerpayable = payable(owner) */\n      swap1\n      pop\n        /* \"Lottery/UZHPancakeLottery.sol\":7129:7130  0 */\n      0x00\n        /* \"Lottery/UZHPancakeLottery.sol\":7111:7126  TotalLotteryPot */\n      sload(0x04)\n        /* \"Lottery/UZHPancakeLottery.sol\":7111:7130  TotalLotteryPot > 0 */\n      gt\n        /* \"Lottery/UZHPancakeLottery.sol\":7103:7155  require(TotalLotteryPot > 0, \"No Ether to pull out\") */\n      tag_77\n      jumpi\n      mload(0x40)\n      0x08c379a000000000000000000000000000000000000000000000000000000000\n      dup2\n      mstore\n      0x04\n      add\n      tag_78\n      swap1\n      tag_79\n      jump\t// in\n    tag_78:\n      mload(0x40)\n      dup1\n      swap2\n      sub\n      swap1\n      revert\n    tag_77:\n        /* \"Lottery/UZHPancakeLottery.sol\":7224:7236  ownerpayable */\n      dup1\n        /* \"Lottery/UZHPancakeLottery.sol\":7224:7245  ownerpayable.transfer */\n      0xffffffffffffffffffffffffffffffffffffffff\n      and\n        /* \"Lottery/UZHPancakeLottery.sol\":7224:7262  ownerpayable.transfer(TotalLotteryPot) */\n      0x08fc\n        /* \"Lottery/UZHPancakeLottery.sol\":7246:7261  TotalLotteryPot */\n      sload(0x04)\n        /* \"Lottery/UZHPancakeLottery.sol\":7224:7262  ownerpayable.transfer(TotalLotteryPot) */\n      swap1\n      dup2\n      iszero\n      mul\n      swap1\n      mload(0x40)\n      0x00\n      mload(0x40)\n      dup1\n      dup4\n      sub\n      dup2\n      dup6\n      dup9\n      dup9\n      call\n      swap4\n      pop\n      pop\n      pop\n      pop\n      iszero\n      dup1\n      iszero\n      tag_81\n      jumpi\n      returndatasize\n      0x00\n      dup1\n      returndatacopy\n      revert(0x00, returndatasize)\n    tag_81:\n      pop\n        /* \"Lottery/UZHPancakeLottery.sol\":7338:7339  0 */\n      0x00\n        /* \"Lottery/UZHPancakeLottery.sol\":7320:7335  TotalLotteryPot */\n      0x04\n        /* \"Lottery/UZHPancakeLottery.sol\":7320:7339  TotalLotteryPot = 0 */\n      dup2\n      swap1\n      sstore\n      pop\n        /* \"Lottery/UZHPancakeLottery.sol\":6907:7347  {\r... */\n      pop\n        /* \"Lottery/UZHPancakeLottery.sol\":6874:7347  function Pull() public onlyOwner {\r... */\n      jump\t// out\n        /* \"Lottery/UZHPancakeLottery.sol\":1329:1429  function changeTicketPrice(uint _price) public onlyOwner {\r... */\n    tag_24:\n        /* \"Lottery/UZHPancakeLottery.sol\":1207:1212  owner */\n      0x00\n      dup1\n      sload\n      swap1\n      0x0100\n      exp\n      swap1\n      div\n      0xffffffffffffffffffffffffffffffffffffffff\n      and\n        /* \"Lottery/UZHPancakeLottery.sol\":1193:1212  msg.sender == owner */\n      0xffffffffffffffffffffffffffffffffffffffff\n      and\n        /* \"Lottery/UZHPancakeLottery.sol\":1193:1203  msg.sender */\n      caller\n        /* \"Lottery/UZHPancakeLottery.sol\":1193:1212  msg.sender == owner */\n      0xffffffffffffffffffffffffffffffffffffffff\n      and\n      eq\n        /* \"Lottery/UZHPancakeLottery.sol\":1185:1255  require(msg.sender == owner, \"Only the owner can perform this action\") */\n      tag_83\n      jumpi\n      mload(0x40)\n      0x08c379a000000000000000000000000000000000000000000000000000000000\n      dup2\n      mstore\n      0x04\n      add\n      tag_84\n      swap1\n      tag_75\n      jump\t// in\n    tag_84:\n      mload(0x40)\n      dup1\n      swap2\n      sub\n      swap1\n      revert\n    tag_83:\n        /* \"Lottery/UZHPancakeLottery.sol\":1414:1421  1 ether */\n      0x0de0b6b3a7640000\n        /* \"Lottery/UZHPancakeLottery.sol\":1405:1411  _price */\n      dup2\n        /* \"Lottery/UZHPancakeLottery.sol\":1405:1421  _price * 1 ether */\n      tag_86\n      swap2\n      swap1\n      tag_87\n      jump\t// in\n    tag_86:\n        /* \"Lottery/UZHPancakeLottery.sol\":1397:1402  price */\n      0x03\n        /* \"Lottery/UZHPancakeLottery.sol\":1397:1421  price = _price * 1 ether */\n      dup2\n      swap1\n      sstore\n      pop\n        /* \"Lottery/UZHPancakeLottery.sol\":1329:1429  function changeTicketPrice(uint _price) public onlyOwner {\r... */\n      pop\n      jump\t// out\n        /* \"Lottery/UZHPancakeLottery.sol\":802:836  address [] public playersAddresses */\n    tag_28:\n      0x06\n      dup2\n      dup2\n      sload\n      dup2\n      lt\n      tag_88\n      jumpi\n      0x00\n      dup1\n      revert\n    tag_88:\n      swap1\n      0x00\n      mstore\n      keccak256(0x00, 0x20)\n      add\n      0x00\n      swap2\n      pop\n      sload\n      swap1\n      0x0100\n      exp\n      swap1\n      div\n      0xffffffffffffffffffffffffffffffffffffffff\n      and\n      dup2\n      jump\t// out\n        /* \"Lottery/UZHPancakeLottery.sol\":899:933  bool public lotteryStarted = false */\n    tag_33:\n      0x07\n      0x00\n      swap1\n      sload\n      swap1\n      0x0100\n      exp\n      swap1\n      div\n      0xff\n      and\n      dup2\n      jump\t// out\n        /* \"Lottery/UZHPancakeLottery.sol\":2594:3726  function buyTicket(uint[] memory ticketNumbers) public payable {\r... */\n    tag_39:\n        /* \"Lottery/UZHPancakeLottery.sol\":2770:2775  price */\n      sload(0x03)\n        /* \"Lottery/UZHPancakeLottery.sol\":2757:2766  msg.value */\n      callvalue\n        /* \"Lottery/UZHPancakeLottery.sol\":2757:2775  msg.value == price */\n      eq\n        /* \"Lottery/UZHPancakeLottery.sol\":2749:2792  require(msg.value == price, \"Wrong amount\") */\n      tag_91\n      jumpi\n      mload(0x40)\n      0x08c379a000000000000000000000000000000000000000000000000000000000\n      dup2\n      mstore\n      0x04\n      add\n      tag_92\n      swap1\n      tag_93\n      jump\t// in\n    tag_92:\n      mload(0x40)\n      dup1\n      swap2\n      sub\n      swap1\n      revert\n    tag_91:\n        /* \"Lottery/UZHPancakeLottery.sol\":2894:2895  6 */\n      0x06\n        /* \"Lottery/UZHPancakeLottery.sol\":2870:2883  ticketNumbers */\n      dup2\n        /* \"Lottery/UZHPancakeLottery.sol\":2870:2890  ticketNumbers.length */\n      mload\n        /* \"Lottery/UZHPancakeLottery.sol\":2870:2895  ticketNumbers.length == 6 */\n      eq\n        /* \"Lottery/UZHPancakeLottery.sol\":2862:2923  require(ticketNumbers.length == 6, \"Wrong number of numbers\") */\n      tag_94\n      jumpi\n      mload(0x40)\n      0x08c379a000000000000000000000000000000000000000000000000000000000\n      dup2\n      mstore\n      0x04\n      add\n      tag_95\n      swap1\n      tag_96\n      jump\t// in\n    tag_95:\n      mload(0x40)\n      dup1\n      swap2\n      sub\n      swap1\n      revert\n    tag_94:\n        /* \"Lottery/UZHPancakeLottery.sol\":3007:3013  uint i */\n      0x00\n        /* \"Lottery/UZHPancakeLottery.sol\":3002:3148  for (uint i = 0; i < ticketNumbers.length; i++) {\r... */\n    tag_97:\n        /* \"Lottery/UZHPancakeLottery.sol\":3023:3036  ticketNumbers */\n      dup2\n        /* \"Lottery/UZHPancakeLottery.sol\":3023:3043  ticketNumbers.length */\n      mload\n        /* \"Lottery/UZHPancakeLottery.sol\":3019:3020  i */\n      dup2\n        /* \"Lottery/UZHPancakeLottery.sol\":3019:3043  i < ticketNumbers.length */\n      lt\n        /* \"Lottery/UZHPancakeLottery.sol\":3002:3148  for (uint i = 0; i < ticketNumbers.length; i++) {\r... */\n      iszero\n      tag_98\n      jumpi\n        /* \"Lottery/UZHPancakeLottery.sol\":3092:3094  10 */\n      0x0a\n        /* \"Lottery/UZHPancakeLottery.sol\":3073:3086  ticketNumbers */\n      dup3\n        /* \"Lottery/UZHPancakeLottery.sol\":3087:3088  i */\n      dup3\n        /* \"Lottery/UZHPancakeLottery.sol\":3073:3089  ticketNumbers[i] */\n      dup2\n      mload\n      dup2\n      lt\n      tag_100\n      jumpi\n      tag_101\n      tag_102\n      jump\t// in\n    tag_101:\n    tag_100:\n      0x20\n      mul\n      0x20\n      add\n      add\n      mload\n        /* \"Lottery/UZHPancakeLottery.sol\":3073:3094  ticketNumbers[i] < 10 */\n      lt\n        /* \"Lottery/UZHPancakeLottery.sol\":3073:3119  ticketNumbers[i] < 10 && ticketNumbers[i] >= 0 */\n      dup1\n      iszero\n      tag_103\n      jumpi\n      pop\n        /* \"Lottery/UZHPancakeLottery.sol\":3118:3119  0 */\n      0x00\n        /* \"Lottery/UZHPancakeLottery.sol\":3098:3111  ticketNumbers */\n      dup3\n        /* \"Lottery/UZHPancakeLottery.sol\":3112:3113  i */\n      dup3\n        /* \"Lottery/UZHPancakeLottery.sol\":3098:3114  ticketNumbers[i] */\n      dup2\n      mload\n      dup2\n      lt\n      tag_104\n      jumpi\n      tag_105\n      tag_102\n      jump\t// in\n    tag_105:\n    tag_104:\n      0x20\n      mul\n      0x20\n      add\n      add\n      mload\n        /* \"Lottery/UZHPancakeLottery.sol\":3098:3119  ticketNumbers[i] >= 0 */\n      lt\n      iszero\n        /* \"Lottery/UZHPancakeLottery.sol\":3073:3119  ticketNumbers[i] < 10 && ticketNumbers[i] >= 0 */\n    tag_103:\n        /* \"Lottery/UZHPancakeLottery.sol\":3065:3136  require(ticketNumbers[i] < 10 && ticketNumbers[i] >= 0, \"Wrong number\") */\n      tag_106\n      jumpi\n      mload(0x40)\n      0x08c379a000000000000000000000000000000000000000000000000000000000\n      dup2\n      mstore\n      0x04\n      add\n      tag_107\n      swap1\n      tag_108\n      jump\t// in\n    tag_107:\n      mload(0x40)\n      dup1\n      swap2\n      sub\n      swap1\n      revert\n    tag_106:\n        /* \"Lottery/UZHPancakeLottery.sol\":3045:3048  i++ */\n      dup1\n      dup1\n      tag_109\n      swap1\n      tag_110\n      jump\t// in\n    tag_109:\n      swap2\n      pop\n      pop\n        /* \"Lottery/UZHPancakeLottery.sol\":3002:3148  for (uint i = 0; i < ticketNumbers.length; i++) {\r... */\n      jump(tag_97)\n    tag_98:\n      pop\n        /* \"Lottery/UZHPancakeLottery.sol\":3275:3276  0 */\n      0x00\n        /* \"Lottery/UZHPancakeLottery.sol\":3238:3252  playersTickets */\n      0x02\n        /* \"Lottery/UZHPancakeLottery.sol\":3238:3264  playersTickets[msg.sender] */\n      0x00\n        /* \"Lottery/UZHPancakeLottery.sol\":3253:3263  msg.sender */\n      caller\n        /* \"Lottery/UZHPancakeLottery.sol\":3238:3264  playersTickets[msg.sender] */\n      0xffffffffffffffffffffffffffffffffffffffff\n      and\n      0xffffffffffffffffffffffffffffffffffffffff\n      and\n      dup2\n      mstore\n      0x20\n      add\n      swap1\n      dup2\n      mstore\n      0x20\n      add\n      0x00\n      keccak256\n        /* \"Lottery/UZHPancakeLottery.sol\":3238:3271  playersTickets[msg.sender].length */\n      dup1\n      sload\n      swap1\n      pop\n        /* \"Lottery/UZHPancakeLottery.sol\":3238:3276  playersTickets[msg.sender].length == 0 */\n      eq\n        /* \"Lottery/UZHPancakeLottery.sol\":3230:3313  require(playersTickets[msg.sender].length == 0, \"You have already bought a ticket\") */\n      tag_111\n      jumpi\n      mload(0x40)\n      0x08c379a000000000000000000000000000000000000000000000000000000000\n      dup2\n      mstore\n      0x04\n      add\n      tag_112\n      swap1\n      tag_113\n      jump\t// in\n    tag_112:\n      mload(0x40)\n      dup1\n      swap2\n      sub\n      swap1\n      revert\n    tag_111:\n        /* \"Lottery/UZHPancakeLottery.sol\":3418:3431  ticketNumbers */\n      dup1\n        /* \"Lottery/UZHPancakeLottery.sol\":3389:3403  playersTickets */\n      0x02\n        /* \"Lottery/UZHPancakeLottery.sol\":3389:3415  playersTickets[msg.sender] */\n      0x00\n        /* \"Lottery/UZHPancakeLottery.sol\":3404:3414  msg.sender */\n      caller\n        /* \"Lottery/UZHPancakeLottery.sol\":3389:3415  playersTickets[msg.sender] */\n      0xffffffffffffffffffffffffffffffffffffffff\n      and\n      0xffffffffffffffffffffffffffffffffffffffff\n      and\n      dup2\n      mstore\n      0x20\n      add\n      swap1\n      dup2\n      mstore\n      0x20\n      add\n      0x00\n      keccak256\n        /* \"Lottery/UZHPancakeLottery.sol\":3389:3431  playersTickets[msg.sender] = ticketNumbers */\n      swap1\n      dup1\n      mload\n      swap1\n      0x20\n      add\n      swap1\n      tag_114\n      swap3\n      swap2\n      swap1\n      tag_115\n      jump\t// in\n    tag_114:\n      pop\n        /* \"Lottery/UZHPancakeLottery.sol\":3512:3528  playersAddresses */\n      0x06\n        /* \"Lottery/UZHPancakeLottery.sol\":3534:3544  msg.sender */\n      caller\n        /* \"Lottery/UZHPancakeLottery.sol\":3512:3545  playersAddresses.push(msg.sender) */\n      swap1\n      dup1\n      0x01\n      dup2\n      sload\n      add\n      dup1\n      dup3\n      sstore\n      dup1\n      swap2\n      pop\n      pop\n      0x01\n      swap1\n      sub\n      swap1\n      0x00\n      mstore\n      keccak256(0x00, 0x20)\n      add\n      0x00\n      swap1\n      swap2\n      swap1\n      swap2\n      swap1\n      swap2\n      0x0100\n      exp\n      dup2\n      sload\n      dup2\n      0xffffffffffffffffffffffffffffffffffffffff\n      mul\n      not\n      and\n      swap1\n      dup4\n      0xffffffffffffffffffffffffffffffffffffffff\n      and\n      mul\n      or\n      swap1\n      sstore\n      pop\n        /* \"Lottery/UZHPancakeLottery.sol\":3633:3642  msg.value */\n      callvalue\n        /* \"Lottery/UZHPancakeLottery.sol\":3614:3629  TotalLotteryPot */\n      0x04\n      0x00\n        /* \"Lottery/UZHPancakeLottery.sol\":3614:3642  TotalLotteryPot += msg.value */\n      dup3\n      dup3\n      sload\n      tag_117\n      swap2\n      swap1\n      tag_118\n      jump\t// in\n    tag_117:\n      swap3\n      pop\n      pop\n      dup2\n      swap1\n      sstore\n      pop\n        /* \"Lottery/UZHPancakeLottery.sol\":3717:3718  1 */\n      0x01\n        /* \"Lottery/UZHPancakeLottery.sol\":3698:3713  NrticketsBought */\n      0x05\n      0x00\n        /* \"Lottery/UZHPancakeLottery.sol\":3698:3718  NrticketsBought += 1 */\n      dup3\n      dup3\n      sload\n      tag_119\n      swap2\n      swap1\n      tag_118\n      jump\t// in\n    tag_119:\n      swap3\n      pop\n      pop\n      dup2\n      swap1\n      sstore\n      pop\n        /* \"Lottery/UZHPancakeLottery.sol\":2594:3726  function buyTicket(uint[] memory ticketNumbers) public payable {\r... */\n      pop\n      jump\t// out\n        /* \"Lottery/UZHPancakeLottery.sol\":1484:1578  function getTicketPrice() public view returns (uint) {\r... */\n    tag_42:\n        /* \"Lottery/UZHPancakeLottery.sol\":1531:1535  uint */\n      0x00\n        /* \"Lottery/UZHPancakeLottery.sol\":1563:1570  1 ether */\n      0x0de0b6b3a7640000\n        /* \"Lottery/UZHPancakeLottery.sol\":1555:1560  price */\n      sload(0x03)\n        /* \"Lottery/UZHPancakeLottery.sol\":1555:1570  price / 1 ether */\n      tag_121\n      swap2\n      swap1\n      tag_122\n      jump\t// in\n    tag_121:\n        /* \"Lottery/UZHPancakeLottery.sol\":1548:1570  return price / 1 ether */\n      swap1\n      pop\n        /* \"Lottery/UZHPancakeLottery.sol\":1484:1578  function getTicketPrice() public view returns (uint) {\r... */\n      swap1\n      jump\t// out\n        /* \"Lottery/UZHPancakeLottery.sol\":1658:1766  function getTotalLotteryPot() public view returns (uint) {\r... */\n    tag_47:\n        /* \"Lottery/UZHPancakeLottery.sol\":1709:1713  uint */\n      0x00\n        /* \"Lottery/UZHPancakeLottery.sol\":1751:1758  1 ether */\n      0x0de0b6b3a7640000\n        /* \"Lottery/UZHPancakeLottery.sol\":1733:1748  TotalLotteryPot */\n      sload(0x04)\n        /* \"Lottery/UZHPancakeLottery.sol\":1733:1758  TotalLotteryPot / 1 ether */\n      tag_124\n      swap2\n      swap1\n      tag_122\n      jump\t// in\n    tag_124:\n        /* \"Lottery/UZHPancakeLottery.sol\":1726:1758  return TotalLotteryPot / 1 ether */\n      swap1\n      pop\n        /* \"Lottery/UZHPancakeLottery.sol\":1658:1766  function getTotalLotteryPot() public view returns (uint) {\r... */\n      swap1\n      jump\t// out\n        /* \"Lottery/UZHPancakeLottery.sol\":2440:2553  function getWinningNumber() public view onlyOwner returns (uint[] memory) {\r... */\n    tag_51:\n        /* \"Lottery/UZHPancakeLottery.sol\":2499:2512  uint[] memory */\n      0x60\n        /* \"Lottery/UZHPancakeLottery.sol\":1207:1212  owner */\n      0x00\n      dup1\n      sload\n      swap1\n      0x0100\n      exp\n      swap1\n      div\n      0xffffffffffffffffffffffffffffffffffffffff\n      and\n        /* \"Lottery/UZHPancakeLottery.sol\":1193:1212  msg.sender == owner */\n      0xffffffffffffffffffffffffffffffffffffffff\n      and\n        /* \"Lottery/UZHPancakeLottery.sol\":1193:1203  msg.sender */\n      caller\n        /* \"Lottery/UZHPancakeLottery.sol\":1193:1212  msg.sender == owner */\n      0xffffffffffffffffffffffffffffffffffffffff\n      and\n      eq\n        /* \"Lottery/UZHPancakeLottery.sol\":1185:1255  require(msg.sender == owner, \"Only the owner can perform this action\") */\n      tag_126\n      jumpi\n      mload(0x40)\n      0x08c379a000000000000000000000000000000000000000000000000000000000\n      dup2\n      mstore\n      0x04\n      add\n      tag_127\n      swap1\n      tag_75\n      jump\t// in\n    tag_127:\n      mload(0x40)\n      dup1\n      swap2\n      sub\n      swap1\n      revert\n    tag_126:\n        /* \"Lottery/UZHPancakeLottery.sol\":2532:2545  winningNumber */\n      0x01\n        /* \"Lottery/UZHPancakeLottery.sol\":2525:2545  return winningNumber */\n      dup1\n      sload\n      dup1\n      0x20\n      mul\n      0x20\n      add\n      mload(0x40)\n      swap1\n      dup2\n      add\n      0x40\n      mstore\n      dup1\n      swap3\n      swap2\n      swap1\n      dup2\n      dup2\n      mstore\n      0x20\n      add\n      dup3\n      dup1\n      sload\n      dup1\n      iszero\n      tag_129\n      jumpi\n      0x20\n      mul\n      dup3\n      add\n      swap2\n      swap1\n      0x00\n      mstore\n      keccak256(0x00, 0x20)\n      swap1\n    tag_130:\n      dup2\n      sload\n      dup2\n      mstore\n      0x20\n      add\n      swap1\n      0x01\n      add\n      swap1\n      dup1\n      dup4\n      gt\n      tag_130\n      jumpi\n    tag_129:\n      pop\n      pop\n      pop\n      pop\n      pop\n      swap1\n      pop\n        /* \"Lottery/UZHPancakeLottery.sol\":2440:2553  function getWinningNumber() public view onlyOwner returns (uint[] memory) {\r... */\n      swap1\n      jump\t// out\n        /* \"Lottery/UZHPancakeLottery.sol\":302:322  address public owner */\n    tag_56:\n      0x00\n      dup1\n      sload\n      swap1\n      0x0100\n      exp\n      swap1\n      div\n      0xffffffffffffffffffffffffffffffffffffffff\n      and\n      dup2\n      jump\t// out\n        /* \"Lottery/UZHPancakeLottery.sol\":3794:3912  function getMyTicketNumbers() public view returns (uint[] memory) {\r... */\n    tag_60:\n        /* \"Lottery/UZHPancakeLottery.sol\":3845:3858  uint[] memory */\n      0x60\n        /* \"Lottery/UZHPancakeLottery.sol\":3878:3892  playersTickets */\n      0x02\n        /* \"Lottery/UZHPancakeLottery.sol\":3878:3904  playersTickets[msg.sender] */\n      0x00\n        /* \"Lottery/UZHPancakeLottery.sol\":3893:3903  msg.sender */\n      caller\n        /* \"Lottery/UZHPancakeLottery.sol\":3878:3904  playersTickets[msg.sender] */\n      0xffffffffffffffffffffffffffffffffffffffff\n      and\n      0xffffffffffffffffffffffffffffffffffffffff\n      and\n      dup2\n      mstore\n      0x20\n      add\n      swap1\n      dup2\n      mstore\n      0x20\n      add\n      0x00\n      keccak256\n        /* \"Lottery/UZHPancakeLottery.sol\":3871:3904  return playersTickets[msg.sender] */\n      dup1\n      sload\n      dup1\n      0x20\n      mul\n      0x20\n      add\n      mload(0x40)\n      swap1\n      dup2\n      add\n      0x40\n      mstore\n      dup1\n      swap3\n      swap2\n      swap1\n      dup2\n      dup2\n      mstore\n      0x20\n      add\n      dup3\n      dup1\n      sload\n      dup1\n      iszero\n      tag_132\n      jumpi\n      0x20\n      mul\n      dup3\n      add\n      swap2\n      swap1\n      0x00\n      mstore\n      keccak256(0x00, 0x20)\n      swap1\n    tag_133:\n      dup2\n      sload\n      dup2\n      mstore\n      0x20\n      add\n      swap1\n      0x01\n      add\n      swap1\n      dup1\n      dup4\n      gt\n      tag_133\n      jumpi\n    tag_132:\n      pop\n      pop\n      pop\n      pop\n      pop\n      swap1\n      pop\n        /* \"Lottery/UZHPancakeLottery.sol\":3794:3912  function getMyTicketNumbers() public view returns (uint[] memory) {\r... */\n      swap1\n      jump\t// out\n        /* \"Lottery/UZHPancakeLottery.sol\":1827:2341  function setWinningNumbers() public onlyOwner {\r... */\n    tag_64:\n        /* \"Lottery/UZHPancakeLottery.sol\":1207:1212  owner */\n      0x00\n      dup1\n      sload\n      swap1\n      0x0100\n      exp\n      swap1\n      div\n      0xffffffffffffffffffffffffffffffffffffffff\n      and\n        /* \"Lottery/UZHPancakeLottery.sol\":1193:1212  msg.sender == owner */\n      0xffffffffffffffffffffffffffffffffffffffff\n      and\n        /* \"Lottery/UZHPancakeLottery.sol\":1193:1203  msg.sender */\n      caller\n        /* \"Lottery/UZHPancakeLottery.sol\":1193:1212  msg.sender == owner */\n      0xffffffffffffffffffffffffffffffffffffffff\n      and\n      eq\n        /* \"Lottery/UZHPancakeLottery.sol\":1185:1255  require(msg.sender == owner, \"Only the owner can perform this action\") */\n      tag_135\n      jumpi\n      mload(0x40)\n      0x08c379a000000000000000000000000000000000000000000000000000000000\n      dup2\n      mstore\n      0x04\n      add\n      tag_136\n      swap1\n      tag_75\n      jump\t// in\n    tag_136:\n      mload(0x40)\n      dup1\n      swap2\n      sub\n      swap1\n      revert\n    tag_135:\n        /* \"Lottery/UZHPancakeLottery.sol\":1901:1905  true */\n      0x01\n        /* \"Lottery/UZHPancakeLottery.sol\":1884:1898  lotteryStarted */\n      0x07\n      0x00\n        /* \"Lottery/UZHPancakeLottery.sol\":1884:1905  lotteryStarted = true */\n      0x0100\n      exp\n      dup2\n      sload\n      dup2\n      0xff\n      mul\n      not\n      and\n      swap1\n      dup4\n      iszero\n      iszero\n      mul\n      or\n      swap1\n      sstore\n      pop\n        /* \"Lottery/UZHPancakeLottery.sol\":1943:1944  6 */\n      0x06\n        /* \"Lottery/UZHPancakeLottery.sol\":1932:1945  new uint[](6) */\n      0xffffffffffffffff\n      dup2\n      gt\n      iszero\n      tag_138\n      jumpi\n      tag_139\n      tag_140\n      jump\t// in\n    tag_139:\n    tag_138:\n      mload(0x40)\n      swap1\n      dup1\n      dup3\n      mstore\n      dup1\n      0x20\n      mul\n      0x20\n      add\n      dup3\n      add\n      0x40\n      mstore\n      dup1\n      iszero\n      tag_141\n      jumpi\n      dup2\n      0x20\n      add\n      0x20\n      dup3\n      mul\n      dup1\n      calldatasize\n      dup4\n      calldatacopy\n      dup1\n      dup3\n      add\n      swap2\n      pop\n      pop\n      swap1\n      pop\n    tag_141:\n      pop\n        /* \"Lottery/UZHPancakeLottery.sol\":1916:1929  winningNumber */\n      0x01\n        /* \"Lottery/UZHPancakeLottery.sol\":1916:1945  winningNumber = new uint[](6) */\n      swap1\n      dup1\n      mload\n      swap1\n      0x20\n      add\n      swap1\n      tag_142\n      swap3\n      swap2\n      swap1\n      tag_115\n      jump\t// in\n    tag_142:\n      pop\n        /* \"Lottery/UZHPancakeLottery.sol\":1956:1968  uint counter */\n      0x00\n        /* \"Lottery/UZHPancakeLottery.sol\":2061:2067  uint i */\n      dup1\n        /* \"Lottery/UZHPancakeLottery.sol\":2056:2334  for (uint i = 0; i < 6; i++) {\r... */\n    tag_143:\n        /* \"Lottery/UZHPancakeLottery.sol\":2077:2078  6 */\n      0x06\n        /* \"Lottery/UZHPancakeLottery.sol\":2073:2074  i */\n      dup2\n        /* \"Lottery/UZHPancakeLottery.sol\":2073:2078  i < 6 */\n      lt\n        /* \"Lottery/UZHPancakeLottery.sol\":2056:2334  for (uint i = 0; i < 6; i++) {\r... */\n      iszero\n      tag_144\n      jumpi\n        /* \"Lottery/UZHPancakeLottery.sol\":2100:2120  uint256 randomNumber */\n      0x00\n        /* \"Lottery/UZHPancakeLottery.sol\":2182:2184  10 */\n      0x0a\n        /* \"Lottery/UZHPancakeLottery.sol\":2158:2173  block.timestamp */\n      timestamp\n        /* \"Lottery/UZHPancakeLottery.sol\":2175:2176  i */\n      dup4\n        /* \"Lottery/UZHPancakeLottery.sol\":2141:2177  abi.encodePacked(block.timestamp, i) */\n      add(0x20, mload(0x40))\n      tag_146\n      swap3\n      swap2\n      swap1\n      tag_147\n      jump\t// in\n    tag_146:\n      mload(0x40)\n      0x20\n      dup2\n      dup4\n      sub\n      sub\n      dup2\n      mstore\n      swap1\n      0x40\n      mstore\n        /* \"Lottery/UZHPancakeLottery.sol\":2131:2178  keccak256(abi.encodePacked(block.timestamp, i)) */\n      dup1\n      mload\n      swap1\n      0x20\n      add\n      keccak256\n        /* \"Lottery/UZHPancakeLottery.sol\":2123:2179  uint256(keccak256(abi.encodePacked(block.timestamp, i))) */\n      0x00\n      shr\n        /* \"Lottery/UZHPancakeLottery.sol\":2123:2184  uint256(keccak256(abi.encodePacked(block.timestamp, i))) % 10 */\n      tag_148\n      swap2\n      swap1\n      tag_149\n      jump\t// in\n    tag_148:\n        /* \"Lottery/UZHPancakeLottery.sol\":2100:2184  uint256 randomNumber = uint256(keccak256(abi.encodePacked(block.timestamp, i))) % 10 */\n      swap1\n      pop\n        /* \"Lottery/UZHPancakeLottery.sol\":2219:2220  0 */\n      0x00\n        /* \"Lottery/UZHPancakeLottery.sol\":2203:2215  randomNumber */\n      dup2\n        /* \"Lottery/UZHPancakeLottery.sol\":2203:2220  randomNumber != 0 */\n      eq\n        /* \"Lottery/UZHPancakeLottery.sol\":2199:2323  if (randomNumber != 0) {\r... */\n      tag_150\n      jumpi\n        /* \"Lottery/UZHPancakeLottery.sol\":2266:2278  randomNumber */\n      dup1\n        /* \"Lottery/UZHPancakeLottery.sol\":2241:2254  winningNumber */\n      0x01\n        /* \"Lottery/UZHPancakeLottery.sol\":2255:2262  counter */\n      dup5\n        /* \"Lottery/UZHPancakeLottery.sol\":2241:2263  winningNumber[counter] */\n      dup2\n      sload\n      dup2\n      lt\n      tag_151\n      jumpi\n      tag_152\n      tag_102\n      jump\t// in\n    tag_152:\n    tag_151:\n      swap1\n      0x00\n      mstore\n      keccak256(0x00, 0x20)\n      add\n        /* \"Lottery/UZHPancakeLottery.sol\":2241:2278  winningNumber[counter] = randomNumber */\n      dup2\n      swap1\n      sstore\n      pop\n        /* \"Lottery/UZHPancakeLottery.sol\":2298:2307  counter++ */\n      dup3\n      dup1\n      tag_154\n      swap1\n      tag_110\n      jump\t// in\n    tag_154:\n      swap4\n      pop\n      pop\n        /* \"Lottery/UZHPancakeLottery.sol\":2199:2323  if (randomNumber != 0) {\r... */\n    tag_150:\n        /* \"Lottery/UZHPancakeLottery.sol\":2085:2334  {\r... */\n      pop\n        /* \"Lottery/UZHPancakeLottery.sol\":2080:2083  i++ */\n      dup1\n      dup1\n      tag_155\n      swap1\n      tag_110\n      jump\t// in\n    tag_155:\n      swap2\n      pop\n      pop\n        /* \"Lottery/UZHPancakeLottery.sol\":2056:2334  for (uint i = 0; i < 6; i++) {\r... */\n      jump(tag_143)\n    tag_144:\n      pop\n        /* \"Lottery/UZHPancakeLottery.sol\":1873:2341  {\r... */\n      pop\n        /* \"Lottery/UZHPancakeLottery.sol\":1827:2341  function setWinningNumbers() public onlyOwner {\r... */\n      jump\t// out\n        /* \"Lottery/UZHPancakeLottery.sol\":3961:6799  function EndLottery() public onlyOwner{\r... */\n    tag_67:\n        /* \"Lottery/UZHPancakeLottery.sol\":1207:1212  owner */\n      0x00\n      dup1\n      sload\n      swap1\n      0x0100\n      exp\n      swap1\n      div\n      0xffffffffffffffffffffffffffffffffffffffff\n      and\n        /* \"Lottery/UZHPancakeLottery.sol\":1193:1212  msg.sender == owner */\n      0xffffffffffffffffffffffffffffffffffffffff\n      and\n        /* \"Lottery/UZHPancakeLottery.sol\":1193:1203  msg.sender */\n      caller\n        /* \"Lottery/UZHPancakeLottery.sol\":1193:1212  msg.sender == owner */\n      0xffffffffffffffffffffffffffffffffffffffff\n      and\n      eq\n        /* \"Lottery/UZHPancakeLottery.sol\":1185:1255  require(msg.sender == owner, \"Only the owner can perform this action\") */\n      tag_157\n      jumpi\n      mload(0x40)\n      0x08c379a000000000000000000000000000000000000000000000000000000000\n      dup2\n      mstore\n      0x04\n      add\n      tag_158\n      swap1\n      tag_75\n      jump\t// in\n    tag_158:\n      mload(0x40)\n      dup1\n      swap2\n      sub\n      swap1\n      revert\n    tag_157:\n        /* \"Lottery/UZHPancakeLottery.sol\":4089:4093  true */\n      0x01\n        /* \"Lottery/UZHPancakeLottery.sol\":4071:4093  lotteryStarted == true */\n      iszero\n      iszero\n        /* \"Lottery/UZHPancakeLottery.sol\":4071:4085  lotteryStarted */\n      0x07\n      0x00\n      swap1\n      sload\n      swap1\n      0x0100\n      exp\n      swap1\n      div\n      0xff\n      and\n        /* \"Lottery/UZHPancakeLottery.sol\":4071:4093  lotteryStarted == true */\n      iszero\n      iszero\n      eq\n        /* \"Lottery/UZHPancakeLottery.sol\":4063:4119  require(lotteryStarted == true, \"No lottery is running\") */\n      tag_160\n      jumpi\n      mload(0x40)\n      0x08c379a000000000000000000000000000000000000000000000000000000000\n      dup2\n      mstore\n      0x04\n      add\n      tag_161\n      swap1\n      tag_162\n      jump\t// in\n    tag_161:\n      mload(0x40)\n      dup1\n      swap2\n      sub\n      swap1\n      revert\n    tag_160:\n        /* \"Lottery/UZHPancakeLottery.sol\":4221:4222  0 */\n      0x00\n        /* \"Lottery/UZHPancakeLottery.sol\":4203:4218  NrticketsBought */\n      sload(0x05)\n        /* \"Lottery/UZHPancakeLottery.sol\":4203:4222  NrticketsBought > 0 */\n      gt\n        /* \"Lottery/UZHPancakeLottery.sol\":4195:4244  require(NrticketsBought > 0, \"No ticket was bou\") */\n      tag_163\n      jumpi\n      mload(0x40)\n      0x08c379a000000000000000000000000000000000000000000000000000000000\n      dup2\n      mstore\n      0x04\n      add\n      tag_164\n      swap1\n      tag_165\n      jump\t// in\n    tag_164:\n      mload(0x40)\n      dup1\n      swap2\n      sub\n      swap1\n      revert\n    tag_163:\n        /* \"Lottery/UZHPancakeLottery.sol\":4318:4342  uint firstMatchedNumbers */\n      0x00\n        /* \"Lottery/UZHPancakeLottery.sol\":4452:4467  uint percentage */\n      dup1\n        /* \"Lottery/UZHPancakeLottery.sol\":4537:4548  uint reward */\n      0x00\n        /* \"Lottery/UZHPancakeLottery.sol\":4612:4628  uint totalreward */\n      dup1\n        /* \"Lottery/UZHPancakeLottery.sol\":4675:4704  address payable playeraddress */\n      0x00\n        /* \"Lottery/UZHPancakeLottery.sol\":4774:4780  uint i */\n      dup1\n        /* \"Lottery/UZHPancakeLottery.sol\":4783:4784  0 */\n      0x00\n        /* \"Lottery/UZHPancakeLottery.sol\":4774:4784  uint i = 0 */\n      swap1\n      pop\n        /* \"Lottery/UZHPancakeLottery.sol\":4769:6554  for (uint i = 0; i < playersAddresses.length; i++) {   \r... */\n    tag_166:\n        /* \"Lottery/UZHPancakeLottery.sol\":4790:4806  playersAddresses */\n      0x06\n        /* \"Lottery/UZHPancakeLottery.sol\":4790:4813  playersAddresses.length */\n      dup1\n      sload\n      swap1\n      pop\n        /* \"Lottery/UZHPancakeLottery.sol\":4786:4787  i */\n      dup2\n        /* \"Lottery/UZHPancakeLottery.sol\":4786:4813  i < playersAddresses.length */\n      lt\n        /* \"Lottery/UZHPancakeLottery.sol\":4769:6554  for (uint i = 0; i < playersAddresses.length; i++) {   \r... */\n      iszero\n      tag_167\n      jumpi\n        /* \"Lottery/UZHPancakeLottery.sol\":4912:4918  uint j */\n      0x00\n        /* \"Lottery/UZHPancakeLottery.sol\":4907:5273  for (uint j = 0; j < winningNumber.length; j++) {\r... */\n    tag_169:\n        /* \"Lottery/UZHPancakeLottery.sol\":4928:4941  winningNumber */\n      0x01\n        /* \"Lottery/UZHPancakeLottery.sol\":4928:4948  winningNumber.length */\n      dup1\n      sload\n      swap1\n      pop\n        /* \"Lottery/UZHPancakeLottery.sol\":4924:4925  j */\n      dup2\n        /* \"Lottery/UZHPancakeLottery.sol\":4924:4948  j < winningNumber.length */\n      lt\n        /* \"Lottery/UZHPancakeLottery.sol\":4907:5273  for (uint j = 0; j < winningNumber.length; j++) {\r... */\n      iszero\n      tag_170\n      jumpi\n        /* \"Lottery/UZHPancakeLottery.sol\":5122:5135  winningNumber */\n      0x01\n        /* \"Lottery/UZHPancakeLottery.sol\":5136:5137  j */\n      dup2\n        /* \"Lottery/UZHPancakeLottery.sol\":5122:5138  winningNumber[j] */\n      dup2\n      sload\n      dup2\n      lt\n      tag_172\n      jumpi\n      tag_173\n      tag_102\n      jump\t// in\n    tag_173:\n    tag_172:\n      swap1\n      0x00\n      mstore\n      keccak256(0x00, 0x20)\n      add\n      sload\n        /* \"Lottery/UZHPancakeLottery.sol\":5080:5094  playersTickets */\n      0x02\n        /* \"Lottery/UZHPancakeLottery.sol\":5080:5115  playersTickets[playersAddresses[i]] */\n      0x00\n        /* \"Lottery/UZHPancakeLottery.sol\":5095:5111  playersAddresses */\n      0x06\n        /* \"Lottery/UZHPancakeLottery.sol\":5112:5113  i */\n      dup6\n        /* \"Lottery/UZHPancakeLottery.sol\":5095:5114  playersAddresses[i] */\n      dup2\n      sload\n      dup2\n      lt\n      tag_175\n      jumpi\n      tag_176\n      tag_102\n      jump\t// in\n    tag_176:\n    tag_175:\n      swap1\n      0x00\n      mstore\n      keccak256(0x00, 0x20)\n      add\n      0x00\n      swap1\n      sload\n      swap1\n      0x0100\n      exp\n      swap1\n      div\n      0xffffffffffffffffffffffffffffffffffffffff\n      and\n        /* \"Lottery/UZHPancakeLottery.sol\":5080:5115  playersTickets[playersAddresses[i]] */\n      0xffffffffffffffffffffffffffffffffffffffff\n      and\n      0xffffffffffffffffffffffffffffffffffffffff\n      and\n      dup2\n      mstore\n      0x20\n      add\n      swap1\n      dup2\n      mstore\n      0x20\n      add\n      0x00\n      keccak256\n        /* \"Lottery/UZHPancakeLottery.sol\":5116:5117  j */\n      dup3\n        /* \"Lottery/UZHPancakeLottery.sol\":5080:5118  playersTickets[playersAddresses[i]][j] */\n      dup2\n      sload\n      dup2\n      lt\n      tag_178\n      jumpi\n      tag_179\n      tag_102\n      jump\t// in\n    tag_179:\n    tag_178:\n      swap1\n      0x00\n      mstore\n      keccak256(0x00, 0x20)\n      add\n      sload\n        /* \"Lottery/UZHPancakeLottery.sol\":5080:5138  playersTickets[playersAddresses[i]][j] == winningNumber[j] */\n      eq\n        /* \"Lottery/UZHPancakeLottery.sol\":5076:5258  if (playersTickets[playersAddresses[i]][j] == winningNumber[j]) {\r... */\n      iszero\n      tag_181\n      jumpi\n        /* \"Lottery/UZHPancakeLottery.sol\":5163:5184  firstMatchedNumbers++ */\n      dup7\n      dup1\n      tag_182\n      swap1\n      tag_110\n      jump\t// in\n    tag_182:\n      swap8\n      pop\n      pop\n        /* \"Lottery/UZHPancakeLottery.sol\":5076:5258  if (playersTickets[playersAddresses[i]][j] == winningNumber[j]) {\r... */\n      jump(tag_183)\n    tag_181:\n        /* \"Lottery/UZHPancakeLottery.sol\":5233:5238  break */\n      jump(tag_170)\n        /* \"Lottery/UZHPancakeLottery.sol\":5076:5258  if (playersTickets[playersAddresses[i]][j] == winningNumber[j]) {\r... */\n    tag_183:\n        /* \"Lottery/UZHPancakeLottery.sol\":4950:4953  j++ */\n      dup1\n      dup1\n      tag_184\n      swap1\n      tag_110\n      jump\t// in\n    tag_184:\n      swap2\n      pop\n      pop\n        /* \"Lottery/UZHPancakeLottery.sol\":4907:5273  for (uint j = 0; j < winningNumber.length; j++) {\r... */\n      jump(tag_169)\n    tag_170:\n      pop\n        /* \"Lottery/UZHPancakeLottery.sol\":5354:5368  playersTickets */\n      0x02\n        /* \"Lottery/UZHPancakeLottery.sol\":5354:5389  playersTickets[playersAddresses[i]] */\n      0x00\n        /* \"Lottery/UZHPancakeLottery.sol\":5369:5385  playersAddresses */\n      0x06\n        /* \"Lottery/UZHPancakeLottery.sol\":5386:5387  i */\n      dup4\n        /* \"Lottery/UZHPancakeLottery.sol\":5369:5388  playersAddresses[i] */\n      dup2\n      sload\n      dup2\n      lt\n      tag_185\n      jumpi\n      tag_186\n      tag_102\n      jump\t// in\n    tag_186:\n    tag_185:\n      swap1\n      0x00\n      mstore\n      keccak256(0x00, 0x20)\n      add\n      0x00\n      swap1\n      sload\n      swap1\n      0x0100\n      exp\n      swap1\n      div\n      0xffffffffffffffffffffffffffffffffffffffff\n      and\n        /* \"Lottery/UZHPancakeLottery.sol\":5354:5389  playersTickets[playersAddresses[i]] */\n      0xffffffffffffffffffffffffffffffffffffffff\n      and\n      0xffffffffffffffffffffffffffffffffffffffff\n      and\n      dup2\n      mstore\n      0x20\n      add\n      swap1\n      dup2\n      mstore\n      0x20\n      add\n      0x00\n      keccak256\n      0x00\n        /* \"Lottery/UZHPancakeLottery.sol\":5347:5389  delete playersTickets[playersAddresses[i]] */\n      tag_188\n      swap2\n      swap1\n      tag_189\n      jump\t// in\n    tag_188:\n        /* \"Lottery/UZHPancakeLottery.sol\":5516:5517  1 */\n      0x01\n        /* \"Lottery/UZHPancakeLottery.sol\":5493:5512  firstMatchedNumbers */\n      dup7\n        /* \"Lottery/UZHPancakeLottery.sol\":5493:5517  firstMatchedNumbers == 1 */\n      eq\n        /* \"Lottery/UZHPancakeLottery.sol\":5489:5996  if (firstMatchedNumbers == 1) {\r... */\n      iszero\n      tag_190\n      jumpi\n        /* \"Lottery/UZHPancakeLottery.sol\":5551:5552  2 */\n      0x02\n        /* \"Lottery/UZHPancakeLottery.sol\":5538:5552  percentage = 2 */\n      swap5\n      pop\n        /* \"Lottery/UZHPancakeLottery.sol\":5489:5996  if (firstMatchedNumbers == 1) {\r... */\n      jump(tag_191)\n    tag_190:\n        /* \"Lottery/UZHPancakeLottery.sol\":5601:5602  2 */\n      0x02\n        /* \"Lottery/UZHPancakeLottery.sol\":5578:5597  firstMatchedNumbers */\n      dup7\n        /* \"Lottery/UZHPancakeLottery.sol\":5578:5602  firstMatchedNumbers == 2 */\n      eq\n        /* \"Lottery/UZHPancakeLottery.sol\":5574:5996  if (firstMatchedNumbers == 2) {\r... */\n      iszero\n      tag_192\n      jumpi\n        /* \"Lottery/UZHPancakeLottery.sol\":5636:5637  3 */\n      0x03\n        /* \"Lottery/UZHPancakeLottery.sol\":5623:5637  percentage = 3 */\n      swap5\n      pop\n        /* \"Lottery/UZHPancakeLottery.sol\":5574:5996  if (firstMatchedNumbers == 2) {\r... */\n      jump(tag_193)\n    tag_192:\n        /* \"Lottery/UZHPancakeLottery.sol\":5686:5687  3 */\n      0x03\n        /* \"Lottery/UZHPancakeLottery.sol\":5663:5682  firstMatchedNumbers */\n      dup7\n        /* \"Lottery/UZHPancakeLottery.sol\":5663:5687  firstMatchedNumbers == 3 */\n      eq\n        /* \"Lottery/UZHPancakeLottery.sol\":5659:5996  if (firstMatchedNumbers == 3) {\r... */\n      iszero\n      tag_194\n      jumpi\n        /* \"Lottery/UZHPancakeLottery.sol\":5721:5722  5 */\n      0x05\n        /* \"Lottery/UZHPancakeLottery.sol\":5708:5722  percentage = 5 */\n      swap5\n      pop\n        /* \"Lottery/UZHPancakeLottery.sol\":5659:5996  if (firstMatchedNumbers == 3) {\r... */\n      jump(tag_195)\n    tag_194:\n        /* \"Lottery/UZHPancakeLottery.sol\":5771:5772  4 */\n      0x04\n        /* \"Lottery/UZHPancakeLottery.sol\":5748:5767  firstMatchedNumbers */\n      dup7\n        /* \"Lottery/UZHPancakeLottery.sol\":5748:5772  firstMatchedNumbers == 4 */\n      eq\n        /* \"Lottery/UZHPancakeLottery.sol\":5744:5996  if (firstMatchedNumbers == 4) {\r... */\n      iszero\n      tag_196\n      jumpi\n        /* \"Lottery/UZHPancakeLottery.sol\":5806:5808  10 */\n      0x0a\n        /* \"Lottery/UZHPancakeLottery.sol\":5793:5808  percentage = 10 */\n      swap5\n      pop\n        /* \"Lottery/UZHPancakeLottery.sol\":5744:5996  if (firstMatchedNumbers == 4) {\r... */\n      jump(tag_197)\n    tag_196:\n        /* \"Lottery/UZHPancakeLottery.sol\":5857:5858  5 */\n      0x05\n        /* \"Lottery/UZHPancakeLottery.sol\":5834:5853  firstMatchedNumbers */\n      dup7\n        /* \"Lottery/UZHPancakeLottery.sol\":5834:5858  firstMatchedNumbers == 5 */\n      eq\n        /* \"Lottery/UZHPancakeLottery.sol\":5830:5996  if (firstMatchedNumbers == 5) {\r... */\n      iszero\n      tag_198\n      jumpi\n        /* \"Lottery/UZHPancakeLottery.sol\":5892:5894  20 */\n      0x14\n        /* \"Lottery/UZHPancakeLottery.sol\":5879:5894  percentage = 20 */\n      swap5\n      pop\n        /* \"Lottery/UZHPancakeLottery.sol\":5830:5996  if (firstMatchedNumbers == 5) {\r... */\n      jump(tag_199)\n    tag_198:\n        /* \"Lottery/UZHPancakeLottery.sol\":5943:5944  6 */\n      0x06\n        /* \"Lottery/UZHPancakeLottery.sol\":5920:5939  firstMatchedNumbers */\n      dup7\n        /* \"Lottery/UZHPancakeLottery.sol\":5920:5944  firstMatchedNumbers == 6 */\n      eq\n        /* \"Lottery/UZHPancakeLottery.sol\":5916:5996  if (firstMatchedNumbers == 6) {\r... */\n      iszero\n      tag_200\n      jumpi\n        /* \"Lottery/UZHPancakeLottery.sol\":5978:5980  40 */\n      0x28\n        /* \"Lottery/UZHPancakeLottery.sol\":5965:5980  percentage = 40 */\n      swap5\n      pop\n        /* \"Lottery/UZHPancakeLottery.sol\":5916:5996  if (firstMatchedNumbers == 6) {\r... */\n    tag_200:\n        /* \"Lottery/UZHPancakeLottery.sol\":5830:5996  if (firstMatchedNumbers == 5) {\r... */\n    tag_199:\n        /* \"Lottery/UZHPancakeLottery.sol\":5744:5996  if (firstMatchedNumbers == 4) {\r... */\n    tag_197:\n        /* \"Lottery/UZHPancakeLottery.sol\":5659:5996  if (firstMatchedNumbers == 3) {\r... */\n    tag_195:\n        /* \"Lottery/UZHPancakeLottery.sol\":5574:5996  if (firstMatchedNumbers == 2) {\r... */\n    tag_193:\n        /* \"Lottery/UZHPancakeLottery.sol\":5489:5996  if (firstMatchedNumbers == 1) {\r... */\n    tag_191:\n        /* \"Lottery/UZHPancakeLottery.sol\":6093:6096  100 */\n      0x64\n        /* \"Lottery/UZHPancakeLottery.sol\":6079:6089  percentage */\n      dup6\n        /* \"Lottery/UZHPancakeLottery.sol\":6061:6076  TotalLotteryPot */\n      sload(0x04)\n        /* \"Lottery/UZHPancakeLottery.sol\":6061:6089  TotalLotteryPot * percentage */\n      tag_201\n      swap2\n      swap1\n      tag_87\n      jump\t// in\n    tag_201:\n        /* \"Lottery/UZHPancakeLottery.sol\":6060:6096  (TotalLotteryPot * percentage) / 100 */\n      tag_202\n      swap2\n      swap1\n      tag_122\n      jump\t// in\n    tag_202:\n        /* \"Lottery/UZHPancakeLottery.sol\":6051:6096  reward = (TotalLotteryPot * percentage) / 100 */\n      swap4\n      pop\n        /* \"Lottery/UZHPancakeLottery.sol\":6180:6186  reward */\n      dup4\n        /* \"Lottery/UZHPancakeLottery.sol\":6165:6186  totalreward += reward */\n      dup4\n      tag_203\n      swap2\n      swap1\n      tag_118\n      jump\t// in\n    tag_203:\n      swap3\n      pop\n        /* \"Lottery/UZHPancakeLottery.sol\":6291:6307  playersAddresses */\n      0x06\n        /* \"Lottery/UZHPancakeLottery.sol\":6308:6309  i */\n      dup2\n        /* \"Lottery/UZHPancakeLottery.sol\":6291:6310  playersAddresses[i] */\n      dup2\n      sload\n      dup2\n      lt\n      tag_204\n      jumpi\n      tag_205\n      tag_102\n      jump\t// in\n    tag_205:\n    tag_204:\n      swap1\n      0x00\n      mstore\n      keccak256(0x00, 0x20)\n      add\n      0x00\n      swap1\n      sload\n      swap1\n      0x0100\n      exp\n      swap1\n      div\n      0xffffffffffffffffffffffffffffffffffffffff\n      and\n        /* \"Lottery/UZHPancakeLottery.sol\":6267:6311  playeraddress = payable(playersAddresses[i]) */\n      swap2\n      pop\n        /* \"Lottery/UZHPancakeLottery.sol\":6380:6393  playeraddress */\n      dup2\n        /* \"Lottery/UZHPancakeLottery.sol\":6380:6402  playeraddress.transfer */\n      0xffffffffffffffffffffffffffffffffffffffff\n      and\n        /* \"Lottery/UZHPancakeLottery.sol\":6380:6410  playeraddress.transfer(reward) */\n      0x08fc\n        /* \"Lottery/UZHPancakeLottery.sol\":6403:6409  reward */\n      dup6\n        /* \"Lottery/UZHPancakeLottery.sol\":6380:6410  playeraddress.transfer(reward) */\n      swap1\n      dup2\n      iszero\n      mul\n      swap1\n      mload(0x40)\n      0x00\n      mload(0x40)\n      dup1\n      dup4\n      sub\n      dup2\n      dup6\n      dup9\n      dup9\n      call\n      swap4\n      pop\n      pop\n      pop\n      pop\n      iszero\n      dup1\n      iszero\n      tag_208\n      jumpi\n      returndatasize\n      0x00\n      dup1\n      returndatacopy\n      revert(0x00, returndatasize)\n    tag_208:\n      pop\n        /* \"Lottery/UZHPancakeLottery.sol\":6487:6488  0 */\n      0x00\n        /* \"Lottery/UZHPancakeLottery.sol\":6465:6488  firstMatchedNumbers = 0 */\n      swap6\n      pop\n        /* \"Lottery/UZHPancakeLottery.sol\":6516:6517  0 */\n      0x00\n        /* \"Lottery/UZHPancakeLottery.sol\":6503:6517  percentage = 0 */\n      swap5\n      pop\n        /* \"Lottery/UZHPancakeLottery.sol\":6541:6542  0 */\n      0x00\n        /* \"Lottery/UZHPancakeLottery.sol\":6532:6542  reward = 0 */\n      swap4\n      pop\n        /* \"Lottery/UZHPancakeLottery.sol\":4815:4818  i++ */\n      dup1\n      dup1\n      tag_209\n      swap1\n      tag_110\n      jump\t// in\n    tag_209:\n      swap2\n      pop\n      pop\n        /* \"Lottery/UZHPancakeLottery.sol\":4769:6554  for (uint i = 0; i < playersAddresses.length; i++) {   \r... */\n      jump(tag_166)\n    tag_167:\n      pop\n        /* \"Lottery/UZHPancakeLottery.sol\":6624:6625  0 */\n      0x00\n        /* \"Lottery/UZHPancakeLottery.sol\":6606:6621  NrticketsBought */\n      0x05\n        /* \"Lottery/UZHPancakeLottery.sol\":6606:6625  NrticketsBought = 0 */\n      dup2\n      swap1\n      sstore\n      pop\n        /* \"Lottery/UZHPancakeLottery.sol\":6655:6666  totalreward */\n      dup2\n        /* \"Lottery/UZHPancakeLottery.sol\":6636:6651  TotalLotteryPot */\n      0x04\n      0x00\n        /* \"Lottery/UZHPancakeLottery.sol\":6636:6666  TotalLotteryPot -= totalreward */\n      dup3\n      dup3\n      sload\n      tag_210\n      swap2\n      swap1\n      tag_211\n      jump\t// in\n    tag_210:\n      swap3\n      pop\n      pop\n      dup2\n      swap1\n      sstore\n      pop\n        /* \"Lottery/UZHPancakeLottery.sol\":6710:6711  0 */\n      0x00\n        /* \"Lottery/UZHPancakeLottery.sol\":6696:6712  new address[](0) */\n      0xffffffffffffffff\n      dup2\n      gt\n      iszero\n      tag_212\n      jumpi\n      tag_213\n      tag_140\n      jump\t// in\n    tag_213:\n    tag_212:\n      mload(0x40)\n      swap1\n      dup1\n      dup3\n      mstore\n      dup1\n      0x20\n      mul\n      0x20\n      add\n      dup3\n      add\n      0x40\n      mstore\n      dup1\n      iszero\n      tag_214\n      jumpi\n      dup2\n      0x20\n      add\n      0x20\n      dup3\n      mul\n      dup1\n      calldatasize\n      dup4\n      calldatacopy\n      dup1\n      dup3\n      add\n      swap2\n      pop\n      pop\n      swap1\n      pop\n    tag_214:\n      pop\n        /* \"Lottery/UZHPancakeLottery.sol\":6677:6693  playersAddresses */\n      0x06\n        /* \"Lottery/UZHPancakeLottery.sol\":6677:6712  playersAddresses = new address[](0) */\n      swap1\n      dup1\n      mload\n      swap1\n      0x20\n      add\n      swap1\n      tag_215\n      swap3\n      swap2\n      swap1\n      tag_216\n      jump\t// in\n    tag_215:\n      pop\n        /* \"Lottery/UZHPancakeLottery.sol\":6755:6756  0 */\n      0x00\n        /* \"Lottery/UZHPancakeLottery.sol\":6723:6758  playeraddress = payable(address(0)) */\n      swap1\n      pop\n        /* \"Lottery/UZHPancakeLottery.sol\":6786:6791  false */\n      0x00\n        /* \"Lottery/UZHPancakeLottery.sol\":6769:6783  lotteryStarted */\n      0x07\n      0x00\n        /* \"Lottery/UZHPancakeLottery.sol\":6769:6791  lotteryStarted = false */\n      0x0100\n      exp\n      dup2\n      sload\n      dup2\n      0xff\n      mul\n      not\n      and\n      swap1\n      dup4\n      iszero\n      iszero\n      mul\n      or\n      swap1\n      sstore\n      pop\n        /* \"Lottery/UZHPancakeLottery.sol\":3999:6799  {\r... */\n      pop\n      pop\n      pop\n      pop\n      pop\n        /* \"Lottery/UZHPancakeLottery.sol\":3961:6799  function EndLottery() public onlyOwner{\r... */\n      jump\t// out\n        /* \"Lottery/UZHPancakeLottery.sol\":709:740  uint public NrticketsBought = 0 */\n    tag_70:\n      sload(0x05)\n      dup2\n      jump\t// out\n    tag_115:\n      dup3\n      dup1\n      sload\n      dup3\n      dup3\n      sstore\n      swap1\n      0x00\n      mstore\n      keccak256(0x00, 0x20)\n      swap1\n      dup2\n      add\n      swap3\n      dup3\n      iszero\n      tag_217\n      jumpi\n      swap2\n      0x20\n      mul\n      dup3\n      add\n    tag_218:\n      dup3\n      dup2\n      gt\n      iszero\n      tag_219\n      jumpi\n      dup3\n      mload\n      dup3\n      sstore\n      swap2\n      0x20\n      add\n      swap2\n      swap1\n      0x01\n      add\n      swap1\n      jump(tag_218)\n    tag_219:\n    tag_217:\n      pop\n      swap1\n      pop\n      tag_220\n      swap2\n      swap1\n      tag_221\n      jump\t// in\n    tag_220:\n      pop\n      swap1\n      jump\t// out\n    tag_189:\n      pop\n      dup1\n      sload\n      0x00\n      dup3\n      sstore\n      swap1\n      0x00\n      mstore\n      keccak256(0x00, 0x20)\n      swap1\n      dup2\n      add\n      swap1\n      tag_223\n      swap2\n      swap1\n      tag_221\n      jump\t// in\n    tag_223:\n      pop\n      jump\t// out\n    tag_216:\n      dup3\n      dup1\n      sload\n      dup3\n      dup3\n      sstore\n      swap1\n      0x00\n      mstore\n      keccak256(0x00, 0x20)\n      swap1\n      dup2\n      add\n      swap3\n      dup3\n      iszero\n      tag_224\n      jumpi\n      swap2\n      0x20\n      mul\n      dup3\n      add\n    tag_225:\n      dup3\n      dup2\n      gt\n      iszero\n      tag_226\n      jumpi\n      dup3\n      mload\n      dup3\n      exp(0x0100, 0x00)\n      dup2\n      sload\n      dup2\n      0xffffffffffffffffffffffffffffffffffffffff\n      mul\n      not\n      and\n      swap1\n      dup4\n      0xffffffffffffffffffffffffffffffffffffffff\n      and\n      mul\n      or\n      swap1\n      sstore\n      pop\n      swap2\n      0x20\n      add\n      swap2\n      swap1\n      0x01\n      add\n      swap1\n      jump(tag_225)\n    tag_226:\n    tag_224:\n      pop\n      swap1\n      pop\n      tag_227\n      swap2\n      swap1\n      tag_221\n      jump\t// in\n    tag_227:\n      pop\n      swap1\n      jump\t// out\n    tag_221:\n    tag_228:\n      dup1\n      dup3\n      gt\n      iszero\n      tag_229\n      jumpi\n      0x00\n      dup2\n      0x00\n      swap1\n      sstore\n      pop\n      0x01\n      add\n      jump(tag_228)\n    tag_229:\n      pop\n      swap1\n      jump\t// out\n        /* \"#utility.yul\":24:746   */\n    tag_231:\n        /* \"#utility.yul\":120:125   */\n      0x00\n        /* \"#utility.yul\":145:226   */\n      tag_233\n        /* \"#utility.yul\":161:225   */\n      tag_234\n        /* \"#utility.yul\":218:224   */\n      dup5\n        /* \"#utility.yul\":161:225   */\n      tag_235\n      jump\t// in\n    tag_234:\n        /* \"#utility.yul\":145:226   */\n      tag_236\n      jump\t// in\n    tag_233:\n        /* \"#utility.yul\":136:226   */\n      swap1\n      pop\n        /* \"#utility.yul\":246:251   */\n      dup1\n        /* \"#utility.yul\":275:281   */\n      dup4\n        /* \"#utility.yul\":268:273   */\n      dup3\n        /* \"#utility.yul\":261:282   */\n      mstore\n        /* \"#utility.yul\":309:313   */\n      0x20\n        /* \"#utility.yul\":302:307   */\n      dup3\n        /* \"#utility.yul\":298:314   */\n      add\n        /* \"#utility.yul\":291:314   */\n      swap1\n      pop\n        /* \"#utility.yul\":335:341   */\n      dup3\n        /* \"#utility.yul\":385:388   */\n      dup6\n        /* \"#utility.yul\":377:381   */\n      0x20\n        /* \"#utility.yul\":369:375   */\n      dup7\n        /* \"#utility.yul\":365:382   */\n      mul\n        /* \"#utility.yul\":360:363   */\n      dup3\n        /* \"#utility.yul\":356:383   */\n      add\n        /* \"#utility.yul\":353:389   */\n      gt\n        /* \"#utility.yul\":350:493   */\n      iszero\n      tag_237\n      jumpi\n        /* \"#utility.yul\":404:483   */\n      tag_238\n      tag_239\n      jump\t// in\n    tag_238:\n        /* \"#utility.yul\":350:493   */\n    tag_237:\n        /* \"#utility.yul\":517:518   */\n      0x00\n        /* \"#utility.yul\":502:740   */\n    tag_240:\n        /* \"#utility.yul\":527:533   */\n      dup6\n        /* \"#utility.yul\":524:525   */\n      dup2\n        /* \"#utility.yul\":521:534   */\n      lt\n        /* \"#utility.yul\":502:740   */\n      iszero\n      tag_242\n      jumpi\n        /* \"#utility.yul\":595:598   */\n      dup2\n        /* \"#utility.yul\":624:661   */\n      tag_243\n        /* \"#utility.yul\":657:660   */\n      dup9\n        /* \"#utility.yul\":645:655   */\n      dup3\n        /* \"#utility.yul\":624:661   */\n      tag_244\n      jump\t// in\n    tag_243:\n        /* \"#utility.yul\":619:622   */\n      dup5\n        /* \"#utility.yul\":612:662   */\n      mstore\n        /* \"#utility.yul\":691:695   */\n      0x20\n        /* \"#utility.yul\":686:689   */\n      dup5\n        /* \"#utility.yul\":682:696   */\n      add\n        /* \"#utility.yul\":675:696   */\n      swap4\n      pop\n        /* \"#utility.yul\":725:729   */\n      0x20\n        /* \"#utility.yul\":720:723   */\n      dup4\n        /* \"#utility.yul\":716:730   */\n      add\n        /* \"#utility.yul\":709:730   */\n      swap3\n      pop\n        /* \"#utility.yul\":562:740   */\n      pop\n        /* \"#utility.yul\":549:550   */\n      0x01\n        /* \"#utility.yul\":546:547   */\n      dup2\n        /* \"#utility.yul\":542:551   */\n      add\n        /* \"#utility.yul\":537:551   */\n      swap1\n      pop\n        /* \"#utility.yul\":502:740   */\n      jump(tag_240)\n    tag_242:\n        /* \"#utility.yul\":506:520   */\n      pop\n        /* \"#utility.yul\":126:746   */\n      pop\n      pop\n        /* \"#utility.yul\":24:746   */\n      swap4\n      swap3\n      pop\n      pop\n      pop\n      jump\t// out\n        /* \"#utility.yul\":769:1139   */\n    tag_245:\n        /* \"#utility.yul\":840:845   */\n      0x00\n        /* \"#utility.yul\":889:892   */\n      dup3\n        /* \"#utility.yul\":882:886   */\n      0x1f\n        /* \"#utility.yul\":874:880   */\n      dup4\n        /* \"#utility.yul\":870:887   */\n      add\n        /* \"#utility.yul\":866:893   */\n      slt\n        /* \"#utility.yul\":856:978   */\n      tag_247\n      jumpi\n        /* \"#utility.yul\":897:976   */\n      tag_248\n      tag_249\n      jump\t// in\n    tag_248:\n        /* \"#utility.yul\":856:978   */\n    tag_247:\n        /* \"#utility.yul\":1014:1020   */\n      dup2\n        /* \"#utility.yul\":1001:1021   */\n      calldataload\n        /* \"#utility.yul\":1039:1133   */\n      tag_250\n        /* \"#utility.yul\":1129:1132   */\n      dup5\n        /* \"#utility.yul\":1121:1127   */\n      dup3\n        /* \"#utility.yul\":1114:1118   */\n      0x20\n        /* \"#utility.yul\":1106:1112   */\n      dup7\n        /* \"#utility.yul\":1102:1119   */\n      add\n        /* \"#utility.yul\":1039:1133   */\n      tag_231\n      jump\t// in\n    tag_250:\n        /* \"#utility.yul\":1030:1133   */\n      swap2\n      pop\n        /* \"#utility.yul\":846:1139   */\n      pop\n        /* \"#utility.yul\":769:1139   */\n      swap3\n      swap2\n      pop\n      pop\n      jump\t// out\n        /* \"#utility.yul\":1145:1284   */\n    tag_244:\n        /* \"#utility.yul\":1191:1196   */\n      0x00\n        /* \"#utility.yul\":1229:1235   */\n      dup2\n        /* \"#utility.yul\":1216:1236   */\n      calldataload\n        /* \"#utility.yul\":1207:1236   */\n      swap1\n      pop\n        /* \"#utility.yul\":1245:1278   */\n      tag_252\n        /* \"#utility.yul\":1272:1277   */\n      dup2\n        /* \"#utility.yul\":1245:1278   */\n      tag_253\n      jump\t// in\n    tag_252:\n        /* \"#utility.yul\":1145:1284   */\n      swap3\n      swap2\n      pop\n      pop\n      jump\t// out\n        /* \"#utility.yul\":1290:1829   */\n    tag_38:\n        /* \"#utility.yul\":1374:1380   */\n      0x00\n        /* \"#utility.yul\":1423:1425   */\n      0x20\n        /* \"#utility.yul\":1411:1420   */\n      dup3\n        /* \"#utility.yul\":1402:1409   */\n      dup5\n        /* \"#utility.yul\":1398:1421   */\n      sub\n        /* \"#utility.yul\":1394:1426   */\n      slt\n        /* \"#utility.yul\":1391:1510   */\n      iszero\n      tag_255\n      jumpi\n        /* \"#utility.yul\":1429:1508   */\n      tag_256\n      tag_257\n      jump\t// in\n    tag_256:\n        /* \"#utility.yul\":1391:1510   */\n    tag_255:\n        /* \"#utility.yul\":1577:1578   */\n      0x00\n        /* \"#utility.yul\":1566:1575   */\n      dup3\n        /* \"#utility.yul\":1562:1579   */\n      add\n        /* \"#utility.yul\":1549:1580   */\n      calldataload\n        /* \"#utility.yul\":1607:1625   */\n      0xffffffffffffffff\n        /* \"#utility.yul\":1599:1605   */\n      dup2\n        /* \"#utility.yul\":1596:1626   */\n      gt\n        /* \"#utility.yul\":1593:1710   */\n      iszero\n      tag_258\n      jumpi\n        /* \"#utility.yul\":1629:1708   */\n      tag_259\n      tag_260\n      jump\t// in\n    tag_259:\n        /* \"#utility.yul\":1593:1710   */\n    tag_258:\n        /* \"#utility.yul\":1734:1812   */\n      tag_261\n        /* \"#utility.yul\":1804:1811   */\n      dup5\n        /* \"#utility.yul\":1795:1801   */\n      dup3\n        /* \"#utility.yul\":1784:1793   */\n      dup6\n        /* \"#utility.yul\":1780:1802   */\n      add\n        /* \"#utility.yul\":1734:1812   */\n      tag_245\n      jump\t// in\n    tag_261:\n        /* \"#utility.yul\":1724:1812   */\n      swap2\n      pop\n        /* \"#utility.yul\":1520:1822   */\n      pop\n        /* \"#utility.yul\":1290:1829   */\n      swap3\n      swap2\n      pop\n      pop\n      jump\t// out\n        /* \"#utility.yul\":1835:2164   */\n    tag_23:\n        /* \"#utility.yul\":1894:1900   */\n      0x00\n        /* \"#utility.yul\":1943:1945   */\n      0x20\n        /* \"#utility.yul\":1931:1940   */\n      dup3\n        /* \"#utility.yul\":1922:1929   */\n      dup5\n        /* \"#utility.yul\":1918:1941   */\n      sub\n        /* \"#utility.yul\":1914:1946   */\n      slt\n        /* \"#utility.yul\":1911:2030   */\n      iszero\n      tag_263\n      jumpi\n        /* \"#utility.yul\":1949:2028   */\n      tag_264\n      tag_257\n      jump\t// in\n    tag_264:\n        /* \"#utility.yul\":1911:2030   */\n    tag_263:\n        /* \"#utility.yul\":2069:2070   */\n      0x00\n        /* \"#utility.yul\":2094:2147   */\n      tag_265\n        /* \"#utility.yul\":2139:2146   */\n      dup5\n        /* \"#utility.yul\":2130:2136   */\n      dup3\n        /* \"#utility.yul\":2119:2128   */\n      dup6\n        /* \"#utility.yul\":2115:2137   */\n      add\n        /* \"#utility.yul\":2094:2147   */\n      tag_244\n      jump\t// in\n    tag_265:\n        /* \"#utility.yul\":2084:2147   */\n      swap2\n      pop\n        /* \"#utility.yul\":2040:2157   */\n      pop\n        /* \"#utility.yul\":1835:2164   */\n      swap3\n      swap2\n      pop\n      pop\n      jump\t// out\n        /* \"#utility.yul\":2170:2349   */\n    tag_266:\n        /* \"#utility.yul\":2239:2249   */\n      0x00\n        /* \"#utility.yul\":2260:2306   */\n      tag_268\n        /* \"#utility.yul\":2302:2305   */\n      dup4\n        /* \"#utility.yul\":2294:2300   */\n      dup4\n        /* \"#utility.yul\":2260:2306   */\n      tag_269\n      jump\t// in\n    tag_268:\n        /* \"#utility.yul\":2338:2342   */\n      0x20\n        /* \"#utility.yul\":2333:2336   */\n      dup4\n        /* \"#utility.yul\":2329:2343   */\n      add\n        /* \"#utility.yul\":2315:2343   */\n      swap1\n      pop\n        /* \"#utility.yul\":2170:2349   */\n      swap3\n      swap2\n      pop\n      pop\n      jump\t// out\n        /* \"#utility.yul\":2355:2473   */\n    tag_270:\n        /* \"#utility.yul\":2442:2466   */\n      tag_272\n        /* \"#utility.yul\":2460:2465   */\n      dup2\n        /* \"#utility.yul\":2442:2466   */\n      tag_273\n      jump\t// in\n    tag_272:\n        /* \"#utility.yul\":2437:2440   */\n      dup3\n        /* \"#utility.yul\":2430:2467   */\n      mstore\n        /* \"#utility.yul\":2355:2473   */\n      pop\n      pop\n      jump\t// out\n        /* \"#utility.yul\":2509:3241   */\n    tag_274:\n        /* \"#utility.yul\":2628:2631   */\n      0x00\n        /* \"#utility.yul\":2657:2711   */\n      tag_276\n        /* \"#utility.yul\":2705:2710   */\n      dup3\n        /* \"#utility.yul\":2657:2711   */\n      tag_277\n      jump\t// in\n    tag_276:\n        /* \"#utility.yul\":2727:2813   */\n      tag_278\n        /* \"#utility.yul\":2806:2812   */\n      dup2\n        /* \"#utility.yul\":2801:2804   */\n      dup6\n        /* \"#utility.yul\":2727:2813   */\n      tag_279\n      jump\t// in\n    tag_278:\n        /* \"#utility.yul\":2720:2813   */\n      swap4\n      pop\n        /* \"#utility.yul\":2837:2893   */\n      tag_280\n        /* \"#utility.yul\":2887:2892   */\n      dup4\n        /* \"#utility.yul\":2837:2893   */\n      tag_281\n      jump\t// in\n    tag_280:\n        /* \"#utility.yul\":2916:2923   */\n      dup1\n        /* \"#utility.yul\":2947:2948   */\n      0x00\n        /* \"#utility.yul\":2932:3216   */\n    tag_282:\n        /* \"#utility.yul\":2957:2963   */\n      dup4\n        /* \"#utility.yul\":2954:2955   */\n      dup2\n        /* \"#utility.yul\":2951:2964   */\n      lt\n        /* \"#utility.yul\":2932:3216   */\n      iszero\n      tag_284\n      jumpi\n        /* \"#utility.yul\":3033:3039   */\n      dup2\n        /* \"#utility.yul\":3027:3040   */\n      mload\n        /* \"#utility.yul\":3060:3123   */\n      tag_285\n        /* \"#utility.yul\":3119:3122   */\n      dup9\n        /* \"#utility.yul\":3104:3117   */\n      dup3\n        /* \"#utility.yul\":3060:3123   */\n      tag_266\n      jump\t// in\n    tag_285:\n        /* \"#utility.yul\":3053:3123   */\n      swap8\n      pop\n        /* \"#utility.yul\":3146:3206   */\n      tag_286\n        /* \"#utility.yul\":3199:3205   */\n      dup4\n        /* \"#utility.yul\":3146:3206   */\n      tag_287\n      jump\t// in\n    tag_286:\n        /* \"#utility.yul\":3136:3206   */\n      swap3\n      pop\n        /* \"#utility.yul\":2992:3216   */\n      pop\n        /* \"#utility.yul\":2979:2980   */\n      0x01\n        /* \"#utility.yul\":2976:2977   */\n      dup2\n        /* \"#utility.yul\":2972:2981   */\n      add\n        /* \"#utility.yul\":2967:2981   */\n      swap1\n      pop\n        /* \"#utility.yul\":2932:3216   */\n      jump(tag_282)\n    tag_284:\n        /* \"#utility.yul\":2936:2950   */\n      pop\n        /* \"#utility.yul\":3232:3235   */\n      dup6\n        /* \"#utility.yul\":3225:3235   */\n      swap4\n      pop\n        /* \"#utility.yul\":2633:3241   */\n      pop\n      pop\n      pop\n        /* \"#utility.yul\":2509:3241   */\n      swap3\n      swap2\n      pop\n      pop\n      jump\t// out\n        /* \"#utility.yul\":3247:3356   */\n    tag_288:\n        /* \"#utility.yul\":3328:3349   */\n      tag_290\n        /* \"#utility.yul\":3343:3348   */\n      dup2\n        /* \"#utility.yul\":3328:3349   */\n      tag_291\n      jump\t// in\n    tag_290:\n        /* \"#utility.yul\":3323:3326   */\n      dup3\n        /* \"#utility.yul\":3316:3350   */\n      mstore\n        /* \"#utility.yul\":3247:3356   */\n      pop\n      pop\n      jump\t// out\n        /* \"#utility.yul\":3362:3728   */\n    tag_292:\n        /* \"#utility.yul\":3504:3507   */\n      0x00\n        /* \"#utility.yul\":3525:3592   */\n      tag_294\n        /* \"#utility.yul\":3589:3591   */\n      0x14\n        /* \"#utility.yul\":3584:3587   */\n      dup4\n        /* \"#utility.yul\":3525:3592   */\n      tag_295\n      jump\t// in\n    tag_294:\n        /* \"#utility.yul\":3518:3592   */\n      swap2\n      pop\n        /* \"#utility.yul\":3601:3694   */\n      tag_296\n        /* \"#utility.yul\":3690:3693   */\n      dup3\n        /* \"#utility.yul\":3601:3694   */\n      tag_297\n      jump\t// in\n    tag_296:\n        /* \"#utility.yul\":3719:3721   */\n      0x20\n        /* \"#utility.yul\":3714:3717   */\n      dup3\n        /* \"#utility.yul\":3710:3722   */\n      add\n        /* \"#utility.yul\":3703:3722   */\n      swap1\n      pop\n        /* \"#utility.yul\":3362:3728   */\n      swap2\n      swap1\n      pop\n      jump\t// out\n        /* \"#utility.yul\":3734:4100   */\n    tag_298:\n        /* \"#utility.yul\":3876:3879   */\n      0x00\n        /* \"#utility.yul\":3897:3964   */\n      tag_300\n        /* \"#utility.yul\":3961:3963   */\n      0x11\n        /* \"#utility.yul\":3956:3959   */\n      dup4\n        /* \"#utility.yul\":3897:3964   */\n      tag_295\n      jump\t// in\n    tag_300:\n        /* \"#utility.yul\":3890:3964   */\n      swap2\n      pop\n        /* \"#utility.yul\":3973:4066   */\n      tag_301\n        /* \"#utility.yul\":4062:4065   */\n      dup3\n        /* \"#utility.yul\":3973:4066   */\n      tag_302\n      jump\t// in\n    tag_301:\n        /* \"#utility.yul\":4091:4093   */\n      0x20\n        /* \"#utility.yul\":4086:4089   */\n      dup3\n        /* \"#utility.yul\":4082:4094   */\n      add\n        /* \"#utility.yul\":4075:4094   */\n      swap1\n      pop\n        /* \"#utility.yul\":3734:4100   */\n      swap2\n      swap1\n      pop\n      jump\t// out\n        /* \"#utility.yul\":4106:4472   */\n    tag_303:\n        /* \"#utility.yul\":4248:4251   */\n      0x00\n        /* \"#utility.yul\":4269:4336   */\n      tag_305\n        /* \"#utility.yul\":4333:4335   */\n      0x20\n        /* \"#utility.yul\":4328:4331   */\n      dup4\n        /* \"#utility.yul\":4269:4336   */\n      tag_295\n      jump\t// in\n    tag_305:\n        /* \"#utility.yul\":4262:4336   */\n      swap2\n      pop\n        /* \"#utility.yul\":4345:4438   */\n      tag_306\n        /* \"#utility.yul\":4434:4437   */\n      dup3\n        /* \"#utility.yul\":4345:4438   */\n      tag_307\n      jump\t// in\n    tag_306:\n        /* \"#utility.yul\":4463:4465   */\n      0x20\n        /* \"#utility.yul\":4458:4461   */\n      dup3\n        /* \"#utility.yul\":4454:4466   */\n      add\n        /* \"#utility.yul\":4447:4466   */\n      swap1\n      pop\n        /* \"#utility.yul\":4106:4472   */\n      swap2\n      swap1\n      pop\n      jump\t// out\n        /* \"#utility.yul\":4478:4844   */\n    tag_308:\n        /* \"#utility.yul\":4620:4623   */\n      0x00\n        /* \"#utility.yul\":4641:4708   */\n      tag_310\n        /* \"#utility.yul\":4705:4707   */\n      0x26\n        /* \"#utility.yul\":4700:4703   */\n      dup4\n        /* \"#utility.yul\":4641:4708   */\n      tag_295\n      jump\t// in\n    tag_310:\n        /* \"#utility.yul\":4634:4708   */\n      swap2\n      pop\n        /* \"#utility.yul\":4717:4810   */\n      tag_311\n        /* \"#utility.yul\":4806:4809   */\n      dup3\n        /* \"#utility.yul\":4717:4810   */\n      tag_312\n      jump\t// in\n    tag_311:\n        /* \"#utility.yul\":4835:4837   */\n      0x40\n        /* \"#utility.yul\":4830:4833   */\n      dup3\n        /* \"#utility.yul\":4826:4838   */\n      add\n        /* \"#utility.yul\":4819:4838   */\n      swap1\n      pop\n        /* \"#utility.yul\":4478:4844   */\n      swap2\n      swap1\n      pop\n      jump\t// out\n        /* \"#utility.yul\":4850:5216   */\n    tag_313:\n        /* \"#utility.yul\":4992:4995   */\n      0x00\n        /* \"#utility.yul\":5013:5080   */\n      tag_315\n        /* \"#utility.yul\":5077:5079   */\n      0x15\n        /* \"#utility.yul\":5072:5075   */\n      dup4\n        /* \"#utility.yul\":5013:5080   */\n      tag_295\n      jump\t// in\n    tag_315:\n        /* \"#utility.yul\":5006:5080   */\n      swap2\n      pop\n        /* \"#utility.yul\":5089:5182   */\n      tag_316\n        /* \"#utility.yul\":5178:5181   */\n      dup3\n        /* \"#utility.yul\":5089:5182   */\n      tag_317\n      jump\t// in\n    tag_316:\n        /* \"#utility.yul\":5207:5209   */\n      0x20\n        /* \"#utility.yul\":5202:5205   */\n      dup3\n        /* \"#utility.yul\":5198:5210   */\n      add\n        /* \"#utility.yul\":5191:5210   */\n      swap1\n      pop\n        /* \"#utility.yul\":4850:5216   */\n      swap2\n      swap1\n      pop\n      jump\t// out\n        /* \"#utility.yul\":5222:5588   */\n    tag_318:\n        /* \"#utility.yul\":5364:5367   */\n      0x00\n        /* \"#utility.yul\":5385:5452   */\n      tag_320\n        /* \"#utility.yul\":5449:5451   */\n      0x0c\n        /* \"#utility.yul\":5444:5447   */\n      dup4\n        /* \"#utility.yul\":5385:5452   */\n      tag_295\n      jump\t// in\n    tag_320:\n        /* \"#utility.yul\":5378:5452   */\n      swap2\n      pop\n        /* \"#utility.yul\":5461:5554   */\n      tag_321\n        /* \"#utility.yul\":5550:5553   */\n      dup3\n        /* \"#utility.yul\":5461:5554   */\n      tag_322\n      jump\t// in\n    tag_321:\n        /* \"#utility.yul\":5579:5581   */\n      0x20\n        /* \"#utility.yul\":5574:5577   */\n      dup3\n        /* \"#utility.yul\":5570:5582   */\n      add\n        /* \"#utility.yul\":5563:5582   */\n      swap1\n      pop\n        /* \"#utility.yul\":5222:5588   */\n      swap2\n      swap1\n      pop\n      jump\t// out\n        /* \"#utility.yul\":5594:5960   */\n    tag_323:\n        /* \"#utility.yul\":5736:5739   */\n      0x00\n        /* \"#utility.yul\":5757:5824   */\n      tag_325\n        /* \"#utility.yul\":5821:5823   */\n      0x17\n        /* \"#utility.yul\":5816:5819   */\n      dup4\n        /* \"#utility.yul\":5757:5824   */\n      tag_295\n      jump\t// in\n    tag_325:\n        /* \"#utility.yul\":5750:5824   */\n      swap2\n      pop\n        /* \"#utility.yul\":5833:5926   */\n      tag_326\n        /* \"#utility.yul\":5922:5925   */\n      dup3\n        /* \"#utility.yul\":5833:5926   */\n      tag_327\n      jump\t// in\n    tag_326:\n        /* \"#utility.yul\":5951:5953   */\n      0x20\n        /* \"#utility.yul\":5946:5949   */\n      dup3\n        /* \"#utility.yul\":5942:5954   */\n      add\n        /* \"#utility.yul\":5935:5954   */\n      swap1\n      pop\n        /* \"#utility.yul\":5594:5960   */\n      swap2\n      swap1\n      pop\n      jump\t// out\n        /* \"#utility.yul\":5966:6332   */\n    tag_328:\n        /* \"#utility.yul\":6108:6111   */\n      0x00\n        /* \"#utility.yul\":6129:6196   */\n      tag_330\n        /* \"#utility.yul\":6193:6195   */\n      0x0c\n        /* \"#utility.yul\":6188:6191   */\n      dup4\n        /* \"#utility.yul\":6129:6196   */\n      tag_295\n      jump\t// in\n    tag_330:\n        /* \"#utility.yul\":6122:6196   */\n      swap2\n      pop\n        /* \"#utility.yul\":6205:6298   */\n      tag_331\n        /* \"#utility.yul\":6294:6297   */\n      dup3\n        /* \"#utility.yul\":6205:6298   */\n      tag_332\n      jump\t// in\n    tag_331:\n        /* \"#utility.yul\":6323:6325   */\n      0x20\n        /* \"#utility.yul\":6318:6321   */\n      dup3\n        /* \"#utility.yul\":6314:6326   */\n      add\n        /* \"#utility.yul\":6307:6326   */\n      swap1\n      pop\n        /* \"#utility.yul\":5966:6332   */\n      swap2\n      swap1\n      pop\n      jump\t// out\n        /* \"#utility.yul\":6338:6446   */\n    tag_269:\n        /* \"#utility.yul\":6415:6439   */\n      tag_334\n        /* \"#utility.yul\":6433:6438   */\n      dup2\n        /* \"#utility.yul\":6415:6439   */\n      tag_335\n      jump\t// in\n    tag_334:\n        /* \"#utility.yul\":6410:6413   */\n      dup3\n        /* \"#utility.yul\":6403:6440   */\n      mstore\n        /* \"#utility.yul\":6338:6446   */\n      pop\n      pop\n      jump\t// out\n        /* \"#utility.yul\":6452:6570   */\n    tag_336:\n        /* \"#utility.yul\":6539:6563   */\n      tag_338\n        /* \"#utility.yul\":6557:6562   */\n      dup2\n        /* \"#utility.yul\":6539:6563   */\n      tag_335\n      jump\t// in\n    tag_338:\n        /* \"#utility.yul\":6534:6537   */\n      dup3\n        /* \"#utility.yul\":6527:6564   */\n      mstore\n        /* \"#utility.yul\":6452:6570   */\n      pop\n      pop\n      jump\t// out\n        /* \"#utility.yul\":6576:6733   */\n    tag_339:\n        /* \"#utility.yul\":6681:6726   */\n      tag_341\n        /* \"#utility.yul\":6701:6725   */\n      tag_342\n        /* \"#utility.yul\":6719:6724   */\n      dup3\n        /* \"#utility.yul\":6701:6725   */\n      tag_335\n      jump\t// in\n    tag_342:\n        /* \"#utility.yul\":6681:6726   */\n      tag_343\n      jump\t// in\n    tag_341:\n        /* \"#utility.yul\":6676:6679   */\n      dup3\n        /* \"#utility.yul\":6669:6727   */\n      mstore\n        /* \"#utility.yul\":6576:6733   */\n      pop\n      pop\n      jump\t// out\n        /* \"#utility.yul\":6739:7136   */\n    tag_147:\n        /* \"#utility.yul\":6879:6882   */\n      0x00\n        /* \"#utility.yul\":6894:6969   */\n      tag_345\n        /* \"#utility.yul\":6965:6968   */\n      dup3\n        /* \"#utility.yul\":6956:6962   */\n      dup6\n        /* \"#utility.yul\":6894:6969   */\n      tag_339\n      jump\t// in\n    tag_345:\n        /* \"#utility.yul\":6994:6996   */\n      0x20\n        /* \"#utility.yul\":6989:6992   */\n      dup3\n        /* \"#utility.yul\":6985:6997   */\n      add\n        /* \"#utility.yul\":6978:6997   */\n      swap2\n      pop\n        /* \"#utility.yul\":7007:7082   */\n      tag_346\n        /* \"#utility.yul\":7078:7081   */\n      dup3\n        /* \"#utility.yul\":7069:7075   */\n      dup5\n        /* \"#utility.yul\":7007:7082   */\n      tag_339\n      jump\t// in\n    tag_346:\n        /* \"#utility.yul\":7107:7109   */\n      0x20\n        /* \"#utility.yul\":7102:7105   */\n      dup3\n        /* \"#utility.yul\":7098:7110   */\n      add\n        /* \"#utility.yul\":7091:7110   */\n      swap2\n      pop\n        /* \"#utility.yul\":7127:7130   */\n      dup2\n        /* \"#utility.yul\":7120:7130   */\n      swap1\n      pop\n        /* \"#utility.yul\":6739:7136   */\n      swap4\n      swap3\n      pop\n      pop\n      pop\n      jump\t// out\n        /* \"#utility.yul\":7142:7364   */\n    tag_30:\n        /* \"#utility.yul\":7235:7239   */\n      0x00\n        /* \"#utility.yul\":7273:7275   */\n      0x20\n        /* \"#utility.yul\":7262:7271   */\n      dup3\n        /* \"#utility.yul\":7258:7276   */\n      add\n        /* \"#utility.yul\":7250:7276   */\n      swap1\n      pop\n        /* \"#utility.yul\":7286:7357   */\n      tag_348\n        /* \"#utility.yul\":7354:7355   */\n      0x00\n        /* \"#utility.yul\":7343:7352   */\n      dup4\n        /* \"#utility.yul\":7339:7356   */\n      add\n        /* \"#utility.yul\":7330:7336   */\n      dup5\n        /* \"#utility.yul\":7286:7357   */\n      tag_270\n      jump\t// in\n    tag_348:\n        /* \"#utility.yul\":7142:7364   */\n      swap3\n      swap2\n      pop\n      pop\n      jump\t// out\n        /* \"#utility.yul\":7370:7743   */\n    tag_53:\n        /* \"#utility.yul\":7513:7517   */\n      0x00\n        /* \"#utility.yul\":7551:7553   */\n      0x20\n        /* \"#utility.yul\":7540:7549   */\n      dup3\n        /* \"#utility.yul\":7536:7554   */\n      add\n        /* \"#utility.yul\":7528:7554   */\n      swap1\n      pop\n        /* \"#utility.yul\":7600:7609   */\n      dup2\n        /* \"#utility.yul\":7594:7598   */\n      dup2\n        /* \"#utility.yul\":7590:7610   */\n      sub\n        /* \"#utility.yul\":7586:7587   */\n      0x00\n        /* \"#utility.yul\":7575:7584   */\n      dup4\n        /* \"#utility.yul\":7571:7588   */\n      add\n        /* \"#utility.yul\":7564:7611   */\n      mstore\n        /* \"#utility.yul\":7628:7736   */\n      tag_350\n        /* \"#utility.yul\":7731:7735   */\n      dup2\n        /* \"#utility.yul\":7722:7728   */\n      dup5\n        /* \"#utility.yul\":7628:7736   */\n      tag_274\n      jump\t// in\n    tag_350:\n        /* \"#utility.yul\":7620:7736   */\n      swap1\n      pop\n        /* \"#utility.yul\":7370:7743   */\n      swap3\n      swap2\n      pop\n      pop\n      jump\t// out\n        /* \"#utility.yul\":7749:7959   */\n    tag_35:\n        /* \"#utility.yul\":7836:7840   */\n      0x00\n        /* \"#utility.yul\":7874:7876   */\n      0x20\n        /* \"#utility.yul\":7863:7872   */\n      dup3\n        /* \"#utility.yul\":7859:7877   */\n      add\n        /* \"#utility.yul\":7851:7877   */\n      swap1\n      pop\n        /* \"#utility.yul\":7887:7952   */\n      tag_352\n        /* \"#utility.yul\":7949:7950   */\n      0x00\n        /* \"#utility.yul\":7938:7947   */\n      dup4\n        /* \"#utility.yul\":7934:7951   */\n      add\n        /* \"#utility.yul\":7925:7931   */\n      dup5\n        /* \"#utility.yul\":7887:7952   */\n      tag_288\n      jump\t// in\n    tag_352:\n        /* \"#utility.yul\":7749:7959   */\n      swap3\n      swap2\n      pop\n      pop\n      jump\t// out\n        /* \"#utility.yul\":7965:8384   */\n    tag_79:\n        /* \"#utility.yul\":8131:8135   */\n      0x00\n        /* \"#utility.yul\":8169:8171   */\n      0x20\n        /* \"#utility.yul\":8158:8167   */\n      dup3\n        /* \"#utility.yul\":8154:8172   */\n      add\n        /* \"#utility.yul\":8146:8172   */\n      swap1\n      pop\n        /* \"#utility.yul\":8218:8227   */\n      dup2\n        /* \"#utility.yul\":8212:8216   */\n      dup2\n        /* \"#utility.yul\":8208:8228   */\n      sub\n        /* \"#utility.yul\":8204:8205   */\n      0x00\n        /* \"#utility.yul\":8193:8202   */\n      dup4\n        /* \"#utility.yul\":8189:8206   */\n      add\n        /* \"#utility.yul\":8182:8229   */\n      mstore\n        /* \"#utility.yul\":8246:8377   */\n      tag_354\n        /* \"#utility.yul\":8372:8376   */\n      dup2\n        /* \"#utility.yul\":8246:8377   */\n      tag_292\n      jump\t// in\n    tag_354:\n        /* \"#utility.yul\":8238:8377   */\n      swap1\n      pop\n        /* \"#utility.yul\":7965:8384   */\n      swap2\n      swap1\n      pop\n      jump\t// out\n        /* \"#utility.yul\":8390:8809   */\n    tag_165:\n        /* \"#utility.yul\":8556:8560   */\n      0x00\n        /* \"#utility.yul\":8594:8596   */\n      0x20\n        /* \"#utility.yul\":8583:8592   */\n      dup3\n        /* \"#utility.yul\":8579:8597   */\n      add\n        /* \"#utility.yul\":8571:8597   */\n      swap1\n      pop\n        /* \"#utility.yul\":8643:8652   */\n      dup2\n        /* \"#utility.yul\":8637:8641   */\n      dup2\n        /* \"#utility.yul\":8633:8653   */\n      sub\n        /* \"#utility.yul\":8629:8630   */\n      0x00\n        /* \"#utility.yul\":8618:8627   */\n      dup4\n        /* \"#utility.yul\":8614:8631   */\n      add\n        /* \"#utility.yul\":8607:8654   */\n      mstore\n        /* \"#utility.yul\":8671:8802   */\n      tag_356\n        /* \"#utility.yul\":8797:8801   */\n      dup2\n        /* \"#utility.yul\":8671:8802   */\n      tag_298\n      jump\t// in\n    tag_356:\n        /* \"#utility.yul\":8663:8802   */\n      swap1\n      pop\n        /* \"#utility.yul\":8390:8809   */\n      swap2\n      swap1\n      pop\n      jump\t// out\n        /* \"#utility.yul\":8815:9234   */\n    tag_113:\n        /* \"#utility.yul\":8981:8985   */\n      0x00\n        /* \"#utility.yul\":9019:9021   */\n      0x20\n        /* \"#utility.yul\":9008:9017   */\n      dup3\n        /* \"#utility.yul\":9004:9022   */\n      add\n        /* \"#utility.yul\":8996:9022   */\n      swap1\n      pop\n        /* \"#utility.yul\":9068:9077   */\n      dup2\n        /* \"#utility.yul\":9062:9066   */\n      dup2\n        /* \"#utility.yul\":9058:9078   */\n      sub\n        /* \"#utility.yul\":9054:9055   */\n      0x00\n        /* \"#utility.yul\":9043:9052   */\n      dup4\n        /* \"#utility.yul\":9039:9056   */\n      add\n        /* \"#utility.yul\":9032:9079   */\n      mstore\n        /* \"#utility.yul\":9096:9227   */\n      tag_358\n        /* \"#utility.yul\":9222:9226   */\n      dup2\n        /* \"#utility.yul\":9096:9227   */\n      tag_303\n      jump\t// in\n    tag_358:\n        /* \"#utility.yul\":9088:9227   */\n      swap1\n      pop\n        /* \"#utility.yul\":8815:9234   */\n      swap2\n      swap1\n      pop\n      jump\t// out\n        /* \"#utility.yul\":9240:9659   */\n    tag_75:\n        /* \"#utility.yul\":9406:9410   */\n      0x00\n        /* \"#utility.yul\":9444:9446   */\n      0x20\n        /* \"#utility.yul\":9433:9442   */\n      dup3\n        /* \"#utility.yul\":9429:9447   */\n      add\n        /* \"#utility.yul\":9421:9447   */\n      swap1\n      pop\n        /* \"#utility.yul\":9493:9502   */\n      dup2\n        /* \"#utility.yul\":9487:9491   */\n      dup2\n        /* \"#utility.yul\":9483:9503   */\n      sub\n        /* \"#utility.yul\":9479:9480   */\n      0x00\n        /* \"#utility.yul\":9468:9477   */\n      dup4\n        /* \"#utility.yul\":9464:9481   */\n      add\n        /* \"#utility.yul\":9457:9504   */\n      mstore\n        /* \"#utility.yul\":9521:9652   */\n      tag_360\n        /* \"#utility.yul\":9647:9651   */\n      dup2\n        /* \"#utility.yul\":9521:9652   */\n      tag_308\n      jump\t// in\n    tag_360:\n        /* \"#utility.yul\":9513:9652   */\n      swap1\n      pop\n        /* \"#utility.yul\":9240:9659   */\n      swap2\n      swap1\n      pop\n      jump\t// out\n        /* \"#utility.yul\":9665:10084   */\n    tag_162:\n        /* \"#utility.yul\":9831:9835   */\n      0x00\n        /* \"#utility.yul\":9869:9871   */\n      0x20\n        /* \"#utility.yul\":9858:9867   */\n      dup3\n        /* \"#utility.yul\":9854:9872   */\n      add\n        /* \"#utility.yul\":9846:9872   */\n      swap1\n      pop\n        /* \"#utility.yul\":9918:9927   */\n      dup2\n        /* \"#utility.yul\":9912:9916   */\n      dup2\n        /* \"#utility.yul\":9908:9928   */\n      sub\n        /* \"#utility.yul\":9904:9905   */\n      0x00\n        /* \"#utility.yul\":9893:9902   */\n      dup4\n        /* \"#utility.yul\":9889:9906   */\n      add\n        /* \"#utility.yul\":9882:9929   */\n      mstore\n        /* \"#utility.yul\":9946:10077   */\n      tag_362\n        /* \"#utility.yul\":10072:10076   */\n      dup2\n        /* \"#utility.yul\":9946:10077   */\n      tag_313\n      jump\t// in\n    tag_362:\n        /* \"#utility.yul\":9938:10077   */\n      swap1\n      pop\n        /* \"#utility.yul\":9665:10084   */\n      swap2\n      swap1\n      pop\n      jump\t// out\n        /* \"#utility.yul\":10090:10509   */\n    tag_108:\n        /* \"#utility.yul\":10256:10260   */\n      0x00\n        /* \"#utility.yul\":10294:10296   */\n      0x20\n        /* \"#utility.yul\":10283:10292   */\n      dup3\n        /* \"#utility.yul\":10279:10297   */\n      add\n        /* \"#utility.yul\":10271:10297   */\n      swap1\n      pop\n        /* \"#utility.yul\":10343:10352   */\n      dup2\n        /* \"#utility.yul\":10337:10341   */\n      dup2\n        /* \"#utility.yul\":10333:10353   */\n      sub\n        /* \"#utility.yul\":10329:10330   */\n      0x00\n        /* \"#utility.yul\":10318:10327   */\n      dup4\n        /* \"#utility.yul\":10314:10331   */\n      add\n        /* \"#utility.yul\":10307:10354   */\n      mstore\n        /* \"#utility.yul\":10371:10502   */\n      tag_364\n        /* \"#utility.yul\":10497:10501   */\n      dup2\n        /* \"#utility.yul\":10371:10502   */\n      tag_318\n      jump\t// in\n    tag_364:\n        /* \"#utility.yul\":10363:10502   */\n      swap1\n      pop\n        /* \"#utility.yul\":10090:10509   */\n      swap2\n      swap1\n      pop\n      jump\t// out\n        /* \"#utility.yul\":10515:10934   */\n    tag_96:\n        /* \"#utility.yul\":10681:10685   */\n      0x00\n        /* \"#utility.yul\":10719:10721   */\n      0x20\n        /* \"#utility.yul\":10708:10717   */\n      dup3\n        /* \"#utility.yul\":10704:10722   */\n      add\n        /* \"#utility.yul\":10696:10722   */\n      swap1\n      pop\n        /* \"#utility.yul\":10768:10777   */\n      dup2\n        /* \"#utility.yul\":10762:10766   */\n      dup2\n        /* \"#utility.yul\":10758:10778   */\n      sub\n        /* \"#utility.yul\":10754:10755   */\n      0x00\n        /* \"#utility.yul\":10743:10752   */\n      dup4\n        /* \"#utility.yul\":10739:10756   */\n      add\n        /* \"#utility.yul\":10732:10779   */\n      mstore\n        /* \"#utility.yul\":10796:10927   */\n      tag_366\n        /* \"#utility.yul\":10922:10926   */\n      dup2\n        /* \"#utility.yul\":10796:10927   */\n      tag_323\n      jump\t// in\n    tag_366:\n        /* \"#utility.yul\":10788:10927   */\n      swap1\n      pop\n        /* \"#utility.yul\":10515:10934   */\n      swap2\n      swap1\n      pop\n      jump\t// out\n        /* \"#utility.yul\":10940:11359   */\n    tag_93:\n        /* \"#utility.yul\":11106:11110   */\n      0x00\n        /* \"#utility.yul\":11144:11146   */\n      0x20\n        /* \"#utility.yul\":11133:11142   */\n      dup3\n        /* \"#utility.yul\":11129:11147   */\n      add\n        /* \"#utility.yul\":11121:11147   */\n      swap1\n      pop\n        /* \"#utility.yul\":11193:11202   */\n      dup2\n        /* \"#utility.yul\":11187:11191   */\n      dup2\n        /* \"#utility.yul\":11183:11203   */\n      sub\n        /* \"#utility.yul\":11179:11180   */\n      0x00\n        /* \"#utility.yul\":11168:11177   */\n      dup4\n        /* \"#utility.yul\":11164:11181   */\n      add\n        /* \"#utility.yul\":11157:11204   */\n      mstore\n        /* \"#utility.yul\":11221:11352   */\n      tag_368\n        /* \"#utility.yul\":11347:11351   */\n      dup2\n        /* \"#utility.yul\":11221:11352   */\n      tag_328\n      jump\t// in\n    tag_368:\n        /* \"#utility.yul\":11213:11352   */\n      swap1\n      pop\n        /* \"#utility.yul\":10940:11359   */\n      swap2\n      swap1\n      pop\n      jump\t// out\n        /* \"#utility.yul\":11365:11587   */\n    tag_44:\n        /* \"#utility.yul\":11458:11462   */\n      0x00\n        /* \"#utility.yul\":11496:11498   */\n      0x20\n        /* \"#utility.yul\":11485:11494   */\n      dup3\n        /* \"#utility.yul\":11481:11499   */\n      add\n        /* \"#utility.yul\":11473:11499   */\n      swap1\n      pop\n        /* \"#utility.yul\":11509:11580   */\n      tag_370\n        /* \"#utility.yul\":11577:11578   */\n      0x00\n        /* \"#utility.yul\":11566:11575   */\n      dup4\n        /* \"#utility.yul\":11562:11579   */\n      add\n        /* \"#utility.yul\":11553:11559   */\n      dup5\n        /* \"#utility.yul\":11509:11580   */\n      tag_336\n      jump\t// in\n    tag_370:\n        /* \"#utility.yul\":11365:11587   */\n      swap3\n      swap2\n      pop\n      pop\n      jump\t// out\n        /* \"#utility.yul\":11593:11722   */\n    tag_236:\n        /* \"#utility.yul\":11627:11633   */\n      0x00\n        /* \"#utility.yul\":11654:11674   */\n      tag_372\n      tag_373\n      jump\t// in\n    tag_372:\n        /* \"#utility.yul\":11644:11674   */\n      swap1\n      pop\n        /* \"#utility.yul\":11683:11716   */\n      tag_374\n        /* \"#utility.yul\":11711:11715   */\n      dup3\n        /* \"#utility.yul\":11703:11709   */\n      dup3\n        /* \"#utility.yul\":11683:11716   */\n      tag_375\n      jump\t// in\n    tag_374:\n        /* \"#utility.yul\":11593:11722   */\n      swap2\n      swap1\n      pop\n      jump\t// out\n        /* \"#utility.yul\":11728:11803   */\n    tag_373:\n        /* \"#utility.yul\":11761:11767   */\n      0x00\n        /* \"#utility.yul\":11794:11796   */\n      0x40\n        /* \"#utility.yul\":11788:11797   */\n      mload\n        /* \"#utility.yul\":11778:11797   */\n      swap1\n      pop\n        /* \"#utility.yul\":11728:11803   */\n      swap1\n      jump\t// out\n        /* \"#utility.yul\":11809:12120   */\n    tag_235:\n        /* \"#utility.yul\":11886:11890   */\n      0x00\n        /* \"#utility.yul\":11976:11994   */\n      0xffffffffffffffff\n        /* \"#utility.yul\":11968:11974   */\n      dup3\n        /* \"#utility.yul\":11965:11995   */\n      gt\n        /* \"#utility.yul\":11962:12018   */\n      iszero\n      tag_378\n      jumpi\n        /* \"#utility.yul\":11998:12016   */\n      tag_379\n      tag_140\n      jump\t// in\n    tag_379:\n        /* \"#utility.yul\":11962:12018   */\n    tag_378:\n        /* \"#utility.yul\":12048:12052   */\n      0x20\n        /* \"#utility.yul\":12040:12046   */\n      dup3\n        /* \"#utility.yul\":12036:12053   */\n      mul\n        /* \"#utility.yul\":12028:12053   */\n      swap1\n      pop\n        /* \"#utility.yul\":12108:12112   */\n      0x20\n        /* \"#utility.yul\":12102:12106   */\n      dup2\n        /* \"#utility.yul\":12098:12113   */\n      add\n        /* \"#utility.yul\":12090:12113   */\n      swap1\n      pop\n        /* \"#utility.yul\":11809:12120   */\n      swap2\n      swap1\n      pop\n      jump\t// out\n        /* \"#utility.yul\":12126:12258   */\n    tag_281:\n        /* \"#utility.yul\":12193:12197   */\n      0x00\n        /* \"#utility.yul\":12216:12219   */\n      dup2\n        /* \"#utility.yul\":12208:12219   */\n      swap1\n      pop\n        /* \"#utility.yul\":12246:12250   */\n      0x20\n        /* \"#utility.yul\":12241:12244   */\n      dup3\n        /* \"#utility.yul\":12237:12251   */\n      add\n        /* \"#utility.yul\":12229:12251   */\n      swap1\n      pop\n        /* \"#utility.yul\":12126:12258   */\n      swap2\n      swap1\n      pop\n      jump\t// out\n        /* \"#utility.yul\":12264:12378   */\n    tag_277:\n        /* \"#utility.yul\":12331:12337   */\n      0x00\n        /* \"#utility.yul\":12365:12370   */\n      dup2\n        /* \"#utility.yul\":12359:12371   */\n      mload\n        /* \"#utility.yul\":12349:12371   */\n      swap1\n      pop\n        /* \"#utility.yul\":12264:12378   */\n      swap2\n      swap1\n      pop\n      jump\t// out\n        /* \"#utility.yul\":12384:12497   */\n    tag_287:\n        /* \"#utility.yul\":12454:12458   */\n      0x00\n        /* \"#utility.yul\":12486:12490   */\n      0x20\n        /* \"#utility.yul\":12481:12484   */\n      dup3\n        /* \"#utility.yul\":12477:12491   */\n      add\n        /* \"#utility.yul\":12469:12491   */\n      swap1\n      pop\n        /* \"#utility.yul\":12384:12497   */\n      swap2\n      swap1\n      pop\n      jump\t// out\n        /* \"#utility.yul\":12503:12687   */\n    tag_279:\n        /* \"#utility.yul\":12602:12613   */\n      0x00\n        /* \"#utility.yul\":12636:12642   */\n      dup3\n        /* \"#utility.yul\":12631:12634   */\n      dup3\n        /* \"#utility.yul\":12624:12643   */\n      mstore\n        /* \"#utility.yul\":12676:12680   */\n      0x20\n        /* \"#utility.yul\":12671:12674   */\n      dup3\n        /* \"#utility.yul\":12667:12681   */\n      add\n        /* \"#utility.yul\":12652:12681   */\n      swap1\n      pop\n        /* \"#utility.yul\":12503:12687   */\n      swap3\n      swap2\n      pop\n      pop\n      jump\t// out\n        /* \"#utility.yul\":12693:12862   */\n    tag_295:\n        /* \"#utility.yul\":12777:12788   */\n      0x00\n        /* \"#utility.yul\":12811:12817   */\n      dup3\n        /* \"#utility.yul\":12806:12809   */\n      dup3\n        /* \"#utility.yul\":12799:12818   */\n      mstore\n        /* \"#utility.yul\":12851:12855   */\n      0x20\n        /* \"#utility.yul\":12846:12849   */\n      dup3\n        /* \"#utility.yul\":12842:12856   */\n      add\n        /* \"#utility.yul\":12827:12856   */\n      swap1\n      pop\n        /* \"#utility.yul\":12693:12862   */\n      swap3\n      swap2\n      pop\n      pop\n      jump\t// out\n        /* \"#utility.yul\":12868:13173   */\n    tag_118:\n        /* \"#utility.yul\":12908:12911   */\n      0x00\n        /* \"#utility.yul\":12927:12947   */\n      tag_386\n        /* \"#utility.yul\":12945:12946   */\n      dup3\n        /* \"#utility.yul\":12927:12947   */\n      tag_335\n      jump\t// in\n    tag_386:\n        /* \"#utility.yul\":12922:12947   */\n      swap2\n      pop\n        /* \"#utility.yul\":12961:12981   */\n      tag_387\n        /* \"#utility.yul\":12979:12980   */\n      dup4\n        /* \"#utility.yul\":12961:12981   */\n      tag_335\n      jump\t// in\n    tag_387:\n        /* \"#utility.yul\":12956:12981   */\n      swap3\n      pop\n        /* \"#utility.yul\":13115:13116   */\n      dup3\n        /* \"#utility.yul\":13047:13113   */\n      0xffffffffffffffffffffffffffffffffffffffffffffffffffffffffffffffff\n        /* \"#utility.yul\":13043:13117   */\n      sub\n        /* \"#utility.yul\":13040:13041   */\n      dup3\n        /* \"#utility.yul\":13037:13118   */\n      gt\n        /* \"#utility.yul\":13034:13141   */\n      iszero\n      tag_388\n      jumpi\n        /* \"#utility.yul\":13121:13139   */\n      tag_389\n      tag_390\n      jump\t// in\n    tag_389:\n        /* \"#utility.yul\":13034:13141   */\n    tag_388:\n        /* \"#utility.yul\":13165:13166   */\n      dup3\n        /* \"#utility.yul\":13162:13163   */\n      dup3\n        /* \"#utility.yul\":13158:13167   */\n      add\n        /* \"#utility.yul\":13151:13167   */\n      swap1\n      pop\n        /* \"#utility.yul\":12868:13173   */\n      swap3\n      swap2\n      pop\n      pop\n      jump\t// out\n        /* \"#utility.yul\":13179:13364   */\n    tag_122:\n        /* \"#utility.yul\":13219:13220   */\n      0x00\n        /* \"#utility.yul\":13236:13256   */\n      tag_392\n        /* \"#utility.yul\":13254:13255   */\n      dup3\n        /* \"#utility.yul\":13236:13256   */\n      tag_335\n      jump\t// in\n    tag_392:\n        /* \"#utility.yul\":13231:13256   */\n      swap2\n      pop\n        /* \"#utility.yul\":13270:13290   */\n      tag_393\n        /* \"#utility.yul\":13288:13289   */\n      dup4\n        /* \"#utility.yul\":13270:13290   */\n      tag_335\n      jump\t// in\n    tag_393:\n        /* \"#utility.yul\":13265:13290   */\n      swap3\n      pop\n        /* \"#utility.yul\":13309:13310   */\n      dup3\n        /* \"#utility.yul\":13299:13334   */\n      tag_394\n      jumpi\n        /* \"#utility.yul\":13314:13332   */\n      tag_395\n      tag_396\n      jump\t// in\n    tag_395:\n        /* \"#utility.yul\":13299:13334   */\n    tag_394:\n        /* \"#utility.yul\":13356:13357   */\n      dup3\n        /* \"#utility.yul\":13353:13354   */\n      dup3\n        /* \"#utility.yul\":13349:13358   */\n      div\n        /* \"#utility.yul\":13344:13358   */\n      swap1\n      pop\n        /* \"#utility.yul\":13179:13364   */\n      swap3\n      swap2\n      pop\n      pop\n      jump\t// out\n        /* \"#utility.yul\":13370:13718   */\n    tag_87:\n        /* \"#utility.yul\":13410:13417   */\n      0x00\n        /* \"#utility.yul\":13433:13453   */\n      tag_398\n        /* \"#utility.yul\":13451:13452   */\n      dup3\n        /* \"#utility.yul\":13433:13453   */\n      tag_335\n      jump\t// in\n    tag_398:\n        /* \"#utility.yul\":13428:13453   */\n      swap2\n      pop\n        /* \"#utility.yul\":13467:13487   */\n      tag_399\n        /* \"#utility.yul\":13485:13486   */\n      dup4\n        /* \"#utility.yul\":13467:13487   */\n      tag_335\n      jump\t// in\n    tag_399:\n        /* \"#utility.yul\":13462:13487   */\n      swap3\n      pop\n        /* \"#utility.yul\":13655:13656   */\n      dup2\n        /* \"#utility.yul\":13587:13653   */\n      0xffffffffffffffffffffffffffffffffffffffffffffffffffffffffffffffff\n        /* \"#utility.yul\":13583:13657   */\n      div\n        /* \"#utility.yul\":13580:13581   */\n      dup4\n        /* \"#utility.yul\":13577:13658   */\n      gt\n        /* \"#utility.yul\":13572:13573   */\n      dup3\n        /* \"#utility.yul\":13565:13574   */\n      iszero\n        /* \"#utility.yul\":13558:13575   */\n      iszero\n        /* \"#utility.yul\":13554:13659   */\n      and\n        /* \"#utility.yul\":13551:13682   */\n      iszero\n      tag_400\n      jumpi\n        /* \"#utility.yul\":13662:13680   */\n      tag_401\n      tag_390\n      jump\t// in\n    tag_401:\n        /* \"#utility.yul\":13551:13682   */\n    tag_400:\n        /* \"#utility.yul\":13710:13711   */\n      dup3\n        /* \"#utility.yul\":13707:13708   */\n      dup3\n        /* \"#utility.yul\":13703:13712   */\n      mul\n        /* \"#utility.yul\":13692:13712   */\n      swap1\n      pop\n        /* \"#utility.yul\":13370:13718   */\n      swap3\n      swap2\n      pop\n      pop\n      jump\t// out\n        /* \"#utility.yul\":13724:13915   */\n    tag_211:\n        /* \"#utility.yul\":13764:13768   */\n      0x00\n        /* \"#utility.yul\":13784:13804   */\n      tag_403\n        /* \"#utility.yul\":13802:13803   */\n      dup3\n        /* \"#utility.yul\":13784:13804   */\n      tag_335\n      jump\t// in\n    tag_403:\n        /* \"#utility.yul\":13779:13804   */\n      swap2\n      pop\n        /* \"#utility.yul\":13818:13838   */\n      tag_404\n        /* \"#utility.yul\":13836:13837   */\n      dup4\n        /* \"#utility.yul\":13818:13838   */\n      tag_335\n      jump\t// in\n    tag_404:\n        /* \"#utility.yul\":13813:13838   */\n      swap3\n      pop\n        /* \"#utility.yul\":13857:13858   */\n      dup3\n        /* \"#utility.yul\":13854:13855   */\n      dup3\n        /* \"#utility.yul\":13851:13859   */\n      lt\n        /* \"#utility.yul\":13848:13882   */\n      iszero\n      tag_405\n      jumpi\n        /* \"#utility.yul\":13862:13880   */\n      tag_406\n      tag_390\n      jump\t// in\n    tag_406:\n        /* \"#utility.yul\":13848:13882   */\n    tag_405:\n        /* \"#utility.yul\":13907:13908   */\n      dup3\n        /* \"#utility.yul\":13904:13905   */\n      dup3\n        /* \"#utility.yul\":13900:13909   */\n      sub\n        /* \"#utility.yul\":13892:13909   */\n      swap1\n      pop\n        /* \"#utility.yul\":13724:13915   */\n      swap3\n      swap2\n      pop\n      pop\n      jump\t// out\n        /* \"#utility.yul\":13921:14017   */\n    tag_273:\n        /* \"#utility.yul\":13958:13965   */\n      0x00\n        /* \"#utility.yul\":13987:14011   */\n      tag_408\n        /* \"#utility.yul\":14005:14010   */\n      dup3\n        /* \"#utility.yul\":13987:14011   */\n      tag_409\n      jump\t// in\n    tag_408:\n        /* \"#utility.yul\":13976:14011   */\n      swap1\n      pop\n        /* \"#utility.yul\":13921:14017   */\n      swap2\n      swap1\n      pop\n      jump\t// out\n        /* \"#utility.yul\":14023:14113   */\n    tag_291:\n        /* \"#utility.yul\":14057:14064   */\n      0x00\n        /* \"#utility.yul\":14100:14105   */\n      dup2\n        /* \"#utility.yul\":14093:14106   */\n      iszero\n        /* \"#utility.yul\":14086:14107   */\n      iszero\n        /* \"#utility.yul\":14075:14107   */\n      swap1\n      pop\n        /* \"#utility.yul\":14023:14113   */\n      swap2\n      swap1\n      pop\n      jump\t// out\n        /* \"#utility.yul\":14119:14245   */\n    tag_409:\n        /* \"#utility.yul\":14156:14163   */\n      0x00\n        /* \"#utility.yul\":14196:14238   */\n      0xffffffffffffffffffffffffffffffffffffffff\n        /* \"#utility.yul\":14189:14194   */\n      dup3\n        /* \"#utility.yul\":14185:14239   */\n      and\n        /* \"#utility.yul\":14174:14239   */\n      swap1\n      pop\n        /* \"#utility.yul\":14119:14245   */\n      swap2\n      swap1\n      pop\n      jump\t// out\n        /* \"#utility.yul\":14251:14328   */\n    tag_335:\n        /* \"#utility.yul\":14288:14295   */\n      0x00\n        /* \"#utility.yul\":14317:14322   */\n      dup2\n        /* \"#utility.yul\":14306:14322   */\n      swap1\n      pop\n        /* \"#utility.yul\":14251:14328   */\n      swap2\n      swap1\n      pop\n      jump\t// out\n        /* \"#utility.yul\":14334:14615   */\n    tag_375:\n        /* \"#utility.yul\":14417:14444   */\n      tag_414\n        /* \"#utility.yul\":14439:14443   */\n      dup3\n        /* \"#utility.yul\":14417:14444   */\n      tag_415\n      jump\t// in\n    tag_414:\n        /* \"#utility.yul\":14409:14415   */\n      dup2\n        /* \"#utility.yul\":14405:14445   */\n      add\n        /* \"#utility.yul\":14547:14553   */\n      dup2\n        /* \"#utility.yul\":14535:14545   */\n      dup2\n        /* \"#utility.yul\":14532:14554   */\n      lt\n        /* \"#utility.yul\":14511:14529   */\n      0xffffffffffffffff\n        /* \"#utility.yul\":14499:14509   */\n      dup3\n        /* \"#utility.yul\":14496:14530   */\n      gt\n        /* \"#utility.yul\":14493:14555   */\n      or\n        /* \"#utility.yul\":14490:14578   */\n      iszero\n      tag_416\n      jumpi\n        /* \"#utility.yul\":14558:14576   */\n      tag_417\n      tag_140\n      jump\t// in\n    tag_417:\n        /* \"#utility.yul\":14490:14578   */\n    tag_416:\n        /* \"#utility.yul\":14598:14608   */\n      dup1\n        /* \"#utility.yul\":14594:14596   */\n      0x40\n        /* \"#utility.yul\":14587:14609   */\n      mstore\n        /* \"#utility.yul\":14377:14615   */\n      pop\n        /* \"#utility.yul\":14334:14615   */\n      pop\n      pop\n      jump\t// out\n        /* \"#utility.yul\":14621:14854   */\n    tag_110:\n        /* \"#utility.yul\":14660:14663   */\n      0x00\n        /* \"#utility.yul\":14683:14707   */\n      tag_419\n        /* \"#utility.yul\":14701:14706   */\n      dup3\n        /* \"#utility.yul\":14683:14707   */\n      tag_335\n      jump\t// in\n    tag_419:\n        /* \"#utility.yul\":14674:14707   */\n      swap2\n      pop\n        /* \"#utility.yul\":14729:14795   */\n      0xffffffffffffffffffffffffffffffffffffffffffffffffffffffffffffffff\n        /* \"#utility.yul\":14722:14727   */\n      dup3\n        /* \"#utility.yul\":14719:14796   */\n      eq\n        /* \"#utility.yul\":14716:14819   */\n      iszero\n      tag_420\n      jumpi\n        /* \"#utility.yul\":14799:14817   */\n      tag_421\n      tag_390\n      jump\t// in\n    tag_421:\n        /* \"#utility.yul\":14716:14819   */\n    tag_420:\n        /* \"#utility.yul\":14846:14847   */\n      0x01\n        /* \"#utility.yul\":14839:14844   */\n      dup3\n        /* \"#utility.yul\":14835:14848   */\n      add\n        /* \"#utility.yul\":14828:14848   */\n      swap1\n      pop\n        /* \"#utility.yul\":14621:14854   */\n      swap2\n      swap1\n      pop\n      jump\t// out\n        /* \"#utility.yul\":14860:14939   */\n    tag_343:\n        /* \"#utility.yul\":14899:14906   */\n      0x00\n        /* \"#utility.yul\":14928:14933   */\n      dup2\n        /* \"#utility.yul\":14917:14933   */\n      swap1\n      pop\n        /* \"#utility.yul\":14860:14939   */\n      swap2\n      swap1\n      pop\n      jump\t// out\n        /* \"#utility.yul\":14945:15121   */\n    tag_149:\n        /* \"#utility.yul\":14977:14978   */\n      0x00\n        /* \"#utility.yul\":14994:15014   */\n      tag_424\n        /* \"#utility.yul\":15012:15013   */\n      dup3\n        /* \"#utility.yul\":14994:15014   */\n      tag_335\n      jump\t// in\n    tag_424:\n        /* \"#utility.yul\":14989:15014   */\n      swap2\n      pop\n        /* \"#utility.yul\":15028:15048   */\n      tag_425\n        /* \"#utility.yul\":15046:15047   */\n      dup4\n        /* \"#utility.yul\":15028:15048   */\n      tag_335\n      jump\t// in\n    tag_425:\n        /* \"#utility.yul\":15023:15048   */\n      swap3\n      pop\n        /* \"#utility.yul\":15067:15068   */\n      dup3\n        /* \"#utility.yul\":15057:15092   */\n      tag_426\n      jumpi\n        /* \"#utility.yul\":15072:15090   */\n      tag_427\n      tag_396\n      jump\t// in\n    tag_427:\n        /* \"#utility.yul\":15057:15092   */\n    tag_426:\n        /* \"#utility.yul\":15113:15114   */\n      dup3\n        /* \"#utility.yul\":15110:15111   */\n      dup3\n        /* \"#utility.yul\":15106:15115   */\n      mod\n        /* \"#utility.yul\":15101:15115   */\n      swap1\n      pop\n        /* \"#utility.yul\":14945:15121   */\n      swap3\n      swap2\n      pop\n      pop\n      jump\t// out\n        /* \"#utility.yul\":15127:15307   */\n    tag_390:\n        /* \"#utility.yul\":15175:15252   */\n      0x4e487b7100000000000000000000000000000000000000000000000000000000\n        /* \"#utility.yul\":15172:15173   */\n      0x00\n        /* \"#utility.yul\":15165:15253   */\n      mstore\n        /* \"#utility.yul\":15272:15276   */\n      0x11\n        /* \"#utility.yul\":15269:15270   */\n      0x04\n        /* \"#utility.yul\":15262:15277   */\n      mstore\n        /* \"#utility.yul\":15296:15300   */\n      0x24\n        /* \"#utility.yul\":15293:15294   */\n      0x00\n        /* \"#utility.yul\":15286:15301   */\n      revert\n        /* \"#utility.yul\":15313:15493   */\n    tag_396:\n        /* \"#utility.yul\":15361:15438   */\n      0x4e487b7100000000000000000000000000000000000000000000000000000000\n        /* \"#utility.yul\":15358:15359   */\n      0x00\n        /* \"#utility.yul\":15351:15439   */\n      mstore\n        /* \"#utility.yul\":15458:15462   */\n      0x12\n        /* \"#utility.yul\":15455:15456   */\n      0x04\n        /* \"#utility.yul\":15448:15463   */\n      mstore\n        /* \"#utility.yul\":15482:15486   */\n      0x24\n        /* \"#utility.yul\":15479:15480   */\n      0x00\n        /* \"#utility.yul\":15472:15487   */\n      revert\n        /* \"#utility.yul\":15499:15679   */\n    tag_102:\n        /* \"#utility.yul\":15547:15624   */\n      0x4e487b7100000000000000000000000000000000000000000000000000000000\n        /* \"#utility.yul\":15544:15545   */\n      0x00\n        /* \"#utility.yul\":15537:15625   */\n      mstore\n        /* \"#utility.yul\":15644:15648   */\n      0x32\n        /* \"#utility.yul\":15641:15642   */\n      0x04\n        /* \"#utility.yul\":15634:15649   */\n      mstore\n        /* \"#utility.yul\":15668:15672   */\n      0x24\n        /* \"#utility.yul\":15665:15666   */\n      0x00\n        /* \"#utility.yul\":15658:15673   */\n      revert\n        /* \"#utility.yul\":15685:15865   */\n    tag_140:\n        /* \"#utility.yul\":15733:15810   */\n      0x4e487b7100000000000000000000000000000000000000000000000000000000\n        /* \"#utility.yul\":15730:15731   */\n      0x00\n        /* \"#utility.yul\":15723:15811   */\n      mstore\n        /* \"#utility.yul\":15830:15834   */\n      0x41\n        /* \"#utility.yul\":15827:15828   */\n      0x04\n        /* \"#utility.yul\":15820:15835   */\n      mstore\n        /* \"#utility.yul\":15854:15858   */\n      0x24\n        /* \"#utility.yul\":15851:15852   */\n      0x00\n        /* \"#utility.yul\":15844:15859   */\n      revert\n        /* \"#utility.yul\":15871:15988   */\n    tag_249:\n        /* \"#utility.yul\":15980:15981   */\n      0x00\n        /* \"#utility.yul\":15977:15978   */\n      dup1\n        /* \"#utility.yul\":15970:15982   */\n      revert\n        /* \"#utility.yul\":15994:16111   */\n    tag_239:\n        /* \"#utility.yul\":16103:16104   */\n      0x00\n        /* \"#utility.yul\":16100:16101   */\n      dup1\n        /* \"#utility.yul\":16093:16105   */\n      revert\n        /* \"#utility.yul\":16117:16234   */\n    tag_260:\n        /* \"#utility.yul\":16226:16227   */\n      0x00\n        /* \"#utility.yul\":16223:16224   */\n      dup1\n        /* \"#utility.yul\":16216:16228   */\n      revert\n        /* \"#utility.yul\":16240:16357   */\n    tag_257:\n        /* \"#utility.yul\":16349:16350   */\n      0x00\n        /* \"#utility.yul\":16346:16347   */\n      dup1\n        /* \"#utility.yul\":16339:16351   */\n      revert\n        /* \"#utility.yul\":16363:16465   */\n    tag_415:\n        /* \"#utility.yul\":16404:16410   */\n      0x00\n        /* \"#utility.yul\":16455:16457   */\n      0x1f\n        /* \"#utility.yul\":16451:16458   */\n      not\n        /* \"#utility.yul\":16446:16448   */\n      0x1f\n        /* \"#utility.yul\":16439:16444   */\n      dup4\n        /* \"#utility.yul\":16435:16449   */\n      add\n        /* \"#utility.yul\":16431:16459   */\n      and\n        /* \"#utility.yul\":16421:16459   */\n      swap1\n      pop\n        /* \"#utility.yul\":16363:16465   */\n      swap2\n      swap1\n      pop\n      jump\t// out\n        /* \"#utility.yul\":16471:16641   */\n    tag_297:\n        /* \"#utility.yul\":16611:16633   */\n      0x4e6f20457468657220746f2070756c6c206f7574000000000000000000000000\n        /* \"#utility.yul\":16607:16608   */\n      0x00\n        /* \"#utility.yul\":16599:16605   */\n      dup3\n        /* \"#utility.yul\":16595:16609   */\n      add\n        /* \"#utility.yul\":16588:16634   */\n      mstore\n        /* \"#utility.yul\":16471:16641   */\n      pop\n      jump\t// out\n        /* \"#utility.yul\":16647:16814   */\n    tag_302:\n        /* \"#utility.yul\":16787:16806   */\n      0x4e6f207469636b65742077617320626f75000000000000000000000000000000\n        /* \"#utility.yul\":16783:16784   */\n      0x00\n        /* \"#utility.yul\":16775:16781   */\n      dup3\n        /* \"#utility.yul\":16771:16785   */\n      add\n        /* \"#utility.yul\":16764:16807   */\n      mstore\n        /* \"#utility.yul\":16647:16814   */\n      pop\n      jump\t// out\n        /* \"#utility.yul\":16820:17002   */\n    tag_307:\n        /* \"#utility.yul\":16960:16994   */\n      0x596f75206861766520616c726561647920626f756768742061207469636b6574\n        /* \"#utility.yul\":16956:16957   */\n      0x00\n        /* \"#utility.yul\":16948:16954   */\n      dup3\n        /* \"#utility.yul\":16944:16958   */\n      add\n        /* \"#utility.yul\":16937:16995   */\n      mstore\n        /* \"#utility.yul\":16820:17002   */\n      pop\n      jump\t// out\n        /* \"#utility.yul\":17008:17233   */\n    tag_312:\n        /* \"#utility.yul\":17148:17182   */\n      0x4f6e6c7920746865206f776e65722063616e20706572666f726d207468697320\n        /* \"#utility.yul\":17144:17145   */\n      0x00\n        /* \"#utility.yul\":17136:17142   */\n      dup3\n        /* \"#utility.yul\":17132:17146   */\n      add\n        /* \"#utility.yul\":17125:17183   */\n      mstore\n        /* \"#utility.yul\":17217:17225   */\n      0x616374696f6e0000000000000000000000000000000000000000000000000000\n        /* \"#utility.yul\":17212:17214   */\n      0x20\n        /* \"#utility.yul\":17204:17210   */\n      dup3\n        /* \"#utility.yul\":17200:17215   */\n      add\n        /* \"#utility.yul\":17193:17226   */\n      mstore\n        /* \"#utility.yul\":17008:17233   */\n      pop\n      jump\t// out\n        /* \"#utility.yul\":17239:17410   */\n    tag_317:\n        /* \"#utility.yul\":17379:17402   */\n      0x4e6f206c6f74746572792069732072756e6e696e670000000000000000000000\n        /* \"#utility.yul\":17375:17376   */\n      0x00\n        /* \"#utility.yul\":17367:17373   */\n      dup3\n        /* \"#utility.yul\":17363:17377   */\n      add\n        /* \"#utility.yul\":17356:17403   */\n      mstore\n        /* \"#utility.yul\":17239:17410   */\n      pop\n      jump\t// out\n        /* \"#utility.yul\":17416:17578   */\n    tag_322:\n        /* \"#utility.yul\":17556:17570   */\n      0x57726f6e67206e756d6265720000000000000000000000000000000000000000\n        /* \"#utility.yul\":17552:17553   */\n      0x00\n        /* \"#utility.yul\":17544:17550   */\n      dup3\n        /* \"#utility.yul\":17540:17554   */\n      add\n        /* \"#utility.yul\":17533:17571   */\n      mstore\n        /* \"#utility.yul\":17416:17578   */\n      pop\n      jump\t// out\n        /* \"#utility.yul\":17584:17757   */\n    tag_327:\n        /* \"#utility.yul\":17724:17749   */\n      0x57726f6e67206e756d626572206f66206e756d62657273000000000000000000\n        /* \"#utility.yul\":17720:17721   */\n      0x00\n        /* \"#utility.yul\":17712:17718   */\n      dup3\n        /* \"#utility.yul\":17708:17722   */\n      add\n        /* \"#utility.yul\":17701:17750   */\n      mstore\n        /* \"#utility.yul\":17584:17757   */\n      pop\n      jump\t// out\n        /* \"#utility.yul\":17763:17925   */\n    tag_332:\n        /* \"#utility.yul\":17903:17917   */\n      0x57726f6e6720616d6f756e740000000000000000000000000000000000000000\n        /* \"#utility.yul\":17899:17900   */\n      0x00\n        /* \"#utility.yul\":17891:17897   */\n      dup3\n        /* \"#utility.yul\":17887:17901   */\n      add\n        /* \"#utility.yul\":17880:17918   */\n      mstore\n        /* \"#utility.yul\":17763:17925   */\n      pop\n      jump\t// out\n        /* \"#utility.yul\":17931:18053   */\n    tag_253:\n        /* \"#utility.yul\":18004:18028   */\n      tag_446\n        /* \"#utility.yul\":18022:18027   */\n      dup2\n        /* \"#utility.yul\":18004:18028   */\n      tag_335\n      jump\t// in\n    tag_446:\n        /* \"#utility.yul\":17997:18002   */\n      dup2\n        /* \"#utility.yul\":17994:18029   */\n      eq\n        /* \"#utility.yul\":17984:18047   */\n      tag_447\n      jumpi\n        /* \"#utility.yul\":18043:18044   */\n      0x00\n        /* \"#utility.yul\":18040:18041   */\n      dup1\n        /* \"#utility.yul\":18033:18045   */\n      revert\n        /* \"#utility.yul\":17984:18047   */\n    tag_447:\n        /* \"#utility.yul\":17931:18053   */\n      pop\n      jump\t// out\n\n    auxdata: 0xa2646970667358221220103028d1b7e54d17a6abf92fbff9fd54bc1c0f0017659e3a66e80a93ddaa888b64736f6c63430008070033\n}\n",
				"bytecode": {
					"linkReferences": {},
					"object": "6080604052674563918244f4000060035560006005556000600760006101000a81548160ff02191690831515021790555034801561003c57600080fd5b50336000806101000a81548173ffffffffffffffffffffffffffffffffffffffff021916908373ffffffffffffffffffffffffffffffffffffffff160217905550611adb8061008c6000396000f3fe6080604052600436106100c25760003560e01c80638a4a29c31161007f578063a650fbab11610059578063a650fbab14610237578063a7caba2514610262578063b04a3f1c14610279578063d386ea7314610290576100c2565b80638a4a29c3146101b65780638b0b9ed4146101e15780638da5cb5b1461020c576100c2565b806330daec49146100c75780634630a0ee146100de578063472016da146101075780635a3811b914610144578063716cac961461016f57806387bb7ae01461018b575b600080fd5b3480156100d357600080fd5b506100dc6102bb565b005b3480156100ea57600080fd5b50610105600480360381019061010091906111e5565b610408565b005b34801561011357600080fd5b5061012e600480360381019061012991906111e5565b6104b3565b60405161013b919061141f565b60405180910390f35b34801561015057600080fd5b506101596104f2565b604051610166919061145c565b60405180910390f35b6101896004803603810190610184919061119c565b610505565b005b34801561019757600080fd5b506101a06107a3565b6040516101ad9190611577565b60405180910390f35b3480156101c257600080fd5b506101cb6107c0565b6040516101d89190611577565b60405180910390f35b3480156101ed57600080fd5b506101f66107dd565b604051610203919061143a565b60405180910390f35b34801561021857600080fd5b506102216108c3565b60405161022e919061141f565b60405180910390f35b34801561024357600080fd5b5061024c6108e7565b604051610259919061143a565b60405180910390f35b34801561026e57600080fd5b5061027761097c565b005b34801561028557600080fd5b5061028e610b20565b005b34801561029c57600080fd5b506102a5610fce565b6040516102b29190611577565b60405180910390f35b60008054906101000a900473ffffffffffffffffffffffffffffffffffffffff1673ffffffffffffffffffffffffffffffffffffffff163373ffffffffffffffffffffffffffffffffffffffff1614610349576040517f08c379a0000000000000000000000000000000000000000000000000000000008152600401610340906114d7565b60405180910390fd5b60008060009054906101000a900473ffffffffffffffffffffffffffffffffffffffff1690506000600454116103b4576040517f08c379a00000000000000000000000000000000000000000000000000000000081526004016103ab90611477565b60405180910390fd5b8073ffffffffffffffffffffffffffffffffffffffff166108fc6004549081150290604051600060405180830381858888f193505050501580156103fc573d6000803e3d6000fd5b50600060048190555050565b60008054906101000a900473ffffffffffffffffffffffffffffffffffffffff1673ffffffffffffffffffffffffffffffffffffffff163373ffffffffffffffffffffffffffffffffffffffff1614610496576040517f08c379a000000000000000000000000000000000000000000000000000000000815260040161048d906114d7565b60405180910390fd5b670de0b6b3a7640000816104aa91906116b4565b60038190555050565b600681815481106104c357600080fd5b906000526020600020016000915054906101000a900473ffffffffffffffffffffffffffffffffffffffff1681565b600760009054906101000a900460ff1681565b6003543414610549576040517f08c379a000000000000000000000000000000000000000000000000000000000815260040161054090611557565b60405180910390fd5b600681511461058d576040517f08c379a000000000000000000000000000000000000000000000000000000000815260040161058490611537565b60405180910390fd5b60005b815181101561063057600a8282815181106105ae576105ad61189d565b5b60200260200101511080156105de575060008282815181106105d3576105d261189d565b5b602002602001015110155b61061d576040517f08c379a000000000000000000000000000000000000000000000000000000000815260040161061490611517565b60405180910390fd5b8080610628906117bb565b915050610590565b506000600260003373ffffffffffffffffffffffffffffffffffffffff1673ffffffffffffffffffffffffffffffffffffffff16815260200190815260200160002080549050146106b6576040517f08c379a00000000000000000000000000000000000000000000000000000000081526004016106ad906114b7565b60405180910390fd5b80600260003373ffffffffffffffffffffffffffffffffffffffff1673ffffffffffffffffffffffffffffffffffffffff1681526020019081526020016000209080519060200190610709929190610fd4565b506006339080600181540180825580915050600190039060005260206000200160009091909190916101000a81548173ffffffffffffffffffffffffffffffffffffffff021916908373ffffffffffffffffffffffffffffffffffffffff160217905550346004600082825461077f919061162d565b92505081905550600160056000828254610799919061162d565b9250508190555050565b6000670de0b6b3a76400006003546107bb9190611683565b905090565b6000670de0b6b3a76400006004546107d89190611683565b905090565b606060008054906101000a900473ffffffffffffffffffffffffffffffffffffffff1673ffffffffffffffffffffffffffffffffffffffff163373ffffffffffffffffffffffffffffffffffffffff161461086d576040517f08c379a0000000000000000000000000000000000000000000000000000000008152600401610864906114d7565b60405180910390fd5b60018054806020026020016040519081016040528092919081815260200182805480156108b957602002820191906000526020600020905b8154815260200190600101908083116108a5575b5050505050905090565b60008054906101000a900473ffffffffffffffffffffffffffffffffffffffff1681565b6060600260003373ffffffffffffffffffffffffffffffffffffffff1673ffffffffffffffffffffffffffffffffffffffff16815260200190815260200160002080548060200260200160405190810160405280929190818152602001828054801561097257602002820191906000526020600020905b81548152602001906001019080831161095e575b5050505050905090565b60008054906101000a900473ffffffffffffffffffffffffffffffffffffffff1673ffffffffffffffffffffffffffffffffffffffff163373ffffffffffffffffffffffffffffffffffffffff1614610a0a576040517f08c379a0000000000000000000000000000000000000000000000000000000008152600401610a01906114d7565b60405180910390fd5b6001600760006101000a81548160ff021916908315150217905550600667ffffffffffffffff811115610a4057610a3f6118cc565b5b604051908082528060200260200182016040528015610a6e5781602001602082028036833780820191505090505b5060019080519060200190610a84929190610fd4565b506000805b6006811015610b1c576000600a4283604051602001610aa99291906113f3565b6040516020818303038152906040528051906020012060001c610acc919061180e565b905060008114610b08578060018481548110610aeb57610aea61189d565b5b90600052602060002001819055508280610b04906117bb565b9350505b508080610b14906117bb565b915050610a89565b5050565b60008054906101000a900473ffffffffffffffffffffffffffffffffffffffff1673ffffffffffffffffffffffffffffffffffffffff163373ffffffffffffffffffffffffffffffffffffffff1614610bae576040517f08c379a0000000000000000000000000000000000000000000000000000000008152600401610ba5906114d7565b60405180910390fd5b60011515600760009054906101000a900460ff16151514610c04576040517f08c379a0000000000000000000000000000000000000000000000000000000008152600401610bfb906114f7565b60405180910390fd5b600060055411610c49576040517f08c379a0000000000000000000000000000000000000000000000000000000008152600401610c4090611497565b60405180910390fd5b600080600080600080600090505b600680549050811015610f265760005b600180549050811015610d5e5760018181548110610c8857610c8761189d565b5b90600052602060002001546002600060068581548110610cab57610caa61189d565b5b9060005260206000200160009054906101000a900473ffffffffffffffffffffffffffffffffffffffff1673ffffffffffffffffffffffffffffffffffffffff1673ffffffffffffffffffffffffffffffffffffffff1681526020019081526020016000208281548110610d2257610d2161189d565b5b90600052602060002001541415610d46578680610d3e906117bb565b975050610d4b565b610d5e565b8080610d56906117bb565b915050610c67565b506002600060068381548110610d7757610d7661189d565b5b9060005260206000200160009054906101000a900473ffffffffffffffffffffffffffffffffffffffff1673ffffffffffffffffffffffffffffffffffffffff1673ffffffffffffffffffffffffffffffffffffffff1681526020019081526020016000206000610de89190611021565b6001861415610dfa5760029450610e55565b6002861415610e0c5760039450610e54565b6003861415610e1e5760059450610e53565b6004861415610e3057600a9450610e52565b6005861415610e425760149450610e51565b6006861415610e5057602894505b5b5b5b5b5b606485600454610e6591906116b4565b610e6f9190611683565b93508383610e7d919061162d565b925060068181548110610e9357610e9261189d565b5b9060005260206000200160009054906101000a900473ffffffffffffffffffffffffffffffffffffffff1691508173ffffffffffffffffffffffffffffffffffffffff166108fc859081150290604051600060405180830381858888f19350505050158015610f06573d6000803e3d6000fd5b506000955060009450600093508080610f1e906117bb565b915050610c57565b5060006005819055508160046000828254610f41919061170e565b92505081905550600067ffffffffffffffff811115610f6357610f626118cc565b5b604051908082528060200260200182016040528015610f915781602001602082028036833780820191505090505b5060069080519060200190610fa7929190611042565b50600090506000600760006101000a81548160ff0219169083151502179055505050505050565b60055481565b828054828255906000526020600020908101928215611010579160200282015b8281111561100f578251825591602001919060010190610ff4565b5b50905061101d91906110cc565b5090565b508054600082559060005260206000209081019061103f91906110cc565b50565b8280548282559060005260206000209081019282156110bb579160200282015b828111156110ba5782518260006101000a81548173ffffffffffffffffffffffffffffffffffffffff021916908373ffffffffffffffffffffffffffffffffffffffff16021790555091602001919060010190611062565b5b5090506110c891906110cc565b5090565b5b808211156110e55760008160009055506001016110cd565b5090565b60006110fc6110f7846115b7565b611592565b9050808382526020820190508285602086028201111561111f5761111e611900565b5b60005b8581101561114f57816111358882611187565b845260208401935060208301925050600181019050611122565b5050509392505050565b600082601f83011261116e5761116d6118fb565b5b813561117e8482602086016110e9565b91505092915050565b60008135905061119681611a8e565b92915050565b6000602082840312156111b2576111b161190a565b5b600082013567ffffffffffffffff8111156111d0576111cf611905565b5b6111dc84828501611159565b91505092915050565b6000602082840312156111fb576111fa61190a565b5b600061120984828501611187565b91505092915050565b600061121e83836113be565b60208301905092915050565b61123381611742565b82525050565b6000611244826115f3565b61124e818561160b565b9350611259836115e3565b8060005b8381101561128a5781516112718882611212565b975061127c836115fe565b92505060018101905061125d565b5085935050505092915050565b6112a081611754565b82525050565b60006112b360148361161c565b91506112be82611920565b602082019050919050565b60006112d660118361161c565b91506112e182611949565b602082019050919050565b60006112f960208361161c565b915061130482611972565b602082019050919050565b600061131c60268361161c565b91506113278261199b565b604082019050919050565b600061133f60158361161c565b915061134a826119ea565b602082019050919050565b6000611362600c8361161c565b915061136d82611a13565b602082019050919050565b600061138560178361161c565b915061139082611a3c565b602082019050919050565b60006113a8600c8361161c565b91506113b382611a65565b602082019050919050565b6113c781611780565b82525050565b6113d681611780565b82525050565b6113ed6113e882611780565b611804565b82525050565b60006113ff82856113dc565b60208201915061140f82846113dc565b6020820191508190509392505050565b6000602082019050611434600083018461122a565b92915050565b600060208201905081810360008301526114548184611239565b905092915050565b60006020820190506114716000830184611297565b92915050565b60006020820190508181036000830152611490816112a6565b9050919050565b600060208201905081810360008301526114b0816112c9565b9050919050565b600060208201905081810360008301526114d0816112ec565b9050919050565b600060208201905081810360008301526114f08161130f565b9050919050565b6000602082019050818103600083015261151081611332565b9050919050565b6000602082019050818103600083015261153081611355565b9050919050565b6000602082019050818103600083015261155081611378565b9050919050565b600060208201905081810360008301526115708161139b565b9050919050565b600060208201905061158c60008301846113cd565b92915050565b600061159c6115ad565b90506115a8828261178a565b919050565b6000604051905090565b600067ffffffffffffffff8211156115d2576115d16118cc565b5b602082029050602081019050919050565b6000819050602082019050919050565b600081519050919050565b6000602082019050919050565b600082825260208201905092915050565b600082825260208201905092915050565b600061163882611780565b915061164383611780565b9250827fffffffffffffffffffffffffffffffffffffffffffffffffffffffffffffffff038211156116785761167761183f565b5b828201905092915050565b600061168e82611780565b915061169983611780565b9250826116a9576116a861186e565b5b828204905092915050565b60006116bf82611780565b91506116ca83611780565b9250817fffffffffffffffffffffffffffffffffffffffffffffffffffffffffffffffff04831182151516156117035761170261183f565b5b828202905092915050565b600061171982611780565b915061172483611780565b9250828210156117375761173661183f565b5b828203905092915050565b600061174d82611760565b9050919050565b60008115159050919050565b600073ffffffffffffffffffffffffffffffffffffffff82169050919050565b6000819050919050565b6117938261190f565b810181811067ffffffffffffffff821117156117b2576117b16118cc565b5b80604052505050565b60006117c682611780565b91507fffffffffffffffffffffffffffffffffffffffffffffffffffffffffffffffff8214156117f9576117f861183f565b5b600182019050919050565b6000819050919050565b600061181982611780565b915061182483611780565b9250826118345761183361186e565b5b828206905092915050565b7f4e487b7100000000000000000000000000000000000000000000000000000000600052601160045260246000fd5b7f4e487b7100000000000000000000000000000000000000000000000000000000600052601260045260246000fd5b7f4e487b7100000000000000000000000000000000000000000000000000000000600052603260045260246000fd5b7f4e487b7100000000000000000000000000000000000000000000000000000000600052604160045260246000fd5b600080fd5b600080fd5b600080fd5b600080fd5b6000601f19601f8301169050919050565b7f4e6f20457468657220746f2070756c6c206f7574000000000000000000000000600082015250565b7f4e6f207469636b65742077617320626f75000000000000000000000000000000600082015250565b7f596f75206861766520616c726561647920626f756768742061207469636b6574600082015250565b7f4f6e6c7920746865206f776e65722063616e20706572666f726d20746869732060008201527f616374696f6e0000000000000000000000000000000000000000000000000000602082015250565b7f4e6f206c6f74746572792069732072756e6e696e670000000000000000000000600082015250565b7f57726f6e67206e756d6265720000000000000000000000000000000000000000600082015250565b7f57726f6e67206e756d626572206f66206e756d62657273000000000000000000600082015250565b7f57726f6e6720616d6f756e740000000000000000000000000000000000000000600082015250565b611a9781611780565b8114611aa257600080fd5b5056fea2646970667358221220103028d1b7e54d17a6abf92fbff9fd54bc1c0f0017659e3a66e80a93ddaa888b64736f6c63430008070033",
					"opcodes": "PUSH1 0x80 PUSH1 0x40 MSTORE PUSH8 0x4563918244F40000 PUSH1 0x3 SSTORE PUSH1 0x0 PUSH1 0x5 SSTORE PUSH1 0x0 PUSH1 0x7 PUSH1 0x0 PUSH2 0x100 EXP DUP2 SLOAD DUP2 PUSH1 0xFF MUL NOT AND SWAP1 DUP4 ISZERO ISZERO MUL OR SWAP1 SSTORE POP CALLVALUE DUP1 ISZERO PUSH2 0x3C JUMPI PUSH1 0x0 DUP1 REVERT JUMPDEST POP CALLER PUSH1 0x0 DUP1 PUSH2 0x100 EXP DUP2 SLOAD DUP2 PUSH20 0xFFFFFFFFFFFFFFFFFFFFFFFFFFFFFFFFFFFFFFFF MUL NOT AND SWAP1 DUP4 PUSH20 0xFFFFFFFFFFFFFFFFFFFFFFFFFFFFFFFFFFFFFFFF AND MUL OR SWAP1 SSTORE POP PUSH2 0x1ADB DUP1 PUSH2 0x8C PUSH1 0x0 CODECOPY PUSH1 0x0 RETURN INVALID PUSH1 0x80 PUSH1 0x40 MSTORE PUSH1 0x4 CALLDATASIZE LT PUSH2 0xC2 JUMPI PUSH1 0x0 CALLDATALOAD PUSH1 0xE0 SHR DUP1 PUSH4 0x8A4A29C3 GT PUSH2 0x7F JUMPI DUP1 PUSH4 0xA650FBAB GT PUSH2 0x59 JUMPI DUP1 PUSH4 0xA650FBAB EQ PUSH2 0x237 JUMPI DUP1 PUSH4 0xA7CABA25 EQ PUSH2 0x262 JUMPI DUP1 PUSH4 0xB04A3F1C EQ PUSH2 0x279 JUMPI DUP1 PUSH4 0xD386EA73 EQ PUSH2 0x290 JUMPI PUSH2 0xC2 JUMP JUMPDEST DUP1 PUSH4 0x8A4A29C3 EQ PUSH2 0x1B6 JUMPI DUP1 PUSH4 0x8B0B9ED4 EQ PUSH2 0x1E1 JUMPI DUP1 PUSH4 0x8DA5CB5B EQ PUSH2 0x20C JUMPI PUSH2 0xC2 JUMP JUMPDEST DUP1 PUSH4 0x30DAEC49 EQ PUSH2 0xC7 JUMPI DUP1 PUSH4 0x4630A0EE EQ PUSH2 0xDE JUMPI DUP1 PUSH4 0x472016DA EQ PUSH2 0x107 JUMPI DUP1 PUSH4 0x5A3811B9 EQ PUSH2 0x144 JUMPI DUP1 PUSH4 0x716CAC96 EQ PUSH2 0x16F JUMPI DUP1 PUSH4 0x87BB7AE0 EQ PUSH2 0x18B JUMPI JUMPDEST PUSH1 0x0 DUP1 REVERT JUMPDEST CALLVALUE DUP1 ISZERO PUSH2 0xD3 JUMPI PUSH1 0x0 DUP1 REVERT JUMPDEST POP PUSH2 0xDC PUSH2 0x2BB JUMP JUMPDEST STOP JUMPDEST CALLVALUE DUP1 ISZERO PUSH2 0xEA JUMPI PUSH1 0x0 DUP1 REVERT JUMPDEST POP PUSH2 0x105 PUSH1 0x4 DUP1 CALLDATASIZE SUB DUP2 ADD SWAP1 PUSH2 0x100 SWAP2 SWAP1 PUSH2 0x11E5 JUMP JUMPDEST PUSH2 0x408 JUMP JUMPDEST STOP JUMPDEST CALLVALUE DUP1 ISZERO PUSH2 0x113 JUMPI PUSH1 0x0 DUP1 REVERT JUMPDEST POP PUSH2 0x12E PUSH1 0x4 DUP1 CALLDATASIZE SUB DUP2 ADD SWAP1 PUSH2 0x129 SWAP2 SWAP1 PUSH2 0x11E5 JUMP JUMPDEST PUSH2 0x4B3 JUMP JUMPDEST PUSH1 0x40 MLOAD PUSH2 0x13B SWAP2 SWAP1 PUSH2 0x141F JUMP JUMPDEST PUSH1 0x40 MLOAD DUP1 SWAP2 SUB SWAP1 RETURN JUMPDEST CALLVALUE DUP1 ISZERO PUSH2 0x150 JUMPI PUSH1 0x0 DUP1 REVERT JUMPDEST POP PUSH2 0x159 PUSH2 0x4F2 JUMP JUMPDEST PUSH1 0x40 MLOAD PUSH2 0x166 SWAP2 SWAP1 PUSH2 0x145C JUMP JUMPDEST PUSH1 0x40 MLOAD DUP1 SWAP2 SUB SWAP1 RETURN JUMPDEST PUSH2 0x189 PUSH1 0x4 DUP1 CALLDATASIZE SUB DUP2 ADD SWAP1 PUSH2 0x184 SWAP2 SWAP1 PUSH2 0x119C JUMP JUMPDEST PUSH2 0x505 JUMP JUMPDEST STOP JUMPDEST CALLVALUE DUP1 ISZERO PUSH2 0x197 JUMPI PUSH1 0x0 DUP1 REVERT JUMPDEST POP PUSH2 0x1A0 PUSH2 0x7A3 JUMP JUMPDEST PUSH1 0x40 MLOAD PUSH2 0x1AD SWAP2 SWAP1 PUSH2 0x1577 JUMP JUMPDEST PUSH1 0x40 MLOAD DUP1 SWAP2 SUB SWAP1 RETURN JUMPDEST CALLVALUE DUP1 ISZERO PUSH2 0x1C2 JUMPI PUSH1 0x0 DUP1 REVERT JUMPDEST POP PUSH2 0x1CB PUSH2 0x7C0 JUMP JUMPDEST PUSH1 0x40 MLOAD PUSH2 0x1D8 SWAP2 SWAP1 PUSH2 0x1577 JUMP JUMPDEST PUSH1 0x40 MLOAD DUP1 SWAP2 SUB SWAP1 RETURN JUMPDEST CALLVALUE DUP1 ISZERO PUSH2 0x1ED JUMPI PUSH1 0x0 DUP1 REVERT JUMPDEST POP PUSH2 0x1F6 PUSH2 0x7DD JUMP JUMPDEST PUSH1 0x40 MLOAD PUSH2 0x203 SWAP2 SWAP1 PUSH2 0x143A JUMP JUMPDEST PUSH1 0x40 MLOAD DUP1 SWAP2 SUB SWAP1 RETURN JUMPDEST CALLVALUE DUP1 ISZERO PUSH2 0x218 JUMPI PUSH1 0x0 DUP1 REVERT JUMPDEST POP PUSH2 0x221 PUSH2 0x8C3 JUMP JUMPDEST PUSH1 0x40 MLOAD PUSH2 0x22E SWAP2 SWAP1 PUSH2 0x141F JUMP JUMPDEST PUSH1 0x40 MLOAD DUP1 SWAP2 SUB SWAP1 RETURN JUMPDEST CALLVALUE DUP1 ISZERO PUSH2 0x243 JUMPI PUSH1 0x0 DUP1 REVERT JUMPDEST POP PUSH2 0x24C PUSH2 0x8E7 JUMP JUMPDEST PUSH1 0x40 MLOAD PUSH2 0x259 SWAP2 SWAP1 PUSH2 0x143A JUMP JUMPDEST PUSH1 0x40 MLOAD DUP1 SWAP2 SUB SWAP1 RETURN JUMPDEST CALLVALUE DUP1 ISZERO PUSH2 0x26E JUMPI PUSH1 0x0 DUP1 REVERT JUMPDEST POP PUSH2 0x277 PUSH2 0x97C JUMP JUMPDEST STOP JUMPDEST CALLVALUE DUP1 ISZERO PUSH2 0x285 JUMPI PUSH1 0x0 DUP1 REVERT JUMPDEST POP PUSH2 0x28E PUSH2 0xB20 JUMP JUMPDEST STOP JUMPDEST CALLVALUE DUP1 ISZERO PUSH2 0x29C JUMPI PUSH1 0x0 DUP1 REVERT JUMPDEST POP PUSH2 0x2A5 PUSH2 0xFCE JUMP JUMPDEST PUSH1 0x40 MLOAD PUSH2 0x2B2 SWAP2 SWAP1 PUSH2 0x1577 JUMP JUMPDEST PUSH1 0x40 MLOAD DUP1 SWAP2 SUB SWAP1 RETURN JUMPDEST PUSH1 0x0 DUP1 SLOAD SWAP1 PUSH2 0x100 EXP SWAP1 DIV PUSH20 0xFFFFFFFFFFFFFFFFFFFFFFFFFFFFFFFFFFFFFFFF AND PUSH20 0xFFFFFFFFFFFFFFFFFFFFFFFFFFFFFFFFFFFFFFFF AND CALLER PUSH20 0xFFFFFFFFFFFFFFFFFFFFFFFFFFFFFFFFFFFFFFFF AND EQ PUSH2 0x349 JUMPI PUSH1 0x40 MLOAD PUSH32 0x8C379A000000000000000000000000000000000000000000000000000000000 DUP2 MSTORE PUSH1 0x4 ADD PUSH2 0x340 SWAP1 PUSH2 0x14D7 JUMP JUMPDEST PUSH1 0x40 MLOAD DUP1 SWAP2 SUB SWAP1 REVERT JUMPDEST PUSH1 0x0 DUP1 PUSH1 0x0 SWAP1 SLOAD SWAP1 PUSH2 0x100 EXP SWAP1 DIV PUSH20 0xFFFFFFFFFFFFFFFFFFFFFFFFFFFFFFFFFFFFFFFF AND SWAP1 POP PUSH1 0x0 PUSH1 0x4 SLOAD GT PUSH2 0x3B4 JUMPI PUSH1 0x40 MLOAD PUSH32 0x8C379A000000000000000000000000000000000000000000000000000000000 DUP2 MSTORE PUSH1 0x4 ADD PUSH2 0x3AB SWAP1 PUSH2 0x1477 JUMP JUMPDEST PUSH1 0x40 MLOAD DUP1 SWAP2 SUB SWAP1 REVERT JUMPDEST DUP1 PUSH20 0xFFFFFFFFFFFFFFFFFFFFFFFFFFFFFFFFFFFFFFFF AND PUSH2 0x8FC PUSH1 0x4 SLOAD SWAP1 DUP2 ISZERO MUL SWAP1 PUSH1 0x40 MLOAD PUSH1 0x0 PUSH1 0x40 MLOAD DUP1 DUP4 SUB DUP2 DUP6 DUP9 DUP9 CALL SWAP4 POP POP POP POP ISZERO DUP1 ISZERO PUSH2 0x3FC JUMPI RETURNDATASIZE PUSH1 0x0 DUP1 RETURNDATACOPY RETURNDATASIZE PUSH1 0x0 REVERT JUMPDEST POP PUSH1 0x0 PUSH1 0x4 DUP2 SWAP1 SSTORE POP POP JUMP JUMPDEST PUSH1 0x0 DUP1 SLOAD SWAP1 PUSH2 0x100 EXP SWAP1 DIV PUSH20 0xFFFFFFFFFFFFFFFFFFFFFFFFFFFFFFFFFFFFFFFF AND PUSH20 0xFFFFFFFFFFFFFFFFFFFFFFFFFFFFFFFFFFFFFFFF AND CALLER PUSH20 0xFFFFFFFFFFFFFFFFFFFFFFFFFFFFFFFFFFFFFFFF AND EQ PUSH2 0x496 JUMPI PUSH1 0x40 MLOAD PUSH32 0x8C379A000000000000000000000000000000000000000000000000000000000 DUP2 MSTORE PUSH1 0x4 ADD PUSH2 0x48D SWAP1 PUSH2 0x14D7 JUMP JUMPDEST PUSH1 0x40 MLOAD DUP1 SWAP2 SUB SWAP1 REVERT JUMPDEST PUSH8 0xDE0B6B3A7640000 DUP2 PUSH2 0x4AA SWAP2 SWAP1 PUSH2 0x16B4 JUMP JUMPDEST PUSH1 0x3 DUP2 SWAP1 SSTORE POP POP JUMP JUMPDEST PUSH1 0x6 DUP2 DUP2 SLOAD DUP2 LT PUSH2 0x4C3 JUMPI PUSH1 0x0 DUP1 REVERT JUMPDEST SWAP1 PUSH1 0x0 MSTORE PUSH1 0x20 PUSH1 0x0 KECCAK256 ADD PUSH1 0x0 SWAP2 POP SLOAD SWAP1 PUSH2 0x100 EXP SWAP1 DIV PUSH20 0xFFFFFFFFFFFFFFFFFFFFFFFFFFFFFFFFFFFFFFFF AND DUP2 JUMP JUMPDEST PUSH1 0x7 PUSH1 0x0 SWAP1 SLOAD SWAP1 PUSH2 0x100 EXP SWAP1 DIV PUSH1 0xFF AND DUP2 JUMP JUMPDEST PUSH1 0x3 SLOAD CALLVALUE EQ PUSH2 0x549 JUMPI PUSH1 0x40 MLOAD PUSH32 0x8C379A000000000000000000000000000000000000000000000000000000000 DUP2 MSTORE PUSH1 0x4 ADD PUSH2 0x540 SWAP1 PUSH2 0x1557 JUMP JUMPDEST PUSH1 0x40 MLOAD DUP1 SWAP2 SUB SWAP1 REVERT JUMPDEST PUSH1 0x6 DUP2 MLOAD EQ PUSH2 0x58D JUMPI PUSH1 0x40 MLOAD PUSH32 0x8C379A000000000000000000000000000000000000000000000000000000000 DUP2 MSTORE PUSH1 0x4 ADD PUSH2 0x584 SWAP1 PUSH2 0x1537 JUMP JUMPDEST PUSH1 0x40 MLOAD DUP1 SWAP2 SUB SWAP1 REVERT JUMPDEST PUSH1 0x0 JUMPDEST DUP2 MLOAD DUP2 LT ISZERO PUSH2 0x630 JUMPI PUSH1 0xA DUP3 DUP3 DUP2 MLOAD DUP2 LT PUSH2 0x5AE JUMPI PUSH2 0x5AD PUSH2 0x189D JUMP JUMPDEST JUMPDEST PUSH1 0x20 MUL PUSH1 0x20 ADD ADD MLOAD LT DUP1 ISZERO PUSH2 0x5DE JUMPI POP PUSH1 0x0 DUP3 DUP3 DUP2 MLOAD DUP2 LT PUSH2 0x5D3 JUMPI PUSH2 0x5D2 PUSH2 0x189D JUMP JUMPDEST JUMPDEST PUSH1 0x20 MUL PUSH1 0x20 ADD ADD MLOAD LT ISZERO JUMPDEST PUSH2 0x61D JUMPI PUSH1 0x40 MLOAD PUSH32 0x8C379A000000000000000000000000000000000000000000000000000000000 DUP2 MSTORE PUSH1 0x4 ADD PUSH2 0x614 SWAP1 PUSH2 0x1517 JUMP JUMPDEST PUSH1 0x40 MLOAD DUP1 SWAP2 SUB SWAP1 REVERT JUMPDEST DUP1 DUP1 PUSH2 0x628 SWAP1 PUSH2 0x17BB JUMP JUMPDEST SWAP2 POP POP PUSH2 0x590 JUMP JUMPDEST POP PUSH1 0x0 PUSH1 0x2 PUSH1 0x0 CALLER PUSH20 0xFFFFFFFFFFFFFFFFFFFFFFFFFFFFFFFFFFFFFFFF AND PUSH20 0xFFFFFFFFFFFFFFFFFFFFFFFFFFFFFFFFFFFFFFFF AND DUP2 MSTORE PUSH1 0x20 ADD SWAP1 DUP2 MSTORE PUSH1 0x20 ADD PUSH1 0x0 KECCAK256 DUP1 SLOAD SWAP1 POP EQ PUSH2 0x6B6 JUMPI PUSH1 0x40 MLOAD PUSH32 0x8C379A000000000000000000000000000000000000000000000000000000000 DUP2 MSTORE PUSH1 0x4 ADD PUSH2 0x6AD SWAP1 PUSH2 0x14B7 JUMP JUMPDEST PUSH1 0x40 MLOAD DUP1 SWAP2 SUB SWAP1 REVERT JUMPDEST DUP1 PUSH1 0x2 PUSH1 0x0 CALLER PUSH20 0xFFFFFFFFFFFFFFFFFFFFFFFFFFFFFFFFFFFFFFFF AND PUSH20 0xFFFFFFFFFFFFFFFFFFFFFFFFFFFFFFFFFFFFFFFF AND DUP2 MSTORE PUSH1 0x20 ADD SWAP1 DUP2 MSTORE PUSH1 0x20 ADD PUSH1 0x0 KECCAK256 SWAP1 DUP1 MLOAD SWAP1 PUSH1 0x20 ADD SWAP1 PUSH2 0x709 SWAP3 SWAP2 SWAP1 PUSH2 0xFD4 JUMP JUMPDEST POP PUSH1 0x6 CALLER SWAP1 DUP1 PUSH1 0x1 DUP2 SLOAD ADD DUP1 DUP3 SSTORE DUP1 SWAP2 POP POP PUSH1 0x1 SWAP1 SUB SWAP1 PUSH1 0x0 MSTORE PUSH1 0x20 PUSH1 0x0 KECCAK256 ADD PUSH1 0x0 SWAP1 SWAP2 SWAP1 SWAP2 SWAP1 SWAP2 PUSH2 0x100 EXP DUP2 SLOAD DUP2 PUSH20 0xFFFFFFFFFFFFFFFFFFFFFFFFFFFFFFFFFFFFFFFF MUL NOT AND SWAP1 DUP4 PUSH20 0xFFFFFFFFFFFFFFFFFFFFFFFFFFFFFFFFFFFFFFFF AND MUL OR SWAP1 SSTORE POP CALLVALUE PUSH1 0x4 PUSH1 0x0 DUP3 DUP3 SLOAD PUSH2 0x77F SWAP2 SWAP1 PUSH2 0x162D JUMP JUMPDEST SWAP3 POP POP DUP2 SWAP1 SSTORE POP PUSH1 0x1 PUSH1 0x5 PUSH1 0x0 DUP3 DUP3 SLOAD PUSH2 0x799 SWAP2 SWAP1 PUSH2 0x162D JUMP JUMPDEST SWAP3 POP POP DUP2 SWAP1 SSTORE POP POP JUMP JUMPDEST PUSH1 0x0 PUSH8 0xDE0B6B3A7640000 PUSH1 0x3 SLOAD PUSH2 0x7BB SWAP2 SWAP1 PUSH2 0x1683 JUMP JUMPDEST SWAP1 POP SWAP1 JUMP JUMPDEST PUSH1 0x0 PUSH8 0xDE0B6B3A7640000 PUSH1 0x4 SLOAD PUSH2 0x7D8 SWAP2 SWAP1 PUSH2 0x1683 JUMP JUMPDEST SWAP1 POP SWAP1 JUMP JUMPDEST PUSH1 0x60 PUSH1 0x0 DUP1 SLOAD SWAP1 PUSH2 0x100 EXP SWAP1 DIV PUSH20 0xFFFFFFFFFFFFFFFFFFFFFFFFFFFFFFFFFFFFFFFF AND PUSH20 0xFFFFFFFFFFFFFFFFFFFFFFFFFFFFFFFFFFFFFFFF AND CALLER PUSH20 0xFFFFFFFFFFFFFFFFFFFFFFFFFFFFFFFFFFFFFFFF AND EQ PUSH2 0x86D JUMPI PUSH1 0x40 MLOAD PUSH32 0x8C379A000000000000000000000000000000000000000000000000000000000 DUP2 MSTORE PUSH1 0x4 ADD PUSH2 0x864 SWAP1 PUSH2 0x14D7 JUMP JUMPDEST PUSH1 0x40 MLOAD DUP1 SWAP2 SUB SWAP1 REVERT JUMPDEST PUSH1 0x1 DUP1 SLOAD DUP1 PUSH1 0x20 MUL PUSH1 0x20 ADD PUSH1 0x40 MLOAD SWAP1 DUP2 ADD PUSH1 0x40 MSTORE DUP1 SWAP3 SWAP2 SWAP1 DUP2 DUP2 MSTORE PUSH1 0x20 ADD DUP3 DUP1 SLOAD DUP1 ISZERO PUSH2 0x8B9 JUMPI PUSH1 0x20 MUL DUP3 ADD SWAP2 SWAP1 PUSH1 0x0 MSTORE PUSH1 0x20 PUSH1 0x0 KECCAK256 SWAP1 JUMPDEST DUP2 SLOAD DUP2 MSTORE PUSH1 0x20 ADD SWAP1 PUSH1 0x1 ADD SWAP1 DUP1 DUP4 GT PUSH2 0x8A5 JUMPI JUMPDEST POP POP POP POP POP SWAP1 POP SWAP1 JUMP JUMPDEST PUSH1 0x0 DUP1 SLOAD SWAP1 PUSH2 0x100 EXP SWAP1 DIV PUSH20 0xFFFFFFFFFFFFFFFFFFFFFFFFFFFFFFFFFFFFFFFF AND DUP2 JUMP JUMPDEST PUSH1 0x60 PUSH1 0x2 PUSH1 0x0 CALLER PUSH20 0xFFFFFFFFFFFFFFFFFFFFFFFFFFFFFFFFFFFFFFFF AND PUSH20 0xFFFFFFFFFFFFFFFFFFFFFFFFFFFFFFFFFFFFFFFF AND DUP2 MSTORE PUSH1 0x20 ADD SWAP1 DUP2 MSTORE PUSH1 0x20 ADD PUSH1 0x0 KECCAK256 DUP1 SLOAD DUP1 PUSH1 0x20 MUL PUSH1 0x20 ADD PUSH1 0x40 MLOAD SWAP1 DUP2 ADD PUSH1 0x40 MSTORE DUP1 SWAP3 SWAP2 SWAP1 DUP2 DUP2 MSTORE PUSH1 0x20 ADD DUP3 DUP1 SLOAD DUP1 ISZERO PUSH2 0x972 JUMPI PUSH1 0x20 MUL DUP3 ADD SWAP2 SWAP1 PUSH1 0x0 MSTORE PUSH1 0x20 PUSH1 0x0 KECCAK256 SWAP1 JUMPDEST DUP2 SLOAD DUP2 MSTORE PUSH1 0x20 ADD SWAP1 PUSH1 0x1 ADD SWAP1 DUP1 DUP4 GT PUSH2 0x95E JUMPI JUMPDEST POP POP POP POP POP SWAP1 POP SWAP1 JUMP JUMPDEST PUSH1 0x0 DUP1 SLOAD SWAP1 PUSH2 0x100 EXP SWAP1 DIV PUSH20 0xFFFFFFFFFFFFFFFFFFFFFFFFFFFFFFFFFFFFFFFF AND PUSH20 0xFFFFFFFFFFFFFFFFFFFFFFFFFFFFFFFFFFFFFFFF AND CALLER PUSH20 0xFFFFFFFFFFFFFFFFFFFFFFFFFFFFFFFFFFFFFFFF AND EQ PUSH2 0xA0A JUMPI PUSH1 0x40 MLOAD PUSH32 0x8C379A000000000000000000000000000000000000000000000000000000000 DUP2 MSTORE PUSH1 0x4 ADD PUSH2 0xA01 SWAP1 PUSH2 0x14D7 JUMP JUMPDEST PUSH1 0x40 MLOAD DUP1 SWAP2 SUB SWAP1 REVERT JUMPDEST PUSH1 0x1 PUSH1 0x7 PUSH1 0x0 PUSH2 0x100 EXP DUP2 SLOAD DUP2 PUSH1 0xFF MUL NOT AND SWAP1 DUP4 ISZERO ISZERO MUL OR SWAP1 SSTORE POP PUSH1 0x6 PUSH8 0xFFFFFFFFFFFFFFFF DUP2 GT ISZERO PUSH2 0xA40 JUMPI PUSH2 0xA3F PUSH2 0x18CC JUMP JUMPDEST JUMPDEST PUSH1 0x40 MLOAD SWAP1 DUP1 DUP3 MSTORE DUP1 PUSH1 0x20 MUL PUSH1 0x20 ADD DUP3 ADD PUSH1 0x40 MSTORE DUP1 ISZERO PUSH2 0xA6E JUMPI DUP2 PUSH1 0x20 ADD PUSH1 0x20 DUP3 MUL DUP1 CALLDATASIZE DUP4 CALLDATACOPY DUP1 DUP3 ADD SWAP2 POP POP SWAP1 POP JUMPDEST POP PUSH1 0x1 SWAP1 DUP1 MLOAD SWAP1 PUSH1 0x20 ADD SWAP1 PUSH2 0xA84 SWAP3 SWAP2 SWAP1 PUSH2 0xFD4 JUMP JUMPDEST POP PUSH1 0x0 DUP1 JUMPDEST PUSH1 0x6 DUP2 LT ISZERO PUSH2 0xB1C JUMPI PUSH1 0x0 PUSH1 0xA TIMESTAMP DUP4 PUSH1 0x40 MLOAD PUSH1 0x20 ADD PUSH2 0xAA9 SWAP3 SWAP2 SWAP1 PUSH2 0x13F3 JUMP JUMPDEST PUSH1 0x40 MLOAD PUSH1 0x20 DUP2 DUP4 SUB SUB DUP2 MSTORE SWAP1 PUSH1 0x40 MSTORE DUP1 MLOAD SWAP1 PUSH1 0x20 ADD KECCAK256 PUSH1 0x0 SHR PUSH2 0xACC SWAP2 SWAP1 PUSH2 0x180E JUMP JUMPDEST SWAP1 POP PUSH1 0x0 DUP2 EQ PUSH2 0xB08 JUMPI DUP1 PUSH1 0x1 DUP5 DUP2 SLOAD DUP2 LT PUSH2 0xAEB JUMPI PUSH2 0xAEA PUSH2 0x189D JUMP JUMPDEST JUMPDEST SWAP1 PUSH1 0x0 MSTORE PUSH1 0x20 PUSH1 0x0 KECCAK256 ADD DUP2 SWAP1 SSTORE POP DUP3 DUP1 PUSH2 0xB04 SWAP1 PUSH2 0x17BB JUMP JUMPDEST SWAP4 POP POP JUMPDEST POP DUP1 DUP1 PUSH2 0xB14 SWAP1 PUSH2 0x17BB JUMP JUMPDEST SWAP2 POP POP PUSH2 0xA89 JUMP JUMPDEST POP POP JUMP JUMPDEST PUSH1 0x0 DUP1 SLOAD SWAP1 PUSH2 0x100 EXP SWAP1 DIV PUSH20 0xFFFFFFFFFFFFFFFFFFFFFFFFFFFFFFFFFFFFFFFF AND PUSH20 0xFFFFFFFFFFFFFFFFFFFFFFFFFFFFFFFFFFFFFFFF AND CALLER PUSH20 0xFFFFFFFFFFFFFFFFFFFFFFFFFFFFFFFFFFFFFFFF AND EQ PUSH2 0xBAE JUMPI PUSH1 0x40 MLOAD PUSH32 0x8C379A000000000000000000000000000000000000000000000000000000000 DUP2 MSTORE PUSH1 0x4 ADD PUSH2 0xBA5 SWAP1 PUSH2 0x14D7 JUMP JUMPDEST PUSH1 0x40 MLOAD DUP1 SWAP2 SUB SWAP1 REVERT JUMPDEST PUSH1 0x1 ISZERO ISZERO PUSH1 0x7 PUSH1 0x0 SWAP1 SLOAD SWAP1 PUSH2 0x100 EXP SWAP1 DIV PUSH1 0xFF AND ISZERO ISZERO EQ PUSH2 0xC04 JUMPI PUSH1 0x40 MLOAD PUSH32 0x8C379A000000000000000000000000000000000000000000000000000000000 DUP2 MSTORE PUSH1 0x4 ADD PUSH2 0xBFB SWAP1 PUSH2 0x14F7 JUMP JUMPDEST PUSH1 0x40 MLOAD DUP1 SWAP2 SUB SWAP1 REVERT JUMPDEST PUSH1 0x0 PUSH1 0x5 SLOAD GT PUSH2 0xC49 JUMPI PUSH1 0x40 MLOAD PUSH32 0x8C379A000000000000000000000000000000000000000000000000000000000 DUP2 MSTORE PUSH1 0x4 ADD PUSH2 0xC40 SWAP1 PUSH2 0x1497 JUMP JUMPDEST PUSH1 0x40 MLOAD DUP1 SWAP2 SUB SWAP1 REVERT JUMPDEST PUSH1 0x0 DUP1 PUSH1 0x0 DUP1 PUSH1 0x0 DUP1 PUSH1 0x0 SWAP1 POP JUMPDEST PUSH1 0x6 DUP1 SLOAD SWAP1 POP DUP2 LT ISZERO PUSH2 0xF26 JUMPI PUSH1 0x0 JUMPDEST PUSH1 0x1 DUP1 SLOAD SWAP1 POP DUP2 LT ISZERO PUSH2 0xD5E JUMPI PUSH1 0x1 DUP2 DUP2 SLOAD DUP2 LT PUSH2 0xC88 JUMPI PUSH2 0xC87 PUSH2 0x189D JUMP JUMPDEST JUMPDEST SWAP1 PUSH1 0x0 MSTORE PUSH1 0x20 PUSH1 0x0 KECCAK256 ADD SLOAD PUSH1 0x2 PUSH1 0x0 PUSH1 0x6 DUP6 DUP2 SLOAD DUP2 LT PUSH2 0xCAB JUMPI PUSH2 0xCAA PUSH2 0x189D JUMP JUMPDEST JUMPDEST SWAP1 PUSH1 0x0 MSTORE PUSH1 0x20 PUSH1 0x0 KECCAK256 ADD PUSH1 0x0 SWAP1 SLOAD SWAP1 PUSH2 0x100 EXP SWAP1 DIV PUSH20 0xFFFFFFFFFFFFFFFFFFFFFFFFFFFFFFFFFFFFFFFF AND PUSH20 0xFFFFFFFFFFFFFFFFFFFFFFFFFFFFFFFFFFFFFFFF AND PUSH20 0xFFFFFFFFFFFFFFFFFFFFFFFFFFFFFFFFFFFFFFFF AND DUP2 MSTORE PUSH1 0x20 ADD SWAP1 DUP2 MSTORE PUSH1 0x20 ADD PUSH1 0x0 KECCAK256 DUP3 DUP2 SLOAD DUP2 LT PUSH2 0xD22 JUMPI PUSH2 0xD21 PUSH2 0x189D JUMP JUMPDEST JUMPDEST SWAP1 PUSH1 0x0 MSTORE PUSH1 0x20 PUSH1 0x0 KECCAK256 ADD SLOAD EQ ISZERO PUSH2 0xD46 JUMPI DUP7 DUP1 PUSH2 0xD3E SWAP1 PUSH2 0x17BB JUMP JUMPDEST SWAP8 POP POP PUSH2 0xD4B JUMP JUMPDEST PUSH2 0xD5E JUMP JUMPDEST DUP1 DUP1 PUSH2 0xD56 SWAP1 PUSH2 0x17BB JUMP JUMPDEST SWAP2 POP POP PUSH2 0xC67 JUMP JUMPDEST POP PUSH1 0x2 PUSH1 0x0 PUSH1 0x6 DUP4 DUP2 SLOAD DUP2 LT PUSH2 0xD77 JUMPI PUSH2 0xD76 PUSH2 0x189D JUMP JUMPDEST JUMPDEST SWAP1 PUSH1 0x0 MSTORE PUSH1 0x20 PUSH1 0x0 KECCAK256 ADD PUSH1 0x0 SWAP1 SLOAD SWAP1 PUSH2 0x100 EXP SWAP1 DIV PUSH20 0xFFFFFFFFFFFFFFFFFFFFFFFFFFFFFFFFFFFFFFFF AND PUSH20 0xFFFFFFFFFFFFFFFFFFFFFFFFFFFFFFFFFFFFFFFF AND PUSH20 0xFFFFFFFFFFFFFFFFFFFFFFFFFFFFFFFFFFFFFFFF AND DUP2 MSTORE PUSH1 0x20 ADD SWAP1 DUP2 MSTORE PUSH1 0x20 ADD PUSH1 0x0 KECCAK256 PUSH1 0x0 PUSH2 0xDE8 SWAP2 SWAP1 PUSH2 0x1021 JUMP JUMPDEST PUSH1 0x1 DUP7 EQ ISZERO PUSH2 0xDFA JUMPI PUSH1 0x2 SWAP5 POP PUSH2 0xE55 JUMP JUMPDEST PUSH1 0x2 DUP7 EQ ISZERO PUSH2 0xE0C JUMPI PUSH1 0x3 SWAP5 POP PUSH2 0xE54 JUMP JUMPDEST PUSH1 0x3 DUP7 EQ ISZERO PUSH2 0xE1E JUMPI PUSH1 0x5 SWAP5 POP PUSH2 0xE53 JUMP JUMPDEST PUSH1 0x4 DUP7 EQ ISZERO PUSH2 0xE30 JUMPI PUSH1 0xA SWAP5 POP PUSH2 0xE52 JUMP JUMPDEST PUSH1 0x5 DUP7 EQ ISZERO PUSH2 0xE42 JUMPI PUSH1 0x14 SWAP5 POP PUSH2 0xE51 JUMP JUMPDEST PUSH1 0x6 DUP7 EQ ISZERO PUSH2 0xE50 JUMPI PUSH1 0x28 SWAP5 POP JUMPDEST JUMPDEST JUMPDEST JUMPDEST JUMPDEST JUMPDEST PUSH1 0x64 DUP6 PUSH1 0x4 SLOAD PUSH2 0xE65 SWAP2 SWAP1 PUSH2 0x16B4 JUMP JUMPDEST PUSH2 0xE6F SWAP2 SWAP1 PUSH2 0x1683 JUMP JUMPDEST SWAP4 POP DUP4 DUP4 PUSH2 0xE7D SWAP2 SWAP1 PUSH2 0x162D JUMP JUMPDEST SWAP3 POP PUSH1 0x6 DUP2 DUP2 SLOAD DUP2 LT PUSH2 0xE93 JUMPI PUSH2 0xE92 PUSH2 0x189D JUMP JUMPDEST JUMPDEST SWAP1 PUSH1 0x0 MSTORE PUSH1 0x20 PUSH1 0x0 KECCAK256 ADD PUSH1 0x0 SWAP1 SLOAD SWAP1 PUSH2 0x100 EXP SWAP1 DIV PUSH20 0xFFFFFFFFFFFFFFFFFFFFFFFFFFFFFFFFFFFFFFFF AND SWAP2 POP DUP2 PUSH20 0xFFFFFFFFFFFFFFFFFFFFFFFFFFFFFFFFFFFFFFFF AND PUSH2 0x8FC DUP6 SWAP1 DUP2 ISZERO MUL SWAP1 PUSH1 0x40 MLOAD PUSH1 0x0 PUSH1 0x40 MLOAD DUP1 DUP4 SUB DUP2 DUP6 DUP9 DUP9 CALL SWAP4 POP POP POP POP ISZERO DUP1 ISZERO PUSH2 0xF06 JUMPI RETURNDATASIZE PUSH1 0x0 DUP1 RETURNDATACOPY RETURNDATASIZE PUSH1 0x0 REVERT JUMPDEST POP PUSH1 0x0 SWAP6 POP PUSH1 0x0 SWAP5 POP PUSH1 0x0 SWAP4 POP DUP1 DUP1 PUSH2 0xF1E SWAP1 PUSH2 0x17BB JUMP JUMPDEST SWAP2 POP POP PUSH2 0xC57 JUMP JUMPDEST POP PUSH1 0x0 PUSH1 0x5 DUP2 SWAP1 SSTORE POP DUP2 PUSH1 0x4 PUSH1 0x0 DUP3 DUP3 SLOAD PUSH2 0xF41 SWAP2 SWAP1 PUSH2 0x170E JUMP JUMPDEST SWAP3 POP POP DUP2 SWAP1 SSTORE POP PUSH1 0x0 PUSH8 0xFFFFFFFFFFFFFFFF DUP2 GT ISZERO PUSH2 0xF63 JUMPI PUSH2 0xF62 PUSH2 0x18CC JUMP JUMPDEST JUMPDEST PUSH1 0x40 MLOAD SWAP1 DUP1 DUP3 MSTORE DUP1 PUSH1 0x20 MUL PUSH1 0x20 ADD DUP3 ADD PUSH1 0x40 MSTORE DUP1 ISZERO PUSH2 0xF91 JUMPI DUP2 PUSH1 0x20 ADD PUSH1 0x20 DUP3 MUL DUP1 CALLDATASIZE DUP4 CALLDATACOPY DUP1 DUP3 ADD SWAP2 POP POP SWAP1 POP JUMPDEST POP PUSH1 0x6 SWAP1 DUP1 MLOAD SWAP1 PUSH1 0x20 ADD SWAP1 PUSH2 0xFA7 SWAP3 SWAP2 SWAP1 PUSH2 0x1042 JUMP JUMPDEST POP PUSH1 0x0 SWAP1 POP PUSH1 0x0 PUSH1 0x7 PUSH1 0x0 PUSH2 0x100 EXP DUP2 SLOAD DUP2 PUSH1 0xFF MUL NOT AND SWAP1 DUP4 ISZERO ISZERO MUL OR SWAP1 SSTORE POP POP POP POP POP POP JUMP JUMPDEST PUSH1 0x5 SLOAD DUP2 JUMP JUMPDEST DUP3 DUP1 SLOAD DUP3 DUP3 SSTORE SWAP1 PUSH1 0x0 MSTORE PUSH1 0x20 PUSH1 0x0 KECCAK256 SWAP1 DUP2 ADD SWAP3 DUP3 ISZERO PUSH2 0x1010 JUMPI SWAP2 PUSH1 0x20 MUL DUP3 ADD JUMPDEST DUP3 DUP2 GT ISZERO PUSH2 0x100F JUMPI DUP3 MLOAD DUP3 SSTORE SWAP2 PUSH1 0x20 ADD SWAP2 SWAP1 PUSH1 0x1 ADD SWAP1 PUSH2 0xFF4 JUMP JUMPDEST JUMPDEST POP SWAP1 POP PUSH2 0x101D SWAP2 SWAP1 PUSH2 0x10CC JUMP JUMPDEST POP SWAP1 JUMP JUMPDEST POP DUP1 SLOAD PUSH1 0x0 DUP3 SSTORE SWAP1 PUSH1 0x0 MSTORE PUSH1 0x20 PUSH1 0x0 KECCAK256 SWAP1 DUP2 ADD SWAP1 PUSH2 0x103F SWAP2 SWAP1 PUSH2 0x10CC JUMP JUMPDEST POP JUMP JUMPDEST DUP3 DUP1 SLOAD DUP3 DUP3 SSTORE SWAP1 PUSH1 0x0 MSTORE PUSH1 0x20 PUSH1 0x0 KECCAK256 SWAP1 DUP2 ADD SWAP3 DUP3 ISZERO PUSH2 0x10BB JUMPI SWAP2 PUSH1 0x20 MUL DUP3 ADD JUMPDEST DUP3 DUP2 GT ISZERO PUSH2 0x10BA JUMPI DUP3 MLOAD DUP3 PUSH1 0x0 PUSH2 0x100 EXP DUP2 SLOAD DUP2 PUSH20 0xFFFFFFFFFFFFFFFFFFFFFFFFFFFFFFFFFFFFFFFF MUL NOT AND SWAP1 DUP4 PUSH20 0xFFFFFFFFFFFFFFFFFFFFFFFFFFFFFFFFFFFFFFFF AND MUL OR SWAP1 SSTORE POP SWAP2 PUSH1 0x20 ADD SWAP2 SWAP1 PUSH1 0x1 ADD SWAP1 PUSH2 0x1062 JUMP JUMPDEST JUMPDEST POP SWAP1 POP PUSH2 0x10C8 SWAP2 SWAP1 PUSH2 0x10CC JUMP JUMPDEST POP SWAP1 JUMP JUMPDEST JUMPDEST DUP1 DUP3 GT ISZERO PUSH2 0x10E5 JUMPI PUSH1 0x0 DUP2 PUSH1 0x0 SWAP1 SSTORE POP PUSH1 0x1 ADD PUSH2 0x10CD JUMP JUMPDEST POP SWAP1 JUMP JUMPDEST PUSH1 0x0 PUSH2 0x10FC PUSH2 0x10F7 DUP5 PUSH2 0x15B7 JUMP JUMPDEST PUSH2 0x1592 JUMP JUMPDEST SWAP1 POP DUP1 DUP4 DUP3 MSTORE PUSH1 0x20 DUP3 ADD SWAP1 POP DUP3 DUP6 PUSH1 0x20 DUP7 MUL DUP3 ADD GT ISZERO PUSH2 0x111F JUMPI PUSH2 0x111E PUSH2 0x1900 JUMP JUMPDEST JUMPDEST PUSH1 0x0 JUMPDEST DUP6 DUP2 LT ISZERO PUSH2 0x114F JUMPI DUP2 PUSH2 0x1135 DUP9 DUP3 PUSH2 0x1187 JUMP JUMPDEST DUP5 MSTORE PUSH1 0x20 DUP5 ADD SWAP4 POP PUSH1 0x20 DUP4 ADD SWAP3 POP POP PUSH1 0x1 DUP2 ADD SWAP1 POP PUSH2 0x1122 JUMP JUMPDEST POP POP POP SWAP4 SWAP3 POP POP POP JUMP JUMPDEST PUSH1 0x0 DUP3 PUSH1 0x1F DUP4 ADD SLT PUSH2 0x116E JUMPI PUSH2 0x116D PUSH2 0x18FB JUMP JUMPDEST JUMPDEST DUP2 CALLDATALOAD PUSH2 0x117E DUP5 DUP3 PUSH1 0x20 DUP7 ADD PUSH2 0x10E9 JUMP JUMPDEST SWAP2 POP POP SWAP3 SWAP2 POP POP JUMP JUMPDEST PUSH1 0x0 DUP2 CALLDATALOAD SWAP1 POP PUSH2 0x1196 DUP2 PUSH2 0x1A8E JUMP JUMPDEST SWAP3 SWAP2 POP POP JUMP JUMPDEST PUSH1 0x0 PUSH1 0x20 DUP3 DUP5 SUB SLT ISZERO PUSH2 0x11B2 JUMPI PUSH2 0x11B1 PUSH2 0x190A JUMP JUMPDEST JUMPDEST PUSH1 0x0 DUP3 ADD CALLDATALOAD PUSH8 0xFFFFFFFFFFFFFFFF DUP2 GT ISZERO PUSH2 0x11D0 JUMPI PUSH2 0x11CF PUSH2 0x1905 JUMP JUMPDEST JUMPDEST PUSH2 0x11DC DUP5 DUP3 DUP6 ADD PUSH2 0x1159 JUMP JUMPDEST SWAP2 POP POP SWAP3 SWAP2 POP POP JUMP JUMPDEST PUSH1 0x0 PUSH1 0x20 DUP3 DUP5 SUB SLT ISZERO PUSH2 0x11FB JUMPI PUSH2 0x11FA PUSH2 0x190A JUMP JUMPDEST JUMPDEST PUSH1 0x0 PUSH2 0x1209 DUP5 DUP3 DUP6 ADD PUSH2 0x1187 JUMP JUMPDEST SWAP2 POP POP SWAP3 SWAP2 POP POP JUMP JUMPDEST PUSH1 0x0 PUSH2 0x121E DUP4 DUP4 PUSH2 0x13BE JUMP JUMPDEST PUSH1 0x20 DUP4 ADD SWAP1 POP SWAP3 SWAP2 POP POP JUMP JUMPDEST PUSH2 0x1233 DUP2 PUSH2 0x1742 JUMP JUMPDEST DUP3 MSTORE POP POP JUMP JUMPDEST PUSH1 0x0 PUSH2 0x1244 DUP3 PUSH2 0x15F3 JUMP JUMPDEST PUSH2 0x124E DUP2 DUP6 PUSH2 0x160B JUMP JUMPDEST SWAP4 POP PUSH2 0x1259 DUP4 PUSH2 0x15E3 JUMP JUMPDEST DUP1 PUSH1 0x0 JUMPDEST DUP4 DUP2 LT ISZERO PUSH2 0x128A JUMPI DUP2 MLOAD PUSH2 0x1271 DUP9 DUP3 PUSH2 0x1212 JUMP JUMPDEST SWAP8 POP PUSH2 0x127C DUP4 PUSH2 0x15FE JUMP JUMPDEST SWAP3 POP POP PUSH1 0x1 DUP2 ADD SWAP1 POP PUSH2 0x125D JUMP JUMPDEST POP DUP6 SWAP4 POP POP POP POP SWAP3 SWAP2 POP POP JUMP JUMPDEST PUSH2 0x12A0 DUP2 PUSH2 0x1754 JUMP JUMPDEST DUP3 MSTORE POP POP JUMP JUMPDEST PUSH1 0x0 PUSH2 0x12B3 PUSH1 0x14 DUP4 PUSH2 0x161C JUMP JUMPDEST SWAP2 POP PUSH2 0x12BE DUP3 PUSH2 0x1920 JUMP JUMPDEST PUSH1 0x20 DUP3 ADD SWAP1 POP SWAP2 SWAP1 POP JUMP JUMPDEST PUSH1 0x0 PUSH2 0x12D6 PUSH1 0x11 DUP4 PUSH2 0x161C JUMP JUMPDEST SWAP2 POP PUSH2 0x12E1 DUP3 PUSH2 0x1949 JUMP JUMPDEST PUSH1 0x20 DUP3 ADD SWAP1 POP SWAP2 SWAP1 POP JUMP JUMPDEST PUSH1 0x0 PUSH2 0x12F9 PUSH1 0x20 DUP4 PUSH2 0x161C JUMP JUMPDEST SWAP2 POP PUSH2 0x1304 DUP3 PUSH2 0x1972 JUMP JUMPDEST PUSH1 0x20 DUP3 ADD SWAP1 POP SWAP2 SWAP1 POP JUMP JUMPDEST PUSH1 0x0 PUSH2 0x131C PUSH1 0x26 DUP4 PUSH2 0x161C JUMP JUMPDEST SWAP2 POP PUSH2 0x1327 DUP3 PUSH2 0x199B JUMP JUMPDEST PUSH1 0x40 DUP3 ADD SWAP1 POP SWAP2 SWAP1 POP JUMP JUMPDEST PUSH1 0x0 PUSH2 0x133F PUSH1 0x15 DUP4 PUSH2 0x161C JUMP JUMPDEST SWAP2 POP PUSH2 0x134A DUP3 PUSH2 0x19EA JUMP JUMPDEST PUSH1 0x20 DUP3 ADD SWAP1 POP SWAP2 SWAP1 POP JUMP JUMPDEST PUSH1 0x0 PUSH2 0x1362 PUSH1 0xC DUP4 PUSH2 0x161C JUMP JUMPDEST SWAP2 POP PUSH2 0x136D DUP3 PUSH2 0x1A13 JUMP JUMPDEST PUSH1 0x20 DUP3 ADD SWAP1 POP SWAP2 SWAP1 POP JUMP JUMPDEST PUSH1 0x0 PUSH2 0x1385 PUSH1 0x17 DUP4 PUSH2 0x161C JUMP JUMPDEST SWAP2 POP PUSH2 0x1390 DUP3 PUSH2 0x1A3C JUMP JUMPDEST PUSH1 0x20 DUP3 ADD SWAP1 POP SWAP2 SWAP1 POP JUMP JUMPDEST PUSH1 0x0 PUSH2 0x13A8 PUSH1 0xC DUP4 PUSH2 0x161C JUMP JUMPDEST SWAP2 POP PUSH2 0x13B3 DUP3 PUSH2 0x1A65 JUMP JUMPDEST PUSH1 0x20 DUP3 ADD SWAP1 POP SWAP2 SWAP1 POP JUMP JUMPDEST PUSH2 0x13C7 DUP2 PUSH2 0x1780 JUMP JUMPDEST DUP3 MSTORE POP POP JUMP JUMPDEST PUSH2 0x13D6 DUP2 PUSH2 0x1780 JUMP JUMPDEST DUP3 MSTORE POP POP JUMP JUMPDEST PUSH2 0x13ED PUSH2 0x13E8 DUP3 PUSH2 0x1780 JUMP JUMPDEST PUSH2 0x1804 JUMP JUMPDEST DUP3 MSTORE POP POP JUMP JUMPDEST PUSH1 0x0 PUSH2 0x13FF DUP3 DUP6 PUSH2 0x13DC JUMP JUMPDEST PUSH1 0x20 DUP3 ADD SWAP2 POP PUSH2 0x140F DUP3 DUP5 PUSH2 0x13DC JUMP JUMPDEST PUSH1 0x20 DUP3 ADD SWAP2 POP DUP2 SWAP1 POP SWAP4 SWAP3 POP POP POP JUMP JUMPDEST PUSH1 0x0 PUSH1 0x20 DUP3 ADD SWAP1 POP PUSH2 0x1434 PUSH1 0x0 DUP4 ADD DUP5 PUSH2 0x122A JUMP JUMPDEST SWAP3 SWAP2 POP POP JUMP JUMPDEST PUSH1 0x0 PUSH1 0x20 DUP3 ADD SWAP1 POP DUP2 DUP2 SUB PUSH1 0x0 DUP4 ADD MSTORE PUSH2 0x1454 DUP2 DUP5 PUSH2 0x1239 JUMP JUMPDEST SWAP1 POP SWAP3 SWAP2 POP POP JUMP JUMPDEST PUSH1 0x0 PUSH1 0x20 DUP3 ADD SWAP1 POP PUSH2 0x1471 PUSH1 0x0 DUP4 ADD DUP5 PUSH2 0x1297 JUMP JUMPDEST SWAP3 SWAP2 POP POP JUMP JUMPDEST PUSH1 0x0 PUSH1 0x20 DUP3 ADD SWAP1 POP DUP2 DUP2 SUB PUSH1 0x0 DUP4 ADD MSTORE PUSH2 0x1490 DUP2 PUSH2 0x12A6 JUMP JUMPDEST SWAP1 POP SWAP2 SWAP1 POP JUMP JUMPDEST PUSH1 0x0 PUSH1 0x20 DUP3 ADD SWAP1 POP DUP2 DUP2 SUB PUSH1 0x0 DUP4 ADD MSTORE PUSH2 0x14B0 DUP2 PUSH2 0x12C9 JUMP JUMPDEST SWAP1 POP SWAP2 SWAP1 POP JUMP JUMPDEST PUSH1 0x0 PUSH1 0x20 DUP3 ADD SWAP1 POP DUP2 DUP2 SUB PUSH1 0x0 DUP4 ADD MSTORE PUSH2 0x14D0 DUP2 PUSH2 0x12EC JUMP JUMPDEST SWAP1 POP SWAP2 SWAP1 POP JUMP JUMPDEST PUSH1 0x0 PUSH1 0x20 DUP3 ADD SWAP1 POP DUP2 DUP2 SUB PUSH1 0x0 DUP4 ADD MSTORE PUSH2 0x14F0 DUP2 PUSH2 0x130F JUMP JUMPDEST SWAP1 POP SWAP2 SWAP1 POP JUMP JUMPDEST PUSH1 0x0 PUSH1 0x20 DUP3 ADD SWAP1 POP DUP2 DUP2 SUB PUSH1 0x0 DUP4 ADD MSTORE PUSH2 0x1510 DUP2 PUSH2 0x1332 JUMP JUMPDEST SWAP1 POP SWAP2 SWAP1 POP JUMP JUMPDEST PUSH1 0x0 PUSH1 0x20 DUP3 ADD SWAP1 POP DUP2 DUP2 SUB PUSH1 0x0 DUP4 ADD MSTORE PUSH2 0x1530 DUP2 PUSH2 0x1355 JUMP JUMPDEST SWAP1 POP SWAP2 SWAP1 POP JUMP JUMPDEST PUSH1 0x0 PUSH1 0x20 DUP3 ADD SWAP1 POP DUP2 DUP2 SUB PUSH1 0x0 DUP4 ADD MSTORE PUSH2 0x1550 DUP2 PUSH2 0x1378 JUMP JUMPDEST SWAP1 POP SWAP2 SWAP1 POP JUMP JUMPDEST PUSH1 0x0 PUSH1 0x20 DUP3 ADD SWAP1 POP DUP2 DUP2 SUB PUSH1 0x0 DUP4 ADD MSTORE PUSH2 0x1570 DUP2 PUSH2 0x139B JUMP JUMPDEST SWAP1 POP SWAP2 SWAP1 POP JUMP JUMPDEST PUSH1 0x0 PUSH1 0x20 DUP3 ADD SWAP1 POP PUSH2 0x158C PUSH1 0x0 DUP4 ADD DUP5 PUSH2 0x13CD JUMP JUMPDEST SWAP3 SWAP2 POP POP JUMP JUMPDEST PUSH1 0x0 PUSH2 0x159C PUSH2 0x15AD JUMP JUMPDEST SWAP1 POP PUSH2 0x15A8 DUP3 DUP3 PUSH2 0x178A JUMP JUMPDEST SWAP2 SWAP1 POP JUMP JUMPDEST PUSH1 0x0 PUSH1 0x40 MLOAD SWAP1 POP SWAP1 JUMP JUMPDEST PUSH1 0x0 PUSH8 0xFFFFFFFFFFFFFFFF DUP3 GT ISZERO PUSH2 0x15D2 JUMPI PUSH2 0x15D1 PUSH2 0x18CC JUMP JUMPDEST JUMPDEST PUSH1 0x20 DUP3 MUL SWAP1 POP PUSH1 0x20 DUP2 ADD SWAP1 POP SWAP2 SWAP1 POP JUMP JUMPDEST PUSH1 0x0 DUP2 SWAP1 POP PUSH1 0x20 DUP3 ADD SWAP1 POP SWAP2 SWAP1 POP JUMP JUMPDEST PUSH1 0x0 DUP2 MLOAD SWAP1 POP SWAP2 SWAP1 POP JUMP JUMPDEST PUSH1 0x0 PUSH1 0x20 DUP3 ADD SWAP1 POP SWAP2 SWAP1 POP JUMP JUMPDEST PUSH1 0x0 DUP3 DUP3 MSTORE PUSH1 0x20 DUP3 ADD SWAP1 POP SWAP3 SWAP2 POP POP JUMP JUMPDEST PUSH1 0x0 DUP3 DUP3 MSTORE PUSH1 0x20 DUP3 ADD SWAP1 POP SWAP3 SWAP2 POP POP JUMP JUMPDEST PUSH1 0x0 PUSH2 0x1638 DUP3 PUSH2 0x1780 JUMP JUMPDEST SWAP2 POP PUSH2 0x1643 DUP4 PUSH2 0x1780 JUMP JUMPDEST SWAP3 POP DUP3 PUSH32 0xFFFFFFFFFFFFFFFFFFFFFFFFFFFFFFFFFFFFFFFFFFFFFFFFFFFFFFFFFFFFFFFF SUB DUP3 GT ISZERO PUSH2 0x1678 JUMPI PUSH2 0x1677 PUSH2 0x183F JUMP JUMPDEST JUMPDEST DUP3 DUP3 ADD SWAP1 POP SWAP3 SWAP2 POP POP JUMP JUMPDEST PUSH1 0x0 PUSH2 0x168E DUP3 PUSH2 0x1780 JUMP JUMPDEST SWAP2 POP PUSH2 0x1699 DUP4 PUSH2 0x1780 JUMP JUMPDEST SWAP3 POP DUP3 PUSH2 0x16A9 JUMPI PUSH2 0x16A8 PUSH2 0x186E JUMP JUMPDEST JUMPDEST DUP3 DUP3 DIV SWAP1 POP SWAP3 SWAP2 POP POP JUMP JUMPDEST PUSH1 0x0 PUSH2 0x16BF DUP3 PUSH2 0x1780 JUMP JUMPDEST SWAP2 POP PUSH2 0x16CA DUP4 PUSH2 0x1780 JUMP JUMPDEST SWAP3 POP DUP2 PUSH32 0xFFFFFFFFFFFFFFFFFFFFFFFFFFFFFFFFFFFFFFFFFFFFFFFFFFFFFFFFFFFFFFFF DIV DUP4 GT DUP3 ISZERO ISZERO AND ISZERO PUSH2 0x1703 JUMPI PUSH2 0x1702 PUSH2 0x183F JUMP JUMPDEST JUMPDEST DUP3 DUP3 MUL SWAP1 POP SWAP3 SWAP2 POP POP JUMP JUMPDEST PUSH1 0x0 PUSH2 0x1719 DUP3 PUSH2 0x1780 JUMP JUMPDEST SWAP2 POP PUSH2 0x1724 DUP4 PUSH2 0x1780 JUMP JUMPDEST SWAP3 POP DUP3 DUP3 LT ISZERO PUSH2 0x1737 JUMPI PUSH2 0x1736 PUSH2 0x183F JUMP JUMPDEST JUMPDEST DUP3 DUP3 SUB SWAP1 POP SWAP3 SWAP2 POP POP JUMP JUMPDEST PUSH1 0x0 PUSH2 0x174D DUP3 PUSH2 0x1760 JUMP JUMPDEST SWAP1 POP SWAP2 SWAP1 POP JUMP JUMPDEST PUSH1 0x0 DUP2 ISZERO ISZERO SWAP1 POP SWAP2 SWAP1 POP JUMP JUMPDEST PUSH1 0x0 PUSH20 0xFFFFFFFFFFFFFFFFFFFFFFFFFFFFFFFFFFFFFFFF DUP3 AND SWAP1 POP SWAP2 SWAP1 POP JUMP JUMPDEST PUSH1 0x0 DUP2 SWAP1 POP SWAP2 SWAP1 POP JUMP JUMPDEST PUSH2 0x1793 DUP3 PUSH2 0x190F JUMP JUMPDEST DUP2 ADD DUP2 DUP2 LT PUSH8 0xFFFFFFFFFFFFFFFF DUP3 GT OR ISZERO PUSH2 0x17B2 JUMPI PUSH2 0x17B1 PUSH2 0x18CC JUMP JUMPDEST JUMPDEST DUP1 PUSH1 0x40 MSTORE POP POP POP JUMP JUMPDEST PUSH1 0x0 PUSH2 0x17C6 DUP3 PUSH2 0x1780 JUMP JUMPDEST SWAP2 POP PUSH32 0xFFFFFFFFFFFFFFFFFFFFFFFFFFFFFFFFFFFFFFFFFFFFFFFFFFFFFFFFFFFFFFFF DUP3 EQ ISZERO PUSH2 0x17F9 JUMPI PUSH2 0x17F8 PUSH2 0x183F JUMP JUMPDEST JUMPDEST PUSH1 0x1 DUP3 ADD SWAP1 POP SWAP2 SWAP1 POP JUMP JUMPDEST PUSH1 0x0 DUP2 SWAP1 POP SWAP2 SWAP1 POP JUMP JUMPDEST PUSH1 0x0 PUSH2 0x1819 DUP3 PUSH2 0x1780 JUMP JUMPDEST SWAP2 POP PUSH2 0x1824 DUP4 PUSH2 0x1780 JUMP JUMPDEST SWAP3 POP DUP3 PUSH2 0x1834 JUMPI PUSH2 0x1833 PUSH2 0x186E JUMP JUMPDEST JUMPDEST DUP3 DUP3 MOD SWAP1 POP SWAP3 SWAP2 POP POP JUMP JUMPDEST PUSH32 0x4E487B7100000000000000000000000000000000000000000000000000000000 PUSH1 0x0 MSTORE PUSH1 0x11 PUSH1 0x4 MSTORE PUSH1 0x24 PUSH1 0x0 REVERT JUMPDEST PUSH32 0x4E487B7100000000000000000000000000000000000000000000000000000000 PUSH1 0x0 MSTORE PUSH1 0x12 PUSH1 0x4 MSTORE PUSH1 0x24 PUSH1 0x0 REVERT JUMPDEST PUSH32 0x4E487B7100000000000000000000000000000000000000000000000000000000 PUSH1 0x0 MSTORE PUSH1 0x32 PUSH1 0x4 MSTORE PUSH1 0x24 PUSH1 0x0 REVERT JUMPDEST PUSH32 0x4E487B7100000000000000000000000000000000000000000000000000000000 PUSH1 0x0 MSTORE PUSH1 0x41 PUSH1 0x4 MSTORE PUSH1 0x24 PUSH1 0x0 REVERT JUMPDEST PUSH1 0x0 DUP1 REVERT JUMPDEST PUSH1 0x0 DUP1 REVERT JUMPDEST PUSH1 0x0 DUP1 REVERT JUMPDEST PUSH1 0x0 DUP1 REVERT JUMPDEST PUSH1 0x0 PUSH1 0x1F NOT PUSH1 0x1F DUP4 ADD AND SWAP1 POP SWAP2 SWAP1 POP JUMP JUMPDEST PUSH32 0x4E6F20457468657220746F2070756C6C206F7574000000000000000000000000 PUSH1 0x0 DUP3 ADD MSTORE POP JUMP JUMPDEST PUSH32 0x4E6F207469636B65742077617320626F75000000000000000000000000000000 PUSH1 0x0 DUP3 ADD MSTORE POP JUMP JUMPDEST PUSH32 0x596F75206861766520616C726561647920626F756768742061207469636B6574 PUSH1 0x0 DUP3 ADD MSTORE POP JUMP JUMPDEST PUSH32 0x4F6E6C7920746865206F776E65722063616E20706572666F726D207468697320 PUSH1 0x0 DUP3 ADD MSTORE PUSH32 0x616374696F6E0000000000000000000000000000000000000000000000000000 PUSH1 0x20 DUP3 ADD MSTORE POP JUMP JUMPDEST PUSH32 0x4E6F206C6F74746572792069732072756E6E696E670000000000000000000000 PUSH1 0x0 DUP3 ADD MSTORE POP JUMP JUMPDEST PUSH32 0x57726F6E67206E756D6265720000000000000000000000000000000000000000 PUSH1 0x0 DUP3 ADD MSTORE POP JUMP JUMPDEST PUSH32 0x57726F6E67206E756D626572206F66206E756D62657273000000000000000000 PUSH1 0x0 DUP3 ADD MSTORE POP JUMP JUMPDEST PUSH32 0x57726F6E6720616D6F756E740000000000000000000000000000000000000000 PUSH1 0x0 DUP3 ADD MSTORE POP JUMP JUMPDEST PUSH2 0x1A97 DUP2 PUSH2 0x1780 JUMP JUMPDEST DUP2 EQ PUSH2 0x1AA2 JUMPI PUSH1 0x0 DUP1 REVERT JUMPDEST POP JUMP INVALID LOG2 PUSH5 0x6970667358 0x22 SLT KECCAK256 LT ADDRESS 0x28 0xD1 0xB7 0xE5 0x4D OR 0xA6 0xAB 0xF9 0x2F 0xBF 0xF9 REVERT SLOAD 0xBC SHR 0xF STOP OR PUSH6 0x9E3A66E80A93 0xDD 0xAA DUP9 DUP12 PUSH5 0x736F6C6343 STOP ADDMOD SMOD STOP CALLER "
				},
				"gasEstimates": {
					"creation": {
						"codeDepositCost": "1375000",
						"executionCost": "77076",
						"totalCost": "1452076"
					},
					"external": {
						"EndLottery()": "infinite",
						"NrticketsBought()": "2517",
						"Pull()": "infinite",
						"buyTicket(uint256[])": "infinite",
						"changeTicketPrice(uint256)": "infinite",
						"getMyTicketNumbers()": "infinite",
						"getTicketPrice()": "infinite",
						"getTotalLotteryPot()": "infinite",
						"getWinningNumber()": "infinite",
						"lotteryStarted()": "2538",
						"owner()": "2578",
						"playersAddresses(uint256)": "5001",
						"setWinningNumbers()": "infinite"
					}
				},
				"methodIdentifiers": {
					"EndLottery()": "b04a3f1c",
					"NrticketsBought()": "d386ea73",
					"Pull()": "30daec49",
					"buyTicket(uint256[])": "716cac96",
					"changeTicketPrice(uint256)": "4630a0ee",
					"getMyTicketNumbers()": "a650fbab",
					"getTicketPrice()": "87bb7ae0",
					"getTotalLotteryPot()": "8a4a29c3",
					"getWinningNumber()": "8b0b9ed4",
					"lotteryStarted()": "5a3811b9",
					"owner()": "8da5cb5b",
					"playersAddresses(uint256)": "472016da",
					"setWinningNumbers()": "a7caba25"
				}
			},
			"storageLayout": {
				"storage": [
					{
						"astId": 2,
						"contract": "Lottery/UZHPancakeLottery.sol:UZHPancakeLottery",
						"label": "owner",
						"offset": 0,
						"slot": "0",
						"type": "t_address"
					},
					{
						"astId": 5,
						"contract": "Lottery/UZHPancakeLottery.sol:UZHPancakeLottery",
						"label": "winningNumber",
						"offset": 0,
						"slot": "1",
						"type": "t_array(t_uint256)dyn_storage"
					},
					{
						"astId": 10,
						"contract": "Lottery/UZHPancakeLottery.sol:UZHPancakeLottery",
						"label": "playersTickets",
						"offset": 0,
						"slot": "2",
						"type": "t_mapping(t_address,t_array(t_uint256)dyn_storage)"
					},
					{
						"astId": 13,
						"contract": "Lottery/UZHPancakeLottery.sol:UZHPancakeLottery",
						"label": "price",
						"offset": 0,
						"slot": "3",
						"type": "t_uint256"
					},
					{
						"astId": 15,
						"contract": "Lottery/UZHPancakeLottery.sol:UZHPancakeLottery",
						"label": "TotalLotteryPot",
						"offset": 0,
						"slot": "4",
						"type": "t_uint256"
					},
					{
						"astId": 18,
						"contract": "Lottery/UZHPancakeLottery.sol:UZHPancakeLottery",
						"label": "NrticketsBought",
						"offset": 0,
						"slot": "5",
						"type": "t_uint256"
					},
					{
						"astId": 21,
						"contract": "Lottery/UZHPancakeLottery.sol:UZHPancakeLottery",
						"label": "playersAddresses",
						"offset": 0,
						"slot": "6",
						"type": "t_array(t_address)dyn_storage"
					},
					{
						"astId": 24,
						"contract": "Lottery/UZHPancakeLottery.sol:UZHPancakeLottery",
						"label": "lotteryStarted",
						"offset": 0,
						"slot": "7",
						"type": "t_bool"
					}
				],
				"types": {
					"t_address": {
						"encoding": "inplace",
						"label": "address",
						"numberOfBytes": "20"
					},
					"t_array(t_address)dyn_storage": {
						"base": "t_address",
						"encoding": "dynamic_array",
						"label": "address[]",
						"numberOfBytes": "32"
					},
					"t_array(t_uint256)dyn_storage": {
						"base": "t_uint256",
						"encoding": "dynamic_array",
						"label": "uint256[]",
						"numberOfBytes": "32"
					},
					"t_bool": {
						"encoding": "inplace",
						"label": "bool",
						"numberOfBytes": "1"
					},
					"t_mapping(t_address,t_array(t_uint256)dyn_storage)": {
						"encoding": "mapping",
						"key": "t_address",
						"label": "mapping(address => uint256[])",
						"numberOfBytes": "32",
						"value": "t_array(t_uint256)dyn_storage"
					},
					"t_uint256": {
						"encoding": "inplace",
						"label": "uint256",
						"numberOfBytes": "32"
					}
				}
			},
			"userdoc": {
				"kind": "user",
				"methods": {},
				"version": 1
			}
		}
	}
}