{
	"UZHPancakeLottery.sol": {
		"UZHPancakeLottery": {
			"abi": [
				{
					"inputs": [],
					"stateMutability": "nonpayable",
					"type": "constructor"
				},
				{
					"inputs": [],
					"name": "BeginLottery",
					"outputs": [],
					"stateMutability": "nonpayable",
					"type": "function"
				},
				{
					"inputs": [],
					"name": "EndLottery",
					"outputs": [],
					"stateMutability": "nonpayable",
					"type": "function"
				},
				{
					"inputs": [],
					"name": "NrticketsBought",
					"outputs": [
						{
							"internalType": "uint256",
							"name": "",
							"type": "uint256"
						}
					],
					"stateMutability": "view",
					"type": "function"
				},
				{
					"inputs": [],
					"name": "Pull",
					"outputs": [],
					"stateMutability": "nonpayable",
					"type": "function"
				},
				{
					"inputs": [
						{
							"internalType": "uint256[]",
							"name": "ticketNumbers",
							"type": "uint256[]"
						}
					],
					"name": "buyTicket",
					"outputs": [],
					"stateMutability": "payable",
					"type": "function"
				},
				{
					"inputs": [
						{
							"internalType": "uint256",
							"name": "_price",
							"type": "uint256"
						}
					],
					"name": "changeTicketPrice",
					"outputs": [],
					"stateMutability": "nonpayable",
					"type": "function"
				},
				{
					"inputs": [],
					"name": "getMyTicketNumbers",
					"outputs": [
						{
							"internalType": "uint256[]",
							"name": "",
							"type": "uint256[]"
						}
					],
					"stateMutability": "view",
					"type": "function"
				},
				{
					"inputs": [],
					"name": "getTicketPrice",
					"outputs": [
						{
							"internalType": "uint256",
							"name": "",
							"type": "uint256"
						}
					],
					"stateMutability": "view",
					"type": "function"
				},
				{
					"inputs": [],
					"name": "getTotalLotteryPot",
					"outputs": [
						{
							"internalType": "uint256",
							"name": "",
							"type": "uint256"
						}
					],
					"stateMutability": "view",
					"type": "function"
				},
				{
					"inputs": [],
					"name": "getWinningNumber",
					"outputs": [
						{
							"internalType": "uint256[]",
							"name": "",
							"type": "uint256[]"
						}
					],
					"stateMutability": "view",
					"type": "function"
				},
				{
					"inputs": [],
					"name": "lotteryStarted",
					"outputs": [
						{
							"internalType": "bool",
							"name": "",
							"type": "bool"
						}
					],
					"stateMutability": "view",
					"type": "function"
				},
				{
					"inputs": [],
					"name": "owner",
					"outputs": [
						{
							"internalType": "address",
							"name": "",
							"type": "address"
						}
					],
					"stateMutability": "view",
					"type": "function"
				},
				{
					"inputs": [
						{
							"internalType": "uint256",
							"name": "",
							"type": "uint256"
						}
					],
					"name": "playersAddresses",
					"outputs": [
						{
							"internalType": "address",
							"name": "",
							"type": "address"
						}
					],
					"stateMutability": "view",
					"type": "function"
				},
				{
					"inputs": [
						{
							"internalType": "uint256[]",
							"name": "_winningNumber",
							"type": "uint256[]"
						}
					],
					"name": "setWinningNumber",
					"outputs": [],
					"stateMutability": "nonpayable",
					"type": "function"
				}
			],
			"devdoc": {
				"kind": "dev",
				"methods": {},
				"version": 1
			},
			"evm": {
				"assembly": "    /* \"UZHPancakeLottery.sol\":256:8657  contract UZHPancakeLottery {\r... */\n  mstore(0x40, 0x80)\n    /* \"UZHPancakeLottery.sol\":619:626  5 ether */\n  0x4563918244f40000\n    /* \"UZHPancakeLottery.sol\":592:626  uint private ticketprice = 5 ether */\n  0x03\n  sstore\n    /* \"UZHPancakeLottery.sol\":784:785  0 */\n  0x00\n    /* \"UZHPancakeLottery.sol\":754:785  uint public NrticketsBought = 0 */\n  0x05\n  sstore\n    /* \"UZHPancakeLottery.sol\":973:978  false */\n  0x00\n    /* \"UZHPancakeLottery.sol\":944:978  bool public lotteryStarted = false */\n  0x07\n  exp(0x0100, 0x00)\n  dup2\n  sload\n  dup2\n  0xff\n  mul\n  not\n  and\n  swap1\n  dup4\n  iszero\n  iszero\n  mul\n  or\n  swap1\n  sstore\n  pop\n    /* \"UZHPancakeLottery.sol\":1064:1122  constructor() public {\r... */\n  callvalue\n  dup1\n  iszero\n  tag_1\n  jumpi\n  0x00\n  dup1\n  revert\ntag_1:\n  pop\n    /* \"UZHPancakeLottery.sol\":1104:1114  msg.sender */\n  caller\n    /* \"UZHPancakeLottery.sol\":1096:1101  owner */\n  0x00\n  dup1\n    /* \"UZHPancakeLottery.sol\":1096:1114  owner = msg.sender */\n  0x0100\n  exp\n  dup2\n  sload\n  dup2\n  0xffffffffffffffffffffffffffffffffffffffff\n  mul\n  not\n  and\n  swap1\n  dup4\n  0xffffffffffffffffffffffffffffffffffffffff\n  and\n  mul\n  or\n  swap1\n  sstore\n  pop\n    /* \"UZHPancakeLottery.sol\":256:8657  contract UZHPancakeLottery {\r... */\n  dataSize(sub_0)\n  dup1\n  dataOffset(sub_0)\n  0x00\n  codecopy\n  0x00\n  return\nstop\n\nsub_0: assembly {\n        /* \"UZHPancakeLottery.sol\":256:8657  contract UZHPancakeLottery {\r... */\n      mstore(0x40, 0x80)\n      jumpi(tag_1, lt(calldatasize, 0x04))\n      shr(0xe0, calldataload(0x00))\n      dup1\n      0x87bb7ae0\n      gt\n      tag_16\n      jumpi\n      dup1\n      0x8da5cb5b\n      gt\n      tag_17\n      jumpi\n      dup1\n      0x8da5cb5b\n      eq\n      tag_12\n      jumpi\n      dup1\n      0xa650fbab\n      eq\n      tag_13\n      jumpi\n      dup1\n      0xb04a3f1c\n      eq\n      tag_14\n      jumpi\n      dup1\n      0xd386ea73\n      eq\n      tag_15\n      jumpi\n      jump(tag_1)\n    tag_17:\n      dup1\n      0x87bb7ae0\n      eq\n      tag_9\n      jumpi\n      dup1\n      0x8a4a29c3\n      eq\n      tag_10\n      jumpi\n      dup1\n      0x8b0b9ed4\n      eq\n      tag_11\n      jumpi\n      jump(tag_1)\n    tag_16:\n      dup1\n      0x472016da\n      gt\n      tag_18\n      jumpi\n      dup1\n      0x472016da\n      eq\n      tag_5\n      jumpi\n      dup1\n      0x4efd7cca\n      eq\n      tag_6\n      jumpi\n      dup1\n      0x5a3811b9\n      eq\n      tag_7\n      jumpi\n      dup1\n      0x716cac96\n      eq\n      tag_8\n      jumpi\n      jump(tag_1)\n    tag_18:\n      dup1\n      0x30daec49\n      eq\n      tag_2\n      jumpi\n      dup1\n      0x36c1ec23\n      eq\n      tag_3\n      jumpi\n      dup1\n      0x4630a0ee\n      eq\n      tag_4\n      jumpi\n    tag_1:\n      0x00\n      dup1\n      revert\n        /* \"UZHPancakeLottery.sol\":8055:8652  function Pull() public onlyOwner {\r... */\n    tag_2:\n      callvalue\n      dup1\n      iszero\n      tag_19\n      jumpi\n      0x00\n      dup1\n      revert\n    tag_19:\n      pop\n      tag_20\n      tag_21\n      jump\t// in\n    tag_20:\n      stop\n        /* \"UZHPancakeLottery.sol\":2260:2911  function BeginLottery() public onlyOwner {\r... */\n    tag_3:\n      callvalue\n      dup1\n      iszero\n      tag_22\n      jumpi\n      0x00\n      dup1\n      revert\n    tag_22:\n      pop\n      tag_23\n      tag_24\n      jump\t// in\n    tag_23:\n      stop\n        /* \"UZHPancakeLottery.sol\":1380:1610  function changeTicketPrice(uint _price) public onlyOwner {\r... */\n    tag_4:\n      callvalue\n      dup1\n      iszero\n      tag_25\n      jumpi\n      0x00\n      dup1\n      revert\n    tag_25:\n      pop\n      tag_26\n      0x04\n      dup1\n      calldatasize\n      sub\n      dup2\n      add\n      swap1\n      tag_27\n      swap2\n      swap1\n      tag_28\n      jump\t// in\n    tag_27:\n      tag_29\n      jump\t// in\n    tag_26:\n      stop\n        /* \"UZHPancakeLottery.sol\":847:881  address [] public playersAddresses */\n    tag_5:\n      callvalue\n      dup1\n      iszero\n      tag_30\n      jumpi\n      0x00\n      dup1\n      revert\n    tag_30:\n      pop\n      tag_31\n      0x04\n      dup1\n      calldatasize\n      sub\n      dup2\n      add\n      swap1\n      tag_32\n      swap2\n      swap1\n      tag_28\n      jump\t// in\n    tag_32:\n      tag_33\n      jump\t// in\n    tag_31:\n      mload(0x40)\n      tag_34\n      swap2\n      swap1\n      tag_35\n      jump\t// in\n    tag_34:\n      mload(0x40)\n      dup1\n      swap2\n      sub\n      swap1\n      return\n        /* \"UZHPancakeLottery.sol\":2986:3270  function setWinningNumber(uint[] memory _winningNumber) public onlyOwner {\r... */\n    tag_6:\n      callvalue\n      dup1\n      iszero\n      tag_36\n      jumpi\n      0x00\n      dup1\n      revert\n    tag_36:\n      pop\n      tag_37\n      0x04\n      dup1\n      calldatasize\n      sub\n      dup2\n      add\n      swap1\n      tag_38\n      swap2\n      swap1\n      tag_39\n      jump\t// in\n    tag_38:\n      tag_40\n      jump\t// in\n    tag_37:\n      stop\n        /* \"UZHPancakeLottery.sol\":944:978  bool public lotteryStarted = false */\n    tag_7:\n      callvalue\n      dup1\n      iszero\n      tag_41\n      jumpi\n      0x00\n      dup1\n      revert\n    tag_41:\n      pop\n      tag_42\n      tag_43\n      jump\t// in\n    tag_42:\n      mload(0x40)\n      tag_44\n      swap2\n      swap1\n      tag_45\n      jump\t// in\n    tag_44:\n      mload(0x40)\n      dup1\n      swap2\n      sub\n      swap1\n      return\n        /* \"UZHPancakeLottery.sol\":3643:4907  function buyTicket(uint[] memory ticketNumbers) public payable {\r... */\n    tag_8:\n      tag_46\n      0x04\n      dup1\n      calldatasize\n      sub\n      dup2\n      add\n      swap1\n      tag_47\n      swap2\n      swap1\n      tag_39\n      jump\t// in\n    tag_47:\n      tag_48\n      jump\t// in\n    tag_46:\n      stop\n        /* \"UZHPancakeLottery.sol\":1671:1891  function getTicketPrice() public view returns (uint) {\r... */\n    tag_9:\n      callvalue\n      dup1\n      iszero\n      tag_49\n      jumpi\n      0x00\n      dup1\n      revert\n    tag_49:\n      pop\n      tag_50\n      tag_51\n      jump\t// in\n    tag_50:\n      mload(0x40)\n      tag_52\n      swap2\n      swap1\n      tag_53\n      jump\t// in\n    tag_52:\n      mload(0x40)\n      dup1\n      swap2\n      sub\n      swap1\n      return\n        /* \"UZHPancakeLottery.sol\":1971:2199  function getTotalLotteryPot() public view returns (uint) {\r... */\n    tag_10:\n      callvalue\n      dup1\n      iszero\n      tag_54\n      jumpi\n      0x00\n      dup1\n      revert\n    tag_54:\n      pop\n      tag_55\n      tag_56\n      jump\t// in\n    tag_55:\n      mload(0x40)\n      tag_57\n      swap2\n      swap1\n      tag_53\n      jump\t// in\n    tag_57:\n      mload(0x40)\n      dup1\n      swap2\n      sub\n      swap1\n      return\n        /* \"UZHPancakeLottery.sol\":3369:3602  function getWinningNumber() public view onlyOwner returns (uint[] memory) {\r... */\n    tag_11:\n      callvalue\n      dup1\n      iszero\n      tag_58\n      jumpi\n      0x00\n      dup1\n      revert\n    tag_58:\n      pop\n      tag_59\n      tag_60\n      jump\t// in\n    tag_59:\n      mload(0x40)\n      tag_61\n      swap2\n      swap1\n      tag_62\n      jump\t// in\n    tag_61:\n      mload(0x40)\n      dup1\n      swap2\n      sub\n      swap1\n      return\n        /* \"UZHPancakeLottery.sol\":335:355  address public owner */\n    tag_12:\n      callvalue\n      dup1\n      iszero\n      tag_63\n      jumpi\n      0x00\n      dup1\n      revert\n    tag_63:\n      pop\n      tag_64\n      tag_65\n      jump\t// in\n    tag_64:\n      mload(0x40)\n      tag_66\n      swap2\n      swap1\n      tag_35\n      jump\t// in\n    tag_66:\n      mload(0x40)\n      dup1\n      swap2\n      sub\n      swap1\n      return\n        /* \"UZHPancakeLottery.sol\":4975:5093  function getMyTicketNumbers() public view returns (uint[] memory) {\r... */\n    tag_13:\n      callvalue\n      dup1\n      iszero\n      tag_67\n      jumpi\n      0x00\n      dup1\n      revert\n    tag_67:\n      pop\n      tag_68\n      tag_69\n      jump\t// in\n    tag_68:\n      mload(0x40)\n      tag_70\n      swap2\n      swap1\n      tag_62\n      jump\t// in\n    tag_70:\n      mload(0x40)\n      dup1\n      swap2\n      sub\n      swap1\n      return\n        /* \"UZHPancakeLottery.sol\":5142:7980  function EndLottery() public onlyOwner{\r... */\n    tag_14:\n      callvalue\n      dup1\n      iszero\n      tag_71\n      jumpi\n      0x00\n      dup1\n      revert\n    tag_71:\n      pop\n      tag_72\n      tag_73\n      jump\t// in\n    tag_72:\n      stop\n        /* \"UZHPancakeLottery.sol\":754:785  uint public NrticketsBought = 0 */\n    tag_15:\n      callvalue\n      dup1\n      iszero\n      tag_74\n      jumpi\n      0x00\n      dup1\n      revert\n    tag_74:\n      pop\n      tag_75\n      tag_76\n      jump\t// in\n    tag_75:\n      mload(0x40)\n      tag_77\n      swap2\n      swap1\n      tag_53\n      jump\t// in\n    tag_77:\n      mload(0x40)\n      dup1\n      swap2\n      sub\n      swap1\n      return\n        /* \"UZHPancakeLottery.sol\":8055:8652  function Pull() public onlyOwner {\r... */\n    tag_21:\n        /* \"UZHPancakeLottery.sol\":1252:1257  owner */\n      0x00\n      dup1\n      sload\n      swap1\n      0x0100\n      exp\n      swap1\n      div\n      0xffffffffffffffffffffffffffffffffffffffff\n      and\n        /* \"UZHPancakeLottery.sol\":1238:1257  msg.sender == owner */\n      0xffffffffffffffffffffffffffffffffffffffff\n      and\n        /* \"UZHPancakeLottery.sol\":1238:1248  msg.sender */\n      caller\n        /* \"UZHPancakeLottery.sol\":1238:1257  msg.sender == owner */\n      0xffffffffffffffffffffffffffffffffffffffff\n      and\n      eq\n        /* \"UZHPancakeLottery.sol\":1230:1300  require(msg.sender == owner, \"Only the owner can perform this action\") */\n      tag_79\n      jumpi\n      mload(0x40)\n      0x08c379a000000000000000000000000000000000000000000000000000000000\n      dup2\n      mstore\n      0x04\n      add\n      tag_80\n      swap1\n      tag_81\n      jump\t// in\n    tag_80:\n      mload(0x40)\n      dup1\n      swap2\n      sub\n      swap1\n      revert\n    tag_79:\n        /* \"UZHPancakeLottery.sol\":8182:8187  false */\n      0x00\n        /* \"UZHPancakeLottery.sol\":8164:8187  lotteryStarted == false */\n      iszero\n      iszero\n        /* \"UZHPancakeLottery.sol\":8164:8178  lotteryStarted */\n      0x07\n      0x00\n      swap1\n      sload\n      swap1\n      0x0100\n      exp\n      swap1\n      div\n      0xff\n      and\n        /* \"UZHPancakeLottery.sol\":8164:8187  lotteryStarted == false */\n      iszero\n      iszero\n      eq\n        /* \"UZHPancakeLottery.sol\":8156:8212  require(lotteryStarted == false, \"A lottery is running\") */\n      tag_83\n      jumpi\n      mload(0x40)\n      0x08c379a000000000000000000000000000000000000000000000000000000000\n      dup2\n      mstore\n      0x04\n      add\n      tag_84\n      swap1\n      tag_85\n      jump\t// in\n    tag_84:\n      mload(0x40)\n      dup1\n      swap2\n      sub\n      swap1\n      revert\n    tag_83:\n        /* \"UZHPancakeLottery.sol\":8285:8313  address payable ownerpayable */\n      0x00\n        /* \"UZHPancakeLottery.sol\":8324:8329  owner */\n      dup1\n      0x00\n      swap1\n      sload\n      swap1\n      0x0100\n      exp\n      swap1\n      div\n      0xffffffffffffffffffffffffffffffffffffffff\n      and\n        /* \"UZHPancakeLottery.sol\":8285:8330  address payable ownerpayable = payable(owner) */\n      swap1\n      pop\n        /* \"UZHPancakeLottery.sol\":8434:8435  0 */\n      0x00\n        /* \"UZHPancakeLottery.sol\":8416:8431  TotalLotteryPot */\n      sload(0x04)\n        /* \"UZHPancakeLottery.sol\":8416:8435  TotalLotteryPot > 0 */\n      gt\n        /* \"UZHPancakeLottery.sol\":8408:8460  require(TotalLotteryPot > 0, \"No Ether to pull out\") */\n      tag_86\n      jumpi\n      mload(0x40)\n      0x08c379a000000000000000000000000000000000000000000000000000000000\n      dup2\n      mstore\n      0x04\n      add\n      tag_87\n      swap1\n      tag_88\n      jump\t// in\n    tag_87:\n      mload(0x40)\n      dup1\n      swap2\n      sub\n      swap1\n      revert\n    tag_86:\n        /* \"UZHPancakeLottery.sol\":8529:8541  ownerpayable */\n      dup1\n        /* \"UZHPancakeLottery.sol\":8529:8550  ownerpayable.transfer */\n      0xffffffffffffffffffffffffffffffffffffffff\n      and\n        /* \"UZHPancakeLottery.sol\":8529:8567  ownerpayable.transfer(TotalLotteryPot) */\n      0x08fc\n        /* \"UZHPancakeLottery.sol\":8551:8566  TotalLotteryPot */\n      sload(0x04)\n        /* \"UZHPancakeLottery.sol\":8529:8567  ownerpayable.transfer(TotalLotteryPot) */\n      swap1\n      dup2\n      iszero\n      mul\n      swap1\n      mload(0x40)\n      0x00\n      mload(0x40)\n      dup1\n      dup4\n      sub\n      dup2\n      dup6\n      dup9\n      dup9\n      call\n      swap4\n      pop\n      pop\n      pop\n      pop\n      iszero\n      dup1\n      iszero\n      tag_90\n      jumpi\n      returndatasize\n      0x00\n      dup1\n      returndatacopy\n      revert(0x00, returndatasize)\n    tag_90:\n      pop\n        /* \"UZHPancakeLottery.sol\":8643:8644  0 */\n      0x00\n        /* \"UZHPancakeLottery.sol\":8625:8640  TotalLotteryPot */\n      0x04\n        /* \"UZHPancakeLottery.sol\":8625:8644  TotalLotteryPot = 0 */\n      dup2\n      swap1\n      sstore\n      pop\n        /* \"UZHPancakeLottery.sol\":8088:8652  {\r... */\n      pop\n        /* \"UZHPancakeLottery.sol\":8055:8652  function Pull() public onlyOwner {\r... */\n      jump\t// out\n        /* \"UZHPancakeLottery.sol\":2260:2911  function BeginLottery() public onlyOwner {\r... */\n    tag_24:\n        /* \"UZHPancakeLottery.sol\":1252:1257  owner */\n      0x00\n      dup1\n      sload\n      swap1\n      0x0100\n      exp\n      swap1\n      div\n      0xffffffffffffffffffffffffffffffffffffffff\n      and\n        /* \"UZHPancakeLottery.sol\":1238:1257  msg.sender == owner */\n      0xffffffffffffffffffffffffffffffffffffffff\n      and\n        /* \"UZHPancakeLottery.sol\":1238:1248  msg.sender */\n      caller\n        /* \"UZHPancakeLottery.sol\":1238:1257  msg.sender == owner */\n      0xffffffffffffffffffffffffffffffffffffffff\n      and\n      eq\n        /* \"UZHPancakeLottery.sol\":1230:1300  require(msg.sender == owner, \"Only the owner can perform this action\") */\n      tag_92\n      jumpi\n      mload(0x40)\n      0x08c379a000000000000000000000000000000000000000000000000000000000\n      dup2\n      mstore\n      0x04\n      add\n      tag_93\n      swap1\n      tag_81\n      jump\t// in\n    tag_93:\n      mload(0x40)\n      dup1\n      swap2\n      sub\n      swap1\n      revert\n    tag_92:\n        /* \"UZHPancakeLottery.sol\":2395:2400  false */\n      0x00\n        /* \"UZHPancakeLottery.sol\":2377:2400  lotteryStarted == false */\n      iszero\n      iszero\n        /* \"UZHPancakeLottery.sol\":2377:2391  lotteryStarted */\n      0x07\n      0x00\n      swap1\n      sload\n      swap1\n      0x0100\n      exp\n      swap1\n      div\n      0xff\n      and\n        /* \"UZHPancakeLottery.sol\":2377:2400  lotteryStarted == false */\n      iszero\n      iszero\n      eq\n        /* \"UZHPancakeLottery.sol\":2369:2425  require(lotteryStarted == false, \"A lottery is running\") */\n      tag_95\n      jumpi\n      mload(0x40)\n      0x08c379a000000000000000000000000000000000000000000000000000000000\n      dup2\n      mstore\n      0x04\n      add\n      tag_96\n      swap1\n      tag_85\n      jump\t// in\n    tag_96:\n      mload(0x40)\n      dup1\n      swap2\n      sub\n      swap1\n      revert\n    tag_95:\n        /* \"UZHPancakeLottery.sol\":2453:2457  true */\n      0x01\n        /* \"UZHPancakeLottery.sol\":2436:2450  lotteryStarted */\n      0x07\n      0x00\n        /* \"UZHPancakeLottery.sol\":2436:2457  lotteryStarted = true */\n      0x0100\n      exp\n      dup2\n      sload\n      dup2\n      0xff\n      mul\n      not\n      and\n      swap1\n      dup4\n      iszero\n      iszero\n      mul\n      or\n      swap1\n      sstore\n      pop\n        /* \"UZHPancakeLottery.sol\":2495:2496  6 */\n      0x06\n        /* \"UZHPancakeLottery.sol\":2484:2497  new uint[](6) */\n      0xffffffffffffffff\n      dup2\n      gt\n      iszero\n      tag_97\n      jumpi\n      tag_98\n      tag_99\n      jump\t// in\n    tag_98:\n    tag_97:\n      mload(0x40)\n      swap1\n      dup1\n      dup3\n      mstore\n      dup1\n      0x20\n      mul\n      0x20\n      add\n      dup3\n      add\n      0x40\n      mstore\n      dup1\n      iszero\n      tag_100\n      jumpi\n      dup2\n      0x20\n      add\n      0x20\n      dup3\n      mul\n      dup1\n      calldatasize\n      dup4\n      calldatacopy\n      dup1\n      dup3\n      add\n      swap2\n      pop\n      pop\n      swap1\n      pop\n    tag_100:\n      pop\n        /* \"UZHPancakeLottery.sol\":2468:2481  winningNumber */\n      0x01\n        /* \"UZHPancakeLottery.sol\":2468:2497  winningNumber = new uint[](6) */\n      swap1\n      dup1\n      mload\n      swap1\n      0x20\n      add\n      swap1\n      tag_101\n      swap3\n      swap2\n      swap1\n      tag_102\n      jump\t// in\n    tag_101:\n      pop\n        /* \"UZHPancakeLottery.sol\":2508:2520  uint counter */\n      0x00\n        /* \"UZHPancakeLottery.sol\":2613:2619  uint i */\n      dup1\n        /* \"UZHPancakeLottery.sol\":2608:2904  for (uint i = 0; i < 6; i++) {\r... */\n    tag_103:\n        /* \"UZHPancakeLottery.sol\":2629:2630  6 */\n      0x06\n        /* \"UZHPancakeLottery.sol\":2625:2626  i */\n      dup2\n        /* \"UZHPancakeLottery.sol\":2625:2630  i < 6 */\n      lt\n        /* \"UZHPancakeLottery.sol\":2608:2904  for (uint i = 0; i < 6; i++) {\r... */\n      iszero\n      tag_104\n      jumpi\n        /* \"UZHPancakeLottery.sol\":2652:2672  uint256 randomNumber */\n      0x00\n        /* \"UZHPancakeLottery.sol\":2752:2754  10 */\n      0x0a\n        /* \"UZHPancakeLottery.sol\":2710:2726  block.difficulty */\n      difficulty\n        /* \"UZHPancakeLottery.sol\":2728:2743  block.timestamp */\n      timestamp\n        /* \"UZHPancakeLottery.sol\":2745:2746  i */\n      dup5\n        /* \"UZHPancakeLottery.sol\":2693:2747  abi.encodePacked(block.difficulty, block.timestamp, i) */\n      add(0x20, mload(0x40))\n      tag_106\n      swap4\n      swap3\n      swap2\n      swap1\n      tag_107\n      jump\t// in\n    tag_106:\n      mload(0x40)\n      0x20\n      dup2\n      dup4\n      sub\n      sub\n      dup2\n      mstore\n      swap1\n      0x40\n      mstore\n        /* \"UZHPancakeLottery.sol\":2683:2748  keccak256(abi.encodePacked(block.difficulty, block.timestamp, i)) */\n      dup1\n      mload\n      swap1\n      0x20\n      add\n      keccak256\n        /* \"UZHPancakeLottery.sol\":2675:2749  uint256(keccak256(abi.encodePacked(block.difficulty, block.timestamp, i))) */\n      0x00\n      shr\n        /* \"UZHPancakeLottery.sol\":2675:2754  uint256(keccak256(abi.encodePacked(block.difficulty, block.timestamp, i))) % 10 */\n      tag_108\n      swap2\n      swap1\n      tag_109\n      jump\t// in\n    tag_108:\n        /* \"UZHPancakeLottery.sol\":2652:2754  uint256 randomNumber = uint256(keccak256(abi.encodePacked(block.difficulty, block.timestamp, i))) % 10 */\n      swap1\n      pop\n        /* \"UZHPancakeLottery.sol\":2789:2790  0 */\n      0x00\n        /* \"UZHPancakeLottery.sol\":2773:2785  randomNumber */\n      dup2\n        /* \"UZHPancakeLottery.sol\":2773:2790  randomNumber != 0 */\n      eq\n        /* \"UZHPancakeLottery.sol\":2769:2893  if (randomNumber != 0) {\r... */\n      tag_110\n      jumpi\n        /* \"UZHPancakeLottery.sol\":2836:2848  randomNumber */\n      dup1\n        /* \"UZHPancakeLottery.sol\":2811:2824  winningNumber */\n      0x01\n        /* \"UZHPancakeLottery.sol\":2825:2832  counter */\n      dup5\n        /* \"UZHPancakeLottery.sol\":2811:2833  winningNumber[counter] */\n      dup2\n      sload\n      dup2\n      lt\n      tag_111\n      jumpi\n      tag_112\n      tag_113\n      jump\t// in\n    tag_112:\n    tag_111:\n      swap1\n      0x00\n      mstore\n      keccak256(0x00, 0x20)\n      add\n        /* \"UZHPancakeLottery.sol\":2811:2848  winningNumber[counter] = randomNumber */\n      dup2\n      swap1\n      sstore\n      pop\n        /* \"UZHPancakeLottery.sol\":2868:2877  counter++ */\n      dup3\n      dup1\n      tag_115\n      swap1\n      tag_116\n      jump\t// in\n    tag_115:\n      swap4\n      pop\n      pop\n        /* \"UZHPancakeLottery.sol\":2769:2893  if (randomNumber != 0) {\r... */\n    tag_110:\n        /* \"UZHPancakeLottery.sol\":2637:2904  {\r... */\n      pop\n        /* \"UZHPancakeLottery.sol\":2632:2635  i++ */\n      dup1\n      dup1\n      tag_117\n      swap1\n      tag_116\n      jump\t// in\n    tag_117:\n      swap2\n      pop\n      pop\n        /* \"UZHPancakeLottery.sol\":2608:2904  for (uint i = 0; i < 6; i++) {\r... */\n      jump(tag_103)\n    tag_104:\n      pop\n        /* \"UZHPancakeLottery.sol\":2301:2911  {\r... */\n      pop\n        /* \"UZHPancakeLottery.sol\":2260:2911  function BeginLottery() public onlyOwner {\r... */\n      jump\t// out\n        /* \"UZHPancakeLottery.sol\":1380:1610  function changeTicketPrice(uint _price) public onlyOwner {\r... */\n    tag_29:\n        /* \"UZHPancakeLottery.sol\":1252:1257  owner */\n      0x00\n      dup1\n      sload\n      swap1\n      0x0100\n      exp\n      swap1\n      div\n      0xffffffffffffffffffffffffffffffffffffffff\n      and\n        /* \"UZHPancakeLottery.sol\":1238:1257  msg.sender == owner */\n      0xffffffffffffffffffffffffffffffffffffffff\n      and\n        /* \"UZHPancakeLottery.sol\":1238:1248  msg.sender */\n      caller\n        /* \"UZHPancakeLottery.sol\":1238:1257  msg.sender == owner */\n      0xffffffffffffffffffffffffffffffffffffffff\n      and\n      eq\n        /* \"UZHPancakeLottery.sol\":1230:1300  require(msg.sender == owner, \"Only the owner can perform this action\") */\n      tag_119\n      jumpi\n      mload(0x40)\n      0x08c379a000000000000000000000000000000000000000000000000000000000\n      dup2\n      mstore\n      0x04\n      add\n      tag_120\n      swap1\n      tag_81\n      jump\t// in\n    tag_120:\n      mload(0x40)\n      dup1\n      swap2\n      sub\n      swap1\n      revert\n    tag_119:\n        /* \"UZHPancakeLottery.sol\":1531:1536  false */\n      0x00\n        /* \"UZHPancakeLottery.sol\":1513:1536  lotteryStarted == false */\n      iszero\n      iszero\n        /* \"UZHPancakeLottery.sol\":1513:1527  lotteryStarted */\n      0x07\n      0x00\n      swap1\n      sload\n      swap1\n      0x0100\n      exp\n      swap1\n      div\n      0xff\n      and\n        /* \"UZHPancakeLottery.sol\":1513:1536  lotteryStarted == false */\n      iszero\n      iszero\n      eq\n        /* \"UZHPancakeLottery.sol\":1505:1561  require(lotteryStarted == false, \"A lottery is running\") */\n      tag_122\n      jumpi\n      mload(0x40)\n      0x08c379a000000000000000000000000000000000000000000000000000000000\n      dup2\n      mstore\n      0x04\n      add\n      tag_123\n      swap1\n      tag_85\n      jump\t// in\n    tag_123:\n      mload(0x40)\n      dup1\n      swap2\n      sub\n      swap1\n      revert\n    tag_122:\n        /* \"UZHPancakeLottery.sol\":1595:1602  1 ether */\n      0x0de0b6b3a7640000\n        /* \"UZHPancakeLottery.sol\":1586:1592  _price */\n      dup2\n        /* \"UZHPancakeLottery.sol\":1586:1602  _price * 1 ether */\n      tag_124\n      swap2\n      swap1\n      tag_125\n      jump\t// in\n    tag_124:\n        /* \"UZHPancakeLottery.sol\":1572:1583  ticketprice */\n      0x03\n        /* \"UZHPancakeLottery.sol\":1572:1602  ticketprice = _price * 1 ether */\n      dup2\n      swap1\n      sstore\n      pop\n        /* \"UZHPancakeLottery.sol\":1380:1610  function changeTicketPrice(uint _price) public onlyOwner {\r... */\n      pop\n      jump\t// out\n        /* \"UZHPancakeLottery.sol\":847:881  address [] public playersAddresses */\n    tag_33:\n      0x06\n      dup2\n      dup2\n      sload\n      dup2\n      lt\n      tag_126\n      jumpi\n      0x00\n      dup1\n      revert\n    tag_126:\n      swap1\n      0x00\n      mstore\n      keccak256(0x00, 0x20)\n      add\n      0x00\n      swap2\n      pop\n      sload\n      swap1\n      0x0100\n      exp\n      swap1\n      div\n      0xffffffffffffffffffffffffffffffffffffffff\n      and\n      dup2\n      jump\t// out\n        /* \"UZHPancakeLottery.sol\":2986:3270  function setWinningNumber(uint[] memory _winningNumber) public onlyOwner {\r... */\n    tag_40:\n        /* \"UZHPancakeLottery.sol\":1252:1257  owner */\n      0x00\n      dup1\n      sload\n      swap1\n      0x0100\n      exp\n      swap1\n      div\n      0xffffffffffffffffffffffffffffffffffffffff\n      and\n        /* \"UZHPancakeLottery.sol\":1238:1257  msg.sender == owner */\n      0xffffffffffffffffffffffffffffffffffffffff\n      and\n        /* \"UZHPancakeLottery.sol\":1238:1248  msg.sender */\n      caller\n        /* \"UZHPancakeLottery.sol\":1238:1257  msg.sender == owner */\n      0xffffffffffffffffffffffffffffffffffffffff\n      and\n      eq\n        /* \"UZHPancakeLottery.sol\":1230:1300  require(msg.sender == owner, \"Only the owner can perform this action\") */\n      tag_129\n      jumpi\n      mload(0x40)\n      0x08c379a000000000000000000000000000000000000000000000000000000000\n      dup2\n      mstore\n      0x04\n      add\n      tag_130\n      swap1\n      tag_81\n      jump\t// in\n    tag_130:\n      mload(0x40)\n      dup1\n      swap2\n      sub\n      swap1\n      revert\n    tag_129:\n        /* \"UZHPancakeLottery.sol\":3103:3104  6 */\n      0x06\n        /* \"UZHPancakeLottery.sol\":3078:3092  _winningNumber */\n      dup2\n        /* \"UZHPancakeLottery.sol\":3078:3099  _winningNumber.length */\n      mload\n        /* \"UZHPancakeLottery.sol\":3078:3104  _winningNumber.length == 6 */\n      eq\n        /* \"UZHPancakeLottery.sol\":3070:3105  require(_winningNumber.length == 6) */\n      tag_132\n      jumpi\n      0x00\n      dup1\n      revert\n    tag_132:\n        /* \"UZHPancakeLottery.sol\":3120:3126  uint i */\n      0x00\n        /* \"UZHPancakeLottery.sol\":3116:3222  for(uint i = 0; i < _winningNumber.length; i++) {\r... */\n    tag_133:\n        /* \"UZHPancakeLottery.sol\":3136:3150  _winningNumber */\n      dup2\n        /* \"UZHPancakeLottery.sol\":3136:3157  _winningNumber.length */\n      mload\n        /* \"UZHPancakeLottery.sol\":3132:3133  i */\n      dup2\n        /* \"UZHPancakeLottery.sol\":3132:3157  i < _winningNumber.length */\n      lt\n        /* \"UZHPancakeLottery.sol\":3116:3222  for(uint i = 0; i < _winningNumber.length; i++) {\r... */\n      iszero\n      tag_134\n      jumpi\n        /* \"UZHPancakeLottery.sol\":3208:3209  9 */\n      0x09\n        /* \"UZHPancakeLottery.sol\":3187:3201  _winningNumber */\n      dup3\n        /* \"UZHPancakeLottery.sol\":3202:3203  i */\n      dup3\n        /* \"UZHPancakeLottery.sol\":3187:3204  _winningNumber[i] */\n      dup2\n      mload\n      dup2\n      lt\n      tag_136\n      jumpi\n      tag_137\n      tag_113\n      jump\t// in\n    tag_137:\n    tag_136:\n      0x20\n      mul\n      0x20\n      add\n      add\n      mload\n        /* \"UZHPancakeLottery.sol\":3187:3209  _winningNumber[i] <= 9 */\n      gt\n      iszero\n        /* \"UZHPancakeLottery.sol\":3179:3210  require(_winningNumber[i] <= 9) */\n      tag_138\n      jumpi\n      0x00\n      dup1\n      revert\n    tag_138:\n        /* \"UZHPancakeLottery.sol\":3159:3162  i++ */\n      dup1\n      dup1\n      tag_139\n      swap1\n      tag_116\n      jump\t// in\n    tag_139:\n      swap2\n      pop\n      pop\n        /* \"UZHPancakeLottery.sol\":3116:3222  for(uint i = 0; i < _winningNumber.length; i++) {\r... */\n      jump(tag_133)\n    tag_134:\n      pop\n        /* \"UZHPancakeLottery.sol\":3248:3262  _winningNumber */\n      dup1\n        /* \"UZHPancakeLottery.sol\":3232:3245  winningNumber */\n      0x01\n        /* \"UZHPancakeLottery.sol\":3232:3262  winningNumber = _winningNumber */\n      swap1\n      dup1\n      mload\n      swap1\n      0x20\n      add\n      swap1\n      tag_140\n      swap3\n      swap2\n      swap1\n      tag_102\n      jump\t// in\n    tag_140:\n      pop\n        /* \"UZHPancakeLottery.sol\":2986:3270  function setWinningNumber(uint[] memory _winningNumber) public onlyOwner {\r... */\n      pop\n      jump\t// out\n        /* \"UZHPancakeLottery.sol\":944:978  bool public lotteryStarted = false */\n    tag_43:\n      0x07\n      0x00\n      swap1\n      sload\n      swap1\n      0x0100\n      exp\n      swap1\n      div\n      0xff\n      and\n      dup2\n      jump\t// out\n        /* \"UZHPancakeLottery.sol\":3643:4907  function buyTicket(uint[] memory ticketNumbers) public payable {\r... */\n    tag_48:\n        /* \"UZHPancakeLottery.sol\":3796:3800  true */\n      0x01\n        /* \"UZHPancakeLottery.sol\":3778:3800  lotteryStarted == true */\n      iszero\n      iszero\n        /* \"UZHPancakeLottery.sol\":3778:3792  lotteryStarted */\n      0x07\n      0x00\n      swap1\n      sload\n      swap1\n      0x0100\n      exp\n      swap1\n      div\n      0xff\n      and\n        /* \"UZHPancakeLottery.sol\":3778:3800  lotteryStarted == true */\n      iszero\n      iszero\n      eq\n        /* \"UZHPancakeLottery.sol\":3770:3826  require(lotteryStarted == true, \"No lottery is running\") */\n      tag_142\n      jumpi\n      mload(0x40)\n      0x08c379a000000000000000000000000000000000000000000000000000000000\n      dup2\n      mstore\n      0x04\n      add\n      tag_143\n      swap1\n      tag_144\n      jump\t// in\n    tag_143:\n      mload(0x40)\n      dup1\n      swap2\n      sub\n      swap1\n      revert\n    tag_142:\n        /* \"UZHPancakeLottery.sol\":3945:3956  ticketprice */\n      sload(0x03)\n        /* \"UZHPancakeLottery.sol\":3932:3941  msg.value */\n      callvalue\n        /* \"UZHPancakeLottery.sol\":3932:3956  msg.value == ticketprice */\n      eq\n        /* \"UZHPancakeLottery.sol\":3924:3973  require(msg.value == ticketprice, \"Wrong amount\") */\n      tag_145\n      jumpi\n      mload(0x40)\n      0x08c379a000000000000000000000000000000000000000000000000000000000\n      dup2\n      mstore\n      0x04\n      add\n      tag_146\n      swap1\n      tag_147\n      jump\t// in\n    tag_146:\n      mload(0x40)\n      dup1\n      swap2\n      sub\n      swap1\n      revert\n    tag_145:\n        /* \"UZHPancakeLottery.sol\":4075:4076  6 */\n      0x06\n        /* \"UZHPancakeLottery.sol\":4051:4064  ticketNumbers */\n      dup2\n        /* \"UZHPancakeLottery.sol\":4051:4071  ticketNumbers.length */\n      mload\n        /* \"UZHPancakeLottery.sol\":4051:4076  ticketNumbers.length == 6 */\n      eq\n        /* \"UZHPancakeLottery.sol\":4043:4104  require(ticketNumbers.length == 6, \"Wrong number of numbers\") */\n      tag_148\n      jumpi\n      mload(0x40)\n      0x08c379a000000000000000000000000000000000000000000000000000000000\n      dup2\n      mstore\n      0x04\n      add\n      tag_149\n      swap1\n      tag_150\n      jump\t// in\n    tag_149:\n      mload(0x40)\n      dup1\n      swap2\n      sub\n      swap1\n      revert\n    tag_148:\n        /* \"UZHPancakeLottery.sol\":4188:4194  uint i */\n      0x00\n        /* \"UZHPancakeLottery.sol\":4183:4329  for (uint i = 0; i < ticketNumbers.length; i++) {\r... */\n    tag_151:\n        /* \"UZHPancakeLottery.sol\":4204:4217  ticketNumbers */\n      dup2\n        /* \"UZHPancakeLottery.sol\":4204:4224  ticketNumbers.length */\n      mload\n        /* \"UZHPancakeLottery.sol\":4200:4201  i */\n      dup2\n        /* \"UZHPancakeLottery.sol\":4200:4224  i < ticketNumbers.length */\n      lt\n        /* \"UZHPancakeLottery.sol\":4183:4329  for (uint i = 0; i < ticketNumbers.length; i++) {\r... */\n      iszero\n      tag_152\n      jumpi\n        /* \"UZHPancakeLottery.sol\":4273:4275  10 */\n      0x0a\n        /* \"UZHPancakeLottery.sol\":4254:4267  ticketNumbers */\n      dup3\n        /* \"UZHPancakeLottery.sol\":4268:4269  i */\n      dup3\n        /* \"UZHPancakeLottery.sol\":4254:4270  ticketNumbers[i] */\n      dup2\n      mload\n      dup2\n      lt\n      tag_154\n      jumpi\n      tag_155\n      tag_113\n      jump\t// in\n    tag_155:\n    tag_154:\n      0x20\n      mul\n      0x20\n      add\n      add\n      mload\n        /* \"UZHPancakeLottery.sol\":4254:4275  ticketNumbers[i] < 10 */\n      lt\n        /* \"UZHPancakeLottery.sol\":4254:4300  ticketNumbers[i] < 10 && ticketNumbers[i] >= 0 */\n      dup1\n      iszero\n      tag_156\n      jumpi\n      pop\n        /* \"UZHPancakeLottery.sol\":4299:4300  0 */\n      0x00\n        /* \"UZHPancakeLottery.sol\":4279:4292  ticketNumbers */\n      dup3\n        /* \"UZHPancakeLottery.sol\":4293:4294  i */\n      dup3\n        /* \"UZHPancakeLottery.sol\":4279:4295  ticketNumbers[i] */\n      dup2\n      mload\n      dup2\n      lt\n      tag_157\n      jumpi\n      tag_158\n      tag_113\n      jump\t// in\n    tag_158:\n    tag_157:\n      0x20\n      mul\n      0x20\n      add\n      add\n      mload\n        /* \"UZHPancakeLottery.sol\":4279:4300  ticketNumbers[i] >= 0 */\n      lt\n      iszero\n        /* \"UZHPancakeLottery.sol\":4254:4300  ticketNumbers[i] < 10 && ticketNumbers[i] >= 0 */\n    tag_156:\n        /* \"UZHPancakeLottery.sol\":4246:4317  require(ticketNumbers[i] < 10 && ticketNumbers[i] >= 0, \"Wrong number\") */\n      tag_159\n      jumpi\n      mload(0x40)\n      0x08c379a000000000000000000000000000000000000000000000000000000000\n      dup2\n      mstore\n      0x04\n      add\n      tag_160\n      swap1\n      tag_161\n      jump\t// in\n    tag_160:\n      mload(0x40)\n      dup1\n      swap2\n      sub\n      swap1\n      revert\n    tag_159:\n        /* \"UZHPancakeLottery.sol\":4226:4229  i++ */\n      dup1\n      dup1\n      tag_162\n      swap1\n      tag_116\n      jump\t// in\n    tag_162:\n      swap2\n      pop\n      pop\n        /* \"UZHPancakeLottery.sol\":4183:4329  for (uint i = 0; i < ticketNumbers.length; i++) {\r... */\n      jump(tag_151)\n    tag_152:\n      pop\n        /* \"UZHPancakeLottery.sol\":4456:4457  0 */\n      0x00\n        /* \"UZHPancakeLottery.sol\":4419:4433  playersTickets */\n      0x02\n        /* \"UZHPancakeLottery.sol\":4419:4445  playersTickets[msg.sender] */\n      0x00\n        /* \"UZHPancakeLottery.sol\":4434:4444  msg.sender */\n      caller\n        /* \"UZHPancakeLottery.sol\":4419:4445  playersTickets[msg.sender] */\n      0xffffffffffffffffffffffffffffffffffffffff\n      and\n      0xffffffffffffffffffffffffffffffffffffffff\n      and\n      dup2\n      mstore\n      0x20\n      add\n      swap1\n      dup2\n      mstore\n      0x20\n      add\n      0x00\n      keccak256\n        /* \"UZHPancakeLottery.sol\":4419:4452  playersTickets[msg.sender].length */\n      dup1\n      sload\n      swap1\n      pop\n        /* \"UZHPancakeLottery.sol\":4419:4457  playersTickets[msg.sender].length == 0 */\n      eq\n        /* \"UZHPancakeLottery.sol\":4411:4494  require(playersTickets[msg.sender].length == 0, \"You have already bought a ticket\") */\n      tag_163\n      jumpi\n      mload(0x40)\n      0x08c379a000000000000000000000000000000000000000000000000000000000\n      dup2\n      mstore\n      0x04\n      add\n      tag_164\n      swap1\n      tag_165\n      jump\t// in\n    tag_164:\n      mload(0x40)\n      dup1\n      swap2\n      sub\n      swap1\n      revert\n    tag_163:\n        /* \"UZHPancakeLottery.sol\":4599:4612  ticketNumbers */\n      dup1\n        /* \"UZHPancakeLottery.sol\":4570:4584  playersTickets */\n      0x02\n        /* \"UZHPancakeLottery.sol\":4570:4596  playersTickets[msg.sender] */\n      0x00\n        /* \"UZHPancakeLottery.sol\":4585:4595  msg.sender */\n      caller\n        /* \"UZHPancakeLottery.sol\":4570:4596  playersTickets[msg.sender] */\n      0xffffffffffffffffffffffffffffffffffffffff\n      and\n      0xffffffffffffffffffffffffffffffffffffffff\n      and\n      dup2\n      mstore\n      0x20\n      add\n      swap1\n      dup2\n      mstore\n      0x20\n      add\n      0x00\n      keccak256\n        /* \"UZHPancakeLottery.sol\":4570:4612  playersTickets[msg.sender] = ticketNumbers */\n      swap1\n      dup1\n      mload\n      swap1\n      0x20\n      add\n      swap1\n      tag_166\n      swap3\n      swap2\n      swap1\n      tag_102\n      jump\t// in\n    tag_166:\n      pop\n        /* \"UZHPancakeLottery.sol\":4693:4709  playersAddresses */\n      0x06\n        /* \"UZHPancakeLottery.sol\":4715:4725  msg.sender */\n      caller\n        /* \"UZHPancakeLottery.sol\":4693:4726  playersAddresses.push(msg.sender) */\n      swap1\n      dup1\n      0x01\n      dup2\n      sload\n      add\n      dup1\n      dup3\n      sstore\n      dup1\n      swap2\n      pop\n      pop\n      0x01\n      swap1\n      sub\n      swap1\n      0x00\n      mstore\n      keccak256(0x00, 0x20)\n      add\n      0x00\n      swap1\n      swap2\n      swap1\n      swap2\n      swap1\n      swap2\n      0x0100\n      exp\n      dup2\n      sload\n      dup2\n      0xffffffffffffffffffffffffffffffffffffffff\n      mul\n      not\n      and\n      swap1\n      dup4\n      0xffffffffffffffffffffffffffffffffffffffff\n      and\n      mul\n      or\n      swap1\n      sstore\n      pop\n        /* \"UZHPancakeLottery.sol\":4814:4823  msg.value */\n      callvalue\n        /* \"UZHPancakeLottery.sol\":4795:4810  TotalLotteryPot */\n      0x04\n      0x00\n        /* \"UZHPancakeLottery.sol\":4795:4823  TotalLotteryPot += msg.value */\n      dup3\n      dup3\n      sload\n      tag_168\n      swap2\n      swap1\n      tag_169\n      jump\t// in\n    tag_168:\n      swap3\n      pop\n      pop\n      dup2\n      swap1\n      sstore\n      pop\n        /* \"UZHPancakeLottery.sol\":4898:4899  1 */\n      0x01\n        /* \"UZHPancakeLottery.sol\":4879:4894  NrticketsBought */\n      0x05\n      0x00\n        /* \"UZHPancakeLottery.sol\":4879:4899  NrticketsBought += 1 */\n      dup3\n      dup3\n      sload\n      tag_170\n      swap2\n      swap1\n      tag_169\n      jump\t// in\n    tag_170:\n      swap3\n      pop\n      pop\n      dup2\n      swap1\n      sstore\n      pop\n        /* \"UZHPancakeLottery.sol\":3643:4907  function buyTicket(uint[] memory ticketNumbers) public payable {\r... */\n      pop\n      jump\t// out\n        /* \"UZHPancakeLottery.sol\":1671:1891  function getTicketPrice() public view returns (uint) {\r... */\n    tag_51:\n        /* \"UZHPancakeLottery.sol\":1718:1722  uint */\n      0x00\n        /* \"UZHPancakeLottery.sol\":1814:1818  true */\n      0x01\n        /* \"UZHPancakeLottery.sol\":1796:1818  lotteryStarted == true */\n      iszero\n      iszero\n        /* \"UZHPancakeLottery.sol\":1796:1810  lotteryStarted */\n      0x07\n      0x00\n      swap1\n      sload\n      swap1\n      0x0100\n      exp\n      swap1\n      div\n      0xff\n      and\n        /* \"UZHPancakeLottery.sol\":1796:1818  lotteryStarted == true */\n      iszero\n      iszero\n      eq\n        /* \"UZHPancakeLottery.sol\":1788:1844  require(lotteryStarted == true, \"No lottery is running\") */\n      tag_172\n      jumpi\n      mload(0x40)\n      0x08c379a000000000000000000000000000000000000000000000000000000000\n      dup2\n      mstore\n      0x04\n      add\n      tag_173\n      swap1\n      tag_144\n      jump\t// in\n    tag_173:\n      mload(0x40)\n      dup1\n      swap2\n      sub\n      swap1\n      revert\n    tag_172:\n        /* \"UZHPancakeLottery.sol\":1876:1883  1 ether */\n      0x0de0b6b3a7640000\n        /* \"UZHPancakeLottery.sol\":1862:1873  ticketprice */\n      sload(0x03)\n        /* \"UZHPancakeLottery.sol\":1862:1883  ticketprice / 1 ether */\n      tag_174\n      swap2\n      swap1\n      tag_175\n      jump\t// in\n    tag_174:\n        /* \"UZHPancakeLottery.sol\":1855:1883  return ticketprice / 1 ether */\n      swap1\n      pop\n        /* \"UZHPancakeLottery.sol\":1671:1891  function getTicketPrice() public view returns (uint) {\r... */\n      swap1\n      jump\t// out\n        /* \"UZHPancakeLottery.sol\":1971:2199  function getTotalLotteryPot() public view returns (uint) {\r... */\n    tag_56:\n        /* \"UZHPancakeLottery.sol\":2022:2026  uint */\n      0x00\n        /* \"UZHPancakeLottery.sol\":2118:2122  true */\n      0x01\n        /* \"UZHPancakeLottery.sol\":2100:2122  lotteryStarted == true */\n      iszero\n      iszero\n        /* \"UZHPancakeLottery.sol\":2100:2114  lotteryStarted */\n      0x07\n      0x00\n      swap1\n      sload\n      swap1\n      0x0100\n      exp\n      swap1\n      div\n      0xff\n      and\n        /* \"UZHPancakeLottery.sol\":2100:2122  lotteryStarted == true */\n      iszero\n      iszero\n      eq\n        /* \"UZHPancakeLottery.sol\":2092:2148  require(lotteryStarted == true, \"No lottery is running\") */\n      tag_177\n      jumpi\n      mload(0x40)\n      0x08c379a000000000000000000000000000000000000000000000000000000000\n      dup2\n      mstore\n      0x04\n      add\n      tag_178\n      swap1\n      tag_144\n      jump\t// in\n    tag_178:\n      mload(0x40)\n      dup1\n      swap2\n      sub\n      swap1\n      revert\n    tag_177:\n        /* \"UZHPancakeLottery.sol\":2184:2191  1 ether */\n      0x0de0b6b3a7640000\n        /* \"UZHPancakeLottery.sol\":2166:2181  TotalLotteryPot */\n      sload(0x04)\n        /* \"UZHPancakeLottery.sol\":2166:2191  TotalLotteryPot / 1 ether */\n      tag_179\n      swap2\n      swap1\n      tag_175\n      jump\t// in\n    tag_179:\n        /* \"UZHPancakeLottery.sol\":2159:2191  return TotalLotteryPot / 1 ether */\n      swap1\n      pop\n        /* \"UZHPancakeLottery.sol\":1971:2199  function getTotalLotteryPot() public view returns (uint) {\r... */\n      swap1\n      jump\t// out\n        /* \"UZHPancakeLottery.sol\":3369:3602  function getWinningNumber() public view onlyOwner returns (uint[] memory) {\r... */\n    tag_60:\n        /* \"UZHPancakeLottery.sol\":3428:3441  uint[] memory */\n      0x60\n        /* \"UZHPancakeLottery.sol\":1252:1257  owner */\n      0x00\n      dup1\n      sload\n      swap1\n      0x0100\n      exp\n      swap1\n      div\n      0xffffffffffffffffffffffffffffffffffffffff\n      and\n        /* \"UZHPancakeLottery.sol\":1238:1257  msg.sender == owner */\n      0xffffffffffffffffffffffffffffffffffffffff\n      and\n        /* \"UZHPancakeLottery.sol\":1238:1248  msg.sender */\n      caller\n        /* \"UZHPancakeLottery.sol\":1238:1257  msg.sender == owner */\n      0xffffffffffffffffffffffffffffffffffffffff\n      and\n      eq\n        /* \"UZHPancakeLottery.sol\":1230:1300  require(msg.sender == owner, \"Only the owner can perform this action\") */\n      tag_181\n      jumpi\n      mload(0x40)\n      0x08c379a000000000000000000000000000000000000000000000000000000000\n      dup2\n      mstore\n      0x04\n      add\n      tag_182\n      swap1\n      tag_81\n      jump\t// in\n    tag_182:\n      mload(0x40)\n      dup1\n      swap2\n      sub\n      swap1\n      revert\n    tag_181:\n        /* \"UZHPancakeLottery.sol\":3533:3537  true */\n      0x01\n        /* \"UZHPancakeLottery.sol\":3515:3537  lotteryStarted == true */\n      iszero\n      iszero\n        /* \"UZHPancakeLottery.sol\":3515:3529  lotteryStarted */\n      0x07\n      0x00\n      swap1\n      sload\n      swap1\n      0x0100\n      exp\n      swap1\n      div\n      0xff\n      and\n        /* \"UZHPancakeLottery.sol\":3515:3537  lotteryStarted == true */\n      iszero\n      iszero\n      eq\n        /* \"UZHPancakeLottery.sol\":3507:3563  require(lotteryStarted == true, \"No lottery is running\") */\n      tag_184\n      jumpi\n      mload(0x40)\n      0x08c379a000000000000000000000000000000000000000000000000000000000\n      dup2\n      mstore\n      0x04\n      add\n      tag_185\n      swap1\n      tag_144\n      jump\t// in\n    tag_185:\n      mload(0x40)\n      dup1\n      swap2\n      sub\n      swap1\n      revert\n    tag_184:\n        /* \"UZHPancakeLottery.sol\":3581:3594  winningNumber */\n      0x01\n        /* \"UZHPancakeLottery.sol\":3574:3594  return winningNumber */\n      dup1\n      sload\n      dup1\n      0x20\n      mul\n      0x20\n      add\n      mload(0x40)\n      swap1\n      dup2\n      add\n      0x40\n      mstore\n      dup1\n      swap3\n      swap2\n      swap1\n      dup2\n      dup2\n      mstore\n      0x20\n      add\n      dup3\n      dup1\n      sload\n      dup1\n      iszero\n      tag_186\n      jumpi\n      0x20\n      mul\n      dup3\n      add\n      swap2\n      swap1\n      0x00\n      mstore\n      keccak256(0x00, 0x20)\n      swap1\n    tag_187:\n      dup2\n      sload\n      dup2\n      mstore\n      0x20\n      add\n      swap1\n      0x01\n      add\n      swap1\n      dup1\n      dup4\n      gt\n      tag_187\n      jumpi\n    tag_186:\n      pop\n      pop\n      pop\n      pop\n      pop\n      swap1\n      pop\n        /* \"UZHPancakeLottery.sol\":3369:3602  function getWinningNumber() public view onlyOwner returns (uint[] memory) {\r... */\n      swap1\n      jump\t// out\n        /* \"UZHPancakeLottery.sol\":335:355  address public owner */\n    tag_65:\n      0x00\n      dup1\n      sload\n      swap1\n      0x0100\n      exp\n      swap1\n      div\n      0xffffffffffffffffffffffffffffffffffffffff\n      and\n      dup2\n      jump\t// out\n        /* \"UZHPancakeLottery.sol\":4975:5093  function getMyTicketNumbers() public view returns (uint[] memory) {\r... */\n    tag_69:\n        /* \"UZHPancakeLottery.sol\":5026:5039  uint[] memory */\n      0x60\n        /* \"UZHPancakeLottery.sol\":5059:5073  playersTickets */\n      0x02\n        /* \"UZHPancakeLottery.sol\":5059:5085  playersTickets[msg.sender] */\n      0x00\n        /* \"UZHPancakeLottery.sol\":5074:5084  msg.sender */\n      caller\n        /* \"UZHPancakeLottery.sol\":5059:5085  playersTickets[msg.sender] */\n      0xffffffffffffffffffffffffffffffffffffffff\n      and\n      0xffffffffffffffffffffffffffffffffffffffff\n      and\n      dup2\n      mstore\n      0x20\n      add\n      swap1\n      dup2\n      mstore\n      0x20\n      add\n      0x00\n      keccak256\n        /* \"UZHPancakeLottery.sol\":5052:5085  return playersTickets[msg.sender] */\n      dup1\n      sload\n      dup1\n      0x20\n      mul\n      0x20\n      add\n      mload(0x40)\n      swap1\n      dup2\n      add\n      0x40\n      mstore\n      dup1\n      swap3\n      swap2\n      swap1\n      dup2\n      dup2\n      mstore\n      0x20\n      add\n      dup3\n      dup1\n      sload\n      dup1\n      iszero\n      tag_189\n      jumpi\n      0x20\n      mul\n      dup3\n      add\n      swap2\n      swap1\n      0x00\n      mstore\n      keccak256(0x00, 0x20)\n      swap1\n    tag_190:\n      dup2\n      sload\n      dup2\n      mstore\n      0x20\n      add\n      swap1\n      0x01\n      add\n      swap1\n      dup1\n      dup4\n      gt\n      tag_190\n      jumpi\n    tag_189:\n      pop\n      pop\n      pop\n      pop\n      pop\n      swap1\n      pop\n        /* \"UZHPancakeLottery.sol\":4975:5093  function getMyTicketNumbers() public view returns (uint[] memory) {\r... */\n      swap1\n      jump\t// out\n        /* \"UZHPancakeLottery.sol\":5142:7980  function EndLottery() public onlyOwner{\r... */\n    tag_73:\n        /* \"UZHPancakeLottery.sol\":1252:1257  owner */\n      0x00\n      dup1\n      sload\n      swap1\n      0x0100\n      exp\n      swap1\n      div\n      0xffffffffffffffffffffffffffffffffffffffff\n      and\n        /* \"UZHPancakeLottery.sol\":1238:1257  msg.sender == owner */\n      0xffffffffffffffffffffffffffffffffffffffff\n      and\n        /* \"UZHPancakeLottery.sol\":1238:1248  msg.sender */\n      caller\n        /* \"UZHPancakeLottery.sol\":1238:1257  msg.sender == owner */\n      0xffffffffffffffffffffffffffffffffffffffff\n      and\n      eq\n        /* \"UZHPancakeLottery.sol\":1230:1300  require(msg.sender == owner, \"Only the owner can perform this action\") */\n      tag_192\n      jumpi\n      mload(0x40)\n      0x08c379a000000000000000000000000000000000000000000000000000000000\n      dup2\n      mstore\n      0x04\n      add\n      tag_193\n      swap1\n      tag_81\n      jump\t// in\n    tag_193:\n      mload(0x40)\n      dup1\n      swap2\n      sub\n      swap1\n      revert\n    tag_192:\n        /* \"UZHPancakeLottery.sol\":5270:5274  true */\n      0x01\n        /* \"UZHPancakeLottery.sol\":5252:5274  lotteryStarted == true */\n      iszero\n      iszero\n        /* \"UZHPancakeLottery.sol\":5252:5266  lotteryStarted */\n      0x07\n      0x00\n      swap1\n      sload\n      swap1\n      0x0100\n      exp\n      swap1\n      div\n      0xff\n      and\n        /* \"UZHPancakeLottery.sol\":5252:5274  lotteryStarted == true */\n      iszero\n      iszero\n      eq\n        /* \"UZHPancakeLottery.sol\":5244:5300  require(lotteryStarted == true, \"No lottery is running\") */\n      tag_195\n      jumpi\n      mload(0x40)\n      0x08c379a000000000000000000000000000000000000000000000000000000000\n      dup2\n      mstore\n      0x04\n      add\n      tag_196\n      swap1\n      tag_144\n      jump\t// in\n    tag_196:\n      mload(0x40)\n      dup1\n      swap2\n      sub\n      swap1\n      revert\n    tag_195:\n        /* \"UZHPancakeLottery.sol\":5402:5403  0 */\n      0x00\n        /* \"UZHPancakeLottery.sol\":5384:5399  NrticketsBought */\n      sload(0x05)\n        /* \"UZHPancakeLottery.sol\":5384:5403  NrticketsBought > 0 */\n      gt\n        /* \"UZHPancakeLottery.sol\":5376:5425  require(NrticketsBought > 0, \"No ticket was bou\") */\n      tag_197\n      jumpi\n      mload(0x40)\n      0x08c379a000000000000000000000000000000000000000000000000000000000\n      dup2\n      mstore\n      0x04\n      add\n      tag_198\n      swap1\n      tag_199\n      jump\t// in\n    tag_198:\n      mload(0x40)\n      dup1\n      swap2\n      sub\n      swap1\n      revert\n    tag_197:\n        /* \"UZHPancakeLottery.sol\":5499:5523  uint firstMatchedNumbers */\n      0x00\n        /* \"UZHPancakeLottery.sol\":5633:5648  uint percentage */\n      dup1\n        /* \"UZHPancakeLottery.sol\":5718:5729  uint reward */\n      0x00\n        /* \"UZHPancakeLottery.sol\":5793:5809  uint totalreward */\n      dup1\n        /* \"UZHPancakeLottery.sol\":5856:5885  address payable playeraddress */\n      0x00\n        /* \"UZHPancakeLottery.sol\":5955:5961  uint i */\n      dup1\n        /* \"UZHPancakeLottery.sol\":5964:5965  0 */\n      0x00\n        /* \"UZHPancakeLottery.sol\":5955:5965  uint i = 0 */\n      swap1\n      pop\n        /* \"UZHPancakeLottery.sol\":5950:7735  for (uint i = 0; i < playersAddresses.length; i++) {   \r... */\n    tag_200:\n        /* \"UZHPancakeLottery.sol\":5971:5987  playersAddresses */\n      0x06\n        /* \"UZHPancakeLottery.sol\":5971:5994  playersAddresses.length */\n      dup1\n      sload\n      swap1\n      pop\n        /* \"UZHPancakeLottery.sol\":5967:5968  i */\n      dup2\n        /* \"UZHPancakeLottery.sol\":5967:5994  i < playersAddresses.length */\n      lt\n        /* \"UZHPancakeLottery.sol\":5950:7735  for (uint i = 0; i < playersAddresses.length; i++) {   \r... */\n      iszero\n      tag_201\n      jumpi\n        /* \"UZHPancakeLottery.sol\":6093:6099  uint j */\n      0x00\n        /* \"UZHPancakeLottery.sol\":6088:6454  for (uint j = 0; j < winningNumber.length; j++) {\r... */\n    tag_203:\n        /* \"UZHPancakeLottery.sol\":6109:6122  winningNumber */\n      0x01\n        /* \"UZHPancakeLottery.sol\":6109:6129  winningNumber.length */\n      dup1\n      sload\n      swap1\n      pop\n        /* \"UZHPancakeLottery.sol\":6105:6106  j */\n      dup2\n        /* \"UZHPancakeLottery.sol\":6105:6129  j < winningNumber.length */\n      lt\n        /* \"UZHPancakeLottery.sol\":6088:6454  for (uint j = 0; j < winningNumber.length; j++) {\r... */\n      iszero\n      tag_204\n      jumpi\n        /* \"UZHPancakeLottery.sol\":6303:6316  winningNumber */\n      0x01\n        /* \"UZHPancakeLottery.sol\":6317:6318  j */\n      dup2\n        /* \"UZHPancakeLottery.sol\":6303:6319  winningNumber[j] */\n      dup2\n      sload\n      dup2\n      lt\n      tag_206\n      jumpi\n      tag_207\n      tag_113\n      jump\t// in\n    tag_207:\n    tag_206:\n      swap1\n      0x00\n      mstore\n      keccak256(0x00, 0x20)\n      add\n      sload\n        /* \"UZHPancakeLottery.sol\":6261:6275  playersTickets */\n      0x02\n        /* \"UZHPancakeLottery.sol\":6261:6296  playersTickets[playersAddresses[i]] */\n      0x00\n        /* \"UZHPancakeLottery.sol\":6276:6292  playersAddresses */\n      0x06\n        /* \"UZHPancakeLottery.sol\":6293:6294  i */\n      dup6\n        /* \"UZHPancakeLottery.sol\":6276:6295  playersAddresses[i] */\n      dup2\n      sload\n      dup2\n      lt\n      tag_209\n      jumpi\n      tag_210\n      tag_113\n      jump\t// in\n    tag_210:\n    tag_209:\n      swap1\n      0x00\n      mstore\n      keccak256(0x00, 0x20)\n      add\n      0x00\n      swap1\n      sload\n      swap1\n      0x0100\n      exp\n      swap1\n      div\n      0xffffffffffffffffffffffffffffffffffffffff\n      and\n        /* \"UZHPancakeLottery.sol\":6261:6296  playersTickets[playersAddresses[i]] */\n      0xffffffffffffffffffffffffffffffffffffffff\n      and\n      0xffffffffffffffffffffffffffffffffffffffff\n      and\n      dup2\n      mstore\n      0x20\n      add\n      swap1\n      dup2\n      mstore\n      0x20\n      add\n      0x00\n      keccak256\n        /* \"UZHPancakeLottery.sol\":6297:6298  j */\n      dup3\n        /* \"UZHPancakeLottery.sol\":6261:6299  playersTickets[playersAddresses[i]][j] */\n      dup2\n      sload\n      dup2\n      lt\n      tag_212\n      jumpi\n      tag_213\n      tag_113\n      jump\t// in\n    tag_213:\n    tag_212:\n      swap1\n      0x00\n      mstore\n      keccak256(0x00, 0x20)\n      add\n      sload\n        /* \"UZHPancakeLottery.sol\":6261:6319  playersTickets[playersAddresses[i]][j] == winningNumber[j] */\n      eq\n        /* \"UZHPancakeLottery.sol\":6257:6439  if (playersTickets[playersAddresses[i]][j] == winningNumber[j]) {\r... */\n      iszero\n      tag_215\n      jumpi\n        /* \"UZHPancakeLottery.sol\":6344:6365  firstMatchedNumbers++ */\n      dup7\n      dup1\n      tag_216\n      swap1\n      tag_116\n      jump\t// in\n    tag_216:\n      swap8\n      pop\n      pop\n        /* \"UZHPancakeLottery.sol\":6257:6439  if (playersTickets[playersAddresses[i]][j] == winningNumber[j]) {\r... */\n      jump(tag_217)\n    tag_215:\n        /* \"UZHPancakeLottery.sol\":6414:6419  break */\n      jump(tag_204)\n        /* \"UZHPancakeLottery.sol\":6257:6439  if (playersTickets[playersAddresses[i]][j] == winningNumber[j]) {\r... */\n    tag_217:\n        /* \"UZHPancakeLottery.sol\":6131:6134  j++ */\n      dup1\n      dup1\n      tag_218\n      swap1\n      tag_116\n      jump\t// in\n    tag_218:\n      swap2\n      pop\n      pop\n        /* \"UZHPancakeLottery.sol\":6088:6454  for (uint j = 0; j < winningNumber.length; j++) {\r... */\n      jump(tag_203)\n    tag_204:\n      pop\n        /* \"UZHPancakeLottery.sol\":6535:6549  playersTickets */\n      0x02\n        /* \"UZHPancakeLottery.sol\":6535:6570  playersTickets[playersAddresses[i]] */\n      0x00\n        /* \"UZHPancakeLottery.sol\":6550:6566  playersAddresses */\n      0x06\n        /* \"UZHPancakeLottery.sol\":6567:6568  i */\n      dup4\n        /* \"UZHPancakeLottery.sol\":6550:6569  playersAddresses[i] */\n      dup2\n      sload\n      dup2\n      lt\n      tag_219\n      jumpi\n      tag_220\n      tag_113\n      jump\t// in\n    tag_220:\n    tag_219:\n      swap1\n      0x00\n      mstore\n      keccak256(0x00, 0x20)\n      add\n      0x00\n      swap1\n      sload\n      swap1\n      0x0100\n      exp\n      swap1\n      div\n      0xffffffffffffffffffffffffffffffffffffffff\n      and\n        /* \"UZHPancakeLottery.sol\":6535:6570  playersTickets[playersAddresses[i]] */\n      0xffffffffffffffffffffffffffffffffffffffff\n      and\n      0xffffffffffffffffffffffffffffffffffffffff\n      and\n      dup2\n      mstore\n      0x20\n      add\n      swap1\n      dup2\n      mstore\n      0x20\n      add\n      0x00\n      keccak256\n      0x00\n        /* \"UZHPancakeLottery.sol\":6528:6570  delete playersTickets[playersAddresses[i]] */\n      tag_222\n      swap2\n      swap1\n      tag_223\n      jump\t// in\n    tag_222:\n        /* \"UZHPancakeLottery.sol\":6697:6698  1 */\n      0x01\n        /* \"UZHPancakeLottery.sol\":6674:6693  firstMatchedNumbers */\n      dup7\n        /* \"UZHPancakeLottery.sol\":6674:6698  firstMatchedNumbers == 1 */\n      eq\n        /* \"UZHPancakeLottery.sol\":6670:7177  if (firstMatchedNumbers == 1) {\r... */\n      iszero\n      tag_224\n      jumpi\n        /* \"UZHPancakeLottery.sol\":6732:6733  2 */\n      0x02\n        /* \"UZHPancakeLottery.sol\":6719:6733  percentage = 2 */\n      swap5\n      pop\n        /* \"UZHPancakeLottery.sol\":6670:7177  if (firstMatchedNumbers == 1) {\r... */\n      jump(tag_225)\n    tag_224:\n        /* \"UZHPancakeLottery.sol\":6782:6783  2 */\n      0x02\n        /* \"UZHPancakeLottery.sol\":6759:6778  firstMatchedNumbers */\n      dup7\n        /* \"UZHPancakeLottery.sol\":6759:6783  firstMatchedNumbers == 2 */\n      eq\n        /* \"UZHPancakeLottery.sol\":6755:7177  if (firstMatchedNumbers == 2) {\r... */\n      iszero\n      tag_226\n      jumpi\n        /* \"UZHPancakeLottery.sol\":6817:6818  3 */\n      0x03\n        /* \"UZHPancakeLottery.sol\":6804:6818  percentage = 3 */\n      swap5\n      pop\n        /* \"UZHPancakeLottery.sol\":6755:7177  if (firstMatchedNumbers == 2) {\r... */\n      jump(tag_227)\n    tag_226:\n        /* \"UZHPancakeLottery.sol\":6867:6868  3 */\n      0x03\n        /* \"UZHPancakeLottery.sol\":6844:6863  firstMatchedNumbers */\n      dup7\n        /* \"UZHPancakeLottery.sol\":6844:6868  firstMatchedNumbers == 3 */\n      eq\n        /* \"UZHPancakeLottery.sol\":6840:7177  if (firstMatchedNumbers == 3) {\r... */\n      iszero\n      tag_228\n      jumpi\n        /* \"UZHPancakeLottery.sol\":6902:6903  5 */\n      0x05\n        /* \"UZHPancakeLottery.sol\":6889:6903  percentage = 5 */\n      swap5\n      pop\n        /* \"UZHPancakeLottery.sol\":6840:7177  if (firstMatchedNumbers == 3) {\r... */\n      jump(tag_229)\n    tag_228:\n        /* \"UZHPancakeLottery.sol\":6952:6953  4 */\n      0x04\n        /* \"UZHPancakeLottery.sol\":6929:6948  firstMatchedNumbers */\n      dup7\n        /* \"UZHPancakeLottery.sol\":6929:6953  firstMatchedNumbers == 4 */\n      eq\n        /* \"UZHPancakeLottery.sol\":6925:7177  if (firstMatchedNumbers == 4) {\r... */\n      iszero\n      tag_230\n      jumpi\n        /* \"UZHPancakeLottery.sol\":6987:6989  10 */\n      0x0a\n        /* \"UZHPancakeLottery.sol\":6974:6989  percentage = 10 */\n      swap5\n      pop\n        /* \"UZHPancakeLottery.sol\":6925:7177  if (firstMatchedNumbers == 4) {\r... */\n      jump(tag_231)\n    tag_230:\n        /* \"UZHPancakeLottery.sol\":7038:7039  5 */\n      0x05\n        /* \"UZHPancakeLottery.sol\":7015:7034  firstMatchedNumbers */\n      dup7\n        /* \"UZHPancakeLottery.sol\":7015:7039  firstMatchedNumbers == 5 */\n      eq\n        /* \"UZHPancakeLottery.sol\":7011:7177  if (firstMatchedNumbers == 5) {\r... */\n      iszero\n      tag_232\n      jumpi\n        /* \"UZHPancakeLottery.sol\":7073:7075  20 */\n      0x14\n        /* \"UZHPancakeLottery.sol\":7060:7075  percentage = 20 */\n      swap5\n      pop\n        /* \"UZHPancakeLottery.sol\":7011:7177  if (firstMatchedNumbers == 5) {\r... */\n      jump(tag_233)\n    tag_232:\n        /* \"UZHPancakeLottery.sol\":7124:7125  6 */\n      0x06\n        /* \"UZHPancakeLottery.sol\":7101:7120  firstMatchedNumbers */\n      dup7\n        /* \"UZHPancakeLottery.sol\":7101:7125  firstMatchedNumbers == 6 */\n      eq\n        /* \"UZHPancakeLottery.sol\":7097:7177  if (firstMatchedNumbers == 6) {\r... */\n      iszero\n      tag_234\n      jumpi\n        /* \"UZHPancakeLottery.sol\":7159:7161  40 */\n      0x28\n        /* \"UZHPancakeLottery.sol\":7146:7161  percentage = 40 */\n      swap5\n      pop\n        /* \"UZHPancakeLottery.sol\":7097:7177  if (firstMatchedNumbers == 6) {\r... */\n    tag_234:\n        /* \"UZHPancakeLottery.sol\":7011:7177  if (firstMatchedNumbers == 5) {\r... */\n    tag_233:\n        /* \"UZHPancakeLottery.sol\":6925:7177  if (firstMatchedNumbers == 4) {\r... */\n    tag_231:\n        /* \"UZHPancakeLottery.sol\":6840:7177  if (firstMatchedNumbers == 3) {\r... */\n    tag_229:\n        /* \"UZHPancakeLottery.sol\":6755:7177  if (firstMatchedNumbers == 2) {\r... */\n    tag_227:\n        /* \"UZHPancakeLottery.sol\":6670:7177  if (firstMatchedNumbers == 1) {\r... */\n    tag_225:\n        /* \"UZHPancakeLottery.sol\":7274:7277  100 */\n      0x64\n        /* \"UZHPancakeLottery.sol\":7260:7270  percentage */\n      dup6\n        /* \"UZHPancakeLottery.sol\":7242:7257  TotalLotteryPot */\n      sload(0x04)\n        /* \"UZHPancakeLottery.sol\":7242:7270  TotalLotteryPot * percentage */\n      tag_235\n      swap2\n      swap1\n      tag_125\n      jump\t// in\n    tag_235:\n        /* \"UZHPancakeLottery.sol\":7241:7277  (TotalLotteryPot * percentage) / 100 */\n      tag_236\n      swap2\n      swap1\n      tag_175\n      jump\t// in\n    tag_236:\n        /* \"UZHPancakeLottery.sol\":7232:7277  reward = (TotalLotteryPot * percentage) / 100 */\n      swap4\n      pop\n        /* \"UZHPancakeLottery.sol\":7361:7367  reward */\n      dup4\n        /* \"UZHPancakeLottery.sol\":7346:7367  totalreward += reward */\n      dup4\n      tag_237\n      swap2\n      swap1\n      tag_169\n      jump\t// in\n    tag_237:\n      swap3\n      pop\n        /* \"UZHPancakeLottery.sol\":7472:7488  playersAddresses */\n      0x06\n        /* \"UZHPancakeLottery.sol\":7489:7490  i */\n      dup2\n        /* \"UZHPancakeLottery.sol\":7472:7491  playersAddresses[i] */\n      dup2\n      sload\n      dup2\n      lt\n      tag_238\n      jumpi\n      tag_239\n      tag_113\n      jump\t// in\n    tag_239:\n    tag_238:\n      swap1\n      0x00\n      mstore\n      keccak256(0x00, 0x20)\n      add\n      0x00\n      swap1\n      sload\n      swap1\n      0x0100\n      exp\n      swap1\n      div\n      0xffffffffffffffffffffffffffffffffffffffff\n      and\n        /* \"UZHPancakeLottery.sol\":7448:7492  playeraddress = payable(playersAddresses[i]) */\n      swap2\n      pop\n        /* \"UZHPancakeLottery.sol\":7561:7574  playeraddress */\n      dup2\n        /* \"UZHPancakeLottery.sol\":7561:7583  playeraddress.transfer */\n      0xffffffffffffffffffffffffffffffffffffffff\n      and\n        /* \"UZHPancakeLottery.sol\":7561:7591  playeraddress.transfer(reward) */\n      0x08fc\n        /* \"UZHPancakeLottery.sol\":7584:7590  reward */\n      dup6\n        /* \"UZHPancakeLottery.sol\":7561:7591  playeraddress.transfer(reward) */\n      swap1\n      dup2\n      iszero\n      mul\n      swap1\n      mload(0x40)\n      0x00\n      mload(0x40)\n      dup1\n      dup4\n      sub\n      dup2\n      dup6\n      dup9\n      dup9\n      call\n      swap4\n      pop\n      pop\n      pop\n      pop\n      iszero\n      dup1\n      iszero\n      tag_242\n      jumpi\n      returndatasize\n      0x00\n      dup1\n      returndatacopy\n      revert(0x00, returndatasize)\n    tag_242:\n      pop\n        /* \"UZHPancakeLottery.sol\":7668:7669  0 */\n      0x00\n        /* \"UZHPancakeLottery.sol\":7646:7669  firstMatchedNumbers = 0 */\n      swap6\n      pop\n        /* \"UZHPancakeLottery.sol\":7697:7698  0 */\n      0x00\n        /* \"UZHPancakeLottery.sol\":7684:7698  percentage = 0 */\n      swap5\n      pop\n        /* \"UZHPancakeLottery.sol\":7722:7723  0 */\n      0x00\n        /* \"UZHPancakeLottery.sol\":7713:7723  reward = 0 */\n      swap4\n      pop\n        /* \"UZHPancakeLottery.sol\":5996:5999  i++ */\n      dup1\n      dup1\n      tag_243\n      swap1\n      tag_116\n      jump\t// in\n    tag_243:\n      swap2\n      pop\n      pop\n        /* \"UZHPancakeLottery.sol\":5950:7735  for (uint i = 0; i < playersAddresses.length; i++) {   \r... */\n      jump(tag_200)\n    tag_201:\n      pop\n        /* \"UZHPancakeLottery.sol\":7805:7806  0 */\n      0x00\n        /* \"UZHPancakeLottery.sol\":7787:7802  NrticketsBought */\n      0x05\n        /* \"UZHPancakeLottery.sol\":7787:7806  NrticketsBought = 0 */\n      dup2\n      swap1\n      sstore\n      pop\n        /* \"UZHPancakeLottery.sol\":7836:7847  totalreward */\n      dup2\n        /* \"UZHPancakeLottery.sol\":7817:7832  TotalLotteryPot */\n      0x04\n      0x00\n        /* \"UZHPancakeLottery.sol\":7817:7847  TotalLotteryPot -= totalreward */\n      dup3\n      dup3\n      sload\n      tag_244\n      swap2\n      swap1\n      tag_245\n      jump\t// in\n    tag_244:\n      swap3\n      pop\n      pop\n      dup2\n      swap1\n      sstore\n      pop\n        /* \"UZHPancakeLottery.sol\":7891:7892  0 */\n      0x00\n        /* \"UZHPancakeLottery.sol\":7877:7893  new address[](0) */\n      0xffffffffffffffff\n      dup2\n      gt\n      iszero\n      tag_246\n      jumpi\n      tag_247\n      tag_99\n      jump\t// in\n    tag_247:\n    tag_246:\n      mload(0x40)\n      swap1\n      dup1\n      dup3\n      mstore\n      dup1\n      0x20\n      mul\n      0x20\n      add\n      dup3\n      add\n      0x40\n      mstore\n      dup1\n      iszero\n      tag_248\n      jumpi\n      dup2\n      0x20\n      add\n      0x20\n      dup3\n      mul\n      dup1\n      calldatasize\n      dup4\n      calldatacopy\n      dup1\n      dup3\n      add\n      swap2\n      pop\n      pop\n      swap1\n      pop\n    tag_248:\n      pop\n        /* \"UZHPancakeLottery.sol\":7858:7874  playersAddresses */\n      0x06\n        /* \"UZHPancakeLottery.sol\":7858:7893  playersAddresses = new address[](0) */\n      swap1\n      dup1\n      mload\n      swap1\n      0x20\n      add\n      swap1\n      tag_249\n      swap3\n      swap2\n      swap1\n      tag_250\n      jump\t// in\n    tag_249:\n      pop\n        /* \"UZHPancakeLottery.sol\":7936:7937  0 */\n      0x00\n        /* \"UZHPancakeLottery.sol\":7904:7939  playeraddress = payable(address(0)) */\n      swap1\n      pop\n        /* \"UZHPancakeLottery.sol\":7967:7972  false */\n      0x00\n        /* \"UZHPancakeLottery.sol\":7950:7964  lotteryStarted */\n      0x07\n      0x00\n        /* \"UZHPancakeLottery.sol\":7950:7972  lotteryStarted = false */\n      0x0100\n      exp\n      dup2\n      sload\n      dup2\n      0xff\n      mul\n      not\n      and\n      swap1\n      dup4\n      iszero\n      iszero\n      mul\n      or\n      swap1\n      sstore\n      pop\n        /* \"UZHPancakeLottery.sol\":5180:7980  {\r... */\n      pop\n      pop\n      pop\n      pop\n      pop\n        /* \"UZHPancakeLottery.sol\":5142:7980  function EndLottery() public onlyOwner{\r... */\n      jump\t// out\n        /* \"UZHPancakeLottery.sol\":754:785  uint public NrticketsBought = 0 */\n    tag_76:\n      sload(0x05)\n      dup2\n      jump\t// out\n    tag_102:\n      dup3\n      dup1\n      sload\n      dup3\n      dup3\n      sstore\n      swap1\n      0x00\n      mstore\n      keccak256(0x00, 0x20)\n      swap1\n      dup2\n      add\n      swap3\n      dup3\n      iszero\n      tag_251\n      jumpi\n      swap2\n      0x20\n      mul\n      dup3\n      add\n    tag_252:\n      dup3\n      dup2\n      gt\n      iszero\n      tag_253\n      jumpi\n      dup3\n      mload\n      dup3\n      sstore\n      swap2\n      0x20\n      add\n      swap2\n      swap1\n      0x01\n      add\n      swap1\n      jump(tag_252)\n    tag_253:\n    tag_251:\n      pop\n      swap1\n      pop\n      tag_254\n      swap2\n      swap1\n      tag_255\n      jump\t// in\n    tag_254:\n      pop\n      swap1\n      jump\t// out\n    tag_223:\n      pop\n      dup1\n      sload\n      0x00\n      dup3\n      sstore\n      swap1\n      0x00\n      mstore\n      keccak256(0x00, 0x20)\n      swap1\n      dup2\n      add\n      swap1\n      tag_257\n      swap2\n      swap1\n      tag_255\n      jump\t// in\n    tag_257:\n      pop\n      jump\t// out\n    tag_250:\n      dup3\n      dup1\n      sload\n      dup3\n      dup3\n      sstore\n      swap1\n      0x00\n      mstore\n      keccak256(0x00, 0x20)\n      swap1\n      dup2\n      add\n      swap3\n      dup3\n      iszero\n      tag_258\n      jumpi\n      swap2\n      0x20\n      mul\n      dup3\n      add\n    tag_259:\n      dup3\n      dup2\n      gt\n      iszero\n      tag_260\n      jumpi\n      dup3\n      mload\n      dup3\n      exp(0x0100, 0x00)\n      dup2\n      sload\n      dup2\n      0xffffffffffffffffffffffffffffffffffffffff\n      mul\n      not\n      and\n      swap1\n      dup4\n      0xffffffffffffffffffffffffffffffffffffffff\n      and\n      mul\n      or\n      swap1\n      sstore\n      pop\n      swap2\n      0x20\n      add\n      swap2\n      swap1\n      0x01\n      add\n      swap1\n      jump(tag_259)\n    tag_260:\n    tag_258:\n      pop\n      swap1\n      pop\n      tag_261\n      swap2\n      swap1\n      tag_255\n      jump\t// in\n    tag_261:\n      pop\n      swap1\n      jump\t// out\n    tag_255:\n    tag_262:\n      dup1\n      dup3\n      gt\n      iszero\n      tag_263\n      jumpi\n      0x00\n      dup2\n      0x00\n      swap1\n      sstore\n      pop\n      0x01\n      add\n      jump(tag_262)\n    tag_263:\n      pop\n      swap1\n      jump\t// out\n        /* \"#utility.yul\":24:746   */\n    tag_265:\n        /* \"#utility.yul\":120:125   */\n      0x00\n        /* \"#utility.yul\":145:226   */\n      tag_267\n        /* \"#utility.yul\":161:225   */\n      tag_268\n        /* \"#utility.yul\":218:224   */\n      dup5\n        /* \"#utility.yul\":161:225   */\n      tag_269\n      jump\t// in\n    tag_268:\n        /* \"#utility.yul\":145:226   */\n      tag_270\n      jump\t// in\n    tag_267:\n        /* \"#utility.yul\":136:226   */\n      swap1\n      pop\n        /* \"#utility.yul\":246:251   */\n      dup1\n        /* \"#utility.yul\":275:281   */\n      dup4\n        /* \"#utility.yul\":268:273   */\n      dup3\n        /* \"#utility.yul\":261:282   */\n      mstore\n        /* \"#utility.yul\":309:313   */\n      0x20\n        /* \"#utility.yul\":302:307   */\n      dup3\n        /* \"#utility.yul\":298:314   */\n      add\n        /* \"#utility.yul\":291:314   */\n      swap1\n      pop\n        /* \"#utility.yul\":335:341   */\n      dup3\n        /* \"#utility.yul\":385:388   */\n      dup6\n        /* \"#utility.yul\":377:381   */\n      0x20\n        /* \"#utility.yul\":369:375   */\n      dup7\n        /* \"#utility.yul\":365:382   */\n      mul\n        /* \"#utility.yul\":360:363   */\n      dup3\n        /* \"#utility.yul\":356:383   */\n      add\n        /* \"#utility.yul\":353:389   */\n      gt\n        /* \"#utility.yul\":350:493   */\n      iszero\n      tag_271\n      jumpi\n        /* \"#utility.yul\":404:483   */\n      tag_272\n      tag_273\n      jump\t// in\n    tag_272:\n        /* \"#utility.yul\":350:493   */\n    tag_271:\n        /* \"#utility.yul\":517:518   */\n      0x00\n        /* \"#utility.yul\":502:740   */\n    tag_274:\n        /* \"#utility.yul\":527:533   */\n      dup6\n        /* \"#utility.yul\":524:525   */\n      dup2\n        /* \"#utility.yul\":521:534   */\n      lt\n        /* \"#utility.yul\":502:740   */\n      iszero\n      tag_276\n      jumpi\n        /* \"#utility.yul\":595:598   */\n      dup2\n        /* \"#utility.yul\":624:661   */\n      tag_277\n        /* \"#utility.yul\":657:660   */\n      dup9\n        /* \"#utility.yul\":645:655   */\n      dup3\n        /* \"#utility.yul\":624:661   */\n      tag_278\n      jump\t// in\n    tag_277:\n        /* \"#utility.yul\":619:622   */\n      dup5\n        /* \"#utility.yul\":612:662   */\n      mstore\n        /* \"#utility.yul\":691:695   */\n      0x20\n        /* \"#utility.yul\":686:689   */\n      dup5\n        /* \"#utility.yul\":682:696   */\n      add\n        /* \"#utility.yul\":675:696   */\n      swap4\n      pop\n        /* \"#utility.yul\":725:729   */\n      0x20\n        /* \"#utility.yul\":720:723   */\n      dup4\n        /* \"#utility.yul\":716:730   */\n      add\n        /* \"#utility.yul\":709:730   */\n      swap3\n      pop\n        /* \"#utility.yul\":562:740   */\n      pop\n        /* \"#utility.yul\":549:550   */\n      0x01\n        /* \"#utility.yul\":546:547   */\n      dup2\n        /* \"#utility.yul\":542:551   */\n      add\n        /* \"#utility.yul\":537:551   */\n      swap1\n      pop\n        /* \"#utility.yul\":502:740   */\n      jump(tag_274)\n    tag_276:\n        /* \"#utility.yul\":506:520   */\n      pop\n        /* \"#utility.yul\":126:746   */\n      pop\n      pop\n        /* \"#utility.yul\":24:746   */\n      swap4\n      swap3\n      pop\n      pop\n      pop\n      jump\t// out\n        /* \"#utility.yul\":769:1139   */\n    tag_279:\n        /* \"#utility.yul\":840:845   */\n      0x00\n        /* \"#utility.yul\":889:892   */\n      dup3\n        /* \"#utility.yul\":882:886   */\n      0x1f\n        /* \"#utility.yul\":874:880   */\n      dup4\n        /* \"#utility.yul\":870:887   */\n      add\n        /* \"#utility.yul\":866:893   */\n      slt\n        /* \"#utility.yul\":856:978   */\n      tag_281\n      jumpi\n        /* \"#utility.yul\":897:976   */\n      tag_282\n      tag_283\n      jump\t// in\n    tag_282:\n        /* \"#utility.yul\":856:978   */\n    tag_281:\n        /* \"#utility.yul\":1014:1020   */\n      dup2\n        /* \"#utility.yul\":1001:1021   */\n      calldataload\n        /* \"#utility.yul\":1039:1133   */\n      tag_284\n        /* \"#utility.yul\":1129:1132   */\n      dup5\n        /* \"#utility.yul\":1121:1127   */\n      dup3\n        /* \"#utility.yul\":1114:1118   */\n      0x20\n        /* \"#utility.yul\":1106:1112   */\n      dup7\n        /* \"#utility.yul\":1102:1119   */\n      add\n        /* \"#utility.yul\":1039:1133   */\n      tag_265\n      jump\t// in\n    tag_284:\n        /* \"#utility.yul\":1030:1133   */\n      swap2\n      pop\n        /* \"#utility.yul\":846:1139   */\n      pop\n        /* \"#utility.yul\":769:1139   */\n      swap3\n      swap2\n      pop\n      pop\n      jump\t// out\n        /* \"#utility.yul\":1145:1284   */\n    tag_278:\n        /* \"#utility.yul\":1191:1196   */\n      0x00\n        /* \"#utility.yul\":1229:1235   */\n      dup2\n        /* \"#utility.yul\":1216:1236   */\n      calldataload\n        /* \"#utility.yul\":1207:1236   */\n      swap1\n      pop\n        /* \"#utility.yul\":1245:1278   */\n      tag_286\n        /* \"#utility.yul\":1272:1277   */\n      dup2\n        /* \"#utility.yul\":1245:1278   */\n      tag_287\n      jump\t// in\n    tag_286:\n        /* \"#utility.yul\":1145:1284   */\n      swap3\n      swap2\n      pop\n      pop\n      jump\t// out\n        /* \"#utility.yul\":1290:1829   */\n    tag_39:\n        /* \"#utility.yul\":1374:1380   */\n      0x00\n        /* \"#utility.yul\":1423:1425   */\n      0x20\n        /* \"#utility.yul\":1411:1420   */\n      dup3\n        /* \"#utility.yul\":1402:1409   */\n      dup5\n        /* \"#utility.yul\":1398:1421   */\n      sub\n        /* \"#utility.yul\":1394:1426   */\n      slt\n        /* \"#utility.yul\":1391:1510   */\n      iszero\n      tag_289\n      jumpi\n        /* \"#utility.yul\":1429:1508   */\n      tag_290\n      tag_291\n      jump\t// in\n    tag_290:\n        /* \"#utility.yul\":1391:1510   */\n    tag_289:\n        /* \"#utility.yul\":1577:1578   */\n      0x00\n        /* \"#utility.yul\":1566:1575   */\n      dup3\n        /* \"#utility.yul\":1562:1579   */\n      add\n        /* \"#utility.yul\":1549:1580   */\n      calldataload\n        /* \"#utility.yul\":1607:1625   */\n      0xffffffffffffffff\n        /* \"#utility.yul\":1599:1605   */\n      dup2\n        /* \"#utility.yul\":1596:1626   */\n      gt\n        /* \"#utility.yul\":1593:1710   */\n      iszero\n      tag_292\n      jumpi\n        /* \"#utility.yul\":1629:1708   */\n      tag_293\n      tag_294\n      jump\t// in\n    tag_293:\n        /* \"#utility.yul\":1593:1710   */\n    tag_292:\n        /* \"#utility.yul\":1734:1812   */\n      tag_295\n        /* \"#utility.yul\":1804:1811   */\n      dup5\n        /* \"#utility.yul\":1795:1801   */\n      dup3\n        /* \"#utility.yul\":1784:1793   */\n      dup6\n        /* \"#utility.yul\":1780:1802   */\n      add\n        /* \"#utility.yul\":1734:1812   */\n      tag_279\n      jump\t// in\n    tag_295:\n        /* \"#utility.yul\":1724:1812   */\n      swap2\n      pop\n        /* \"#utility.yul\":1520:1822   */\n      pop\n        /* \"#utility.yul\":1290:1829   */\n      swap3\n      swap2\n      pop\n      pop\n      jump\t// out\n        /* \"#utility.yul\":1835:2164   */\n    tag_28:\n        /* \"#utility.yul\":1894:1900   */\n      0x00\n        /* \"#utility.yul\":1943:1945   */\n      0x20\n        /* \"#utility.yul\":1931:1940   */\n      dup3\n        /* \"#utility.yul\":1922:1929   */\n      dup5\n        /* \"#utility.yul\":1918:1941   */\n      sub\n        /* \"#utility.yul\":1914:1946   */\n      slt\n        /* \"#utility.yul\":1911:2030   */\n      iszero\n      tag_297\n      jumpi\n        /* \"#utility.yul\":1949:2028   */\n      tag_298\n      tag_291\n      jump\t// in\n    tag_298:\n        /* \"#utility.yul\":1911:2030   */\n    tag_297:\n        /* \"#utility.yul\":2069:2070   */\n      0x00\n        /* \"#utility.yul\":2094:2147   */\n      tag_299\n        /* \"#utility.yul\":2139:2146   */\n      dup5\n        /* \"#utility.yul\":2130:2136   */\n      dup3\n        /* \"#utility.yul\":2119:2128   */\n      dup6\n        /* \"#utility.yul\":2115:2137   */\n      add\n        /* \"#utility.yul\":2094:2147   */\n      tag_278\n      jump\t// in\n    tag_299:\n        /* \"#utility.yul\":2084:2147   */\n      swap2\n      pop\n        /* \"#utility.yul\":2040:2157   */\n      pop\n        /* \"#utility.yul\":1835:2164   */\n      swap3\n      swap2\n      pop\n      pop\n      jump\t// out\n        /* \"#utility.yul\":2170:2349   */\n    tag_300:\n        /* \"#utility.yul\":2239:2249   */\n      0x00\n        /* \"#utility.yul\":2260:2306   */\n      tag_302\n        /* \"#utility.yul\":2302:2305   */\n      dup4\n        /* \"#utility.yul\":2294:2300   */\n      dup4\n        /* \"#utility.yul\":2260:2306   */\n      tag_303\n      jump\t// in\n    tag_302:\n        /* \"#utility.yul\":2338:2342   */\n      0x20\n        /* \"#utility.yul\":2333:2336   */\n      dup4\n        /* \"#utility.yul\":2329:2343   */\n      add\n        /* \"#utility.yul\":2315:2343   */\n      swap1\n      pop\n        /* \"#utility.yul\":2170:2349   */\n      swap3\n      swap2\n      pop\n      pop\n      jump\t// out\n        /* \"#utility.yul\":2355:2473   */\n    tag_304:\n        /* \"#utility.yul\":2442:2466   */\n      tag_306\n        /* \"#utility.yul\":2460:2465   */\n      dup2\n        /* \"#utility.yul\":2442:2466   */\n      tag_307\n      jump\t// in\n    tag_306:\n        /* \"#utility.yul\":2437:2440   */\n      dup3\n        /* \"#utility.yul\":2430:2467   */\n      mstore\n        /* \"#utility.yul\":2355:2473   */\n      pop\n      pop\n      jump\t// out\n        /* \"#utility.yul\":2509:3241   */\n    tag_308:\n        /* \"#utility.yul\":2628:2631   */\n      0x00\n        /* \"#utility.yul\":2657:2711   */\n      tag_310\n        /* \"#utility.yul\":2705:2710   */\n      dup3\n        /* \"#utility.yul\":2657:2711   */\n      tag_311\n      jump\t// in\n    tag_310:\n        /* \"#utility.yul\":2727:2813   */\n      tag_312\n        /* \"#utility.yul\":2806:2812   */\n      dup2\n        /* \"#utility.yul\":2801:2804   */\n      dup6\n        /* \"#utility.yul\":2727:2813   */\n      tag_313\n      jump\t// in\n    tag_312:\n        /* \"#utility.yul\":2720:2813   */\n      swap4\n      pop\n        /* \"#utility.yul\":2837:2893   */\n      tag_314\n        /* \"#utility.yul\":2887:2892   */\n      dup4\n        /* \"#utility.yul\":2837:2893   */\n      tag_315\n      jump\t// in\n    tag_314:\n        /* \"#utility.yul\":2916:2923   */\n      dup1\n        /* \"#utility.yul\":2947:2948   */\n      0x00\n        /* \"#utility.yul\":2932:3216   */\n    tag_316:\n        /* \"#utility.yul\":2957:2963   */\n      dup4\n        /* \"#utility.yul\":2954:2955   */\n      dup2\n        /* \"#utility.yul\":2951:2964   */\n      lt\n        /* \"#utility.yul\":2932:3216   */\n      iszero\n      tag_318\n      jumpi\n        /* \"#utility.yul\":3033:3039   */\n      dup2\n        /* \"#utility.yul\":3027:3040   */\n      mload\n        /* \"#utility.yul\":3060:3123   */\n      tag_319\n        /* \"#utility.yul\":3119:3122   */\n      dup9\n        /* \"#utility.yul\":3104:3117   */\n      dup3\n        /* \"#utility.yul\":3060:3123   */\n      tag_300\n      jump\t// in\n    tag_319:\n        /* \"#utility.yul\":3053:3123   */\n      swap8\n      pop\n        /* \"#utility.yul\":3146:3206   */\n      tag_320\n        /* \"#utility.yul\":3199:3205   */\n      dup4\n        /* \"#utility.yul\":3146:3206   */\n      tag_321\n      jump\t// in\n    tag_320:\n        /* \"#utility.yul\":3136:3206   */\n      swap3\n      pop\n        /* \"#utility.yul\":2992:3216   */\n      pop\n        /* \"#utility.yul\":2979:2980   */\n      0x01\n        /* \"#utility.yul\":2976:2977   */\n      dup2\n        /* \"#utility.yul\":2972:2981   */\n      add\n        /* \"#utility.yul\":2967:2981   */\n      swap1\n      pop\n        /* \"#utility.yul\":2932:3216   */\n      jump(tag_316)\n    tag_318:\n        /* \"#utility.yul\":2936:2950   */\n      pop\n        /* \"#utility.yul\":3232:3235   */\n      dup6\n        /* \"#utility.yul\":3225:3235   */\n      swap4\n      pop\n        /* \"#utility.yul\":2633:3241   */\n      pop\n      pop\n      pop\n        /* \"#utility.yul\":2509:3241   */\n      swap3\n      swap2\n      pop\n      pop\n      jump\t// out\n        /* \"#utility.yul\":3247:3356   */\n    tag_322:\n        /* \"#utility.yul\":3328:3349   */\n      tag_324\n        /* \"#utility.yul\":3343:3348   */\n      dup2\n        /* \"#utility.yul\":3328:3349   */\n      tag_325\n      jump\t// in\n    tag_324:\n        /* \"#utility.yul\":3323:3326   */\n      dup3\n        /* \"#utility.yul\":3316:3350   */\n      mstore\n        /* \"#utility.yul\":3247:3356   */\n      pop\n      pop\n      jump\t// out\n        /* \"#utility.yul\":3362:3728   */\n    tag_326:\n        /* \"#utility.yul\":3504:3507   */\n      0x00\n        /* \"#utility.yul\":3525:3592   */\n      tag_328\n        /* \"#utility.yul\":3589:3591   */\n      0x14\n        /* \"#utility.yul\":3584:3587   */\n      dup4\n        /* \"#utility.yul\":3525:3592   */\n      tag_329\n      jump\t// in\n    tag_328:\n        /* \"#utility.yul\":3518:3592   */\n      swap2\n      pop\n        /* \"#utility.yul\":3601:3694   */\n      tag_330\n        /* \"#utility.yul\":3690:3693   */\n      dup3\n        /* \"#utility.yul\":3601:3694   */\n      tag_331\n      jump\t// in\n    tag_330:\n        /* \"#utility.yul\":3719:3721   */\n      0x20\n        /* \"#utility.yul\":3714:3717   */\n      dup3\n        /* \"#utility.yul\":3710:3722   */\n      add\n        /* \"#utility.yul\":3703:3722   */\n      swap1\n      pop\n        /* \"#utility.yul\":3362:3728   */\n      swap2\n      swap1\n      pop\n      jump\t// out\n        /* \"#utility.yul\":3734:4100   */\n    tag_332:\n        /* \"#utility.yul\":3876:3879   */\n      0x00\n        /* \"#utility.yul\":3897:3964   */\n      tag_334\n        /* \"#utility.yul\":3961:3963   */\n      0x11\n        /* \"#utility.yul\":3956:3959   */\n      dup4\n        /* \"#utility.yul\":3897:3964   */\n      tag_329\n      jump\t// in\n    tag_334:\n        /* \"#utility.yul\":3890:3964   */\n      swap2\n      pop\n        /* \"#utility.yul\":3973:4066   */\n      tag_335\n        /* \"#utility.yul\":4062:4065   */\n      dup3\n        /* \"#utility.yul\":3973:4066   */\n      tag_336\n      jump\t// in\n    tag_335:\n        /* \"#utility.yul\":4091:4093   */\n      0x20\n        /* \"#utility.yul\":4086:4089   */\n      dup3\n        /* \"#utility.yul\":4082:4094   */\n      add\n        /* \"#utility.yul\":4075:4094   */\n      swap1\n      pop\n        /* \"#utility.yul\":3734:4100   */\n      swap2\n      swap1\n      pop\n      jump\t// out\n        /* \"#utility.yul\":4106:4472   */\n    tag_337:\n        /* \"#utility.yul\":4248:4251   */\n      0x00\n        /* \"#utility.yul\":4269:4336   */\n      tag_339\n        /* \"#utility.yul\":4333:4335   */\n      0x20\n        /* \"#utility.yul\":4328:4331   */\n      dup4\n        /* \"#utility.yul\":4269:4336   */\n      tag_329\n      jump\t// in\n    tag_339:\n        /* \"#utility.yul\":4262:4336   */\n      swap2\n      pop\n        /* \"#utility.yul\":4345:4438   */\n      tag_340\n        /* \"#utility.yul\":4434:4437   */\n      dup3\n        /* \"#utility.yul\":4345:4438   */\n      tag_341\n      jump\t// in\n    tag_340:\n        /* \"#utility.yul\":4463:4465   */\n      0x20\n        /* \"#utility.yul\":4458:4461   */\n      dup3\n        /* \"#utility.yul\":4454:4466   */\n      add\n        /* \"#utility.yul\":4447:4466   */\n      swap1\n      pop\n        /* \"#utility.yul\":4106:4472   */\n      swap2\n      swap1\n      pop\n      jump\t// out\n        /* \"#utility.yul\":4478:4844   */\n    tag_342:\n        /* \"#utility.yul\":4620:4623   */\n      0x00\n        /* \"#utility.yul\":4641:4708   */\n      tag_344\n        /* \"#utility.yul\":4705:4707   */\n      0x26\n        /* \"#utility.yul\":4700:4703   */\n      dup4\n        /* \"#utility.yul\":4641:4708   */\n      tag_329\n      jump\t// in\n    tag_344:\n        /* \"#utility.yul\":4634:4708   */\n      swap2\n      pop\n        /* \"#utility.yul\":4717:4810   */\n      tag_345\n        /* \"#utility.yul\":4806:4809   */\n      dup3\n        /* \"#utility.yul\":4717:4810   */\n      tag_346\n      jump\t// in\n    tag_345:\n        /* \"#utility.yul\":4835:4837   */\n      0x40\n        /* \"#utility.yul\":4830:4833   */\n      dup3\n        /* \"#utility.yul\":4826:4838   */\n      add\n        /* \"#utility.yul\":4819:4838   */\n      swap1\n      pop\n        /* \"#utility.yul\":4478:4844   */\n      swap2\n      swap1\n      pop\n      jump\t// out\n        /* \"#utility.yul\":4850:5216   */\n    tag_347:\n        /* \"#utility.yul\":4992:4995   */\n      0x00\n        /* \"#utility.yul\":5013:5080   */\n      tag_349\n        /* \"#utility.yul\":5077:5079   */\n      0x15\n        /* \"#utility.yul\":5072:5075   */\n      dup4\n        /* \"#utility.yul\":5013:5080   */\n      tag_329\n      jump\t// in\n    tag_349:\n        /* \"#utility.yul\":5006:5080   */\n      swap2\n      pop\n        /* \"#utility.yul\":5089:5182   */\n      tag_350\n        /* \"#utility.yul\":5178:5181   */\n      dup3\n        /* \"#utility.yul\":5089:5182   */\n      tag_351\n      jump\t// in\n    tag_350:\n        /* \"#utility.yul\":5207:5209   */\n      0x20\n        /* \"#utility.yul\":5202:5205   */\n      dup3\n        /* \"#utility.yul\":5198:5210   */\n      add\n        /* \"#utility.yul\":5191:5210   */\n      swap1\n      pop\n        /* \"#utility.yul\":4850:5216   */\n      swap2\n      swap1\n      pop\n      jump\t// out\n        /* \"#utility.yul\":5222:5588   */\n    tag_352:\n        /* \"#utility.yul\":5364:5367   */\n      0x00\n        /* \"#utility.yul\":5385:5452   */\n      tag_354\n        /* \"#utility.yul\":5449:5451   */\n      0x0c\n        /* \"#utility.yul\":5444:5447   */\n      dup4\n        /* \"#utility.yul\":5385:5452   */\n      tag_329\n      jump\t// in\n    tag_354:\n        /* \"#utility.yul\":5378:5452   */\n      swap2\n      pop\n        /* \"#utility.yul\":5461:5554   */\n      tag_355\n        /* \"#utility.yul\":5550:5553   */\n      dup3\n        /* \"#utility.yul\":5461:5554   */\n      tag_356\n      jump\t// in\n    tag_355:\n        /* \"#utility.yul\":5579:5581   */\n      0x20\n        /* \"#utility.yul\":5574:5577   */\n      dup3\n        /* \"#utility.yul\":5570:5582   */\n      add\n        /* \"#utility.yul\":5563:5582   */\n      swap1\n      pop\n        /* \"#utility.yul\":5222:5588   */\n      swap2\n      swap1\n      pop\n      jump\t// out\n        /* \"#utility.yul\":5594:5960   */\n    tag_357:\n        /* \"#utility.yul\":5736:5739   */\n      0x00\n        /* \"#utility.yul\":5757:5824   */\n      tag_359\n        /* \"#utility.yul\":5821:5823   */\n      0x17\n        /* \"#utility.yul\":5816:5819   */\n      dup4\n        /* \"#utility.yul\":5757:5824   */\n      tag_329\n      jump\t// in\n    tag_359:\n        /* \"#utility.yul\":5750:5824   */\n      swap2\n      pop\n        /* \"#utility.yul\":5833:5926   */\n      tag_360\n        /* \"#utility.yul\":5922:5925   */\n      dup3\n        /* \"#utility.yul\":5833:5926   */\n      tag_361\n      jump\t// in\n    tag_360:\n        /* \"#utility.yul\":5951:5953   */\n      0x20\n        /* \"#utility.yul\":5946:5949   */\n      dup3\n        /* \"#utility.yul\":5942:5954   */\n      add\n        /* \"#utility.yul\":5935:5954   */\n      swap1\n      pop\n        /* \"#utility.yul\":5594:5960   */\n      swap2\n      swap1\n      pop\n      jump\t// out\n        /* \"#utility.yul\":5966:6332   */\n    tag_362:\n        /* \"#utility.yul\":6108:6111   */\n      0x00\n        /* \"#utility.yul\":6129:6196   */\n      tag_364\n        /* \"#utility.yul\":6193:6195   */\n      0x14\n        /* \"#utility.yul\":6188:6191   */\n      dup4\n        /* \"#utility.yul\":6129:6196   */\n      tag_329\n      jump\t// in\n    tag_364:\n        /* \"#utility.yul\":6122:6196   */\n      swap2\n      pop\n        /* \"#utility.yul\":6205:6298   */\n      tag_365\n        /* \"#utility.yul\":6294:6297   */\n      dup3\n        /* \"#utility.yul\":6205:6298   */\n      tag_366\n      jump\t// in\n    tag_365:\n        /* \"#utility.yul\":6323:6325   */\n      0x20\n        /* \"#utility.yul\":6318:6321   */\n      dup3\n        /* \"#utility.yul\":6314:6326   */\n      add\n        /* \"#utility.yul\":6307:6326   */\n      swap1\n      pop\n        /* \"#utility.yul\":5966:6332   */\n      swap2\n      swap1\n      pop\n      jump\t// out\n        /* \"#utility.yul\":6338:6704   */\n    tag_367:\n        /* \"#utility.yul\":6480:6483   */\n      0x00\n        /* \"#utility.yul\":6501:6568   */\n      tag_369\n        /* \"#utility.yul\":6565:6567   */\n      0x0c\n        /* \"#utility.yul\":6560:6563   */\n      dup4\n        /* \"#utility.yul\":6501:6568   */\n      tag_329\n      jump\t// in\n    tag_369:\n        /* \"#utility.yul\":6494:6568   */\n      swap2\n      pop\n        /* \"#utility.yul\":6577:6670   */\n      tag_370\n        /* \"#utility.yul\":6666:6669   */\n      dup3\n        /* \"#utility.yul\":6577:6670   */\n      tag_371\n      jump\t// in\n    tag_370:\n        /* \"#utility.yul\":6695:6697   */\n      0x20\n        /* \"#utility.yul\":6690:6693   */\n      dup3\n        /* \"#utility.yul\":6686:6698   */\n      add\n        /* \"#utility.yul\":6679:6698   */\n      swap1\n      pop\n        /* \"#utility.yul\":6338:6704   */\n      swap2\n      swap1\n      pop\n      jump\t// out\n        /* \"#utility.yul\":6710:6818   */\n    tag_303:\n        /* \"#utility.yul\":6787:6811   */\n      tag_373\n        /* \"#utility.yul\":6805:6810   */\n      dup2\n        /* \"#utility.yul\":6787:6811   */\n      tag_374\n      jump\t// in\n    tag_373:\n        /* \"#utility.yul\":6782:6785   */\n      dup3\n        /* \"#utility.yul\":6775:6812   */\n      mstore\n        /* \"#utility.yul\":6710:6818   */\n      pop\n      pop\n      jump\t// out\n        /* \"#utility.yul\":6824:6942   */\n    tag_375:\n        /* \"#utility.yul\":6911:6935   */\n      tag_377\n        /* \"#utility.yul\":6929:6934   */\n      dup2\n        /* \"#utility.yul\":6911:6935   */\n      tag_374\n      jump\t// in\n    tag_377:\n        /* \"#utility.yul\":6906:6909   */\n      dup3\n        /* \"#utility.yul\":6899:6936   */\n      mstore\n        /* \"#utility.yul\":6824:6942   */\n      pop\n      pop\n      jump\t// out\n        /* \"#utility.yul\":6948:7105   */\n    tag_378:\n        /* \"#utility.yul\":7053:7098   */\n      tag_380\n        /* \"#utility.yul\":7073:7097   */\n      tag_381\n        /* \"#utility.yul\":7091:7096   */\n      dup3\n        /* \"#utility.yul\":7073:7097   */\n      tag_374\n      jump\t// in\n    tag_381:\n        /* \"#utility.yul\":7053:7098   */\n      tag_382\n      jump\t// in\n    tag_380:\n        /* \"#utility.yul\":7048:7051   */\n      dup3\n        /* \"#utility.yul\":7041:7099   */\n      mstore\n        /* \"#utility.yul\":6948:7105   */\n      pop\n      pop\n      jump\t// out\n        /* \"#utility.yul\":7111:7649   */\n    tag_107:\n        /* \"#utility.yul\":7279:7282   */\n      0x00\n        /* \"#utility.yul\":7294:7369   */\n      tag_384\n        /* \"#utility.yul\":7365:7368   */\n      dup3\n        /* \"#utility.yul\":7356:7362   */\n      dup7\n        /* \"#utility.yul\":7294:7369   */\n      tag_378\n      jump\t// in\n    tag_384:\n        /* \"#utility.yul\":7394:7396   */\n      0x20\n        /* \"#utility.yul\":7389:7392   */\n      dup3\n        /* \"#utility.yul\":7385:7397   */\n      add\n        /* \"#utility.yul\":7378:7397   */\n      swap2\n      pop\n        /* \"#utility.yul\":7407:7482   */\n      tag_385\n        /* \"#utility.yul\":7478:7481   */\n      dup3\n        /* \"#utility.yul\":7469:7475   */\n      dup6\n        /* \"#utility.yul\":7407:7482   */\n      tag_378\n      jump\t// in\n    tag_385:\n        /* \"#utility.yul\":7507:7509   */\n      0x20\n        /* \"#utility.yul\":7502:7505   */\n      dup3\n        /* \"#utility.yul\":7498:7510   */\n      add\n        /* \"#utility.yul\":7491:7510   */\n      swap2\n      pop\n        /* \"#utility.yul\":7520:7595   */\n      tag_386\n        /* \"#utility.yul\":7591:7594   */\n      dup3\n        /* \"#utility.yul\":7582:7588   */\n      dup5\n        /* \"#utility.yul\":7520:7595   */\n      tag_378\n      jump\t// in\n    tag_386:\n        /* \"#utility.yul\":7620:7622   */\n      0x20\n        /* \"#utility.yul\":7615:7618   */\n      dup3\n        /* \"#utility.yul\":7611:7623   */\n      add\n        /* \"#utility.yul\":7604:7623   */\n      swap2\n      pop\n        /* \"#utility.yul\":7640:7643   */\n      dup2\n        /* \"#utility.yul\":7633:7643   */\n      swap1\n      pop\n        /* \"#utility.yul\":7111:7649   */\n      swap5\n      swap4\n      pop\n      pop\n      pop\n      pop\n      jump\t// out\n        /* \"#utility.yul\":7655:7877   */\n    tag_35:\n        /* \"#utility.yul\":7748:7752   */\n      0x00\n        /* \"#utility.yul\":7786:7788   */\n      0x20\n        /* \"#utility.yul\":7775:7784   */\n      dup3\n        /* \"#utility.yul\":7771:7789   */\n      add\n        /* \"#utility.yul\":7763:7789   */\n      swap1\n      pop\n        /* \"#utility.yul\":7799:7870   */\n      tag_388\n        /* \"#utility.yul\":7867:7868   */\n      0x00\n        /* \"#utility.yul\":7856:7865   */\n      dup4\n        /* \"#utility.yul\":7852:7869   */\n      add\n        /* \"#utility.yul\":7843:7849   */\n      dup5\n        /* \"#utility.yul\":7799:7870   */\n      tag_304\n      jump\t// in\n    tag_388:\n        /* \"#utility.yul\":7655:7877   */\n      swap3\n      swap2\n      pop\n      pop\n      jump\t// out\n        /* \"#utility.yul\":7883:8256   */\n    tag_62:\n        /* \"#utility.yul\":8026:8030   */\n      0x00\n        /* \"#utility.yul\":8064:8066   */\n      0x20\n        /* \"#utility.yul\":8053:8062   */\n      dup3\n        /* \"#utility.yul\":8049:8067   */\n      add\n        /* \"#utility.yul\":8041:8067   */\n      swap1\n      pop\n        /* \"#utility.yul\":8113:8122   */\n      dup2\n        /* \"#utility.yul\":8107:8111   */\n      dup2\n        /* \"#utility.yul\":8103:8123   */\n      sub\n        /* \"#utility.yul\":8099:8100   */\n      0x00\n        /* \"#utility.yul\":8088:8097   */\n      dup4\n        /* \"#utility.yul\":8084:8101   */\n      add\n        /* \"#utility.yul\":8077:8124   */\n      mstore\n        /* \"#utility.yul\":8141:8249   */\n      tag_390\n        /* \"#utility.yul\":8244:8248   */\n      dup2\n        /* \"#utility.yul\":8235:8241   */\n      dup5\n        /* \"#utility.yul\":8141:8249   */\n      tag_308\n      jump\t// in\n    tag_390:\n        /* \"#utility.yul\":8133:8249   */\n      swap1\n      pop\n        /* \"#utility.yul\":7883:8256   */\n      swap3\n      swap2\n      pop\n      pop\n      jump\t// out\n        /* \"#utility.yul\":8262:8472   */\n    tag_45:\n        /* \"#utility.yul\":8349:8353   */\n      0x00\n        /* \"#utility.yul\":8387:8389   */\n      0x20\n        /* \"#utility.yul\":8376:8385   */\n      dup3\n        /* \"#utility.yul\":8372:8390   */\n      add\n        /* \"#utility.yul\":8364:8390   */\n      swap1\n      pop\n        /* \"#utility.yul\":8400:8465   */\n      tag_392\n        /* \"#utility.yul\":8462:8463   */\n      0x00\n        /* \"#utility.yul\":8451:8460   */\n      dup4\n        /* \"#utility.yul\":8447:8464   */\n      add\n        /* \"#utility.yul\":8438:8444   */\n      dup5\n        /* \"#utility.yul\":8400:8465   */\n      tag_322\n      jump\t// in\n    tag_392:\n        /* \"#utility.yul\":8262:8472   */\n      swap3\n      swap2\n      pop\n      pop\n      jump\t// out\n        /* \"#utility.yul\":8478:8897   */\n    tag_88:\n        /* \"#utility.yul\":8644:8648   */\n      0x00\n        /* \"#utility.yul\":8682:8684   */\n      0x20\n        /* \"#utility.yul\":8671:8680   */\n      dup3\n        /* \"#utility.yul\":8667:8685   */\n      add\n        /* \"#utility.yul\":8659:8685   */\n      swap1\n      pop\n        /* \"#utility.yul\":8731:8740   */\n      dup2\n        /* \"#utility.yul\":8725:8729   */\n      dup2\n        /* \"#utility.yul\":8721:8741   */\n      sub\n        /* \"#utility.yul\":8717:8718   */\n      0x00\n        /* \"#utility.yul\":8706:8715   */\n      dup4\n        /* \"#utility.yul\":8702:8719   */\n      add\n        /* \"#utility.yul\":8695:8742   */\n      mstore\n        /* \"#utility.yul\":8759:8890   */\n      tag_394\n        /* \"#utility.yul\":8885:8889   */\n      dup2\n        /* \"#utility.yul\":8759:8890   */\n      tag_326\n      jump\t// in\n    tag_394:\n        /* \"#utility.yul\":8751:8890   */\n      swap1\n      pop\n        /* \"#utility.yul\":8478:8897   */\n      swap2\n      swap1\n      pop\n      jump\t// out\n        /* \"#utility.yul\":8903:9322   */\n    tag_199:\n        /* \"#utility.yul\":9069:9073   */\n      0x00\n        /* \"#utility.yul\":9107:9109   */\n      0x20\n        /* \"#utility.yul\":9096:9105   */\n      dup3\n        /* \"#utility.yul\":9092:9110   */\n      add\n        /* \"#utility.yul\":9084:9110   */\n      swap1\n      pop\n        /* \"#utility.yul\":9156:9165   */\n      dup2\n        /* \"#utility.yul\":9150:9154   */\n      dup2\n        /* \"#utility.yul\":9146:9166   */\n      sub\n        /* \"#utility.yul\":9142:9143   */\n      0x00\n        /* \"#utility.yul\":9131:9140   */\n      dup4\n        /* \"#utility.yul\":9127:9144   */\n      add\n        /* \"#utility.yul\":9120:9167   */\n      mstore\n        /* \"#utility.yul\":9184:9315   */\n      tag_396\n        /* \"#utility.yul\":9310:9314   */\n      dup2\n        /* \"#utility.yul\":9184:9315   */\n      tag_332\n      jump\t// in\n    tag_396:\n        /* \"#utility.yul\":9176:9315   */\n      swap1\n      pop\n        /* \"#utility.yul\":8903:9322   */\n      swap2\n      swap1\n      pop\n      jump\t// out\n        /* \"#utility.yul\":9328:9747   */\n    tag_165:\n        /* \"#utility.yul\":9494:9498   */\n      0x00\n        /* \"#utility.yul\":9532:9534   */\n      0x20\n        /* \"#utility.yul\":9521:9530   */\n      dup3\n        /* \"#utility.yul\":9517:9535   */\n      add\n        /* \"#utility.yul\":9509:9535   */\n      swap1\n      pop\n        /* \"#utility.yul\":9581:9590   */\n      dup2\n        /* \"#utility.yul\":9575:9579   */\n      dup2\n        /* \"#utility.yul\":9571:9591   */\n      sub\n        /* \"#utility.yul\":9567:9568   */\n      0x00\n        /* \"#utility.yul\":9556:9565   */\n      dup4\n        /* \"#utility.yul\":9552:9569   */\n      add\n        /* \"#utility.yul\":9545:9592   */\n      mstore\n        /* \"#utility.yul\":9609:9740   */\n      tag_398\n        /* \"#utility.yul\":9735:9739   */\n      dup2\n        /* \"#utility.yul\":9609:9740   */\n      tag_337\n      jump\t// in\n    tag_398:\n        /* \"#utility.yul\":9601:9740   */\n      swap1\n      pop\n        /* \"#utility.yul\":9328:9747   */\n      swap2\n      swap1\n      pop\n      jump\t// out\n        /* \"#utility.yul\":9753:10172   */\n    tag_81:\n        /* \"#utility.yul\":9919:9923   */\n      0x00\n        /* \"#utility.yul\":9957:9959   */\n      0x20\n        /* \"#utility.yul\":9946:9955   */\n      dup3\n        /* \"#utility.yul\":9942:9960   */\n      add\n        /* \"#utility.yul\":9934:9960   */\n      swap1\n      pop\n        /* \"#utility.yul\":10006:10015   */\n      dup2\n        /* \"#utility.yul\":10000:10004   */\n      dup2\n        /* \"#utility.yul\":9996:10016   */\n      sub\n        /* \"#utility.yul\":9992:9993   */\n      0x00\n        /* \"#utility.yul\":9981:9990   */\n      dup4\n        /* \"#utility.yul\":9977:9994   */\n      add\n        /* \"#utility.yul\":9970:10017   */\n      mstore\n        /* \"#utility.yul\":10034:10165   */\n      tag_400\n        /* \"#utility.yul\":10160:10164   */\n      dup2\n        /* \"#utility.yul\":10034:10165   */\n      tag_342\n      jump\t// in\n    tag_400:\n        /* \"#utility.yul\":10026:10165   */\n      swap1\n      pop\n        /* \"#utility.yul\":9753:10172   */\n      swap2\n      swap1\n      pop\n      jump\t// out\n        /* \"#utility.yul\":10178:10597   */\n    tag_144:\n        /* \"#utility.yul\":10344:10348   */\n      0x00\n        /* \"#utility.yul\":10382:10384   */\n      0x20\n        /* \"#utility.yul\":10371:10380   */\n      dup3\n        /* \"#utility.yul\":10367:10385   */\n      add\n        /* \"#utility.yul\":10359:10385   */\n      swap1\n      pop\n        /* \"#utility.yul\":10431:10440   */\n      dup2\n        /* \"#utility.yul\":10425:10429   */\n      dup2\n        /* \"#utility.yul\":10421:10441   */\n      sub\n        /* \"#utility.yul\":10417:10418   */\n      0x00\n        /* \"#utility.yul\":10406:10415   */\n      dup4\n        /* \"#utility.yul\":10402:10419   */\n      add\n        /* \"#utility.yul\":10395:10442   */\n      mstore\n        /* \"#utility.yul\":10459:10590   */\n      tag_402\n        /* \"#utility.yul\":10585:10589   */\n      dup2\n        /* \"#utility.yul\":10459:10590   */\n      tag_347\n      jump\t// in\n    tag_402:\n        /* \"#utility.yul\":10451:10590   */\n      swap1\n      pop\n        /* \"#utility.yul\":10178:10597   */\n      swap2\n      swap1\n      pop\n      jump\t// out\n        /* \"#utility.yul\":10603:11022   */\n    tag_161:\n        /* \"#utility.yul\":10769:10773   */\n      0x00\n        /* \"#utility.yul\":10807:10809   */\n      0x20\n        /* \"#utility.yul\":10796:10805   */\n      dup3\n        /* \"#utility.yul\":10792:10810   */\n      add\n        /* \"#utility.yul\":10784:10810   */\n      swap1\n      pop\n        /* \"#utility.yul\":10856:10865   */\n      dup2\n        /* \"#utility.yul\":10850:10854   */\n      dup2\n        /* \"#utility.yul\":10846:10866   */\n      sub\n        /* \"#utility.yul\":10842:10843   */\n      0x00\n        /* \"#utility.yul\":10831:10840   */\n      dup4\n        /* \"#utility.yul\":10827:10844   */\n      add\n        /* \"#utility.yul\":10820:10867   */\n      mstore\n        /* \"#utility.yul\":10884:11015   */\n      tag_404\n        /* \"#utility.yul\":11010:11014   */\n      dup2\n        /* \"#utility.yul\":10884:11015   */\n      tag_352\n      jump\t// in\n    tag_404:\n        /* \"#utility.yul\":10876:11015   */\n      swap1\n      pop\n        /* \"#utility.yul\":10603:11022   */\n      swap2\n      swap1\n      pop\n      jump\t// out\n        /* \"#utility.yul\":11028:11447   */\n    tag_150:\n        /* \"#utility.yul\":11194:11198   */\n      0x00\n        /* \"#utility.yul\":11232:11234   */\n      0x20\n        /* \"#utility.yul\":11221:11230   */\n      dup3\n        /* \"#utility.yul\":11217:11235   */\n      add\n        /* \"#utility.yul\":11209:11235   */\n      swap1\n      pop\n        /* \"#utility.yul\":11281:11290   */\n      dup2\n        /* \"#utility.yul\":11275:11279   */\n      dup2\n        /* \"#utility.yul\":11271:11291   */\n      sub\n        /* \"#utility.yul\":11267:11268   */\n      0x00\n        /* \"#utility.yul\":11256:11265   */\n      dup4\n        /* \"#utility.yul\":11252:11269   */\n      add\n        /* \"#utility.yul\":11245:11292   */\n      mstore\n        /* \"#utility.yul\":11309:11440   */\n      tag_406\n        /* \"#utility.yul\":11435:11439   */\n      dup2\n        /* \"#utility.yul\":11309:11440   */\n      tag_357\n      jump\t// in\n    tag_406:\n        /* \"#utility.yul\":11301:11440   */\n      swap1\n      pop\n        /* \"#utility.yul\":11028:11447   */\n      swap2\n      swap1\n      pop\n      jump\t// out\n        /* \"#utility.yul\":11453:11872   */\n    tag_85:\n        /* \"#utility.yul\":11619:11623   */\n      0x00\n        /* \"#utility.yul\":11657:11659   */\n      0x20\n        /* \"#utility.yul\":11646:11655   */\n      dup3\n        /* \"#utility.yul\":11642:11660   */\n      add\n        /* \"#utility.yul\":11634:11660   */\n      swap1\n      pop\n        /* \"#utility.yul\":11706:11715   */\n      dup2\n        /* \"#utility.yul\":11700:11704   */\n      dup2\n        /* \"#utility.yul\":11696:11716   */\n      sub\n        /* \"#utility.yul\":11692:11693   */\n      0x00\n        /* \"#utility.yul\":11681:11690   */\n      dup4\n        /* \"#utility.yul\":11677:11694   */\n      add\n        /* \"#utility.yul\":11670:11717   */\n      mstore\n        /* \"#utility.yul\":11734:11865   */\n      tag_408\n        /* \"#utility.yul\":11860:11864   */\n      dup2\n        /* \"#utility.yul\":11734:11865   */\n      tag_362\n      jump\t// in\n    tag_408:\n        /* \"#utility.yul\":11726:11865   */\n      swap1\n      pop\n        /* \"#utility.yul\":11453:11872   */\n      swap2\n      swap1\n      pop\n      jump\t// out\n        /* \"#utility.yul\":11878:12297   */\n    tag_147:\n        /* \"#utility.yul\":12044:12048   */\n      0x00\n        /* \"#utility.yul\":12082:12084   */\n      0x20\n        /* \"#utility.yul\":12071:12080   */\n      dup3\n        /* \"#utility.yul\":12067:12085   */\n      add\n        /* \"#utility.yul\":12059:12085   */\n      swap1\n      pop\n        /* \"#utility.yul\":12131:12140   */\n      dup2\n        /* \"#utility.yul\":12125:12129   */\n      dup2\n        /* \"#utility.yul\":12121:12141   */\n      sub\n        /* \"#utility.yul\":12117:12118   */\n      0x00\n        /* \"#utility.yul\":12106:12115   */\n      dup4\n        /* \"#utility.yul\":12102:12119   */\n      add\n        /* \"#utility.yul\":12095:12142   */\n      mstore\n        /* \"#utility.yul\":12159:12290   */\n      tag_410\n        /* \"#utility.yul\":12285:12289   */\n      dup2\n        /* \"#utility.yul\":12159:12290   */\n      tag_367\n      jump\t// in\n    tag_410:\n        /* \"#utility.yul\":12151:12290   */\n      swap1\n      pop\n        /* \"#utility.yul\":11878:12297   */\n      swap2\n      swap1\n      pop\n      jump\t// out\n        /* \"#utility.yul\":12303:12525   */\n    tag_53:\n        /* \"#utility.yul\":12396:12400   */\n      0x00\n        /* \"#utility.yul\":12434:12436   */\n      0x20\n        /* \"#utility.yul\":12423:12432   */\n      dup3\n        /* \"#utility.yul\":12419:12437   */\n      add\n        /* \"#utility.yul\":12411:12437   */\n      swap1\n      pop\n        /* \"#utility.yul\":12447:12518   */\n      tag_412\n        /* \"#utility.yul\":12515:12516   */\n      0x00\n        /* \"#utility.yul\":12504:12513   */\n      dup4\n        /* \"#utility.yul\":12500:12517   */\n      add\n        /* \"#utility.yul\":12491:12497   */\n      dup5\n        /* \"#utility.yul\":12447:12518   */\n      tag_375\n      jump\t// in\n    tag_412:\n        /* \"#utility.yul\":12303:12525   */\n      swap3\n      swap2\n      pop\n      pop\n      jump\t// out\n        /* \"#utility.yul\":12531:12660   */\n    tag_270:\n        /* \"#utility.yul\":12565:12571   */\n      0x00\n        /* \"#utility.yul\":12592:12612   */\n      tag_414\n      tag_415\n      jump\t// in\n    tag_414:\n        /* \"#utility.yul\":12582:12612   */\n      swap1\n      pop\n        /* \"#utility.yul\":12621:12654   */\n      tag_416\n        /* \"#utility.yul\":12649:12653   */\n      dup3\n        /* \"#utility.yul\":12641:12647   */\n      dup3\n        /* \"#utility.yul\":12621:12654   */\n      tag_417\n      jump\t// in\n    tag_416:\n        /* \"#utility.yul\":12531:12660   */\n      swap2\n      swap1\n      pop\n      jump\t// out\n        /* \"#utility.yul\":12666:12741   */\n    tag_415:\n        /* \"#utility.yul\":12699:12705   */\n      0x00\n        /* \"#utility.yul\":12732:12734   */\n      0x40\n        /* \"#utility.yul\":12726:12735   */\n      mload\n        /* \"#utility.yul\":12716:12735   */\n      swap1\n      pop\n        /* \"#utility.yul\":12666:12741   */\n      swap1\n      jump\t// out\n        /* \"#utility.yul\":12747:13058   */\n    tag_269:\n        /* \"#utility.yul\":12824:12828   */\n      0x00\n        /* \"#utility.yul\":12914:12932   */\n      0xffffffffffffffff\n        /* \"#utility.yul\":12906:12912   */\n      dup3\n        /* \"#utility.yul\":12903:12933   */\n      gt\n        /* \"#utility.yul\":12900:12956   */\n      iszero\n      tag_420\n      jumpi\n        /* \"#utility.yul\":12936:12954   */\n      tag_421\n      tag_99\n      jump\t// in\n    tag_421:\n        /* \"#utility.yul\":12900:12956   */\n    tag_420:\n        /* \"#utility.yul\":12986:12990   */\n      0x20\n        /* \"#utility.yul\":12978:12984   */\n      dup3\n        /* \"#utility.yul\":12974:12991   */\n      mul\n        /* \"#utility.yul\":12966:12991   */\n      swap1\n      pop\n        /* \"#utility.yul\":13046:13050   */\n      0x20\n        /* \"#utility.yul\":13040:13044   */\n      dup2\n        /* \"#utility.yul\":13036:13051   */\n      add\n        /* \"#utility.yul\":13028:13051   */\n      swap1\n      pop\n        /* \"#utility.yul\":12747:13058   */\n      swap2\n      swap1\n      pop\n      jump\t// out\n        /* \"#utility.yul\":13064:13196   */\n    tag_315:\n        /* \"#utility.yul\":13131:13135   */\n      0x00\n        /* \"#utility.yul\":13154:13157   */\n      dup2\n        /* \"#utility.yul\":13146:13157   */\n      swap1\n      pop\n        /* \"#utility.yul\":13184:13188   */\n      0x20\n        /* \"#utility.yul\":13179:13182   */\n      dup3\n        /* \"#utility.yul\":13175:13189   */\n      add\n        /* \"#utility.yul\":13167:13189   */\n      swap1\n      pop\n        /* \"#utility.yul\":13064:13196   */\n      swap2\n      swap1\n      pop\n      jump\t// out\n        /* \"#utility.yul\":13202:13316   */\n    tag_311:\n        /* \"#utility.yul\":13269:13275   */\n      0x00\n        /* \"#utility.yul\":13303:13308   */\n      dup2\n        /* \"#utility.yul\":13297:13309   */\n      mload\n        /* \"#utility.yul\":13287:13309   */\n      swap1\n      pop\n        /* \"#utility.yul\":13202:13316   */\n      swap2\n      swap1\n      pop\n      jump\t// out\n        /* \"#utility.yul\":13322:13435   */\n    tag_321:\n        /* \"#utility.yul\":13392:13396   */\n      0x00\n        /* \"#utility.yul\":13424:13428   */\n      0x20\n        /* \"#utility.yul\":13419:13422   */\n      dup3\n        /* \"#utility.yul\":13415:13429   */\n      add\n        /* \"#utility.yul\":13407:13429   */\n      swap1\n      pop\n        /* \"#utility.yul\":13322:13435   */\n      swap2\n      swap1\n      pop\n      jump\t// out\n        /* \"#utility.yul\":13441:13625   */\n    tag_313:\n        /* \"#utility.yul\":13540:13551   */\n      0x00\n        /* \"#utility.yul\":13574:13580   */\n      dup3\n        /* \"#utility.yul\":13569:13572   */\n      dup3\n        /* \"#utility.yul\":13562:13581   */\n      mstore\n        /* \"#utility.yul\":13614:13618   */\n      0x20\n        /* \"#utility.yul\":13609:13612   */\n      dup3\n        /* \"#utility.yul\":13605:13619   */\n      add\n        /* \"#utility.yul\":13590:13619   */\n      swap1\n      pop\n        /* \"#utility.yul\":13441:13625   */\n      swap3\n      swap2\n      pop\n      pop\n      jump\t// out\n        /* \"#utility.yul\":13631:13800   */\n    tag_329:\n        /* \"#utility.yul\":13715:13726   */\n      0x00\n        /* \"#utility.yul\":13749:13755   */\n      dup3\n        /* \"#utility.yul\":13744:13747   */\n      dup3\n        /* \"#utility.yul\":13737:13756   */\n      mstore\n        /* \"#utility.yul\":13789:13793   */\n      0x20\n        /* \"#utility.yul\":13784:13787   */\n      dup3\n        /* \"#utility.yul\":13780:13794   */\n      add\n        /* \"#utility.yul\":13765:13794   */\n      swap1\n      pop\n        /* \"#utility.yul\":13631:13800   */\n      swap3\n      swap2\n      pop\n      pop\n      jump\t// out\n        /* \"#utility.yul\":13806:14111   */\n    tag_169:\n        /* \"#utility.yul\":13846:13849   */\n      0x00\n        /* \"#utility.yul\":13865:13885   */\n      tag_428\n        /* \"#utility.yul\":13883:13884   */\n      dup3\n        /* \"#utility.yul\":13865:13885   */\n      tag_374\n      jump\t// in\n    tag_428:\n        /* \"#utility.yul\":13860:13885   */\n      swap2\n      pop\n        /* \"#utility.yul\":13899:13919   */\n      tag_429\n        /* \"#utility.yul\":13917:13918   */\n      dup4\n        /* \"#utility.yul\":13899:13919   */\n      tag_374\n      jump\t// in\n    tag_429:\n        /* \"#utility.yul\":13894:13919   */\n      swap3\n      pop\n        /* \"#utility.yul\":14053:14054   */\n      dup3\n        /* \"#utility.yul\":13985:14051   */\n      0xffffffffffffffffffffffffffffffffffffffffffffffffffffffffffffffff\n        /* \"#utility.yul\":13981:14055   */\n      sub\n        /* \"#utility.yul\":13978:13979   */\n      dup3\n        /* \"#utility.yul\":13975:14056   */\n      gt\n        /* \"#utility.yul\":13972:14079   */\n      iszero\n      tag_430\n      jumpi\n        /* \"#utility.yul\":14059:14077   */\n      tag_431\n      tag_432\n      jump\t// in\n    tag_431:\n        /* \"#utility.yul\":13972:14079   */\n    tag_430:\n        /* \"#utility.yul\":14103:14104   */\n      dup3\n        /* \"#utility.yul\":14100:14101   */\n      dup3\n        /* \"#utility.yul\":14096:14105   */\n      add\n        /* \"#utility.yul\":14089:14105   */\n      swap1\n      pop\n        /* \"#utility.yul\":13806:14111   */\n      swap3\n      swap2\n      pop\n      pop\n      jump\t// out\n        /* \"#utility.yul\":14117:14302   */\n    tag_175:\n        /* \"#utility.yul\":14157:14158   */\n      0x00\n        /* \"#utility.yul\":14174:14194   */\n      tag_434\n        /* \"#utility.yul\":14192:14193   */\n      dup3\n        /* \"#utility.yul\":14174:14194   */\n      tag_374\n      jump\t// in\n    tag_434:\n        /* \"#utility.yul\":14169:14194   */\n      swap2\n      pop\n        /* \"#utility.yul\":14208:14228   */\n      tag_435\n        /* \"#utility.yul\":14226:14227   */\n      dup4\n        /* \"#utility.yul\":14208:14228   */\n      tag_374\n      jump\t// in\n    tag_435:\n        /* \"#utility.yul\":14203:14228   */\n      swap3\n      pop\n        /* \"#utility.yul\":14247:14248   */\n      dup3\n        /* \"#utility.yul\":14237:14272   */\n      tag_436\n      jumpi\n        /* \"#utility.yul\":14252:14270   */\n      tag_437\n      tag_438\n      jump\t// in\n    tag_437:\n        /* \"#utility.yul\":14237:14272   */\n    tag_436:\n        /* \"#utility.yul\":14294:14295   */\n      dup3\n        /* \"#utility.yul\":14291:14292   */\n      dup3\n        /* \"#utility.yul\":14287:14296   */\n      div\n        /* \"#utility.yul\":14282:14296   */\n      swap1\n      pop\n        /* \"#utility.yul\":14117:14302   */\n      swap3\n      swap2\n      pop\n      pop\n      jump\t// out\n        /* \"#utility.yul\":14308:14656   */\n    tag_125:\n        /* \"#utility.yul\":14348:14355   */\n      0x00\n        /* \"#utility.yul\":14371:14391   */\n      tag_440\n        /* \"#utility.yul\":14389:14390   */\n      dup3\n        /* \"#utility.yul\":14371:14391   */\n      tag_374\n      jump\t// in\n    tag_440:\n        /* \"#utility.yul\":14366:14391   */\n      swap2\n      pop\n        /* \"#utility.yul\":14405:14425   */\n      tag_441\n        /* \"#utility.yul\":14423:14424   */\n      dup4\n        /* \"#utility.yul\":14405:14425   */\n      tag_374\n      jump\t// in\n    tag_441:\n        /* \"#utility.yul\":14400:14425   */\n      swap3\n      pop\n        /* \"#utility.yul\":14593:14594   */\n      dup2\n        /* \"#utility.yul\":14525:14591   */\n      0xffffffffffffffffffffffffffffffffffffffffffffffffffffffffffffffff\n        /* \"#utility.yul\":14521:14595   */\n      div\n        /* \"#utility.yul\":14518:14519   */\n      dup4\n        /* \"#utility.yul\":14515:14596   */\n      gt\n        /* \"#utility.yul\":14510:14511   */\n      dup3\n        /* \"#utility.yul\":14503:14512   */\n      iszero\n        /* \"#utility.yul\":14496:14513   */\n      iszero\n        /* \"#utility.yul\":14492:14597   */\n      and\n        /* \"#utility.yul\":14489:14620   */\n      iszero\n      tag_442\n      jumpi\n        /* \"#utility.yul\":14600:14618   */\n      tag_443\n      tag_432\n      jump\t// in\n    tag_443:\n        /* \"#utility.yul\":14489:14620   */\n    tag_442:\n        /* \"#utility.yul\":14648:14649   */\n      dup3\n        /* \"#utility.yul\":14645:14646   */\n      dup3\n        /* \"#utility.yul\":14641:14650   */\n      mul\n        /* \"#utility.yul\":14630:14650   */\n      swap1\n      pop\n        /* \"#utility.yul\":14308:14656   */\n      swap3\n      swap2\n      pop\n      pop\n      jump\t// out\n        /* \"#utility.yul\":14662:14853   */\n    tag_245:\n        /* \"#utility.yul\":14702:14706   */\n      0x00\n        /* \"#utility.yul\":14722:14742   */\n      tag_445\n        /* \"#utility.yul\":14740:14741   */\n      dup3\n        /* \"#utility.yul\":14722:14742   */\n      tag_374\n      jump\t// in\n    tag_445:\n        /* \"#utility.yul\":14717:14742   */\n      swap2\n      pop\n        /* \"#utility.yul\":14756:14776   */\n      tag_446\n        /* \"#utility.yul\":14774:14775   */\n      dup4\n        /* \"#utility.yul\":14756:14776   */\n      tag_374\n      jump\t// in\n    tag_446:\n        /* \"#utility.yul\":14751:14776   */\n      swap3\n      pop\n        /* \"#utility.yul\":14795:14796   */\n      dup3\n        /* \"#utility.yul\":14792:14793   */\n      dup3\n        /* \"#utility.yul\":14789:14797   */\n      lt\n        /* \"#utility.yul\":14786:14820   */\n      iszero\n      tag_447\n      jumpi\n        /* \"#utility.yul\":14800:14818   */\n      tag_448\n      tag_432\n      jump\t// in\n    tag_448:\n        /* \"#utility.yul\":14786:14820   */\n    tag_447:\n        /* \"#utility.yul\":14845:14846   */\n      dup3\n        /* \"#utility.yul\":14842:14843   */\n      dup3\n        /* \"#utility.yul\":14838:14847   */\n      sub\n        /* \"#utility.yul\":14830:14847   */\n      swap1\n      pop\n        /* \"#utility.yul\":14662:14853   */\n      swap3\n      swap2\n      pop\n      pop\n      jump\t// out\n        /* \"#utility.yul\":14859:14955   */\n    tag_307:\n        /* \"#utility.yul\":14896:14903   */\n      0x00\n        /* \"#utility.yul\":14925:14949   */\n      tag_450\n        /* \"#utility.yul\":14943:14948   */\n      dup3\n        /* \"#utility.yul\":14925:14949   */\n      tag_451\n      jump\t// in\n    tag_450:\n        /* \"#utility.yul\":14914:14949   */\n      swap1\n      pop\n        /* \"#utility.yul\":14859:14955   */\n      swap2\n      swap1\n      pop\n      jump\t// out\n        /* \"#utility.yul\":14961:15051   */\n    tag_325:\n        /* \"#utility.yul\":14995:15002   */\n      0x00\n        /* \"#utility.yul\":15038:15043   */\n      dup2\n        /* \"#utility.yul\":15031:15044   */\n      iszero\n        /* \"#utility.yul\":15024:15045   */\n      iszero\n        /* \"#utility.yul\":15013:15045   */\n      swap1\n      pop\n        /* \"#utility.yul\":14961:15051   */\n      swap2\n      swap1\n      pop\n      jump\t// out\n        /* \"#utility.yul\":15057:15183   */\n    tag_451:\n        /* \"#utility.yul\":15094:15101   */\n      0x00\n        /* \"#utility.yul\":15134:15176   */\n      0xffffffffffffffffffffffffffffffffffffffff\n        /* \"#utility.yul\":15127:15132   */\n      dup3\n        /* \"#utility.yul\":15123:15177   */\n      and\n        /* \"#utility.yul\":15112:15177   */\n      swap1\n      pop\n        /* \"#utility.yul\":15057:15183   */\n      swap2\n      swap1\n      pop\n      jump\t// out\n        /* \"#utility.yul\":15189:15266   */\n    tag_374:\n        /* \"#utility.yul\":15226:15233   */\n      0x00\n        /* \"#utility.yul\":15255:15260   */\n      dup2\n        /* \"#utility.yul\":15244:15260   */\n      swap1\n      pop\n        /* \"#utility.yul\":15189:15266   */\n      swap2\n      swap1\n      pop\n      jump\t// out\n        /* \"#utility.yul\":15272:15553   */\n    tag_417:\n        /* \"#utility.yul\":15355:15382   */\n      tag_456\n        /* \"#utility.yul\":15377:15381   */\n      dup3\n        /* \"#utility.yul\":15355:15382   */\n      tag_457\n      jump\t// in\n    tag_456:\n        /* \"#utility.yul\":15347:15353   */\n      dup2\n        /* \"#utility.yul\":15343:15383   */\n      add\n        /* \"#utility.yul\":15485:15491   */\n      dup2\n        /* \"#utility.yul\":15473:15483   */\n      dup2\n        /* \"#utility.yul\":15470:15492   */\n      lt\n        /* \"#utility.yul\":15449:15467   */\n      0xffffffffffffffff\n        /* \"#utility.yul\":15437:15447   */\n      dup3\n        /* \"#utility.yul\":15434:15468   */\n      gt\n        /* \"#utility.yul\":15431:15493   */\n      or\n        /* \"#utility.yul\":15428:15516   */\n      iszero\n      tag_458\n      jumpi\n        /* \"#utility.yul\":15496:15514   */\n      tag_459\n      tag_99\n      jump\t// in\n    tag_459:\n        /* \"#utility.yul\":15428:15516   */\n    tag_458:\n        /* \"#utility.yul\":15536:15546   */\n      dup1\n        /* \"#utility.yul\":15532:15534   */\n      0x40\n        /* \"#utility.yul\":15525:15547   */\n      mstore\n        /* \"#utility.yul\":15315:15553   */\n      pop\n        /* \"#utility.yul\":15272:15553   */\n      pop\n      pop\n      jump\t// out\n        /* \"#utility.yul\":15559:15792   */\n    tag_116:\n        /* \"#utility.yul\":15598:15601   */\n      0x00\n        /* \"#utility.yul\":15621:15645   */\n      tag_461\n        /* \"#utility.yul\":15639:15644   */\n      dup3\n        /* \"#utility.yul\":15621:15645   */\n      tag_374\n      jump\t// in\n    tag_461:\n        /* \"#utility.yul\":15612:15645   */\n      swap2\n      pop\n        /* \"#utility.yul\":15667:15733   */\n      0xffffffffffffffffffffffffffffffffffffffffffffffffffffffffffffffff\n        /* \"#utility.yul\":15660:15665   */\n      dup3\n        /* \"#utility.yul\":15657:15734   */\n      eq\n        /* \"#utility.yul\":15654:15757   */\n      iszero\n      tag_462\n      jumpi\n        /* \"#utility.yul\":15737:15755   */\n      tag_463\n      tag_432\n      jump\t// in\n    tag_463:\n        /* \"#utility.yul\":15654:15757   */\n    tag_462:\n        /* \"#utility.yul\":15784:15785   */\n      0x01\n        /* \"#utility.yul\":15777:15782   */\n      dup3\n        /* \"#utility.yul\":15773:15786   */\n      add\n        /* \"#utility.yul\":15766:15786   */\n      swap1\n      pop\n        /* \"#utility.yul\":15559:15792   */\n      swap2\n      swap1\n      pop\n      jump\t// out\n        /* \"#utility.yul\":15798:15877   */\n    tag_382:\n        /* \"#utility.yul\":15837:15844   */\n      0x00\n        /* \"#utility.yul\":15866:15871   */\n      dup2\n        /* \"#utility.yul\":15855:15871   */\n      swap1\n      pop\n        /* \"#utility.yul\":15798:15877   */\n      swap2\n      swap1\n      pop\n      jump\t// out\n        /* \"#utility.yul\":15883:16059   */\n    tag_109:\n        /* \"#utility.yul\":15915:15916   */\n      0x00\n        /* \"#utility.yul\":15932:15952   */\n      tag_466\n        /* \"#utility.yul\":15950:15951   */\n      dup3\n        /* \"#utility.yul\":15932:15952   */\n      tag_374\n      jump\t// in\n    tag_466:\n        /* \"#utility.yul\":15927:15952   */\n      swap2\n      pop\n        /* \"#utility.yul\":15966:15986   */\n      tag_467\n        /* \"#utility.yul\":15984:15985   */\n      dup4\n        /* \"#utility.yul\":15966:15986   */\n      tag_374\n      jump\t// in\n    tag_467:\n        /* \"#utility.yul\":15961:15986   */\n      swap3\n      pop\n        /* \"#utility.yul\":16005:16006   */\n      dup3\n        /* \"#utility.yul\":15995:16030   */\n      tag_468\n      jumpi\n        /* \"#utility.yul\":16010:16028   */\n      tag_469\n      tag_438\n      jump\t// in\n    tag_469:\n        /* \"#utility.yul\":15995:16030   */\n    tag_468:\n        /* \"#utility.yul\":16051:16052   */\n      dup3\n        /* \"#utility.yul\":16048:16049   */\n      dup3\n        /* \"#utility.yul\":16044:16053   */\n      mod\n        /* \"#utility.yul\":16039:16053   */\n      swap1\n      pop\n        /* \"#utility.yul\":15883:16059   */\n      swap3\n      swap2\n      pop\n      pop\n      jump\t// out\n        /* \"#utility.yul\":16065:16245   */\n    tag_432:\n        /* \"#utility.yul\":16113:16190   */\n      0x4e487b7100000000000000000000000000000000000000000000000000000000\n        /* \"#utility.yul\":16110:16111   */\n      0x00\n        /* \"#utility.yul\":16103:16191   */\n      mstore\n        /* \"#utility.yul\":16210:16214   */\n      0x11\n        /* \"#utility.yul\":16207:16208   */\n      0x04\n        /* \"#utility.yul\":16200:16215   */\n      mstore\n        /* \"#utility.yul\":16234:16238   */\n      0x24\n        /* \"#utility.yul\":16231:16232   */\n      0x00\n        /* \"#utility.yul\":16224:16239   */\n      revert\n        /* \"#utility.yul\":16251:16431   */\n    tag_438:\n        /* \"#utility.yul\":16299:16376   */\n      0x4e487b7100000000000000000000000000000000000000000000000000000000\n        /* \"#utility.yul\":16296:16297   */\n      0x00\n        /* \"#utility.yul\":16289:16377   */\n      mstore\n        /* \"#utility.yul\":16396:16400   */\n      0x12\n        /* \"#utility.yul\":16393:16394   */\n      0x04\n        /* \"#utility.yul\":16386:16401   */\n      mstore\n        /* \"#utility.yul\":16420:16424   */\n      0x24\n        /* \"#utility.yul\":16417:16418   */\n      0x00\n        /* \"#utility.yul\":16410:16425   */\n      revert\n        /* \"#utility.yul\":16437:16617   */\n    tag_113:\n        /* \"#utility.yul\":16485:16562   */\n      0x4e487b7100000000000000000000000000000000000000000000000000000000\n        /* \"#utility.yul\":16482:16483   */\n      0x00\n        /* \"#utility.yul\":16475:16563   */\n      mstore\n        /* \"#utility.yul\":16582:16586   */\n      0x32\n        /* \"#utility.yul\":16579:16580   */\n      0x04\n        /* \"#utility.yul\":16572:16587   */\n      mstore\n        /* \"#utility.yul\":16606:16610   */\n      0x24\n        /* \"#utility.yul\":16603:16604   */\n      0x00\n        /* \"#utility.yul\":16596:16611   */\n      revert\n        /* \"#utility.yul\":16623:16803   */\n    tag_99:\n        /* \"#utility.yul\":16671:16748   */\n      0x4e487b7100000000000000000000000000000000000000000000000000000000\n        /* \"#utility.yul\":16668:16669   */\n      0x00\n        /* \"#utility.yul\":16661:16749   */\n      mstore\n        /* \"#utility.yul\":16768:16772   */\n      0x41\n        /* \"#utility.yul\":16765:16766   */\n      0x04\n        /* \"#utility.yul\":16758:16773   */\n      mstore\n        /* \"#utility.yul\":16792:16796   */\n      0x24\n        /* \"#utility.yul\":16789:16790   */\n      0x00\n        /* \"#utility.yul\":16782:16797   */\n      revert\n        /* \"#utility.yul\":16809:16926   */\n    tag_283:\n        /* \"#utility.yul\":16918:16919   */\n      0x00\n        /* \"#utility.yul\":16915:16916   */\n      dup1\n        /* \"#utility.yul\":16908:16920   */\n      revert\n        /* \"#utility.yul\":16932:17049   */\n    tag_273:\n        /* \"#utility.yul\":17041:17042   */\n      0x00\n        /* \"#utility.yul\":17038:17039   */\n      dup1\n        /* \"#utility.yul\":17031:17043   */\n      revert\n        /* \"#utility.yul\":17055:17172   */\n    tag_294:\n        /* \"#utility.yul\":17164:17165   */\n      0x00\n        /* \"#utility.yul\":17161:17162   */\n      dup1\n        /* \"#utility.yul\":17154:17166   */\n      revert\n        /* \"#utility.yul\":17178:17295   */\n    tag_291:\n        /* \"#utility.yul\":17287:17288   */\n      0x00\n        /* \"#utility.yul\":17284:17285   */\n      dup1\n        /* \"#utility.yul\":17277:17289   */\n      revert\n        /* \"#utility.yul\":17301:17403   */\n    tag_457:\n        /* \"#utility.yul\":17342:17348   */\n      0x00\n        /* \"#utility.yul\":17393:17395   */\n      0x1f\n        /* \"#utility.yul\":17389:17396   */\n      not\n        /* \"#utility.yul\":17384:17386   */\n      0x1f\n        /* \"#utility.yul\":17377:17382   */\n      dup4\n        /* \"#utility.yul\":17373:17387   */\n      add\n        /* \"#utility.yul\":17369:17397   */\n      and\n        /* \"#utility.yul\":17359:17397   */\n      swap1\n      pop\n        /* \"#utility.yul\":17301:17403   */\n      swap2\n      swap1\n      pop\n      jump\t// out\n        /* \"#utility.yul\":17409:17579   */\n    tag_331:\n        /* \"#utility.yul\":17549:17571   */\n      0x4e6f20457468657220746f2070756c6c206f7574000000000000000000000000\n        /* \"#utility.yul\":17545:17546   */\n      0x00\n        /* \"#utility.yul\":17537:17543   */\n      dup3\n        /* \"#utility.yul\":17533:17547   */\n      add\n        /* \"#utility.yul\":17526:17572   */\n      mstore\n        /* \"#utility.yul\":17409:17579   */\n      pop\n      jump\t// out\n        /* \"#utility.yul\":17585:17752   */\n    tag_336:\n        /* \"#utility.yul\":17725:17744   */\n      0x4e6f207469636b65742077617320626f75000000000000000000000000000000\n        /* \"#utility.yul\":17721:17722   */\n      0x00\n        /* \"#utility.yul\":17713:17719   */\n      dup3\n        /* \"#utility.yul\":17709:17723   */\n      add\n        /* \"#utility.yul\":17702:17745   */\n      mstore\n        /* \"#utility.yul\":17585:17752   */\n      pop\n      jump\t// out\n        /* \"#utility.yul\":17758:17940   */\n    tag_341:\n        /* \"#utility.yul\":17898:17932   */\n      0x596f75206861766520616c726561647920626f756768742061207469636b6574\n        /* \"#utility.yul\":17894:17895   */\n      0x00\n        /* \"#utility.yul\":17886:17892   */\n      dup3\n        /* \"#utility.yul\":17882:17896   */\n      add\n        /* \"#utility.yul\":17875:17933   */\n      mstore\n        /* \"#utility.yul\":17758:17940   */\n      pop\n      jump\t// out\n        /* \"#utility.yul\":17946:18171   */\n    tag_346:\n        /* \"#utility.yul\":18086:18120   */\n      0x4f6e6c7920746865206f776e65722063616e20706572666f726d207468697320\n        /* \"#utility.yul\":18082:18083   */\n      0x00\n        /* \"#utility.yul\":18074:18080   */\n      dup3\n        /* \"#utility.yul\":18070:18084   */\n      add\n        /* \"#utility.yul\":18063:18121   */\n      mstore\n        /* \"#utility.yul\":18155:18163   */\n      0x616374696f6e0000000000000000000000000000000000000000000000000000\n        /* \"#utility.yul\":18150:18152   */\n      0x20\n        /* \"#utility.yul\":18142:18148   */\n      dup3\n        /* \"#utility.yul\":18138:18153   */\n      add\n        /* \"#utility.yul\":18131:18164   */\n      mstore\n        /* \"#utility.yul\":17946:18171   */\n      pop\n      jump\t// out\n        /* \"#utility.yul\":18177:18348   */\n    tag_351:\n        /* \"#utility.yul\":18317:18340   */\n      0x4e6f206c6f74746572792069732072756e6e696e670000000000000000000000\n        /* \"#utility.yul\":18313:18314   */\n      0x00\n        /* \"#utility.yul\":18305:18311   */\n      dup3\n        /* \"#utility.yul\":18301:18315   */\n      add\n        /* \"#utility.yul\":18294:18341   */\n      mstore\n        /* \"#utility.yul\":18177:18348   */\n      pop\n      jump\t// out\n        /* \"#utility.yul\":18354:18516   */\n    tag_356:\n        /* \"#utility.yul\":18494:18508   */\n      0x57726f6e67206e756d6265720000000000000000000000000000000000000000\n        /* \"#utility.yul\":18490:18491   */\n      0x00\n        /* \"#utility.yul\":18482:18488   */\n      dup3\n        /* \"#utility.yul\":18478:18492   */\n      add\n        /* \"#utility.yul\":18471:18509   */\n      mstore\n        /* \"#utility.yul\":18354:18516   */\n      pop\n      jump\t// out\n        /* \"#utility.yul\":18522:18695   */\n    tag_361:\n        /* \"#utility.yul\":18662:18687   */\n      0x57726f6e67206e756d626572206f66206e756d62657273000000000000000000\n        /* \"#utility.yul\":18658:18659   */\n      0x00\n        /* \"#utility.yul\":18650:18656   */\n      dup3\n        /* \"#utility.yul\":18646:18660   */\n      add\n        /* \"#utility.yul\":18639:18688   */\n      mstore\n        /* \"#utility.yul\":18522:18695   */\n      pop\n      jump\t// out\n        /* \"#utility.yul\":18701:18871   */\n    tag_366:\n        /* \"#utility.yul\":18841:18863   */\n      0x41206c6f74746572792069732072756e6e696e67000000000000000000000000\n        /* \"#utility.yul\":18837:18838   */\n      0x00\n        /* \"#utility.yul\":18829:18835   */\n      dup3\n        /* \"#utility.yul\":18825:18839   */\n      add\n        /* \"#utility.yul\":18818:18864   */\n      mstore\n        /* \"#utility.yul\":18701:18871   */\n      pop\n      jump\t// out\n        /* \"#utility.yul\":18877:19039   */\n    tag_371:\n        /* \"#utility.yul\":19017:19031   */\n      0x57726f6e6720616d6f756e740000000000000000000000000000000000000000\n        /* \"#utility.yul\":19013:19014   */\n      0x00\n        /* \"#utility.yul\":19005:19011   */\n      dup3\n        /* \"#utility.yul\":19001:19015   */\n      add\n        /* \"#utility.yul\":18994:19032   */\n      mstore\n        /* \"#utility.yul\":18877:19039   */\n      pop\n      jump\t// out\n        /* \"#utility.yul\":19045:19167   */\n    tag_287:\n        /* \"#utility.yul\":19118:19142   */\n      tag_489\n        /* \"#utility.yul\":19136:19141   */\n      dup2\n        /* \"#utility.yul\":19118:19142   */\n      tag_374\n      jump\t// in\n    tag_489:\n        /* \"#utility.yul\":19111:19116   */\n      dup2\n        /* \"#utility.yul\":19108:19143   */\n      eq\n        /* \"#utility.yul\":19098:19161   */\n      tag_490\n      jumpi\n        /* \"#utility.yul\":19157:19158   */\n      0x00\n        /* \"#utility.yul\":19154:19155   */\n      dup1\n        /* \"#utility.yul\":19147:19159   */\n      revert\n        /* \"#utility.yul\":19098:19161   */\n    tag_490:\n        /* \"#utility.yul\":19045:19167   */\n      pop\n      jump\t// out\n\n    auxdata: 0xa26469706673582212208aed6db0665082748687ec71c6689745ffbcce4158012bd9273b08b3de99c31a64736f6c63430008070033\n}\n",
				"bytecode": {
					"linkReferences": {},
					"object": "6080604052674563918244f4000060035560006005556000600760006101000a81548160ff02191690831515021790555034801561003c57600080fd5b50336000806101000a81548173ffffffffffffffffffffffffffffffffffffffff021916908373ffffffffffffffffffffffffffffffffffffffff160217905550611ef68061008c6000396000f3fe6080604052600436106100dd5760003560e01c806387bb7ae01161007f5780638da5cb5b116100595780638da5cb5b14610267578063a650fbab14610292578063b04a3f1c146102bd578063d386ea73146102d4576100dd565b806387bb7ae0146101e65780638a4a29c3146102115780638b0b9ed41461023c576100dd565b8063472016da116100bb578063472016da146101395780634efd7cca146101765780635a3811b91461019f578063716cac96146101ca576100dd565b806330daec49146100e257806336c1ec23146100f95780634630a0ee14610110575b600080fd5b3480156100ee57600080fd5b506100f76102ff565b005b34801561010557600080fd5b5061010e6104a2565b005b34801561011c57600080fd5b5061013760048036038101906101329190611583565b61069e565b005b34801561014557600080fd5b50610160600480360381019061015b9190611583565b61079f565b60405161016d91906117f1565b60405180910390f35b34801561018257600080fd5b5061019d6004803603810190610198919061153a565b6107de565b005b3480156101ab57600080fd5b506101b46108dc565b6040516101c1919061182e565b60405180910390f35b6101e460048036038101906101df919061153a565b6108ef565b005b3480156101f257600080fd5b506101fb610be3565b6040516102089190611969565b60405180910390f35b34801561021d57600080fd5b50610226610c56565b6040516102339190611969565b60405180910390f35b34801561024857600080fd5b50610251610cc9565b60405161025e919061180c565b60405180910390f35b34801561027357600080fd5b5061027c610e05565b60405161028991906117f1565b60405180910390f35b34801561029e57600080fd5b506102a7610e29565b6040516102b4919061180c565b60405180910390f35b3480156102c957600080fd5b506102d2610ebe565b005b3480156102e057600080fd5b506102e961136c565b6040516102f69190611969565b60405180910390f35b60008054906101000a900473ffffffffffffffffffffffffffffffffffffffff1673ffffffffffffffffffffffffffffffffffffffff163373ffffffffffffffffffffffffffffffffffffffff161461038d576040517f08c379a0000000000000000000000000000000000000000000000000000000008152600401610384906118a9565b60405180910390fd5b60001515600760009054906101000a900460ff161515146103e3576040517f08c379a00000000000000000000000000000000000000000000000000000000081526004016103da90611929565b60405180910390fd5b60008060009054906101000a900473ffffffffffffffffffffffffffffffffffffffff16905060006004541161044e576040517f08c379a000000000000000000000000000000000000000000000000000000000815260040161044590611849565b60405180910390fd5b8073ffffffffffffffffffffffffffffffffffffffff166108fc6004549081150290604051600060405180830381858888f19350505050158015610496573d6000803e3d6000fd5b50600060048190555050565b60008054906101000a900473ffffffffffffffffffffffffffffffffffffffff1673ffffffffffffffffffffffffffffffffffffffff163373ffffffffffffffffffffffffffffffffffffffff1614610530576040517f08c379a0000000000000000000000000000000000000000000000000000000008152600401610527906118a9565b60405180910390fd5b60001515600760009054906101000a900460ff16151514610586576040517f08c379a000000000000000000000000000000000000000000000000000000000815260040161057d90611929565b60405180910390fd5b6001600760006101000a81548160ff021916908315150217905550600667ffffffffffffffff8111156105bc576105bb611cbe565b5b6040519080825280602002602001820160405280156105ea5781602001602082028036833780820191505090505b5060019080519060200190610600929190611372565b506000805b600681101561069a576000600a444284604051602001610627939291906117b4565b6040516020818303038152906040528051906020012060001c61064a9190611c00565b90506000811461068657806001848154811061066957610668611c8f565b5b9060005260206000200181905550828061068290611bad565b9350505b50808061069290611bad565b915050610605565b5050565b60008054906101000a900473ffffffffffffffffffffffffffffffffffffffff1673ffffffffffffffffffffffffffffffffffffffff163373ffffffffffffffffffffffffffffffffffffffff161461072c576040517f08c379a0000000000000000000000000000000000000000000000000000000008152600401610723906118a9565b60405180910390fd5b60001515600760009054906101000a900460ff16151514610782576040517f08c379a000000000000000000000000000000000000000000000000000000000815260040161077990611929565b60405180910390fd5b670de0b6b3a7640000816107969190611aa6565b60038190555050565b600681815481106107af57600080fd5b906000526020600020016000915054906101000a900473ffffffffffffffffffffffffffffffffffffffff1681565b60008054906101000a900473ffffffffffffffffffffffffffffffffffffffff1673ffffffffffffffffffffffffffffffffffffffff163373ffffffffffffffffffffffffffffffffffffffff161461086c576040517f08c379a0000000000000000000000000000000000000000000000000000000008152600401610863906118a9565b60405180910390fd5b600681511461087a57600080fd5b60005b81518110156108c157600982828151811061089b5761089a611c8f565b5b602002602001015111156108ae57600080fd5b80806108b990611bad565b91505061087d565b5080600190805190602001906108d8929190611372565b5050565b600760009054906101000a900460ff1681565b60011515600760009054906101000a900460ff16151514610945576040517f08c379a000000000000000000000000000000000000000000000000000000000815260040161093c906118c9565b60405180910390fd5b6003543414610989576040517f08c379a000000000000000000000000000000000000000000000000000000000815260040161098090611949565b60405180910390fd5b60068151146109cd576040517f08c379a00000000000000000000000000000000000000000000000000000000081526004016109c490611909565b60405180910390fd5b60005b8151811015610a7057600a8282815181106109ee576109ed611c8f565b5b6020026020010151108015610a1e57506000828281518110610a1357610a12611c8f565b5b602002602001015110155b610a5d576040517f08c379a0000000000000000000000000000000000000000000000000000000008152600401610a54906118e9565b60405180910390fd5b8080610a6890611bad565b9150506109d0565b506000600260003373ffffffffffffffffffffffffffffffffffffffff1673ffffffffffffffffffffffffffffffffffffffff1681526020019081526020016000208054905014610af6576040517f08c379a0000000000000000000000000000000000000000000000000000000008152600401610aed90611889565b60405180910390fd5b80600260003373ffffffffffffffffffffffffffffffffffffffff1673ffffffffffffffffffffffffffffffffffffffff1681526020019081526020016000209080519060200190610b49929190611372565b506006339080600181540180825580915050600190039060005260206000200160009091909190916101000a81548173ffffffffffffffffffffffffffffffffffffffff021916908373ffffffffffffffffffffffffffffffffffffffff1602179055503460046000828254610bbf9190611a1f565b92505081905550600160056000828254610bd99190611a1f565b9250508190555050565b600060011515600760009054906101000a900460ff16151514610c3b576040517f08c379a0000000000000000000000000000000000000000000000000000000008152600401610c32906118c9565b60405180910390fd5b670de0b6b3a7640000600354610c519190611a75565b905090565b600060011515600760009054906101000a900460ff16151514610cae576040517f08c379a0000000000000000000000000000000000000000000000000000000008152600401610ca5906118c9565b60405180910390fd5b670de0b6b3a7640000600454610cc49190611a75565b905090565b606060008054906101000a900473ffffffffffffffffffffffffffffffffffffffff1673ffffffffffffffffffffffffffffffffffffffff163373ffffffffffffffffffffffffffffffffffffffff1614610d59576040517f08c379a0000000000000000000000000000000000000000000000000000000008152600401610d50906118a9565b60405180910390fd5b60011515600760009054906101000a900460ff16151514610daf576040517f08c379a0000000000000000000000000000000000000000000000000000000008152600401610da6906118c9565b60405180910390fd5b6001805480602002602001604051908101604052809291908181526020018280548015610dfb57602002820191906000526020600020905b815481526020019060010190808311610de7575b5050505050905090565b60008054906101000a900473ffffffffffffffffffffffffffffffffffffffff1681565b6060600260003373ffffffffffffffffffffffffffffffffffffffff1673ffffffffffffffffffffffffffffffffffffffff168152602001908152602001600020805480602002602001604051908101604052809291908181526020018280548015610eb457602002820191906000526020600020905b815481526020019060010190808311610ea0575b5050505050905090565b60008054906101000a900473ffffffffffffffffffffffffffffffffffffffff1673ffffffffffffffffffffffffffffffffffffffff163373ffffffffffffffffffffffffffffffffffffffff1614610f4c576040517f08c379a0000000000000000000000000000000000000000000000000000000008152600401610f43906118a9565b60405180910390fd5b60011515600760009054906101000a900460ff16151514610fa2576040517f08c379a0000000000000000000000000000000000000000000000000000000008152600401610f99906118c9565b60405180910390fd5b600060055411610fe7576040517f08c379a0000000000000000000000000000000000000000000000000000000008152600401610fde90611869565b60405180910390fd5b600080600080600080600090505b6006805490508110156112c45760005b6001805490508110156110fc576001818154811061102657611025611c8f565b5b9060005260206000200154600260006006858154811061104957611048611c8f565b5b9060005260206000200160009054906101000a900473ffffffffffffffffffffffffffffffffffffffff1673ffffffffffffffffffffffffffffffffffffffff1673ffffffffffffffffffffffffffffffffffffffff16815260200190815260200160002082815481106110c0576110bf611c8f565b5b906000526020600020015414156110e45786806110dc90611bad565b9750506110e9565b6110fc565b80806110f490611bad565b915050611005565b50600260006006838154811061111557611114611c8f565b5b9060005260206000200160009054906101000a900473ffffffffffffffffffffffffffffffffffffffff1673ffffffffffffffffffffffffffffffffffffffff1673ffffffffffffffffffffffffffffffffffffffff168152602001908152602001600020600061118691906113bf565b600186141561119857600294506111f3565b60028614156111aa57600394506111f2565b60038614156111bc57600594506111f1565b60048614156111ce57600a94506111f0565b60058614156111e057601494506111ef565b60068614156111ee57602894505b5b5b5b5b5b6064856004546112039190611aa6565b61120d9190611a75565b9350838361121b9190611a1f565b92506006818154811061123157611230611c8f565b5b9060005260206000200160009054906101000a900473ffffffffffffffffffffffffffffffffffffffff1691508173ffffffffffffffffffffffffffffffffffffffff166108fc859081150290604051600060405180830381858888f193505050501580156112a4573d6000803e3d6000fd5b5060009550600094506000935080806112bc90611bad565b915050610ff5565b50600060058190555081600460008282546112df9190611b00565b92505081905550600067ffffffffffffffff81111561130157611300611cbe565b5b60405190808252806020026020018201604052801561132f5781602001602082028036833780820191505090505b50600690805190602001906113459291906113e0565b50600090506000600760006101000a81548160ff0219169083151502179055505050505050565b60055481565b8280548282559060005260206000209081019282156113ae579160200282015b828111156113ad578251825591602001919060010190611392565b5b5090506113bb919061146a565b5090565b50805460008255906000526020600020908101906113dd919061146a565b50565b828054828255906000526020600020908101928215611459579160200282015b828111156114585782518260006101000a81548173ffffffffffffffffffffffffffffffffffffffff021916908373ffffffffffffffffffffffffffffffffffffffff16021790555091602001919060010190611400565b5b509050611466919061146a565b5090565b5b8082111561148357600081600090555060010161146b565b5090565b600061149a611495846119a9565b611984565b905080838252602082019050828560208602820111156114bd576114bc611cf2565b5b60005b858110156114ed57816114d38882611525565b8452602084019350602083019250506001810190506114c0565b5050509392505050565b600082601f83011261150c5761150b611ced565b5b813561151c848260208601611487565b91505092915050565b60008135905061153481611ea9565b92915050565b6000602082840312156115505761154f611cfc565b5b600082013567ffffffffffffffff81111561156e5761156d611cf7565b5b61157a848285016114f7565b91505092915050565b60006020828403121561159957611598611cfc565b5b60006115a784828501611525565b91505092915050565b60006115bc838361177f565b60208301905092915050565b6115d181611b34565b82525050565b60006115e2826119e5565b6115ec81856119fd565b93506115f7836119d5565b8060005b8381101561162857815161160f88826115b0565b975061161a836119f0565b9250506001810190506115fb565b5085935050505092915050565b61163e81611b46565b82525050565b6000611651601483611a0e565b915061165c82611d12565b602082019050919050565b6000611674601183611a0e565b915061167f82611d3b565b602082019050919050565b6000611697602083611a0e565b91506116a282611d64565b602082019050919050565b60006116ba602683611a0e565b91506116c582611d8d565b604082019050919050565b60006116dd601583611a0e565b91506116e882611ddc565b602082019050919050565b6000611700600c83611a0e565b915061170b82611e05565b602082019050919050565b6000611723601783611a0e565b915061172e82611e2e565b602082019050919050565b6000611746601483611a0e565b915061175182611e57565b602082019050919050565b6000611769600c83611a0e565b915061177482611e80565b602082019050919050565b61178881611b72565b82525050565b61179781611b72565b82525050565b6117ae6117a982611b72565b611bf6565b82525050565b60006117c0828661179d565b6020820191506117d0828561179d565b6020820191506117e0828461179d565b602082019150819050949350505050565b600060208201905061180660008301846115c8565b92915050565b6000602082019050818103600083015261182681846115d7565b905092915050565b60006020820190506118436000830184611635565b92915050565b6000602082019050818103600083015261186281611644565b9050919050565b6000602082019050818103600083015261188281611667565b9050919050565b600060208201905081810360008301526118a28161168a565b9050919050565b600060208201905081810360008301526118c2816116ad565b9050919050565b600060208201905081810360008301526118e2816116d0565b9050919050565b60006020820190508181036000830152611902816116f3565b9050919050565b6000602082019050818103600083015261192281611716565b9050919050565b6000602082019050818103600083015261194281611739565b9050919050565b600060208201905081810360008301526119628161175c565b9050919050565b600060208201905061197e600083018461178e565b92915050565b600061198e61199f565b905061199a8282611b7c565b919050565b6000604051905090565b600067ffffffffffffffff8211156119c4576119c3611cbe565b5b602082029050602081019050919050565b6000819050602082019050919050565b600081519050919050565b6000602082019050919050565b600082825260208201905092915050565b600082825260208201905092915050565b6000611a2a82611b72565b9150611a3583611b72565b9250827fffffffffffffffffffffffffffffffffffffffffffffffffffffffffffffffff03821115611a6a57611a69611c31565b5b828201905092915050565b6000611a8082611b72565b9150611a8b83611b72565b925082611a9b57611a9a611c60565b5b828204905092915050565b6000611ab182611b72565b9150611abc83611b72565b9250817fffffffffffffffffffffffffffffffffffffffffffffffffffffffffffffffff0483118215151615611af557611af4611c31565b5b828202905092915050565b6000611b0b82611b72565b9150611b1683611b72565b925082821015611b2957611b28611c31565b5b828203905092915050565b6000611b3f82611b52565b9050919050565b60008115159050919050565b600073ffffffffffffffffffffffffffffffffffffffff82169050919050565b6000819050919050565b611b8582611d01565b810181811067ffffffffffffffff82111715611ba457611ba3611cbe565b5b80604052505050565b6000611bb882611b72565b91507fffffffffffffffffffffffffffffffffffffffffffffffffffffffffffffffff821415611beb57611bea611c31565b5b600182019050919050565b6000819050919050565b6000611c0b82611b72565b9150611c1683611b72565b925082611c2657611c25611c60565b5b828206905092915050565b7f4e487b7100000000000000000000000000000000000000000000000000000000600052601160045260246000fd5b7f4e487b7100000000000000000000000000000000000000000000000000000000600052601260045260246000fd5b7f4e487b7100000000000000000000000000000000000000000000000000000000600052603260045260246000fd5b7f4e487b7100000000000000000000000000000000000000000000000000000000600052604160045260246000fd5b600080fd5b600080fd5b600080fd5b600080fd5b6000601f19601f8301169050919050565b7f4e6f20457468657220746f2070756c6c206f7574000000000000000000000000600082015250565b7f4e6f207469636b65742077617320626f75000000000000000000000000000000600082015250565b7f596f75206861766520616c726561647920626f756768742061207469636b6574600082015250565b7f4f6e6c7920746865206f776e65722063616e20706572666f726d20746869732060008201527f616374696f6e0000000000000000000000000000000000000000000000000000602082015250565b7f4e6f206c6f74746572792069732072756e6e696e670000000000000000000000600082015250565b7f57726f6e67206e756d6265720000000000000000000000000000000000000000600082015250565b7f57726f6e67206e756d626572206f66206e756d62657273000000000000000000600082015250565b7f41206c6f74746572792069732072756e6e696e67000000000000000000000000600082015250565b7f57726f6e6720616d6f756e740000000000000000000000000000000000000000600082015250565b611eb281611b72565b8114611ebd57600080fd5b5056fea26469706673582212208aed6db0665082748687ec71c6689745ffbcce4158012bd9273b08b3de99c31a64736f6c63430008070033",
					"opcodes": "PUSH1 0x80 PUSH1 0x40 MSTORE PUSH8 0x4563918244F40000 PUSH1 0x3 SSTORE PUSH1 0x0 PUSH1 0x5 SSTORE PUSH1 0x0 PUSH1 0x7 PUSH1 0x0 PUSH2 0x100 EXP DUP2 SLOAD DUP2 PUSH1 0xFF MUL NOT AND SWAP1 DUP4 ISZERO ISZERO MUL OR SWAP1 SSTORE POP CALLVALUE DUP1 ISZERO PUSH2 0x3C JUMPI PUSH1 0x0 DUP1 REVERT JUMPDEST POP CALLER PUSH1 0x0 DUP1 PUSH2 0x100 EXP DUP2 SLOAD DUP2 PUSH20 0xFFFFFFFFFFFFFFFFFFFFFFFFFFFFFFFFFFFFFFFF MUL NOT AND SWAP1 DUP4 PUSH20 0xFFFFFFFFFFFFFFFFFFFFFFFFFFFFFFFFFFFFFFFF AND MUL OR SWAP1 SSTORE POP PUSH2 0x1EF6 DUP1 PUSH2 0x8C PUSH1 0x0 CODECOPY PUSH1 0x0 RETURN INVALID PUSH1 0x80 PUSH1 0x40 MSTORE PUSH1 0x4 CALLDATASIZE LT PUSH2 0xDD JUMPI PUSH1 0x0 CALLDATALOAD PUSH1 0xE0 SHR DUP1 PUSH4 0x87BB7AE0 GT PUSH2 0x7F JUMPI DUP1 PUSH4 0x8DA5CB5B GT PUSH2 0x59 JUMPI DUP1 PUSH4 0x8DA5CB5B EQ PUSH2 0x267 JUMPI DUP1 PUSH4 0xA650FBAB EQ PUSH2 0x292 JUMPI DUP1 PUSH4 0xB04A3F1C EQ PUSH2 0x2BD JUMPI DUP1 PUSH4 0xD386EA73 EQ PUSH2 0x2D4 JUMPI PUSH2 0xDD JUMP JUMPDEST DUP1 PUSH4 0x87BB7AE0 EQ PUSH2 0x1E6 JUMPI DUP1 PUSH4 0x8A4A29C3 EQ PUSH2 0x211 JUMPI DUP1 PUSH4 0x8B0B9ED4 EQ PUSH2 0x23C JUMPI PUSH2 0xDD JUMP JUMPDEST DUP1 PUSH4 0x472016DA GT PUSH2 0xBB JUMPI DUP1 PUSH4 0x472016DA EQ PUSH2 0x139 JUMPI DUP1 PUSH4 0x4EFD7CCA EQ PUSH2 0x176 JUMPI DUP1 PUSH4 0x5A3811B9 EQ PUSH2 0x19F JUMPI DUP1 PUSH4 0x716CAC96 EQ PUSH2 0x1CA JUMPI PUSH2 0xDD JUMP JUMPDEST DUP1 PUSH4 0x30DAEC49 EQ PUSH2 0xE2 JUMPI DUP1 PUSH4 0x36C1EC23 EQ PUSH2 0xF9 JUMPI DUP1 PUSH4 0x4630A0EE EQ PUSH2 0x110 JUMPI JUMPDEST PUSH1 0x0 DUP1 REVERT JUMPDEST CALLVALUE DUP1 ISZERO PUSH2 0xEE JUMPI PUSH1 0x0 DUP1 REVERT JUMPDEST POP PUSH2 0xF7 PUSH2 0x2FF JUMP JUMPDEST STOP JUMPDEST CALLVALUE DUP1 ISZERO PUSH2 0x105 JUMPI PUSH1 0x0 DUP1 REVERT JUMPDEST POP PUSH2 0x10E PUSH2 0x4A2 JUMP JUMPDEST STOP JUMPDEST CALLVALUE DUP1 ISZERO PUSH2 0x11C JUMPI PUSH1 0x0 DUP1 REVERT JUMPDEST POP PUSH2 0x137 PUSH1 0x4 DUP1 CALLDATASIZE SUB DUP2 ADD SWAP1 PUSH2 0x132 SWAP2 SWAP1 PUSH2 0x1583 JUMP JUMPDEST PUSH2 0x69E JUMP JUMPDEST STOP JUMPDEST CALLVALUE DUP1 ISZERO PUSH2 0x145 JUMPI PUSH1 0x0 DUP1 REVERT JUMPDEST POP PUSH2 0x160 PUSH1 0x4 DUP1 CALLDATASIZE SUB DUP2 ADD SWAP1 PUSH2 0x15B SWAP2 SWAP1 PUSH2 0x1583 JUMP JUMPDEST PUSH2 0x79F JUMP JUMPDEST PUSH1 0x40 MLOAD PUSH2 0x16D SWAP2 SWAP1 PUSH2 0x17F1 JUMP JUMPDEST PUSH1 0x40 MLOAD DUP1 SWAP2 SUB SWAP1 RETURN JUMPDEST CALLVALUE DUP1 ISZERO PUSH2 0x182 JUMPI PUSH1 0x0 DUP1 REVERT JUMPDEST POP PUSH2 0x19D PUSH1 0x4 DUP1 CALLDATASIZE SUB DUP2 ADD SWAP1 PUSH2 0x198 SWAP2 SWAP1 PUSH2 0x153A JUMP JUMPDEST PUSH2 0x7DE JUMP JUMPDEST STOP JUMPDEST CALLVALUE DUP1 ISZERO PUSH2 0x1AB JUMPI PUSH1 0x0 DUP1 REVERT JUMPDEST POP PUSH2 0x1B4 PUSH2 0x8DC JUMP JUMPDEST PUSH1 0x40 MLOAD PUSH2 0x1C1 SWAP2 SWAP1 PUSH2 0x182E JUMP JUMPDEST PUSH1 0x40 MLOAD DUP1 SWAP2 SUB SWAP1 RETURN JUMPDEST PUSH2 0x1E4 PUSH1 0x4 DUP1 CALLDATASIZE SUB DUP2 ADD SWAP1 PUSH2 0x1DF SWAP2 SWAP1 PUSH2 0x153A JUMP JUMPDEST PUSH2 0x8EF JUMP JUMPDEST STOP JUMPDEST CALLVALUE DUP1 ISZERO PUSH2 0x1F2 JUMPI PUSH1 0x0 DUP1 REVERT JUMPDEST POP PUSH2 0x1FB PUSH2 0xBE3 JUMP JUMPDEST PUSH1 0x40 MLOAD PUSH2 0x208 SWAP2 SWAP1 PUSH2 0x1969 JUMP JUMPDEST PUSH1 0x40 MLOAD DUP1 SWAP2 SUB SWAP1 RETURN JUMPDEST CALLVALUE DUP1 ISZERO PUSH2 0x21D JUMPI PUSH1 0x0 DUP1 REVERT JUMPDEST POP PUSH2 0x226 PUSH2 0xC56 JUMP JUMPDEST PUSH1 0x40 MLOAD PUSH2 0x233 SWAP2 SWAP1 PUSH2 0x1969 JUMP JUMPDEST PUSH1 0x40 MLOAD DUP1 SWAP2 SUB SWAP1 RETURN JUMPDEST CALLVALUE DUP1 ISZERO PUSH2 0x248 JUMPI PUSH1 0x0 DUP1 REVERT JUMPDEST POP PUSH2 0x251 PUSH2 0xCC9 JUMP JUMPDEST PUSH1 0x40 MLOAD PUSH2 0x25E SWAP2 SWAP1 PUSH2 0x180C JUMP JUMPDEST PUSH1 0x40 MLOAD DUP1 SWAP2 SUB SWAP1 RETURN JUMPDEST CALLVALUE DUP1 ISZERO PUSH2 0x273 JUMPI PUSH1 0x0 DUP1 REVERT JUMPDEST POP PUSH2 0x27C PUSH2 0xE05 JUMP JUMPDEST PUSH1 0x40 MLOAD PUSH2 0x289 SWAP2 SWAP1 PUSH2 0x17F1 JUMP JUMPDEST PUSH1 0x40 MLOAD DUP1 SWAP2 SUB SWAP1 RETURN JUMPDEST CALLVALUE DUP1 ISZERO PUSH2 0x29E JUMPI PUSH1 0x0 DUP1 REVERT JUMPDEST POP PUSH2 0x2A7 PUSH2 0xE29 JUMP JUMPDEST PUSH1 0x40 MLOAD PUSH2 0x2B4 SWAP2 SWAP1 PUSH2 0x180C JUMP JUMPDEST PUSH1 0x40 MLOAD DUP1 SWAP2 SUB SWAP1 RETURN JUMPDEST CALLVALUE DUP1 ISZERO PUSH2 0x2C9 JUMPI PUSH1 0x0 DUP1 REVERT JUMPDEST POP PUSH2 0x2D2 PUSH2 0xEBE JUMP JUMPDEST STOP JUMPDEST CALLVALUE DUP1 ISZERO PUSH2 0x2E0 JUMPI PUSH1 0x0 DUP1 REVERT JUMPDEST POP PUSH2 0x2E9 PUSH2 0x136C JUMP JUMPDEST PUSH1 0x40 MLOAD PUSH2 0x2F6 SWAP2 SWAP1 PUSH2 0x1969 JUMP JUMPDEST PUSH1 0x40 MLOAD DUP1 SWAP2 SUB SWAP1 RETURN JUMPDEST PUSH1 0x0 DUP1 SLOAD SWAP1 PUSH2 0x100 EXP SWAP1 DIV PUSH20 0xFFFFFFFFFFFFFFFFFFFFFFFFFFFFFFFFFFFFFFFF AND PUSH20 0xFFFFFFFFFFFFFFFFFFFFFFFFFFFFFFFFFFFFFFFF AND CALLER PUSH20 0xFFFFFFFFFFFFFFFFFFFFFFFFFFFFFFFFFFFFFFFF AND EQ PUSH2 0x38D JUMPI PUSH1 0x40 MLOAD PUSH32 0x8C379A000000000000000000000000000000000000000000000000000000000 DUP2 MSTORE PUSH1 0x4 ADD PUSH2 0x384 SWAP1 PUSH2 0x18A9 JUMP JUMPDEST PUSH1 0x40 MLOAD DUP1 SWAP2 SUB SWAP1 REVERT JUMPDEST PUSH1 0x0 ISZERO ISZERO PUSH1 0x7 PUSH1 0x0 SWAP1 SLOAD SWAP1 PUSH2 0x100 EXP SWAP1 DIV PUSH1 0xFF AND ISZERO ISZERO EQ PUSH2 0x3E3 JUMPI PUSH1 0x40 MLOAD PUSH32 0x8C379A000000000000000000000000000000000000000000000000000000000 DUP2 MSTORE PUSH1 0x4 ADD PUSH2 0x3DA SWAP1 PUSH2 0x1929 JUMP JUMPDEST PUSH1 0x40 MLOAD DUP1 SWAP2 SUB SWAP1 REVERT JUMPDEST PUSH1 0x0 DUP1 PUSH1 0x0 SWAP1 SLOAD SWAP1 PUSH2 0x100 EXP SWAP1 DIV PUSH20 0xFFFFFFFFFFFFFFFFFFFFFFFFFFFFFFFFFFFFFFFF AND SWAP1 POP PUSH1 0x0 PUSH1 0x4 SLOAD GT PUSH2 0x44E JUMPI PUSH1 0x40 MLOAD PUSH32 0x8C379A000000000000000000000000000000000000000000000000000000000 DUP2 MSTORE PUSH1 0x4 ADD PUSH2 0x445 SWAP1 PUSH2 0x1849 JUMP JUMPDEST PUSH1 0x40 MLOAD DUP1 SWAP2 SUB SWAP1 REVERT JUMPDEST DUP1 PUSH20 0xFFFFFFFFFFFFFFFFFFFFFFFFFFFFFFFFFFFFFFFF AND PUSH2 0x8FC PUSH1 0x4 SLOAD SWAP1 DUP2 ISZERO MUL SWAP1 PUSH1 0x40 MLOAD PUSH1 0x0 PUSH1 0x40 MLOAD DUP1 DUP4 SUB DUP2 DUP6 DUP9 DUP9 CALL SWAP4 POP POP POP POP ISZERO DUP1 ISZERO PUSH2 0x496 JUMPI RETURNDATASIZE PUSH1 0x0 DUP1 RETURNDATACOPY RETURNDATASIZE PUSH1 0x0 REVERT JUMPDEST POP PUSH1 0x0 PUSH1 0x4 DUP2 SWAP1 SSTORE POP POP JUMP JUMPDEST PUSH1 0x0 DUP1 SLOAD SWAP1 PUSH2 0x100 EXP SWAP1 DIV PUSH20 0xFFFFFFFFFFFFFFFFFFFFFFFFFFFFFFFFFFFFFFFF AND PUSH20 0xFFFFFFFFFFFFFFFFFFFFFFFFFFFFFFFFFFFFFFFF AND CALLER PUSH20 0xFFFFFFFFFFFFFFFFFFFFFFFFFFFFFFFFFFFFFFFF AND EQ PUSH2 0x530 JUMPI PUSH1 0x40 MLOAD PUSH32 0x8C379A000000000000000000000000000000000000000000000000000000000 DUP2 MSTORE PUSH1 0x4 ADD PUSH2 0x527 SWAP1 PUSH2 0x18A9 JUMP JUMPDEST PUSH1 0x40 MLOAD DUP1 SWAP2 SUB SWAP1 REVERT JUMPDEST PUSH1 0x0 ISZERO ISZERO PUSH1 0x7 PUSH1 0x0 SWAP1 SLOAD SWAP1 PUSH2 0x100 EXP SWAP1 DIV PUSH1 0xFF AND ISZERO ISZERO EQ PUSH2 0x586 JUMPI PUSH1 0x40 MLOAD PUSH32 0x8C379A000000000000000000000000000000000000000000000000000000000 DUP2 MSTORE PUSH1 0x4 ADD PUSH2 0x57D SWAP1 PUSH2 0x1929 JUMP JUMPDEST PUSH1 0x40 MLOAD DUP1 SWAP2 SUB SWAP1 REVERT JUMPDEST PUSH1 0x1 PUSH1 0x7 PUSH1 0x0 PUSH2 0x100 EXP DUP2 SLOAD DUP2 PUSH1 0xFF MUL NOT AND SWAP1 DUP4 ISZERO ISZERO MUL OR SWAP1 SSTORE POP PUSH1 0x6 PUSH8 0xFFFFFFFFFFFFFFFF DUP2 GT ISZERO PUSH2 0x5BC JUMPI PUSH2 0x5BB PUSH2 0x1CBE JUMP JUMPDEST JUMPDEST PUSH1 0x40 MLOAD SWAP1 DUP1 DUP3 MSTORE DUP1 PUSH1 0x20 MUL PUSH1 0x20 ADD DUP3 ADD PUSH1 0x40 MSTORE DUP1 ISZERO PUSH2 0x5EA JUMPI DUP2 PUSH1 0x20 ADD PUSH1 0x20 DUP3 MUL DUP1 CALLDATASIZE DUP4 CALLDATACOPY DUP1 DUP3 ADD SWAP2 POP POP SWAP1 POP JUMPDEST POP PUSH1 0x1 SWAP1 DUP1 MLOAD SWAP1 PUSH1 0x20 ADD SWAP1 PUSH2 0x600 SWAP3 SWAP2 SWAP1 PUSH2 0x1372 JUMP JUMPDEST POP PUSH1 0x0 DUP1 JUMPDEST PUSH1 0x6 DUP2 LT ISZERO PUSH2 0x69A JUMPI PUSH1 0x0 PUSH1 0xA DIFFICULTY TIMESTAMP DUP5 PUSH1 0x40 MLOAD PUSH1 0x20 ADD PUSH2 0x627 SWAP4 SWAP3 SWAP2 SWAP1 PUSH2 0x17B4 JUMP JUMPDEST PUSH1 0x40 MLOAD PUSH1 0x20 DUP2 DUP4 SUB SUB DUP2 MSTORE SWAP1 PUSH1 0x40 MSTORE DUP1 MLOAD SWAP1 PUSH1 0x20 ADD KECCAK256 PUSH1 0x0 SHR PUSH2 0x64A SWAP2 SWAP1 PUSH2 0x1C00 JUMP JUMPDEST SWAP1 POP PUSH1 0x0 DUP2 EQ PUSH2 0x686 JUMPI DUP1 PUSH1 0x1 DUP5 DUP2 SLOAD DUP2 LT PUSH2 0x669 JUMPI PUSH2 0x668 PUSH2 0x1C8F JUMP JUMPDEST JUMPDEST SWAP1 PUSH1 0x0 MSTORE PUSH1 0x20 PUSH1 0x0 KECCAK256 ADD DUP2 SWAP1 SSTORE POP DUP3 DUP1 PUSH2 0x682 SWAP1 PUSH2 0x1BAD JUMP JUMPDEST SWAP4 POP POP JUMPDEST POP DUP1 DUP1 PUSH2 0x692 SWAP1 PUSH2 0x1BAD JUMP JUMPDEST SWAP2 POP POP PUSH2 0x605 JUMP JUMPDEST POP POP JUMP JUMPDEST PUSH1 0x0 DUP1 SLOAD SWAP1 PUSH2 0x100 EXP SWAP1 DIV PUSH20 0xFFFFFFFFFFFFFFFFFFFFFFFFFFFFFFFFFFFFFFFF AND PUSH20 0xFFFFFFFFFFFFFFFFFFFFFFFFFFFFFFFFFFFFFFFF AND CALLER PUSH20 0xFFFFFFFFFFFFFFFFFFFFFFFFFFFFFFFFFFFFFFFF AND EQ PUSH2 0x72C JUMPI PUSH1 0x40 MLOAD PUSH32 0x8C379A000000000000000000000000000000000000000000000000000000000 DUP2 MSTORE PUSH1 0x4 ADD PUSH2 0x723 SWAP1 PUSH2 0x18A9 JUMP JUMPDEST PUSH1 0x40 MLOAD DUP1 SWAP2 SUB SWAP1 REVERT JUMPDEST PUSH1 0x0 ISZERO ISZERO PUSH1 0x7 PUSH1 0x0 SWAP1 SLOAD SWAP1 PUSH2 0x100 EXP SWAP1 DIV PUSH1 0xFF AND ISZERO ISZERO EQ PUSH2 0x782 JUMPI PUSH1 0x40 MLOAD PUSH32 0x8C379A000000000000000000000000000000000000000000000000000000000 DUP2 MSTORE PUSH1 0x4 ADD PUSH2 0x779 SWAP1 PUSH2 0x1929 JUMP JUMPDEST PUSH1 0x40 MLOAD DUP1 SWAP2 SUB SWAP1 REVERT JUMPDEST PUSH8 0xDE0B6B3A7640000 DUP2 PUSH2 0x796 SWAP2 SWAP1 PUSH2 0x1AA6 JUMP JUMPDEST PUSH1 0x3 DUP2 SWAP1 SSTORE POP POP JUMP JUMPDEST PUSH1 0x6 DUP2 DUP2 SLOAD DUP2 LT PUSH2 0x7AF JUMPI PUSH1 0x0 DUP1 REVERT JUMPDEST SWAP1 PUSH1 0x0 MSTORE PUSH1 0x20 PUSH1 0x0 KECCAK256 ADD PUSH1 0x0 SWAP2 POP SLOAD SWAP1 PUSH2 0x100 EXP SWAP1 DIV PUSH20 0xFFFFFFFFFFFFFFFFFFFFFFFFFFFFFFFFFFFFFFFF AND DUP2 JUMP JUMPDEST PUSH1 0x0 DUP1 SLOAD SWAP1 PUSH2 0x100 EXP SWAP1 DIV PUSH20 0xFFFFFFFFFFFFFFFFFFFFFFFFFFFFFFFFFFFFFFFF AND PUSH20 0xFFFFFFFFFFFFFFFFFFFFFFFFFFFFFFFFFFFFFFFF AND CALLER PUSH20 0xFFFFFFFFFFFFFFFFFFFFFFFFFFFFFFFFFFFFFFFF AND EQ PUSH2 0x86C JUMPI PUSH1 0x40 MLOAD PUSH32 0x8C379A000000000000000000000000000000000000000000000000000000000 DUP2 MSTORE PUSH1 0x4 ADD PUSH2 0x863 SWAP1 PUSH2 0x18A9 JUMP JUMPDEST PUSH1 0x40 MLOAD DUP1 SWAP2 SUB SWAP1 REVERT JUMPDEST PUSH1 0x6 DUP2 MLOAD EQ PUSH2 0x87A JUMPI PUSH1 0x0 DUP1 REVERT JUMPDEST PUSH1 0x0 JUMPDEST DUP2 MLOAD DUP2 LT ISZERO PUSH2 0x8C1 JUMPI PUSH1 0x9 DUP3 DUP3 DUP2 MLOAD DUP2 LT PUSH2 0x89B JUMPI PUSH2 0x89A PUSH2 0x1C8F JUMP JUMPDEST JUMPDEST PUSH1 0x20 MUL PUSH1 0x20 ADD ADD MLOAD GT ISZERO PUSH2 0x8AE JUMPI PUSH1 0x0 DUP1 REVERT JUMPDEST DUP1 DUP1 PUSH2 0x8B9 SWAP1 PUSH2 0x1BAD JUMP JUMPDEST SWAP2 POP POP PUSH2 0x87D JUMP JUMPDEST POP DUP1 PUSH1 0x1 SWAP1 DUP1 MLOAD SWAP1 PUSH1 0x20 ADD SWAP1 PUSH2 0x8D8 SWAP3 SWAP2 SWAP1 PUSH2 0x1372 JUMP JUMPDEST POP POP JUMP JUMPDEST PUSH1 0x7 PUSH1 0x0 SWAP1 SLOAD SWAP1 PUSH2 0x100 EXP SWAP1 DIV PUSH1 0xFF AND DUP2 JUMP JUMPDEST PUSH1 0x1 ISZERO ISZERO PUSH1 0x7 PUSH1 0x0 SWAP1 SLOAD SWAP1 PUSH2 0x100 EXP SWAP1 DIV PUSH1 0xFF AND ISZERO ISZERO EQ PUSH2 0x945 JUMPI PUSH1 0x40 MLOAD PUSH32 0x8C379A000000000000000000000000000000000000000000000000000000000 DUP2 MSTORE PUSH1 0x4 ADD PUSH2 0x93C SWAP1 PUSH2 0x18C9 JUMP JUMPDEST PUSH1 0x40 MLOAD DUP1 SWAP2 SUB SWAP1 REVERT JUMPDEST PUSH1 0x3 SLOAD CALLVALUE EQ PUSH2 0x989 JUMPI PUSH1 0x40 MLOAD PUSH32 0x8C379A000000000000000000000000000000000000000000000000000000000 DUP2 MSTORE PUSH1 0x4 ADD PUSH2 0x980 SWAP1 PUSH2 0x1949 JUMP JUMPDEST PUSH1 0x40 MLOAD DUP1 SWAP2 SUB SWAP1 REVERT JUMPDEST PUSH1 0x6 DUP2 MLOAD EQ PUSH2 0x9CD JUMPI PUSH1 0x40 MLOAD PUSH32 0x8C379A000000000000000000000000000000000000000000000000000000000 DUP2 MSTORE PUSH1 0x4 ADD PUSH2 0x9C4 SWAP1 PUSH2 0x1909 JUMP JUMPDEST PUSH1 0x40 MLOAD DUP1 SWAP2 SUB SWAP1 REVERT JUMPDEST PUSH1 0x0 JUMPDEST DUP2 MLOAD DUP2 LT ISZERO PUSH2 0xA70 JUMPI PUSH1 0xA DUP3 DUP3 DUP2 MLOAD DUP2 LT PUSH2 0x9EE JUMPI PUSH2 0x9ED PUSH2 0x1C8F JUMP JUMPDEST JUMPDEST PUSH1 0x20 MUL PUSH1 0x20 ADD ADD MLOAD LT DUP1 ISZERO PUSH2 0xA1E JUMPI POP PUSH1 0x0 DUP3 DUP3 DUP2 MLOAD DUP2 LT PUSH2 0xA13 JUMPI PUSH2 0xA12 PUSH2 0x1C8F JUMP JUMPDEST JUMPDEST PUSH1 0x20 MUL PUSH1 0x20 ADD ADD MLOAD LT ISZERO JUMPDEST PUSH2 0xA5D JUMPI PUSH1 0x40 MLOAD PUSH32 0x8C379A000000000000000000000000000000000000000000000000000000000 DUP2 MSTORE PUSH1 0x4 ADD PUSH2 0xA54 SWAP1 PUSH2 0x18E9 JUMP JUMPDEST PUSH1 0x40 MLOAD DUP1 SWAP2 SUB SWAP1 REVERT JUMPDEST DUP1 DUP1 PUSH2 0xA68 SWAP1 PUSH2 0x1BAD JUMP JUMPDEST SWAP2 POP POP PUSH2 0x9D0 JUMP JUMPDEST POP PUSH1 0x0 PUSH1 0x2 PUSH1 0x0 CALLER PUSH20 0xFFFFFFFFFFFFFFFFFFFFFFFFFFFFFFFFFFFFFFFF AND PUSH20 0xFFFFFFFFFFFFFFFFFFFFFFFFFFFFFFFFFFFFFFFF AND DUP2 MSTORE PUSH1 0x20 ADD SWAP1 DUP2 MSTORE PUSH1 0x20 ADD PUSH1 0x0 KECCAK256 DUP1 SLOAD SWAP1 POP EQ PUSH2 0xAF6 JUMPI PUSH1 0x40 MLOAD PUSH32 0x8C379A000000000000000000000000000000000000000000000000000000000 DUP2 MSTORE PUSH1 0x4 ADD PUSH2 0xAED SWAP1 PUSH2 0x1889 JUMP JUMPDEST PUSH1 0x40 MLOAD DUP1 SWAP2 SUB SWAP1 REVERT JUMPDEST DUP1 PUSH1 0x2 PUSH1 0x0 CALLER PUSH20 0xFFFFFFFFFFFFFFFFFFFFFFFFFFFFFFFFFFFFFFFF AND PUSH20 0xFFFFFFFFFFFFFFFFFFFFFFFFFFFFFFFFFFFFFFFF AND DUP2 MSTORE PUSH1 0x20 ADD SWAP1 DUP2 MSTORE PUSH1 0x20 ADD PUSH1 0x0 KECCAK256 SWAP1 DUP1 MLOAD SWAP1 PUSH1 0x20 ADD SWAP1 PUSH2 0xB49 SWAP3 SWAP2 SWAP1 PUSH2 0x1372 JUMP JUMPDEST POP PUSH1 0x6 CALLER SWAP1 DUP1 PUSH1 0x1 DUP2 SLOAD ADD DUP1 DUP3 SSTORE DUP1 SWAP2 POP POP PUSH1 0x1 SWAP1 SUB SWAP1 PUSH1 0x0 MSTORE PUSH1 0x20 PUSH1 0x0 KECCAK256 ADD PUSH1 0x0 SWAP1 SWAP2 SWAP1 SWAP2 SWAP1 SWAP2 PUSH2 0x100 EXP DUP2 SLOAD DUP2 PUSH20 0xFFFFFFFFFFFFFFFFFFFFFFFFFFFFFFFFFFFFFFFF MUL NOT AND SWAP1 DUP4 PUSH20 0xFFFFFFFFFFFFFFFFFFFFFFFFFFFFFFFFFFFFFFFF AND MUL OR SWAP1 SSTORE POP CALLVALUE PUSH1 0x4 PUSH1 0x0 DUP3 DUP3 SLOAD PUSH2 0xBBF SWAP2 SWAP1 PUSH2 0x1A1F JUMP JUMPDEST SWAP3 POP POP DUP2 SWAP1 SSTORE POP PUSH1 0x1 PUSH1 0x5 PUSH1 0x0 DUP3 DUP3 SLOAD PUSH2 0xBD9 SWAP2 SWAP1 PUSH2 0x1A1F JUMP JUMPDEST SWAP3 POP POP DUP2 SWAP1 SSTORE POP POP JUMP JUMPDEST PUSH1 0x0 PUSH1 0x1 ISZERO ISZERO PUSH1 0x7 PUSH1 0x0 SWAP1 SLOAD SWAP1 PUSH2 0x100 EXP SWAP1 DIV PUSH1 0xFF AND ISZERO ISZERO EQ PUSH2 0xC3B JUMPI PUSH1 0x40 MLOAD PUSH32 0x8C379A000000000000000000000000000000000000000000000000000000000 DUP2 MSTORE PUSH1 0x4 ADD PUSH2 0xC32 SWAP1 PUSH2 0x18C9 JUMP JUMPDEST PUSH1 0x40 MLOAD DUP1 SWAP2 SUB SWAP1 REVERT JUMPDEST PUSH8 0xDE0B6B3A7640000 PUSH1 0x3 SLOAD PUSH2 0xC51 SWAP2 SWAP1 PUSH2 0x1A75 JUMP JUMPDEST SWAP1 POP SWAP1 JUMP JUMPDEST PUSH1 0x0 PUSH1 0x1 ISZERO ISZERO PUSH1 0x7 PUSH1 0x0 SWAP1 SLOAD SWAP1 PUSH2 0x100 EXP SWAP1 DIV PUSH1 0xFF AND ISZERO ISZERO EQ PUSH2 0xCAE JUMPI PUSH1 0x40 MLOAD PUSH32 0x8C379A000000000000000000000000000000000000000000000000000000000 DUP2 MSTORE PUSH1 0x4 ADD PUSH2 0xCA5 SWAP1 PUSH2 0x18C9 JUMP JUMPDEST PUSH1 0x40 MLOAD DUP1 SWAP2 SUB SWAP1 REVERT JUMPDEST PUSH8 0xDE0B6B3A7640000 PUSH1 0x4 SLOAD PUSH2 0xCC4 SWAP2 SWAP1 PUSH2 0x1A75 JUMP JUMPDEST SWAP1 POP SWAP1 JUMP JUMPDEST PUSH1 0x60 PUSH1 0x0 DUP1 SLOAD SWAP1 PUSH2 0x100 EXP SWAP1 DIV PUSH20 0xFFFFFFFFFFFFFFFFFFFFFFFFFFFFFFFFFFFFFFFF AND PUSH20 0xFFFFFFFFFFFFFFFFFFFFFFFFFFFFFFFFFFFFFFFF AND CALLER PUSH20 0xFFFFFFFFFFFFFFFFFFFFFFFFFFFFFFFFFFFFFFFF AND EQ PUSH2 0xD59 JUMPI PUSH1 0x40 MLOAD PUSH32 0x8C379A000000000000000000000000000000000000000000000000000000000 DUP2 MSTORE PUSH1 0x4 ADD PUSH2 0xD50 SWAP1 PUSH2 0x18A9 JUMP JUMPDEST PUSH1 0x40 MLOAD DUP1 SWAP2 SUB SWAP1 REVERT JUMPDEST PUSH1 0x1 ISZERO ISZERO PUSH1 0x7 PUSH1 0x0 SWAP1 SLOAD SWAP1 PUSH2 0x100 EXP SWAP1 DIV PUSH1 0xFF AND ISZERO ISZERO EQ PUSH2 0xDAF JUMPI PUSH1 0x40 MLOAD PUSH32 0x8C379A000000000000000000000000000000000000000000000000000000000 DUP2 MSTORE PUSH1 0x4 ADD PUSH2 0xDA6 SWAP1 PUSH2 0x18C9 JUMP JUMPDEST PUSH1 0x40 MLOAD DUP1 SWAP2 SUB SWAP1 REVERT JUMPDEST PUSH1 0x1 DUP1 SLOAD DUP1 PUSH1 0x20 MUL PUSH1 0x20 ADD PUSH1 0x40 MLOAD SWAP1 DUP2 ADD PUSH1 0x40 MSTORE DUP1 SWAP3 SWAP2 SWAP1 DUP2 DUP2 MSTORE PUSH1 0x20 ADD DUP3 DUP1 SLOAD DUP1 ISZERO PUSH2 0xDFB JUMPI PUSH1 0x20 MUL DUP3 ADD SWAP2 SWAP1 PUSH1 0x0 MSTORE PUSH1 0x20 PUSH1 0x0 KECCAK256 SWAP1 JUMPDEST DUP2 SLOAD DUP2 MSTORE PUSH1 0x20 ADD SWAP1 PUSH1 0x1 ADD SWAP1 DUP1 DUP4 GT PUSH2 0xDE7 JUMPI JUMPDEST POP POP POP POP POP SWAP1 POP SWAP1 JUMP JUMPDEST PUSH1 0x0 DUP1 SLOAD SWAP1 PUSH2 0x100 EXP SWAP1 DIV PUSH20 0xFFFFFFFFFFFFFFFFFFFFFFFFFFFFFFFFFFFFFFFF AND DUP2 JUMP JUMPDEST PUSH1 0x60 PUSH1 0x2 PUSH1 0x0 CALLER PUSH20 0xFFFFFFFFFFFFFFFFFFFFFFFFFFFFFFFFFFFFFFFF AND PUSH20 0xFFFFFFFFFFFFFFFFFFFFFFFFFFFFFFFFFFFFFFFF AND DUP2 MSTORE PUSH1 0x20 ADD SWAP1 DUP2 MSTORE PUSH1 0x20 ADD PUSH1 0x0 KECCAK256 DUP1 SLOAD DUP1 PUSH1 0x20 MUL PUSH1 0x20 ADD PUSH1 0x40 MLOAD SWAP1 DUP2 ADD PUSH1 0x40 MSTORE DUP1 SWAP3 SWAP2 SWAP1 DUP2 DUP2 MSTORE PUSH1 0x20 ADD DUP3 DUP1 SLOAD DUP1 ISZERO PUSH2 0xEB4 JUMPI PUSH1 0x20 MUL DUP3 ADD SWAP2 SWAP1 PUSH1 0x0 MSTORE PUSH1 0x20 PUSH1 0x0 KECCAK256 SWAP1 JUMPDEST DUP2 SLOAD DUP2 MSTORE PUSH1 0x20 ADD SWAP1 PUSH1 0x1 ADD SWAP1 DUP1 DUP4 GT PUSH2 0xEA0 JUMPI JUMPDEST POP POP POP POP POP SWAP1 POP SWAP1 JUMP JUMPDEST PUSH1 0x0 DUP1 SLOAD SWAP1 PUSH2 0x100 EXP SWAP1 DIV PUSH20 0xFFFFFFFFFFFFFFFFFFFFFFFFFFFFFFFFFFFFFFFF AND PUSH20 0xFFFFFFFFFFFFFFFFFFFFFFFFFFFFFFFFFFFFFFFF AND CALLER PUSH20 0xFFFFFFFFFFFFFFFFFFFFFFFFFFFFFFFFFFFFFFFF AND EQ PUSH2 0xF4C JUMPI PUSH1 0x40 MLOAD PUSH32 0x8C379A000000000000000000000000000000000000000000000000000000000 DUP2 MSTORE PUSH1 0x4 ADD PUSH2 0xF43 SWAP1 PUSH2 0x18A9 JUMP JUMPDEST PUSH1 0x40 MLOAD DUP1 SWAP2 SUB SWAP1 REVERT JUMPDEST PUSH1 0x1 ISZERO ISZERO PUSH1 0x7 PUSH1 0x0 SWAP1 SLOAD SWAP1 PUSH2 0x100 EXP SWAP1 DIV PUSH1 0xFF AND ISZERO ISZERO EQ PUSH2 0xFA2 JUMPI PUSH1 0x40 MLOAD PUSH32 0x8C379A000000000000000000000000000000000000000000000000000000000 DUP2 MSTORE PUSH1 0x4 ADD PUSH2 0xF99 SWAP1 PUSH2 0x18C9 JUMP JUMPDEST PUSH1 0x40 MLOAD DUP1 SWAP2 SUB SWAP1 REVERT JUMPDEST PUSH1 0x0 PUSH1 0x5 SLOAD GT PUSH2 0xFE7 JUMPI PUSH1 0x40 MLOAD PUSH32 0x8C379A000000000000000000000000000000000000000000000000000000000 DUP2 MSTORE PUSH1 0x4 ADD PUSH2 0xFDE SWAP1 PUSH2 0x1869 JUMP JUMPDEST PUSH1 0x40 MLOAD DUP1 SWAP2 SUB SWAP1 REVERT JUMPDEST PUSH1 0x0 DUP1 PUSH1 0x0 DUP1 PUSH1 0x0 DUP1 PUSH1 0x0 SWAP1 POP JUMPDEST PUSH1 0x6 DUP1 SLOAD SWAP1 POP DUP2 LT ISZERO PUSH2 0x12C4 JUMPI PUSH1 0x0 JUMPDEST PUSH1 0x1 DUP1 SLOAD SWAP1 POP DUP2 LT ISZERO PUSH2 0x10FC JUMPI PUSH1 0x1 DUP2 DUP2 SLOAD DUP2 LT PUSH2 0x1026 JUMPI PUSH2 0x1025 PUSH2 0x1C8F JUMP JUMPDEST JUMPDEST SWAP1 PUSH1 0x0 MSTORE PUSH1 0x20 PUSH1 0x0 KECCAK256 ADD SLOAD PUSH1 0x2 PUSH1 0x0 PUSH1 0x6 DUP6 DUP2 SLOAD DUP2 LT PUSH2 0x1049 JUMPI PUSH2 0x1048 PUSH2 0x1C8F JUMP JUMPDEST JUMPDEST SWAP1 PUSH1 0x0 MSTORE PUSH1 0x20 PUSH1 0x0 KECCAK256 ADD PUSH1 0x0 SWAP1 SLOAD SWAP1 PUSH2 0x100 EXP SWAP1 DIV PUSH20 0xFFFFFFFFFFFFFFFFFFFFFFFFFFFFFFFFFFFFFFFF AND PUSH20 0xFFFFFFFFFFFFFFFFFFFFFFFFFFFFFFFFFFFFFFFF AND PUSH20 0xFFFFFFFFFFFFFFFFFFFFFFFFFFFFFFFFFFFFFFFF AND DUP2 MSTORE PUSH1 0x20 ADD SWAP1 DUP2 MSTORE PUSH1 0x20 ADD PUSH1 0x0 KECCAK256 DUP3 DUP2 SLOAD DUP2 LT PUSH2 0x10C0 JUMPI PUSH2 0x10BF PUSH2 0x1C8F JUMP JUMPDEST JUMPDEST SWAP1 PUSH1 0x0 MSTORE PUSH1 0x20 PUSH1 0x0 KECCAK256 ADD SLOAD EQ ISZERO PUSH2 0x10E4 JUMPI DUP7 DUP1 PUSH2 0x10DC SWAP1 PUSH2 0x1BAD JUMP JUMPDEST SWAP8 POP POP PUSH2 0x10E9 JUMP JUMPDEST PUSH2 0x10FC JUMP JUMPDEST DUP1 DUP1 PUSH2 0x10F4 SWAP1 PUSH2 0x1BAD JUMP JUMPDEST SWAP2 POP POP PUSH2 0x1005 JUMP JUMPDEST POP PUSH1 0x2 PUSH1 0x0 PUSH1 0x6 DUP4 DUP2 SLOAD DUP2 LT PUSH2 0x1115 JUMPI PUSH2 0x1114 PUSH2 0x1C8F JUMP JUMPDEST JUMPDEST SWAP1 PUSH1 0x0 MSTORE PUSH1 0x20 PUSH1 0x0 KECCAK256 ADD PUSH1 0x0 SWAP1 SLOAD SWAP1 PUSH2 0x100 EXP SWAP1 DIV PUSH20 0xFFFFFFFFFFFFFFFFFFFFFFFFFFFFFFFFFFFFFFFF AND PUSH20 0xFFFFFFFFFFFFFFFFFFFFFFFFFFFFFFFFFFFFFFFF AND PUSH20 0xFFFFFFFFFFFFFFFFFFFFFFFFFFFFFFFFFFFFFFFF AND DUP2 MSTORE PUSH1 0x20 ADD SWAP1 DUP2 MSTORE PUSH1 0x20 ADD PUSH1 0x0 KECCAK256 PUSH1 0x0 PUSH2 0x1186 SWAP2 SWAP1 PUSH2 0x13BF JUMP JUMPDEST PUSH1 0x1 DUP7 EQ ISZERO PUSH2 0x1198 JUMPI PUSH1 0x2 SWAP5 POP PUSH2 0x11F3 JUMP JUMPDEST PUSH1 0x2 DUP7 EQ ISZERO PUSH2 0x11AA JUMPI PUSH1 0x3 SWAP5 POP PUSH2 0x11F2 JUMP JUMPDEST PUSH1 0x3 DUP7 EQ ISZERO PUSH2 0x11BC JUMPI PUSH1 0x5 SWAP5 POP PUSH2 0x11F1 JUMP JUMPDEST PUSH1 0x4 DUP7 EQ ISZERO PUSH2 0x11CE JUMPI PUSH1 0xA SWAP5 POP PUSH2 0x11F0 JUMP JUMPDEST PUSH1 0x5 DUP7 EQ ISZERO PUSH2 0x11E0 JUMPI PUSH1 0x14 SWAP5 POP PUSH2 0x11EF JUMP JUMPDEST PUSH1 0x6 DUP7 EQ ISZERO PUSH2 0x11EE JUMPI PUSH1 0x28 SWAP5 POP JUMPDEST JUMPDEST JUMPDEST JUMPDEST JUMPDEST JUMPDEST PUSH1 0x64 DUP6 PUSH1 0x4 SLOAD PUSH2 0x1203 SWAP2 SWAP1 PUSH2 0x1AA6 JUMP JUMPDEST PUSH2 0x120D SWAP2 SWAP1 PUSH2 0x1A75 JUMP JUMPDEST SWAP4 POP DUP4 DUP4 PUSH2 0x121B SWAP2 SWAP1 PUSH2 0x1A1F JUMP JUMPDEST SWAP3 POP PUSH1 0x6 DUP2 DUP2 SLOAD DUP2 LT PUSH2 0x1231 JUMPI PUSH2 0x1230 PUSH2 0x1C8F JUMP JUMPDEST JUMPDEST SWAP1 PUSH1 0x0 MSTORE PUSH1 0x20 PUSH1 0x0 KECCAK256 ADD PUSH1 0x0 SWAP1 SLOAD SWAP1 PUSH2 0x100 EXP SWAP1 DIV PUSH20 0xFFFFFFFFFFFFFFFFFFFFFFFFFFFFFFFFFFFFFFFF AND SWAP2 POP DUP2 PUSH20 0xFFFFFFFFFFFFFFFFFFFFFFFFFFFFFFFFFFFFFFFF AND PUSH2 0x8FC DUP6 SWAP1 DUP2 ISZERO MUL SWAP1 PUSH1 0x40 MLOAD PUSH1 0x0 PUSH1 0x40 MLOAD DUP1 DUP4 SUB DUP2 DUP6 DUP9 DUP9 CALL SWAP4 POP POP POP POP ISZERO DUP1 ISZERO PUSH2 0x12A4 JUMPI RETURNDATASIZE PUSH1 0x0 DUP1 RETURNDATACOPY RETURNDATASIZE PUSH1 0x0 REVERT JUMPDEST POP PUSH1 0x0 SWAP6 POP PUSH1 0x0 SWAP5 POP PUSH1 0x0 SWAP4 POP DUP1 DUP1 PUSH2 0x12BC SWAP1 PUSH2 0x1BAD JUMP JUMPDEST SWAP2 POP POP PUSH2 0xFF5 JUMP JUMPDEST POP PUSH1 0x0 PUSH1 0x5 DUP2 SWAP1 SSTORE POP DUP2 PUSH1 0x4 PUSH1 0x0 DUP3 DUP3 SLOAD PUSH2 0x12DF SWAP2 SWAP1 PUSH2 0x1B00 JUMP JUMPDEST SWAP3 POP POP DUP2 SWAP1 SSTORE POP PUSH1 0x0 PUSH8 0xFFFFFFFFFFFFFFFF DUP2 GT ISZERO PUSH2 0x1301 JUMPI PUSH2 0x1300 PUSH2 0x1CBE JUMP JUMPDEST JUMPDEST PUSH1 0x40 MLOAD SWAP1 DUP1 DUP3 MSTORE DUP1 PUSH1 0x20 MUL PUSH1 0x20 ADD DUP3 ADD PUSH1 0x40 MSTORE DUP1 ISZERO PUSH2 0x132F JUMPI DUP2 PUSH1 0x20 ADD PUSH1 0x20 DUP3 MUL DUP1 CALLDATASIZE DUP4 CALLDATACOPY DUP1 DUP3 ADD SWAP2 POP POP SWAP1 POP JUMPDEST POP PUSH1 0x6 SWAP1 DUP1 MLOAD SWAP1 PUSH1 0x20 ADD SWAP1 PUSH2 0x1345 SWAP3 SWAP2 SWAP1 PUSH2 0x13E0 JUMP JUMPDEST POP PUSH1 0x0 SWAP1 POP PUSH1 0x0 PUSH1 0x7 PUSH1 0x0 PUSH2 0x100 EXP DUP2 SLOAD DUP2 PUSH1 0xFF MUL NOT AND SWAP1 DUP4 ISZERO ISZERO MUL OR SWAP1 SSTORE POP POP POP POP POP POP JUMP JUMPDEST PUSH1 0x5 SLOAD DUP2 JUMP JUMPDEST DUP3 DUP1 SLOAD DUP3 DUP3 SSTORE SWAP1 PUSH1 0x0 MSTORE PUSH1 0x20 PUSH1 0x0 KECCAK256 SWAP1 DUP2 ADD SWAP3 DUP3 ISZERO PUSH2 0x13AE JUMPI SWAP2 PUSH1 0x20 MUL DUP3 ADD JUMPDEST DUP3 DUP2 GT ISZERO PUSH2 0x13AD JUMPI DUP3 MLOAD DUP3 SSTORE SWAP2 PUSH1 0x20 ADD SWAP2 SWAP1 PUSH1 0x1 ADD SWAP1 PUSH2 0x1392 JUMP JUMPDEST JUMPDEST POP SWAP1 POP PUSH2 0x13BB SWAP2 SWAP1 PUSH2 0x146A JUMP JUMPDEST POP SWAP1 JUMP JUMPDEST POP DUP1 SLOAD PUSH1 0x0 DUP3 SSTORE SWAP1 PUSH1 0x0 MSTORE PUSH1 0x20 PUSH1 0x0 KECCAK256 SWAP1 DUP2 ADD SWAP1 PUSH2 0x13DD SWAP2 SWAP1 PUSH2 0x146A JUMP JUMPDEST POP JUMP JUMPDEST DUP3 DUP1 SLOAD DUP3 DUP3 SSTORE SWAP1 PUSH1 0x0 MSTORE PUSH1 0x20 PUSH1 0x0 KECCAK256 SWAP1 DUP2 ADD SWAP3 DUP3 ISZERO PUSH2 0x1459 JUMPI SWAP2 PUSH1 0x20 MUL DUP3 ADD JUMPDEST DUP3 DUP2 GT ISZERO PUSH2 0x1458 JUMPI DUP3 MLOAD DUP3 PUSH1 0x0 PUSH2 0x100 EXP DUP2 SLOAD DUP2 PUSH20 0xFFFFFFFFFFFFFFFFFFFFFFFFFFFFFFFFFFFFFFFF MUL NOT AND SWAP1 DUP4 PUSH20 0xFFFFFFFFFFFFFFFFFFFFFFFFFFFFFFFFFFFFFFFF AND MUL OR SWAP1 SSTORE POP SWAP2 PUSH1 0x20 ADD SWAP2 SWAP1 PUSH1 0x1 ADD SWAP1 PUSH2 0x1400 JUMP JUMPDEST JUMPDEST POP SWAP1 POP PUSH2 0x1466 SWAP2 SWAP1 PUSH2 0x146A JUMP JUMPDEST POP SWAP1 JUMP JUMPDEST JUMPDEST DUP1 DUP3 GT ISZERO PUSH2 0x1483 JUMPI PUSH1 0x0 DUP2 PUSH1 0x0 SWAP1 SSTORE POP PUSH1 0x1 ADD PUSH2 0x146B JUMP JUMPDEST POP SWAP1 JUMP JUMPDEST PUSH1 0x0 PUSH2 0x149A PUSH2 0x1495 DUP5 PUSH2 0x19A9 JUMP JUMPDEST PUSH2 0x1984 JUMP JUMPDEST SWAP1 POP DUP1 DUP4 DUP3 MSTORE PUSH1 0x20 DUP3 ADD SWAP1 POP DUP3 DUP6 PUSH1 0x20 DUP7 MUL DUP3 ADD GT ISZERO PUSH2 0x14BD JUMPI PUSH2 0x14BC PUSH2 0x1CF2 JUMP JUMPDEST JUMPDEST PUSH1 0x0 JUMPDEST DUP6 DUP2 LT ISZERO PUSH2 0x14ED JUMPI DUP2 PUSH2 0x14D3 DUP9 DUP3 PUSH2 0x1525 JUMP JUMPDEST DUP5 MSTORE PUSH1 0x20 DUP5 ADD SWAP4 POP PUSH1 0x20 DUP4 ADD SWAP3 POP POP PUSH1 0x1 DUP2 ADD SWAP1 POP PUSH2 0x14C0 JUMP JUMPDEST POP POP POP SWAP4 SWAP3 POP POP POP JUMP JUMPDEST PUSH1 0x0 DUP3 PUSH1 0x1F DUP4 ADD SLT PUSH2 0x150C JUMPI PUSH2 0x150B PUSH2 0x1CED JUMP JUMPDEST JUMPDEST DUP2 CALLDATALOAD PUSH2 0x151C DUP5 DUP3 PUSH1 0x20 DUP7 ADD PUSH2 0x1487 JUMP JUMPDEST SWAP2 POP POP SWAP3 SWAP2 POP POP JUMP JUMPDEST PUSH1 0x0 DUP2 CALLDATALOAD SWAP1 POP PUSH2 0x1534 DUP2 PUSH2 0x1EA9 JUMP JUMPDEST SWAP3 SWAP2 POP POP JUMP JUMPDEST PUSH1 0x0 PUSH1 0x20 DUP3 DUP5 SUB SLT ISZERO PUSH2 0x1550 JUMPI PUSH2 0x154F PUSH2 0x1CFC JUMP JUMPDEST JUMPDEST PUSH1 0x0 DUP3 ADD CALLDATALOAD PUSH8 0xFFFFFFFFFFFFFFFF DUP2 GT ISZERO PUSH2 0x156E JUMPI PUSH2 0x156D PUSH2 0x1CF7 JUMP JUMPDEST JUMPDEST PUSH2 0x157A DUP5 DUP3 DUP6 ADD PUSH2 0x14F7 JUMP JUMPDEST SWAP2 POP POP SWAP3 SWAP2 POP POP JUMP JUMPDEST PUSH1 0x0 PUSH1 0x20 DUP3 DUP5 SUB SLT ISZERO PUSH2 0x1599 JUMPI PUSH2 0x1598 PUSH2 0x1CFC JUMP JUMPDEST JUMPDEST PUSH1 0x0 PUSH2 0x15A7 DUP5 DUP3 DUP6 ADD PUSH2 0x1525 JUMP JUMPDEST SWAP2 POP POP SWAP3 SWAP2 POP POP JUMP JUMPDEST PUSH1 0x0 PUSH2 0x15BC DUP4 DUP4 PUSH2 0x177F JUMP JUMPDEST PUSH1 0x20 DUP4 ADD SWAP1 POP SWAP3 SWAP2 POP POP JUMP JUMPDEST PUSH2 0x15D1 DUP2 PUSH2 0x1B34 JUMP JUMPDEST DUP3 MSTORE POP POP JUMP JUMPDEST PUSH1 0x0 PUSH2 0x15E2 DUP3 PUSH2 0x19E5 JUMP JUMPDEST PUSH2 0x15EC DUP2 DUP6 PUSH2 0x19FD JUMP JUMPDEST SWAP4 POP PUSH2 0x15F7 DUP4 PUSH2 0x19D5 JUMP JUMPDEST DUP1 PUSH1 0x0 JUMPDEST DUP4 DUP2 LT ISZERO PUSH2 0x1628 JUMPI DUP2 MLOAD PUSH2 0x160F DUP9 DUP3 PUSH2 0x15B0 JUMP JUMPDEST SWAP8 POP PUSH2 0x161A DUP4 PUSH2 0x19F0 JUMP JUMPDEST SWAP3 POP POP PUSH1 0x1 DUP2 ADD SWAP1 POP PUSH2 0x15FB JUMP JUMPDEST POP DUP6 SWAP4 POP POP POP POP SWAP3 SWAP2 POP POP JUMP JUMPDEST PUSH2 0x163E DUP2 PUSH2 0x1B46 JUMP JUMPDEST DUP3 MSTORE POP POP JUMP JUMPDEST PUSH1 0x0 PUSH2 0x1651 PUSH1 0x14 DUP4 PUSH2 0x1A0E JUMP JUMPDEST SWAP2 POP PUSH2 0x165C DUP3 PUSH2 0x1D12 JUMP JUMPDEST PUSH1 0x20 DUP3 ADD SWAP1 POP SWAP2 SWAP1 POP JUMP JUMPDEST PUSH1 0x0 PUSH2 0x1674 PUSH1 0x11 DUP4 PUSH2 0x1A0E JUMP JUMPDEST SWAP2 POP PUSH2 0x167F DUP3 PUSH2 0x1D3B JUMP JUMPDEST PUSH1 0x20 DUP3 ADD SWAP1 POP SWAP2 SWAP1 POP JUMP JUMPDEST PUSH1 0x0 PUSH2 0x1697 PUSH1 0x20 DUP4 PUSH2 0x1A0E JUMP JUMPDEST SWAP2 POP PUSH2 0x16A2 DUP3 PUSH2 0x1D64 JUMP JUMPDEST PUSH1 0x20 DUP3 ADD SWAP1 POP SWAP2 SWAP1 POP JUMP JUMPDEST PUSH1 0x0 PUSH2 0x16BA PUSH1 0x26 DUP4 PUSH2 0x1A0E JUMP JUMPDEST SWAP2 POP PUSH2 0x16C5 DUP3 PUSH2 0x1D8D JUMP JUMPDEST PUSH1 0x40 DUP3 ADD SWAP1 POP SWAP2 SWAP1 POP JUMP JUMPDEST PUSH1 0x0 PUSH2 0x16DD PUSH1 0x15 DUP4 PUSH2 0x1A0E JUMP JUMPDEST SWAP2 POP PUSH2 0x16E8 DUP3 PUSH2 0x1DDC JUMP JUMPDEST PUSH1 0x20 DUP3 ADD SWAP1 POP SWAP2 SWAP1 POP JUMP JUMPDEST PUSH1 0x0 PUSH2 0x1700 PUSH1 0xC DUP4 PUSH2 0x1A0E JUMP JUMPDEST SWAP2 POP PUSH2 0x170B DUP3 PUSH2 0x1E05 JUMP JUMPDEST PUSH1 0x20 DUP3 ADD SWAP1 POP SWAP2 SWAP1 POP JUMP JUMPDEST PUSH1 0x0 PUSH2 0x1723 PUSH1 0x17 DUP4 PUSH2 0x1A0E JUMP JUMPDEST SWAP2 POP PUSH2 0x172E DUP3 PUSH2 0x1E2E JUMP JUMPDEST PUSH1 0x20 DUP3 ADD SWAP1 POP SWAP2 SWAP1 POP JUMP JUMPDEST PUSH1 0x0 PUSH2 0x1746 PUSH1 0x14 DUP4 PUSH2 0x1A0E JUMP JUMPDEST SWAP2 POP PUSH2 0x1751 DUP3 PUSH2 0x1E57 JUMP JUMPDEST PUSH1 0x20 DUP3 ADD SWAP1 POP SWAP2 SWAP1 POP JUMP JUMPDEST PUSH1 0x0 PUSH2 0x1769 PUSH1 0xC DUP4 PUSH2 0x1A0E JUMP JUMPDEST SWAP2 POP PUSH2 0x1774 DUP3 PUSH2 0x1E80 JUMP JUMPDEST PUSH1 0x20 DUP3 ADD SWAP1 POP SWAP2 SWAP1 POP JUMP JUMPDEST PUSH2 0x1788 DUP2 PUSH2 0x1B72 JUMP JUMPDEST DUP3 MSTORE POP POP JUMP JUMPDEST PUSH2 0x1797 DUP2 PUSH2 0x1B72 JUMP JUMPDEST DUP3 MSTORE POP POP JUMP JUMPDEST PUSH2 0x17AE PUSH2 0x17A9 DUP3 PUSH2 0x1B72 JUMP JUMPDEST PUSH2 0x1BF6 JUMP JUMPDEST DUP3 MSTORE POP POP JUMP JUMPDEST PUSH1 0x0 PUSH2 0x17C0 DUP3 DUP7 PUSH2 0x179D JUMP JUMPDEST PUSH1 0x20 DUP3 ADD SWAP2 POP PUSH2 0x17D0 DUP3 DUP6 PUSH2 0x179D JUMP JUMPDEST PUSH1 0x20 DUP3 ADD SWAP2 POP PUSH2 0x17E0 DUP3 DUP5 PUSH2 0x179D JUMP JUMPDEST PUSH1 0x20 DUP3 ADD SWAP2 POP DUP2 SWAP1 POP SWAP5 SWAP4 POP POP POP POP JUMP JUMPDEST PUSH1 0x0 PUSH1 0x20 DUP3 ADD SWAP1 POP PUSH2 0x1806 PUSH1 0x0 DUP4 ADD DUP5 PUSH2 0x15C8 JUMP JUMPDEST SWAP3 SWAP2 POP POP JUMP JUMPDEST PUSH1 0x0 PUSH1 0x20 DUP3 ADD SWAP1 POP DUP2 DUP2 SUB PUSH1 0x0 DUP4 ADD MSTORE PUSH2 0x1826 DUP2 DUP5 PUSH2 0x15D7 JUMP JUMPDEST SWAP1 POP SWAP3 SWAP2 POP POP JUMP JUMPDEST PUSH1 0x0 PUSH1 0x20 DUP3 ADD SWAP1 POP PUSH2 0x1843 PUSH1 0x0 DUP4 ADD DUP5 PUSH2 0x1635 JUMP JUMPDEST SWAP3 SWAP2 POP POP JUMP JUMPDEST PUSH1 0x0 PUSH1 0x20 DUP3 ADD SWAP1 POP DUP2 DUP2 SUB PUSH1 0x0 DUP4 ADD MSTORE PUSH2 0x1862 DUP2 PUSH2 0x1644 JUMP JUMPDEST SWAP1 POP SWAP2 SWAP1 POP JUMP JUMPDEST PUSH1 0x0 PUSH1 0x20 DUP3 ADD SWAP1 POP DUP2 DUP2 SUB PUSH1 0x0 DUP4 ADD MSTORE PUSH2 0x1882 DUP2 PUSH2 0x1667 JUMP JUMPDEST SWAP1 POP SWAP2 SWAP1 POP JUMP JUMPDEST PUSH1 0x0 PUSH1 0x20 DUP3 ADD SWAP1 POP DUP2 DUP2 SUB PUSH1 0x0 DUP4 ADD MSTORE PUSH2 0x18A2 DUP2 PUSH2 0x168A JUMP JUMPDEST SWAP1 POP SWAP2 SWAP1 POP JUMP JUMPDEST PUSH1 0x0 PUSH1 0x20 DUP3 ADD SWAP1 POP DUP2 DUP2 SUB PUSH1 0x0 DUP4 ADD MSTORE PUSH2 0x18C2 DUP2 PUSH2 0x16AD JUMP JUMPDEST SWAP1 POP SWAP2 SWAP1 POP JUMP JUMPDEST PUSH1 0x0 PUSH1 0x20 DUP3 ADD SWAP1 POP DUP2 DUP2 SUB PUSH1 0x0 DUP4 ADD MSTORE PUSH2 0x18E2 DUP2 PUSH2 0x16D0 JUMP JUMPDEST SWAP1 POP SWAP2 SWAP1 POP JUMP JUMPDEST PUSH1 0x0 PUSH1 0x20 DUP3 ADD SWAP1 POP DUP2 DUP2 SUB PUSH1 0x0 DUP4 ADD MSTORE PUSH2 0x1902 DUP2 PUSH2 0x16F3 JUMP JUMPDEST SWAP1 POP SWAP2 SWAP1 POP JUMP JUMPDEST PUSH1 0x0 PUSH1 0x20 DUP3 ADD SWAP1 POP DUP2 DUP2 SUB PUSH1 0x0 DUP4 ADD MSTORE PUSH2 0x1922 DUP2 PUSH2 0x1716 JUMP JUMPDEST SWAP1 POP SWAP2 SWAP1 POP JUMP JUMPDEST PUSH1 0x0 PUSH1 0x20 DUP3 ADD SWAP1 POP DUP2 DUP2 SUB PUSH1 0x0 DUP4 ADD MSTORE PUSH2 0x1942 DUP2 PUSH2 0x1739 JUMP JUMPDEST SWAP1 POP SWAP2 SWAP1 POP JUMP JUMPDEST PUSH1 0x0 PUSH1 0x20 DUP3 ADD SWAP1 POP DUP2 DUP2 SUB PUSH1 0x0 DUP4 ADD MSTORE PUSH2 0x1962 DUP2 PUSH2 0x175C JUMP JUMPDEST SWAP1 POP SWAP2 SWAP1 POP JUMP JUMPDEST PUSH1 0x0 PUSH1 0x20 DUP3 ADD SWAP1 POP PUSH2 0x197E PUSH1 0x0 DUP4 ADD DUP5 PUSH2 0x178E JUMP JUMPDEST SWAP3 SWAP2 POP POP JUMP JUMPDEST PUSH1 0x0 PUSH2 0x198E PUSH2 0x199F JUMP JUMPDEST SWAP1 POP PUSH2 0x199A DUP3 DUP3 PUSH2 0x1B7C JUMP JUMPDEST SWAP2 SWAP1 POP JUMP JUMPDEST PUSH1 0x0 PUSH1 0x40 MLOAD SWAP1 POP SWAP1 JUMP JUMPDEST PUSH1 0x0 PUSH8 0xFFFFFFFFFFFFFFFF DUP3 GT ISZERO PUSH2 0x19C4 JUMPI PUSH2 0x19C3 PUSH2 0x1CBE JUMP JUMPDEST JUMPDEST PUSH1 0x20 DUP3 MUL SWAP1 POP PUSH1 0x20 DUP2 ADD SWAP1 POP SWAP2 SWAP1 POP JUMP JUMPDEST PUSH1 0x0 DUP2 SWAP1 POP PUSH1 0x20 DUP3 ADD SWAP1 POP SWAP2 SWAP1 POP JUMP JUMPDEST PUSH1 0x0 DUP2 MLOAD SWAP1 POP SWAP2 SWAP1 POP JUMP JUMPDEST PUSH1 0x0 PUSH1 0x20 DUP3 ADD SWAP1 POP SWAP2 SWAP1 POP JUMP JUMPDEST PUSH1 0x0 DUP3 DUP3 MSTORE PUSH1 0x20 DUP3 ADD SWAP1 POP SWAP3 SWAP2 POP POP JUMP JUMPDEST PUSH1 0x0 DUP3 DUP3 MSTORE PUSH1 0x20 DUP3 ADD SWAP1 POP SWAP3 SWAP2 POP POP JUMP JUMPDEST PUSH1 0x0 PUSH2 0x1A2A DUP3 PUSH2 0x1B72 JUMP JUMPDEST SWAP2 POP PUSH2 0x1A35 DUP4 PUSH2 0x1B72 JUMP JUMPDEST SWAP3 POP DUP3 PUSH32 0xFFFFFFFFFFFFFFFFFFFFFFFFFFFFFFFFFFFFFFFFFFFFFFFFFFFFFFFFFFFFFFFF SUB DUP3 GT ISZERO PUSH2 0x1A6A JUMPI PUSH2 0x1A69 PUSH2 0x1C31 JUMP JUMPDEST JUMPDEST DUP3 DUP3 ADD SWAP1 POP SWAP3 SWAP2 POP POP JUMP JUMPDEST PUSH1 0x0 PUSH2 0x1A80 DUP3 PUSH2 0x1B72 JUMP JUMPDEST SWAP2 POP PUSH2 0x1A8B DUP4 PUSH2 0x1B72 JUMP JUMPDEST SWAP3 POP DUP3 PUSH2 0x1A9B JUMPI PUSH2 0x1A9A PUSH2 0x1C60 JUMP JUMPDEST JUMPDEST DUP3 DUP3 DIV SWAP1 POP SWAP3 SWAP2 POP POP JUMP JUMPDEST PUSH1 0x0 PUSH2 0x1AB1 DUP3 PUSH2 0x1B72 JUMP JUMPDEST SWAP2 POP PUSH2 0x1ABC DUP4 PUSH2 0x1B72 JUMP JUMPDEST SWAP3 POP DUP2 PUSH32 0xFFFFFFFFFFFFFFFFFFFFFFFFFFFFFFFFFFFFFFFFFFFFFFFFFFFFFFFFFFFFFFFF DIV DUP4 GT DUP3 ISZERO ISZERO AND ISZERO PUSH2 0x1AF5 JUMPI PUSH2 0x1AF4 PUSH2 0x1C31 JUMP JUMPDEST JUMPDEST DUP3 DUP3 MUL SWAP1 POP SWAP3 SWAP2 POP POP JUMP JUMPDEST PUSH1 0x0 PUSH2 0x1B0B DUP3 PUSH2 0x1B72 JUMP JUMPDEST SWAP2 POP PUSH2 0x1B16 DUP4 PUSH2 0x1B72 JUMP JUMPDEST SWAP3 POP DUP3 DUP3 LT ISZERO PUSH2 0x1B29 JUMPI PUSH2 0x1B28 PUSH2 0x1C31 JUMP JUMPDEST JUMPDEST DUP3 DUP3 SUB SWAP1 POP SWAP3 SWAP2 POP POP JUMP JUMPDEST PUSH1 0x0 PUSH2 0x1B3F DUP3 PUSH2 0x1B52 JUMP JUMPDEST SWAP1 POP SWAP2 SWAP1 POP JUMP JUMPDEST PUSH1 0x0 DUP2 ISZERO ISZERO SWAP1 POP SWAP2 SWAP1 POP JUMP JUMPDEST PUSH1 0x0 PUSH20 0xFFFFFFFFFFFFFFFFFFFFFFFFFFFFFFFFFFFFFFFF DUP3 AND SWAP1 POP SWAP2 SWAP1 POP JUMP JUMPDEST PUSH1 0x0 DUP2 SWAP1 POP SWAP2 SWAP1 POP JUMP JUMPDEST PUSH2 0x1B85 DUP3 PUSH2 0x1D01 JUMP JUMPDEST DUP2 ADD DUP2 DUP2 LT PUSH8 0xFFFFFFFFFFFFFFFF DUP3 GT OR ISZERO PUSH2 0x1BA4 JUMPI PUSH2 0x1BA3 PUSH2 0x1CBE JUMP JUMPDEST JUMPDEST DUP1 PUSH1 0x40 MSTORE POP POP POP JUMP JUMPDEST PUSH1 0x0 PUSH2 0x1BB8 DUP3 PUSH2 0x1B72 JUMP JUMPDEST SWAP2 POP PUSH32 0xFFFFFFFFFFFFFFFFFFFFFFFFFFFFFFFFFFFFFFFFFFFFFFFFFFFFFFFFFFFFFFFF DUP3 EQ ISZERO PUSH2 0x1BEB JUMPI PUSH2 0x1BEA PUSH2 0x1C31 JUMP JUMPDEST JUMPDEST PUSH1 0x1 DUP3 ADD SWAP1 POP SWAP2 SWAP1 POP JUMP JUMPDEST PUSH1 0x0 DUP2 SWAP1 POP SWAP2 SWAP1 POP JUMP JUMPDEST PUSH1 0x0 PUSH2 0x1C0B DUP3 PUSH2 0x1B72 JUMP JUMPDEST SWAP2 POP PUSH2 0x1C16 DUP4 PUSH2 0x1B72 JUMP JUMPDEST SWAP3 POP DUP3 PUSH2 0x1C26 JUMPI PUSH2 0x1C25 PUSH2 0x1C60 JUMP JUMPDEST JUMPDEST DUP3 DUP3 MOD SWAP1 POP SWAP3 SWAP2 POP POP JUMP JUMPDEST PUSH32 0x4E487B7100000000000000000000000000000000000000000000000000000000 PUSH1 0x0 MSTORE PUSH1 0x11 PUSH1 0x4 MSTORE PUSH1 0x24 PUSH1 0x0 REVERT JUMPDEST PUSH32 0x4E487B7100000000000000000000000000000000000000000000000000000000 PUSH1 0x0 MSTORE PUSH1 0x12 PUSH1 0x4 MSTORE PUSH1 0x24 PUSH1 0x0 REVERT JUMPDEST PUSH32 0x4E487B7100000000000000000000000000000000000000000000000000000000 PUSH1 0x0 MSTORE PUSH1 0x32 PUSH1 0x4 MSTORE PUSH1 0x24 PUSH1 0x0 REVERT JUMPDEST PUSH32 0x4E487B7100000000000000000000000000000000000000000000000000000000 PUSH1 0x0 MSTORE PUSH1 0x41 PUSH1 0x4 MSTORE PUSH1 0x24 PUSH1 0x0 REVERT JUMPDEST PUSH1 0x0 DUP1 REVERT JUMPDEST PUSH1 0x0 DUP1 REVERT JUMPDEST PUSH1 0x0 DUP1 REVERT JUMPDEST PUSH1 0x0 DUP1 REVERT JUMPDEST PUSH1 0x0 PUSH1 0x1F NOT PUSH1 0x1F DUP4 ADD AND SWAP1 POP SWAP2 SWAP1 POP JUMP JUMPDEST PUSH32 0x4E6F20457468657220746F2070756C6C206F7574000000000000000000000000 PUSH1 0x0 DUP3 ADD MSTORE POP JUMP JUMPDEST PUSH32 0x4E6F207469636B65742077617320626F75000000000000000000000000000000 PUSH1 0x0 DUP3 ADD MSTORE POP JUMP JUMPDEST PUSH32 0x596F75206861766520616C726561647920626F756768742061207469636B6574 PUSH1 0x0 DUP3 ADD MSTORE POP JUMP JUMPDEST PUSH32 0x4F6E6C7920746865206F776E65722063616E20706572666F726D207468697320 PUSH1 0x0 DUP3 ADD MSTORE PUSH32 0x616374696F6E0000000000000000000000000000000000000000000000000000 PUSH1 0x20 DUP3 ADD MSTORE POP JUMP JUMPDEST PUSH32 0x4E6F206C6F74746572792069732072756E6E696E670000000000000000000000 PUSH1 0x0 DUP3 ADD MSTORE POP JUMP JUMPDEST PUSH32 0x57726F6E67206E756D6265720000000000000000000000000000000000000000 PUSH1 0x0 DUP3 ADD MSTORE POP JUMP JUMPDEST PUSH32 0x57726F6E67206E756D626572206F66206E756D62657273000000000000000000 PUSH1 0x0 DUP3 ADD MSTORE POP JUMP JUMPDEST PUSH32 0x41206C6F74746572792069732072756E6E696E67000000000000000000000000 PUSH1 0x0 DUP3 ADD MSTORE POP JUMP JUMPDEST PUSH32 0x57726F6E6720616D6F756E740000000000000000000000000000000000000000 PUSH1 0x0 DUP3 ADD MSTORE POP JUMP JUMPDEST PUSH2 0x1EB2 DUP2 PUSH2 0x1B72 JUMP JUMPDEST DUP2 EQ PUSH2 0x1EBD JUMPI PUSH1 0x0 DUP1 REVERT JUMPDEST POP JUMP INVALID LOG2 PUSH5 0x6970667358 0x22 SLT KECCAK256 DUP11 0xED PUSH14 0xB0665082748687EC71C6689745FF 0xBC 0xCE COINBASE PC ADD 0x2B 0xD9 0x27 EXTCODESIZE ADDMOD 0xB3 0xDE SWAP10 0xC3 BYTE PUSH5 0x736F6C6343 STOP ADDMOD SMOD STOP CALLER "
				},
				"gasEstimates": {
					"creation": {
						"codeDepositCost": "1585200",
						"executionCost": "77304",
						"totalCost": "1662504"
					},
					"external": {
						"BeginLottery()": "infinite",
						"EndLottery()": "infinite",
						"NrticketsBought()": "2517",
						"Pull()": "infinite",
						"buyTicket(uint256[])": "infinite",
						"changeTicketPrice(uint256)": "infinite",
						"getMyTicketNumbers()": "infinite",
						"getTicketPrice()": "infinite",
						"getTotalLotteryPot()": "infinite",
						"getWinningNumber()": "infinite",
						"lotteryStarted()": "2538",
						"owner()": "2533",
						"playersAddresses(uint256)": "4979",
						"setWinningNumber(uint256[])": "infinite"
					}
				},
				"methodIdentifiers": {
					"BeginLottery()": "36c1ec23",
					"EndLottery()": "b04a3f1c",
					"NrticketsBought()": "d386ea73",
					"Pull()": "30daec49",
					"buyTicket(uint256[])": "716cac96",
					"changeTicketPrice(uint256)": "4630a0ee",
					"getMyTicketNumbers()": "a650fbab",
					"getTicketPrice()": "87bb7ae0",
					"getTotalLotteryPot()": "8a4a29c3",
					"getWinningNumber()": "8b0b9ed4",
					"lotteryStarted()": "5a3811b9",
					"owner()": "8da5cb5b",
					"playersAddresses(uint256)": "472016da",
					"setWinningNumber(uint256[])": "4efd7cca"
				}
			},
			"storageLayout": {
				"storage": [
					{
						"astId": 3,
						"contract": "UZHPancakeLottery.sol:UZHPancakeLottery",
						"label": "owner",
						"offset": 0,
						"slot": "0",
						"type": "t_address"
					},
					{
						"astId": 6,
						"contract": "UZHPancakeLottery.sol:UZHPancakeLottery",
						"label": "winningNumber",
						"offset": 0,
						"slot": "1",
						"type": "t_array(t_uint256)dyn_storage"
					},
					{
						"astId": 11,
						"contract": "UZHPancakeLottery.sol:UZHPancakeLottery",
						"label": "playersTickets",
						"offset": 0,
						"slot": "2",
						"type": "t_mapping(t_address,t_array(t_uint256)dyn_storage)"
					},
					{
						"astId": 14,
						"contract": "UZHPancakeLottery.sol:UZHPancakeLottery",
						"label": "ticketprice",
						"offset": 0,
						"slot": "3",
						"type": "t_uint256"
					},
					{
						"astId": 16,
						"contract": "UZHPancakeLottery.sol:UZHPancakeLottery",
						"label": "TotalLotteryPot",
						"offset": 0,
						"slot": "4",
						"type": "t_uint256"
					},
					{
						"astId": 19,
						"contract": "UZHPancakeLottery.sol:UZHPancakeLottery",
						"label": "NrticketsBought",
						"offset": 0,
						"slot": "5",
						"type": "t_uint256"
					},
					{
						"astId": 22,
						"contract": "UZHPancakeLottery.sol:UZHPancakeLottery",
						"label": "playersAddresses",
						"offset": 0,
						"slot": "6",
						"type": "t_array(t_address)dyn_storage"
					},
					{
						"astId": 25,
						"contract": "UZHPancakeLottery.sol:UZHPancakeLottery",
						"label": "lotteryStarted",
						"offset": 0,
						"slot": "7",
						"type": "t_bool"
					}
				],
				"types": {
					"t_address": {
						"encoding": "inplace",
						"label": "address",
						"numberOfBytes": "20"
					},
					"t_array(t_address)dyn_storage": {
						"base": "t_address",
						"encoding": "dynamic_array",
						"label": "address[]",
						"numberOfBytes": "32"
					},
					"t_array(t_uint256)dyn_storage": {
						"base": "t_uint256",
						"encoding": "dynamic_array",
						"label": "uint256[]",
						"numberOfBytes": "32"
					},
					"t_bool": {
						"encoding": "inplace",
						"label": "bool",
						"numberOfBytes": "1"
					},
					"t_mapping(t_address,t_array(t_uint256)dyn_storage)": {
						"encoding": "mapping",
						"key": "t_address",
						"label": "mapping(address => uint256[])",
						"numberOfBytes": "32",
						"value": "t_array(t_uint256)dyn_storage"
					},
					"t_uint256": {
						"encoding": "inplace",
						"label": "uint256",
						"numberOfBytes": "32"
					}
				}
			},
			"userdoc": {
				"kind": "user",
				"methods": {},
				"version": 1
			}
		}
	}
}