{
	"PancakeSwap_UZH/Lottery/lotteryPancake.sol": {
		"PancakeLottery": {
			"abi": [
				{
					"inputs": [],
					"stateMutability": "nonpayable",
					"type": "constructor"
				},
				{
					"inputs": [],
					"name": "burnAmount",
					"outputs": [
						{
							"internalType": "uint256",
							"name": "",
							"type": "uint256"
						}
					],
					"stateMutability": "view",
					"type": "function"
				},
				{
					"inputs": [],
					"name": "burnPool",
					"outputs": [
						{
							"internalType": "uint256",
							"name": "",
							"type": "uint256"
						}
					],
					"stateMutability": "view",
					"type": "function"
				},
				{
					"inputs": [
						{
							"internalType": "uint256[]",
							"name": "ticket",
							"type": "uint256[]"
						}
					],
					"name": "buyTicket",
					"outputs": [],
					"stateMutability": "payable",
					"type": "function"
				},
				{
					"inputs": [],
					"name": "calculatePrizes",
					"outputs": [],
					"stateMutability": "nonpayable",
					"type": "function"
				},
				{
					"inputs": [
						{
							"internalType": "uint256",
							"name": "ticketnumber",
							"type": "uint256"
						}
					],
					"name": "claimPrizes",
					"outputs": [],
					"stateMutability": "nonpayable",
					"type": "function"
				},
				{
					"inputs": [],
					"name": "distributePrizes",
					"outputs": [],
					"stateMutability": "nonpayable",
					"type": "function"
				},
				{
					"inputs": [],
					"name": "endRound",
					"outputs": [],
					"stateMutability": "nonpayable",
					"type": "function"
				},
				{
					"inputs": [],
					"name": "getTicketsBoughtCount",
					"outputs": [
						{
							"internalType": "uint256",
							"name": "count",
							"type": "uint256"
						}
					],
					"stateMutability": "view",
					"type": "function"
				},
				{
					"inputs": [],
					"name": "getWinningNumbers",
					"outputs": [
						{
							"internalType": "uint256[6]",
							"name": "",
							"type": "uint256[6]"
						}
					],
					"stateMutability": "view",
					"type": "function"
				},
				{
					"inputs": [],
					"name": "owner",
					"outputs": [
						{
							"internalType": "address",
							"name": "",
							"type": "address"
						}
					],
					"stateMutability": "view",
					"type": "function"
				},
				{
					"inputs": [
						{
							"internalType": "uint256",
							"name": "",
							"type": "uint256"
						},
						{
							"internalType": "uint256",
							"name": "",
							"type": "uint256"
						}
					],
					"name": "prizePools",
					"outputs": [
						{
							"internalType": "uint256",
							"name": "",
							"type": "uint256"
						}
					],
					"stateMutability": "view",
					"type": "function"
				},
				{
					"inputs": [
						{
							"internalType": "uint256[]",
							"name": "numbers",
							"type": "uint256[]"
						}
					],
					"name": "setWinningNumbers",
					"outputs": [],
					"stateMutability": "nonpayable",
					"type": "function"
				},
				{
					"inputs": [],
					"name": "setWinningNumbers",
					"outputs": [],
					"stateMutability": "nonpayable",
					"type": "function"
				},
				{
					"inputs": [],
					"name": "startRound",
					"outputs": [],
					"stateMutability": "nonpayable",
					"type": "function"
				},
				{
					"inputs": [],
					"name": "ticketPrice",
					"outputs": [
						{
							"internalType": "uint256",
							"name": "",
							"type": "uint256"
						}
					],
					"stateMutability": "view",
					"type": "function"
				},
				{
					"inputs": [
						{
							"internalType": "address",
							"name": "",
							"type": "address"
						},
						{
							"internalType": "uint256",
							"name": "",
							"type": "uint256"
						},
						{
							"internalType": "uint256",
							"name": "",
							"type": "uint256"
						}
					],
					"name": "tickets",
					"outputs": [
						{
							"internalType": "uint256",
							"name": "",
							"type": "uint256"
						}
					],
					"stateMutability": "view",
					"type": "function"
				},
				{
					"inputs": [],
					"name": "totalPrizePool",
					"outputs": [
						{
							"internalType": "uint256",
							"name": "",
							"type": "uint256"
						}
					],
					"stateMutability": "view",
					"type": "function"
				},
				{
					"inputs": [
						{
							"internalType": "uint256",
							"name": "ticketnr",
							"type": "uint256"
						}
					],
					"name": "viewTickets",
					"outputs": [
						{
							"internalType": "uint256[]",
							"name": "",
							"type": "uint256[]"
						}
					],
					"stateMutability": "view",
					"type": "function"
				},
				{
					"inputs": [
						{
							"internalType": "uint256",
							"name": "",
							"type": "uint256"
						}
					],
					"name": "winningNumbers",
					"outputs": [
						{
							"internalType": "uint256",
							"name": "",
							"type": "uint256"
						}
					],
					"stateMutability": "view",
					"type": "function"
				}
			],
			"devdoc": {
				"kind": "dev",
				"methods": {},
				"version": 1
			},
			"evm": {
				"assembly": "    /* \"PancakeSwap_UZH/Lottery/lotteryPancake.sol\":65:7725  contract PancakeLottery {\r... */\n  mstore(0x40, 0x80)\n    /* \"PancakeSwap_UZH/Lottery/lotteryPancake.sol\":414:569  constructor() public {\r... */\n  callvalue\n  dup1\n  iszero\n  tag_1\n  jumpi\n  0x00\n  dup1\n  revert\ntag_1:\n  pop\n    /* \"PancakeSwap_UZH/Lottery/lotteryPancake.sol\":454:464  msg.sender */\n  caller\n    /* \"PancakeSwap_UZH/Lottery/lotteryPancake.sol\":446:451  owner */\n  0x00\n  dup1\n    /* \"PancakeSwap_UZH/Lottery/lotteryPancake.sol\":446:464  owner = msg.sender */\n  0x0100\n  exp\n  dup2\n  sload\n  dup2\n  0xffffffffffffffffffffffffffffffffffffffff\n  mul\n  not\n  and\n  swap1\n  dup4\n  0xffffffffffffffffffffffffffffffffffffffff\n  and\n  mul\n  or\n  swap1\n  sstore\n  pop\n    /* \"PancakeSwap_UZH/Lottery/lotteryPancake.sol\":490:513  5 * 1000000000000000000 */\n  0x4563918244f40000\n    /* \"PancakeSwap_UZH/Lottery/lotteryPancake.sol\":476:487  ticketPrice */\n  0x01\n    /* \"PancakeSwap_UZH/Lottery/lotteryPancake.sol\":476:513  ticketPrice = 5 * 1000000000000000000 */\n  dup2\n  swap1\n  sstore\n  pop\n    /* \"PancakeSwap_UZH/Lottery/lotteryPancake.sol\":536:560  20 * 1000000000000000000 */\n  0x01158e460913d00000\n    /* \"PancakeSwap_UZH/Lottery/lotteryPancake.sol\":525:533  burnPool */\n  0x06\n    /* \"PancakeSwap_UZH/Lottery/lotteryPancake.sol\":525:560  burnPool = 20 * 1000000000000000000 */\n  dup2\n  swap1\n  sstore\n  pop\n    /* \"PancakeSwap_UZH/Lottery/lotteryPancake.sol\":65:7725  contract PancakeLottery {\r... */\n  dataSize(sub_0)\n  dup1\n  dataOffset(sub_0)\n  0x00\n  codecopy\n  0x00\n  return\nstop\n\nsub_0: assembly {\n        /* \"PancakeSwap_UZH/Lottery/lotteryPancake.sol\":65:7725  contract PancakeLottery {\r... */\n      mstore(0x40, 0x80)\n      jumpi(tag_1, lt(calldatasize, 0x04))\n      shr(0xe0, calldataload(0x00))\n      dup1\n      0x6c0d87fe\n      gt\n      tag_21\n      jumpi\n      dup1\n      0x8da5cb5b\n      gt\n      tag_22\n      jumpi\n      dup1\n      0x8da5cb5b\n      eq\n      tag_16\n      jumpi\n      dup1\n      0x8e7e9a3c\n      eq\n      tag_17\n      jumpi\n      dup1\n      0xa54b2a73\n      eq\n      tag_18\n      jumpi\n      dup1\n      0xa7caba25\n      eq\n      tag_19\n      jumpi\n      dup1\n      0xab3eb60e\n      eq\n      tag_20\n      jumpi\n      jump(tag_1)\n    tag_22:\n      dup1\n      0x6c0d87fe\n      eq\n      tag_11\n      jumpi\n      dup1\n      0x716cac96\n      eq\n      tag_12\n      jumpi\n      dup1\n      0x749aa2d9\n      eq\n      tag_13\n      jumpi\n      dup1\n      0x7ce52eb6\n      eq\n      tag_14\n      jumpi\n      dup1\n      0x84350e1d\n      eq\n      tag_15\n      jumpi\n      jump(tag_1)\n    tag_21:\n      dup1\n      0x398ab9a7\n      gt\n      tag_23\n      jumpi\n      dup1\n      0x398ab9a7\n      eq\n      tag_6\n      jumpi\n      dup1\n      0x486a7e6b\n      eq\n      tag_7\n      jumpi\n      dup1\n      0x4e45f095\n      eq\n      tag_8\n      jumpi\n      dup1\n      0x541d4039\n      eq\n      tag_9\n      jumpi\n      dup1\n      0x55e3f086\n      eq\n      tag_10\n      jumpi\n      jump(tag_1)\n    tag_23:\n      dup1\n      0x1004b18d\n      eq\n      tag_2\n      jumpi\n      dup1\n      0x1209b1f6\n      eq\n      tag_3\n      jumpi\n      dup1\n      0x1b646259\n      eq\n      tag_4\n      jumpi\n      dup1\n      0x2115f4d1\n      eq\n      tag_5\n      jumpi\n    tag_1:\n      0x00\n      dup1\n      revert\n        /* \"PancakeSwap_UZH/Lottery/lotteryPancake.sol\":2238:2494  function setWinningNumbers(uint256[] memory numbers) public {\r... */\n    tag_2:\n      callvalue\n      dup1\n      iszero\n      tag_24\n      jumpi\n      0x00\n      dup1\n      revert\n    tag_24:\n      pop\n      tag_25\n      0x04\n      dup1\n      calldatasize\n      sub\n      dup2\n      add\n      swap1\n      tag_26\n      swap2\n      swap1\n      tag_27\n      jump\t// in\n    tag_26:\n      tag_28\n      jump\t// in\n    tag_25:\n      stop\n        /* \"PancakeSwap_UZH/Lottery/lotteryPancake.sol\":124:150  uint256 public ticketPrice */\n    tag_3:\n      callvalue\n      dup1\n      iszero\n      tag_29\n      jumpi\n      0x00\n      dup1\n      revert\n    tag_29:\n      pop\n      tag_30\n      tag_31\n      jump\t// in\n    tag_30:\n      mload(0x40)\n      tag_32\n      swap2\n      swap1\n      tag_33\n      jump\t// in\n    tag_32:\n      mload(0x40)\n      dup1\n      swap2\n      sub\n      swap1\n      return\n        /* \"PancakeSwap_UZH/Lottery/lotteryPancake.sol\":252:300  mapping (uint256 => uint256[]) public prizePools */\n    tag_4:\n      callvalue\n      dup1\n      iszero\n      tag_34\n      jumpi\n      0x00\n      dup1\n      revert\n    tag_34:\n      pop\n      tag_35\n      0x04\n      dup1\n      calldatasize\n      sub\n      dup2\n      add\n      swap1\n      tag_36\n      swap2\n      swap1\n      tag_37\n      jump\t// in\n    tag_36:\n      tag_38\n      jump\t// in\n    tag_35:\n      mload(0x40)\n      tag_39\n      swap2\n      swap1\n      tag_33\n      jump\t// in\n    tag_39:\n      mload(0x40)\n      dup1\n      swap2\n      sub\n      swap1\n      return\n        /* \"PancakeSwap_UZH/Lottery/lotteryPancake.sol\":158:205  mapping (address => uint256[][]) public tickets */\n    tag_5:\n      callvalue\n      dup1\n      iszero\n      tag_40\n      jumpi\n      0x00\n      dup1\n      revert\n    tag_40:\n      pop\n      tag_41\n      0x04\n      dup1\n      calldatasize\n      sub\n      dup2\n      add\n      swap1\n      tag_42\n      swap2\n      swap1\n      tag_43\n      jump\t// in\n    tag_42:\n      tag_44\n      jump\t// in\n    tag_41:\n      mload(0x40)\n      tag_45\n      swap2\n      swap1\n      tag_33\n      jump\t// in\n    tag_45:\n      mload(0x40)\n      dup1\n      swap2\n      sub\n      swap1\n      return\n        /* \"PancakeSwap_UZH/Lottery/lotteryPancake.sol\":307:336  uint256 public totalPrizePool */\n    tag_6:\n      callvalue\n      dup1\n      iszero\n      tag_46\n      jumpi\n      0x00\n      dup1\n      revert\n    tag_46:\n      pop\n      tag_47\n      tag_48\n      jump\t// in\n    tag_47:\n      mload(0x40)\n      tag_49\n      swap2\n      swap1\n      tag_33\n      jump\t// in\n    tag_49:\n      mload(0x40)\n      dup1\n      swap2\n      sub\n      swap1\n      return\n        /* \"PancakeSwap_UZH/Lottery/lotteryPancake.sol\":375:400  uint256 public burnAmount */\n    tag_7:\n      callvalue\n      dup1\n      iszero\n      tag_50\n      jumpi\n      0x00\n      dup1\n      revert\n    tag_50:\n      pop\n      tag_51\n      tag_52\n      jump\t// in\n    tag_51:\n      mload(0x40)\n      tag_53\n      swap2\n      swap1\n      tag_33\n      jump\t// in\n    tag_53:\n      mload(0x40)\n      dup1\n      swap2\n      sub\n      swap1\n      return\n        /* \"PancakeSwap_UZH/Lottery/lotteryPancake.sol\":213:244  uint256[] public winningNumbers */\n    tag_8:\n      callvalue\n      dup1\n      iszero\n      tag_54\n      jumpi\n      0x00\n      dup1\n      revert\n    tag_54:\n      pop\n      tag_55\n      0x04\n      dup1\n      calldatasize\n      sub\n      dup2\n      add\n      swap1\n      tag_56\n      swap2\n      swap1\n      tag_57\n      jump\t// in\n    tag_56:\n      tag_58\n      jump\t// in\n    tag_55:\n      mload(0x40)\n      tag_59\n      swap2\n      swap1\n      tag_33\n      jump\t// in\n    tag_59:\n      mload(0x40)\n      dup1\n      swap2\n      sub\n      swap1\n      return\n        /* \"PancakeSwap_UZH/Lottery/lotteryPancake.sol\":5423:6590  function claimPrizes(uint256 ticketnumber) public {\r... */\n    tag_9:\n      callvalue\n      dup1\n      iszero\n      tag_60\n      jumpi\n      0x00\n      dup1\n      revert\n    tag_60:\n      pop\n      tag_61\n      0x04\n      dup1\n      calldatasize\n      sub\n      dup2\n      add\n      swap1\n      tag_62\n      swap2\n      swap1\n      tag_57\n      jump\t// in\n    tag_62:\n      tag_63\n      jump\t// in\n    tag_61:\n      stop\n        /* \"PancakeSwap_UZH/Lottery/lotteryPancake.sol\":1704:2073  function startRound() public {\r... */\n    tag_10:\n      callvalue\n      dup1\n      iszero\n      tag_64\n      jumpi\n      0x00\n      dup1\n      revert\n    tag_64:\n      pop\n      tag_65\n      tag_66\n      jump\t// in\n    tag_65:\n      stop\n        /* \"PancakeSwap_UZH/Lottery/lotteryPancake.sol\":1179:1287  function getTicketsBoughtCount() public view returns(uint count){\r... */\n    tag_11:\n      callvalue\n      dup1\n      iszero\n      tag_67\n      jumpi\n      0x00\n      dup1\n      revert\n    tag_67:\n      pop\n      tag_68\n      tag_69\n      jump\t// in\n    tag_68:\n      mload(0x40)\n      tag_70\n      swap2\n      swap1\n      tag_33\n      jump\t// in\n    tag_70:\n      mload(0x40)\n      dup1\n      swap2\n      sub\n      swap1\n      return\n        /* \"PancakeSwap_UZH/Lottery/lotteryPancake.sol\":766:1118  function buyTicket(uint256[] memory ticket) public payable {\r... */\n    tag_12:\n      tag_71\n      0x04\n      dup1\n      calldatasize\n      sub\n      dup2\n      add\n      swap1\n      tag_72\n      swap2\n      swap1\n      tag_27\n      jump\t// in\n    tag_72:\n      tag_73\n      jump\t// in\n    tag_71:\n      stop\n        /* \"PancakeSwap_UZH/Lottery/lotteryPancake.sol\":6810:7244  function endRound() public {\r... */\n    tag_13:\n      callvalue\n      dup1\n      iszero\n      tag_74\n      jumpi\n      0x00\n      dup1\n      revert\n    tag_74:\n      pop\n      tag_75\n      tag_76\n      jump\t// in\n    tag_75:\n      stop\n        /* \"PancakeSwap_UZH/Lottery/lotteryPancake.sol\":7410:7722  function distributePrizes() public {\r... */\n    tag_14:\n      callvalue\n      dup1\n      iszero\n      tag_77\n      jumpi\n      0x00\n      dup1\n      revert\n    tag_77:\n      pop\n      tag_78\n      tag_79\n      jump\t// in\n    tag_78:\n      stop\n        /* \"PancakeSwap_UZH/Lottery/lotteryPancake.sol\":3120:3387  function getWinningNumbers() public view returns (uint256[6] memory) {\r... */\n    tag_15:\n      callvalue\n      dup1\n      iszero\n      tag_80\n      jumpi\n      0x00\n      dup1\n      revert\n    tag_80:\n      pop\n      tag_81\n      tag_82\n      jump\t// in\n    tag_81:\n      mload(0x40)\n      tag_83\n      swap2\n      swap1\n      tag_84\n      jump\t// in\n    tag_83:\n      mload(0x40)\n      dup1\n      swap2\n      sub\n      swap1\n      return\n        /* \"PancakeSwap_UZH/Lottery/lotteryPancake.sol\":96:116  address public owner */\n    tag_16:\n      callvalue\n      dup1\n      iszero\n      tag_85\n      jumpi\n      0x00\n      dup1\n      revert\n    tag_85:\n      pop\n      tag_86\n      tag_87\n      jump\t// in\n    tag_86:\n      mload(0x40)\n      tag_88\n      swap2\n      swap1\n      tag_89\n      jump\t// in\n    tag_88:\n      mload(0x40)\n      dup1\n      swap2\n      sub\n      swap1\n      return\n        /* \"PancakeSwap_UZH/Lottery/lotteryPancake.sol\":3693:5232  function calculatePrizes() public {\r... */\n    tag_17:\n      callvalue\n      dup1\n      iszero\n      tag_90\n      jumpi\n      0x00\n      dup1\n      revert\n    tag_90:\n      pop\n      tag_91\n      tag_92\n      jump\t// in\n    tag_91:\n      stop\n        /* \"PancakeSwap_UZH/Lottery/lotteryPancake.sol\":344:367  uint256 public burnPool */\n    tag_18:\n      callvalue\n      dup1\n      iszero\n      tag_93\n      jumpi\n      0x00\n      dup1\n      revert\n    tag_93:\n      pop\n      tag_94\n      tag_95\n      jump\t// in\n    tag_94:\n      mload(0x40)\n      tag_96\n      swap2\n      swap1\n      tag_33\n      jump\t// in\n    tag_96:\n      mload(0x40)\n      dup1\n      swap2\n      sub\n      swap1\n      return\n        /* \"PancakeSwap_UZH/Lottery/lotteryPancake.sol\":2696:3025  function setWinningNumbers() public {\r... */\n    tag_19:\n      callvalue\n      dup1\n      iszero\n      tag_97\n      jumpi\n      0x00\n      dup1\n      revert\n    tag_97:\n      pop\n      tag_98\n      tag_99\n      jump\t// in\n    tag_98:\n      stop\n        /* \"PancakeSwap_UZH/Lottery/lotteryPancake.sol\":1398:1530  function viewTickets(uint256 ticketnr) public view returns(uint256[] memory) {\r... */\n    tag_20:\n      callvalue\n      dup1\n      iszero\n      tag_100\n      jumpi\n      0x00\n      dup1\n      revert\n    tag_100:\n      pop\n      tag_101\n      0x04\n      dup1\n      calldatasize\n      sub\n      dup2\n      add\n      swap1\n      tag_102\n      swap2\n      swap1\n      tag_57\n      jump\t// in\n    tag_102:\n      tag_103\n      jump\t// in\n    tag_101:\n      mload(0x40)\n      tag_104\n      swap2\n      swap1\n      tag_105\n      jump\t// in\n    tag_104:\n      mload(0x40)\n      dup1\n      swap2\n      sub\n      swap1\n      return\n        /* \"PancakeSwap_UZH/Lottery/lotteryPancake.sol\":2238:2494  function setWinningNumbers(uint256[] memory numbers) public {\r... */\n    tag_28:\n        /* \"PancakeSwap_UZH/Lottery/lotteryPancake.sol\":2331:2336  owner */\n      0x00\n      dup1\n      sload\n      swap1\n      0x0100\n      exp\n      swap1\n      div\n      0xffffffffffffffffffffffffffffffffffffffff\n      and\n        /* \"PancakeSwap_UZH/Lottery/lotteryPancake.sol\":2317:2336  msg.sender == owner */\n      0xffffffffffffffffffffffffffffffffffffffff\n      and\n        /* \"PancakeSwap_UZH/Lottery/lotteryPancake.sol\":2317:2327  msg.sender */\n      caller\n        /* \"PancakeSwap_UZH/Lottery/lotteryPancake.sol\":2317:2336  msg.sender == owner */\n      0xffffffffffffffffffffffffffffffffffffffff\n      and\n      eq\n        /* \"PancakeSwap_UZH/Lottery/lotteryPancake.sol\":2309:2383  require(msg.sender == owner, \"Only the owner can set the winning numbers\") */\n      tag_107\n      jumpi\n      mload(0x40)\n      0x08c379a000000000000000000000000000000000000000000000000000000000\n      dup2\n      mstore\n      0x04\n      add\n      tag_108\n      swap1\n      tag_109\n      jump\t// in\n    tag_108:\n      mload(0x40)\n      dup1\n      swap2\n      sub\n      swap1\n      revert\n    tag_107:\n        /* \"PancakeSwap_UZH/Lottery/lotteryPancake.sol\":2421:2422  6 */\n      0x06\n        /* \"PancakeSwap_UZH/Lottery/lotteryPancake.sol\":2403:2410  numbers */\n      dup2\n        /* \"PancakeSwap_UZH/Lottery/lotteryPancake.sol\":2403:2417  numbers.length */\n      mload\n        /* \"PancakeSwap_UZH/Lottery/lotteryPancake.sol\":2403:2422  numbers.length == 6 */\n      eq\n        /* \"PancakeSwap_UZH/Lottery/lotteryPancake.sol\":2395:2449  require(numbers.length == 6, \"Must provide 6 numbers\") */\n      tag_110\n      jumpi\n      mload(0x40)\n      0x08c379a000000000000000000000000000000000000000000000000000000000\n      dup2\n      mstore\n      0x04\n      add\n      tag_111\n      swap1\n      tag_112\n      jump\t// in\n    tag_111:\n      mload(0x40)\n      dup1\n      swap2\n      sub\n      swap1\n      revert\n    tag_110:\n        /* \"PancakeSwap_UZH/Lottery/lotteryPancake.sol\":2478:2485  numbers */\n      dup1\n        /* \"PancakeSwap_UZH/Lottery/lotteryPancake.sol\":2461:2475  winningNumbers */\n      0x03\n        /* \"PancakeSwap_UZH/Lottery/lotteryPancake.sol\":2461:2485  winningNumbers = numbers */\n      swap1\n      dup1\n      mload\n      swap1\n      0x20\n      add\n      swap1\n      tag_113\n      swap3\n      swap2\n      swap1\n      tag_114\n      jump\t// in\n    tag_113:\n      pop\n        /* \"PancakeSwap_UZH/Lottery/lotteryPancake.sol\":2238:2494  function setWinningNumbers(uint256[] memory numbers) public {\r... */\n      pop\n      jump\t// out\n        /* \"PancakeSwap_UZH/Lottery/lotteryPancake.sol\":124:150  uint256 public ticketPrice */\n    tag_31:\n      sload(0x01)\n      dup2\n      jump\t// out\n        /* \"PancakeSwap_UZH/Lottery/lotteryPancake.sol\":252:300  mapping (uint256 => uint256[]) public prizePools */\n    tag_38:\n      mstore(0x20, 0x04)\n      dup2\n      0x00\n      mstore\n      keccak256(0x00, 0x40)\n      dup2\n      dup2\n      sload\n      dup2\n      lt\n      tag_115\n      jumpi\n      invalid\n    tag_115:\n      swap1\n      0x00\n      mstore\n      keccak256(0x00, 0x20)\n      add\n      0x00\n      swap2\n      pop\n      swap2\n      pop\n      pop\n      sload\n      dup2\n      jump\t// out\n        /* \"PancakeSwap_UZH/Lottery/lotteryPancake.sol\":158:205  mapping (address => uint256[][]) public tickets */\n    tag_44:\n      mstore(0x20, 0x02)\n      dup3\n      0x00\n      mstore\n      keccak256(0x00, 0x40)\n      dup3\n      dup2\n      sload\n      dup2\n      lt\n      tag_117\n      jumpi\n      invalid\n    tag_117:\n      swap1\n      0x00\n      mstore\n      keccak256(0x00, 0x20)\n      add\n      dup2\n      dup2\n      sload\n      dup2\n      lt\n      tag_119\n      jumpi\n      invalid\n    tag_119:\n      swap1\n      0x00\n      mstore\n      keccak256(0x00, 0x20)\n      add\n      0x00\n      swap3\n      pop\n      swap3\n      pop\n      pop\n      pop\n      sload\n      dup2\n      jump\t// out\n        /* \"PancakeSwap_UZH/Lottery/lotteryPancake.sol\":307:336  uint256 public totalPrizePool */\n    tag_48:\n      sload(0x05)\n      dup2\n      jump\t// out\n        /* \"PancakeSwap_UZH/Lottery/lotteryPancake.sol\":375:400  uint256 public burnAmount */\n    tag_52:\n      sload(0x07)\n      dup2\n      jump\t// out\n        /* \"PancakeSwap_UZH/Lottery/lotteryPancake.sol\":213:244  uint256[] public winningNumbers */\n    tag_58:\n      0x03\n      dup2\n      dup2\n      sload\n      dup2\n      lt\n      tag_121\n      jumpi\n      invalid\n    tag_121:\n      swap1\n      0x00\n      mstore\n      keccak256(0x00, 0x20)\n      add\n      0x00\n      swap2\n      pop\n      swap1\n      pop\n      sload\n      dup2\n      jump\t// out\n        /* \"PancakeSwap_UZH/Lottery/lotteryPancake.sol\":5423:6590  function claimPrizes(uint256 ticketnumber) public {\r... */\n    tag_63:\n        /* \"PancakeSwap_UZH/Lottery/lotteryPancake.sol\":5521:5522  0 */\n      0x00\n        /* \"PancakeSwap_UZH/Lottery/lotteryPancake.sol\":5492:5499  tickets */\n      0x02\n        /* \"PancakeSwap_UZH/Lottery/lotteryPancake.sol\":5492:5511  tickets[msg.sender] */\n      0x00\n        /* \"PancakeSwap_UZH/Lottery/lotteryPancake.sol\":5500:5510  msg.sender */\n      caller\n        /* \"PancakeSwap_UZH/Lottery/lotteryPancake.sol\":5492:5511  tickets[msg.sender] */\n      0xffffffffffffffffffffffffffffffffffffffff\n      and\n      0xffffffffffffffffffffffffffffffffffffffff\n      and\n      dup2\n      mstore\n      0x20\n      add\n      swap1\n      dup2\n      mstore\n      0x20\n      add\n      0x00\n      keccak256\n        /* \"PancakeSwap_UZH/Lottery/lotteryPancake.sol\":5492:5518  tickets[msg.sender].length */\n      dup1\n      sload\n      swap1\n      pop\n        /* \"PancakeSwap_UZH/Lottery/lotteryPancake.sol\":5492:5522  tickets[msg.sender].length > 0 */\n      gt\n        /* \"PancakeSwap_UZH/Lottery/lotteryPancake.sol\":5484:5560  require(tickets[msg.sender].length > 0, \"You don't have any tickets at all\") */\n      tag_124\n      jumpi\n      mload(0x40)\n      0x08c379a000000000000000000000000000000000000000000000000000000000\n      dup2\n      mstore\n      0x04\n      add\n      tag_125\n      swap1\n      tag_126\n      jump\t// in\n    tag_125:\n      mload(0x40)\n      dup1\n      swap2\n      sub\n      swap1\n      revert\n    tag_124:\n        /* \"PancakeSwap_UZH/Lottery/lotteryPancake.sol\":5623:5624  0 */\n      0x00\n        /* \"PancakeSwap_UZH/Lottery/lotteryPancake.sol\":5580:5587  tickets */\n      0x02\n        /* \"PancakeSwap_UZH/Lottery/lotteryPancake.sol\":5580:5599  tickets[msg.sender] */\n      0x00\n        /* \"PancakeSwap_UZH/Lottery/lotteryPancake.sol\":5588:5598  msg.sender */\n      caller\n        /* \"PancakeSwap_UZH/Lottery/lotteryPancake.sol\":5580:5599  tickets[msg.sender] */\n      0xffffffffffffffffffffffffffffffffffffffff\n      and\n      0xffffffffffffffffffffffffffffffffffffffff\n      and\n      dup2\n      mstore\n      0x20\n      add\n      swap1\n      dup2\n      mstore\n      0x20\n      add\n      0x00\n      keccak256\n        /* \"PancakeSwap_UZH/Lottery/lotteryPancake.sol\":5600:5612  ticketnumber */\n      dup3\n        /* \"PancakeSwap_UZH/Lottery/lotteryPancake.sol\":5580:5613  tickets[msg.sender][ticketnumber] */\n      dup2\n      sload\n      dup2\n      lt\n      tag_127\n      jumpi\n      invalid\n    tag_127:\n      swap1\n      0x00\n      mstore\n      keccak256(0x00, 0x20)\n      add\n        /* \"PancakeSwap_UZH/Lottery/lotteryPancake.sol\":5580:5620  tickets[msg.sender][ticketnumber].length */\n      dup1\n      sload\n      swap1\n      pop\n        /* \"PancakeSwap_UZH/Lottery/lotteryPancake.sol\":5580:5624  tickets[msg.sender][ticketnumber].length > 0 */\n      gt\n        /* \"PancakeSwap_UZH/Lottery/lotteryPancake.sol\":5572:5655  require(tickets[msg.sender][ticketnumber].length > 0, \"No ticket with that number\") */\n      tag_129\n      jumpi\n      mload(0x40)\n      0x08c379a000000000000000000000000000000000000000000000000000000000\n      dup2\n      mstore\n      0x04\n      add\n      tag_130\n      swap1\n      tag_131\n      jump\t// in\n    tag_130:\n      mload(0x40)\n      dup1\n      swap2\n      sub\n      swap1\n      revert\n    tag_129:\n        /* \"PancakeSwap_UZH/Lottery/lotteryPancake.sol\":5667:5682  uint256 counter */\n      0x00\n        /* \"PancakeSwap_UZH/Lottery/lotteryPancake.sol\":5703:5712  uint256 j */\n      dup1\n        /* \"PancakeSwap_UZH/Lottery/lotteryPancake.sol\":5698:5864  for (uint256 j = 0; j < 6; j++) {\r... */\n    tag_132:\n        /* \"PancakeSwap_UZH/Lottery/lotteryPancake.sol\":5722:5723  6 */\n      0x06\n        /* \"PancakeSwap_UZH/Lottery/lotteryPancake.sol\":5718:5719  j */\n      dup2\n        /* \"PancakeSwap_UZH/Lottery/lotteryPancake.sol\":5718:5723  j < 6 */\n      lt\n        /* \"PancakeSwap_UZH/Lottery/lotteryPancake.sol\":5698:5864  for (uint256 j = 0; j < 6; j++) {\r... */\n      iszero\n      tag_133\n      jumpi\n        /* \"PancakeSwap_UZH/Lottery/lotteryPancake.sol\":5789:5803  winningNumbers */\n      0x03\n        /* \"PancakeSwap_UZH/Lottery/lotteryPancake.sol\":5804:5805  j */\n      dup2\n        /* \"PancakeSwap_UZH/Lottery/lotteryPancake.sol\":5789:5806  winningNumbers[j] */\n      dup2\n      sload\n      dup2\n      lt\n      tag_135\n      jumpi\n      invalid\n    tag_135:\n      swap1\n      0x00\n      mstore\n      keccak256(0x00, 0x20)\n      add\n      sload\n        /* \"PancakeSwap_UZH/Lottery/lotteryPancake.sol\":5749:5756  tickets */\n      0x02\n        /* \"PancakeSwap_UZH/Lottery/lotteryPancake.sol\":5749:5768  tickets[msg.sender] */\n      0x00\n        /* \"PancakeSwap_UZH/Lottery/lotteryPancake.sol\":5757:5767  msg.sender */\n      caller\n        /* \"PancakeSwap_UZH/Lottery/lotteryPancake.sol\":5749:5768  tickets[msg.sender] */\n      0xffffffffffffffffffffffffffffffffffffffff\n      and\n      0xffffffffffffffffffffffffffffffffffffffff\n      and\n      dup2\n      mstore\n      0x20\n      add\n      swap1\n      dup2\n      mstore\n      0x20\n      add\n      0x00\n      keccak256\n        /* \"PancakeSwap_UZH/Lottery/lotteryPancake.sol\":5769:5781  ticketnumber */\n      dup5\n        /* \"PancakeSwap_UZH/Lottery/lotteryPancake.sol\":5749:5782  tickets[msg.sender][ticketnumber] */\n      dup2\n      sload\n      dup2\n      lt\n      tag_137\n      jumpi\n      invalid\n    tag_137:\n      swap1\n      0x00\n      mstore\n      keccak256(0x00, 0x20)\n      add\n        /* \"PancakeSwap_UZH/Lottery/lotteryPancake.sol\":5783:5784  j */\n      dup3\n        /* \"PancakeSwap_UZH/Lottery/lotteryPancake.sol\":5749:5785  tickets[msg.sender][ticketnumber][j] */\n      dup2\n      sload\n      dup2\n      lt\n      tag_139\n      jumpi\n      invalid\n    tag_139:\n      swap1\n      0x00\n      mstore\n      keccak256(0x00, 0x20)\n      add\n      sload\n        /* \"PancakeSwap_UZH/Lottery/lotteryPancake.sol\":5749:5806  tickets[msg.sender][ticketnumber][j] == winningNumbers[j] */\n      eq\n        /* \"PancakeSwap_UZH/Lottery/lotteryPancake.sol\":5745:5853  if (tickets[msg.sender][ticketnumber][j] == winningNumbers[j]) {\r... */\n      iszero\n      tag_141\n      jumpi\n        /* \"PancakeSwap_UZH/Lottery/lotteryPancake.sol\":5827:5836  counter++ */\n      dup2\n      dup1\n      0x01\n      add\n      swap3\n      pop\n      pop\n        /* \"PancakeSwap_UZH/Lottery/lotteryPancake.sol\":5745:5853  if (tickets[msg.sender][ticketnumber][j] == winningNumbers[j]) {\r... */\n    tag_141:\n        /* \"PancakeSwap_UZH/Lottery/lotteryPancake.sol\":5725:5728  j++ */\n      dup1\n      dup1\n      0x01\n      add\n      swap2\n      pop\n      pop\n        /* \"PancakeSwap_UZH/Lottery/lotteryPancake.sol\":5698:5864  for (uint256 j = 0; j < 6; j++) {\r... */\n      jump(tag_132)\n    tag_133:\n      pop\n        /* \"PancakeSwap_UZH/Lottery/lotteryPancake.sol\":5889:5890  1 */\n      0x01\n        /* \"PancakeSwap_UZH/Lottery/lotteryPancake.sol\":5878:5885  counter */\n      dup2\n        /* \"PancakeSwap_UZH/Lottery/lotteryPancake.sol\":5878:5890  counter == 1 */\n      eq\n        /* \"PancakeSwap_UZH/Lottery/lotteryPancake.sol\":5874:6442  if (counter == 1) {\r... */\n      iszero\n      tag_142\n      jumpi\n        /* \"PancakeSwap_UZH/Lottery/lotteryPancake.sol\":5927:5950  2 * 1000000000000000000 */\n      0x1bc16d674ec80000\n        /* \"PancakeSwap_UZH/Lottery/lotteryPancake.sol\":5907:5917  prizePools */\n      0x04\n        /* \"PancakeSwap_UZH/Lottery/lotteryPancake.sol\":5907:5920  prizePools[0] */\n      0x00\n        /* \"PancakeSwap_UZH/Lottery/lotteryPancake.sol\":5918:5919  0 */\n      dup1\n        /* \"PancakeSwap_UZH/Lottery/lotteryPancake.sol\":5907:5920  prizePools[0] */\n      dup2\n      mstore\n      0x20\n      add\n      swap1\n      dup2\n      mstore\n      0x20\n      add\n      0x00\n      keccak256\n        /* \"PancakeSwap_UZH/Lottery/lotteryPancake.sol\":5921:5922  1 */\n      0x01\n        /* \"PancakeSwap_UZH/Lottery/lotteryPancake.sol\":5907:5923  prizePools[0][1] */\n      dup2\n      sload\n      dup2\n      lt\n      tag_143\n      jumpi\n      invalid\n    tag_143:\n      swap1\n      0x00\n      mstore\n      keccak256(0x00, 0x20)\n      add\n      0x00\n        /* \"PancakeSwap_UZH/Lottery/lotteryPancake.sol\":5907:5950  prizePools[0][1] += 2 * 1000000000000000000 */\n      dup3\n      dup3\n      sload\n      add\n      swap3\n      pop\n      pop\n      dup2\n      swap1\n      sstore\n      pop\n        /* \"PancakeSwap_UZH/Lottery/lotteryPancake.sol\":5874:6442  if (counter == 1) {\r... */\n      jump(tag_145)\n    tag_142:\n        /* \"PancakeSwap_UZH/Lottery/lotteryPancake.sol\":5984:5985  2 */\n      0x02\n        /* \"PancakeSwap_UZH/Lottery/lotteryPancake.sol\":5973:5980  counter */\n      dup2\n        /* \"PancakeSwap_UZH/Lottery/lotteryPancake.sol\":5973:5985  counter == 2 */\n      eq\n        /* \"PancakeSwap_UZH/Lottery/lotteryPancake.sol\":5969:6442  if (counter == 2) {\r... */\n      iszero\n      tag_146\n      jumpi\n        /* \"PancakeSwap_UZH/Lottery/lotteryPancake.sol\":6022:6045  3 * 1000000000000000000 */\n      0x29a2241af62c0000\n        /* \"PancakeSwap_UZH/Lottery/lotteryPancake.sol\":6002:6012  prizePools */\n      0x04\n        /* \"PancakeSwap_UZH/Lottery/lotteryPancake.sol\":6002:6015  prizePools[1] */\n      0x00\n        /* \"PancakeSwap_UZH/Lottery/lotteryPancake.sol\":6013:6014  1 */\n      0x01\n        /* \"PancakeSwap_UZH/Lottery/lotteryPancake.sol\":6002:6015  prizePools[1] */\n      dup2\n      mstore\n      0x20\n      add\n      swap1\n      dup2\n      mstore\n      0x20\n      add\n      0x00\n      keccak256\n        /* \"PancakeSwap_UZH/Lottery/lotteryPancake.sol\":6016:6017  1 */\n      0x01\n        /* \"PancakeSwap_UZH/Lottery/lotteryPancake.sol\":6002:6018  prizePools[1][1] */\n      dup2\n      sload\n      dup2\n      lt\n      tag_147\n      jumpi\n      invalid\n    tag_147:\n      swap1\n      0x00\n      mstore\n      keccak256(0x00, 0x20)\n      add\n      0x00\n        /* \"PancakeSwap_UZH/Lottery/lotteryPancake.sol\":6002:6045  prizePools[1][1] += 3 * 1000000000000000000 */\n      dup3\n      dup3\n      sload\n      add\n      swap3\n      pop\n      pop\n      dup2\n      swap1\n      sstore\n      pop\n        /* \"PancakeSwap_UZH/Lottery/lotteryPancake.sol\":5969:6442  if (counter == 2) {\r... */\n      jump(tag_149)\n    tag_146:\n        /* \"PancakeSwap_UZH/Lottery/lotteryPancake.sol\":6079:6080  3 */\n      0x03\n        /* \"PancakeSwap_UZH/Lottery/lotteryPancake.sol\":6068:6075  counter */\n      dup2\n        /* \"PancakeSwap_UZH/Lottery/lotteryPancake.sol\":6068:6080  counter == 3 */\n      eq\n        /* \"PancakeSwap_UZH/Lottery/lotteryPancake.sol\":6064:6442  if (counter == 3) {\r... */\n      iszero\n      tag_150\n      jumpi\n        /* \"PancakeSwap_UZH/Lottery/lotteryPancake.sol\":6117:6141  5  * 1000000000000000000 */\n      0x4563918244f40000\n        /* \"PancakeSwap_UZH/Lottery/lotteryPancake.sol\":6097:6107  prizePools */\n      0x04\n        /* \"PancakeSwap_UZH/Lottery/lotteryPancake.sol\":6097:6110  prizePools[2] */\n      0x00\n        /* \"PancakeSwap_UZH/Lottery/lotteryPancake.sol\":6108:6109  2 */\n      0x02\n        /* \"PancakeSwap_UZH/Lottery/lotteryPancake.sol\":6097:6110  prizePools[2] */\n      dup2\n      mstore\n      0x20\n      add\n      swap1\n      dup2\n      mstore\n      0x20\n      add\n      0x00\n      keccak256\n        /* \"PancakeSwap_UZH/Lottery/lotteryPancake.sol\":6111:6112  1 */\n      0x01\n        /* \"PancakeSwap_UZH/Lottery/lotteryPancake.sol\":6097:6113  prizePools[2][1] */\n      dup2\n      sload\n      dup2\n      lt\n      tag_151\n      jumpi\n      invalid\n    tag_151:\n      swap1\n      0x00\n      mstore\n      keccak256(0x00, 0x20)\n      add\n      0x00\n        /* \"PancakeSwap_UZH/Lottery/lotteryPancake.sol\":6097:6141  prizePools[2][1] += 5  * 1000000000000000000 */\n      dup3\n      dup3\n      sload\n      add\n      swap3\n      pop\n      pop\n      dup2\n      swap1\n      sstore\n      pop\n        /* \"PancakeSwap_UZH/Lottery/lotteryPancake.sol\":6064:6442  if (counter == 3) {\r... */\n      jump(tag_153)\n    tag_150:\n        /* \"PancakeSwap_UZH/Lottery/lotteryPancake.sol\":6175:6176  4 */\n      0x04\n        /* \"PancakeSwap_UZH/Lottery/lotteryPancake.sol\":6164:6171  counter */\n      dup2\n        /* \"PancakeSwap_UZH/Lottery/lotteryPancake.sol\":6164:6176  counter == 4 */\n      eq\n        /* \"PancakeSwap_UZH/Lottery/lotteryPancake.sol\":6160:6442  if (counter == 4) {\r... */\n      iszero\n      tag_154\n      jumpi\n        /* \"PancakeSwap_UZH/Lottery/lotteryPancake.sol\":6213:6237  10 * 1000000000000000000 */\n      0x8ac7230489e80000\n        /* \"PancakeSwap_UZH/Lottery/lotteryPancake.sol\":6193:6203  prizePools */\n      0x04\n        /* \"PancakeSwap_UZH/Lottery/lotteryPancake.sol\":6193:6206  prizePools[3] */\n      0x00\n        /* \"PancakeSwap_UZH/Lottery/lotteryPancake.sol\":6204:6205  3 */\n      0x03\n        /* \"PancakeSwap_UZH/Lottery/lotteryPancake.sol\":6193:6206  prizePools[3] */\n      dup2\n      mstore\n      0x20\n      add\n      swap1\n      dup2\n      mstore\n      0x20\n      add\n      0x00\n      keccak256\n        /* \"PancakeSwap_UZH/Lottery/lotteryPancake.sol\":6207:6208  1 */\n      0x01\n        /* \"PancakeSwap_UZH/Lottery/lotteryPancake.sol\":6193:6209  prizePools[3][1] */\n      dup2\n      sload\n      dup2\n      lt\n      tag_155\n      jumpi\n      invalid\n    tag_155:\n      swap1\n      0x00\n      mstore\n      keccak256(0x00, 0x20)\n      add\n      0x00\n        /* \"PancakeSwap_UZH/Lottery/lotteryPancake.sol\":6193:6237  prizePools[3][1] += 10 * 1000000000000000000 */\n      dup3\n      dup3\n      sload\n      add\n      swap3\n      pop\n      pop\n      dup2\n      swap1\n      sstore\n      pop\n        /* \"PancakeSwap_UZH/Lottery/lotteryPancake.sol\":6160:6442  if (counter == 4) {\r... */\n      jump(tag_157)\n    tag_154:\n        /* \"PancakeSwap_UZH/Lottery/lotteryPancake.sol\":6271:6272  5 */\n      0x05\n        /* \"PancakeSwap_UZH/Lottery/lotteryPancake.sol\":6260:6267  counter */\n      dup2\n        /* \"PancakeSwap_UZH/Lottery/lotteryPancake.sol\":6260:6272  counter == 5 */\n      eq\n        /* \"PancakeSwap_UZH/Lottery/lotteryPancake.sol\":6256:6442  if (counter == 5) {\r... */\n      iszero\n      tag_158\n      jumpi\n        /* \"PancakeSwap_UZH/Lottery/lotteryPancake.sol\":6309:6333  20 * 1000000000000000000 */\n      0x01158e460913d00000\n        /* \"PancakeSwap_UZH/Lottery/lotteryPancake.sol\":6289:6299  prizePools */\n      0x04\n        /* \"PancakeSwap_UZH/Lottery/lotteryPancake.sol\":6289:6302  prizePools[4] */\n      0x00\n        /* \"PancakeSwap_UZH/Lottery/lotteryPancake.sol\":6300:6301  4 */\n      0x04\n        /* \"PancakeSwap_UZH/Lottery/lotteryPancake.sol\":6289:6302  prizePools[4] */\n      dup2\n      mstore\n      0x20\n      add\n      swap1\n      dup2\n      mstore\n      0x20\n      add\n      0x00\n      keccak256\n        /* \"PancakeSwap_UZH/Lottery/lotteryPancake.sol\":6303:6304  1 */\n      0x01\n        /* \"PancakeSwap_UZH/Lottery/lotteryPancake.sol\":6289:6305  prizePools[4][1] */\n      dup2\n      sload\n      dup2\n      lt\n      tag_159\n      jumpi\n      invalid\n    tag_159:\n      swap1\n      0x00\n      mstore\n      keccak256(0x00, 0x20)\n      add\n      0x00\n        /* \"PancakeSwap_UZH/Lottery/lotteryPancake.sol\":6289:6333  prizePools[4][1] += 20 * 1000000000000000000 */\n      dup3\n      dup3\n      sload\n      add\n      swap3\n      pop\n      pop\n      dup2\n      swap1\n      sstore\n      pop\n        /* \"PancakeSwap_UZH/Lottery/lotteryPancake.sol\":6256:6442  if (counter == 5) {\r... */\n      jump(tag_161)\n    tag_158:\n        /* \"PancakeSwap_UZH/Lottery/lotteryPancake.sol\":6367:6368  6 */\n      0x06\n        /* \"PancakeSwap_UZH/Lottery/lotteryPancake.sol\":6356:6363  counter */\n      dup2\n        /* \"PancakeSwap_UZH/Lottery/lotteryPancake.sol\":6356:6368  counter == 6 */\n      eq\n        /* \"PancakeSwap_UZH/Lottery/lotteryPancake.sol\":6352:6442  if (counter == 6) {\r... */\n      iszero\n      tag_162\n      jumpi\n        /* \"PancakeSwap_UZH/Lottery/lotteryPancake.sol\":6405:6429  40 * 1000000000000000000 */\n      0x022b1c8c1227a00000\n        /* \"PancakeSwap_UZH/Lottery/lotteryPancake.sol\":6385:6395  prizePools */\n      0x04\n        /* \"PancakeSwap_UZH/Lottery/lotteryPancake.sol\":6385:6398  prizePools[5] */\n      0x00\n        /* \"PancakeSwap_UZH/Lottery/lotteryPancake.sol\":6396:6397  5 */\n      0x05\n        /* \"PancakeSwap_UZH/Lottery/lotteryPancake.sol\":6385:6398  prizePools[5] */\n      dup2\n      mstore\n      0x20\n      add\n      swap1\n      dup2\n      mstore\n      0x20\n      add\n      0x00\n      keccak256\n        /* \"PancakeSwap_UZH/Lottery/lotteryPancake.sol\":6399:6400  1 */\n      0x01\n        /* \"PancakeSwap_UZH/Lottery/lotteryPancake.sol\":6385:6401  prizePools[5][1] */\n      dup2\n      sload\n      dup2\n      lt\n      tag_163\n      jumpi\n      invalid\n    tag_163:\n      swap1\n      0x00\n      mstore\n      keccak256(0x00, 0x20)\n      add\n      0x00\n        /* \"PancakeSwap_UZH/Lottery/lotteryPancake.sol\":6385:6429  prizePools[5][1] += 40 * 1000000000000000000 */\n      dup3\n      dup3\n      sload\n      add\n      swap3\n      pop\n      pop\n      dup2\n      swap1\n      sstore\n      pop\n        /* \"PancakeSwap_UZH/Lottery/lotteryPancake.sol\":6352:6442  if (counter == 6) {\r... */\n    tag_162:\n        /* \"PancakeSwap_UZH/Lottery/lotteryPancake.sol\":6256:6442  if (counter == 5) {\r... */\n    tag_161:\n        /* \"PancakeSwap_UZH/Lottery/lotteryPancake.sol\":6160:6442  if (counter == 4) {\r... */\n    tag_157:\n        /* \"PancakeSwap_UZH/Lottery/lotteryPancake.sol\":6064:6442  if (counter == 3) {\r... */\n    tag_153:\n        /* \"PancakeSwap_UZH/Lottery/lotteryPancake.sol\":5969:6442  if (counter == 2) {\r... */\n    tag_149:\n        /* \"PancakeSwap_UZH/Lottery/lotteryPancake.sol\":5874:6442  if (counter == 1) {\r... */\n    tag_145:\n        /* \"PancakeSwap_UZH/Lottery/lotteryPancake.sol\":6452:6465  uint256 prize */\n      0x00\n        /* \"PancakeSwap_UZH/Lottery/lotteryPancake.sol\":6468:6478  prizePools */\n      0x04\n        /* \"PancakeSwap_UZH/Lottery/lotteryPancake.sol\":6468:6489  prizePools[counter-1] */\n      0x00\n        /* \"PancakeSwap_UZH/Lottery/lotteryPancake.sol\":6487:6488  1 */\n      0x01\n        /* \"PancakeSwap_UZH/Lottery/lotteryPancake.sol\":6479:6486  counter */\n      dup5\n        /* \"PancakeSwap_UZH/Lottery/lotteryPancake.sol\":6479:6488  counter-1 */\n      sub\n        /* \"PancakeSwap_UZH/Lottery/lotteryPancake.sol\":6468:6489  prizePools[counter-1] */\n      dup2\n      mstore\n      0x20\n      add\n      swap1\n      dup2\n      mstore\n      0x20\n      add\n      0x00\n      keccak256\n        /* \"PancakeSwap_UZH/Lottery/lotteryPancake.sol\":6490:6491  1 */\n      0x01\n        /* \"PancakeSwap_UZH/Lottery/lotteryPancake.sol\":6468:6492  prizePools[counter-1][1] */\n      dup2\n      sload\n      dup2\n      lt\n      tag_165\n      jumpi\n      invalid\n    tag_165:\n      swap1\n      0x00\n      mstore\n      keccak256(0x00, 0x20)\n      add\n      sload\n        /* \"PancakeSwap_UZH/Lottery/lotteryPancake.sol\":6452:6492  uint256 prize = prizePools[counter-1][1] */\n      swap1\n      pop\n        /* \"PancakeSwap_UZH/Lottery/lotteryPancake.sol\":6504:6514  msg.sender */\n      caller\n        /* \"PancakeSwap_UZH/Lottery/lotteryPancake.sol\":6504:6523  msg.sender.transfer */\n      0xffffffffffffffffffffffffffffffffffffffff\n      and\n        /* \"PancakeSwap_UZH/Lottery/lotteryPancake.sol\":6504:6530  msg.sender.transfer(prize) */\n      0x08fc\n        /* \"PancakeSwap_UZH/Lottery/lotteryPancake.sol\":6524:6529  prize */\n      dup3\n        /* \"PancakeSwap_UZH/Lottery/lotteryPancake.sol\":6504:6530  msg.sender.transfer(prize) */\n      swap1\n      dup2\n      iszero\n      mul\n      swap1\n      mload(0x40)\n      0x00\n      mload(0x40)\n      dup1\n      dup4\n      sub\n      dup2\n      dup6\n      dup9\n      dup9\n      call\n      swap4\n      pop\n      pop\n      pop\n      pop\n      iszero\n      dup1\n      iszero\n      tag_168\n      jumpi\n      returndatasize\n      0x00\n      dup1\n      returndatacopy\n      revert(0x00, returndatasize)\n    tag_168:\n      pop\n        /* \"PancakeSwap_UZH/Lottery/lotteryPancake.sol\":6549:6556  tickets */\n      0x02\n        /* \"PancakeSwap_UZH/Lottery/lotteryPancake.sol\":6549:6568  tickets[msg.sender] */\n      0x00\n        /* \"PancakeSwap_UZH/Lottery/lotteryPancake.sol\":6557:6567  msg.sender */\n      caller\n        /* \"PancakeSwap_UZH/Lottery/lotteryPancake.sol\":6549:6568  tickets[msg.sender] */\n      0xffffffffffffffffffffffffffffffffffffffff\n      and\n      0xffffffffffffffffffffffffffffffffffffffff\n      and\n      dup2\n      mstore\n      0x20\n      add\n      swap1\n      dup2\n      mstore\n      0x20\n      add\n      0x00\n      keccak256\n        /* \"PancakeSwap_UZH/Lottery/lotteryPancake.sol\":6569:6581  ticketnumber */\n      dup4\n        /* \"PancakeSwap_UZH/Lottery/lotteryPancake.sol\":6549:6582  tickets[msg.sender][ticketnumber] */\n      dup2\n      sload\n      dup2\n      lt\n      tag_169\n      jumpi\n      invalid\n    tag_169:\n      swap1\n      0x00\n      mstore\n      keccak256(0x00, 0x20)\n      add\n      0x00\n        /* \"PancakeSwap_UZH/Lottery/lotteryPancake.sol\":6542:6582  delete tickets[msg.sender][ticketnumber] */\n      tag_171\n      swap2\n      swap1\n      tag_172\n      jump\t// in\n    tag_171:\n        /* \"PancakeSwap_UZH/Lottery/lotteryPancake.sol\":5423:6590  function claimPrizes(uint256 ticketnumber) public {\r... */\n      pop\n      pop\n      pop\n      jump\t// out\n        /* \"PancakeSwap_UZH/Lottery/lotteryPancake.sol\":1704:2073  function startRound() public {\r... */\n    tag_66:\n        /* \"PancakeSwap_UZH/Lottery/lotteryPancake.sol\":1766:1771  owner */\n      0x00\n      dup1\n      sload\n      swap1\n      0x0100\n      exp\n      swap1\n      div\n      0xffffffffffffffffffffffffffffffffffffffff\n      and\n        /* \"PancakeSwap_UZH/Lottery/lotteryPancake.sol\":1752:1771  msg.sender == owner */\n      0xffffffffffffffffffffffffffffffffffffffff\n      and\n        /* \"PancakeSwap_UZH/Lottery/lotteryPancake.sol\":1752:1762  msg.sender */\n      caller\n        /* \"PancakeSwap_UZH/Lottery/lotteryPancake.sol\":1752:1771  msg.sender == owner */\n      0xffffffffffffffffffffffffffffffffffffffff\n      and\n      eq\n        /* \"PancakeSwap_UZH/Lottery/lotteryPancake.sol\":1744:1808  require(msg.sender == owner, \"Only the owner can start a round\") */\n      tag_174\n      jumpi\n      mload(0x40)\n      0x08c379a000000000000000000000000000000000000000000000000000000000\n      dup2\n      mstore\n      0x04\n      add\n      tag_175\n      swap1\n      tag_176\n      jump\t// in\n    tag_175:\n      mload(0x40)\n      dup1\n      swap2\n      sub\n      swap1\n      revert\n    tag_174:\n        /* \"PancakeSwap_UZH/Lottery/lotteryPancake.sol\":1837:1838  0 */\n      0x00\n        /* \"PancakeSwap_UZH/Lottery/lotteryPancake.sol\":1820:1834  totalPrizePool */\n      0x05\n        /* \"PancakeSwap_UZH/Lottery/lotteryPancake.sol\":1820:1838  totalPrizePool = 0 */\n      dup2\n      swap1\n      sstore\n      pop\n        /* \"PancakeSwap_UZH/Lottery/lotteryPancake.sol\":1863:1864  0 */\n      0x00\n        /* \"PancakeSwap_UZH/Lottery/lotteryPancake.sol\":1850:1860  burnAmount */\n      0x07\n        /* \"PancakeSwap_UZH/Lottery/lotteryPancake.sol\":1850:1864  burnAmount = 0 */\n      dup2\n      swap1\n      sstore\n      pop\n        /* \"PancakeSwap_UZH/Lottery/lotteryPancake.sol\":1881:1890  uint256 i */\n      0x00\n        /* \"PancakeSwap_UZH/Lottery/lotteryPancake.sol\":1876:2066  for (uint256 i = 0; i < 6; i++) {\r... */\n    tag_177:\n        /* \"PancakeSwap_UZH/Lottery/lotteryPancake.sol\":1900:1901  6 */\n      0x06\n        /* \"PancakeSwap_UZH/Lottery/lotteryPancake.sol\":1896:1897  i */\n      dup2\n        /* \"PancakeSwap_UZH/Lottery/lotteryPancake.sol\":1896:1901  i < 6 */\n      lt\n        /* \"PancakeSwap_UZH/Lottery/lotteryPancake.sol\":1876:2066  for (uint256 i = 0; i < 6; i++) {\r... */\n      iszero\n      tag_178\n      jumpi\n        /* \"PancakeSwap_UZH/Lottery/lotteryPancake.sol\":1923:1944  uint256[] memory pool */\n      0x60\n        /* \"PancakeSwap_UZH/Lottery/lotteryPancake.sol\":1961:1962  2 */\n      0x02\n        /* \"PancakeSwap_UZH/Lottery/lotteryPancake.sol\":1947:1963  new uint256[](2) */\n      0xffffffffffffffff\n      dup2\n      gt\n      dup1\n      iszero\n      tag_180\n      jumpi\n      0x00\n      dup1\n      revert\n    tag_180:\n      pop\n      mload(0x40)\n      swap1\n      dup1\n      dup3\n      mstore\n      dup1\n      0x20\n      mul\n      0x20\n      add\n      dup3\n      add\n      0x40\n      mstore\n      dup1\n      iszero\n      tag_181\n      jumpi\n      dup2\n      0x20\n      add\n      0x20\n      dup3\n      mul\n      dup1\n      calldatasize\n      dup4\n      calldatacopy\n      dup1\n      dup3\n      add\n      swap2\n      pop\n      pop\n      swap1\n      pop\n    tag_181:\n      pop\n        /* \"PancakeSwap_UZH/Lottery/lotteryPancake.sol\":1923:1963  uint256[] memory pool = new uint256[](2) */\n      swap1\n      pop\n        /* \"PancakeSwap_UZH/Lottery/lotteryPancake.sol\":1989:1990  0 */\n      0x00\n        /* \"PancakeSwap_UZH/Lottery/lotteryPancake.sol\":1979:1983  pool */\n      dup2\n        /* \"PancakeSwap_UZH/Lottery/lotteryPancake.sol\":1984:1985  0 */\n      0x00\n        /* \"PancakeSwap_UZH/Lottery/lotteryPancake.sol\":1979:1986  pool[0] */\n      dup2\n      mload\n      dup2\n      lt\n      tag_182\n      jumpi\n      invalid\n    tag_182:\n      0x20\n      mul\n      0x20\n      add\n      add\n        /* \"PancakeSwap_UZH/Lottery/lotteryPancake.sol\":1979:1990  pool[0] = 0 */\n      dup2\n      dup2\n      mstore\n      pop\n      pop\n        /* \"PancakeSwap_UZH/Lottery/lotteryPancake.sol\":2016:2017  0 */\n      0x00\n        /* \"PancakeSwap_UZH/Lottery/lotteryPancake.sol\":2006:2010  pool */\n      dup2\n        /* \"PancakeSwap_UZH/Lottery/lotteryPancake.sol\":2011:2012  1 */\n      0x01\n        /* \"PancakeSwap_UZH/Lottery/lotteryPancake.sol\":2006:2013  pool[1] */\n      dup2\n      mload\n      dup2\n      lt\n      tag_183\n      jumpi\n      invalid\n    tag_183:\n      0x20\n      mul\n      0x20\n      add\n      add\n        /* \"PancakeSwap_UZH/Lottery/lotteryPancake.sol\":2006:2017  pool[1] = 0 */\n      dup2\n      dup2\n      mstore\n      pop\n      pop\n        /* \"PancakeSwap_UZH/Lottery/lotteryPancake.sol\":2049:2053  pool */\n      dup1\n        /* \"PancakeSwap_UZH/Lottery/lotteryPancake.sol\":2033:2043  prizePools */\n      0x04\n        /* \"PancakeSwap_UZH/Lottery/lotteryPancake.sol\":2033:2046  prizePools[i] */\n      0x00\n        /* \"PancakeSwap_UZH/Lottery/lotteryPancake.sol\":2044:2045  i */\n      dup5\n        /* \"PancakeSwap_UZH/Lottery/lotteryPancake.sol\":2033:2046  prizePools[i] */\n      dup2\n      mstore\n      0x20\n      add\n      swap1\n      dup2\n      mstore\n      0x20\n      add\n      0x00\n      keccak256\n        /* \"PancakeSwap_UZH/Lottery/lotteryPancake.sol\":2033:2053  prizePools[i] = pool */\n      swap1\n      dup1\n      mload\n      swap1\n      0x20\n      add\n      swap1\n      tag_184\n      swap3\n      swap2\n      swap1\n      tag_114\n      jump\t// in\n    tag_184:\n      pop\n        /* \"PancakeSwap_UZH/Lottery/lotteryPancake.sol\":1876:2066  for (uint256 i = 0; i < 6; i++) {\r... */\n      pop\n        /* \"PancakeSwap_UZH/Lottery/lotteryPancake.sol\":1903:1906  i++ */\n      dup1\n      dup1\n      0x01\n      add\n      swap2\n      pop\n      pop\n        /* \"PancakeSwap_UZH/Lottery/lotteryPancake.sol\":1876:2066  for (uint256 i = 0; i < 6; i++) {\r... */\n      jump(tag_177)\n    tag_178:\n      pop\n        /* \"PancakeSwap_UZH/Lottery/lotteryPancake.sol\":1704:2073  function startRound() public {\r... */\n      jump\t// out\n        /* \"PancakeSwap_UZH/Lottery/lotteryPancake.sol\":1179:1287  function getTicketsBoughtCount() public view returns(uint count){\r... */\n    tag_69:\n        /* \"PancakeSwap_UZH/Lottery/lotteryPancake.sol\":1232:1242  uint count */\n      0x00\n        /* \"PancakeSwap_UZH/Lottery/lotteryPancake.sol\":1257:1264  tickets */\n      0x02\n        /* \"PancakeSwap_UZH/Lottery/lotteryPancake.sol\":1257:1276  tickets[msg.sender] */\n      0x00\n        /* \"PancakeSwap_UZH/Lottery/lotteryPancake.sol\":1265:1275  msg.sender */\n      caller\n        /* \"PancakeSwap_UZH/Lottery/lotteryPancake.sol\":1257:1276  tickets[msg.sender] */\n      0xffffffffffffffffffffffffffffffffffffffff\n      and\n      0xffffffffffffffffffffffffffffffffffffffff\n      and\n      dup2\n      mstore\n      0x20\n      add\n      swap1\n      dup2\n      mstore\n      0x20\n      add\n      0x00\n      keccak256\n        /* \"PancakeSwap_UZH/Lottery/lotteryPancake.sol\":1257:1283  tickets[msg.sender].length */\n      dup1\n      sload\n      swap1\n      pop\n        /* \"PancakeSwap_UZH/Lottery/lotteryPancake.sol\":1250:1283  return tickets[msg.sender].length */\n      swap1\n      pop\n        /* \"PancakeSwap_UZH/Lottery/lotteryPancake.sol\":1179:1287  function getTicketsBoughtCount() public view returns(uint count){\r... */\n      swap1\n      jump\t// out\n        /* \"PancakeSwap_UZH/Lottery/lotteryPancake.sol\":766:1118  function buyTicket(uint256[] memory ticket) public payable {\r... */\n    tag_73:\n        /* \"PancakeSwap_UZH/Lottery/lotteryPancake.sol\":857:868  ticketPrice */\n      sload(0x01)\n        /* \"PancakeSwap_UZH/Lottery/lotteryPancake.sol\":844:853  msg.value */\n      callvalue\n        /* \"PancakeSwap_UZH/Lottery/lotteryPancake.sol\":844:868  msg.value == ticketPrice */\n      eq\n        /* \"PancakeSwap_UZH/Lottery/lotteryPancake.sol\":836:913  require(msg.value == ticketPrice, \"You need to pay the correct ticket price\") */\n      tag_187\n      jumpi\n      mload(0x40)\n      0x08c379a000000000000000000000000000000000000000000000000000000000\n      dup2\n      mstore\n      0x04\n      add\n      tag_188\n      swap1\n      tag_189\n      jump\t// in\n    tag_188:\n      mload(0x40)\n      dup1\n      swap2\n      sub\n      swap1\n      revert\n    tag_187:\n        /* \"PancakeSwap_UZH/Lottery/lotteryPancake.sol\":949:950  6 */\n      0x06\n        /* \"PancakeSwap_UZH/Lottery/lotteryPancake.sol\":932:938  ticket */\n      dup2\n        /* \"PancakeSwap_UZH/Lottery/lotteryPancake.sol\":932:945  ticket.length */\n      mload\n        /* \"PancakeSwap_UZH/Lottery/lotteryPancake.sol\":932:950  ticket.length == 6 */\n      eq\n        /* \"PancakeSwap_UZH/Lottery/lotteryPancake.sol\":924:980  require(ticket.length == 6, \"Ticket must have 6 digits\") */\n      tag_190\n      jumpi\n      mload(0x40)\n      0x08c379a000000000000000000000000000000000000000000000000000000000\n      dup2\n      mstore\n      0x04\n      add\n      tag_191\n      swap1\n      tag_192\n      jump\t// in\n    tag_191:\n      mload(0x40)\n      dup1\n      swap2\n      sub\n      swap1\n      revert\n    tag_190:\n        /* \"PancakeSwap_UZH/Lottery/lotteryPancake.sol\":1077:1084  tickets */\n      0x02\n        /* \"PancakeSwap_UZH/Lottery/lotteryPancake.sol\":1077:1096  tickets[msg.sender] */\n      0x00\n        /* \"PancakeSwap_UZH/Lottery/lotteryPancake.sol\":1085:1095  msg.sender */\n      caller\n        /* \"PancakeSwap_UZH/Lottery/lotteryPancake.sol\":1077:1096  tickets[msg.sender] */\n      0xffffffffffffffffffffffffffffffffffffffff\n      and\n      0xffffffffffffffffffffffffffffffffffffffff\n      and\n      dup2\n      mstore\n      0x20\n      add\n      swap1\n      dup2\n      mstore\n      0x20\n      add\n      0x00\n      keccak256\n        /* \"PancakeSwap_UZH/Lottery/lotteryPancake.sol\":1102:1108  ticket */\n      dup2\n        /* \"PancakeSwap_UZH/Lottery/lotteryPancake.sol\":1077:1109  tickets[msg.sender].push(ticket) */\n      swap1\n      dup1\n      0x01\n      dup2\n      sload\n      add\n      dup1\n      dup3\n      sstore\n      dup1\n      swap2\n      pop\n      pop\n      0x01\n      swap1\n      sub\n      swap1\n      0x00\n      mstore\n      keccak256(0x00, 0x20)\n      add\n      0x00\n      swap1\n      swap2\n      swap1\n      swap2\n      swap1\n      swap2\n      pop\n      swap1\n      dup1\n      mload\n      swap1\n      0x20\n      add\n      swap1\n      tag_194\n      swap3\n      swap2\n      swap1\n      tag_114\n      jump\t// in\n    tag_194:\n      pop\n        /* \"PancakeSwap_UZH/Lottery/lotteryPancake.sol\":766:1118  function buyTicket(uint256[] memory ticket) public payable {\r... */\n      pop\n      jump\t// out\n        /* \"PancakeSwap_UZH/Lottery/lotteryPancake.sol\":6810:7244  function endRound() public {\r... */\n    tag_76:\n        /* \"PancakeSwap_UZH/Lottery/lotteryPancake.sol\":6870:6875  owner */\n      0x00\n      dup1\n      sload\n      swap1\n      0x0100\n      exp\n      swap1\n      div\n      0xffffffffffffffffffffffffffffffffffffffff\n      and\n        /* \"PancakeSwap_UZH/Lottery/lotteryPancake.sol\":6856:6875  msg.sender == owner */\n      0xffffffffffffffffffffffffffffffffffffffff\n      and\n        /* \"PancakeSwap_UZH/Lottery/lotteryPancake.sol\":6856:6866  msg.sender */\n      caller\n        /* \"PancakeSwap_UZH/Lottery/lotteryPancake.sol\":6856:6875  msg.sender == owner */\n      0xffffffffffffffffffffffffffffffffffffffff\n      and\n      eq\n        /* \"PancakeSwap_UZH/Lottery/lotteryPancake.sol\":6848:6912  require(msg.sender == owner, \"Only the owner can end the round\") */\n      tag_196\n      jumpi\n      mload(0x40)\n      0x08c379a000000000000000000000000000000000000000000000000000000000\n      dup2\n      mstore\n      0x04\n      add\n      tag_197\n      swap1\n      tag_198\n      jump\t// in\n    tag_197:\n      mload(0x40)\n      dup1\n      swap2\n      sub\n      swap1\n      revert\n    tag_196:\n        /* \"PancakeSwap_UZH/Lottery/lotteryPancake.sol\":6924:6937  uint256 total */\n      0x00\n        /* \"PancakeSwap_UZH/Lottery/lotteryPancake.sol\":6957:6967  burnAmount */\n      sload(0x07)\n        /* \"PancakeSwap_UZH/Lottery/lotteryPancake.sol\":6940:6954  totalPrizePool */\n      sload(0x05)\n        /* \"PancakeSwap_UZH/Lottery/lotteryPancake.sol\":6940:6967  totalPrizePool + burnAmount */\n      add\n        /* \"PancakeSwap_UZH/Lottery/lotteryPancake.sol\":6924:6967  uint256 total = totalPrizePool + burnAmount */\n      swap1\n      pop\n        /* \"PancakeSwap_UZH/Lottery/lotteryPancake.sol\":6984:6993  uint256 i */\n      0x00\n        /* \"PancakeSwap_UZH/Lottery/lotteryPancake.sol\":6979:7177  for (uint256 i = 0; i < 6; i++) {\r... */\n    tag_199:\n        /* \"PancakeSwap_UZH/Lottery/lotteryPancake.sol\":7003:7004  6 */\n      0x06\n        /* \"PancakeSwap_UZH/Lottery/lotteryPancake.sol\":6999:7000  i */\n      dup2\n        /* \"PancakeSwap_UZH/Lottery/lotteryPancake.sol\":6999:7004  i < 6 */\n      lt\n        /* \"PancakeSwap_UZH/Lottery/lotteryPancake.sol\":6979:7177  for (uint256 i = 0; i < 6; i++) {\r... */\n      iszero\n      tag_200\n      jumpi\n        /* \"PancakeSwap_UZH/Lottery/lotteryPancake.sol\":7026:7040  uint256 amount */\n      0x00\n        /* \"PancakeSwap_UZH/Lottery/lotteryPancake.sol\":7080:7085  total */\n      dup3\n        /* \"PancakeSwap_UZH/Lottery/lotteryPancake.sol\":7063:7077  totalPrizePool */\n      sload(0x05)\n        /* \"PancakeSwap_UZH/Lottery/lotteryPancake.sol\":7063:7085  totalPrizePool / total */\n      dup2\n      tag_202\n      jumpi\n      invalid\n    tag_202:\n      div\n        /* \"PancakeSwap_UZH/Lottery/lotteryPancake.sol\":7043:7053  prizePools */\n      0x04\n        /* \"PancakeSwap_UZH/Lottery/lotteryPancake.sol\":7043:7056  prizePools[i] */\n      0x00\n        /* \"PancakeSwap_UZH/Lottery/lotteryPancake.sol\":7054:7055  i */\n      dup5\n        /* \"PancakeSwap_UZH/Lottery/lotteryPancake.sol\":7043:7056  prizePools[i] */\n      dup2\n      mstore\n      0x20\n      add\n      swap1\n      dup2\n      mstore\n      0x20\n      add\n      0x00\n      keccak256\n        /* \"PancakeSwap_UZH/Lottery/lotteryPancake.sol\":7057:7058  1 */\n      0x01\n        /* \"PancakeSwap_UZH/Lottery/lotteryPancake.sol\":7043:7059  prizePools[i][1] */\n      dup2\n      sload\n      dup2\n      lt\n      tag_203\n      jumpi\n      invalid\n    tag_203:\n      swap1\n      0x00\n      mstore\n      keccak256(0x00, 0x20)\n      add\n      sload\n        /* \"PancakeSwap_UZH/Lottery/lotteryPancake.sol\":7043:7086  prizePools[i][1] * (totalPrizePool / total) */\n      mul\n        /* \"PancakeSwap_UZH/Lottery/lotteryPancake.sol\":7026:7086  uint256 amount = prizePools[i][1] * (totalPrizePool / total) */\n      swap1\n      pop\n        /* \"PancakeSwap_UZH/Lottery/lotteryPancake.sol\":7121:7122  0 */\n      0x00\n        /* \"PancakeSwap_UZH/Lottery/lotteryPancake.sol\":7102:7112  prizePools */\n      0x04\n        /* \"PancakeSwap_UZH/Lottery/lotteryPancake.sol\":7102:7115  prizePools[i] */\n      0x00\n        /* \"PancakeSwap_UZH/Lottery/lotteryPancake.sol\":7113:7114  i */\n      dup5\n        /* \"PancakeSwap_UZH/Lottery/lotteryPancake.sol\":7102:7115  prizePools[i] */\n      dup2\n      mstore\n      0x20\n      add\n      swap1\n      dup2\n      mstore\n      0x20\n      add\n      0x00\n      keccak256\n        /* \"PancakeSwap_UZH/Lottery/lotteryPancake.sol\":7116:7117  1 */\n      0x01\n        /* \"PancakeSwap_UZH/Lottery/lotteryPancake.sol\":7102:7118  prizePools[i][1] */\n      dup2\n      sload\n      dup2\n      lt\n      tag_205\n      jumpi\n      invalid\n    tag_205:\n      swap1\n      0x00\n      mstore\n      keccak256(0x00, 0x20)\n      add\n        /* \"PancakeSwap_UZH/Lottery/lotteryPancake.sol\":7102:7122  prizePools[i][1] = 0 */\n      dup2\n      swap1\n      sstore\n      pop\n        /* \"PancakeSwap_UZH/Lottery/lotteryPancake.sol\":7158:7164  amount */\n      dup1\n        /* \"PancakeSwap_UZH/Lottery/lotteryPancake.sol\":7138:7148  prizePools */\n      0x04\n        /* \"PancakeSwap_UZH/Lottery/lotteryPancake.sol\":7138:7151  prizePools[i] */\n      0x00\n        /* \"PancakeSwap_UZH/Lottery/lotteryPancake.sol\":7149:7150  i */\n      dup5\n        /* \"PancakeSwap_UZH/Lottery/lotteryPancake.sol\":7138:7151  prizePools[i] */\n      dup2\n      mstore\n      0x20\n      add\n      swap1\n      dup2\n      mstore\n      0x20\n      add\n      0x00\n      keccak256\n        /* \"PancakeSwap_UZH/Lottery/lotteryPancake.sol\":7152:7153  0 */\n      0x00\n        /* \"PancakeSwap_UZH/Lottery/lotteryPancake.sol\":7138:7154  prizePools[i][0] */\n      dup2\n      sload\n      dup2\n      lt\n      tag_207\n      jumpi\n      invalid\n    tag_207:\n      swap1\n      0x00\n      mstore\n      keccak256(0x00, 0x20)\n      add\n      0x00\n        /* \"PancakeSwap_UZH/Lottery/lotteryPancake.sol\":7138:7164  prizePools[i][0] += amount */\n      dup3\n      dup3\n      sload\n      add\n      swap3\n      pop\n      pop\n      dup2\n      swap1\n      sstore\n      pop\n        /* \"PancakeSwap_UZH/Lottery/lotteryPancake.sol\":6979:7177  for (uint256 i = 0; i < 6; i++) {\r... */\n      pop\n        /* \"PancakeSwap_UZH/Lottery/lotteryPancake.sol\":7006:7009  i++ */\n      dup1\n      dup1\n      0x01\n      add\n      swap2\n      pop\n      pop\n        /* \"PancakeSwap_UZH/Lottery/lotteryPancake.sol\":6979:7177  for (uint256 i = 0; i < 6; i++) {\r... */\n      jump(tag_199)\n    tag_200:\n      pop\n        /* \"PancakeSwap_UZH/Lottery/lotteryPancake.sol\":7229:7234  total */\n      dup1\n        /* \"PancakeSwap_UZH/Lottery/lotteryPancake.sol\":7212:7226  totalPrizePool */\n      sload(0x05)\n        /* \"PancakeSwap_UZH/Lottery/lotteryPancake.sol\":7212:7234  totalPrizePool / total */\n      dup2\n      tag_209\n      jumpi\n      invalid\n    tag_209:\n      div\n        /* \"PancakeSwap_UZH/Lottery/lotteryPancake.sol\":7200:7208  burnPool */\n      sload(0x06)\n        /* \"PancakeSwap_UZH/Lottery/lotteryPancake.sol\":7200:7235  burnPool * (totalPrizePool / total) */\n      mul\n        /* \"PancakeSwap_UZH/Lottery/lotteryPancake.sol\":7187:7197  burnAmount */\n      0x07\n        /* \"PancakeSwap_UZH/Lottery/lotteryPancake.sol\":7187:7235  burnAmount = burnPool * (totalPrizePool / total) */\n      dup2\n      swap1\n      sstore\n      pop\n        /* \"PancakeSwap_UZH/Lottery/lotteryPancake.sol\":6810:7244  function endRound() public {\r... */\n      pop\n      jump\t// out\n        /* \"PancakeSwap_UZH/Lottery/lotteryPancake.sol\":7410:7722  function distributePrizes() public {\r... */\n    tag_79:\n        /* \"PancakeSwap_UZH/Lottery/lotteryPancake.sol\":7478:7483  owner */\n      0x00\n      dup1\n      sload\n      swap1\n      0x0100\n      exp\n      swap1\n      div\n      0xffffffffffffffffffffffffffffffffffffffff\n      and\n        /* \"PancakeSwap_UZH/Lottery/lotteryPancake.sol\":7464:7483  msg.sender == owner */\n      0xffffffffffffffffffffffffffffffffffffffff\n      and\n        /* \"PancakeSwap_UZH/Lottery/lotteryPancake.sol\":7464:7474  msg.sender */\n      caller\n        /* \"PancakeSwap_UZH/Lottery/lotteryPancake.sol\":7464:7483  msg.sender == owner */\n      0xffffffffffffffffffffffffffffffffffffffff\n      and\n      eq\n        /* \"PancakeSwap_UZH/Lottery/lotteryPancake.sol\":7456:7524  require(msg.sender == owner, \"Only the owner can distribute prizes\") */\n      tag_211\n      jumpi\n      mload(0x40)\n      0x08c379a000000000000000000000000000000000000000000000000000000000\n      dup2\n      mstore\n      0x04\n      add\n      tag_212\n      swap1\n      tag_213\n      jump\t// in\n    tag_212:\n      mload(0x40)\n      dup1\n      swap2\n      sub\n      swap1\n      revert\n    tag_211:\n        /* \"PancakeSwap_UZH/Lottery/lotteryPancake.sol\":7541:7550  uint256 i */\n      0x00\n        /* \"PancakeSwap_UZH/Lottery/lotteryPancake.sol\":7536:7689  for (uint256 i = 0; i < 6; i++) {\r... */\n    tag_214:\n        /* \"PancakeSwap_UZH/Lottery/lotteryPancake.sol\":7560:7561  6 */\n      0x06\n        /* \"PancakeSwap_UZH/Lottery/lotteryPancake.sol\":7556:7557  i */\n      dup2\n        /* \"PancakeSwap_UZH/Lottery/lotteryPancake.sol\":7556:7561  i < 6 */\n      lt\n        /* \"PancakeSwap_UZH/Lottery/lotteryPancake.sol\":7536:7689  for (uint256 i = 0; i < 6; i++) {\r... */\n      iszero\n      tag_215\n      jumpi\n        /* \"PancakeSwap_UZH/Lottery/lotteryPancake.sol\":7583:7596  uint256 total */\n      0x00\n        /* \"PancakeSwap_UZH/Lottery/lotteryPancake.sol\":7618:7628  prizePools */\n      0x04\n        /* \"PancakeSwap_UZH/Lottery/lotteryPancake.sol\":7618:7631  prizePools[i] */\n      0x00\n        /* \"PancakeSwap_UZH/Lottery/lotteryPancake.sol\":7629:7630  i */\n      dup4\n        /* \"PancakeSwap_UZH/Lottery/lotteryPancake.sol\":7618:7631  prizePools[i] */\n      dup2\n      mstore\n      0x20\n      add\n      swap1\n      dup2\n      mstore\n      0x20\n      add\n      0x00\n      keccak256\n        /* \"PancakeSwap_UZH/Lottery/lotteryPancake.sol\":7632:7633  1 */\n      0x01\n        /* \"PancakeSwap_UZH/Lottery/lotteryPancake.sol\":7618:7634  prizePools[i][1] */\n      dup2\n      sload\n      dup2\n      lt\n      tag_217\n      jumpi\n      invalid\n    tag_217:\n      swap1\n      0x00\n      mstore\n      keccak256(0x00, 0x20)\n      add\n      sload\n        /* \"PancakeSwap_UZH/Lottery/lotteryPancake.sol\":7599:7609  prizePools */\n      0x04\n        /* \"PancakeSwap_UZH/Lottery/lotteryPancake.sol\":7599:7612  prizePools[i] */\n      0x00\n        /* \"PancakeSwap_UZH/Lottery/lotteryPancake.sol\":7610:7611  i */\n      dup5\n        /* \"PancakeSwap_UZH/Lottery/lotteryPancake.sol\":7599:7612  prizePools[i] */\n      dup2\n      mstore\n      0x20\n      add\n      swap1\n      dup2\n      mstore\n      0x20\n      add\n      0x00\n      keccak256\n        /* \"PancakeSwap_UZH/Lottery/lotteryPancake.sol\":7613:7614  0 */\n      0x00\n        /* \"PancakeSwap_UZH/Lottery/lotteryPancake.sol\":7599:7615  prizePools[i][0] */\n      dup2\n      sload\n      dup2\n      lt\n      tag_219\n      jumpi\n      invalid\n    tag_219:\n      swap1\n      0x00\n      mstore\n      keccak256(0x00, 0x20)\n      add\n      sload\n        /* \"PancakeSwap_UZH/Lottery/lotteryPancake.sol\":7599:7634  prizePools[i][0] + prizePools[i][1] */\n      add\n        /* \"PancakeSwap_UZH/Lottery/lotteryPancake.sol\":7583:7634  uint256 total = prizePools[i][0] + prizePools[i][1] */\n      swap1\n      pop\n        /* \"PancakeSwap_UZH/Lottery/lotteryPancake.sol\":7650:7660  msg.sender */\n      caller\n        /* \"PancakeSwap_UZH/Lottery/lotteryPancake.sol\":7650:7669  msg.sender.transfer */\n      0xffffffffffffffffffffffffffffffffffffffff\n      and\n        /* \"PancakeSwap_UZH/Lottery/lotteryPancake.sol\":7650:7676  msg.sender.transfer(total) */\n      0x08fc\n        /* \"PancakeSwap_UZH/Lottery/lotteryPancake.sol\":7670:7675  total */\n      dup3\n        /* \"PancakeSwap_UZH/Lottery/lotteryPancake.sol\":7650:7676  msg.sender.transfer(total) */\n      swap1\n      dup2\n      iszero\n      mul\n      swap1\n      mload(0x40)\n      0x00\n      mload(0x40)\n      dup1\n      dup4\n      sub\n      dup2\n      dup6\n      dup9\n      dup9\n      call\n      swap4\n      pop\n      pop\n      pop\n      pop\n      iszero\n      dup1\n      iszero\n      tag_222\n      jumpi\n      returndatasize\n      0x00\n      dup1\n      returndatacopy\n      revert(0x00, returndatasize)\n    tag_222:\n      pop\n        /* \"PancakeSwap_UZH/Lottery/lotteryPancake.sol\":7536:7689  for (uint256 i = 0; i < 6; i++) {\r... */\n      pop\n        /* \"PancakeSwap_UZH/Lottery/lotteryPancake.sol\":7563:7566  i++ */\n      dup1\n      dup1\n      0x01\n      add\n      swap2\n      pop\n      pop\n        /* \"PancakeSwap_UZH/Lottery/lotteryPancake.sol\":7536:7689  for (uint256 i = 0; i < 6; i++) {\r... */\n      jump(tag_214)\n    tag_215:\n      pop\n        /* \"PancakeSwap_UZH/Lottery/lotteryPancake.sol\":7712:7713  0 */\n      0x00\n        /* \"PancakeSwap_UZH/Lottery/lotteryPancake.sol\":7699:7709  burnAmount */\n      0x07\n        /* \"PancakeSwap_UZH/Lottery/lotteryPancake.sol\":7699:7713  burnAmount = 0 */\n      dup2\n      swap1\n      sstore\n      pop\n        /* \"PancakeSwap_UZH/Lottery/lotteryPancake.sol\":7410:7722  function distributePrizes() public {\r... */\n      jump\t// out\n        /* \"PancakeSwap_UZH/Lottery/lotteryPancake.sol\":3120:3387  function getWinningNumbers() public view returns (uint256[6] memory) {\r... */\n    tag_82:\n        /* \"PancakeSwap_UZH/Lottery/lotteryPancake.sol\":3170:3187  uint256[6] memory */\n      tag_223\n      tag_224\n      jump\t// in\n    tag_223:\n        /* \"PancakeSwap_UZH/Lottery/lotteryPancake.sol\":3200:3236  uint256[6] memory winningNumbersCopy */\n      tag_226\n      tag_224\n      jump\t// in\n    tag_226:\n        /* \"PancakeSwap_UZH/Lottery/lotteryPancake.sol\":3252:3258  uint i */\n      0x00\n        /* \"PancakeSwap_UZH/Lottery/lotteryPancake.sol\":3247:3344  for (uint i = 0; i < 6; i++) {\r... */\n    tag_227:\n        /* \"PancakeSwap_UZH/Lottery/lotteryPancake.sol\":3268:3269  6 */\n      0x06\n        /* \"PancakeSwap_UZH/Lottery/lotteryPancake.sol\":3264:3265  i */\n      dup2\n        /* \"PancakeSwap_UZH/Lottery/lotteryPancake.sol\":3264:3269  i < 6 */\n      lt\n        /* \"PancakeSwap_UZH/Lottery/lotteryPancake.sol\":3247:3344  for (uint i = 0; i < 6; i++) {\r... */\n      iszero\n      tag_228\n      jumpi\n        /* \"PancakeSwap_UZH/Lottery/lotteryPancake.sol\":3315:3329  winningNumbers */\n      0x03\n        /* \"PancakeSwap_UZH/Lottery/lotteryPancake.sol\":3330:3331  i */\n      dup2\n        /* \"PancakeSwap_UZH/Lottery/lotteryPancake.sol\":3315:3332  winningNumbers[i] */\n      dup2\n      sload\n      dup2\n      lt\n      tag_230\n      jumpi\n      invalid\n    tag_230:\n      swap1\n      0x00\n      mstore\n      keccak256(0x00, 0x20)\n      add\n      sload\n        /* \"PancakeSwap_UZH/Lottery/lotteryPancake.sol\":3291:3309  winningNumbersCopy */\n      dup3\n        /* \"PancakeSwap_UZH/Lottery/lotteryPancake.sol\":3310:3311  i */\n      dup3\n        /* \"PancakeSwap_UZH/Lottery/lotteryPancake.sol\":3291:3312  winningNumbersCopy[i] */\n      0x06\n      dup2\n      lt\n      tag_232\n      jumpi\n      invalid\n    tag_232:\n      0x20\n      mul\n      add\n        /* \"PancakeSwap_UZH/Lottery/lotteryPancake.sol\":3291:3332  winningNumbersCopy[i] = winningNumbers[i] */\n      dup2\n      dup2\n      mstore\n      pop\n      pop\n        /* \"PancakeSwap_UZH/Lottery/lotteryPancake.sol\":3271:3274  i++ */\n      dup1\n      dup1\n      0x01\n      add\n      swap2\n      pop\n      pop\n        /* \"PancakeSwap_UZH/Lottery/lotteryPancake.sol\":3247:3344  for (uint i = 0; i < 6; i++) {\r... */\n      jump(tag_227)\n    tag_228:\n      pop\n        /* \"PancakeSwap_UZH/Lottery/lotteryPancake.sol\":3361:3379  winningNumbersCopy */\n      dup1\n        /* \"PancakeSwap_UZH/Lottery/lotteryPancake.sol\":3354:3379  return winningNumbersCopy */\n      swap2\n      pop\n      pop\n        /* \"PancakeSwap_UZH/Lottery/lotteryPancake.sol\":3120:3387  function getWinningNumbers() public view returns (uint256[6] memory) {\r... */\n      swap1\n      jump\t// out\n        /* \"PancakeSwap_UZH/Lottery/lotteryPancake.sol\":96:116  address public owner */\n    tag_87:\n      0x00\n      dup1\n      sload\n      swap1\n      0x0100\n      exp\n      swap1\n      div\n      0xffffffffffffffffffffffffffffffffffffffff\n      and\n      dup2\n      jump\t// out\n        /* \"PancakeSwap_UZH/Lottery/lotteryPancake.sol\":3693:5232  function calculatePrizes() public {\r... */\n    tag_92:\n        /* \"PancakeSwap_UZH/Lottery/lotteryPancake.sol\":3755:3756  0 */\n      0x00\n        /* \"PancakeSwap_UZH/Lottery/lotteryPancake.sol\":3738:3752  totalPrizePool */\n      0x05\n        /* \"PancakeSwap_UZH/Lottery/lotteryPancake.sol\":3738:3756  totalPrizePool = 0 */\n      dup2\n      swap1\n      sstore\n      pop\n        /* \"PancakeSwap_UZH/Lottery/lotteryPancake.sol\":3780:3781  0 */\n      0x00\n        /* \"PancakeSwap_UZH/Lottery/lotteryPancake.sol\":3767:3777  burnAmount */\n      0x07\n        /* \"PancakeSwap_UZH/Lottery/lotteryPancake.sol\":3767:3781  burnAmount = 0 */\n      dup2\n      swap1\n      sstore\n      pop\n        /* \"PancakeSwap_UZH/Lottery/lotteryPancake.sol\":3814:3819  owner */\n      0x00\n      dup1\n      sload\n      swap1\n      0x0100\n      exp\n      swap1\n      div\n      0xffffffffffffffffffffffffffffffffffffffff\n      and\n        /* \"PancakeSwap_UZH/Lottery/lotteryPancake.sol\":3800:3819  msg.sender == owner */\n      0xffffffffffffffffffffffffffffffffffffffff\n      and\n        /* \"PancakeSwap_UZH/Lottery/lotteryPancake.sol\":3800:3810  msg.sender */\n      caller\n        /* \"PancakeSwap_UZH/Lottery/lotteryPancake.sol\":3800:3819  msg.sender == owner */\n      0xffffffffffffffffffffffffffffffffffffffff\n      and\n      eq\n        /* \"PancakeSwap_UZH/Lottery/lotteryPancake.sol\":3792:3859  require(msg.sender == owner, \"Only the owner can calculate prizes\") */\n      tag_234\n      jumpi\n      mload(0x40)\n      0x08c379a000000000000000000000000000000000000000000000000000000000\n      dup2\n      mstore\n      0x04\n      add\n      tag_235\n      swap1\n      tag_236\n      jump\t// in\n    tag_235:\n      mload(0x40)\n      dup1\n      swap2\n      sub\n      swap1\n      revert\n    tag_234:\n        /* \"PancakeSwap_UZH/Lottery/lotteryPancake.sol\":3876:3885  uint256 i */\n      0x00\n        /* \"PancakeSwap_UZH/Lottery/lotteryPancake.sol\":3871:5073  for (uint256 i = 0; i < tickets[msg.sender].length; i++) {\r... */\n    tag_237:\n        /* \"PancakeSwap_UZH/Lottery/lotteryPancake.sol\":3895:3902  tickets */\n      0x02\n        /* \"PancakeSwap_UZH/Lottery/lotteryPancake.sol\":3895:3914  tickets[msg.sender] */\n      0x00\n        /* \"PancakeSwap_UZH/Lottery/lotteryPancake.sol\":3903:3913  msg.sender */\n      caller\n        /* \"PancakeSwap_UZH/Lottery/lotteryPancake.sol\":3895:3914  tickets[msg.sender] */\n      0xffffffffffffffffffffffffffffffffffffffff\n      and\n      0xffffffffffffffffffffffffffffffffffffffff\n      and\n      dup2\n      mstore\n      0x20\n      add\n      swap1\n      dup2\n      mstore\n      0x20\n      add\n      0x00\n      keccak256\n        /* \"PancakeSwap_UZH/Lottery/lotteryPancake.sol\":3895:3921  tickets[msg.sender].length */\n      dup1\n      sload\n      swap1\n      pop\n        /* \"PancakeSwap_UZH/Lottery/lotteryPancake.sol\":3891:3892  i */\n      dup2\n        /* \"PancakeSwap_UZH/Lottery/lotteryPancake.sol\":3891:3921  i < tickets[msg.sender].length */\n      lt\n        /* \"PancakeSwap_UZH/Lottery/lotteryPancake.sol\":3871:5073  for (uint256 i = 0; i < tickets[msg.sender].length; i++) {\r... */\n      iszero\n      tag_238\n      jumpi\n        /* \"PancakeSwap_UZH/Lottery/lotteryPancake.sol\":3943:3966  uint256[] memory ticket */\n      0x60\n        /* \"PancakeSwap_UZH/Lottery/lotteryPancake.sol\":3969:3976  tickets */\n      0x02\n        /* \"PancakeSwap_UZH/Lottery/lotteryPancake.sol\":3969:3988  tickets[msg.sender] */\n      0x00\n        /* \"PancakeSwap_UZH/Lottery/lotteryPancake.sol\":3977:3987  msg.sender */\n      caller\n        /* \"PancakeSwap_UZH/Lottery/lotteryPancake.sol\":3969:3988  tickets[msg.sender] */\n      0xffffffffffffffffffffffffffffffffffffffff\n      and\n      0xffffffffffffffffffffffffffffffffffffffff\n      and\n      dup2\n      mstore\n      0x20\n      add\n      swap1\n      dup2\n      mstore\n      0x20\n      add\n      0x00\n      keccak256\n        /* \"PancakeSwap_UZH/Lottery/lotteryPancake.sol\":3989:3990  i */\n      dup3\n        /* \"PancakeSwap_UZH/Lottery/lotteryPancake.sol\":3969:3991  tickets[msg.sender][i] */\n      dup2\n      sload\n      dup2\n      lt\n      tag_240\n      jumpi\n      invalid\n    tag_240:\n      swap1\n      0x00\n      mstore\n      keccak256(0x00, 0x20)\n      add\n        /* \"PancakeSwap_UZH/Lottery/lotteryPancake.sol\":3943:3991  uint256[] memory ticket = tickets[msg.sender][i] */\n      dup1\n      sload\n      dup1\n      0x20\n      mul\n      0x20\n      add\n      mload(0x40)\n      swap1\n      dup2\n      add\n      0x40\n      mstore\n      dup1\n      swap3\n      swap2\n      swap1\n      dup2\n      dup2\n      mstore\n      0x20\n      add\n      dup3\n      dup1\n      sload\n      dup1\n      iszero\n      tag_242\n      jumpi\n      0x20\n      mul\n      dup3\n      add\n      swap2\n      swap1\n      0x00\n      mstore\n      keccak256(0x00, 0x20)\n      swap1\n    tag_243:\n      dup2\n      sload\n      dup2\n      mstore\n      0x20\n      add\n      swap1\n      0x01\n      add\n      swap1\n      dup1\n      dup4\n      gt\n      tag_243\n      jumpi\n    tag_242:\n      pop\n      pop\n      pop\n      pop\n      pop\n      swap1\n      pop\n        /* \"PancakeSwap_UZH/Lottery/lotteryPancake.sol\":4007:4022  uint256 counter */\n      0x00\n        /* \"PancakeSwap_UZH/Lottery/lotteryPancake.sol\":4047:4056  uint256 j */\n      dup1\n        /* \"PancakeSwap_UZH/Lottery/lotteryPancake.sol\":4042:4197  for (uint256 j = 0; j < 6; j++) {\r... */\n    tag_244:\n        /* \"PancakeSwap_UZH/Lottery/lotteryPancake.sol\":4066:4067  6 */\n      0x06\n        /* \"PancakeSwap_UZH/Lottery/lotteryPancake.sol\":4062:4063  j */\n      dup2\n        /* \"PancakeSwap_UZH/Lottery/lotteryPancake.sol\":4062:4067  j < 6 */\n      lt\n        /* \"PancakeSwap_UZH/Lottery/lotteryPancake.sol\":4042:4197  for (uint256 j = 0; j < 6; j++) {\r... */\n      iszero\n      tag_245\n      jumpi\n        /* \"PancakeSwap_UZH/Lottery/lotteryPancake.sol\":4110:4124  winningNumbers */\n      0x03\n        /* \"PancakeSwap_UZH/Lottery/lotteryPancake.sol\":4125:4126  j */\n      dup2\n        /* \"PancakeSwap_UZH/Lottery/lotteryPancake.sol\":4110:4127  winningNumbers[j] */\n      dup2\n      sload\n      dup2\n      lt\n      tag_247\n      jumpi\n      invalid\n    tag_247:\n      swap1\n      0x00\n      mstore\n      keccak256(0x00, 0x20)\n      add\n      sload\n        /* \"PancakeSwap_UZH/Lottery/lotteryPancake.sol\":4097:4103  ticket */\n      dup4\n        /* \"PancakeSwap_UZH/Lottery/lotteryPancake.sol\":4104:4105  j */\n      dup3\n        /* \"PancakeSwap_UZH/Lottery/lotteryPancake.sol\":4097:4106  ticket[j] */\n      dup2\n      mload\n      dup2\n      lt\n      tag_249\n      jumpi\n      invalid\n    tag_249:\n      0x20\n      mul\n      0x20\n      add\n      add\n      mload\n        /* \"PancakeSwap_UZH/Lottery/lotteryPancake.sol\":4097:4127  ticket[j] == winningNumbers[j] */\n      eq\n        /* \"PancakeSwap_UZH/Lottery/lotteryPancake.sol\":4093:4182  if (ticket[j] == winningNumbers[j]) {\r... */\n      iszero\n      tag_250\n      jumpi\n        /* \"PancakeSwap_UZH/Lottery/lotteryPancake.sol\":4152:4161  counter++ */\n      dup2\n      dup1\n      0x01\n      add\n      swap3\n      pop\n      pop\n        /* \"PancakeSwap_UZH/Lottery/lotteryPancake.sol\":4093:4182  if (ticket[j] == winningNumbers[j]) {\r... */\n    tag_250:\n        /* \"PancakeSwap_UZH/Lottery/lotteryPancake.sol\":4069:4072  j++ */\n      dup1\n      dup1\n      0x01\n      add\n      swap2\n      pop\n      pop\n        /* \"PancakeSwap_UZH/Lottery/lotteryPancake.sol\":4042:4197  for (uint256 j = 0; j < 6; j++) {\r... */\n      jump(tag_244)\n    tag_245:\n      pop\n        /* \"PancakeSwap_UZH/Lottery/lotteryPancake.sol\":4226:4227  1 */\n      0x01\n        /* \"PancakeSwap_UZH/Lottery/lotteryPancake.sol\":4215:4222  counter */\n      dup2\n        /* \"PancakeSwap_UZH/Lottery/lotteryPancake.sol\":4215:4227  counter == 1 */\n      eq\n        /* \"PancakeSwap_UZH/Lottery/lotteryPancake.sol\":4211:5062  if (counter == 1) {\r... */\n      iszero\n      tag_251\n      jumpi\n        /* \"PancakeSwap_UZH/Lottery/lotteryPancake.sol\":4267:4268  0 */\n      0x00\n        /* \"PancakeSwap_UZH/Lottery/lotteryPancake.sol\":4248:4258  prizePools */\n      0x04\n        /* \"PancakeSwap_UZH/Lottery/lotteryPancake.sol\":4248:4261  prizePools[0] */\n      0x00\n        /* \"PancakeSwap_UZH/Lottery/lotteryPancake.sol\":4259:4260  0 */\n      dup1\n        /* \"PancakeSwap_UZH/Lottery/lotteryPancake.sol\":4248:4261  prizePools[0] */\n      dup2\n      mstore\n      0x20\n      add\n      swap1\n      dup2\n      mstore\n      0x20\n      add\n      0x00\n      keccak256\n        /* \"PancakeSwap_UZH/Lottery/lotteryPancake.sol\":4262:4263  0 */\n      0x00\n        /* \"PancakeSwap_UZH/Lottery/lotteryPancake.sol\":4248:4264  prizePools[0][0] */\n      dup2\n      sload\n      dup2\n      lt\n      tag_252\n      jumpi\n      invalid\n    tag_252:\n      swap1\n      0x00\n      mstore\n      keccak256(0x00, 0x20)\n      add\n        /* \"PancakeSwap_UZH/Lottery/lotteryPancake.sol\":4248:4268  prizePools[0][0] = 0 */\n      dup2\n      swap1\n      sstore\n      pop\n        /* \"PancakeSwap_UZH/Lottery/lotteryPancake.sol\":4307:4330  2 * 1000000000000000000 */\n      0x1bc16d674ec80000\n        /* \"PancakeSwap_UZH/Lottery/lotteryPancake.sol\":4287:4297  prizePools */\n      0x04\n        /* \"PancakeSwap_UZH/Lottery/lotteryPancake.sol\":4287:4300  prizePools[0] */\n      0x00\n        /* \"PancakeSwap_UZH/Lottery/lotteryPancake.sol\":4298:4299  0 */\n      dup1\n        /* \"PancakeSwap_UZH/Lottery/lotteryPancake.sol\":4287:4300  prizePools[0] */\n      dup2\n      mstore\n      0x20\n      add\n      swap1\n      dup2\n      mstore\n      0x20\n      add\n      0x00\n      keccak256\n        /* \"PancakeSwap_UZH/Lottery/lotteryPancake.sol\":4301:4302  0 */\n      0x00\n        /* \"PancakeSwap_UZH/Lottery/lotteryPancake.sol\":4287:4303  prizePools[0][0] */\n      dup2\n      sload\n      dup2\n      lt\n      tag_254\n      jumpi\n      invalid\n    tag_254:\n      swap1\n      0x00\n      mstore\n      keccak256(0x00, 0x20)\n      add\n      0x00\n        /* \"PancakeSwap_UZH/Lottery/lotteryPancake.sol\":4287:4330  prizePools[0][0] += 2 * 1000000000000000000 */\n      dup3\n      dup3\n      sload\n      add\n      swap3\n      pop\n      pop\n      dup2\n      swap1\n      sstore\n      pop\n        /* \"PancakeSwap_UZH/Lottery/lotteryPancake.sol\":4211:5062  if (counter == 1) {\r... */\n      jump(tag_256)\n    tag_251:\n        /* \"PancakeSwap_UZH/Lottery/lotteryPancake.sol\":4369:4370  2 */\n      0x02\n        /* \"PancakeSwap_UZH/Lottery/lotteryPancake.sol\":4358:4365  counter */\n      dup2\n        /* \"PancakeSwap_UZH/Lottery/lotteryPancake.sol\":4358:4370  counter == 2 */\n      eq\n        /* \"PancakeSwap_UZH/Lottery/lotteryPancake.sol\":4354:5062  if (counter == 2) {\r... */\n      iszero\n      tag_257\n      jumpi\n        /* \"PancakeSwap_UZH/Lottery/lotteryPancake.sol\":4410:4411  0 */\n      0x00\n        /* \"PancakeSwap_UZH/Lottery/lotteryPancake.sol\":4391:4401  prizePools */\n      0x04\n        /* \"PancakeSwap_UZH/Lottery/lotteryPancake.sol\":4391:4404  prizePools[1] */\n      0x00\n        /* \"PancakeSwap_UZH/Lottery/lotteryPancake.sol\":4402:4403  1 */\n      0x01\n        /* \"PancakeSwap_UZH/Lottery/lotteryPancake.sol\":4391:4404  prizePools[1] */\n      dup2\n      mstore\n      0x20\n      add\n      swap1\n      dup2\n      mstore\n      0x20\n      add\n      0x00\n      keccak256\n        /* \"PancakeSwap_UZH/Lottery/lotteryPancake.sol\":4405:4406  0 */\n      0x00\n        /* \"PancakeSwap_UZH/Lottery/lotteryPancake.sol\":4391:4407  prizePools[1][0] */\n      dup2\n      sload\n      dup2\n      lt\n      tag_258\n      jumpi\n      invalid\n    tag_258:\n      swap1\n      0x00\n      mstore\n      keccak256(0x00, 0x20)\n      add\n        /* \"PancakeSwap_UZH/Lottery/lotteryPancake.sol\":4391:4411  prizePools[1][0] = 0 */\n      dup2\n      swap1\n      sstore\n      pop\n        /* \"PancakeSwap_UZH/Lottery/lotteryPancake.sol\":4450:4473  3 * 1000000000000000000 */\n      0x29a2241af62c0000\n        /* \"PancakeSwap_UZH/Lottery/lotteryPancake.sol\":4430:4440  prizePools */\n      0x04\n        /* \"PancakeSwap_UZH/Lottery/lotteryPancake.sol\":4430:4443  prizePools[1] */\n      0x00\n        /* \"PancakeSwap_UZH/Lottery/lotteryPancake.sol\":4441:4442  1 */\n      0x01\n        /* \"PancakeSwap_UZH/Lottery/lotteryPancake.sol\":4430:4443  prizePools[1] */\n      dup2\n      mstore\n      0x20\n      add\n      swap1\n      dup2\n      mstore\n      0x20\n      add\n      0x00\n      keccak256\n        /* \"PancakeSwap_UZH/Lottery/lotteryPancake.sol\":4444:4445  0 */\n      0x00\n        /* \"PancakeSwap_UZH/Lottery/lotteryPancake.sol\":4430:4446  prizePools[1][0] */\n      dup2\n      sload\n      dup2\n      lt\n      tag_260\n      jumpi\n      invalid\n    tag_260:\n      swap1\n      0x00\n      mstore\n      keccak256(0x00, 0x20)\n      add\n      0x00\n        /* \"PancakeSwap_UZH/Lottery/lotteryPancake.sol\":4430:4473  prizePools[1][0] += 3 * 1000000000000000000 */\n      dup3\n      dup3\n      sload\n      add\n      swap3\n      pop\n      pop\n      dup2\n      swap1\n      sstore\n      pop\n        /* \"PancakeSwap_UZH/Lottery/lotteryPancake.sol\":4354:5062  if (counter == 2) {\r... */\n      jump(tag_262)\n    tag_257:\n        /* \"PancakeSwap_UZH/Lottery/lotteryPancake.sol\":4511:4512  3 */\n      0x03\n        /* \"PancakeSwap_UZH/Lottery/lotteryPancake.sol\":4500:4507  counter */\n      dup2\n        /* \"PancakeSwap_UZH/Lottery/lotteryPancake.sol\":4500:4512  counter == 3 */\n      eq\n        /* \"PancakeSwap_UZH/Lottery/lotteryPancake.sol\":4496:5062  if (counter == 3) {\r... */\n      iszero\n      tag_263\n      jumpi\n        /* \"PancakeSwap_UZH/Lottery/lotteryPancake.sol\":4552:4553  0 */\n      0x00\n        /* \"PancakeSwap_UZH/Lottery/lotteryPancake.sol\":4533:4543  prizePools */\n      0x04\n        /* \"PancakeSwap_UZH/Lottery/lotteryPancake.sol\":4533:4546  prizePools[2] */\n      0x00\n        /* \"PancakeSwap_UZH/Lottery/lotteryPancake.sol\":4544:4545  2 */\n      0x02\n        /* \"PancakeSwap_UZH/Lottery/lotteryPancake.sol\":4533:4546  prizePools[2] */\n      dup2\n      mstore\n      0x20\n      add\n      swap1\n      dup2\n      mstore\n      0x20\n      add\n      0x00\n      keccak256\n        /* \"PancakeSwap_UZH/Lottery/lotteryPancake.sol\":4547:4548  0 */\n      0x00\n        /* \"PancakeSwap_UZH/Lottery/lotteryPancake.sol\":4533:4549  prizePools[2][0] */\n      dup2\n      sload\n      dup2\n      lt\n      tag_264\n      jumpi\n      invalid\n    tag_264:\n      swap1\n      0x00\n      mstore\n      keccak256(0x00, 0x20)\n      add\n        /* \"PancakeSwap_UZH/Lottery/lotteryPancake.sol\":4533:4553  prizePools[2][0] = 0 */\n      dup2\n      swap1\n      sstore\n      pop\n        /* \"PancakeSwap_UZH/Lottery/lotteryPancake.sol\":4592:4615  5 * 1000000000000000000 */\n      0x4563918244f40000\n        /* \"PancakeSwap_UZH/Lottery/lotteryPancake.sol\":4572:4582  prizePools */\n      0x04\n        /* \"PancakeSwap_UZH/Lottery/lotteryPancake.sol\":4572:4585  prizePools[2] */\n      0x00\n        /* \"PancakeSwap_UZH/Lottery/lotteryPancake.sol\":4583:4584  2 */\n      0x02\n        /* \"PancakeSwap_UZH/Lottery/lotteryPancake.sol\":4572:4585  prizePools[2] */\n      dup2\n      mstore\n      0x20\n      add\n      swap1\n      dup2\n      mstore\n      0x20\n      add\n      0x00\n      keccak256\n        /* \"PancakeSwap_UZH/Lottery/lotteryPancake.sol\":4586:4587  0 */\n      0x00\n        /* \"PancakeSwap_UZH/Lottery/lotteryPancake.sol\":4572:4588  prizePools[2][0] */\n      dup2\n      sload\n      dup2\n      lt\n      tag_266\n      jumpi\n      invalid\n    tag_266:\n      swap1\n      0x00\n      mstore\n      keccak256(0x00, 0x20)\n      add\n      0x00\n        /* \"PancakeSwap_UZH/Lottery/lotteryPancake.sol\":4572:4615  prizePools[2][0] += 5 * 1000000000000000000 */\n      dup3\n      dup3\n      sload\n      add\n      swap3\n      pop\n      pop\n      dup2\n      swap1\n      sstore\n      pop\n        /* \"PancakeSwap_UZH/Lottery/lotteryPancake.sol\":4496:5062  if (counter == 3) {\r... */\n      jump(tag_268)\n    tag_263:\n        /* \"PancakeSwap_UZH/Lottery/lotteryPancake.sol\":4653:4654  4 */\n      0x04\n        /* \"PancakeSwap_UZH/Lottery/lotteryPancake.sol\":4642:4649  counter */\n      dup2\n        /* \"PancakeSwap_UZH/Lottery/lotteryPancake.sol\":4642:4654  counter == 4 */\n      eq\n        /* \"PancakeSwap_UZH/Lottery/lotteryPancake.sol\":4638:5062  if (counter == 4) {\r... */\n      iszero\n      tag_269\n      jumpi\n        /* \"PancakeSwap_UZH/Lottery/lotteryPancake.sol\":4694:4695  0 */\n      0x00\n        /* \"PancakeSwap_UZH/Lottery/lotteryPancake.sol\":4675:4685  prizePools */\n      0x04\n        /* \"PancakeSwap_UZH/Lottery/lotteryPancake.sol\":4675:4688  prizePools[3] */\n      0x00\n        /* \"PancakeSwap_UZH/Lottery/lotteryPancake.sol\":4686:4687  3 */\n      0x03\n        /* \"PancakeSwap_UZH/Lottery/lotteryPancake.sol\":4675:4688  prizePools[3] */\n      dup2\n      mstore\n      0x20\n      add\n      swap1\n      dup2\n      mstore\n      0x20\n      add\n      0x00\n      keccak256\n        /* \"PancakeSwap_UZH/Lottery/lotteryPancake.sol\":4689:4690  0 */\n      0x00\n        /* \"PancakeSwap_UZH/Lottery/lotteryPancake.sol\":4675:4691  prizePools[3][0] */\n      dup2\n      sload\n      dup2\n      lt\n      tag_270\n      jumpi\n      invalid\n    tag_270:\n      swap1\n      0x00\n      mstore\n      keccak256(0x00, 0x20)\n      add\n        /* \"PancakeSwap_UZH/Lottery/lotteryPancake.sol\":4675:4695  prizePools[3][0] = 0 */\n      dup2\n      swap1\n      sstore\n      pop\n        /* \"PancakeSwap_UZH/Lottery/lotteryPancake.sol\":4735:4759  10 * 1000000000000000000 */\n      0x8ac7230489e80000\n        /* \"PancakeSwap_UZH/Lottery/lotteryPancake.sol\":4715:4725  prizePools */\n      0x04\n        /* \"PancakeSwap_UZH/Lottery/lotteryPancake.sol\":4715:4728  prizePools[3] */\n      0x00\n        /* \"PancakeSwap_UZH/Lottery/lotteryPancake.sol\":4726:4727  3 */\n      0x03\n        /* \"PancakeSwap_UZH/Lottery/lotteryPancake.sol\":4715:4728  prizePools[3] */\n      dup2\n      mstore\n      0x20\n      add\n      swap1\n      dup2\n      mstore\n      0x20\n      add\n      0x00\n      keccak256\n        /* \"PancakeSwap_UZH/Lottery/lotteryPancake.sol\":4729:4730  0 */\n      0x00\n        /* \"PancakeSwap_UZH/Lottery/lotteryPancake.sol\":4715:4731  prizePools[3][0] */\n      dup2\n      sload\n      dup2\n      lt\n      tag_272\n      jumpi\n      invalid\n    tag_272:\n      swap1\n      0x00\n      mstore\n      keccak256(0x00, 0x20)\n      add\n      0x00\n        /* \"PancakeSwap_UZH/Lottery/lotteryPancake.sol\":4715:4759  prizePools[3][0] += 10 * 1000000000000000000 */\n      dup3\n      dup3\n      sload\n      add\n      swap3\n      pop\n      pop\n      dup2\n      swap1\n      sstore\n      pop\n        /* \"PancakeSwap_UZH/Lottery/lotteryPancake.sol\":4638:5062  if (counter == 4) {\r... */\n      jump(tag_274)\n    tag_269:\n        /* \"PancakeSwap_UZH/Lottery/lotteryPancake.sol\":4797:4798  5 */\n      0x05\n        /* \"PancakeSwap_UZH/Lottery/lotteryPancake.sol\":4786:4793  counter */\n      dup2\n        /* \"PancakeSwap_UZH/Lottery/lotteryPancake.sol\":4786:4798  counter == 5 */\n      eq\n        /* \"PancakeSwap_UZH/Lottery/lotteryPancake.sol\":4782:5062  if (counter == 5) {\r... */\n      iszero\n      tag_275\n      jumpi\n        /* \"PancakeSwap_UZH/Lottery/lotteryPancake.sol\":4838:4839  0 */\n      0x00\n        /* \"PancakeSwap_UZH/Lottery/lotteryPancake.sol\":4819:4829  prizePools */\n      0x04\n        /* \"PancakeSwap_UZH/Lottery/lotteryPancake.sol\":4819:4832  prizePools[4] */\n      0x00\n        /* \"PancakeSwap_UZH/Lottery/lotteryPancake.sol\":4830:4831  4 */\n      0x04\n        /* \"PancakeSwap_UZH/Lottery/lotteryPancake.sol\":4819:4832  prizePools[4] */\n      dup2\n      mstore\n      0x20\n      add\n      swap1\n      dup2\n      mstore\n      0x20\n      add\n      0x00\n      keccak256\n        /* \"PancakeSwap_UZH/Lottery/lotteryPancake.sol\":4833:4834  0 */\n      0x00\n        /* \"PancakeSwap_UZH/Lottery/lotteryPancake.sol\":4819:4835  prizePools[4][0] */\n      dup2\n      sload\n      dup2\n      lt\n      tag_276\n      jumpi\n      invalid\n    tag_276:\n      swap1\n      0x00\n      mstore\n      keccak256(0x00, 0x20)\n      add\n        /* \"PancakeSwap_UZH/Lottery/lotteryPancake.sol\":4819:4839  prizePools[4][0] = 0 */\n      dup2\n      swap1\n      sstore\n      pop\n        /* \"PancakeSwap_UZH/Lottery/lotteryPancake.sol\":4878:4902  20 * 1000000000000000000 */\n      0x01158e460913d00000\n        /* \"PancakeSwap_UZH/Lottery/lotteryPancake.sol\":4858:4868  prizePools */\n      0x04\n        /* \"PancakeSwap_UZH/Lottery/lotteryPancake.sol\":4858:4871  prizePools[4] */\n      0x00\n        /* \"PancakeSwap_UZH/Lottery/lotteryPancake.sol\":4869:4870  4 */\n      0x04\n        /* \"PancakeSwap_UZH/Lottery/lotteryPancake.sol\":4858:4871  prizePools[4] */\n      dup2\n      mstore\n      0x20\n      add\n      swap1\n      dup2\n      mstore\n      0x20\n      add\n      0x00\n      keccak256\n        /* \"PancakeSwap_UZH/Lottery/lotteryPancake.sol\":4872:4873  0 */\n      0x00\n        /* \"PancakeSwap_UZH/Lottery/lotteryPancake.sol\":4858:4874  prizePools[4][0] */\n      dup2\n      sload\n      dup2\n      lt\n      tag_278\n      jumpi\n      invalid\n    tag_278:\n      swap1\n      0x00\n      mstore\n      keccak256(0x00, 0x20)\n      add\n      0x00\n        /* \"PancakeSwap_UZH/Lottery/lotteryPancake.sol\":4858:4902  prizePools[4][0] += 20 * 1000000000000000000 */\n      dup3\n      dup3\n      sload\n      add\n      swap3\n      pop\n      pop\n      dup2\n      swap1\n      sstore\n      pop\n        /* \"PancakeSwap_UZH/Lottery/lotteryPancake.sol\":4782:5062  if (counter == 5) {\r... */\n      jump(tag_280)\n    tag_275:\n        /* \"PancakeSwap_UZH/Lottery/lotteryPancake.sol\":4940:4941  6 */\n      0x06\n        /* \"PancakeSwap_UZH/Lottery/lotteryPancake.sol\":4929:4936  counter */\n      dup2\n        /* \"PancakeSwap_UZH/Lottery/lotteryPancake.sol\":4929:4941  counter == 6 */\n      eq\n        /* \"PancakeSwap_UZH/Lottery/lotteryPancake.sol\":4925:5062  if (counter == 6) {\r... */\n      iszero\n      tag_281\n      jumpi\n        /* \"PancakeSwap_UZH/Lottery/lotteryPancake.sol\":4981:4982  0 */\n      0x00\n        /* \"PancakeSwap_UZH/Lottery/lotteryPancake.sol\":4962:4972  prizePools */\n      0x04\n        /* \"PancakeSwap_UZH/Lottery/lotteryPancake.sol\":4962:4975  prizePools[5] */\n      0x00\n        /* \"PancakeSwap_UZH/Lottery/lotteryPancake.sol\":4973:4974  5 */\n      0x05\n        /* \"PancakeSwap_UZH/Lottery/lotteryPancake.sol\":4962:4975  prizePools[5] */\n      dup2\n      mstore\n      0x20\n      add\n      swap1\n      dup2\n      mstore\n      0x20\n      add\n      0x00\n      keccak256\n        /* \"PancakeSwap_UZH/Lottery/lotteryPancake.sol\":4976:4977  0 */\n      0x00\n        /* \"PancakeSwap_UZH/Lottery/lotteryPancake.sol\":4962:4978  prizePools[5][0] */\n      dup2\n      sload\n      dup2\n      lt\n      tag_282\n      jumpi\n      invalid\n    tag_282:\n      swap1\n      0x00\n      mstore\n      keccak256(0x00, 0x20)\n      add\n        /* \"PancakeSwap_UZH/Lottery/lotteryPancake.sol\":4962:4982  prizePools[5][0] = 0 */\n      dup2\n      swap1\n      sstore\n      pop\n        /* \"PancakeSwap_UZH/Lottery/lotteryPancake.sol\":5021:5045  40 * 1000000000000000000 */\n      0x022b1c8c1227a00000\n        /* \"PancakeSwap_UZH/Lottery/lotteryPancake.sol\":5001:5011  prizePools */\n      0x04\n        /* \"PancakeSwap_UZH/Lottery/lotteryPancake.sol\":5001:5014  prizePools[5] */\n      0x00\n        /* \"PancakeSwap_UZH/Lottery/lotteryPancake.sol\":5012:5013  5 */\n      0x05\n        /* \"PancakeSwap_UZH/Lottery/lotteryPancake.sol\":5001:5014  prizePools[5] */\n      dup2\n      mstore\n      0x20\n      add\n      swap1\n      dup2\n      mstore\n      0x20\n      add\n      0x00\n      keccak256\n        /* \"PancakeSwap_UZH/Lottery/lotteryPancake.sol\":5015:5016  0 */\n      0x00\n        /* \"PancakeSwap_UZH/Lottery/lotteryPancake.sol\":5001:5017  prizePools[5][0] */\n      dup2\n      sload\n      dup2\n      lt\n      tag_284\n      jumpi\n      invalid\n    tag_284:\n      swap1\n      0x00\n      mstore\n      keccak256(0x00, 0x20)\n      add\n      0x00\n        /* \"PancakeSwap_UZH/Lottery/lotteryPancake.sol\":5001:5045  prizePools[5][0] += 40 * 1000000000000000000 */\n      dup3\n      dup3\n      sload\n      add\n      swap3\n      pop\n      pop\n      dup2\n      swap1\n      sstore\n      pop\n        /* \"PancakeSwap_UZH/Lottery/lotteryPancake.sol\":4925:5062  if (counter == 6) {\r... */\n    tag_281:\n        /* \"PancakeSwap_UZH/Lottery/lotteryPancake.sol\":4782:5062  if (counter == 5) {\r... */\n    tag_280:\n        /* \"PancakeSwap_UZH/Lottery/lotteryPancake.sol\":4638:5062  if (counter == 4) {\r... */\n    tag_274:\n        /* \"PancakeSwap_UZH/Lottery/lotteryPancake.sol\":4496:5062  if (counter == 3) {\r... */\n    tag_268:\n        /* \"PancakeSwap_UZH/Lottery/lotteryPancake.sol\":4354:5062  if (counter == 2) {\r... */\n    tag_262:\n        /* \"PancakeSwap_UZH/Lottery/lotteryPancake.sol\":4211:5062  if (counter == 1) {\r... */\n    tag_256:\n        /* \"PancakeSwap_UZH/Lottery/lotteryPancake.sol\":3871:5073  for (uint256 i = 0; i < tickets[msg.sender].length; i++) {\r... */\n      pop\n      pop\n        /* \"PancakeSwap_UZH/Lottery/lotteryPancake.sol\":3923:3926  i++ */\n      dup1\n      dup1\n      0x01\n      add\n      swap2\n      pop\n      pop\n        /* \"PancakeSwap_UZH/Lottery/lotteryPancake.sol\":3871:5073  for (uint256 i = 0; i < tickets[msg.sender].length; i++) {\r... */\n      jump(tag_237)\n    tag_238:\n      pop\n        /* \"PancakeSwap_UZH/Lottery/lotteryPancake.sol\":5090:5099  uint256 i */\n      0x00\n        /* \"PancakeSwap_UZH/Lottery/lotteryPancake.sol\":5085:5225  for (uint256 i = 0; i < 6; i++) {\r... */\n    tag_286:\n        /* \"PancakeSwap_UZH/Lottery/lotteryPancake.sol\":5109:5110  6 */\n      0x06\n        /* \"PancakeSwap_UZH/Lottery/lotteryPancake.sol\":5105:5106  i */\n      dup2\n        /* \"PancakeSwap_UZH/Lottery/lotteryPancake.sol\":5105:5110  i < 6 */\n      lt\n        /* \"PancakeSwap_UZH/Lottery/lotteryPancake.sol\":5085:5225  for (uint256 i = 0; i < 6; i++) {\r... */\n      iszero\n      tag_287\n      jumpi\n        /* \"PancakeSwap_UZH/Lottery/lotteryPancake.sol\":5150:5160  prizePools */\n      0x04\n        /* \"PancakeSwap_UZH/Lottery/lotteryPancake.sol\":5150:5163  prizePools[i] */\n      0x00\n        /* \"PancakeSwap_UZH/Lottery/lotteryPancake.sol\":5161:5162  i */\n      dup3\n        /* \"PancakeSwap_UZH/Lottery/lotteryPancake.sol\":5150:5163  prizePools[i] */\n      dup2\n      mstore\n      0x20\n      add\n      swap1\n      dup2\n      mstore\n      0x20\n      add\n      0x00\n      keccak256\n        /* \"PancakeSwap_UZH/Lottery/lotteryPancake.sol\":5164:5165  0 */\n      0x00\n        /* \"PancakeSwap_UZH/Lottery/lotteryPancake.sol\":5150:5166  prizePools[i][0] */\n      dup2\n      sload\n      dup2\n      lt\n      tag_289\n      jumpi\n      invalid\n    tag_289:\n      swap1\n      0x00\n      mstore\n      keccak256(0x00, 0x20)\n      add\n      sload\n        /* \"PancakeSwap_UZH/Lottery/lotteryPancake.sol\":5132:5146  totalPrizePool */\n      0x05\n      0x00\n        /* \"PancakeSwap_UZH/Lottery/lotteryPancake.sol\":5132:5166  totalPrizePool += prizePools[i][0] */\n      dup3\n      dup3\n      sload\n      add\n      swap3\n      pop\n      pop\n      dup2\n      swap1\n      sstore\n      pop\n        /* \"PancakeSwap_UZH/Lottery/lotteryPancake.sol\":5196:5206  prizePools */\n      0x04\n        /* \"PancakeSwap_UZH/Lottery/lotteryPancake.sol\":5196:5209  prizePools[i] */\n      0x00\n        /* \"PancakeSwap_UZH/Lottery/lotteryPancake.sol\":5207:5208  i */\n      dup3\n        /* \"PancakeSwap_UZH/Lottery/lotteryPancake.sol\":5196:5209  prizePools[i] */\n      dup2\n      mstore\n      0x20\n      add\n      swap1\n      dup2\n      mstore\n      0x20\n      add\n      0x00\n      keccak256\n        /* \"PancakeSwap_UZH/Lottery/lotteryPancake.sol\":5210:5211  1 */\n      0x01\n        /* \"PancakeSwap_UZH/Lottery/lotteryPancake.sol\":5196:5212  prizePools[i][1] */\n      dup2\n      sload\n      dup2\n      lt\n      tag_291\n      jumpi\n      invalid\n    tag_291:\n      swap1\n      0x00\n      mstore\n      keccak256(0x00, 0x20)\n      add\n      sload\n        /* \"PancakeSwap_UZH/Lottery/lotteryPancake.sol\":5182:5192  burnAmount */\n      0x07\n      0x00\n        /* \"PancakeSwap_UZH/Lottery/lotteryPancake.sol\":5182:5212  burnAmount += prizePools[i][1] */\n      dup3\n      dup3\n      sload\n      add\n      swap3\n      pop\n      pop\n      dup2\n      swap1\n      sstore\n      pop\n        /* \"PancakeSwap_UZH/Lottery/lotteryPancake.sol\":5112:5115  i++ */\n      dup1\n      dup1\n      0x01\n      add\n      swap2\n      pop\n      pop\n        /* \"PancakeSwap_UZH/Lottery/lotteryPancake.sol\":5085:5225  for (uint256 i = 0; i < 6; i++) {\r... */\n      jump(tag_286)\n    tag_287:\n      pop\n        /* \"PancakeSwap_UZH/Lottery/lotteryPancake.sol\":3693:5232  function calculatePrizes() public {\r... */\n      jump\t// out\n        /* \"PancakeSwap_UZH/Lottery/lotteryPancake.sol\":344:367  uint256 public burnPool */\n    tag_95:\n      sload(0x06)\n      dup2\n      jump\t// out\n        /* \"PancakeSwap_UZH/Lottery/lotteryPancake.sol\":2696:3025  function setWinningNumbers() public {\r... */\n    tag_99:\n        /* \"PancakeSwap_UZH/Lottery/lotteryPancake.sol\":2765:2770  owner */\n      0x00\n      dup1\n      sload\n      swap1\n      0x0100\n      exp\n      swap1\n      div\n      0xffffffffffffffffffffffffffffffffffffffff\n      and\n        /* \"PancakeSwap_UZH/Lottery/lotteryPancake.sol\":2751:2770  msg.sender == owner */\n      0xffffffffffffffffffffffffffffffffffffffff\n      and\n        /* \"PancakeSwap_UZH/Lottery/lotteryPancake.sol\":2751:2761  msg.sender */\n      caller\n        /* \"PancakeSwap_UZH/Lottery/lotteryPancake.sol\":2751:2770  msg.sender == owner */\n      0xffffffffffffffffffffffffffffffffffffffff\n      and\n      eq\n        /* \"PancakeSwap_UZH/Lottery/lotteryPancake.sol\":2743:2817  require(msg.sender == owner, \"Only the owner can set the winning numbers\") */\n      tag_294\n      jumpi\n      mload(0x40)\n      0x08c379a000000000000000000000000000000000000000000000000000000000\n      dup2\n      mstore\n      0x04\n      add\n      tag_295\n      swap1\n      tag_109\n      jump\t// in\n    tag_295:\n      mload(0x40)\n      dup1\n      swap2\n      sub\n      swap1\n      revert\n    tag_294:\n        /* \"PancakeSwap_UZH/Lottery/lotteryPancake.sol\":2834:2840  uint i */\n      0x00\n        /* \"PancakeSwap_UZH/Lottery/lotteryPancake.sol\":2829:3018  for (uint i = 0; i < 6; i++) {\r... */\n    tag_296:\n        /* \"PancakeSwap_UZH/Lottery/lotteryPancake.sol\":2850:2851  6 */\n      0x06\n        /* \"PancakeSwap_UZH/Lottery/lotteryPancake.sol\":2846:2847  i */\n      dup2\n        /* \"PancakeSwap_UZH/Lottery/lotteryPancake.sol\":2846:2851  i < 6 */\n      lt\n        /* \"PancakeSwap_UZH/Lottery/lotteryPancake.sol\":2829:3018  for (uint i = 0; i < 6; i++) {\r... */\n      iszero\n      tag_297\n      jumpi\n        /* \"PancakeSwap_UZH/Lottery/lotteryPancake.sol\":2873:2893  uint256 randomNumber */\n      0x00\n        /* \"PancakeSwap_UZH/Lottery/lotteryPancake.sol\":2955:2957  10 */\n      0x0a\n        /* \"PancakeSwap_UZH/Lottery/lotteryPancake.sol\":2931:2946  block.timestamp */\n      timestamp\n        /* \"PancakeSwap_UZH/Lottery/lotteryPancake.sol\":2948:2949  i */\n      dup4\n        /* \"PancakeSwap_UZH/Lottery/lotteryPancake.sol\":2914:2950  abi.encodePacked(block.timestamp, i) */\n      add(0x20, mload(0x40))\n      tag_299\n      swap3\n      swap2\n      swap1\n      tag_300\n      jump\t// in\n    tag_299:\n      mload(0x40)\n      0x20\n      dup2\n      dup4\n      sub\n      sub\n      dup2\n      mstore\n      swap1\n      0x40\n      mstore\n        /* \"PancakeSwap_UZH/Lottery/lotteryPancake.sol\":2904:2951  keccak256(abi.encodePacked(block.timestamp, i)) */\n      dup1\n      mload\n      swap1\n      0x20\n      add\n      keccak256\n        /* \"PancakeSwap_UZH/Lottery/lotteryPancake.sol\":2896:2952  uint256(keccak256(abi.encodePacked(block.timestamp, i))) */\n      0x00\n      shr\n        /* \"PancakeSwap_UZH/Lottery/lotteryPancake.sol\":2896:2957  uint256(keccak256(abi.encodePacked(block.timestamp, i))) % 10 */\n      dup2\n      tag_301\n      jumpi\n      invalid\n    tag_301:\n      mod\n        /* \"PancakeSwap_UZH/Lottery/lotteryPancake.sol\":2873:2957  uint256 randomNumber = uint256(keccak256(abi.encodePacked(block.timestamp, i))) % 10 */\n      swap1\n      pop\n        /* \"PancakeSwap_UZH/Lottery/lotteryPancake.sol\":2972:2986  winningNumbers */\n      0x03\n        /* \"PancakeSwap_UZH/Lottery/lotteryPancake.sol\":2992:3004  randomNumber */\n      dup2\n        /* \"PancakeSwap_UZH/Lottery/lotteryPancake.sol\":2972:3005  winningNumbers.push(randomNumber) */\n      swap1\n      dup1\n      0x01\n      dup2\n      sload\n      add\n      dup1\n      dup3\n      sstore\n      dup1\n      swap2\n      pop\n      pop\n      0x01\n      swap1\n      sub\n      swap1\n      0x00\n      mstore\n      keccak256(0x00, 0x20)\n      add\n      0x00\n      swap1\n      swap2\n      swap1\n      swap2\n      swap1\n      swap2\n      pop\n      sstore\n        /* \"PancakeSwap_UZH/Lottery/lotteryPancake.sol\":2829:3018  for (uint i = 0; i < 6; i++) {\r... */\n      pop\n        /* \"PancakeSwap_UZH/Lottery/lotteryPancake.sol\":2853:2856  i++ */\n      dup1\n      dup1\n      0x01\n      add\n      swap2\n      pop\n      pop\n        /* \"PancakeSwap_UZH/Lottery/lotteryPancake.sol\":2829:3018  for (uint i = 0; i < 6; i++) {\r... */\n      jump(tag_296)\n    tag_297:\n      pop\n        /* \"PancakeSwap_UZH/Lottery/lotteryPancake.sol\":2696:3025  function setWinningNumbers() public {\r... */\n      jump\t// out\n        /* \"PancakeSwap_UZH/Lottery/lotteryPancake.sol\":1398:1530  function viewTickets(uint256 ticketnr) public view returns(uint256[] memory) {\r... */\n    tag_103:\n        /* \"PancakeSwap_UZH/Lottery/lotteryPancake.sol\":1457:1473  uint256[] memory */\n      0x60\n        /* \"PancakeSwap_UZH/Lottery/lotteryPancake.sol\":1493:1500  tickets */\n      0x02\n        /* \"PancakeSwap_UZH/Lottery/lotteryPancake.sol\":1493:1512  tickets[msg.sender] */\n      0x00\n        /* \"PancakeSwap_UZH/Lottery/lotteryPancake.sol\":1501:1511  msg.sender */\n      caller\n        /* \"PancakeSwap_UZH/Lottery/lotteryPancake.sol\":1493:1512  tickets[msg.sender] */\n      0xffffffffffffffffffffffffffffffffffffffff\n      and\n      0xffffffffffffffffffffffffffffffffffffffff\n      and\n      dup2\n      mstore\n      0x20\n      add\n      swap1\n      dup2\n      mstore\n      0x20\n      add\n      0x00\n      keccak256\n        /* \"PancakeSwap_UZH/Lottery/lotteryPancake.sol\":1513:1521  ticketnr */\n      dup3\n        /* \"PancakeSwap_UZH/Lottery/lotteryPancake.sol\":1493:1522  tickets[msg.sender][ticketnr] */\n      dup2\n      sload\n      dup2\n      lt\n      tag_304\n      jumpi\n      invalid\n    tag_304:\n      swap1\n      0x00\n      mstore\n      keccak256(0x00, 0x20)\n      add\n        /* \"PancakeSwap_UZH/Lottery/lotteryPancake.sol\":1486:1522  return tickets[msg.sender][ticketnr] */\n      dup1\n      sload\n      dup1\n      0x20\n      mul\n      0x20\n      add\n      mload(0x40)\n      swap1\n      dup2\n      add\n      0x40\n      mstore\n      dup1\n      swap3\n      swap2\n      swap1\n      dup2\n      dup2\n      mstore\n      0x20\n      add\n      dup3\n      dup1\n      sload\n      dup1\n      iszero\n      tag_306\n      jumpi\n      0x20\n      mul\n      dup3\n      add\n      swap2\n      swap1\n      0x00\n      mstore\n      keccak256(0x00, 0x20)\n      swap1\n    tag_307:\n      dup2\n      sload\n      dup2\n      mstore\n      0x20\n      add\n      swap1\n      0x01\n      add\n      swap1\n      dup1\n      dup4\n      gt\n      tag_307\n      jumpi\n    tag_306:\n      pop\n      pop\n      pop\n      pop\n      pop\n      swap1\n      pop\n        /* \"PancakeSwap_UZH/Lottery/lotteryPancake.sol\":1398:1530  function viewTickets(uint256 ticketnr) public view returns(uint256[] memory) {\r... */\n      swap2\n      swap1\n      pop\n      jump\t// out\n    tag_114:\n      dup3\n      dup1\n      sload\n      dup3\n      dup3\n      sstore\n      swap1\n      0x00\n      mstore\n      keccak256(0x00, 0x20)\n      swap1\n      dup2\n      add\n      swap3\n      dup3\n      iszero\n      tag_308\n      jumpi\n      swap2\n      0x20\n      mul\n      dup3\n      add\n    tag_309:\n      dup3\n      dup2\n      gt\n      iszero\n      tag_310\n      jumpi\n      dup3\n      mload\n      dup3\n      sstore\n      swap2\n      0x20\n      add\n      swap2\n      swap1\n      0x01\n      add\n      swap1\n      jump(tag_309)\n    tag_310:\n    tag_308:\n      pop\n      swap1\n      pop\n      tag_311\n      swap2\n      swap1\n      tag_312\n      jump\t// in\n    tag_311:\n      pop\n      swap1\n      jump\t// out\n    tag_172:\n      pop\n      dup1\n      sload\n      0x00\n      dup3\n      sstore\n      swap1\n      0x00\n      mstore\n      keccak256(0x00, 0x20)\n      swap1\n      dup2\n      add\n      swap1\n      tag_314\n      swap2\n      swap1\n      tag_312\n      jump\t// in\n    tag_314:\n      pop\n      jump\t// out\n    tag_224:\n      mload(0x40)\n      dup1\n      0xc0\n      add\n      0x40\n      mstore\n      dup1\n      0x06\n      swap1\n      0x20\n      dup3\n      mul\n      dup1\n      calldatasize\n      dup4\n      calldatacopy\n      dup1\n      dup3\n      add\n      swap2\n      pop\n      pop\n      swap1\n      pop\n      pop\n      swap1\n      jump\t// out\n    tag_312:\n    tag_315:\n      dup1\n      dup3\n      gt\n      iszero\n      tag_316\n      jumpi\n      0x00\n      dup2\n      0x00\n      swap1\n      sstore\n      pop\n      0x01\n      add\n      jump(tag_315)\n    tag_316:\n      pop\n      swap1\n      jump\t// out\n        /* \"--CODEGEN--\":5:135   */\n    tag_318:\n      0x00\n        /* \"--CODEGEN--\":85:91   */\n      dup2\n        /* \"--CODEGEN--\":72:92   */\n      calldataload\n        /* \"--CODEGEN--\":63:92   */\n      swap1\n      pop\n        /* \"--CODEGEN--\":97:130   */\n      tag_320\n        /* \"--CODEGEN--\":124:129   */\n      dup2\n        /* \"--CODEGEN--\":97:130   */\n      tag_321\n      jump\t// in\n    tag_320:\n        /* \"--CODEGEN--\":57:135   */\n      swap3\n      swap2\n      pop\n      pop\n      jump\t// out\n        /* \"--CODEGEN--\":160:867   */\n    tag_322:\n      0x00\n        /* \"--CODEGEN--\":277:280   */\n      dup3\n        /* \"--CODEGEN--\":270:274   */\n      0x1f\n        /* \"--CODEGEN--\":262:268   */\n      dup4\n        /* \"--CODEGEN--\":258:275   */\n      add\n        /* \"--CODEGEN--\":254:281   */\n      slt\n        /* \"--CODEGEN--\":244:246   */\n      tag_324\n      jumpi\n        /* \"--CODEGEN--\":295:296   */\n      0x00\n        /* \"--CODEGEN--\":292:293   */\n      dup1\n        /* \"--CODEGEN--\":285:297   */\n      revert\n        /* \"--CODEGEN--\":244:246   */\n    tag_324:\n        /* \"--CODEGEN--\":332:338   */\n      dup2\n        /* \"--CODEGEN--\":319:339   */\n      calldataload\n        /* \"--CODEGEN--\":354:434   */\n      tag_325\n        /* \"--CODEGEN--\":369:433   */\n      tag_326\n        /* \"--CODEGEN--\":426:432   */\n      dup3\n        /* \"--CODEGEN--\":369:433   */\n      tag_327\n      jump\t// in\n    tag_326:\n        /* \"--CODEGEN--\":354:434   */\n      tag_328\n      jump\t// in\n    tag_325:\n        /* \"--CODEGEN--\":345:434   */\n      swap2\n      pop\n        /* \"--CODEGEN--\":451:456   */\n      dup2\n        /* \"--CODEGEN--\":476:482   */\n      dup2\n        /* \"--CODEGEN--\":469:474   */\n      dup4\n        /* \"--CODEGEN--\":462:483   */\n      mstore\n        /* \"--CODEGEN--\":506:510   */\n      0x20\n        /* \"--CODEGEN--\":498:504   */\n      dup5\n        /* \"--CODEGEN--\":494:511   */\n      add\n        /* \"--CODEGEN--\":484:511   */\n      swap4\n      pop\n        /* \"--CODEGEN--\":528:532   */\n      0x20\n        /* \"--CODEGEN--\":523:526   */\n      dup2\n        /* \"--CODEGEN--\":519:533   */\n      add\n        /* \"--CODEGEN--\":512:533   */\n      swap1\n      pop\n        /* \"--CODEGEN--\":581:587   */\n      dup4\n        /* \"--CODEGEN--\":628:631   */\n      dup6\n        /* \"--CODEGEN--\":620:624   */\n      0x20\n        /* \"--CODEGEN--\":612:618   */\n      dup5\n        /* \"--CODEGEN--\":608:625   */\n      mul\n        /* \"--CODEGEN--\":603:606   */\n      dup3\n        /* \"--CODEGEN--\":599:626   */\n      add\n        /* \"--CODEGEN--\":596:632   */\n      gt\n        /* \"--CODEGEN--\":593:595   */\n      iszero\n      tag_329\n      jumpi\n        /* \"--CODEGEN--\":645:646   */\n      0x00\n        /* \"--CODEGEN--\":642:643   */\n      dup1\n        /* \"--CODEGEN--\":635:647   */\n      revert\n        /* \"--CODEGEN--\":593:595   */\n    tag_329:\n        /* \"--CODEGEN--\":670:671   */\n      0x00\n        /* \"--CODEGEN--\":655:861   */\n    tag_330:\n        /* \"--CODEGEN--\":680:686   */\n      dup4\n        /* \"--CODEGEN--\":677:678   */\n      dup2\n        /* \"--CODEGEN--\":674:687   */\n      lt\n        /* \"--CODEGEN--\":655:861   */\n      iszero\n      tag_332\n      jumpi\n        /* \"--CODEGEN--\":738:741   */\n      dup2\n        /* \"--CODEGEN--\":760:797   */\n      tag_333\n        /* \"--CODEGEN--\":793:796   */\n      dup9\n        /* \"--CODEGEN--\":781:791   */\n      dup3\n        /* \"--CODEGEN--\":760:797   */\n      tag_334\n      jump\t// in\n    tag_333:\n        /* \"--CODEGEN--\":755:758   */\n      dup5\n        /* \"--CODEGEN--\":748:798   */\n      mstore\n        /* \"--CODEGEN--\":821:825   */\n      0x20\n        /* \"--CODEGEN--\":816:819   */\n      dup5\n        /* \"--CODEGEN--\":812:826   */\n      add\n        /* \"--CODEGEN--\":805:826   */\n      swap4\n      pop\n        /* \"--CODEGEN--\":849:853   */\n      0x20\n        /* \"--CODEGEN--\":844:847   */\n      dup4\n        /* \"--CODEGEN--\":840:854   */\n      add\n        /* \"--CODEGEN--\":833:854   */\n      swap3\n      pop\n        /* \"--CODEGEN--\":712:861   */\n      pop\n        /* \"--CODEGEN--\":702:703   */\n      0x01\n        /* \"--CODEGEN--\":699:700   */\n      dup2\n        /* \"--CODEGEN--\":695:704   */\n      add\n        /* \"--CODEGEN--\":690:704   */\n      swap1\n      pop\n        /* \"--CODEGEN--\":655:861   */\n      jump(tag_330)\n    tag_332:\n        /* \"--CODEGEN--\":659:673   */\n      pop\n        /* \"--CODEGEN--\":237:867   */\n      pop\n      pop\n      pop\n      swap3\n      swap2\n      pop\n      pop\n      jump\t// out\n        /* \"--CODEGEN--\":875:1005   */\n    tag_334:\n      0x00\n        /* \"--CODEGEN--\":955:961   */\n      dup2\n        /* \"--CODEGEN--\":942:962   */\n      calldataload\n        /* \"--CODEGEN--\":933:962   */\n      swap1\n      pop\n        /* \"--CODEGEN--\":967:1000   */\n      tag_336\n        /* \"--CODEGEN--\":994:999   */\n      dup2\n        /* \"--CODEGEN--\":967:1000   */\n      tag_337\n      jump\t// in\n    tag_336:\n        /* \"--CODEGEN--\":927:1005   */\n      swap3\n      swap2\n      pop\n      pop\n      jump\t// out\n        /* \"--CODEGEN--\":1012:1503   */\n    tag_43:\n      0x00\n      dup1\n      0x00\n        /* \"--CODEGEN--\":1150:1152   */\n      0x60\n        /* \"--CODEGEN--\":1138:1147   */\n      dup5\n        /* \"--CODEGEN--\":1129:1136   */\n      dup7\n        /* \"--CODEGEN--\":1125:1148   */\n      sub\n        /* \"--CODEGEN--\":1121:1153   */\n      slt\n        /* \"--CODEGEN--\":1118:1120   */\n      iszero\n      tag_339\n      jumpi\n        /* \"--CODEGEN--\":1166:1167   */\n      0x00\n        /* \"--CODEGEN--\":1163:1164   */\n      dup1\n        /* \"--CODEGEN--\":1156:1168   */\n      revert\n        /* \"--CODEGEN--\":1118:1120   */\n    tag_339:\n        /* \"--CODEGEN--\":1201:1202   */\n      0x00\n        /* \"--CODEGEN--\":1218:1271   */\n      tag_340\n        /* \"--CODEGEN--\":1263:1270   */\n      dup7\n        /* \"--CODEGEN--\":1254:1260   */\n      dup3\n        /* \"--CODEGEN--\":1243:1252   */\n      dup8\n        /* \"--CODEGEN--\":1239:1261   */\n      add\n        /* \"--CODEGEN--\":1218:1271   */\n      tag_318\n      jump\t// in\n    tag_340:\n        /* \"--CODEGEN--\":1208:1271   */\n      swap4\n      pop\n        /* \"--CODEGEN--\":1180:1277   */\n      pop\n        /* \"--CODEGEN--\":1308:1310   */\n      0x20\n        /* \"--CODEGEN--\":1326:1379   */\n      tag_341\n        /* \"--CODEGEN--\":1371:1378   */\n      dup7\n        /* \"--CODEGEN--\":1362:1368   */\n      dup3\n        /* \"--CODEGEN--\":1351:1360   */\n      dup8\n        /* \"--CODEGEN--\":1347:1369   */\n      add\n        /* \"--CODEGEN--\":1326:1379   */\n      tag_334\n      jump\t// in\n    tag_341:\n        /* \"--CODEGEN--\":1316:1379   */\n      swap3\n      pop\n        /* \"--CODEGEN--\":1287:1385   */\n      pop\n        /* \"--CODEGEN--\":1416:1418   */\n      0x40\n        /* \"--CODEGEN--\":1434:1487   */\n      tag_342\n        /* \"--CODEGEN--\":1479:1486   */\n      dup7\n        /* \"--CODEGEN--\":1470:1476   */\n      dup3\n        /* \"--CODEGEN--\":1459:1468   */\n      dup8\n        /* \"--CODEGEN--\":1455:1477   */\n      add\n        /* \"--CODEGEN--\":1434:1487   */\n      tag_334\n      jump\t// in\n    tag_342:\n        /* \"--CODEGEN--\":1424:1487   */\n      swap2\n      pop\n        /* \"--CODEGEN--\":1395:1493   */\n      pop\n        /* \"--CODEGEN--\":1112:1503   */\n      swap3\n      pop\n      swap3\n      pop\n      swap3\n      jump\t// out\n        /* \"--CODEGEN--\":1510:1887   */\n    tag_27:\n      0x00\n        /* \"--CODEGEN--\":1639:1641   */\n      0x20\n        /* \"--CODEGEN--\":1627:1636   */\n      dup3\n        /* \"--CODEGEN--\":1618:1625   */\n      dup5\n        /* \"--CODEGEN--\":1614:1637   */\n      sub\n        /* \"--CODEGEN--\":1610:1642   */\n      slt\n        /* \"--CODEGEN--\":1607:1609   */\n      iszero\n      tag_344\n      jumpi\n        /* \"--CODEGEN--\":1655:1656   */\n      0x00\n        /* \"--CODEGEN--\":1652:1653   */\n      dup1\n        /* \"--CODEGEN--\":1645:1657   */\n      revert\n        /* \"--CODEGEN--\":1607:1609   */\n    tag_344:\n        /* \"--CODEGEN--\":1718:1719   */\n      0x00\n        /* \"--CODEGEN--\":1707:1716   */\n      dup3\n        /* \"--CODEGEN--\":1703:1720   */\n      add\n        /* \"--CODEGEN--\":1690:1721   */\n      calldataload\n        /* \"--CODEGEN--\":1741:1759   */\n      0xffffffffffffffff\n        /* \"--CODEGEN--\":1733:1739   */\n      dup2\n        /* \"--CODEGEN--\":1730:1760   */\n      gt\n        /* \"--CODEGEN--\":1727:1729   */\n      iszero\n      tag_345\n      jumpi\n        /* \"--CODEGEN--\":1773:1774   */\n      0x00\n        /* \"--CODEGEN--\":1770:1771   */\n      dup1\n        /* \"--CODEGEN--\":1763:1775   */\n      revert\n        /* \"--CODEGEN--\":1727:1729   */\n    tag_345:\n        /* \"--CODEGEN--\":1793:1871   */\n      tag_346\n        /* \"--CODEGEN--\":1863:1870   */\n      dup5\n        /* \"--CODEGEN--\":1854:1860   */\n      dup3\n        /* \"--CODEGEN--\":1843:1852   */\n      dup6\n        /* \"--CODEGEN--\":1839:1861   */\n      add\n        /* \"--CODEGEN--\":1793:1871   */\n      tag_322\n      jump\t// in\n    tag_346:\n        /* \"--CODEGEN--\":1783:1871   */\n      swap2\n      pop\n        /* \"--CODEGEN--\":1669:1877   */\n      pop\n        /* \"--CODEGEN--\":1601:1887   */\n      swap3\n      swap2\n      pop\n      pop\n      jump\t// out\n        /* \"--CODEGEN--\":1894:2135   */\n    tag_57:\n      0x00\n        /* \"--CODEGEN--\":1998:2000   */\n      0x20\n        /* \"--CODEGEN--\":1986:1995   */\n      dup3\n        /* \"--CODEGEN--\":1977:1984   */\n      dup5\n        /* \"--CODEGEN--\":1973:1996   */\n      sub\n        /* \"--CODEGEN--\":1969:2001   */\n      slt\n        /* \"--CODEGEN--\":1966:1968   */\n      iszero\n      tag_348\n      jumpi\n        /* \"--CODEGEN--\":2014:2015   */\n      0x00\n        /* \"--CODEGEN--\":2011:2012   */\n      dup1\n        /* \"--CODEGEN--\":2004:2016   */\n      revert\n        /* \"--CODEGEN--\":1966:1968   */\n    tag_348:\n        /* \"--CODEGEN--\":2049:2050   */\n      0x00\n        /* \"--CODEGEN--\":2066:2119   */\n      tag_349\n        /* \"--CODEGEN--\":2111:2118   */\n      dup5\n        /* \"--CODEGEN--\":2102:2108   */\n      dup3\n        /* \"--CODEGEN--\":2091:2100   */\n      dup6\n        /* \"--CODEGEN--\":2087:2109   */\n      add\n        /* \"--CODEGEN--\":2066:2119   */\n      tag_334\n      jump\t// in\n    tag_349:\n        /* \"--CODEGEN--\":2056:2119   */\n      swap2\n      pop\n        /* \"--CODEGEN--\":2028:2125   */\n      pop\n        /* \"--CODEGEN--\":1960:2135   */\n      swap3\n      swap2\n      pop\n      pop\n      jump\t// out\n        /* \"--CODEGEN--\":2142:2508   */\n    tag_37:\n      0x00\n      dup1\n        /* \"--CODEGEN--\":2263:2265   */\n      0x40\n        /* \"--CODEGEN--\":2251:2260   */\n      dup4\n        /* \"--CODEGEN--\":2242:2249   */\n      dup6\n        /* \"--CODEGEN--\":2238:2261   */\n      sub\n        /* \"--CODEGEN--\":2234:2266   */\n      slt\n        /* \"--CODEGEN--\":2231:2233   */\n      iszero\n      tag_351\n      jumpi\n        /* \"--CODEGEN--\":2279:2280   */\n      0x00\n        /* \"--CODEGEN--\":2276:2277   */\n      dup1\n        /* \"--CODEGEN--\":2269:2281   */\n      revert\n        /* \"--CODEGEN--\":2231:2233   */\n    tag_351:\n        /* \"--CODEGEN--\":2314:2315   */\n      0x00\n        /* \"--CODEGEN--\":2331:2384   */\n      tag_352\n        /* \"--CODEGEN--\":2376:2383   */\n      dup6\n        /* \"--CODEGEN--\":2367:2373   */\n      dup3\n        /* \"--CODEGEN--\":2356:2365   */\n      dup7\n        /* \"--CODEGEN--\":2352:2374   */\n      add\n        /* \"--CODEGEN--\":2331:2384   */\n      tag_334\n      jump\t// in\n    tag_352:\n        /* \"--CODEGEN--\":2321:2384   */\n      swap3\n      pop\n        /* \"--CODEGEN--\":2293:2390   */\n      pop\n        /* \"--CODEGEN--\":2421:2423   */\n      0x20\n        /* \"--CODEGEN--\":2439:2492   */\n      tag_353\n        /* \"--CODEGEN--\":2484:2491   */\n      dup6\n        /* \"--CODEGEN--\":2475:2481   */\n      dup3\n        /* \"--CODEGEN--\":2464:2473   */\n      dup7\n        /* \"--CODEGEN--\":2460:2482   */\n      add\n        /* \"--CODEGEN--\":2439:2492   */\n      tag_334\n      jump\t// in\n    tag_353:\n        /* \"--CODEGEN--\":2429:2492   */\n      swap2\n      pop\n        /* \"--CODEGEN--\":2400:2498   */\n      pop\n        /* \"--CODEGEN--\":2225:2508   */\n      swap3\n      pop\n      swap3\n      swap1\n      pop\n      jump\t// out\n        /* \"--CODEGEN--\":2516:2689   */\n    tag_354:\n      0x00\n        /* \"--CODEGEN--\":2603:2649   */\n      tag_356\n        /* \"--CODEGEN--\":2645:2648   */\n      dup4\n        /* \"--CODEGEN--\":2637:2643   */\n      dup4\n        /* \"--CODEGEN--\":2603:2649   */\n      tag_357\n      jump\t// in\n    tag_356:\n        /* \"--CODEGEN--\":2678:2682   */\n      0x20\n        /* \"--CODEGEN--\":2673:2676   */\n      dup4\n        /* \"--CODEGEN--\":2669:2683   */\n      add\n        /* \"--CODEGEN--\":2655:2683   */\n      swap1\n      pop\n        /* \"--CODEGEN--\":2596:2689   */\n      swap3\n      swap2\n      pop\n      pop\n      jump\t// out\n        /* \"--CODEGEN--\":2697:2810   */\n    tag_358:\n        /* \"--CODEGEN--\":2780:2804   */\n      tag_360\n        /* \"--CODEGEN--\":2798:2803   */\n      dup2\n        /* \"--CODEGEN--\":2780:2804   */\n      tag_361\n      jump\t// in\n    tag_360:\n        /* \"--CODEGEN--\":2775:2778   */\n      dup3\n        /* \"--CODEGEN--\":2768:2805   */\n      mstore\n        /* \"--CODEGEN--\":2762:2810   */\n      pop\n      pop\n      jump\t// out\n        /* \"--CODEGEN--\":2850:3510   */\n    tag_362:\n        /* \"--CODEGEN--\":2983:3035   */\n      tag_364\n        /* \"--CODEGEN--\":3029:3034   */\n      dup2\n        /* \"--CODEGEN--\":2983:3035   */\n      tag_365\n      jump\t// in\n    tag_364:\n        /* \"--CODEGEN--\":3048:3132   */\n      tag_366\n        /* \"--CODEGEN--\":3125:3131   */\n      dup2\n        /* \"--CODEGEN--\":3120:3123   */\n      dup5\n        /* \"--CODEGEN--\":3048:3132   */\n      tag_367\n      jump\t// in\n    tag_366:\n        /* \"--CODEGEN--\":3041:3132   */\n      swap3\n      pop\n        /* \"--CODEGEN--\":3153:3207   */\n      tag_368\n        /* \"--CODEGEN--\":3201:3206   */\n      dup3\n        /* \"--CODEGEN--\":3153:3207   */\n      tag_369\n      jump\t// in\n    tag_368:\n        /* \"--CODEGEN--\":3227:3234   */\n      dup1\n        /* \"--CODEGEN--\":3255:3256   */\n      0x00\n        /* \"--CODEGEN--\":3240:3498   */\n    tag_370:\n        /* \"--CODEGEN--\":3265:3271   */\n      dup4\n        /* \"--CODEGEN--\":3262:3263   */\n      dup2\n        /* \"--CODEGEN--\":3259:3272   */\n      lt\n        /* \"--CODEGEN--\":3240:3498   */\n      iszero\n      tag_372\n      jumpi\n        /* \"--CODEGEN--\":3332:3338   */\n      dup2\n        /* \"--CODEGEN--\":3326:3339   */\n      mload\n        /* \"--CODEGEN--\":3353:3416   */\n      tag_373\n        /* \"--CODEGEN--\":3412:3415   */\n      dup8\n        /* \"--CODEGEN--\":3397:3410   */\n      dup3\n        /* \"--CODEGEN--\":3353:3416   */\n      tag_354\n      jump\t// in\n    tag_373:\n        /* \"--CODEGEN--\":3346:3416   */\n      swap7\n      pop\n        /* \"--CODEGEN--\":3433:3491   */\n      tag_374\n        /* \"--CODEGEN--\":3484:3490   */\n      dup4\n        /* \"--CODEGEN--\":3433:3491   */\n      tag_375\n      jump\t// in\n    tag_374:\n        /* \"--CODEGEN--\":3423:3491   */\n      swap3\n      pop\n        /* \"--CODEGEN--\":3297:3498   */\n      pop\n        /* \"--CODEGEN--\":3287:3288   */\n      0x01\n        /* \"--CODEGEN--\":3284:3285   */\n      dup2\n        /* \"--CODEGEN--\":3280:3289   */\n      add\n        /* \"--CODEGEN--\":3275:3289   */\n      swap1\n      pop\n        /* \"--CODEGEN--\":3240:3498   */\n      jump(tag_370)\n    tag_372:\n        /* \"--CODEGEN--\":3244:3258   */\n      pop\n        /* \"--CODEGEN--\":2962:3510   */\n      pop\n      pop\n      pop\n      pop\n      pop\n      jump\t// out\n        /* \"--CODEGEN--\":3549:4239   */\n    tag_376:\n      0x00\n        /* \"--CODEGEN--\":3694:3748   */\n      tag_378\n        /* \"--CODEGEN--\":3742:3747   */\n      dup3\n        /* \"--CODEGEN--\":3694:3748   */\n      tag_379\n      jump\t// in\n    tag_378:\n        /* \"--CODEGEN--\":3761:3847   */\n      tag_380\n        /* \"--CODEGEN--\":3840:3846   */\n      dup2\n        /* \"--CODEGEN--\":3835:3838   */\n      dup6\n        /* \"--CODEGEN--\":3761:3847   */\n      tag_381\n      jump\t// in\n    tag_380:\n        /* \"--CODEGEN--\":3754:3847   */\n      swap4\n      pop\n        /* \"--CODEGEN--\":3868:3924   */\n      tag_382\n        /* \"--CODEGEN--\":3918:3923   */\n      dup4\n        /* \"--CODEGEN--\":3868:3924   */\n      tag_383\n      jump\t// in\n    tag_382:\n        /* \"--CODEGEN--\":3944:3951   */\n      dup1\n        /* \"--CODEGEN--\":3972:3973   */\n      0x00\n        /* \"--CODEGEN--\":3957:4217   */\n    tag_384:\n        /* \"--CODEGEN--\":3982:3988   */\n      dup4\n        /* \"--CODEGEN--\":3979:3980   */\n      dup2\n        /* \"--CODEGEN--\":3976:3989   */\n      lt\n        /* \"--CODEGEN--\":3957:4217   */\n      iszero\n      tag_386\n      jumpi\n        /* \"--CODEGEN--\":4049:4055   */\n      dup2\n        /* \"--CODEGEN--\":4043:4056   */\n      mload\n        /* \"--CODEGEN--\":4070:4133   */\n      tag_387\n        /* \"--CODEGEN--\":4129:4132   */\n      dup9\n        /* \"--CODEGEN--\":4114:4127   */\n      dup3\n        /* \"--CODEGEN--\":4070:4133   */\n      tag_354\n      jump\t// in\n    tag_387:\n        /* \"--CODEGEN--\":4063:4133   */\n      swap8\n      pop\n        /* \"--CODEGEN--\":4150:4210   */\n      tag_388\n        /* \"--CODEGEN--\":4203:4209   */\n      dup4\n        /* \"--CODEGEN--\":4150:4210   */\n      tag_389\n      jump\t// in\n    tag_388:\n        /* \"--CODEGEN--\":4140:4210   */\n      swap3\n      pop\n        /* \"--CODEGEN--\":4014:4217   */\n      pop\n        /* \"--CODEGEN--\":4004:4005   */\n      0x01\n        /* \"--CODEGEN--\":4001:4002   */\n      dup2\n        /* \"--CODEGEN--\":3997:4006   */\n      add\n        /* \"--CODEGEN--\":3992:4006   */\n      swap1\n      pop\n        /* \"--CODEGEN--\":3957:4217   */\n      jump(tag_384)\n    tag_386:\n        /* \"--CODEGEN--\":3961:3975   */\n      pop\n        /* \"--CODEGEN--\":4230:4233   */\n      dup6\n        /* \"--CODEGEN--\":4223:4233   */\n      swap4\n      pop\n        /* \"--CODEGEN--\":3673:4239   */\n      pop\n      pop\n      pop\n      swap3\n      swap2\n      pop\n      pop\n      jump\t// out\n        /* \"--CODEGEN--\":4248:4573   */\n    tag_390:\n      0x00\n        /* \"--CODEGEN--\":4408:4475   */\n      tag_392\n        /* \"--CODEGEN--\":4472:4474   */\n      0x19\n        /* \"--CODEGEN--\":4467:4470   */\n      dup4\n        /* \"--CODEGEN--\":4408:4475   */\n      tag_393\n      jump\t// in\n    tag_392:\n        /* \"--CODEGEN--\":4401:4475   */\n      swap2\n      pop\n        /* \"--CODEGEN--\":4508:4535   */\n      0x5469636b6574206d757374206861766520362064696769747300000000000000\n        /* \"--CODEGEN--\":4504:4505   */\n      0x00\n        /* \"--CODEGEN--\":4499:4502   */\n      dup4\n        /* \"--CODEGEN--\":4495:4506   */\n      add\n        /* \"--CODEGEN--\":4488:4536   */\n      mstore\n        /* \"--CODEGEN--\":4564:4566   */\n      0x20\n        /* \"--CODEGEN--\":4559:4562   */\n      dup3\n        /* \"--CODEGEN--\":4555:4567   */\n      add\n        /* \"--CODEGEN--\":4548:4567   */\n      swap1\n      pop\n        /* \"--CODEGEN--\":4394:4573   */\n      swap2\n      swap1\n      pop\n      jump\t// out\n        /* \"--CODEGEN--\":4582:4914   */\n    tag_394:\n      0x00\n        /* \"--CODEGEN--\":4742:4809   */\n      tag_396\n        /* \"--CODEGEN--\":4806:4808   */\n      0x20\n        /* \"--CODEGEN--\":4801:4804   */\n      dup4\n        /* \"--CODEGEN--\":4742:4809   */\n      tag_393\n      jump\t// in\n    tag_396:\n        /* \"--CODEGEN--\":4735:4809   */\n      swap2\n      pop\n        /* \"--CODEGEN--\":4842:4876   */\n      0x4f6e6c7920746865206f776e65722063616e20656e642074686520726f756e64\n        /* \"--CODEGEN--\":4838:4839   */\n      0x00\n        /* \"--CODEGEN--\":4833:4836   */\n      dup4\n        /* \"--CODEGEN--\":4829:4840   */\n      add\n        /* \"--CODEGEN--\":4822:4877   */\n      mstore\n        /* \"--CODEGEN--\":4905:4907   */\n      0x20\n        /* \"--CODEGEN--\":4900:4903   */\n      dup3\n        /* \"--CODEGEN--\":4896:4908   */\n      add\n        /* \"--CODEGEN--\":4889:4908   */\n      swap1\n      pop\n        /* \"--CODEGEN--\":4728:4914   */\n      swap2\n      swap1\n      pop\n      jump\t// out\n        /* \"--CODEGEN--\":4923:5293   */\n    tag_397:\n      0x00\n        /* \"--CODEGEN--\":5083:5150   */\n      tag_399\n        /* \"--CODEGEN--\":5147:5149   */\n      0x21\n        /* \"--CODEGEN--\":5142:5145   */\n      dup4\n        /* \"--CODEGEN--\":5083:5150   */\n      tag_393\n      jump\t// in\n    tag_399:\n        /* \"--CODEGEN--\":5076:5150   */\n      swap2\n      pop\n        /* \"--CODEGEN--\":5183:5217   */\n      0x596f7520646f6e2774206861766520616e79207469636b65747320617420616c\n        /* \"--CODEGEN--\":5179:5180   */\n      0x00\n        /* \"--CODEGEN--\":5174:5177   */\n      dup4\n        /* \"--CODEGEN--\":5170:5181   */\n      add\n        /* \"--CODEGEN--\":5163:5218   */\n      mstore\n        /* \"--CODEGEN--\":5252:5255   */\n      0x6c00000000000000000000000000000000000000000000000000000000000000\n        /* \"--CODEGEN--\":5247:5249   */\n      0x20\n        /* \"--CODEGEN--\":5242:5245   */\n      dup4\n        /* \"--CODEGEN--\":5238:5250   */\n      add\n        /* \"--CODEGEN--\":5231:5256   */\n      mstore\n        /* \"--CODEGEN--\":5284:5286   */\n      0x40\n        /* \"--CODEGEN--\":5279:5282   */\n      dup3\n        /* \"--CODEGEN--\":5275:5287   */\n      add\n        /* \"--CODEGEN--\":5268:5287   */\n      swap1\n      pop\n        /* \"--CODEGEN--\":5069:5293   */\n      swap2\n      swap1\n      pop\n      jump\t// out\n        /* \"--CODEGEN--\":5302:5675   */\n    tag_400:\n      0x00\n        /* \"--CODEGEN--\":5462:5529   */\n      tag_402\n        /* \"--CODEGEN--\":5526:5528   */\n      0x24\n        /* \"--CODEGEN--\":5521:5524   */\n      dup4\n        /* \"--CODEGEN--\":5462:5529   */\n      tag_393\n      jump\t// in\n    tag_402:\n        /* \"--CODEGEN--\":5455:5529   */\n      swap2\n      pop\n        /* \"--CODEGEN--\":5562:5596   */\n      0x4f6e6c7920746865206f776e65722063616e2064697374726962757465207072\n        /* \"--CODEGEN--\":5558:5559   */\n      0x00\n        /* \"--CODEGEN--\":5553:5556   */\n      dup4\n        /* \"--CODEGEN--\":5549:5560   */\n      add\n        /* \"--CODEGEN--\":5542:5597   */\n      mstore\n        /* \"--CODEGEN--\":5631:5637   */\n      0x697a657300000000000000000000000000000000000000000000000000000000\n        /* \"--CODEGEN--\":5626:5628   */\n      0x20\n        /* \"--CODEGEN--\":5621:5624   */\n      dup4\n        /* \"--CODEGEN--\":5617:5629   */\n      add\n        /* \"--CODEGEN--\":5610:5638   */\n      mstore\n        /* \"--CODEGEN--\":5666:5668   */\n      0x40\n        /* \"--CODEGEN--\":5661:5664   */\n      dup3\n        /* \"--CODEGEN--\":5657:5669   */\n      add\n        /* \"--CODEGEN--\":5650:5669   */\n      swap1\n      pop\n        /* \"--CODEGEN--\":5448:5675   */\n      swap2\n      swap1\n      pop\n      jump\t// out\n        /* \"--CODEGEN--\":5684:6016   */\n    tag_403:\n      0x00\n        /* \"--CODEGEN--\":5844:5911   */\n      tag_405\n        /* \"--CODEGEN--\":5908:5910   */\n      0x20\n        /* \"--CODEGEN--\":5903:5906   */\n      dup4\n        /* \"--CODEGEN--\":5844:5911   */\n      tag_393\n      jump\t// in\n    tag_405:\n        /* \"--CODEGEN--\":5837:5911   */\n      swap2\n      pop\n        /* \"--CODEGEN--\":5944:5978   */\n      0x4f6e6c7920746865206f776e65722063616e207374617274206120726f756e64\n        /* \"--CODEGEN--\":5940:5941   */\n      0x00\n        /* \"--CODEGEN--\":5935:5938   */\n      dup4\n        /* \"--CODEGEN--\":5931:5942   */\n      add\n        /* \"--CODEGEN--\":5924:5979   */\n      mstore\n        /* \"--CODEGEN--\":6007:6009   */\n      0x20\n        /* \"--CODEGEN--\":6002:6005   */\n      dup3\n        /* \"--CODEGEN--\":5998:6010   */\n      add\n        /* \"--CODEGEN--\":5991:6010   */\n      swap1\n      pop\n        /* \"--CODEGEN--\":5830:6016   */\n      swap2\n      swap1\n      pop\n      jump\t// out\n        /* \"--CODEGEN--\":6025:6404   */\n    tag_406:\n      0x00\n        /* \"--CODEGEN--\":6185:6252   */\n      tag_408\n        /* \"--CODEGEN--\":6249:6251   */\n      0x2a\n        /* \"--CODEGEN--\":6244:6247   */\n      dup4\n        /* \"--CODEGEN--\":6185:6252   */\n      tag_393\n      jump\t// in\n    tag_408:\n        /* \"--CODEGEN--\":6178:6252   */\n      swap2\n      pop\n        /* \"--CODEGEN--\":6285:6319   */\n      0x4f6e6c7920746865206f776e65722063616e20736574207468652077696e6e69\n        /* \"--CODEGEN--\":6281:6282   */\n      0x00\n        /* \"--CODEGEN--\":6276:6279   */\n      dup4\n        /* \"--CODEGEN--\":6272:6283   */\n      add\n        /* \"--CODEGEN--\":6265:6320   */\n      mstore\n        /* \"--CODEGEN--\":6354:6366   */\n      0x6e67206e756d6265727300000000000000000000000000000000000000000000\n        /* \"--CODEGEN--\":6349:6351   */\n      0x20\n        /* \"--CODEGEN--\":6344:6347   */\n      dup4\n        /* \"--CODEGEN--\":6340:6352   */\n      add\n        /* \"--CODEGEN--\":6333:6367   */\n      mstore\n        /* \"--CODEGEN--\":6395:6397   */\n      0x40\n        /* \"--CODEGEN--\":6390:6393   */\n      dup3\n        /* \"--CODEGEN--\":6386:6398   */\n      add\n        /* \"--CODEGEN--\":6379:6398   */\n      swap1\n      pop\n        /* \"--CODEGEN--\":6171:6404   */\n      swap2\n      swap1\n      pop\n      jump\t// out\n        /* \"--CODEGEN--\":6413:6785   */\n    tag_409:\n      0x00\n        /* \"--CODEGEN--\":6573:6640   */\n      tag_411\n        /* \"--CODEGEN--\":6637:6639   */\n      0x23\n        /* \"--CODEGEN--\":6632:6635   */\n      dup4\n        /* \"--CODEGEN--\":6573:6640   */\n      tag_393\n      jump\t// in\n    tag_411:\n        /* \"--CODEGEN--\":6566:6640   */\n      swap2\n      pop\n        /* \"--CODEGEN--\":6673:6707   */\n      0x4f6e6c7920746865206f776e65722063616e2063616c63756c61746520707269\n        /* \"--CODEGEN--\":6669:6670   */\n      0x00\n        /* \"--CODEGEN--\":6664:6667   */\n      dup4\n        /* \"--CODEGEN--\":6660:6671   */\n      add\n        /* \"--CODEGEN--\":6653:6708   */\n      mstore\n        /* \"--CODEGEN--\":6742:6747   */\n      0x7a65730000000000000000000000000000000000000000000000000000000000\n        /* \"--CODEGEN--\":6737:6739   */\n      0x20\n        /* \"--CODEGEN--\":6732:6735   */\n      dup4\n        /* \"--CODEGEN--\":6728:6740   */\n      add\n        /* \"--CODEGEN--\":6721:6748   */\n      mstore\n        /* \"--CODEGEN--\":6776:6778   */\n      0x40\n        /* \"--CODEGEN--\":6771:6774   */\n      dup3\n        /* \"--CODEGEN--\":6767:6779   */\n      add\n        /* \"--CODEGEN--\":6760:6779   */\n      swap1\n      pop\n        /* \"--CODEGEN--\":6559:6785   */\n      swap2\n      swap1\n      pop\n      jump\t// out\n        /* \"--CODEGEN--\":6794:7171   */\n    tag_412:\n      0x00\n        /* \"--CODEGEN--\":6954:7021   */\n      tag_414\n        /* \"--CODEGEN--\":7018:7020   */\n      0x28\n        /* \"--CODEGEN--\":7013:7016   */\n      dup4\n        /* \"--CODEGEN--\":6954:7021   */\n      tag_393\n      jump\t// in\n    tag_414:\n        /* \"--CODEGEN--\":6947:7021   */\n      swap2\n      pop\n        /* \"--CODEGEN--\":7054:7088   */\n      0x596f75206e65656420746f207061792074686520636f7272656374207469636b\n        /* \"--CODEGEN--\":7050:7051   */\n      0x00\n        /* \"--CODEGEN--\":7045:7048   */\n      dup4\n        /* \"--CODEGEN--\":7041:7052   */\n      add\n        /* \"--CODEGEN--\":7034:7089   */\n      mstore\n        /* \"--CODEGEN--\":7123:7133   */\n      0x6574207072696365000000000000000000000000000000000000000000000000\n        /* \"--CODEGEN--\":7118:7120   */\n      0x20\n        /* \"--CODEGEN--\":7113:7116   */\n      dup4\n        /* \"--CODEGEN--\":7109:7121   */\n      add\n        /* \"--CODEGEN--\":7102:7134   */\n      mstore\n        /* \"--CODEGEN--\":7162:7164   */\n      0x40\n        /* \"--CODEGEN--\":7157:7160   */\n      dup3\n        /* \"--CODEGEN--\":7153:7165   */\n      add\n        /* \"--CODEGEN--\":7146:7165   */\n      swap1\n      pop\n        /* \"--CODEGEN--\":6940:7171   */\n      swap2\n      swap1\n      pop\n      jump\t// out\n        /* \"--CODEGEN--\":7180:7506   */\n    tag_415:\n      0x00\n        /* \"--CODEGEN--\":7340:7407   */\n      tag_417\n        /* \"--CODEGEN--\":7404:7406   */\n      0x1a\n        /* \"--CODEGEN--\":7399:7402   */\n      dup4\n        /* \"--CODEGEN--\":7340:7407   */\n      tag_393\n      jump\t// in\n    tag_417:\n        /* \"--CODEGEN--\":7333:7407   */\n      swap2\n      pop\n        /* \"--CODEGEN--\":7440:7468   */\n      0x4e6f207469636b657420776974682074686174206e756d626572000000000000\n        /* \"--CODEGEN--\":7436:7437   */\n      0x00\n        /* \"--CODEGEN--\":7431:7434   */\n      dup4\n        /* \"--CODEGEN--\":7427:7438   */\n      add\n        /* \"--CODEGEN--\":7420:7469   */\n      mstore\n        /* \"--CODEGEN--\":7497:7499   */\n      0x20\n        /* \"--CODEGEN--\":7492:7495   */\n      dup3\n        /* \"--CODEGEN--\":7488:7500   */\n      add\n        /* \"--CODEGEN--\":7481:7500   */\n      swap1\n      pop\n        /* \"--CODEGEN--\":7326:7506   */\n      swap2\n      swap1\n      pop\n      jump\t// out\n        /* \"--CODEGEN--\":7515:7837   */\n    tag_418:\n      0x00\n        /* \"--CODEGEN--\":7675:7742   */\n      tag_420\n        /* \"--CODEGEN--\":7739:7741   */\n      0x16\n        /* \"--CODEGEN--\":7734:7737   */\n      dup4\n        /* \"--CODEGEN--\":7675:7742   */\n      tag_393\n      jump\t// in\n    tag_420:\n        /* \"--CODEGEN--\":7668:7742   */\n      swap2\n      pop\n        /* \"--CODEGEN--\":7775:7799   */\n      0x4d7573742070726f766964652036206e756d6265727300000000000000000000\n        /* \"--CODEGEN--\":7771:7772   */\n      0x00\n        /* \"--CODEGEN--\":7766:7769   */\n      dup4\n        /* \"--CODEGEN--\":7762:7773   */\n      add\n        /* \"--CODEGEN--\":7755:7800   */\n      mstore\n        /* \"--CODEGEN--\":7828:7830   */\n      0x20\n        /* \"--CODEGEN--\":7823:7826   */\n      dup3\n        /* \"--CODEGEN--\":7819:7831   */\n      add\n        /* \"--CODEGEN--\":7812:7831   */\n      swap1\n      pop\n        /* \"--CODEGEN--\":7661:7837   */\n      swap2\n      swap1\n      pop\n      jump\t// out\n        /* \"--CODEGEN--\":7845:7948   */\n    tag_357:\n        /* \"--CODEGEN--\":7918:7942   */\n      tag_422\n        /* \"--CODEGEN--\":7936:7941   */\n      dup2\n        /* \"--CODEGEN--\":7918:7942   */\n      tag_423\n      jump\t// in\n    tag_422:\n        /* \"--CODEGEN--\":7913:7916   */\n      dup3\n        /* \"--CODEGEN--\":7906:7943   */\n      mstore\n        /* \"--CODEGEN--\":7900:7948   */\n      pop\n      pop\n      jump\t// out\n        /* \"--CODEGEN--\":7955:8068   */\n    tag_424:\n        /* \"--CODEGEN--\":8038:8062   */\n      tag_426\n        /* \"--CODEGEN--\":8056:8061   */\n      dup2\n        /* \"--CODEGEN--\":8038:8062   */\n      tag_423\n      jump\t// in\n    tag_426:\n        /* \"--CODEGEN--\":8033:8036   */\n      dup3\n        /* \"--CODEGEN--\":8026:8063   */\n      mstore\n        /* \"--CODEGEN--\":8020:8068   */\n      pop\n      pop\n      jump\t// out\n        /* \"--CODEGEN--\":8075:8227   */\n    tag_427:\n        /* \"--CODEGEN--\":8176:8221   */\n      tag_429\n        /* \"--CODEGEN--\":8196:8220   */\n      tag_430\n        /* \"--CODEGEN--\":8214:8219   */\n      dup3\n        /* \"--CODEGEN--\":8196:8220   */\n      tag_423\n      jump\t// in\n    tag_430:\n        /* \"--CODEGEN--\":8176:8221   */\n      tag_431\n      jump\t// in\n    tag_429:\n        /* \"--CODEGEN--\":8171:8174   */\n      dup3\n        /* \"--CODEGEN--\":8164:8222   */\n      mstore\n        /* \"--CODEGEN--\":8158:8227   */\n      pop\n      pop\n      jump\t// out\n        /* \"--CODEGEN--\":8234:8626   */\n    tag_300:\n      0x00\n        /* \"--CODEGEN--\":8390:8465   */\n      tag_433\n        /* \"--CODEGEN--\":8461:8464   */\n      dup3\n        /* \"--CODEGEN--\":8452:8458   */\n      dup6\n        /* \"--CODEGEN--\":8390:8465   */\n      tag_427\n      jump\t// in\n    tag_433:\n        /* \"--CODEGEN--\":8487:8489   */\n      0x20\n        /* \"--CODEGEN--\":8482:8485   */\n      dup3\n        /* \"--CODEGEN--\":8478:8490   */\n      add\n        /* \"--CODEGEN--\":8471:8490   */\n      swap2\n      pop\n        /* \"--CODEGEN--\":8501:8576   */\n      tag_434\n        /* \"--CODEGEN--\":8572:8575   */\n      dup3\n        /* \"--CODEGEN--\":8563:8569   */\n      dup5\n        /* \"--CODEGEN--\":8501:8576   */\n      tag_427\n      jump\t// in\n    tag_434:\n        /* \"--CODEGEN--\":8598:8600   */\n      0x20\n        /* \"--CODEGEN--\":8593:8596   */\n      dup3\n        /* \"--CODEGEN--\":8589:8601   */\n      add\n        /* \"--CODEGEN--\":8582:8601   */\n      swap2\n      pop\n        /* \"--CODEGEN--\":8618:8621   */\n      dup2\n        /* \"--CODEGEN--\":8611:8621   */\n      swap1\n      pop\n        /* \"--CODEGEN--\":8378:8626   */\n      swap4\n      swap3\n      pop\n      pop\n      pop\n      jump\t// out\n        /* \"--CODEGEN--\":8633:8855   */\n    tag_89:\n      0x00\n        /* \"--CODEGEN--\":8760:8762   */\n      0x20\n        /* \"--CODEGEN--\":8749:8758   */\n      dup3\n        /* \"--CODEGEN--\":8745:8763   */\n      add\n        /* \"--CODEGEN--\":8737:8763   */\n      swap1\n      pop\n        /* \"--CODEGEN--\":8774:8845   */\n      tag_436\n        /* \"--CODEGEN--\":8842:8843   */\n      0x00\n        /* \"--CODEGEN--\":8831:8840   */\n      dup4\n        /* \"--CODEGEN--\":8827:8844   */\n      add\n        /* \"--CODEGEN--\":8818:8824   */\n      dup5\n        /* \"--CODEGEN--\":8774:8845   */\n      tag_358\n      jump\t// in\n    tag_436:\n        /* \"--CODEGEN--\":8731:8855   */\n      swap3\n      swap2\n      pop\n      pop\n      jump\t// out\n        /* \"--CODEGEN--\":8862:9177   */\n    tag_84:\n      0x00\n        /* \"--CODEGEN--\":9035:9038   */\n      0xc0\n        /* \"--CODEGEN--\":9024:9033   */\n      dup3\n        /* \"--CODEGEN--\":9020:9039   */\n      add\n        /* \"--CODEGEN--\":9012:9039   */\n      swap1\n      pop\n        /* \"--CODEGEN--\":9050:9167   */\n      tag_438\n        /* \"--CODEGEN--\":9164:9165   */\n      0x00\n        /* \"--CODEGEN--\":9153:9162   */\n      dup4\n        /* \"--CODEGEN--\":9149:9166   */\n      add\n        /* \"--CODEGEN--\":9140:9146   */\n      dup5\n        /* \"--CODEGEN--\":9050:9167   */\n      tag_362\n      jump\t// in\n    tag_438:\n        /* \"--CODEGEN--\":9006:9177   */\n      swap3\n      swap2\n      pop\n      pop\n      jump\t// out\n        /* \"--CODEGEN--\":9184:9554   */\n    tag_105:\n      0x00\n        /* \"--CODEGEN--\":9361:9363   */\n      0x20\n        /* \"--CODEGEN--\":9350:9359   */\n      dup3\n        /* \"--CODEGEN--\":9346:9364   */\n      add\n        /* \"--CODEGEN--\":9338:9364   */\n      swap1\n      pop\n        /* \"--CODEGEN--\":9411:9420   */\n      dup2\n        /* \"--CODEGEN--\":9405:9409   */\n      dup2\n        /* \"--CODEGEN--\":9401:9421   */\n      sub\n        /* \"--CODEGEN--\":9397:9398   */\n      0x00\n        /* \"--CODEGEN--\":9386:9395   */\n      dup4\n        /* \"--CODEGEN--\":9382:9399   */\n      add\n        /* \"--CODEGEN--\":9375:9422   */\n      mstore\n        /* \"--CODEGEN--\":9436:9544   */\n      tag_440\n        /* \"--CODEGEN--\":9539:9543   */\n      dup2\n        /* \"--CODEGEN--\":9530:9536   */\n      dup5\n        /* \"--CODEGEN--\":9436:9544   */\n      tag_376\n      jump\t// in\n    tag_440:\n        /* \"--CODEGEN--\":9428:9544   */\n      swap1\n      pop\n        /* \"--CODEGEN--\":9332:9554   */\n      swap3\n      swap2\n      pop\n      pop\n      jump\t// out\n        /* \"--CODEGEN--\":9561:9977   */\n    tag_192:\n      0x00\n        /* \"--CODEGEN--\":9761:9763   */\n      0x20\n        /* \"--CODEGEN--\":9750:9759   */\n      dup3\n        /* \"--CODEGEN--\":9746:9764   */\n      add\n        /* \"--CODEGEN--\":9738:9764   */\n      swap1\n      pop\n        /* \"--CODEGEN--\":9811:9820   */\n      dup2\n        /* \"--CODEGEN--\":9805:9809   */\n      dup2\n        /* \"--CODEGEN--\":9801:9821   */\n      sub\n        /* \"--CODEGEN--\":9797:9798   */\n      0x00\n        /* \"--CODEGEN--\":9786:9795   */\n      dup4\n        /* \"--CODEGEN--\":9782:9799   */\n      add\n        /* \"--CODEGEN--\":9775:9822   */\n      mstore\n        /* \"--CODEGEN--\":9836:9967   */\n      tag_442\n        /* \"--CODEGEN--\":9962:9966   */\n      dup2\n        /* \"--CODEGEN--\":9836:9967   */\n      tag_390\n      jump\t// in\n    tag_442:\n        /* \"--CODEGEN--\":9828:9967   */\n      swap1\n      pop\n        /* \"--CODEGEN--\":9732:9977   */\n      swap2\n      swap1\n      pop\n      jump\t// out\n        /* \"--CODEGEN--\":9984:10400   */\n    tag_198:\n      0x00\n        /* \"--CODEGEN--\":10184:10186   */\n      0x20\n        /* \"--CODEGEN--\":10173:10182   */\n      dup3\n        /* \"--CODEGEN--\":10169:10187   */\n      add\n        /* \"--CODEGEN--\":10161:10187   */\n      swap1\n      pop\n        /* \"--CODEGEN--\":10234:10243   */\n      dup2\n        /* \"--CODEGEN--\":10228:10232   */\n      dup2\n        /* \"--CODEGEN--\":10224:10244   */\n      sub\n        /* \"--CODEGEN--\":10220:10221   */\n      0x00\n        /* \"--CODEGEN--\":10209:10218   */\n      dup4\n        /* \"--CODEGEN--\":10205:10222   */\n      add\n        /* \"--CODEGEN--\":10198:10245   */\n      mstore\n        /* \"--CODEGEN--\":10259:10390   */\n      tag_444\n        /* \"--CODEGEN--\":10385:10389   */\n      dup2\n        /* \"--CODEGEN--\":10259:10390   */\n      tag_394\n      jump\t// in\n    tag_444:\n        /* \"--CODEGEN--\":10251:10390   */\n      swap1\n      pop\n        /* \"--CODEGEN--\":10155:10400   */\n      swap2\n      swap1\n      pop\n      jump\t// out\n        /* \"--CODEGEN--\":10407:10823   */\n    tag_126:\n      0x00\n        /* \"--CODEGEN--\":10607:10609   */\n      0x20\n        /* \"--CODEGEN--\":10596:10605   */\n      dup3\n        /* \"--CODEGEN--\":10592:10610   */\n      add\n        /* \"--CODEGEN--\":10584:10610   */\n      swap1\n      pop\n        /* \"--CODEGEN--\":10657:10666   */\n      dup2\n        /* \"--CODEGEN--\":10651:10655   */\n      dup2\n        /* \"--CODEGEN--\":10647:10667   */\n      sub\n        /* \"--CODEGEN--\":10643:10644   */\n      0x00\n        /* \"--CODEGEN--\":10632:10641   */\n      dup4\n        /* \"--CODEGEN--\":10628:10645   */\n      add\n        /* \"--CODEGEN--\":10621:10668   */\n      mstore\n        /* \"--CODEGEN--\":10682:10813   */\n      tag_446\n        /* \"--CODEGEN--\":10808:10812   */\n      dup2\n        /* \"--CODEGEN--\":10682:10813   */\n      tag_397\n      jump\t// in\n    tag_446:\n        /* \"--CODEGEN--\":10674:10813   */\n      swap1\n      pop\n        /* \"--CODEGEN--\":10578:10823   */\n      swap2\n      swap1\n      pop\n      jump\t// out\n        /* \"--CODEGEN--\":10830:11246   */\n    tag_213:\n      0x00\n        /* \"--CODEGEN--\":11030:11032   */\n      0x20\n        /* \"--CODEGEN--\":11019:11028   */\n      dup3\n        /* \"--CODEGEN--\":11015:11033   */\n      add\n        /* \"--CODEGEN--\":11007:11033   */\n      swap1\n      pop\n        /* \"--CODEGEN--\":11080:11089   */\n      dup2\n        /* \"--CODEGEN--\":11074:11078   */\n      dup2\n        /* \"--CODEGEN--\":11070:11090   */\n      sub\n        /* \"--CODEGEN--\":11066:11067   */\n      0x00\n        /* \"--CODEGEN--\":11055:11064   */\n      dup4\n        /* \"--CODEGEN--\":11051:11068   */\n      add\n        /* \"--CODEGEN--\":11044:11091   */\n      mstore\n        /* \"--CODEGEN--\":11105:11236   */\n      tag_448\n        /* \"--CODEGEN--\":11231:11235   */\n      dup2\n        /* \"--CODEGEN--\":11105:11236   */\n      tag_400\n      jump\t// in\n    tag_448:\n        /* \"--CODEGEN--\":11097:11236   */\n      swap1\n      pop\n        /* \"--CODEGEN--\":11001:11246   */\n      swap2\n      swap1\n      pop\n      jump\t// out\n        /* \"--CODEGEN--\":11253:11669   */\n    tag_176:\n      0x00\n        /* \"--CODEGEN--\":11453:11455   */\n      0x20\n        /* \"--CODEGEN--\":11442:11451   */\n      dup3\n        /* \"--CODEGEN--\":11438:11456   */\n      add\n        /* \"--CODEGEN--\":11430:11456   */\n      swap1\n      pop\n        /* \"--CODEGEN--\":11503:11512   */\n      dup2\n        /* \"--CODEGEN--\":11497:11501   */\n      dup2\n        /* \"--CODEGEN--\":11493:11513   */\n      sub\n        /* \"--CODEGEN--\":11489:11490   */\n      0x00\n        /* \"--CODEGEN--\":11478:11487   */\n      dup4\n        /* \"--CODEGEN--\":11474:11491   */\n      add\n        /* \"--CODEGEN--\":11467:11514   */\n      mstore\n        /* \"--CODEGEN--\":11528:11659   */\n      tag_450\n        /* \"--CODEGEN--\":11654:11658   */\n      dup2\n        /* \"--CODEGEN--\":11528:11659   */\n      tag_403\n      jump\t// in\n    tag_450:\n        /* \"--CODEGEN--\":11520:11659   */\n      swap1\n      pop\n        /* \"--CODEGEN--\":11424:11669   */\n      swap2\n      swap1\n      pop\n      jump\t// out\n        /* \"--CODEGEN--\":11676:12092   */\n    tag_109:\n      0x00\n        /* \"--CODEGEN--\":11876:11878   */\n      0x20\n        /* \"--CODEGEN--\":11865:11874   */\n      dup3\n        /* \"--CODEGEN--\":11861:11879   */\n      add\n        /* \"--CODEGEN--\":11853:11879   */\n      swap1\n      pop\n        /* \"--CODEGEN--\":11926:11935   */\n      dup2\n        /* \"--CODEGEN--\":11920:11924   */\n      dup2\n        /* \"--CODEGEN--\":11916:11936   */\n      sub\n        /* \"--CODEGEN--\":11912:11913   */\n      0x00\n        /* \"--CODEGEN--\":11901:11910   */\n      dup4\n        /* \"--CODEGEN--\":11897:11914   */\n      add\n        /* \"--CODEGEN--\":11890:11937   */\n      mstore\n        /* \"--CODEGEN--\":11951:12082   */\n      tag_452\n        /* \"--CODEGEN--\":12077:12081   */\n      dup2\n        /* \"--CODEGEN--\":11951:12082   */\n      tag_406\n      jump\t// in\n    tag_452:\n        /* \"--CODEGEN--\":11943:12082   */\n      swap1\n      pop\n        /* \"--CODEGEN--\":11847:12092   */\n      swap2\n      swap1\n      pop\n      jump\t// out\n        /* \"--CODEGEN--\":12099:12515   */\n    tag_236:\n      0x00\n        /* \"--CODEGEN--\":12299:12301   */\n      0x20\n        /* \"--CODEGEN--\":12288:12297   */\n      dup3\n        /* \"--CODEGEN--\":12284:12302   */\n      add\n        /* \"--CODEGEN--\":12276:12302   */\n      swap1\n      pop\n        /* \"--CODEGEN--\":12349:12358   */\n      dup2\n        /* \"--CODEGEN--\":12343:12347   */\n      dup2\n        /* \"--CODEGEN--\":12339:12359   */\n      sub\n        /* \"--CODEGEN--\":12335:12336   */\n      0x00\n        /* \"--CODEGEN--\":12324:12333   */\n      dup4\n        /* \"--CODEGEN--\":12320:12337   */\n      add\n        /* \"--CODEGEN--\":12313:12360   */\n      mstore\n        /* \"--CODEGEN--\":12374:12505   */\n      tag_454\n        /* \"--CODEGEN--\":12500:12504   */\n      dup2\n        /* \"--CODEGEN--\":12374:12505   */\n      tag_409\n      jump\t// in\n    tag_454:\n        /* \"--CODEGEN--\":12366:12505   */\n      swap1\n      pop\n        /* \"--CODEGEN--\":12270:12515   */\n      swap2\n      swap1\n      pop\n      jump\t// out\n        /* \"--CODEGEN--\":12522:12938   */\n    tag_189:\n      0x00\n        /* \"--CODEGEN--\":12722:12724   */\n      0x20\n        /* \"--CODEGEN--\":12711:12720   */\n      dup3\n        /* \"--CODEGEN--\":12707:12725   */\n      add\n        /* \"--CODEGEN--\":12699:12725   */\n      swap1\n      pop\n        /* \"--CODEGEN--\":12772:12781   */\n      dup2\n        /* \"--CODEGEN--\":12766:12770   */\n      dup2\n        /* \"--CODEGEN--\":12762:12782   */\n      sub\n        /* \"--CODEGEN--\":12758:12759   */\n      0x00\n        /* \"--CODEGEN--\":12747:12756   */\n      dup4\n        /* \"--CODEGEN--\":12743:12760   */\n      add\n        /* \"--CODEGEN--\":12736:12783   */\n      mstore\n        /* \"--CODEGEN--\":12797:12928   */\n      tag_456\n        /* \"--CODEGEN--\":12923:12927   */\n      dup2\n        /* \"--CODEGEN--\":12797:12928   */\n      tag_412\n      jump\t// in\n    tag_456:\n        /* \"--CODEGEN--\":12789:12928   */\n      swap1\n      pop\n        /* \"--CODEGEN--\":12693:12938   */\n      swap2\n      swap1\n      pop\n      jump\t// out\n        /* \"--CODEGEN--\":12945:13361   */\n    tag_131:\n      0x00\n        /* \"--CODEGEN--\":13145:13147   */\n      0x20\n        /* \"--CODEGEN--\":13134:13143   */\n      dup3\n        /* \"--CODEGEN--\":13130:13148   */\n      add\n        /* \"--CODEGEN--\":13122:13148   */\n      swap1\n      pop\n        /* \"--CODEGEN--\":13195:13204   */\n      dup2\n        /* \"--CODEGEN--\":13189:13193   */\n      dup2\n        /* \"--CODEGEN--\":13185:13205   */\n      sub\n        /* \"--CODEGEN--\":13181:13182   */\n      0x00\n        /* \"--CODEGEN--\":13170:13179   */\n      dup4\n        /* \"--CODEGEN--\":13166:13183   */\n      add\n        /* \"--CODEGEN--\":13159:13206   */\n      mstore\n        /* \"--CODEGEN--\":13220:13351   */\n      tag_458\n        /* \"--CODEGEN--\":13346:13350   */\n      dup2\n        /* \"--CODEGEN--\":13220:13351   */\n      tag_415\n      jump\t// in\n    tag_458:\n        /* \"--CODEGEN--\":13212:13351   */\n      swap1\n      pop\n        /* \"--CODEGEN--\":13116:13361   */\n      swap2\n      swap1\n      pop\n      jump\t// out\n        /* \"--CODEGEN--\":13368:13784   */\n    tag_112:\n      0x00\n        /* \"--CODEGEN--\":13568:13570   */\n      0x20\n        /* \"--CODEGEN--\":13557:13566   */\n      dup3\n        /* \"--CODEGEN--\":13553:13571   */\n      add\n        /* \"--CODEGEN--\":13545:13571   */\n      swap1\n      pop\n        /* \"--CODEGEN--\":13618:13627   */\n      dup2\n        /* \"--CODEGEN--\":13612:13616   */\n      dup2\n        /* \"--CODEGEN--\":13608:13628   */\n      sub\n        /* \"--CODEGEN--\":13604:13605   */\n      0x00\n        /* \"--CODEGEN--\":13593:13602   */\n      dup4\n        /* \"--CODEGEN--\":13589:13606   */\n      add\n        /* \"--CODEGEN--\":13582:13629   */\n      mstore\n        /* \"--CODEGEN--\":13643:13774   */\n      tag_460\n        /* \"--CODEGEN--\":13769:13773   */\n      dup2\n        /* \"--CODEGEN--\":13643:13774   */\n      tag_418\n      jump\t// in\n    tag_460:\n        /* \"--CODEGEN--\":13635:13774   */\n      swap1\n      pop\n        /* \"--CODEGEN--\":13539:13784   */\n      swap2\n      swap1\n      pop\n      jump\t// out\n        /* \"--CODEGEN--\":13791:14013   */\n    tag_33:\n      0x00\n        /* \"--CODEGEN--\":13918:13920   */\n      0x20\n        /* \"--CODEGEN--\":13907:13916   */\n      dup3\n        /* \"--CODEGEN--\":13903:13921   */\n      add\n        /* \"--CODEGEN--\":13895:13921   */\n      swap1\n      pop\n        /* \"--CODEGEN--\":13932:14003   */\n      tag_462\n        /* \"--CODEGEN--\":14000:14001   */\n      0x00\n        /* \"--CODEGEN--\":13989:13998   */\n      dup4\n        /* \"--CODEGEN--\":13985:14002   */\n      add\n        /* \"--CODEGEN--\":13976:13982   */\n      dup5\n        /* \"--CODEGEN--\":13932:14003   */\n      tag_424\n      jump\t// in\n    tag_462:\n        /* \"--CODEGEN--\":13889:14013   */\n      swap3\n      swap2\n      pop\n      pop\n      jump\t// out\n        /* \"--CODEGEN--\":14020:14276   */\n    tag_328:\n      0x00\n        /* \"--CODEGEN--\":14082:14084   */\n      0x40\n        /* \"--CODEGEN--\":14076:14085   */\n      mload\n        /* \"--CODEGEN--\":14066:14085   */\n      swap1\n      pop\n        /* \"--CODEGEN--\":14120:14124   */\n      dup2\n        /* \"--CODEGEN--\":14112:14118   */\n      dup2\n        /* \"--CODEGEN--\":14108:14125   */\n      add\n        /* \"--CODEGEN--\":14219:14225   */\n      dup2\n        /* \"--CODEGEN--\":14207:14217   */\n      dup2\n        /* \"--CODEGEN--\":14204:14226   */\n      lt\n        /* \"--CODEGEN--\":14183:14201   */\n      0xffffffffffffffff\n        /* \"--CODEGEN--\":14171:14181   */\n      dup3\n        /* \"--CODEGEN--\":14168:14202   */\n      gt\n        /* \"--CODEGEN--\":14165:14227   */\n      or\n        /* \"--CODEGEN--\":14162:14164   */\n      iszero\n      tag_464\n      jumpi\n        /* \"--CODEGEN--\":14240:14241   */\n      0x00\n        /* \"--CODEGEN--\":14237:14238   */\n      dup1\n        /* \"--CODEGEN--\":14230:14242   */\n      revert\n        /* \"--CODEGEN--\":14162:14164   */\n    tag_464:\n        /* \"--CODEGEN--\":14260:14270   */\n      dup1\n        /* \"--CODEGEN--\":14256:14258   */\n      0x40\n        /* \"--CODEGEN--\":14249:14271   */\n      mstore\n        /* \"--CODEGEN--\":14060:14276   */\n      pop\n      swap2\n      swap1\n      pop\n      jump\t// out\n        /* \"--CODEGEN--\":14283:14587   */\n    tag_327:\n      0x00\n        /* \"--CODEGEN--\":14442:14460   */\n      0xffffffffffffffff\n        /* \"--CODEGEN--\":14434:14440   */\n      dup3\n        /* \"--CODEGEN--\":14431:14461   */\n      gt\n        /* \"--CODEGEN--\":14428:14430   */\n      iszero\n      tag_466\n      jumpi\n        /* \"--CODEGEN--\":14474:14475   */\n      0x00\n        /* \"--CODEGEN--\":14471:14472   */\n      dup1\n        /* \"--CODEGEN--\":14464:14476   */\n      revert\n        /* \"--CODEGEN--\":14428:14430   */\n    tag_466:\n        /* \"--CODEGEN--\":14509:14513   */\n      0x20\n        /* \"--CODEGEN--\":14501:14507   */\n      dup3\n        /* \"--CODEGEN--\":14497:14514   */\n      mul\n        /* \"--CODEGEN--\":14489:14514   */\n      swap1\n      pop\n        /* \"--CODEGEN--\":14572:14576   */\n      0x20\n        /* \"--CODEGEN--\":14566:14570   */\n      dup2\n        /* \"--CODEGEN--\":14562:14577   */\n      add\n        /* \"--CODEGEN--\":14554:14577   */\n      swap1\n      pop\n        /* \"--CODEGEN--\":14365:14587   */\n      swap2\n      swap1\n      pop\n      jump\t// out\n        /* \"--CODEGEN--\":14594:14691   */\n    tag_369:\n      0x00\n        /* \"--CODEGEN--\":14678:14681   */\n      dup2\n        /* \"--CODEGEN--\":14670:14681   */\n      swap1\n      pop\n        /* \"--CODEGEN--\":14664:14691   */\n      swap2\n      swap1\n      pop\n      jump\t// out\n        /* \"--CODEGEN--\":14698:14849   */\n    tag_383:\n      0x00\n        /* \"--CODEGEN--\":14784:14787   */\n      dup2\n        /* \"--CODEGEN--\":14776:14787   */\n      swap1\n      pop\n        /* \"--CODEGEN--\":14822:14826   */\n      0x20\n        /* \"--CODEGEN--\":14817:14820   */\n      dup3\n        /* \"--CODEGEN--\":14813:14827   */\n      add\n        /* \"--CODEGEN--\":14805:14827   */\n      swap1\n      pop\n        /* \"--CODEGEN--\":14770:14849   */\n      swap2\n      swap1\n      pop\n      jump\t// out\n        /* \"--CODEGEN--\":14856:14964   */\n    tag_365:\n      0x00\n        /* \"--CODEGEN--\":14950:14954   */\n      0x06\n        /* \"--CODEGEN--\":14940:14954   */\n      swap1\n      pop\n        /* \"--CODEGEN--\":14928:14964   */\n      swap2\n      swap1\n      pop\n      jump\t// out\n        /* \"--CODEGEN--\":14971:15108   */\n    tag_379:\n      0x00\n        /* \"--CODEGEN--\":15080:15085   */\n      dup2\n        /* \"--CODEGEN--\":15074:15086   */\n      mload\n        /* \"--CODEGEN--\":15064:15086   */\n      swap1\n      pop\n        /* \"--CODEGEN--\":15045:15108   */\n      swap2\n      swap1\n      pop\n      jump\t// out\n        /* \"--CODEGEN--\":15115:15221   */\n    tag_375:\n      0x00\n        /* \"--CODEGEN--\":15211:15215   */\n      0x20\n        /* \"--CODEGEN--\":15206:15209   */\n      dup3\n        /* \"--CODEGEN--\":15202:15216   */\n      add\n        /* \"--CODEGEN--\":15194:15216   */\n      swap1\n      pop\n        /* \"--CODEGEN--\":15188:15221   */\n      swap2\n      swap1\n      pop\n      jump\t// out\n        /* \"--CODEGEN--\":15228:15336   */\n    tag_389:\n      0x00\n        /* \"--CODEGEN--\":15326:15330   */\n      0x20\n        /* \"--CODEGEN--\":15321:15324   */\n      dup3\n        /* \"--CODEGEN--\":15317:15331   */\n      add\n        /* \"--CODEGEN--\":15309:15331   */\n      swap1\n      pop\n        /* \"--CODEGEN--\":15303:15336   */\n      swap2\n      swap1\n      pop\n      jump\t// out\n        /* \"--CODEGEN--\":15344:15484   */\n    tag_367:\n      0x00\n        /* \"--CODEGEN--\":15475:15478   */\n      dup2\n        /* \"--CODEGEN--\":15460:15478   */\n      swap1\n      pop\n        /* \"--CODEGEN--\":15453:15484   */\n      swap3\n      swap2\n      pop\n      pop\n      jump\t// out\n        /* \"--CODEGEN--\":15493:15671   */\n    tag_381:\n      0x00\n        /* \"--CODEGEN--\":15623:15629   */\n      dup3\n        /* \"--CODEGEN--\":15618:15621   */\n      dup3\n        /* \"--CODEGEN--\":15611:15630   */\n      mstore\n        /* \"--CODEGEN--\":15660:15664   */\n      0x20\n        /* \"--CODEGEN--\":15655:15658   */\n      dup3\n        /* \"--CODEGEN--\":15651:15665   */\n      add\n        /* \"--CODEGEN--\":15636:15665   */\n      swap1\n      pop\n        /* \"--CODEGEN--\":15604:15671   */\n      swap3\n      swap2\n      pop\n      pop\n      jump\t// out\n        /* \"--CODEGEN--\":15680:15843   */\n    tag_393:\n      0x00\n        /* \"--CODEGEN--\":15795:15801   */\n      dup3\n        /* \"--CODEGEN--\":15790:15793   */\n      dup3\n        /* \"--CODEGEN--\":15783:15802   */\n      mstore\n        /* \"--CODEGEN--\":15832:15836   */\n      0x20\n        /* \"--CODEGEN--\":15827:15830   */\n      dup3\n        /* \"--CODEGEN--\":15823:15837   */\n      add\n        /* \"--CODEGEN--\":15808:15837   */\n      swap1\n      pop\n        /* \"--CODEGEN--\":15776:15843   */\n      swap3\n      swap2\n      pop\n      pop\n      jump\t// out\n        /* \"--CODEGEN--\":15851:15942   */\n    tag_361:\n      0x00\n        /* \"--CODEGEN--\":15913:15937   */\n      tag_477\n        /* \"--CODEGEN--\":15931:15936   */\n      dup3\n        /* \"--CODEGEN--\":15913:15937   */\n      tag_478\n      jump\t// in\n    tag_477:\n        /* \"--CODEGEN--\":15902:15937   */\n      swap1\n      pop\n        /* \"--CODEGEN--\":15896:15942   */\n      swap2\n      swap1\n      pop\n      jump\t// out\n        /* \"--CODEGEN--\":15949:16070   */\n    tag_478:\n      0x00\n        /* \"--CODEGEN--\":16022:16064   */\n      0xffffffffffffffffffffffffffffffffffffffff\n        /* \"--CODEGEN--\":16015:16020   */\n      dup3\n        /* \"--CODEGEN--\":16011:16065   */\n      and\n        /* \"--CODEGEN--\":16000:16065   */\n      swap1\n      pop\n        /* \"--CODEGEN--\":15994:16070   */\n      swap2\n      swap1\n      pop\n      jump\t// out\n        /* \"--CODEGEN--\":16077:16149   */\n    tag_423:\n      0x00\n        /* \"--CODEGEN--\":16139:16144   */\n      dup2\n        /* \"--CODEGEN--\":16128:16144   */\n      swap1\n      pop\n        /* \"--CODEGEN--\":16122:16149   */\n      swap2\n      swap1\n      pop\n      jump\t// out\n        /* \"--CODEGEN--\":16156:16230   */\n    tag_431:\n      0x00\n        /* \"--CODEGEN--\":16220:16225   */\n      dup2\n        /* \"--CODEGEN--\":16209:16225   */\n      swap1\n      pop\n        /* \"--CODEGEN--\":16203:16230   */\n      swap2\n      swap1\n      pop\n      jump\t// out\n        /* \"--CODEGEN--\":16237:16354   */\n    tag_321:\n        /* \"--CODEGEN--\":16306:16330   */\n      tag_483\n        /* \"--CODEGEN--\":16324:16329   */\n      dup2\n        /* \"--CODEGEN--\":16306:16330   */\n      tag_361\n      jump\t// in\n    tag_483:\n        /* \"--CODEGEN--\":16299:16304   */\n      dup2\n        /* \"--CODEGEN--\":16296:16331   */\n      eq\n        /* \"--CODEGEN--\":16286:16288   */\n      tag_484\n      jumpi\n        /* \"--CODEGEN--\":16345:16346   */\n      0x00\n        /* \"--CODEGEN--\":16342:16343   */\n      dup1\n        /* \"--CODEGEN--\":16335:16347   */\n      revert\n        /* \"--CODEGEN--\":16286:16288   */\n    tag_484:\n        /* \"--CODEGEN--\":16280:16354   */\n      pop\n      jump\t// out\n        /* \"--CODEGEN--\":16361:16478   */\n    tag_337:\n        /* \"--CODEGEN--\":16430:16454   */\n      tag_486\n        /* \"--CODEGEN--\":16448:16453   */\n      dup2\n        /* \"--CODEGEN--\":16430:16454   */\n      tag_423\n      jump\t// in\n    tag_486:\n        /* \"--CODEGEN--\":16423:16428   */\n      dup2\n        /* \"--CODEGEN--\":16420:16455   */\n      eq\n        /* \"--CODEGEN--\":16410:16412   */\n      tag_487\n      jumpi\n        /* \"--CODEGEN--\":16469:16470   */\n      0x00\n        /* \"--CODEGEN--\":16466:16467   */\n      dup1\n        /* \"--CODEGEN--\":16459:16471   */\n      revert\n        /* \"--CODEGEN--\":16410:16412   */\n    tag_487:\n        /* \"--CODEGEN--\":16404:16478   */\n      pop\n      jump\t// out\n\n    auxdata: 0xa264697066735822122031c4c7c10b4079e5d39a6f69ef6e87582a861544c842abc1867120de11b424fa64736f6c634300060c0033\n}\n",
				"bytecode": {
					"linkReferences": {},
					"object": "608060405234801561001057600080fd5b50336000806101000a81548173ffffffffffffffffffffffffffffffffffffffff021916908373ffffffffffffffffffffffffffffffffffffffff160217905550674563918244f400006001819055506801158e460913d0000060068190555061214e8061007f6000396000f3fe6080604052600436106101145760003560e01c80636c0d87fe116100a05780638da5cb5b116100645780638da5cb5b1461035a5780638e7e9a3c14610385578063a54b2a731461039c578063a7caba25146103c7578063ab3eb60e146103de57610114565b80636c0d87fe146102ba578063716cac96146102e5578063749aa2d9146103015780637ce52eb61461031857806384350e1d1461032f57610114565b8063398ab9a7116100e7578063398ab9a7146101e7578063486a7e6b146102125780634e45f0951461023d578063541d40391461027a57806355e3f086146102a357610114565b80631004b18d146101195780631209b1f6146101425780631b6462591461016d5780632115f4d1146101aa575b600080fd5b34801561012557600080fd5b50610140600480360381019061013b9190611904565b61041b565b005b34801561014e57600080fd5b50610157610507565b6040516101649190611fbd565b60405180910390f35b34801561017957600080fd5b50610194600480360381019061018f919061196e565b61050d565b6040516101a19190611fbd565b60405180910390f35b3480156101b657600080fd5b506101d160048036038101906101cc91906118b5565b61053b565b6040516101de9190611fbd565b60405180910390f35b3480156101f357600080fd5b506101fc61057f565b6040516102099190611fbd565b60405180910390f35b34801561021e57600080fd5b50610227610585565b6040516102349190611fbd565b60405180910390f35b34801561024957600080fd5b50610264600480360381019061025f9190611945565b61058b565b6040516102719190611fbd565b60405180910390f35b34801561028657600080fd5b506102a1600480360381019061029c9190611945565b6105ac565b005b3480156102af57600080fd5b506102b8610a2a565b005b3480156102c657600080fd5b506102cf610b8f565b6040516102dc9190611fbd565b60405180910390f35b6102ff60048036038101906102fa9190611904565b610bd9565b005b34801561030d57600080fd5b50610316610cdd565b005b34801561032457600080fd5b5061032d610e4b565b005b34801561033b57600080fd5b50610344610f9e565b6040516103519190611e40565b60405180910390f35b34801561036657600080fd5b5061036f610ffc565b60405161037c9190611e25565b60405180910390f35b34801561039157600080fd5b5061039a611020565b005b3480156103a857600080fd5b506103b161159b565b6040516103be9190611fbd565b60405180910390f35b3480156103d357600080fd5b506103dc6115a1565b005b3480156103ea57600080fd5b5061040560048036038101906104009190611945565b6116af565b6040516104129190611e5b565b60405180910390f35b60008054906101000a900473ffffffffffffffffffffffffffffffffffffffff1673ffffffffffffffffffffffffffffffffffffffff163373ffffffffffffffffffffffffffffffffffffffff16146104a9576040517f08c379a00000000000000000000000000000000000000000000000000000000081526004016104a090611f1d565b60405180910390fd5b60068151146104ed576040517f08c379a00000000000000000000000000000000000000000000000000000000081526004016104e490611f9d565b60405180910390fd5b806003908051906020019061050392919061175b565b5050565b60015481565b6004602052816000526040600020818154811061052657fe5b90600052602060002001600091509150505481565b6002602052826000526040600020828154811061055457fe5b90600052602060002001818154811061056957fe5b9060005260206000200160009250925050505481565b60055481565b60075481565b6003818154811061059857fe5b906000526020600020016000915090505481565b6000600260003373ffffffffffffffffffffffffffffffffffffffff1673ffffffffffffffffffffffffffffffffffffffff1681526020019081526020016000208054905011610631576040517f08c379a000000000000000000000000000000000000000000000000000000000815260040161062890611ebd565b60405180910390fd5b6000600260003373ffffffffffffffffffffffffffffffffffffffff1673ffffffffffffffffffffffffffffffffffffffff168152602001908152602001600020828154811061067d57fe5b9060005260206000200180549050116106cb576040517f08c379a00000000000000000000000000000000000000000000000000000000081526004016106c290611f7d565b60405180910390fd5b6000805b600681101561077657600381815481106106e557fe5b9060005260206000200154600260003373ffffffffffffffffffffffffffffffffffffffff1673ffffffffffffffffffffffffffffffffffffffff168152602001908152602001600020848154811061073a57fe5b90600052602060002001828154811061074f57fe5b906000526020600020015414156107695781806001019250505b80806001019150506106cf565b5060018114156107c457671bc16d674ec80000600460008081526020019081526020016000206001815481106107a857fe5b906000526020600020016000828254019250508190555061094d565b6002811415610812576729a2241af62c000060046000600181526020019081526020016000206001815481106107f657fe5b906000526020600020016000828254019250508190555061094c565b600381141561086057674563918244f40000600460006002815260200190815260200160002060018154811061084457fe5b906000526020600020016000828254019250508190555061094b565b60048114156108ae57678ac7230489e80000600460006003815260200190815260200160002060018154811061089257fe5b906000526020600020016000828254019250508190555061094a565b60058114156108fd576801158e460913d0000060046000600481526020019081526020016000206001815481106108e157fe5b9060005260206000200160008282540192505081905550610949565b60068114156109485768022b1c8c1227a00000600460006005815260200190815260200160002060018154811061093057fe5b90600052602060002001600082825401925050819055505b5b5b5b5b5b60006004600060018403815260200190815260200160002060018154811061097157fe5b906000526020600020015490503373ffffffffffffffffffffffffffffffffffffffff166108fc829081150290604051600060405180830381858888f193505050501580156109c4573d6000803e3d6000fd5b50600260003373ffffffffffffffffffffffffffffffffffffffff1673ffffffffffffffffffffffffffffffffffffffff1681526020019081526020016000208381548110610a0f57fe5b906000526020600020016000610a2591906117a8565b505050565b60008054906101000a900473ffffffffffffffffffffffffffffffffffffffff1673ffffffffffffffffffffffffffffffffffffffff163373ffffffffffffffffffffffffffffffffffffffff1614610ab8576040517f08c379a0000000000000000000000000000000000000000000000000000000008152600401610aaf90611efd565b60405180910390fd5b6000600581905550600060078190555060005b6006811015610b8c576060600267ffffffffffffffff81118015610aee57600080fd5b50604051908082528060200260200182016040528015610b1d5781602001602082028036833780820191505090505b509050600081600081518110610b2f57fe5b602002602001018181525050600081600181518110610b4a57fe5b60200260200101818152505080600460008481526020019081526020016000209080519060200190610b7d92919061175b565b50508080600101915050610acb565b50565b6000600260003373ffffffffffffffffffffffffffffffffffffffff1673ffffffffffffffffffffffffffffffffffffffff16815260200190815260200160002080549050905090565b6001543414610c1d576040517f08c379a0000000000000000000000000000000000000000000000000000000008152600401610c1490611f5d565b60405180910390fd5b6006815114610c61576040517f08c379a0000000000000000000000000000000000000000000000000000000008152600401610c5890611e7d565b60405180910390fd5b600260003373ffffffffffffffffffffffffffffffffffffffff1673ffffffffffffffffffffffffffffffffffffffff16815260200190815260200160002081908060018154018082558091505060019003906000526020600020016000909190919091509080519060200190610cd992919061175b565b5050565b60008054906101000a900473ffffffffffffffffffffffffffffffffffffffff1673ffffffffffffffffffffffffffffffffffffffff163373ffffffffffffffffffffffffffffffffffffffff1614610d6b576040517f08c379a0000000000000000000000000000000000000000000000000000000008152600401610d6290611e9d565b60405180910390fd5b600060075460055401905060005b6006811015610e315760008260055481610d8f57fe5b0460046000848152602001908152602001600020600181548110610daf57fe5b9060005260206000200154029050600060046000848152602001908152602001600020600181548110610dde57fe5b90600052602060002001819055508060046000848152602001908152602001600020600081548110610e0c57fe5b9060005260206000200160008282540192505081905550508080600101915050610d79565b508060055481610e3d57fe5b046006540260078190555050565b60008054906101000a900473ffffffffffffffffffffffffffffffffffffffff1673ffffffffffffffffffffffffffffffffffffffff163373ffffffffffffffffffffffffffffffffffffffff1614610ed9576040517f08c379a0000000000000000000000000000000000000000000000000000000008152600401610ed090611edd565b60405180910390fd5b60005b6006811015610f9357600060046000838152602001908152602001600020600181548110610f0657fe5b906000526020600020015460046000848152602001908152602001600020600081548110610f3057fe5b90600052602060002001540190503373ffffffffffffffffffffffffffffffffffffffff166108fc829081150290604051600060405180830381858888f19350505050158015610f84573d6000803e3d6000fd5b50508080600101915050610edc565b506000600781905550565b610fa66117c9565b610fae6117c9565b60005b6006811015610ff45760038181548110610fc757fe5b9060005260206000200154828260068110610fde57fe5b6020020181815250508080600101915050610fb1565b508091505090565b60008054906101000a900473ffffffffffffffffffffffffffffffffffffffff1681565b6000600581905550600060078190555060008054906101000a900473ffffffffffffffffffffffffffffffffffffffff1673ffffffffffffffffffffffffffffffffffffffff163373ffffffffffffffffffffffffffffffffffffffff16146110be576040517f08c379a00000000000000000000000000000000000000000000000000000000081526004016110b590611f3d565b60405180910390fd5b60005b600260003373ffffffffffffffffffffffffffffffffffffffff1673ffffffffffffffffffffffffffffffffffffffff1681526020019081526020016000208054905081101561150c576060600260003373ffffffffffffffffffffffffffffffffffffffff1673ffffffffffffffffffffffffffffffffffffffff168152602001908152602001600020828154811061115757fe5b906000526020600020018054806020026020016040519081016040528092919081815260200182805480156111ab57602002820191906000526020600020905b815481526020019060010190808311611197575b505050505090506000805b600681101561120757600381815481106111cc57fe5b90600052602060002001548382815181106111e357fe5b602002602001015114156111fa5781806001019250505b80806001019150506111b6565b5060018114156112845760006004600080815260200190815260200160002060008154811061123257fe5b9060005260206000200181905550671bc16d674ec800006004600080815260200190815260200160002060008154811061126857fe5b90600052602060002001600082825401925050819055506114fd565b600281141561130257600060046000600181526020019081526020016000206000815481106112af57fe5b90600052602060002001819055506729a2241af62c000060046000600181526020019081526020016000206000815481106112e657fe5b90600052602060002001600082825401925050819055506114fc565b6003811415611380576000600460006002815260200190815260200160002060008154811061132d57fe5b9060005260206000200181905550674563918244f40000600460006002815260200190815260200160002060008154811061136457fe5b90600052602060002001600082825401925050819055506114fb565b60048114156113fe57600060046000600381526020019081526020016000206000815481106113ab57fe5b9060005260206000200181905550678ac7230489e8000060046000600381526020019081526020016000206000815481106113e257fe5b90600052602060002001600082825401925050819055506114fa565b600581141561147d576000600460006004815260200190815260200160002060008154811061142957fe5b90600052602060002001819055506801158e460913d00000600460006004815260200190815260200160002060008154811061146157fe5b90600052602060002001600082825401925050819055506114f9565b60068114156114f857600060046000600581526020019081526020016000206000815481106114a857fe5b906000526020600020018190555068022b1c8c1227a0000060046000600581526020019081526020016000206000815481106114e057fe5b90600052602060002001600082825401925050819055505b5b5b5b5b5b505080806001019150506110c1565b5060005b6006811015611598576004600082815260200190815260200160002060008154811061153857fe5b90600052602060002001546005600082825401925050819055506004600082815260200190815260200160002060018154811061157157fe5b90600052602060002001546007600082825401925050819055508080600101915050611510565b50565b60065481565b60008054906101000a900473ffffffffffffffffffffffffffffffffffffffff1673ffffffffffffffffffffffffffffffffffffffff163373ffffffffffffffffffffffffffffffffffffffff161461162f576040517f08c379a000000000000000000000000000000000000000000000000000000000815260040161162690611f1d565b60405180910390fd5b60005b60068110156116ac576000600a4283604051602001611652929190611df9565b6040516020818303038152906040528051906020012060001c8161167257fe5b0690506003819080600181540180825580915050600190039060005260206000200160009091909190915055508080600101915050611632565b50565b6060600260003373ffffffffffffffffffffffffffffffffffffffff1673ffffffffffffffffffffffffffffffffffffffff16815260200190815260200160002082815481106116fb57fe5b9060005260206000200180548060200260200160405190810160405280929190818152602001828054801561174f57602002820191906000526020600020905b81548152602001906001019080831161173b575b50505050509050919050565b828054828255906000526020600020908101928215611797579160200282015b8281111561179657825182559160200191906001019061177b565b5b5090506117a491906117eb565b5090565b50805460008255906000526020600020908101906117c691906117eb565b50565b6040518060c00160405280600690602082028036833780820191505090505090565b5b808211156118045760008160009055506001016117ec565b5090565b600081359050611817816120ea565b92915050565b600082601f83011261182e57600080fd5b813561184161183c82612005565b611fd8565b9150818183526020840193506020810190508385602084028201111561186657600080fd5b60005b83811015611896578161187c88826118a0565b845260208401935060208301925050600181019050611869565b5050505092915050565b6000813590506118af81612101565b92915050565b6000806000606084860312156118ca57600080fd5b60006118d886828701611808565b93505060206118e9868287016118a0565b92505060406118fa868287016118a0565b9150509250925092565b60006020828403121561191657600080fd5b600082013567ffffffffffffffff81111561193057600080fd5b61193c8482850161181d565b91505092915050565b60006020828403121561195757600080fd5b6000611965848285016118a0565b91505092915050565b6000806040838503121561198157600080fd5b600061198f858286016118a0565b92505060206119a0858286016118a0565b9150509250929050565b60006119b68383611dc4565b60208301905092915050565b6119cb816120a4565b82525050565b6119da81612047565b6119e48184612077565b92506119ef8261202d565b8060005b83811015611a20578151611a0787826119aa565b9650611a128361205d565b9250506001810190506119f3565b505050505050565b6000611a3382612052565b611a3d8185612082565b9350611a4883612037565b8060005b83811015611a79578151611a6088826119aa565b9750611a6b8361206a565b925050600181019050611a4c565b5085935050505092915050565b6000611a93601983612093565b91507f5469636b6574206d7573742068617665203620646967697473000000000000006000830152602082019050919050565b6000611ad3602083612093565b91507f4f6e6c7920746865206f776e65722063616e20656e642074686520726f756e646000830152602082019050919050565b6000611b13602183612093565b91507f596f7520646f6e2774206861766520616e79207469636b65747320617420616c60008301527f6c000000000000000000000000000000000000000000000000000000000000006020830152604082019050919050565b6000611b79602483612093565b91507f4f6e6c7920746865206f776e65722063616e206469737472696275746520707260008301527f697a6573000000000000000000000000000000000000000000000000000000006020830152604082019050919050565b6000611bdf602083612093565b91507f4f6e6c7920746865206f776e65722063616e207374617274206120726f756e646000830152602082019050919050565b6000611c1f602a83612093565b91507f4f6e6c7920746865206f776e65722063616e20736574207468652077696e6e6960008301527f6e67206e756d62657273000000000000000000000000000000000000000000006020830152604082019050919050565b6000611c85602383612093565b91507f4f6e6c7920746865206f776e65722063616e2063616c63756c6174652070726960008301527f7a657300000000000000000000000000000000000000000000000000000000006020830152604082019050919050565b6000611ceb602883612093565b91507f596f75206e65656420746f207061792074686520636f7272656374207469636b60008301527f65742070726963650000000000000000000000000000000000000000000000006020830152604082019050919050565b6000611d51601a83612093565b91507f4e6f207469636b657420776974682074686174206e756d6265720000000000006000830152602082019050919050565b6000611d91601683612093565b91507f4d7573742070726f766964652036206e756d62657273000000000000000000006000830152602082019050919050565b611dcd816120d6565b82525050565b611ddc816120d6565b82525050565b611df3611dee826120d6565b6120e0565b82525050565b6000611e058285611de2565b602082019150611e158284611de2565b6020820191508190509392505050565b6000602082019050611e3a60008301846119c2565b92915050565b600060c082019050611e5560008301846119d1565b92915050565b60006020820190508181036000830152611e758184611a28565b905092915050565b60006020820190508181036000830152611e9681611a86565b9050919050565b60006020820190508181036000830152611eb681611ac6565b9050919050565b60006020820190508181036000830152611ed681611b06565b9050919050565b60006020820190508181036000830152611ef681611b6c565b9050919050565b60006020820190508181036000830152611f1681611bd2565b9050919050565b60006020820190508181036000830152611f3681611c12565b9050919050565b60006020820190508181036000830152611f5681611c78565b9050919050565b60006020820190508181036000830152611f7681611cde565b9050919050565b60006020820190508181036000830152611f9681611d44565b9050919050565b60006020820190508181036000830152611fb681611d84565b9050919050565b6000602082019050611fd26000830184611dd3565b92915050565b6000604051905081810181811067ffffffffffffffff82111715611ffb57600080fd5b8060405250919050565b600067ffffffffffffffff82111561201c57600080fd5b602082029050602081019050919050565b6000819050919050565b6000819050602082019050919050565b600060069050919050565b600081519050919050565b6000602082019050919050565b6000602082019050919050565b600081905092915050565b600082825260208201905092915050565b600082825260208201905092915050565b60006120af826120b6565b9050919050565b600073ffffffffffffffffffffffffffffffffffffffff82169050919050565b6000819050919050565b6000819050919050565b6120f3816120a4565b81146120fe57600080fd5b50565b61210a816120d6565b811461211557600080fd5b5056fea264697066735822122031c4c7c10b4079e5d39a6f69ef6e87582a861544c842abc1867120de11b424fa64736f6c634300060c0033",
					"opcodes": "PUSH1 0x80 PUSH1 0x40 MSTORE CALLVALUE DUP1 ISZERO PUSH2 0x10 JUMPI PUSH1 0x0 DUP1 REVERT JUMPDEST POP CALLER PUSH1 0x0 DUP1 PUSH2 0x100 EXP DUP2 SLOAD DUP2 PUSH20 0xFFFFFFFFFFFFFFFFFFFFFFFFFFFFFFFFFFFFFFFF MUL NOT AND SWAP1 DUP4 PUSH20 0xFFFFFFFFFFFFFFFFFFFFFFFFFFFFFFFFFFFFFFFF AND MUL OR SWAP1 SSTORE POP PUSH8 0x4563918244F40000 PUSH1 0x1 DUP2 SWAP1 SSTORE POP PUSH9 0x1158E460913D00000 PUSH1 0x6 DUP2 SWAP1 SSTORE POP PUSH2 0x214E DUP1 PUSH2 0x7F PUSH1 0x0 CODECOPY PUSH1 0x0 RETURN INVALID PUSH1 0x80 PUSH1 0x40 MSTORE PUSH1 0x4 CALLDATASIZE LT PUSH2 0x114 JUMPI PUSH1 0x0 CALLDATALOAD PUSH1 0xE0 SHR DUP1 PUSH4 0x6C0D87FE GT PUSH2 0xA0 JUMPI DUP1 PUSH4 0x8DA5CB5B GT PUSH2 0x64 JUMPI DUP1 PUSH4 0x8DA5CB5B EQ PUSH2 0x35A JUMPI DUP1 PUSH4 0x8E7E9A3C EQ PUSH2 0x385 JUMPI DUP1 PUSH4 0xA54B2A73 EQ PUSH2 0x39C JUMPI DUP1 PUSH4 0xA7CABA25 EQ PUSH2 0x3C7 JUMPI DUP1 PUSH4 0xAB3EB60E EQ PUSH2 0x3DE JUMPI PUSH2 0x114 JUMP JUMPDEST DUP1 PUSH4 0x6C0D87FE EQ PUSH2 0x2BA JUMPI DUP1 PUSH4 0x716CAC96 EQ PUSH2 0x2E5 JUMPI DUP1 PUSH4 0x749AA2D9 EQ PUSH2 0x301 JUMPI DUP1 PUSH4 0x7CE52EB6 EQ PUSH2 0x318 JUMPI DUP1 PUSH4 0x84350E1D EQ PUSH2 0x32F JUMPI PUSH2 0x114 JUMP JUMPDEST DUP1 PUSH4 0x398AB9A7 GT PUSH2 0xE7 JUMPI DUP1 PUSH4 0x398AB9A7 EQ PUSH2 0x1E7 JUMPI DUP1 PUSH4 0x486A7E6B EQ PUSH2 0x212 JUMPI DUP1 PUSH4 0x4E45F095 EQ PUSH2 0x23D JUMPI DUP1 PUSH4 0x541D4039 EQ PUSH2 0x27A JUMPI DUP1 PUSH4 0x55E3F086 EQ PUSH2 0x2A3 JUMPI PUSH2 0x114 JUMP JUMPDEST DUP1 PUSH4 0x1004B18D EQ PUSH2 0x119 JUMPI DUP1 PUSH4 0x1209B1F6 EQ PUSH2 0x142 JUMPI DUP1 PUSH4 0x1B646259 EQ PUSH2 0x16D JUMPI DUP1 PUSH4 0x2115F4D1 EQ PUSH2 0x1AA JUMPI JUMPDEST PUSH1 0x0 DUP1 REVERT JUMPDEST CALLVALUE DUP1 ISZERO PUSH2 0x125 JUMPI PUSH1 0x0 DUP1 REVERT JUMPDEST POP PUSH2 0x140 PUSH1 0x4 DUP1 CALLDATASIZE SUB DUP2 ADD SWAP1 PUSH2 0x13B SWAP2 SWAP1 PUSH2 0x1904 JUMP JUMPDEST PUSH2 0x41B JUMP JUMPDEST STOP JUMPDEST CALLVALUE DUP1 ISZERO PUSH2 0x14E JUMPI PUSH1 0x0 DUP1 REVERT JUMPDEST POP PUSH2 0x157 PUSH2 0x507 JUMP JUMPDEST PUSH1 0x40 MLOAD PUSH2 0x164 SWAP2 SWAP1 PUSH2 0x1FBD JUMP JUMPDEST PUSH1 0x40 MLOAD DUP1 SWAP2 SUB SWAP1 RETURN JUMPDEST CALLVALUE DUP1 ISZERO PUSH2 0x179 JUMPI PUSH1 0x0 DUP1 REVERT JUMPDEST POP PUSH2 0x194 PUSH1 0x4 DUP1 CALLDATASIZE SUB DUP2 ADD SWAP1 PUSH2 0x18F SWAP2 SWAP1 PUSH2 0x196E JUMP JUMPDEST PUSH2 0x50D JUMP JUMPDEST PUSH1 0x40 MLOAD PUSH2 0x1A1 SWAP2 SWAP1 PUSH2 0x1FBD JUMP JUMPDEST PUSH1 0x40 MLOAD DUP1 SWAP2 SUB SWAP1 RETURN JUMPDEST CALLVALUE DUP1 ISZERO PUSH2 0x1B6 JUMPI PUSH1 0x0 DUP1 REVERT JUMPDEST POP PUSH2 0x1D1 PUSH1 0x4 DUP1 CALLDATASIZE SUB DUP2 ADD SWAP1 PUSH2 0x1CC SWAP2 SWAP1 PUSH2 0x18B5 JUMP JUMPDEST PUSH2 0x53B JUMP JUMPDEST PUSH1 0x40 MLOAD PUSH2 0x1DE SWAP2 SWAP1 PUSH2 0x1FBD JUMP JUMPDEST PUSH1 0x40 MLOAD DUP1 SWAP2 SUB SWAP1 RETURN JUMPDEST CALLVALUE DUP1 ISZERO PUSH2 0x1F3 JUMPI PUSH1 0x0 DUP1 REVERT JUMPDEST POP PUSH2 0x1FC PUSH2 0x57F JUMP JUMPDEST PUSH1 0x40 MLOAD PUSH2 0x209 SWAP2 SWAP1 PUSH2 0x1FBD JUMP JUMPDEST PUSH1 0x40 MLOAD DUP1 SWAP2 SUB SWAP1 RETURN JUMPDEST CALLVALUE DUP1 ISZERO PUSH2 0x21E JUMPI PUSH1 0x0 DUP1 REVERT JUMPDEST POP PUSH2 0x227 PUSH2 0x585 JUMP JUMPDEST PUSH1 0x40 MLOAD PUSH2 0x234 SWAP2 SWAP1 PUSH2 0x1FBD JUMP JUMPDEST PUSH1 0x40 MLOAD DUP1 SWAP2 SUB SWAP1 RETURN JUMPDEST CALLVALUE DUP1 ISZERO PUSH2 0x249 JUMPI PUSH1 0x0 DUP1 REVERT JUMPDEST POP PUSH2 0x264 PUSH1 0x4 DUP1 CALLDATASIZE SUB DUP2 ADD SWAP1 PUSH2 0x25F SWAP2 SWAP1 PUSH2 0x1945 JUMP JUMPDEST PUSH2 0x58B JUMP JUMPDEST PUSH1 0x40 MLOAD PUSH2 0x271 SWAP2 SWAP1 PUSH2 0x1FBD JUMP JUMPDEST PUSH1 0x40 MLOAD DUP1 SWAP2 SUB SWAP1 RETURN JUMPDEST CALLVALUE DUP1 ISZERO PUSH2 0x286 JUMPI PUSH1 0x0 DUP1 REVERT JUMPDEST POP PUSH2 0x2A1 PUSH1 0x4 DUP1 CALLDATASIZE SUB DUP2 ADD SWAP1 PUSH2 0x29C SWAP2 SWAP1 PUSH2 0x1945 JUMP JUMPDEST PUSH2 0x5AC JUMP JUMPDEST STOP JUMPDEST CALLVALUE DUP1 ISZERO PUSH2 0x2AF JUMPI PUSH1 0x0 DUP1 REVERT JUMPDEST POP PUSH2 0x2B8 PUSH2 0xA2A JUMP JUMPDEST STOP JUMPDEST CALLVALUE DUP1 ISZERO PUSH2 0x2C6 JUMPI PUSH1 0x0 DUP1 REVERT JUMPDEST POP PUSH2 0x2CF PUSH2 0xB8F JUMP JUMPDEST PUSH1 0x40 MLOAD PUSH2 0x2DC SWAP2 SWAP1 PUSH2 0x1FBD JUMP JUMPDEST PUSH1 0x40 MLOAD DUP1 SWAP2 SUB SWAP1 RETURN JUMPDEST PUSH2 0x2FF PUSH1 0x4 DUP1 CALLDATASIZE SUB DUP2 ADD SWAP1 PUSH2 0x2FA SWAP2 SWAP1 PUSH2 0x1904 JUMP JUMPDEST PUSH2 0xBD9 JUMP JUMPDEST STOP JUMPDEST CALLVALUE DUP1 ISZERO PUSH2 0x30D JUMPI PUSH1 0x0 DUP1 REVERT JUMPDEST POP PUSH2 0x316 PUSH2 0xCDD JUMP JUMPDEST STOP JUMPDEST CALLVALUE DUP1 ISZERO PUSH2 0x324 JUMPI PUSH1 0x0 DUP1 REVERT JUMPDEST POP PUSH2 0x32D PUSH2 0xE4B JUMP JUMPDEST STOP JUMPDEST CALLVALUE DUP1 ISZERO PUSH2 0x33B JUMPI PUSH1 0x0 DUP1 REVERT JUMPDEST POP PUSH2 0x344 PUSH2 0xF9E JUMP JUMPDEST PUSH1 0x40 MLOAD PUSH2 0x351 SWAP2 SWAP1 PUSH2 0x1E40 JUMP JUMPDEST PUSH1 0x40 MLOAD DUP1 SWAP2 SUB SWAP1 RETURN JUMPDEST CALLVALUE DUP1 ISZERO PUSH2 0x366 JUMPI PUSH1 0x0 DUP1 REVERT JUMPDEST POP PUSH2 0x36F PUSH2 0xFFC JUMP JUMPDEST PUSH1 0x40 MLOAD PUSH2 0x37C SWAP2 SWAP1 PUSH2 0x1E25 JUMP JUMPDEST PUSH1 0x40 MLOAD DUP1 SWAP2 SUB SWAP1 RETURN JUMPDEST CALLVALUE DUP1 ISZERO PUSH2 0x391 JUMPI PUSH1 0x0 DUP1 REVERT JUMPDEST POP PUSH2 0x39A PUSH2 0x1020 JUMP JUMPDEST STOP JUMPDEST CALLVALUE DUP1 ISZERO PUSH2 0x3A8 JUMPI PUSH1 0x0 DUP1 REVERT JUMPDEST POP PUSH2 0x3B1 PUSH2 0x159B JUMP JUMPDEST PUSH1 0x40 MLOAD PUSH2 0x3BE SWAP2 SWAP1 PUSH2 0x1FBD JUMP JUMPDEST PUSH1 0x40 MLOAD DUP1 SWAP2 SUB SWAP1 RETURN JUMPDEST CALLVALUE DUP1 ISZERO PUSH2 0x3D3 JUMPI PUSH1 0x0 DUP1 REVERT JUMPDEST POP PUSH2 0x3DC PUSH2 0x15A1 JUMP JUMPDEST STOP JUMPDEST CALLVALUE DUP1 ISZERO PUSH2 0x3EA JUMPI PUSH1 0x0 DUP1 REVERT JUMPDEST POP PUSH2 0x405 PUSH1 0x4 DUP1 CALLDATASIZE SUB DUP2 ADD SWAP1 PUSH2 0x400 SWAP2 SWAP1 PUSH2 0x1945 JUMP JUMPDEST PUSH2 0x16AF JUMP JUMPDEST PUSH1 0x40 MLOAD PUSH2 0x412 SWAP2 SWAP1 PUSH2 0x1E5B JUMP JUMPDEST PUSH1 0x40 MLOAD DUP1 SWAP2 SUB SWAP1 RETURN JUMPDEST PUSH1 0x0 DUP1 SLOAD SWAP1 PUSH2 0x100 EXP SWAP1 DIV PUSH20 0xFFFFFFFFFFFFFFFFFFFFFFFFFFFFFFFFFFFFFFFF AND PUSH20 0xFFFFFFFFFFFFFFFFFFFFFFFFFFFFFFFFFFFFFFFF AND CALLER PUSH20 0xFFFFFFFFFFFFFFFFFFFFFFFFFFFFFFFFFFFFFFFF AND EQ PUSH2 0x4A9 JUMPI PUSH1 0x40 MLOAD PUSH32 0x8C379A000000000000000000000000000000000000000000000000000000000 DUP2 MSTORE PUSH1 0x4 ADD PUSH2 0x4A0 SWAP1 PUSH2 0x1F1D JUMP JUMPDEST PUSH1 0x40 MLOAD DUP1 SWAP2 SUB SWAP1 REVERT JUMPDEST PUSH1 0x6 DUP2 MLOAD EQ PUSH2 0x4ED JUMPI PUSH1 0x40 MLOAD PUSH32 0x8C379A000000000000000000000000000000000000000000000000000000000 DUP2 MSTORE PUSH1 0x4 ADD PUSH2 0x4E4 SWAP1 PUSH2 0x1F9D JUMP JUMPDEST PUSH1 0x40 MLOAD DUP1 SWAP2 SUB SWAP1 REVERT JUMPDEST DUP1 PUSH1 0x3 SWAP1 DUP1 MLOAD SWAP1 PUSH1 0x20 ADD SWAP1 PUSH2 0x503 SWAP3 SWAP2 SWAP1 PUSH2 0x175B JUMP JUMPDEST POP POP JUMP JUMPDEST PUSH1 0x1 SLOAD DUP2 JUMP JUMPDEST PUSH1 0x4 PUSH1 0x20 MSTORE DUP2 PUSH1 0x0 MSTORE PUSH1 0x40 PUSH1 0x0 KECCAK256 DUP2 DUP2 SLOAD DUP2 LT PUSH2 0x526 JUMPI INVALID JUMPDEST SWAP1 PUSH1 0x0 MSTORE PUSH1 0x20 PUSH1 0x0 KECCAK256 ADD PUSH1 0x0 SWAP2 POP SWAP2 POP POP SLOAD DUP2 JUMP JUMPDEST PUSH1 0x2 PUSH1 0x20 MSTORE DUP3 PUSH1 0x0 MSTORE PUSH1 0x40 PUSH1 0x0 KECCAK256 DUP3 DUP2 SLOAD DUP2 LT PUSH2 0x554 JUMPI INVALID JUMPDEST SWAP1 PUSH1 0x0 MSTORE PUSH1 0x20 PUSH1 0x0 KECCAK256 ADD DUP2 DUP2 SLOAD DUP2 LT PUSH2 0x569 JUMPI INVALID JUMPDEST SWAP1 PUSH1 0x0 MSTORE PUSH1 0x20 PUSH1 0x0 KECCAK256 ADD PUSH1 0x0 SWAP3 POP SWAP3 POP POP POP SLOAD DUP2 JUMP JUMPDEST PUSH1 0x5 SLOAD DUP2 JUMP JUMPDEST PUSH1 0x7 SLOAD DUP2 JUMP JUMPDEST PUSH1 0x3 DUP2 DUP2 SLOAD DUP2 LT PUSH2 0x598 JUMPI INVALID JUMPDEST SWAP1 PUSH1 0x0 MSTORE PUSH1 0x20 PUSH1 0x0 KECCAK256 ADD PUSH1 0x0 SWAP2 POP SWAP1 POP SLOAD DUP2 JUMP JUMPDEST PUSH1 0x0 PUSH1 0x2 PUSH1 0x0 CALLER PUSH20 0xFFFFFFFFFFFFFFFFFFFFFFFFFFFFFFFFFFFFFFFF AND PUSH20 0xFFFFFFFFFFFFFFFFFFFFFFFFFFFFFFFFFFFFFFFF AND DUP2 MSTORE PUSH1 0x20 ADD SWAP1 DUP2 MSTORE PUSH1 0x20 ADD PUSH1 0x0 KECCAK256 DUP1 SLOAD SWAP1 POP GT PUSH2 0x631 JUMPI PUSH1 0x40 MLOAD PUSH32 0x8C379A000000000000000000000000000000000000000000000000000000000 DUP2 MSTORE PUSH1 0x4 ADD PUSH2 0x628 SWAP1 PUSH2 0x1EBD JUMP JUMPDEST PUSH1 0x40 MLOAD DUP1 SWAP2 SUB SWAP1 REVERT JUMPDEST PUSH1 0x0 PUSH1 0x2 PUSH1 0x0 CALLER PUSH20 0xFFFFFFFFFFFFFFFFFFFFFFFFFFFFFFFFFFFFFFFF AND PUSH20 0xFFFFFFFFFFFFFFFFFFFFFFFFFFFFFFFFFFFFFFFF AND DUP2 MSTORE PUSH1 0x20 ADD SWAP1 DUP2 MSTORE PUSH1 0x20 ADD PUSH1 0x0 KECCAK256 DUP3 DUP2 SLOAD DUP2 LT PUSH2 0x67D JUMPI INVALID JUMPDEST SWAP1 PUSH1 0x0 MSTORE PUSH1 0x20 PUSH1 0x0 KECCAK256 ADD DUP1 SLOAD SWAP1 POP GT PUSH2 0x6CB JUMPI PUSH1 0x40 MLOAD PUSH32 0x8C379A000000000000000000000000000000000000000000000000000000000 DUP2 MSTORE PUSH1 0x4 ADD PUSH2 0x6C2 SWAP1 PUSH2 0x1F7D JUMP JUMPDEST PUSH1 0x40 MLOAD DUP1 SWAP2 SUB SWAP1 REVERT JUMPDEST PUSH1 0x0 DUP1 JUMPDEST PUSH1 0x6 DUP2 LT ISZERO PUSH2 0x776 JUMPI PUSH1 0x3 DUP2 DUP2 SLOAD DUP2 LT PUSH2 0x6E5 JUMPI INVALID JUMPDEST SWAP1 PUSH1 0x0 MSTORE PUSH1 0x20 PUSH1 0x0 KECCAK256 ADD SLOAD PUSH1 0x2 PUSH1 0x0 CALLER PUSH20 0xFFFFFFFFFFFFFFFFFFFFFFFFFFFFFFFFFFFFFFFF AND PUSH20 0xFFFFFFFFFFFFFFFFFFFFFFFFFFFFFFFFFFFFFFFF AND DUP2 MSTORE PUSH1 0x20 ADD SWAP1 DUP2 MSTORE PUSH1 0x20 ADD PUSH1 0x0 KECCAK256 DUP5 DUP2 SLOAD DUP2 LT PUSH2 0x73A JUMPI INVALID JUMPDEST SWAP1 PUSH1 0x0 MSTORE PUSH1 0x20 PUSH1 0x0 KECCAK256 ADD DUP3 DUP2 SLOAD DUP2 LT PUSH2 0x74F JUMPI INVALID JUMPDEST SWAP1 PUSH1 0x0 MSTORE PUSH1 0x20 PUSH1 0x0 KECCAK256 ADD SLOAD EQ ISZERO PUSH2 0x769 JUMPI DUP2 DUP1 PUSH1 0x1 ADD SWAP3 POP POP JUMPDEST DUP1 DUP1 PUSH1 0x1 ADD SWAP2 POP POP PUSH2 0x6CF JUMP JUMPDEST POP PUSH1 0x1 DUP2 EQ ISZERO PUSH2 0x7C4 JUMPI PUSH8 0x1BC16D674EC80000 PUSH1 0x4 PUSH1 0x0 DUP1 DUP2 MSTORE PUSH1 0x20 ADD SWAP1 DUP2 MSTORE PUSH1 0x20 ADD PUSH1 0x0 KECCAK256 PUSH1 0x1 DUP2 SLOAD DUP2 LT PUSH2 0x7A8 JUMPI INVALID JUMPDEST SWAP1 PUSH1 0x0 MSTORE PUSH1 0x20 PUSH1 0x0 KECCAK256 ADD PUSH1 0x0 DUP3 DUP3 SLOAD ADD SWAP3 POP POP DUP2 SWAP1 SSTORE POP PUSH2 0x94D JUMP JUMPDEST PUSH1 0x2 DUP2 EQ ISZERO PUSH2 0x812 JUMPI PUSH8 0x29A2241AF62C0000 PUSH1 0x4 PUSH1 0x0 PUSH1 0x1 DUP2 MSTORE PUSH1 0x20 ADD SWAP1 DUP2 MSTORE PUSH1 0x20 ADD PUSH1 0x0 KECCAK256 PUSH1 0x1 DUP2 SLOAD DUP2 LT PUSH2 0x7F6 JUMPI INVALID JUMPDEST SWAP1 PUSH1 0x0 MSTORE PUSH1 0x20 PUSH1 0x0 KECCAK256 ADD PUSH1 0x0 DUP3 DUP3 SLOAD ADD SWAP3 POP POP DUP2 SWAP1 SSTORE POP PUSH2 0x94C JUMP JUMPDEST PUSH1 0x3 DUP2 EQ ISZERO PUSH2 0x860 JUMPI PUSH8 0x4563918244F40000 PUSH1 0x4 PUSH1 0x0 PUSH1 0x2 DUP2 MSTORE PUSH1 0x20 ADD SWAP1 DUP2 MSTORE PUSH1 0x20 ADD PUSH1 0x0 KECCAK256 PUSH1 0x1 DUP2 SLOAD DUP2 LT PUSH2 0x844 JUMPI INVALID JUMPDEST SWAP1 PUSH1 0x0 MSTORE PUSH1 0x20 PUSH1 0x0 KECCAK256 ADD PUSH1 0x0 DUP3 DUP3 SLOAD ADD SWAP3 POP POP DUP2 SWAP1 SSTORE POP PUSH2 0x94B JUMP JUMPDEST PUSH1 0x4 DUP2 EQ ISZERO PUSH2 0x8AE JUMPI PUSH8 0x8AC7230489E80000 PUSH1 0x4 PUSH1 0x0 PUSH1 0x3 DUP2 MSTORE PUSH1 0x20 ADD SWAP1 DUP2 MSTORE PUSH1 0x20 ADD PUSH1 0x0 KECCAK256 PUSH1 0x1 DUP2 SLOAD DUP2 LT PUSH2 0x892 JUMPI INVALID JUMPDEST SWAP1 PUSH1 0x0 MSTORE PUSH1 0x20 PUSH1 0x0 KECCAK256 ADD PUSH1 0x0 DUP3 DUP3 SLOAD ADD SWAP3 POP POP DUP2 SWAP1 SSTORE POP PUSH2 0x94A JUMP JUMPDEST PUSH1 0x5 DUP2 EQ ISZERO PUSH2 0x8FD JUMPI PUSH9 0x1158E460913D00000 PUSH1 0x4 PUSH1 0x0 PUSH1 0x4 DUP2 MSTORE PUSH1 0x20 ADD SWAP1 DUP2 MSTORE PUSH1 0x20 ADD PUSH1 0x0 KECCAK256 PUSH1 0x1 DUP2 SLOAD DUP2 LT PUSH2 0x8E1 JUMPI INVALID JUMPDEST SWAP1 PUSH1 0x0 MSTORE PUSH1 0x20 PUSH1 0x0 KECCAK256 ADD PUSH1 0x0 DUP3 DUP3 SLOAD ADD SWAP3 POP POP DUP2 SWAP1 SSTORE POP PUSH2 0x949 JUMP JUMPDEST PUSH1 0x6 DUP2 EQ ISZERO PUSH2 0x948 JUMPI PUSH9 0x22B1C8C1227A00000 PUSH1 0x4 PUSH1 0x0 PUSH1 0x5 DUP2 MSTORE PUSH1 0x20 ADD SWAP1 DUP2 MSTORE PUSH1 0x20 ADD PUSH1 0x0 KECCAK256 PUSH1 0x1 DUP2 SLOAD DUP2 LT PUSH2 0x930 JUMPI INVALID JUMPDEST SWAP1 PUSH1 0x0 MSTORE PUSH1 0x20 PUSH1 0x0 KECCAK256 ADD PUSH1 0x0 DUP3 DUP3 SLOAD ADD SWAP3 POP POP DUP2 SWAP1 SSTORE POP JUMPDEST JUMPDEST JUMPDEST JUMPDEST JUMPDEST JUMPDEST PUSH1 0x0 PUSH1 0x4 PUSH1 0x0 PUSH1 0x1 DUP5 SUB DUP2 MSTORE PUSH1 0x20 ADD SWAP1 DUP2 MSTORE PUSH1 0x20 ADD PUSH1 0x0 KECCAK256 PUSH1 0x1 DUP2 SLOAD DUP2 LT PUSH2 0x971 JUMPI INVALID JUMPDEST SWAP1 PUSH1 0x0 MSTORE PUSH1 0x20 PUSH1 0x0 KECCAK256 ADD SLOAD SWAP1 POP CALLER PUSH20 0xFFFFFFFFFFFFFFFFFFFFFFFFFFFFFFFFFFFFFFFF AND PUSH2 0x8FC DUP3 SWAP1 DUP2 ISZERO MUL SWAP1 PUSH1 0x40 MLOAD PUSH1 0x0 PUSH1 0x40 MLOAD DUP1 DUP4 SUB DUP2 DUP6 DUP9 DUP9 CALL SWAP4 POP POP POP POP ISZERO DUP1 ISZERO PUSH2 0x9C4 JUMPI RETURNDATASIZE PUSH1 0x0 DUP1 RETURNDATACOPY RETURNDATASIZE PUSH1 0x0 REVERT JUMPDEST POP PUSH1 0x2 PUSH1 0x0 CALLER PUSH20 0xFFFFFFFFFFFFFFFFFFFFFFFFFFFFFFFFFFFFFFFF AND PUSH20 0xFFFFFFFFFFFFFFFFFFFFFFFFFFFFFFFFFFFFFFFF AND DUP2 MSTORE PUSH1 0x20 ADD SWAP1 DUP2 MSTORE PUSH1 0x20 ADD PUSH1 0x0 KECCAK256 DUP4 DUP2 SLOAD DUP2 LT PUSH2 0xA0F JUMPI INVALID JUMPDEST SWAP1 PUSH1 0x0 MSTORE PUSH1 0x20 PUSH1 0x0 KECCAK256 ADD PUSH1 0x0 PUSH2 0xA25 SWAP2 SWAP1 PUSH2 0x17A8 JUMP JUMPDEST POP POP POP JUMP JUMPDEST PUSH1 0x0 DUP1 SLOAD SWAP1 PUSH2 0x100 EXP SWAP1 DIV PUSH20 0xFFFFFFFFFFFFFFFFFFFFFFFFFFFFFFFFFFFFFFFF AND PUSH20 0xFFFFFFFFFFFFFFFFFFFFFFFFFFFFFFFFFFFFFFFF AND CALLER PUSH20 0xFFFFFFFFFFFFFFFFFFFFFFFFFFFFFFFFFFFFFFFF AND EQ PUSH2 0xAB8 JUMPI PUSH1 0x40 MLOAD PUSH32 0x8C379A000000000000000000000000000000000000000000000000000000000 DUP2 MSTORE PUSH1 0x4 ADD PUSH2 0xAAF SWAP1 PUSH2 0x1EFD JUMP JUMPDEST PUSH1 0x40 MLOAD DUP1 SWAP2 SUB SWAP1 REVERT JUMPDEST PUSH1 0x0 PUSH1 0x5 DUP2 SWAP1 SSTORE POP PUSH1 0x0 PUSH1 0x7 DUP2 SWAP1 SSTORE POP PUSH1 0x0 JUMPDEST PUSH1 0x6 DUP2 LT ISZERO PUSH2 0xB8C JUMPI PUSH1 0x60 PUSH1 0x2 PUSH8 0xFFFFFFFFFFFFFFFF DUP2 GT DUP1 ISZERO PUSH2 0xAEE JUMPI PUSH1 0x0 DUP1 REVERT JUMPDEST POP PUSH1 0x40 MLOAD SWAP1 DUP1 DUP3 MSTORE DUP1 PUSH1 0x20 MUL PUSH1 0x20 ADD DUP3 ADD PUSH1 0x40 MSTORE DUP1 ISZERO PUSH2 0xB1D JUMPI DUP2 PUSH1 0x20 ADD PUSH1 0x20 DUP3 MUL DUP1 CALLDATASIZE DUP4 CALLDATACOPY DUP1 DUP3 ADD SWAP2 POP POP SWAP1 POP JUMPDEST POP SWAP1 POP PUSH1 0x0 DUP2 PUSH1 0x0 DUP2 MLOAD DUP2 LT PUSH2 0xB2F JUMPI INVALID JUMPDEST PUSH1 0x20 MUL PUSH1 0x20 ADD ADD DUP2 DUP2 MSTORE POP POP PUSH1 0x0 DUP2 PUSH1 0x1 DUP2 MLOAD DUP2 LT PUSH2 0xB4A JUMPI INVALID JUMPDEST PUSH1 0x20 MUL PUSH1 0x20 ADD ADD DUP2 DUP2 MSTORE POP POP DUP1 PUSH1 0x4 PUSH1 0x0 DUP5 DUP2 MSTORE PUSH1 0x20 ADD SWAP1 DUP2 MSTORE PUSH1 0x20 ADD PUSH1 0x0 KECCAK256 SWAP1 DUP1 MLOAD SWAP1 PUSH1 0x20 ADD SWAP1 PUSH2 0xB7D SWAP3 SWAP2 SWAP1 PUSH2 0x175B JUMP JUMPDEST POP POP DUP1 DUP1 PUSH1 0x1 ADD SWAP2 POP POP PUSH2 0xACB JUMP JUMPDEST POP JUMP JUMPDEST PUSH1 0x0 PUSH1 0x2 PUSH1 0x0 CALLER PUSH20 0xFFFFFFFFFFFFFFFFFFFFFFFFFFFFFFFFFFFFFFFF AND PUSH20 0xFFFFFFFFFFFFFFFFFFFFFFFFFFFFFFFFFFFFFFFF AND DUP2 MSTORE PUSH1 0x20 ADD SWAP1 DUP2 MSTORE PUSH1 0x20 ADD PUSH1 0x0 KECCAK256 DUP1 SLOAD SWAP1 POP SWAP1 POP SWAP1 JUMP JUMPDEST PUSH1 0x1 SLOAD CALLVALUE EQ PUSH2 0xC1D JUMPI PUSH1 0x40 MLOAD PUSH32 0x8C379A000000000000000000000000000000000000000000000000000000000 DUP2 MSTORE PUSH1 0x4 ADD PUSH2 0xC14 SWAP1 PUSH2 0x1F5D JUMP JUMPDEST PUSH1 0x40 MLOAD DUP1 SWAP2 SUB SWAP1 REVERT JUMPDEST PUSH1 0x6 DUP2 MLOAD EQ PUSH2 0xC61 JUMPI PUSH1 0x40 MLOAD PUSH32 0x8C379A000000000000000000000000000000000000000000000000000000000 DUP2 MSTORE PUSH1 0x4 ADD PUSH2 0xC58 SWAP1 PUSH2 0x1E7D JUMP JUMPDEST PUSH1 0x40 MLOAD DUP1 SWAP2 SUB SWAP1 REVERT JUMPDEST PUSH1 0x2 PUSH1 0x0 CALLER PUSH20 0xFFFFFFFFFFFFFFFFFFFFFFFFFFFFFFFFFFFFFFFF AND PUSH20 0xFFFFFFFFFFFFFFFFFFFFFFFFFFFFFFFFFFFFFFFF AND DUP2 MSTORE PUSH1 0x20 ADD SWAP1 DUP2 MSTORE PUSH1 0x20 ADD PUSH1 0x0 KECCAK256 DUP2 SWAP1 DUP1 PUSH1 0x1 DUP2 SLOAD ADD DUP1 DUP3 SSTORE DUP1 SWAP2 POP POP PUSH1 0x1 SWAP1 SUB SWAP1 PUSH1 0x0 MSTORE PUSH1 0x20 PUSH1 0x0 KECCAK256 ADD PUSH1 0x0 SWAP1 SWAP2 SWAP1 SWAP2 SWAP1 SWAP2 POP SWAP1 DUP1 MLOAD SWAP1 PUSH1 0x20 ADD SWAP1 PUSH2 0xCD9 SWAP3 SWAP2 SWAP1 PUSH2 0x175B JUMP JUMPDEST POP POP JUMP JUMPDEST PUSH1 0x0 DUP1 SLOAD SWAP1 PUSH2 0x100 EXP SWAP1 DIV PUSH20 0xFFFFFFFFFFFFFFFFFFFFFFFFFFFFFFFFFFFFFFFF AND PUSH20 0xFFFFFFFFFFFFFFFFFFFFFFFFFFFFFFFFFFFFFFFF AND CALLER PUSH20 0xFFFFFFFFFFFFFFFFFFFFFFFFFFFFFFFFFFFFFFFF AND EQ PUSH2 0xD6B JUMPI PUSH1 0x40 MLOAD PUSH32 0x8C379A000000000000000000000000000000000000000000000000000000000 DUP2 MSTORE PUSH1 0x4 ADD PUSH2 0xD62 SWAP1 PUSH2 0x1E9D JUMP JUMPDEST PUSH1 0x40 MLOAD DUP1 SWAP2 SUB SWAP1 REVERT JUMPDEST PUSH1 0x0 PUSH1 0x7 SLOAD PUSH1 0x5 SLOAD ADD SWAP1 POP PUSH1 0x0 JUMPDEST PUSH1 0x6 DUP2 LT ISZERO PUSH2 0xE31 JUMPI PUSH1 0x0 DUP3 PUSH1 0x5 SLOAD DUP2 PUSH2 0xD8F JUMPI INVALID JUMPDEST DIV PUSH1 0x4 PUSH1 0x0 DUP5 DUP2 MSTORE PUSH1 0x20 ADD SWAP1 DUP2 MSTORE PUSH1 0x20 ADD PUSH1 0x0 KECCAK256 PUSH1 0x1 DUP2 SLOAD DUP2 LT PUSH2 0xDAF JUMPI INVALID JUMPDEST SWAP1 PUSH1 0x0 MSTORE PUSH1 0x20 PUSH1 0x0 KECCAK256 ADD SLOAD MUL SWAP1 POP PUSH1 0x0 PUSH1 0x4 PUSH1 0x0 DUP5 DUP2 MSTORE PUSH1 0x20 ADD SWAP1 DUP2 MSTORE PUSH1 0x20 ADD PUSH1 0x0 KECCAK256 PUSH1 0x1 DUP2 SLOAD DUP2 LT PUSH2 0xDDE JUMPI INVALID JUMPDEST SWAP1 PUSH1 0x0 MSTORE PUSH1 0x20 PUSH1 0x0 KECCAK256 ADD DUP2 SWAP1 SSTORE POP DUP1 PUSH1 0x4 PUSH1 0x0 DUP5 DUP2 MSTORE PUSH1 0x20 ADD SWAP1 DUP2 MSTORE PUSH1 0x20 ADD PUSH1 0x0 KECCAK256 PUSH1 0x0 DUP2 SLOAD DUP2 LT PUSH2 0xE0C JUMPI INVALID JUMPDEST SWAP1 PUSH1 0x0 MSTORE PUSH1 0x20 PUSH1 0x0 KECCAK256 ADD PUSH1 0x0 DUP3 DUP3 SLOAD ADD SWAP3 POP POP DUP2 SWAP1 SSTORE POP POP DUP1 DUP1 PUSH1 0x1 ADD SWAP2 POP POP PUSH2 0xD79 JUMP JUMPDEST POP DUP1 PUSH1 0x5 SLOAD DUP2 PUSH2 0xE3D JUMPI INVALID JUMPDEST DIV PUSH1 0x6 SLOAD MUL PUSH1 0x7 DUP2 SWAP1 SSTORE POP POP JUMP JUMPDEST PUSH1 0x0 DUP1 SLOAD SWAP1 PUSH2 0x100 EXP SWAP1 DIV PUSH20 0xFFFFFFFFFFFFFFFFFFFFFFFFFFFFFFFFFFFFFFFF AND PUSH20 0xFFFFFFFFFFFFFFFFFFFFFFFFFFFFFFFFFFFFFFFF AND CALLER PUSH20 0xFFFFFFFFFFFFFFFFFFFFFFFFFFFFFFFFFFFFFFFF AND EQ PUSH2 0xED9 JUMPI PUSH1 0x40 MLOAD PUSH32 0x8C379A000000000000000000000000000000000000000000000000000000000 DUP2 MSTORE PUSH1 0x4 ADD PUSH2 0xED0 SWAP1 PUSH2 0x1EDD JUMP JUMPDEST PUSH1 0x40 MLOAD DUP1 SWAP2 SUB SWAP1 REVERT JUMPDEST PUSH1 0x0 JUMPDEST PUSH1 0x6 DUP2 LT ISZERO PUSH2 0xF93 JUMPI PUSH1 0x0 PUSH1 0x4 PUSH1 0x0 DUP4 DUP2 MSTORE PUSH1 0x20 ADD SWAP1 DUP2 MSTORE PUSH1 0x20 ADD PUSH1 0x0 KECCAK256 PUSH1 0x1 DUP2 SLOAD DUP2 LT PUSH2 0xF06 JUMPI INVALID JUMPDEST SWAP1 PUSH1 0x0 MSTORE PUSH1 0x20 PUSH1 0x0 KECCAK256 ADD SLOAD PUSH1 0x4 PUSH1 0x0 DUP5 DUP2 MSTORE PUSH1 0x20 ADD SWAP1 DUP2 MSTORE PUSH1 0x20 ADD PUSH1 0x0 KECCAK256 PUSH1 0x0 DUP2 SLOAD DUP2 LT PUSH2 0xF30 JUMPI INVALID JUMPDEST SWAP1 PUSH1 0x0 MSTORE PUSH1 0x20 PUSH1 0x0 KECCAK256 ADD SLOAD ADD SWAP1 POP CALLER PUSH20 0xFFFFFFFFFFFFFFFFFFFFFFFFFFFFFFFFFFFFFFFF AND PUSH2 0x8FC DUP3 SWAP1 DUP2 ISZERO MUL SWAP1 PUSH1 0x40 MLOAD PUSH1 0x0 PUSH1 0x40 MLOAD DUP1 DUP4 SUB DUP2 DUP6 DUP9 DUP9 CALL SWAP4 POP POP POP POP ISZERO DUP1 ISZERO PUSH2 0xF84 JUMPI RETURNDATASIZE PUSH1 0x0 DUP1 RETURNDATACOPY RETURNDATASIZE PUSH1 0x0 REVERT JUMPDEST POP POP DUP1 DUP1 PUSH1 0x1 ADD SWAP2 POP POP PUSH2 0xEDC JUMP JUMPDEST POP PUSH1 0x0 PUSH1 0x7 DUP2 SWAP1 SSTORE POP JUMP JUMPDEST PUSH2 0xFA6 PUSH2 0x17C9 JUMP JUMPDEST PUSH2 0xFAE PUSH2 0x17C9 JUMP JUMPDEST PUSH1 0x0 JUMPDEST PUSH1 0x6 DUP2 LT ISZERO PUSH2 0xFF4 JUMPI PUSH1 0x3 DUP2 DUP2 SLOAD DUP2 LT PUSH2 0xFC7 JUMPI INVALID JUMPDEST SWAP1 PUSH1 0x0 MSTORE PUSH1 0x20 PUSH1 0x0 KECCAK256 ADD SLOAD DUP3 DUP3 PUSH1 0x6 DUP2 LT PUSH2 0xFDE JUMPI INVALID JUMPDEST PUSH1 0x20 MUL ADD DUP2 DUP2 MSTORE POP POP DUP1 DUP1 PUSH1 0x1 ADD SWAP2 POP POP PUSH2 0xFB1 JUMP JUMPDEST POP DUP1 SWAP2 POP POP SWAP1 JUMP JUMPDEST PUSH1 0x0 DUP1 SLOAD SWAP1 PUSH2 0x100 EXP SWAP1 DIV PUSH20 0xFFFFFFFFFFFFFFFFFFFFFFFFFFFFFFFFFFFFFFFF AND DUP2 JUMP JUMPDEST PUSH1 0x0 PUSH1 0x5 DUP2 SWAP1 SSTORE POP PUSH1 0x0 PUSH1 0x7 DUP2 SWAP1 SSTORE POP PUSH1 0x0 DUP1 SLOAD SWAP1 PUSH2 0x100 EXP SWAP1 DIV PUSH20 0xFFFFFFFFFFFFFFFFFFFFFFFFFFFFFFFFFFFFFFFF AND PUSH20 0xFFFFFFFFFFFFFFFFFFFFFFFFFFFFFFFFFFFFFFFF AND CALLER PUSH20 0xFFFFFFFFFFFFFFFFFFFFFFFFFFFFFFFFFFFFFFFF AND EQ PUSH2 0x10BE JUMPI PUSH1 0x40 MLOAD PUSH32 0x8C379A000000000000000000000000000000000000000000000000000000000 DUP2 MSTORE PUSH1 0x4 ADD PUSH2 0x10B5 SWAP1 PUSH2 0x1F3D JUMP JUMPDEST PUSH1 0x40 MLOAD DUP1 SWAP2 SUB SWAP1 REVERT JUMPDEST PUSH1 0x0 JUMPDEST PUSH1 0x2 PUSH1 0x0 CALLER PUSH20 0xFFFFFFFFFFFFFFFFFFFFFFFFFFFFFFFFFFFFFFFF AND PUSH20 0xFFFFFFFFFFFFFFFFFFFFFFFFFFFFFFFFFFFFFFFF AND DUP2 MSTORE PUSH1 0x20 ADD SWAP1 DUP2 MSTORE PUSH1 0x20 ADD PUSH1 0x0 KECCAK256 DUP1 SLOAD SWAP1 POP DUP2 LT ISZERO PUSH2 0x150C JUMPI PUSH1 0x60 PUSH1 0x2 PUSH1 0x0 CALLER PUSH20 0xFFFFFFFFFFFFFFFFFFFFFFFFFFFFFFFFFFFFFFFF AND PUSH20 0xFFFFFFFFFFFFFFFFFFFFFFFFFFFFFFFFFFFFFFFF AND DUP2 MSTORE PUSH1 0x20 ADD SWAP1 DUP2 MSTORE PUSH1 0x20 ADD PUSH1 0x0 KECCAK256 DUP3 DUP2 SLOAD DUP2 LT PUSH2 0x1157 JUMPI INVALID JUMPDEST SWAP1 PUSH1 0x0 MSTORE PUSH1 0x20 PUSH1 0x0 KECCAK256 ADD DUP1 SLOAD DUP1 PUSH1 0x20 MUL PUSH1 0x20 ADD PUSH1 0x40 MLOAD SWAP1 DUP2 ADD PUSH1 0x40 MSTORE DUP1 SWAP3 SWAP2 SWAP1 DUP2 DUP2 MSTORE PUSH1 0x20 ADD DUP3 DUP1 SLOAD DUP1 ISZERO PUSH2 0x11AB JUMPI PUSH1 0x20 MUL DUP3 ADD SWAP2 SWAP1 PUSH1 0x0 MSTORE PUSH1 0x20 PUSH1 0x0 KECCAK256 SWAP1 JUMPDEST DUP2 SLOAD DUP2 MSTORE PUSH1 0x20 ADD SWAP1 PUSH1 0x1 ADD SWAP1 DUP1 DUP4 GT PUSH2 0x1197 JUMPI JUMPDEST POP POP POP POP POP SWAP1 POP PUSH1 0x0 DUP1 JUMPDEST PUSH1 0x6 DUP2 LT ISZERO PUSH2 0x1207 JUMPI PUSH1 0x3 DUP2 DUP2 SLOAD DUP2 LT PUSH2 0x11CC JUMPI INVALID JUMPDEST SWAP1 PUSH1 0x0 MSTORE PUSH1 0x20 PUSH1 0x0 KECCAK256 ADD SLOAD DUP4 DUP3 DUP2 MLOAD DUP2 LT PUSH2 0x11E3 JUMPI INVALID JUMPDEST PUSH1 0x20 MUL PUSH1 0x20 ADD ADD MLOAD EQ ISZERO PUSH2 0x11FA JUMPI DUP2 DUP1 PUSH1 0x1 ADD SWAP3 POP POP JUMPDEST DUP1 DUP1 PUSH1 0x1 ADD SWAP2 POP POP PUSH2 0x11B6 JUMP JUMPDEST POP PUSH1 0x1 DUP2 EQ ISZERO PUSH2 0x1284 JUMPI PUSH1 0x0 PUSH1 0x4 PUSH1 0x0 DUP1 DUP2 MSTORE PUSH1 0x20 ADD SWAP1 DUP2 MSTORE PUSH1 0x20 ADD PUSH1 0x0 KECCAK256 PUSH1 0x0 DUP2 SLOAD DUP2 LT PUSH2 0x1232 JUMPI INVALID JUMPDEST SWAP1 PUSH1 0x0 MSTORE PUSH1 0x20 PUSH1 0x0 KECCAK256 ADD DUP2 SWAP1 SSTORE POP PUSH8 0x1BC16D674EC80000 PUSH1 0x4 PUSH1 0x0 DUP1 DUP2 MSTORE PUSH1 0x20 ADD SWAP1 DUP2 MSTORE PUSH1 0x20 ADD PUSH1 0x0 KECCAK256 PUSH1 0x0 DUP2 SLOAD DUP2 LT PUSH2 0x1268 JUMPI INVALID JUMPDEST SWAP1 PUSH1 0x0 MSTORE PUSH1 0x20 PUSH1 0x0 KECCAK256 ADD PUSH1 0x0 DUP3 DUP3 SLOAD ADD SWAP3 POP POP DUP2 SWAP1 SSTORE POP PUSH2 0x14FD JUMP JUMPDEST PUSH1 0x2 DUP2 EQ ISZERO PUSH2 0x1302 JUMPI PUSH1 0x0 PUSH1 0x4 PUSH1 0x0 PUSH1 0x1 DUP2 MSTORE PUSH1 0x20 ADD SWAP1 DUP2 MSTORE PUSH1 0x20 ADD PUSH1 0x0 KECCAK256 PUSH1 0x0 DUP2 SLOAD DUP2 LT PUSH2 0x12AF JUMPI INVALID JUMPDEST SWAP1 PUSH1 0x0 MSTORE PUSH1 0x20 PUSH1 0x0 KECCAK256 ADD DUP2 SWAP1 SSTORE POP PUSH8 0x29A2241AF62C0000 PUSH1 0x4 PUSH1 0x0 PUSH1 0x1 DUP2 MSTORE PUSH1 0x20 ADD SWAP1 DUP2 MSTORE PUSH1 0x20 ADD PUSH1 0x0 KECCAK256 PUSH1 0x0 DUP2 SLOAD DUP2 LT PUSH2 0x12E6 JUMPI INVALID JUMPDEST SWAP1 PUSH1 0x0 MSTORE PUSH1 0x20 PUSH1 0x0 KECCAK256 ADD PUSH1 0x0 DUP3 DUP3 SLOAD ADD SWAP3 POP POP DUP2 SWAP1 SSTORE POP PUSH2 0x14FC JUMP JUMPDEST PUSH1 0x3 DUP2 EQ ISZERO PUSH2 0x1380 JUMPI PUSH1 0x0 PUSH1 0x4 PUSH1 0x0 PUSH1 0x2 DUP2 MSTORE PUSH1 0x20 ADD SWAP1 DUP2 MSTORE PUSH1 0x20 ADD PUSH1 0x0 KECCAK256 PUSH1 0x0 DUP2 SLOAD DUP2 LT PUSH2 0x132D JUMPI INVALID JUMPDEST SWAP1 PUSH1 0x0 MSTORE PUSH1 0x20 PUSH1 0x0 KECCAK256 ADD DUP2 SWAP1 SSTORE POP PUSH8 0x4563918244F40000 PUSH1 0x4 PUSH1 0x0 PUSH1 0x2 DUP2 MSTORE PUSH1 0x20 ADD SWAP1 DUP2 MSTORE PUSH1 0x20 ADD PUSH1 0x0 KECCAK256 PUSH1 0x0 DUP2 SLOAD DUP2 LT PUSH2 0x1364 JUMPI INVALID JUMPDEST SWAP1 PUSH1 0x0 MSTORE PUSH1 0x20 PUSH1 0x0 KECCAK256 ADD PUSH1 0x0 DUP3 DUP3 SLOAD ADD SWAP3 POP POP DUP2 SWAP1 SSTORE POP PUSH2 0x14FB JUMP JUMPDEST PUSH1 0x4 DUP2 EQ ISZERO PUSH2 0x13FE JUMPI PUSH1 0x0 PUSH1 0x4 PUSH1 0x0 PUSH1 0x3 DUP2 MSTORE PUSH1 0x20 ADD SWAP1 DUP2 MSTORE PUSH1 0x20 ADD PUSH1 0x0 KECCAK256 PUSH1 0x0 DUP2 SLOAD DUP2 LT PUSH2 0x13AB JUMPI INVALID JUMPDEST SWAP1 PUSH1 0x0 MSTORE PUSH1 0x20 PUSH1 0x0 KECCAK256 ADD DUP2 SWAP1 SSTORE POP PUSH8 0x8AC7230489E80000 PUSH1 0x4 PUSH1 0x0 PUSH1 0x3 DUP2 MSTORE PUSH1 0x20 ADD SWAP1 DUP2 MSTORE PUSH1 0x20 ADD PUSH1 0x0 KECCAK256 PUSH1 0x0 DUP2 SLOAD DUP2 LT PUSH2 0x13E2 JUMPI INVALID JUMPDEST SWAP1 PUSH1 0x0 MSTORE PUSH1 0x20 PUSH1 0x0 KECCAK256 ADD PUSH1 0x0 DUP3 DUP3 SLOAD ADD SWAP3 POP POP DUP2 SWAP1 SSTORE POP PUSH2 0x14FA JUMP JUMPDEST PUSH1 0x5 DUP2 EQ ISZERO PUSH2 0x147D JUMPI PUSH1 0x0 PUSH1 0x4 PUSH1 0x0 PUSH1 0x4 DUP2 MSTORE PUSH1 0x20 ADD SWAP1 DUP2 MSTORE PUSH1 0x20 ADD PUSH1 0x0 KECCAK256 PUSH1 0x0 DUP2 SLOAD DUP2 LT PUSH2 0x1429 JUMPI INVALID JUMPDEST SWAP1 PUSH1 0x0 MSTORE PUSH1 0x20 PUSH1 0x0 KECCAK256 ADD DUP2 SWAP1 SSTORE POP PUSH9 0x1158E460913D00000 PUSH1 0x4 PUSH1 0x0 PUSH1 0x4 DUP2 MSTORE PUSH1 0x20 ADD SWAP1 DUP2 MSTORE PUSH1 0x20 ADD PUSH1 0x0 KECCAK256 PUSH1 0x0 DUP2 SLOAD DUP2 LT PUSH2 0x1461 JUMPI INVALID JUMPDEST SWAP1 PUSH1 0x0 MSTORE PUSH1 0x20 PUSH1 0x0 KECCAK256 ADD PUSH1 0x0 DUP3 DUP3 SLOAD ADD SWAP3 POP POP DUP2 SWAP1 SSTORE POP PUSH2 0x14F9 JUMP JUMPDEST PUSH1 0x6 DUP2 EQ ISZERO PUSH2 0x14F8 JUMPI PUSH1 0x0 PUSH1 0x4 PUSH1 0x0 PUSH1 0x5 DUP2 MSTORE PUSH1 0x20 ADD SWAP1 DUP2 MSTORE PUSH1 0x20 ADD PUSH1 0x0 KECCAK256 PUSH1 0x0 DUP2 SLOAD DUP2 LT PUSH2 0x14A8 JUMPI INVALID JUMPDEST SWAP1 PUSH1 0x0 MSTORE PUSH1 0x20 PUSH1 0x0 KECCAK256 ADD DUP2 SWAP1 SSTORE POP PUSH9 0x22B1C8C1227A00000 PUSH1 0x4 PUSH1 0x0 PUSH1 0x5 DUP2 MSTORE PUSH1 0x20 ADD SWAP1 DUP2 MSTORE PUSH1 0x20 ADD PUSH1 0x0 KECCAK256 PUSH1 0x0 DUP2 SLOAD DUP2 LT PUSH2 0x14E0 JUMPI INVALID JUMPDEST SWAP1 PUSH1 0x0 MSTORE PUSH1 0x20 PUSH1 0x0 KECCAK256 ADD PUSH1 0x0 DUP3 DUP3 SLOAD ADD SWAP3 POP POP DUP2 SWAP1 SSTORE POP JUMPDEST JUMPDEST JUMPDEST JUMPDEST JUMPDEST JUMPDEST POP POP DUP1 DUP1 PUSH1 0x1 ADD SWAP2 POP POP PUSH2 0x10C1 JUMP JUMPDEST POP PUSH1 0x0 JUMPDEST PUSH1 0x6 DUP2 LT ISZERO PUSH2 0x1598 JUMPI PUSH1 0x4 PUSH1 0x0 DUP3 DUP2 MSTORE PUSH1 0x20 ADD SWAP1 DUP2 MSTORE PUSH1 0x20 ADD PUSH1 0x0 KECCAK256 PUSH1 0x0 DUP2 SLOAD DUP2 LT PUSH2 0x1538 JUMPI INVALID JUMPDEST SWAP1 PUSH1 0x0 MSTORE PUSH1 0x20 PUSH1 0x0 KECCAK256 ADD SLOAD PUSH1 0x5 PUSH1 0x0 DUP3 DUP3 SLOAD ADD SWAP3 POP POP DUP2 SWAP1 SSTORE POP PUSH1 0x4 PUSH1 0x0 DUP3 DUP2 MSTORE PUSH1 0x20 ADD SWAP1 DUP2 MSTORE PUSH1 0x20 ADD PUSH1 0x0 KECCAK256 PUSH1 0x1 DUP2 SLOAD DUP2 LT PUSH2 0x1571 JUMPI INVALID JUMPDEST SWAP1 PUSH1 0x0 MSTORE PUSH1 0x20 PUSH1 0x0 KECCAK256 ADD SLOAD PUSH1 0x7 PUSH1 0x0 DUP3 DUP3 SLOAD ADD SWAP3 POP POP DUP2 SWAP1 SSTORE POP DUP1 DUP1 PUSH1 0x1 ADD SWAP2 POP POP PUSH2 0x1510 JUMP JUMPDEST POP JUMP JUMPDEST PUSH1 0x6 SLOAD DUP2 JUMP JUMPDEST PUSH1 0x0 DUP1 SLOAD SWAP1 PUSH2 0x100 EXP SWAP1 DIV PUSH20 0xFFFFFFFFFFFFFFFFFFFFFFFFFFFFFFFFFFFFFFFF AND PUSH20 0xFFFFFFFFFFFFFFFFFFFFFFFFFFFFFFFFFFFFFFFF AND CALLER PUSH20 0xFFFFFFFFFFFFFFFFFFFFFFFFFFFFFFFFFFFFFFFF AND EQ PUSH2 0x162F JUMPI PUSH1 0x40 MLOAD PUSH32 0x8C379A000000000000000000000000000000000000000000000000000000000 DUP2 MSTORE PUSH1 0x4 ADD PUSH2 0x1626 SWAP1 PUSH2 0x1F1D JUMP JUMPDEST PUSH1 0x40 MLOAD DUP1 SWAP2 SUB SWAP1 REVERT JUMPDEST PUSH1 0x0 JUMPDEST PUSH1 0x6 DUP2 LT ISZERO PUSH2 0x16AC JUMPI PUSH1 0x0 PUSH1 0xA TIMESTAMP DUP4 PUSH1 0x40 MLOAD PUSH1 0x20 ADD PUSH2 0x1652 SWAP3 SWAP2 SWAP1 PUSH2 0x1DF9 JUMP JUMPDEST PUSH1 0x40 MLOAD PUSH1 0x20 DUP2 DUP4 SUB SUB DUP2 MSTORE SWAP1 PUSH1 0x40 MSTORE DUP1 MLOAD SWAP1 PUSH1 0x20 ADD KECCAK256 PUSH1 0x0 SHR DUP2 PUSH2 0x1672 JUMPI INVALID JUMPDEST MOD SWAP1 POP PUSH1 0x3 DUP2 SWAP1 DUP1 PUSH1 0x1 DUP2 SLOAD ADD DUP1 DUP3 SSTORE DUP1 SWAP2 POP POP PUSH1 0x1 SWAP1 SUB SWAP1 PUSH1 0x0 MSTORE PUSH1 0x20 PUSH1 0x0 KECCAK256 ADD PUSH1 0x0 SWAP1 SWAP2 SWAP1 SWAP2 SWAP1 SWAP2 POP SSTORE POP DUP1 DUP1 PUSH1 0x1 ADD SWAP2 POP POP PUSH2 0x1632 JUMP JUMPDEST POP JUMP JUMPDEST PUSH1 0x60 PUSH1 0x2 PUSH1 0x0 CALLER PUSH20 0xFFFFFFFFFFFFFFFFFFFFFFFFFFFFFFFFFFFFFFFF AND PUSH20 0xFFFFFFFFFFFFFFFFFFFFFFFFFFFFFFFFFFFFFFFF AND DUP2 MSTORE PUSH1 0x20 ADD SWAP1 DUP2 MSTORE PUSH1 0x20 ADD PUSH1 0x0 KECCAK256 DUP3 DUP2 SLOAD DUP2 LT PUSH2 0x16FB JUMPI INVALID JUMPDEST SWAP1 PUSH1 0x0 MSTORE PUSH1 0x20 PUSH1 0x0 KECCAK256 ADD DUP1 SLOAD DUP1 PUSH1 0x20 MUL PUSH1 0x20 ADD PUSH1 0x40 MLOAD SWAP1 DUP2 ADD PUSH1 0x40 MSTORE DUP1 SWAP3 SWAP2 SWAP1 DUP2 DUP2 MSTORE PUSH1 0x20 ADD DUP3 DUP1 SLOAD DUP1 ISZERO PUSH2 0x174F JUMPI PUSH1 0x20 MUL DUP3 ADD SWAP2 SWAP1 PUSH1 0x0 MSTORE PUSH1 0x20 PUSH1 0x0 KECCAK256 SWAP1 JUMPDEST DUP2 SLOAD DUP2 MSTORE PUSH1 0x20 ADD SWAP1 PUSH1 0x1 ADD SWAP1 DUP1 DUP4 GT PUSH2 0x173B JUMPI JUMPDEST POP POP POP POP POP SWAP1 POP SWAP2 SWAP1 POP JUMP JUMPDEST DUP3 DUP1 SLOAD DUP3 DUP3 SSTORE SWAP1 PUSH1 0x0 MSTORE PUSH1 0x20 PUSH1 0x0 KECCAK256 SWAP1 DUP2 ADD SWAP3 DUP3 ISZERO PUSH2 0x1797 JUMPI SWAP2 PUSH1 0x20 MUL DUP3 ADD JUMPDEST DUP3 DUP2 GT ISZERO PUSH2 0x1796 JUMPI DUP3 MLOAD DUP3 SSTORE SWAP2 PUSH1 0x20 ADD SWAP2 SWAP1 PUSH1 0x1 ADD SWAP1 PUSH2 0x177B JUMP JUMPDEST JUMPDEST POP SWAP1 POP PUSH2 0x17A4 SWAP2 SWAP1 PUSH2 0x17EB JUMP JUMPDEST POP SWAP1 JUMP JUMPDEST POP DUP1 SLOAD PUSH1 0x0 DUP3 SSTORE SWAP1 PUSH1 0x0 MSTORE PUSH1 0x20 PUSH1 0x0 KECCAK256 SWAP1 DUP2 ADD SWAP1 PUSH2 0x17C6 SWAP2 SWAP1 PUSH2 0x17EB JUMP JUMPDEST POP JUMP JUMPDEST PUSH1 0x40 MLOAD DUP1 PUSH1 0xC0 ADD PUSH1 0x40 MSTORE DUP1 PUSH1 0x6 SWAP1 PUSH1 0x20 DUP3 MUL DUP1 CALLDATASIZE DUP4 CALLDATACOPY DUP1 DUP3 ADD SWAP2 POP POP SWAP1 POP POP SWAP1 JUMP JUMPDEST JUMPDEST DUP1 DUP3 GT ISZERO PUSH2 0x1804 JUMPI PUSH1 0x0 DUP2 PUSH1 0x0 SWAP1 SSTORE POP PUSH1 0x1 ADD PUSH2 0x17EC JUMP JUMPDEST POP SWAP1 JUMP JUMPDEST PUSH1 0x0 DUP2 CALLDATALOAD SWAP1 POP PUSH2 0x1817 DUP2 PUSH2 0x20EA JUMP JUMPDEST SWAP3 SWAP2 POP POP JUMP JUMPDEST PUSH1 0x0 DUP3 PUSH1 0x1F DUP4 ADD SLT PUSH2 0x182E JUMPI PUSH1 0x0 DUP1 REVERT JUMPDEST DUP2 CALLDATALOAD PUSH2 0x1841 PUSH2 0x183C DUP3 PUSH2 0x2005 JUMP JUMPDEST PUSH2 0x1FD8 JUMP JUMPDEST SWAP2 POP DUP2 DUP2 DUP4 MSTORE PUSH1 0x20 DUP5 ADD SWAP4 POP PUSH1 0x20 DUP2 ADD SWAP1 POP DUP4 DUP6 PUSH1 0x20 DUP5 MUL DUP3 ADD GT ISZERO PUSH2 0x1866 JUMPI PUSH1 0x0 DUP1 REVERT JUMPDEST PUSH1 0x0 JUMPDEST DUP4 DUP2 LT ISZERO PUSH2 0x1896 JUMPI DUP2 PUSH2 0x187C DUP9 DUP3 PUSH2 0x18A0 JUMP JUMPDEST DUP5 MSTORE PUSH1 0x20 DUP5 ADD SWAP4 POP PUSH1 0x20 DUP4 ADD SWAP3 POP POP PUSH1 0x1 DUP2 ADD SWAP1 POP PUSH2 0x1869 JUMP JUMPDEST POP POP POP POP SWAP3 SWAP2 POP POP JUMP JUMPDEST PUSH1 0x0 DUP2 CALLDATALOAD SWAP1 POP PUSH2 0x18AF DUP2 PUSH2 0x2101 JUMP JUMPDEST SWAP3 SWAP2 POP POP JUMP JUMPDEST PUSH1 0x0 DUP1 PUSH1 0x0 PUSH1 0x60 DUP5 DUP7 SUB SLT ISZERO PUSH2 0x18CA JUMPI PUSH1 0x0 DUP1 REVERT JUMPDEST PUSH1 0x0 PUSH2 0x18D8 DUP7 DUP3 DUP8 ADD PUSH2 0x1808 JUMP JUMPDEST SWAP4 POP POP PUSH1 0x20 PUSH2 0x18E9 DUP7 DUP3 DUP8 ADD PUSH2 0x18A0 JUMP JUMPDEST SWAP3 POP POP PUSH1 0x40 PUSH2 0x18FA DUP7 DUP3 DUP8 ADD PUSH2 0x18A0 JUMP JUMPDEST SWAP2 POP POP SWAP3 POP SWAP3 POP SWAP3 JUMP JUMPDEST PUSH1 0x0 PUSH1 0x20 DUP3 DUP5 SUB SLT ISZERO PUSH2 0x1916 JUMPI PUSH1 0x0 DUP1 REVERT JUMPDEST PUSH1 0x0 DUP3 ADD CALLDATALOAD PUSH8 0xFFFFFFFFFFFFFFFF DUP2 GT ISZERO PUSH2 0x1930 JUMPI PUSH1 0x0 DUP1 REVERT JUMPDEST PUSH2 0x193C DUP5 DUP3 DUP6 ADD PUSH2 0x181D JUMP JUMPDEST SWAP2 POP POP SWAP3 SWAP2 POP POP JUMP JUMPDEST PUSH1 0x0 PUSH1 0x20 DUP3 DUP5 SUB SLT ISZERO PUSH2 0x1957 JUMPI PUSH1 0x0 DUP1 REVERT JUMPDEST PUSH1 0x0 PUSH2 0x1965 DUP5 DUP3 DUP6 ADD PUSH2 0x18A0 JUMP JUMPDEST SWAP2 POP POP SWAP3 SWAP2 POP POP JUMP JUMPDEST PUSH1 0x0 DUP1 PUSH1 0x40 DUP4 DUP6 SUB SLT ISZERO PUSH2 0x1981 JUMPI PUSH1 0x0 DUP1 REVERT JUMPDEST PUSH1 0x0 PUSH2 0x198F DUP6 DUP3 DUP7 ADD PUSH2 0x18A0 JUMP JUMPDEST SWAP3 POP POP PUSH1 0x20 PUSH2 0x19A0 DUP6 DUP3 DUP7 ADD PUSH2 0x18A0 JUMP JUMPDEST SWAP2 POP POP SWAP3 POP SWAP3 SWAP1 POP JUMP JUMPDEST PUSH1 0x0 PUSH2 0x19B6 DUP4 DUP4 PUSH2 0x1DC4 JUMP JUMPDEST PUSH1 0x20 DUP4 ADD SWAP1 POP SWAP3 SWAP2 POP POP JUMP JUMPDEST PUSH2 0x19CB DUP2 PUSH2 0x20A4 JUMP JUMPDEST DUP3 MSTORE POP POP JUMP JUMPDEST PUSH2 0x19DA DUP2 PUSH2 0x2047 JUMP JUMPDEST PUSH2 0x19E4 DUP2 DUP5 PUSH2 0x2077 JUMP JUMPDEST SWAP3 POP PUSH2 0x19EF DUP3 PUSH2 0x202D JUMP JUMPDEST DUP1 PUSH1 0x0 JUMPDEST DUP4 DUP2 LT ISZERO PUSH2 0x1A20 JUMPI DUP2 MLOAD PUSH2 0x1A07 DUP8 DUP3 PUSH2 0x19AA JUMP JUMPDEST SWAP7 POP PUSH2 0x1A12 DUP4 PUSH2 0x205D JUMP JUMPDEST SWAP3 POP POP PUSH1 0x1 DUP2 ADD SWAP1 POP PUSH2 0x19F3 JUMP JUMPDEST POP POP POP POP POP POP JUMP JUMPDEST PUSH1 0x0 PUSH2 0x1A33 DUP3 PUSH2 0x2052 JUMP JUMPDEST PUSH2 0x1A3D DUP2 DUP6 PUSH2 0x2082 JUMP JUMPDEST SWAP4 POP PUSH2 0x1A48 DUP4 PUSH2 0x2037 JUMP JUMPDEST DUP1 PUSH1 0x0 JUMPDEST DUP4 DUP2 LT ISZERO PUSH2 0x1A79 JUMPI DUP2 MLOAD PUSH2 0x1A60 DUP9 DUP3 PUSH2 0x19AA JUMP JUMPDEST SWAP8 POP PUSH2 0x1A6B DUP4 PUSH2 0x206A JUMP JUMPDEST SWAP3 POP POP PUSH1 0x1 DUP2 ADD SWAP1 POP PUSH2 0x1A4C JUMP JUMPDEST POP DUP6 SWAP4 POP POP POP POP SWAP3 SWAP2 POP POP JUMP JUMPDEST PUSH1 0x0 PUSH2 0x1A93 PUSH1 0x19 DUP4 PUSH2 0x2093 JUMP JUMPDEST SWAP2 POP PUSH32 0x5469636B6574206D757374206861766520362064696769747300000000000000 PUSH1 0x0 DUP4 ADD MSTORE PUSH1 0x20 DUP3 ADD SWAP1 POP SWAP2 SWAP1 POP JUMP JUMPDEST PUSH1 0x0 PUSH2 0x1AD3 PUSH1 0x20 DUP4 PUSH2 0x2093 JUMP JUMPDEST SWAP2 POP PUSH32 0x4F6E6C7920746865206F776E65722063616E20656E642074686520726F756E64 PUSH1 0x0 DUP4 ADD MSTORE PUSH1 0x20 DUP3 ADD SWAP1 POP SWAP2 SWAP1 POP JUMP JUMPDEST PUSH1 0x0 PUSH2 0x1B13 PUSH1 0x21 DUP4 PUSH2 0x2093 JUMP JUMPDEST SWAP2 POP PUSH32 0x596F7520646F6E2774206861766520616E79207469636B65747320617420616C PUSH1 0x0 DUP4 ADD MSTORE PUSH32 0x6C00000000000000000000000000000000000000000000000000000000000000 PUSH1 0x20 DUP4 ADD MSTORE PUSH1 0x40 DUP3 ADD SWAP1 POP SWAP2 SWAP1 POP JUMP JUMPDEST PUSH1 0x0 PUSH2 0x1B79 PUSH1 0x24 DUP4 PUSH2 0x2093 JUMP JUMPDEST SWAP2 POP PUSH32 0x4F6E6C7920746865206F776E65722063616E2064697374726962757465207072 PUSH1 0x0 DUP4 ADD MSTORE PUSH32 0x697A657300000000000000000000000000000000000000000000000000000000 PUSH1 0x20 DUP4 ADD MSTORE PUSH1 0x40 DUP3 ADD SWAP1 POP SWAP2 SWAP1 POP JUMP JUMPDEST PUSH1 0x0 PUSH2 0x1BDF PUSH1 0x20 DUP4 PUSH2 0x2093 JUMP JUMPDEST SWAP2 POP PUSH32 0x4F6E6C7920746865206F776E65722063616E207374617274206120726F756E64 PUSH1 0x0 DUP4 ADD MSTORE PUSH1 0x20 DUP3 ADD SWAP1 POP SWAP2 SWAP1 POP JUMP JUMPDEST PUSH1 0x0 PUSH2 0x1C1F PUSH1 0x2A DUP4 PUSH2 0x2093 JUMP JUMPDEST SWAP2 POP PUSH32 0x4F6E6C7920746865206F776E65722063616E20736574207468652077696E6E69 PUSH1 0x0 DUP4 ADD MSTORE PUSH32 0x6E67206E756D6265727300000000000000000000000000000000000000000000 PUSH1 0x20 DUP4 ADD MSTORE PUSH1 0x40 DUP3 ADD SWAP1 POP SWAP2 SWAP1 POP JUMP JUMPDEST PUSH1 0x0 PUSH2 0x1C85 PUSH1 0x23 DUP4 PUSH2 0x2093 JUMP JUMPDEST SWAP2 POP PUSH32 0x4F6E6C7920746865206F776E65722063616E2063616C63756C61746520707269 PUSH1 0x0 DUP4 ADD MSTORE PUSH32 0x7A65730000000000000000000000000000000000000000000000000000000000 PUSH1 0x20 DUP4 ADD MSTORE PUSH1 0x40 DUP3 ADD SWAP1 POP SWAP2 SWAP1 POP JUMP JUMPDEST PUSH1 0x0 PUSH2 0x1CEB PUSH1 0x28 DUP4 PUSH2 0x2093 JUMP JUMPDEST SWAP2 POP PUSH32 0x596F75206E65656420746F207061792074686520636F7272656374207469636B PUSH1 0x0 DUP4 ADD MSTORE PUSH32 0x6574207072696365000000000000000000000000000000000000000000000000 PUSH1 0x20 DUP4 ADD MSTORE PUSH1 0x40 DUP3 ADD SWAP1 POP SWAP2 SWAP1 POP JUMP JUMPDEST PUSH1 0x0 PUSH2 0x1D51 PUSH1 0x1A DUP4 PUSH2 0x2093 JUMP JUMPDEST SWAP2 POP PUSH32 0x4E6F207469636B657420776974682074686174206E756D626572000000000000 PUSH1 0x0 DUP4 ADD MSTORE PUSH1 0x20 DUP3 ADD SWAP1 POP SWAP2 SWAP1 POP JUMP JUMPDEST PUSH1 0x0 PUSH2 0x1D91 PUSH1 0x16 DUP4 PUSH2 0x2093 JUMP JUMPDEST SWAP2 POP PUSH32 0x4D7573742070726F766964652036206E756D6265727300000000000000000000 PUSH1 0x0 DUP4 ADD MSTORE PUSH1 0x20 DUP3 ADD SWAP1 POP SWAP2 SWAP1 POP JUMP JUMPDEST PUSH2 0x1DCD DUP2 PUSH2 0x20D6 JUMP JUMPDEST DUP3 MSTORE POP POP JUMP JUMPDEST PUSH2 0x1DDC DUP2 PUSH2 0x20D6 JUMP JUMPDEST DUP3 MSTORE POP POP JUMP JUMPDEST PUSH2 0x1DF3 PUSH2 0x1DEE DUP3 PUSH2 0x20D6 JUMP JUMPDEST PUSH2 0x20E0 JUMP JUMPDEST DUP3 MSTORE POP POP JUMP JUMPDEST PUSH1 0x0 PUSH2 0x1E05 DUP3 DUP6 PUSH2 0x1DE2 JUMP JUMPDEST PUSH1 0x20 DUP3 ADD SWAP2 POP PUSH2 0x1E15 DUP3 DUP5 PUSH2 0x1DE2 JUMP JUMPDEST PUSH1 0x20 DUP3 ADD SWAP2 POP DUP2 SWAP1 POP SWAP4 SWAP3 POP POP POP JUMP JUMPDEST PUSH1 0x0 PUSH1 0x20 DUP3 ADD SWAP1 POP PUSH2 0x1E3A PUSH1 0x0 DUP4 ADD DUP5 PUSH2 0x19C2 JUMP JUMPDEST SWAP3 SWAP2 POP POP JUMP JUMPDEST PUSH1 0x0 PUSH1 0xC0 DUP3 ADD SWAP1 POP PUSH2 0x1E55 PUSH1 0x0 DUP4 ADD DUP5 PUSH2 0x19D1 JUMP JUMPDEST SWAP3 SWAP2 POP POP JUMP JUMPDEST PUSH1 0x0 PUSH1 0x20 DUP3 ADD SWAP1 POP DUP2 DUP2 SUB PUSH1 0x0 DUP4 ADD MSTORE PUSH2 0x1E75 DUP2 DUP5 PUSH2 0x1A28 JUMP JUMPDEST SWAP1 POP SWAP3 SWAP2 POP POP JUMP JUMPDEST PUSH1 0x0 PUSH1 0x20 DUP3 ADD SWAP1 POP DUP2 DUP2 SUB PUSH1 0x0 DUP4 ADD MSTORE PUSH2 0x1E96 DUP2 PUSH2 0x1A86 JUMP JUMPDEST SWAP1 POP SWAP2 SWAP1 POP JUMP JUMPDEST PUSH1 0x0 PUSH1 0x20 DUP3 ADD SWAP1 POP DUP2 DUP2 SUB PUSH1 0x0 DUP4 ADD MSTORE PUSH2 0x1EB6 DUP2 PUSH2 0x1AC6 JUMP JUMPDEST SWAP1 POP SWAP2 SWAP1 POP JUMP JUMPDEST PUSH1 0x0 PUSH1 0x20 DUP3 ADD SWAP1 POP DUP2 DUP2 SUB PUSH1 0x0 DUP4 ADD MSTORE PUSH2 0x1ED6 DUP2 PUSH2 0x1B06 JUMP JUMPDEST SWAP1 POP SWAP2 SWAP1 POP JUMP JUMPDEST PUSH1 0x0 PUSH1 0x20 DUP3 ADD SWAP1 POP DUP2 DUP2 SUB PUSH1 0x0 DUP4 ADD MSTORE PUSH2 0x1EF6 DUP2 PUSH2 0x1B6C JUMP JUMPDEST SWAP1 POP SWAP2 SWAP1 POP JUMP JUMPDEST PUSH1 0x0 PUSH1 0x20 DUP3 ADD SWAP1 POP DUP2 DUP2 SUB PUSH1 0x0 DUP4 ADD MSTORE PUSH2 0x1F16 DUP2 PUSH2 0x1BD2 JUMP JUMPDEST SWAP1 POP SWAP2 SWAP1 POP JUMP JUMPDEST PUSH1 0x0 PUSH1 0x20 DUP3 ADD SWAP1 POP DUP2 DUP2 SUB PUSH1 0x0 DUP4 ADD MSTORE PUSH2 0x1F36 DUP2 PUSH2 0x1C12 JUMP JUMPDEST SWAP1 POP SWAP2 SWAP1 POP JUMP JUMPDEST PUSH1 0x0 PUSH1 0x20 DUP3 ADD SWAP1 POP DUP2 DUP2 SUB PUSH1 0x0 DUP4 ADD MSTORE PUSH2 0x1F56 DUP2 PUSH2 0x1C78 JUMP JUMPDEST SWAP1 POP SWAP2 SWAP1 POP JUMP JUMPDEST PUSH1 0x0 PUSH1 0x20 DUP3 ADD SWAP1 POP DUP2 DUP2 SUB PUSH1 0x0 DUP4 ADD MSTORE PUSH2 0x1F76 DUP2 PUSH2 0x1CDE JUMP JUMPDEST SWAP1 POP SWAP2 SWAP1 POP JUMP JUMPDEST PUSH1 0x0 PUSH1 0x20 DUP3 ADD SWAP1 POP DUP2 DUP2 SUB PUSH1 0x0 DUP4 ADD MSTORE PUSH2 0x1F96 DUP2 PUSH2 0x1D44 JUMP JUMPDEST SWAP1 POP SWAP2 SWAP1 POP JUMP JUMPDEST PUSH1 0x0 PUSH1 0x20 DUP3 ADD SWAP1 POP DUP2 DUP2 SUB PUSH1 0x0 DUP4 ADD MSTORE PUSH2 0x1FB6 DUP2 PUSH2 0x1D84 JUMP JUMPDEST SWAP1 POP SWAP2 SWAP1 POP JUMP JUMPDEST PUSH1 0x0 PUSH1 0x20 DUP3 ADD SWAP1 POP PUSH2 0x1FD2 PUSH1 0x0 DUP4 ADD DUP5 PUSH2 0x1DD3 JUMP JUMPDEST SWAP3 SWAP2 POP POP JUMP JUMPDEST PUSH1 0x0 PUSH1 0x40 MLOAD SWAP1 POP DUP2 DUP2 ADD DUP2 DUP2 LT PUSH8 0xFFFFFFFFFFFFFFFF DUP3 GT OR ISZERO PUSH2 0x1FFB JUMPI PUSH1 0x0 DUP1 REVERT JUMPDEST DUP1 PUSH1 0x40 MSTORE POP SWAP2 SWAP1 POP JUMP JUMPDEST PUSH1 0x0 PUSH8 0xFFFFFFFFFFFFFFFF DUP3 GT ISZERO PUSH2 0x201C JUMPI PUSH1 0x0 DUP1 REVERT JUMPDEST PUSH1 0x20 DUP3 MUL SWAP1 POP PUSH1 0x20 DUP2 ADD SWAP1 POP SWAP2 SWAP1 POP JUMP JUMPDEST PUSH1 0x0 DUP2 SWAP1 POP SWAP2 SWAP1 POP JUMP JUMPDEST PUSH1 0x0 DUP2 SWAP1 POP PUSH1 0x20 DUP3 ADD SWAP1 POP SWAP2 SWAP1 POP JUMP JUMPDEST PUSH1 0x0 PUSH1 0x6 SWAP1 POP SWAP2 SWAP1 POP JUMP JUMPDEST PUSH1 0x0 DUP2 MLOAD SWAP1 POP SWAP2 SWAP1 POP JUMP JUMPDEST PUSH1 0x0 PUSH1 0x20 DUP3 ADD SWAP1 POP SWAP2 SWAP1 POP JUMP JUMPDEST PUSH1 0x0 PUSH1 0x20 DUP3 ADD SWAP1 POP SWAP2 SWAP1 POP JUMP JUMPDEST PUSH1 0x0 DUP2 SWAP1 POP SWAP3 SWAP2 POP POP JUMP JUMPDEST PUSH1 0x0 DUP3 DUP3 MSTORE PUSH1 0x20 DUP3 ADD SWAP1 POP SWAP3 SWAP2 POP POP JUMP JUMPDEST PUSH1 0x0 DUP3 DUP3 MSTORE PUSH1 0x20 DUP3 ADD SWAP1 POP SWAP3 SWAP2 POP POP JUMP JUMPDEST PUSH1 0x0 PUSH2 0x20AF DUP3 PUSH2 0x20B6 JUMP JUMPDEST SWAP1 POP SWAP2 SWAP1 POP JUMP JUMPDEST PUSH1 0x0 PUSH20 0xFFFFFFFFFFFFFFFFFFFFFFFFFFFFFFFFFFFFFFFF DUP3 AND SWAP1 POP SWAP2 SWAP1 POP JUMP JUMPDEST PUSH1 0x0 DUP2 SWAP1 POP SWAP2 SWAP1 POP JUMP JUMPDEST PUSH1 0x0 DUP2 SWAP1 POP SWAP2 SWAP1 POP JUMP JUMPDEST PUSH2 0x20F3 DUP2 PUSH2 0x20A4 JUMP JUMPDEST DUP2 EQ PUSH2 0x20FE JUMPI PUSH1 0x0 DUP1 REVERT JUMPDEST POP JUMP JUMPDEST PUSH2 0x210A DUP2 PUSH2 0x20D6 JUMP JUMPDEST DUP2 EQ PUSH2 0x2115 JUMPI PUSH1 0x0 DUP1 REVERT JUMPDEST POP JUMP INVALID LOG2 PUSH5 0x6970667358 0x22 SLT KECCAK256 BALANCE 0xC4 0xC7 0xC1 SIGNEXTEND BLOCKHASH PUSH26 0xE5D39A6F69EF6E87582A861544C842ABC1867120DE11B424FA64 PUSH20 0x6F6C634300060C00330000000000000000000000 "
				},
				"gasEstimates": {
					"creation": {
						"codeDepositCost": "1705200",
						"executionCost": "62686",
						"totalCost": "1767886"
					},
					"external": {
						"burnAmount()": "1174",
						"burnPool()": "1195",
						"buyTicket(uint256[])": "infinite",
						"calculatePrizes()": "infinite",
						"claimPrizes(uint256)": "infinite",
						"distributePrizes()": "infinite",
						"endRound()": "infinite",
						"getTicketsBoughtCount()": "1257",
						"getWinningNumbers()": "infinite",
						"owner()": "1233",
						"prizePools(uint256,uint256)": "infinite",
						"setWinningNumbers()": "infinite",
						"setWinningNumbers(uint256[])": "infinite",
						"startRound()": "infinite",
						"ticketPrice()": "1175",
						"tickets(address,uint256,uint256)": "infinite",
						"totalPrizePool()": "1152",
						"viewTickets(uint256)": "infinite",
						"winningNumbers(uint256)": "infinite"
					}
				},
				"methodIdentifiers": {
					"burnAmount()": "486a7e6b",
					"burnPool()": "a54b2a73",
					"buyTicket(uint256[])": "716cac96",
					"calculatePrizes()": "8e7e9a3c",
					"claimPrizes(uint256)": "541d4039",
					"distributePrizes()": "7ce52eb6",
					"endRound()": "749aa2d9",
					"getTicketsBoughtCount()": "6c0d87fe",
					"getWinningNumbers()": "84350e1d",
					"owner()": "8da5cb5b",
					"prizePools(uint256,uint256)": "1b646259",
					"setWinningNumbers()": "a7caba25",
					"setWinningNumbers(uint256[])": "1004b18d",
					"startRound()": "55e3f086",
					"ticketPrice()": "1209b1f6",
					"tickets(address,uint256,uint256)": "2115f4d1",
					"totalPrizePool()": "398ab9a7",
					"viewTickets(uint256)": "ab3eb60e",
					"winningNumbers(uint256)": "4e45f095"
				}
			},
			"storageLayout": {
				"storage": [
					{
						"astId": 4,
						"contract": "PancakeSwap_UZH/Lottery/lotteryPancake.sol:PancakeLottery",
						"label": "owner",
						"offset": 0,
						"slot": "0",
						"type": "t_address"
					},
					{
						"astId": 6,
						"contract": "PancakeSwap_UZH/Lottery/lotteryPancake.sol:PancakeLottery",
						"label": "ticketPrice",
						"offset": 0,
						"slot": "1",
						"type": "t_uint256"
					},
					{
						"astId": 12,
						"contract": "PancakeSwap_UZH/Lottery/lotteryPancake.sol:PancakeLottery",
						"label": "tickets",
						"offset": 0,
						"slot": "2",
						"type": "t_mapping(t_address,t_array(t_array(t_uint256)dyn_storage)dyn_storage)"
					},
					{
						"astId": 15,
						"contract": "PancakeSwap_UZH/Lottery/lotteryPancake.sol:PancakeLottery",
						"label": "winningNumbers",
						"offset": 0,
						"slot": "3",
						"type": "t_array(t_uint256)dyn_storage"
					},
					{
						"astId": 20,
						"contract": "PancakeSwap_UZH/Lottery/lotteryPancake.sol:PancakeLottery",
						"label": "prizePools",
						"offset": 0,
						"slot": "4",
						"type": "t_mapping(t_uint256,t_array(t_uint256)dyn_storage)"
					},
					{
						"astId": 22,
						"contract": "PancakeSwap_UZH/Lottery/lotteryPancake.sol:PancakeLottery",
						"label": "totalPrizePool",
						"offset": 0,
						"slot": "5",
						"type": "t_uint256"
					},
					{
						"astId": 24,
						"contract": "PancakeSwap_UZH/Lottery/lotteryPancake.sol:PancakeLottery",
						"label": "burnPool",
						"offset": 0,
						"slot": "6",
						"type": "t_uint256"
					},
					{
						"astId": 26,
						"contract": "PancakeSwap_UZH/Lottery/lotteryPancake.sol:PancakeLottery",
						"label": "burnAmount",
						"offset": 0,
						"slot": "7",
						"type": "t_uint256"
					}
				],
				"types": {
					"t_address": {
						"encoding": "inplace",
						"label": "address",
						"numberOfBytes": "20"
					},
					"t_array(t_array(t_uint256)dyn_storage)dyn_storage": {
						"base": "t_array(t_uint256)dyn_storage",
						"encoding": "dynamic_array",
						"label": "uint256[][]",
						"numberOfBytes": "32"
					},
					"t_array(t_uint256)dyn_storage": {
						"base": "t_uint256",
						"encoding": "dynamic_array",
						"label": "uint256[]",
						"numberOfBytes": "32"
					},
					"t_mapping(t_address,t_array(t_array(t_uint256)dyn_storage)dyn_storage)": {
						"encoding": "mapping",
						"key": "t_address",
						"label": "mapping(address => uint256[][])",
						"numberOfBytes": "32",
						"value": "t_array(t_array(t_uint256)dyn_storage)dyn_storage"
					},
					"t_mapping(t_uint256,t_array(t_uint256)dyn_storage)": {
						"encoding": "mapping",
						"key": "t_uint256",
						"label": "mapping(uint256 => uint256[])",
						"numberOfBytes": "32",
						"value": "t_array(t_uint256)dyn_storage"
					},
					"t_uint256": {
						"encoding": "inplace",
						"label": "uint256",
						"numberOfBytes": "32"
					}
				}
			},
			"userdoc": {
				"kind": "user",
				"methods": {},
				"version": 1
			}
		}
	}
}