{
	"contracts/PoolContract.sol": {
		"LiquidityPool": {
			"abi": [
				{
					"inputs": [
						{
							"internalType": "address",
							"name": "_admin",
							"type": "address"
						},
						{
							"internalType": "address",
							"name": "_factory",
							"type": "address"
						},
						{
							"internalType": "address",
							"name": "_router",
							"type": "address"
						},
						{
							"internalType": "address",
							"name": "_token0",
							"type": "address"
						},
						{
							"internalType": "address",
							"name": "_token1",
							"type": "address"
						}
					],
					"stateMutability": "nonpayable",
					"type": "constructor"
				},
				{
					"anonymous": false,
					"inputs": [
						{
							"indexed": true,
							"internalType": "address",
							"name": "owner",
							"type": "address"
						},
						{
							"indexed": true,
							"internalType": "address",
							"name": "spender",
							"type": "address"
						},
						{
							"indexed": false,
							"internalType": "uint256",
							"name": "value",
							"type": "uint256"
						}
					],
					"name": "Approval",
					"type": "event"
				},
				{
					"anonymous": false,
					"inputs": [
						{
							"indexed": true,
							"internalType": "address",
							"name": "sender",
							"type": "address"
						},
						{
							"indexed": false,
							"internalType": "uint256",
							"name": "amount0",
							"type": "uint256"
						},
						{
							"indexed": false,
							"internalType": "uint256",
							"name": "amount1",
							"type": "uint256"
						},
						{
							"indexed": true,
							"internalType": "address",
							"name": "to",
							"type": "address"
						}
					],
					"name": "Burn",
					"type": "event"
				},
				{
					"anonymous": false,
					"inputs": [
						{
							"indexed": true,
							"internalType": "address",
							"name": "sender",
							"type": "address"
						},
						{
							"indexed": false,
							"internalType": "uint256",
							"name": "amount0",
							"type": "uint256"
						},
						{
							"indexed": false,
							"internalType": "uint256",
							"name": "amount1",
							"type": "uint256"
						}
					],
					"name": "Mint",
					"type": "event"
				},
				{
					"anonymous": false,
					"inputs": [
						{
							"indexed": true,
							"internalType": "address",
							"name": "sender",
							"type": "address"
						},
						{
							"indexed": false,
							"internalType": "uint256",
							"name": "amount0In",
							"type": "uint256"
						},
						{
							"indexed": false,
							"internalType": "uint256",
							"name": "amount1In",
							"type": "uint256"
						},
						{
							"indexed": false,
							"internalType": "uint256",
							"name": "amount0Out",
							"type": "uint256"
						},
						{
							"indexed": false,
							"internalType": "uint256",
							"name": "amount1Out",
							"type": "uint256"
						},
						{
							"indexed": true,
							"internalType": "address",
							"name": "to",
							"type": "address"
						}
					],
					"name": "Swap",
					"type": "event"
				},
				{
					"anonymous": false,
					"inputs": [
						{
							"indexed": true,
							"internalType": "address",
							"name": "from",
							"type": "address"
						},
						{
							"indexed": true,
							"internalType": "address",
							"name": "to",
							"type": "address"
						},
						{
							"indexed": false,
							"internalType": "uint256",
							"name": "value",
							"type": "uint256"
						}
					],
					"name": "Transfer",
					"type": "event"
				},
				{
					"inputs": [],
					"name": "admin",
					"outputs": [
						{
							"internalType": "address",
							"name": "",
							"type": "address"
						}
					],
					"stateMutability": "view",
					"type": "function"
				},
				{
					"inputs": [
						{
							"internalType": "address",
							"name": "",
							"type": "address"
						},
						{
							"internalType": "address",
							"name": "",
							"type": "address"
						}
					],
					"name": "allowance",
					"outputs": [
						{
							"internalType": "uint256",
							"name": "",
							"type": "uint256"
						}
					],
					"stateMutability": "view",
					"type": "function"
				},
				{
					"inputs": [
						{
							"internalType": "address",
							"name": "spender",
							"type": "address"
						},
						{
							"internalType": "uint256",
							"name": "value",
							"type": "uint256"
						}
					],
					"name": "approve",
					"outputs": [
						{
							"internalType": "bool",
							"name": "",
							"type": "bool"
						}
					],
					"stateMutability": "nonpayable",
					"type": "function"
				},
				{
					"inputs": [
						{
							"internalType": "address",
							"name": "",
							"type": "address"
						}
					],
					"name": "balanceOf",
					"outputs": [
						{
							"internalType": "uint256",
							"name": "",
							"type": "uint256"
						}
					],
					"stateMutability": "view",
					"type": "function"
				},
				{
					"inputs": [
						{
							"internalType": "address",
							"name": "to",
							"type": "address"
						}
					],
					"name": "burn",
					"outputs": [
						{
							"internalType": "uint256",
							"name": "amount0",
							"type": "uint256"
						},
						{
							"internalType": "uint256",
							"name": "amount1",
							"type": "uint256"
						}
					],
					"stateMutability": "nonpayable",
					"type": "function"
				},
				{
					"inputs": [],
					"name": "factory",
					"outputs": [
						{
							"internalType": "address",
							"name": "",
							"type": "address"
						}
					],
					"stateMutability": "view",
					"type": "function"
				},
				{
					"inputs": [],
					"name": "getBalances",
					"outputs": [
						{
							"internalType": "uint256",
							"name": "balance0",
							"type": "uint256"
						},
						{
							"internalType": "uint256",
							"name": "balance1",
							"type": "uint256"
						}
					],
					"stateMutability": "view",
					"type": "function"
				},
				{
					"inputs": [],
					"name": "getReserves",
					"outputs": [
						{
							"internalType": "uint256",
							"name": "reserve0",
							"type": "uint256"
						},
						{
							"internalType": "uint256",
							"name": "reserve1",
							"type": "uint256"
						}
					],
					"stateMutability": "view",
					"type": "function"
				},
				{
					"inputs": [
						{
							"internalType": "address",
							"name": "to",
							"type": "address"
						}
					],
					"name": "mint",
					"outputs": [
						{
							"internalType": "uint256",
							"name": "liquidity",
							"type": "uint256"
						}
					],
					"stateMutability": "nonpayable",
					"type": "function"
				},
				{
					"inputs": [],
					"name": "router",
					"outputs": [
						{
							"internalType": "address",
							"name": "",
							"type": "address"
						}
					],
					"stateMutability": "view",
					"type": "function"
				},
				{
					"inputs": [
						{
							"internalType": "address",
							"name": "_admin",
							"type": "address"
						}
					],
					"name": "setAdmin",
					"outputs": [],
					"stateMutability": "nonpayable",
					"type": "function"
				},
				{
					"inputs": [
						{
							"internalType": "address",
							"name": "_router",
							"type": "address"
						}
					],
					"name": "setRouter",
					"outputs": [],
					"stateMutability": "nonpayable",
					"type": "function"
				},
				{
					"inputs": [
						{
							"internalType": "address",
							"name": "tokenIn",
							"type": "address"
						},
						{
							"internalType": "address",
							"name": "tokenOut",
							"type": "address"
						},
						{
							"internalType": "uint256",
							"name": "amountIn",
							"type": "uint256"
						},
						{
							"internalType": "uint256",
							"name": "amountOut",
							"type": "uint256"
						},
						{
							"internalType": "address",
							"name": "to",
							"type": "address"
						}
					],
					"name": "swap",
					"outputs": [],
					"stateMutability": "nonpayable",
					"type": "function"
				},
				{
					"inputs": [],
					"name": "token0",
					"outputs": [
						{
							"internalType": "address",
							"name": "",
							"type": "address"
						}
					],
					"stateMutability": "view",
					"type": "function"
				},
				{
					"inputs": [],
					"name": "token1",
					"outputs": [
						{
							"internalType": "address",
							"name": "",
							"type": "address"
						}
					],
					"stateMutability": "view",
					"type": "function"
				},
				{
					"inputs": [],
					"name": "totalSupply",
					"outputs": [
						{
							"internalType": "uint256",
							"name": "",
							"type": "uint256"
						}
					],
					"stateMutability": "view",
					"type": "function"
				},
				{
					"inputs": [
						{
							"internalType": "address",
							"name": "to",
							"type": "address"
						},
						{
							"internalType": "uint256",
							"name": "value",
							"type": "uint256"
						}
					],
					"name": "transfer",
					"outputs": [
						{
							"internalType": "bool",
							"name": "",
							"type": "bool"
						}
					],
					"stateMutability": "nonpayable",
					"type": "function"
				},
				{
					"inputs": [
						{
							"internalType": "address",
							"name": "from",
							"type": "address"
						},
						{
							"internalType": "address",
							"name": "to",
							"type": "address"
						},
						{
							"internalType": "uint256",
							"name": "value",
							"type": "uint256"
						}
					],
					"name": "transferFrom",
					"outputs": [
						{
							"internalType": "bool",
							"name": "",
							"type": "bool"
						}
					],
					"stateMutability": "nonpayable",
					"type": "function"
				}
			],
			"devdoc": {
				"kind": "dev",
				"methods": {},
				"version": 1
			},
			"evm": {
				"assembly": "    /* \"contracts/PoolContract.sol\":2369:7725  contract LiquidityPool is LiquidityToken {\r... */\n  mstore(0x40, 0xe0)\n    /* \"contracts/PoolContract.sol\":2976:3216  constructor(address _admin, address _factory, address _router, address _token0, address _token1) {\r... */\n  callvalue\n  dup1\n  iszero\n  tag_1\n  jumpi\n  0x00\n  dup1\n  revert\ntag_1:\n  pop\n  mload(0x40)\n  sub(codesize, bytecodeSize)\n  dup1\n  bytecodeSize\n  dup4\n  codecopy\n  dup2\n  dup2\n  add\n  0x40\n  mstore\n  dup2\n  add\n  swap1\n  tag_2\n  swap2\n  swap1\n  tag_3\n  jump\t// in\ntag_2:\n    /* \"contracts/PoolContract.sol\":3092:3098  _admin */\n  dup5\n    /* \"contracts/PoolContract.sol\":3084:3089  admin */\n  0x03\n  0x00\n    /* \"contracts/PoolContract.sol\":3084:3098  admin = _admin */\n  0x0100\n  exp\n  dup2\n  sload\n  dup2\n  0xffffffffffffffffffffffffffffffffffffffff\n  mul\n  not\n  and\n  swap1\n  dup4\n  0xffffffffffffffffffffffffffffffffffffffff\n  and\n  mul\n  or\n  swap1\n  sstore\n  pop\n    /* \"contracts/PoolContract.sol\":3119:3127  _factory */\n  dup4\n    /* \"contracts/PoolContract.sol\":3109:3127  factory = _factory */\n  0xffffffffffffffffffffffffffffffffffffffff\n  and\n  0x80\n  dup2\n  0xffffffffffffffffffffffffffffffffffffffff\n  and\n  0x60\n  shl\n  dup2\n  mstore\n  pop\n  pop\n    /* \"contracts/PoolContract.sol\":3147:3154  _router */\n  dup3\n    /* \"contracts/PoolContract.sol\":3138:3144  router */\n  0x04\n  0x00\n    /* \"contracts/PoolContract.sol\":3138:3154  router = _router */\n  0x0100\n  exp\n  dup2\n  sload\n  dup2\n  0xffffffffffffffffffffffffffffffffffffffff\n  mul\n  not\n  and\n  swap1\n  dup4\n  0xffffffffffffffffffffffffffffffffffffffff\n  and\n  mul\n  or\n  swap1\n  sstore\n  pop\n    /* \"contracts/PoolContract.sol\":3174:3181  _token0 */\n  dup2\n    /* \"contracts/PoolContract.sol\":3165:3181  token0 = _token0 */\n  0xffffffffffffffffffffffffffffffffffffffff\n  and\n  0xa0\n  dup2\n  0xffffffffffffffffffffffffffffffffffffffff\n  and\n  0x60\n  shl\n  dup2\n  mstore\n  pop\n  pop\n    /* \"contracts/PoolContract.sol\":3201:3208  _token1 */\n  dup1\n    /* \"contracts/PoolContract.sol\":3192:3208  token1 = _token1 */\n  0xffffffffffffffffffffffffffffffffffffffff\n  and\n  0xc0\n  dup2\n  0xffffffffffffffffffffffffffffffffffffffff\n  and\n  0x60\n  shl\n  dup2\n  mstore\n  pop\n  pop\n    /* \"contracts/PoolContract.sol\":2976:3216  constructor(address _admin, address _factory, address _router, address _token0, address _token1) {\r... */\n  pop\n  pop\n  pop\n  pop\n  pop\n    /* \"contracts/PoolContract.sol\":2369:7725  contract LiquidityPool is LiquidityToken {\r... */\n  jump(tag_8)\n    /* \"#utility.yul\":7:150   */\ntag_10:\n    /* \"#utility.yul\":64:69   */\n  0x00\n    /* \"#utility.yul\":95:101   */\n  dup2\n    /* \"#utility.yul\":89:102   */\n  mload\n    /* \"#utility.yul\":80:102   */\n  swap1\n  pop\n    /* \"#utility.yul\":111:144   */\n  tag_12\n    /* \"#utility.yul\":138:143   */\n  dup2\n    /* \"#utility.yul\":111:144   */\n  tag_13\n  jump\t// in\ntag_12:\n    /* \"#utility.yul\":7:150   */\n  swap3\n  swap2\n  pop\n  pop\n  jump\t// out\n    /* \"#utility.yul\":156:1133   */\ntag_3:\n    /* \"#utility.yul\":262:268   */\n  0x00\n    /* \"#utility.yul\":270:276   */\n  dup1\n    /* \"#utility.yul\":278:284   */\n  0x00\n    /* \"#utility.yul\":286:292   */\n  dup1\n    /* \"#utility.yul\":294:300   */\n  0x00\n    /* \"#utility.yul\":343:346   */\n  0xa0\n    /* \"#utility.yul\":331:340   */\n  dup7\n    /* \"#utility.yul\":322:329   */\n  dup9\n    /* \"#utility.yul\":318:341   */\n  sub\n    /* \"#utility.yul\":314:347   */\n  slt\n    /* \"#utility.yul\":311:431   */\n  iszero\n  tag_15\n  jumpi\n    /* \"#utility.yul\":350:429   */\n  tag_16\n  tag_17\n  jump\t// in\ntag_16:\n    /* \"#utility.yul\":311:431   */\ntag_15:\n    /* \"#utility.yul\":470:471   */\n  0x00\n    /* \"#utility.yul\":495:559   */\n  tag_18\n    /* \"#utility.yul\":551:558   */\n  dup9\n    /* \"#utility.yul\":542:548   */\n  dup3\n    /* \"#utility.yul\":531:540   */\n  dup10\n    /* \"#utility.yul\":527:549   */\n  add\n    /* \"#utility.yul\":495:559   */\n  tag_10\n  jump\t// in\ntag_18:\n    /* \"#utility.yul\":485:559   */\n  swap6\n  pop\n    /* \"#utility.yul\":441:569   */\n  pop\n    /* \"#utility.yul\":608:610   */\n  0x20\n    /* \"#utility.yul\":634:698   */\n  tag_19\n    /* \"#utility.yul\":690:697   */\n  dup9\n    /* \"#utility.yul\":681:687   */\n  dup3\n    /* \"#utility.yul\":670:679   */\n  dup10\n    /* \"#utility.yul\":666:688   */\n  add\n    /* \"#utility.yul\":634:698   */\n  tag_10\n  jump\t// in\ntag_19:\n    /* \"#utility.yul\":624:698   */\n  swap5\n  pop\n    /* \"#utility.yul\":579:708   */\n  pop\n    /* \"#utility.yul\":747:749   */\n  0x40\n    /* \"#utility.yul\":773:837   */\n  tag_20\n    /* \"#utility.yul\":829:836   */\n  dup9\n    /* \"#utility.yul\":820:826   */\n  dup3\n    /* \"#utility.yul\":809:818   */\n  dup10\n    /* \"#utility.yul\":805:827   */\n  add\n    /* \"#utility.yul\":773:837   */\n  tag_10\n  jump\t// in\ntag_20:\n    /* \"#utility.yul\":763:837   */\n  swap4\n  pop\n    /* \"#utility.yul\":718:847   */\n  pop\n    /* \"#utility.yul\":886:888   */\n  0x60\n    /* \"#utility.yul\":912:976   */\n  tag_21\n    /* \"#utility.yul\":968:975   */\n  dup9\n    /* \"#utility.yul\":959:965   */\n  dup3\n    /* \"#utility.yul\":948:957   */\n  dup10\n    /* \"#utility.yul\":944:966   */\n  add\n    /* \"#utility.yul\":912:976   */\n  tag_10\n  jump\t// in\ntag_21:\n    /* \"#utility.yul\":902:976   */\n  swap3\n  pop\n    /* \"#utility.yul\":857:986   */\n  pop\n    /* \"#utility.yul\":1025:1028   */\n  0x80\n    /* \"#utility.yul\":1052:1116   */\n  tag_22\n    /* \"#utility.yul\":1108:1115   */\n  dup9\n    /* \"#utility.yul\":1099:1105   */\n  dup3\n    /* \"#utility.yul\":1088:1097   */\n  dup10\n    /* \"#utility.yul\":1084:1106   */\n  add\n    /* \"#utility.yul\":1052:1116   */\n  tag_10\n  jump\t// in\ntag_22:\n    /* \"#utility.yul\":1042:1116   */\n  swap2\n  pop\n    /* \"#utility.yul\":996:1126   */\n  pop\n    /* \"#utility.yul\":156:1133   */\n  swap3\n  swap6\n  pop\n  swap3\n  swap6\n  swap1\n  swap4\n  pop\n  jump\t// out\n    /* \"#utility.yul\":1220:1316   */\ntag_25:\n    /* \"#utility.yul\":1257:1264   */\n  0x00\n    /* \"#utility.yul\":1286:1310   */\n  tag_27\n    /* \"#utility.yul\":1304:1309   */\n  dup3\n    /* \"#utility.yul\":1286:1310   */\n  tag_28\n  jump\t// in\ntag_27:\n    /* \"#utility.yul\":1275:1310   */\n  swap1\n  pop\n    /* \"#utility.yul\":1220:1316   */\n  swap2\n  swap1\n  pop\n  jump\t// out\n    /* \"#utility.yul\":1322:1448   */\ntag_28:\n    /* \"#utility.yul\":1359:1366   */\n  0x00\n    /* \"#utility.yul\":1399:1441   */\n  0xffffffffffffffffffffffffffffffffffffffff\n    /* \"#utility.yul\":1392:1397   */\n  dup3\n    /* \"#utility.yul\":1388:1442   */\n  and\n    /* \"#utility.yul\":1377:1442   */\n  swap1\n  pop\n    /* \"#utility.yul\":1322:1448   */\n  swap2\n  swap1\n  pop\n  jump\t// out\n    /* \"#utility.yul\":1577:1694   */\ntag_17:\n    /* \"#utility.yul\":1686:1687   */\n  0x00\n    /* \"#utility.yul\":1683:1684   */\n  dup1\n    /* \"#utility.yul\":1676:1688   */\n  revert\n    /* \"#utility.yul\":1700:1822   */\ntag_13:\n    /* \"#utility.yul\":1773:1797   */\n  tag_34\n    /* \"#utility.yul\":1791:1796   */\n  dup2\n    /* \"#utility.yul\":1773:1797   */\n  tag_25\n  jump\t// in\ntag_34:\n    /* \"#utility.yul\":1766:1771   */\n  dup2\n    /* \"#utility.yul\":1763:1798   */\n  eq\n    /* \"#utility.yul\":1753:1816   */\n  tag_35\n  jumpi\n    /* \"#utility.yul\":1812:1813   */\n  0x00\n    /* \"#utility.yul\":1809:1810   */\n  dup1\n    /* \"#utility.yul\":1802:1814   */\n  revert\n    /* \"#utility.yul\":1753:1816   */\ntag_35:\n    /* \"#utility.yul\":1700:1822   */\n  pop\n  jump\t// out\n    /* \"contracts/PoolContract.sol\":2369:7725  contract LiquidityPool is LiquidityToken {\r... */\ntag_8:\n  shr(0x60, mload(0x80))\n  shr(0x60, mload(0xa0))\n  shr(0x60, mload(0xc0))\n  codecopy(0x00, dataOffset(sub_0), dataSize(sub_0))\n  0x00\n  assignImmutable(\"0x1919bbb77b48a65a3a334e011819abf5317994b267bc385c63c0af09ecf64635\")\n  0x00\n  assignImmutable(\"0xe54f8e4a5d17b2e4d97cb94ddb2a2b00b3620f93c06158e24f4515b3f1ad0dd8\")\n  0x00\n  assignImmutable(\"0x0e2ebb9616682a934d374d36ec533ac8c688d143a19ec3095914433ecc16266a\")\n  return(0x00, dataSize(sub_0))\nstop\n\nsub_0: assembly {\n        /* \"contracts/PoolContract.sol\":2369:7725  contract LiquidityPool is LiquidityToken {\r... */\n      mstore(0x40, 0x80)\n      callvalue\n      dup1\n      iszero\n      tag_1\n      jumpi\n      0x00\n      dup1\n      revert\n    tag_1:\n      pop\n      jumpi(tag_2, lt(calldatasize, 0x04))\n      shr(0xe0, calldataload(0x00))\n      dup1\n      0x89afcb44\n      gt\n      tag_21\n      jumpi\n      dup1\n      0xd21220a7\n      gt\n      tag_22\n      jumpi\n      dup1\n      0xd21220a7\n      eq\n      tag_16\n      jumpi\n      dup1\n      0xd5bcb9b5\n      eq\n      tag_17\n      jumpi\n      dup1\n      0xdd62ed3e\n      eq\n      tag_18\n      jumpi\n      dup1\n      0xf851a440\n      eq\n      tag_19\n      jumpi\n      dup1\n      0xf887ea40\n      eq\n      tag_20\n      jumpi\n      jump(tag_2)\n    tag_22:\n      dup1\n      0x89afcb44\n      eq\n      tag_12\n      jumpi\n      dup1\n      0xa9059cbb\n      eq\n      tag_13\n      jumpi\n      dup1\n      0xc0d78655\n      eq\n      tag_14\n      jumpi\n      dup1\n      0xc45a0155\n      eq\n      tag_15\n      jumpi\n      jump(tag_2)\n    tag_21:\n      dup1\n      0x18160ddd\n      gt\n      tag_23\n      jumpi\n      dup1\n      0x18160ddd\n      eq\n      tag_7\n      jumpi\n      dup1\n      0x23b872dd\n      eq\n      tag_8\n      jumpi\n      dup1\n      0x6a627842\n      eq\n      tag_9\n      jumpi\n      dup1\n      0x704b6c02\n      eq\n      tag_10\n      jumpi\n      dup1\n      0x70a08231\n      eq\n      tag_11\n      jumpi\n      jump(tag_2)\n    tag_23:\n      dup1\n      0x113e08\n      eq\n      tag_3\n      jumpi\n      dup1\n      0x0902f1ac\n      eq\n      tag_4\n      jumpi\n      dup1\n      0x095ea7b3\n      eq\n      tag_5\n      jumpi\n      dup1\n      0x0dfe1681\n      eq\n      tag_6\n      jumpi\n    tag_2:\n      0x00\n      dup1\n      revert\n        /* \"contracts/PoolContract.sol\":6882:7086  function getBalances() public view returns (uint balance0, uint balance1) {\r... */\n    tag_3:\n      tag_24\n      tag_25\n      jump\t// in\n    tag_24:\n      mload(0x40)\n      tag_26\n      swap3\n      swap2\n      swap1\n      tag_27\n      jump\t// in\n    tag_26:\n      mload(0x40)\n      dup1\n      swap2\n      sub\n      swap1\n      return\n        /* \"contracts/PoolContract.sol\":6730:6874  function getReserves() public view returns (uint reserve0, uint reserve1) {\r... */\n    tag_4:\n      tag_28\n      tag_29\n      jump\t// in\n    tag_28:\n      mload(0x40)\n      tag_30\n      swap3\n      swap2\n      swap1\n      tag_27\n      jump\t// in\n    tag_30:\n      mload(0x40)\n      dup1\n      swap2\n      sub\n      swap1\n      return\n        /* \"contracts/PoolContract.sol\":2204:2360  function approve(address spender, uint value) override external returns (bool) {\r... */\n    tag_5:\n      tag_31\n      0x04\n      dup1\n      calldatasize\n      sub\n      dup2\n      add\n      swap1\n      tag_32\n      swap2\n      swap1\n      tag_33\n      jump\t// in\n    tag_32:\n      tag_34\n      jump\t// in\n    tag_31:\n      mload(0x40)\n      tag_35\n      swap2\n      swap1\n      tag_36\n      jump\t// in\n    tag_35:\n      mload(0x40)\n      dup1\n      swap2\n      sub\n      swap1\n      return\n        /* \"contracts/PoolContract.sol\":2543:2574  address public immutable token0 */\n    tag_6:\n      tag_37\n      tag_38\n      jump\t// in\n    tag_37:\n      mload(0x40)\n      tag_39\n      swap2\n      swap1\n      tag_40\n      jump\t// in\n    tag_39:\n      mload(0x40)\n      dup1\n      swap2\n      sub\n      swap1\n      return\n        /* \"contracts/PoolContract.sol\":640:672  uint override public totalSupply */\n    tag_7:\n      tag_41\n      tag_42\n      jump\t// in\n    tag_41:\n      mload(0x40)\n      tag_43\n      swap2\n      swap1\n      tag_44\n      jump\t// in\n    tag_43:\n      mload(0x40)\n      dup1\n      swap2\n      sub\n      swap1\n      return\n        /* \"contracts/PoolContract.sol\":1876:2198  function transferFrom(address from, address to, uint value) override external returns (bool) \r... */\n    tag_8:\n      tag_45\n      0x04\n      dup1\n      calldatasize\n      sub\n      dup2\n      add\n      swap1\n      tag_46\n      swap2\n      swap1\n      tag_47\n      jump\t// in\n    tag_46:\n      tag_48\n      jump\t// in\n    tag_45:\n      mload(0x40)\n      tag_49\n      swap2\n      swap1\n      tag_36\n      jump\t// in\n    tag_49:\n      mload(0x40)\n      dup1\n      swap2\n      sub\n      swap1\n      return\n        /* \"contracts/PoolContract.sol\":3258:4307  function mint(address to) external returns (uint liquidity) {\r... */\n    tag_9:\n      tag_50\n      0x04\n      dup1\n      calldatasize\n      sub\n      dup2\n      add\n      swap1\n      tag_51\n      swap2\n      swap1\n      tag_52\n      jump\t// in\n    tag_51:\n      tag_53\n      jump\t// in\n    tag_50:\n      mload(0x40)\n      tag_54\n      swap2\n      swap1\n      tag_44\n      jump\t// in\n    tag_54:\n      mload(0x40)\n      dup1\n      swap2\n      sub\n      swap1\n      return\n        /* \"contracts/PoolContract.sol\":7541:7722  function setAdmin(address _admin) external {\r... */\n    tag_10:\n      tag_55\n      0x04\n      dup1\n      calldatasize\n      sub\n      dup2\n      add\n      swap1\n      tag_56\n      swap2\n      swap1\n      tag_52\n      jump\t// in\n    tag_56:\n      tag_57\n      jump\t// in\n    tag_55:\n      stop\n        /* \"contracts/PoolContract.sol\":679:729  mapping(address => uint) override public balanceOf */\n    tag_11:\n      tag_58\n      0x04\n      dup1\n      calldatasize\n      sub\n      dup2\n      add\n      swap1\n      tag_59\n      swap2\n      swap1\n      tag_52\n      jump\t// in\n    tag_59:\n      tag_60\n      jump\t// in\n    tag_58:\n      mload(0x40)\n      tag_61\n      swap2\n      swap1\n      tag_44\n      jump\t// in\n    tag_61:\n      mload(0x40)\n      dup1\n      swap2\n      sub\n      swap1\n      return\n        /* \"contracts/PoolContract.sol\":4350:5398  function burn(address to) external returns (uint amount0, uint amount1) {\r... */\n    tag_12:\n      tag_62\n      0x04\n      dup1\n      calldatasize\n      sub\n      dup2\n      add\n      swap1\n      tag_63\n      swap2\n      swap1\n      tag_52\n      jump\t// in\n    tag_63:\n      tag_64\n      jump\t// in\n    tag_62:\n      mload(0x40)\n      tag_65\n      swap3\n      swap2\n      swap1\n      tag_27\n      jump\t// in\n    tag_65:\n      mload(0x40)\n      dup1\n      swap2\n      sub\n      swap1\n      return\n        /* \"contracts/PoolContract.sol\":1722:1870  function transfer(address to, uint value) override external returns (bool) {\r... */\n    tag_13:\n      tag_66\n      0x04\n      dup1\n      calldatasize\n      sub\n      dup2\n      add\n      swap1\n      tag_67\n      swap2\n      swap1\n      tag_33\n      jump\t// in\n    tag_67:\n      tag_68\n      jump\t// in\n    tag_66:\n      mload(0x40)\n      tag_69\n      swap2\n      swap1\n      tag_36\n      jump\t// in\n    tag_69:\n      mload(0x40)\n      dup1\n      swap2\n      sub\n      swap1\n      return\n        /* \"contracts/PoolContract.sol\":7347:7533  function setRouter(address _router) external {\r... */\n    tag_14:\n      tag_70\n      0x04\n      dup1\n      calldatasize\n      sub\n      dup2\n      add\n      swap1\n      tag_71\n      swap2\n      swap1\n      tag_52\n      jump\t// in\n    tag_71:\n      tag_72\n      jump\t// in\n    tag_70:\n      stop\n        /* \"contracts/PoolContract.sol\":2476:2508  address public immutable factory */\n    tag_15:\n      tag_73\n      tag_74\n      jump\t// in\n    tag_73:\n      mload(0x40)\n      tag_75\n      swap2\n      swap1\n      tag_40\n      jump\t// in\n    tag_75:\n      mload(0x40)\n      dup1\n      swap2\n      sub\n      swap1\n      return\n        /* \"contracts/PoolContract.sol\":2581:2612  address public immutable token1 */\n    tag_16:\n      tag_76\n      tag_77\n      jump\t// in\n    tag_76:\n      mload(0x40)\n      tag_78\n      swap2\n      swap1\n      tag_40\n      jump\t// in\n    tag_78:\n      mload(0x40)\n      dup1\n      swap2\n      sub\n      swap1\n      return\n        /* \"contracts/PoolContract.sol\":5444:6697  function swap(address tokenIn, address tokenOut, uint amountIn, uint amountOut, address to) external {\r... */\n    tag_17:\n      tag_79\n      0x04\n      dup1\n      calldatasize\n      sub\n      dup2\n      add\n      swap1\n      tag_80\n      swap2\n      swap1\n      tag_81\n      jump\t// in\n    tag_80:\n      tag_82\n      jump\t// in\n    tag_79:\n      stop\n        /* \"contracts/PoolContract.sol\":736:806  mapping(address => mapping(address => uint)) override public allowance */\n    tag_18:\n      tag_83\n      0x04\n      dup1\n      calldatasize\n      sub\n      dup2\n      add\n      swap1\n      tag_84\n      swap2\n      swap1\n      tag_85\n      jump\t// in\n    tag_84:\n      tag_86\n      jump\t// in\n    tag_83:\n      mload(0x40)\n      tag_87\n      swap2\n      swap1\n      tag_44\n      jump\t// in\n    tag_87:\n      mload(0x40)\n      dup1\n      swap2\n      sub\n      swap1\n      return\n        /* \"contracts/PoolContract.sol\":2447:2467  address public admin */\n    tag_19:\n      tag_88\n      tag_89\n      jump\t// in\n    tag_88:\n      mload(0x40)\n      tag_90\n      swap2\n      swap1\n      tag_40\n      jump\t// in\n    tag_90:\n      mload(0x40)\n      dup1\n      swap2\n      sub\n      swap1\n      return\n        /* \"contracts/PoolContract.sol\":2515:2536  address public router */\n    tag_20:\n      tag_91\n      tag_92\n      jump\t// in\n    tag_91:\n      mload(0x40)\n      tag_93\n      swap2\n      swap1\n      tag_40\n      jump\t// in\n    tag_93:\n      mload(0x40)\n      dup1\n      swap2\n      sub\n      swap1\n      return\n        /* \"contracts/PoolContract.sol\":6882:7086  function getBalances() public view returns (uint balance0, uint balance1) {\r... */\n    tag_25:\n        /* \"contracts/PoolContract.sol\":6926:6939  uint balance0 */\n      0x00\n        /* \"contracts/PoolContract.sol\":6941:6954  uint balance1 */\n      dup1\n        /* \"contracts/PoolContract.sol\":6985:6991  token0 */\n      immutable(\"0xe54f8e4a5d17b2e4d97cb94ddb2a2b00b3620f93c06158e24f4515b3f1ad0dd8\")\n        /* \"contracts/PoolContract.sol\":6978:7002  IERC20(token0).balanceOf */\n      0xffffffffffffffffffffffffffffffffffffffff\n      and\n      0x70a08231\n        /* \"contracts/PoolContract.sol\":7011:7015  this */\n      address\n        /* \"contracts/PoolContract.sol\":6978:7017  IERC20(token0).balanceOf(address(this)) */\n      mload(0x40)\n      dup3\n      0xffffffff\n      and\n      0xe0\n      shl\n      dup2\n      mstore\n      0x04\n      add\n      tag_95\n      swap2\n      swap1\n      tag_40\n      jump\t// in\n    tag_95:\n      0x20\n      mload(0x40)\n      dup1\n      dup4\n      sub\n      dup2\n      dup7\n      dup1\n      extcodesize\n      iszero\n      dup1\n      iszero\n      tag_96\n      jumpi\n      0x00\n      dup1\n      revert\n    tag_96:\n      pop\n      gas\n      staticcall\n      iszero\n      dup1\n      iszero\n      tag_98\n      jumpi\n      returndatasize\n      0x00\n      dup1\n      returndatacopy\n      revert(0x00, returndatasize)\n    tag_98:\n      pop\n      pop\n      pop\n      pop\n      mload(0x40)\n      returndatasize\n      not(0x1f)\n      0x1f\n      dup3\n      add\n      and\n      dup3\n      add\n      dup1\n      0x40\n      mstore\n      pop\n      dup2\n      add\n      swap1\n      tag_99\n      swap2\n      swap1\n      tag_100\n      jump\t// in\n    tag_99:\n        /* \"contracts/PoolContract.sol\":6967:7017  balance0 = IERC20(token0).balanceOf(address(this)) */\n      swap2\n      pop\n        /* \"contracts/PoolContract.sol\":7046:7052  token1 */\n      immutable(\"0x1919bbb77b48a65a3a334e011819abf5317994b267bc385c63c0af09ecf64635\")\n        /* \"contracts/PoolContract.sol\":7039:7063  IERC20(token1).balanceOf */\n      0xffffffffffffffffffffffffffffffffffffffff\n      and\n      0x70a08231\n        /* \"contracts/PoolContract.sol\":7072:7076  this */\n      address\n        /* \"contracts/PoolContract.sol\":7039:7078  IERC20(token1).balanceOf(address(this)) */\n      mload(0x40)\n      dup3\n      0xffffffff\n      and\n      0xe0\n      shl\n      dup2\n      mstore\n      0x04\n      add\n      tag_101\n      swap2\n      swap1\n      tag_40\n      jump\t// in\n    tag_101:\n      0x20\n      mload(0x40)\n      dup1\n      dup4\n      sub\n      dup2\n      dup7\n      dup1\n      extcodesize\n      iszero\n      dup1\n      iszero\n      tag_102\n      jumpi\n      0x00\n      dup1\n      revert\n    tag_102:\n      pop\n      gas\n      staticcall\n      iszero\n      dup1\n      iszero\n      tag_104\n      jumpi\n      returndatasize\n      0x00\n      dup1\n      returndatacopy\n      revert(0x00, returndatasize)\n    tag_104:\n      pop\n      pop\n      pop\n      pop\n      mload(0x40)\n      returndatasize\n      not(0x1f)\n      0x1f\n      dup3\n      add\n      and\n      dup3\n      add\n      dup1\n      0x40\n      mstore\n      pop\n      dup2\n      add\n      swap1\n      tag_105\n      swap2\n      swap1\n      tag_100\n      jump\t// in\n    tag_105:\n        /* \"contracts/PoolContract.sol\":7028:7078  balance1 = IERC20(token1).balanceOf(address(this)) */\n      swap1\n      pop\n        /* \"contracts/PoolContract.sol\":6882:7086  function getBalances() public view returns (uint balance0, uint balance1) {\r... */\n      swap1\n      swap2\n      jump\t// out\n        /* \"contracts/PoolContract.sol\":6730:6874  function getReserves() public view returns (uint reserve0, uint reserve1) {\r... */\n    tag_29:\n        /* \"contracts/PoolContract.sol\":6774:6787  uint reserve0 */\n      0x00\n        /* \"contracts/PoolContract.sol\":6789:6802  uint reserve1 */\n      dup1\n        /* \"contracts/PoolContract.sol\":6826:6835  _reserve0 */\n      sload(0x05)\n        /* \"contracts/PoolContract.sol\":6815:6835  reserve0 = _reserve0 */\n      swap2\n      pop\n        /* \"contracts/PoolContract.sol\":6857:6866  _reserve1 */\n      sload(0x06)\n        /* \"contracts/PoolContract.sol\":6846:6866  reserve1 = _reserve1 */\n      swap1\n      pop\n        /* \"contracts/PoolContract.sol\":6730:6874  function getReserves() public view returns (uint reserve0, uint reserve1) {\r... */\n      swap1\n      swap2\n      jump\t// out\n        /* \"contracts/PoolContract.sol\":2204:2360  function approve(address spender, uint value) override external returns (bool) {\r... */\n    tag_34:\n        /* \"contracts/PoolContract.sol\":2277:2281  bool */\n      0x00\n        /* \"contracts/PoolContract.sol\":2294:2330  _approve(msg.sender, spender, value) */\n      tag_108\n        /* \"contracts/PoolContract.sol\":2303:2313  msg.sender */\n      caller\n        /* \"contracts/PoolContract.sol\":2315:2322  spender */\n      dup5\n        /* \"contracts/PoolContract.sol\":2324:2329  value */\n      dup5\n        /* \"contracts/PoolContract.sol\":2294:2302  _approve */\n      tag_109\n        /* \"contracts/PoolContract.sol\":2294:2330  _approve(msg.sender, spender, value) */\n      jump\t// in\n    tag_108:\n        /* \"contracts/PoolContract.sol\":2348:2352  true */\n      0x01\n        /* \"contracts/PoolContract.sol\":2341:2352  return true */\n      swap1\n      pop\n        /* \"contracts/PoolContract.sol\":2204:2360  function approve(address spender, uint value) override external returns (bool) {\r... */\n      swap3\n      swap2\n      pop\n      pop\n      jump\t// out\n        /* \"contracts/PoolContract.sol\":2543:2574  address public immutable token0 */\n    tag_38:\n      immutable(\"0xe54f8e4a5d17b2e4d97cb94ddb2a2b00b3620f93c06158e24f4515b3f1ad0dd8\")\n      dup2\n      jump\t// out\n        /* \"contracts/PoolContract.sol\":640:672  uint override public totalSupply */\n    tag_42:\n      sload(0x00)\n      dup2\n      jump\t// out\n        /* \"contracts/PoolContract.sol\":1876:2198  function transferFrom(address from, address to, uint value) override external returns (bool) \r... */\n    tag_48:\n        /* \"contracts/PoolContract.sol\":1963:1967  bool */\n      0x00\n        /* \"contracts/PoolContract.sol\":2021:2035  type(uint).max */\n      0xffffffffffffffffffffffffffffffffffffffffffffffffffffffffffffffff\n        /* \"contracts/PoolContract.sol\":1990:1999  allowance */\n      0x02\n        /* \"contracts/PoolContract.sol\":1990:2005  allowance[from] */\n      0x00\n        /* \"contracts/PoolContract.sol\":2000:2004  from */\n      dup7\n        /* \"contracts/PoolContract.sol\":1990:2005  allowance[from] */\n      0xffffffffffffffffffffffffffffffffffffffff\n      and\n      0xffffffffffffffffffffffffffffffffffffffff\n      and\n      dup2\n      mstore\n      0x20\n      add\n      swap1\n      dup2\n      mstore\n      0x20\n      add\n      0x00\n      keccak256\n        /* \"contracts/PoolContract.sol\":1990:2017  allowance[from][msg.sender] */\n      0x00\n        /* \"contracts/PoolContract.sol\":2006:2016  msg.sender */\n      caller\n        /* \"contracts/PoolContract.sol\":1990:2017  allowance[from][msg.sender] */\n      0xffffffffffffffffffffffffffffffffffffffff\n      and\n      0xffffffffffffffffffffffffffffffffffffffff\n      and\n      dup2\n      mstore\n      0x20\n      add\n      swap1\n      dup2\n      mstore\n      0x20\n      add\n      0x00\n      keccak256\n      sload\n        /* \"contracts/PoolContract.sol\":1990:2035  allowance[from][msg.sender] != type(uint).max */\n      eq\n        /* \"contracts/PoolContract.sol\":1986:2132  if (allowance[from][msg.sender] != type(uint).max) {\r... */\n      tag_111\n      jumpi\n        /* \"contracts/PoolContract.sol\":2082:2120  allowance[from][msg.sender].sub(value) */\n      tag_112\n        /* \"contracts/PoolContract.sol\":2114:2119  value */\n      dup3\n        /* \"contracts/PoolContract.sol\":2082:2091  allowance */\n      0x02\n        /* \"contracts/PoolContract.sol\":2082:2097  allowance[from] */\n      0x00\n        /* \"contracts/PoolContract.sol\":2092:2096  from */\n      dup8\n        /* \"contracts/PoolContract.sol\":2082:2097  allowance[from] */\n      0xffffffffffffffffffffffffffffffffffffffff\n      and\n      0xffffffffffffffffffffffffffffffffffffffff\n      and\n      dup2\n      mstore\n      0x20\n      add\n      swap1\n      dup2\n      mstore\n      0x20\n      add\n      0x00\n      keccak256\n        /* \"contracts/PoolContract.sol\":2082:2109  allowance[from][msg.sender] */\n      0x00\n        /* \"contracts/PoolContract.sol\":2098:2108  msg.sender */\n      caller\n        /* \"contracts/PoolContract.sol\":2082:2109  allowance[from][msg.sender] */\n      0xffffffffffffffffffffffffffffffffffffffff\n      and\n      0xffffffffffffffffffffffffffffffffffffffff\n      and\n      dup2\n      mstore\n      0x20\n      add\n      swap1\n      dup2\n      mstore\n      0x20\n      add\n      0x00\n      keccak256\n      sload\n        /* \"contracts/PoolContract.sol\":2082:2113  allowance[from][msg.sender].sub */\n      tag_113\n      swap1\n        /* \"contracts/PoolContract.sol\":2082:2120  allowance[from][msg.sender].sub(value) */\n      swap2\n      swap1\n      0xffffffff\n      and\n      jump\t// in\n    tag_112:\n        /* \"contracts/PoolContract.sol\":2052:2061  allowance */\n      0x02\n        /* \"contracts/PoolContract.sol\":2052:2067  allowance[from] */\n      0x00\n        /* \"contracts/PoolContract.sol\":2062:2066  from */\n      dup7\n        /* \"contracts/PoolContract.sol\":2052:2067  allowance[from] */\n      0xffffffffffffffffffffffffffffffffffffffff\n      and\n      0xffffffffffffffffffffffffffffffffffffffff\n      and\n      dup2\n      mstore\n      0x20\n      add\n      swap1\n      dup2\n      mstore\n      0x20\n      add\n      0x00\n      keccak256\n        /* \"contracts/PoolContract.sol\":2052:2079  allowance[from][msg.sender] */\n      0x00\n        /* \"contracts/PoolContract.sol\":2068:2078  msg.sender */\n      caller\n        /* \"contracts/PoolContract.sol\":2052:2079  allowance[from][msg.sender] */\n      0xffffffffffffffffffffffffffffffffffffffff\n      and\n      0xffffffffffffffffffffffffffffffffffffffff\n      and\n      dup2\n      mstore\n      0x20\n      add\n      swap1\n      dup2\n      mstore\n      0x20\n      add\n      0x00\n      keccak256\n        /* \"contracts/PoolContract.sol\":2052:2120  allowance[from][msg.sender] = allowance[from][msg.sender].sub(value) */\n      dup2\n      swap1\n      sstore\n      pop\n        /* \"contracts/PoolContract.sol\":1986:2132  if (allowance[from][msg.sender] != type(uint).max) {\r... */\n    tag_111:\n        /* \"contracts/PoolContract.sol\":2142:2168  _transfer(from, to, value) */\n      tag_114\n        /* \"contracts/PoolContract.sol\":2152:2156  from */\n      dup5\n        /* \"contracts/PoolContract.sol\":2158:2160  to */\n      dup5\n        /* \"contracts/PoolContract.sol\":2162:2167  value */\n      dup5\n        /* \"contracts/PoolContract.sol\":2142:2151  _transfer */\n      tag_115\n        /* \"contracts/PoolContract.sol\":2142:2168  _transfer(from, to, value) */\n      jump\t// in\n    tag_114:\n        /* \"contracts/PoolContract.sol\":2186:2190  true */\n      0x01\n        /* \"contracts/PoolContract.sol\":2179:2190  return true */\n      swap1\n      pop\n        /* \"contracts/PoolContract.sol\":1876:2198  function transferFrom(address from, address to, uint value) override external returns (bool) \r... */\n      swap4\n      swap3\n      pop\n      pop\n      pop\n      jump\t// out\n        /* \"contracts/PoolContract.sol\":3258:4307  function mint(address to) external returns (uint liquidity) {\r... */\n    tag_53:\n        /* \"contracts/PoolContract.sol\":3302:3316  uint liquidity */\n      0x00\n        /* \"contracts/PoolContract.sol\":3413:3419  router */\n      0x04\n      0x00\n      swap1\n      sload\n      swap1\n      0x0100\n      exp\n      swap1\n      div\n      0xffffffffffffffffffffffffffffffffffffffff\n      and\n        /* \"contracts/PoolContract.sol\":3399:3419  msg.sender == router */\n      0xffffffffffffffffffffffffffffffffffffffff\n      and\n        /* \"contracts/PoolContract.sol\":3399:3409  msg.sender */\n      caller\n        /* \"contracts/PoolContract.sol\":3399:3419  msg.sender == router */\n      0xffffffffffffffffffffffffffffffffffffffff\n      and\n      eq\n        /* \"contracts/PoolContract.sol\":3391:3443  require(msg.sender == router, \"POOL: Access denied\") */\n      tag_117\n      jumpi\n      mload(0x40)\n      0x08c379a000000000000000000000000000000000000000000000000000000000\n      dup2\n      mstore\n      0x04\n      add\n      tag_118\n      swap1\n      tag_119\n      jump\t// in\n    tag_118:\n      mload(0x40)\n      dup1\n      swap2\n      sub\n      swap1\n      revert\n    tag_117:\n        /* \"contracts/PoolContract.sol\":3534:3547  uint balance0 */\n      0x00\n        /* \"contracts/PoolContract.sol\":3549:3562  uint balance1 */\n      dup1\n        /* \"contracts/PoolContract.sol\":3566:3579  getBalances() */\n      tag_120\n        /* \"contracts/PoolContract.sol\":3566:3577  getBalances */\n      tag_25\n        /* \"contracts/PoolContract.sol\":3566:3579  getBalances() */\n      jump\t// in\n    tag_120:\n        /* \"contracts/PoolContract.sol\":3533:3579  (uint balance0, uint balance1) = getBalances() */\n      swap2\n      pop\n      swap2\n      pop\n        /* \"contracts/PoolContract.sol\":3591:3604  uint reserve0 */\n      0x00\n        /* \"contracts/PoolContract.sol\":3606:3619  uint reserve1 */\n      dup1\n        /* \"contracts/PoolContract.sol\":3623:3636  getReserves() */\n      tag_121\n        /* \"contracts/PoolContract.sol\":3623:3634  getReserves */\n      tag_29\n        /* \"contracts/PoolContract.sol\":3623:3636  getReserves() */\n      jump\t// in\n    tag_121:\n        /* \"contracts/PoolContract.sol\":3590:3636  (uint reserve0, uint reserve1) = getReserves() */\n      swap2\n      pop\n      swap2\n      pop\n        /* \"contracts/PoolContract.sol\":3647:3659  uint amount0 */\n      0x00\n        /* \"contracts/PoolContract.sol\":3662:3684  balance0.sub(reserve0) */\n      tag_122\n        /* \"contracts/PoolContract.sol\":3675:3683  reserve0 */\n      dup4\n        /* \"contracts/PoolContract.sol\":3662:3670  balance0 */\n      dup7\n        /* \"contracts/PoolContract.sol\":3662:3674  balance0.sub */\n      tag_113\n      swap1\n        /* \"contracts/PoolContract.sol\":3662:3684  balance0.sub(reserve0) */\n      swap2\n      swap1\n      0xffffffff\n      and\n      jump\t// in\n    tag_122:\n        /* \"contracts/PoolContract.sol\":3647:3684  uint amount0 = balance0.sub(reserve0) */\n      swap1\n      pop\n        /* \"contracts/PoolContract.sol\":3695:3707  uint amount1 */\n      0x00\n        /* \"contracts/PoolContract.sol\":3710:3732  balance1.sub(reserve1) */\n      tag_123\n        /* \"contracts/PoolContract.sol\":3723:3731  reserve1 */\n      dup4\n        /* \"contracts/PoolContract.sol\":3710:3718  balance1 */\n      dup7\n        /* \"contracts/PoolContract.sol\":3710:3722  balance1.sub */\n      tag_113\n      swap1\n        /* \"contracts/PoolContract.sol\":3710:3732  balance1.sub(reserve1) */\n      swap2\n      swap1\n      0xffffffff\n      and\n      jump\t// in\n    tag_123:\n        /* \"contracts/PoolContract.sol\":3695:3732  uint amount1 = balance1.sub(reserve1) */\n      swap1\n      pop\n        /* \"contracts/PoolContract.sol\":3823:3824  0 */\n      0x00\n        /* \"contracts/PoolContract.sol\":3808:3819  totalSupply */\n      dup1\n      sload\n        /* \"contracts/PoolContract.sol\":3808:3824  totalSupply == 0 */\n      eq\n        /* \"contracts/PoolContract.sol\":3804:4023  if (totalSupply == 0) {\r... */\n      iszero\n      tag_124\n      jumpi\n        /* \"contracts/PoolContract.sol\":3853:3884  Math.sqrt(amount0.mul(amount1)) */\n      tag_125\n        /* \"contracts/PoolContract.sol\":3863:3883  amount0.mul(amount1) */\n      tag_126\n        /* \"contracts/PoolContract.sol\":3875:3882  amount1 */\n      dup3\n        /* \"contracts/PoolContract.sol\":3863:3870  amount0 */\n      dup5\n        /* \"contracts/PoolContract.sol\":3863:3874  amount0.mul */\n      tag_127\n      swap1\n        /* \"contracts/PoolContract.sol\":3863:3883  amount0.mul(amount1) */\n      swap2\n      swap1\n      0xffffffff\n      and\n      jump\t// in\n    tag_126:\n        /* \"contracts/PoolContract.sol\":3853:3862  Math.sqrt */\n      tag_128\n        /* \"contracts/PoolContract.sol\":3853:3884  Math.sqrt(amount0.mul(amount1)) */\n      jump\t// in\n    tag_125:\n        /* \"contracts/PoolContract.sol\":3841:3884  liquidity = Math.sqrt(amount0.mul(amount1)) */\n      swap7\n      pop\n        /* \"contracts/PoolContract.sol\":3804:4023  if (totalSupply == 0) {\r... */\n      jump(tag_129)\n    tag_124:\n        /* \"contracts/PoolContract.sol\":3929:4011  Math.min(amount0.mul(totalSupply) / reserve0, amount1.mul(totalSupply) / reserve1) */\n      tag_130\n        /* \"contracts/PoolContract.sol\":3965:3973  reserve0 */\n      dup5\n        /* \"contracts/PoolContract.sol\":3938:3962  amount0.mul(totalSupply) */\n      tag_131\n        /* \"contracts/PoolContract.sol\":3950:3961  totalSupply */\n      sload(0x00)\n        /* \"contracts/PoolContract.sol\":3938:3945  amount0 */\n      dup6\n        /* \"contracts/PoolContract.sol\":3938:3949  amount0.mul */\n      tag_127\n      swap1\n        /* \"contracts/PoolContract.sol\":3938:3962  amount0.mul(totalSupply) */\n      swap2\n      swap1\n      0xffffffff\n      and\n      jump\t// in\n    tag_131:\n        /* \"contracts/PoolContract.sol\":3938:3973  amount0.mul(totalSupply) / reserve0 */\n      tag_132\n      swap2\n      swap1\n      tag_133\n      jump\t// in\n    tag_132:\n        /* \"contracts/PoolContract.sol\":4002:4010  reserve1 */\n      dup5\n        /* \"contracts/PoolContract.sol\":3975:3999  amount1.mul(totalSupply) */\n      tag_134\n        /* \"contracts/PoolContract.sol\":3987:3998  totalSupply */\n      sload(0x00)\n        /* \"contracts/PoolContract.sol\":3975:3982  amount1 */\n      dup6\n        /* \"contracts/PoolContract.sol\":3975:3986  amount1.mul */\n      tag_127\n      swap1\n        /* \"contracts/PoolContract.sol\":3975:3999  amount1.mul(totalSupply) */\n      swap2\n      swap1\n      0xffffffff\n      and\n      jump\t// in\n    tag_134:\n        /* \"contracts/PoolContract.sol\":3975:4010  amount1.mul(totalSupply) / reserve1 */\n      tag_135\n      swap2\n      swap1\n      tag_133\n      jump\t// in\n    tag_135:\n        /* \"contracts/PoolContract.sol\":3929:3937  Math.min */\n      tag_136\n        /* \"contracts/PoolContract.sol\":3929:4011  Math.min(amount0.mul(totalSupply) / reserve0, amount1.mul(totalSupply) / reserve1) */\n      jump\t// in\n    tag_130:\n        /* \"contracts/PoolContract.sol\":3917:4011  liquidity = Math.min(amount0.mul(totalSupply) / reserve0, amount1.mul(totalSupply) / reserve1) */\n      swap7\n      pop\n        /* \"contracts/PoolContract.sol\":3804:4023  if (totalSupply == 0) {\r... */\n    tag_129:\n        /* \"contracts/PoolContract.sol\":4053:4054  0 */\n      0x00\n        /* \"contracts/PoolContract.sol\":4041:4050  liquidity */\n      dup8\n        /* \"contracts/PoolContract.sol\":4041:4054  liquidity > 0 */\n      gt\n        /* \"contracts/PoolContract.sol\":4033:4094  require(liquidity > 0, \"POOL: Insufficient liquidity minted\") */\n      tag_137\n      jumpi\n      mload(0x40)\n      0x08c379a000000000000000000000000000000000000000000000000000000000\n      dup2\n      mstore\n      0x04\n      add\n      tag_138\n      swap1\n      tag_139\n      jump\t// in\n    tag_138:\n      mload(0x40)\n      dup1\n      swap2\n      sub\n      swap1\n      revert\n    tag_137:\n        /* \"contracts/PoolContract.sol\":4139:4159  _mint(to, liquidity) */\n      tag_140\n        /* \"contracts/PoolContract.sol\":4145:4147  to */\n      dup9\n        /* \"contracts/PoolContract.sol\":4149:4158  liquidity */\n      dup9\n        /* \"contracts/PoolContract.sol\":4139:4144  _mint */\n      tag_141\n        /* \"contracts/PoolContract.sol\":4139:4159  _mint(to, liquidity) */\n      jump\t// in\n    tag_140:\n        /* \"contracts/PoolContract.sol\":4222:4249  _update(balance0, balance1) */\n      tag_142\n        /* \"contracts/PoolContract.sol\":4230:4238  balance0 */\n      dup7\n        /* \"contracts/PoolContract.sol\":4240:4248  balance1 */\n      dup7\n        /* \"contracts/PoolContract.sol\":4222:4229  _update */\n      tag_143\n        /* \"contracts/PoolContract.sol\":4222:4249  _update(balance0, balance1) */\n      jump\t// in\n    tag_142:\n        /* \"contracts/PoolContract.sol\":4270:4280  msg.sender */\n      caller\n        /* \"contracts/PoolContract.sol\":4265:4299  Mint(msg.sender, amount0, amount1) */\n      0xffffffffffffffffffffffffffffffffffffffff\n      and\n      0x4c209b5fc8ad50758f13e2e1088ba56a560dff690a1c6fef26394f4c03821c4f\n        /* \"contracts/PoolContract.sol\":4282:4289  amount0 */\n      dup4\n        /* \"contracts/PoolContract.sol\":4291:4298  amount1 */\n      dup4\n        /* \"contracts/PoolContract.sol\":4265:4299  Mint(msg.sender, amount0, amount1) */\n      mload(0x40)\n      tag_144\n      swap3\n      swap2\n      swap1\n      tag_27\n      jump\t// in\n    tag_144:\n      mload(0x40)\n      dup1\n      swap2\n      sub\n      swap1\n      log2\n        /* \"contracts/PoolContract.sol\":3318:4307  {\r... */\n      pop\n      pop\n      pop\n      pop\n      pop\n      pop\n        /* \"contracts/PoolContract.sol\":3258:4307  function mint(address to) external returns (uint liquidity) {\r... */\n      swap2\n      swap1\n      pop\n      jump\t// out\n        /* \"contracts/PoolContract.sol\":7541:7722  function setAdmin(address _admin) external {\r... */\n    tag_57:\n        /* \"contracts/PoolContract.sol\":7657:7662  admin */\n      0x03\n      0x00\n      swap1\n      sload\n      swap1\n      0x0100\n      exp\n      swap1\n      div\n      0xffffffffffffffffffffffffffffffffffffffff\n      and\n        /* \"contracts/PoolContract.sol\":7643:7662  msg.sender == admin */\n      0xffffffffffffffffffffffffffffffffffffffff\n      and\n        /* \"contracts/PoolContract.sol\":7643:7653  msg.sender */\n      caller\n        /* \"contracts/PoolContract.sol\":7643:7662  msg.sender == admin */\n      0xffffffffffffffffffffffffffffffffffffffff\n      and\n      eq\n        /* \"contracts/PoolContract.sol\":7635:7689  require(msg.sender == admin, \"FACTORY: Access denied\") */\n      tag_146\n      jumpi\n      mload(0x40)\n      0x08c379a000000000000000000000000000000000000000000000000000000000\n      dup2\n      mstore\n      0x04\n      add\n      tag_147\n      swap1\n      tag_148\n      jump\t// in\n    tag_147:\n      mload(0x40)\n      dup1\n      swap2\n      sub\n      swap1\n      revert\n    tag_146:\n        /* \"contracts/PoolContract.sol\":7708:7714  _admin */\n      dup1\n        /* \"contracts/PoolContract.sol\":7700:7705  admin */\n      0x03\n      0x00\n        /* \"contracts/PoolContract.sol\":7700:7714  admin = _admin */\n      0x0100\n      exp\n      dup2\n      sload\n      dup2\n      0xffffffffffffffffffffffffffffffffffffffff\n      mul\n      not\n      and\n      swap1\n      dup4\n      0xffffffffffffffffffffffffffffffffffffffff\n      and\n      mul\n      or\n      swap1\n      sstore\n      pop\n        /* \"contracts/PoolContract.sol\":7541:7722  function setAdmin(address _admin) external {\r... */\n      pop\n      jump\t// out\n        /* \"contracts/PoolContract.sol\":679:729  mapping(address => uint) override public balanceOf */\n    tag_60:\n      mstore(0x20, 0x01)\n      dup1\n      0x00\n      mstore\n      keccak256(0x00, 0x40)\n      0x00\n      swap2\n      pop\n      swap1\n      pop\n      sload\n      dup2\n      jump\t// out\n        /* \"contracts/PoolContract.sol\":4350:5398  function burn(address to) external returns (uint amount0, uint amount1) {\r... */\n    tag_64:\n        /* \"contracts/PoolContract.sol\":4394:4406  uint amount0 */\n      0x00\n        /* \"contracts/PoolContract.sol\":4408:4420  uint amount1 */\n      dup1\n        /* \"contracts/PoolContract.sol\":4517:4523  router */\n      0x04\n      0x00\n      swap1\n      sload\n      swap1\n      0x0100\n      exp\n      swap1\n      div\n      0xffffffffffffffffffffffffffffffffffffffff\n      and\n        /* \"contracts/PoolContract.sol\":4503:4523  msg.sender == router */\n      0xffffffffffffffffffffffffffffffffffffffff\n      and\n        /* \"contracts/PoolContract.sol\":4503:4513  msg.sender */\n      caller\n        /* \"contracts/PoolContract.sol\":4503:4523  msg.sender == router */\n      0xffffffffffffffffffffffffffffffffffffffff\n      and\n      eq\n        /* \"contracts/PoolContract.sol\":4495:4547  require(msg.sender == router, \"POOL: Access denied\") */\n      tag_150\n      jumpi\n      mload(0x40)\n      0x08c379a000000000000000000000000000000000000000000000000000000000\n      dup2\n      mstore\n      0x04\n      add\n      tag_151\n      swap1\n      tag_119\n      jump\t// in\n    tag_151:\n      mload(0x40)\n      dup1\n      swap2\n      sub\n      swap1\n      revert\n    tag_150:\n        /* \"contracts/PoolContract.sol\":4595:4608  uint balance0 */\n      0x00\n        /* \"contracts/PoolContract.sol\":4610:4623  uint balance1 */\n      dup1\n        /* \"contracts/PoolContract.sol\":4627:4640  getBalances() */\n      tag_152\n        /* \"contracts/PoolContract.sol\":4627:4638  getBalances */\n      tag_25\n        /* \"contracts/PoolContract.sol\":4627:4640  getBalances() */\n      jump\t// in\n    tag_152:\n        /* \"contracts/PoolContract.sol\":4594:4640  (uint balance0, uint balance1) = getBalances() */\n      swap2\n      pop\n      swap2\n      pop\n        /* \"contracts/PoolContract.sol\":4652:4665  uint reserve0 */\n      0x00\n        /* \"contracts/PoolContract.sol\":4667:4680  uint reserve1 */\n      dup1\n        /* \"contracts/PoolContract.sol\":4684:4697  getReserves() */\n      tag_153\n        /* \"contracts/PoolContract.sol\":4684:4695  getReserves */\n      tag_29\n        /* \"contracts/PoolContract.sol\":4684:4697  getReserves() */\n      jump\t// in\n    tag_153:\n        /* \"contracts/PoolContract.sol\":4651:4697  (uint reserve0, uint reserve1) = getReserves() */\n      swap2\n      pop\n      swap2\n      pop\n        /* \"contracts/PoolContract.sol\":4708:4722  uint liquidity */\n      0x00\n        /* \"contracts/PoolContract.sol\":4725:4734  balanceOf */\n      0x01\n        /* \"contracts/PoolContract.sol\":4725:4749  balanceOf[address(this)] */\n      0x00\n        /* \"contracts/PoolContract.sol\":4743:4747  this */\n      address\n        /* \"contracts/PoolContract.sol\":4725:4749  balanceOf[address(this)] */\n      0xffffffffffffffffffffffffffffffffffffffff\n      and\n      0xffffffffffffffffffffffffffffffffffffffff\n      and\n      dup2\n      mstore\n      0x20\n      add\n      swap1\n      dup2\n      mstore\n      0x20\n      add\n      0x00\n      keccak256\n      sload\n        /* \"contracts/PoolContract.sol\":4708:4749  uint liquidity = balanceOf[address(this)] */\n      swap1\n      pop\n        /* \"contracts/PoolContract.sol\":4856:4867  totalSupply */\n      sload(0x00)\n        /* \"contracts/PoolContract.sol\":4830:4853  liquidity.mul(balance0) */\n      tag_154\n        /* \"contracts/PoolContract.sol\":4844:4852  balance0 */\n      dup7\n        /* \"contracts/PoolContract.sol\":4830:4839  liquidity */\n      dup4\n        /* \"contracts/PoolContract.sol\":4830:4843  liquidity.mul */\n      tag_127\n      swap1\n        /* \"contracts/PoolContract.sol\":4830:4853  liquidity.mul(balance0) */\n      swap2\n      swap1\n      0xffffffff\n      and\n      jump\t// in\n    tag_154:\n        /* \"contracts/PoolContract.sol\":4830:4867  liquidity.mul(balance0) / totalSupply */\n      tag_155\n      swap2\n      swap1\n      tag_133\n      jump\t// in\n    tag_155:\n        /* \"contracts/PoolContract.sol\":4820:4867  amount0 = liquidity.mul(balance0) / totalSupply */\n      swap7\n      pop\n        /* \"contracts/PoolContract.sol\":4914:4925  totalSupply */\n      sload(0x00)\n        /* \"contracts/PoolContract.sol\":4888:4911  liquidity.mul(balance1) */\n      tag_156\n        /* \"contracts/PoolContract.sol\":4902:4910  balance1 */\n      dup6\n        /* \"contracts/PoolContract.sol\":4888:4897  liquidity */\n      dup4\n        /* \"contracts/PoolContract.sol\":4888:4901  liquidity.mul */\n      tag_127\n      swap1\n        /* \"contracts/PoolContract.sol\":4888:4911  liquidity.mul(balance1) */\n      swap2\n      swap1\n      0xffffffff\n      and\n      jump\t// in\n    tag_156:\n        /* \"contracts/PoolContract.sol\":4888:4925  liquidity.mul(balance1) / totalSupply */\n      tag_157\n      swap2\n      swap1\n      tag_133\n      jump\t// in\n    tag_157:\n        /* \"contracts/PoolContract.sol\":4878:4925  amount1 = liquidity.mul(balance1) / totalSupply */\n      swap6\n      pop\n        /* \"contracts/PoolContract.sol\":4954:4955  0 */\n      0x00\n        /* \"contracts/PoolContract.sol\":4944:4951  amount0 */\n      dup8\n        /* \"contracts/PoolContract.sol\":4944:4955  amount0 > 0 */\n      gt\n        /* \"contracts/PoolContract.sol\":4944:4970  amount0 > 0 && amount1 > 0 */\n      dup1\n      iszero\n      tag_158\n      jumpi\n      pop\n        /* \"contracts/PoolContract.sol\":4969:4970  0 */\n      0x00\n        /* \"contracts/PoolContract.sol\":4959:4966  amount1 */\n      dup7\n        /* \"contracts/PoolContract.sol\":4959:4970  amount1 > 0 */\n      gt\n        /* \"contracts/PoolContract.sol\":4944:4970  amount0 > 0 && amount1 > 0 */\n    tag_158:\n        /* \"contracts/PoolContract.sol\":4936:5010  require(amount0 > 0 && amount1 > 0, \"POOL: Insufficient liquidity burned\") */\n      tag_159\n      jumpi\n      mload(0x40)\n      0x08c379a000000000000000000000000000000000000000000000000000000000\n      dup2\n      mstore\n      0x04\n      add\n      tag_160\n      swap1\n      tag_161\n      jump\t// in\n    tag_160:\n      mload(0x40)\n      dup1\n      swap2\n      sub\n      swap1\n      revert\n    tag_159:\n        /* \"contracts/PoolContract.sol\":5076:5107  _burn(address(this), liquidity) */\n      tag_162\n        /* \"contracts/PoolContract.sol\":5090:5094  this */\n      address\n        /* \"contracts/PoolContract.sol\":5097:5106  liquidity */\n      dup3\n        /* \"contracts/PoolContract.sol\":5076:5081  _burn */\n      tag_163\n        /* \"contracts/PoolContract.sol\":5076:5107  _burn(address(this), liquidity) */\n      jump\t// in\n    tag_162:\n        /* \"contracts/PoolContract.sol\":5125:5131  token0 */\n      immutable(\"0xe54f8e4a5d17b2e4d97cb94ddb2a2b00b3620f93c06158e24f4515b3f1ad0dd8\")\n        /* \"contracts/PoolContract.sol\":5118:5141  IERC20(token0).transfer */\n      0xffffffffffffffffffffffffffffffffffffffff\n      and\n      0xa9059cbb\n        /* \"contracts/PoolContract.sol\":5142:5144  to */\n      dup10\n        /* \"contracts/PoolContract.sol\":5146:5153  amount0 */\n      dup10\n        /* \"contracts/PoolContract.sol\":5118:5154  IERC20(token0).transfer(to, amount0) */\n      mload(0x40)\n      dup4\n      0xffffffff\n      and\n      0xe0\n      shl\n      dup2\n      mstore\n      0x04\n      add\n      tag_164\n      swap3\n      swap2\n      swap1\n      tag_165\n      jump\t// in\n    tag_164:\n      0x20\n      mload(0x40)\n      dup1\n      dup4\n      sub\n      dup2\n      0x00\n      dup8\n      dup1\n      extcodesize\n      iszero\n      dup1\n      iszero\n      tag_166\n      jumpi\n      0x00\n      dup1\n      revert\n    tag_166:\n      pop\n      gas\n      call\n      iszero\n      dup1\n      iszero\n      tag_168\n      jumpi\n      returndatasize\n      0x00\n      dup1\n      returndatacopy\n      revert(0x00, returndatasize)\n    tag_168:\n      pop\n      pop\n      pop\n      pop\n      mload(0x40)\n      returndatasize\n      not(0x1f)\n      0x1f\n      dup3\n      add\n      and\n      dup3\n      add\n      dup1\n      0x40\n      mstore\n      pop\n      dup2\n      add\n      swap1\n      tag_169\n      swap2\n      swap1\n      tag_170\n      jump\t// in\n    tag_169:\n      pop\n        /* \"contracts/PoolContract.sol\":5172:5178  token1 */\n      immutable(\"0x1919bbb77b48a65a3a334e011819abf5317994b267bc385c63c0af09ecf64635\")\n        /* \"contracts/PoolContract.sol\":5165:5188  IERC20(token1).transfer */\n      0xffffffffffffffffffffffffffffffffffffffff\n      and\n      0xa9059cbb\n        /* \"contracts/PoolContract.sol\":5189:5191  to */\n      dup10\n        /* \"contracts/PoolContract.sol\":5193:5200  amount1 */\n      dup9\n        /* \"contracts/PoolContract.sol\":5165:5201  IERC20(token1).transfer(to, amount1) */\n      mload(0x40)\n      dup4\n      0xffffffff\n      and\n      0xe0\n      shl\n      dup2\n      mstore\n      0x04\n      add\n      tag_171\n      swap3\n      swap2\n      swap1\n      tag_165\n      jump\t// in\n    tag_171:\n      0x20\n      mload(0x40)\n      dup1\n      dup4\n      sub\n      dup2\n      0x00\n      dup8\n      dup1\n      extcodesize\n      iszero\n      dup1\n      iszero\n      tag_172\n      jumpi\n      0x00\n      dup1\n      revert\n    tag_172:\n      pop\n      gas\n      call\n      iszero\n      dup1\n      iszero\n      tag_174\n      jumpi\n      returndatasize\n      0x00\n      dup1\n      returndatacopy\n      revert(0x00, returndatasize)\n    tag_174:\n      pop\n      pop\n      pop\n      pop\n      mload(0x40)\n      returndatasize\n      not(0x1f)\n      0x1f\n      dup3\n      add\n      and\n      dup3\n      add\n      dup1\n      0x40\n      mstore\n      pop\n      dup2\n      add\n      swap1\n      tag_175\n      swap2\n      swap1\n      tag_170\n      jump\t// in\n    tag_175:\n      pop\n        /* \"contracts/PoolContract.sol\":5285:5298  getBalances() */\n      tag_176\n        /* \"contracts/PoolContract.sol\":5285:5296  getBalances */\n      tag_25\n        /* \"contracts/PoolContract.sol\":5285:5298  getBalances() */\n      jump\t// in\n    tag_176:\n        /* \"contracts/PoolContract.sol\":5262:5298  (balance0, balance1) = getBalances() */\n      dup1\n      swap6\n      pop\n      dup2\n      swap7\n      pop\n      pop\n      pop\n        /* \"contracts/PoolContract.sol\":5309:5336  _update(balance0, balance1) */\n      tag_177\n        /* \"contracts/PoolContract.sol\":5317:5325  balance0 */\n      dup6\n        /* \"contracts/PoolContract.sol\":5327:5335  balance1 */\n      dup6\n        /* \"contracts/PoolContract.sol\":5309:5316  _update */\n      tag_143\n        /* \"contracts/PoolContract.sol\":5309:5336  _update(balance0, balance1) */\n      jump\t// in\n    tag_177:\n        /* \"contracts/PoolContract.sol\":5387:5389  to */\n      dup8\n        /* \"contracts/PoolContract.sol\":5352:5390  Burn(msg.sender, amount0, amount1, to) */\n      0xffffffffffffffffffffffffffffffffffffffff\n      and\n        /* \"contracts/PoolContract.sol\":5357:5367  msg.sender */\n      caller\n        /* \"contracts/PoolContract.sol\":5352:5390  Burn(msg.sender, amount0, amount1, to) */\n      0xffffffffffffffffffffffffffffffffffffffff\n      and\n      0xdccd412f0b1252819cb1fd330b93224ca42612892bb3f4f789976e6d81936496\n        /* \"contracts/PoolContract.sol\":5369:5376  amount0 */\n      dup10\n        /* \"contracts/PoolContract.sol\":5378:5385  amount1 */\n      dup10\n        /* \"contracts/PoolContract.sol\":5352:5390  Burn(msg.sender, amount0, amount1, to) */\n      mload(0x40)\n      tag_178\n      swap3\n      swap2\n      swap1\n      tag_27\n      jump\t// in\n    tag_178:\n      mload(0x40)\n      dup1\n      swap2\n      sub\n      swap1\n      log3\n        /* \"contracts/PoolContract.sol\":4422:5398  {\r... */\n      pop\n      pop\n      pop\n      pop\n      pop\n        /* \"contracts/PoolContract.sol\":4350:5398  function burn(address to) external returns (uint amount0, uint amount1) {\r... */\n      swap2\n      pop\n      swap2\n      jump\t// out\n        /* \"contracts/PoolContract.sol\":1722:1870  function transfer(address to, uint value) override external returns (bool) {\r... */\n    tag_68:\n        /* \"contracts/PoolContract.sol\":1791:1795  bool */\n      0x00\n        /* \"contracts/PoolContract.sol\":1808:1840  _transfer(msg.sender, to, value) */\n      tag_180\n        /* \"contracts/PoolContract.sol\":1818:1828  msg.sender */\n      caller\n        /* \"contracts/PoolContract.sol\":1830:1832  to */\n      dup5\n        /* \"contracts/PoolContract.sol\":1834:1839  value */\n      dup5\n        /* \"contracts/PoolContract.sol\":1808:1817  _transfer */\n      tag_115\n        /* \"contracts/PoolContract.sol\":1808:1840  _transfer(msg.sender, to, value) */\n      jump\t// in\n    tag_180:\n        /* \"contracts/PoolContract.sol\":1858:1862  true */\n      0x01\n        /* \"contracts/PoolContract.sol\":1851:1862  return true */\n      swap1\n      pop\n        /* \"contracts/PoolContract.sol\":1722:1870  function transfer(address to, uint value) override external returns (bool) {\r... */\n      swap3\n      swap2\n      pop\n      pop\n      jump\t// out\n        /* \"contracts/PoolContract.sol\":7347:7533  function setRouter(address _router) external {\r... */\n    tag_72:\n        /* \"contracts/PoolContract.sol\":7466:7471  admin */\n      0x03\n      0x00\n      swap1\n      sload\n      swap1\n      0x0100\n      exp\n      swap1\n      div\n      0xffffffffffffffffffffffffffffffffffffffff\n      and\n        /* \"contracts/PoolContract.sol\":7452:7471  msg.sender == admin */\n      0xffffffffffffffffffffffffffffffffffffffff\n      and\n        /* \"contracts/PoolContract.sol\":7452:7462  msg.sender */\n      caller\n        /* \"contracts/PoolContract.sol\":7452:7471  msg.sender == admin */\n      0xffffffffffffffffffffffffffffffffffffffff\n      and\n      eq\n        /* \"contracts/PoolContract.sol\":7444:7498  require(msg.sender == admin, \"FACTORY: Access denied\") */\n      tag_182\n      jumpi\n      mload(0x40)\n      0x08c379a000000000000000000000000000000000000000000000000000000000\n      dup2\n      mstore\n      0x04\n      add\n      tag_183\n      swap1\n      tag_148\n      jump\t// in\n    tag_183:\n      mload(0x40)\n      dup1\n      swap2\n      sub\n      swap1\n      revert\n    tag_182:\n        /* \"contracts/PoolContract.sol\":7518:7525  _router */\n      dup1\n        /* \"contracts/PoolContract.sol\":7509:7515  router */\n      0x04\n      0x00\n        /* \"contracts/PoolContract.sol\":7509:7525  router = _router */\n      0x0100\n      exp\n      dup2\n      sload\n      dup2\n      0xffffffffffffffffffffffffffffffffffffffff\n      mul\n      not\n      and\n      swap1\n      dup4\n      0xffffffffffffffffffffffffffffffffffffffff\n      and\n      mul\n      or\n      swap1\n      sstore\n      pop\n        /* \"contracts/PoolContract.sol\":7347:7533  function setRouter(address _router) external {\r... */\n      pop\n      jump\t// out\n        /* \"contracts/PoolContract.sol\":2476:2508  address public immutable factory */\n    tag_74:\n      immutable(\"0x0e2ebb9616682a934d374d36ec533ac8c688d143a19ec3095914433ecc16266a\")\n      dup2\n      jump\t// out\n        /* \"contracts/PoolContract.sol\":2581:2612  address public immutable token1 */\n    tag_77:\n      immutable(\"0x1919bbb77b48a65a3a334e011819abf5317994b267bc385c63c0af09ecf64635\")\n      dup2\n      jump\t// out\n        /* \"contracts/PoolContract.sol\":5444:6697  function swap(address tokenIn, address tokenOut, uint amountIn, uint amountOut, address to) external {\r... */\n    tag_82:\n        /* \"contracts/PoolContract.sol\":5640:5646  router */\n      0x04\n      0x00\n      swap1\n      sload\n      swap1\n      0x0100\n      exp\n      swap1\n      div\n      0xffffffffffffffffffffffffffffffffffffffff\n      and\n        /* \"contracts/PoolContract.sol\":5626:5646  msg.sender == router */\n      0xffffffffffffffffffffffffffffffffffffffff\n      and\n        /* \"contracts/PoolContract.sol\":5626:5636  msg.sender */\n      caller\n        /* \"contracts/PoolContract.sol\":5626:5646  msg.sender == router */\n      0xffffffffffffffffffffffffffffffffffffffff\n      and\n      eq\n        /* \"contracts/PoolContract.sol\":5618:5670  require(msg.sender == router, \"POOL: Access denied\") */\n      tag_185\n      jumpi\n      mload(0x40)\n      0x08c379a000000000000000000000000000000000000000000000000000000000\n      dup2\n      mstore\n      0x04\n      add\n      tag_186\n      swap1\n      tag_119\n      jump\t// in\n    tag_186:\n      mload(0x40)\n      dup1\n      swap2\n      sub\n      swap1\n      revert\n    tag_185:\n        /* \"contracts/PoolContract.sol\":5714:5727  uint reserve0 */\n      0x00\n        /* \"contracts/PoolContract.sol\":5729:5742  uint reserve1 */\n      dup1\n        /* \"contracts/PoolContract.sol\":5746:5759  getReserves() */\n      tag_187\n        /* \"contracts/PoolContract.sol\":5746:5757  getReserves */\n      tag_29\n        /* \"contracts/PoolContract.sol\":5746:5759  getReserves() */\n      jump\t// in\n    tag_187:\n        /* \"contracts/PoolContract.sol\":5713:5759  (uint reserve0, uint reserve1) = getReserves() */\n      swap2\n      pop\n      swap2\n      pop\n        /* \"contracts/PoolContract.sol\":5771:5786  uint amount0Out */\n      0x00\n        /* \"contracts/PoolContract.sol\":5788:5803  uint amount1Out */\n      dup1\n        /* \"contracts/PoolContract.sol\":5817:5825  tokenOut */\n      dup8\n        /* \"contracts/PoolContract.sol\":5807:5825  token0 == tokenOut */\n      0xffffffffffffffffffffffffffffffffffffffff\n      and\n        /* \"contracts/PoolContract.sol\":5807:5813  token0 */\n      immutable(\"0xe54f8e4a5d17b2e4d97cb94ddb2a2b00b3620f93c06158e24f4515b3f1ad0dd8\")\n        /* \"contracts/PoolContract.sol\":5807:5825  token0 == tokenOut */\n      0xffffffffffffffffffffffffffffffffffffffff\n      and\n      eq\n        /* \"contracts/PoolContract.sol\":5807:5871  token0 == tokenOut ? (amountOut, uint(0)) : (uint(0), amountOut) */\n      tag_188\n      jumpi\n        /* \"contracts/PoolContract.sol\":5857:5858  0 */\n      0x00\n        /* \"contracts/PoolContract.sol\":5861:5870  amountOut */\n      dup7\n        /* \"contracts/PoolContract.sol\":5807:5871  token0 == tokenOut ? (amountOut, uint(0)) : (uint(0), amountOut) */\n      jump(tag_189)\n    tag_188:\n        /* \"contracts/PoolContract.sol\":5829:5838  amountOut */\n      dup6\n        /* \"contracts/PoolContract.sol\":5845:5846  0 */\n      0x00\n        /* \"contracts/PoolContract.sol\":5807:5871  token0 == tokenOut ? (amountOut, uint(0)) : (uint(0), amountOut) */\n    tag_189:\n        /* \"contracts/PoolContract.sol\":5770:5871  (uint amount0Out, uint amount1Out) = token0 == tokenOut ? (amountOut, uint(0)) : (uint(0), amountOut) */\n      swap2\n      pop\n      swap2\n      pop\n        /* \"contracts/PoolContract.sol\":5903:5904  0 */\n      0x00\n        /* \"contracts/PoolContract.sol\":5890:5900  amount0Out */\n      dup3\n        /* \"contracts/PoolContract.sol\":5890:5904  amount0Out > 0 */\n      gt\n        /* \"contracts/PoolContract.sol\":5890:5922  amount0Out > 0 || amount1Out > 0 */\n      dup1\n      tag_190\n      jumpi\n      pop\n        /* \"contracts/PoolContract.sol\":5921:5922  0 */\n      0x00\n        /* \"contracts/PoolContract.sol\":5908:5918  amount1Out */\n      dup2\n        /* \"contracts/PoolContract.sol\":5908:5922  amount1Out > 0 */\n      gt\n        /* \"contracts/PoolContract.sol\":5890:5922  amount0Out > 0 || amount1Out > 0 */\n    tag_190:\n        /* \"contracts/PoolContract.sol\":5882:5959  require(amount0Out > 0 || amount1Out > 0, \"ERROR: Insufficent output amount\") */\n      tag_191\n      jumpi\n      mload(0x40)\n      0x08c379a000000000000000000000000000000000000000000000000000000000\n      dup2\n      mstore\n      0x04\n      add\n      tag_192\n      swap1\n      tag_193\n      jump\t// in\n    tag_192:\n      mload(0x40)\n      dup1\n      swap2\n      sub\n      swap1\n      revert\n    tag_191:\n        /* \"contracts/PoolContract.sol\":6002:6015  uint balance0 */\n      0x00\n        /* \"contracts/PoolContract.sol\":6017:6030  uint balance1 */\n      dup1\n        /* \"contracts/PoolContract.sol\":6034:6047  getBalances() */\n      tag_194\n        /* \"contracts/PoolContract.sol\":6034:6045  getBalances */\n      tag_25\n        /* \"contracts/PoolContract.sol\":6034:6047  getBalances() */\n      jump\t// in\n    tag_194:\n        /* \"contracts/PoolContract.sol\":6001:6047  (uint balance0, uint balance1) = getBalances() */\n      swap2\n      pop\n      swap2\n      pop\n        /* \"contracts/PoolContract.sol\":6058:6072  uint amount0In */\n      0x00\n        /* \"contracts/PoolContract.sol\":6086:6110  reserve0.sub(amount0Out) */\n      tag_195\n        /* \"contracts/PoolContract.sol\":6099:6109  amount0Out */\n      dup6\n        /* \"contracts/PoolContract.sol\":6086:6094  reserve0 */\n      dup9\n        /* \"contracts/PoolContract.sol\":6086:6098  reserve0.sub */\n      tag_113\n      swap1\n        /* \"contracts/PoolContract.sol\":6086:6110  reserve0.sub(amount0Out) */\n      swap2\n      swap1\n      0xffffffff\n      and\n      jump\t// in\n    tag_195:\n        /* \"contracts/PoolContract.sol\":6075:6083  balance0 */\n      dup4\n        /* \"contracts/PoolContract.sol\":6075:6110  balance0 > reserve0.sub(amount0Out) */\n      gt\n        /* \"contracts/PoolContract.sol\":6075:6155  balance0 > reserve0.sub(amount0Out) ? balance0.sub(reserve0.sub(amount0Out)) : 0 */\n      tag_196\n      jumpi\n        /* \"contracts/PoolContract.sol\":6154:6155  0 */\n      0x00\n        /* \"contracts/PoolContract.sol\":6075:6155  balance0 > reserve0.sub(amount0Out) ? balance0.sub(reserve0.sub(amount0Out)) : 0 */\n      jump(tag_197)\n    tag_196:\n        /* \"contracts/PoolContract.sol\":6113:6151  balance0.sub(reserve0.sub(amount0Out)) */\n      tag_198\n        /* \"contracts/PoolContract.sol\":6126:6150  reserve0.sub(amount0Out) */\n      tag_199\n        /* \"contracts/PoolContract.sol\":6139:6149  amount0Out */\n      dup7\n        /* \"contracts/PoolContract.sol\":6126:6134  reserve0 */\n      dup10\n        /* \"contracts/PoolContract.sol\":6126:6138  reserve0.sub */\n      tag_113\n      swap1\n        /* \"contracts/PoolContract.sol\":6126:6150  reserve0.sub(amount0Out) */\n      swap2\n      swap1\n      0xffffffff\n      and\n      jump\t// in\n    tag_199:\n        /* \"contracts/PoolContract.sol\":6113:6121  balance0 */\n      dup5\n        /* \"contracts/PoolContract.sol\":6113:6125  balance0.sub */\n      tag_113\n      swap1\n        /* \"contracts/PoolContract.sol\":6113:6151  balance0.sub(reserve0.sub(amount0Out)) */\n      swap2\n      swap1\n      0xffffffff\n      and\n      jump\t// in\n    tag_198:\n        /* \"contracts/PoolContract.sol\":6075:6155  balance0 > reserve0.sub(amount0Out) ? balance0.sub(reserve0.sub(amount0Out)) : 0 */\n    tag_197:\n        /* \"contracts/PoolContract.sol\":6058:6155  uint amount0In = balance0 > reserve0.sub(amount0Out) ? balance0.sub(reserve0.sub(amount0Out)) : 0 */\n      swap1\n      pop\n        /* \"contracts/PoolContract.sol\":6166:6180  uint amount1In */\n      0x00\n        /* \"contracts/PoolContract.sol\":6194:6218  reserve1.sub(amount1Out) */\n      tag_200\n        /* \"contracts/PoolContract.sol\":6207:6217  amount1Out */\n      dup6\n        /* \"contracts/PoolContract.sol\":6194:6202  reserve1 */\n      dup9\n        /* \"contracts/PoolContract.sol\":6194:6206  reserve1.sub */\n      tag_113\n      swap1\n        /* \"contracts/PoolContract.sol\":6194:6218  reserve1.sub(amount1Out) */\n      swap2\n      swap1\n      0xffffffff\n      and\n      jump\t// in\n    tag_200:\n        /* \"contracts/PoolContract.sol\":6183:6191  balance1 */\n      dup4\n        /* \"contracts/PoolContract.sol\":6183:6218  balance1 > reserve1.sub(amount1Out) */\n      gt\n        /* \"contracts/PoolContract.sol\":6183:6263  balance1 > reserve1.sub(amount1Out) ? balance1.sub(reserve1.sub(amount1Out)) : 0 */\n      tag_201\n      jumpi\n        /* \"contracts/PoolContract.sol\":6262:6263  0 */\n      0x00\n        /* \"contracts/PoolContract.sol\":6183:6263  balance1 > reserve1.sub(amount1Out) ? balance1.sub(reserve1.sub(amount1Out)) : 0 */\n      jump(tag_202)\n    tag_201:\n        /* \"contracts/PoolContract.sol\":6221:6259  balance1.sub(reserve1.sub(amount1Out)) */\n      tag_203\n        /* \"contracts/PoolContract.sol\":6234:6258  reserve1.sub(amount1Out) */\n      tag_204\n        /* \"contracts/PoolContract.sol\":6247:6257  amount1Out */\n      dup7\n        /* \"contracts/PoolContract.sol\":6234:6242  reserve1 */\n      dup10\n        /* \"contracts/PoolContract.sol\":6234:6246  reserve1.sub */\n      tag_113\n      swap1\n        /* \"contracts/PoolContract.sol\":6234:6258  reserve1.sub(amount1Out) */\n      swap2\n      swap1\n      0xffffffff\n      and\n      jump\t// in\n    tag_204:\n        /* \"contracts/PoolContract.sol\":6221:6229  balance1 */\n      dup5\n        /* \"contracts/PoolContract.sol\":6221:6233  balance1.sub */\n      tag_113\n      swap1\n        /* \"contracts/PoolContract.sol\":6221:6259  balance1.sub(reserve1.sub(amount1Out)) */\n      swap2\n      swap1\n      0xffffffff\n      and\n      jump\t// in\n    tag_203:\n        /* \"contracts/PoolContract.sol\":6183:6263  balance1 > reserve1.sub(amount1Out) ? balance1.sub(reserve1.sub(amount1Out)) : 0 */\n    tag_202:\n        /* \"contracts/PoolContract.sol\":6166:6263  uint amount1In = balance1 > reserve1.sub(amount1Out) ? balance1.sub(reserve1.sub(amount1Out)) : 0 */\n      swap1\n      pop\n        /* \"contracts/PoolContract.sol\":6294:6295  0 */\n      0x00\n        /* \"contracts/PoolContract.sol\":6282:6291  amount0In */\n      dup3\n        /* \"contracts/PoolContract.sol\":6282:6295  amount0In > 0 */\n      gt\n        /* \"contracts/PoolContract.sol\":6282:6312  amount0In > 0 || amount1In > 0 */\n      dup1\n      tag_205\n      jumpi\n      pop\n        /* \"contracts/PoolContract.sol\":6311:6312  0 */\n      0x00\n        /* \"contracts/PoolContract.sol\":6299:6308  amount1In */\n      dup2\n        /* \"contracts/PoolContract.sol\":6299:6312  amount1In > 0 */\n      gt\n        /* \"contracts/PoolContract.sol\":6282:6312  amount0In > 0 || amount1In > 0 */\n    tag_205:\n        /* \"contracts/PoolContract.sol\":6274:6349  require(amount0In > 0 || amount1In > 0, \"ERROR: insufficient input amount\") */\n      tag_206\n      jumpi\n      mload(0x40)\n      0x08c379a000000000000000000000000000000000000000000000000000000000\n      dup2\n      mstore\n      0x04\n      add\n      tag_207\n      swap1\n      tag_208\n      jump\t// in\n    tag_207:\n      mload(0x40)\n      dup1\n      swap2\n      sub\n      swap1\n      revert\n    tag_206:\n        /* \"contracts/PoolContract.sol\":6407:6408  0 */\n      0x00\n        /* \"contracts/PoolContract.sol\":6394:6404  amount0Out */\n      dup7\n        /* \"contracts/PoolContract.sol\":6394:6408  amount0Out > 0 */\n      gt\n        /* \"contracts/PoolContract.sol\":6390:6449  if (amount0Out > 0) IERC20(token0).transfer(to, amount0Out) */\n      iszero\n      tag_209\n      jumpi\n        /* \"contracts/PoolContract.sol\":6417:6423  token0 */\n      immutable(\"0xe54f8e4a5d17b2e4d97cb94ddb2a2b00b3620f93c06158e24f4515b3f1ad0dd8\")\n        /* \"contracts/PoolContract.sol\":6410:6433  IERC20(token0).transfer */\n      0xffffffffffffffffffffffffffffffffffffffff\n      and\n      0xa9059cbb\n        /* \"contracts/PoolContract.sol\":6434:6436  to */\n      dup11\n        /* \"contracts/PoolContract.sol\":6438:6448  amount0Out */\n      dup9\n        /* \"contracts/PoolContract.sol\":6410:6449  IERC20(token0).transfer(to, amount0Out) */\n      mload(0x40)\n      dup4\n      0xffffffff\n      and\n      0xe0\n      shl\n      dup2\n      mstore\n      0x04\n      add\n      tag_210\n      swap3\n      swap2\n      swap1\n      tag_165\n      jump\t// in\n    tag_210:\n      0x20\n      mload(0x40)\n      dup1\n      dup4\n      sub\n      dup2\n      0x00\n      dup8\n      dup1\n      extcodesize\n      iszero\n      dup1\n      iszero\n      tag_211\n      jumpi\n      0x00\n      dup1\n      revert\n    tag_211:\n      pop\n      gas\n      call\n      iszero\n      dup1\n      iszero\n      tag_213\n      jumpi\n      returndatasize\n      0x00\n      dup1\n      returndatacopy\n      revert(0x00, returndatasize)\n    tag_213:\n      pop\n      pop\n      pop\n      pop\n      mload(0x40)\n      returndatasize\n      not(0x1f)\n      0x1f\n      dup3\n      add\n      and\n      dup3\n      add\n      dup1\n      0x40\n      mstore\n      pop\n      dup2\n      add\n      swap1\n      tag_214\n      swap2\n      swap1\n      tag_170\n      jump\t// in\n    tag_214:\n      pop\n        /* \"contracts/PoolContract.sol\":6390:6449  if (amount0Out > 0) IERC20(token0).transfer(to, amount0Out) */\n    tag_209:\n        /* \"contracts/PoolContract.sol\":6477:6478  0 */\n      0x00\n        /* \"contracts/PoolContract.sol\":6464:6474  amount1Out */\n      dup6\n        /* \"contracts/PoolContract.sol\":6464:6478  amount1Out > 0 */\n      gt\n        /* \"contracts/PoolContract.sol\":6460:6519  if (amount1Out > 0) IERC20(token1).transfer(to, amount1Out) */\n      iszero\n      tag_215\n      jumpi\n        /* \"contracts/PoolContract.sol\":6487:6493  token1 */\n      immutable(\"0x1919bbb77b48a65a3a334e011819abf5317994b267bc385c63c0af09ecf64635\")\n        /* \"contracts/PoolContract.sol\":6480:6503  IERC20(token1).transfer */\n      0xffffffffffffffffffffffffffffffffffffffff\n      and\n      0xa9059cbb\n        /* \"contracts/PoolContract.sol\":6504:6506  to */\n      dup11\n        /* \"contracts/PoolContract.sol\":6508:6518  amount1Out */\n      dup8\n        /* \"contracts/PoolContract.sol\":6480:6519  IERC20(token1).transfer(to, amount1Out) */\n      mload(0x40)\n      dup4\n      0xffffffff\n      and\n      0xe0\n      shl\n      dup2\n      mstore\n      0x04\n      add\n      tag_216\n      swap3\n      swap2\n      swap1\n      tag_165\n      jump\t// in\n    tag_216:\n      0x20\n      mload(0x40)\n      dup1\n      dup4\n      sub\n      dup2\n      0x00\n      dup8\n      dup1\n      extcodesize\n      iszero\n      dup1\n      iszero\n      tag_217\n      jumpi\n      0x00\n      dup1\n      revert\n    tag_217:\n      pop\n      gas\n      call\n      iszero\n      dup1\n      iszero\n      tag_219\n      jumpi\n      returndatasize\n      0x00\n      dup1\n      returndatacopy\n      revert(0x00, returndatasize)\n    tag_219:\n      pop\n      pop\n      pop\n      pop\n      mload(0x40)\n      returndatasize\n      not(0x1f)\n      0x1f\n      dup3\n      add\n      and\n      dup3\n      add\n      dup1\n      0x40\n      mstore\n      pop\n      dup2\n      add\n      swap1\n      tag_220\n      swap2\n      swap1\n      tag_170\n      jump\t// in\n    tag_220:\n      pop\n        /* \"contracts/PoolContract.sol\":6460:6519  if (amount1Out > 0) IERC20(token1).transfer(to, amount1Out) */\n    tag_215:\n        /* \"contracts/PoolContract.sol\":6580:6607  _update(balance0, balance1) */\n      tag_221\n        /* \"contracts/PoolContract.sol\":6588:6596  balance0 */\n      dup5\n        /* \"contracts/PoolContract.sol\":6598:6606  balance1 */\n      dup5\n        /* \"contracts/PoolContract.sol\":6580:6587  _update */\n      tag_143\n        /* \"contracts/PoolContract.sol\":6580:6607  _update(balance0, balance1) */\n      jump\t// in\n    tag_221:\n        /* \"contracts/PoolContract.sol\":6686:6688  to */\n      dup9\n        /* \"contracts/PoolContract.sol\":6623:6689  Swap(msg.sender, amount0In, amount1In, amount0Out, amount1Out, to) */\n      0xffffffffffffffffffffffffffffffffffffffff\n      and\n        /* \"contracts/PoolContract.sol\":6628:6638  msg.sender */\n      caller\n        /* \"contracts/PoolContract.sol\":6623:6689  Swap(msg.sender, amount0In, amount1In, amount0Out, amount1Out, to) */\n      0xffffffffffffffffffffffffffffffffffffffff\n      and\n      0xd78ad95fa46c994b6551d0da85fc275fe613ce37657fb8d5e3d130840159d822\n        /* \"contracts/PoolContract.sol\":6640:6649  amount0In */\n      dup5\n        /* \"contracts/PoolContract.sol\":6651:6660  amount1In */\n      dup5\n        /* \"contracts/PoolContract.sol\":6662:6672  amount0Out */\n      dup11\n        /* \"contracts/PoolContract.sol\":6674:6684  amount1Out */\n      dup11\n        /* \"contracts/PoolContract.sol\":6623:6689  Swap(msg.sender, amount0In, amount1In, amount0Out, amount1Out, to) */\n      mload(0x40)\n      tag_222\n      swap5\n      swap4\n      swap3\n      swap2\n      swap1\n      tag_223\n      jump\t// in\n    tag_222:\n      mload(0x40)\n      dup1\n      swap2\n      sub\n      swap1\n      log3\n        /* \"contracts/PoolContract.sol\":5545:6697  {\r... */\n      pop\n      pop\n      pop\n      pop\n      pop\n      pop\n      pop\n      pop\n        /* \"contracts/PoolContract.sol\":5444:6697  function swap(address tokenIn, address tokenOut, uint amountIn, uint amountOut, address to) external {\r... */\n      pop\n      pop\n      pop\n      pop\n      pop\n      jump\t// out\n        /* \"contracts/PoolContract.sol\":736:806  mapping(address => mapping(address => uint)) override public allowance */\n    tag_86:\n      mstore(0x20, 0x02)\n      dup2\n      0x00\n      mstore\n      mstore(0x20, keccak256(0x00, 0x40))\n      dup1\n      0x00\n      mstore\n      keccak256(0x00, 0x40)\n      0x00\n      swap2\n      pop\n      swap2\n      pop\n      pop\n      sload\n      dup2\n      jump\t// out\n        /* \"contracts/PoolContract.sol\":2447:2467  address public admin */\n    tag_89:\n      0x03\n      0x00\n      swap1\n      sload\n      swap1\n      0x0100\n      exp\n      swap1\n      div\n      0xffffffffffffffffffffffffffffffffffffffff\n      and\n      dup2\n      jump\t// out\n        /* \"contracts/PoolContract.sol\":2515:2536  address public router */\n    tag_92:\n      0x04\n      0x00\n      swap1\n      sload\n      swap1\n      0x0100\n      exp\n      swap1\n      div\n      0xffffffffffffffffffffffffffffffffffffffff\n      and\n      dup2\n      jump\t// out\n        /* \"contracts/PoolContract.sol\":1518:1687  function _approve(address owner, address spender, uint value) private {\r... */\n    tag_109:\n        /* \"contracts/PoolContract.sol\":1627:1632  value */\n      dup1\n        /* \"contracts/PoolContract.sol\":1599:1608  allowance */\n      0x02\n        /* \"contracts/PoolContract.sol\":1599:1615  allowance[owner] */\n      0x00\n        /* \"contracts/PoolContract.sol\":1609:1614  owner */\n      dup6\n        /* \"contracts/PoolContract.sol\":1599:1615  allowance[owner] */\n      0xffffffffffffffffffffffffffffffffffffffff\n      and\n      0xffffffffffffffffffffffffffffffffffffffff\n      and\n      dup2\n      mstore\n      0x20\n      add\n      swap1\n      dup2\n      mstore\n      0x20\n      add\n      0x00\n      keccak256\n        /* \"contracts/PoolContract.sol\":1599:1624  allowance[owner][spender] */\n      0x00\n        /* \"contracts/PoolContract.sol\":1616:1623  spender */\n      dup5\n        /* \"contracts/PoolContract.sol\":1599:1624  allowance[owner][spender] */\n      0xffffffffffffffffffffffffffffffffffffffff\n      and\n      0xffffffffffffffffffffffffffffffffffffffff\n      and\n      dup2\n      mstore\n      0x20\n      add\n      swap1\n      dup2\n      mstore\n      0x20\n      add\n      0x00\n      keccak256\n        /* \"contracts/PoolContract.sol\":1599:1632  allowance[owner][spender] = value */\n      dup2\n      swap1\n      sstore\n      pop\n        /* \"contracts/PoolContract.sol\":1664:1671  spender */\n      dup2\n        /* \"contracts/PoolContract.sol\":1648:1679  Approval(owner, spender, value) */\n      0xffffffffffffffffffffffffffffffffffffffff\n      and\n        /* \"contracts/PoolContract.sol\":1657:1662  owner */\n      dup4\n        /* \"contracts/PoolContract.sol\":1648:1679  Approval(owner, spender, value) */\n      0xffffffffffffffffffffffffffffffffffffffff\n      and\n      0x8c5be1e5ebec7d5bd14f71427d1e84f3dd0314c0f7b2291e5b200ac8c7c3b925\n        /* \"contracts/PoolContract.sol\":1673:1678  value */\n      dup4\n        /* \"contracts/PoolContract.sol\":1648:1679  Approval(owner, spender, value) */\n      mload(0x40)\n      tag_225\n      swap2\n      swap1\n      tag_44\n      jump\t// in\n    tag_225:\n      mload(0x40)\n      dup1\n      swap2\n      sub\n      swap1\n      log3\n        /* \"contracts/PoolContract.sol\":1518:1687  function _approve(address owner, address spender, uint value) private {\r... */\n      pop\n      pop\n      pop\n      jump\t// out\n        /* \"https://github.com/OpenZeppelin/openzeppelin-solidity/contracts/utils/math/SafeMath.sol\":3122:3218  function sub(uint256 a, uint256 b) internal pure returns (uint256) {... */\n    tag_113:\n        /* \"https://github.com/OpenZeppelin/openzeppelin-solidity/contracts/utils/math/SafeMath.sol\":3180:3187  uint256 */\n      0x00\n        /* \"https://github.com/OpenZeppelin/openzeppelin-solidity/contracts/utils/math/SafeMath.sol\":3210:3211  b */\n      dup2\n        /* \"https://github.com/OpenZeppelin/openzeppelin-solidity/contracts/utils/math/SafeMath.sol\":3206:3207  a */\n      dup4\n        /* \"https://github.com/OpenZeppelin/openzeppelin-solidity/contracts/utils/math/SafeMath.sol\":3206:3211  a - b */\n      tag_227\n      swap2\n      swap1\n      tag_228\n      jump\t// in\n    tag_227:\n        /* \"https://github.com/OpenZeppelin/openzeppelin-solidity/contracts/utils/math/SafeMath.sol\":3199:3211  return a - b */\n      swap1\n      pop\n        /* \"https://github.com/OpenZeppelin/openzeppelin-solidity/contracts/utils/math/SafeMath.sol\":3122:3218  function sub(uint256 a, uint256 b) internal pure returns (uint256) {... */\n      swap3\n      swap2\n      pop\n      pop\n      jump\t// out\n        /* \"contracts/PoolContract.sol\":1292:1512  function _transfer(address from, address to, uint value) private {\r... */\n    tag_115:\n        /* \"contracts/PoolContract.sol\":1386:1412  balanceOf[from].sub(value) */\n      tag_230\n        /* \"contracts/PoolContract.sol\":1406:1411  value */\n      dup2\n        /* \"contracts/PoolContract.sol\":1386:1395  balanceOf */\n      0x01\n        /* \"contracts/PoolContract.sol\":1386:1401  balanceOf[from] */\n      0x00\n        /* \"contracts/PoolContract.sol\":1396:1400  from */\n      dup7\n        /* \"contracts/PoolContract.sol\":1386:1401  balanceOf[from] */\n      0xffffffffffffffffffffffffffffffffffffffff\n      and\n      0xffffffffffffffffffffffffffffffffffffffff\n      and\n      dup2\n      mstore\n      0x20\n      add\n      swap1\n      dup2\n      mstore\n      0x20\n      add\n      0x00\n      keccak256\n      sload\n        /* \"contracts/PoolContract.sol\":1386:1405  balanceOf[from].sub */\n      tag_113\n      swap1\n        /* \"contracts/PoolContract.sol\":1386:1412  balanceOf[from].sub(value) */\n      swap2\n      swap1\n      0xffffffff\n      and\n      jump\t// in\n    tag_230:\n        /* \"contracts/PoolContract.sol\":1368:1377  balanceOf */\n      0x01\n        /* \"contracts/PoolContract.sol\":1368:1383  balanceOf[from] */\n      0x00\n        /* \"contracts/PoolContract.sol\":1378:1382  from */\n      dup6\n        /* \"contracts/PoolContract.sol\":1368:1383  balanceOf[from] */\n      0xffffffffffffffffffffffffffffffffffffffff\n      and\n      0xffffffffffffffffffffffffffffffffffffffff\n      and\n      dup2\n      mstore\n      0x20\n      add\n      swap1\n      dup2\n      mstore\n      0x20\n      add\n      0x00\n      keccak256\n        /* \"contracts/PoolContract.sol\":1368:1412  balanceOf[from] = balanceOf[from].sub(value) */\n      dup2\n      swap1\n      sstore\n      pop\n        /* \"contracts/PoolContract.sol\":1439:1463  balanceOf[to].add(value) */\n      tag_231\n        /* \"contracts/PoolContract.sol\":1457:1462  value */\n      dup2\n        /* \"contracts/PoolContract.sol\":1439:1448  balanceOf */\n      0x01\n        /* \"contracts/PoolContract.sol\":1439:1452  balanceOf[to] */\n      0x00\n        /* \"contracts/PoolContract.sol\":1449:1451  to */\n      dup6\n        /* \"contracts/PoolContract.sol\":1439:1452  balanceOf[to] */\n      0xffffffffffffffffffffffffffffffffffffffff\n      and\n      0xffffffffffffffffffffffffffffffffffffffff\n      and\n      dup2\n      mstore\n      0x20\n      add\n      swap1\n      dup2\n      mstore\n      0x20\n      add\n      0x00\n      keccak256\n      sload\n        /* \"contracts/PoolContract.sol\":1439:1456  balanceOf[to].add */\n      tag_232\n      swap1\n        /* \"contracts/PoolContract.sol\":1439:1463  balanceOf[to].add(value) */\n      swap2\n      swap1\n      0xffffffff\n      and\n      jump\t// in\n    tag_231:\n        /* \"contracts/PoolContract.sol\":1423:1432  balanceOf */\n      0x01\n        /* \"contracts/PoolContract.sol\":1423:1436  balanceOf[to] */\n      0x00\n        /* \"contracts/PoolContract.sol\":1433:1435  to */\n      dup5\n        /* \"contracts/PoolContract.sol\":1423:1436  balanceOf[to] */\n      0xffffffffffffffffffffffffffffffffffffffff\n      and\n      0xffffffffffffffffffffffffffffffffffffffff\n      and\n      dup2\n      mstore\n      0x20\n      add\n      swap1\n      dup2\n      mstore\n      0x20\n      add\n      0x00\n      keccak256\n        /* \"contracts/PoolContract.sol\":1423:1463  balanceOf[to] = balanceOf[to].add(value) */\n      dup2\n      swap1\n      sstore\n      pop\n        /* \"contracts/PoolContract.sol\":1494:1496  to */\n      dup2\n        /* \"contracts/PoolContract.sol\":1479:1504  Transfer(from, to, value) */\n      0xffffffffffffffffffffffffffffffffffffffff\n      and\n        /* \"contracts/PoolContract.sol\":1488:1492  from */\n      dup4\n        /* \"contracts/PoolContract.sol\":1479:1504  Transfer(from, to, value) */\n      0xffffffffffffffffffffffffffffffffffffffff\n      and\n      0xddf252ad1be2c89b69c2b068fc378daa952ba7f163c4a11628f55a4df523b3ef\n        /* \"contracts/PoolContract.sol\":1498:1503  value */\n      dup4\n        /* \"contracts/PoolContract.sol\":1479:1504  Transfer(from, to, value) */\n      mload(0x40)\n      tag_233\n      swap2\n      swap1\n      tag_44\n      jump\t// in\n    tag_233:\n      mload(0x40)\n      dup1\n      swap2\n      sub\n      swap1\n      log3\n        /* \"contracts/PoolContract.sol\":1292:1512  function _transfer(address from, address to, uint value) private {\r... */\n      pop\n      pop\n      pop\n      jump\t// out\n        /* \"https://github.com/OpenZeppelin/openzeppelin-solidity/contracts/utils/math/SafeMath.sol\":3465:3561  function mul(uint256 a, uint256 b) internal pure returns (uint256) {... */\n    tag_127:\n        /* \"https://github.com/OpenZeppelin/openzeppelin-solidity/contracts/utils/math/SafeMath.sol\":3523:3530  uint256 */\n      0x00\n        /* \"https://github.com/OpenZeppelin/openzeppelin-solidity/contracts/utils/math/SafeMath.sol\":3553:3554  b */\n      dup2\n        /* \"https://github.com/OpenZeppelin/openzeppelin-solidity/contracts/utils/math/SafeMath.sol\":3549:3550  a */\n      dup4\n        /* \"https://github.com/OpenZeppelin/openzeppelin-solidity/contracts/utils/math/SafeMath.sol\":3549:3554  a * b */\n      tag_235\n      swap2\n      swap1\n      tag_236\n      jump\t// in\n    tag_235:\n        /* \"https://github.com/OpenZeppelin/openzeppelin-solidity/contracts/utils/math/SafeMath.sol\":3542:3554  return a * b */\n      swap1\n      pop\n        /* \"https://github.com/OpenZeppelin/openzeppelin-solidity/contracts/utils/math/SafeMath.sol\":3465:3561  function mul(uint256 a, uint256 b) internal pure returns (uint256) {... */\n      swap3\n      swap2\n      pop\n      pop\n      jump\t// out\n        /* \"https://github.com/OpenZeppelin/openzeppelin-solidity/contracts/utils/math/Math.sol\":6237:7879  function sqrt(uint256 a) internal pure returns (uint256) {... */\n    tag_128:\n        /* \"https://github.com/OpenZeppelin/openzeppelin-solidity/contracts/utils/math/Math.sol\":6285:6292  uint256 */\n      0x00\n        /* \"https://github.com/OpenZeppelin/openzeppelin-solidity/contracts/utils/math/Math.sol\":6313:6314  0 */\n      dup1\n        /* \"https://github.com/OpenZeppelin/openzeppelin-solidity/contracts/utils/math/Math.sol\":6308:6309  a */\n      dup3\n        /* \"https://github.com/OpenZeppelin/openzeppelin-solidity/contracts/utils/math/Math.sol\":6308:6314  a == 0 */\n      eq\n        /* \"https://github.com/OpenZeppelin/openzeppelin-solidity/contracts/utils/math/Math.sol\":6304:6349  if (a == 0) {... */\n      iszero\n      tag_238\n      jumpi\n        /* \"https://github.com/OpenZeppelin/openzeppelin-solidity/contracts/utils/math/Math.sol\":6337:6338  0 */\n      0x00\n        /* \"https://github.com/OpenZeppelin/openzeppelin-solidity/contracts/utils/math/Math.sol\":6330:6338  return 0 */\n      swap1\n      pop\n      jump(tag_237)\n        /* \"https://github.com/OpenZeppelin/openzeppelin-solidity/contracts/utils/math/Math.sol\":6304:6349  if (a == 0) {... */\n    tag_238:\n        /* \"https://github.com/OpenZeppelin/openzeppelin-solidity/contracts/utils/math/Math.sol\":7028:7042  uint256 result */\n      0x00\n        /* \"https://github.com/OpenZeppelin/openzeppelin-solidity/contracts/utils/math/Math.sol\":7062:7063  1 */\n      0x01\n        /* \"https://github.com/OpenZeppelin/openzeppelin-solidity/contracts/utils/math/Math.sol\":7051:7058  log2(a) */\n      tag_239\n        /* \"https://github.com/OpenZeppelin/openzeppelin-solidity/contracts/utils/math/Math.sol\":7056:7057  a */\n      dup5\n        /* \"https://github.com/OpenZeppelin/openzeppelin-solidity/contracts/utils/math/Math.sol\":7051:7055  log2 */\n      tag_240\n        /* \"https://github.com/OpenZeppelin/openzeppelin-solidity/contracts/utils/math/Math.sol\":7051:7058  log2(a) */\n      jump\t// in\n    tag_239:\n        /* \"https://github.com/OpenZeppelin/openzeppelin-solidity/contracts/utils/math/Math.sol\":7051:7063  log2(a) >> 1 */\n      swap1\n      shr\n        /* \"https://github.com/OpenZeppelin/openzeppelin-solidity/contracts/utils/math/Math.sol\":7045:7046  1 */\n      0x01\n        /* \"https://github.com/OpenZeppelin/openzeppelin-solidity/contracts/utils/math/Math.sol\":7045:7064  1 << (log2(a) >> 1) */\n      swap1\n      shl\n        /* \"https://github.com/OpenZeppelin/openzeppelin-solidity/contracts/utils/math/Math.sol\":7028:7064  uint256 result = 1 << (log2(a) >> 1) */\n      swap1\n      pop\n        /* \"https://github.com/OpenZeppelin/openzeppelin-solidity/contracts/utils/math/Math.sol\":7523:7524  1 */\n      0x01\n        /* \"https://github.com/OpenZeppelin/openzeppelin-solidity/contracts/utils/math/Math.sol\":7512:7518  result */\n      dup2\n        /* \"https://github.com/OpenZeppelin/openzeppelin-solidity/contracts/utils/math/Math.sol\":7508:7509  a */\n      dup5\n        /* \"https://github.com/OpenZeppelin/openzeppelin-solidity/contracts/utils/math/Math.sol\":7508:7518  a / result */\n      dup2\n      tag_241\n      jumpi\n      tag_242\n      tag_243\n      jump\t// in\n    tag_242:\n    tag_241:\n      div\n        /* \"https://github.com/OpenZeppelin/openzeppelin-solidity/contracts/utils/math/Math.sol\":7499:7505  result */\n      dup3\n        /* \"https://github.com/OpenZeppelin/openzeppelin-solidity/contracts/utils/math/Math.sol\":7499:7518  result + a / result */\n      add\n        /* \"https://github.com/OpenZeppelin/openzeppelin-solidity/contracts/utils/math/Math.sol\":7498:7524  (result + a / result) >> 1 */\n      swap1\n      shr\n        /* \"https://github.com/OpenZeppelin/openzeppelin-solidity/contracts/utils/math/Math.sol\":7489:7524  result = (result + a / result) >> 1 */\n      swap1\n      pop\n        /* \"https://github.com/OpenZeppelin/openzeppelin-solidity/contracts/utils/math/Math.sol\":7572:7573  1 */\n      0x01\n        /* \"https://github.com/OpenZeppelin/openzeppelin-solidity/contracts/utils/math/Math.sol\":7561:7567  result */\n      dup2\n        /* \"https://github.com/OpenZeppelin/openzeppelin-solidity/contracts/utils/math/Math.sol\":7557:7558  a */\n      dup5\n        /* \"https://github.com/OpenZeppelin/openzeppelin-solidity/contracts/utils/math/Math.sol\":7557:7567  a / result */\n      dup2\n      tag_244\n      jumpi\n      tag_245\n      tag_243\n      jump\t// in\n    tag_245:\n    tag_244:\n      div\n        /* \"https://github.com/OpenZeppelin/openzeppelin-solidity/contracts/utils/math/Math.sol\":7548:7554  result */\n      dup3\n        /* \"https://github.com/OpenZeppelin/openzeppelin-solidity/contracts/utils/math/Math.sol\":7548:7567  result + a / result */\n      add\n        /* \"https://github.com/OpenZeppelin/openzeppelin-solidity/contracts/utils/math/Math.sol\":7547:7573  (result + a / result) >> 1 */\n      swap1\n      shr\n        /* \"https://github.com/OpenZeppelin/openzeppelin-solidity/contracts/utils/math/Math.sol\":7538:7573  result = (result + a / result) >> 1 */\n      swap1\n      pop\n        /* \"https://github.com/OpenZeppelin/openzeppelin-solidity/contracts/utils/math/Math.sol\":7621:7622  1 */\n      0x01\n        /* \"https://github.com/OpenZeppelin/openzeppelin-solidity/contracts/utils/math/Math.sol\":7610:7616  result */\n      dup2\n        /* \"https://github.com/OpenZeppelin/openzeppelin-solidity/contracts/utils/math/Math.sol\":7606:7607  a */\n      dup5\n        /* \"https://github.com/OpenZeppelin/openzeppelin-solidity/contracts/utils/math/Math.sol\":7606:7616  a / result */\n      dup2\n      tag_246\n      jumpi\n      tag_247\n      tag_243\n      jump\t// in\n    tag_247:\n    tag_246:\n      div\n        /* \"https://github.com/OpenZeppelin/openzeppelin-solidity/contracts/utils/math/Math.sol\":7597:7603  result */\n      dup3\n        /* \"https://github.com/OpenZeppelin/openzeppelin-solidity/contracts/utils/math/Math.sol\":7597:7616  result + a / result */\n      add\n        /* \"https://github.com/OpenZeppelin/openzeppelin-solidity/contracts/utils/math/Math.sol\":7596:7622  (result + a / result) >> 1 */\n      swap1\n      shr\n        /* \"https://github.com/OpenZeppelin/openzeppelin-solidity/contracts/utils/math/Math.sol\":7587:7622  result = (result + a / result) >> 1 */\n      swap1\n      pop\n        /* \"https://github.com/OpenZeppelin/openzeppelin-solidity/contracts/utils/math/Math.sol\":7670:7671  1 */\n      0x01\n        /* \"https://github.com/OpenZeppelin/openzeppelin-solidity/contracts/utils/math/Math.sol\":7659:7665  result */\n      dup2\n        /* \"https://github.com/OpenZeppelin/openzeppelin-solidity/contracts/utils/math/Math.sol\":7655:7656  a */\n      dup5\n        /* \"https://github.com/OpenZeppelin/openzeppelin-solidity/contracts/utils/math/Math.sol\":7655:7665  a / result */\n      dup2\n      tag_248\n      jumpi\n      tag_249\n      tag_243\n      jump\t// in\n    tag_249:\n    tag_248:\n      div\n        /* \"https://github.com/OpenZeppelin/openzeppelin-solidity/contracts/utils/math/Math.sol\":7646:7652  result */\n      dup3\n        /* \"https://github.com/OpenZeppelin/openzeppelin-solidity/contracts/utils/math/Math.sol\":7646:7665  result + a / result */\n      add\n        /* \"https://github.com/OpenZeppelin/openzeppelin-solidity/contracts/utils/math/Math.sol\":7645:7671  (result + a / result) >> 1 */\n      swap1\n      shr\n        /* \"https://github.com/OpenZeppelin/openzeppelin-solidity/contracts/utils/math/Math.sol\":7636:7671  result = (result + a / result) >> 1 */\n      swap1\n      pop\n        /* \"https://github.com/OpenZeppelin/openzeppelin-solidity/contracts/utils/math/Math.sol\":7719:7720  1 */\n      0x01\n        /* \"https://github.com/OpenZeppelin/openzeppelin-solidity/contracts/utils/math/Math.sol\":7708:7714  result */\n      dup2\n        /* \"https://github.com/OpenZeppelin/openzeppelin-solidity/contracts/utils/math/Math.sol\":7704:7705  a */\n      dup5\n        /* \"https://github.com/OpenZeppelin/openzeppelin-solidity/contracts/utils/math/Math.sol\":7704:7714  a / result */\n      dup2\n      tag_250\n      jumpi\n      tag_251\n      tag_243\n      jump\t// in\n    tag_251:\n    tag_250:\n      div\n        /* \"https://github.com/OpenZeppelin/openzeppelin-solidity/contracts/utils/math/Math.sol\":7695:7701  result */\n      dup3\n        /* \"https://github.com/OpenZeppelin/openzeppelin-solidity/contracts/utils/math/Math.sol\":7695:7714  result + a / result */\n      add\n        /* \"https://github.com/OpenZeppelin/openzeppelin-solidity/contracts/utils/math/Math.sol\":7694:7720  (result + a / result) >> 1 */\n      swap1\n      shr\n        /* \"https://github.com/OpenZeppelin/openzeppelin-solidity/contracts/utils/math/Math.sol\":7685:7720  result = (result + a / result) >> 1 */\n      swap1\n      pop\n        /* \"https://github.com/OpenZeppelin/openzeppelin-solidity/contracts/utils/math/Math.sol\":7768:7769  1 */\n      0x01\n        /* \"https://github.com/OpenZeppelin/openzeppelin-solidity/contracts/utils/math/Math.sol\":7757:7763  result */\n      dup2\n        /* \"https://github.com/OpenZeppelin/openzeppelin-solidity/contracts/utils/math/Math.sol\":7753:7754  a */\n      dup5\n        /* \"https://github.com/OpenZeppelin/openzeppelin-solidity/contracts/utils/math/Math.sol\":7753:7763  a / result */\n      dup2\n      tag_252\n      jumpi\n      tag_253\n      tag_243\n      jump\t// in\n    tag_253:\n    tag_252:\n      div\n        /* \"https://github.com/OpenZeppelin/openzeppelin-solidity/contracts/utils/math/Math.sol\":7744:7750  result */\n      dup3\n        /* \"https://github.com/OpenZeppelin/openzeppelin-solidity/contracts/utils/math/Math.sol\":7744:7763  result + a / result */\n      add\n        /* \"https://github.com/OpenZeppelin/openzeppelin-solidity/contracts/utils/math/Math.sol\":7743:7769  (result + a / result) >> 1 */\n      swap1\n      shr\n        /* \"https://github.com/OpenZeppelin/openzeppelin-solidity/contracts/utils/math/Math.sol\":7734:7769  result = (result + a / result) >> 1 */\n      swap1\n      pop\n        /* \"https://github.com/OpenZeppelin/openzeppelin-solidity/contracts/utils/math/Math.sol\":7817:7818  1 */\n      0x01\n        /* \"https://github.com/OpenZeppelin/openzeppelin-solidity/contracts/utils/math/Math.sol\":7806:7812  result */\n      dup2\n        /* \"https://github.com/OpenZeppelin/openzeppelin-solidity/contracts/utils/math/Math.sol\":7802:7803  a */\n      dup5\n        /* \"https://github.com/OpenZeppelin/openzeppelin-solidity/contracts/utils/math/Math.sol\":7802:7812  a / result */\n      dup2\n      tag_254\n      jumpi\n      tag_255\n      tag_243\n      jump\t// in\n    tag_255:\n    tag_254:\n      div\n        /* \"https://github.com/OpenZeppelin/openzeppelin-solidity/contracts/utils/math/Math.sol\":7793:7799  result */\n      dup3\n        /* \"https://github.com/OpenZeppelin/openzeppelin-solidity/contracts/utils/math/Math.sol\":7793:7812  result + a / result */\n      add\n        /* \"https://github.com/OpenZeppelin/openzeppelin-solidity/contracts/utils/math/Math.sol\":7792:7818  (result + a / result) >> 1 */\n      swap1\n      shr\n        /* \"https://github.com/OpenZeppelin/openzeppelin-solidity/contracts/utils/math/Math.sol\":7783:7818  result = (result + a / result) >> 1 */\n      swap1\n      pop\n        /* \"https://github.com/OpenZeppelin/openzeppelin-solidity/contracts/utils/math/Math.sol\":7839:7862  min(result, a / result) */\n      tag_256\n        /* \"https://github.com/OpenZeppelin/openzeppelin-solidity/contracts/utils/math/Math.sol\":7843:7849  result */\n      dup2\n        /* \"https://github.com/OpenZeppelin/openzeppelin-solidity/contracts/utils/math/Math.sol\":7855:7861  result */\n      dup3\n        /* \"https://github.com/OpenZeppelin/openzeppelin-solidity/contracts/utils/math/Math.sol\":7851:7852  a */\n      dup6\n        /* \"https://github.com/OpenZeppelin/openzeppelin-solidity/contracts/utils/math/Math.sol\":7851:7861  a / result */\n      dup2\n      tag_257\n      jumpi\n      tag_258\n      tag_243\n      jump\t// in\n    tag_258:\n    tag_257:\n      div\n        /* \"https://github.com/OpenZeppelin/openzeppelin-solidity/contracts/utils/math/Math.sol\":7839:7842  min */\n      tag_136\n        /* \"https://github.com/OpenZeppelin/openzeppelin-solidity/contracts/utils/math/Math.sol\":7839:7862  min(result, a / result) */\n      jump\t// in\n    tag_256:\n        /* \"https://github.com/OpenZeppelin/openzeppelin-solidity/contracts/utils/math/Math.sol\":7832:7862  return min(result, a / result) */\n      swap2\n      pop\n      pop\n        /* \"https://github.com/OpenZeppelin/openzeppelin-solidity/contracts/utils/math/Math.sol\":6237:7879  function sqrt(uint256 a) internal pure returns (uint256) {... */\n    tag_237:\n      swap2\n      swap1\n      pop\n      jump\t// out\n        /* \"https://github.com/OpenZeppelin/openzeppelin-solidity/contracts/utils/math/Math.sol\":588:692  function min(uint256 a, uint256 b) internal pure returns (uint256) {... */\n    tag_136:\n        /* \"https://github.com/OpenZeppelin/openzeppelin-solidity/contracts/utils/math/Math.sol\":646:653  uint256 */\n      0x00\n        /* \"https://github.com/OpenZeppelin/openzeppelin-solidity/contracts/utils/math/Math.sol\":676:677  b */\n      dup2\n        /* \"https://github.com/OpenZeppelin/openzeppelin-solidity/contracts/utils/math/Math.sol\":672:673  a */\n      dup4\n        /* \"https://github.com/OpenZeppelin/openzeppelin-solidity/contracts/utils/math/Math.sol\":672:677  a < b */\n      lt\n        /* \"https://github.com/OpenZeppelin/openzeppelin-solidity/contracts/utils/math/Math.sol\":672:685  a < b ? a : b */\n      tag_260\n      jumpi\n        /* \"https://github.com/OpenZeppelin/openzeppelin-solidity/contracts/utils/math/Math.sol\":684:685  b */\n      dup2\n        /* \"https://github.com/OpenZeppelin/openzeppelin-solidity/contracts/utils/math/Math.sol\":672:685  a < b ? a : b */\n      jump(tag_261)\n    tag_260:\n        /* \"https://github.com/OpenZeppelin/openzeppelin-solidity/contracts/utils/math/Math.sol\":680:681  a */\n      dup3\n        /* \"https://github.com/OpenZeppelin/openzeppelin-solidity/contracts/utils/math/Math.sol\":672:685  a < b ? a : b */\n    tag_261:\n        /* \"https://github.com/OpenZeppelin/openzeppelin-solidity/contracts/utils/math/Math.sol\":665:685  return a < b ? a : b */\n      swap1\n      pop\n        /* \"https://github.com/OpenZeppelin/openzeppelin-solidity/contracts/utils/math/Math.sol\":588:692  function min(uint256 a, uint256 b) internal pure returns (uint256) {... */\n      swap3\n      swap2\n      pop\n      pop\n      jump\t// out\n        /* \"contracts/PoolContract.sol\":870:1071  function _mint(address to, uint value) internal {\r... */\n    tag_141:\n        /* \"contracts/PoolContract.sol\":943:965  totalSupply.add(value) */\n      tag_263\n        /* \"contracts/PoolContract.sol\":959:964  value */\n      dup2\n        /* \"contracts/PoolContract.sol\":943:954  totalSupply */\n      sload(0x00)\n        /* \"contracts/PoolContract.sol\":943:958  totalSupply.add */\n      tag_232\n      swap1\n        /* \"contracts/PoolContract.sol\":943:965  totalSupply.add(value) */\n      swap2\n      swap1\n      0xffffffff\n      and\n      jump\t// in\n    tag_263:\n        /* \"contracts/PoolContract.sol\":929:940  totalSupply */\n      0x00\n        /* \"contracts/PoolContract.sol\":929:965  totalSupply = totalSupply.add(value) */\n      dup2\n      swap1\n      sstore\n      pop\n        /* \"contracts/PoolContract.sol\":992:1016  balanceOf[to].add(value) */\n      tag_264\n        /* \"contracts/PoolContract.sol\":1010:1015  value */\n      dup2\n        /* \"contracts/PoolContract.sol\":992:1001  balanceOf */\n      0x01\n        /* \"contracts/PoolContract.sol\":992:1005  balanceOf[to] */\n      0x00\n        /* \"contracts/PoolContract.sol\":1002:1004  to */\n      dup6\n        /* \"contracts/PoolContract.sol\":992:1005  balanceOf[to] */\n      0xffffffffffffffffffffffffffffffffffffffff\n      and\n      0xffffffffffffffffffffffffffffffffffffffff\n      and\n      dup2\n      mstore\n      0x20\n      add\n      swap1\n      dup2\n      mstore\n      0x20\n      add\n      0x00\n      keccak256\n      sload\n        /* \"contracts/PoolContract.sol\":992:1009  balanceOf[to].add */\n      tag_232\n      swap1\n        /* \"contracts/PoolContract.sol\":992:1016  balanceOf[to].add(value) */\n      swap2\n      swap1\n      0xffffffff\n      and\n      jump\t// in\n    tag_264:\n        /* \"contracts/PoolContract.sol\":976:985  balanceOf */\n      0x01\n        /* \"contracts/PoolContract.sol\":976:989  balanceOf[to] */\n      0x00\n        /* \"contracts/PoolContract.sol\":986:988  to */\n      dup5\n        /* \"contracts/PoolContract.sol\":976:989  balanceOf[to] */\n      0xffffffffffffffffffffffffffffffffffffffff\n      and\n      0xffffffffffffffffffffffffffffffffffffffff\n      and\n      dup2\n      mstore\n      0x20\n      add\n      swap1\n      dup2\n      mstore\n      0x20\n      add\n      0x00\n      keccak256\n        /* \"contracts/PoolContract.sol\":976:1016  balanceOf[to] = balanceOf[to].add(value) */\n      dup2\n      swap1\n      sstore\n      pop\n        /* \"contracts/PoolContract.sol\":1053:1055  to */\n      dup2\n        /* \"contracts/PoolContract.sol\":1032:1063  Transfer(address(0), to, value) */\n      0xffffffffffffffffffffffffffffffffffffffff\n      and\n        /* \"contracts/PoolContract.sol\":1049:1050  0 */\n      0x00\n        /* \"contracts/PoolContract.sol\":1032:1063  Transfer(address(0), to, value) */\n      0xffffffffffffffffffffffffffffffffffffffff\n      and\n      0xddf252ad1be2c89b69c2b068fc378daa952ba7f163c4a11628f55a4df523b3ef\n        /* \"contracts/PoolContract.sol\":1057:1062  value */\n      dup4\n        /* \"contracts/PoolContract.sol\":1032:1063  Transfer(address(0), to, value) */\n      mload(0x40)\n      tag_265\n      swap2\n      swap1\n      tag_44\n      jump\t// in\n    tag_265:\n      mload(0x40)\n      dup1\n      swap2\n      sub\n      swap1\n      log3\n        /* \"contracts/PoolContract.sol\":870:1071  function _mint(address to, uint value) internal {\r... */\n      pop\n      pop\n      jump\t// out\n        /* \"contracts/PoolContract.sol\":7094:7313  function _update(uint balance0, uint balance1) private {\r... */\n    tag_143:\n        /* \"contracts/PoolContract.sol\":7180:7194  type(uint).max */\n      0xffffffffffffffffffffffffffffffffffffffffffffffffffffffffffffffff\n        /* \"contracts/PoolContract.sol\":7168:7176  balance0 */\n      dup3\n        /* \"contracts/PoolContract.sol\":7168:7194  balance0 <= type(uint).max */\n      gt\n      iszero\n        /* \"contracts/PoolContract.sol\":7168:7224  balance0 <= type(uint).max && balance1 <= type(uint).max */\n      dup1\n      iszero\n      tag_267\n      jumpi\n      pop\n        /* \"contracts/PoolContract.sol\":7210:7224  type(uint).max */\n      0xffffffffffffffffffffffffffffffffffffffffffffffffffffffffffffffff\n        /* \"contracts/PoolContract.sol\":7198:7206  balance1 */\n      dup2\n        /* \"contracts/PoolContract.sol\":7198:7224  balance1 <= type(uint).max */\n      gt\n      iszero\n        /* \"contracts/PoolContract.sol\":7168:7224  balance0 <= type(uint).max && balance1 <= type(uint).max */\n    tag_267:\n        /* \"contracts/PoolContract.sol\":7160:7243  require(balance0 <= type(uint).max && balance1 <= type(uint).max, \"POOL: Overflow\") */\n      tag_268\n      jumpi\n      mload(0x40)\n      0x08c379a000000000000000000000000000000000000000000000000000000000\n      dup2\n      mstore\n      0x04\n      add\n      tag_269\n      swap1\n      tag_270\n      jump\t// in\n    tag_269:\n      mload(0x40)\n      dup1\n      swap2\n      sub\n      swap1\n      revert\n    tag_268:\n        /* \"contracts/PoolContract.sol\":7266:7274  balance0 */\n      dup2\n        /* \"contracts/PoolContract.sol\":7254:7263  _reserve0 */\n      0x05\n        /* \"contracts/PoolContract.sol\":7254:7274  _reserve0 = balance0 */\n      dup2\n      swap1\n      sstore\n      pop\n        /* \"contracts/PoolContract.sol\":7297:7305  balance1 */\n      dup1\n        /* \"contracts/PoolContract.sol\":7285:7294  _reserve1 */\n      0x06\n        /* \"contracts/PoolContract.sol\":7285:7305  _reserve1 = balance1 */\n      dup2\n      swap1\n      sstore\n      pop\n        /* \"contracts/PoolContract.sol\":7094:7313  function _update(uint balance0, uint balance1) private {\r... */\n      pop\n      pop\n      jump\t// out\n        /* \"contracts/PoolContract.sol\":1077:1286  function _burn(address from, uint value) internal {\r... */\n    tag_163:\n        /* \"contracts/PoolContract.sol\":1156:1182  balanceOf[from].sub(value) */\n      tag_272\n        /* \"contracts/PoolContract.sol\":1176:1181  value */\n      dup2\n        /* \"contracts/PoolContract.sol\":1156:1165  balanceOf */\n      0x01\n        /* \"contracts/PoolContract.sol\":1156:1171  balanceOf[from] */\n      0x00\n        /* \"contracts/PoolContract.sol\":1166:1170  from */\n      dup6\n        /* \"contracts/PoolContract.sol\":1156:1171  balanceOf[from] */\n      0xffffffffffffffffffffffffffffffffffffffff\n      and\n      0xffffffffffffffffffffffffffffffffffffffff\n      and\n      dup2\n      mstore\n      0x20\n      add\n      swap1\n      dup2\n      mstore\n      0x20\n      add\n      0x00\n      keccak256\n      sload\n        /* \"contracts/PoolContract.sol\":1156:1175  balanceOf[from].sub */\n      tag_113\n      swap1\n        /* \"contracts/PoolContract.sol\":1156:1182  balanceOf[from].sub(value) */\n      swap2\n      swap1\n      0xffffffff\n      and\n      jump\t// in\n    tag_272:\n        /* \"contracts/PoolContract.sol\":1138:1147  balanceOf */\n      0x01\n        /* \"contracts/PoolContract.sol\":1138:1153  balanceOf[from] */\n      0x00\n        /* \"contracts/PoolContract.sol\":1148:1152  from */\n      dup5\n        /* \"contracts/PoolContract.sol\":1138:1153  balanceOf[from] */\n      0xffffffffffffffffffffffffffffffffffffffff\n      and\n      0xffffffffffffffffffffffffffffffffffffffff\n      and\n      dup2\n      mstore\n      0x20\n      add\n      swap1\n      dup2\n      mstore\n      0x20\n      add\n      0x00\n      keccak256\n        /* \"contracts/PoolContract.sol\":1138:1182  balanceOf[from] = balanceOf[from].sub(value) */\n      dup2\n      swap1\n      sstore\n      pop\n        /* \"contracts/PoolContract.sol\":1207:1229  totalSupply.sub(value) */\n      tag_273\n        /* \"contracts/PoolContract.sol\":1223:1228  value */\n      dup2\n        /* \"contracts/PoolContract.sol\":1207:1218  totalSupply */\n      sload(0x00)\n        /* \"contracts/PoolContract.sol\":1207:1222  totalSupply.sub */\n      tag_113\n      swap1\n        /* \"contracts/PoolContract.sol\":1207:1229  totalSupply.sub(value) */\n      swap2\n      swap1\n      0xffffffff\n      and\n      jump\t// in\n    tag_273:\n        /* \"contracts/PoolContract.sol\":1193:1204  totalSupply */\n      0x00\n        /* \"contracts/PoolContract.sol\":1193:1229  totalSupply = totalSupply.sub(value) */\n      dup2\n      swap1\n      sstore\n      pop\n        /* \"contracts/PoolContract.sol\":1268:1269  0 */\n      0x00\n        /* \"contracts/PoolContract.sol\":1245:1278  Transfer(from, address(0), value) */\n      0xffffffffffffffffffffffffffffffffffffffff\n      and\n        /* \"contracts/PoolContract.sol\":1254:1258  from */\n      dup3\n        /* \"contracts/PoolContract.sol\":1245:1278  Transfer(from, address(0), value) */\n      0xffffffffffffffffffffffffffffffffffffffff\n      and\n      0xddf252ad1be2c89b69c2b068fc378daa952ba7f163c4a11628f55a4df523b3ef\n        /* \"contracts/PoolContract.sol\":1272:1277  value */\n      dup4\n        /* \"contracts/PoolContract.sol\":1245:1278  Transfer(from, address(0), value) */\n      mload(0x40)\n      tag_274\n      swap2\n      swap1\n      tag_44\n      jump\t// in\n    tag_274:\n      mload(0x40)\n      dup1\n      swap2\n      sub\n      swap1\n      log3\n        /* \"contracts/PoolContract.sol\":1077:1286  function _burn(address from, uint value) internal {\r... */\n      pop\n      pop\n      jump\t// out\n        /* \"https://github.com/OpenZeppelin/openzeppelin-solidity/contracts/utils/math/SafeMath.sol\":2755:2851  function add(uint256 a, uint256 b) internal pure returns (uint256) {... */\n    tag_232:\n        /* \"https://github.com/OpenZeppelin/openzeppelin-solidity/contracts/utils/math/SafeMath.sol\":2813:2820  uint256 */\n      0x00\n        /* \"https://github.com/OpenZeppelin/openzeppelin-solidity/contracts/utils/math/SafeMath.sol\":2843:2844  b */\n      dup2\n        /* \"https://github.com/OpenZeppelin/openzeppelin-solidity/contracts/utils/math/SafeMath.sol\":2839:2840  a */\n      dup4\n        /* \"https://github.com/OpenZeppelin/openzeppelin-solidity/contracts/utils/math/SafeMath.sol\":2839:2844  a + b */\n      tag_276\n      swap2\n      swap1\n      tag_277\n      jump\t// in\n    tag_276:\n        /* \"https://github.com/OpenZeppelin/openzeppelin-solidity/contracts/utils/math/SafeMath.sol\":2832:2844  return a + b */\n      swap1\n      pop\n        /* \"https://github.com/OpenZeppelin/openzeppelin-solidity/contracts/utils/math/SafeMath.sol\":2755:2851  function add(uint256 a, uint256 b) internal pure returns (uint256) {... */\n      swap3\n      swap2\n      pop\n      pop\n      jump\t// out\n        /* \"https://github.com/OpenZeppelin/openzeppelin-solidity/contracts/utils/math/Math.sol\":8340:9323  function log2(uint256 value) internal pure returns (uint256) {... */\n    tag_240:\n        /* \"https://github.com/OpenZeppelin/openzeppelin-solidity/contracts/utils/math/Math.sol\":8392:8399  uint256 */\n      0x00\n        /* \"https://github.com/OpenZeppelin/openzeppelin-solidity/contracts/utils/math/Math.sol\":8411:8425  uint256 result */\n      dup1\n        /* \"https://github.com/OpenZeppelin/openzeppelin-solidity/contracts/utils/math/Math.sol\":8428:8429  0 */\n      0x00\n        /* \"https://github.com/OpenZeppelin/openzeppelin-solidity/contracts/utils/math/Math.sol\":8411:8429  uint256 result = 0 */\n      swap1\n      pop\n        /* \"https://github.com/OpenZeppelin/openzeppelin-solidity/contracts/utils/math/Math.sol\":8482:8483  0 */\n      0x00\n        /* \"https://github.com/OpenZeppelin/openzeppelin-solidity/contracts/utils/math/Math.sol\":8476:8479  128 */\n      0x80\n        /* \"https://github.com/OpenZeppelin/openzeppelin-solidity/contracts/utils/math/Math.sol\":8467:8472  value */\n      dup5\n        /* \"https://github.com/OpenZeppelin/openzeppelin-solidity/contracts/utils/math/Math.sol\":8467:8479  value >> 128 */\n      swap1\n      shr\n        /* \"https://github.com/OpenZeppelin/openzeppelin-solidity/contracts/utils/math/Math.sol\":8467:8483  value >> 128 > 0 */\n      gt\n        /* \"https://github.com/OpenZeppelin/openzeppelin-solidity/contracts/utils/math/Math.sol\":8463:8562  if (value >> 128 > 0) {... */\n      iszero\n      tag_279\n      jumpi\n        /* \"https://github.com/OpenZeppelin/openzeppelin-solidity/contracts/utils/math/Math.sol\":8513:8516  128 */\n      0x80\n        /* \"https://github.com/OpenZeppelin/openzeppelin-solidity/contracts/utils/math/Math.sol\":8503:8516  value >>= 128 */\n      dup4\n      swap1\n      shr\n      swap3\n      pop\n        /* \"https://github.com/OpenZeppelin/openzeppelin-solidity/contracts/utils/math/Math.sol\":8544:8547  128 */\n      0x80\n        /* \"https://github.com/OpenZeppelin/openzeppelin-solidity/contracts/utils/math/Math.sol\":8534:8547  result += 128 */\n      dup2\n      add\n      swap1\n      pop\n        /* \"https://github.com/OpenZeppelin/openzeppelin-solidity/contracts/utils/math/Math.sol\":8463:8562  if (value >> 128 > 0) {... */\n    tag_279:\n        /* \"https://github.com/OpenZeppelin/openzeppelin-solidity/contracts/utils/math/Math.sol\":8593:8594  0 */\n      0x00\n        /* \"https://github.com/OpenZeppelin/openzeppelin-solidity/contracts/utils/math/Math.sol\":8588:8590  64 */\n      0x40\n        /* \"https://github.com/OpenZeppelin/openzeppelin-solidity/contracts/utils/math/Math.sol\":8579:8584  value */\n      dup5\n        /* \"https://github.com/OpenZeppelin/openzeppelin-solidity/contracts/utils/math/Math.sol\":8579:8590  value >> 64 */\n      swap1\n      shr\n        /* \"https://github.com/OpenZeppelin/openzeppelin-solidity/contracts/utils/math/Math.sol\":8579:8594  value >> 64 > 0 */\n      gt\n        /* \"https://github.com/OpenZeppelin/openzeppelin-solidity/contracts/utils/math/Math.sol\":8575:8671  if (value >> 64 > 0) {... */\n      iszero\n      tag_280\n      jumpi\n        /* \"https://github.com/OpenZeppelin/openzeppelin-solidity/contracts/utils/math/Math.sol\":8624:8626  64 */\n      0x40\n        /* \"https://github.com/OpenZeppelin/openzeppelin-solidity/contracts/utils/math/Math.sol\":8614:8626  value >>= 64 */\n      dup4\n      swap1\n      shr\n      swap3\n      pop\n        /* \"https://github.com/OpenZeppelin/openzeppelin-solidity/contracts/utils/math/Math.sol\":8654:8656  64 */\n      0x40\n        /* \"https://github.com/OpenZeppelin/openzeppelin-solidity/contracts/utils/math/Math.sol\":8644:8656  result += 64 */\n      dup2\n      add\n      swap1\n      pop\n        /* \"https://github.com/OpenZeppelin/openzeppelin-solidity/contracts/utils/math/Math.sol\":8575:8671  if (value >> 64 > 0) {... */\n    tag_280:\n        /* \"https://github.com/OpenZeppelin/openzeppelin-solidity/contracts/utils/math/Math.sol\":8702:8703  0 */\n      0x00\n        /* \"https://github.com/OpenZeppelin/openzeppelin-solidity/contracts/utils/math/Math.sol\":8697:8699  32 */\n      0x20\n        /* \"https://github.com/OpenZeppelin/openzeppelin-solidity/contracts/utils/math/Math.sol\":8688:8693  value */\n      dup5\n        /* \"https://github.com/OpenZeppelin/openzeppelin-solidity/contracts/utils/math/Math.sol\":8688:8699  value >> 32 */\n      swap1\n      shr\n        /* \"https://github.com/OpenZeppelin/openzeppelin-solidity/contracts/utils/math/Math.sol\":8688:8703  value >> 32 > 0 */\n      gt\n        /* \"https://github.com/OpenZeppelin/openzeppelin-solidity/contracts/utils/math/Math.sol\":8684:8780  if (value >> 32 > 0) {... */\n      iszero\n      tag_281\n      jumpi\n        /* \"https://github.com/OpenZeppelin/openzeppelin-solidity/contracts/utils/math/Math.sol\":8733:8735  32 */\n      0x20\n        /* \"https://github.com/OpenZeppelin/openzeppelin-solidity/contracts/utils/math/Math.sol\":8723:8735  value >>= 32 */\n      dup4\n      swap1\n      shr\n      swap3\n      pop\n        /* \"https://github.com/OpenZeppelin/openzeppelin-solidity/contracts/utils/math/Math.sol\":8763:8765  32 */\n      0x20\n        /* \"https://github.com/OpenZeppelin/openzeppelin-solidity/contracts/utils/math/Math.sol\":8753:8765  result += 32 */\n      dup2\n      add\n      swap1\n      pop\n        /* \"https://github.com/OpenZeppelin/openzeppelin-solidity/contracts/utils/math/Math.sol\":8684:8780  if (value >> 32 > 0) {... */\n    tag_281:\n        /* \"https://github.com/OpenZeppelin/openzeppelin-solidity/contracts/utils/math/Math.sol\":8811:8812  0 */\n      0x00\n        /* \"https://github.com/OpenZeppelin/openzeppelin-solidity/contracts/utils/math/Math.sol\":8806:8808  16 */\n      0x10\n        /* \"https://github.com/OpenZeppelin/openzeppelin-solidity/contracts/utils/math/Math.sol\":8797:8802  value */\n      dup5\n        /* \"https://github.com/OpenZeppelin/openzeppelin-solidity/contracts/utils/math/Math.sol\":8797:8808  value >> 16 */\n      swap1\n      shr\n        /* \"https://github.com/OpenZeppelin/openzeppelin-solidity/contracts/utils/math/Math.sol\":8797:8812  value >> 16 > 0 */\n      gt\n        /* \"https://github.com/OpenZeppelin/openzeppelin-solidity/contracts/utils/math/Math.sol\":8793:8889  if (value >> 16 > 0) {... */\n      iszero\n      tag_282\n      jumpi\n        /* \"https://github.com/OpenZeppelin/openzeppelin-solidity/contracts/utils/math/Math.sol\":8842:8844  16 */\n      0x10\n        /* \"https://github.com/OpenZeppelin/openzeppelin-solidity/contracts/utils/math/Math.sol\":8832:8844  value >>= 16 */\n      dup4\n      swap1\n      shr\n      swap3\n      pop\n        /* \"https://github.com/OpenZeppelin/openzeppelin-solidity/contracts/utils/math/Math.sol\":8872:8874  16 */\n      0x10\n        /* \"https://github.com/OpenZeppelin/openzeppelin-solidity/contracts/utils/math/Math.sol\":8862:8874  result += 16 */\n      dup2\n      add\n      swap1\n      pop\n        /* \"https://github.com/OpenZeppelin/openzeppelin-solidity/contracts/utils/math/Math.sol\":8793:8889  if (value >> 16 > 0) {... */\n    tag_282:\n        /* \"https://github.com/OpenZeppelin/openzeppelin-solidity/contracts/utils/math/Math.sol\":8919:8920  0 */\n      0x00\n        /* \"https://github.com/OpenZeppelin/openzeppelin-solidity/contracts/utils/math/Math.sol\":8915:8916  8 */\n      0x08\n        /* \"https://github.com/OpenZeppelin/openzeppelin-solidity/contracts/utils/math/Math.sol\":8906:8911  value */\n      dup5\n        /* \"https://github.com/OpenZeppelin/openzeppelin-solidity/contracts/utils/math/Math.sol\":8906:8916  value >> 8 */\n      swap1\n      shr\n        /* \"https://github.com/OpenZeppelin/openzeppelin-solidity/contracts/utils/math/Math.sol\":8906:8920  value >> 8 > 0 */\n      gt\n        /* \"https://github.com/OpenZeppelin/openzeppelin-solidity/contracts/utils/math/Math.sol\":8902:8995  if (value >> 8 > 0) {... */\n      iszero\n      tag_283\n      jumpi\n        /* \"https://github.com/OpenZeppelin/openzeppelin-solidity/contracts/utils/math/Math.sol\":8950:8951  8 */\n      0x08\n        /* \"https://github.com/OpenZeppelin/openzeppelin-solidity/contracts/utils/math/Math.sol\":8940:8951  value >>= 8 */\n      dup4\n      swap1\n      shr\n      swap3\n      pop\n        /* \"https://github.com/OpenZeppelin/openzeppelin-solidity/contracts/utils/math/Math.sol\":8979:8980  8 */\n      0x08\n        /* \"https://github.com/OpenZeppelin/openzeppelin-solidity/contracts/utils/math/Math.sol\":8969:8980  result += 8 */\n      dup2\n      add\n      swap1\n      pop\n        /* \"https://github.com/OpenZeppelin/openzeppelin-solidity/contracts/utils/math/Math.sol\":8902:8995  if (value >> 8 > 0) {... */\n    tag_283:\n        /* \"https://github.com/OpenZeppelin/openzeppelin-solidity/contracts/utils/math/Math.sol\":9025:9026  0 */\n      0x00\n        /* \"https://github.com/OpenZeppelin/openzeppelin-solidity/contracts/utils/math/Math.sol\":9021:9022  4 */\n      0x04\n        /* \"https://github.com/OpenZeppelin/openzeppelin-solidity/contracts/utils/math/Math.sol\":9012:9017  value */\n      dup5\n        /* \"https://github.com/OpenZeppelin/openzeppelin-solidity/contracts/utils/math/Math.sol\":9012:9022  value >> 4 */\n      swap1\n      shr\n        /* \"https://github.com/OpenZeppelin/openzeppelin-solidity/contracts/utils/math/Math.sol\":9012:9026  value >> 4 > 0 */\n      gt\n        /* \"https://github.com/OpenZeppelin/openzeppelin-solidity/contracts/utils/math/Math.sol\":9008:9101  if (value >> 4 > 0) {... */\n      iszero\n      tag_284\n      jumpi\n        /* \"https://github.com/OpenZeppelin/openzeppelin-solidity/contracts/utils/math/Math.sol\":9056:9057  4 */\n      0x04\n        /* \"https://github.com/OpenZeppelin/openzeppelin-solidity/contracts/utils/math/Math.sol\":9046:9057  value >>= 4 */\n      dup4\n      swap1\n      shr\n      swap3\n      pop\n        /* \"https://github.com/OpenZeppelin/openzeppelin-solidity/contracts/utils/math/Math.sol\":9085:9086  4 */\n      0x04\n        /* \"https://github.com/OpenZeppelin/openzeppelin-solidity/contracts/utils/math/Math.sol\":9075:9086  result += 4 */\n      dup2\n      add\n      swap1\n      pop\n        /* \"https://github.com/OpenZeppelin/openzeppelin-solidity/contracts/utils/math/Math.sol\":9008:9101  if (value >> 4 > 0) {... */\n    tag_284:\n        /* \"https://github.com/OpenZeppelin/openzeppelin-solidity/contracts/utils/math/Math.sol\":9131:9132  0 */\n      0x00\n        /* \"https://github.com/OpenZeppelin/openzeppelin-solidity/contracts/utils/math/Math.sol\":9127:9128  2 */\n      0x02\n        /* \"https://github.com/OpenZeppelin/openzeppelin-solidity/contracts/utils/math/Math.sol\":9118:9123  value */\n      dup5\n        /* \"https://github.com/OpenZeppelin/openzeppelin-solidity/contracts/utils/math/Math.sol\":9118:9128  value >> 2 */\n      swap1\n      shr\n        /* \"https://github.com/OpenZeppelin/openzeppelin-solidity/contracts/utils/math/Math.sol\":9118:9132  value >> 2 > 0 */\n      gt\n        /* \"https://github.com/OpenZeppelin/openzeppelin-solidity/contracts/utils/math/Math.sol\":9114:9207  if (value >> 2 > 0) {... */\n      iszero\n      tag_285\n      jumpi\n        /* \"https://github.com/OpenZeppelin/openzeppelin-solidity/contracts/utils/math/Math.sol\":9162:9163  2 */\n      0x02\n        /* \"https://github.com/OpenZeppelin/openzeppelin-solidity/contracts/utils/math/Math.sol\":9152:9163  value >>= 2 */\n      dup4\n      swap1\n      shr\n      swap3\n      pop\n        /* \"https://github.com/OpenZeppelin/openzeppelin-solidity/contracts/utils/math/Math.sol\":9191:9192  2 */\n      0x02\n        /* \"https://github.com/OpenZeppelin/openzeppelin-solidity/contracts/utils/math/Math.sol\":9181:9192  result += 2 */\n      dup2\n      add\n      swap1\n      pop\n        /* \"https://github.com/OpenZeppelin/openzeppelin-solidity/contracts/utils/math/Math.sol\":9114:9207  if (value >> 2 > 0) {... */\n    tag_285:\n        /* \"https://github.com/OpenZeppelin/openzeppelin-solidity/contracts/utils/math/Math.sol\":9237:9238  0 */\n      0x00\n        /* \"https://github.com/OpenZeppelin/openzeppelin-solidity/contracts/utils/math/Math.sol\":9233:9234  1 */\n      0x01\n        /* \"https://github.com/OpenZeppelin/openzeppelin-solidity/contracts/utils/math/Math.sol\":9224:9229  value */\n      dup5\n        /* \"https://github.com/OpenZeppelin/openzeppelin-solidity/contracts/utils/math/Math.sol\":9224:9234  value >> 1 */\n      swap1\n      shr\n        /* \"https://github.com/OpenZeppelin/openzeppelin-solidity/contracts/utils/math/Math.sol\":9224:9238  value >> 1 > 0 */\n      gt\n        /* \"https://github.com/OpenZeppelin/openzeppelin-solidity/contracts/utils/math/Math.sol\":9220:9284  if (value >> 1 > 0) {... */\n      iszero\n      tag_286\n      jumpi\n        /* \"https://github.com/OpenZeppelin/openzeppelin-solidity/contracts/utils/math/Math.sol\":9268:9269  1 */\n      0x01\n        /* \"https://github.com/OpenZeppelin/openzeppelin-solidity/contracts/utils/math/Math.sol\":9258:9269  result += 1 */\n      dup2\n      add\n      swap1\n      pop\n        /* \"https://github.com/OpenZeppelin/openzeppelin-solidity/contracts/utils/math/Math.sol\":9220:9284  if (value >> 1 > 0) {... */\n    tag_286:\n        /* \"https://github.com/OpenZeppelin/openzeppelin-solidity/contracts/utils/math/Math.sol\":9310:9316  result */\n      dup1\n        /* \"https://github.com/OpenZeppelin/openzeppelin-solidity/contracts/utils/math/Math.sol\":9303:9316  return result */\n      swap2\n      pop\n      pop\n        /* \"https://github.com/OpenZeppelin/openzeppelin-solidity/contracts/utils/math/Math.sol\":8340:9323  function log2(uint256 value) internal pure returns (uint256) {... */\n      swap2\n      swap1\n      pop\n      jump\t// out\n        /* \"#utility.yul\":7:146   */\n    tag_288:\n        /* \"#utility.yul\":53:58   */\n      0x00\n        /* \"#utility.yul\":91:97   */\n      dup2\n        /* \"#utility.yul\":78:98   */\n      calldataload\n        /* \"#utility.yul\":69:98   */\n      swap1\n      pop\n        /* \"#utility.yul\":107:140   */\n      tag_290\n        /* \"#utility.yul\":134:139   */\n      dup2\n        /* \"#utility.yul\":107:140   */\n      tag_291\n      jump\t// in\n    tag_290:\n        /* \"#utility.yul\":7:146   */\n      swap3\n      swap2\n      pop\n      pop\n      jump\t// out\n        /* \"#utility.yul\":152:289   */\n    tag_292:\n        /* \"#utility.yul\":206:211   */\n      0x00\n        /* \"#utility.yul\":237:243   */\n      dup2\n        /* \"#utility.yul\":231:244   */\n      mload\n        /* \"#utility.yul\":222:244   */\n      swap1\n      pop\n        /* \"#utility.yul\":253:283   */\n      tag_294\n        /* \"#utility.yul\":277:282   */\n      dup2\n        /* \"#utility.yul\":253:283   */\n      tag_295\n      jump\t// in\n    tag_294:\n        /* \"#utility.yul\":152:289   */\n      swap3\n      swap2\n      pop\n      pop\n      jump\t// out\n        /* \"#utility.yul\":295:434   */\n    tag_296:\n        /* \"#utility.yul\":341:346   */\n      0x00\n        /* \"#utility.yul\":379:385   */\n      dup2\n        /* \"#utility.yul\":366:386   */\n      calldataload\n        /* \"#utility.yul\":357:386   */\n      swap1\n      pop\n        /* \"#utility.yul\":395:428   */\n      tag_298\n        /* \"#utility.yul\":422:427   */\n      dup2\n        /* \"#utility.yul\":395:428   */\n      tag_299\n      jump\t// in\n    tag_298:\n        /* \"#utility.yul\":295:434   */\n      swap3\n      swap2\n      pop\n      pop\n      jump\t// out\n        /* \"#utility.yul\":440:583   */\n    tag_300:\n        /* \"#utility.yul\":497:502   */\n      0x00\n        /* \"#utility.yul\":528:534   */\n      dup2\n        /* \"#utility.yul\":522:535   */\n      mload\n        /* \"#utility.yul\":513:535   */\n      swap1\n      pop\n        /* \"#utility.yul\":544:577   */\n      tag_302\n        /* \"#utility.yul\":571:576   */\n      dup2\n        /* \"#utility.yul\":544:577   */\n      tag_299\n      jump\t// in\n    tag_302:\n        /* \"#utility.yul\":440:583   */\n      swap3\n      swap2\n      pop\n      pop\n      jump\t// out\n        /* \"#utility.yul\":589:918   */\n    tag_52:\n        /* \"#utility.yul\":648:654   */\n      0x00\n        /* \"#utility.yul\":697:699   */\n      0x20\n        /* \"#utility.yul\":685:694   */\n      dup3\n        /* \"#utility.yul\":676:683   */\n      dup5\n        /* \"#utility.yul\":672:695   */\n      sub\n        /* \"#utility.yul\":668:700   */\n      slt\n        /* \"#utility.yul\":665:784   */\n      iszero\n      tag_304\n      jumpi\n        /* \"#utility.yul\":703:782   */\n      tag_305\n      tag_306\n      jump\t// in\n    tag_305:\n        /* \"#utility.yul\":665:784   */\n    tag_304:\n        /* \"#utility.yul\":823:824   */\n      0x00\n        /* \"#utility.yul\":848:901   */\n      tag_307\n        /* \"#utility.yul\":893:900   */\n      dup5\n        /* \"#utility.yul\":884:890   */\n      dup3\n        /* \"#utility.yul\":873:882   */\n      dup6\n        /* \"#utility.yul\":869:891   */\n      add\n        /* \"#utility.yul\":848:901   */\n      tag_288\n      jump\t// in\n    tag_307:\n        /* \"#utility.yul\":838:901   */\n      swap2\n      pop\n        /* \"#utility.yul\":794:911   */\n      pop\n        /* \"#utility.yul\":589:918   */\n      swap3\n      swap2\n      pop\n      pop\n      jump\t// out\n        /* \"#utility.yul\":924:1398   */\n    tag_85:\n        /* \"#utility.yul\":992:998   */\n      0x00\n        /* \"#utility.yul\":1000:1006   */\n      dup1\n        /* \"#utility.yul\":1049:1051   */\n      0x40\n        /* \"#utility.yul\":1037:1046   */\n      dup4\n        /* \"#utility.yul\":1028:1035   */\n      dup6\n        /* \"#utility.yul\":1024:1047   */\n      sub\n        /* \"#utility.yul\":1020:1052   */\n      slt\n        /* \"#utility.yul\":1017:1136   */\n      iszero\n      tag_309\n      jumpi\n        /* \"#utility.yul\":1055:1134   */\n      tag_310\n      tag_306\n      jump\t// in\n    tag_310:\n        /* \"#utility.yul\":1017:1136   */\n    tag_309:\n        /* \"#utility.yul\":1175:1176   */\n      0x00\n        /* \"#utility.yul\":1200:1253   */\n      tag_311\n        /* \"#utility.yul\":1245:1252   */\n      dup6\n        /* \"#utility.yul\":1236:1242   */\n      dup3\n        /* \"#utility.yul\":1225:1234   */\n      dup7\n        /* \"#utility.yul\":1221:1243   */\n      add\n        /* \"#utility.yul\":1200:1253   */\n      tag_288\n      jump\t// in\n    tag_311:\n        /* \"#utility.yul\":1190:1253   */\n      swap3\n      pop\n        /* \"#utility.yul\":1146:1263   */\n      pop\n        /* \"#utility.yul\":1302:1304   */\n      0x20\n        /* \"#utility.yul\":1328:1381   */\n      tag_312\n        /* \"#utility.yul\":1373:1380   */\n      dup6\n        /* \"#utility.yul\":1364:1370   */\n      dup3\n        /* \"#utility.yul\":1353:1362   */\n      dup7\n        /* \"#utility.yul\":1349:1371   */\n      add\n        /* \"#utility.yul\":1328:1381   */\n      tag_288\n      jump\t// in\n    tag_312:\n        /* \"#utility.yul\":1318:1381   */\n      swap2\n      pop\n        /* \"#utility.yul\":1273:1391   */\n      pop\n        /* \"#utility.yul\":924:1398   */\n      swap3\n      pop\n      swap3\n      swap1\n      pop\n      jump\t// out\n        /* \"#utility.yul\":1404:2023   */\n    tag_47:\n        /* \"#utility.yul\":1481:1487   */\n      0x00\n        /* \"#utility.yul\":1489:1495   */\n      dup1\n        /* \"#utility.yul\":1497:1503   */\n      0x00\n        /* \"#utility.yul\":1546:1548   */\n      0x60\n        /* \"#utility.yul\":1534:1543   */\n      dup5\n        /* \"#utility.yul\":1525:1532   */\n      dup7\n        /* \"#utility.yul\":1521:1544   */\n      sub\n        /* \"#utility.yul\":1517:1549   */\n      slt\n        /* \"#utility.yul\":1514:1633   */\n      iszero\n      tag_314\n      jumpi\n        /* \"#utility.yul\":1552:1631   */\n      tag_315\n      tag_306\n      jump\t// in\n    tag_315:\n        /* \"#utility.yul\":1514:1633   */\n    tag_314:\n        /* \"#utility.yul\":1672:1673   */\n      0x00\n        /* \"#utility.yul\":1697:1750   */\n      tag_316\n        /* \"#utility.yul\":1742:1749   */\n      dup7\n        /* \"#utility.yul\":1733:1739   */\n      dup3\n        /* \"#utility.yul\":1722:1731   */\n      dup8\n        /* \"#utility.yul\":1718:1740   */\n      add\n        /* \"#utility.yul\":1697:1750   */\n      tag_288\n      jump\t// in\n    tag_316:\n        /* \"#utility.yul\":1687:1750   */\n      swap4\n      pop\n        /* \"#utility.yul\":1643:1760   */\n      pop\n        /* \"#utility.yul\":1799:1801   */\n      0x20\n        /* \"#utility.yul\":1825:1878   */\n      tag_317\n        /* \"#utility.yul\":1870:1877   */\n      dup7\n        /* \"#utility.yul\":1861:1867   */\n      dup3\n        /* \"#utility.yul\":1850:1859   */\n      dup8\n        /* \"#utility.yul\":1846:1868   */\n      add\n        /* \"#utility.yul\":1825:1878   */\n      tag_288\n      jump\t// in\n    tag_317:\n        /* \"#utility.yul\":1815:1878   */\n      swap3\n      pop\n        /* \"#utility.yul\":1770:1888   */\n      pop\n        /* \"#utility.yul\":1927:1929   */\n      0x40\n        /* \"#utility.yul\":1953:2006   */\n      tag_318\n        /* \"#utility.yul\":1998:2005   */\n      dup7\n        /* \"#utility.yul\":1989:1995   */\n      dup3\n        /* \"#utility.yul\":1978:1987   */\n      dup8\n        /* \"#utility.yul\":1974:1996   */\n      add\n        /* \"#utility.yul\":1953:2006   */\n      tag_296\n      jump\t// in\n    tag_318:\n        /* \"#utility.yul\":1943:2006   */\n      swap2\n      pop\n        /* \"#utility.yul\":1898:2016   */\n      pop\n        /* \"#utility.yul\":1404:2023   */\n      swap3\n      pop\n      swap3\n      pop\n      swap3\n      jump\t// out\n        /* \"#utility.yul\":2029:2940   */\n    tag_81:\n        /* \"#utility.yul\":2124:2130   */\n      0x00\n        /* \"#utility.yul\":2132:2138   */\n      dup1\n        /* \"#utility.yul\":2140:2146   */\n      0x00\n        /* \"#utility.yul\":2148:2154   */\n      dup1\n        /* \"#utility.yul\":2156:2162   */\n      0x00\n        /* \"#utility.yul\":2205:2208   */\n      0xa0\n        /* \"#utility.yul\":2193:2202   */\n      dup7\n        /* \"#utility.yul\":2184:2191   */\n      dup9\n        /* \"#utility.yul\":2180:2203   */\n      sub\n        /* \"#utility.yul\":2176:2209   */\n      slt\n        /* \"#utility.yul\":2173:2293   */\n      iszero\n      tag_320\n      jumpi\n        /* \"#utility.yul\":2212:2291   */\n      tag_321\n      tag_306\n      jump\t// in\n    tag_321:\n        /* \"#utility.yul\":2173:2293   */\n    tag_320:\n        /* \"#utility.yul\":2332:2333   */\n      0x00\n        /* \"#utility.yul\":2357:2410   */\n      tag_322\n        /* \"#utility.yul\":2402:2409   */\n      dup9\n        /* \"#utility.yul\":2393:2399   */\n      dup3\n        /* \"#utility.yul\":2382:2391   */\n      dup10\n        /* \"#utility.yul\":2378:2400   */\n      add\n        /* \"#utility.yul\":2357:2410   */\n      tag_288\n      jump\t// in\n    tag_322:\n        /* \"#utility.yul\":2347:2410   */\n      swap6\n      pop\n        /* \"#utility.yul\":2303:2420   */\n      pop\n        /* \"#utility.yul\":2459:2461   */\n      0x20\n        /* \"#utility.yul\":2485:2538   */\n      tag_323\n        /* \"#utility.yul\":2530:2537   */\n      dup9\n        /* \"#utility.yul\":2521:2527   */\n      dup3\n        /* \"#utility.yul\":2510:2519   */\n      dup10\n        /* \"#utility.yul\":2506:2528   */\n      add\n        /* \"#utility.yul\":2485:2538   */\n      tag_288\n      jump\t// in\n    tag_323:\n        /* \"#utility.yul\":2475:2538   */\n      swap5\n      pop\n        /* \"#utility.yul\":2430:2548   */\n      pop\n        /* \"#utility.yul\":2587:2589   */\n      0x40\n        /* \"#utility.yul\":2613:2666   */\n      tag_324\n        /* \"#utility.yul\":2658:2665   */\n      dup9\n        /* \"#utility.yul\":2649:2655   */\n      dup3\n        /* \"#utility.yul\":2638:2647   */\n      dup10\n        /* \"#utility.yul\":2634:2656   */\n      add\n        /* \"#utility.yul\":2613:2666   */\n      tag_296\n      jump\t// in\n    tag_324:\n        /* \"#utility.yul\":2603:2666   */\n      swap4\n      pop\n        /* \"#utility.yul\":2558:2676   */\n      pop\n        /* \"#utility.yul\":2715:2717   */\n      0x60\n        /* \"#utility.yul\":2741:2794   */\n      tag_325\n        /* \"#utility.yul\":2786:2793   */\n      dup9\n        /* \"#utility.yul\":2777:2783   */\n      dup3\n        /* \"#utility.yul\":2766:2775   */\n      dup10\n        /* \"#utility.yul\":2762:2784   */\n      add\n        /* \"#utility.yul\":2741:2794   */\n      tag_296\n      jump\t// in\n    tag_325:\n        /* \"#utility.yul\":2731:2794   */\n      swap3\n      pop\n        /* \"#utility.yul\":2686:2804   */\n      pop\n        /* \"#utility.yul\":2843:2846   */\n      0x80\n        /* \"#utility.yul\":2870:2923   */\n      tag_326\n        /* \"#utility.yul\":2915:2922   */\n      dup9\n        /* \"#utility.yul\":2906:2912   */\n      dup3\n        /* \"#utility.yul\":2895:2904   */\n      dup10\n        /* \"#utility.yul\":2891:2913   */\n      add\n        /* \"#utility.yul\":2870:2923   */\n      tag_288\n      jump\t// in\n    tag_326:\n        /* \"#utility.yul\":2860:2923   */\n      swap2\n      pop\n        /* \"#utility.yul\":2814:2933   */\n      pop\n        /* \"#utility.yul\":2029:2940   */\n      swap3\n      swap6\n      pop\n      swap3\n      swap6\n      swap1\n      swap4\n      pop\n      jump\t// out\n        /* \"#utility.yul\":2946:3420   */\n    tag_33:\n        /* \"#utility.yul\":3014:3020   */\n      0x00\n        /* \"#utility.yul\":3022:3028   */\n      dup1\n        /* \"#utility.yul\":3071:3073   */\n      0x40\n        /* \"#utility.yul\":3059:3068   */\n      dup4\n        /* \"#utility.yul\":3050:3057   */\n      dup6\n        /* \"#utility.yul\":3046:3069   */\n      sub\n        /* \"#utility.yul\":3042:3074   */\n      slt\n        /* \"#utility.yul\":3039:3158   */\n      iszero\n      tag_328\n      jumpi\n        /* \"#utility.yul\":3077:3156   */\n      tag_329\n      tag_306\n      jump\t// in\n    tag_329:\n        /* \"#utility.yul\":3039:3158   */\n    tag_328:\n        /* \"#utility.yul\":3197:3198   */\n      0x00\n        /* \"#utility.yul\":3222:3275   */\n      tag_330\n        /* \"#utility.yul\":3267:3274   */\n      dup6\n        /* \"#utility.yul\":3258:3264   */\n      dup3\n        /* \"#utility.yul\":3247:3256   */\n      dup7\n        /* \"#utility.yul\":3243:3265   */\n      add\n        /* \"#utility.yul\":3222:3275   */\n      tag_288\n      jump\t// in\n    tag_330:\n        /* \"#utility.yul\":3212:3275   */\n      swap3\n      pop\n        /* \"#utility.yul\":3168:3285   */\n      pop\n        /* \"#utility.yul\":3324:3326   */\n      0x20\n        /* \"#utility.yul\":3350:3403   */\n      tag_331\n        /* \"#utility.yul\":3395:3402   */\n      dup6\n        /* \"#utility.yul\":3386:3392   */\n      dup3\n        /* \"#utility.yul\":3375:3384   */\n      dup7\n        /* \"#utility.yul\":3371:3393   */\n      add\n        /* \"#utility.yul\":3350:3403   */\n      tag_296\n      jump\t// in\n    tag_331:\n        /* \"#utility.yul\":3340:3403   */\n      swap2\n      pop\n        /* \"#utility.yul\":3295:3413   */\n      pop\n        /* \"#utility.yul\":2946:3420   */\n      swap3\n      pop\n      swap3\n      swap1\n      pop\n      jump\t// out\n        /* \"#utility.yul\":3426:3771   */\n    tag_170:\n        /* \"#utility.yul\":3493:3499   */\n      0x00\n        /* \"#utility.yul\":3542:3544   */\n      0x20\n        /* \"#utility.yul\":3530:3539   */\n      dup3\n        /* \"#utility.yul\":3521:3528   */\n      dup5\n        /* \"#utility.yul\":3517:3540   */\n      sub\n        /* \"#utility.yul\":3513:3545   */\n      slt\n        /* \"#utility.yul\":3510:3629   */\n      iszero\n      tag_333\n      jumpi\n        /* \"#utility.yul\":3548:3627   */\n      tag_334\n      tag_306\n      jump\t// in\n    tag_334:\n        /* \"#utility.yul\":3510:3629   */\n    tag_333:\n        /* \"#utility.yul\":3668:3669   */\n      0x00\n        /* \"#utility.yul\":3693:3754   */\n      tag_335\n        /* \"#utility.yul\":3746:3753   */\n      dup5\n        /* \"#utility.yul\":3737:3743   */\n      dup3\n        /* \"#utility.yul\":3726:3735   */\n      dup6\n        /* \"#utility.yul\":3722:3744   */\n      add\n        /* \"#utility.yul\":3693:3754   */\n      tag_292\n      jump\t// in\n    tag_335:\n        /* \"#utility.yul\":3683:3754   */\n      swap2\n      pop\n        /* \"#utility.yul\":3639:3764   */\n      pop\n        /* \"#utility.yul\":3426:3771   */\n      swap3\n      swap2\n      pop\n      pop\n      jump\t// out\n        /* \"#utility.yul\":3777:4128   */\n    tag_100:\n        /* \"#utility.yul\":3847:3853   */\n      0x00\n        /* \"#utility.yul\":3896:3898   */\n      0x20\n        /* \"#utility.yul\":3884:3893   */\n      dup3\n        /* \"#utility.yul\":3875:3882   */\n      dup5\n        /* \"#utility.yul\":3871:3894   */\n      sub\n        /* \"#utility.yul\":3867:3899   */\n      slt\n        /* \"#utility.yul\":3864:3983   */\n      iszero\n      tag_337\n      jumpi\n        /* \"#utility.yul\":3902:3981   */\n      tag_338\n      tag_306\n      jump\t// in\n    tag_338:\n        /* \"#utility.yul\":3864:3983   */\n    tag_337:\n        /* \"#utility.yul\":4022:4023   */\n      0x00\n        /* \"#utility.yul\":4047:4111   */\n      tag_339\n        /* \"#utility.yul\":4103:4110   */\n      dup5\n        /* \"#utility.yul\":4094:4100   */\n      dup3\n        /* \"#utility.yul\":4083:4092   */\n      dup6\n        /* \"#utility.yul\":4079:4101   */\n      add\n        /* \"#utility.yul\":4047:4111   */\n      tag_300\n      jump\t// in\n    tag_339:\n        /* \"#utility.yul\":4037:4111   */\n      swap2\n      pop\n        /* \"#utility.yul\":3993:4121   */\n      pop\n        /* \"#utility.yul\":3777:4128   */\n      swap3\n      swap2\n      pop\n      pop\n      jump\t// out\n        /* \"#utility.yul\":4134:4252   */\n    tag_340:\n        /* \"#utility.yul\":4221:4245   */\n      tag_342\n        /* \"#utility.yul\":4239:4244   */\n      dup2\n        /* \"#utility.yul\":4221:4245   */\n      tag_343\n      jump\t// in\n    tag_342:\n        /* \"#utility.yul\":4216:4219   */\n      dup3\n        /* \"#utility.yul\":4209:4246   */\n      mstore\n        /* \"#utility.yul\":4134:4252   */\n      pop\n      pop\n      jump\t// out\n        /* \"#utility.yul\":4258:4367   */\n    tag_344:\n        /* \"#utility.yul\":4339:4360   */\n      tag_346\n        /* \"#utility.yul\":4354:4359   */\n      dup2\n        /* \"#utility.yul\":4339:4360   */\n      tag_347\n      jump\t// in\n    tag_346:\n        /* \"#utility.yul\":4334:4337   */\n      dup3\n        /* \"#utility.yul\":4327:4361   */\n      mstore\n        /* \"#utility.yul\":4258:4367   */\n      pop\n      pop\n      jump\t// out\n        /* \"#utility.yul\":4373:4739   */\n    tag_348:\n        /* \"#utility.yul\":4515:4518   */\n      0x00\n        /* \"#utility.yul\":4536:4603   */\n      tag_350\n        /* \"#utility.yul\":4600:4602   */\n      0x23\n        /* \"#utility.yul\":4595:4598   */\n      dup4\n        /* \"#utility.yul\":4536:4603   */\n      tag_351\n      jump\t// in\n    tag_350:\n        /* \"#utility.yul\":4529:4603   */\n      swap2\n      pop\n        /* \"#utility.yul\":4612:4705   */\n      tag_352\n        /* \"#utility.yul\":4701:4704   */\n      dup3\n        /* \"#utility.yul\":4612:4705   */\n      tag_353\n      jump\t// in\n    tag_352:\n        /* \"#utility.yul\":4730:4732   */\n      0x40\n        /* \"#utility.yul\":4725:4728   */\n      dup3\n        /* \"#utility.yul\":4721:4733   */\n      add\n        /* \"#utility.yul\":4714:4733   */\n      swap1\n      pop\n        /* \"#utility.yul\":4373:4739   */\n      swap2\n      swap1\n      pop\n      jump\t// out\n        /* \"#utility.yul\":4745:5111   */\n    tag_354:\n        /* \"#utility.yul\":4887:4890   */\n      0x00\n        /* \"#utility.yul\":4908:4975   */\n      tag_356\n        /* \"#utility.yul\":4972:4974   */\n      0x16\n        /* \"#utility.yul\":4967:4970   */\n      dup4\n        /* \"#utility.yul\":4908:4975   */\n      tag_351\n      jump\t// in\n    tag_356:\n        /* \"#utility.yul\":4901:4975   */\n      swap2\n      pop\n        /* \"#utility.yul\":4984:5077   */\n      tag_357\n        /* \"#utility.yul\":5073:5076   */\n      dup3\n        /* \"#utility.yul\":4984:5077   */\n      tag_358\n      jump\t// in\n    tag_357:\n        /* \"#utility.yul\":5102:5104   */\n      0x20\n        /* \"#utility.yul\":5097:5100   */\n      dup3\n        /* \"#utility.yul\":5093:5105   */\n      add\n        /* \"#utility.yul\":5086:5105   */\n      swap1\n      pop\n        /* \"#utility.yul\":4745:5111   */\n      swap2\n      swap1\n      pop\n      jump\t// out\n        /* \"#utility.yul\":5117:5483   */\n    tag_359:\n        /* \"#utility.yul\":5259:5262   */\n      0x00\n        /* \"#utility.yul\":5280:5347   */\n      tag_361\n        /* \"#utility.yul\":5344:5346   */\n      0x13\n        /* \"#utility.yul\":5339:5342   */\n      dup4\n        /* \"#utility.yul\":5280:5347   */\n      tag_351\n      jump\t// in\n    tag_361:\n        /* \"#utility.yul\":5273:5347   */\n      swap2\n      pop\n        /* \"#utility.yul\":5356:5449   */\n      tag_362\n        /* \"#utility.yul\":5445:5448   */\n      dup3\n        /* \"#utility.yul\":5356:5449   */\n      tag_363\n      jump\t// in\n    tag_362:\n        /* \"#utility.yul\":5474:5476   */\n      0x20\n        /* \"#utility.yul\":5469:5472   */\n      dup3\n        /* \"#utility.yul\":5465:5477   */\n      add\n        /* \"#utility.yul\":5458:5477   */\n      swap1\n      pop\n        /* \"#utility.yul\":5117:5483   */\n      swap2\n      swap1\n      pop\n      jump\t// out\n        /* \"#utility.yul\":5489:5855   */\n    tag_364:\n        /* \"#utility.yul\":5631:5634   */\n      0x00\n        /* \"#utility.yul\":5652:5719   */\n      tag_366\n        /* \"#utility.yul\":5716:5718   */\n      0x20\n        /* \"#utility.yul\":5711:5714   */\n      dup4\n        /* \"#utility.yul\":5652:5719   */\n      tag_351\n      jump\t// in\n    tag_366:\n        /* \"#utility.yul\":5645:5719   */\n      swap2\n      pop\n        /* \"#utility.yul\":5728:5821   */\n      tag_367\n        /* \"#utility.yul\":5817:5820   */\n      dup3\n        /* \"#utility.yul\":5728:5821   */\n      tag_368\n      jump\t// in\n    tag_367:\n        /* \"#utility.yul\":5846:5848   */\n      0x20\n        /* \"#utility.yul\":5841:5844   */\n      dup3\n        /* \"#utility.yul\":5837:5849   */\n      add\n        /* \"#utility.yul\":5830:5849   */\n      swap1\n      pop\n        /* \"#utility.yul\":5489:5855   */\n      swap2\n      swap1\n      pop\n      jump\t// out\n        /* \"#utility.yul\":5861:6227   */\n    tag_369:\n        /* \"#utility.yul\":6003:6006   */\n      0x00\n        /* \"#utility.yul\":6024:6091   */\n      tag_371\n        /* \"#utility.yul\":6088:6090   */\n      0x23\n        /* \"#utility.yul\":6083:6086   */\n      dup4\n        /* \"#utility.yul\":6024:6091   */\n      tag_351\n      jump\t// in\n    tag_371:\n        /* \"#utility.yul\":6017:6091   */\n      swap2\n      pop\n        /* \"#utility.yul\":6100:6193   */\n      tag_372\n        /* \"#utility.yul\":6189:6192   */\n      dup3\n        /* \"#utility.yul\":6100:6193   */\n      tag_373\n      jump\t// in\n    tag_372:\n        /* \"#utility.yul\":6218:6220   */\n      0x40\n        /* \"#utility.yul\":6213:6216   */\n      dup3\n        /* \"#utility.yul\":6209:6221   */\n      add\n        /* \"#utility.yul\":6202:6221   */\n      swap1\n      pop\n        /* \"#utility.yul\":5861:6227   */\n      swap2\n      swap1\n      pop\n      jump\t// out\n        /* \"#utility.yul\":6233:6599   */\n    tag_374:\n        /* \"#utility.yul\":6375:6378   */\n      0x00\n        /* \"#utility.yul\":6396:6463   */\n      tag_376\n        /* \"#utility.yul\":6460:6462   */\n      0x0e\n        /* \"#utility.yul\":6455:6458   */\n      dup4\n        /* \"#utility.yul\":6396:6463   */\n      tag_351\n      jump\t// in\n    tag_376:\n        /* \"#utility.yul\":6389:6463   */\n      swap2\n      pop\n        /* \"#utility.yul\":6472:6565   */\n      tag_377\n        /* \"#utility.yul\":6561:6564   */\n      dup3\n        /* \"#utility.yul\":6472:6565   */\n      tag_378\n      jump\t// in\n    tag_377:\n        /* \"#utility.yul\":6590:6592   */\n      0x20\n        /* \"#utility.yul\":6585:6588   */\n      dup3\n        /* \"#utility.yul\":6581:6593   */\n      add\n        /* \"#utility.yul\":6574:6593   */\n      swap1\n      pop\n        /* \"#utility.yul\":6233:6599   */\n      swap2\n      swap1\n      pop\n      jump\t// out\n        /* \"#utility.yul\":6605:6971   */\n    tag_379:\n        /* \"#utility.yul\":6747:6750   */\n      0x00\n        /* \"#utility.yul\":6768:6835   */\n      tag_381\n        /* \"#utility.yul\":6832:6834   */\n      0x20\n        /* \"#utility.yul\":6827:6830   */\n      dup4\n        /* \"#utility.yul\":6768:6835   */\n      tag_351\n      jump\t// in\n    tag_381:\n        /* \"#utility.yul\":6761:6835   */\n      swap2\n      pop\n        /* \"#utility.yul\":6844:6937   */\n      tag_382\n        /* \"#utility.yul\":6933:6936   */\n      dup3\n        /* \"#utility.yul\":6844:6937   */\n      tag_383\n      jump\t// in\n    tag_382:\n        /* \"#utility.yul\":6962:6964   */\n      0x20\n        /* \"#utility.yul\":6957:6960   */\n      dup3\n        /* \"#utility.yul\":6953:6965   */\n      add\n        /* \"#utility.yul\":6946:6965   */\n      swap1\n      pop\n        /* \"#utility.yul\":6605:6971   */\n      swap2\n      swap1\n      pop\n      jump\t// out\n        /* \"#utility.yul\":6977:7095   */\n    tag_384:\n        /* \"#utility.yul\":7064:7088   */\n      tag_386\n        /* \"#utility.yul\":7082:7087   */\n      dup2\n        /* \"#utility.yul\":7064:7088   */\n      tag_387\n      jump\t// in\n    tag_386:\n        /* \"#utility.yul\":7059:7062   */\n      dup3\n        /* \"#utility.yul\":7052:7089   */\n      mstore\n        /* \"#utility.yul\":6977:7095   */\n      pop\n      pop\n      jump\t// out\n        /* \"#utility.yul\":7101:7323   */\n    tag_40:\n        /* \"#utility.yul\":7194:7198   */\n      0x00\n        /* \"#utility.yul\":7232:7234   */\n      0x20\n        /* \"#utility.yul\":7221:7230   */\n      dup3\n        /* \"#utility.yul\":7217:7235   */\n      add\n        /* \"#utility.yul\":7209:7235   */\n      swap1\n      pop\n        /* \"#utility.yul\":7245:7316   */\n      tag_389\n        /* \"#utility.yul\":7313:7314   */\n      0x00\n        /* \"#utility.yul\":7302:7311   */\n      dup4\n        /* \"#utility.yul\":7298:7315   */\n      add\n        /* \"#utility.yul\":7289:7295   */\n      dup5\n        /* \"#utility.yul\":7245:7316   */\n      tag_340\n      jump\t// in\n    tag_389:\n        /* \"#utility.yul\":7101:7323   */\n      swap3\n      swap2\n      pop\n      pop\n      jump\t// out\n        /* \"#utility.yul\":7329:7661   */\n    tag_165:\n        /* \"#utility.yul\":7450:7454   */\n      0x00\n        /* \"#utility.yul\":7488:7490   */\n      0x40\n        /* \"#utility.yul\":7477:7486   */\n      dup3\n        /* \"#utility.yul\":7473:7491   */\n      add\n        /* \"#utility.yul\":7465:7491   */\n      swap1\n      pop\n        /* \"#utility.yul\":7501:7572   */\n      tag_391\n        /* \"#utility.yul\":7569:7570   */\n      0x00\n        /* \"#utility.yul\":7558:7567   */\n      dup4\n        /* \"#utility.yul\":7554:7571   */\n      add\n        /* \"#utility.yul\":7545:7551   */\n      dup6\n        /* \"#utility.yul\":7501:7572   */\n      tag_340\n      jump\t// in\n    tag_391:\n        /* \"#utility.yul\":7582:7654   */\n      tag_392\n        /* \"#utility.yul\":7650:7652   */\n      0x20\n        /* \"#utility.yul\":7639:7648   */\n      dup4\n        /* \"#utility.yul\":7635:7653   */\n      add\n        /* \"#utility.yul\":7626:7632   */\n      dup5\n        /* \"#utility.yul\":7582:7654   */\n      tag_384\n      jump\t// in\n    tag_392:\n        /* \"#utility.yul\":7329:7661   */\n      swap4\n      swap3\n      pop\n      pop\n      pop\n      jump\t// out\n        /* \"#utility.yul\":7667:7877   */\n    tag_36:\n        /* \"#utility.yul\":7754:7758   */\n      0x00\n        /* \"#utility.yul\":7792:7794   */\n      0x20\n        /* \"#utility.yul\":7781:7790   */\n      dup3\n        /* \"#utility.yul\":7777:7795   */\n      add\n        /* \"#utility.yul\":7769:7795   */\n      swap1\n      pop\n        /* \"#utility.yul\":7805:7870   */\n      tag_394\n        /* \"#utility.yul\":7867:7868   */\n      0x00\n        /* \"#utility.yul\":7856:7865   */\n      dup4\n        /* \"#utility.yul\":7852:7869   */\n      add\n        /* \"#utility.yul\":7843:7849   */\n      dup5\n        /* \"#utility.yul\":7805:7870   */\n      tag_344\n      jump\t// in\n    tag_394:\n        /* \"#utility.yul\":7667:7877   */\n      swap3\n      swap2\n      pop\n      pop\n      jump\t// out\n        /* \"#utility.yul\":7883:8302   */\n    tag_139:\n        /* \"#utility.yul\":8049:8053   */\n      0x00\n        /* \"#utility.yul\":8087:8089   */\n      0x20\n        /* \"#utility.yul\":8076:8085   */\n      dup3\n        /* \"#utility.yul\":8072:8090   */\n      add\n        /* \"#utility.yul\":8064:8090   */\n      swap1\n      pop\n        /* \"#utility.yul\":8136:8145   */\n      dup2\n        /* \"#utility.yul\":8130:8134   */\n      dup2\n        /* \"#utility.yul\":8126:8146   */\n      sub\n        /* \"#utility.yul\":8122:8123   */\n      0x00\n        /* \"#utility.yul\":8111:8120   */\n      dup4\n        /* \"#utility.yul\":8107:8124   */\n      add\n        /* \"#utility.yul\":8100:8147   */\n      mstore\n        /* \"#utility.yul\":8164:8295   */\n      tag_396\n        /* \"#utility.yul\":8290:8294   */\n      dup2\n        /* \"#utility.yul\":8164:8295   */\n      tag_348\n      jump\t// in\n    tag_396:\n        /* \"#utility.yul\":8156:8295   */\n      swap1\n      pop\n        /* \"#utility.yul\":7883:8302   */\n      swap2\n      swap1\n      pop\n      jump\t// out\n        /* \"#utility.yul\":8308:8727   */\n    tag_148:\n        /* \"#utility.yul\":8474:8478   */\n      0x00\n        /* \"#utility.yul\":8512:8514   */\n      0x20\n        /* \"#utility.yul\":8501:8510   */\n      dup3\n        /* \"#utility.yul\":8497:8515   */\n      add\n        /* \"#utility.yul\":8489:8515   */\n      swap1\n      pop\n        /* \"#utility.yul\":8561:8570   */\n      dup2\n        /* \"#utility.yul\":8555:8559   */\n      dup2\n        /* \"#utility.yul\":8551:8571   */\n      sub\n        /* \"#utility.yul\":8547:8548   */\n      0x00\n        /* \"#utility.yul\":8536:8545   */\n      dup4\n        /* \"#utility.yul\":8532:8549   */\n      add\n        /* \"#utility.yul\":8525:8572   */\n      mstore\n        /* \"#utility.yul\":8589:8720   */\n      tag_398\n        /* \"#utility.yul\":8715:8719   */\n      dup2\n        /* \"#utility.yul\":8589:8720   */\n      tag_354\n      jump\t// in\n    tag_398:\n        /* \"#utility.yul\":8581:8720   */\n      swap1\n      pop\n        /* \"#utility.yul\":8308:8727   */\n      swap2\n      swap1\n      pop\n      jump\t// out\n        /* \"#utility.yul\":8733:9152   */\n    tag_119:\n        /* \"#utility.yul\":8899:8903   */\n      0x00\n        /* \"#utility.yul\":8937:8939   */\n      0x20\n        /* \"#utility.yul\":8926:8935   */\n      dup3\n        /* \"#utility.yul\":8922:8940   */\n      add\n        /* \"#utility.yul\":8914:8940   */\n      swap1\n      pop\n        /* \"#utility.yul\":8986:8995   */\n      dup2\n        /* \"#utility.yul\":8980:8984   */\n      dup2\n        /* \"#utility.yul\":8976:8996   */\n      sub\n        /* \"#utility.yul\":8972:8973   */\n      0x00\n        /* \"#utility.yul\":8961:8970   */\n      dup4\n        /* \"#utility.yul\":8957:8974   */\n      add\n        /* \"#utility.yul\":8950:8997   */\n      mstore\n        /* \"#utility.yul\":9014:9145   */\n      tag_400\n        /* \"#utility.yul\":9140:9144   */\n      dup2\n        /* \"#utility.yul\":9014:9145   */\n      tag_359\n      jump\t// in\n    tag_400:\n        /* \"#utility.yul\":9006:9145   */\n      swap1\n      pop\n        /* \"#utility.yul\":8733:9152   */\n      swap2\n      swap1\n      pop\n      jump\t// out\n        /* \"#utility.yul\":9158:9577   */\n    tag_208:\n        /* \"#utility.yul\":9324:9328   */\n      0x00\n        /* \"#utility.yul\":9362:9364   */\n      0x20\n        /* \"#utility.yul\":9351:9360   */\n      dup3\n        /* \"#utility.yul\":9347:9365   */\n      add\n        /* \"#utility.yul\":9339:9365   */\n      swap1\n      pop\n        /* \"#utility.yul\":9411:9420   */\n      dup2\n        /* \"#utility.yul\":9405:9409   */\n      dup2\n        /* \"#utility.yul\":9401:9421   */\n      sub\n        /* \"#utility.yul\":9397:9398   */\n      0x00\n        /* \"#utility.yul\":9386:9395   */\n      dup4\n        /* \"#utility.yul\":9382:9399   */\n      add\n        /* \"#utility.yul\":9375:9422   */\n      mstore\n        /* \"#utility.yul\":9439:9570   */\n      tag_402\n        /* \"#utility.yul\":9565:9569   */\n      dup2\n        /* \"#utility.yul\":9439:9570   */\n      tag_364\n      jump\t// in\n    tag_402:\n        /* \"#utility.yul\":9431:9570   */\n      swap1\n      pop\n        /* \"#utility.yul\":9158:9577   */\n      swap2\n      swap1\n      pop\n      jump\t// out\n        /* \"#utility.yul\":9583:10002   */\n    tag_161:\n        /* \"#utility.yul\":9749:9753   */\n      0x00\n        /* \"#utility.yul\":9787:9789   */\n      0x20\n        /* \"#utility.yul\":9776:9785   */\n      dup3\n        /* \"#utility.yul\":9772:9790   */\n      add\n        /* \"#utility.yul\":9764:9790   */\n      swap1\n      pop\n        /* \"#utility.yul\":9836:9845   */\n      dup2\n        /* \"#utility.yul\":9830:9834   */\n      dup2\n        /* \"#utility.yul\":9826:9846   */\n      sub\n        /* \"#utility.yul\":9822:9823   */\n      0x00\n        /* \"#utility.yul\":9811:9820   */\n      dup4\n        /* \"#utility.yul\":9807:9824   */\n      add\n        /* \"#utility.yul\":9800:9847   */\n      mstore\n        /* \"#utility.yul\":9864:9995   */\n      tag_404\n        /* \"#utility.yul\":9990:9994   */\n      dup2\n        /* \"#utility.yul\":9864:9995   */\n      tag_369\n      jump\t// in\n    tag_404:\n        /* \"#utility.yul\":9856:9995   */\n      swap1\n      pop\n        /* \"#utility.yul\":9583:10002   */\n      swap2\n      swap1\n      pop\n      jump\t// out\n        /* \"#utility.yul\":10008:10427   */\n    tag_270:\n        /* \"#utility.yul\":10174:10178   */\n      0x00\n        /* \"#utility.yul\":10212:10214   */\n      0x20\n        /* \"#utility.yul\":10201:10210   */\n      dup3\n        /* \"#utility.yul\":10197:10215   */\n      add\n        /* \"#utility.yul\":10189:10215   */\n      swap1\n      pop\n        /* \"#utility.yul\":10261:10270   */\n      dup2\n        /* \"#utility.yul\":10255:10259   */\n      dup2\n        /* \"#utility.yul\":10251:10271   */\n      sub\n        /* \"#utility.yul\":10247:10248   */\n      0x00\n        /* \"#utility.yul\":10236:10245   */\n      dup4\n        /* \"#utility.yul\":10232:10249   */\n      add\n        /* \"#utility.yul\":10225:10272   */\n      mstore\n        /* \"#utility.yul\":10289:10420   */\n      tag_406\n        /* \"#utility.yul\":10415:10419   */\n      dup2\n        /* \"#utility.yul\":10289:10420   */\n      tag_374\n      jump\t// in\n    tag_406:\n        /* \"#utility.yul\":10281:10420   */\n      swap1\n      pop\n        /* \"#utility.yul\":10008:10427   */\n      swap2\n      swap1\n      pop\n      jump\t// out\n        /* \"#utility.yul\":10433:10852   */\n    tag_193:\n        /* \"#utility.yul\":10599:10603   */\n      0x00\n        /* \"#utility.yul\":10637:10639   */\n      0x20\n        /* \"#utility.yul\":10626:10635   */\n      dup3\n        /* \"#utility.yul\":10622:10640   */\n      add\n        /* \"#utility.yul\":10614:10640   */\n      swap1\n      pop\n        /* \"#utility.yul\":10686:10695   */\n      dup2\n        /* \"#utility.yul\":10680:10684   */\n      dup2\n        /* \"#utility.yul\":10676:10696   */\n      sub\n        /* \"#utility.yul\":10672:10673   */\n      0x00\n        /* \"#utility.yul\":10661:10670   */\n      dup4\n        /* \"#utility.yul\":10657:10674   */\n      add\n        /* \"#utility.yul\":10650:10697   */\n      mstore\n        /* \"#utility.yul\":10714:10845   */\n      tag_408\n        /* \"#utility.yul\":10840:10844   */\n      dup2\n        /* \"#utility.yul\":10714:10845   */\n      tag_379\n      jump\t// in\n    tag_408:\n        /* \"#utility.yul\":10706:10845   */\n      swap1\n      pop\n        /* \"#utility.yul\":10433:10852   */\n      swap2\n      swap1\n      pop\n      jump\t// out\n        /* \"#utility.yul\":10858:11080   */\n    tag_44:\n        /* \"#utility.yul\":10951:10955   */\n      0x00\n        /* \"#utility.yul\":10989:10991   */\n      0x20\n        /* \"#utility.yul\":10978:10987   */\n      dup3\n        /* \"#utility.yul\":10974:10992   */\n      add\n        /* \"#utility.yul\":10966:10992   */\n      swap1\n      pop\n        /* \"#utility.yul\":11002:11073   */\n      tag_410\n        /* \"#utility.yul\":11070:11071   */\n      0x00\n        /* \"#utility.yul\":11059:11068   */\n      dup4\n        /* \"#utility.yul\":11055:11072   */\n      add\n        /* \"#utility.yul\":11046:11052   */\n      dup5\n        /* \"#utility.yul\":11002:11073   */\n      tag_384\n      jump\t// in\n    tag_410:\n        /* \"#utility.yul\":10858:11080   */\n      swap3\n      swap2\n      pop\n      pop\n      jump\t// out\n        /* \"#utility.yul\":11086:11418   */\n    tag_27:\n        /* \"#utility.yul\":11207:11211   */\n      0x00\n        /* \"#utility.yul\":11245:11247   */\n      0x40\n        /* \"#utility.yul\":11234:11243   */\n      dup3\n        /* \"#utility.yul\":11230:11248   */\n      add\n        /* \"#utility.yul\":11222:11248   */\n      swap1\n      pop\n        /* \"#utility.yul\":11258:11329   */\n      tag_412\n        /* \"#utility.yul\":11326:11327   */\n      0x00\n        /* \"#utility.yul\":11315:11324   */\n      dup4\n        /* \"#utility.yul\":11311:11328   */\n      add\n        /* \"#utility.yul\":11302:11308   */\n      dup6\n        /* \"#utility.yul\":11258:11329   */\n      tag_384\n      jump\t// in\n    tag_412:\n        /* \"#utility.yul\":11339:11411   */\n      tag_413\n        /* \"#utility.yul\":11407:11409   */\n      0x20\n        /* \"#utility.yul\":11396:11405   */\n      dup4\n        /* \"#utility.yul\":11392:11410   */\n      add\n        /* \"#utility.yul\":11383:11389   */\n      dup5\n        /* \"#utility.yul\":11339:11411   */\n      tag_384\n      jump\t// in\n    tag_413:\n        /* \"#utility.yul\":11086:11418   */\n      swap4\n      swap3\n      pop\n      pop\n      pop\n      jump\t// out\n        /* \"#utility.yul\":11424:11977   */\n    tag_223:\n        /* \"#utility.yul\":11601:11605   */\n      0x00\n        /* \"#utility.yul\":11639:11642   */\n      0x80\n        /* \"#utility.yul\":11628:11637   */\n      dup3\n        /* \"#utility.yul\":11624:11643   */\n      add\n        /* \"#utility.yul\":11616:11643   */\n      swap1\n      pop\n        /* \"#utility.yul\":11653:11724   */\n      tag_415\n        /* \"#utility.yul\":11721:11722   */\n      0x00\n        /* \"#utility.yul\":11710:11719   */\n      dup4\n        /* \"#utility.yul\":11706:11723   */\n      add\n        /* \"#utility.yul\":11697:11703   */\n      dup8\n        /* \"#utility.yul\":11653:11724   */\n      tag_384\n      jump\t// in\n    tag_415:\n        /* \"#utility.yul\":11734:11806   */\n      tag_416\n        /* \"#utility.yul\":11802:11804   */\n      0x20\n        /* \"#utility.yul\":11791:11800   */\n      dup4\n        /* \"#utility.yul\":11787:11805   */\n      add\n        /* \"#utility.yul\":11778:11784   */\n      dup7\n        /* \"#utility.yul\":11734:11806   */\n      tag_384\n      jump\t// in\n    tag_416:\n        /* \"#utility.yul\":11816:11888   */\n      tag_417\n        /* \"#utility.yul\":11884:11886   */\n      0x40\n        /* \"#utility.yul\":11873:11882   */\n      dup4\n        /* \"#utility.yul\":11869:11887   */\n      add\n        /* \"#utility.yul\":11860:11866   */\n      dup6\n        /* \"#utility.yul\":11816:11888   */\n      tag_384\n      jump\t// in\n    tag_417:\n        /* \"#utility.yul\":11898:11970   */\n      tag_418\n        /* \"#utility.yul\":11966:11968   */\n      0x60\n        /* \"#utility.yul\":11955:11964   */\n      dup4\n        /* \"#utility.yul\":11951:11969   */\n      add\n        /* \"#utility.yul\":11942:11948   */\n      dup5\n        /* \"#utility.yul\":11898:11970   */\n      tag_384\n      jump\t// in\n    tag_418:\n        /* \"#utility.yul\":11424:11977   */\n      swap6\n      swap5\n      pop\n      pop\n      pop\n      pop\n      pop\n      jump\t// out\n        /* \"#utility.yul\":12064:12233   */\n    tag_351:\n        /* \"#utility.yul\":12148:12159   */\n      0x00\n        /* \"#utility.yul\":12182:12188   */\n      dup3\n        /* \"#utility.yul\":12177:12180   */\n      dup3\n        /* \"#utility.yul\":12170:12189   */\n      mstore\n        /* \"#utility.yul\":12222:12226   */\n      0x20\n        /* \"#utility.yul\":12217:12220   */\n      dup3\n        /* \"#utility.yul\":12213:12227   */\n      add\n        /* \"#utility.yul\":12198:12227   */\n      swap1\n      pop\n        /* \"#utility.yul\":12064:12233   */\n      swap3\n      swap2\n      pop\n      pop\n      jump\t// out\n        /* \"#utility.yul\":12239:12544   */\n    tag_277:\n        /* \"#utility.yul\":12279:12282   */\n      0x00\n        /* \"#utility.yul\":12298:12318   */\n      tag_423\n        /* \"#utility.yul\":12316:12317   */\n      dup3\n        /* \"#utility.yul\":12298:12318   */\n      tag_387\n      jump\t// in\n    tag_423:\n        /* \"#utility.yul\":12293:12318   */\n      swap2\n      pop\n        /* \"#utility.yul\":12332:12352   */\n      tag_424\n        /* \"#utility.yul\":12350:12351   */\n      dup4\n        /* \"#utility.yul\":12332:12352   */\n      tag_387\n      jump\t// in\n    tag_424:\n        /* \"#utility.yul\":12327:12352   */\n      swap3\n      pop\n        /* \"#utility.yul\":12486:12487   */\n      dup3\n        /* \"#utility.yul\":12418:12484   */\n      0xffffffffffffffffffffffffffffffffffffffffffffffffffffffffffffffff\n        /* \"#utility.yul\":12414:12488   */\n      sub\n        /* \"#utility.yul\":12411:12412   */\n      dup3\n        /* \"#utility.yul\":12408:12489   */\n      gt\n        /* \"#utility.yul\":12405:12512   */\n      iszero\n      tag_425\n      jumpi\n        /* \"#utility.yul\":12492:12510   */\n      tag_426\n      tag_427\n      jump\t// in\n    tag_426:\n        /* \"#utility.yul\":12405:12512   */\n    tag_425:\n        /* \"#utility.yul\":12536:12537   */\n      dup3\n        /* \"#utility.yul\":12533:12534   */\n      dup3\n        /* \"#utility.yul\":12529:12538   */\n      add\n        /* \"#utility.yul\":12522:12538   */\n      swap1\n      pop\n        /* \"#utility.yul\":12239:12544   */\n      swap3\n      swap2\n      pop\n      pop\n      jump\t// out\n        /* \"#utility.yul\":12550:12735   */\n    tag_133:\n        /* \"#utility.yul\":12590:12591   */\n      0x00\n        /* \"#utility.yul\":12607:12627   */\n      tag_429\n        /* \"#utility.yul\":12625:12626   */\n      dup3\n        /* \"#utility.yul\":12607:12627   */\n      tag_387\n      jump\t// in\n    tag_429:\n        /* \"#utility.yul\":12602:12627   */\n      swap2\n      pop\n        /* \"#utility.yul\":12641:12661   */\n      tag_430\n        /* \"#utility.yul\":12659:12660   */\n      dup4\n        /* \"#utility.yul\":12641:12661   */\n      tag_387\n      jump\t// in\n    tag_430:\n        /* \"#utility.yul\":12636:12661   */\n      swap3\n      pop\n        /* \"#utility.yul\":12680:12681   */\n      dup3\n        /* \"#utility.yul\":12670:12705   */\n      tag_431\n      jumpi\n        /* \"#utility.yul\":12685:12703   */\n      tag_432\n      tag_243\n      jump\t// in\n    tag_432:\n        /* \"#utility.yul\":12670:12705   */\n    tag_431:\n        /* \"#utility.yul\":12727:12728   */\n      dup3\n        /* \"#utility.yul\":12724:12725   */\n      dup3\n        /* \"#utility.yul\":12720:12729   */\n      div\n        /* \"#utility.yul\":12715:12729   */\n      swap1\n      pop\n        /* \"#utility.yul\":12550:12735   */\n      swap3\n      swap2\n      pop\n      pop\n      jump\t// out\n        /* \"#utility.yul\":12741:13089   */\n    tag_236:\n        /* \"#utility.yul\":12781:12788   */\n      0x00\n        /* \"#utility.yul\":12804:12824   */\n      tag_434\n        /* \"#utility.yul\":12822:12823   */\n      dup3\n        /* \"#utility.yul\":12804:12824   */\n      tag_387\n      jump\t// in\n    tag_434:\n        /* \"#utility.yul\":12799:12824   */\n      swap2\n      pop\n        /* \"#utility.yul\":12838:12858   */\n      tag_435\n        /* \"#utility.yul\":12856:12857   */\n      dup4\n        /* \"#utility.yul\":12838:12858   */\n      tag_387\n      jump\t// in\n    tag_435:\n        /* \"#utility.yul\":12833:12858   */\n      swap3\n      pop\n        /* \"#utility.yul\":13026:13027   */\n      dup2\n        /* \"#utility.yul\":12958:13024   */\n      0xffffffffffffffffffffffffffffffffffffffffffffffffffffffffffffffff\n        /* \"#utility.yul\":12954:13028   */\n      div\n        /* \"#utility.yul\":12951:12952   */\n      dup4\n        /* \"#utility.yul\":12948:13029   */\n      gt\n        /* \"#utility.yul\":12943:12944   */\n      dup3\n        /* \"#utility.yul\":12936:12945   */\n      iszero\n        /* \"#utility.yul\":12929:12946   */\n      iszero\n        /* \"#utility.yul\":12925:13030   */\n      and\n        /* \"#utility.yul\":12922:13053   */\n      iszero\n      tag_436\n      jumpi\n        /* \"#utility.yul\":13033:13051   */\n      tag_437\n      tag_427\n      jump\t// in\n    tag_437:\n        /* \"#utility.yul\":12922:13053   */\n    tag_436:\n        /* \"#utility.yul\":13081:13082   */\n      dup3\n        /* \"#utility.yul\":13078:13079   */\n      dup3\n        /* \"#utility.yul\":13074:13083   */\n      mul\n        /* \"#utility.yul\":13063:13083   */\n      swap1\n      pop\n        /* \"#utility.yul\":12741:13089   */\n      swap3\n      swap2\n      pop\n      pop\n      jump\t// out\n        /* \"#utility.yul\":13095:13286   */\n    tag_228:\n        /* \"#utility.yul\":13135:13139   */\n      0x00\n        /* \"#utility.yul\":13155:13175   */\n      tag_439\n        /* \"#utility.yul\":13173:13174   */\n      dup3\n        /* \"#utility.yul\":13155:13175   */\n      tag_387\n      jump\t// in\n    tag_439:\n        /* \"#utility.yul\":13150:13175   */\n      swap2\n      pop\n        /* \"#utility.yul\":13189:13209   */\n      tag_440\n        /* \"#utility.yul\":13207:13208   */\n      dup4\n        /* \"#utility.yul\":13189:13209   */\n      tag_387\n      jump\t// in\n    tag_440:\n        /* \"#utility.yul\":13184:13209   */\n      swap3\n      pop\n        /* \"#utility.yul\":13228:13229   */\n      dup3\n        /* \"#utility.yul\":13225:13226   */\n      dup3\n        /* \"#utility.yul\":13222:13230   */\n      lt\n        /* \"#utility.yul\":13219:13253   */\n      iszero\n      tag_441\n      jumpi\n        /* \"#utility.yul\":13233:13251   */\n      tag_442\n      tag_427\n      jump\t// in\n    tag_442:\n        /* \"#utility.yul\":13219:13253   */\n    tag_441:\n        /* \"#utility.yul\":13278:13279   */\n      dup3\n        /* \"#utility.yul\":13275:13276   */\n      dup3\n        /* \"#utility.yul\":13271:13280   */\n      sub\n        /* \"#utility.yul\":13263:13280   */\n      swap1\n      pop\n        /* \"#utility.yul\":13095:13286   */\n      swap3\n      swap2\n      pop\n      pop\n      jump\t// out\n        /* \"#utility.yul\":13292:13388   */\n    tag_343:\n        /* \"#utility.yul\":13329:13336   */\n      0x00\n        /* \"#utility.yul\":13358:13382   */\n      tag_444\n        /* \"#utility.yul\":13376:13381   */\n      dup3\n        /* \"#utility.yul\":13358:13382   */\n      tag_445\n      jump\t// in\n    tag_444:\n        /* \"#utility.yul\":13347:13382   */\n      swap1\n      pop\n        /* \"#utility.yul\":13292:13388   */\n      swap2\n      swap1\n      pop\n      jump\t// out\n        /* \"#utility.yul\":13394:13484   */\n    tag_347:\n        /* \"#utility.yul\":13428:13435   */\n      0x00\n        /* \"#utility.yul\":13471:13476   */\n      dup2\n        /* \"#utility.yul\":13464:13477   */\n      iszero\n        /* \"#utility.yul\":13457:13478   */\n      iszero\n        /* \"#utility.yul\":13446:13478   */\n      swap1\n      pop\n        /* \"#utility.yul\":13394:13484   */\n      swap2\n      swap1\n      pop\n      jump\t// out\n        /* \"#utility.yul\":13490:13616   */\n    tag_445:\n        /* \"#utility.yul\":13527:13534   */\n      0x00\n        /* \"#utility.yul\":13567:13609   */\n      0xffffffffffffffffffffffffffffffffffffffff\n        /* \"#utility.yul\":13560:13565   */\n      dup3\n        /* \"#utility.yul\":13556:13610   */\n      and\n        /* \"#utility.yul\":13545:13610   */\n      swap1\n      pop\n        /* \"#utility.yul\":13490:13616   */\n      swap2\n      swap1\n      pop\n      jump\t// out\n        /* \"#utility.yul\":13622:13699   */\n    tag_387:\n        /* \"#utility.yul\":13659:13666   */\n      0x00\n        /* \"#utility.yul\":13688:13693   */\n      dup2\n        /* \"#utility.yul\":13677:13693   */\n      swap1\n      pop\n        /* \"#utility.yul\":13622:13699   */\n      swap2\n      swap1\n      pop\n      jump\t// out\n        /* \"#utility.yul\":13705:13885   */\n    tag_427:\n        /* \"#utility.yul\":13753:13830   */\n      0x4e487b7100000000000000000000000000000000000000000000000000000000\n        /* \"#utility.yul\":13750:13751   */\n      0x00\n        /* \"#utility.yul\":13743:13831   */\n      mstore\n        /* \"#utility.yul\":13850:13854   */\n      0x11\n        /* \"#utility.yul\":13847:13848   */\n      0x04\n        /* \"#utility.yul\":13840:13855   */\n      mstore\n        /* \"#utility.yul\":13874:13878   */\n      0x24\n        /* \"#utility.yul\":13871:13872   */\n      0x00\n        /* \"#utility.yul\":13864:13879   */\n      revert\n        /* \"#utility.yul\":13891:14071   */\n    tag_243:\n        /* \"#utility.yul\":13939:14016   */\n      0x4e487b7100000000000000000000000000000000000000000000000000000000\n        /* \"#utility.yul\":13936:13937   */\n      0x00\n        /* \"#utility.yul\":13929:14017   */\n      mstore\n        /* \"#utility.yul\":14036:14040   */\n      0x12\n        /* \"#utility.yul\":14033:14034   */\n      0x04\n        /* \"#utility.yul\":14026:14041   */\n      mstore\n        /* \"#utility.yul\":14060:14064   */\n      0x24\n        /* \"#utility.yul\":14057:14058   */\n      0x00\n        /* \"#utility.yul\":14050:14065   */\n      revert\n        /* \"#utility.yul\":14200:14317   */\n    tag_306:\n        /* \"#utility.yul\":14309:14310   */\n      0x00\n        /* \"#utility.yul\":14306:14307   */\n      dup1\n        /* \"#utility.yul\":14299:14311   */\n      revert\n        /* \"#utility.yul\":14323:14545   */\n    tag_353:\n        /* \"#utility.yul\":14463:14497   */\n      0x504f4f4c3a20496e73756666696369656e74206c6971756964697479206d696e\n        /* \"#utility.yul\":14459:14460   */\n      0x00\n        /* \"#utility.yul\":14451:14457   */\n      dup3\n        /* \"#utility.yul\":14447:14461   */\n      add\n        /* \"#utility.yul\":14440:14498   */\n      mstore\n        /* \"#utility.yul\":14532:14537   */\n      0x7465640000000000000000000000000000000000000000000000000000000000\n        /* \"#utility.yul\":14527:14529   */\n      0x20\n        /* \"#utility.yul\":14519:14525   */\n      dup3\n        /* \"#utility.yul\":14515:14530   */\n      add\n        /* \"#utility.yul\":14508:14538   */\n      mstore\n        /* \"#utility.yul\":14323:14545   */\n      pop\n      jump\t// out\n        /* \"#utility.yul\":14551:14723   */\n    tag_358:\n        /* \"#utility.yul\":14691:14715   */\n      0x464143544f52593a204163636573732064656e69656400000000000000000000\n        /* \"#utility.yul\":14687:14688   */\n      0x00\n        /* \"#utility.yul\":14679:14685   */\n      dup3\n        /* \"#utility.yul\":14675:14689   */\n      add\n        /* \"#utility.yul\":14668:14716   */\n      mstore\n        /* \"#utility.yul\":14551:14723   */\n      pop\n      jump\t// out\n        /* \"#utility.yul\":14729:14898   */\n    tag_363:\n        /* \"#utility.yul\":14869:14890   */\n      0x504f4f4c3a204163636573732064656e69656400000000000000000000000000\n        /* \"#utility.yul\":14865:14866   */\n      0x00\n        /* \"#utility.yul\":14857:14863   */\n      dup3\n        /* \"#utility.yul\":14853:14867   */\n      add\n        /* \"#utility.yul\":14846:14891   */\n      mstore\n        /* \"#utility.yul\":14729:14898   */\n      pop\n      jump\t// out\n        /* \"#utility.yul\":14904:15086   */\n    tag_368:\n        /* \"#utility.yul\":15044:15078   */\n      0x4552524f523a20696e73756666696369656e7420696e70757420616d6f756e74\n        /* \"#utility.yul\":15040:15041   */\n      0x00\n        /* \"#utility.yul\":15032:15038   */\n      dup3\n        /* \"#utility.yul\":15028:15042   */\n      add\n        /* \"#utility.yul\":15021:15079   */\n      mstore\n        /* \"#utility.yul\":14904:15086   */\n      pop\n      jump\t// out\n        /* \"#utility.yul\":15092:15314   */\n    tag_373:\n        /* \"#utility.yul\":15232:15266   */\n      0x504f4f4c3a20496e73756666696369656e74206c697175696469747920627572\n        /* \"#utility.yul\":15228:15229   */\n      0x00\n        /* \"#utility.yul\":15220:15226   */\n      dup3\n        /* \"#utility.yul\":15216:15230   */\n      add\n        /* \"#utility.yul\":15209:15267   */\n      mstore\n        /* \"#utility.yul\":15301:15306   */\n      0x6e65640000000000000000000000000000000000000000000000000000000000\n        /* \"#utility.yul\":15296:15298   */\n      0x20\n        /* \"#utility.yul\":15288:15294   */\n      dup3\n        /* \"#utility.yul\":15284:15299   */\n      add\n        /* \"#utility.yul\":15277:15307   */\n      mstore\n        /* \"#utility.yul\":15092:15314   */\n      pop\n      jump\t// out\n        /* \"#utility.yul\":15320:15484   */\n    tag_378:\n        /* \"#utility.yul\":15460:15476   */\n      0x504f4f4c3a204f766572666c6f77000000000000000000000000000000000000\n        /* \"#utility.yul\":15456:15457   */\n      0x00\n        /* \"#utility.yul\":15448:15454   */\n      dup3\n        /* \"#utility.yul\":15444:15458   */\n      add\n        /* \"#utility.yul\":15437:15477   */\n      mstore\n        /* \"#utility.yul\":15320:15484   */\n      pop\n      jump\t// out\n        /* \"#utility.yul\":15490:15672   */\n    tag_383:\n        /* \"#utility.yul\":15630:15664   */\n      0x4552524f523a20496e737566666963656e74206f757470757420616d6f756e74\n        /* \"#utility.yul\":15626:15627   */\n      0x00\n        /* \"#utility.yul\":15618:15624   */\n      dup3\n        /* \"#utility.yul\":15614:15628   */\n      add\n        /* \"#utility.yul\":15607:15665   */\n      mstore\n        /* \"#utility.yul\":15490:15672   */\n      pop\n      jump\t// out\n        /* \"#utility.yul\":15678:15800   */\n    tag_291:\n        /* \"#utility.yul\":15751:15775   */\n      tag_462\n        /* \"#utility.yul\":15769:15774   */\n      dup2\n        /* \"#utility.yul\":15751:15775   */\n      tag_343\n      jump\t// in\n    tag_462:\n        /* \"#utility.yul\":15744:15749   */\n      dup2\n        /* \"#utility.yul\":15741:15776   */\n      eq\n        /* \"#utility.yul\":15731:15794   */\n      tag_463\n      jumpi\n        /* \"#utility.yul\":15790:15791   */\n      0x00\n        /* \"#utility.yul\":15787:15788   */\n      dup1\n        /* \"#utility.yul\":15780:15792   */\n      revert\n        /* \"#utility.yul\":15731:15794   */\n    tag_463:\n        /* \"#utility.yul\":15678:15800   */\n      pop\n      jump\t// out\n        /* \"#utility.yul\":15806:15922   */\n    tag_295:\n        /* \"#utility.yul\":15876:15897   */\n      tag_465\n        /* \"#utility.yul\":15891:15896   */\n      dup2\n        /* \"#utility.yul\":15876:15897   */\n      tag_347\n      jump\t// in\n    tag_465:\n        /* \"#utility.yul\":15869:15874   */\n      dup2\n        /* \"#utility.yul\":15866:15898   */\n      eq\n        /* \"#utility.yul\":15856:15916   */\n      tag_466\n      jumpi\n        /* \"#utility.yul\":15912:15913   */\n      0x00\n        /* \"#utility.yul\":15909:15910   */\n      dup1\n        /* \"#utility.yul\":15902:15914   */\n      revert\n        /* \"#utility.yul\":15856:15916   */\n    tag_466:\n        /* \"#utility.yul\":15806:15922   */\n      pop\n      jump\t// out\n        /* \"#utility.yul\":15928:16050   */\n    tag_299:\n        /* \"#utility.yul\":16001:16025   */\n      tag_468\n        /* \"#utility.yul\":16019:16024   */\n      dup2\n        /* \"#utility.yul\":16001:16025   */\n      tag_387\n      jump\t// in\n    tag_468:\n        /* \"#utility.yul\":15994:15999   */\n      dup2\n        /* \"#utility.yul\":15991:16026   */\n      eq\n        /* \"#utility.yul\":15981:16044   */\n      tag_469\n      jumpi\n        /* \"#utility.yul\":16040:16041   */\n      0x00\n        /* \"#utility.yul\":16037:16038   */\n      dup1\n        /* \"#utility.yul\":16030:16042   */\n      revert\n        /* \"#utility.yul\":15981:16044   */\n    tag_469:\n        /* \"#utility.yul\":15928:16050   */\n      pop\n      jump\t// out\n\n    auxdata: 0xa2646970667358221220fee28eb909f3aeeae673cf14df5075f80987c4ab804e68be4fc66b08a7fd297864736f6c63430008070033\n}\n",
				"bytecode": {
					"linkReferences": {},
					"object": "60e06040523480156200001157600080fd5b506040516200268c3803806200268c833981810160405281019062000037919062000180565b84600360006101000a81548173ffffffffffffffffffffffffffffffffffffffff021916908373ffffffffffffffffffffffffffffffffffffffff1602179055508373ffffffffffffffffffffffffffffffffffffffff1660808173ffffffffffffffffffffffffffffffffffffffff1660601b8152505082600460006101000a81548173ffffffffffffffffffffffffffffffffffffffff021916908373ffffffffffffffffffffffffffffffffffffffff1602179055508173ffffffffffffffffffffffffffffffffffffffff1660a08173ffffffffffffffffffffffffffffffffffffffff1660601b815250508073ffffffffffffffffffffffffffffffffffffffff1660c08173ffffffffffffffffffffffffffffffffffffffff1660601b8152505050505050506200025b565b6000815190506200017a8162000241565b92915050565b600080600080600060a086880312156200019f576200019e6200023c565b5b6000620001af8882890162000169565b9550506020620001c28882890162000169565b9450506040620001d58882890162000169565b9350506060620001e88882890162000169565b9250506080620001fb8882890162000169565b9150509295509295909350565b600062000215826200021c565b9050919050565b600073ffffffffffffffffffffffffffffffffffffffff82169050919050565b600080fd5b6200024c8162000208565b81146200025857600080fd5b50565b60805160601c60a05160601c60c05160601c6123c7620002c56000396000818161046101528181610c6001528181610ea801526111d10152600081816103b60152818161053801528181610bb201528181610f85015261111901526000610e8401526123c76000f3fe608060405234801561001057600080fd5b50600436106101155760003560e01c806389afcb44116100a2578063d21220a711610071578063d21220a71461030b578063d5bcb9b514610329578063dd62ed3e14610345578063f851a44014610375578063f887ea401461039357610115565b806389afcb4414610270578063a9059cbb146102a1578063c0d78655146102d1578063c45a0155146102ed57610115565b806318160ddd116100e957806318160ddd146101a657806323b872dd146101c45780636a627842146101f4578063704b6c021461022457806370a082311461024057610115565b8062113e081461011a5780630902f1ac14610139578063095ea7b3146101585780630dfe168114610188575b600080fd5b6101226103b1565b604051610130929190611fa2565b60405180910390f35b61014161050e565b60405161014f929190611fa2565b60405180910390f35b610172600480360381019061016d9190611c8c565b61051f565b60405161017f9190611e8c565b60405180910390f35b610190610536565b60405161019d9190611e48565b60405180910390f35b6101ae61055a565b6040516101bb9190611f87565b60405180910390f35b6101de60048036038101906101d99190611bbe565b610560565b6040516101eb9190611e8c565b60405180910390f35b61020e60048036038101906102099190611b51565b61072b565b60405161021b9190611f87565b60405180910390f35b61023e60048036038101906102399190611b51565b610932565b005b61025a60048036038101906102559190611b51565b610a06565b6040516102679190611f87565b60405180910390f35b61028a60048036038101906102859190611b51565b610a1e565b604051610298929190611fa2565b60405180910390f35b6102bb60048036038101906102b69190611c8c565b610d97565b6040516102c89190611e8c565b60405180910390f35b6102eb60048036038101906102e69190611b51565b610dae565b005b6102f5610e82565b6040516103029190611e48565b60405180910390f35b610313610ea6565b6040516103209190611e48565b60405180910390f35b610343600480360381019061033e9190611c11565b610eca565b005b61035f600480360381019061035a9190611b7e565b611302565b60405161036c9190611f87565b60405180910390f35b61037d611327565b60405161038a9190611e48565b60405180910390f35b61039b61134d565b6040516103a89190611e48565b60405180910390f35b6000807f000000000000000000000000000000000000000000000000000000000000000073ffffffffffffffffffffffffffffffffffffffff166370a08231306040518263ffffffff1660e01b815260040161040d9190611e48565b60206040518083038186803b15801561042557600080fd5b505afa158015610439573d6000803e3d6000fd5b505050506040513d601f19601f8201168201806040525081019061045d9190611cf9565b91507f000000000000000000000000000000000000000000000000000000000000000073ffffffffffffffffffffffffffffffffffffffff166370a08231306040518263ffffffff1660e01b81526004016104b89190611e48565b60206040518083038186803b1580156104d057600080fd5b505afa1580156104e4573d6000803e3d6000fd5b505050506040513d601f19601f820116820180604052508101906105089190611cf9565b90509091565b600080600554915060065490509091565b600061052c338484611373565b6001905092915050565b7f000000000000000000000000000000000000000000000000000000000000000081565b60005481565b60007fffffffffffffffffffffffffffffffffffffffffffffffffffffffffffffffff600260008673ffffffffffffffffffffffffffffffffffffffff1673ffffffffffffffffffffffffffffffffffffffff16815260200190815260200160002060003373ffffffffffffffffffffffffffffffffffffffff1673ffffffffffffffffffffffffffffffffffffffff16815260200190815260200160002054146107155761069482600260008773ffffffffffffffffffffffffffffffffffffffff1673ffffffffffffffffffffffffffffffffffffffff16815260200190815260200160002060003373ffffffffffffffffffffffffffffffffffffffff1673ffffffffffffffffffffffffffffffffffffffff1681526020019081526020016000205461145e90919063ffffffff16565b600260008673ffffffffffffffffffffffffffffffffffffffff1673ffffffffffffffffffffffffffffffffffffffff16815260200190815260200160002060003373ffffffffffffffffffffffffffffffffffffffff1673ffffffffffffffffffffffffffffffffffffffff168152602001908152602001600020819055505b610720848484611474565b600190509392505050565b6000600460009054906101000a900473ffffffffffffffffffffffffffffffffffffffff1673ffffffffffffffffffffffffffffffffffffffff163373ffffffffffffffffffffffffffffffffffffffff16146107bd576040517f08c379a00000000000000000000000000000000000000000000000000000000081526004016107b490611ee7565b60405180910390fd5b6000806107c86103b1565b915091506000806107d761050e565b9150915060006107f0838661145e90919063ffffffff16565b90506000610807838661145e90919063ffffffff16565b90506000805414156108355761082e610829828461160890919063ffffffff16565b61161e565b9650610880565b61087d8461084e6000548561160890919063ffffffff16565b6108589190612077565b8461086e6000548561160890919063ffffffff16565b6108789190612077565b611718565b96505b600087116108c3576040517f08c379a00000000000000000000000000000000000000000000000000000000081526004016108ba90611ea7565b60405180910390fd5b6108cd8888611731565b6108d7868661184b565b3373ffffffffffffffffffffffffffffffffffffffff167f4c209b5fc8ad50758f13e2e1088ba56a560dff690a1c6fef26394f4c03821c4f838360405161091f929190611fa2565b60405180910390a2505050505050919050565b600360009054906101000a900473ffffffffffffffffffffffffffffffffffffffff1673ffffffffffffffffffffffffffffffffffffffff163373ffffffffffffffffffffffffffffffffffffffff16146109c2576040517f08c379a00000000000000000000000000000000000000000000000000000000081526004016109b990611ec7565b60405180910390fd5b80600360006101000a81548173ffffffffffffffffffffffffffffffffffffffff021916908373ffffffffffffffffffffffffffffffffffffffff16021790555050565b60016020528060005260406000206000915090505481565b600080600460009054906101000a900473ffffffffffffffffffffffffffffffffffffffff1673ffffffffffffffffffffffffffffffffffffffff163373ffffffffffffffffffffffffffffffffffffffff1614610ab1576040517f08c379a0000000000000000000000000000000000000000000000000000000008152600401610aa890611ee7565b60405180910390fd5b600080610abc6103b1565b91509150600080610acb61050e565b915091506000600160003073ffffffffffffffffffffffffffffffffffffffff1673ffffffffffffffffffffffffffffffffffffffff168152602001908152602001600020549050600054610b29868361160890919063ffffffff16565b610b339190612077565b9650600054610b4b858361160890919063ffffffff16565b610b559190612077565b9550600087118015610b675750600086115b610ba6576040517f08c379a0000000000000000000000000000000000000000000000000000000008152600401610b9d90611f27565b60405180910390fd5b610bb030826118ec565b7f000000000000000000000000000000000000000000000000000000000000000073ffffffffffffffffffffffffffffffffffffffff1663a9059cbb89896040518363ffffffff1660e01b8152600401610c0b929190611e63565b602060405180830381600087803b158015610c2557600080fd5b505af1158015610c39573d6000803e3d6000fd5b505050506040513d601f19601f82011682018060405250810190610c5d9190611ccc565b507f000000000000000000000000000000000000000000000000000000000000000073ffffffffffffffffffffffffffffffffffffffff1663a9059cbb89886040518363ffffffff1660e01b8152600401610cb9929190611e63565b602060405180830381600087803b158015610cd357600080fd5b505af1158015610ce7573d6000803e3d6000fd5b505050506040513d601f19601f82011682018060405250810190610d0b9190611ccc565b50610d146103b1565b8095508196505050610d26858561184b565b8773ffffffffffffffffffffffffffffffffffffffff163373ffffffffffffffffffffffffffffffffffffffff167fdccd412f0b1252819cb1fd330b93224ca42612892bb3f4f789976e6d819364968989604051610d85929190611fa2565b60405180910390a35050505050915091565b6000610da4338484611474565b6001905092915050565b600360009054906101000a900473ffffffffffffffffffffffffffffffffffffffff1673ffffffffffffffffffffffffffffffffffffffff163373ffffffffffffffffffffffffffffffffffffffff1614610e3e576040517f08c379a0000000000000000000000000000000000000000000000000000000008152600401610e3590611ec7565b60405180910390fd5b80600460006101000a81548173ffffffffffffffffffffffffffffffffffffffff021916908373ffffffffffffffffffffffffffffffffffffffff16021790555050565b7f000000000000000000000000000000000000000000000000000000000000000081565b7f000000000000000000000000000000000000000000000000000000000000000081565b600460009054906101000a900473ffffffffffffffffffffffffffffffffffffffff1673ffffffffffffffffffffffffffffffffffffffff163373ffffffffffffffffffffffffffffffffffffffff1614610f5a576040517f08c379a0000000000000000000000000000000000000000000000000000000008152600401610f5190611ee7565b60405180910390fd5b600080610f6561050e565b915091506000808773ffffffffffffffffffffffffffffffffffffffff167f000000000000000000000000000000000000000000000000000000000000000073ffffffffffffffffffffffffffffffffffffffff1614610fc757600086610fcb565b8560005b915091506000821180610fde5750600081115b61101d576040517f08c379a000000000000000000000000000000000000000000000000000000000815260040161101490611f67565b60405180910390fd5b6000806110286103b1565b915091506000611041858861145e90919063ffffffff16565b831161104e576000611074565b611073611064868961145e90919063ffffffff16565b8461145e90919063ffffffff16565b5b9050600061108b858861145e90919063ffffffff16565b83116110985760006110be565b6110bd6110ae868961145e90919063ffffffff16565b8461145e90919063ffffffff16565b5b905060008211806110cf5750600081115b61110e576040517f08c379a000000000000000000000000000000000000000000000000000000000815260040161110590611f07565b60405180910390fd5b60008611156111c6577f000000000000000000000000000000000000000000000000000000000000000073ffffffffffffffffffffffffffffffffffffffff1663a9059cbb8a886040518363ffffffff1660e01b8152600401611172929190611e63565b602060405180830381600087803b15801561118c57600080fd5b505af11580156111a0573d6000803e3d6000fd5b505050506040513d601f19601f820116820180604052508101906111c49190611ccc565b505b600085111561127e577f000000000000000000000000000000000000000000000000000000000000000073ffffffffffffffffffffffffffffffffffffffff1663a9059cbb8a876040518363ffffffff1660e01b815260040161122a929190611e63565b602060405180830381600087803b15801561124457600080fd5b505af1158015611258573d6000803e3d6000fd5b505050506040513d601f19601f8201168201806040525081019061127c9190611ccc565b505b611288848461184b565b8873ffffffffffffffffffffffffffffffffffffffff163373ffffffffffffffffffffffffffffffffffffffff167fd78ad95fa46c994b6551d0da85fc275fe613ce37657fb8d5e3d130840159d82284848a8a6040516112eb9493929190611fcb565b60405180910390a350505050505050505050505050565b6002602052816000526040600020602052806000526040600020600091509150505481565b600360009054906101000a900473ffffffffffffffffffffffffffffffffffffffff1681565b600460009054906101000a900473ffffffffffffffffffffffffffffffffffffffff1681565b80600260008573ffffffffffffffffffffffffffffffffffffffff1673ffffffffffffffffffffffffffffffffffffffff16815260200190815260200160002060008473ffffffffffffffffffffffffffffffffffffffff1673ffffffffffffffffffffffffffffffffffffffff168152602001908152602001600020819055508173ffffffffffffffffffffffffffffffffffffffff168373ffffffffffffffffffffffffffffffffffffffff167f8c5be1e5ebec7d5bd14f71427d1e84f3dd0314c0f7b2291e5b200ac8c7c3b925836040516114519190611f87565b60405180910390a3505050565b6000818361146c9190612102565b905092915050565b6114c681600160008673ffffffffffffffffffffffffffffffffffffffff1673ffffffffffffffffffffffffffffffffffffffff1681526020019081526020016000205461145e90919063ffffffff16565b600160008573ffffffffffffffffffffffffffffffffffffffff1673ffffffffffffffffffffffffffffffffffffffff1681526020019081526020016000208190555061155b81600160008573ffffffffffffffffffffffffffffffffffffffff1673ffffffffffffffffffffffffffffffffffffffff16815260200190815260200160002054611a0690919063ffffffff16565b600160008473ffffffffffffffffffffffffffffffffffffffff1673ffffffffffffffffffffffffffffffffffffffff168152602001908152602001600020819055508173ffffffffffffffffffffffffffffffffffffffff168373ffffffffffffffffffffffffffffffffffffffff167fddf252ad1be2c89b69c2b068fc378daa952ba7f163c4a11628f55a4df523b3ef836040516115fb9190611f87565b60405180910390a3505050565b6000818361161691906120a8565b905092915050565b6000808214156116315760009050611713565b6000600161163e84611a1c565b901c6001901b90506001818481611658576116576121ad565b5b048201901c90506001818481611671576116706121ad565b5b048201901c9050600181848161168a576116896121ad565b5b048201901c905060018184816116a3576116a26121ad565b5b048201901c905060018184816116bc576116bb6121ad565b5b048201901c905060018184816116d5576116d46121ad565b5b048201901c905060018184816116ee576116ed6121ad565b5b048201901c905061170f81828581611709576117086121ad565b5b04611718565b9150505b919050565b60008183106117275781611729565b825b905092915050565b61174681600054611a0690919063ffffffff16565b60008190555061179e81600160008573ffffffffffffffffffffffffffffffffffffffff1673ffffffffffffffffffffffffffffffffffffffff16815260200190815260200160002054611a0690919063ffffffff16565b600160008473ffffffffffffffffffffffffffffffffffffffff1673ffffffffffffffffffffffffffffffffffffffff168152602001908152602001600020819055508173ffffffffffffffffffffffffffffffffffffffff16600073ffffffffffffffffffffffffffffffffffffffff167fddf252ad1be2c89b69c2b068fc378daa952ba7f163c4a11628f55a4df523b3ef8360405161183f9190611f87565b60405180910390a35050565b7fffffffffffffffffffffffffffffffffffffffffffffffffffffffffffffffff821115801561189b57507fffffffffffffffffffffffffffffffffffffffffffffffffffffffffffffffff8111155b6118da576040517f08c379a00000000000000000000000000000000000000000000000000000000081526004016118d190611f47565b60405180910390fd5b81600581905550806006819055505050565b61193e81600160008573ffffffffffffffffffffffffffffffffffffffff1673ffffffffffffffffffffffffffffffffffffffff1681526020019081526020016000205461145e90919063ffffffff16565b600160008473ffffffffffffffffffffffffffffffffffffffff1673ffffffffffffffffffffffffffffffffffffffff168152602001908152602001600020819055506119968160005461145e90919063ffffffff16565b600081905550600073ffffffffffffffffffffffffffffffffffffffff168273ffffffffffffffffffffffffffffffffffffffff167fddf252ad1be2c89b69c2b068fc378daa952ba7f163c4a11628f55a4df523b3ef836040516119fa9190611f87565b60405180910390a35050565b60008183611a149190612021565b905092915050565b600080600090506000608084901c1115611a3e57608083901c92506080810190505b6000604084901c1115611a5957604083901c92506040810190505b6000602084901c1115611a7457602083901c92506020810190505b6000601084901c1115611a8f57601083901c92506010810190505b6000600884901c1115611aaa57600883901c92506008810190505b6000600484901c1115611ac557600483901c92506004810190505b6000600284901c1115611ae057600283901c92506002810190505b6000600184901c1115611af4576001810190505b80915050919050565b600081359050611b0c8161234c565b92915050565b600081519050611b2181612363565b92915050565b600081359050611b368161237a565b92915050565b600081519050611b4b8161237a565b92915050565b600060208284031215611b6757611b666121dc565b5b6000611b7584828501611afd565b91505092915050565b60008060408385031215611b9557611b946121dc565b5b6000611ba385828601611afd565b9250506020611bb485828601611afd565b9150509250929050565b600080600060608486031215611bd757611bd66121dc565b5b6000611be586828701611afd565b9350506020611bf686828701611afd565b9250506040611c0786828701611b27565b9150509250925092565b600080600080600060a08688031215611c2d57611c2c6121dc565b5b6000611c3b88828901611afd565b9550506020611c4c88828901611afd565b9450506040611c5d88828901611b27565b9350506060611c6e88828901611b27565b9250506080611c7f88828901611afd565b9150509295509295909350565b60008060408385031215611ca357611ca26121dc565b5b6000611cb185828601611afd565b9250506020611cc285828601611b27565b9150509250929050565b600060208284031215611ce257611ce16121dc565b5b6000611cf084828501611b12565b91505092915050565b600060208284031215611d0f57611d0e6121dc565b5b6000611d1d84828501611b3c565b91505092915050565b611d2f81612136565b82525050565b611d3e81612148565b82525050565b6000611d51602383612010565b9150611d5c826121e1565b604082019050919050565b6000611d74601683612010565b9150611d7f82612230565b602082019050919050565b6000611d97601383612010565b9150611da282612259565b602082019050919050565b6000611dba602083612010565b9150611dc582612282565b602082019050919050565b6000611ddd602383612010565b9150611de8826122ab565b604082019050919050565b6000611e00600e83612010565b9150611e0b826122fa565b602082019050919050565b6000611e23602083612010565b9150611e2e82612323565b602082019050919050565b611e4281612174565b82525050565b6000602082019050611e5d6000830184611d26565b92915050565b6000604082019050611e786000830185611d26565b611e856020830184611e39565b9392505050565b6000602082019050611ea16000830184611d35565b92915050565b60006020820190508181036000830152611ec081611d44565b9050919050565b60006020820190508181036000830152611ee081611d67565b9050919050565b60006020820190508181036000830152611f0081611d8a565b9050919050565b60006020820190508181036000830152611f2081611dad565b9050919050565b60006020820190508181036000830152611f4081611dd0565b9050919050565b60006020820190508181036000830152611f6081611df3565b9050919050565b60006020820190508181036000830152611f8081611e16565b9050919050565b6000602082019050611f9c6000830184611e39565b92915050565b6000604082019050611fb76000830185611e39565b611fc46020830184611e39565b9392505050565b6000608082019050611fe06000830187611e39565b611fed6020830186611e39565b611ffa6040830185611e39565b6120076060830184611e39565b95945050505050565b600082825260208201905092915050565b600061202c82612174565b915061203783612174565b9250827fffffffffffffffffffffffffffffffffffffffffffffffffffffffffffffffff0382111561206c5761206b61217e565b5b828201905092915050565b600061208282612174565b915061208d83612174565b92508261209d5761209c6121ad565b5b828204905092915050565b60006120b382612174565b91506120be83612174565b9250817fffffffffffffffffffffffffffffffffffffffffffffffffffffffffffffffff04831182151516156120f7576120f661217e565b5b828202905092915050565b600061210d82612174565b915061211883612174565b92508282101561212b5761212a61217e565b5b828203905092915050565b600061214182612154565b9050919050565b60008115159050919050565b600073ffffffffffffffffffffffffffffffffffffffff82169050919050565b6000819050919050565b7f4e487b7100000000000000000000000000000000000000000000000000000000600052601160045260246000fd5b7f4e487b7100000000000000000000000000000000000000000000000000000000600052601260045260246000fd5b600080fd5b7f504f4f4c3a20496e73756666696369656e74206c6971756964697479206d696e60008201527f7465640000000000000000000000000000000000000000000000000000000000602082015250565b7f464143544f52593a204163636573732064656e69656400000000000000000000600082015250565b7f504f4f4c3a204163636573732064656e69656400000000000000000000000000600082015250565b7f4552524f523a20696e73756666696369656e7420696e70757420616d6f756e74600082015250565b7f504f4f4c3a20496e73756666696369656e74206c69717569646974792062757260008201527f6e65640000000000000000000000000000000000000000000000000000000000602082015250565b7f504f4f4c3a204f766572666c6f77000000000000000000000000000000000000600082015250565b7f4552524f523a20496e737566666963656e74206f757470757420616d6f756e74600082015250565b61235581612136565b811461236057600080fd5b50565b61236c81612148565b811461237757600080fd5b50565b61238381612174565b811461238e57600080fd5b5056fea2646970667358221220fee28eb909f3aeeae673cf14df5075f80987c4ab804e68be4fc66b08a7fd297864736f6c63430008070033",
					"opcodes": "PUSH1 0xE0 PUSH1 0x40 MSTORE CALLVALUE DUP1 ISZERO PUSH3 0x11 JUMPI PUSH1 0x0 DUP1 REVERT JUMPDEST POP PUSH1 0x40 MLOAD PUSH3 0x268C CODESIZE SUB DUP1 PUSH3 0x268C DUP4 CODECOPY DUP2 DUP2 ADD PUSH1 0x40 MSTORE DUP2 ADD SWAP1 PUSH3 0x37 SWAP2 SWAP1 PUSH3 0x180 JUMP JUMPDEST DUP5 PUSH1 0x3 PUSH1 0x0 PUSH2 0x100 EXP DUP2 SLOAD DUP2 PUSH20 0xFFFFFFFFFFFFFFFFFFFFFFFFFFFFFFFFFFFFFFFF MUL NOT AND SWAP1 DUP4 PUSH20 0xFFFFFFFFFFFFFFFFFFFFFFFFFFFFFFFFFFFFFFFF AND MUL OR SWAP1 SSTORE POP DUP4 PUSH20 0xFFFFFFFFFFFFFFFFFFFFFFFFFFFFFFFFFFFFFFFF AND PUSH1 0x80 DUP2 PUSH20 0xFFFFFFFFFFFFFFFFFFFFFFFFFFFFFFFFFFFFFFFF AND PUSH1 0x60 SHL DUP2 MSTORE POP POP DUP3 PUSH1 0x4 PUSH1 0x0 PUSH2 0x100 EXP DUP2 SLOAD DUP2 PUSH20 0xFFFFFFFFFFFFFFFFFFFFFFFFFFFFFFFFFFFFFFFF MUL NOT AND SWAP1 DUP4 PUSH20 0xFFFFFFFFFFFFFFFFFFFFFFFFFFFFFFFFFFFFFFFF AND MUL OR SWAP1 SSTORE POP DUP2 PUSH20 0xFFFFFFFFFFFFFFFFFFFFFFFFFFFFFFFFFFFFFFFF AND PUSH1 0xA0 DUP2 PUSH20 0xFFFFFFFFFFFFFFFFFFFFFFFFFFFFFFFFFFFFFFFF AND PUSH1 0x60 SHL DUP2 MSTORE POP POP DUP1 PUSH20 0xFFFFFFFFFFFFFFFFFFFFFFFFFFFFFFFFFFFFFFFF AND PUSH1 0xC0 DUP2 PUSH20 0xFFFFFFFFFFFFFFFFFFFFFFFFFFFFFFFFFFFFFFFF AND PUSH1 0x60 SHL DUP2 MSTORE POP POP POP POP POP POP POP PUSH3 0x25B JUMP JUMPDEST PUSH1 0x0 DUP2 MLOAD SWAP1 POP PUSH3 0x17A DUP2 PUSH3 0x241 JUMP JUMPDEST SWAP3 SWAP2 POP POP JUMP JUMPDEST PUSH1 0x0 DUP1 PUSH1 0x0 DUP1 PUSH1 0x0 PUSH1 0xA0 DUP7 DUP9 SUB SLT ISZERO PUSH3 0x19F JUMPI PUSH3 0x19E PUSH3 0x23C JUMP JUMPDEST JUMPDEST PUSH1 0x0 PUSH3 0x1AF DUP9 DUP3 DUP10 ADD PUSH3 0x169 JUMP JUMPDEST SWAP6 POP POP PUSH1 0x20 PUSH3 0x1C2 DUP9 DUP3 DUP10 ADD PUSH3 0x169 JUMP JUMPDEST SWAP5 POP POP PUSH1 0x40 PUSH3 0x1D5 DUP9 DUP3 DUP10 ADD PUSH3 0x169 JUMP JUMPDEST SWAP4 POP POP PUSH1 0x60 PUSH3 0x1E8 DUP9 DUP3 DUP10 ADD PUSH3 0x169 JUMP JUMPDEST SWAP3 POP POP PUSH1 0x80 PUSH3 0x1FB DUP9 DUP3 DUP10 ADD PUSH3 0x169 JUMP JUMPDEST SWAP2 POP POP SWAP3 SWAP6 POP SWAP3 SWAP6 SWAP1 SWAP4 POP JUMP JUMPDEST PUSH1 0x0 PUSH3 0x215 DUP3 PUSH3 0x21C JUMP JUMPDEST SWAP1 POP SWAP2 SWAP1 POP JUMP JUMPDEST PUSH1 0x0 PUSH20 0xFFFFFFFFFFFFFFFFFFFFFFFFFFFFFFFFFFFFFFFF DUP3 AND SWAP1 POP SWAP2 SWAP1 POP JUMP JUMPDEST PUSH1 0x0 DUP1 REVERT JUMPDEST PUSH3 0x24C DUP2 PUSH3 0x208 JUMP JUMPDEST DUP2 EQ PUSH3 0x258 JUMPI PUSH1 0x0 DUP1 REVERT JUMPDEST POP JUMP JUMPDEST PUSH1 0x80 MLOAD PUSH1 0x60 SHR PUSH1 0xA0 MLOAD PUSH1 0x60 SHR PUSH1 0xC0 MLOAD PUSH1 0x60 SHR PUSH2 0x23C7 PUSH3 0x2C5 PUSH1 0x0 CODECOPY PUSH1 0x0 DUP2 DUP2 PUSH2 0x461 ADD MSTORE DUP2 DUP2 PUSH2 0xC60 ADD MSTORE DUP2 DUP2 PUSH2 0xEA8 ADD MSTORE PUSH2 0x11D1 ADD MSTORE PUSH1 0x0 DUP2 DUP2 PUSH2 0x3B6 ADD MSTORE DUP2 DUP2 PUSH2 0x538 ADD MSTORE DUP2 DUP2 PUSH2 0xBB2 ADD MSTORE DUP2 DUP2 PUSH2 0xF85 ADD MSTORE PUSH2 0x1119 ADD MSTORE PUSH1 0x0 PUSH2 0xE84 ADD MSTORE PUSH2 0x23C7 PUSH1 0x0 RETURN INVALID PUSH1 0x80 PUSH1 0x40 MSTORE CALLVALUE DUP1 ISZERO PUSH2 0x10 JUMPI PUSH1 0x0 DUP1 REVERT JUMPDEST POP PUSH1 0x4 CALLDATASIZE LT PUSH2 0x115 JUMPI PUSH1 0x0 CALLDATALOAD PUSH1 0xE0 SHR DUP1 PUSH4 0x89AFCB44 GT PUSH2 0xA2 JUMPI DUP1 PUSH4 0xD21220A7 GT PUSH2 0x71 JUMPI DUP1 PUSH4 0xD21220A7 EQ PUSH2 0x30B JUMPI DUP1 PUSH4 0xD5BCB9B5 EQ PUSH2 0x329 JUMPI DUP1 PUSH4 0xDD62ED3E EQ PUSH2 0x345 JUMPI DUP1 PUSH4 0xF851A440 EQ PUSH2 0x375 JUMPI DUP1 PUSH4 0xF887EA40 EQ PUSH2 0x393 JUMPI PUSH2 0x115 JUMP JUMPDEST DUP1 PUSH4 0x89AFCB44 EQ PUSH2 0x270 JUMPI DUP1 PUSH4 0xA9059CBB EQ PUSH2 0x2A1 JUMPI DUP1 PUSH4 0xC0D78655 EQ PUSH2 0x2D1 JUMPI DUP1 PUSH4 0xC45A0155 EQ PUSH2 0x2ED JUMPI PUSH2 0x115 JUMP JUMPDEST DUP1 PUSH4 0x18160DDD GT PUSH2 0xE9 JUMPI DUP1 PUSH4 0x18160DDD EQ PUSH2 0x1A6 JUMPI DUP1 PUSH4 0x23B872DD EQ PUSH2 0x1C4 JUMPI DUP1 PUSH4 0x6A627842 EQ PUSH2 0x1F4 JUMPI DUP1 PUSH4 0x704B6C02 EQ PUSH2 0x224 JUMPI DUP1 PUSH4 0x70A08231 EQ PUSH2 0x240 JUMPI PUSH2 0x115 JUMP JUMPDEST DUP1 PUSH3 0x113E08 EQ PUSH2 0x11A JUMPI DUP1 PUSH4 0x902F1AC EQ PUSH2 0x139 JUMPI DUP1 PUSH4 0x95EA7B3 EQ PUSH2 0x158 JUMPI DUP1 PUSH4 0xDFE1681 EQ PUSH2 0x188 JUMPI JUMPDEST PUSH1 0x0 DUP1 REVERT JUMPDEST PUSH2 0x122 PUSH2 0x3B1 JUMP JUMPDEST PUSH1 0x40 MLOAD PUSH2 0x130 SWAP3 SWAP2 SWAP1 PUSH2 0x1FA2 JUMP JUMPDEST PUSH1 0x40 MLOAD DUP1 SWAP2 SUB SWAP1 RETURN JUMPDEST PUSH2 0x141 PUSH2 0x50E JUMP JUMPDEST PUSH1 0x40 MLOAD PUSH2 0x14F SWAP3 SWAP2 SWAP1 PUSH2 0x1FA2 JUMP JUMPDEST PUSH1 0x40 MLOAD DUP1 SWAP2 SUB SWAP1 RETURN JUMPDEST PUSH2 0x172 PUSH1 0x4 DUP1 CALLDATASIZE SUB DUP2 ADD SWAP1 PUSH2 0x16D SWAP2 SWAP1 PUSH2 0x1C8C JUMP JUMPDEST PUSH2 0x51F JUMP JUMPDEST PUSH1 0x40 MLOAD PUSH2 0x17F SWAP2 SWAP1 PUSH2 0x1E8C JUMP JUMPDEST PUSH1 0x40 MLOAD DUP1 SWAP2 SUB SWAP1 RETURN JUMPDEST PUSH2 0x190 PUSH2 0x536 JUMP JUMPDEST PUSH1 0x40 MLOAD PUSH2 0x19D SWAP2 SWAP1 PUSH2 0x1E48 JUMP JUMPDEST PUSH1 0x40 MLOAD DUP1 SWAP2 SUB SWAP1 RETURN JUMPDEST PUSH2 0x1AE PUSH2 0x55A JUMP JUMPDEST PUSH1 0x40 MLOAD PUSH2 0x1BB SWAP2 SWAP1 PUSH2 0x1F87 JUMP JUMPDEST PUSH1 0x40 MLOAD DUP1 SWAP2 SUB SWAP1 RETURN JUMPDEST PUSH2 0x1DE PUSH1 0x4 DUP1 CALLDATASIZE SUB DUP2 ADD SWAP1 PUSH2 0x1D9 SWAP2 SWAP1 PUSH2 0x1BBE JUMP JUMPDEST PUSH2 0x560 JUMP JUMPDEST PUSH1 0x40 MLOAD PUSH2 0x1EB SWAP2 SWAP1 PUSH2 0x1E8C JUMP JUMPDEST PUSH1 0x40 MLOAD DUP1 SWAP2 SUB SWAP1 RETURN JUMPDEST PUSH2 0x20E PUSH1 0x4 DUP1 CALLDATASIZE SUB DUP2 ADD SWAP1 PUSH2 0x209 SWAP2 SWAP1 PUSH2 0x1B51 JUMP JUMPDEST PUSH2 0x72B JUMP JUMPDEST PUSH1 0x40 MLOAD PUSH2 0x21B SWAP2 SWAP1 PUSH2 0x1F87 JUMP JUMPDEST PUSH1 0x40 MLOAD DUP1 SWAP2 SUB SWAP1 RETURN JUMPDEST PUSH2 0x23E PUSH1 0x4 DUP1 CALLDATASIZE SUB DUP2 ADD SWAP1 PUSH2 0x239 SWAP2 SWAP1 PUSH2 0x1B51 JUMP JUMPDEST PUSH2 0x932 JUMP JUMPDEST STOP JUMPDEST PUSH2 0x25A PUSH1 0x4 DUP1 CALLDATASIZE SUB DUP2 ADD SWAP1 PUSH2 0x255 SWAP2 SWAP1 PUSH2 0x1B51 JUMP JUMPDEST PUSH2 0xA06 JUMP JUMPDEST PUSH1 0x40 MLOAD PUSH2 0x267 SWAP2 SWAP1 PUSH2 0x1F87 JUMP JUMPDEST PUSH1 0x40 MLOAD DUP1 SWAP2 SUB SWAP1 RETURN JUMPDEST PUSH2 0x28A PUSH1 0x4 DUP1 CALLDATASIZE SUB DUP2 ADD SWAP1 PUSH2 0x285 SWAP2 SWAP1 PUSH2 0x1B51 JUMP JUMPDEST PUSH2 0xA1E JUMP JUMPDEST PUSH1 0x40 MLOAD PUSH2 0x298 SWAP3 SWAP2 SWAP1 PUSH2 0x1FA2 JUMP JUMPDEST PUSH1 0x40 MLOAD DUP1 SWAP2 SUB SWAP1 RETURN JUMPDEST PUSH2 0x2BB PUSH1 0x4 DUP1 CALLDATASIZE SUB DUP2 ADD SWAP1 PUSH2 0x2B6 SWAP2 SWAP1 PUSH2 0x1C8C JUMP JUMPDEST PUSH2 0xD97 JUMP JUMPDEST PUSH1 0x40 MLOAD PUSH2 0x2C8 SWAP2 SWAP1 PUSH2 0x1E8C JUMP JUMPDEST PUSH1 0x40 MLOAD DUP1 SWAP2 SUB SWAP1 RETURN JUMPDEST PUSH2 0x2EB PUSH1 0x4 DUP1 CALLDATASIZE SUB DUP2 ADD SWAP1 PUSH2 0x2E6 SWAP2 SWAP1 PUSH2 0x1B51 JUMP JUMPDEST PUSH2 0xDAE JUMP JUMPDEST STOP JUMPDEST PUSH2 0x2F5 PUSH2 0xE82 JUMP JUMPDEST PUSH1 0x40 MLOAD PUSH2 0x302 SWAP2 SWAP1 PUSH2 0x1E48 JUMP JUMPDEST PUSH1 0x40 MLOAD DUP1 SWAP2 SUB SWAP1 RETURN JUMPDEST PUSH2 0x313 PUSH2 0xEA6 JUMP JUMPDEST PUSH1 0x40 MLOAD PUSH2 0x320 SWAP2 SWAP1 PUSH2 0x1E48 JUMP JUMPDEST PUSH1 0x40 MLOAD DUP1 SWAP2 SUB SWAP1 RETURN JUMPDEST PUSH2 0x343 PUSH1 0x4 DUP1 CALLDATASIZE SUB DUP2 ADD SWAP1 PUSH2 0x33E SWAP2 SWAP1 PUSH2 0x1C11 JUMP JUMPDEST PUSH2 0xECA JUMP JUMPDEST STOP JUMPDEST PUSH2 0x35F PUSH1 0x4 DUP1 CALLDATASIZE SUB DUP2 ADD SWAP1 PUSH2 0x35A SWAP2 SWAP1 PUSH2 0x1B7E JUMP JUMPDEST PUSH2 0x1302 JUMP JUMPDEST PUSH1 0x40 MLOAD PUSH2 0x36C SWAP2 SWAP1 PUSH2 0x1F87 JUMP JUMPDEST PUSH1 0x40 MLOAD DUP1 SWAP2 SUB SWAP1 RETURN JUMPDEST PUSH2 0x37D PUSH2 0x1327 JUMP JUMPDEST PUSH1 0x40 MLOAD PUSH2 0x38A SWAP2 SWAP1 PUSH2 0x1E48 JUMP JUMPDEST PUSH1 0x40 MLOAD DUP1 SWAP2 SUB SWAP1 RETURN JUMPDEST PUSH2 0x39B PUSH2 0x134D JUMP JUMPDEST PUSH1 0x40 MLOAD PUSH2 0x3A8 SWAP2 SWAP1 PUSH2 0x1E48 JUMP JUMPDEST PUSH1 0x40 MLOAD DUP1 SWAP2 SUB SWAP1 RETURN JUMPDEST PUSH1 0x0 DUP1 PUSH32 0x0 PUSH20 0xFFFFFFFFFFFFFFFFFFFFFFFFFFFFFFFFFFFFFFFF AND PUSH4 0x70A08231 ADDRESS PUSH1 0x40 MLOAD DUP3 PUSH4 0xFFFFFFFF AND PUSH1 0xE0 SHL DUP2 MSTORE PUSH1 0x4 ADD PUSH2 0x40D SWAP2 SWAP1 PUSH2 0x1E48 JUMP JUMPDEST PUSH1 0x20 PUSH1 0x40 MLOAD DUP1 DUP4 SUB DUP2 DUP7 DUP1 EXTCODESIZE ISZERO DUP1 ISZERO PUSH2 0x425 JUMPI PUSH1 0x0 DUP1 REVERT JUMPDEST POP GAS STATICCALL ISZERO DUP1 ISZERO PUSH2 0x439 JUMPI RETURNDATASIZE PUSH1 0x0 DUP1 RETURNDATACOPY RETURNDATASIZE PUSH1 0x0 REVERT JUMPDEST POP POP POP POP PUSH1 0x40 MLOAD RETURNDATASIZE PUSH1 0x1F NOT PUSH1 0x1F DUP3 ADD AND DUP3 ADD DUP1 PUSH1 0x40 MSTORE POP DUP2 ADD SWAP1 PUSH2 0x45D SWAP2 SWAP1 PUSH2 0x1CF9 JUMP JUMPDEST SWAP2 POP PUSH32 0x0 PUSH20 0xFFFFFFFFFFFFFFFFFFFFFFFFFFFFFFFFFFFFFFFF AND PUSH4 0x70A08231 ADDRESS PUSH1 0x40 MLOAD DUP3 PUSH4 0xFFFFFFFF AND PUSH1 0xE0 SHL DUP2 MSTORE PUSH1 0x4 ADD PUSH2 0x4B8 SWAP2 SWAP1 PUSH2 0x1E48 JUMP JUMPDEST PUSH1 0x20 PUSH1 0x40 MLOAD DUP1 DUP4 SUB DUP2 DUP7 DUP1 EXTCODESIZE ISZERO DUP1 ISZERO PUSH2 0x4D0 JUMPI PUSH1 0x0 DUP1 REVERT JUMPDEST POP GAS STATICCALL ISZERO DUP1 ISZERO PUSH2 0x4E4 JUMPI RETURNDATASIZE PUSH1 0x0 DUP1 RETURNDATACOPY RETURNDATASIZE PUSH1 0x0 REVERT JUMPDEST POP POP POP POP PUSH1 0x40 MLOAD RETURNDATASIZE PUSH1 0x1F NOT PUSH1 0x1F DUP3 ADD AND DUP3 ADD DUP1 PUSH1 0x40 MSTORE POP DUP2 ADD SWAP1 PUSH2 0x508 SWAP2 SWAP1 PUSH2 0x1CF9 JUMP JUMPDEST SWAP1 POP SWAP1 SWAP2 JUMP JUMPDEST PUSH1 0x0 DUP1 PUSH1 0x5 SLOAD SWAP2 POP PUSH1 0x6 SLOAD SWAP1 POP SWAP1 SWAP2 JUMP JUMPDEST PUSH1 0x0 PUSH2 0x52C CALLER DUP5 DUP5 PUSH2 0x1373 JUMP JUMPDEST PUSH1 0x1 SWAP1 POP SWAP3 SWAP2 POP POP JUMP JUMPDEST PUSH32 0x0 DUP2 JUMP JUMPDEST PUSH1 0x0 SLOAD DUP2 JUMP JUMPDEST PUSH1 0x0 PUSH32 0xFFFFFFFFFFFFFFFFFFFFFFFFFFFFFFFFFFFFFFFFFFFFFFFFFFFFFFFFFFFFFFFF PUSH1 0x2 PUSH1 0x0 DUP7 PUSH20 0xFFFFFFFFFFFFFFFFFFFFFFFFFFFFFFFFFFFFFFFF AND PUSH20 0xFFFFFFFFFFFFFFFFFFFFFFFFFFFFFFFFFFFFFFFF AND DUP2 MSTORE PUSH1 0x20 ADD SWAP1 DUP2 MSTORE PUSH1 0x20 ADD PUSH1 0x0 KECCAK256 PUSH1 0x0 CALLER PUSH20 0xFFFFFFFFFFFFFFFFFFFFFFFFFFFFFFFFFFFFFFFF AND PUSH20 0xFFFFFFFFFFFFFFFFFFFFFFFFFFFFFFFFFFFFFFFF AND DUP2 MSTORE PUSH1 0x20 ADD SWAP1 DUP2 MSTORE PUSH1 0x20 ADD PUSH1 0x0 KECCAK256 SLOAD EQ PUSH2 0x715 JUMPI PUSH2 0x694 DUP3 PUSH1 0x2 PUSH1 0x0 DUP8 PUSH20 0xFFFFFFFFFFFFFFFFFFFFFFFFFFFFFFFFFFFFFFFF AND PUSH20 0xFFFFFFFFFFFFFFFFFFFFFFFFFFFFFFFFFFFFFFFF AND DUP2 MSTORE PUSH1 0x20 ADD SWAP1 DUP2 MSTORE PUSH1 0x20 ADD PUSH1 0x0 KECCAK256 PUSH1 0x0 CALLER PUSH20 0xFFFFFFFFFFFFFFFFFFFFFFFFFFFFFFFFFFFFFFFF AND PUSH20 0xFFFFFFFFFFFFFFFFFFFFFFFFFFFFFFFFFFFFFFFF AND DUP2 MSTORE PUSH1 0x20 ADD SWAP1 DUP2 MSTORE PUSH1 0x20 ADD PUSH1 0x0 KECCAK256 SLOAD PUSH2 0x145E SWAP1 SWAP2 SWAP1 PUSH4 0xFFFFFFFF AND JUMP JUMPDEST PUSH1 0x2 PUSH1 0x0 DUP7 PUSH20 0xFFFFFFFFFFFFFFFFFFFFFFFFFFFFFFFFFFFFFFFF AND PUSH20 0xFFFFFFFFFFFFFFFFFFFFFFFFFFFFFFFFFFFFFFFF AND DUP2 MSTORE PUSH1 0x20 ADD SWAP1 DUP2 MSTORE PUSH1 0x20 ADD PUSH1 0x0 KECCAK256 PUSH1 0x0 CALLER PUSH20 0xFFFFFFFFFFFFFFFFFFFFFFFFFFFFFFFFFFFFFFFF AND PUSH20 0xFFFFFFFFFFFFFFFFFFFFFFFFFFFFFFFFFFFFFFFF AND DUP2 MSTORE PUSH1 0x20 ADD SWAP1 DUP2 MSTORE PUSH1 0x20 ADD PUSH1 0x0 KECCAK256 DUP2 SWAP1 SSTORE POP JUMPDEST PUSH2 0x720 DUP5 DUP5 DUP5 PUSH2 0x1474 JUMP JUMPDEST PUSH1 0x1 SWAP1 POP SWAP4 SWAP3 POP POP POP JUMP JUMPDEST PUSH1 0x0 PUSH1 0x4 PUSH1 0x0 SWAP1 SLOAD SWAP1 PUSH2 0x100 EXP SWAP1 DIV PUSH20 0xFFFFFFFFFFFFFFFFFFFFFFFFFFFFFFFFFFFFFFFF AND PUSH20 0xFFFFFFFFFFFFFFFFFFFFFFFFFFFFFFFFFFFFFFFF AND CALLER PUSH20 0xFFFFFFFFFFFFFFFFFFFFFFFFFFFFFFFFFFFFFFFF AND EQ PUSH2 0x7BD JUMPI PUSH1 0x40 MLOAD PUSH32 0x8C379A000000000000000000000000000000000000000000000000000000000 DUP2 MSTORE PUSH1 0x4 ADD PUSH2 0x7B4 SWAP1 PUSH2 0x1EE7 JUMP JUMPDEST PUSH1 0x40 MLOAD DUP1 SWAP2 SUB SWAP1 REVERT JUMPDEST PUSH1 0x0 DUP1 PUSH2 0x7C8 PUSH2 0x3B1 JUMP JUMPDEST SWAP2 POP SWAP2 POP PUSH1 0x0 DUP1 PUSH2 0x7D7 PUSH2 0x50E JUMP JUMPDEST SWAP2 POP SWAP2 POP PUSH1 0x0 PUSH2 0x7F0 DUP4 DUP7 PUSH2 0x145E SWAP1 SWAP2 SWAP1 PUSH4 0xFFFFFFFF AND JUMP JUMPDEST SWAP1 POP PUSH1 0x0 PUSH2 0x807 DUP4 DUP7 PUSH2 0x145E SWAP1 SWAP2 SWAP1 PUSH4 0xFFFFFFFF AND JUMP JUMPDEST SWAP1 POP PUSH1 0x0 DUP1 SLOAD EQ ISZERO PUSH2 0x835 JUMPI PUSH2 0x82E PUSH2 0x829 DUP3 DUP5 PUSH2 0x1608 SWAP1 SWAP2 SWAP1 PUSH4 0xFFFFFFFF AND JUMP JUMPDEST PUSH2 0x161E JUMP JUMPDEST SWAP7 POP PUSH2 0x880 JUMP JUMPDEST PUSH2 0x87D DUP5 PUSH2 0x84E PUSH1 0x0 SLOAD DUP6 PUSH2 0x1608 SWAP1 SWAP2 SWAP1 PUSH4 0xFFFFFFFF AND JUMP JUMPDEST PUSH2 0x858 SWAP2 SWAP1 PUSH2 0x2077 JUMP JUMPDEST DUP5 PUSH2 0x86E PUSH1 0x0 SLOAD DUP6 PUSH2 0x1608 SWAP1 SWAP2 SWAP1 PUSH4 0xFFFFFFFF AND JUMP JUMPDEST PUSH2 0x878 SWAP2 SWAP1 PUSH2 0x2077 JUMP JUMPDEST PUSH2 0x1718 JUMP JUMPDEST SWAP7 POP JUMPDEST PUSH1 0x0 DUP8 GT PUSH2 0x8C3 JUMPI PUSH1 0x40 MLOAD PUSH32 0x8C379A000000000000000000000000000000000000000000000000000000000 DUP2 MSTORE PUSH1 0x4 ADD PUSH2 0x8BA SWAP1 PUSH2 0x1EA7 JUMP JUMPDEST PUSH1 0x40 MLOAD DUP1 SWAP2 SUB SWAP1 REVERT JUMPDEST PUSH2 0x8CD DUP9 DUP9 PUSH2 0x1731 JUMP JUMPDEST PUSH2 0x8D7 DUP7 DUP7 PUSH2 0x184B JUMP JUMPDEST CALLER PUSH20 0xFFFFFFFFFFFFFFFFFFFFFFFFFFFFFFFFFFFFFFFF AND PUSH32 0x4C209B5FC8AD50758F13E2E1088BA56A560DFF690A1C6FEF26394F4C03821C4F DUP4 DUP4 PUSH1 0x40 MLOAD PUSH2 0x91F SWAP3 SWAP2 SWAP1 PUSH2 0x1FA2 JUMP JUMPDEST PUSH1 0x40 MLOAD DUP1 SWAP2 SUB SWAP1 LOG2 POP POP POP POP POP POP SWAP2 SWAP1 POP JUMP JUMPDEST PUSH1 0x3 PUSH1 0x0 SWAP1 SLOAD SWAP1 PUSH2 0x100 EXP SWAP1 DIV PUSH20 0xFFFFFFFFFFFFFFFFFFFFFFFFFFFFFFFFFFFFFFFF AND PUSH20 0xFFFFFFFFFFFFFFFFFFFFFFFFFFFFFFFFFFFFFFFF AND CALLER PUSH20 0xFFFFFFFFFFFFFFFFFFFFFFFFFFFFFFFFFFFFFFFF AND EQ PUSH2 0x9C2 JUMPI PUSH1 0x40 MLOAD PUSH32 0x8C379A000000000000000000000000000000000000000000000000000000000 DUP2 MSTORE PUSH1 0x4 ADD PUSH2 0x9B9 SWAP1 PUSH2 0x1EC7 JUMP JUMPDEST PUSH1 0x40 MLOAD DUP1 SWAP2 SUB SWAP1 REVERT JUMPDEST DUP1 PUSH1 0x3 PUSH1 0x0 PUSH2 0x100 EXP DUP2 SLOAD DUP2 PUSH20 0xFFFFFFFFFFFFFFFFFFFFFFFFFFFFFFFFFFFFFFFF MUL NOT AND SWAP1 DUP4 PUSH20 0xFFFFFFFFFFFFFFFFFFFFFFFFFFFFFFFFFFFFFFFF AND MUL OR SWAP1 SSTORE POP POP JUMP JUMPDEST PUSH1 0x1 PUSH1 0x20 MSTORE DUP1 PUSH1 0x0 MSTORE PUSH1 0x40 PUSH1 0x0 KECCAK256 PUSH1 0x0 SWAP2 POP SWAP1 POP SLOAD DUP2 JUMP JUMPDEST PUSH1 0x0 DUP1 PUSH1 0x4 PUSH1 0x0 SWAP1 SLOAD SWAP1 PUSH2 0x100 EXP SWAP1 DIV PUSH20 0xFFFFFFFFFFFFFFFFFFFFFFFFFFFFFFFFFFFFFFFF AND PUSH20 0xFFFFFFFFFFFFFFFFFFFFFFFFFFFFFFFFFFFFFFFF AND CALLER PUSH20 0xFFFFFFFFFFFFFFFFFFFFFFFFFFFFFFFFFFFFFFFF AND EQ PUSH2 0xAB1 JUMPI PUSH1 0x40 MLOAD PUSH32 0x8C379A000000000000000000000000000000000000000000000000000000000 DUP2 MSTORE PUSH1 0x4 ADD PUSH2 0xAA8 SWAP1 PUSH2 0x1EE7 JUMP JUMPDEST PUSH1 0x40 MLOAD DUP1 SWAP2 SUB SWAP1 REVERT JUMPDEST PUSH1 0x0 DUP1 PUSH2 0xABC PUSH2 0x3B1 JUMP JUMPDEST SWAP2 POP SWAP2 POP PUSH1 0x0 DUP1 PUSH2 0xACB PUSH2 0x50E JUMP JUMPDEST SWAP2 POP SWAP2 POP PUSH1 0x0 PUSH1 0x1 PUSH1 0x0 ADDRESS PUSH20 0xFFFFFFFFFFFFFFFFFFFFFFFFFFFFFFFFFFFFFFFF AND PUSH20 0xFFFFFFFFFFFFFFFFFFFFFFFFFFFFFFFFFFFFFFFF AND DUP2 MSTORE PUSH1 0x20 ADD SWAP1 DUP2 MSTORE PUSH1 0x20 ADD PUSH1 0x0 KECCAK256 SLOAD SWAP1 POP PUSH1 0x0 SLOAD PUSH2 0xB29 DUP7 DUP4 PUSH2 0x1608 SWAP1 SWAP2 SWAP1 PUSH4 0xFFFFFFFF AND JUMP JUMPDEST PUSH2 0xB33 SWAP2 SWAP1 PUSH2 0x2077 JUMP JUMPDEST SWAP7 POP PUSH1 0x0 SLOAD PUSH2 0xB4B DUP6 DUP4 PUSH2 0x1608 SWAP1 SWAP2 SWAP1 PUSH4 0xFFFFFFFF AND JUMP JUMPDEST PUSH2 0xB55 SWAP2 SWAP1 PUSH2 0x2077 JUMP JUMPDEST SWAP6 POP PUSH1 0x0 DUP8 GT DUP1 ISZERO PUSH2 0xB67 JUMPI POP PUSH1 0x0 DUP7 GT JUMPDEST PUSH2 0xBA6 JUMPI PUSH1 0x40 MLOAD PUSH32 0x8C379A000000000000000000000000000000000000000000000000000000000 DUP2 MSTORE PUSH1 0x4 ADD PUSH2 0xB9D SWAP1 PUSH2 0x1F27 JUMP JUMPDEST PUSH1 0x40 MLOAD DUP1 SWAP2 SUB SWAP1 REVERT JUMPDEST PUSH2 0xBB0 ADDRESS DUP3 PUSH2 0x18EC JUMP JUMPDEST PUSH32 0x0 PUSH20 0xFFFFFFFFFFFFFFFFFFFFFFFFFFFFFFFFFFFFFFFF AND PUSH4 0xA9059CBB DUP10 DUP10 PUSH1 0x40 MLOAD DUP4 PUSH4 0xFFFFFFFF AND PUSH1 0xE0 SHL DUP2 MSTORE PUSH1 0x4 ADD PUSH2 0xC0B SWAP3 SWAP2 SWAP1 PUSH2 0x1E63 JUMP JUMPDEST PUSH1 0x20 PUSH1 0x40 MLOAD DUP1 DUP4 SUB DUP2 PUSH1 0x0 DUP8 DUP1 EXTCODESIZE ISZERO DUP1 ISZERO PUSH2 0xC25 JUMPI PUSH1 0x0 DUP1 REVERT JUMPDEST POP GAS CALL ISZERO DUP1 ISZERO PUSH2 0xC39 JUMPI RETURNDATASIZE PUSH1 0x0 DUP1 RETURNDATACOPY RETURNDATASIZE PUSH1 0x0 REVERT JUMPDEST POP POP POP POP PUSH1 0x40 MLOAD RETURNDATASIZE PUSH1 0x1F NOT PUSH1 0x1F DUP3 ADD AND DUP3 ADD DUP1 PUSH1 0x40 MSTORE POP DUP2 ADD SWAP1 PUSH2 0xC5D SWAP2 SWAP1 PUSH2 0x1CCC JUMP JUMPDEST POP PUSH32 0x0 PUSH20 0xFFFFFFFFFFFFFFFFFFFFFFFFFFFFFFFFFFFFFFFF AND PUSH4 0xA9059CBB DUP10 DUP9 PUSH1 0x40 MLOAD DUP4 PUSH4 0xFFFFFFFF AND PUSH1 0xE0 SHL DUP2 MSTORE PUSH1 0x4 ADD PUSH2 0xCB9 SWAP3 SWAP2 SWAP1 PUSH2 0x1E63 JUMP JUMPDEST PUSH1 0x20 PUSH1 0x40 MLOAD DUP1 DUP4 SUB DUP2 PUSH1 0x0 DUP8 DUP1 EXTCODESIZE ISZERO DUP1 ISZERO PUSH2 0xCD3 JUMPI PUSH1 0x0 DUP1 REVERT JUMPDEST POP GAS CALL ISZERO DUP1 ISZERO PUSH2 0xCE7 JUMPI RETURNDATASIZE PUSH1 0x0 DUP1 RETURNDATACOPY RETURNDATASIZE PUSH1 0x0 REVERT JUMPDEST POP POP POP POP PUSH1 0x40 MLOAD RETURNDATASIZE PUSH1 0x1F NOT PUSH1 0x1F DUP3 ADD AND DUP3 ADD DUP1 PUSH1 0x40 MSTORE POP DUP2 ADD SWAP1 PUSH2 0xD0B SWAP2 SWAP1 PUSH2 0x1CCC JUMP JUMPDEST POP PUSH2 0xD14 PUSH2 0x3B1 JUMP JUMPDEST DUP1 SWAP6 POP DUP2 SWAP7 POP POP POP PUSH2 0xD26 DUP6 DUP6 PUSH2 0x184B JUMP JUMPDEST DUP8 PUSH20 0xFFFFFFFFFFFFFFFFFFFFFFFFFFFFFFFFFFFFFFFF AND CALLER PUSH20 0xFFFFFFFFFFFFFFFFFFFFFFFFFFFFFFFFFFFFFFFF AND PUSH32 0xDCCD412F0B1252819CB1FD330B93224CA42612892BB3F4F789976E6D81936496 DUP10 DUP10 PUSH1 0x40 MLOAD PUSH2 0xD85 SWAP3 SWAP2 SWAP1 PUSH2 0x1FA2 JUMP JUMPDEST PUSH1 0x40 MLOAD DUP1 SWAP2 SUB SWAP1 LOG3 POP POP POP POP POP SWAP2 POP SWAP2 JUMP JUMPDEST PUSH1 0x0 PUSH2 0xDA4 CALLER DUP5 DUP5 PUSH2 0x1474 JUMP JUMPDEST PUSH1 0x1 SWAP1 POP SWAP3 SWAP2 POP POP JUMP JUMPDEST PUSH1 0x3 PUSH1 0x0 SWAP1 SLOAD SWAP1 PUSH2 0x100 EXP SWAP1 DIV PUSH20 0xFFFFFFFFFFFFFFFFFFFFFFFFFFFFFFFFFFFFFFFF AND PUSH20 0xFFFFFFFFFFFFFFFFFFFFFFFFFFFFFFFFFFFFFFFF AND CALLER PUSH20 0xFFFFFFFFFFFFFFFFFFFFFFFFFFFFFFFFFFFFFFFF AND EQ PUSH2 0xE3E JUMPI PUSH1 0x40 MLOAD PUSH32 0x8C379A000000000000000000000000000000000000000000000000000000000 DUP2 MSTORE PUSH1 0x4 ADD PUSH2 0xE35 SWAP1 PUSH2 0x1EC7 JUMP JUMPDEST PUSH1 0x40 MLOAD DUP1 SWAP2 SUB SWAP1 REVERT JUMPDEST DUP1 PUSH1 0x4 PUSH1 0x0 PUSH2 0x100 EXP DUP2 SLOAD DUP2 PUSH20 0xFFFFFFFFFFFFFFFFFFFFFFFFFFFFFFFFFFFFFFFF MUL NOT AND SWAP1 DUP4 PUSH20 0xFFFFFFFFFFFFFFFFFFFFFFFFFFFFFFFFFFFFFFFF AND MUL OR SWAP1 SSTORE POP POP JUMP JUMPDEST PUSH32 0x0 DUP2 JUMP JUMPDEST PUSH32 0x0 DUP2 JUMP JUMPDEST PUSH1 0x4 PUSH1 0x0 SWAP1 SLOAD SWAP1 PUSH2 0x100 EXP SWAP1 DIV PUSH20 0xFFFFFFFFFFFFFFFFFFFFFFFFFFFFFFFFFFFFFFFF AND PUSH20 0xFFFFFFFFFFFFFFFFFFFFFFFFFFFFFFFFFFFFFFFF AND CALLER PUSH20 0xFFFFFFFFFFFFFFFFFFFFFFFFFFFFFFFFFFFFFFFF AND EQ PUSH2 0xF5A JUMPI PUSH1 0x40 MLOAD PUSH32 0x8C379A000000000000000000000000000000000000000000000000000000000 DUP2 MSTORE PUSH1 0x4 ADD PUSH2 0xF51 SWAP1 PUSH2 0x1EE7 JUMP JUMPDEST PUSH1 0x40 MLOAD DUP1 SWAP2 SUB SWAP1 REVERT JUMPDEST PUSH1 0x0 DUP1 PUSH2 0xF65 PUSH2 0x50E JUMP JUMPDEST SWAP2 POP SWAP2 POP PUSH1 0x0 DUP1 DUP8 PUSH20 0xFFFFFFFFFFFFFFFFFFFFFFFFFFFFFFFFFFFFFFFF AND PUSH32 0x0 PUSH20 0xFFFFFFFFFFFFFFFFFFFFFFFFFFFFFFFFFFFFFFFF AND EQ PUSH2 0xFC7 JUMPI PUSH1 0x0 DUP7 PUSH2 0xFCB JUMP JUMPDEST DUP6 PUSH1 0x0 JUMPDEST SWAP2 POP SWAP2 POP PUSH1 0x0 DUP3 GT DUP1 PUSH2 0xFDE JUMPI POP PUSH1 0x0 DUP2 GT JUMPDEST PUSH2 0x101D JUMPI PUSH1 0x40 MLOAD PUSH32 0x8C379A000000000000000000000000000000000000000000000000000000000 DUP2 MSTORE PUSH1 0x4 ADD PUSH2 0x1014 SWAP1 PUSH2 0x1F67 JUMP JUMPDEST PUSH1 0x40 MLOAD DUP1 SWAP2 SUB SWAP1 REVERT JUMPDEST PUSH1 0x0 DUP1 PUSH2 0x1028 PUSH2 0x3B1 JUMP JUMPDEST SWAP2 POP SWAP2 POP PUSH1 0x0 PUSH2 0x1041 DUP6 DUP9 PUSH2 0x145E SWAP1 SWAP2 SWAP1 PUSH4 0xFFFFFFFF AND JUMP JUMPDEST DUP4 GT PUSH2 0x104E JUMPI PUSH1 0x0 PUSH2 0x1074 JUMP JUMPDEST PUSH2 0x1073 PUSH2 0x1064 DUP7 DUP10 PUSH2 0x145E SWAP1 SWAP2 SWAP1 PUSH4 0xFFFFFFFF AND JUMP JUMPDEST DUP5 PUSH2 0x145E SWAP1 SWAP2 SWAP1 PUSH4 0xFFFFFFFF AND JUMP JUMPDEST JUMPDEST SWAP1 POP PUSH1 0x0 PUSH2 0x108B DUP6 DUP9 PUSH2 0x145E SWAP1 SWAP2 SWAP1 PUSH4 0xFFFFFFFF AND JUMP JUMPDEST DUP4 GT PUSH2 0x1098 JUMPI PUSH1 0x0 PUSH2 0x10BE JUMP JUMPDEST PUSH2 0x10BD PUSH2 0x10AE DUP7 DUP10 PUSH2 0x145E SWAP1 SWAP2 SWAP1 PUSH4 0xFFFFFFFF AND JUMP JUMPDEST DUP5 PUSH2 0x145E SWAP1 SWAP2 SWAP1 PUSH4 0xFFFFFFFF AND JUMP JUMPDEST JUMPDEST SWAP1 POP PUSH1 0x0 DUP3 GT DUP1 PUSH2 0x10CF JUMPI POP PUSH1 0x0 DUP2 GT JUMPDEST PUSH2 0x110E JUMPI PUSH1 0x40 MLOAD PUSH32 0x8C379A000000000000000000000000000000000000000000000000000000000 DUP2 MSTORE PUSH1 0x4 ADD PUSH2 0x1105 SWAP1 PUSH2 0x1F07 JUMP JUMPDEST PUSH1 0x40 MLOAD DUP1 SWAP2 SUB SWAP1 REVERT JUMPDEST PUSH1 0x0 DUP7 GT ISZERO PUSH2 0x11C6 JUMPI PUSH32 0x0 PUSH20 0xFFFFFFFFFFFFFFFFFFFFFFFFFFFFFFFFFFFFFFFF AND PUSH4 0xA9059CBB DUP11 DUP9 PUSH1 0x40 MLOAD DUP4 PUSH4 0xFFFFFFFF AND PUSH1 0xE0 SHL DUP2 MSTORE PUSH1 0x4 ADD PUSH2 0x1172 SWAP3 SWAP2 SWAP1 PUSH2 0x1E63 JUMP JUMPDEST PUSH1 0x20 PUSH1 0x40 MLOAD DUP1 DUP4 SUB DUP2 PUSH1 0x0 DUP8 DUP1 EXTCODESIZE ISZERO DUP1 ISZERO PUSH2 0x118C JUMPI PUSH1 0x0 DUP1 REVERT JUMPDEST POP GAS CALL ISZERO DUP1 ISZERO PUSH2 0x11A0 JUMPI RETURNDATASIZE PUSH1 0x0 DUP1 RETURNDATACOPY RETURNDATASIZE PUSH1 0x0 REVERT JUMPDEST POP POP POP POP PUSH1 0x40 MLOAD RETURNDATASIZE PUSH1 0x1F NOT PUSH1 0x1F DUP3 ADD AND DUP3 ADD DUP1 PUSH1 0x40 MSTORE POP DUP2 ADD SWAP1 PUSH2 0x11C4 SWAP2 SWAP1 PUSH2 0x1CCC JUMP JUMPDEST POP JUMPDEST PUSH1 0x0 DUP6 GT ISZERO PUSH2 0x127E JUMPI PUSH32 0x0 PUSH20 0xFFFFFFFFFFFFFFFFFFFFFFFFFFFFFFFFFFFFFFFF AND PUSH4 0xA9059CBB DUP11 DUP8 PUSH1 0x40 MLOAD DUP4 PUSH4 0xFFFFFFFF AND PUSH1 0xE0 SHL DUP2 MSTORE PUSH1 0x4 ADD PUSH2 0x122A SWAP3 SWAP2 SWAP1 PUSH2 0x1E63 JUMP JUMPDEST PUSH1 0x20 PUSH1 0x40 MLOAD DUP1 DUP4 SUB DUP2 PUSH1 0x0 DUP8 DUP1 EXTCODESIZE ISZERO DUP1 ISZERO PUSH2 0x1244 JUMPI PUSH1 0x0 DUP1 REVERT JUMPDEST POP GAS CALL ISZERO DUP1 ISZERO PUSH2 0x1258 JUMPI RETURNDATASIZE PUSH1 0x0 DUP1 RETURNDATACOPY RETURNDATASIZE PUSH1 0x0 REVERT JUMPDEST POP POP POP POP PUSH1 0x40 MLOAD RETURNDATASIZE PUSH1 0x1F NOT PUSH1 0x1F DUP3 ADD AND DUP3 ADD DUP1 PUSH1 0x40 MSTORE POP DUP2 ADD SWAP1 PUSH2 0x127C SWAP2 SWAP1 PUSH2 0x1CCC JUMP JUMPDEST POP JUMPDEST PUSH2 0x1288 DUP5 DUP5 PUSH2 0x184B JUMP JUMPDEST DUP9 PUSH20 0xFFFFFFFFFFFFFFFFFFFFFFFFFFFFFFFFFFFFFFFF AND CALLER PUSH20 0xFFFFFFFFFFFFFFFFFFFFFFFFFFFFFFFFFFFFFFFF AND PUSH32 0xD78AD95FA46C994B6551D0DA85FC275FE613CE37657FB8D5E3D130840159D822 DUP5 DUP5 DUP11 DUP11 PUSH1 0x40 MLOAD PUSH2 0x12EB SWAP5 SWAP4 SWAP3 SWAP2 SWAP1 PUSH2 0x1FCB JUMP JUMPDEST PUSH1 0x40 MLOAD DUP1 SWAP2 SUB SWAP1 LOG3 POP POP POP POP POP POP POP POP POP POP POP POP POP JUMP JUMPDEST PUSH1 0x2 PUSH1 0x20 MSTORE DUP2 PUSH1 0x0 MSTORE PUSH1 0x40 PUSH1 0x0 KECCAK256 PUSH1 0x20 MSTORE DUP1 PUSH1 0x0 MSTORE PUSH1 0x40 PUSH1 0x0 KECCAK256 PUSH1 0x0 SWAP2 POP SWAP2 POP POP SLOAD DUP2 JUMP JUMPDEST PUSH1 0x3 PUSH1 0x0 SWAP1 SLOAD SWAP1 PUSH2 0x100 EXP SWAP1 DIV PUSH20 0xFFFFFFFFFFFFFFFFFFFFFFFFFFFFFFFFFFFFFFFF AND DUP2 JUMP JUMPDEST PUSH1 0x4 PUSH1 0x0 SWAP1 SLOAD SWAP1 PUSH2 0x100 EXP SWAP1 DIV PUSH20 0xFFFFFFFFFFFFFFFFFFFFFFFFFFFFFFFFFFFFFFFF AND DUP2 JUMP JUMPDEST DUP1 PUSH1 0x2 PUSH1 0x0 DUP6 PUSH20 0xFFFFFFFFFFFFFFFFFFFFFFFFFFFFFFFFFFFFFFFF AND PUSH20 0xFFFFFFFFFFFFFFFFFFFFFFFFFFFFFFFFFFFFFFFF AND DUP2 MSTORE PUSH1 0x20 ADD SWAP1 DUP2 MSTORE PUSH1 0x20 ADD PUSH1 0x0 KECCAK256 PUSH1 0x0 DUP5 PUSH20 0xFFFFFFFFFFFFFFFFFFFFFFFFFFFFFFFFFFFFFFFF AND PUSH20 0xFFFFFFFFFFFFFFFFFFFFFFFFFFFFFFFFFFFFFFFF AND DUP2 MSTORE PUSH1 0x20 ADD SWAP1 DUP2 MSTORE PUSH1 0x20 ADD PUSH1 0x0 KECCAK256 DUP2 SWAP1 SSTORE POP DUP2 PUSH20 0xFFFFFFFFFFFFFFFFFFFFFFFFFFFFFFFFFFFFFFFF AND DUP4 PUSH20 0xFFFFFFFFFFFFFFFFFFFFFFFFFFFFFFFFFFFFFFFF AND PUSH32 0x8C5BE1E5EBEC7D5BD14F71427D1E84F3DD0314C0F7B2291E5B200AC8C7C3B925 DUP4 PUSH1 0x40 MLOAD PUSH2 0x1451 SWAP2 SWAP1 PUSH2 0x1F87 JUMP JUMPDEST PUSH1 0x40 MLOAD DUP1 SWAP2 SUB SWAP1 LOG3 POP POP POP JUMP JUMPDEST PUSH1 0x0 DUP2 DUP4 PUSH2 0x146C SWAP2 SWAP1 PUSH2 0x2102 JUMP JUMPDEST SWAP1 POP SWAP3 SWAP2 POP POP JUMP JUMPDEST PUSH2 0x14C6 DUP2 PUSH1 0x1 PUSH1 0x0 DUP7 PUSH20 0xFFFFFFFFFFFFFFFFFFFFFFFFFFFFFFFFFFFFFFFF AND PUSH20 0xFFFFFFFFFFFFFFFFFFFFFFFFFFFFFFFFFFFFFFFF AND DUP2 MSTORE PUSH1 0x20 ADD SWAP1 DUP2 MSTORE PUSH1 0x20 ADD PUSH1 0x0 KECCAK256 SLOAD PUSH2 0x145E SWAP1 SWAP2 SWAP1 PUSH4 0xFFFFFFFF AND JUMP JUMPDEST PUSH1 0x1 PUSH1 0x0 DUP6 PUSH20 0xFFFFFFFFFFFFFFFFFFFFFFFFFFFFFFFFFFFFFFFF AND PUSH20 0xFFFFFFFFFFFFFFFFFFFFFFFFFFFFFFFFFFFFFFFF AND DUP2 MSTORE PUSH1 0x20 ADD SWAP1 DUP2 MSTORE PUSH1 0x20 ADD PUSH1 0x0 KECCAK256 DUP2 SWAP1 SSTORE POP PUSH2 0x155B DUP2 PUSH1 0x1 PUSH1 0x0 DUP6 PUSH20 0xFFFFFFFFFFFFFFFFFFFFFFFFFFFFFFFFFFFFFFFF AND PUSH20 0xFFFFFFFFFFFFFFFFFFFFFFFFFFFFFFFFFFFFFFFF AND DUP2 MSTORE PUSH1 0x20 ADD SWAP1 DUP2 MSTORE PUSH1 0x20 ADD PUSH1 0x0 KECCAK256 SLOAD PUSH2 0x1A06 SWAP1 SWAP2 SWAP1 PUSH4 0xFFFFFFFF AND JUMP JUMPDEST PUSH1 0x1 PUSH1 0x0 DUP5 PUSH20 0xFFFFFFFFFFFFFFFFFFFFFFFFFFFFFFFFFFFFFFFF AND PUSH20 0xFFFFFFFFFFFFFFFFFFFFFFFFFFFFFFFFFFFFFFFF AND DUP2 MSTORE PUSH1 0x20 ADD SWAP1 DUP2 MSTORE PUSH1 0x20 ADD PUSH1 0x0 KECCAK256 DUP2 SWAP1 SSTORE POP DUP2 PUSH20 0xFFFFFFFFFFFFFFFFFFFFFFFFFFFFFFFFFFFFFFFF AND DUP4 PUSH20 0xFFFFFFFFFFFFFFFFFFFFFFFFFFFFFFFFFFFFFFFF AND PUSH32 0xDDF252AD1BE2C89B69C2B068FC378DAA952BA7F163C4A11628F55A4DF523B3EF DUP4 PUSH1 0x40 MLOAD PUSH2 0x15FB SWAP2 SWAP1 PUSH2 0x1F87 JUMP JUMPDEST PUSH1 0x40 MLOAD DUP1 SWAP2 SUB SWAP1 LOG3 POP POP POP JUMP JUMPDEST PUSH1 0x0 DUP2 DUP4 PUSH2 0x1616 SWAP2 SWAP1 PUSH2 0x20A8 JUMP JUMPDEST SWAP1 POP SWAP3 SWAP2 POP POP JUMP JUMPDEST PUSH1 0x0 DUP1 DUP3 EQ ISZERO PUSH2 0x1631 JUMPI PUSH1 0x0 SWAP1 POP PUSH2 0x1713 JUMP JUMPDEST PUSH1 0x0 PUSH1 0x1 PUSH2 0x163E DUP5 PUSH2 0x1A1C JUMP JUMPDEST SWAP1 SHR PUSH1 0x1 SWAP1 SHL SWAP1 POP PUSH1 0x1 DUP2 DUP5 DUP2 PUSH2 0x1658 JUMPI PUSH2 0x1657 PUSH2 0x21AD JUMP JUMPDEST JUMPDEST DIV DUP3 ADD SWAP1 SHR SWAP1 POP PUSH1 0x1 DUP2 DUP5 DUP2 PUSH2 0x1671 JUMPI PUSH2 0x1670 PUSH2 0x21AD JUMP JUMPDEST JUMPDEST DIV DUP3 ADD SWAP1 SHR SWAP1 POP PUSH1 0x1 DUP2 DUP5 DUP2 PUSH2 0x168A JUMPI PUSH2 0x1689 PUSH2 0x21AD JUMP JUMPDEST JUMPDEST DIV DUP3 ADD SWAP1 SHR SWAP1 POP PUSH1 0x1 DUP2 DUP5 DUP2 PUSH2 0x16A3 JUMPI PUSH2 0x16A2 PUSH2 0x21AD JUMP JUMPDEST JUMPDEST DIV DUP3 ADD SWAP1 SHR SWAP1 POP PUSH1 0x1 DUP2 DUP5 DUP2 PUSH2 0x16BC JUMPI PUSH2 0x16BB PUSH2 0x21AD JUMP JUMPDEST JUMPDEST DIV DUP3 ADD SWAP1 SHR SWAP1 POP PUSH1 0x1 DUP2 DUP5 DUP2 PUSH2 0x16D5 JUMPI PUSH2 0x16D4 PUSH2 0x21AD JUMP JUMPDEST JUMPDEST DIV DUP3 ADD SWAP1 SHR SWAP1 POP PUSH1 0x1 DUP2 DUP5 DUP2 PUSH2 0x16EE JUMPI PUSH2 0x16ED PUSH2 0x21AD JUMP JUMPDEST JUMPDEST DIV DUP3 ADD SWAP1 SHR SWAP1 POP PUSH2 0x170F DUP2 DUP3 DUP6 DUP2 PUSH2 0x1709 JUMPI PUSH2 0x1708 PUSH2 0x21AD JUMP JUMPDEST JUMPDEST DIV PUSH2 0x1718 JUMP JUMPDEST SWAP2 POP POP JUMPDEST SWAP2 SWAP1 POP JUMP JUMPDEST PUSH1 0x0 DUP2 DUP4 LT PUSH2 0x1727 JUMPI DUP2 PUSH2 0x1729 JUMP JUMPDEST DUP3 JUMPDEST SWAP1 POP SWAP3 SWAP2 POP POP JUMP JUMPDEST PUSH2 0x1746 DUP2 PUSH1 0x0 SLOAD PUSH2 0x1A06 SWAP1 SWAP2 SWAP1 PUSH4 0xFFFFFFFF AND JUMP JUMPDEST PUSH1 0x0 DUP2 SWAP1 SSTORE POP PUSH2 0x179E DUP2 PUSH1 0x1 PUSH1 0x0 DUP6 PUSH20 0xFFFFFFFFFFFFFFFFFFFFFFFFFFFFFFFFFFFFFFFF AND PUSH20 0xFFFFFFFFFFFFFFFFFFFFFFFFFFFFFFFFFFFFFFFF AND DUP2 MSTORE PUSH1 0x20 ADD SWAP1 DUP2 MSTORE PUSH1 0x20 ADD PUSH1 0x0 KECCAK256 SLOAD PUSH2 0x1A06 SWAP1 SWAP2 SWAP1 PUSH4 0xFFFFFFFF AND JUMP JUMPDEST PUSH1 0x1 PUSH1 0x0 DUP5 PUSH20 0xFFFFFFFFFFFFFFFFFFFFFFFFFFFFFFFFFFFFFFFF AND PUSH20 0xFFFFFFFFFFFFFFFFFFFFFFFFFFFFFFFFFFFFFFFF AND DUP2 MSTORE PUSH1 0x20 ADD SWAP1 DUP2 MSTORE PUSH1 0x20 ADD PUSH1 0x0 KECCAK256 DUP2 SWAP1 SSTORE POP DUP2 PUSH20 0xFFFFFFFFFFFFFFFFFFFFFFFFFFFFFFFFFFFFFFFF AND PUSH1 0x0 PUSH20 0xFFFFFFFFFFFFFFFFFFFFFFFFFFFFFFFFFFFFFFFF AND PUSH32 0xDDF252AD1BE2C89B69C2B068FC378DAA952BA7F163C4A11628F55A4DF523B3EF DUP4 PUSH1 0x40 MLOAD PUSH2 0x183F SWAP2 SWAP1 PUSH2 0x1F87 JUMP JUMPDEST PUSH1 0x40 MLOAD DUP1 SWAP2 SUB SWAP1 LOG3 POP POP JUMP JUMPDEST PUSH32 0xFFFFFFFFFFFFFFFFFFFFFFFFFFFFFFFFFFFFFFFFFFFFFFFFFFFFFFFFFFFFFFFF DUP3 GT ISZERO DUP1 ISZERO PUSH2 0x189B JUMPI POP PUSH32 0xFFFFFFFFFFFFFFFFFFFFFFFFFFFFFFFFFFFFFFFFFFFFFFFFFFFFFFFFFFFFFFFF DUP2 GT ISZERO JUMPDEST PUSH2 0x18DA JUMPI PUSH1 0x40 MLOAD PUSH32 0x8C379A000000000000000000000000000000000000000000000000000000000 DUP2 MSTORE PUSH1 0x4 ADD PUSH2 0x18D1 SWAP1 PUSH2 0x1F47 JUMP JUMPDEST PUSH1 0x40 MLOAD DUP1 SWAP2 SUB SWAP1 REVERT JUMPDEST DUP2 PUSH1 0x5 DUP2 SWAP1 SSTORE POP DUP1 PUSH1 0x6 DUP2 SWAP1 SSTORE POP POP POP JUMP JUMPDEST PUSH2 0x193E DUP2 PUSH1 0x1 PUSH1 0x0 DUP6 PUSH20 0xFFFFFFFFFFFFFFFFFFFFFFFFFFFFFFFFFFFFFFFF AND PUSH20 0xFFFFFFFFFFFFFFFFFFFFFFFFFFFFFFFFFFFFFFFF AND DUP2 MSTORE PUSH1 0x20 ADD SWAP1 DUP2 MSTORE PUSH1 0x20 ADD PUSH1 0x0 KECCAK256 SLOAD PUSH2 0x145E SWAP1 SWAP2 SWAP1 PUSH4 0xFFFFFFFF AND JUMP JUMPDEST PUSH1 0x1 PUSH1 0x0 DUP5 PUSH20 0xFFFFFFFFFFFFFFFFFFFFFFFFFFFFFFFFFFFFFFFF AND PUSH20 0xFFFFFFFFFFFFFFFFFFFFFFFFFFFFFFFFFFFFFFFF AND DUP2 MSTORE PUSH1 0x20 ADD SWAP1 DUP2 MSTORE PUSH1 0x20 ADD PUSH1 0x0 KECCAK256 DUP2 SWAP1 SSTORE POP PUSH2 0x1996 DUP2 PUSH1 0x0 SLOAD PUSH2 0x145E SWAP1 SWAP2 SWAP1 PUSH4 0xFFFFFFFF AND JUMP JUMPDEST PUSH1 0x0 DUP2 SWAP1 SSTORE POP PUSH1 0x0 PUSH20 0xFFFFFFFFFFFFFFFFFFFFFFFFFFFFFFFFFFFFFFFF AND DUP3 PUSH20 0xFFFFFFFFFFFFFFFFFFFFFFFFFFFFFFFFFFFFFFFF AND PUSH32 0xDDF252AD1BE2C89B69C2B068FC378DAA952BA7F163C4A11628F55A4DF523B3EF DUP4 PUSH1 0x40 MLOAD PUSH2 0x19FA SWAP2 SWAP1 PUSH2 0x1F87 JUMP JUMPDEST PUSH1 0x40 MLOAD DUP1 SWAP2 SUB SWAP1 LOG3 POP POP JUMP JUMPDEST PUSH1 0x0 DUP2 DUP4 PUSH2 0x1A14 SWAP2 SWAP1 PUSH2 0x2021 JUMP JUMPDEST SWAP1 POP SWAP3 SWAP2 POP POP JUMP JUMPDEST PUSH1 0x0 DUP1 PUSH1 0x0 SWAP1 POP PUSH1 0x0 PUSH1 0x80 DUP5 SWAP1 SHR GT ISZERO PUSH2 0x1A3E JUMPI PUSH1 0x80 DUP4 SWAP1 SHR SWAP3 POP PUSH1 0x80 DUP2 ADD SWAP1 POP JUMPDEST PUSH1 0x0 PUSH1 0x40 DUP5 SWAP1 SHR GT ISZERO PUSH2 0x1A59 JUMPI PUSH1 0x40 DUP4 SWAP1 SHR SWAP3 POP PUSH1 0x40 DUP2 ADD SWAP1 POP JUMPDEST PUSH1 0x0 PUSH1 0x20 DUP5 SWAP1 SHR GT ISZERO PUSH2 0x1A74 JUMPI PUSH1 0x20 DUP4 SWAP1 SHR SWAP3 POP PUSH1 0x20 DUP2 ADD SWAP1 POP JUMPDEST PUSH1 0x0 PUSH1 0x10 DUP5 SWAP1 SHR GT ISZERO PUSH2 0x1A8F JUMPI PUSH1 0x10 DUP4 SWAP1 SHR SWAP3 POP PUSH1 0x10 DUP2 ADD SWAP1 POP JUMPDEST PUSH1 0x0 PUSH1 0x8 DUP5 SWAP1 SHR GT ISZERO PUSH2 0x1AAA JUMPI PUSH1 0x8 DUP4 SWAP1 SHR SWAP3 POP PUSH1 0x8 DUP2 ADD SWAP1 POP JUMPDEST PUSH1 0x0 PUSH1 0x4 DUP5 SWAP1 SHR GT ISZERO PUSH2 0x1AC5 JUMPI PUSH1 0x4 DUP4 SWAP1 SHR SWAP3 POP PUSH1 0x4 DUP2 ADD SWAP1 POP JUMPDEST PUSH1 0x0 PUSH1 0x2 DUP5 SWAP1 SHR GT ISZERO PUSH2 0x1AE0 JUMPI PUSH1 0x2 DUP4 SWAP1 SHR SWAP3 POP PUSH1 0x2 DUP2 ADD SWAP1 POP JUMPDEST PUSH1 0x0 PUSH1 0x1 DUP5 SWAP1 SHR GT ISZERO PUSH2 0x1AF4 JUMPI PUSH1 0x1 DUP2 ADD SWAP1 POP JUMPDEST DUP1 SWAP2 POP POP SWAP2 SWAP1 POP JUMP JUMPDEST PUSH1 0x0 DUP2 CALLDATALOAD SWAP1 POP PUSH2 0x1B0C DUP2 PUSH2 0x234C JUMP JUMPDEST SWAP3 SWAP2 POP POP JUMP JUMPDEST PUSH1 0x0 DUP2 MLOAD SWAP1 POP PUSH2 0x1B21 DUP2 PUSH2 0x2363 JUMP JUMPDEST SWAP3 SWAP2 POP POP JUMP JUMPDEST PUSH1 0x0 DUP2 CALLDATALOAD SWAP1 POP PUSH2 0x1B36 DUP2 PUSH2 0x237A JUMP JUMPDEST SWAP3 SWAP2 POP POP JUMP JUMPDEST PUSH1 0x0 DUP2 MLOAD SWAP1 POP PUSH2 0x1B4B DUP2 PUSH2 0x237A JUMP JUMPDEST SWAP3 SWAP2 POP POP JUMP JUMPDEST PUSH1 0x0 PUSH1 0x20 DUP3 DUP5 SUB SLT ISZERO PUSH2 0x1B67 JUMPI PUSH2 0x1B66 PUSH2 0x21DC JUMP JUMPDEST JUMPDEST PUSH1 0x0 PUSH2 0x1B75 DUP5 DUP3 DUP6 ADD PUSH2 0x1AFD JUMP JUMPDEST SWAP2 POP POP SWAP3 SWAP2 POP POP JUMP JUMPDEST PUSH1 0x0 DUP1 PUSH1 0x40 DUP4 DUP6 SUB SLT ISZERO PUSH2 0x1B95 JUMPI PUSH2 0x1B94 PUSH2 0x21DC JUMP JUMPDEST JUMPDEST PUSH1 0x0 PUSH2 0x1BA3 DUP6 DUP3 DUP7 ADD PUSH2 0x1AFD JUMP JUMPDEST SWAP3 POP POP PUSH1 0x20 PUSH2 0x1BB4 DUP6 DUP3 DUP7 ADD PUSH2 0x1AFD JUMP JUMPDEST SWAP2 POP POP SWAP3 POP SWAP3 SWAP1 POP JUMP JUMPDEST PUSH1 0x0 DUP1 PUSH1 0x0 PUSH1 0x60 DUP5 DUP7 SUB SLT ISZERO PUSH2 0x1BD7 JUMPI PUSH2 0x1BD6 PUSH2 0x21DC JUMP JUMPDEST JUMPDEST PUSH1 0x0 PUSH2 0x1BE5 DUP7 DUP3 DUP8 ADD PUSH2 0x1AFD JUMP JUMPDEST SWAP4 POP POP PUSH1 0x20 PUSH2 0x1BF6 DUP7 DUP3 DUP8 ADD PUSH2 0x1AFD JUMP JUMPDEST SWAP3 POP POP PUSH1 0x40 PUSH2 0x1C07 DUP7 DUP3 DUP8 ADD PUSH2 0x1B27 JUMP JUMPDEST SWAP2 POP POP SWAP3 POP SWAP3 POP SWAP3 JUMP JUMPDEST PUSH1 0x0 DUP1 PUSH1 0x0 DUP1 PUSH1 0x0 PUSH1 0xA0 DUP7 DUP9 SUB SLT ISZERO PUSH2 0x1C2D JUMPI PUSH2 0x1C2C PUSH2 0x21DC JUMP JUMPDEST JUMPDEST PUSH1 0x0 PUSH2 0x1C3B DUP9 DUP3 DUP10 ADD PUSH2 0x1AFD JUMP JUMPDEST SWAP6 POP POP PUSH1 0x20 PUSH2 0x1C4C DUP9 DUP3 DUP10 ADD PUSH2 0x1AFD JUMP JUMPDEST SWAP5 POP POP PUSH1 0x40 PUSH2 0x1C5D DUP9 DUP3 DUP10 ADD PUSH2 0x1B27 JUMP JUMPDEST SWAP4 POP POP PUSH1 0x60 PUSH2 0x1C6E DUP9 DUP3 DUP10 ADD PUSH2 0x1B27 JUMP JUMPDEST SWAP3 POP POP PUSH1 0x80 PUSH2 0x1C7F DUP9 DUP3 DUP10 ADD PUSH2 0x1AFD JUMP JUMPDEST SWAP2 POP POP SWAP3 SWAP6 POP SWAP3 SWAP6 SWAP1 SWAP4 POP JUMP JUMPDEST PUSH1 0x0 DUP1 PUSH1 0x40 DUP4 DUP6 SUB SLT ISZERO PUSH2 0x1CA3 JUMPI PUSH2 0x1CA2 PUSH2 0x21DC JUMP JUMPDEST JUMPDEST PUSH1 0x0 PUSH2 0x1CB1 DUP6 DUP3 DUP7 ADD PUSH2 0x1AFD JUMP JUMPDEST SWAP3 POP POP PUSH1 0x20 PUSH2 0x1CC2 DUP6 DUP3 DUP7 ADD PUSH2 0x1B27 JUMP JUMPDEST SWAP2 POP POP SWAP3 POP SWAP3 SWAP1 POP JUMP JUMPDEST PUSH1 0x0 PUSH1 0x20 DUP3 DUP5 SUB SLT ISZERO PUSH2 0x1CE2 JUMPI PUSH2 0x1CE1 PUSH2 0x21DC JUMP JUMPDEST JUMPDEST PUSH1 0x0 PUSH2 0x1CF0 DUP5 DUP3 DUP6 ADD PUSH2 0x1B12 JUMP JUMPDEST SWAP2 POP POP SWAP3 SWAP2 POP POP JUMP JUMPDEST PUSH1 0x0 PUSH1 0x20 DUP3 DUP5 SUB SLT ISZERO PUSH2 0x1D0F JUMPI PUSH2 0x1D0E PUSH2 0x21DC JUMP JUMPDEST JUMPDEST PUSH1 0x0 PUSH2 0x1D1D DUP5 DUP3 DUP6 ADD PUSH2 0x1B3C JUMP JUMPDEST SWAP2 POP POP SWAP3 SWAP2 POP POP JUMP JUMPDEST PUSH2 0x1D2F DUP2 PUSH2 0x2136 JUMP JUMPDEST DUP3 MSTORE POP POP JUMP JUMPDEST PUSH2 0x1D3E DUP2 PUSH2 0x2148 JUMP JUMPDEST DUP3 MSTORE POP POP JUMP JUMPDEST PUSH1 0x0 PUSH2 0x1D51 PUSH1 0x23 DUP4 PUSH2 0x2010 JUMP JUMPDEST SWAP2 POP PUSH2 0x1D5C DUP3 PUSH2 0x21E1 JUMP JUMPDEST PUSH1 0x40 DUP3 ADD SWAP1 POP SWAP2 SWAP1 POP JUMP JUMPDEST PUSH1 0x0 PUSH2 0x1D74 PUSH1 0x16 DUP4 PUSH2 0x2010 JUMP JUMPDEST SWAP2 POP PUSH2 0x1D7F DUP3 PUSH2 0x2230 JUMP JUMPDEST PUSH1 0x20 DUP3 ADD SWAP1 POP SWAP2 SWAP1 POP JUMP JUMPDEST PUSH1 0x0 PUSH2 0x1D97 PUSH1 0x13 DUP4 PUSH2 0x2010 JUMP JUMPDEST SWAP2 POP PUSH2 0x1DA2 DUP3 PUSH2 0x2259 JUMP JUMPDEST PUSH1 0x20 DUP3 ADD SWAP1 POP SWAP2 SWAP1 POP JUMP JUMPDEST PUSH1 0x0 PUSH2 0x1DBA PUSH1 0x20 DUP4 PUSH2 0x2010 JUMP JUMPDEST SWAP2 POP PUSH2 0x1DC5 DUP3 PUSH2 0x2282 JUMP JUMPDEST PUSH1 0x20 DUP3 ADD SWAP1 POP SWAP2 SWAP1 POP JUMP JUMPDEST PUSH1 0x0 PUSH2 0x1DDD PUSH1 0x23 DUP4 PUSH2 0x2010 JUMP JUMPDEST SWAP2 POP PUSH2 0x1DE8 DUP3 PUSH2 0x22AB JUMP JUMPDEST PUSH1 0x40 DUP3 ADD SWAP1 POP SWAP2 SWAP1 POP JUMP JUMPDEST PUSH1 0x0 PUSH2 0x1E00 PUSH1 0xE DUP4 PUSH2 0x2010 JUMP JUMPDEST SWAP2 POP PUSH2 0x1E0B DUP3 PUSH2 0x22FA JUMP JUMPDEST PUSH1 0x20 DUP3 ADD SWAP1 POP SWAP2 SWAP1 POP JUMP JUMPDEST PUSH1 0x0 PUSH2 0x1E23 PUSH1 0x20 DUP4 PUSH2 0x2010 JUMP JUMPDEST SWAP2 POP PUSH2 0x1E2E DUP3 PUSH2 0x2323 JUMP JUMPDEST PUSH1 0x20 DUP3 ADD SWAP1 POP SWAP2 SWAP1 POP JUMP JUMPDEST PUSH2 0x1E42 DUP2 PUSH2 0x2174 JUMP JUMPDEST DUP3 MSTORE POP POP JUMP JUMPDEST PUSH1 0x0 PUSH1 0x20 DUP3 ADD SWAP1 POP PUSH2 0x1E5D PUSH1 0x0 DUP4 ADD DUP5 PUSH2 0x1D26 JUMP JUMPDEST SWAP3 SWAP2 POP POP JUMP JUMPDEST PUSH1 0x0 PUSH1 0x40 DUP3 ADD SWAP1 POP PUSH2 0x1E78 PUSH1 0x0 DUP4 ADD DUP6 PUSH2 0x1D26 JUMP JUMPDEST PUSH2 0x1E85 PUSH1 0x20 DUP4 ADD DUP5 PUSH2 0x1E39 JUMP JUMPDEST SWAP4 SWAP3 POP POP POP JUMP JUMPDEST PUSH1 0x0 PUSH1 0x20 DUP3 ADD SWAP1 POP PUSH2 0x1EA1 PUSH1 0x0 DUP4 ADD DUP5 PUSH2 0x1D35 JUMP JUMPDEST SWAP3 SWAP2 POP POP JUMP JUMPDEST PUSH1 0x0 PUSH1 0x20 DUP3 ADD SWAP1 POP DUP2 DUP2 SUB PUSH1 0x0 DUP4 ADD MSTORE PUSH2 0x1EC0 DUP2 PUSH2 0x1D44 JUMP JUMPDEST SWAP1 POP SWAP2 SWAP1 POP JUMP JUMPDEST PUSH1 0x0 PUSH1 0x20 DUP3 ADD SWAP1 POP DUP2 DUP2 SUB PUSH1 0x0 DUP4 ADD MSTORE PUSH2 0x1EE0 DUP2 PUSH2 0x1D67 JUMP JUMPDEST SWAP1 POP SWAP2 SWAP1 POP JUMP JUMPDEST PUSH1 0x0 PUSH1 0x20 DUP3 ADD SWAP1 POP DUP2 DUP2 SUB PUSH1 0x0 DUP4 ADD MSTORE PUSH2 0x1F00 DUP2 PUSH2 0x1D8A JUMP JUMPDEST SWAP1 POP SWAP2 SWAP1 POP JUMP JUMPDEST PUSH1 0x0 PUSH1 0x20 DUP3 ADD SWAP1 POP DUP2 DUP2 SUB PUSH1 0x0 DUP4 ADD MSTORE PUSH2 0x1F20 DUP2 PUSH2 0x1DAD JUMP JUMPDEST SWAP1 POP SWAP2 SWAP1 POP JUMP JUMPDEST PUSH1 0x0 PUSH1 0x20 DUP3 ADD SWAP1 POP DUP2 DUP2 SUB PUSH1 0x0 DUP4 ADD MSTORE PUSH2 0x1F40 DUP2 PUSH2 0x1DD0 JUMP JUMPDEST SWAP1 POP SWAP2 SWAP1 POP JUMP JUMPDEST PUSH1 0x0 PUSH1 0x20 DUP3 ADD SWAP1 POP DUP2 DUP2 SUB PUSH1 0x0 DUP4 ADD MSTORE PUSH2 0x1F60 DUP2 PUSH2 0x1DF3 JUMP JUMPDEST SWAP1 POP SWAP2 SWAP1 POP JUMP JUMPDEST PUSH1 0x0 PUSH1 0x20 DUP3 ADD SWAP1 POP DUP2 DUP2 SUB PUSH1 0x0 DUP4 ADD MSTORE PUSH2 0x1F80 DUP2 PUSH2 0x1E16 JUMP JUMPDEST SWAP1 POP SWAP2 SWAP1 POP JUMP JUMPDEST PUSH1 0x0 PUSH1 0x20 DUP3 ADD SWAP1 POP PUSH2 0x1F9C PUSH1 0x0 DUP4 ADD DUP5 PUSH2 0x1E39 JUMP JUMPDEST SWAP3 SWAP2 POP POP JUMP JUMPDEST PUSH1 0x0 PUSH1 0x40 DUP3 ADD SWAP1 POP PUSH2 0x1FB7 PUSH1 0x0 DUP4 ADD DUP6 PUSH2 0x1E39 JUMP JUMPDEST PUSH2 0x1FC4 PUSH1 0x20 DUP4 ADD DUP5 PUSH2 0x1E39 JUMP JUMPDEST SWAP4 SWAP3 POP POP POP JUMP JUMPDEST PUSH1 0x0 PUSH1 0x80 DUP3 ADD SWAP1 POP PUSH2 0x1FE0 PUSH1 0x0 DUP4 ADD DUP8 PUSH2 0x1E39 JUMP JUMPDEST PUSH2 0x1FED PUSH1 0x20 DUP4 ADD DUP7 PUSH2 0x1E39 JUMP JUMPDEST PUSH2 0x1FFA PUSH1 0x40 DUP4 ADD DUP6 PUSH2 0x1E39 JUMP JUMPDEST PUSH2 0x2007 PUSH1 0x60 DUP4 ADD DUP5 PUSH2 0x1E39 JUMP JUMPDEST SWAP6 SWAP5 POP POP POP POP POP JUMP JUMPDEST PUSH1 0x0 DUP3 DUP3 MSTORE PUSH1 0x20 DUP3 ADD SWAP1 POP SWAP3 SWAP2 POP POP JUMP JUMPDEST PUSH1 0x0 PUSH2 0x202C DUP3 PUSH2 0x2174 JUMP JUMPDEST SWAP2 POP PUSH2 0x2037 DUP4 PUSH2 0x2174 JUMP JUMPDEST SWAP3 POP DUP3 PUSH32 0xFFFFFFFFFFFFFFFFFFFFFFFFFFFFFFFFFFFFFFFFFFFFFFFFFFFFFFFFFFFFFFFF SUB DUP3 GT ISZERO PUSH2 0x206C JUMPI PUSH2 0x206B PUSH2 0x217E JUMP JUMPDEST JUMPDEST DUP3 DUP3 ADD SWAP1 POP SWAP3 SWAP2 POP POP JUMP JUMPDEST PUSH1 0x0 PUSH2 0x2082 DUP3 PUSH2 0x2174 JUMP JUMPDEST SWAP2 POP PUSH2 0x208D DUP4 PUSH2 0x2174 JUMP JUMPDEST SWAP3 POP DUP3 PUSH2 0x209D JUMPI PUSH2 0x209C PUSH2 0x21AD JUMP JUMPDEST JUMPDEST DUP3 DUP3 DIV SWAP1 POP SWAP3 SWAP2 POP POP JUMP JUMPDEST PUSH1 0x0 PUSH2 0x20B3 DUP3 PUSH2 0x2174 JUMP JUMPDEST SWAP2 POP PUSH2 0x20BE DUP4 PUSH2 0x2174 JUMP JUMPDEST SWAP3 POP DUP2 PUSH32 0xFFFFFFFFFFFFFFFFFFFFFFFFFFFFFFFFFFFFFFFFFFFFFFFFFFFFFFFFFFFFFFFF DIV DUP4 GT DUP3 ISZERO ISZERO AND ISZERO PUSH2 0x20F7 JUMPI PUSH2 0x20F6 PUSH2 0x217E JUMP JUMPDEST JUMPDEST DUP3 DUP3 MUL SWAP1 POP SWAP3 SWAP2 POP POP JUMP JUMPDEST PUSH1 0x0 PUSH2 0x210D DUP3 PUSH2 0x2174 JUMP JUMPDEST SWAP2 POP PUSH2 0x2118 DUP4 PUSH2 0x2174 JUMP JUMPDEST SWAP3 POP DUP3 DUP3 LT ISZERO PUSH2 0x212B JUMPI PUSH2 0x212A PUSH2 0x217E JUMP JUMPDEST JUMPDEST DUP3 DUP3 SUB SWAP1 POP SWAP3 SWAP2 POP POP JUMP JUMPDEST PUSH1 0x0 PUSH2 0x2141 DUP3 PUSH2 0x2154 JUMP JUMPDEST SWAP1 POP SWAP2 SWAP1 POP JUMP JUMPDEST PUSH1 0x0 DUP2 ISZERO ISZERO SWAP1 POP SWAP2 SWAP1 POP JUMP JUMPDEST PUSH1 0x0 PUSH20 0xFFFFFFFFFFFFFFFFFFFFFFFFFFFFFFFFFFFFFFFF DUP3 AND SWAP1 POP SWAP2 SWAP1 POP JUMP JUMPDEST PUSH1 0x0 DUP2 SWAP1 POP SWAP2 SWAP1 POP JUMP JUMPDEST PUSH32 0x4E487B7100000000000000000000000000000000000000000000000000000000 PUSH1 0x0 MSTORE PUSH1 0x11 PUSH1 0x4 MSTORE PUSH1 0x24 PUSH1 0x0 REVERT JUMPDEST PUSH32 0x4E487B7100000000000000000000000000000000000000000000000000000000 PUSH1 0x0 MSTORE PUSH1 0x12 PUSH1 0x4 MSTORE PUSH1 0x24 PUSH1 0x0 REVERT JUMPDEST PUSH1 0x0 DUP1 REVERT JUMPDEST PUSH32 0x504F4F4C3A20496E73756666696369656E74206C6971756964697479206D696E PUSH1 0x0 DUP3 ADD MSTORE PUSH32 0x7465640000000000000000000000000000000000000000000000000000000000 PUSH1 0x20 DUP3 ADD MSTORE POP JUMP JUMPDEST PUSH32 0x464143544F52593A204163636573732064656E69656400000000000000000000 PUSH1 0x0 DUP3 ADD MSTORE POP JUMP JUMPDEST PUSH32 0x504F4F4C3A204163636573732064656E69656400000000000000000000000000 PUSH1 0x0 DUP3 ADD MSTORE POP JUMP JUMPDEST PUSH32 0x4552524F523A20696E73756666696369656E7420696E70757420616D6F756E74 PUSH1 0x0 DUP3 ADD MSTORE POP JUMP JUMPDEST PUSH32 0x504F4F4C3A20496E73756666696369656E74206C697175696469747920627572 PUSH1 0x0 DUP3 ADD MSTORE PUSH32 0x6E65640000000000000000000000000000000000000000000000000000000000 PUSH1 0x20 DUP3 ADD MSTORE POP JUMP JUMPDEST PUSH32 0x504F4F4C3A204F766572666C6F77000000000000000000000000000000000000 PUSH1 0x0 DUP3 ADD MSTORE POP JUMP JUMPDEST PUSH32 0x4552524F523A20496E737566666963656E74206F757470757420616D6F756E74 PUSH1 0x0 DUP3 ADD MSTORE POP JUMP JUMPDEST PUSH2 0x2355 DUP2 PUSH2 0x2136 JUMP JUMPDEST DUP2 EQ PUSH2 0x2360 JUMPI PUSH1 0x0 DUP1 REVERT JUMPDEST POP JUMP JUMPDEST PUSH2 0x236C DUP2 PUSH2 0x2148 JUMP JUMPDEST DUP2 EQ PUSH2 0x2377 JUMPI PUSH1 0x0 DUP1 REVERT JUMPDEST POP JUMP JUMPDEST PUSH2 0x2383 DUP2 PUSH2 0x2174 JUMP JUMPDEST DUP2 EQ PUSH2 0x238E JUMPI PUSH1 0x0 DUP1 REVERT JUMPDEST POP JUMP INVALID LOG2 PUSH5 0x6970667358 0x22 SLT KECCAK256 INVALID 0xE2 DUP15 0xB9 MULMOD RETURN 0xAE 0xEA 0xE6 PUSH20 0xCF14DF5075F80987C4AB804E68BE4FC66B08A7FD 0x29 PUSH25 0x64736F6C634300080700330000000000000000000000000000 "
				},
				"gasEstimates": {
					"creation": {
						"codeDepositCost": "1831800",
						"executionCost": "infinite",
						"totalCost": "infinite"
					},
					"external": {
						"admin()": "2602",
						"allowance(address,address)": "infinite",
						"approve(address,uint256)": "infinite",
						"balanceOf(address)": "2925",
						"burn(address)": "infinite",
						"factory()": "infinite",
						"getBalances()": "infinite",
						"getReserves()": "infinite",
						"mint(address)": "infinite",
						"router()": "2624",
						"setAdmin(address)": "26981",
						"setRouter(address)": "26959",
						"swap(address,address,uint256,uint256,address)": "infinite",
						"token0()": "infinite",
						"token1()": "infinite",
						"totalSupply()": "2452",
						"transfer(address,uint256)": "infinite",
						"transferFrom(address,address,uint256)": "infinite"
					},
					"internal": {
						"_update(uint256,uint256)": "44301"
					}
				},
				"methodIdentifiers": {
					"admin()": "f851a440",
					"allowance(address,address)": "dd62ed3e",
					"approve(address,uint256)": "095ea7b3",
					"balanceOf(address)": "70a08231",
					"burn(address)": "89afcb44",
					"factory()": "c45a0155",
					"getBalances()": "00113e08",
					"getReserves()": "0902f1ac",
					"mint(address)": "6a627842",
					"router()": "f887ea40",
					"setAdmin(address)": "704b6c02",
					"setRouter(address)": "c0d78655",
					"swap(address,address,uint256,uint256,address)": "d5bcb9b5",
					"token0()": "0dfe1681",
					"token1()": "d21220a7",
					"totalSupply()": "18160ddd",
					"transfer(address,uint256)": "a9059cbb",
					"transferFrom(address,address,uint256)": "23b872dd"
				}
			},
			"storageLayout": {
				"storage": [
					{
						"astId": 21,
						"contract": "contracts/PoolContract.sol:LiquidityPool",
						"label": "totalSupply",
						"offset": 0,
						"slot": "0",
						"type": "t_uint256"
					},
					{
						"astId": 26,
						"contract": "contracts/PoolContract.sol:LiquidityPool",
						"label": "balanceOf",
						"offset": 0,
						"slot": "1",
						"type": "t_mapping(t_address,t_uint256)"
					},
					{
						"astId": 33,
						"contract": "contracts/PoolContract.sol:LiquidityPool",
						"label": "allowance",
						"offset": 0,
						"slot": "2",
						"type": "t_mapping(t_address,t_mapping(t_address,t_uint256))"
					},
					{
						"astId": 269,
						"contract": "contracts/PoolContract.sol:LiquidityPool",
						"label": "admin",
						"offset": 0,
						"slot": "3",
						"type": "t_address"
					},
					{
						"astId": 273,
						"contract": "contracts/PoolContract.sol:LiquidityPool",
						"label": "router",
						"offset": 0,
						"slot": "4",
						"type": "t_address"
					},
					{
						"astId": 279,
						"contract": "contracts/PoolContract.sol:LiquidityPool",
						"label": "_reserve0",
						"offset": 0,
						"slot": "5",
						"type": "t_uint256"
					},
					{
						"astId": 281,
						"contract": "contracts/PoolContract.sol:LiquidityPool",
						"label": "_reserve1",
						"offset": 0,
						"slot": "6",
						"type": "t_uint256"
					}
				],
				"types": {
					"t_address": {
						"encoding": "inplace",
						"label": "address",
						"numberOfBytes": "20"
					},
					"t_mapping(t_address,t_mapping(t_address,t_uint256))": {
						"encoding": "mapping",
						"key": "t_address",
						"label": "mapping(address => mapping(address => uint256))",
						"numberOfBytes": "32",
						"value": "t_mapping(t_address,t_uint256)"
					},
					"t_mapping(t_address,t_uint256)": {
						"encoding": "mapping",
						"key": "t_address",
						"label": "mapping(address => uint256)",
						"numberOfBytes": "32",
						"value": "t_uint256"
					},
					"t_uint256": {
						"encoding": "inplace",
						"label": "uint256",
						"numberOfBytes": "32"
					}
				}
			},
			"userdoc": {
				"kind": "user",
				"methods": {},
				"version": 1
			}
		}
	}
}