{
	"LotteryNew.sol": {
		"Lottery": {
			"abi": [
				{
					"inputs": [],
					"stateMutability": "nonpayable",
					"type": "constructor"
				},
				{
					"inputs": [
						{
							"internalType": "uint256[]",
							"name": "ticketNumbers",
							"type": "uint256[]"
						}
					],
					"name": "buyTicket",
					"outputs": [],
					"stateMutability": "payable",
					"type": "function"
				},
				{
					"inputs": [
						{
							"internalType": "uint256",
							"name": "_price",
							"type": "uint256"
						}
					],
					"name": "changeTicketPrice",
					"outputs": [],
					"stateMutability": "nonpayable",
					"type": "function"
				},
				{
					"inputs": [],
					"name": "getMyTicketNumbers",
					"outputs": [
						{
							"internalType": "uint256[]",
							"name": "",
							"type": "uint256[]"
						}
					],
					"stateMutability": "view",
					"type": "function"
				},
				{
					"inputs": [],
					"name": "getTicketPrice",
					"outputs": [
						{
							"internalType": "uint256",
							"name": "",
							"type": "uint256"
						}
					],
					"stateMutability": "view",
					"type": "function"
				},
				{
					"inputs": [],
					"name": "getTotalLotteryPrice",
					"outputs": [
						{
							"internalType": "uint256",
							"name": "",
							"type": "uint256"
						}
					],
					"stateMutability": "view",
					"type": "function"
				},
				{
					"inputs": [],
					"name": "getWinningNumber",
					"outputs": [
						{
							"internalType": "uint256[]",
							"name": "",
							"type": "uint256[]"
						}
					],
					"stateMutability": "view",
					"type": "function"
				},
				{
					"inputs": [],
					"name": "owner",
					"outputs": [
						{
							"internalType": "address",
							"name": "",
							"type": "address"
						}
					],
					"stateMutability": "view",
					"type": "function"
				},
				{
					"inputs": [],
					"name": "setWinningNumbers",
					"outputs": [],
					"stateMutability": "nonpayable",
					"type": "function"
				}
			],
			"devdoc": {
				"kind": "dev",
				"methods": {},
				"version": 1
			},
			"evm": {
				"assembly": "    /* \"LotteryNew.sol\":37:1853  contract Lottery {... */\n  mstore(0x40, 0x80)\n    /* \"LotteryNew.sol\":195:202  5 ether */\n  0x4563918244f40000\n    /* \"LotteryNew.sol\":174:202  uint private price = 5 ether */\n  0x03\n  sstore\n    /* \"LotteryNew.sol\":252:310  constructor() public {... */\n  callvalue\n  dup1\n  iszero\n  tag_1\n  jumpi\n  0x00\n  dup1\n  revert\ntag_1:\n  pop\n    /* \"LotteryNew.sol\":292:302  msg.sender */\n  caller\n    /* \"LotteryNew.sol\":284:289  owner */\n  0x00\n  dup1\n    /* \"LotteryNew.sol\":284:302  owner = msg.sender */\n  0x0100\n  exp\n  dup2\n  sload\n  dup2\n  0xffffffffffffffffffffffffffffffffffffffff\n  mul\n  not\n  and\n  swap1\n  dup4\n  0xffffffffffffffffffffffffffffffffffffffff\n  and\n  mul\n  or\n  swap1\n  sstore\n  pop\n    /* \"LotteryNew.sol\":37:1853  contract Lottery {... */\n  dataSize(sub_0)\n  dup1\n  dataOffset(sub_0)\n  0x00\n  codecopy\n  0x00\n  return\nstop\n\nsub_0: assembly {\n        /* \"LotteryNew.sol\":37:1853  contract Lottery {... */\n      mstore(0x40, 0x80)\n      jumpi(tag_1, lt(calldatasize, 0x04))\n      shr(0xe0, calldataload(0x00))\n      dup1\n      0x8b0b9ed4\n      gt\n      tag_10\n      jumpi\n      dup1\n      0x8b0b9ed4\n      eq\n      tag_6\n      jumpi\n      dup1\n      0x8da5cb5b\n      eq\n      tag_7\n      jumpi\n      dup1\n      0xa650fbab\n      eq\n      tag_8\n      jumpi\n      dup1\n      0xa7caba25\n      eq\n      tag_9\n      jumpi\n      jump(tag_1)\n    tag_10:\n      dup1\n      0x4630a0ee\n      eq\n      tag_2\n      jumpi\n      dup1\n      0x716cac96\n      eq\n      tag_3\n      jumpi\n      dup1\n      0x7f2d18cf\n      eq\n      tag_4\n      jumpi\n      dup1\n      0x87bb7ae0\n      eq\n      tag_5\n      jumpi\n    tag_1:\n      0x00\n      dup1\n      revert\n        /* \"LotteryNew.sol\":437:529  function changeTicketPrice(uint _price) public onlyOwner {... */\n    tag_2:\n      callvalue\n      dup1\n      iszero\n      tag_11\n      jumpi\n      0x00\n      dup1\n      revert\n    tag_11:\n      pop\n      tag_12\n      0x04\n      dup1\n      calldatasize\n      sub\n      dup2\n      add\n      swap1\n      tag_13\n      swap2\n      swap1\n      tag_14\n      jump\t// in\n    tag_13:\n      tag_15\n      jump\t// in\n    tag_12:\n      stop\n        /* \"LotteryNew.sol\":1245:1738  function buyTicket(uint[] memory ticketNumbers) public payable {... */\n    tag_3:\n      tag_16\n      0x04\n      dup1\n      calldatasize\n      sub\n      dup2\n      add\n      swap1\n      tag_17\n      swap2\n      swap1\n      tag_18\n      jump\t// in\n    tag_17:\n      tag_19\n      jump\t// in\n    tag_16:\n      stop\n        /* \"LotteryNew.sol\":635:743  function getTotalLotteryPrice() public view returns (uint) {... */\n    tag_4:\n      callvalue\n      dup1\n      iszero\n      tag_20\n      jumpi\n      0x00\n      dup1\n      revert\n    tag_20:\n      pop\n      tag_21\n      tag_22\n      jump\t// in\n    tag_21:\n      mload(0x40)\n      tag_23\n      swap2\n      swap1\n      tag_24\n      jump\t// in\n    tag_23:\n      mload(0x40)\n      dup1\n      swap2\n      sub\n      swap1\n      return\n        /* \"LotteryNew.sol\":537:627  function getTicketPrice() public view returns (uint) {... */\n    tag_5:\n      callvalue\n      dup1\n      iszero\n      tag_25\n      jumpi\n      0x00\n      dup1\n      revert\n    tag_25:\n      pop\n      tag_26\n      tag_27\n      jump\t// in\n    tag_26:\n      mload(0x40)\n      tag_28\n      swap2\n      swap1\n      tag_24\n      jump\t// in\n    tag_28:\n      mload(0x40)\n      dup1\n      swap2\n      sub\n      swap1\n      return\n        /* \"LotteryNew.sol\":1128:1237  function getWinningNumber() public view onlyOwner returns (uint[] memory) {... */\n    tag_6:\n      callvalue\n      dup1\n      iszero\n      tag_29\n      jumpi\n      0x00\n      dup1\n      revert\n    tag_29:\n      pop\n      tag_30\n      tag_31\n      jump\t// in\n    tag_30:\n      mload(0x40)\n      tag_32\n      swap2\n      swap1\n      tag_33\n      jump\t// in\n    tag_32:\n      mload(0x40)\n      dup1\n      swap2\n      sub\n      swap1\n      return\n        /* \"LotteryNew.sol\":61:81  address public owner */\n    tag_7:\n      callvalue\n      dup1\n      iszero\n      tag_34\n      jumpi\n      0x00\n      dup1\n      revert\n    tag_34:\n      pop\n      tag_35\n      tag_36\n      jump\t// in\n    tag_35:\n      mload(0x40)\n      tag_37\n      swap2\n      swap1\n      tag_38\n      jump\t// in\n    tag_37:\n      mload(0x40)\n      dup1\n      swap2\n      sub\n      swap1\n      return\n        /* \"LotteryNew.sol\":1746:1849  function getMyTicketNumbers() public view returns (uint[] memory) {... */\n    tag_8:\n      callvalue\n      dup1\n      iszero\n      tag_39\n      jumpi\n      0x00\n      dup1\n      revert\n    tag_39:\n      pop\n      tag_40\n      tag_41\n      jump\t// in\n    tag_40:\n      mload(0x40)\n      tag_42\n      swap2\n      swap1\n      tag_33\n      jump\t// in\n    tag_42:\n      mload(0x40)\n      dup1\n      swap2\n      sub\n      swap1\n      return\n        /* \"LotteryNew.sol\":751:1120  function setWinningNumbers() public onlyOwner {... */\n    tag_9:\n      callvalue\n      dup1\n      iszero\n      tag_43\n      jumpi\n      0x00\n      dup1\n      revert\n    tag_43:\n      pop\n      tag_44\n      tag_45\n      jump\t// in\n    tag_44:\n      stop\n        /* \"LotteryNew.sol\":437:529  function changeTicketPrice(uint _price) public onlyOwner {... */\n    tag_15:\n        /* \"LotteryNew.sol\":367:372  owner */\n      0x00\n      dup1\n      sload\n      swap1\n      0x0100\n      exp\n      swap1\n      div\n      0xffffffffffffffffffffffffffffffffffffffff\n      and\n        /* \"LotteryNew.sol\":353:372  msg.sender == owner */\n      0xffffffffffffffffffffffffffffffffffffffff\n      and\n        /* \"LotteryNew.sol\":353:363  msg.sender */\n      caller\n        /* \"LotteryNew.sol\":353:372  msg.sender == owner */\n      0xffffffffffffffffffffffffffffffffffffffff\n      and\n      eq\n        /* \"LotteryNew.sol\":345:415  require(msg.sender == owner, \"Only the owner can perform this action\") */\n      tag_47\n      jumpi\n      mload(0x40)\n      0x08c379a000000000000000000000000000000000000000000000000000000000\n      dup2\n      mstore\n      0x04\n      add\n      tag_48\n      swap1\n      tag_49\n      jump\t// in\n    tag_48:\n      mload(0x40)\n      dup1\n      swap2\n      sub\n      swap1\n      revert\n    tag_47:\n        /* \"LotteryNew.sol\":518:525  1 ether */\n      0x0de0b6b3a7640000\n        /* \"LotteryNew.sol\":509:515  _price */\n      dup2\n        /* \"LotteryNew.sol\":509:525  _price * 1 ether */\n      tag_51\n      swap2\n      swap1\n      tag_52\n      jump\t// in\n    tag_51:\n        /* \"LotteryNew.sol\":501:506  price */\n      0x03\n        /* \"LotteryNew.sol\":501:525  price = _price * 1 ether */\n      dup2\n      swap1\n      sstore\n      pop\n        /* \"LotteryNew.sol\":437:529  function changeTicketPrice(uint _price) public onlyOwner {... */\n      pop\n      jump\t// out\n        /* \"LotteryNew.sol\":1245:1738  function buyTicket(uint[] memory ticketNumbers) public payable {... */\n    tag_19:\n        /* \"LotteryNew.sol\":1336:1341  price */\n      sload(0x03)\n        /* \"LotteryNew.sol\":1323:1332  msg.value */\n      callvalue\n        /* \"LotteryNew.sol\":1323:1341  msg.value == price */\n      eq\n        /* \"LotteryNew.sol\":1315:1358  require(msg.value == price, \"Wrong amount\") */\n      tag_54\n      jumpi\n      mload(0x40)\n      0x08c379a000000000000000000000000000000000000000000000000000000000\n      dup2\n      mstore\n      0x04\n      add\n      tag_55\n      swap1\n      tag_56\n      jump\t// in\n    tag_55:\n      mload(0x40)\n      dup1\n      swap2\n      sub\n      swap1\n      revert\n    tag_54:\n        /* \"LotteryNew.sol\":1397:1398  6 */\n      0x06\n        /* \"LotteryNew.sol\":1373:1386  ticketNumbers */\n      dup2\n        /* \"LotteryNew.sol\":1373:1393  ticketNumbers.length */\n      mload\n        /* \"LotteryNew.sol\":1373:1398  ticketNumbers.length == 6 */\n      eq\n        /* \"LotteryNew.sol\":1365:1426  require(ticketNumbers.length == 6, \"Wrong number of numbers\") */\n      tag_57\n      jumpi\n      mload(0x40)\n      0x08c379a000000000000000000000000000000000000000000000000000000000\n      dup2\n      mstore\n      0x04\n      add\n      tag_58\n      swap1\n      tag_59\n      jump\t// in\n    tag_58:\n      mload(0x40)\n      dup1\n      swap2\n      sub\n      swap1\n      revert\n    tag_57:\n        /* \"LotteryNew.sol\":1438:1444  uint i */\n      0x00\n        /* \"LotteryNew.sol\":1433:1571  for (uint i = 0; i < ticketNumbers.length; i++) {... */\n    tag_60:\n        /* \"LotteryNew.sol\":1454:1467  ticketNumbers */\n      dup2\n        /* \"LotteryNew.sol\":1454:1474  ticketNumbers.length */\n      mload\n        /* \"LotteryNew.sol\":1450:1451  i */\n      dup2\n        /* \"LotteryNew.sol\":1450:1474  i < ticketNumbers.length */\n      lt\n        /* \"LotteryNew.sol\":1433:1571  for (uint i = 0; i < ticketNumbers.length; i++) {... */\n      iszero\n      tag_61\n      jumpi\n        /* \"LotteryNew.sol\":1519:1521  10 */\n      0x0a\n        /* \"LotteryNew.sol\":1500:1513  ticketNumbers */\n      dup3\n        /* \"LotteryNew.sol\":1514:1515  i */\n      dup3\n        /* \"LotteryNew.sol\":1500:1516  ticketNumbers[i] */\n      dup2\n      mload\n      dup2\n      lt\n      tag_63\n      jumpi\n      tag_64\n      tag_65\n      jump\t// in\n    tag_64:\n    tag_63:\n      0x20\n      mul\n      0x20\n      add\n      add\n      mload\n        /* \"LotteryNew.sol\":1500:1521  ticketNumbers[i] < 10 */\n      lt\n        /* \"LotteryNew.sol\":1500:1546  ticketNumbers[i] < 10 && ticketNumbers[i] >= 0 */\n      dup1\n      iszero\n      tag_66\n      jumpi\n      pop\n        /* \"LotteryNew.sol\":1545:1546  0 */\n      0x00\n        /* \"LotteryNew.sol\":1525:1538  ticketNumbers */\n      dup3\n        /* \"LotteryNew.sol\":1539:1540  i */\n      dup3\n        /* \"LotteryNew.sol\":1525:1541  ticketNumbers[i] */\n      dup2\n      mload\n      dup2\n      lt\n      tag_67\n      jumpi\n      tag_68\n      tag_65\n      jump\t// in\n    tag_68:\n    tag_67:\n      0x20\n      mul\n      0x20\n      add\n      add\n      mload\n        /* \"LotteryNew.sol\":1525:1546  ticketNumbers[i] >= 0 */\n      lt\n      iszero\n        /* \"LotteryNew.sol\":1500:1546  ticketNumbers[i] < 10 && ticketNumbers[i] >= 0 */\n    tag_66:\n        /* \"LotteryNew.sol\":1492:1563  require(ticketNumbers[i] < 10 && ticketNumbers[i] >= 0, \"Wrong number\") */\n      tag_69\n      jumpi\n      mload(0x40)\n      0x08c379a000000000000000000000000000000000000000000000000000000000\n      dup2\n      mstore\n      0x04\n      add\n      tag_70\n      swap1\n      tag_71\n      jump\t// in\n    tag_70:\n      mload(0x40)\n      dup1\n      swap2\n      sub\n      swap1\n      revert\n    tag_69:\n        /* \"LotteryNew.sol\":1476:1479  i++ */\n      dup1\n      dup1\n      tag_72\n      swap1\n      tag_73\n      jump\t// in\n    tag_72:\n      swap2\n      pop\n      pop\n        /* \"LotteryNew.sol\":1433:1571  for (uint i = 0; i < ticketNumbers.length; i++) {... */\n      jump(tag_60)\n    tag_61:\n      pop\n        /* \"LotteryNew.sol\":1615:1616  0 */\n      0x00\n        /* \"LotteryNew.sol\":1585:1592  players */\n      0x02\n        /* \"LotteryNew.sol\":1585:1604  players[msg.sender] */\n      0x00\n        /* \"LotteryNew.sol\":1593:1603  msg.sender */\n      caller\n        /* \"LotteryNew.sol\":1585:1604  players[msg.sender] */\n      0xffffffffffffffffffffffffffffffffffffffff\n      and\n      0xffffffffffffffffffffffffffffffffffffffff\n      and\n      dup2\n      mstore\n      0x20\n      add\n      swap1\n      dup2\n      mstore\n      0x20\n      add\n      0x00\n      keccak256\n        /* \"LotteryNew.sol\":1585:1611  players[msg.sender].length */\n      dup1\n      sload\n      swap1\n      pop\n        /* \"LotteryNew.sol\":1585:1616  players[msg.sender].length == 0 */\n      eq\n        /* \"LotteryNew.sol\":1577:1653  require(players[msg.sender].length == 0, \"You have already bought a ticket\") */\n      tag_74\n      jumpi\n      mload(0x40)\n      0x08c379a000000000000000000000000000000000000000000000000000000000\n      dup2\n      mstore\n      0x04\n      add\n      tag_75\n      swap1\n      tag_76\n      jump\t// in\n    tag_75:\n      mload(0x40)\n      dup1\n      swap2\n      sub\n      swap1\n      revert\n    tag_74:\n        /* \"LotteryNew.sol\":1682:1695  ticketNumbers */\n      dup1\n        /* \"LotteryNew.sol\":1660:1667  players */\n      0x02\n        /* \"LotteryNew.sol\":1660:1679  players[msg.sender] */\n      0x00\n        /* \"LotteryNew.sol\":1668:1678  msg.sender */\n      caller\n        /* \"LotteryNew.sol\":1660:1679  players[msg.sender] */\n      0xffffffffffffffffffffffffffffffffffffffff\n      and\n      0xffffffffffffffffffffffffffffffffffffffff\n      and\n      dup2\n      mstore\n      0x20\n      add\n      swap1\n      dup2\n      mstore\n      0x20\n      add\n      0x00\n      keccak256\n        /* \"LotteryNew.sol\":1660:1695  players[msg.sender] = ticketNumbers */\n      swap1\n      dup1\n      mload\n      swap1\n      0x20\n      add\n      swap1\n      tag_77\n      swap3\n      swap2\n      swap1\n      tag_78\n      jump\t// in\n    tag_77:\n      pop\n        /* \"LotteryNew.sol\":1723:1732  msg.value */\n      callvalue\n        /* \"LotteryNew.sol\":1702:1719  totalLotteryPrice */\n      0x04\n      0x00\n        /* \"LotteryNew.sol\":1702:1732  totalLotteryPrice += msg.value */\n      dup3\n      dup3\n      sload\n      tag_79\n      swap2\n      swap1\n      tag_80\n      jump\t// in\n    tag_79:\n      swap3\n      pop\n      pop\n      dup2\n      swap1\n      sstore\n      pop\n        /* \"LotteryNew.sol\":1245:1738  function buyTicket(uint[] memory ticketNumbers) public payable {... */\n      pop\n      jump\t// out\n        /* \"LotteryNew.sol\":635:743  function getTotalLotteryPrice() public view returns (uint) {... */\n    tag_22:\n        /* \"LotteryNew.sol\":688:692  uint */\n      0x00\n        /* \"LotteryNew.sol\":728:735  1 ether */\n      0x0de0b6b3a7640000\n        /* \"LotteryNew.sol\":708:725  totalLotteryPrice */\n      sload(0x04)\n        /* \"LotteryNew.sol\":708:735  totalLotteryPrice / 1 ether */\n      tag_82\n      swap2\n      swap1\n      tag_83\n      jump\t// in\n    tag_82:\n        /* \"LotteryNew.sol\":701:735  return totalLotteryPrice / 1 ether */\n      swap1\n      pop\n        /* \"LotteryNew.sol\":635:743  function getTotalLotteryPrice() public view returns (uint) {... */\n      swap1\n      jump\t// out\n        /* \"LotteryNew.sol\":537:627  function getTicketPrice() public view returns (uint) {... */\n    tag_27:\n        /* \"LotteryNew.sol\":584:588  uint */\n      0x00\n        /* \"LotteryNew.sol\":612:619  1 ether */\n      0x0de0b6b3a7640000\n        /* \"LotteryNew.sol\":604:609  price */\n      sload(0x03)\n        /* \"LotteryNew.sol\":604:619  price / 1 ether */\n      tag_85\n      swap2\n      swap1\n      tag_83\n      jump\t// in\n    tag_85:\n        /* \"LotteryNew.sol\":597:619  return price / 1 ether */\n      swap1\n      pop\n        /* \"LotteryNew.sol\":537:627  function getTicketPrice() public view returns (uint) {... */\n      swap1\n      jump\t// out\n        /* \"LotteryNew.sol\":1128:1237  function getWinningNumber() public view onlyOwner returns (uint[] memory) {... */\n    tag_31:\n        /* \"LotteryNew.sol\":1187:1200  uint[] memory */\n      0x60\n        /* \"LotteryNew.sol\":367:372  owner */\n      0x00\n      dup1\n      sload\n      swap1\n      0x0100\n      exp\n      swap1\n      div\n      0xffffffffffffffffffffffffffffffffffffffff\n      and\n        /* \"LotteryNew.sol\":353:372  msg.sender == owner */\n      0xffffffffffffffffffffffffffffffffffffffff\n      and\n        /* \"LotteryNew.sol\":353:363  msg.sender */\n      caller\n        /* \"LotteryNew.sol\":353:372  msg.sender == owner */\n      0xffffffffffffffffffffffffffffffffffffffff\n      and\n      eq\n        /* \"LotteryNew.sol\":345:415  require(msg.sender == owner, \"Only the owner can perform this action\") */\n      tag_87\n      jumpi\n      mload(0x40)\n      0x08c379a000000000000000000000000000000000000000000000000000000000\n      dup2\n      mstore\n      0x04\n      add\n      tag_88\n      swap1\n      tag_49\n      jump\t// in\n    tag_88:\n      mload(0x40)\n      dup1\n      swap2\n      sub\n      swap1\n      revert\n    tag_87:\n        /* \"LotteryNew.sol\":1220:1233  winningNumber */\n      0x01\n        /* \"LotteryNew.sol\":1213:1233  return winningNumber */\n      dup1\n      sload\n      dup1\n      0x20\n      mul\n      0x20\n      add\n      mload(0x40)\n      swap1\n      dup2\n      add\n      0x40\n      mstore\n      dup1\n      swap3\n      swap2\n      swap1\n      dup2\n      dup2\n      mstore\n      0x20\n      add\n      dup3\n      dup1\n      sload\n      dup1\n      iszero\n      tag_90\n      jumpi\n      0x20\n      mul\n      dup3\n      add\n      swap2\n      swap1\n      0x00\n      mstore\n      keccak256(0x00, 0x20)\n      swap1\n    tag_91:\n      dup2\n      sload\n      dup2\n      mstore\n      0x20\n      add\n      swap1\n      0x01\n      add\n      swap1\n      dup1\n      dup4\n      gt\n      tag_91\n      jumpi\n    tag_90:\n      pop\n      pop\n      pop\n      pop\n      pop\n      swap1\n      pop\n        /* \"LotteryNew.sol\":1128:1237  function getWinningNumber() public view onlyOwner returns (uint[] memory) {... */\n      swap1\n      jump\t// out\n        /* \"LotteryNew.sol\":61:81  address public owner */\n    tag_36:\n      0x00\n      dup1\n      sload\n      swap1\n      0x0100\n      exp\n      swap1\n      div\n      0xffffffffffffffffffffffffffffffffffffffff\n      and\n      dup2\n      jump\t// out\n        /* \"LotteryNew.sol\":1746:1849  function getMyTicketNumbers() public view returns (uint[] memory) {... */\n    tag_41:\n        /* \"LotteryNew.sol\":1797:1810  uint[] memory */\n      0x60\n        /* \"LotteryNew.sol\":1826:1833  players */\n      0x02\n        /* \"LotteryNew.sol\":1826:1845  players[msg.sender] */\n      0x00\n        /* \"LotteryNew.sol\":1834:1844  msg.sender */\n      caller\n        /* \"LotteryNew.sol\":1826:1845  players[msg.sender] */\n      0xffffffffffffffffffffffffffffffffffffffff\n      and\n      0xffffffffffffffffffffffffffffffffffffffff\n      and\n      dup2\n      mstore\n      0x20\n      add\n      swap1\n      dup2\n      mstore\n      0x20\n      add\n      0x00\n      keccak256\n        /* \"LotteryNew.sol\":1819:1845  return players[msg.sender] */\n      dup1\n      sload\n      dup1\n      0x20\n      mul\n      0x20\n      add\n      mload(0x40)\n      swap1\n      dup2\n      add\n      0x40\n      mstore\n      dup1\n      swap3\n      swap2\n      swap1\n      dup2\n      dup2\n      mstore\n      0x20\n      add\n      dup3\n      dup1\n      sload\n      dup1\n      iszero\n      tag_93\n      jumpi\n      0x20\n      mul\n      dup3\n      add\n      swap2\n      swap1\n      0x00\n      mstore\n      keccak256(0x00, 0x20)\n      swap1\n    tag_94:\n      dup2\n      sload\n      dup2\n      mstore\n      0x20\n      add\n      swap1\n      0x01\n      add\n      swap1\n      dup1\n      dup4\n      gt\n      tag_94\n      jumpi\n    tag_93:\n      pop\n      pop\n      pop\n      pop\n      pop\n      swap1\n      pop\n        /* \"LotteryNew.sol\":1746:1849  function getMyTicketNumbers() public view returns (uint[] memory) {... */\n      swap1\n      jump\t// out\n        /* \"LotteryNew.sol\":751:1120  function setWinningNumbers() public onlyOwner {... */\n    tag_45:\n        /* \"LotteryNew.sol\":367:372  owner */\n      0x00\n      dup1\n      sload\n      swap1\n      0x0100\n      exp\n      swap1\n      div\n      0xffffffffffffffffffffffffffffffffffffffff\n      and\n        /* \"LotteryNew.sol\":353:372  msg.sender == owner */\n      0xffffffffffffffffffffffffffffffffffffffff\n      and\n        /* \"LotteryNew.sol\":353:363  msg.sender */\n      caller\n        /* \"LotteryNew.sol\":353:372  msg.sender == owner */\n      0xffffffffffffffffffffffffffffffffffffffff\n      and\n      eq\n        /* \"LotteryNew.sol\":345:415  require(msg.sender == owner, \"Only the owner can perform this action\") */\n      tag_96\n      jumpi\n      mload(0x40)\n      0x08c379a000000000000000000000000000000000000000000000000000000000\n      dup2\n      mstore\n      0x04\n      add\n      tag_97\n      swap1\n      tag_49\n      jump\t// in\n    tag_97:\n      mload(0x40)\n      dup1\n      swap2\n      sub\n      swap1\n      revert\n    tag_96:\n        /* \"LotteryNew.sol\":831:832  6 */\n      0x06\n        /* \"LotteryNew.sol\":820:833  new uint[](6) */\n      0xffffffffffffffff\n      dup2\n      gt\n      iszero\n      tag_99\n      jumpi\n      tag_100\n      tag_101\n      jump\t// in\n    tag_100:\n    tag_99:\n      mload(0x40)\n      swap1\n      dup1\n      dup3\n      mstore\n      dup1\n      0x20\n      mul\n      0x20\n      add\n      dup3\n      add\n      0x40\n      mstore\n      dup1\n      iszero\n      tag_102\n      jumpi\n      dup2\n      0x20\n      add\n      0x20\n      dup3\n      mul\n      dup1\n      calldatasize\n      dup4\n      calldatacopy\n      dup1\n      dup3\n      add\n      swap2\n      pop\n      pop\n      swap1\n      pop\n    tag_102:\n      pop\n        /* \"LotteryNew.sol\":804:817  winningNumber */\n      0x01\n        /* \"LotteryNew.sol\":804:833  winningNumber = new uint[](6) */\n      swap1\n      dup1\n      mload\n      swap1\n      0x20\n      add\n      swap1\n      tag_103\n      swap3\n      swap2\n      swap1\n      tag_78\n      jump\t// in\n    tag_103:\n      pop\n        /* \"LotteryNew.sol\":840:852  uint counter */\n      0x00\n        /* \"LotteryNew.sol\":868:874  uint i */\n      dup1\n        /* \"LotteryNew.sol\":863:1117  for (uint i = 0; i < 6; i++) {... */\n    tag_104:\n        /* \"LotteryNew.sol\":884:885  6 */\n      0x06\n        /* \"LotteryNew.sol\":880:881  i */\n      dup2\n        /* \"LotteryNew.sol\":880:885  i < 6 */\n      lt\n        /* \"LotteryNew.sol\":863:1117  for (uint i = 0; i < 6; i++) {... */\n      iszero\n      tag_105\n      jumpi\n        /* \"LotteryNew.sol\":903:923  uint256 randomNumber */\n      0x00\n        /* \"LotteryNew.sol\":985:987  10 */\n      0x0a\n        /* \"LotteryNew.sol\":961:976  block.timestamp */\n      timestamp\n        /* \"LotteryNew.sol\":978:979  i */\n      dup4\n        /* \"LotteryNew.sol\":944:980  abi.encodePacked(block.timestamp, i) */\n      add(0x20, mload(0x40))\n      tag_107\n      swap3\n      swap2\n      swap1\n      tag_108\n      jump\t// in\n    tag_107:\n      mload(0x40)\n      0x20\n      dup2\n      dup4\n      sub\n      sub\n      dup2\n      mstore\n      swap1\n      0x40\n      mstore\n        /* \"LotteryNew.sol\":934:981  keccak256(abi.encodePacked(block.timestamp, i)) */\n      dup1\n      mload\n      swap1\n      0x20\n      add\n      keccak256\n        /* \"LotteryNew.sol\":926:982  uint256(keccak256(abi.encodePacked(block.timestamp, i))) */\n      0x00\n      shr\n        /* \"LotteryNew.sol\":926:987  uint256(keccak256(abi.encodePacked(block.timestamp, i))) % 10 */\n      tag_109\n      swap2\n      swap1\n      tag_110\n      jump\t// in\n    tag_109:\n        /* \"LotteryNew.sol\":903:987  uint256 randomNumber = uint256(keccak256(abi.encodePacked(block.timestamp, i))) % 10 */\n      swap1\n      pop\n        /* \"LotteryNew.sol\":1018:1019  0 */\n      0x00\n        /* \"LotteryNew.sol\":1002:1014  randomNumber */\n      dup2\n        /* \"LotteryNew.sol\":1002:1019  randomNumber != 0 */\n      eq\n        /* \"LotteryNew.sol\":998:1110  if (randomNumber != 0) {... */\n      tag_111\n      jumpi\n        /* \"LotteryNew.sol\":1061:1073  randomNumber */\n      dup1\n        /* \"LotteryNew.sol\":1036:1049  winningNumber */\n      0x01\n        /* \"LotteryNew.sol\":1050:1057  counter */\n      dup5\n        /* \"LotteryNew.sol\":1036:1058  winningNumber[counter] */\n      dup2\n      sload\n      dup2\n      lt\n      tag_112\n      jumpi\n      tag_113\n      tag_65\n      jump\t// in\n    tag_113:\n    tag_112:\n      swap1\n      0x00\n      mstore\n      keccak256(0x00, 0x20)\n      add\n        /* \"LotteryNew.sol\":1036:1073  winningNumber[counter] = randomNumber */\n      dup2\n      swap1\n      sstore\n      pop\n        /* \"LotteryNew.sol\":1089:1098  counter++ */\n      dup3\n      dup1\n      tag_115\n      swap1\n      tag_73\n      jump\t// in\n    tag_115:\n      swap4\n      pop\n      pop\n        /* \"LotteryNew.sol\":998:1110  if (randomNumber != 0) {... */\n    tag_111:\n        /* \"LotteryNew.sol\":892:1117  {... */\n      pop\n        /* \"LotteryNew.sol\":887:890  i++ */\n      dup1\n      dup1\n      tag_116\n      swap1\n      tag_73\n      jump\t// in\n    tag_116:\n      swap2\n      pop\n      pop\n        /* \"LotteryNew.sol\":863:1117  for (uint i = 0; i < 6; i++) {... */\n      jump(tag_104)\n    tag_105:\n      pop\n        /* \"LotteryNew.sol\":797:1120  {... */\n      pop\n        /* \"LotteryNew.sol\":751:1120  function setWinningNumbers() public onlyOwner {... */\n      jump\t// out\n    tag_78:\n      dup3\n      dup1\n      sload\n      dup3\n      dup3\n      sstore\n      swap1\n      0x00\n      mstore\n      keccak256(0x00, 0x20)\n      swap1\n      dup2\n      add\n      swap3\n      dup3\n      iszero\n      tag_117\n      jumpi\n      swap2\n      0x20\n      mul\n      dup3\n      add\n    tag_118:\n      dup3\n      dup2\n      gt\n      iszero\n      tag_119\n      jumpi\n      dup3\n      mload\n      dup3\n      sstore\n      swap2\n      0x20\n      add\n      swap2\n      swap1\n      0x01\n      add\n      swap1\n      jump(tag_118)\n    tag_119:\n    tag_117:\n      pop\n      swap1\n      pop\n      tag_120\n      swap2\n      swap1\n      tag_121\n      jump\t// in\n    tag_120:\n      pop\n      swap1\n      jump\t// out\n    tag_121:\n    tag_122:\n      dup1\n      dup3\n      gt\n      iszero\n      tag_123\n      jumpi\n      0x00\n      dup2\n      0x00\n      swap1\n      sstore\n      pop\n      0x01\n      add\n      jump(tag_122)\n    tag_123:\n      pop\n      swap1\n      jump\t// out\n        /* \"#utility.yul\":7:82   */\n    tag_124:\n        /* \"#utility.yul\":40:46   */\n      0x00\n        /* \"#utility.yul\":73:75   */\n      0x40\n        /* \"#utility.yul\":67:76   */\n      mload\n        /* \"#utility.yul\":57:76   */\n      swap1\n      pop\n        /* \"#utility.yul\":7:82   */\n      swap1\n      jump\t// out\n        /* \"#utility.yul\":88:205   */\n    tag_125:\n        /* \"#utility.yul\":197:198   */\n      0x00\n        /* \"#utility.yul\":194:195   */\n      dup1\n        /* \"#utility.yul\":187:199   */\n      revert\n        /* \"#utility.yul\":211:328   */\n    tag_126:\n        /* \"#utility.yul\":320:321   */\n      0x00\n        /* \"#utility.yul\":317:318   */\n      dup1\n        /* \"#utility.yul\":310:322   */\n      revert\n        /* \"#utility.yul\":334:411   */\n    tag_127:\n        /* \"#utility.yul\":371:378   */\n      0x00\n        /* \"#utility.yul\":400:405   */\n      dup2\n        /* \"#utility.yul\":389:405   */\n      swap1\n      pop\n        /* \"#utility.yul\":334:411   */\n      swap2\n      swap1\n      pop\n      jump\t// out\n        /* \"#utility.yul\":417:539   */\n    tag_128:\n        /* \"#utility.yul\":490:514   */\n      tag_170\n        /* \"#utility.yul\":508:513   */\n      dup2\n        /* \"#utility.yul\":490:514   */\n      tag_127\n      jump\t// in\n    tag_170:\n        /* \"#utility.yul\":483:488   */\n      dup2\n        /* \"#utility.yul\":480:515   */\n      eq\n        /* \"#utility.yul\":470:533   */\n      tag_171\n      jumpi\n        /* \"#utility.yul\":529:530   */\n      0x00\n        /* \"#utility.yul\":526:527   */\n      dup1\n        /* \"#utility.yul\":519:531   */\n      revert\n        /* \"#utility.yul\":470:533   */\n    tag_171:\n        /* \"#utility.yul\":417:539   */\n      pop\n      jump\t// out\n        /* \"#utility.yul\":545:684   */\n    tag_129:\n        /* \"#utility.yul\":591:596   */\n      0x00\n        /* \"#utility.yul\":629:635   */\n      dup2\n        /* \"#utility.yul\":616:636   */\n      calldataload\n        /* \"#utility.yul\":607:636   */\n      swap1\n      pop\n        /* \"#utility.yul\":645:678   */\n      tag_173\n        /* \"#utility.yul\":672:677   */\n      dup2\n        /* \"#utility.yul\":645:678   */\n      tag_128\n      jump\t// in\n    tag_173:\n        /* \"#utility.yul\":545:684   */\n      swap3\n      swap2\n      pop\n      pop\n      jump\t// out\n        /* \"#utility.yul\":690:1019   */\n    tag_14:\n        /* \"#utility.yul\":749:755   */\n      0x00\n        /* \"#utility.yul\":798:800   */\n      0x20\n        /* \"#utility.yul\":786:795   */\n      dup3\n        /* \"#utility.yul\":777:784   */\n      dup5\n        /* \"#utility.yul\":773:796   */\n      sub\n        /* \"#utility.yul\":769:801   */\n      slt\n        /* \"#utility.yul\":766:885   */\n      iszero\n      tag_175\n      jumpi\n        /* \"#utility.yul\":804:883   */\n      tag_176\n      tag_125\n      jump\t// in\n    tag_176:\n        /* \"#utility.yul\":766:885   */\n    tag_175:\n        /* \"#utility.yul\":924:925   */\n      0x00\n        /* \"#utility.yul\":949:1002   */\n      tag_177\n        /* \"#utility.yul\":994:1001   */\n      dup5\n        /* \"#utility.yul\":985:991   */\n      dup3\n        /* \"#utility.yul\":974:983   */\n      dup6\n        /* \"#utility.yul\":970:992   */\n      add\n        /* \"#utility.yul\":949:1002   */\n      tag_129\n      jump\t// in\n    tag_177:\n        /* \"#utility.yul\":939:1002   */\n      swap2\n      pop\n        /* \"#utility.yul\":895:1012   */\n      pop\n        /* \"#utility.yul\":690:1019   */\n      swap3\n      swap2\n      pop\n      pop\n      jump\t// out\n        /* \"#utility.yul\":1025:1142   */\n    tag_130:\n        /* \"#utility.yul\":1134:1135   */\n      0x00\n        /* \"#utility.yul\":1131:1132   */\n      dup1\n        /* \"#utility.yul\":1124:1136   */\n      revert\n        /* \"#utility.yul\":1148:1250   */\n    tag_131:\n        /* \"#utility.yul\":1189:1195   */\n      0x00\n        /* \"#utility.yul\":1240:1242   */\n      0x1f\n        /* \"#utility.yul\":1236:1243   */\n      not\n        /* \"#utility.yul\":1231:1233   */\n      0x1f\n        /* \"#utility.yul\":1224:1229   */\n      dup4\n        /* \"#utility.yul\":1220:1234   */\n      add\n        /* \"#utility.yul\":1216:1244   */\n      and\n        /* \"#utility.yul\":1206:1244   */\n      swap1\n      pop\n        /* \"#utility.yul\":1148:1250   */\n      swap2\n      swap1\n      pop\n      jump\t// out\n        /* \"#utility.yul\":1256:1436   */\n    tag_101:\n        /* \"#utility.yul\":1304:1381   */\n      0x4e487b7100000000000000000000000000000000000000000000000000000000\n        /* \"#utility.yul\":1301:1302   */\n      0x00\n        /* \"#utility.yul\":1294:1382   */\n      mstore\n        /* \"#utility.yul\":1401:1405   */\n      0x41\n        /* \"#utility.yul\":1398:1399   */\n      0x04\n        /* \"#utility.yul\":1391:1406   */\n      mstore\n        /* \"#utility.yul\":1425:1429   */\n      0x24\n        /* \"#utility.yul\":1422:1423   */\n      0x00\n        /* \"#utility.yul\":1415:1430   */\n      revert\n        /* \"#utility.yul\":1442:1723   */\n    tag_132:\n        /* \"#utility.yul\":1525:1552   */\n      tag_182\n        /* \"#utility.yul\":1547:1551   */\n      dup3\n        /* \"#utility.yul\":1525:1552   */\n      tag_131\n      jump\t// in\n    tag_182:\n        /* \"#utility.yul\":1517:1523   */\n      dup2\n        /* \"#utility.yul\":1513:1553   */\n      add\n        /* \"#utility.yul\":1655:1661   */\n      dup2\n        /* \"#utility.yul\":1643:1653   */\n      dup2\n        /* \"#utility.yul\":1640:1662   */\n      lt\n        /* \"#utility.yul\":1619:1637   */\n      0xffffffffffffffff\n        /* \"#utility.yul\":1607:1617   */\n      dup3\n        /* \"#utility.yul\":1604:1638   */\n      gt\n        /* \"#utility.yul\":1601:1663   */\n      or\n        /* \"#utility.yul\":1598:1686   */\n      iszero\n      tag_183\n      jumpi\n        /* \"#utility.yul\":1666:1684   */\n      tag_184\n      tag_101\n      jump\t// in\n    tag_184:\n        /* \"#utility.yul\":1598:1686   */\n    tag_183:\n        /* \"#utility.yul\":1706:1716   */\n      dup1\n        /* \"#utility.yul\":1702:1704   */\n      0x40\n        /* \"#utility.yul\":1695:1717   */\n      mstore\n        /* \"#utility.yul\":1485:1723   */\n      pop\n        /* \"#utility.yul\":1442:1723   */\n      pop\n      pop\n      jump\t// out\n        /* \"#utility.yul\":1729:1858   */\n    tag_133:\n        /* \"#utility.yul\":1763:1769   */\n      0x00\n        /* \"#utility.yul\":1790:1810   */\n      tag_186\n      tag_124\n      jump\t// in\n    tag_186:\n        /* \"#utility.yul\":1780:1810   */\n      swap1\n      pop\n        /* \"#utility.yul\":1819:1852   */\n      tag_187\n        /* \"#utility.yul\":1847:1851   */\n      dup3\n        /* \"#utility.yul\":1839:1845   */\n      dup3\n        /* \"#utility.yul\":1819:1852   */\n      tag_132\n      jump\t// in\n    tag_187:\n        /* \"#utility.yul\":1729:1858   */\n      swap2\n      swap1\n      pop\n      jump\t// out\n        /* \"#utility.yul\":1864:2175   */\n    tag_134:\n        /* \"#utility.yul\":1941:1945   */\n      0x00\n        /* \"#utility.yul\":2031:2049   */\n      0xffffffffffffffff\n        /* \"#utility.yul\":2023:2029   */\n      dup3\n        /* \"#utility.yul\":2020:2050   */\n      gt\n        /* \"#utility.yul\":2017:2073   */\n      iszero\n      tag_189\n      jumpi\n        /* \"#utility.yul\":2053:2071   */\n      tag_190\n      tag_101\n      jump\t// in\n    tag_190:\n        /* \"#utility.yul\":2017:2073   */\n    tag_189:\n        /* \"#utility.yul\":2103:2107   */\n      0x20\n        /* \"#utility.yul\":2095:2101   */\n      dup3\n        /* \"#utility.yul\":2091:2108   */\n      mul\n        /* \"#utility.yul\":2083:2108   */\n      swap1\n      pop\n        /* \"#utility.yul\":2163:2167   */\n      0x20\n        /* \"#utility.yul\":2157:2161   */\n      dup2\n        /* \"#utility.yul\":2153:2168   */\n      add\n        /* \"#utility.yul\":2145:2168   */\n      swap1\n      pop\n        /* \"#utility.yul\":1864:2175   */\n      swap2\n      swap1\n      pop\n      jump\t// out\n        /* \"#utility.yul\":2181:2298   */\n    tag_135:\n        /* \"#utility.yul\":2290:2291   */\n      0x00\n        /* \"#utility.yul\":2287:2288   */\n      dup1\n        /* \"#utility.yul\":2280:2292   */\n      revert\n        /* \"#utility.yul\":2321:3031   */\n    tag_136:\n        /* \"#utility.yul\":2417:2422   */\n      0x00\n        /* \"#utility.yul\":2442:2523   */\n      tag_193\n        /* \"#utility.yul\":2458:2522   */\n      tag_194\n        /* \"#utility.yul\":2515:2521   */\n      dup5\n        /* \"#utility.yul\":2458:2522   */\n      tag_134\n      jump\t// in\n    tag_194:\n        /* \"#utility.yul\":2442:2523   */\n      tag_133\n      jump\t// in\n    tag_193:\n        /* \"#utility.yul\":2433:2523   */\n      swap1\n      pop\n        /* \"#utility.yul\":2543:2548   */\n      dup1\n        /* \"#utility.yul\":2572:2578   */\n      dup4\n        /* \"#utility.yul\":2565:2570   */\n      dup3\n        /* \"#utility.yul\":2558:2579   */\n      mstore\n        /* \"#utility.yul\":2606:2610   */\n      0x20\n        /* \"#utility.yul\":2599:2604   */\n      dup3\n        /* \"#utility.yul\":2595:2611   */\n      add\n        /* \"#utility.yul\":2588:2611   */\n      swap1\n      pop\n        /* \"#utility.yul\":2659:2663   */\n      0x20\n        /* \"#utility.yul\":2651:2657   */\n      dup5\n        /* \"#utility.yul\":2647:2664   */\n      mul\n        /* \"#utility.yul\":2639:2645   */\n      dup4\n        /* \"#utility.yul\":2635:2665   */\n      add\n        /* \"#utility.yul\":2688:2691   */\n      dup6\n        /* \"#utility.yul\":2680:2686   */\n      dup2\n        /* \"#utility.yul\":2677:2692   */\n      gt\n        /* \"#utility.yul\":2674:2796   */\n      iszero\n      tag_195\n      jumpi\n        /* \"#utility.yul\":2707:2786   */\n      tag_196\n      tag_135\n      jump\t// in\n    tag_196:\n        /* \"#utility.yul\":2674:2796   */\n    tag_195:\n        /* \"#utility.yul\":2822:2828   */\n      dup4\n        /* \"#utility.yul\":2805:3025   */\n    tag_197:\n        /* \"#utility.yul\":2839:2845   */\n      dup2\n        /* \"#utility.yul\":2834:2837   */\n      dup2\n        /* \"#utility.yul\":2831:2846   */\n      lt\n        /* \"#utility.yul\":2805:3025   */\n      iszero\n      tag_199\n      jumpi\n        /* \"#utility.yul\":2914:2917   */\n      dup1\n        /* \"#utility.yul\":2943:2980   */\n      tag_200\n        /* \"#utility.yul\":2976:2979   */\n      dup9\n        /* \"#utility.yul\":2964:2974   */\n      dup3\n        /* \"#utility.yul\":2943:2980   */\n      tag_129\n      jump\t// in\n    tag_200:\n        /* \"#utility.yul\":2938:2941   */\n      dup5\n        /* \"#utility.yul\":2931:2981   */\n      mstore\n        /* \"#utility.yul\":3010:3014   */\n      0x20\n        /* \"#utility.yul\":3005:3008   */\n      dup5\n        /* \"#utility.yul\":3001:3015   */\n      add\n        /* \"#utility.yul\":2994:3015   */\n      swap4\n      pop\n        /* \"#utility.yul\":2881:3025   */\n      pop\n        /* \"#utility.yul\":2865:2869   */\n      0x20\n        /* \"#utility.yul\":2860:2863   */\n      dup2\n        /* \"#utility.yul\":2856:2870   */\n      add\n        /* \"#utility.yul\":2849:2870   */\n      swap1\n      pop\n        /* \"#utility.yul\":2805:3025   */\n      jump(tag_197)\n    tag_199:\n        /* \"#utility.yul\":2809:2830   */\n      pop\n        /* \"#utility.yul\":2423:3031   */\n      pop\n      pop\n        /* \"#utility.yul\":2321:3031   */\n      swap4\n      swap3\n      pop\n      pop\n      pop\n      jump\t// out\n        /* \"#utility.yul\":3054:3424   */\n    tag_137:\n        /* \"#utility.yul\":3125:3130   */\n      0x00\n        /* \"#utility.yul\":3174:3177   */\n      dup3\n        /* \"#utility.yul\":3167:3171   */\n      0x1f\n        /* \"#utility.yul\":3159:3165   */\n      dup4\n        /* \"#utility.yul\":3155:3172   */\n      add\n        /* \"#utility.yul\":3151:3178   */\n      slt\n        /* \"#utility.yul\":3141:3263   */\n      tag_202\n      jumpi\n        /* \"#utility.yul\":3182:3261   */\n      tag_203\n      tag_130\n      jump\t// in\n    tag_203:\n        /* \"#utility.yul\":3141:3263   */\n    tag_202:\n        /* \"#utility.yul\":3299:3305   */\n      dup2\n        /* \"#utility.yul\":3286:3306   */\n      calldataload\n        /* \"#utility.yul\":3324:3418   */\n      tag_204\n        /* \"#utility.yul\":3414:3417   */\n      dup5\n        /* \"#utility.yul\":3406:3412   */\n      dup3\n        /* \"#utility.yul\":3399:3403   */\n      0x20\n        /* \"#utility.yul\":3391:3397   */\n      dup7\n        /* \"#utility.yul\":3387:3404   */\n      add\n        /* \"#utility.yul\":3324:3418   */\n      tag_136\n      jump\t// in\n    tag_204:\n        /* \"#utility.yul\":3315:3418   */\n      swap2\n      pop\n        /* \"#utility.yul\":3131:3424   */\n      pop\n        /* \"#utility.yul\":3054:3424   */\n      swap3\n      swap2\n      pop\n      pop\n      jump\t// out\n        /* \"#utility.yul\":3430:3969   */\n    tag_18:\n        /* \"#utility.yul\":3514:3520   */\n      0x00\n        /* \"#utility.yul\":3563:3565   */\n      0x20\n        /* \"#utility.yul\":3551:3560   */\n      dup3\n        /* \"#utility.yul\":3542:3549   */\n      dup5\n        /* \"#utility.yul\":3538:3561   */\n      sub\n        /* \"#utility.yul\":3534:3566   */\n      slt\n        /* \"#utility.yul\":3531:3650   */\n      iszero\n      tag_206\n      jumpi\n        /* \"#utility.yul\":3569:3648   */\n      tag_207\n      tag_125\n      jump\t// in\n    tag_207:\n        /* \"#utility.yul\":3531:3650   */\n    tag_206:\n        /* \"#utility.yul\":3717:3718   */\n      0x00\n        /* \"#utility.yul\":3706:3715   */\n      dup3\n        /* \"#utility.yul\":3702:3719   */\n      add\n        /* \"#utility.yul\":3689:3720   */\n      calldataload\n        /* \"#utility.yul\":3747:3765   */\n      0xffffffffffffffff\n        /* \"#utility.yul\":3739:3745   */\n      dup2\n        /* \"#utility.yul\":3736:3766   */\n      gt\n        /* \"#utility.yul\":3733:3850   */\n      iszero\n      tag_208\n      jumpi\n        /* \"#utility.yul\":3769:3848   */\n      tag_209\n      tag_126\n      jump\t// in\n    tag_209:\n        /* \"#utility.yul\":3733:3850   */\n    tag_208:\n        /* \"#utility.yul\":3874:3952   */\n      tag_210\n        /* \"#utility.yul\":3944:3951   */\n      dup5\n        /* \"#utility.yul\":3935:3941   */\n      dup3\n        /* \"#utility.yul\":3924:3933   */\n      dup6\n        /* \"#utility.yul\":3920:3942   */\n      add\n        /* \"#utility.yul\":3874:3952   */\n      tag_137\n      jump\t// in\n    tag_210:\n        /* \"#utility.yul\":3864:3952   */\n      swap2\n      pop\n        /* \"#utility.yul\":3660:3962   */\n      pop\n        /* \"#utility.yul\":3430:3969   */\n      swap3\n      swap2\n      pop\n      pop\n      jump\t// out\n        /* \"#utility.yul\":3975:4093   */\n    tag_138:\n        /* \"#utility.yul\":4062:4086   */\n      tag_212\n        /* \"#utility.yul\":4080:4085   */\n      dup2\n        /* \"#utility.yul\":4062:4086   */\n      tag_127\n      jump\t// in\n    tag_212:\n        /* \"#utility.yul\":4057:4060   */\n      dup3\n        /* \"#utility.yul\":4050:4087   */\n      mstore\n        /* \"#utility.yul\":3975:4093   */\n      pop\n      pop\n      jump\t// out\n        /* \"#utility.yul\":4099:4321   */\n    tag_24:\n        /* \"#utility.yul\":4192:4196   */\n      0x00\n        /* \"#utility.yul\":4230:4232   */\n      0x20\n        /* \"#utility.yul\":4219:4228   */\n      dup3\n        /* \"#utility.yul\":4215:4233   */\n      add\n        /* \"#utility.yul\":4207:4233   */\n      swap1\n      pop\n        /* \"#utility.yul\":4243:4314   */\n      tag_214\n        /* \"#utility.yul\":4311:4312   */\n      0x00\n        /* \"#utility.yul\":4300:4309   */\n      dup4\n        /* \"#utility.yul\":4296:4313   */\n      add\n        /* \"#utility.yul\":4287:4293   */\n      dup5\n        /* \"#utility.yul\":4243:4314   */\n      tag_138\n      jump\t// in\n    tag_214:\n        /* \"#utility.yul\":4099:4321   */\n      swap3\n      swap2\n      pop\n      pop\n      jump\t// out\n        /* \"#utility.yul\":4327:4441   */\n    tag_139:\n        /* \"#utility.yul\":4394:4400   */\n      0x00\n        /* \"#utility.yul\":4428:4433   */\n      dup2\n        /* \"#utility.yul\":4422:4434   */\n      mload\n        /* \"#utility.yul\":4412:4434   */\n      swap1\n      pop\n        /* \"#utility.yul\":4327:4441   */\n      swap2\n      swap1\n      pop\n      jump\t// out\n        /* \"#utility.yul\":4447:4631   */\n    tag_140:\n        /* \"#utility.yul\":4546:4557   */\n      0x00\n        /* \"#utility.yul\":4580:4586   */\n      dup3\n        /* \"#utility.yul\":4575:4578   */\n      dup3\n        /* \"#utility.yul\":4568:4587   */\n      mstore\n        /* \"#utility.yul\":4620:4624   */\n      0x20\n        /* \"#utility.yul\":4615:4618   */\n      dup3\n        /* \"#utility.yul\":4611:4625   */\n      add\n        /* \"#utility.yul\":4596:4625   */\n      swap1\n      pop\n        /* \"#utility.yul\":4447:4631   */\n      swap3\n      swap2\n      pop\n      pop\n      jump\t// out\n        /* \"#utility.yul\":4637:4769   */\n    tag_141:\n        /* \"#utility.yul\":4704:4708   */\n      0x00\n        /* \"#utility.yul\":4727:4730   */\n      dup2\n        /* \"#utility.yul\":4719:4730   */\n      swap1\n      pop\n        /* \"#utility.yul\":4757:4761   */\n      0x20\n        /* \"#utility.yul\":4752:4755   */\n      dup3\n        /* \"#utility.yul\":4748:4762   */\n      add\n        /* \"#utility.yul\":4740:4762   */\n      swap1\n      pop\n        /* \"#utility.yul\":4637:4769   */\n      swap2\n      swap1\n      pop\n      jump\t// out\n        /* \"#utility.yul\":4775:4883   */\n    tag_142:\n        /* \"#utility.yul\":4852:4876   */\n      tag_219\n        /* \"#utility.yul\":4870:4875   */\n      dup2\n        /* \"#utility.yul\":4852:4876   */\n      tag_127\n      jump\t// in\n    tag_219:\n        /* \"#utility.yul\":4847:4850   */\n      dup3\n        /* \"#utility.yul\":4840:4877   */\n      mstore\n        /* \"#utility.yul\":4775:4883   */\n      pop\n      pop\n      jump\t// out\n        /* \"#utility.yul\":4889:5068   */\n    tag_143:\n        /* \"#utility.yul\":4958:4968   */\n      0x00\n        /* \"#utility.yul\":4979:5025   */\n      tag_221\n        /* \"#utility.yul\":5021:5024   */\n      dup4\n        /* \"#utility.yul\":5013:5019   */\n      dup4\n        /* \"#utility.yul\":4979:5025   */\n      tag_142\n      jump\t// in\n    tag_221:\n        /* \"#utility.yul\":5057:5061   */\n      0x20\n        /* \"#utility.yul\":5052:5055   */\n      dup4\n        /* \"#utility.yul\":5048:5062   */\n      add\n        /* \"#utility.yul\":5034:5062   */\n      swap1\n      pop\n        /* \"#utility.yul\":4889:5068   */\n      swap3\n      swap2\n      pop\n      pop\n      jump\t// out\n        /* \"#utility.yul\":5074:5187   */\n    tag_144:\n        /* \"#utility.yul\":5144:5148   */\n      0x00\n        /* \"#utility.yul\":5176:5180   */\n      0x20\n        /* \"#utility.yul\":5171:5174   */\n      dup3\n        /* \"#utility.yul\":5167:5181   */\n      add\n        /* \"#utility.yul\":5159:5181   */\n      swap1\n      pop\n        /* \"#utility.yul\":5074:5187   */\n      swap2\n      swap1\n      pop\n      jump\t// out\n        /* \"#utility.yul\":5223:5955   */\n    tag_145:\n        /* \"#utility.yul\":5342:5345   */\n      0x00\n        /* \"#utility.yul\":5371:5425   */\n      tag_224\n        /* \"#utility.yul\":5419:5424   */\n      dup3\n        /* \"#utility.yul\":5371:5425   */\n      tag_139\n      jump\t// in\n    tag_224:\n        /* \"#utility.yul\":5441:5527   */\n      tag_225\n        /* \"#utility.yul\":5520:5526   */\n      dup2\n        /* \"#utility.yul\":5515:5518   */\n      dup6\n        /* \"#utility.yul\":5441:5527   */\n      tag_140\n      jump\t// in\n    tag_225:\n        /* \"#utility.yul\":5434:5527   */\n      swap4\n      pop\n        /* \"#utility.yul\":5551:5607   */\n      tag_226\n        /* \"#utility.yul\":5601:5606   */\n      dup4\n        /* \"#utility.yul\":5551:5607   */\n      tag_141\n      jump\t// in\n    tag_226:\n        /* \"#utility.yul\":5630:5637   */\n      dup1\n        /* \"#utility.yul\":5661:5662   */\n      0x00\n        /* \"#utility.yul\":5646:5930   */\n    tag_227:\n        /* \"#utility.yul\":5671:5677   */\n      dup4\n        /* \"#utility.yul\":5668:5669   */\n      dup2\n        /* \"#utility.yul\":5665:5678   */\n      lt\n        /* \"#utility.yul\":5646:5930   */\n      iszero\n      tag_229\n      jumpi\n        /* \"#utility.yul\":5747:5753   */\n      dup2\n        /* \"#utility.yul\":5741:5754   */\n      mload\n        /* \"#utility.yul\":5774:5837   */\n      tag_230\n        /* \"#utility.yul\":5833:5836   */\n      dup9\n        /* \"#utility.yul\":5818:5831   */\n      dup3\n        /* \"#utility.yul\":5774:5837   */\n      tag_143\n      jump\t// in\n    tag_230:\n        /* \"#utility.yul\":5767:5837   */\n      swap8\n      pop\n        /* \"#utility.yul\":5860:5920   */\n      tag_231\n        /* \"#utility.yul\":5913:5919   */\n      dup4\n        /* \"#utility.yul\":5860:5920   */\n      tag_144\n      jump\t// in\n    tag_231:\n        /* \"#utility.yul\":5850:5920   */\n      swap3\n      pop\n        /* \"#utility.yul\":5706:5930   */\n      pop\n        /* \"#utility.yul\":5693:5694   */\n      0x01\n        /* \"#utility.yul\":5690:5691   */\n      dup2\n        /* \"#utility.yul\":5686:5695   */\n      add\n        /* \"#utility.yul\":5681:5695   */\n      swap1\n      pop\n        /* \"#utility.yul\":5646:5930   */\n      jump(tag_227)\n    tag_229:\n        /* \"#utility.yul\":5650:5664   */\n      pop\n        /* \"#utility.yul\":5946:5949   */\n      dup6\n        /* \"#utility.yul\":5939:5949   */\n      swap4\n      pop\n        /* \"#utility.yul\":5347:5955   */\n      pop\n      pop\n      pop\n        /* \"#utility.yul\":5223:5955   */\n      swap3\n      swap2\n      pop\n      pop\n      jump\t// out\n        /* \"#utility.yul\":5961:6334   */\n    tag_33:\n        /* \"#utility.yul\":6104:6108   */\n      0x00\n        /* \"#utility.yul\":6142:6144   */\n      0x20\n        /* \"#utility.yul\":6131:6140   */\n      dup3\n        /* \"#utility.yul\":6127:6145   */\n      add\n        /* \"#utility.yul\":6119:6145   */\n      swap1\n      pop\n        /* \"#utility.yul\":6191:6200   */\n      dup2\n        /* \"#utility.yul\":6185:6189   */\n      dup2\n        /* \"#utility.yul\":6181:6201   */\n      sub\n        /* \"#utility.yul\":6177:6178   */\n      0x00\n        /* \"#utility.yul\":6166:6175   */\n      dup4\n        /* \"#utility.yul\":6162:6179   */\n      add\n        /* \"#utility.yul\":6155:6202   */\n      mstore\n        /* \"#utility.yul\":6219:6327   */\n      tag_233\n        /* \"#utility.yul\":6322:6326   */\n      dup2\n        /* \"#utility.yul\":6313:6319   */\n      dup5\n        /* \"#utility.yul\":6219:6327   */\n      tag_145\n      jump\t// in\n    tag_233:\n        /* \"#utility.yul\":6211:6327   */\n      swap1\n      pop\n        /* \"#utility.yul\":5961:6334   */\n      swap3\n      swap2\n      pop\n      pop\n      jump\t// out\n        /* \"#utility.yul\":6340:6466   */\n    tag_146:\n        /* \"#utility.yul\":6377:6384   */\n      0x00\n        /* \"#utility.yul\":6417:6459   */\n      0xffffffffffffffffffffffffffffffffffffffff\n        /* \"#utility.yul\":6410:6415   */\n      dup3\n        /* \"#utility.yul\":6406:6460   */\n      and\n        /* \"#utility.yul\":6395:6460   */\n      swap1\n      pop\n        /* \"#utility.yul\":6340:6466   */\n      swap2\n      swap1\n      pop\n      jump\t// out\n        /* \"#utility.yul\":6472:6568   */\n    tag_147:\n        /* \"#utility.yul\":6509:6516   */\n      0x00\n        /* \"#utility.yul\":6538:6562   */\n      tag_236\n        /* \"#utility.yul\":6556:6561   */\n      dup3\n        /* \"#utility.yul\":6538:6562   */\n      tag_146\n      jump\t// in\n    tag_236:\n        /* \"#utility.yul\":6527:6562   */\n      swap1\n      pop\n        /* \"#utility.yul\":6472:6568   */\n      swap2\n      swap1\n      pop\n      jump\t// out\n        /* \"#utility.yul\":6574:6692   */\n    tag_148:\n        /* \"#utility.yul\":6661:6685   */\n      tag_238\n        /* \"#utility.yul\":6679:6684   */\n      dup2\n        /* \"#utility.yul\":6661:6685   */\n      tag_147\n      jump\t// in\n    tag_238:\n        /* \"#utility.yul\":6656:6659   */\n      dup3\n        /* \"#utility.yul\":6649:6686   */\n      mstore\n        /* \"#utility.yul\":6574:6692   */\n      pop\n      pop\n      jump\t// out\n        /* \"#utility.yul\":6698:6920   */\n    tag_38:\n        /* \"#utility.yul\":6791:6795   */\n      0x00\n        /* \"#utility.yul\":6829:6831   */\n      0x20\n        /* \"#utility.yul\":6818:6827   */\n      dup3\n        /* \"#utility.yul\":6814:6832   */\n      add\n        /* \"#utility.yul\":6806:6832   */\n      swap1\n      pop\n        /* \"#utility.yul\":6842:6913   */\n      tag_240\n        /* \"#utility.yul\":6910:6911   */\n      0x00\n        /* \"#utility.yul\":6899:6908   */\n      dup4\n        /* \"#utility.yul\":6895:6912   */\n      add\n        /* \"#utility.yul\":6886:6892   */\n      dup5\n        /* \"#utility.yul\":6842:6913   */\n      tag_148\n      jump\t// in\n    tag_240:\n        /* \"#utility.yul\":6698:6920   */\n      swap3\n      swap2\n      pop\n      pop\n      jump\t// out\n        /* \"#utility.yul\":6926:7095   */\n    tag_149:\n        /* \"#utility.yul\":7010:7021   */\n      0x00\n        /* \"#utility.yul\":7044:7050   */\n      dup3\n        /* \"#utility.yul\":7039:7042   */\n      dup3\n        /* \"#utility.yul\":7032:7051   */\n      mstore\n        /* \"#utility.yul\":7084:7088   */\n      0x20\n        /* \"#utility.yul\":7079:7082   */\n      dup3\n        /* \"#utility.yul\":7075:7089   */\n      add\n        /* \"#utility.yul\":7060:7089   */\n      swap1\n      pop\n        /* \"#utility.yul\":6926:7095   */\n      swap3\n      swap2\n      pop\n      pop\n      jump\t// out\n        /* \"#utility.yul\":7101:7326   */\n    tag_150:\n        /* \"#utility.yul\":7241:7275   */\n      0x4f6e6c7920746865206f776e65722063616e20706572666f726d207468697320\n        /* \"#utility.yul\":7237:7238   */\n      0x00\n        /* \"#utility.yul\":7229:7235   */\n      dup3\n        /* \"#utility.yul\":7225:7239   */\n      add\n        /* \"#utility.yul\":7218:7276   */\n      mstore\n        /* \"#utility.yul\":7310:7318   */\n      0x616374696f6e0000000000000000000000000000000000000000000000000000\n        /* \"#utility.yul\":7305:7307   */\n      0x20\n        /* \"#utility.yul\":7297:7303   */\n      dup3\n        /* \"#utility.yul\":7293:7308   */\n      add\n        /* \"#utility.yul\":7286:7319   */\n      mstore\n        /* \"#utility.yul\":7101:7326   */\n      pop\n      jump\t// out\n        /* \"#utility.yul\":7332:7698   */\n    tag_151:\n        /* \"#utility.yul\":7474:7477   */\n      0x00\n        /* \"#utility.yul\":7495:7562   */\n      tag_244\n        /* \"#utility.yul\":7559:7561   */\n      0x26\n        /* \"#utility.yul\":7554:7557   */\n      dup4\n        /* \"#utility.yul\":7495:7562   */\n      tag_149\n      jump\t// in\n    tag_244:\n        /* \"#utility.yul\":7488:7562   */\n      swap2\n      pop\n        /* \"#utility.yul\":7571:7664   */\n      tag_245\n        /* \"#utility.yul\":7660:7663   */\n      dup3\n        /* \"#utility.yul\":7571:7664   */\n      tag_150\n      jump\t// in\n    tag_245:\n        /* \"#utility.yul\":7689:7691   */\n      0x40\n        /* \"#utility.yul\":7684:7687   */\n      dup3\n        /* \"#utility.yul\":7680:7692   */\n      add\n        /* \"#utility.yul\":7673:7692   */\n      swap1\n      pop\n        /* \"#utility.yul\":7332:7698   */\n      swap2\n      swap1\n      pop\n      jump\t// out\n        /* \"#utility.yul\":7704:8123   */\n    tag_49:\n        /* \"#utility.yul\":7870:7874   */\n      0x00\n        /* \"#utility.yul\":7908:7910   */\n      0x20\n        /* \"#utility.yul\":7897:7906   */\n      dup3\n        /* \"#utility.yul\":7893:7911   */\n      add\n        /* \"#utility.yul\":7885:7911   */\n      swap1\n      pop\n        /* \"#utility.yul\":7957:7966   */\n      dup2\n        /* \"#utility.yul\":7951:7955   */\n      dup2\n        /* \"#utility.yul\":7947:7967   */\n      sub\n        /* \"#utility.yul\":7943:7944   */\n      0x00\n        /* \"#utility.yul\":7932:7941   */\n      dup4\n        /* \"#utility.yul\":7928:7945   */\n      add\n        /* \"#utility.yul\":7921:7968   */\n      mstore\n        /* \"#utility.yul\":7985:8116   */\n      tag_247\n        /* \"#utility.yul\":8111:8115   */\n      dup2\n        /* \"#utility.yul\":7985:8116   */\n      tag_151\n      jump\t// in\n    tag_247:\n        /* \"#utility.yul\":7977:8116   */\n      swap1\n      pop\n        /* \"#utility.yul\":7704:8123   */\n      swap2\n      swap1\n      pop\n      jump\t// out\n        /* \"#utility.yul\":8129:8309   */\n    tag_152:\n        /* \"#utility.yul\":8177:8254   */\n      0x4e487b7100000000000000000000000000000000000000000000000000000000\n        /* \"#utility.yul\":8174:8175   */\n      0x00\n        /* \"#utility.yul\":8167:8255   */\n      mstore\n        /* \"#utility.yul\":8274:8278   */\n      0x11\n        /* \"#utility.yul\":8271:8272   */\n      0x04\n        /* \"#utility.yul\":8264:8279   */\n      mstore\n        /* \"#utility.yul\":8298:8302   */\n      0x24\n        /* \"#utility.yul\":8295:8296   */\n      0x00\n        /* \"#utility.yul\":8288:8303   */\n      revert\n        /* \"#utility.yul\":8315:8725   */\n    tag_52:\n        /* \"#utility.yul\":8355:8362   */\n      0x00\n        /* \"#utility.yul\":8378:8398   */\n      tag_250\n        /* \"#utility.yul\":8396:8397   */\n      dup3\n        /* \"#utility.yul\":8378:8398   */\n      tag_127\n      jump\t// in\n    tag_250:\n        /* \"#utility.yul\":8373:8398   */\n      swap2\n      pop\n        /* \"#utility.yul\":8412:8432   */\n      tag_251\n        /* \"#utility.yul\":8430:8431   */\n      dup4\n        /* \"#utility.yul\":8412:8432   */\n      tag_127\n      jump\t// in\n    tag_251:\n        /* \"#utility.yul\":8407:8432   */\n      swap3\n      pop\n        /* \"#utility.yul\":8467:8468   */\n      dup3\n        /* \"#utility.yul\":8464:8465   */\n      dup3\n        /* \"#utility.yul\":8460:8469   */\n      mul\n        /* \"#utility.yul\":8489:8519   */\n      tag_252\n        /* \"#utility.yul\":8507:8518   */\n      dup2\n        /* \"#utility.yul\":8489:8519   */\n      tag_127\n      jump\t// in\n    tag_252:\n        /* \"#utility.yul\":8478:8519   */\n      swap2\n      pop\n        /* \"#utility.yul\":8668:8669   */\n      dup3\n        /* \"#utility.yul\":8659:8666   */\n      dup3\n        /* \"#utility.yul\":8655:8670   */\n      div\n        /* \"#utility.yul\":8652:8653   */\n      dup5\n        /* \"#utility.yul\":8649:8671   */\n      eq\n        /* \"#utility.yul\":8629:8630   */\n      dup4\n        /* \"#utility.yul\":8622:8631   */\n      iszero\n        /* \"#utility.yul\":8602:8685   */\n      or\n        /* \"#utility.yul\":8579:8718   */\n      tag_253\n      jumpi\n        /* \"#utility.yul\":8698:8716   */\n      tag_254\n      tag_152\n      jump\t// in\n    tag_254:\n        /* \"#utility.yul\":8579:8718   */\n    tag_253:\n        /* \"#utility.yul\":8363:8725   */\n      pop\n        /* \"#utility.yul\":8315:8725   */\n      swap3\n      swap2\n      pop\n      pop\n      jump\t// out\n        /* \"#utility.yul\":8731:8893   */\n    tag_153:\n        /* \"#utility.yul\":8871:8885   */\n      0x57726f6e6720616d6f756e740000000000000000000000000000000000000000\n        /* \"#utility.yul\":8867:8868   */\n      0x00\n        /* \"#utility.yul\":8859:8865   */\n      dup3\n        /* \"#utility.yul\":8855:8869   */\n      add\n        /* \"#utility.yul\":8848:8886   */\n      mstore\n        /* \"#utility.yul\":8731:8893   */\n      pop\n      jump\t// out\n        /* \"#utility.yul\":8899:9265   */\n    tag_154:\n        /* \"#utility.yul\":9041:9044   */\n      0x00\n        /* \"#utility.yul\":9062:9129   */\n      tag_257\n        /* \"#utility.yul\":9126:9128   */\n      0x0c\n        /* \"#utility.yul\":9121:9124   */\n      dup4\n        /* \"#utility.yul\":9062:9129   */\n      tag_149\n      jump\t// in\n    tag_257:\n        /* \"#utility.yul\":9055:9129   */\n      swap2\n      pop\n        /* \"#utility.yul\":9138:9231   */\n      tag_258\n        /* \"#utility.yul\":9227:9230   */\n      dup3\n        /* \"#utility.yul\":9138:9231   */\n      tag_153\n      jump\t// in\n    tag_258:\n        /* \"#utility.yul\":9256:9258   */\n      0x20\n        /* \"#utility.yul\":9251:9254   */\n      dup3\n        /* \"#utility.yul\":9247:9259   */\n      add\n        /* \"#utility.yul\":9240:9259   */\n      swap1\n      pop\n        /* \"#utility.yul\":8899:9265   */\n      swap2\n      swap1\n      pop\n      jump\t// out\n        /* \"#utility.yul\":9271:9690   */\n    tag_56:\n        /* \"#utility.yul\":9437:9441   */\n      0x00\n        /* \"#utility.yul\":9475:9477   */\n      0x20\n        /* \"#utility.yul\":9464:9473   */\n      dup3\n        /* \"#utility.yul\":9460:9478   */\n      add\n        /* \"#utility.yul\":9452:9478   */\n      swap1\n      pop\n        /* \"#utility.yul\":9524:9533   */\n      dup2\n        /* \"#utility.yul\":9518:9522   */\n      dup2\n        /* \"#utility.yul\":9514:9534   */\n      sub\n        /* \"#utility.yul\":9510:9511   */\n      0x00\n        /* \"#utility.yul\":9499:9508   */\n      dup4\n        /* \"#utility.yul\":9495:9512   */\n      add\n        /* \"#utility.yul\":9488:9535   */\n      mstore\n        /* \"#utility.yul\":9552:9683   */\n      tag_260\n        /* \"#utility.yul\":9678:9682   */\n      dup2\n        /* \"#utility.yul\":9552:9683   */\n      tag_154\n      jump\t// in\n    tag_260:\n        /* \"#utility.yul\":9544:9683   */\n      swap1\n      pop\n        /* \"#utility.yul\":9271:9690   */\n      swap2\n      swap1\n      pop\n      jump\t// out\n        /* \"#utility.yul\":9696:9869   */\n    tag_155:\n        /* \"#utility.yul\":9836:9861   */\n      0x57726f6e67206e756d626572206f66206e756d62657273000000000000000000\n        /* \"#utility.yul\":9832:9833   */\n      0x00\n        /* \"#utility.yul\":9824:9830   */\n      dup3\n        /* \"#utility.yul\":9820:9834   */\n      add\n        /* \"#utility.yul\":9813:9862   */\n      mstore\n        /* \"#utility.yul\":9696:9869   */\n      pop\n      jump\t// out\n        /* \"#utility.yul\":9875:10241   */\n    tag_156:\n        /* \"#utility.yul\":10017:10020   */\n      0x00\n        /* \"#utility.yul\":10038:10105   */\n      tag_263\n        /* \"#utility.yul\":10102:10104   */\n      0x17\n        /* \"#utility.yul\":10097:10100   */\n      dup4\n        /* \"#utility.yul\":10038:10105   */\n      tag_149\n      jump\t// in\n    tag_263:\n        /* \"#utility.yul\":10031:10105   */\n      swap2\n      pop\n        /* \"#utility.yul\":10114:10207   */\n      tag_264\n        /* \"#utility.yul\":10203:10206   */\n      dup3\n        /* \"#utility.yul\":10114:10207   */\n      tag_155\n      jump\t// in\n    tag_264:\n        /* \"#utility.yul\":10232:10234   */\n      0x20\n        /* \"#utility.yul\":10227:10230   */\n      dup3\n        /* \"#utility.yul\":10223:10235   */\n      add\n        /* \"#utility.yul\":10216:10235   */\n      swap1\n      pop\n        /* \"#utility.yul\":9875:10241   */\n      swap2\n      swap1\n      pop\n      jump\t// out\n        /* \"#utility.yul\":10247:10666   */\n    tag_59:\n        /* \"#utility.yul\":10413:10417   */\n      0x00\n        /* \"#utility.yul\":10451:10453   */\n      0x20\n        /* \"#utility.yul\":10440:10449   */\n      dup3\n        /* \"#utility.yul\":10436:10454   */\n      add\n        /* \"#utility.yul\":10428:10454   */\n      swap1\n      pop\n        /* \"#utility.yul\":10500:10509   */\n      dup2\n        /* \"#utility.yul\":10494:10498   */\n      dup2\n        /* \"#utility.yul\":10490:10510   */\n      sub\n        /* \"#utility.yul\":10486:10487   */\n      0x00\n        /* \"#utility.yul\":10475:10484   */\n      dup4\n        /* \"#utility.yul\":10471:10488   */\n      add\n        /* \"#utility.yul\":10464:10511   */\n      mstore\n        /* \"#utility.yul\":10528:10659   */\n      tag_266\n        /* \"#utility.yul\":10654:10658   */\n      dup2\n        /* \"#utility.yul\":10528:10659   */\n      tag_156\n      jump\t// in\n    tag_266:\n        /* \"#utility.yul\":10520:10659   */\n      swap1\n      pop\n        /* \"#utility.yul\":10247:10666   */\n      swap2\n      swap1\n      pop\n      jump\t// out\n        /* \"#utility.yul\":10672:10852   */\n    tag_65:\n        /* \"#utility.yul\":10720:10797   */\n      0x4e487b7100000000000000000000000000000000000000000000000000000000\n        /* \"#utility.yul\":10717:10718   */\n      0x00\n        /* \"#utility.yul\":10710:10798   */\n      mstore\n        /* \"#utility.yul\":10817:10821   */\n      0x32\n        /* \"#utility.yul\":10814:10815   */\n      0x04\n        /* \"#utility.yul\":10807:10822   */\n      mstore\n        /* \"#utility.yul\":10841:10845   */\n      0x24\n        /* \"#utility.yul\":10838:10839   */\n      0x00\n        /* \"#utility.yul\":10831:10846   */\n      revert\n        /* \"#utility.yul\":10858:11020   */\n    tag_157:\n        /* \"#utility.yul\":10998:11012   */\n      0x57726f6e67206e756d6265720000000000000000000000000000000000000000\n        /* \"#utility.yul\":10994:10995   */\n      0x00\n        /* \"#utility.yul\":10986:10992   */\n      dup3\n        /* \"#utility.yul\":10982:10996   */\n      add\n        /* \"#utility.yul\":10975:11013   */\n      mstore\n        /* \"#utility.yul\":10858:11020   */\n      pop\n      jump\t// out\n        /* \"#utility.yul\":11026:11392   */\n    tag_158:\n        /* \"#utility.yul\":11168:11171   */\n      0x00\n        /* \"#utility.yul\":11189:11256   */\n      tag_270\n        /* \"#utility.yul\":11253:11255   */\n      0x0c\n        /* \"#utility.yul\":11248:11251   */\n      dup4\n        /* \"#utility.yul\":11189:11256   */\n      tag_149\n      jump\t// in\n    tag_270:\n        /* \"#utility.yul\":11182:11256   */\n      swap2\n      pop\n        /* \"#utility.yul\":11265:11358   */\n      tag_271\n        /* \"#utility.yul\":11354:11357   */\n      dup3\n        /* \"#utility.yul\":11265:11358   */\n      tag_157\n      jump\t// in\n    tag_271:\n        /* \"#utility.yul\":11383:11385   */\n      0x20\n        /* \"#utility.yul\":11378:11381   */\n      dup3\n        /* \"#utility.yul\":11374:11386   */\n      add\n        /* \"#utility.yul\":11367:11386   */\n      swap1\n      pop\n        /* \"#utility.yul\":11026:11392   */\n      swap2\n      swap1\n      pop\n      jump\t// out\n        /* \"#utility.yul\":11398:11817   */\n    tag_71:\n        /* \"#utility.yul\":11564:11568   */\n      0x00\n        /* \"#utility.yul\":11602:11604   */\n      0x20\n        /* \"#utility.yul\":11591:11600   */\n      dup3\n        /* \"#utility.yul\":11587:11605   */\n      add\n        /* \"#utility.yul\":11579:11605   */\n      swap1\n      pop\n        /* \"#utility.yul\":11651:11660   */\n      dup2\n        /* \"#utility.yul\":11645:11649   */\n      dup2\n        /* \"#utility.yul\":11641:11661   */\n      sub\n        /* \"#utility.yul\":11637:11638   */\n      0x00\n        /* \"#utility.yul\":11626:11635   */\n      dup4\n        /* \"#utility.yul\":11622:11639   */\n      add\n        /* \"#utility.yul\":11615:11662   */\n      mstore\n        /* \"#utility.yul\":11679:11810   */\n      tag_273\n        /* \"#utility.yul\":11805:11809   */\n      dup2\n        /* \"#utility.yul\":11679:11810   */\n      tag_158\n      jump\t// in\n    tag_273:\n        /* \"#utility.yul\":11671:11810   */\n      swap1\n      pop\n        /* \"#utility.yul\":11398:11817   */\n      swap2\n      swap1\n      pop\n      jump\t// out\n        /* \"#utility.yul\":11823:12056   */\n    tag_73:\n        /* \"#utility.yul\":11862:11865   */\n      0x00\n        /* \"#utility.yul\":11885:11909   */\n      tag_275\n        /* \"#utility.yul\":11903:11908   */\n      dup3\n        /* \"#utility.yul\":11885:11909   */\n      tag_127\n      jump\t// in\n    tag_275:\n        /* \"#utility.yul\":11876:11909   */\n      swap2\n      pop\n        /* \"#utility.yul\":11931:11997   */\n      0xffffffffffffffffffffffffffffffffffffffffffffffffffffffffffffffff\n        /* \"#utility.yul\":11924:11929   */\n      dup3\n        /* \"#utility.yul\":11921:11998   */\n      sub\n        /* \"#utility.yul\":11918:12021   */\n      tag_276\n      jumpi\n        /* \"#utility.yul\":12001:12019   */\n      tag_277\n      tag_152\n      jump\t// in\n    tag_277:\n        /* \"#utility.yul\":11918:12021   */\n    tag_276:\n        /* \"#utility.yul\":12048:12049   */\n      0x01\n        /* \"#utility.yul\":12041:12046   */\n      dup3\n        /* \"#utility.yul\":12037:12050   */\n      add\n        /* \"#utility.yul\":12030:12050   */\n      swap1\n      pop\n        /* \"#utility.yul\":11823:12056   */\n      swap2\n      swap1\n      pop\n      jump\t// out\n        /* \"#utility.yul\":12062:12244   */\n    tag_159:\n        /* \"#utility.yul\":12202:12236   */\n      0x596f75206861766520616c726561647920626f756768742061207469636b6574\n        /* \"#utility.yul\":12198:12199   */\n      0x00\n        /* \"#utility.yul\":12190:12196   */\n      dup3\n        /* \"#utility.yul\":12186:12200   */\n      add\n        /* \"#utility.yul\":12179:12237   */\n      mstore\n        /* \"#utility.yul\":12062:12244   */\n      pop\n      jump\t// out\n        /* \"#utility.yul\":12250:12616   */\n    tag_160:\n        /* \"#utility.yul\":12392:12395   */\n      0x00\n        /* \"#utility.yul\":12413:12480   */\n      tag_280\n        /* \"#utility.yul\":12477:12479   */\n      0x20\n        /* \"#utility.yul\":12472:12475   */\n      dup4\n        /* \"#utility.yul\":12413:12480   */\n      tag_149\n      jump\t// in\n    tag_280:\n        /* \"#utility.yul\":12406:12480   */\n      swap2\n      pop\n        /* \"#utility.yul\":12489:12582   */\n      tag_281\n        /* \"#utility.yul\":12578:12581   */\n      dup3\n        /* \"#utility.yul\":12489:12582   */\n      tag_159\n      jump\t// in\n    tag_281:\n        /* \"#utility.yul\":12607:12609   */\n      0x20\n        /* \"#utility.yul\":12602:12605   */\n      dup3\n        /* \"#utility.yul\":12598:12610   */\n      add\n        /* \"#utility.yul\":12591:12610   */\n      swap1\n      pop\n        /* \"#utility.yul\":12250:12616   */\n      swap2\n      swap1\n      pop\n      jump\t// out\n        /* \"#utility.yul\":12622:13041   */\n    tag_76:\n        /* \"#utility.yul\":12788:12792   */\n      0x00\n        /* \"#utility.yul\":12826:12828   */\n      0x20\n        /* \"#utility.yul\":12815:12824   */\n      dup3\n        /* \"#utility.yul\":12811:12829   */\n      add\n        /* \"#utility.yul\":12803:12829   */\n      swap1\n      pop\n        /* \"#utility.yul\":12875:12884   */\n      dup2\n        /* \"#utility.yul\":12869:12873   */\n      dup2\n        /* \"#utility.yul\":12865:12885   */\n      sub\n        /* \"#utility.yul\":12861:12862   */\n      0x00\n        /* \"#utility.yul\":12850:12859   */\n      dup4\n        /* \"#utility.yul\":12846:12863   */\n      add\n        /* \"#utility.yul\":12839:12886   */\n      mstore\n        /* \"#utility.yul\":12903:13034   */\n      tag_283\n        /* \"#utility.yul\":13029:13033   */\n      dup2\n        /* \"#utility.yul\":12903:13034   */\n      tag_160\n      jump\t// in\n    tag_283:\n        /* \"#utility.yul\":12895:13034   */\n      swap1\n      pop\n        /* \"#utility.yul\":12622:13041   */\n      swap2\n      swap1\n      pop\n      jump\t// out\n        /* \"#utility.yul\":13047:13238   */\n    tag_80:\n        /* \"#utility.yul\":13087:13090   */\n      0x00\n        /* \"#utility.yul\":13106:13126   */\n      tag_285\n        /* \"#utility.yul\":13124:13125   */\n      dup3\n        /* \"#utility.yul\":13106:13126   */\n      tag_127\n      jump\t// in\n    tag_285:\n        /* \"#utility.yul\":13101:13126   */\n      swap2\n      pop\n        /* \"#utility.yul\":13140:13160   */\n      tag_286\n        /* \"#utility.yul\":13158:13159   */\n      dup4\n        /* \"#utility.yul\":13140:13160   */\n      tag_127\n      jump\t// in\n    tag_286:\n        /* \"#utility.yul\":13135:13160   */\n      swap3\n      pop\n        /* \"#utility.yul\":13183:13184   */\n      dup3\n        /* \"#utility.yul\":13180:13181   */\n      dup3\n        /* \"#utility.yul\":13176:13185   */\n      add\n        /* \"#utility.yul\":13169:13185   */\n      swap1\n      pop\n        /* \"#utility.yul\":13204:13207   */\n      dup1\n        /* \"#utility.yul\":13201:13202   */\n      dup3\n        /* \"#utility.yul\":13198:13208   */\n      gt\n        /* \"#utility.yul\":13195:13231   */\n      iszero\n      tag_287\n      jumpi\n        /* \"#utility.yul\":13211:13229   */\n      tag_288\n      tag_152\n      jump\t// in\n    tag_288:\n        /* \"#utility.yul\":13195:13231   */\n    tag_287:\n        /* \"#utility.yul\":13047:13238   */\n      swap3\n      swap2\n      pop\n      pop\n      jump\t// out\n        /* \"#utility.yul\":13244:13424   */\n    tag_161:\n        /* \"#utility.yul\":13292:13369   */\n      0x4e487b7100000000000000000000000000000000000000000000000000000000\n        /* \"#utility.yul\":13289:13290   */\n      0x00\n        /* \"#utility.yul\":13282:13370   */\n      mstore\n        /* \"#utility.yul\":13389:13393   */\n      0x12\n        /* \"#utility.yul\":13386:13387   */\n      0x04\n        /* \"#utility.yul\":13379:13394   */\n      mstore\n        /* \"#utility.yul\":13413:13417   */\n      0x24\n        /* \"#utility.yul\":13410:13411   */\n      0x00\n        /* \"#utility.yul\":13403:13418   */\n      revert\n        /* \"#utility.yul\":13430:13615   */\n    tag_83:\n        /* \"#utility.yul\":13470:13471   */\n      0x00\n        /* \"#utility.yul\":13487:13507   */\n      tag_291\n        /* \"#utility.yul\":13505:13506   */\n      dup3\n        /* \"#utility.yul\":13487:13507   */\n      tag_127\n      jump\t// in\n    tag_291:\n        /* \"#utility.yul\":13482:13507   */\n      swap2\n      pop\n        /* \"#utility.yul\":13521:13541   */\n      tag_292\n        /* \"#utility.yul\":13539:13540   */\n      dup4\n        /* \"#utility.yul\":13521:13541   */\n      tag_127\n      jump\t// in\n    tag_292:\n        /* \"#utility.yul\":13516:13541   */\n      swap3\n      pop\n        /* \"#utility.yul\":13560:13561   */\n      dup3\n        /* \"#utility.yul\":13550:13585   */\n      tag_293\n      jumpi\n        /* \"#utility.yul\":13565:13583   */\n      tag_294\n      tag_161\n      jump\t// in\n    tag_294:\n        /* \"#utility.yul\":13550:13585   */\n    tag_293:\n        /* \"#utility.yul\":13607:13608   */\n      dup3\n        /* \"#utility.yul\":13604:13605   */\n      dup3\n        /* \"#utility.yul\":13600:13609   */\n      div\n        /* \"#utility.yul\":13595:13609   */\n      swap1\n      pop\n        /* \"#utility.yul\":13430:13615   */\n      swap3\n      swap2\n      pop\n      pop\n      jump\t// out\n        /* \"#utility.yul\":13621:13700   */\n    tag_162:\n        /* \"#utility.yul\":13660:13667   */\n      0x00\n        /* \"#utility.yul\":13689:13694   */\n      dup2\n        /* \"#utility.yul\":13678:13694   */\n      swap1\n      pop\n        /* \"#utility.yul\":13621:13700   */\n      swap2\n      swap1\n      pop\n      jump\t// out\n        /* \"#utility.yul\":13706:13863   */\n    tag_163:\n        /* \"#utility.yul\":13811:13856   */\n      tag_297\n        /* \"#utility.yul\":13831:13855   */\n      tag_298\n        /* \"#utility.yul\":13849:13854   */\n      dup3\n        /* \"#utility.yul\":13831:13855   */\n      tag_127\n      jump\t// in\n    tag_298:\n        /* \"#utility.yul\":13811:13856   */\n      tag_162\n      jump\t// in\n    tag_297:\n        /* \"#utility.yul\":13806:13809   */\n      dup3\n        /* \"#utility.yul\":13799:13857   */\n      mstore\n        /* \"#utility.yul\":13706:13863   */\n      pop\n      pop\n      jump\t// out\n        /* \"#utility.yul\":13869:14266   */\n    tag_108:\n        /* \"#utility.yul\":14009:14012   */\n      0x00\n        /* \"#utility.yul\":14024:14099   */\n      tag_300\n        /* \"#utility.yul\":14095:14098   */\n      dup3\n        /* \"#utility.yul\":14086:14092   */\n      dup6\n        /* \"#utility.yul\":14024:14099   */\n      tag_163\n      jump\t// in\n    tag_300:\n        /* \"#utility.yul\":14124:14126   */\n      0x20\n        /* \"#utility.yul\":14119:14122   */\n      dup3\n        /* \"#utility.yul\":14115:14127   */\n      add\n        /* \"#utility.yul\":14108:14127   */\n      swap2\n      pop\n        /* \"#utility.yul\":14137:14212   */\n      tag_301\n        /* \"#utility.yul\":14208:14211   */\n      dup3\n        /* \"#utility.yul\":14199:14205   */\n      dup5\n        /* \"#utility.yul\":14137:14212   */\n      tag_163\n      jump\t// in\n    tag_301:\n        /* \"#utility.yul\":14237:14239   */\n      0x20\n        /* \"#utility.yul\":14232:14235   */\n      dup3\n        /* \"#utility.yul\":14228:14240   */\n      add\n        /* \"#utility.yul\":14221:14240   */\n      swap2\n      pop\n        /* \"#utility.yul\":14257:14260   */\n      dup2\n        /* \"#utility.yul\":14250:14260   */\n      swap1\n      pop\n        /* \"#utility.yul\":13869:14266   */\n      swap4\n      swap3\n      pop\n      pop\n      pop\n      jump\t// out\n        /* \"#utility.yul\":14272:14448   */\n    tag_110:\n        /* \"#utility.yul\":14304:14305   */\n      0x00\n        /* \"#utility.yul\":14321:14341   */\n      tag_303\n        /* \"#utility.yul\":14339:14340   */\n      dup3\n        /* \"#utility.yul\":14321:14341   */\n      tag_127\n      jump\t// in\n    tag_303:\n        /* \"#utility.yul\":14316:14341   */\n      swap2\n      pop\n        /* \"#utility.yul\":14355:14375   */\n      tag_304\n        /* \"#utility.yul\":14373:14374   */\n      dup4\n        /* \"#utility.yul\":14355:14375   */\n      tag_127\n      jump\t// in\n    tag_304:\n        /* \"#utility.yul\":14350:14375   */\n      swap3\n      pop\n        /* \"#utility.yul\":14394:14395   */\n      dup3\n        /* \"#utility.yul\":14384:14419   */\n      tag_305\n      jumpi\n        /* \"#utility.yul\":14399:14417   */\n      tag_306\n      tag_161\n      jump\t// in\n    tag_306:\n        /* \"#utility.yul\":14384:14419   */\n    tag_305:\n        /* \"#utility.yul\":14440:14441   */\n      dup3\n        /* \"#utility.yul\":14437:14438   */\n      dup3\n        /* \"#utility.yul\":14433:14442   */\n      mod\n        /* \"#utility.yul\":14428:14442   */\n      swap1\n      pop\n        /* \"#utility.yul\":14272:14448   */\n      swap3\n      swap2\n      pop\n      pop\n      jump\t// out\n\n    auxdata: 0xa26469706673582212206889b38e3fc8fbb86627b047e8c8e8b49a469f68fd342611e97425ec21f3317064736f6c63430008110033\n}\n",
				"bytecode": {
					"linkReferences": {},
					"object": "6080604052674563918244f4000060035534801561001c57600080fd5b50336000806101000a81548173ffffffffffffffffffffffffffffffffffffffff021916908373ffffffffffffffffffffffffffffffffffffffff16021790555061104d8061006c6000396000f3fe60806040526004361061007b5760003560e01c80638b0b9ed41161004e5780638b0b9ed41461011b5780638da5cb5b14610146578063a650fbab14610171578063a7caba251461019c5761007b565b80634630a0ee14610080578063716cac96146100a95780637f2d18cf146100c557806387bb7ae0146100f0575b600080fd5b34801561008c57600080fd5b506100a760048036038101906100a29190610895565b6101b3565b005b6100c360048036038101906100be9190610a1b565b61025e565b005b3480156100d157600080fd5b506100da61047f565b6040516100e79190610a73565b60405180910390f35b3480156100fc57600080fd5b5061010561049c565b6040516101129190610a73565b60405180910390f35b34801561012757600080fd5b506101306104b9565b60405161013d9190610b4c565b60405180910390f35b34801561015257600080fd5b5061015b61059f565b6040516101689190610baf565b60405180910390f35b34801561017d57600080fd5b506101866105c3565b6040516101939190610b4c565b60405180910390f35b3480156101a857600080fd5b506101b1610658565b005b60008054906101000a900473ffffffffffffffffffffffffffffffffffffffff1673ffffffffffffffffffffffffffffffffffffffff163373ffffffffffffffffffffffffffffffffffffffff1614610241576040517f08c379a000000000000000000000000000000000000000000000000000000000815260040161023890610c4d565b60405180910390fd5b670de0b6b3a7640000816102559190610c9c565b60038190555050565b60035434146102a2576040517f08c379a000000000000000000000000000000000000000000000000000000000815260040161029990610d2a565b60405180910390fd5b60068151146102e6576040517f08c379a00000000000000000000000000000000000000000000000000000000081526004016102dd90610d96565b60405180910390fd5b60005b815181101561038957600a82828151811061030757610306610db6565b5b60200260200101511080156103375750600082828151811061032c5761032b610db6565b5b602002602001015110155b610376576040517f08c379a000000000000000000000000000000000000000000000000000000000815260040161036d90610e31565b60405180910390fd5b808061038190610e51565b9150506102e9565b506000600260003373ffffffffffffffffffffffffffffffffffffffff1673ffffffffffffffffffffffffffffffffffffffff168152602001908152602001600020805490501461040f576040517f08c379a000000000000000000000000000000000000000000000000000000000815260040161040690610ee5565b60405180910390fd5b80600260003373ffffffffffffffffffffffffffffffffffffffff1673ffffffffffffffffffffffffffffffffffffffff16815260200190815260200160002090805190602001906104629291906107e1565b5034600460008282546104759190610f05565b9250508190555050565b6000670de0b6b3a76400006004546104979190610f68565b905090565b6000670de0b6b3a76400006003546104b49190610f68565b905090565b606060008054906101000a900473ffffffffffffffffffffffffffffffffffffffff1673ffffffffffffffffffffffffffffffffffffffff163373ffffffffffffffffffffffffffffffffffffffff1614610549576040517f08c379a000000000000000000000000000000000000000000000000000000000815260040161054090610c4d565b60405180910390fd5b600180548060200260200160405190810160405280929190818152602001828054801561059557602002820191906000526020600020905b815481526020019060010190808311610581575b5050505050905090565b60008054906101000a900473ffffffffffffffffffffffffffffffffffffffff1681565b6060600260003373ffffffffffffffffffffffffffffffffffffffff1673ffffffffffffffffffffffffffffffffffffffff16815260200190815260200160002080548060200260200160405190810160405280929190818152602001828054801561064e57602002820191906000526020600020905b81548152602001906001019080831161063a575b5050505050905090565b60008054906101000a900473ffffffffffffffffffffffffffffffffffffffff1673ffffffffffffffffffffffffffffffffffffffff163373ffffffffffffffffffffffffffffffffffffffff16146106e6576040517f08c379a00000000000000000000000000000000000000000000000000000000081526004016106dd90610c4d565b60405180910390fd5b600667ffffffffffffffff811115610701576107006108d8565b5b60405190808252806020026020018201604052801561072f5781602001602082028036833780820191505090505b50600190805190602001906107459291906107e1565b506000805b60068110156107dd576000600a428360405160200161076a929190610fba565b6040516020818303038152906040528051906020012060001c61078d9190610fe6565b9050600081146107c95780600184815481106107ac576107ab610db6565b5b906000526020600020018190555082806107c590610e51565b9350505b5080806107d590610e51565b91505061074a565b5050565b82805482825590600052602060002090810192821561081d579160200282015b8281111561081c578251825591602001919060010190610801565b5b50905061082a919061082e565b5090565b5b8082111561084757600081600090555060010161082f565b5090565b6000604051905090565b600080fd5b600080fd5b6000819050919050565b6108728161085f565b811461087d57600080fd5b50565b60008135905061088f81610869565b92915050565b6000602082840312156108ab576108aa610855565b5b60006108b984828501610880565b91505092915050565b600080fd5b6000601f19601f8301169050919050565b7f4e487b7100000000000000000000000000000000000000000000000000000000600052604160045260246000fd5b610910826108c7565b810181811067ffffffffffffffff8211171561092f5761092e6108d8565b5b80604052505050565b600061094261084b565b905061094e8282610907565b919050565b600067ffffffffffffffff82111561096e5761096d6108d8565b5b602082029050602081019050919050565b600080fd5b600061099761099284610953565b610938565b905080838252602082019050602084028301858111156109ba576109b961097f565b5b835b818110156109e357806109cf8882610880565b8452602084019350506020810190506109bc565b5050509392505050565b600082601f830112610a0257610a016108c2565b5b8135610a12848260208601610984565b91505092915050565b600060208284031215610a3157610a30610855565b5b600082013567ffffffffffffffff811115610a4f57610a4e61085a565b5b610a5b848285016109ed565b91505092915050565b610a6d8161085f565b82525050565b6000602082019050610a886000830184610a64565b92915050565b600081519050919050565b600082825260208201905092915050565b6000819050602082019050919050565b610ac38161085f565b82525050565b6000610ad58383610aba565b60208301905092915050565b6000602082019050919050565b6000610af982610a8e565b610b038185610a99565b9350610b0e83610aaa565b8060005b83811015610b3f578151610b268882610ac9565b9750610b3183610ae1565b925050600181019050610b12565b5085935050505092915050565b60006020820190508181036000830152610b668184610aee565b905092915050565b600073ffffffffffffffffffffffffffffffffffffffff82169050919050565b6000610b9982610b6e565b9050919050565b610ba981610b8e565b82525050565b6000602082019050610bc46000830184610ba0565b92915050565b600082825260208201905092915050565b7f4f6e6c7920746865206f776e65722063616e20706572666f726d20746869732060008201527f616374696f6e0000000000000000000000000000000000000000000000000000602082015250565b6000610c37602683610bca565b9150610c4282610bdb565b604082019050919050565b60006020820190508181036000830152610c6681610c2a565b9050919050565b7f4e487b7100000000000000000000000000000000000000000000000000000000600052601160045260246000fd5b6000610ca78261085f565b9150610cb28361085f565b9250828202610cc08161085f565b91508282048414831517610cd757610cd6610c6d565b5b5092915050565b7f57726f6e6720616d6f756e740000000000000000000000000000000000000000600082015250565b6000610d14600c83610bca565b9150610d1f82610cde565b602082019050919050565b60006020820190508181036000830152610d4381610d07565b9050919050565b7f57726f6e67206e756d626572206f66206e756d62657273000000000000000000600082015250565b6000610d80601783610bca565b9150610d8b82610d4a565b602082019050919050565b60006020820190508181036000830152610daf81610d73565b9050919050565b7f4e487b7100000000000000000000000000000000000000000000000000000000600052603260045260246000fd5b7f57726f6e67206e756d6265720000000000000000000000000000000000000000600082015250565b6000610e1b600c83610bca565b9150610e2682610de5565b602082019050919050565b60006020820190508181036000830152610e4a81610e0e565b9050919050565b6000610e5c8261085f565b91507fffffffffffffffffffffffffffffffffffffffffffffffffffffffffffffffff8203610e8e57610e8d610c6d565b5b600182019050919050565b7f596f75206861766520616c726561647920626f756768742061207469636b6574600082015250565b6000610ecf602083610bca565b9150610eda82610e99565b602082019050919050565b60006020820190508181036000830152610efe81610ec2565b9050919050565b6000610f108261085f565b9150610f1b8361085f565b9250828201905080821115610f3357610f32610c6d565b5b92915050565b7f4e487b7100000000000000000000000000000000000000000000000000000000600052601260045260246000fd5b6000610f738261085f565b9150610f7e8361085f565b925082610f8e57610f8d610f39565b5b828204905092915050565b6000819050919050565b610fb4610faf8261085f565b610f99565b82525050565b6000610fc68285610fa3565b602082019150610fd68284610fa3565b6020820191508190509392505050565b6000610ff18261085f565b9150610ffc8361085f565b92508261100c5761100b610f39565b5b82820690509291505056fea26469706673582212206889b38e3fc8fbb86627b047e8c8e8b49a469f68fd342611e97425ec21f3317064736f6c63430008110033",
					"opcodes": "PUSH1 0x80 PUSH1 0x40 MSTORE PUSH8 0x4563918244F40000 PUSH1 0x3 SSTORE CALLVALUE DUP1 ISZERO PUSH2 0x1C JUMPI PUSH1 0x0 DUP1 REVERT JUMPDEST POP CALLER PUSH1 0x0 DUP1 PUSH2 0x100 EXP DUP2 SLOAD DUP2 PUSH20 0xFFFFFFFFFFFFFFFFFFFFFFFFFFFFFFFFFFFFFFFF MUL NOT AND SWAP1 DUP4 PUSH20 0xFFFFFFFFFFFFFFFFFFFFFFFFFFFFFFFFFFFFFFFF AND MUL OR SWAP1 SSTORE POP PUSH2 0x104D DUP1 PUSH2 0x6C PUSH1 0x0 CODECOPY PUSH1 0x0 RETURN INVALID PUSH1 0x80 PUSH1 0x40 MSTORE PUSH1 0x4 CALLDATASIZE LT PUSH2 0x7B JUMPI PUSH1 0x0 CALLDATALOAD PUSH1 0xE0 SHR DUP1 PUSH4 0x8B0B9ED4 GT PUSH2 0x4E JUMPI DUP1 PUSH4 0x8B0B9ED4 EQ PUSH2 0x11B JUMPI DUP1 PUSH4 0x8DA5CB5B EQ PUSH2 0x146 JUMPI DUP1 PUSH4 0xA650FBAB EQ PUSH2 0x171 JUMPI DUP1 PUSH4 0xA7CABA25 EQ PUSH2 0x19C JUMPI PUSH2 0x7B JUMP JUMPDEST DUP1 PUSH4 0x4630A0EE EQ PUSH2 0x80 JUMPI DUP1 PUSH4 0x716CAC96 EQ PUSH2 0xA9 JUMPI DUP1 PUSH4 0x7F2D18CF EQ PUSH2 0xC5 JUMPI DUP1 PUSH4 0x87BB7AE0 EQ PUSH2 0xF0 JUMPI JUMPDEST PUSH1 0x0 DUP1 REVERT JUMPDEST CALLVALUE DUP1 ISZERO PUSH2 0x8C JUMPI PUSH1 0x0 DUP1 REVERT JUMPDEST POP PUSH2 0xA7 PUSH1 0x4 DUP1 CALLDATASIZE SUB DUP2 ADD SWAP1 PUSH2 0xA2 SWAP2 SWAP1 PUSH2 0x895 JUMP JUMPDEST PUSH2 0x1B3 JUMP JUMPDEST STOP JUMPDEST PUSH2 0xC3 PUSH1 0x4 DUP1 CALLDATASIZE SUB DUP2 ADD SWAP1 PUSH2 0xBE SWAP2 SWAP1 PUSH2 0xA1B JUMP JUMPDEST PUSH2 0x25E JUMP JUMPDEST STOP JUMPDEST CALLVALUE DUP1 ISZERO PUSH2 0xD1 JUMPI PUSH1 0x0 DUP1 REVERT JUMPDEST POP PUSH2 0xDA PUSH2 0x47F JUMP JUMPDEST PUSH1 0x40 MLOAD PUSH2 0xE7 SWAP2 SWAP1 PUSH2 0xA73 JUMP JUMPDEST PUSH1 0x40 MLOAD DUP1 SWAP2 SUB SWAP1 RETURN JUMPDEST CALLVALUE DUP1 ISZERO PUSH2 0xFC JUMPI PUSH1 0x0 DUP1 REVERT JUMPDEST POP PUSH2 0x105 PUSH2 0x49C JUMP JUMPDEST PUSH1 0x40 MLOAD PUSH2 0x112 SWAP2 SWAP1 PUSH2 0xA73 JUMP JUMPDEST PUSH1 0x40 MLOAD DUP1 SWAP2 SUB SWAP1 RETURN JUMPDEST CALLVALUE DUP1 ISZERO PUSH2 0x127 JUMPI PUSH1 0x0 DUP1 REVERT JUMPDEST POP PUSH2 0x130 PUSH2 0x4B9 JUMP JUMPDEST PUSH1 0x40 MLOAD PUSH2 0x13D SWAP2 SWAP1 PUSH2 0xB4C JUMP JUMPDEST PUSH1 0x40 MLOAD DUP1 SWAP2 SUB SWAP1 RETURN JUMPDEST CALLVALUE DUP1 ISZERO PUSH2 0x152 JUMPI PUSH1 0x0 DUP1 REVERT JUMPDEST POP PUSH2 0x15B PUSH2 0x59F JUMP JUMPDEST PUSH1 0x40 MLOAD PUSH2 0x168 SWAP2 SWAP1 PUSH2 0xBAF JUMP JUMPDEST PUSH1 0x40 MLOAD DUP1 SWAP2 SUB SWAP1 RETURN JUMPDEST CALLVALUE DUP1 ISZERO PUSH2 0x17D JUMPI PUSH1 0x0 DUP1 REVERT JUMPDEST POP PUSH2 0x186 PUSH2 0x5C3 JUMP JUMPDEST PUSH1 0x40 MLOAD PUSH2 0x193 SWAP2 SWAP1 PUSH2 0xB4C JUMP JUMPDEST PUSH1 0x40 MLOAD DUP1 SWAP2 SUB SWAP1 RETURN JUMPDEST CALLVALUE DUP1 ISZERO PUSH2 0x1A8 JUMPI PUSH1 0x0 DUP1 REVERT JUMPDEST POP PUSH2 0x1B1 PUSH2 0x658 JUMP JUMPDEST STOP JUMPDEST PUSH1 0x0 DUP1 SLOAD SWAP1 PUSH2 0x100 EXP SWAP1 DIV PUSH20 0xFFFFFFFFFFFFFFFFFFFFFFFFFFFFFFFFFFFFFFFF AND PUSH20 0xFFFFFFFFFFFFFFFFFFFFFFFFFFFFFFFFFFFFFFFF AND CALLER PUSH20 0xFFFFFFFFFFFFFFFFFFFFFFFFFFFFFFFFFFFFFFFF AND EQ PUSH2 0x241 JUMPI PUSH1 0x40 MLOAD PUSH32 0x8C379A000000000000000000000000000000000000000000000000000000000 DUP2 MSTORE PUSH1 0x4 ADD PUSH2 0x238 SWAP1 PUSH2 0xC4D JUMP JUMPDEST PUSH1 0x40 MLOAD DUP1 SWAP2 SUB SWAP1 REVERT JUMPDEST PUSH8 0xDE0B6B3A7640000 DUP2 PUSH2 0x255 SWAP2 SWAP1 PUSH2 0xC9C JUMP JUMPDEST PUSH1 0x3 DUP2 SWAP1 SSTORE POP POP JUMP JUMPDEST PUSH1 0x3 SLOAD CALLVALUE EQ PUSH2 0x2A2 JUMPI PUSH1 0x40 MLOAD PUSH32 0x8C379A000000000000000000000000000000000000000000000000000000000 DUP2 MSTORE PUSH1 0x4 ADD PUSH2 0x299 SWAP1 PUSH2 0xD2A JUMP JUMPDEST PUSH1 0x40 MLOAD DUP1 SWAP2 SUB SWAP1 REVERT JUMPDEST PUSH1 0x6 DUP2 MLOAD EQ PUSH2 0x2E6 JUMPI PUSH1 0x40 MLOAD PUSH32 0x8C379A000000000000000000000000000000000000000000000000000000000 DUP2 MSTORE PUSH1 0x4 ADD PUSH2 0x2DD SWAP1 PUSH2 0xD96 JUMP JUMPDEST PUSH1 0x40 MLOAD DUP1 SWAP2 SUB SWAP1 REVERT JUMPDEST PUSH1 0x0 JUMPDEST DUP2 MLOAD DUP2 LT ISZERO PUSH2 0x389 JUMPI PUSH1 0xA DUP3 DUP3 DUP2 MLOAD DUP2 LT PUSH2 0x307 JUMPI PUSH2 0x306 PUSH2 0xDB6 JUMP JUMPDEST JUMPDEST PUSH1 0x20 MUL PUSH1 0x20 ADD ADD MLOAD LT DUP1 ISZERO PUSH2 0x337 JUMPI POP PUSH1 0x0 DUP3 DUP3 DUP2 MLOAD DUP2 LT PUSH2 0x32C JUMPI PUSH2 0x32B PUSH2 0xDB6 JUMP JUMPDEST JUMPDEST PUSH1 0x20 MUL PUSH1 0x20 ADD ADD MLOAD LT ISZERO JUMPDEST PUSH2 0x376 JUMPI PUSH1 0x40 MLOAD PUSH32 0x8C379A000000000000000000000000000000000000000000000000000000000 DUP2 MSTORE PUSH1 0x4 ADD PUSH2 0x36D SWAP1 PUSH2 0xE31 JUMP JUMPDEST PUSH1 0x40 MLOAD DUP1 SWAP2 SUB SWAP1 REVERT JUMPDEST DUP1 DUP1 PUSH2 0x381 SWAP1 PUSH2 0xE51 JUMP JUMPDEST SWAP2 POP POP PUSH2 0x2E9 JUMP JUMPDEST POP PUSH1 0x0 PUSH1 0x2 PUSH1 0x0 CALLER PUSH20 0xFFFFFFFFFFFFFFFFFFFFFFFFFFFFFFFFFFFFFFFF AND PUSH20 0xFFFFFFFFFFFFFFFFFFFFFFFFFFFFFFFFFFFFFFFF AND DUP2 MSTORE PUSH1 0x20 ADD SWAP1 DUP2 MSTORE PUSH1 0x20 ADD PUSH1 0x0 KECCAK256 DUP1 SLOAD SWAP1 POP EQ PUSH2 0x40F JUMPI PUSH1 0x40 MLOAD PUSH32 0x8C379A000000000000000000000000000000000000000000000000000000000 DUP2 MSTORE PUSH1 0x4 ADD PUSH2 0x406 SWAP1 PUSH2 0xEE5 JUMP JUMPDEST PUSH1 0x40 MLOAD DUP1 SWAP2 SUB SWAP1 REVERT JUMPDEST DUP1 PUSH1 0x2 PUSH1 0x0 CALLER PUSH20 0xFFFFFFFFFFFFFFFFFFFFFFFFFFFFFFFFFFFFFFFF AND PUSH20 0xFFFFFFFFFFFFFFFFFFFFFFFFFFFFFFFFFFFFFFFF AND DUP2 MSTORE PUSH1 0x20 ADD SWAP1 DUP2 MSTORE PUSH1 0x20 ADD PUSH1 0x0 KECCAK256 SWAP1 DUP1 MLOAD SWAP1 PUSH1 0x20 ADD SWAP1 PUSH2 0x462 SWAP3 SWAP2 SWAP1 PUSH2 0x7E1 JUMP JUMPDEST POP CALLVALUE PUSH1 0x4 PUSH1 0x0 DUP3 DUP3 SLOAD PUSH2 0x475 SWAP2 SWAP1 PUSH2 0xF05 JUMP JUMPDEST SWAP3 POP POP DUP2 SWAP1 SSTORE POP POP JUMP JUMPDEST PUSH1 0x0 PUSH8 0xDE0B6B3A7640000 PUSH1 0x4 SLOAD PUSH2 0x497 SWAP2 SWAP1 PUSH2 0xF68 JUMP JUMPDEST SWAP1 POP SWAP1 JUMP JUMPDEST PUSH1 0x0 PUSH8 0xDE0B6B3A7640000 PUSH1 0x3 SLOAD PUSH2 0x4B4 SWAP2 SWAP1 PUSH2 0xF68 JUMP JUMPDEST SWAP1 POP SWAP1 JUMP JUMPDEST PUSH1 0x60 PUSH1 0x0 DUP1 SLOAD SWAP1 PUSH2 0x100 EXP SWAP1 DIV PUSH20 0xFFFFFFFFFFFFFFFFFFFFFFFFFFFFFFFFFFFFFFFF AND PUSH20 0xFFFFFFFFFFFFFFFFFFFFFFFFFFFFFFFFFFFFFFFF AND CALLER PUSH20 0xFFFFFFFFFFFFFFFFFFFFFFFFFFFFFFFFFFFFFFFF AND EQ PUSH2 0x549 JUMPI PUSH1 0x40 MLOAD PUSH32 0x8C379A000000000000000000000000000000000000000000000000000000000 DUP2 MSTORE PUSH1 0x4 ADD PUSH2 0x540 SWAP1 PUSH2 0xC4D JUMP JUMPDEST PUSH1 0x40 MLOAD DUP1 SWAP2 SUB SWAP1 REVERT JUMPDEST PUSH1 0x1 DUP1 SLOAD DUP1 PUSH1 0x20 MUL PUSH1 0x20 ADD PUSH1 0x40 MLOAD SWAP1 DUP2 ADD PUSH1 0x40 MSTORE DUP1 SWAP3 SWAP2 SWAP1 DUP2 DUP2 MSTORE PUSH1 0x20 ADD DUP3 DUP1 SLOAD DUP1 ISZERO PUSH2 0x595 JUMPI PUSH1 0x20 MUL DUP3 ADD SWAP2 SWAP1 PUSH1 0x0 MSTORE PUSH1 0x20 PUSH1 0x0 KECCAK256 SWAP1 JUMPDEST DUP2 SLOAD DUP2 MSTORE PUSH1 0x20 ADD SWAP1 PUSH1 0x1 ADD SWAP1 DUP1 DUP4 GT PUSH2 0x581 JUMPI JUMPDEST POP POP POP POP POP SWAP1 POP SWAP1 JUMP JUMPDEST PUSH1 0x0 DUP1 SLOAD SWAP1 PUSH2 0x100 EXP SWAP1 DIV PUSH20 0xFFFFFFFFFFFFFFFFFFFFFFFFFFFFFFFFFFFFFFFF AND DUP2 JUMP JUMPDEST PUSH1 0x60 PUSH1 0x2 PUSH1 0x0 CALLER PUSH20 0xFFFFFFFFFFFFFFFFFFFFFFFFFFFFFFFFFFFFFFFF AND PUSH20 0xFFFFFFFFFFFFFFFFFFFFFFFFFFFFFFFFFFFFFFFF AND DUP2 MSTORE PUSH1 0x20 ADD SWAP1 DUP2 MSTORE PUSH1 0x20 ADD PUSH1 0x0 KECCAK256 DUP1 SLOAD DUP1 PUSH1 0x20 MUL PUSH1 0x20 ADD PUSH1 0x40 MLOAD SWAP1 DUP2 ADD PUSH1 0x40 MSTORE DUP1 SWAP3 SWAP2 SWAP1 DUP2 DUP2 MSTORE PUSH1 0x20 ADD DUP3 DUP1 SLOAD DUP1 ISZERO PUSH2 0x64E JUMPI PUSH1 0x20 MUL DUP3 ADD SWAP2 SWAP1 PUSH1 0x0 MSTORE PUSH1 0x20 PUSH1 0x0 KECCAK256 SWAP1 JUMPDEST DUP2 SLOAD DUP2 MSTORE PUSH1 0x20 ADD SWAP1 PUSH1 0x1 ADD SWAP1 DUP1 DUP4 GT PUSH2 0x63A JUMPI JUMPDEST POP POP POP POP POP SWAP1 POP SWAP1 JUMP JUMPDEST PUSH1 0x0 DUP1 SLOAD SWAP1 PUSH2 0x100 EXP SWAP1 DIV PUSH20 0xFFFFFFFFFFFFFFFFFFFFFFFFFFFFFFFFFFFFFFFF AND PUSH20 0xFFFFFFFFFFFFFFFFFFFFFFFFFFFFFFFFFFFFFFFF AND CALLER PUSH20 0xFFFFFFFFFFFFFFFFFFFFFFFFFFFFFFFFFFFFFFFF AND EQ PUSH2 0x6E6 JUMPI PUSH1 0x40 MLOAD PUSH32 0x8C379A000000000000000000000000000000000000000000000000000000000 DUP2 MSTORE PUSH1 0x4 ADD PUSH2 0x6DD SWAP1 PUSH2 0xC4D JUMP JUMPDEST PUSH1 0x40 MLOAD DUP1 SWAP2 SUB SWAP1 REVERT JUMPDEST PUSH1 0x6 PUSH8 0xFFFFFFFFFFFFFFFF DUP2 GT ISZERO PUSH2 0x701 JUMPI PUSH2 0x700 PUSH2 0x8D8 JUMP JUMPDEST JUMPDEST PUSH1 0x40 MLOAD SWAP1 DUP1 DUP3 MSTORE DUP1 PUSH1 0x20 MUL PUSH1 0x20 ADD DUP3 ADD PUSH1 0x40 MSTORE DUP1 ISZERO PUSH2 0x72F JUMPI DUP2 PUSH1 0x20 ADD PUSH1 0x20 DUP3 MUL DUP1 CALLDATASIZE DUP4 CALLDATACOPY DUP1 DUP3 ADD SWAP2 POP POP SWAP1 POP JUMPDEST POP PUSH1 0x1 SWAP1 DUP1 MLOAD SWAP1 PUSH1 0x20 ADD SWAP1 PUSH2 0x745 SWAP3 SWAP2 SWAP1 PUSH2 0x7E1 JUMP JUMPDEST POP PUSH1 0x0 DUP1 JUMPDEST PUSH1 0x6 DUP2 LT ISZERO PUSH2 0x7DD JUMPI PUSH1 0x0 PUSH1 0xA TIMESTAMP DUP4 PUSH1 0x40 MLOAD PUSH1 0x20 ADD PUSH2 0x76A SWAP3 SWAP2 SWAP1 PUSH2 0xFBA JUMP JUMPDEST PUSH1 0x40 MLOAD PUSH1 0x20 DUP2 DUP4 SUB SUB DUP2 MSTORE SWAP1 PUSH1 0x40 MSTORE DUP1 MLOAD SWAP1 PUSH1 0x20 ADD KECCAK256 PUSH1 0x0 SHR PUSH2 0x78D SWAP2 SWAP1 PUSH2 0xFE6 JUMP JUMPDEST SWAP1 POP PUSH1 0x0 DUP2 EQ PUSH2 0x7C9 JUMPI DUP1 PUSH1 0x1 DUP5 DUP2 SLOAD DUP2 LT PUSH2 0x7AC JUMPI PUSH2 0x7AB PUSH2 0xDB6 JUMP JUMPDEST JUMPDEST SWAP1 PUSH1 0x0 MSTORE PUSH1 0x20 PUSH1 0x0 KECCAK256 ADD DUP2 SWAP1 SSTORE POP DUP3 DUP1 PUSH2 0x7C5 SWAP1 PUSH2 0xE51 JUMP JUMPDEST SWAP4 POP POP JUMPDEST POP DUP1 DUP1 PUSH2 0x7D5 SWAP1 PUSH2 0xE51 JUMP JUMPDEST SWAP2 POP POP PUSH2 0x74A JUMP JUMPDEST POP POP JUMP JUMPDEST DUP3 DUP1 SLOAD DUP3 DUP3 SSTORE SWAP1 PUSH1 0x0 MSTORE PUSH1 0x20 PUSH1 0x0 KECCAK256 SWAP1 DUP2 ADD SWAP3 DUP3 ISZERO PUSH2 0x81D JUMPI SWAP2 PUSH1 0x20 MUL DUP3 ADD JUMPDEST DUP3 DUP2 GT ISZERO PUSH2 0x81C JUMPI DUP3 MLOAD DUP3 SSTORE SWAP2 PUSH1 0x20 ADD SWAP2 SWAP1 PUSH1 0x1 ADD SWAP1 PUSH2 0x801 JUMP JUMPDEST JUMPDEST POP SWAP1 POP PUSH2 0x82A SWAP2 SWAP1 PUSH2 0x82E JUMP JUMPDEST POP SWAP1 JUMP JUMPDEST JUMPDEST DUP1 DUP3 GT ISZERO PUSH2 0x847 JUMPI PUSH1 0x0 DUP2 PUSH1 0x0 SWAP1 SSTORE POP PUSH1 0x1 ADD PUSH2 0x82F JUMP JUMPDEST POP SWAP1 JUMP JUMPDEST PUSH1 0x0 PUSH1 0x40 MLOAD SWAP1 POP SWAP1 JUMP JUMPDEST PUSH1 0x0 DUP1 REVERT JUMPDEST PUSH1 0x0 DUP1 REVERT JUMPDEST PUSH1 0x0 DUP2 SWAP1 POP SWAP2 SWAP1 POP JUMP JUMPDEST PUSH2 0x872 DUP2 PUSH2 0x85F JUMP JUMPDEST DUP2 EQ PUSH2 0x87D JUMPI PUSH1 0x0 DUP1 REVERT JUMPDEST POP JUMP JUMPDEST PUSH1 0x0 DUP2 CALLDATALOAD SWAP1 POP PUSH2 0x88F DUP2 PUSH2 0x869 JUMP JUMPDEST SWAP3 SWAP2 POP POP JUMP JUMPDEST PUSH1 0x0 PUSH1 0x20 DUP3 DUP5 SUB SLT ISZERO PUSH2 0x8AB JUMPI PUSH2 0x8AA PUSH2 0x855 JUMP JUMPDEST JUMPDEST PUSH1 0x0 PUSH2 0x8B9 DUP5 DUP3 DUP6 ADD PUSH2 0x880 JUMP JUMPDEST SWAP2 POP POP SWAP3 SWAP2 POP POP JUMP JUMPDEST PUSH1 0x0 DUP1 REVERT JUMPDEST PUSH1 0x0 PUSH1 0x1F NOT PUSH1 0x1F DUP4 ADD AND SWAP1 POP SWAP2 SWAP1 POP JUMP JUMPDEST PUSH32 0x4E487B7100000000000000000000000000000000000000000000000000000000 PUSH1 0x0 MSTORE PUSH1 0x41 PUSH1 0x4 MSTORE PUSH1 0x24 PUSH1 0x0 REVERT JUMPDEST PUSH2 0x910 DUP3 PUSH2 0x8C7 JUMP JUMPDEST DUP2 ADD DUP2 DUP2 LT PUSH8 0xFFFFFFFFFFFFFFFF DUP3 GT OR ISZERO PUSH2 0x92F JUMPI PUSH2 0x92E PUSH2 0x8D8 JUMP JUMPDEST JUMPDEST DUP1 PUSH1 0x40 MSTORE POP POP POP JUMP JUMPDEST PUSH1 0x0 PUSH2 0x942 PUSH2 0x84B JUMP JUMPDEST SWAP1 POP PUSH2 0x94E DUP3 DUP3 PUSH2 0x907 JUMP JUMPDEST SWAP2 SWAP1 POP JUMP JUMPDEST PUSH1 0x0 PUSH8 0xFFFFFFFFFFFFFFFF DUP3 GT ISZERO PUSH2 0x96E JUMPI PUSH2 0x96D PUSH2 0x8D8 JUMP JUMPDEST JUMPDEST PUSH1 0x20 DUP3 MUL SWAP1 POP PUSH1 0x20 DUP2 ADD SWAP1 POP SWAP2 SWAP1 POP JUMP JUMPDEST PUSH1 0x0 DUP1 REVERT JUMPDEST PUSH1 0x0 PUSH2 0x997 PUSH2 0x992 DUP5 PUSH2 0x953 JUMP JUMPDEST PUSH2 0x938 JUMP JUMPDEST SWAP1 POP DUP1 DUP4 DUP3 MSTORE PUSH1 0x20 DUP3 ADD SWAP1 POP PUSH1 0x20 DUP5 MUL DUP4 ADD DUP6 DUP2 GT ISZERO PUSH2 0x9BA JUMPI PUSH2 0x9B9 PUSH2 0x97F JUMP JUMPDEST JUMPDEST DUP4 JUMPDEST DUP2 DUP2 LT ISZERO PUSH2 0x9E3 JUMPI DUP1 PUSH2 0x9CF DUP9 DUP3 PUSH2 0x880 JUMP JUMPDEST DUP5 MSTORE PUSH1 0x20 DUP5 ADD SWAP4 POP POP PUSH1 0x20 DUP2 ADD SWAP1 POP PUSH2 0x9BC JUMP JUMPDEST POP POP POP SWAP4 SWAP3 POP POP POP JUMP JUMPDEST PUSH1 0x0 DUP3 PUSH1 0x1F DUP4 ADD SLT PUSH2 0xA02 JUMPI PUSH2 0xA01 PUSH2 0x8C2 JUMP JUMPDEST JUMPDEST DUP2 CALLDATALOAD PUSH2 0xA12 DUP5 DUP3 PUSH1 0x20 DUP7 ADD PUSH2 0x984 JUMP JUMPDEST SWAP2 POP POP SWAP3 SWAP2 POP POP JUMP JUMPDEST PUSH1 0x0 PUSH1 0x20 DUP3 DUP5 SUB SLT ISZERO PUSH2 0xA31 JUMPI PUSH2 0xA30 PUSH2 0x855 JUMP JUMPDEST JUMPDEST PUSH1 0x0 DUP3 ADD CALLDATALOAD PUSH8 0xFFFFFFFFFFFFFFFF DUP2 GT ISZERO PUSH2 0xA4F JUMPI PUSH2 0xA4E PUSH2 0x85A JUMP JUMPDEST JUMPDEST PUSH2 0xA5B DUP5 DUP3 DUP6 ADD PUSH2 0x9ED JUMP JUMPDEST SWAP2 POP POP SWAP3 SWAP2 POP POP JUMP JUMPDEST PUSH2 0xA6D DUP2 PUSH2 0x85F JUMP JUMPDEST DUP3 MSTORE POP POP JUMP JUMPDEST PUSH1 0x0 PUSH1 0x20 DUP3 ADD SWAP1 POP PUSH2 0xA88 PUSH1 0x0 DUP4 ADD DUP5 PUSH2 0xA64 JUMP JUMPDEST SWAP3 SWAP2 POP POP JUMP JUMPDEST PUSH1 0x0 DUP2 MLOAD SWAP1 POP SWAP2 SWAP1 POP JUMP JUMPDEST PUSH1 0x0 DUP3 DUP3 MSTORE PUSH1 0x20 DUP3 ADD SWAP1 POP SWAP3 SWAP2 POP POP JUMP JUMPDEST PUSH1 0x0 DUP2 SWAP1 POP PUSH1 0x20 DUP3 ADD SWAP1 POP SWAP2 SWAP1 POP JUMP JUMPDEST PUSH2 0xAC3 DUP2 PUSH2 0x85F JUMP JUMPDEST DUP3 MSTORE POP POP JUMP JUMPDEST PUSH1 0x0 PUSH2 0xAD5 DUP4 DUP4 PUSH2 0xABA JUMP JUMPDEST PUSH1 0x20 DUP4 ADD SWAP1 POP SWAP3 SWAP2 POP POP JUMP JUMPDEST PUSH1 0x0 PUSH1 0x20 DUP3 ADD SWAP1 POP SWAP2 SWAP1 POP JUMP JUMPDEST PUSH1 0x0 PUSH2 0xAF9 DUP3 PUSH2 0xA8E JUMP JUMPDEST PUSH2 0xB03 DUP2 DUP6 PUSH2 0xA99 JUMP JUMPDEST SWAP4 POP PUSH2 0xB0E DUP4 PUSH2 0xAAA JUMP JUMPDEST DUP1 PUSH1 0x0 JUMPDEST DUP4 DUP2 LT ISZERO PUSH2 0xB3F JUMPI DUP2 MLOAD PUSH2 0xB26 DUP9 DUP3 PUSH2 0xAC9 JUMP JUMPDEST SWAP8 POP PUSH2 0xB31 DUP4 PUSH2 0xAE1 JUMP JUMPDEST SWAP3 POP POP PUSH1 0x1 DUP2 ADD SWAP1 POP PUSH2 0xB12 JUMP JUMPDEST POP DUP6 SWAP4 POP POP POP POP SWAP3 SWAP2 POP POP JUMP JUMPDEST PUSH1 0x0 PUSH1 0x20 DUP3 ADD SWAP1 POP DUP2 DUP2 SUB PUSH1 0x0 DUP4 ADD MSTORE PUSH2 0xB66 DUP2 DUP5 PUSH2 0xAEE JUMP JUMPDEST SWAP1 POP SWAP3 SWAP2 POP POP JUMP JUMPDEST PUSH1 0x0 PUSH20 0xFFFFFFFFFFFFFFFFFFFFFFFFFFFFFFFFFFFFFFFF DUP3 AND SWAP1 POP SWAP2 SWAP1 POP JUMP JUMPDEST PUSH1 0x0 PUSH2 0xB99 DUP3 PUSH2 0xB6E JUMP JUMPDEST SWAP1 POP SWAP2 SWAP1 POP JUMP JUMPDEST PUSH2 0xBA9 DUP2 PUSH2 0xB8E JUMP JUMPDEST DUP3 MSTORE POP POP JUMP JUMPDEST PUSH1 0x0 PUSH1 0x20 DUP3 ADD SWAP1 POP PUSH2 0xBC4 PUSH1 0x0 DUP4 ADD DUP5 PUSH2 0xBA0 JUMP JUMPDEST SWAP3 SWAP2 POP POP JUMP JUMPDEST PUSH1 0x0 DUP3 DUP3 MSTORE PUSH1 0x20 DUP3 ADD SWAP1 POP SWAP3 SWAP2 POP POP JUMP JUMPDEST PUSH32 0x4F6E6C7920746865206F776E65722063616E20706572666F726D207468697320 PUSH1 0x0 DUP3 ADD MSTORE PUSH32 0x616374696F6E0000000000000000000000000000000000000000000000000000 PUSH1 0x20 DUP3 ADD MSTORE POP JUMP JUMPDEST PUSH1 0x0 PUSH2 0xC37 PUSH1 0x26 DUP4 PUSH2 0xBCA JUMP JUMPDEST SWAP2 POP PUSH2 0xC42 DUP3 PUSH2 0xBDB JUMP JUMPDEST PUSH1 0x40 DUP3 ADD SWAP1 POP SWAP2 SWAP1 POP JUMP JUMPDEST PUSH1 0x0 PUSH1 0x20 DUP3 ADD SWAP1 POP DUP2 DUP2 SUB PUSH1 0x0 DUP4 ADD MSTORE PUSH2 0xC66 DUP2 PUSH2 0xC2A JUMP JUMPDEST SWAP1 POP SWAP2 SWAP1 POP JUMP JUMPDEST PUSH32 0x4E487B7100000000000000000000000000000000000000000000000000000000 PUSH1 0x0 MSTORE PUSH1 0x11 PUSH1 0x4 MSTORE PUSH1 0x24 PUSH1 0x0 REVERT JUMPDEST PUSH1 0x0 PUSH2 0xCA7 DUP3 PUSH2 0x85F JUMP JUMPDEST SWAP2 POP PUSH2 0xCB2 DUP4 PUSH2 0x85F JUMP JUMPDEST SWAP3 POP DUP3 DUP3 MUL PUSH2 0xCC0 DUP2 PUSH2 0x85F JUMP JUMPDEST SWAP2 POP DUP3 DUP3 DIV DUP5 EQ DUP4 ISZERO OR PUSH2 0xCD7 JUMPI PUSH2 0xCD6 PUSH2 0xC6D JUMP JUMPDEST JUMPDEST POP SWAP3 SWAP2 POP POP JUMP JUMPDEST PUSH32 0x57726F6E6720616D6F756E740000000000000000000000000000000000000000 PUSH1 0x0 DUP3 ADD MSTORE POP JUMP JUMPDEST PUSH1 0x0 PUSH2 0xD14 PUSH1 0xC DUP4 PUSH2 0xBCA JUMP JUMPDEST SWAP2 POP PUSH2 0xD1F DUP3 PUSH2 0xCDE JUMP JUMPDEST PUSH1 0x20 DUP3 ADD SWAP1 POP SWAP2 SWAP1 POP JUMP JUMPDEST PUSH1 0x0 PUSH1 0x20 DUP3 ADD SWAP1 POP DUP2 DUP2 SUB PUSH1 0x0 DUP4 ADD MSTORE PUSH2 0xD43 DUP2 PUSH2 0xD07 JUMP JUMPDEST SWAP1 POP SWAP2 SWAP1 POP JUMP JUMPDEST PUSH32 0x57726F6E67206E756D626572206F66206E756D62657273000000000000000000 PUSH1 0x0 DUP3 ADD MSTORE POP JUMP JUMPDEST PUSH1 0x0 PUSH2 0xD80 PUSH1 0x17 DUP4 PUSH2 0xBCA JUMP JUMPDEST SWAP2 POP PUSH2 0xD8B DUP3 PUSH2 0xD4A JUMP JUMPDEST PUSH1 0x20 DUP3 ADD SWAP1 POP SWAP2 SWAP1 POP JUMP JUMPDEST PUSH1 0x0 PUSH1 0x20 DUP3 ADD SWAP1 POP DUP2 DUP2 SUB PUSH1 0x0 DUP4 ADD MSTORE PUSH2 0xDAF DUP2 PUSH2 0xD73 JUMP JUMPDEST SWAP1 POP SWAP2 SWAP1 POP JUMP JUMPDEST PUSH32 0x4E487B7100000000000000000000000000000000000000000000000000000000 PUSH1 0x0 MSTORE PUSH1 0x32 PUSH1 0x4 MSTORE PUSH1 0x24 PUSH1 0x0 REVERT JUMPDEST PUSH32 0x57726F6E67206E756D6265720000000000000000000000000000000000000000 PUSH1 0x0 DUP3 ADD MSTORE POP JUMP JUMPDEST PUSH1 0x0 PUSH2 0xE1B PUSH1 0xC DUP4 PUSH2 0xBCA JUMP JUMPDEST SWAP2 POP PUSH2 0xE26 DUP3 PUSH2 0xDE5 JUMP JUMPDEST PUSH1 0x20 DUP3 ADD SWAP1 POP SWAP2 SWAP1 POP JUMP JUMPDEST PUSH1 0x0 PUSH1 0x20 DUP3 ADD SWAP1 POP DUP2 DUP2 SUB PUSH1 0x0 DUP4 ADD MSTORE PUSH2 0xE4A DUP2 PUSH2 0xE0E JUMP JUMPDEST SWAP1 POP SWAP2 SWAP1 POP JUMP JUMPDEST PUSH1 0x0 PUSH2 0xE5C DUP3 PUSH2 0x85F JUMP JUMPDEST SWAP2 POP PUSH32 0xFFFFFFFFFFFFFFFFFFFFFFFFFFFFFFFFFFFFFFFFFFFFFFFFFFFFFFFFFFFFFFFF DUP3 SUB PUSH2 0xE8E JUMPI PUSH2 0xE8D PUSH2 0xC6D JUMP JUMPDEST JUMPDEST PUSH1 0x1 DUP3 ADD SWAP1 POP SWAP2 SWAP1 POP JUMP JUMPDEST PUSH32 0x596F75206861766520616C726561647920626F756768742061207469636B6574 PUSH1 0x0 DUP3 ADD MSTORE POP JUMP JUMPDEST PUSH1 0x0 PUSH2 0xECF PUSH1 0x20 DUP4 PUSH2 0xBCA JUMP JUMPDEST SWAP2 POP PUSH2 0xEDA DUP3 PUSH2 0xE99 JUMP JUMPDEST PUSH1 0x20 DUP3 ADD SWAP1 POP SWAP2 SWAP1 POP JUMP JUMPDEST PUSH1 0x0 PUSH1 0x20 DUP3 ADD SWAP1 POP DUP2 DUP2 SUB PUSH1 0x0 DUP4 ADD MSTORE PUSH2 0xEFE DUP2 PUSH2 0xEC2 JUMP JUMPDEST SWAP1 POP SWAP2 SWAP1 POP JUMP JUMPDEST PUSH1 0x0 PUSH2 0xF10 DUP3 PUSH2 0x85F JUMP JUMPDEST SWAP2 POP PUSH2 0xF1B DUP4 PUSH2 0x85F JUMP JUMPDEST SWAP3 POP DUP3 DUP3 ADD SWAP1 POP DUP1 DUP3 GT ISZERO PUSH2 0xF33 JUMPI PUSH2 0xF32 PUSH2 0xC6D JUMP JUMPDEST JUMPDEST SWAP3 SWAP2 POP POP JUMP JUMPDEST PUSH32 0x4E487B7100000000000000000000000000000000000000000000000000000000 PUSH1 0x0 MSTORE PUSH1 0x12 PUSH1 0x4 MSTORE PUSH1 0x24 PUSH1 0x0 REVERT JUMPDEST PUSH1 0x0 PUSH2 0xF73 DUP3 PUSH2 0x85F JUMP JUMPDEST SWAP2 POP PUSH2 0xF7E DUP4 PUSH2 0x85F JUMP JUMPDEST SWAP3 POP DUP3 PUSH2 0xF8E JUMPI PUSH2 0xF8D PUSH2 0xF39 JUMP JUMPDEST JUMPDEST DUP3 DUP3 DIV SWAP1 POP SWAP3 SWAP2 POP POP JUMP JUMPDEST PUSH1 0x0 DUP2 SWAP1 POP SWAP2 SWAP1 POP JUMP JUMPDEST PUSH2 0xFB4 PUSH2 0xFAF DUP3 PUSH2 0x85F JUMP JUMPDEST PUSH2 0xF99 JUMP JUMPDEST DUP3 MSTORE POP POP JUMP JUMPDEST PUSH1 0x0 PUSH2 0xFC6 DUP3 DUP6 PUSH2 0xFA3 JUMP JUMPDEST PUSH1 0x20 DUP3 ADD SWAP2 POP PUSH2 0xFD6 DUP3 DUP5 PUSH2 0xFA3 JUMP JUMPDEST PUSH1 0x20 DUP3 ADD SWAP2 POP DUP2 SWAP1 POP SWAP4 SWAP3 POP POP POP JUMP JUMPDEST PUSH1 0x0 PUSH2 0xFF1 DUP3 PUSH2 0x85F JUMP JUMPDEST SWAP2 POP PUSH2 0xFFC DUP4 PUSH2 0x85F JUMP JUMPDEST SWAP3 POP DUP3 PUSH2 0x100C JUMPI PUSH2 0x100B PUSH2 0xF39 JUMP JUMPDEST JUMPDEST DUP3 DUP3 MOD SWAP1 POP SWAP3 SWAP2 POP POP JUMP INVALID LOG2 PUSH5 0x6970667358 0x22 SLT KECCAK256 PUSH9 0x89B38E3FC8FBB86627 0xB0 SELFBALANCE 0xE8 0xC8 0xE8 0xB4 SWAP11 CHAINID SWAP16 PUSH9 0xFD342611E97425EC21 RETURN BALANCE PUSH17 0x64736F6C63430008110033000000000000 "
				},
				"gasEstimates": {
					"creation": {
						"codeDepositCost": "834600",
						"executionCost": "47242",
						"totalCost": "881842"
					},
					"external": {
						"buyTicket(uint256[])": "infinite",
						"changeTicketPrice(uint256)": "infinite",
						"getMyTicketNumbers()": "infinite",
						"getTicketPrice()": "infinite",
						"getTotalLotteryPrice()": "infinite",
						"getWinningNumber()": "infinite",
						"owner()": "2533",
						"setWinningNumbers()": "infinite"
					}
				},
				"methodIdentifiers": {
					"buyTicket(uint256[])": "716cac96",
					"changeTicketPrice(uint256)": "4630a0ee",
					"getMyTicketNumbers()": "a650fbab",
					"getTicketPrice()": "87bb7ae0",
					"getTotalLotteryPrice()": "7f2d18cf",
					"getWinningNumber()": "8b0b9ed4",
					"owner()": "8da5cb5b",
					"setWinningNumbers()": "a7caba25"
				}
			},
			"storageLayout": {
				"storage": [
					{
						"astId": 3,
						"contract": "LotteryNew.sol:Lottery",
						"label": "owner",
						"offset": 0,
						"slot": "0",
						"type": "t_address"
					},
					{
						"astId": 6,
						"contract": "LotteryNew.sol:Lottery",
						"label": "winningNumber",
						"offset": 0,
						"slot": "1",
						"type": "t_array(t_uint256)dyn_storage"
					},
					{
						"astId": 11,
						"contract": "LotteryNew.sol:Lottery",
						"label": "players",
						"offset": 0,
						"slot": "2",
						"type": "t_mapping(t_address,t_array(t_uint256)dyn_storage)"
					},
					{
						"astId": 14,
						"contract": "LotteryNew.sol:Lottery",
						"label": "price",
						"offset": 0,
						"slot": "3",
						"type": "t_uint256"
					},
					{
						"astId": 16,
						"contract": "LotteryNew.sol:Lottery",
						"label": "totalLotteryPrice",
						"offset": 0,
						"slot": "4",
						"type": "t_uint256"
					}
				],
				"types": {
					"t_address": {
						"encoding": "inplace",
						"label": "address",
						"numberOfBytes": "20"
					},
					"t_array(t_uint256)dyn_storage": {
						"base": "t_uint256",
						"encoding": "dynamic_array",
						"label": "uint256[]",
						"numberOfBytes": "32"
					},
					"t_mapping(t_address,t_array(t_uint256)dyn_storage)": {
						"encoding": "mapping",
						"key": "t_address",
						"label": "mapping(address => uint256[])",
						"numberOfBytes": "32",
						"value": "t_array(t_uint256)dyn_storage"
					},
					"t_uint256": {
						"encoding": "inplace",
						"label": "uint256",
						"numberOfBytes": "32"
					}
				}
			},
			"userdoc": {
				"kind": "user",
				"methods": {},
				"version": 1
			}
		}
	}
}