{
	"Lottery/lottery.sol": {
		"Lottery": {
			"abi": [
				{
					"inputs": [],
					"stateMutability": "nonpayable",
					"type": "constructor"
				},
				{
					"anonymous": false,
					"inputs": [
						{
							"indexed": false,
							"internalType": "address payable",
							"name": "winner",
							"type": "address"
						},
						{
							"indexed": false,
							"internalType": "uint256",
							"name": "winAmount",
							"type": "uint256"
						}
					],
					"name": "Winner",
					"type": "event"
				},
				{
					"inputs": [],
					"name": "enter",
					"outputs": [],
					"stateMutability": "payable",
					"type": "function"
				},
				{
					"inputs": [],
					"name": "numPlayers",
					"outputs": [
						{
							"internalType": "uint256",
							"name": "",
							"type": "uint256"
						}
					],
					"stateMutability": "view",
					"type": "function"
				},
				{
					"inputs": [],
					"name": "owner",
					"outputs": [
						{
							"internalType": "address",
							"name": "",
							"type": "address"
						}
					],
					"stateMutability": "view",
					"type": "function"
				},
				{
					"inputs": [],
					"name": "pickWinner",
					"outputs": [],
					"stateMutability": "nonpayable",
					"type": "function"
				},
				{
					"inputs": [],
					"name": "pot",
					"outputs": [
						{
							"internalType": "uint256",
							"name": "",
							"type": "uint256"
						}
					],
					"stateMutability": "view",
					"type": "function"
				}
			],
			"devdoc": {
				"kind": "dev",
				"methods": {},
				"version": 1
			},
			"evm": {
				"assembly": "    /* \"Lottery/lottery.sol\":81:2623  contract Lottery {\r... */\n  mstore(0x40, 0x80)\n    /* \"Lottery/lottery.sol\":578:636  constructor() public {\r... */\n  callvalue\n  dup1\n  iszero\n  tag_1\n  jumpi\n  0x00\n  dup1\n  revert\ntag_1:\n  pop\n    /* \"Lottery/lottery.sol\":618:628  msg.sender */\n  caller\n    /* \"Lottery/lottery.sol\":610:615  owner */\n  0x00\n  dup1\n    /* \"Lottery/lottery.sol\":610:628  owner = msg.sender */\n  0x0100\n  exp\n  dup2\n  sload\n  dup2\n  0xffffffffffffffffffffffffffffffffffffffff\n  mul\n  not\n  and\n  swap1\n  dup4\n  0xffffffffffffffffffffffffffffffffffffffff\n  and\n  mul\n  or\n  swap1\n  sstore\n  pop\n    /* \"Lottery/lottery.sol\":81:2623  contract Lottery {\r... */\n  dataSize(sub_0)\n  dup1\n  dataOffset(sub_0)\n  0x00\n  codecopy\n  0x00\n  return\nstop\n\nsub_0: assembly {\n        /* \"Lottery/lottery.sol\":81:2623  contract Lottery {\r... */\n      mstore(0x40, 0x80)\n      jumpi(tag_1, lt(calldatasize, 0x04))\n      shr(0xe0, calldataload(0x00))\n      dup1\n      0x4ba2363a\n      eq\n      tag_2\n      jumpi\n      dup1\n      0x5d495aea\n      eq\n      tag_3\n      jumpi\n      dup1\n      0x8da5cb5b\n      eq\n      tag_4\n      jumpi\n      dup1\n      0x97b2f556\n      eq\n      tag_5\n      jumpi\n      dup1\n      0xe97dcb62\n      eq\n      tag_6\n      jumpi\n    tag_1:\n      0x00\n      dup1\n      revert\n        /* \"Lottery/lottery.sol\":297:312  uint public pot */\n    tag_2:\n      callvalue\n      dup1\n      iszero\n      tag_7\n      jumpi\n      0x00\n      dup1\n      revert\n    tag_7:\n      pop\n      tag_8\n      tag_9\n      jump\t// in\n    tag_8:\n      mload(0x40)\n      tag_10\n      swap2\n      swap1\n      tag_11\n      jump\t// in\n    tag_10:\n      mload(0x40)\n      dup1\n      swap2\n      sub\n      swap1\n      return\n        /* \"Lottery/lottery.sol\":1554:2505  function pickWinner() public {\r... */\n    tag_3:\n      callvalue\n      dup1\n      iszero\n      tag_12\n      jumpi\n      0x00\n      dup1\n      revert\n    tag_12:\n      pop\n      tag_13\n      tag_14\n      jump\t// in\n    tag_13:\n      stop\n        /* \"Lottery/lottery.sol\":105:125  address public owner */\n    tag_4:\n      callvalue\n      dup1\n      iszero\n      tag_15\n      jumpi\n      0x00\n      dup1\n      revert\n    tag_15:\n      pop\n      tag_16\n      tag_17\n      jump\t// in\n    tag_16:\n      mload(0x40)\n      tag_18\n      swap2\n      swap1\n      tag_19\n      jump\t// in\n    tag_18:\n      mload(0x40)\n      dup1\n      swap2\n      sub\n      swap1\n      return\n        /* \"Lottery/lottery.sol\":379:401  uint public numPlayers */\n    tag_5:\n      callvalue\n      dup1\n      iszero\n      tag_20\n      jumpi\n      0x00\n      dup1\n      revert\n    tag_20:\n      pop\n      tag_21\n      tag_22\n      jump\t// in\n    tag_21:\n      mload(0x40)\n      tag_23\n      swap2\n      swap1\n      tag_11\n      jump\t// in\n    tag_23:\n      mload(0x40)\n      dup1\n      swap2\n      sub\n      swap1\n      return\n        /* \"Lottery/lottery.sol\":697:1156  function enter() public payable {\r... */\n    tag_6:\n      tag_24\n      tag_25\n      jump\t// in\n    tag_24:\n      stop\n        /* \"Lottery/lottery.sol\":297:312  uint public pot */\n    tag_9:\n      sload(0x02)\n      dup2\n      jump\t// out\n        /* \"Lottery/lottery.sol\":1554:2505  function pickWinner() public {\r... */\n    tag_14:\n        /* \"Lottery/lottery.sol\":1616:1621  owner */\n      0x00\n      dup1\n      sload\n      swap1\n      0x0100\n      exp\n      swap1\n      div\n      0xffffffffffffffffffffffffffffffffffffffff\n      and\n        /* \"Lottery/lottery.sol\":1602:1621  msg.sender == owner */\n      0xffffffffffffffffffffffffffffffffffffffff\n      and\n        /* \"Lottery/lottery.sol\":1602:1612  msg.sender */\n      caller\n        /* \"Lottery/lottery.sol\":1602:1621  msg.sender == owner */\n      0xffffffffffffffffffffffffffffffffffffffff\n      and\n      eq\n        /* \"Lottery/lottery.sol\":1594:1658  require(msg.sender == owner, \"Only the owner can pick a winner\") */\n      tag_27\n      jumpi\n      mload(0x40)\n      0x08c379a000000000000000000000000000000000000000000000000000000000\n      dup2\n      mstore\n      0x04\n      add\n      tag_28\n      swap1\n      tag_29\n      jump\t// in\n    tag_28:\n      mload(0x40)\n      dup1\n      swap2\n      sub\n      swap1\n      revert\n    tag_27:\n        /* \"Lottery/lottery.sol\":1748:1749  0 */\n      0x00\n        /* \"Lottery/lottery.sol\":1735:1745  numPlayers */\n      sload(0x03)\n        /* \"Lottery/lottery.sol\":1735:1749  numPlayers > 0 */\n      gt\n        /* \"Lottery/lottery.sol\":1727:1804  require(numPlayers > 0, \"There must be at least one player to pick a winner\") */\n      tag_30\n      jumpi\n      mload(0x40)\n      0x08c379a000000000000000000000000000000000000000000000000000000000\n      dup2\n      mstore\n      0x04\n      add\n      tag_31\n      swap1\n      tag_32\n      jump\t// in\n    tag_31:\n      mload(0x40)\n      dup1\n      swap2\n      sub\n      swap1\n      revert\n    tag_30:\n        /* \"Lottery/lottery.sol\":1865:1875  uint index */\n      0x00\n        /* \"Lottery/lottery.sol\":1878:1886  random() */\n      tag_33\n        /* \"Lottery/lottery.sol\":1878:1884  random */\n      tag_34\n        /* \"Lottery/lottery.sol\":1878:1886  random() */\n      jump\t// in\n    tag_33:\n        /* \"Lottery/lottery.sol\":1865:1886  uint index = random() */\n      swap1\n      pop\n        /* \"Lottery/lottery.sol\":1964:1986  address payable winner */\n      0x00\n        /* \"Lottery/lottery.sol\":1989:1996  players */\n      0x01\n        /* \"Lottery/lottery.sol\":1997:2002  index */\n      dup3\n        /* \"Lottery/lottery.sol\":1989:2003  players[index] */\n      dup2\n      sload\n      dup2\n      lt\n      tag_35\n      jumpi\n      tag_36\n      tag_37\n      jump\t// in\n    tag_36:\n    tag_35:\n      swap1\n      0x00\n      mstore\n      keccak256(0x00, 0x20)\n      add\n      0x00\n      swap1\n      sload\n      swap1\n      0x0100\n      exp\n      swap1\n      div\n      0xffffffffffffffffffffffffffffffffffffffff\n      and\n        /* \"Lottery/lottery.sol\":1964:2003  address payable winner = players[index] */\n      swap1\n      pop\n        /* \"Lottery/lottery.sol\":2071:2085  uint winAmount */\n      0x00\n        /* \"Lottery/lottery.sol\":2088:2091  pot */\n      sload(0x02)\n        /* \"Lottery/lottery.sol\":2071:2091  uint winAmount = pot */\n      swap1\n      pop\n        /* \"Lottery/lottery.sol\":2188:2189  0 */\n      0x00\n        /* \"Lottery/lottery.sol\":2166:2190  new address payable[](0) */\n      0xffffffffffffffff\n      dup2\n      gt\n      iszero\n      tag_39\n      jumpi\n      tag_40\n      tag_41\n      jump\t// in\n    tag_40:\n    tag_39:\n      mload(0x40)\n      swap1\n      dup1\n      dup3\n      mstore\n      dup1\n      0x20\n      mul\n      0x20\n      add\n      dup3\n      add\n      0x40\n      mstore\n      dup1\n      iszero\n      tag_42\n      jumpi\n      dup2\n      0x20\n      add\n      0x20\n      dup3\n      mul\n      dup1\n      calldatasize\n      dup4\n      calldatacopy\n      dup1\n      dup3\n      add\n      swap2\n      pop\n      pop\n      swap1\n      pop\n    tag_42:\n      pop\n        /* \"Lottery/lottery.sol\":2156:2163  players */\n      0x01\n        /* \"Lottery/lottery.sol\":2156:2190  players = new address payable[](0) */\n      swap1\n      dup1\n      mload\n      swap1\n      0x20\n      add\n      swap1\n      tag_43\n      swap3\n      swap2\n      swap1\n      tag_44\n      jump\t// in\n    tag_43:\n      pop\n        /* \"Lottery/lottery.sol\":2234:2235  0 */\n      0x00\n        /* \"Lottery/lottery.sol\":2228:2231  pot */\n      0x02\n        /* \"Lottery/lottery.sol\":2228:2235  pot = 0 */\n      dup2\n      swap1\n      sstore\n      pop\n        /* \"Lottery/lottery.sol\":2281:2282  0 */\n      0x00\n        /* \"Lottery/lottery.sol\":2268:2278  numPlayers */\n      0x03\n        /* \"Lottery/lottery.sol\":2268:2282  numPlayers = 0 */\n      dup2\n      swap1\n      sstore\n      pop\n        /* \"Lottery/lottery.sol\":2327:2352  Winner(winner, winAmount) */\n      0x9c2270628a9b29d30ae96b6c4c14ed646ee134febdce38a5b77f2bde9cea2e20\n        /* \"Lottery/lottery.sol\":2334:2340  winner */\n      dup3\n        /* \"Lottery/lottery.sol\":2342:2351  winAmount */\n      dup3\n        /* \"Lottery/lottery.sol\":2327:2352  Winner(winner, winAmount) */\n      mload(0x40)\n      tag_45\n      swap3\n      swap2\n      swap1\n      tag_46\n      jump\t// in\n    tag_45:\n      mload(0x40)\n      dup1\n      swap2\n      sub\n      swap1\n      log1\n        /* \"Lottery/lottery.sol\":2420:2426  winner */\n      dup2\n        /* \"Lottery/lottery.sol\":2420:2435  winner.transfer */\n      0xffffffffffffffffffffffffffffffffffffffff\n      and\n        /* \"Lottery/lottery.sol\":2420:2446  winner.transfer(winAmount) */\n      0x08fc\n        /* \"Lottery/lottery.sol\":2436:2445  winAmount */\n      dup3\n        /* \"Lottery/lottery.sol\":2420:2446  winner.transfer(winAmount) */\n      swap1\n      dup2\n      iszero\n      mul\n      swap1\n      mload(0x40)\n      0x00\n      mload(0x40)\n      dup1\n      dup4\n      sub\n      dup2\n      dup6\n      dup9\n      dup9\n      call\n      swap4\n      pop\n      pop\n      pop\n      pop\n      iszero\n      dup1\n      iszero\n      tag_48\n      jumpi\n      returndatasize\n      0x00\n      dup1\n      returndatacopy\n      revert(0x00, returndatasize)\n    tag_48:\n      pop\n        /* \"Lottery/lottery.sol\":1583:2505  {\r... */\n      pop\n      pop\n      pop\n        /* \"Lottery/lottery.sol\":1554:2505  function pickWinner() public {\r... */\n      jump\t// out\n        /* \"Lottery/lottery.sol\":105:125  address public owner */\n    tag_17:\n      0x00\n      dup1\n      sload\n      swap1\n      0x0100\n      exp\n      swap1\n      div\n      0xffffffffffffffffffffffffffffffffffffffff\n      and\n      dup2\n      jump\t// out\n        /* \"Lottery/lottery.sol\":379:401  uint public numPlayers */\n    tag_22:\n      sload(0x03)\n      dup2\n      jump\t// out\n        /* \"Lottery/lottery.sol\":697:1156  function enter() public payable {\r... */\n    tag_25:\n        /* \"Lottery/lottery.sol\":760:770  0.01 ether */\n      0x2386f26fc10000\n        /* \"Lottery/lottery.sol\":748:757  msg.value */\n      callvalue\n        /* \"Lottery/lottery.sol\":748:770  msg.value > 0.01 ether */\n      gt\n        /* \"Lottery/lottery.sol\":740:814  require(msg.value > 0.01 ether, \"Your ticket must be at least 0.01 ether\") */\n      tag_50\n      jumpi\n      mload(0x40)\n      0x08c379a000000000000000000000000000000000000000000000000000000000\n      dup2\n      mstore\n      0x04\n      add\n      tag_51\n      swap1\n      tag_52\n      jump\t// in\n    tag_51:\n      mload(0x40)\n      dup1\n      swap2\n      sub\n      swap1\n      revert\n    tag_50:\n        /* \"Lottery/lottery.sol\":901:908  players */\n      0x01\n        /* \"Lottery/lottery.sol\":922:932  msg.sender */\n      caller\n        /* \"Lottery/lottery.sol\":901:934  players.push(payable(msg.sender)) */\n      swap1\n      dup1\n      0x01\n      dup2\n      sload\n      add\n      dup1\n      dup3\n      sstore\n      dup1\n      swap2\n      pop\n      pop\n      0x01\n      swap1\n      sub\n      swap1\n      0x00\n      mstore\n      keccak256(0x00, 0x20)\n      add\n      0x00\n      swap1\n      swap2\n      swap1\n      swap2\n      swap1\n      swap2\n      0x0100\n      exp\n      dup2\n      sload\n      dup2\n      0xffffffffffffffffffffffffffffffffffffffff\n      mul\n      not\n      and\n      swap1\n      dup4\n      0xffffffffffffffffffffffffffffffffffffffff\n      and\n      mul\n      or\n      swap1\n      sstore\n      pop\n        /* \"Lottery/lottery.sol\":995:1005  numPlayers */\n      0x03\n      0x00\n        /* \"Lottery/lottery.sol\":995:1007  numPlayers++ */\n      dup2\n      sload\n      dup1\n      swap3\n      swap2\n      swap1\n      tag_54\n      swap1\n      tag_55\n      jump\t// in\n    tag_54:\n      swap2\n      swap1\n      pop\n      sstore\n      pop\n        /* \"Lottery/lottery.sol\":1069:1078  msg.value */\n      callvalue\n        /* \"Lottery/lottery.sol\":1062:1065  pot */\n      0x02\n      0x00\n        /* \"Lottery/lottery.sol\":1062:1078  pot += msg.value */\n      dup3\n      dup3\n      sload\n      tag_56\n      swap2\n      swap1\n      tag_57\n      jump\t// in\n    tag_56:\n      swap3\n      pop\n      pop\n      dup2\n      swap1\n      sstore\n      pop\n        /* \"Lottery/lottery.sol\":697:1156  function enter() public payable {\r... */\n      jump\t// out\n        /* \"Lottery/lottery.sol\":1247:1497  function random() private view returns (uint) {\r... */\n    tag_34:\n        /* \"Lottery/lottery.sol\":1287:1291  uint */\n      0x00\n        /* \"Lottery/lottery.sol\":1391:1398  players */\n      0x01\n        /* \"Lottery/lottery.sol\":1391:1405  players.length */\n      dup1\n      sload\n      swap1\n      pop\n        /* \"Lottery/lottery.sol\":1343:1359  block.difficulty */\n      difficulty\n        /* \"Lottery/lottery.sol\":1361:1376  block.timestamp */\n      timestamp\n        /* \"Lottery/lottery.sol\":1378:1385  players */\n      0x01\n        /* \"Lottery/lottery.sol\":1326:1386  abi.encodePacked(block.difficulty, block.timestamp, players) */\n      add(0x20, mload(0x40))\n      tag_59\n      swap4\n      swap3\n      swap2\n      swap1\n      tag_60\n      jump\t// in\n    tag_59:\n      mload(0x40)\n      0x20\n      dup2\n      dup4\n      sub\n      sub\n      dup2\n      mstore\n      swap1\n      0x40\n      mstore\n        /* \"Lottery/lottery.sol\":1316:1387  keccak256(abi.encodePacked(block.difficulty, block.timestamp, players)) */\n      dup1\n      mload\n      swap1\n      0x20\n      add\n      keccak256\n        /* \"Lottery/lottery.sol\":1311:1388  uint(keccak256(abi.encodePacked(block.difficulty, block.timestamp, players))) */\n      0x00\n      shr\n        /* \"Lottery/lottery.sol\":1311:1405  uint(keccak256(abi.encodePacked(block.difficulty, block.timestamp, players))) % players.length */\n      tag_61\n      swap2\n      swap1\n      tag_62\n      jump\t// in\n    tag_61:\n        /* \"Lottery/lottery.sol\":1304:1405  return uint(keccak256(abi.encodePacked(block.difficulty, block.timestamp, players))) % players.length */\n      swap1\n      pop\n        /* \"Lottery/lottery.sol\":1247:1497  function random() private view returns (uint) {\r... */\n      swap1\n      jump\t// out\n    tag_44:\n      dup3\n      dup1\n      sload\n      dup3\n      dup3\n      sstore\n      swap1\n      0x00\n      mstore\n      keccak256(0x00, 0x20)\n      swap1\n      dup2\n      add\n      swap3\n      dup3\n      iszero\n      tag_63\n      jumpi\n      swap2\n      0x20\n      mul\n      dup3\n      add\n    tag_64:\n      dup3\n      dup2\n      gt\n      iszero\n      tag_65\n      jumpi\n      dup3\n      mload\n      dup3\n      exp(0x0100, 0x00)\n      dup2\n      sload\n      dup2\n      0xffffffffffffffffffffffffffffffffffffffff\n      mul\n      not\n      and\n      swap1\n      dup4\n      0xffffffffffffffffffffffffffffffffffffffff\n      and\n      mul\n      or\n      swap1\n      sstore\n      pop\n      swap2\n      0x20\n      add\n      swap2\n      swap1\n      0x01\n      add\n      swap1\n      jump(tag_64)\n    tag_65:\n    tag_63:\n      pop\n      swap1\n      pop\n      tag_66\n      swap2\n      swap1\n      tag_67\n      jump\t// in\n    tag_66:\n      pop\n      swap1\n      jump\t// out\n    tag_67:\n    tag_68:\n      dup1\n      dup3\n      gt\n      iszero\n      tag_69\n      jumpi\n      0x00\n      dup2\n      0x00\n      swap1\n      sstore\n      pop\n      0x01\n      add\n      jump(tag_68)\n    tag_69:\n      pop\n      swap1\n      jump\t// out\n        /* \"#utility.yul\":7:234   */\n    tag_71:\n        /* \"#utility.yul\":100:110   */\n      0x00\n        /* \"#utility.yul\":121:191   */\n      tag_73\n        /* \"#utility.yul\":187:190   */\n      dup4\n        /* \"#utility.yul\":179:185   */\n      dup4\n        /* \"#utility.yul\":121:191   */\n      tag_74\n      jump\t// in\n    tag_73:\n        /* \"#utility.yul\":223:227   */\n      0x20\n        /* \"#utility.yul\":218:221   */\n      dup4\n        /* \"#utility.yul\":214:228   */\n      add\n        /* \"#utility.yul\":200:228   */\n      swap1\n      pop\n        /* \"#utility.yul\":7:234   */\n      swap3\n      swap2\n      pop\n      pop\n      jump\t// out\n        /* \"#utility.yul\":240:382   */\n    tag_75:\n        /* \"#utility.yul\":343:375   */\n      tag_77\n        /* \"#utility.yul\":369:374   */\n      dup2\n        /* \"#utility.yul\":343:375   */\n      tag_78\n      jump\t// in\n    tag_77:\n        /* \"#utility.yul\":338:341   */\n      dup3\n        /* \"#utility.yul\":331:376   */\n      mstore\n        /* \"#utility.yul\":240:382   */\n      pop\n      pop\n      jump\t// out\n        /* \"#utility.yul\":388:528   */\n    tag_74:\n        /* \"#utility.yul\":489:521   */\n      tag_80\n        /* \"#utility.yul\":515:520   */\n      dup2\n        /* \"#utility.yul\":489:521   */\n      tag_78\n      jump\t// in\n    tag_80:\n        /* \"#utility.yul\":484:487   */\n      dup3\n        /* \"#utility.yul\":477:522   */\n      mstore\n        /* \"#utility.yul\":388:528   */\n      pop\n      pop\n      jump\t// out\n        /* \"#utility.yul\":534:652   */\n    tag_81:\n        /* \"#utility.yul\":621:645   */\n      tag_83\n        /* \"#utility.yul\":639:644   */\n      dup2\n        /* \"#utility.yul\":621:645   */\n      tag_84\n      jump\t// in\n    tag_83:\n        /* \"#utility.yul\":616:619   */\n      dup3\n        /* \"#utility.yul\":609:646   */\n      mstore\n        /* \"#utility.yul\":534:652   */\n      pop\n      pop\n      jump\t// out\n        /* \"#utility.yul\":704:1571   */\n    tag_85:\n        /* \"#utility.yul\":854:857   */\n      0x00\n        /* \"#utility.yul\":883:942   */\n      tag_87\n        /* \"#utility.yul\":936:941   */\n      dup3\n        /* \"#utility.yul\":883:942   */\n      tag_88\n      jump\t// in\n    tag_87:\n        /* \"#utility.yul\":958:1070   */\n      tag_89\n        /* \"#utility.yul\":1063:1069   */\n      dup2\n        /* \"#utility.yul\":1058:1061   */\n      dup6\n        /* \"#utility.yul\":958:1070   */\n      tag_90\n      jump\t// in\n    tag_89:\n        /* \"#utility.yul\":951:1070   */\n      swap4\n      pop\n        /* \"#utility.yul\":1094:1155   */\n      tag_91\n        /* \"#utility.yul\":1149:1154   */\n      dup4\n        /* \"#utility.yul\":1094:1155   */\n      tag_92\n      jump\t// in\n    tag_91:\n        /* \"#utility.yul\":1178:1185   */\n      dup1\n        /* \"#utility.yul\":1209:1210   */\n      0x00\n        /* \"#utility.yul\":1194:1546   */\n    tag_93:\n        /* \"#utility.yul\":1219:1225   */\n      dup4\n        /* \"#utility.yul\":1216:1217   */\n      dup2\n        /* \"#utility.yul\":1213:1226   */\n      lt\n        /* \"#utility.yul\":1194:1546   */\n      iszero\n      tag_95\n      jumpi\n        /* \"#utility.yul\":1289:1341   */\n      tag_96\n        /* \"#utility.yul\":1334:1340   */\n      dup3\n        /* \"#utility.yul\":1289:1341   */\n      tag_97\n      jump\t// in\n    tag_96:\n        /* \"#utility.yul\":1361:1448   */\n      tag_98\n        /* \"#utility.yul\":1444:1447   */\n      dup9\n        /* \"#utility.yul\":1429:1442   */\n      dup3\n        /* \"#utility.yul\":1361:1448   */\n      tag_71\n      jump\t// in\n    tag_98:\n        /* \"#utility.yul\":1354:1448   */\n      swap8\n      pop\n        /* \"#utility.yul\":1471:1536   */\n      tag_99\n        /* \"#utility.yul\":1529:1535   */\n      dup4\n        /* \"#utility.yul\":1471:1536   */\n      tag_100\n      jump\t// in\n    tag_99:\n        /* \"#utility.yul\":1461:1536   */\n      swap3\n      pop\n        /* \"#utility.yul\":1254:1546   */\n      pop\n        /* \"#utility.yul\":1241:1242   */\n      0x01\n        /* \"#utility.yul\":1238:1239   */\n      dup2\n        /* \"#utility.yul\":1234:1243   */\n      add\n        /* \"#utility.yul\":1229:1243   */\n      swap1\n      pop\n        /* \"#utility.yul\":1194:1546   */\n      jump(tag_93)\n    tag_95:\n        /* \"#utility.yul\":1198:1212   */\n      pop\n        /* \"#utility.yul\":1562:1565   */\n      dup6\n        /* \"#utility.yul\":1555:1565   */\n      swap4\n      pop\n        /* \"#utility.yul\":859:1571   */\n      pop\n      pop\n      pop\n        /* \"#utility.yul\":704:1571   */\n      swap3\n      swap2\n      pop\n      pop\n      jump\t// out\n        /* \"#utility.yul\":1577:1943   */\n    tag_101:\n        /* \"#utility.yul\":1719:1722   */\n      0x00\n        /* \"#utility.yul\":1740:1807   */\n      tag_103\n        /* \"#utility.yul\":1804:1806   */\n      0x20\n        /* \"#utility.yul\":1799:1802   */\n      dup4\n        /* \"#utility.yul\":1740:1807   */\n      tag_104\n      jump\t// in\n    tag_103:\n        /* \"#utility.yul\":1733:1807   */\n      swap2\n      pop\n        /* \"#utility.yul\":1816:1909   */\n      tag_105\n        /* \"#utility.yul\":1905:1908   */\n      dup3\n        /* \"#utility.yul\":1816:1909   */\n      tag_106\n      jump\t// in\n    tag_105:\n        /* \"#utility.yul\":1934:1936   */\n      0x20\n        /* \"#utility.yul\":1929:1932   */\n      dup3\n        /* \"#utility.yul\":1925:1937   */\n      add\n        /* \"#utility.yul\":1918:1937   */\n      swap1\n      pop\n        /* \"#utility.yul\":1577:1943   */\n      swap2\n      swap1\n      pop\n      jump\t// out\n        /* \"#utility.yul\":1949:2315   */\n    tag_107:\n        /* \"#utility.yul\":2091:2094   */\n      0x00\n        /* \"#utility.yul\":2112:2179   */\n      tag_109\n        /* \"#utility.yul\":2176:2178   */\n      0x32\n        /* \"#utility.yul\":2171:2174   */\n      dup4\n        /* \"#utility.yul\":2112:2179   */\n      tag_104\n      jump\t// in\n    tag_109:\n        /* \"#utility.yul\":2105:2179   */\n      swap2\n      pop\n        /* \"#utility.yul\":2188:2281   */\n      tag_110\n        /* \"#utility.yul\":2277:2280   */\n      dup3\n        /* \"#utility.yul\":2188:2281   */\n      tag_111\n      jump\t// in\n    tag_110:\n        /* \"#utility.yul\":2306:2308   */\n      0x40\n        /* \"#utility.yul\":2301:2304   */\n      dup3\n        /* \"#utility.yul\":2297:2309   */\n      add\n        /* \"#utility.yul\":2290:2309   */\n      swap1\n      pop\n        /* \"#utility.yul\":1949:2315   */\n      swap2\n      swap1\n      pop\n      jump\t// out\n        /* \"#utility.yul\":2321:2687   */\n    tag_112:\n        /* \"#utility.yul\":2463:2466   */\n      0x00\n        /* \"#utility.yul\":2484:2551   */\n      tag_114\n        /* \"#utility.yul\":2548:2550   */\n      0x27\n        /* \"#utility.yul\":2543:2546   */\n      dup4\n        /* \"#utility.yul\":2484:2551   */\n      tag_104\n      jump\t// in\n    tag_114:\n        /* \"#utility.yul\":2477:2551   */\n      swap2\n      pop\n        /* \"#utility.yul\":2560:2653   */\n      tag_115\n        /* \"#utility.yul\":2649:2652   */\n      dup3\n        /* \"#utility.yul\":2560:2653   */\n      tag_116\n      jump\t// in\n    tag_115:\n        /* \"#utility.yul\":2678:2680   */\n      0x40\n        /* \"#utility.yul\":2673:2676   */\n      dup3\n        /* \"#utility.yul\":2669:2681   */\n      add\n        /* \"#utility.yul\":2662:2681   */\n      swap1\n      pop\n        /* \"#utility.yul\":2321:2687   */\n      swap2\n      swap1\n      pop\n      jump\t// out\n        /* \"#utility.yul\":2693:2811   */\n    tag_117:\n        /* \"#utility.yul\":2780:2804   */\n      tag_119\n        /* \"#utility.yul\":2798:2803   */\n      dup2\n        /* \"#utility.yul\":2780:2804   */\n      tag_120\n      jump\t// in\n    tag_119:\n        /* \"#utility.yul\":2775:2778   */\n      dup3\n        /* \"#utility.yul\":2768:2805   */\n      mstore\n        /* \"#utility.yul\":2693:2811   */\n      pop\n      pop\n      jump\t// out\n        /* \"#utility.yul\":2817:2974   */\n    tag_121:\n        /* \"#utility.yul\":2922:2967   */\n      tag_123\n        /* \"#utility.yul\":2942:2966   */\n      tag_124\n        /* \"#utility.yul\":2960:2965   */\n      dup3\n        /* \"#utility.yul\":2942:2966   */\n      tag_120\n      jump\t// in\n    tag_124:\n        /* \"#utility.yul\":2922:2967   */\n      tag_125\n      jump\t// in\n    tag_123:\n        /* \"#utility.yul\":2917:2920   */\n      dup3\n        /* \"#utility.yul\":2910:2968   */\n      mstore\n        /* \"#utility.yul\":2817:2974   */\n      pop\n      pop\n      jump\t// out\n        /* \"#utility.yul\":2980:3623   */\n    tag_60:\n        /* \"#utility.yul\":3211:3214   */\n      0x00\n        /* \"#utility.yul\":3226:3301   */\n      tag_127\n        /* \"#utility.yul\":3297:3300   */\n      dup3\n        /* \"#utility.yul\":3288:3294   */\n      dup7\n        /* \"#utility.yul\":3226:3301   */\n      tag_121\n      jump\t// in\n    tag_127:\n        /* \"#utility.yul\":3326:3328   */\n      0x20\n        /* \"#utility.yul\":3321:3324   */\n      dup3\n        /* \"#utility.yul\":3317:3329   */\n      add\n        /* \"#utility.yul\":3310:3329   */\n      swap2\n      pop\n        /* \"#utility.yul\":3339:3414   */\n      tag_128\n        /* \"#utility.yul\":3410:3413   */\n      dup3\n        /* \"#utility.yul\":3401:3407   */\n      dup6\n        /* \"#utility.yul\":3339:3414   */\n      tag_121\n      jump\t// in\n    tag_128:\n        /* \"#utility.yul\":3439:3441   */\n      0x20\n        /* \"#utility.yul\":3434:3437   */\n      dup3\n        /* \"#utility.yul\":3430:3442   */\n      add\n        /* \"#utility.yul\":3423:3442   */\n      swap2\n      pop\n        /* \"#utility.yul\":3459:3597   */\n      tag_129\n        /* \"#utility.yul\":3593:3596   */\n      dup3\n        /* \"#utility.yul\":3584:3590   */\n      dup5\n        /* \"#utility.yul\":3459:3597   */\n      tag_85\n      jump\t// in\n    tag_129:\n        /* \"#utility.yul\":3452:3597   */\n      swap2\n      pop\n        /* \"#utility.yul\":3614:3617   */\n      dup2\n        /* \"#utility.yul\":3607:3617   */\n      swap1\n      pop\n        /* \"#utility.yul\":2980:3623   */\n      swap5\n      swap4\n      pop\n      pop\n      pop\n      pop\n      jump\t// out\n        /* \"#utility.yul\":3629:3851   */\n    tag_19:\n        /* \"#utility.yul\":3722:3726   */\n      0x00\n        /* \"#utility.yul\":3760:3762   */\n      0x20\n        /* \"#utility.yul\":3749:3758   */\n      dup3\n        /* \"#utility.yul\":3745:3763   */\n      add\n        /* \"#utility.yul\":3737:3763   */\n      swap1\n      pop\n        /* \"#utility.yul\":3773:3844   */\n      tag_131\n        /* \"#utility.yul\":3841:3842   */\n      0x00\n        /* \"#utility.yul\":3830:3839   */\n      dup4\n        /* \"#utility.yul\":3826:3843   */\n      add\n        /* \"#utility.yul\":3817:3823   */\n      dup5\n        /* \"#utility.yul\":3773:3844   */\n      tag_81\n      jump\t// in\n    tag_131:\n        /* \"#utility.yul\":3629:3851   */\n      swap3\n      swap2\n      pop\n      pop\n      jump\t// out\n        /* \"#utility.yul\":3857:4221   */\n    tag_46:\n        /* \"#utility.yul\":3994:3998   */\n      0x00\n        /* \"#utility.yul\":4032:4034   */\n      0x40\n        /* \"#utility.yul\":4021:4030   */\n      dup3\n        /* \"#utility.yul\":4017:4035   */\n      add\n        /* \"#utility.yul\":4009:4035   */\n      swap1\n      pop\n        /* \"#utility.yul\":4045:4132   */\n      tag_133\n        /* \"#utility.yul\":4129:4130   */\n      0x00\n        /* \"#utility.yul\":4118:4127   */\n      dup4\n        /* \"#utility.yul\":4114:4131   */\n      add\n        /* \"#utility.yul\":4105:4111   */\n      dup6\n        /* \"#utility.yul\":4045:4132   */\n      tag_75\n      jump\t// in\n    tag_133:\n        /* \"#utility.yul\":4142:4214   */\n      tag_134\n        /* \"#utility.yul\":4210:4212   */\n      0x20\n        /* \"#utility.yul\":4199:4208   */\n      dup4\n        /* \"#utility.yul\":4195:4213   */\n      add\n        /* \"#utility.yul\":4186:4192   */\n      dup5\n        /* \"#utility.yul\":4142:4214   */\n      tag_117\n      jump\t// in\n    tag_134:\n        /* \"#utility.yul\":3857:4221   */\n      swap4\n      swap3\n      pop\n      pop\n      pop\n      jump\t// out\n        /* \"#utility.yul\":4227:4646   */\n    tag_29:\n        /* \"#utility.yul\":4393:4397   */\n      0x00\n        /* \"#utility.yul\":4431:4433   */\n      0x20\n        /* \"#utility.yul\":4420:4429   */\n      dup3\n        /* \"#utility.yul\":4416:4434   */\n      add\n        /* \"#utility.yul\":4408:4434   */\n      swap1\n      pop\n        /* \"#utility.yul\":4480:4489   */\n      dup2\n        /* \"#utility.yul\":4474:4478   */\n      dup2\n        /* \"#utility.yul\":4470:4490   */\n      sub\n        /* \"#utility.yul\":4466:4467   */\n      0x00\n        /* \"#utility.yul\":4455:4464   */\n      dup4\n        /* \"#utility.yul\":4451:4468   */\n      add\n        /* \"#utility.yul\":4444:4491   */\n      mstore\n        /* \"#utility.yul\":4508:4639   */\n      tag_136\n        /* \"#utility.yul\":4634:4638   */\n      dup2\n        /* \"#utility.yul\":4508:4639   */\n      tag_101\n      jump\t// in\n    tag_136:\n        /* \"#utility.yul\":4500:4639   */\n      swap1\n      pop\n        /* \"#utility.yul\":4227:4646   */\n      swap2\n      swap1\n      pop\n      jump\t// out\n        /* \"#utility.yul\":4652:5071   */\n    tag_32:\n        /* \"#utility.yul\":4818:4822   */\n      0x00\n        /* \"#utility.yul\":4856:4858   */\n      0x20\n        /* \"#utility.yul\":4845:4854   */\n      dup3\n        /* \"#utility.yul\":4841:4859   */\n      add\n        /* \"#utility.yul\":4833:4859   */\n      swap1\n      pop\n        /* \"#utility.yul\":4905:4914   */\n      dup2\n        /* \"#utility.yul\":4899:4903   */\n      dup2\n        /* \"#utility.yul\":4895:4915   */\n      sub\n        /* \"#utility.yul\":4891:4892   */\n      0x00\n        /* \"#utility.yul\":4880:4889   */\n      dup4\n        /* \"#utility.yul\":4876:4893   */\n      add\n        /* \"#utility.yul\":4869:4916   */\n      mstore\n        /* \"#utility.yul\":4933:5064   */\n      tag_138\n        /* \"#utility.yul\":5059:5063   */\n      dup2\n        /* \"#utility.yul\":4933:5064   */\n      tag_107\n      jump\t// in\n    tag_138:\n        /* \"#utility.yul\":4925:5064   */\n      swap1\n      pop\n        /* \"#utility.yul\":4652:5071   */\n      swap2\n      swap1\n      pop\n      jump\t// out\n        /* \"#utility.yul\":5077:5496   */\n    tag_52:\n        /* \"#utility.yul\":5243:5247   */\n      0x00\n        /* \"#utility.yul\":5281:5283   */\n      0x20\n        /* \"#utility.yul\":5270:5279   */\n      dup3\n        /* \"#utility.yul\":5266:5284   */\n      add\n        /* \"#utility.yul\":5258:5284   */\n      swap1\n      pop\n        /* \"#utility.yul\":5330:5339   */\n      dup2\n        /* \"#utility.yul\":5324:5328   */\n      dup2\n        /* \"#utility.yul\":5320:5340   */\n      sub\n        /* \"#utility.yul\":5316:5317   */\n      0x00\n        /* \"#utility.yul\":5305:5314   */\n      dup4\n        /* \"#utility.yul\":5301:5318   */\n      add\n        /* \"#utility.yul\":5294:5341   */\n      mstore\n        /* \"#utility.yul\":5358:5489   */\n      tag_140\n        /* \"#utility.yul\":5484:5488   */\n      dup2\n        /* \"#utility.yul\":5358:5489   */\n      tag_112\n      jump\t// in\n    tag_140:\n        /* \"#utility.yul\":5350:5489   */\n      swap1\n      pop\n        /* \"#utility.yul\":5077:5496   */\n      swap2\n      swap1\n      pop\n      jump\t// out\n        /* \"#utility.yul\":5502:5724   */\n    tag_11:\n        /* \"#utility.yul\":5595:5599   */\n      0x00\n        /* \"#utility.yul\":5633:5635   */\n      0x20\n        /* \"#utility.yul\":5622:5631   */\n      dup3\n        /* \"#utility.yul\":5618:5636   */\n      add\n        /* \"#utility.yul\":5610:5636   */\n      swap1\n      pop\n        /* \"#utility.yul\":5646:5717   */\n      tag_142\n        /* \"#utility.yul\":5714:5715   */\n      0x00\n        /* \"#utility.yul\":5703:5712   */\n      dup4\n        /* \"#utility.yul\":5699:5716   */\n      add\n        /* \"#utility.yul\":5690:5696   */\n      dup5\n        /* \"#utility.yul\":5646:5717   */\n      tag_117\n      jump\t// in\n    tag_142:\n        /* \"#utility.yul\":5502:5724   */\n      swap3\n      swap2\n      pop\n      pop\n      jump\t// out\n        /* \"#utility.yul\":5730:5894   */\n    tag_92:\n        /* \"#utility.yul\":5802:5806   */\n      0x00\n        /* \"#utility.yul\":5825:5828   */\n      dup2\n        /* \"#utility.yul\":5817:5828   */\n      swap1\n      pop\n        /* \"#utility.yul\":5848:5851   */\n      dup2\n        /* \"#utility.yul\":5845:5846   */\n      0x00\n        /* \"#utility.yul\":5838:5852   */\n      mstore\n        /* \"#utility.yul\":5882:5886   */\n      0x20\n        /* \"#utility.yul\":5879:5880   */\n      0x00\n        /* \"#utility.yul\":5869:5887   */\n      keccak256\n        /* \"#utility.yul\":5861:5887   */\n      swap1\n      pop\n        /* \"#utility.yul\":5730:5894   */\n      swap2\n      swap1\n      pop\n      jump\t// out\n        /* \"#utility.yul\":5900:6019   */\n    tag_88:\n        /* \"#utility.yul\":5972:5978   */\n      0x00\n        /* \"#utility.yul\":6006:6011   */\n      dup2\n        /* \"#utility.yul\":6000:6012   */\n      sload\n        /* \"#utility.yul\":5990:6012   */\n      swap1\n      pop\n        /* \"#utility.yul\":5900:6019   */\n      swap2\n      swap1\n      pop\n      jump\t// out\n        /* \"#utility.yul\":6025:6143   */\n    tag_100:\n        /* \"#utility.yul\":6100:6104   */\n      0x00\n        /* \"#utility.yul\":6132:6136   */\n      0x01\n        /* \"#utility.yul\":6127:6130   */\n      dup3\n        /* \"#utility.yul\":6123:6137   */\n      add\n        /* \"#utility.yul\":6115:6137   */\n      swap1\n      pop\n        /* \"#utility.yul\":6025:6143   */\n      swap2\n      swap1\n      pop\n      jump\t// out\n        /* \"#utility.yul\":6149:6320   */\n    tag_90:\n        /* \"#utility.yul\":6274:6285   */\n      0x00\n        /* \"#utility.yul\":6311:6314   */\n      dup2\n        /* \"#utility.yul\":6296:6314   */\n      swap1\n      pop\n        /* \"#utility.yul\":6149:6320   */\n      swap3\n      swap2\n      pop\n      pop\n      jump\t// out\n        /* \"#utility.yul\":6326:6495   */\n    tag_104:\n        /* \"#utility.yul\":6410:6421   */\n      0x00\n        /* \"#utility.yul\":6444:6450   */\n      dup3\n        /* \"#utility.yul\":6439:6442   */\n      dup3\n        /* \"#utility.yul\":6432:6451   */\n      mstore\n        /* \"#utility.yul\":6484:6488   */\n      0x20\n        /* \"#utility.yul\":6479:6482   */\n      dup3\n        /* \"#utility.yul\":6475:6489   */\n      add\n        /* \"#utility.yul\":6460:6489   */\n      swap1\n      pop\n        /* \"#utility.yul\":6326:6495   */\n      swap3\n      swap2\n      pop\n      pop\n      jump\t// out\n        /* \"#utility.yul\":6501:6806   */\n    tag_57:\n        /* \"#utility.yul\":6541:6544   */\n      0x00\n        /* \"#utility.yul\":6560:6580   */\n      tag_149\n        /* \"#utility.yul\":6578:6579   */\n      dup3\n        /* \"#utility.yul\":6560:6580   */\n      tag_120\n      jump\t// in\n    tag_149:\n        /* \"#utility.yul\":6555:6580   */\n      swap2\n      pop\n        /* \"#utility.yul\":6594:6614   */\n      tag_150\n        /* \"#utility.yul\":6612:6613   */\n      dup4\n        /* \"#utility.yul\":6594:6614   */\n      tag_120\n      jump\t// in\n    tag_150:\n        /* \"#utility.yul\":6589:6614   */\n      swap3\n      pop\n        /* \"#utility.yul\":6748:6749   */\n      dup3\n        /* \"#utility.yul\":6680:6746   */\n      0xffffffffffffffffffffffffffffffffffffffffffffffffffffffffffffffff\n        /* \"#utility.yul\":6676:6750   */\n      sub\n        /* \"#utility.yul\":6673:6674   */\n      dup3\n        /* \"#utility.yul\":6670:6751   */\n      gt\n        /* \"#utility.yul\":6667:6774   */\n      iszero\n      tag_151\n      jumpi\n        /* \"#utility.yul\":6754:6772   */\n      tag_152\n      tag_153\n      jump\t// in\n    tag_152:\n        /* \"#utility.yul\":6667:6774   */\n    tag_151:\n        /* \"#utility.yul\":6798:6799   */\n      dup3\n        /* \"#utility.yul\":6795:6796   */\n      dup3\n        /* \"#utility.yul\":6791:6800   */\n      add\n        /* \"#utility.yul\":6784:6800   */\n      swap1\n      pop\n        /* \"#utility.yul\":6501:6806   */\n      swap3\n      swap2\n      pop\n      pop\n      jump\t// out\n        /* \"#utility.yul\":6812:6959   */\n    tag_154:\n        /* \"#utility.yul\":6870:6877   */\n      0x00\n        /* \"#utility.yul\":6910:6952   */\n      0xffffffffffffffffffffffffffffffffffffffff\n        /* \"#utility.yul\":6903:6908   */\n      dup3\n        /* \"#utility.yul\":6899:6953   */\n      and\n        /* \"#utility.yul\":6888:6953   */\n      swap1\n      pop\n        /* \"#utility.yul\":6812:6959   */\n      swap2\n      swap1\n      pop\n      jump\t// out\n        /* \"#utility.yul\":6965:7061   */\n    tag_84:\n        /* \"#utility.yul\":7002:7009   */\n      0x00\n        /* \"#utility.yul\":7031:7055   */\n      tag_157\n        /* \"#utility.yul\":7049:7054   */\n      dup3\n        /* \"#utility.yul\":7031:7055   */\n      tag_158\n      jump\t// in\n    tag_157:\n        /* \"#utility.yul\":7020:7055   */\n      swap1\n      pop\n        /* \"#utility.yul\":6965:7061   */\n      swap2\n      swap1\n      pop\n      jump\t// out\n        /* \"#utility.yul\":7067:7171   */\n    tag_78:\n        /* \"#utility.yul\":7112:7119   */\n      0x00\n        /* \"#utility.yul\":7141:7165   */\n      tag_160\n        /* \"#utility.yul\":7159:7164   */\n      dup3\n        /* \"#utility.yul\":7141:7165   */\n      tag_158\n      jump\t// in\n    tag_160:\n        /* \"#utility.yul\":7130:7165   */\n      swap1\n      pop\n        /* \"#utility.yul\":7067:7171   */\n      swap2\n      swap1\n      pop\n      jump\t// out\n        /* \"#utility.yul\":7177:7303   */\n    tag_158:\n        /* \"#utility.yul\":7214:7221   */\n      0x00\n        /* \"#utility.yul\":7254:7296   */\n      0xffffffffffffffffffffffffffffffffffffffff\n        /* \"#utility.yul\":7247:7252   */\n      dup3\n        /* \"#utility.yul\":7243:7297   */\n      and\n        /* \"#utility.yul\":7232:7297   */\n      swap1\n      pop\n        /* \"#utility.yul\":7177:7303   */\n      swap2\n      swap1\n      pop\n      jump\t// out\n        /* \"#utility.yul\":7309:7386   */\n    tag_120:\n        /* \"#utility.yul\":7346:7353   */\n      0x00\n        /* \"#utility.yul\":7375:7380   */\n      dup2\n        /* \"#utility.yul\":7364:7380   */\n      swap1\n      pop\n        /* \"#utility.yul\":7309:7386   */\n      swap2\n      swap1\n      pop\n      jump\t// out\n        /* \"#utility.yul\":7392:7574   */\n    tag_163:\n        /* \"#utility.yul\":7469:7474   */\n      0x00\n        /* \"#utility.yul\":7494:7568   */\n      tag_165\n        /* \"#utility.yul\":7533:7567   */\n      tag_166\n        /* \"#utility.yul\":7556:7566   */\n      dup4\n        /* \"#utility.yul\":7533:7567   */\n      tag_167\n      jump\t// in\n    tag_166:\n        /* \"#utility.yul\":7494:7568   */\n      tag_154\n      jump\t// in\n    tag_165:\n        /* \"#utility.yul\":7485:7568   */\n      swap1\n      pop\n        /* \"#utility.yul\":7392:7574   */\n      swap2\n      swap1\n      pop\n      jump\t// out\n        /* \"#utility.yul\":7580:7813   */\n    tag_55:\n        /* \"#utility.yul\":7619:7622   */\n      0x00\n        /* \"#utility.yul\":7642:7666   */\n      tag_169\n        /* \"#utility.yul\":7660:7665   */\n      dup3\n        /* \"#utility.yul\":7642:7666   */\n      tag_120\n      jump\t// in\n    tag_169:\n        /* \"#utility.yul\":7633:7666   */\n      swap2\n      pop\n        /* \"#utility.yul\":7688:7754   */\n      0xffffffffffffffffffffffffffffffffffffffffffffffffffffffffffffffff\n        /* \"#utility.yul\":7681:7686   */\n      dup3\n        /* \"#utility.yul\":7678:7755   */\n      eq\n        /* \"#utility.yul\":7675:7778   */\n      iszero\n      tag_170\n      jumpi\n        /* \"#utility.yul\":7758:7776   */\n      tag_171\n      tag_153\n      jump\t// in\n    tag_171:\n        /* \"#utility.yul\":7675:7778   */\n    tag_170:\n        /* \"#utility.yul\":7805:7806   */\n      0x01\n        /* \"#utility.yul\":7798:7803   */\n      dup3\n        /* \"#utility.yul\":7794:7807   */\n      add\n        /* \"#utility.yul\":7787:7807   */\n      swap1\n      pop\n        /* \"#utility.yul\":7580:7813   */\n      swap2\n      swap1\n      pop\n      jump\t// out\n        /* \"#utility.yul\":7819:7898   */\n    tag_125:\n        /* \"#utility.yul\":7858:7865   */\n      0x00\n        /* \"#utility.yul\":7887:7892   */\n      dup2\n        /* \"#utility.yul\":7876:7892   */\n      swap1\n      pop\n        /* \"#utility.yul\":7819:7898   */\n      swap2\n      swap1\n      pop\n      jump\t// out\n        /* \"#utility.yul\":7904:8080   */\n    tag_62:\n        /* \"#utility.yul\":7936:7937   */\n      0x00\n        /* \"#utility.yul\":7953:7973   */\n      tag_174\n        /* \"#utility.yul\":7971:7972   */\n      dup3\n        /* \"#utility.yul\":7953:7973   */\n      tag_120\n      jump\t// in\n    tag_174:\n        /* \"#utility.yul\":7948:7973   */\n      swap2\n      pop\n        /* \"#utility.yul\":7987:8007   */\n      tag_175\n        /* \"#utility.yul\":8005:8006   */\n      dup4\n        /* \"#utility.yul\":7987:8007   */\n      tag_120\n      jump\t// in\n    tag_175:\n        /* \"#utility.yul\":7982:8007   */\n      swap3\n      pop\n        /* \"#utility.yul\":8026:8027   */\n      dup3\n        /* \"#utility.yul\":8016:8051   */\n      tag_176\n      jumpi\n        /* \"#utility.yul\":8031:8049   */\n      tag_177\n      tag_178\n      jump\t// in\n    tag_177:\n        /* \"#utility.yul\":8016:8051   */\n    tag_176:\n        /* \"#utility.yul\":8072:8073   */\n      dup3\n        /* \"#utility.yul\":8069:8070   */\n      dup3\n        /* \"#utility.yul\":8065:8074   */\n      mod\n        /* \"#utility.yul\":8060:8074   */\n      swap1\n      pop\n        /* \"#utility.yul\":7904:8080   */\n      swap3\n      swap2\n      pop\n      pop\n      jump\t// out\n        /* \"#utility.yul\":8086:8266   */\n    tag_153:\n        /* \"#utility.yul\":8134:8211   */\n      0x4e487b7100000000000000000000000000000000000000000000000000000000\n        /* \"#utility.yul\":8131:8132   */\n      0x00\n        /* \"#utility.yul\":8124:8212   */\n      mstore\n        /* \"#utility.yul\":8231:8235   */\n      0x11\n        /* \"#utility.yul\":8228:8229   */\n      0x04\n        /* \"#utility.yul\":8221:8236   */\n      mstore\n        /* \"#utility.yul\":8255:8259   */\n      0x24\n        /* \"#utility.yul\":8252:8253   */\n      0x00\n        /* \"#utility.yul\":8245:8260   */\n      revert\n        /* \"#utility.yul\":8272:8452   */\n    tag_178:\n        /* \"#utility.yul\":8320:8397   */\n      0x4e487b7100000000000000000000000000000000000000000000000000000000\n        /* \"#utility.yul\":8317:8318   */\n      0x00\n        /* \"#utility.yul\":8310:8398   */\n      mstore\n        /* \"#utility.yul\":8417:8421   */\n      0x12\n        /* \"#utility.yul\":8414:8415   */\n      0x04\n        /* \"#utility.yul\":8407:8422   */\n      mstore\n        /* \"#utility.yul\":8441:8445   */\n      0x24\n        /* \"#utility.yul\":8438:8439   */\n      0x00\n        /* \"#utility.yul\":8431:8446   */\n      revert\n        /* \"#utility.yul\":8458:8638   */\n    tag_37:\n        /* \"#utility.yul\":8506:8583   */\n      0x4e487b7100000000000000000000000000000000000000000000000000000000\n        /* \"#utility.yul\":8503:8504   */\n      0x00\n        /* \"#utility.yul\":8496:8584   */\n      mstore\n        /* \"#utility.yul\":8603:8607   */\n      0x32\n        /* \"#utility.yul\":8600:8601   */\n      0x04\n        /* \"#utility.yul\":8593:8608   */\n      mstore\n        /* \"#utility.yul\":8627:8631   */\n      0x24\n        /* \"#utility.yul\":8624:8625   */\n      0x00\n        /* \"#utility.yul\":8617:8632   */\n      revert\n        /* \"#utility.yul\":8644:8824   */\n    tag_41:\n        /* \"#utility.yul\":8692:8769   */\n      0x4e487b7100000000000000000000000000000000000000000000000000000000\n        /* \"#utility.yul\":8689:8690   */\n      0x00\n        /* \"#utility.yul\":8682:8770   */\n      mstore\n        /* \"#utility.yul\":8789:8793   */\n      0x41\n        /* \"#utility.yul\":8786:8787   */\n      0x04\n        /* \"#utility.yul\":8779:8794   */\n      mstore\n        /* \"#utility.yul\":8813:8817   */\n      0x24\n        /* \"#utility.yul\":8810:8811   */\n      0x00\n        /* \"#utility.yul\":8803:8818   */\n      revert\n        /* \"#utility.yul\":8830:8990   */\n    tag_97:\n        /* \"#utility.yul\":8893:8898   */\n      0x00\n        /* \"#utility.yul\":8918:8983   */\n      tag_184\n        /* \"#utility.yul\":8977:8981   */\n      dup3\n        /* \"#utility.yul\":8971:8982   */\n      sload\n        /* \"#utility.yul\":8918:8983   */\n      tag_163\n      jump\t// in\n    tag_184:\n        /* \"#utility.yul\":8909:8983   */\n      swap1\n      pop\n        /* \"#utility.yul\":8830:8990   */\n      swap2\n      swap1\n      pop\n      jump\t// out\n        /* \"#utility.yul\":8996:9098   */\n    tag_167:\n        /* \"#utility.yul\":9038:9046   */\n      0x00\n        /* \"#utility.yul\":9085:9090   */\n      dup2\n        /* \"#utility.yul\":9082:9083   */\n      0x00\n        /* \"#utility.yul\":9078:9091   */\n      shr\n        /* \"#utility.yul\":9057:9091   */\n      swap1\n      pop\n        /* \"#utility.yul\":8996:9098   */\n      swap2\n      swap1\n      pop\n      jump\t// out\n        /* \"#utility.yul\":9104:9286   */\n    tag_106:\n        /* \"#utility.yul\":9244:9278   */\n      0x4f6e6c7920746865206f776e65722063616e207069636b20612077696e6e6572\n        /* \"#utility.yul\":9240:9241   */\n      0x00\n        /* \"#utility.yul\":9232:9238   */\n      dup3\n        /* \"#utility.yul\":9228:9242   */\n      add\n        /* \"#utility.yul\":9221:9279   */\n      mstore\n        /* \"#utility.yul\":9104:9286   */\n      pop\n      jump\t// out\n        /* \"#utility.yul\":9292:9529   */\n    tag_111:\n        /* \"#utility.yul\":9432:9466   */\n      0x5468657265206d757374206265206174206c65617374206f6e6520706c617965\n        /* \"#utility.yul\":9428:9429   */\n      0x00\n        /* \"#utility.yul\":9420:9426   */\n      dup3\n        /* \"#utility.yul\":9416:9430   */\n      add\n        /* \"#utility.yul\":9409:9467   */\n      mstore\n        /* \"#utility.yul\":9501:9521   */\n      0x7220746f207069636b20612077696e6e65720000000000000000000000000000\n        /* \"#utility.yul\":9496:9498   */\n      0x20\n        /* \"#utility.yul\":9488:9494   */\n      dup3\n        /* \"#utility.yul\":9484:9499   */\n      add\n        /* \"#utility.yul\":9477:9522   */\n      mstore\n        /* \"#utility.yul\":9292:9529   */\n      pop\n      jump\t// out\n        /* \"#utility.yul\":9535:9761   */\n    tag_116:\n        /* \"#utility.yul\":9675:9709   */\n      0x596f7572207469636b6574206d757374206265206174206c6561737420302e30\n        /* \"#utility.yul\":9671:9672   */\n      0x00\n        /* \"#utility.yul\":9663:9669   */\n      dup3\n        /* \"#utility.yul\":9659:9673   */\n      add\n        /* \"#utility.yul\":9652:9710   */\n      mstore\n        /* \"#utility.yul\":9744:9753   */\n      0x3120657468657200000000000000000000000000000000000000000000000000\n        /* \"#utility.yul\":9739:9741   */\n      0x20\n        /* \"#utility.yul\":9731:9737   */\n      dup3\n        /* \"#utility.yul\":9727:9742   */\n      add\n        /* \"#utility.yul\":9720:9754   */\n      mstore\n        /* \"#utility.yul\":9535:9761   */\n      pop\n      jump\t// out\n\n    auxdata: 0xa2646970667358221220155bb4e19e67fb603b6ef134ec5a167144a08d11e2ecba32de2fdb94b59a926b64736f6c63430008070033\n}\n",
				"bytecode": {
					"linkReferences": {},
					"object": "608060405234801561001057600080fd5b50336000806101000a81548173ffffffffffffffffffffffffffffffffffffffff021916908373ffffffffffffffffffffffffffffffffffffffff160217905550610ac0806100606000396000f3fe60806040526004361061004a5760003560e01c80634ba2363a1461004f5780635d495aea1461007a5780638da5cb5b1461009157806397b2f556146100bc578063e97dcb62146100e7575b600080fd5b34801561005b57600080fd5b506100646100f1565b6040516100719190610721565b60405180910390f35b34801561008657600080fd5b5061008f6100f7565b005b34801561009d57600080fd5b506100a6610315565b6040516100b3919061067d565b60405180910390f35b3480156100c857600080fd5b506100d1610339565b6040516100de9190610721565b60405180910390f35b6100ef61033f565b005b60025481565b60008054906101000a900473ffffffffffffffffffffffffffffffffffffffff1673ffffffffffffffffffffffffffffffffffffffff163373ffffffffffffffffffffffffffffffffffffffff1614610185576040517f08c379a000000000000000000000000000000000000000000000000000000000815260040161017c906106c1565b60405180910390fd5b6000600354116101ca576040517f08c379a00000000000000000000000000000000000000000000000000000000081526004016101c1906106e1565b60405180910390fd5b60006101d461041e565b90506000600182815481106101ec576101eb610945565b5b9060005260206000200160009054906101000a900473ffffffffffffffffffffffffffffffffffffffff16905060006002549050600067ffffffffffffffff81111561023b5761023a610974565b5b6040519080825280602002602001820160405280156102695781602001602082028036833780820191505090505b506001908051906020019061027f929190610464565b50600060028190555060006003819055507f9c2270628a9b29d30ae96b6c4c14ed646ee134febdce38a5b77f2bde9cea2e2082826040516102c1929190610698565b60405180910390a18173ffffffffffffffffffffffffffffffffffffffff166108fc829081150290604051600060405180830381858888f1935050505015801561030f573d6000803e3d6000fd5b50505050565b60008054906101000a900473ffffffffffffffffffffffffffffffffffffffff1681565b60035481565b662386f26fc100003411610388576040517f08c379a000000000000000000000000000000000000000000000000000000000815260040161037f90610701565b60405180910390fd5b6001339080600181540180825580915050600190039060005260206000200160009091909190916101000a81548173ffffffffffffffffffffffffffffffffffffffff021916908373ffffffffffffffffffffffffffffffffffffffff160217905550600360008154809291906103fe90610863565b919050555034600260008282546104159190610785565b92505081905550565b60006001805490504442600160405160200161043c93929190610644565b6040516020818303038152906040528051906020012060001c61045f91906108b6565b905090565b8280548282559060005260206000209081019282156104dd579160200282015b828111156104dc5782518260006101000a81548173ffffffffffffffffffffffffffffffffffffffff021916908373ffffffffffffffffffffffffffffffffffffffff16021790555091602001919060010190610484565b5b5090506104ea91906104ee565b5090565b5b808211156105075760008160009055506001016104ef565b5090565b60006105178383610532565b60208301905092915050565b61052c8161080d565b82525050565b61053b8161080d565b82525050565b61054a816107fb565b82525050565b600061055b82610751565b6105658185610769565b93506105708361073c565b8060005b838110156105a857610585826109a3565b61058f888261050b565b975061059a8361075c565b925050600181019050610574565b5085935050505092915050565b60006105c2602083610774565b91506105cd826109c3565b602082019050919050565b60006105e5603283610774565b91506105f0826109ec565b604082019050919050565b6000610608602783610774565b915061061382610a3b565b604082019050919050565b6106278161083f565b82525050565b61063e6106398261083f565b6108ac565b82525050565b6000610650828661062d565b602082019150610660828561062d565b6020820191506106708284610550565b9150819050949350505050565b60006020820190506106926000830184610541565b92915050565b60006040820190506106ad6000830185610523565b6106ba602083018461061e565b9392505050565b600060208201905081810360008301526106da816105b5565b9050919050565b600060208201905081810360008301526106fa816105d8565b9050919050565b6000602082019050818103600083015261071a816105fb565b9050919050565b6000602082019050610736600083018461061e565b92915050565b60008190508160005260206000209050919050565b600081549050919050565b6000600182019050919050565b600081905092915050565b600082825260208201905092915050565b60006107908261083f565b915061079b8361083f565b9250827fffffffffffffffffffffffffffffffffffffffffffffffffffffffffffffffff038211156107d0576107cf6108e7565b5b828201905092915050565b600073ffffffffffffffffffffffffffffffffffffffff82169050919050565b60006108068261081f565b9050919050565b60006108188261081f565b9050919050565b600073ffffffffffffffffffffffffffffffffffffffff82169050919050565b6000819050919050565b600061085c610857836109b6565b6107db565b9050919050565b600061086e8261083f565b91507fffffffffffffffffffffffffffffffffffffffffffffffffffffffffffffffff8214156108a1576108a06108e7565b5b600182019050919050565b6000819050919050565b60006108c18261083f565b91506108cc8361083f565b9250826108dc576108db610916565b5b828206905092915050565b7f4e487b7100000000000000000000000000000000000000000000000000000000600052601160045260246000fd5b7f4e487b7100000000000000000000000000000000000000000000000000000000600052601260045260246000fd5b7f4e487b7100000000000000000000000000000000000000000000000000000000600052603260045260246000fd5b7f4e487b7100000000000000000000000000000000000000000000000000000000600052604160045260246000fd5b60006109af8254610849565b9050919050565b60008160001c9050919050565b7f4f6e6c7920746865206f776e65722063616e207069636b20612077696e6e6572600082015250565b7f5468657265206d757374206265206174206c65617374206f6e6520706c61796560008201527f7220746f207069636b20612077696e6e65720000000000000000000000000000602082015250565b7f596f7572207469636b6574206d757374206265206174206c6561737420302e3060008201527f312065746865720000000000000000000000000000000000000000000000000060208201525056fea2646970667358221220155bb4e19e67fb603b6ef134ec5a167144a08d11e2ecba32de2fdb94b59a926b64736f6c63430008070033",
					"opcodes": "PUSH1 0x80 PUSH1 0x40 MSTORE CALLVALUE DUP1 ISZERO PUSH2 0x10 JUMPI PUSH1 0x0 DUP1 REVERT JUMPDEST POP CALLER PUSH1 0x0 DUP1 PUSH2 0x100 EXP DUP2 SLOAD DUP2 PUSH20 0xFFFFFFFFFFFFFFFFFFFFFFFFFFFFFFFFFFFFFFFF MUL NOT AND SWAP1 DUP4 PUSH20 0xFFFFFFFFFFFFFFFFFFFFFFFFFFFFFFFFFFFFFFFF AND MUL OR SWAP1 SSTORE POP PUSH2 0xAC0 DUP1 PUSH2 0x60 PUSH1 0x0 CODECOPY PUSH1 0x0 RETURN INVALID PUSH1 0x80 PUSH1 0x40 MSTORE PUSH1 0x4 CALLDATASIZE LT PUSH2 0x4A JUMPI PUSH1 0x0 CALLDATALOAD PUSH1 0xE0 SHR DUP1 PUSH4 0x4BA2363A EQ PUSH2 0x4F JUMPI DUP1 PUSH4 0x5D495AEA EQ PUSH2 0x7A JUMPI DUP1 PUSH4 0x8DA5CB5B EQ PUSH2 0x91 JUMPI DUP1 PUSH4 0x97B2F556 EQ PUSH2 0xBC JUMPI DUP1 PUSH4 0xE97DCB62 EQ PUSH2 0xE7 JUMPI JUMPDEST PUSH1 0x0 DUP1 REVERT JUMPDEST CALLVALUE DUP1 ISZERO PUSH2 0x5B JUMPI PUSH1 0x0 DUP1 REVERT JUMPDEST POP PUSH2 0x64 PUSH2 0xF1 JUMP JUMPDEST PUSH1 0x40 MLOAD PUSH2 0x71 SWAP2 SWAP1 PUSH2 0x721 JUMP JUMPDEST PUSH1 0x40 MLOAD DUP1 SWAP2 SUB SWAP1 RETURN JUMPDEST CALLVALUE DUP1 ISZERO PUSH2 0x86 JUMPI PUSH1 0x0 DUP1 REVERT JUMPDEST POP PUSH2 0x8F PUSH2 0xF7 JUMP JUMPDEST STOP JUMPDEST CALLVALUE DUP1 ISZERO PUSH2 0x9D JUMPI PUSH1 0x0 DUP1 REVERT JUMPDEST POP PUSH2 0xA6 PUSH2 0x315 JUMP JUMPDEST PUSH1 0x40 MLOAD PUSH2 0xB3 SWAP2 SWAP1 PUSH2 0x67D JUMP JUMPDEST PUSH1 0x40 MLOAD DUP1 SWAP2 SUB SWAP1 RETURN JUMPDEST CALLVALUE DUP1 ISZERO PUSH2 0xC8 JUMPI PUSH1 0x0 DUP1 REVERT JUMPDEST POP PUSH2 0xD1 PUSH2 0x339 JUMP JUMPDEST PUSH1 0x40 MLOAD PUSH2 0xDE SWAP2 SWAP1 PUSH2 0x721 JUMP JUMPDEST PUSH1 0x40 MLOAD DUP1 SWAP2 SUB SWAP1 RETURN JUMPDEST PUSH2 0xEF PUSH2 0x33F JUMP JUMPDEST STOP JUMPDEST PUSH1 0x2 SLOAD DUP2 JUMP JUMPDEST PUSH1 0x0 DUP1 SLOAD SWAP1 PUSH2 0x100 EXP SWAP1 DIV PUSH20 0xFFFFFFFFFFFFFFFFFFFFFFFFFFFFFFFFFFFFFFFF AND PUSH20 0xFFFFFFFFFFFFFFFFFFFFFFFFFFFFFFFFFFFFFFFF AND CALLER PUSH20 0xFFFFFFFFFFFFFFFFFFFFFFFFFFFFFFFFFFFFFFFF AND EQ PUSH2 0x185 JUMPI PUSH1 0x40 MLOAD PUSH32 0x8C379A000000000000000000000000000000000000000000000000000000000 DUP2 MSTORE PUSH1 0x4 ADD PUSH2 0x17C SWAP1 PUSH2 0x6C1 JUMP JUMPDEST PUSH1 0x40 MLOAD DUP1 SWAP2 SUB SWAP1 REVERT JUMPDEST PUSH1 0x0 PUSH1 0x3 SLOAD GT PUSH2 0x1CA JUMPI PUSH1 0x40 MLOAD PUSH32 0x8C379A000000000000000000000000000000000000000000000000000000000 DUP2 MSTORE PUSH1 0x4 ADD PUSH2 0x1C1 SWAP1 PUSH2 0x6E1 JUMP JUMPDEST PUSH1 0x40 MLOAD DUP1 SWAP2 SUB SWAP1 REVERT JUMPDEST PUSH1 0x0 PUSH2 0x1D4 PUSH2 0x41E JUMP JUMPDEST SWAP1 POP PUSH1 0x0 PUSH1 0x1 DUP3 DUP2 SLOAD DUP2 LT PUSH2 0x1EC JUMPI PUSH2 0x1EB PUSH2 0x945 JUMP JUMPDEST JUMPDEST SWAP1 PUSH1 0x0 MSTORE PUSH1 0x20 PUSH1 0x0 KECCAK256 ADD PUSH1 0x0 SWAP1 SLOAD SWAP1 PUSH2 0x100 EXP SWAP1 DIV PUSH20 0xFFFFFFFFFFFFFFFFFFFFFFFFFFFFFFFFFFFFFFFF AND SWAP1 POP PUSH1 0x0 PUSH1 0x2 SLOAD SWAP1 POP PUSH1 0x0 PUSH8 0xFFFFFFFFFFFFFFFF DUP2 GT ISZERO PUSH2 0x23B JUMPI PUSH2 0x23A PUSH2 0x974 JUMP JUMPDEST JUMPDEST PUSH1 0x40 MLOAD SWAP1 DUP1 DUP3 MSTORE DUP1 PUSH1 0x20 MUL PUSH1 0x20 ADD DUP3 ADD PUSH1 0x40 MSTORE DUP1 ISZERO PUSH2 0x269 JUMPI DUP2 PUSH1 0x20 ADD PUSH1 0x20 DUP3 MUL DUP1 CALLDATASIZE DUP4 CALLDATACOPY DUP1 DUP3 ADD SWAP2 POP POP SWAP1 POP JUMPDEST POP PUSH1 0x1 SWAP1 DUP1 MLOAD SWAP1 PUSH1 0x20 ADD SWAP1 PUSH2 0x27F SWAP3 SWAP2 SWAP1 PUSH2 0x464 JUMP JUMPDEST POP PUSH1 0x0 PUSH1 0x2 DUP2 SWAP1 SSTORE POP PUSH1 0x0 PUSH1 0x3 DUP2 SWAP1 SSTORE POP PUSH32 0x9C2270628A9B29D30AE96B6C4C14ED646EE134FEBDCE38A5B77F2BDE9CEA2E20 DUP3 DUP3 PUSH1 0x40 MLOAD PUSH2 0x2C1 SWAP3 SWAP2 SWAP1 PUSH2 0x698 JUMP JUMPDEST PUSH1 0x40 MLOAD DUP1 SWAP2 SUB SWAP1 LOG1 DUP2 PUSH20 0xFFFFFFFFFFFFFFFFFFFFFFFFFFFFFFFFFFFFFFFF AND PUSH2 0x8FC DUP3 SWAP1 DUP2 ISZERO MUL SWAP1 PUSH1 0x40 MLOAD PUSH1 0x0 PUSH1 0x40 MLOAD DUP1 DUP4 SUB DUP2 DUP6 DUP9 DUP9 CALL SWAP4 POP POP POP POP ISZERO DUP1 ISZERO PUSH2 0x30F JUMPI RETURNDATASIZE PUSH1 0x0 DUP1 RETURNDATACOPY RETURNDATASIZE PUSH1 0x0 REVERT JUMPDEST POP POP POP POP JUMP JUMPDEST PUSH1 0x0 DUP1 SLOAD SWAP1 PUSH2 0x100 EXP SWAP1 DIV PUSH20 0xFFFFFFFFFFFFFFFFFFFFFFFFFFFFFFFFFFFFFFFF AND DUP2 JUMP JUMPDEST PUSH1 0x3 SLOAD DUP2 JUMP JUMPDEST PUSH7 0x2386F26FC10000 CALLVALUE GT PUSH2 0x388 JUMPI PUSH1 0x40 MLOAD PUSH32 0x8C379A000000000000000000000000000000000000000000000000000000000 DUP2 MSTORE PUSH1 0x4 ADD PUSH2 0x37F SWAP1 PUSH2 0x701 JUMP JUMPDEST PUSH1 0x40 MLOAD DUP1 SWAP2 SUB SWAP1 REVERT JUMPDEST PUSH1 0x1 CALLER SWAP1 DUP1 PUSH1 0x1 DUP2 SLOAD ADD DUP1 DUP3 SSTORE DUP1 SWAP2 POP POP PUSH1 0x1 SWAP1 SUB SWAP1 PUSH1 0x0 MSTORE PUSH1 0x20 PUSH1 0x0 KECCAK256 ADD PUSH1 0x0 SWAP1 SWAP2 SWAP1 SWAP2 SWAP1 SWAP2 PUSH2 0x100 EXP DUP2 SLOAD DUP2 PUSH20 0xFFFFFFFFFFFFFFFFFFFFFFFFFFFFFFFFFFFFFFFF MUL NOT AND SWAP1 DUP4 PUSH20 0xFFFFFFFFFFFFFFFFFFFFFFFFFFFFFFFFFFFFFFFF AND MUL OR SWAP1 SSTORE POP PUSH1 0x3 PUSH1 0x0 DUP2 SLOAD DUP1 SWAP3 SWAP2 SWAP1 PUSH2 0x3FE SWAP1 PUSH2 0x863 JUMP JUMPDEST SWAP2 SWAP1 POP SSTORE POP CALLVALUE PUSH1 0x2 PUSH1 0x0 DUP3 DUP3 SLOAD PUSH2 0x415 SWAP2 SWAP1 PUSH2 0x785 JUMP JUMPDEST SWAP3 POP POP DUP2 SWAP1 SSTORE POP JUMP JUMPDEST PUSH1 0x0 PUSH1 0x1 DUP1 SLOAD SWAP1 POP DIFFICULTY TIMESTAMP PUSH1 0x1 PUSH1 0x40 MLOAD PUSH1 0x20 ADD PUSH2 0x43C SWAP4 SWAP3 SWAP2 SWAP1 PUSH2 0x644 JUMP JUMPDEST PUSH1 0x40 MLOAD PUSH1 0x20 DUP2 DUP4 SUB SUB DUP2 MSTORE SWAP1 PUSH1 0x40 MSTORE DUP1 MLOAD SWAP1 PUSH1 0x20 ADD KECCAK256 PUSH1 0x0 SHR PUSH2 0x45F SWAP2 SWAP1 PUSH2 0x8B6 JUMP JUMPDEST SWAP1 POP SWAP1 JUMP JUMPDEST DUP3 DUP1 SLOAD DUP3 DUP3 SSTORE SWAP1 PUSH1 0x0 MSTORE PUSH1 0x20 PUSH1 0x0 KECCAK256 SWAP1 DUP2 ADD SWAP3 DUP3 ISZERO PUSH2 0x4DD JUMPI SWAP2 PUSH1 0x20 MUL DUP3 ADD JUMPDEST DUP3 DUP2 GT ISZERO PUSH2 0x4DC JUMPI DUP3 MLOAD DUP3 PUSH1 0x0 PUSH2 0x100 EXP DUP2 SLOAD DUP2 PUSH20 0xFFFFFFFFFFFFFFFFFFFFFFFFFFFFFFFFFFFFFFFF MUL NOT AND SWAP1 DUP4 PUSH20 0xFFFFFFFFFFFFFFFFFFFFFFFFFFFFFFFFFFFFFFFF AND MUL OR SWAP1 SSTORE POP SWAP2 PUSH1 0x20 ADD SWAP2 SWAP1 PUSH1 0x1 ADD SWAP1 PUSH2 0x484 JUMP JUMPDEST JUMPDEST POP SWAP1 POP PUSH2 0x4EA SWAP2 SWAP1 PUSH2 0x4EE JUMP JUMPDEST POP SWAP1 JUMP JUMPDEST JUMPDEST DUP1 DUP3 GT ISZERO PUSH2 0x507 JUMPI PUSH1 0x0 DUP2 PUSH1 0x0 SWAP1 SSTORE POP PUSH1 0x1 ADD PUSH2 0x4EF JUMP JUMPDEST POP SWAP1 JUMP JUMPDEST PUSH1 0x0 PUSH2 0x517 DUP4 DUP4 PUSH2 0x532 JUMP JUMPDEST PUSH1 0x20 DUP4 ADD SWAP1 POP SWAP3 SWAP2 POP POP JUMP JUMPDEST PUSH2 0x52C DUP2 PUSH2 0x80D JUMP JUMPDEST DUP3 MSTORE POP POP JUMP JUMPDEST PUSH2 0x53B DUP2 PUSH2 0x80D JUMP JUMPDEST DUP3 MSTORE POP POP JUMP JUMPDEST PUSH2 0x54A DUP2 PUSH2 0x7FB JUMP JUMPDEST DUP3 MSTORE POP POP JUMP JUMPDEST PUSH1 0x0 PUSH2 0x55B DUP3 PUSH2 0x751 JUMP JUMPDEST PUSH2 0x565 DUP2 DUP6 PUSH2 0x769 JUMP JUMPDEST SWAP4 POP PUSH2 0x570 DUP4 PUSH2 0x73C JUMP JUMPDEST DUP1 PUSH1 0x0 JUMPDEST DUP4 DUP2 LT ISZERO PUSH2 0x5A8 JUMPI PUSH2 0x585 DUP3 PUSH2 0x9A3 JUMP JUMPDEST PUSH2 0x58F DUP9 DUP3 PUSH2 0x50B JUMP JUMPDEST SWAP8 POP PUSH2 0x59A DUP4 PUSH2 0x75C JUMP JUMPDEST SWAP3 POP POP PUSH1 0x1 DUP2 ADD SWAP1 POP PUSH2 0x574 JUMP JUMPDEST POP DUP6 SWAP4 POP POP POP POP SWAP3 SWAP2 POP POP JUMP JUMPDEST PUSH1 0x0 PUSH2 0x5C2 PUSH1 0x20 DUP4 PUSH2 0x774 JUMP JUMPDEST SWAP2 POP PUSH2 0x5CD DUP3 PUSH2 0x9C3 JUMP JUMPDEST PUSH1 0x20 DUP3 ADD SWAP1 POP SWAP2 SWAP1 POP JUMP JUMPDEST PUSH1 0x0 PUSH2 0x5E5 PUSH1 0x32 DUP4 PUSH2 0x774 JUMP JUMPDEST SWAP2 POP PUSH2 0x5F0 DUP3 PUSH2 0x9EC JUMP JUMPDEST PUSH1 0x40 DUP3 ADD SWAP1 POP SWAP2 SWAP1 POP JUMP JUMPDEST PUSH1 0x0 PUSH2 0x608 PUSH1 0x27 DUP4 PUSH2 0x774 JUMP JUMPDEST SWAP2 POP PUSH2 0x613 DUP3 PUSH2 0xA3B JUMP JUMPDEST PUSH1 0x40 DUP3 ADD SWAP1 POP SWAP2 SWAP1 POP JUMP JUMPDEST PUSH2 0x627 DUP2 PUSH2 0x83F JUMP JUMPDEST DUP3 MSTORE POP POP JUMP JUMPDEST PUSH2 0x63E PUSH2 0x639 DUP3 PUSH2 0x83F JUMP JUMPDEST PUSH2 0x8AC JUMP JUMPDEST DUP3 MSTORE POP POP JUMP JUMPDEST PUSH1 0x0 PUSH2 0x650 DUP3 DUP7 PUSH2 0x62D JUMP JUMPDEST PUSH1 0x20 DUP3 ADD SWAP2 POP PUSH2 0x660 DUP3 DUP6 PUSH2 0x62D JUMP JUMPDEST PUSH1 0x20 DUP3 ADD SWAP2 POP PUSH2 0x670 DUP3 DUP5 PUSH2 0x550 JUMP JUMPDEST SWAP2 POP DUP2 SWAP1 POP SWAP5 SWAP4 POP POP POP POP JUMP JUMPDEST PUSH1 0x0 PUSH1 0x20 DUP3 ADD SWAP1 POP PUSH2 0x692 PUSH1 0x0 DUP4 ADD DUP5 PUSH2 0x541 JUMP JUMPDEST SWAP3 SWAP2 POP POP JUMP JUMPDEST PUSH1 0x0 PUSH1 0x40 DUP3 ADD SWAP1 POP PUSH2 0x6AD PUSH1 0x0 DUP4 ADD DUP6 PUSH2 0x523 JUMP JUMPDEST PUSH2 0x6BA PUSH1 0x20 DUP4 ADD DUP5 PUSH2 0x61E JUMP JUMPDEST SWAP4 SWAP3 POP POP POP JUMP JUMPDEST PUSH1 0x0 PUSH1 0x20 DUP3 ADD SWAP1 POP DUP2 DUP2 SUB PUSH1 0x0 DUP4 ADD MSTORE PUSH2 0x6DA DUP2 PUSH2 0x5B5 JUMP JUMPDEST SWAP1 POP SWAP2 SWAP1 POP JUMP JUMPDEST PUSH1 0x0 PUSH1 0x20 DUP3 ADD SWAP1 POP DUP2 DUP2 SUB PUSH1 0x0 DUP4 ADD MSTORE PUSH2 0x6FA DUP2 PUSH2 0x5D8 JUMP JUMPDEST SWAP1 POP SWAP2 SWAP1 POP JUMP JUMPDEST PUSH1 0x0 PUSH1 0x20 DUP3 ADD SWAP1 POP DUP2 DUP2 SUB PUSH1 0x0 DUP4 ADD MSTORE PUSH2 0x71A DUP2 PUSH2 0x5FB JUMP JUMPDEST SWAP1 POP SWAP2 SWAP1 POP JUMP JUMPDEST PUSH1 0x0 PUSH1 0x20 DUP3 ADD SWAP1 POP PUSH2 0x736 PUSH1 0x0 DUP4 ADD DUP5 PUSH2 0x61E JUMP JUMPDEST SWAP3 SWAP2 POP POP JUMP JUMPDEST PUSH1 0x0 DUP2 SWAP1 POP DUP2 PUSH1 0x0 MSTORE PUSH1 0x20 PUSH1 0x0 KECCAK256 SWAP1 POP SWAP2 SWAP1 POP JUMP JUMPDEST PUSH1 0x0 DUP2 SLOAD SWAP1 POP SWAP2 SWAP1 POP JUMP JUMPDEST PUSH1 0x0 PUSH1 0x1 DUP3 ADD SWAP1 POP SWAP2 SWAP1 POP JUMP JUMPDEST PUSH1 0x0 DUP2 SWAP1 POP SWAP3 SWAP2 POP POP JUMP JUMPDEST PUSH1 0x0 DUP3 DUP3 MSTORE PUSH1 0x20 DUP3 ADD SWAP1 POP SWAP3 SWAP2 POP POP JUMP JUMPDEST PUSH1 0x0 PUSH2 0x790 DUP3 PUSH2 0x83F JUMP JUMPDEST SWAP2 POP PUSH2 0x79B DUP4 PUSH2 0x83F JUMP JUMPDEST SWAP3 POP DUP3 PUSH32 0xFFFFFFFFFFFFFFFFFFFFFFFFFFFFFFFFFFFFFFFFFFFFFFFFFFFFFFFFFFFFFFFF SUB DUP3 GT ISZERO PUSH2 0x7D0 JUMPI PUSH2 0x7CF PUSH2 0x8E7 JUMP JUMPDEST JUMPDEST DUP3 DUP3 ADD SWAP1 POP SWAP3 SWAP2 POP POP JUMP JUMPDEST PUSH1 0x0 PUSH20 0xFFFFFFFFFFFFFFFFFFFFFFFFFFFFFFFFFFFFFFFF DUP3 AND SWAP1 POP SWAP2 SWAP1 POP JUMP JUMPDEST PUSH1 0x0 PUSH2 0x806 DUP3 PUSH2 0x81F JUMP JUMPDEST SWAP1 POP SWAP2 SWAP1 POP JUMP JUMPDEST PUSH1 0x0 PUSH2 0x818 DUP3 PUSH2 0x81F JUMP JUMPDEST SWAP1 POP SWAP2 SWAP1 POP JUMP JUMPDEST PUSH1 0x0 PUSH20 0xFFFFFFFFFFFFFFFFFFFFFFFFFFFFFFFFFFFFFFFF DUP3 AND SWAP1 POP SWAP2 SWAP1 POP JUMP JUMPDEST PUSH1 0x0 DUP2 SWAP1 POP SWAP2 SWAP1 POP JUMP JUMPDEST PUSH1 0x0 PUSH2 0x85C PUSH2 0x857 DUP4 PUSH2 0x9B6 JUMP JUMPDEST PUSH2 0x7DB JUMP JUMPDEST SWAP1 POP SWAP2 SWAP1 POP JUMP JUMPDEST PUSH1 0x0 PUSH2 0x86E DUP3 PUSH2 0x83F JUMP JUMPDEST SWAP2 POP PUSH32 0xFFFFFFFFFFFFFFFFFFFFFFFFFFFFFFFFFFFFFFFFFFFFFFFFFFFFFFFFFFFFFFFF DUP3 EQ ISZERO PUSH2 0x8A1 JUMPI PUSH2 0x8A0 PUSH2 0x8E7 JUMP JUMPDEST JUMPDEST PUSH1 0x1 DUP3 ADD SWAP1 POP SWAP2 SWAP1 POP JUMP JUMPDEST PUSH1 0x0 DUP2 SWAP1 POP SWAP2 SWAP1 POP JUMP JUMPDEST PUSH1 0x0 PUSH2 0x8C1 DUP3 PUSH2 0x83F JUMP JUMPDEST SWAP2 POP PUSH2 0x8CC DUP4 PUSH2 0x83F JUMP JUMPDEST SWAP3 POP DUP3 PUSH2 0x8DC JUMPI PUSH2 0x8DB PUSH2 0x916 JUMP JUMPDEST JUMPDEST DUP3 DUP3 MOD SWAP1 POP SWAP3 SWAP2 POP POP JUMP JUMPDEST PUSH32 0x4E487B7100000000000000000000000000000000000000000000000000000000 PUSH1 0x0 MSTORE PUSH1 0x11 PUSH1 0x4 MSTORE PUSH1 0x24 PUSH1 0x0 REVERT JUMPDEST PUSH32 0x4E487B7100000000000000000000000000000000000000000000000000000000 PUSH1 0x0 MSTORE PUSH1 0x12 PUSH1 0x4 MSTORE PUSH1 0x24 PUSH1 0x0 REVERT JUMPDEST PUSH32 0x4E487B7100000000000000000000000000000000000000000000000000000000 PUSH1 0x0 MSTORE PUSH1 0x32 PUSH1 0x4 MSTORE PUSH1 0x24 PUSH1 0x0 REVERT JUMPDEST PUSH32 0x4E487B7100000000000000000000000000000000000000000000000000000000 PUSH1 0x0 MSTORE PUSH1 0x41 PUSH1 0x4 MSTORE PUSH1 0x24 PUSH1 0x0 REVERT JUMPDEST PUSH1 0x0 PUSH2 0x9AF DUP3 SLOAD PUSH2 0x849 JUMP JUMPDEST SWAP1 POP SWAP2 SWAP1 POP JUMP JUMPDEST PUSH1 0x0 DUP2 PUSH1 0x0 SHR SWAP1 POP SWAP2 SWAP1 POP JUMP JUMPDEST PUSH32 0x4F6E6C7920746865206F776E65722063616E207069636B20612077696E6E6572 PUSH1 0x0 DUP3 ADD MSTORE POP JUMP JUMPDEST PUSH32 0x5468657265206D757374206265206174206C65617374206F6E6520706C617965 PUSH1 0x0 DUP3 ADD MSTORE PUSH32 0x7220746F207069636B20612077696E6E65720000000000000000000000000000 PUSH1 0x20 DUP3 ADD MSTORE POP JUMP JUMPDEST PUSH32 0x596F7572207469636B6574206D757374206265206174206C6561737420302E30 PUSH1 0x0 DUP3 ADD MSTORE PUSH32 0x3120657468657200000000000000000000000000000000000000000000000000 PUSH1 0x20 DUP3 ADD MSTORE POP JUMP INVALID LOG2 PUSH5 0x6970667358 0x22 SLT KECCAK256 ISZERO JUMPDEST 0xB4 0xE1 SWAP15 PUSH8 0xFB603B6EF134EC5A AND PUSH18 0x44A08D11E2ECBA32DE2FDB94B59A926B6473 PUSH16 0x6C634300080700330000000000000000 "
				},
				"gasEstimates": {
					"creation": {
						"codeDepositCost": "550400",
						"executionCost": "24847",
						"totalCost": "575247"
					},
					"external": {
						"enter()": "infinite",
						"numPlayers()": "2473",
						"owner()": "2533",
						"pickWinner()": "infinite",
						"pot()": "2407"
					},
					"internal": {
						"random()": "infinite"
					}
				},
				"methodIdentifiers": {
					"enter()": "e97dcb62",
					"numPlayers()": "97b2f556",
					"owner()": "8da5cb5b",
					"pickWinner()": "5d495aea",
					"pot()": "4ba2363a"
				}
			},
			"storageLayout": {
				"storage": [
					{
						"astId": 3,
						"contract": "Lottery/lottery.sol:Lottery",
						"label": "owner",
						"offset": 0,
						"slot": "0",
						"type": "t_address"
					},
					{
						"astId": 6,
						"contract": "Lottery/lottery.sol:Lottery",
						"label": "players",
						"offset": 0,
						"slot": "1",
						"type": "t_array(t_address_payable)dyn_storage"
					},
					{
						"astId": 8,
						"contract": "Lottery/lottery.sol:Lottery",
						"label": "pot",
						"offset": 0,
						"slot": "2",
						"type": "t_uint256"
					},
					{
						"astId": 10,
						"contract": "Lottery/lottery.sol:Lottery",
						"label": "numPlayers",
						"offset": 0,
						"slot": "3",
						"type": "t_uint256"
					}
				],
				"types": {
					"t_address": {
						"encoding": "inplace",
						"label": "address",
						"numberOfBytes": "20"
					},
					"t_address_payable": {
						"encoding": "inplace",
						"label": "address payable",
						"numberOfBytes": "20"
					},
					"t_array(t_address_payable)dyn_storage": {
						"base": "t_address_payable",
						"encoding": "dynamic_array",
						"label": "address payable[]",
						"numberOfBytes": "32"
					},
					"t_uint256": {
						"encoding": "inplace",
						"label": "uint256",
						"numberOfBytes": "32"
					}
				}
			},
			"userdoc": {
				"kind": "user",
				"methods": {},
				"version": 1
			}
		}
	}
}